{
  "_format": "hh-sol-artifact-1",
  "contractName": "Control",
  "sourceName": "contracts/modules/Control/Control.sol",
  "abi": [
    {
      "inputs": [
        {
          "internalType": "address",
          "name": "_gameToken",
          "type": "address"
        },
        {
          "internalType": "address",
          "name": "_stakingContract",
          "type": "address"
        }
      ],
      "stateMutability": "nonpayable",
      "type": "constructor"
    },
    {
      "inputs": [],
      "name": "InvalidRegistryAddress",
      "type": "error"
    },
    {
      "inputs": [],
      "name": "ModuleAlreadyInitialized",
      "type": "error"
    },
    {
      "inputs": [],
      "name": "ModuleNotInitialized",
      "type": "error"
    },
    {
      "inputs": [],
      "name": "OnlyRegistry",
      "type": "error"
    },
    {
      "anonymous": false,
      "inputs": [],
      "name": "ModuleDisabled",
      "type": "event"
    },
    {
      "anonymous": false,
      "inputs": [],
      "name": "ModuleEnabled",
      "type": "event"
    },
    {
      "anonymous": false,
      "inputs": [
        {
          "indexed": true,
          "internalType": "address",
          "name": "registry",
          "type": "address"
        }
      ],
      "name": "ModuleInitialized",
      "type": "event"
    },
    {
      "anonymous": false,
      "inputs": [
        {
          "indexed": true,
          "internalType": "bytes8",
          "name": "id",
          "type": "bytes8"
        },
        {
          "indexed": false,
          "internalType": "string",
          "name": "name",
          "type": "string"
        },
        {
          "indexed": true,
          "internalType": "address",
          "name": "creator",
          "type": "address"
        },
        {
          "indexed": true,
          "internalType": "address",
          "name": "treasury",
          "type": "address"
        },
        {
          "indexed": false,
          "internalType": "uint256",
          "name": "timestamp",
          "type": "uint256"
        }
      ],
      "name": "OrganizationCreated",
      "type": "event"
    },
    {
      "anonymous": false,
      "inputs": [
        {
          "indexed": true,
          "internalType": "bytes8",
          "name": "id",
          "type": "bytes8"
        },
        {
          "indexed": true,
          "internalType": "address",
          "name": "oldPrime",
          "type": "address"
        },
        {
          "indexed": true,
          "internalType": "address",
          "name": "newPrime",
          "type": "address"
        },
        {
          "indexed": false,
          "internalType": "uint256",
          "name": "timestamp",
          "type": "uint256"
        }
      ],
      "name": "OrganizationPrimeUpdated",
      "type": "event"
    },
    {
      "anonymous": false,
      "inputs": [
        {
          "indexed": true,
          "internalType": "bytes8",
          "name": "id",
          "type": "bytes8"
        },
        {
          "indexed": false,
          "internalType": "enum IControl.OrgState",
          "name": "oldState",
          "type": "uint8"
        },
        {
          "indexed": false,
          "internalType": "enum IControl.OrgState",
          "name": "newState",
          "type": "uint8"
        },
        {
          "indexed": false,
          "internalType": "uint256",
          "name": "timestamp",
          "type": "uint256"
        }
      ],
      "name": "OrganizationStateChanged",
      "type": "event"
    },
    {
      "anonymous": false,
      "inputs": [
        {
          "indexed": false,
          "internalType": "address",
          "name": "account",
          "type": "address"
        }
      ],
      "name": "Paused",
      "type": "event"
    },
    {
      "anonymous": false,
      "inputs": [
        {
          "indexed": true,
          "internalType": "bytes32",
          "name": "role",
          "type": "bytes32"
        },
        {
          "indexed": true,
          "internalType": "bytes32",
          "name": "previousAdminRole",
          "type": "bytes32"
        },
        {
          "indexed": true,
          "internalType": "bytes32",
          "name": "newAdminRole",
          "type": "bytes32"
        }
      ],
      "name": "RoleAdminChanged",
      "type": "event"
    },
    {
      "anonymous": false,
      "inputs": [
        {
          "indexed": true,
          "internalType": "bytes32",
          "name": "role",
          "type": "bytes32"
        },
        {
          "indexed": true,
          "internalType": "address",
          "name": "account",
          "type": "address"
        },
        {
          "indexed": true,
          "internalType": "address",
          "name": "sender",
          "type": "address"
        }
      ],
      "name": "RoleGranted",
      "type": "event"
    },
    {
      "anonymous": false,
      "inputs": [
        {
          "indexed": true,
          "internalType": "bytes32",
          "name": "role",
          "type": "bytes32"
        },
        {
          "indexed": true,
          "internalType": "address",
          "name": "account",
          "type": "address"
        },
        {
          "indexed": true,
          "internalType": "address",
          "name": "sender",
          "type": "address"
        }
      ],
      "name": "RoleRevoked",
      "type": "event"
    },
    {
      "anonymous": false,
      "inputs": [
        {
          "indexed": true,
          "internalType": "bytes8",
          "name": "organizationId",
          "type": "bytes8"
        },
        {
          "indexed": true,
          "internalType": "address",
          "name": "staker",
          "type": "address"
        },
        {
          "indexed": false,
          "internalType": "uint256",
          "name": "amount",
          "type": "uint256"
        },
        {
          "indexed": false,
          "internalType": "uint256",
          "name": "timestamp",
          "type": "uint256"
        }
      ],
      "name": "StakeWithdrawn",
      "type": "event"
    },
    {
      "anonymous": false,
      "inputs": [
        {
          "indexed": false,
          "internalType": "address",
          "name": "account",
          "type": "address"
        }
      ],
      "name": "Unpaused",
      "type": "event"
    },
    {
      "inputs": [],
      "name": "ADMIN_ROLE",
      "outputs": [
        {
          "internalType": "bytes32",
          "name": "",
          "type": "bytes32"
        }
      ],
      "stateMutability": "view",
      "type": "function"
    },
    {
      "inputs": [],
      "name": "DEFAULT_ADMIN_ROLE",
      "outputs": [
        {
          "internalType": "bytes32",
          "name": "",
          "type": "bytes32"
        }
      ],
      "stateMutability": "view",
      "type": "function"
    },
    {
      "inputs": [],
      "name": "MODULE_ADMIN_ROLE",
      "outputs": [
        {
          "internalType": "bytes32",
          "name": "",
          "type": "bytes32"
        }
      ],
      "stateMutability": "view",
      "type": "function"
    },
    {
      "inputs": [],
      "name": "MODULE_ID",
      "outputs": [
        {
          "internalType": "bytes32",
          "name": "",
          "type": "bytes32"
        }
      ],
      "stateMutability": "view",
      "type": "function"
    },
    {
      "inputs": [],
      "name": "OPERATOR_ROLE",
      "outputs": [
        {
          "internalType": "bytes32",
          "name": "",
          "type": "bytes32"
        }
      ],
      "stateMutability": "view",
      "type": "function"
    },
    {
      "inputs": [
        {
          "internalType": "bytes8",
          "name": "organizationId",
          "type": "bytes8"
        }
      ],
      "name": "canWithdrawStake",
      "outputs": [
        {
          "internalType": "bool",
          "name": "",
          "type": "bool"
        }
      ],
      "stateMutability": "view",
      "type": "function"
    },
    {
      "inputs": [
        {
          "internalType": "string",
          "name": "name",
          "type": "string"
        },
        {
          "internalType": "string",
          "name": "metadataURI",
          "type": "string"
        },
        {
          "internalType": "enum IControl.OrgType",
          "name": "orgType",
          "type": "uint8"
        },
        {
          "internalType": "enum IControl.AccessModel",
          "name": "accessModel",
          "type": "uint8"
        },
        {
          "internalType": "enum IControl.FeeModel",
          "name": "feeModel",
          "type": "uint8"
        },
        {
          "internalType": "uint256",
          "name": "memberLimit",
          "type": "uint256"
        },
        {
          "internalType": "uint256",
          "name": "membershipFee",
          "type": "uint256"
        },
        {
          "internalType": "uint256",
          "name": "gameStakeRequired",
          "type": "uint256"
        }
      ],
      "name": "createOrganization",
      "outputs": [
        {
          "internalType": "bytes8",
          "name": "",
          "type": "bytes8"
        }
      ],
      "stateMutability": "nonpayable",
      "type": "function"
    },
    {
      "inputs": [],
      "name": "emergencyPause",
      "outputs": [],
      "stateMutability": "nonpayable",
      "type": "function"
    },
    {
      "inputs": [],
      "name": "emergencyUnpause",
      "outputs": [],
      "stateMutability": "nonpayable",
      "type": "function"
    },
    {
      "inputs": [],
      "name": "factory",
      "outputs": [
        {
          "internalType": "contract Factory",
          "name": "",
          "type": "address"
        }
      ],
      "stateMutability": "view",
      "type": "function"
    },
    {
      "inputs": [],
      "name": "gameToken",
      "outputs": [
        {
          "internalType": "contract IERC20",
          "name": "",
          "type": "address"
        }
      ],
      "stateMutability": "view",
      "type": "function"
    },
    {
      "inputs": [],
      "name": "getAllOrganizations",
      "outputs": [
        {
          "components": [
            {
              "internalType": "bytes8",
              "name": "id",
              "type": "bytes8"
            },
            {
              "internalType": "string",
              "name": "name",
              "type": "string"
            },
            {
              "internalType": "string",
              "name": "metadataURI",
              "type": "string"
            },
            {
              "internalType": "address",
              "name": "creator",
              "type": "address"
            },
            {
              "internalType": "address",
              "name": "prime",
              "type": "address"
            },
            {
              "internalType": "address",
              "name": "treasury",
              "type": "address"
            },
            {
              "internalType": "enum IControl.OrgType",
              "name": "orgType",
              "type": "uint8"
            },
            {
              "internalType": "enum IControl.AccessModel",
              "name": "accessModel",
              "type": "uint8"
            },
            {
              "internalType": "enum IControl.FeeModel",
              "name": "feeModel",
              "type": "uint8"
            },
            {
              "internalType": "uint256",
              "name": "memberLimit",
              "type": "uint256"
            },
            {
              "internalType": "uint256",
              "name": "memberCount",
              "type": "uint256"
            },
            {
              "internalType": "uint256",
              "name": "totalCampaigns",
              "type": "uint256"
            },
            {
              "internalType": "uint256",
              "name": "totalProposals",
              "type": "uint256"
            },
            {
              "internalType": "uint256",
              "name": "membershipFee",
              "type": "uint256"
            },
            {
              "internalType": "uint256",
              "name": "gameStakeRequired",
              "type": "uint256"
            },
            {
              "internalType": "enum IControl.OrgState",
              "name": "state",
              "type": "uint8"
            },
            {
              "internalType": "uint256",
              "name": "createdAt",
              "type": "uint256"
            },
            {
              "internalType": "uint256",
              "name": "updatedAt",
              "type": "uint256"
            }
          ],
          "internalType": "struct IControl.Organization[]",
          "name": "",
          "type": "tuple[]"
        }
      ],
      "stateMutability": "view",
      "type": "function"
    },
    {
      "inputs": [
        {
          "internalType": "bytes8",
          "name": "id",
          "type": "bytes8"
        }
      ],
      "name": "getOrganization",
      "outputs": [
        {
          "components": [
            {
              "internalType": "bytes8",
              "name": "id",
              "type": "bytes8"
            },
            {
              "internalType": "string",
              "name": "name",
              "type": "string"
            },
            {
              "internalType": "string",
              "name": "metadataURI",
              "type": "string"
            },
            {
              "internalType": "address",
              "name": "creator",
              "type": "address"
            },
            {
              "internalType": "address",
              "name": "prime",
              "type": "address"
            },
            {
              "internalType": "address",
              "name": "treasury",
              "type": "address"
            },
            {
              "internalType": "enum IControl.OrgType",
              "name": "orgType",
              "type": "uint8"
            },
            {
              "internalType": "enum IControl.AccessModel",
              "name": "accessModel",
              "type": "uint8"
            },
            {
              "internalType": "enum IControl.FeeModel",
              "name": "feeModel",
              "type": "uint8"
            },
            {
              "internalType": "uint256",
              "name": "memberLimit",
              "type": "uint256"
            },
            {
              "internalType": "uint256",
              "name": "memberCount",
              "type": "uint256"
            },
            {
              "internalType": "uint256",
              "name": "totalCampaigns",
              "type": "uint256"
            },
            {
              "internalType": "uint256",
              "name": "totalProposals",
              "type": "uint256"
            },
            {
              "internalType": "uint256",
              "name": "membershipFee",
              "type": "uint256"
            },
            {
              "internalType": "uint256",
              "name": "gameStakeRequired",
              "type": "uint256"
            },
            {
              "internalType": "enum IControl.OrgState",
              "name": "state",
              "type": "uint8"
            },
            {
              "internalType": "uint256",
              "name": "createdAt",
              "type": "uint256"
            },
            {
              "internalType": "uint256",
              "name": "updatedAt",
              "type": "uint256"
            }
          ],
          "internalType": "struct IControl.Organization",
          "name": "",
          "type": "tuple"
        }
      ],
      "stateMutability": "view",
      "type": "function"
    },
    {
      "inputs": [],
      "name": "getOrganizationCount",
      "outputs": [
        {
          "internalType": "uint256",
          "name": "",
          "type": "uint256"
        }
      ],
      "stateMutability": "view",
      "type": "function"
    },
    {
      "inputs": [
        {
          "internalType": "bytes8",
          "name": "organizationId",
          "type": "bytes8"
        }
      ],
      "name": "getOrganizationStake",
      "outputs": [
        {
          "components": [
            {
              "internalType": "bytes8",
              "name": "organizationId",
              "type": "bytes8"
            },
            {
              "internalType": "address",
              "name": "staker",
              "type": "address"
            },
            {
              "internalType": "uint256",
              "name": "amount",
              "type": "uint256"
            },
            {
              "internalType": "uint256",
              "name": "stakedAt",
              "type": "uint256"
            },
            {
              "internalType": "uint256",
              "name": "lockPeriod",
              "type": "uint256"
            },
            {
              "internalType": "bool",
              "name": "active",
              "type": "bool"
            }
          ],
          "internalType": "struct IStaking.OrganizationStake",
          "name": "",
          "type": "tuple"
        }
      ],
      "stateMutability": "view",
      "type": "function"
    },
    {
      "inputs": [
        {
          "internalType": "enum IControl.OrgState",
          "name": "state",
          "type": "uint8"
        }
      ],
      "name": "getOrganizationsByState",
      "outputs": [
        {
          "components": [
            {
              "internalType": "bytes8",
              "name": "id",
              "type": "bytes8"
            },
            {
              "internalType": "string",
              "name": "name",
              "type": "string"
            },
            {
              "internalType": "string",
              "name": "metadataURI",
              "type": "string"
            },
            {
              "internalType": "address",
              "name": "creator",
              "type": "address"
            },
            {
              "internalType": "address",
              "name": "prime",
              "type": "address"
            },
            {
              "internalType": "address",
              "name": "treasury",
              "type": "address"
            },
            {
              "internalType": "enum IControl.OrgType",
              "name": "orgType",
              "type": "uint8"
            },
            {
              "internalType": "enum IControl.AccessModel",
              "name": "accessModel",
              "type": "uint8"
            },
            {
              "internalType": "enum IControl.FeeModel",
              "name": "feeModel",
              "type": "uint8"
            },
            {
              "internalType": "uint256",
              "name": "memberLimit",
              "type": "uint256"
            },
            {
              "internalType": "uint256",
              "name": "memberCount",
              "type": "uint256"
            },
            {
              "internalType": "uint256",
              "name": "totalCampaigns",
              "type": "uint256"
            },
            {
              "internalType": "uint256",
              "name": "totalProposals",
              "type": "uint256"
            },
            {
              "internalType": "uint256",
              "name": "membershipFee",
              "type": "uint256"
            },
            {
              "internalType": "uint256",
              "name": "gameStakeRequired",
              "type": "uint256"
            },
            {
              "internalType": "enum IControl.OrgState",
              "name": "state",
              "type": "uint8"
            },
            {
              "internalType": "uint256",
              "name": "createdAt",
              "type": "uint256"
            },
            {
              "internalType": "uint256",
              "name": "updatedAt",
              "type": "uint256"
            }
          ],
          "internalType": "struct IControl.Organization[]",
          "name": "",
          "type": "tuple[]"
        }
      ],
      "stateMutability": "view",
      "type": "function"
    },
    {
      "inputs": [
        {
          "internalType": "bytes32",
          "name": "role",
          "type": "bytes32"
        }
      ],
      "name": "getRoleAdmin",
      "outputs": [
        {
          "internalType": "bytes32",
          "name": "",
          "type": "bytes32"
        }
      ],
      "stateMutability": "view",
      "type": "function"
    },
    {
      "inputs": [
        {
          "internalType": "bytes32",
          "name": "role",
          "type": "bytes32"
        },
        {
          "internalType": "address",
          "name": "account",
          "type": "address"
        }
      ],
      "name": "grantRole",
      "outputs": [],
      "stateMutability": "nonpayable",
      "type": "function"
    },
    {
      "inputs": [
        {
          "internalType": "bytes32",
          "name": "role",
          "type": "bytes32"
        },
        {
          "internalType": "address",
          "name": "account",
          "type": "address"
        }
      ],
      "name": "hasRole",
      "outputs": [
        {
          "internalType": "bool",
          "name": "",
          "type": "bool"
        }
      ],
      "stateMutability": "view",
      "type": "function"
    },
    {
      "inputs": [
        {
          "internalType": "address",
          "name": "registryAddress",
          "type": "address"
        }
      ],
      "name": "initialize",
      "outputs": [],
      "stateMutability": "nonpayable",
      "type": "function"
    },
    {
      "inputs": [],
      "name": "isInitialized",
      "outputs": [
        {
          "internalType": "bool",
          "name": "",
          "type": "bool"
        }
      ],
      "stateMutability": "view",
      "type": "function"
    },
    {
      "inputs": [
        {
          "internalType": "bytes8",
          "name": "organizationId",
          "type": "bytes8"
        }
      ],
      "name": "isOrganizationActive",
      "outputs": [
        {
          "internalType": "bool",
          "name": "",
          "type": "bool"
        }
      ],
      "stateMutability": "view",
      "type": "function"
    },
    {
      "inputs": [],
      "name": "moduleId",
      "outputs": [
        {
          "internalType": "bytes32",
          "name": "",
          "type": "bytes32"
        }
      ],
      "stateMutability": "pure",
      "type": "function"
    },
    {
      "inputs": [],
      "name": "onModuleDisabled",
      "outputs": [],
      "stateMutability": "nonpayable",
      "type": "function"
    },
    {
      "inputs": [],
      "name": "onModuleEnabled",
      "outputs": [],
      "stateMutability": "nonpayable",
      "type": "function"
    },
    {
      "inputs": [],
      "name": "pause",
      "outputs": [],
      "stateMutability": "nonpayable",
      "type": "function"
    },
    {
      "inputs": [],
      "name": "paused",
      "outputs": [
        {
          "internalType": "bool",
          "name": "",
          "type": "bool"
        }
      ],
      "stateMutability": "view",
      "type": "function"
    },
    {
      "inputs": [
        {
          "internalType": "bytes8",
          "name": "organizationId",
          "type": "bytes8"
        },
        {
          "components": [
            {
              "internalType": "bytes8",
              "name": "id",
              "type": "bytes8"
            },
            {
              "internalType": "string",
              "name": "name",
              "type": "string"
            },
            {
              "internalType": "string",
              "name": "metadataURI",
              "type": "string"
            },
            {
              "internalType": "address",
              "name": "creator",
              "type": "address"
            },
            {
              "internalType": "address",
              "name": "prime",
              "type": "address"
            },
            {
              "internalType": "address",
              "name": "treasury",
              "type": "address"
            },
            {
              "internalType": "enum IControl.OrgType",
              "name": "orgType",
              "type": "uint8"
            },
            {
              "internalType": "enum IControl.AccessModel",
              "name": "accessModel",
              "type": "uint8"
            },
            {
              "internalType": "enum IControl.FeeModel",
              "name": "feeModel",
              "type": "uint8"
            },
            {
              "internalType": "uint256",
              "name": "memberLimit",
              "type": "uint256"
            },
            {
              "internalType": "uint256",
              "name": "memberCount",
              "type": "uint256"
            },
            {
              "internalType": "uint256",
              "name": "totalCampaigns",
              "type": "uint256"
            },
            {
              "internalType": "uint256",
              "name": "totalProposals",
              "type": "uint256"
            },
            {
              "internalType": "uint256",
              "name": "membershipFee",
              "type": "uint256"
            },
            {
              "internalType": "uint256",
              "name": "gameStakeRequired",
              "type": "uint256"
            },
            {
              "internalType": "enum IControl.OrgState",
              "name": "state",
              "type": "uint8"
            },
            {
              "internalType": "uint256",
              "name": "createdAt",
              "type": "uint256"
            },
            {
              "internalType": "uint256",
              "name": "updatedAt",
              "type": "uint256"
            }
          ],
          "internalType": "struct IControl.Organization",
          "name": "org",
          "type": "tuple"
        }
      ],
      "name": "registerOrganization",
      "outputs": [],
      "stateMutability": "nonpayable",
      "type": "function"
    },
    {
      "inputs": [],
      "name": "registry",
      "outputs": [
        {
          "internalType": "address",
          "name": "",
          "type": "address"
        }
      ],
      "stateMutability": "view",
      "type": "function"
    },
    {
      "inputs": [
        {
          "internalType": "bytes32",
          "name": "role",
          "type": "bytes32"
        },
        {
          "internalType": "address",
          "name": "account",
          "type": "address"
        }
      ],
      "name": "renounceRole",
      "outputs": [],
      "stateMutability": "nonpayable",
      "type": "function"
    },
    {
      "inputs": [
        {
          "internalType": "bytes32",
          "name": "role",
          "type": "bytes32"
        },
        {
          "internalType": "address",
          "name": "account",
          "type": "address"
        }
      ],
      "name": "revokeRole",
      "outputs": [],
      "stateMutability": "nonpayable",
      "type": "function"
    },
    {
      "inputs": [
        {
          "internalType": "address",
          "name": "_factory",
          "type": "address"
        }
      ],
      "name": "setFactory",
      "outputs": [],
      "stateMutability": "nonpayable",
      "type": "function"
    },
    {
      "inputs": [],
      "name": "stakingContract",
      "outputs": [
        {
          "internalType": "contract IStaking",
          "name": "",
          "type": "address"
        }
      ],
      "stateMutability": "view",
      "type": "function"
    },
    {
      "inputs": [
        {
          "internalType": "bytes4",
          "name": "interfaceId",
          "type": "bytes4"
        }
      ],
      "name": "supportsInterface",
      "outputs": [
        {
          "internalType": "bool",
          "name": "",
          "type": "bool"
        }
      ],
      "stateMutability": "view",
      "type": "function"
    },
    {
      "inputs": [],
      "name": "unpause",
      "outputs": [],
      "stateMutability": "nonpayable",
      "type": "function"
    },
    {
      "inputs": [
        {
          "internalType": "bytes8",
          "name": "organizationId",
          "type": "bytes8"
        },
        {
          "internalType": "uint256",
          "name": "memberCount",
          "type": "uint256"
        }
      ],
      "name": "updateMemberCount",
      "outputs": [],
      "stateMutability": "nonpayable",
      "type": "function"
    },
    {
      "inputs": [
        {
          "internalType": "bytes8",
          "name": "organizationId",
          "type": "bytes8"
        },
        {
          "internalType": "address",
          "name": "newPrime",
          "type": "address"
        }
      ],
      "name": "updateOrganizationPrime",
      "outputs": [],
      "stateMutability": "nonpayable",
      "type": "function"
    },
    {
      "inputs": [
        {
          "internalType": "bytes8",
          "name": "organizationId",
          "type": "bytes8"
        },
        {
          "internalType": "enum IControl.OrgState",
          "name": "state",
          "type": "uint8"
        }
      ],
      "name": "updateOrganizationState",
      "outputs": [],
      "stateMutability": "nonpayable",
      "type": "function"
    },
    {
      "inputs": [],
      "name": "version",
      "outputs": [
        {
          "internalType": "string",
          "name": "",
          "type": "string"
        }
      ],
      "stateMutability": "view",
      "type": "function"
    },
    {
      "inputs": [
        {
          "internalType": "bytes8",
          "name": "organizationId",
          "type": "bytes8"
        }
      ],
      "name": "withdrawStake",
      "outputs": [],
      "stateMutability": "nonpayable",
      "type": "function"
    }
  ],
  "bytecode": "0x60806040523462000031576200001f62000018620000e5565b906200028a565b6040516132fc620006c582396132fc90f35b600080fd5b634e487b7160e01b600052604160045260246000fd5b90601f01601f191681019081106001600160401b038211176200006e57604052565b62000036565b906200008b6200008360405190565b92836200004c565b565b6001600160a01b031690565b90565b6001600160a01b038116036200003157565b905051906200008b826200009c565b919060408382031262000031576200009990620000db8185620000ae565b93602001620000ae565b62000108620039c180380380620000fc8162000074565b928339810190620000bd565b9091565b6001600160401b0381116200006e57602090601f01601f19160190565b906200013f62000139836200010c565b62000074565b918252565b62000150600562000129565b640312e302e360dc1b602082015290565b6200009962000144565b6200008d62000099620000999290565b62000099906200016b565b156200018e57565b60405162461bcd60e51b815260206004820152601a60248201527f496e76616c69642067616d6520746f6b656e20616464726573730000000000006044820152606490fd5b0390fd5b15620001df57565b60405162461bcd60e51b815280620001d3600482016020808252818101527f496e76616c6964207374616b696e6720636f6e74726163742061646472657373604082015260600190565b62000099906200008d906001600160a01b031682565b620000999062000229565b62000099906200023f565b906001600160a01b03905b9181191691161790565b906200027e6200009962000286926200024a565b825462000255565b9055565b6200008b91620002f6620002fc6200030493620002b0620002aa62000161565b6200030c565b620002f6620002e4620002c460006200017b565b6200008d6001600160a01b0382166001600160a01b038616141562000186565b6001600160a01b0386161415620001d7565b6200024a565b60086200026a565b60096200026a565b6200008b906200051b565b634e487b7160e01b600052602260045260246000fd5b906001600283049216801562000350575b60208310146200034a57565b62000317565b91607f16916200033e565b9160001960089290920291821b911b62000260565b6200009962000099620000999290565b91906200039562000099620002869362000370565b9083546200035b565b6200008b9160009162000380565b818110620003b8575050565b80620003c860006001936200039e565b01620003ac565b9190601f8111620003df57505050565b620003f36200008b93600052602060002090565b906020601f84018190048301931062000417575b6020601f909101040190620003ac565b909150819062000407565b906200042c815190565b906001600160401b0382116200006e5762000454826200044d85546200032d565b85620003cf565b602090601f831160011462000493576200028692916000918362000487575b5050600019600883021c1916906002021790565b01519050388062000473565b601f19831691620004a985600052602060002090565b9260005b818110620004ea57509160029391856001969410620004d0575b50505002019055565b01516000196008601f8516021c19169055388080620004c7565b91936020600181928787015181550195019201620004ad565b906200008b9162000422565b62000099600062000370565b62000532906200052a620005a7565b600462000503565b6200008b620005406200050f565b6200054d33809262000616565b7fa49807205ce4d355092ef5a8a18f56e8913cf4a201fbe287825b095693c2177562000616565b62000099600162000370565b906000199062000260565b906200059f62000099620002869262000370565b825462000580565b620005b1620005ec565b6200008b620005bf62000574565b60026200058b565b9060ff9062000260565b90620005e4620000996200028692151590565b8254620005c7565b6200008b60006001620005d1565b905b600052602052604060002090565b90620005fc906200024a565b906200062b620006278284620006a5565b1590565b62000634575050565b6200065a6001620006548360006200064d8782620005fa565b016200060a565b620005d1565b3390620006946200068d6200068d7f2f8788117e7eff1d82e926ec794901d17c78024a50270940304540a733656f0d9590565b926200024a565b926200069f60405190565b600090a4565b6200009991620006bd916200064d60009182620005fa565b5460ff169056fe6080604052600436101561001257600080fd5b60003560e01c806301ffc9a71461028d578063086ed93814610288578063248a9ca3146102835780632902460d1461027e5780632f2ff15d1461027957806336568abe14610274578063392e53cd1461026f5780633f4ba83a1461026a578063426d86951461026557806344018cf0146102605780634a4e3bd51461025b57806351858e271461025657806354fd4d50146102515780635734e5e31461024c5780635bb47808146102475780635c975abb1461024257806375b238fc1461023d5780637b103999146102385780638456cb5914610233578063919f550f1461022e57806391d1485414610229578063a1308f27146101de578063a217fddf14610224578063aa7318aa1461021f578063b24125501461021a578063b4ae840f14610215578063b81fa5a414610210578063bb7835d61461020b578063c3dfdae614610206578063c45a015514610201578063c4d66de8146101fc578063cdb12a80146101f7578063d0a1aec4146101f2578063d547741f146101ed578063e1ce028a146101e8578063ebf8a3e6146101e3578063ed2f21f5146101de578063ee99205c146101d9578063f5b541a6146101d45763fb24973c036102a557610f64565b610f2b565b610f10565b6108f6565b610eec565b610ed3565b610e97565b610e57565b610da1565b610aea565b610acf565b610a9c565b610a17565b6109dc565b6109c1565b6109ac565b610969565b61094e565b6108da565b6108b3565b61082a565b6107f4565b6107bb565b6107a0565b610788565b610758565b610731565b610708565b6106f0565b6106d5565b6106ae565b610527565b61050c565b6104f3565b6104da565b6104a2565b61041a565b6103de565b6102d4565b6001600160e01b031981165b036102a557565b600080fd5b905035906102b782610292565b565b906020828203126102a5576102cd916102aa565b90565b9052565b346102a5576103016102ef6102ea3660046102b9565b610f9d565b60405191829182901515815260200190565b0390f35b60009103126102a557565b60005b8381106103235750506000910152565b8181015183820152602001610313565b61035461035d60209361036793610348815190565b80835293849260200190565b95869101610310565b601f01601f191690565b0190565b6001600160a01b031690565b634e487b7160e01b600052602160045260246000fd5b6004111561039757565b610377565b906102b78261038d565b6102cd9061039c565b6102d0906103a6565b6003111561039757565b906102b7826103b8565b6102cd906103c2565b6102d0906103cc565b346102a5576103ee366004610305565b6131ff565b8061029e565b905035906102b7826103f3565b906020828203126102a5576102cd916103f9565b346102a557610301610435610430366004610406565b611036565b6040515b9182918290815260200190565b6001600160c01b0319811661029e565b905035906102b782610446565b6001600160a01b03811661029e565b905035906102b782610463565b91906040838203126102a5576102cd906104998185610456565b93602001610472565b346102a5576104bb6104b536600461047f565b9061276e565b604051005b91906040838203126102a5576102cd9061049981856103f9565b346102a5576104bb6104ed3660046104c0565b90611075565b346102a5576104bb6105063660046104c0565b9061123e565b346102a55761051c366004610305565b6103016102ef6119dd565b346102a557610537366004610305565b6104bb611a66565b906020828203126102a5576102cd91610456565b80516001600160c01b0319168252906102cd9061022080610599610587610240850160208801518682036020880152610333565b60408701518582036040870152610333565b6060808701516001600160a01b031690850152946080818101516001600160a01b03169085015260a0818101516001600160a01b0316908501526105e560c082015160c08601906103af565b6105f760e082015160e08601906103d5565b61060b6101008201516101008601906103d5565b61061c610120820151610120860152565b61062d610140820151610140860152565b61063e610160820151610160860152565b61064f610180820151610180860152565b6106606101a08201516101a0860152565b6106716101c08201516101c0860152565b6106856101e08201516101e08601906103af565b610696610200820151610200860152565b0151910152565b60208082526102cd92910190610553565b346102a5576103016106c96106c436600461053f565b6131d2565b6040519182918261069d565b346102a5576103016102ef6106eb36600461053f565b612f22565b346102a557610700366004610305565b6104bb611ad7565b346102a557610718366004610305565b6104bb611aae565b60208082526102cd92910190610333565b346102a557610741366004610305565b61030161074c61171e565b60405191829182610720565b346102a557610768366004610305565b61030161043560075490565b906020828203126102a5576102cd91610472565b346102a5576104bb61079b366004610774565b611d0c565b346102a5576107b0366004610305565b6103016102ef61135d565b346102a5576107cb366004610305565b6103017fa49807205ce4d355092ef5a8a18f56e8913cf4a201fbe287825b095693c21775610435565b346102a557610804366004610305565b61030161080f6119e7565b6040515b918291826001600160a01b03909116815260200190565b346102a55761083a366004610305565b6104bb611a29565b80516001600160c01b03191682526020808201516001600160a01b0316908301526102b7919060a090819061087c60408201516040860152565b61088b60608201516060860152565b61089a60808201516080860152565b01511515910152565b60c0810192916102b79190610842565b346102a5576103016108ce6108c936600461053f565b612e4b565b604051918291826108a3565b346102a5576103016102ef6108f03660046104c0565b90611006565b346102a557610906366004610305565b6103017fbdded29a54e6a5d6169bedea55373b06f57e35d7b0f67ac187565b435e2cc943610435565b6102cd6102cd6102cd9290565b6102cd600061092f565b6102cd61093c565b346102a55761095e366004610305565b610301610435610946565b346102a557610979366004610305565b6104bb6119d5565b600411156102a557565b905035906102b782610981565b906020828203126102a5576102cd9161098b565b346102a5576109bc366004610998565b613244565b346102a5576103016102ef6109d736600461053f565b613289565b346102a5576104bb6109ef36600461053f565b612cdd565b91906040838203126102a5576102cd90610a0e8185610456565b9360200161098b565b346102a5576104bb610a2a3660046109f4565b9061264b565b6102cd916008021c6001600160a01b031690565b906102cd9154610a30565b6102cd60006008610a44565b61036b6102cd6102cd926001600160a01b031690565b6102cd90610a5b565b6102cd90610a71565b6102d090610a7a565b6020810192916102b79190610a83565b346102a557610aac366004610305565b610301610ab7610a4f565b60405191829182610a8c565b6102cd6000600a610a44565b346102a557610adf366004610305565b610301610ab7610ac3565b346102a5576104bb610afd366004610774565b6117b1565b634e487b7160e01b600052604160045260246000fd5b90601f01601f1916810190811067ffffffffffffffff821117610b3a57604052565b610b02565b906102b7610b4c60405190565b9283610b18565b67ffffffffffffffff8111610b3a57602090601f01601f19160190565b90826000939282370152565b90929192610b91610b8c82610b53565b610b3f565b938185526020850190828401116102a5576102b792610b70565b9080601f830112156102a5578160206102cd93359101610b7c565b600311156102a557565b905035906102b782610bc6565b919091610240818403126102a557610bf6610240610b3f565b926000610c038284610456565b90850152602082013567ffffffffffffffff81116102a55781610c27918401610bab565b602085015260408201359067ffffffffffffffff82116102a557610c5081610d65938501610bab565b60408601526060610c6382828601610472565b908601526080610c7582828601610472565b9086015260a0610c8782828601610472565b9086015260c0610c998282860161098b565b9086015260e0610cab82828601610bd0565b90860152610100610cbe82828601610bd0565b90860152610120610cd1828286016103f9565b90860152610140610ce4828286016103f9565b90860152610160610cf7828286016103f9565b90860152610180610d0a828286016103f9565b908601526101a0610d1d828286016103f9565b908601526101c0610d30828286016103f9565b908601526101e0610d438282860161098b565b90860152610200610d56828286016103f9565b908601526102208093016103f9565b90830152565b9190916040818403126102a557610d828382610456565b92602082013567ffffffffffffffff81116102a5576102cd9201610bdd565b346102a5576104bb610db4366004610d6b565b906122ea565b9190610100838203126102a557823567ffffffffffffffff81116102a55781610de4918501610bab565b92602081013567ffffffffffffffff81116102a55782610e05918301610bab565b92610e13836040840161098b565b92610e218160608501610bd0565b92610e2f8260808301610bd0565b926102cd610e408460a085016103f9565b93610e4e8160c086016103f9565b9360e0016103f9565b346102a557610301610e7c610e6d366004610dba565b969590959491949392936123fc565b604051918291826001600160c01b0319909116815260200190565b346102a5576104bb610eaa3660046104c0565b906111c2565b91906040838203126102a5576102cd90610eca8185610456565b936020016103f9565b346102a5576104bb610ee6366004610eb0565b906127b7565b346102a557610efc366004610305565b6104bb61196b565b6102cd60006009610a44565b346102a557610f20366004610305565b610301610ab7610f04565b346102a557610f3b366004610305565b6103017f97667070c54ef182b0f5858b034beac1b6f3089aa2d3188bb1e8929f4fa9b929610435565b346102a557610f74366004610305565b6103017ff83fbdecd7018694593b521db8f6c864cd19f8450388b844650c68334dac9ab5610435565b637965db0b60e01b6001600160e01b0319821614908115610fbc575090565b6102cd91506001600160e01b0319166301ffc9a760e01b1490565b905b600052602052604060002090565b90610fd990610a7a565b6102cd905b60ff1690565b6102cd9054610ff1565b6102cd916110209161101a60009182610fd7565b01610fe7565b610ffc565b6102cd9081565b6102cd9054611025565b600161104f6102cd92611047600090565b506000610fd7565b0161102c565b906102b79161106b61106682611036565b61107f565b906102b79161128e565b906102b791611055565b6102b790339061111b565b6102cd9061092f565b6103676110ab926020926110a5815190565b94859290565b93849101610310565b6110f26102cd93926110ec6110ec937f416363657373436f6e74726f6c3a206163636f756e7420000000000000000000815260170190565b90611093565b7f206973206d697373696e6720726f6c6520000000000000000000000000000000815260110190565b9061112d6111298284611006565b1590565b611135575050565b6111a3916102cd61115161114b61118b946115f5565b9261108a565b6111666020916111608361092f565b90611495565b9261117f61117360405190565b948593840192836110b4565b90810382520382610b18565b60405162461bcd60e51b815291829160048301610720565b0390fd5b906102b7916111b861106682611036565b906102b791611306565b906102b7916111a7565b156111d357565b60405162461bcd60e51b815260206004820152602f60248201527f416363657373436f6e74726f6c3a2063616e206f6e6c792072656e6f756e636560448201527f20726f6c657320666f722073656c6600000000000000000000000000000000006064820152608490fd5b6102b7919061125f61124f3361036b565b6001600160a01b038416146111cc565b611306565b9060ff905b9181191691161790565b906112836102cd61128a92151590565b8254611264565b9055565b9061129c6111298284611006565b6112a4575050565b6112be60016112b983600061101a8782610fd7565b611273565b33906112f46112ee6112ee7f2f8788117e7eff1d82e926ec794901d17c78024a50270940304540a733656f0d9590565b92610a7a565b926112fe60405190565b80805b0390a4565b906113118183611006565b611319575050565b61132d60006112b9838261101a8782610fd7565b33906112f46112ee6112ee7ff6391f5c32d9c69d2a47ea670b442974b53935d1edc7fd64eb21e047a839171b9590565b6102cd6001610ffc565b634e487b7160e01b600052601160045260246000fd5b8181029291811591840414171561139057565b611367565b9190820180921161139057565b906113af610b8c83610b53565b918252565b369037565b906102b76113cf6113c9846113a2565b93610b53565b601f1901602084016113b4565b634e487b7160e01b600052603260045260246000fd5b906113fb825190565b811015611409570160200190565b6113dc565b8015611390576000190190565b610ff66102cd6102cd9290565b6102cd9061144061143c6102cd9460ff1690565b9190565b901c90565b1561144c57565b60405162461bcd60e51b8152806111a3600482016020808252818101527f537472696e67733a20686578206c656e67746820696e73756666696369656e74604082015260600190565b91906002926114c66114c16114b2846114ad8861092f565b61137d565b6114bb8761092f565b90611395565b6113b9565b9160009060306114de6114d88461092f565b866113f2565b5361151661150d600f60fb1b926114ad6001998a95871a6115076115018861092f565b8b6113f2565b5361092f565b6114bb8361092f565b905b61153a575b506102cd9394509061153461143c6102cd9361092f565b14611445565b916115448661092f565b8311156115bf577f3031323334353637383961626364656600000000000000000000000000000000611576600f61092f565b82169060108210156114095787926115966115b3926115b9941a60f81b90565b851a6115a287896113f2565b536115ad600461141b565b90611428565b9361140e565b90611518565b9161151d565b6102cd6102cd6102cd926001600160a01b031690565b6102cd601461141b565b6102cd6102cd6102cd9260ff1690565b61161261160d6102cd92611607606090565b50610a71565b6115c5565b61116061161d6115db565b6115e5565b1490565b634e487b7160e01b600052602260045260246000fd5b906001600283049216801561165c575b602083101461165757565b611626565b91607f169161164c565b805460009392916116836116798361163c565b8085529360200190565b91600181169081156116d5575060011461169c57505050565b6116af9192939450600052602060002090565b916000925b8184106116c15750500190565b8054848401526020909301926001016116b4565b92949550505060ff1916825215156020020190565b906102cd91611666565b906102b761170e9261170560405190565b938480926116ea565b0383610b18565b6102cd906116f4565b6102cd6004611715565b6102cd9060a01c610ff6565b6102cd9054611728565b61036b6102cd6102cd9290565b6102cd9061173e565b906001600160a01b0390611269565b906117736102cd61128a92610a7a565b8254611754565b9074ff00000000000000000000000000000000000000009060a01b611269565b906117aa6102cd61128a92151590565b825461177a565b6117bb6003611734565b61189c576117cc61036b600061174b565b6001600160a01b0382161461188a576117ee6117e782610a7a565b6003611763565b6117fa6001600361179a565b611824817fa49807205ce4d355092ef5a8a18f56e8913cf4a201fbe287825b095693c2177561128e565b61184e817f97667070c54ef182b0f5858b034beac1b6f3089aa2d3188bb1e8929f4fa9b92961128e565b6118787f27b541a16df0902e262f34789782092ab25125513b8ed73608e802951771b92891610a7a565b9061188260405190565b80805b0390a2565b604051637bfd2e8360e01b8152600490fd5b604051637396742f60e11b8152600490fd5b6102cd9061036b565b6102cd90546118ae565b336118e76118da61036b6118d560036118b7565b610a7a565b916001600160a01b031690565b036118f4576102b7611906565b6040516310f5403960e31b8152600490fd5b6119136111296003611734565b61191f576102b7611931565b604051633165f6e960e21b8152600490fd5b611939611a6e565b7fa866f3901ec84758a10f30e8953c3818eef73da93dfa46cb6aa5b726fb65813f61196360405190565b80805b0390a1565b6102b76118c1565b336119876118da61036b6118d560036118b7565b036118f4576102b761199c6111296003611734565b61191f576102b76119ab611a7c565b7f6dff2fe8fbb5b23bf0583bf5b2157ff62ca7e27f2fb4f404914cd0c205ced5cc61196360405190565b6102b7611973565b6102cd6003611734565b6102cd6118d560036118b7565b611a1d7fa49807205ce4d355092ef5a8a18f56e8913cf4a201fbe287825b095693c2177561107f565b6102b75b6102b7611afb565b6102b76119f4565b611a5a7fa49807205ce4d355092ef5a8a18f56e8913cf4a201fbe287825b095693c2177561107f565b6102b75b6102b7611bcb565b6102b7611a31565b611a7661135d565b611a5e57565b611a8761112961135d565b611a2157565b33611aa16118da61036b6118d560036118b7565b036118f4576102b7611a21565b6102b7611a8d565b33611aca6118da61036b6118d560036118b7565b036118f4576102b7611a5e565b6102b7611ab6565b611aec6111296003611734565b61191f576102b76102b7611b48565b6102b7611adf565b611b0b611b9c565b6102b7611b19600180611273565b336119667f62e78cea01bee320cd4e420270b5ea74000d11b0c9f74754ebdbfc544b05a2589161081360405190565b6102b7611b03565b15611b5757565b60405162461bcd60e51b815260206004820152601060248201527f5061757361626c653a20706175736564000000000000000000000000000000006044820152606490fd5b6102b7611baa61112961135d565b611b50565b611bbc6111296003611734565b61191f576102b76102b7611c19565b6102b7611baf565b611bdb611c6d565b6102b7611bea60006001611273565b336119667f5db9ee0a495bf2e6ff9c91a7834c1ba4fdd244a5e8aa4e537bd38aeae4b073aa9161081360405190565b6102b7611bd3565b15611c2857565b60405162461bcd60e51b815260206004820152601460248201527f5061757361626c653a206e6f74207061757365640000000000000000000000006044820152606490fd5b6102b7611c7861135d565b611c21565b6102b790611c8c61106661093c565b611cdd565b15611c9857565b60405162461bcd60e51b815260206004820152601760248201527f496e76616c696420666163746f727920616464726573730000000000000000006044820152606490fd5b611d056102b7916118d5611cf461036b600061174b565b6001600160a01b0383161415611c91565b600a611763565b6102b790611c7d565b15611d1c57565b60405162461bcd60e51b815260206004820152601560248201527f4f6e6c7920666163746f72792063616e2063616c6c00000000000000000000006044820152606490fd5b906102b791611d8333611d7d6118da61036b6118d5600a6118b7565b14611d15565b6122a2565b906001600160c01b031916610fd9565b15611d9f57565b60405162461bcd60e51b815260206004820152601b60248201527f4f7267616e697a6174696f6e20616c72656164792065786973747300000000006044820152606490fd5b9067ffffffffffffffff90611269565b90611e12611e0c61128a926001600160c01b03191690565b60c01c90565b8254611de4565b9160001960089290920291821b911b611269565b921b90565b9190611e436102cd61128a9361092f565b908354611e19565b6102b791600091611e32565b818110611e62575050565b80611e706000600193611e4b565b01611e57565b9190601f8111611e8557505050565b611e976102b793600052602060002090565b906020601f840181900483019310611eb9575b6020601f909101040190611e57565b9091508190611eaa565b90611ecc815190565b9067ffffffffffffffff8211610b3a57611ef082611eea855461163c565b85611e76565b602090601f8311600114611f2b5761128a929160009183611f20575b5050600019600883021c1916906002021790565b015190503880611f0c565b601f19831691611f4085600052602060002090565b9260005b818110611f7e57509160029391856001969410611f65575b50505002019055565b01516000196008601f8516021c19169055388080611f5c565b91936020600181928787015181550195019201611f44565b906102b791611ec3565b6102cd905161039c565b906117aa6102cd61128a926103a6565b6102cd90516103c2565b9075ff0000000000000000000000000000000000000000009060a81b611269565b90611ff56102cd61128a926103cc565b8254611fc4565b9076ff000000000000000000000000000000000000000000009060b01b611269565b9061202e6102cd61128a926103cc565b8254611ffc565b9060001990611269565b9061204f6102cd61128a9261092f565b8254612035565b906112836102cd61128a926103a6565b6102b7919061216c9061022090600e906120928161208c87516001600160c01b03191690565b90611df4565b6120aa600182016120a4602088015190565b90611f96565b6120bc600282016120a4604088015190565b6120dd600382016120d760608801516001600160a01b031690565b90611763565b6120f8600482016120d760808801516001600160a01b031690565b6121596005820161211c61211660a08901516001600160a01b031690565b82611763565b61213161212b60c08901611fa0565b82611faa565b61214661214060e08901611fba565b82611fe5565b6121536101008801611fba565b9061201e565b6121726006820161216c61012088015190565b9061203f565b6121856007820161216c61014088015190565b6121986008820161216c61016088015190565b6121ab6009820161216c61018088015190565b6121be600a820161216c6101a088015190565b6121d1600b820161216c6101c088015190565b6121eb600c82016121e56101e08801611fa0565b90612056565b6121fe600d820161216c61020088015190565b0192015190565b906102b791612066565b805491929183101561140957600461222e600892600052602060002090565b8185040193060290565b91906008611269910291611e2d67ffffffffffffffff841b90565b919061226c611e0c61128a936001600160c01b03191690565b908354612238565b9081549168010000000000000000831015610b3a578261229c9160016102b79501815561220f565b90612253565b6122e36102b7926122d76006916122c76122c26111296110208887611d88565b611d98565b6122d2856005611d88565b612205565b6112b983600192611d88565b6007612274565b906102b791611d61565b156122fb57565b60405162461bcd60e51b815260206004820152600f60248201527f466163746f7279206e6f742073657400000000000000000000000000000000006044820152606490fd5b905051906102b782610446565b906020828203126102a5576102cd91612340565b94610100966123d46123de926123ca6123bf6123ec999f9e9c96986123b16102b79f9a6123e59a8e6123a461012082019360008301906001600160a01b03169052565b6020818403910152610333565b8c810360408e015290610333565b9e60608b01906103af565b60808901906103d5565b60a08701906103d5565b60c0850152565b60e0830152565b0152565b6040513d6000823e3d90fd5b966124769060209761246b9596949397612414600090565b506124226118d5600a6118b7565b9561243f6000976124386118da61036b8b61174b565b14156122f4565b61244c6118d5600a6118b7565b9863dc82e05496339b61245e60405190565b9e8f9d8e9c8d9b60e01b90565b8b5260048b01612361565b03925af19081156124b45760009161248c575090565b6102cd915060203d81116124ad575b6124a58183610b18565b81019061234d565b503d61249b565b6123f0565b156124c057565b60405162461bcd60e51b815260206004820152601b60248201527f4f7267616e697a6174696f6e20646f6573206e6f7420657869737400000000006044820152606490fd5b906102b79161252061251b611020836006611d88565b6124b9565b612571565b1561252c57565b60405162461bcd60e51b815260206004820152601860248201527f4e6f74206f7267616e697a6174696f6e2063726561746f7200000000000000006044820152606490fd5b906102b79161259e61258f6003612589846005611d88565b016118b7565b612598336118da565b14612525565b6125cd565b6040906123ec6102b794969593966125c3606084019860008501906103af565b60208301906103af565b600e916125de6102cd836005611d88565b612603600c8201916125f9846125f385610ffc565b94612056565b429586910161203f565b6118856126387f8b2f7f5316f93cf61dd91009d1753fa8655fdf96e3ed21b5acede8544f336035946001600160c01b03191690565b9461264260405190565b938493846125a3565b906102b791612505565b906102b79161266b61251b611020836006611d88565b906102b79161268361258f6003612589846005611d88565b6126d4565b1561268f57565b60405162461bcd60e51b815260206004820152601560248201527f496e76616c6964207072696d65206164647265737300000000000000000000006044820152606490fd5b90600e916126f96126e861036b600061174b565b6001600160a01b0384161415612688565b6127076102cd826005611d88565b9061272360048301926125f98561271d866118b7565b95611763565b61130161276461275e61275e7f0a36c906db740a04bdb26025ec31f2c55ff425dd02bdb71b8c6ae51f30d72bc7946001600160c01b03191690565b94610a7a565b9461043960405190565b906102b791612655565b906102b79161278e61251b611020836006611d88565b906127ad6127a36102cd6102b7946005611d88565b916007830161203f565b600e42910161203f565b906102b791612778565b6102b7906127d661251b611020836006611d88565b6102b7906127ed61258f6003612589846005611d88565b6127fe906127f9612d3c565b612a47565b6102b7612d6e565b1561280d57565b60405162461bcd60e51b815260206004820152602a60248201527f4f7267616e697a6174696f6e206d75737420626520696e616374697665206f7260448201527f20646973736f6c766564000000000000000000000000000000000000000000006064820152608490fd5b80151561029e565b905051906102b782612878565b906020828203126102a5576102cd91612880565b156128a857565b60405162461bcd60e51b815260206004820152601d60248201527f5374616b652063616e6e6f742062652077697468647261776e207965740000006044820152606490fd5b905051906102b782610463565b905051906102b7826103f3565b91909160c0818403126102a557610d6561292160c0610b3f565b93600061292e8285612340565b908601526020612940828286016128ed565b908601526040612952828286016128fa565b908601526060612964828286016128fa565b908601526080612976828286016128fa565b9086015260a0809301612880565b9060c0828203126102a5576102cd91612907565b1561299f57565b60405162461bcd60e51b8152806111a3600482016020808252818101527f4e6f20616374697665207374616b6520666f72206f7267616e697a6174696f6e604082015260600190565b156129ef57565b60405162461bcd60e51b815260206004820152600e60248201527f4e6f7420746865207374616b65720000000000000000000000000000000000006044820152606490fd5b9081526040810192916102b79160200152565b600c612a576102cd836005611d88565b01612a89612a6482610ffc565b91600092612a7a612a748561039c565b9161039c565b14908115612cbf575b50612806565b612ab36020612a9b6118d560096118b7565b632280efd690612aaa60405190565b93849260e01b90565b82526001600160c01b03198616600483015260249082905afa80156124b457612ae491600091612c91575b506128a1565b612b0560c0612af66118d560096118b7565b63919f550f90612aaa60405190565b82526001600160c01b03198616600483015260249082905afa9081156124b457600091612c63575b50612b43612b3e60a0830151151590565b612998565b60208101516001600160a01b0316339290612b6790612b61856118da565b146129e8565b612b746118d560096118b7565b91635cc65b1092803b156102a557612b9a938391612b9160405190565b95869260e01b90565b82526001600160c01b0319881660048301526001600160a01b0387166024830152604490829084905af19182156124b457612bde93604093612c36575b5050015190565b9142612c1b612c157fe2cc687e70745c9cdfaaf5120ae9faa0e449faded2d4cfd514a898353558ead4936001600160c01b03191690565b93610a7a565b93612c31612c2860405190565b92839283612a34565b0390a3565b81612c5592903d10612c5c575b612c4d8183610b18565b810190610305565b3880612bd7565b503d612c43565b612c84915060c03d8111612c8a575b612c7c8183610b18565b810190612984565b38612b2d565b503d612c72565b612cb2915060203d8111612cb8575b612caa8183610b18565b81019061288d565b38612ade565b503d612ca0565b612cc99150610ffc565b612cd6612a74600361039c565b1438612a83565b6102b7906127c1565b6102cd600261092f565b15612cf757565b60405162461bcd60e51b815260206004820152601f60248201527f5265656e7472616e637947756172643a207265656e7472616e742063616c6c006044820152606490fd5b6102b7612d49600261102c565b612d5d612d54612ce6565b91821415612cf0565b600261203f565b6102cd600161092f565b6102b7612d5d612d64565b6102cd60c0610b3f565b612d8b612d79565b906000825260208080808080870160008152016000815201600081520160008152016000905250565b6102cd612d83565b906102cd91612dd261251b611020846006611d88565b612e1d9160c09150612de76118d560096118b7565b612e0563919f550f612df860405190565b9586948593849360e01b90565b83526001600160c01b03191660048301526024820190565b03915afa9081156124b457600091612e33575090565b6102cd915060c03d8111612c8a57612c7c8183610b18565b6102cd90612e57612db4565b612dbc565b906102cd91612e7261251b611020846006611d88565b50600c612e836102cd836005611d88565b0190612e8e82610ffc565b612e9b612a74600061039c565b14918215612f02575b5081612eae575090565b612ed49150602090612ec36118d560096118b7565b612e05632280efd6612df860405190565b03915afa9081156124b457600091612eea575090565b6102cd915060203d8111612cb857612caa8183610b18565b612f0d919250610ffc565b612f1a612a74600361039c565b149038612ea4565b6102cd906000612e5c565b6102cd610240610b3f565b612f40612f2d565b9060008252602082016060815260200160608152602001600081526020016000815260200160008152602001600081526020016000815260200160008152602001600081526020016000815260200160008152602001600081526020016000815260200160008152602001600081526020016000815260200160009052565b6102cd612f38565b906102d09061039c565b6102cd9060a81c610ff6565b6102cd9054612fd1565b906102d0906103c2565b6102cd9060b01c610ff6565b6102cd9054612ff1565b906102b76131c1600e613018612f2d565b94613035613027825460c01b90565b6001600160c01b0319168752565b61304b613044600183016116f4565b6020880152565b61306161305a600283016116f4565b6040880152565b613080613070600383016118b7565b6001600160a01b03166060880152565b61309f61308f600483016118b7565b6001600160a01b03166080880152565b6130be6130ae600583016118b7565b6001600160a01b031660a0880152565b6130d66130cd60058301611734565b60c08801612fc7565b6130ee6130e560058301612fdd565b60e08801612fe7565b6131076130fd60058301612ffd565b6101008801612fe7565b61311e6131166006830161102c565b610120880152565b61313561312d6007830161102c565b610140880152565b61314c6131446008830161102c565b610160880152565b61316361315b6009830161102c565b610180880152565b61317a613172600a830161102c565b6101a0880152565b613191613189600b830161102c565b6101c0880152565b6131aa6131a0600c8301610ffc565b6101e08801612fc7565b61104f6131b9600d830161102c565b610200880152565b610220840152565b6102cd90613007565b6131fa6102cd916131e1612fbf565b506131f361251b611020836006611d88565b6005611d88565b6131c9565b60405162461bcd60e51b815260206004820152601d60248201527f55736520737562677261706820666f722062756c6b20717565726965730000006044820152606490fd5b60405162461bcd60e51b815260206004820152601e60248201527f55736520737562677261706820666f72207374617465207175657269657300006044820152606490fd5b613297611020826006611d88565b90816132a1575090565b6132b991506132b3600c916005611d88565b01610ffc565b611622612a74600161039c56fea26469706673582212204fd3b76e4fb4ee40672c07b7357e31599fd650e4fa54b4d3ae8121860d831d7a64736f6c63430008140033",
  "linkReferences": {},
  "deployedLinkReferences": {}
}