{
  "_format": "hh-sol-artifact-1",
  "contractName": "Control",
  "sourceName": "contracts/modules/Control/Control.sol",
  "abi": [
    {
      "inputs": [],
      "stateMutability": "nonpayable",
      "type": "constructor"
    },
    {
      "inputs": [
        {
          "internalType": "uint256",
          "name": "required",
          "type": "uint256"
        },
        {
          "internalType": "uint256",
          "name": "provided",
          "type": "uint256"
        }
      ],
      "name": "InsufficientGameStake",
      "type": "error"
    },
    {
      "inputs": [],
      "name": "InvalidGameToken",
      "type": "error"
    },
    {
      "inputs": [],
      "name": "InvalidParameters",
      "type": "error"
    },
    {
      "inputs": [],
      "name": "InvalidRegistryAddress",
      "type": "error"
    },
    {
      "inputs": [
        {
          "internalType": "bytes32",
          "name": "orgId",
          "type": "bytes32"
        },
        {
          "internalType": "address",
          "name": "member",
          "type": "address"
        }
      ],
      "name": "MemberExists",
      "type": "error"
    },
    {
      "inputs": [
        {
          "internalType": "bytes32",
          "name": "orgId",
          "type": "bytes32"
        },
        {
          "internalType": "uint256",
          "name": "limit",
          "type": "uint256"
        }
      ],
      "name": "MemberLimitReached",
      "type": "error"
    },
    {
      "inputs": [
        {
          "internalType": "bytes32",
          "name": "orgId",
          "type": "bytes32"
        },
        {
          "internalType": "address",
          "name": "member",
          "type": "address"
        }
      ],
      "name": "MemberNotFound",
      "type": "error"
    },
    {
      "inputs": [],
      "name": "ModuleAlreadyInitialized",
      "type": "error"
    },
    {
      "inputs": [],
      "name": "ModuleNotInitialized",
      "type": "error"
    },
    {
      "inputs": [],
      "name": "OnlyRegistry",
      "type": "error"
    },
    {
      "inputs": [
        {
          "internalType": "bytes32",
          "name": "orgId",
          "type": "bytes32"
        }
      ],
      "name": "OrganizationExists",
      "type": "error"
    },
    {
      "inputs": [
        {
          "internalType": "bytes32",
          "name": "orgId",
          "type": "bytes32"
        }
      ],
      "name": "OrganizationInactive",
      "type": "error"
    },
    {
      "inputs": [
        {
          "internalType": "bytes32",
          "name": "orgId",
          "type": "bytes32"
        }
      ],
      "name": "OrganizationNotFound",
      "type": "error"
    },
    {
      "inputs": [
        {
          "internalType": "bytes32",
          "name": "orgId",
          "type": "bytes32"
        },
        {
          "internalType": "address",
          "name": "caller",
          "type": "address"
        }
      ],
      "name": "UnauthorizedAccess",
      "type": "error"
    },
    {
      "anonymous": false,
      "inputs": [
        {
          "indexed": true,
          "internalType": "bytes32",
          "name": "orgId",
          "type": "bytes32"
        },
        {
          "indexed": true,
          "internalType": "address",
          "name": "member",
          "type": "address"
        },
        {
          "indexed": false,
          "internalType": "enum IControl.MemberState",
          "name": "state",
          "type": "uint8"
        },
        {
          "indexed": false,
          "internalType": "uint256",
          "name": "fee",
          "type": "uint256"
        },
        {
          "indexed": false,
          "internalType": "uint256",
          "name": "timestamp",
          "type": "uint256"
        }
      ],
      "name": "MemberAdded",
      "type": "event"
    },
    {
      "anonymous": false,
      "inputs": [
        {
          "indexed": true,
          "internalType": "bytes32",
          "name": "orgId",
          "type": "bytes32"
        },
        {
          "indexed": true,
          "internalType": "address",
          "name": "member",
          "type": "address"
        },
        {
          "indexed": false,
          "internalType": "uint256",
          "name": "timestamp",
          "type": "uint256"
        }
      ],
      "name": "MemberRemoved",
      "type": "event"
    },
    {
      "anonymous": false,
      "inputs": [
        {
          "indexed": true,
          "internalType": "bytes32",
          "name": "orgId",
          "type": "bytes32"
        },
        {
          "indexed": true,
          "internalType": "address",
          "name": "member",
          "type": "address"
        },
        {
          "indexed": false,
          "internalType": "enum IControl.MemberState",
          "name": "oldState",
          "type": "uint8"
        },
        {
          "indexed": false,
          "internalType": "enum IControl.MemberState",
          "name": "newState",
          "type": "uint8"
        },
        {
          "indexed": false,
          "internalType": "uint256",
          "name": "timestamp",
          "type": "uint256"
        }
      ],
      "name": "MemberStateChanged",
      "type": "event"
    },
    {
      "anonymous": false,
      "inputs": [
        {
          "indexed": true,
          "internalType": "bytes32",
          "name": "orgId",
          "type": "bytes32"
        },
        {
          "indexed": false,
          "internalType": "uint256",
          "name": "oldFee",
          "type": "uint256"
        },
        {
          "indexed": false,
          "internalType": "uint256",
          "name": "newFee",
          "type": "uint256"
        },
        {
          "indexed": false,
          "internalType": "uint256",
          "name": "timestamp",
          "type": "uint256"
        }
      ],
      "name": "MembershipFeeUpdated",
      "type": "event"
    },
    {
      "anonymous": false,
      "inputs": [],
      "name": "ModuleDisabled",
      "type": "event"
    },
    {
      "anonymous": false,
      "inputs": [],
      "name": "ModuleEnabled",
      "type": "event"
    },
    {
      "anonymous": false,
      "inputs": [
        {
          "indexed": true,
          "internalType": "address",
          "name": "registry",
          "type": "address"
        }
      ],
      "name": "ModuleInitialized",
      "type": "event"
    },
    {
      "anonymous": false,
      "inputs": [
        {
          "indexed": true,
          "internalType": "bytes32",
          "name": "orgId",
          "type": "bytes32"
        },
        {
          "indexed": true,
          "internalType": "address",
          "name": "creator",
          "type": "address"
        },
        {
          "indexed": true,
          "internalType": "address",
          "name": "prime",
          "type": "address"
        },
        {
          "indexed": false,
          "internalType": "string",
          "name": "name",
          "type": "string"
        },
        {
          "indexed": false,
          "internalType": "enum IControl.OrgType",
          "name": "orgType",
          "type": "uint8"
        },
        {
          "indexed": false,
          "internalType": "uint256",
          "name": "timestamp",
          "type": "uint256"
        }
      ],
      "name": "OrganizationCreated",
      "type": "event"
    },
    {
      "anonymous": false,
      "inputs": [
        {
          "indexed": true,
          "internalType": "bytes32",
          "name": "orgId",
          "type": "bytes32"
        },
        {
          "indexed": false,
          "internalType": "enum IControl.OrgState",
          "name": "oldState",
          "type": "uint8"
        },
        {
          "indexed": false,
          "internalType": "enum IControl.OrgState",
          "name": "newState",
          "type": "uint8"
        },
        {
          "indexed": false,
          "internalType": "uint256",
          "name": "timestamp",
          "type": "uint256"
        }
      ],
      "name": "OrganizationStateChanged",
      "type": "event"
    },
    {
      "anonymous": false,
      "inputs": [
        {
          "indexed": true,
          "internalType": "bytes32",
          "name": "orgId",
          "type": "bytes32"
        },
        {
          "indexed": true,
          "internalType": "address",
          "name": "prime",
          "type": "address"
        },
        {
          "indexed": false,
          "internalType": "enum IControl.OrgType",
          "name": "orgType",
          "type": "uint8"
        },
        {
          "indexed": false,
          "internalType": "enum IControl.AccessModel",
          "name": "accessModel",
          "type": "uint8"
        },
        {
          "indexed": false,
          "internalType": "uint32",
          "name": "memberLimit",
          "type": "uint32"
        },
        {
          "indexed": false,
          "internalType": "uint256",
          "name": "timestamp",
          "type": "uint256"
        }
      ],
      "name": "OrganizationUpdated",
      "type": "event"
    },
    {
      "anonymous": false,
      "inputs": [
        {
          "indexed": false,
          "internalType": "address",
          "name": "account",
          "type": "address"
        }
      ],
      "name": "Paused",
      "type": "event"
    },
    {
      "anonymous": false,
      "inputs": [
        {
          "indexed": true,
          "internalType": "bytes32",
          "name": "role",
          "type": "bytes32"
        },
        {
          "indexed": true,
          "internalType": "bytes32",
          "name": "previousAdminRole",
          "type": "bytes32"
        },
        {
          "indexed": true,
          "internalType": "bytes32",
          "name": "newAdminRole",
          "type": "bytes32"
        }
      ],
      "name": "RoleAdminChanged",
      "type": "event"
    },
    {
      "anonymous": false,
      "inputs": [
        {
          "indexed": true,
          "internalType": "bytes32",
          "name": "role",
          "type": "bytes32"
        },
        {
          "indexed": true,
          "internalType": "address",
          "name": "account",
          "type": "address"
        },
        {
          "indexed": true,
          "internalType": "address",
          "name": "sender",
          "type": "address"
        }
      ],
      "name": "RoleGranted",
      "type": "event"
    },
    {
      "anonymous": false,
      "inputs": [
        {
          "indexed": true,
          "internalType": "bytes32",
          "name": "role",
          "type": "bytes32"
        },
        {
          "indexed": true,
          "internalType": "address",
          "name": "account",
          "type": "address"
        },
        {
          "indexed": true,
          "internalType": "address",
          "name": "sender",
          "type": "address"
        }
      ],
      "name": "RoleRevoked",
      "type": "event"
    },
    {
      "anonymous": false,
      "inputs": [
        {
          "indexed": true,
          "internalType": "bytes32",
          "name": "orgId",
          "type": "bytes32"
        },
        {
          "indexed": true,
          "internalType": "address",
          "name": "beneficiary",
          "type": "address"
        },
        {
          "indexed": true,
          "internalType": "address",
          "name": "token",
          "type": "address"
        },
        {
          "indexed": false,
          "internalType": "uint256",
          "name": "amount",
          "type": "uint256"
        },
        {
          "indexed": false,
          "internalType": "string",
          "name": "purpose",
          "type": "string"
        },
        {
          "indexed": false,
          "internalType": "uint256",
          "name": "timestamp",
          "type": "uint256"
        }
      ],
      "name": "TreasuryFundsSpent",
      "type": "event"
    },
    {
      "anonymous": false,
      "inputs": [
        {
          "indexed": false,
          "internalType": "address",
          "name": "account",
          "type": "address"
        }
      ],
      "name": "Unpaused",
      "type": "event"
    },
    {
      "inputs": [],
      "name": "ADMIN_ROLE",
      "outputs": [
        {
          "internalType": "bytes32",
          "name": "",
          "type": "bytes32"
        }
      ],
      "stateMutability": "view",
      "type": "function"
    },
    {
      "inputs": [],
      "name": "DEFAULT_ADMIN_ROLE",
      "outputs": [
        {
          "internalType": "bytes32",
          "name": "",
          "type": "bytes32"
        }
      ],
      "stateMutability": "view",
      "type": "function"
    },
    {
      "inputs": [],
      "name": "GAME_STAKE_PURPOSE",
      "outputs": [
        {
          "internalType": "bytes32",
          "name": "",
          "type": "bytes32"
        }
      ],
      "stateMutability": "view",
      "type": "function"
    },
    {
      "inputs": [],
      "name": "MODULE_ID",
      "outputs": [
        {
          "internalType": "bytes32",
          "name": "",
          "type": "bytes32"
        }
      ],
      "stateMutability": "view",
      "type": "function"
    },
    {
      "inputs": [],
      "name": "OPERATOR_ROLE",
      "outputs": [
        {
          "internalType": "bytes32",
          "name": "",
          "type": "bytes32"
        }
      ],
      "stateMutability": "view",
      "type": "function"
    },
    {
      "inputs": [
        {
          "internalType": "bytes32",
          "name": "orgId",
          "type": "bytes32"
        },
        {
          "internalType": "address",
          "name": "member",
          "type": "address"
        }
      ],
      "name": "addMember",
      "outputs": [],
      "stateMutability": "nonpayable",
      "type": "function"
    },
    {
      "inputs": [
        {
          "internalType": "bytes32",
          "name": "orgId",
          "type": "bytes32"
        },
        {
          "internalType": "address",
          "name": "member",
          "type": "address"
        }
      ],
      "name": "canJoinOrganization",
      "outputs": [
        {
          "internalType": "bool",
          "name": "",
          "type": "bool"
        }
      ],
      "stateMutability": "view",
      "type": "function"
    },
    {
      "inputs": [
        {
          "internalType": "string",
          "name": "name",
          "type": "string"
        },
        {
          "internalType": "string",
          "name": "metadataURI",
          "type": "string"
        },
        {
          "internalType": "enum IControl.OrgType",
          "name": "orgType",
          "type": "uint8"
        },
        {
          "internalType": "enum IControl.AccessModel",
          "name": "accessModel",
          "type": "uint8"
        },
        {
          "internalType": "enum IControl.FeeModel",
          "name": "feeModel",
          "type": "uint8"
        },
        {
          "internalType": "uint32",
          "name": "memberLimit",
          "type": "uint32"
        },
        {
          "internalType": "uint256",
          "name": "membershipFee",
          "type": "uint256"
        },
        {
          "internalType": "uint256",
          "name": "gameStakeRequired",
          "type": "uint256"
        }
      ],
      "name": "createOrganization",
      "outputs": [
        {
          "internalType": "bytes32",
          "name": "orgId",
          "type": "bytes32"
        }
      ],
      "stateMutability": "nonpayable",
      "type": "function"
    },
    {
      "inputs": [],
      "name": "emergencyPause",
      "outputs": [],
      "stateMutability": "nonpayable",
      "type": "function"
    },
    {
      "inputs": [],
      "name": "emergencyUnpause",
      "outputs": [],
      "stateMutability": "nonpayable",
      "type": "function"
    },
    {
      "inputs": [],
      "name": "gameToken",
      "outputs": [
        {
          "internalType": "contract IGameToken",
          "name": "",
          "type": "address"
        }
      ],
      "stateMutability": "view",
      "type": "function"
    },
    {
      "inputs": [],
      "name": "getAllOrganizations",
      "outputs": [
        {
          "internalType": "bytes32[]",
          "name": "",
          "type": "bytes32[]"
        }
      ],
      "stateMutability": "view",
      "type": "function"
    },
    {
      "inputs": [
        {
          "internalType": "bytes32",
          "name": "orgId",
          "type": "bytes32"
        }
      ],
      "name": "getGameStakeRequired",
      "outputs": [
        {
          "internalType": "uint256",
          "name": "",
          "type": "uint256"
        }
      ],
      "stateMutability": "view",
      "type": "function"
    },
    {
      "inputs": [
        {
          "internalType": "bytes32",
          "name": "orgId",
          "type": "bytes32"
        },
        {
          "internalType": "address",
          "name": "member",
          "type": "address"
        }
      ],
      "name": "getMember",
      "outputs": [
        {
          "components": [
            {
              "internalType": "enum IControl.MemberState",
              "name": "state",
              "type": "uint8"
            },
            {
              "internalType": "uint256",
              "name": "joinedAt",
              "type": "uint256"
            },
            {
              "internalType": "uint256",
              "name": "totalContribution",
              "type": "uint256"
            },
            {
              "internalType": "bytes32",
              "name": "role",
              "type": "bytes32"
            },
            {
              "internalType": "uint256",
              "name": "stakedAmount",
              "type": "uint256"
            }
          ],
          "internalType": "struct IControl.Member",
          "name": "",
          "type": "tuple"
        }
      ],
      "stateMutability": "view",
      "type": "function"
    },
    {
      "inputs": [
        {
          "internalType": "bytes32",
          "name": "orgId",
          "type": "bytes32"
        }
      ],
      "name": "getMemberCount",
      "outputs": [
        {
          "internalType": "uint256",
          "name": "",
          "type": "uint256"
        }
      ],
      "stateMutability": "view",
      "type": "function"
    },
    {
      "inputs": [
        {
          "internalType": "bytes32",
          "name": "orgId",
          "type": "bytes32"
        }
      ],
      "name": "getOrganization",
      "outputs": [
        {
          "components": [
            {
              "internalType": "uint256",
              "name": "index",
              "type": "uint256"
            },
            {
              "internalType": "address",
              "name": "creator",
              "type": "address"
            },
            {
              "internalType": "address",
              "name": "prime",
              "type": "address"
            },
            {
              "internalType": "string",
              "name": "name",
              "type": "string"
            },
            {
              "internalType": "string",
              "name": "metadataURI",
              "type": "string"
            },
            {
              "internalType": "enum IControl.OrgType",
              "name": "orgType",
              "type": "uint8"
            },
            {
              "internalType": "enum IControl.AccessModel",
              "name": "accessModel",
              "type": "uint8"
            },
            {
              "internalType": "enum IControl.FeeModel",
              "name": "feeModel",
              "type": "uint8"
            },
            {
              "internalType": "uint256",
              "name": "membershipFee",
              "type": "uint256"
            },
            {
              "internalType": "address",
              "name": "treasury",
              "type": "address"
            },
            {
              "internalType": "uint32",
              "name": "memberLimit",
              "type": "uint32"
            },
            {
              "internalType": "enum IControl.OrgState",
              "name": "state",
              "type": "uint8"
            },
            {
              "internalType": "uint256",
              "name": "createdAt",
              "type": "uint256"
            },
            {
              "internalType": "uint256",
              "name": "updatedAt",
              "type": "uint256"
            }
          ],
          "internalType": "struct IControl.Organization",
          "name": "",
          "type": "tuple"
        }
      ],
      "stateMutability": "view",
      "type": "function"
    },
    {
      "inputs": [],
      "name": "getOrganizationCount",
      "outputs": [
        {
          "internalType": "uint256",
          "name": "",
          "type": "uint256"
        }
      ],
      "stateMutability": "view",
      "type": "function"
    },
    {
      "inputs": [
        {
          "internalType": "bytes32",
          "name": "orgId",
          "type": "bytes32"
        }
      ],
      "name": "getOrganizationMembers",
      "outputs": [
        {
          "internalType": "address[]",
          "name": "",
          "type": "address[]"
        }
      ],
      "stateMutability": "view",
      "type": "function"
    },
    {
      "inputs": [
        {
          "internalType": "enum IControl.OrgState",
          "name": "state",
          "type": "uint8"
        }
      ],
      "name": "getOrganizationsByState",
      "outputs": [
        {
          "internalType": "bytes32[]",
          "name": "",
          "type": "bytes32[]"
        }
      ],
      "stateMutability": "view",
      "type": "function"
    },
    {
      "inputs": [
        {
          "internalType": "bytes32",
          "name": "role",
          "type": "bytes32"
        }
      ],
      "name": "getRoleAdmin",
      "outputs": [
        {
          "internalType": "bytes32",
          "name": "",
          "type": "bytes32"
        }
      ],
      "stateMutability": "view",
      "type": "function"
    },
    {
      "inputs": [
        {
          "internalType": "bytes32",
          "name": "orgId",
          "type": "bytes32"
        }
      ],
      "name": "getTreasuryAddress",
      "outputs": [
        {
          "internalType": "address",
          "name": "",
          "type": "address"
        }
      ],
      "stateMutability": "view",
      "type": "function"
    },
    {
      "inputs": [
        {
          "internalType": "bytes32",
          "name": "role",
          "type": "bytes32"
        },
        {
          "internalType": "address",
          "name": "account",
          "type": "address"
        }
      ],
      "name": "grantRole",
      "outputs": [],
      "stateMutability": "nonpayable",
      "type": "function"
    },
    {
      "inputs": [
        {
          "internalType": "bytes32",
          "name": "orgId",
          "type": "bytes32"
        },
        {
          "internalType": "address",
          "name": "member",
          "type": "address"
        },
        {
          "internalType": "bytes32",
          "name": "role",
          "type": "bytes32"
        }
      ],
      "name": "hasRole",
      "outputs": [
        {
          "internalType": "bool",
          "name": "",
          "type": "bool"
        }
      ],
      "stateMutability": "view",
      "type": "function"
    },
    {
      "inputs": [
        {
          "internalType": "bytes32",
          "name": "role",
          "type": "bytes32"
        },
        {
          "internalType": "address",
          "name": "account",
          "type": "address"
        }
      ],
      "name": "hasRole",
      "outputs": [
        {
          "internalType": "bool",
          "name": "",
          "type": "bool"
        }
      ],
      "stateMutability": "view",
      "type": "function"
    },
    {
      "inputs": [
        {
          "internalType": "address",
          "name": "registryAddress",
          "type": "address"
        }
      ],
      "name": "initialize",
      "outputs": [],
      "stateMutability": "nonpayable",
      "type": "function"
    },
    {
      "inputs": [],
      "name": "isInitialized",
      "outputs": [
        {
          "internalType": "bool",
          "name": "",
          "type": "bool"
        }
      ],
      "stateMutability": "view",
      "type": "function"
    },
    {
      "inputs": [
        {
          "internalType": "bytes32",
          "name": "orgId",
          "type": "bytes32"
        },
        {
          "internalType": "address",
          "name": "member",
          "type": "address"
        }
      ],
      "name": "isMemberActive",
      "outputs": [
        {
          "internalType": "bool",
          "name": "",
          "type": "bool"
        }
      ],
      "stateMutability": "view",
      "type": "function"
    },
    {
      "inputs": [
        {
          "internalType": "bytes32",
          "name": "orgId",
          "type": "bytes32"
        }
      ],
      "name": "isOrganizationActive",
      "outputs": [
        {
          "internalType": "bool",
          "name": "",
          "type": "bool"
        }
      ],
      "stateMutability": "view",
      "type": "function"
    },
    {
      "inputs": [
        {
          "internalType": "address",
          "name": "account",
          "type": "address"
        },
        {
          "internalType": "bytes32",
          "name": "orgId",
          "type": "bytes32"
        }
      ],
      "name": "join",
      "outputs": [],
      "stateMutability": "nonpayable",
      "type": "function"
    },
    {
      "inputs": [],
      "name": "moduleId",
      "outputs": [
        {
          "internalType": "bytes32",
          "name": "",
          "type": "bytes32"
        }
      ],
      "stateMutability": "pure",
      "type": "function"
    },
    {
      "inputs": [],
      "name": "onModuleDisabled",
      "outputs": [],
      "stateMutability": "nonpayable",
      "type": "function"
    },
    {
      "inputs": [],
      "name": "onModuleEnabled",
      "outputs": [],
      "stateMutability": "nonpayable",
      "type": "function"
    },
    {
      "inputs": [],
      "name": "pause",
      "outputs": [],
      "stateMutability": "nonpayable",
      "type": "function"
    },
    {
      "inputs": [],
      "name": "paused",
      "outputs": [
        {
          "internalType": "bool",
          "name": "",
          "type": "bool"
        }
      ],
      "stateMutability": "view",
      "type": "function"
    },
    {
      "inputs": [],
      "name": "registry",
      "outputs": [
        {
          "internalType": "address",
          "name": "",
          "type": "address"
        }
      ],
      "stateMutability": "view",
      "type": "function"
    },
    {
      "inputs": [
        {
          "internalType": "bytes32",
          "name": "orgId",
          "type": "bytes32"
        },
        {
          "internalType": "address",
          "name": "member",
          "type": "address"
        }
      ],
      "name": "removeMember",
      "outputs": [],
      "stateMutability": "nonpayable",
      "type": "function"
    },
    {
      "inputs": [
        {
          "internalType": "bytes32",
          "name": "role",
          "type": "bytes32"
        },
        {
          "internalType": "address",
          "name": "account",
          "type": "address"
        }
      ],
      "name": "renounceRole",
      "outputs": [],
      "stateMutability": "nonpayable",
      "type": "function"
    },
    {
      "inputs": [
        {
          "internalType": "bytes32",
          "name": "role",
          "type": "bytes32"
        },
        {
          "internalType": "address",
          "name": "account",
          "type": "address"
        }
      ],
      "name": "revokeRole",
      "outputs": [],
      "stateMutability": "nonpayable",
      "type": "function"
    },
    {
      "inputs": [
        {
          "internalType": "address",
          "name": "_gameToken",
          "type": "address"
        }
      ],
      "name": "setGameToken",
      "outputs": [],
      "stateMutability": "nonpayable",
      "type": "function"
    },
    {
      "inputs": [
        {
          "internalType": "bytes32",
          "name": "orgId",
          "type": "bytes32"
        },
        {
          "internalType": "enum IControl.OrgState",
          "name": "newState",
          "type": "uint8"
        }
      ],
      "name": "setOrganizationState",
      "outputs": [],
      "stateMutability": "nonpayable",
      "type": "function"
    },
    {
      "inputs": [
        {
          "internalType": "bytes32",
          "name": "orgId",
          "type": "bytes32"
        },
        {
          "internalType": "address",
          "name": "token",
          "type": "address"
        },
        {
          "internalType": "address",
          "name": "beneficiary",
          "type": "address"
        },
        {
          "internalType": "uint256",
          "name": "amount",
          "type": "uint256"
        },
        {
          "internalType": "string",
          "name": "purpose",
          "type": "string"
        }
      ],
      "name": "spendTreasuryFunds",
      "outputs": [],
      "stateMutability": "nonpayable",
      "type": "function"
    },
    {
      "inputs": [
        {
          "internalType": "bytes4",
          "name": "interfaceId",
          "type": "bytes4"
        }
      ],
      "name": "supportsInterface",
      "outputs": [
        {
          "internalType": "bool",
          "name": "",
          "type": "bool"
        }
      ],
      "stateMutability": "view",
      "type": "function"
    },
    {
      "inputs": [],
      "name": "unpause",
      "outputs": [],
      "stateMutability": "nonpayable",
      "type": "function"
    },
    {
      "inputs": [
        {
          "internalType": "bytes32",
          "name": "orgId",
          "type": "bytes32"
        },
        {
          "internalType": "address",
          "name": "member",
          "type": "address"
        },
        {
          "internalType": "enum IControl.MemberState",
          "name": "newState",
          "type": "uint8"
        }
      ],
      "name": "updateMemberState",
      "outputs": [],
      "stateMutability": "nonpayable",
      "type": "function"
    },
    {
      "inputs": [
        {
          "internalType": "bytes32",
          "name": "orgId",
          "type": "bytes32"
        },
        {
          "internalType": "address",
          "name": "newPrime",
          "type": "address"
        },
        {
          "internalType": "enum IControl.OrgType",
          "name": "orgType",
          "type": "uint8"
        },
        {
          "internalType": "enum IControl.AccessModel",
          "name": "accessModel",
          "type": "uint8"
        },
        {
          "internalType": "uint32",
          "name": "memberLimit",
          "type": "uint32"
        },
        {
          "internalType": "enum IControl.FeeModel",
          "name": "feeModel",
          "type": "uint8"
        },
        {
          "internalType": "uint256",
          "name": "membershipFee",
          "type": "uint256"
        }
      ],
      "name": "updateOrganization",
      "outputs": [],
      "stateMutability": "nonpayable",
      "type": "function"
    },
    {
      "inputs": [],
      "name": "version",
      "outputs": [
        {
          "internalType": "string",
          "name": "",
          "type": "string"
        }
      ],
      "stateMutability": "view",
      "type": "function"
    }
  ],
  "bytecode": "0x608034620001d0576040908082016001600160401b03811182821017620001ba578252600581526020809101640312e302e360dc1b815260ff1990600190828254168255816002556004548281811c91168015620001af575b858210146200019957601f811162000167575b50516001600160d81b031916600a17600455600080805280845284812033825284528490205460ff16156200012c575b7fa49807205ce4d355092ef5a8a18f56e8913cf4a201fbe287825b095693c217759283600052600081528460002033600052815260ff85600020541615620000ed575b84516154909081620001d68239f35b83600052600081528460002090336000525283600020918254161790553390339060008051602062005666833981519152600080a438808080620000de565b60008052600083528360002033600052835283600020818382541617905533336000600080516020620056668339815191528180a46200009b565b600460005282601f86600020920160051c8201915b8281106200018c5750506200006b565b600081550183906200017c565b634e487b7160e01b600052602260045260246000fd5b90607f169062000058565b634e487b7160e01b600052604160045260246000fd5b600080fdfe60808060405260043610156200001457600080fd5b600090813560e01c90816301ffc9a714620025a257508063086ed9381462002525578063089d0b0c14620024d9578063097e2e3d14620023af578063200224b414620021e357806322b3cd4e1462001f51578063248a9ca31462001f235780632f2ff15d1462001e655780632f645c601462001d4557806336568abe1462001cab578063392e53cd1462001c835780633f4ba83a1462001c165780634092e2c21462001be957806349d07f1d1462001a235780634a4e3bd514620019735780634e42dd9f14620010bf57806351858e27146200108257806354fd4d501462000f905780635734e5e31462000f705780635c975abb1462000f4b57806375b238fc1462000f0e5780637b1039991462000ee357806380d29e661462000e845780638456cb591462000e1557806384ea5c741462000ddd57806391d148541462000d8e57806393f36bd81462000d625780639a7374861462000ade578063a1308f27146200054f578063a217fddf1462000ac0578063a6606fb21462000a94578063aa7318aa1462000a3a578063ad932b6c1462000a03578063b1d92cf61462000920578063b241255014620008c9578063c1f8218a146200084f578063c3dfdae61462000824578063c4d66de81462000652578063d547741f146200060a578063ebf8a3e6146200058c578063ed2f21f5146200054f578063efc370041462000512578063f385bfc914620004a1578063f579164e1462000464578063f5b541a614620004275763fe6d266c146200024a57600080fd5b346200042457604036600319011262000424576200026762002650565b906024356200027562002e99565b6200027f62002dc4565b80825260076020526040822060018101546001600160a01b0394908516156200040b57828452600a602052600160ff604086205416620002bf81620027bd565b03620003f25760058201549260ff8460081c1695620002de87620027bd565b600287149081620003e0575b50620003c05763ffffffff600784015460a01c1680151580620003a9575b62000380575060018662000321620003549798620027bd565b0362000377576002925b60ff879560101c166200033e81620027bd565b15158062000369575b6200035c575b50620032ed565b600160025580f35b600601549350386200034d565b506006810154151562000347565b6001926200032b565b60405163ab1b44b760e01b8152600481019290925263ffffffff166024820152604490fd5b0390fd5b508186526009602052806040872054101562000308565b6040516303a2a05160e11b81526004810191909152336024820152604490fd5b905060028401541633141538620002ea565b604051633aeb474b60e01b815260048101849052602490fd5b60405163f708dfa760e01b815260048101849052602490fd5b80fd5b5034620004245780600319360112620004245760206040517f97667070c54ef182b0f5858b034beac1b6f3089aa2d3188bb1e8929f4fa9b9298152f35b5034620004245780600319360112620004245760206040517f9d5b5f65afa369fa6c9af26783f16db68a74bcb30633c8b6fdd12acc5c52c85e8152f35b5034620004245760403660031901126200042457620004bf62002639565b60043582526008602052604082209060018060a01b031660005260205260ff60406000205416906006821015620004fe57602082600160405191148152f35b634e487b7160e01b81526021600452602490fd5b503462000424576020366003190112620004245760ff60406020926004358152600a84522054166200054481620027bd565b600160405191148152f35b5034620004245780600319360112620004245760206040517fbdded29a54e6a5d6169bedea55373b06f57e35d7b0f67ac187565b435e2cc9438152f35b503462000424578060031936011262000424576003546001600160a01b0381163303620005f85760a01c60ff1615620005e6577fa866f3901ec84758a10f30e8953c3818eef73da93dfa46cb6aa5b726fb65813f8180a180f35b604051633165f6e960e21b8152600490fd5b6040516310f5403960e31b8152600490fd5b50346200042457604036600319011262000424576200064f6004356200062f62002639565b908084528360205262000649600160408620015462002a03565b62002b20565b80f35b5034620004245760208060031936011262000820576200067162002650565b906003549160ff8360a01c166200080e576001600160a01b0316918215620007fc576001600160a81b0319168217600160a01b176003557fa49807205ce4d355092ef5a8a18f56e8913cf4a201fbe287825b095693c2177560008181528083526040808220858352845290205460ff1615620007aa575b507f97667070c54ef182b0f5858b034beac1b6f3089aa2d3188bb1e8929f4fa9b929908160005260008152604060002083600052815260ff604060002054161562000757575b50507f27b541a16df0902e262f34789782092ab25125513b8ed73608e802951771b9288280a280f35b816000526000815260406000209083600052526040600020600160ff198254161790558133917f2f8788117e7eff1d82e926ec794901d17c78024a50270940304540a733656f0d600080a438806200072e565b806000526000825260406000208360005282526040600020600160ff198254161790558233917f2f8788117e7eff1d82e926ec794901d17c78024a50270940304540a733656f0d600080a438620006e8565b604051637bfd2e8360e01b8152600490fd5b604051637396742f60e11b8152600490fd5b5080fd5b503462000424578060031936011262000424576006546040516001600160a01b039091168152602090f35b50346200042457602090816003193601126200042457906004358252600981526200087d604083206200341d565b60405192828493840190808552835180925280604086019401925b828110620008a857505050500390f35b83516001600160a01b03168552869550938101939281019260010162000898565b50346200042457602036600319011262000424576004356003811015620008205760406200091c9282620009016200090f94620027bd565b8152600d602052206200341d565b60405191829182620025fc565b0390f35b503462000424576040366003190112620004245760406200094062002639565b9180608083516200095181620026ae565b8281528260208201528285820152826060820152015260043581526008602052209060018060a01b031660005260205260a06040600020604051906200099782620026ae565b620009a760ff8254168362003142565b6001810154906020830191825260028101546040840190815260046003830154926060860193845201549260808501938452620009e9604051809651620027c8565b516020850152516040840152516060830152516080820152f35b5034620004245760403660031901126200042457602062000a3062000a2762002639565b6004356200314f565b6040519015158152f35b503462000424578060031936011262000424576003546001600160a01b0381163303620005f85760a01c60ff1615620005e6577f6dff2fe8fbb5b23bf0583bf5b2157ff62ca7e27f2fb4f404914cd0c205ced5cc8180a180f35b503462000424576020366003190112620004245760406020916004358152601083522054604051908152f35b50346200042457806003193601126200042457602090604051908152f35b503462000424576040366003190112620004245760043562000aff62002639565b9062000b0a62002e99565b62000b1462002dc4565b808352600760209081526040842060018101546001600160a01b03919082161562000d4957838652600883526040862094828116958660005284526001604060002001541562000d1f5750600282910154163314158062000d14575b62000cf55784908382526009835262000b8d85604084206200302c565b50838252600883526040822085600052835260006004604082208481558260018201558260028201558260038201550155838252600e83526040822085600052835260006040812055838252601183526040822085600052835260406000205462000c26575b50507f31bd20fe15001ee66b7528035447ad30c320a25815eb7d5de52d8e35ec26600090604051428152a3600160025580f35b83825260118352604082208560005283526040600020549084835260118452604083208660005284528260406000205560065416908162000c69575b5062000bf3565b813b1562000cf15782916044839260405194859384926316ae261d60e01b84527f9d5b5f65afa369fa6c9af26783f16db68a74bcb30633c8b6fdd12acc5c52c85e600485015260248401525af1801562000ce65762000cca575b8062000c62565b62000cd59062002667565b62000ce257833862000cc3565b8380fd5b6040513d84823e3d90fd5b8280fd5b6040516303a2a05160e11b815260048101849052336024820152604490fd5b508333141562000b70565b604051630308532560e21b8152600481018690526001600160a01b03919091166024820152604490fd5b60405163f708dfa760e01b815260048101859052602490fd5b503462000424576020366003190112620004245760406020916004358152600983522054604051908152f35b5034620004245760403660031901126200042457604062000dae62002639565b91600435815280602052209060018060a01b0316600052602052602060ff604060002054166040519015158152f35b50346200042457602036600319011262000424576020906004358152600782526007604060018060a01b039220015416604051908152f35b5034620004245780600319360112620004245762000e32620027d6565b60ff60035460a01c1615620005e65762000e4b62002dc4565b600160ff19815416176001557f62e78cea01bee320cd4e420270b5ea74000d11b0c9f74754ebdbfc544b05a2586020604051338152a180f35b503462000424576020366003190112620004245762000ea262002650565b62000eac620027d6565b6001600160a01b0316801562000ed2576001600160601b0360a01b600654161760065580f35b6040516203daa560e31b8152600490fd5b503462000424578060031936011262000424576003546040516001600160a01b039091168152602090f35b5034620004245780600319360112620004245760206040517fa49807205ce4d355092ef5a8a18f56e8913cf4a201fbe287825b095693c217758152f35b50346200042457806003193601126200042457602060ff600154166040519015158152f35b503462000424578060031936011262000424576020600554604051908152f35b50346200042457806003193601126200042457604051600060045462000fb68162002cd5565b8084529060019081811690811562001059575060011462000ffa575b6200091c8462000fe581860382620026e6565b60405191829160208352602083019062002788565b6004600090815292507f8a35acfbc15ff81a39ae7d344fd709f28e8600b4aa8c65c6b64bfe7fe36bd19b5b8284106200104057505050810160200162000fe58262000fd2565b8054602085870181019190915290930192810162001025565b60ff191660208087019190915292151560051b8501909201925062000fe5915083905062000fd2565b503462000424578060031936011262000424576003546001600160a01b0381163303620005f85760a01c60ff1615620005e65762000e4b62002dc4565b5034620004245761010036600319011262000424576004356001600160401b0381116200082057620010f690369060040162002708565b906024356001600160401b03811162000820576200111990369060040162002708565b9060046044351015620004245760036064351015620004245760036084351015620004245760a43563ffffffff811681036200196e576200115962002e99565b6200116362002dc4565b8351156200195c5760e4351515808062001948575b62000ed257620018ad575b60016005540190816005556040517fbdded29a54e6a5d6169bedea55373b06f57e35d7b0f67ac187565b435e2cc94360208201528260408201523360601b606082015242607482015260748152620011db81620026ae565b6020815191012093848452600760205260018060a01b03600160408620015416620018945760405180611fea8101106001600160401b03611fea830111176200179f57611fea620034718239611fea81018681523060208201523360408201528190036060019085f090811562001889579063ffffffff929160405194620012638662002691565b855233602086015233604086015287606086015260808501526200128d60443560a0860162002e09565b6200129a606435620027bd565b60643560c0850152620012af608435620027bd565b60843560e085015260c43561010085015260018060a01b031661012084015216610140820152600161016082015242610180820152426101a082015282825260076020526040822090805182556001820160018060a01b036020830151166001600160601b0360a01b8254161790556002820160018060a01b036040830151166001600160601b0360a01b82541617905560608101518051906001600160401b0382116200179f57819062001368600386015462002cd5565b601f811162001833575b50602090601f8311600114620017bf578692620017b3575b50508160011b916000199060031b1c19161760038301555b60808101518051906001600160401b0382116200179f578190620013ca600486015462002cd5565b601f811162001749575b50602090601f8311600114620016d5578692620016c9575b50508160011b916000199060031b1c19161760048301555b60a08101516004811015620016b557928260096101a06040946200146962001521986200143760058c9a01918262002e16565b6200145260c08401516200144b81620027bd565b8262002e2f565b60e0830151906200146382620027bd565b62002e50565b610100810151600685015561012081015160078501805461014084015163ffffffff60a01b60a09190911b166001600160a01b039093166001600160c01b031990911617919091178155620014d09061016083015190620014ca82620027bd565b62002e73565b61018081015160088501550151910155828152600a602052818120600160ff19825416179055828152601060205260e43582822055620015108362002f07565b5060018152600d6020522062002fa2565b5080600052600860205260406000203360005260205260016040600020015462001695578060005260096020526200155e33604060002062002fa2565b50604051916200156e83620026ae565b60018352602083019242845260408101600081526060820160008152608083019060008252856000526008602052604060002033600052602052604060002093519260068410156200167f57602097620015cb6004958762003129565b5160018601555160028501555160038401555191015560405160018152600084820152426040820152827f339e6f1051e81b2167f634edf22c19afc661b87cc385ead8aae7e6863548a41060603393a3620016326040519160608352606083019062002788565b62001642848301604435620027af565b426040830152827fb666949cb144777f2b9c231357c48a44dd297b72cca767eee2290801b924ee2233938033940390a46001600255604051908152f35b634e487b7160e01b600052602160045260246000fd5b60405163392d9d8360e11b81526004810191909152336024820152604490fd5b634e487b7160e01b84526021600452602484fd5b015190503880620013ec565b9250600485018652602086209086935b601f19841685106200172d576001945083601f1981161062001713575b505050811b01600483015562001404565b015160001960f88460031b161c1916905538808062001702565b81810151835560209485019460019093019290910190620016e5565b90915060048501865260208620601f840160051c81016020851062001797575b90849392915b601f830160051c8201811062001787575050620013d4565b600081558594506001016200176f565b508062001769565b634e487b7160e01b85526041600452602485fd5b0151905038806200138a565b9250600385018652602086209086935b601f198416851062001817576001945083601f19811610620017fd575b505050811b016003830155620013a2565b015160001960f88460031b161c19169055388080620017ec565b81810151835560209485019460019093019290910190620017cf565b90915060038501865260208620601f840160051c81016020851062001881575b90849392915b601f830160051c820181106200187157505062001372565b6000815585945060010162001859565b508062001853565b6040513d86823e3d90fd5b604051635670e0e960e01b815260048101869052602490fd5b6006546001600160a01b0316803b1562000cf15782809160646040518094819363f26f8f3b60e01b83523360048401527f9d5b5f65afa369fa6c9af26783f16db68a74bcb30633c8b6fdd12acc5c52c85e602484015260e43560448401525af180156200193d5790839162001925575b505062001183565b620019309062002667565b620008205781386200191d565b6040513d85823e3d90fd5b506006546001600160a01b03161562001178565b604051630e52390960e41b8152600490fd5b600080fd5b503462000424578060031936011262000424576003546001600160a01b0381163303620005f85760a01c60ff1615620005e65760015460ff811615620019e75760ff19166001557f5db9ee0a495bf2e6ff9c91a7834c1ba4fdd244a5e8aa4e537bd38aeae4b073aa6020604051338152a180f35b60405162461bcd60e51b815260206004820152601460248201527314185d5cd8589b194e881b9bdd081c185d5cd95960621b6044820152606490fd5b5034620004245760e0366003190112620004245760043562001a4462002639565b90604435600481101562000ce25760643592600384101562001be55760843563ffffffff8116918282036200196e5760a435600381101562001be15762001a8a62002e99565b62001a9462002dc4565b85885260076020526040882060018101546001600160a01b03949192919085161562001bc8576002830193845490868216330362001ba957928a6200146388969462001b50947ff7e47866c964bbd057f40b818c03a0eed60d85fe9a473df67ecb631b97ab5db59c9a60809c9a9816908162001b94575b505062001b29600587019362001b228c8662002e16565b8462002e2f565b60078601805463ffffffff60a01b191660a09290921b63ffffffff60a01b16919091179055565b60c435600682015560094291015554169562001b706040518094620027af565b62001b7b81620027bd565b60208301526040820152426060820152a3600160025580f35b6001600160a01b031916178755388062001b0b565b6040516303a2a05160e11b8152600481018b9052336024820152604490fd5b60405163f708dfa760e01b815260048101899052602490fd5b8780fd5b8480fd5b50346200042457604036600319011262000424576004359062001c0b62002639565b916200027562002e99565b5034620004245780600319360112620004245762001c33620027d6565b60ff60035460a01c1615620005e65760015460ff811615620019e75760ff19166001557f5db9ee0a495bf2e6ff9c91a7834c1ba4fdd244a5e8aa4e537bd38aeae4b073aa6020604051338152a180f35b50346200042457806003193601126200042457602060ff60035460a01c166040519015158152f35b503462000424576040366003190112620004245762001cc962002639565b336001600160a01b0382160362001ce8576200064f9060043562002b20565b60405162461bcd60e51b815260206004820152602f60248201527f416363657373436f6e74726f6c3a2063616e206f6e6c792072656e6f756e636560448201526e103937b632b9903337b91039b2b63360891b6064820152608490fd5b5034620004245760403660031901126200042457600435602435600381101562000cf15762001d73620027d6565b81835260076020526040832060018101549091906001600160a01b0316156200040b577f0964d0ff1c915ba70deedb74119ea25ab58a9eeb937d43f985e28cdab434e97c91606091848652600a60205262001df4816007604089209485549560ff87169662001de285620027bd565b60ff191660ff85161790550162002e73565b62001dff82620027bd565b818652600d60205262001e1685604088206200302c565b5062001e2281620027bd565b808652600d60205262001e39856040882062002fa2565b506040519162001e4981620027bd565b825262001e5681620027bd565b6020820152426040820152a280f35b503462000424576040366003190112620004245760043562001e8662002639565b8183528260205262001e9f600160408520015462002a03565b81600052600060205260406000209060018060a01b0316908160005260205260ff604060002054161562001ed1578280f35b8160005260006020526040600020816000526020526040600020600160ff1982541617905533917f2f8788117e7eff1d82e926ec794901d17c78024a50270940304540a733656f0d600080a438808280f35b5034620004245760203660031901126200042457600160406020926004358152808452200154604051908152f35b5034620004245760203660031901126200042457806040916101a0835162001f798162002691565b8281528260208201528285820152606080820152606060808201528260a08201528260c08201528260e082015282610100820152826101208201528261014082015282610160820152826101808201520152600435815260076020522060096040519162001fe78362002691565b8054835260018101546001600160a01b0390811660208501526002820154166040840152620020196003820162002d12565b60608401526200202c6004820162002d12565b608084015260ff60058201546200204982821660a0870162002e09565b818160081c166200205a81620027bd565b60c086015260101c166200206e81620027bd565b60e0840152600681015461010084015260078101546001600160a01b03811661012085015260a081901c63ffffffff1661014085015260ff90620020b860c082901c8316620027bd565b60c01c16610160840152600881015461018084015201546101a08201526040518091602082528051602083015260018060a01b03602082015116604083015260018060a01b0360408201511660608301526101a0620021446200212d60608401516101c060808701526101e086019062002788565b6080840151858203601f190160a087015262002788565b916200215960a082015160c0860190620027af565b60c08101516200216981620027bd565b60e085015260e08101516200217e81620027bd565b61010085015261010081015161012085015260018060a01b036101208201511661014085015263ffffffff61014082015116610160850152610160810151620021c781620027bd565b6101808501526101808101518285015201516101c08301520390f35b5034620004245760a036600319011262000424576004356200220462002639565b906044356001600160a01b03818116929183900362001be5576064356084356001600160401b038111620023ab576200224290369060040162002708565b916200224d62002e99565b6200225762002dc4565b838752600760205260408720816001820154161562002392578160028201541633036200237357816007899201541696873b1562000820576040519283916311799dc960e21b8352169788600483015287602483015284604483015260806064830152818381620022cc608482018a62002788565b03925af18015620023685762002330575b50907f1a30243129fb6bc49485c6d9dbbf494656057845799b7ab9ba971352ea0bf14d916200231f604051928392835260606020840152606083019062002788565b4260408301520390a4600160025580f35b956200235f7f1a30243129fb6bc49485c6d9dbbf494656057845799b7ab9ba971352ea0bf14d93929762002667565b959091620022dd565b6040513d89823e3d90fd5b6040516303a2a05160e11b815260048101869052336024820152604490fd5b60405163f708dfa760e01b815260048101869052602490fd5b8680fd5b5034620004245760603660031901126200042457600435620023d062002639565b9060443591600683101562000ce257620023e962002e99565b620023f362002dc4565b81845260076020526040842060018101549093906001600160a01b039081161562000d495783865260086020526040862094818416958688526020526040872093600185015415620024af57506002015416330362000cf55781620024a0826200248660609460ff7fa0bb32fce8b7cb6c25ff2a9b338c0e52c38d780f32fb9d786289fbe2d929a1f79754169462003129565b620024956040518094620027c8565b6020830190620027c8565b426040820152a3600160025580f35b604051630308532560e21b8152600481018790526001600160a01b03919091166024820152604490fd5b5034620004245760603660031901126200042457602090620024fa62002639565b6004358252600e8352604082209060018060a01b031682528252604060443591205414604051908152f35b50346200042457806003193601126200042457604051600b80548083529083526020808301937f0175b7a638427703f0dbe7bb9bbf987a2551717b34e79f33b5b1008d1fa01db992915b8282106200258a576200091c856200090f81890382620026e6565b8354865294850194600193840193909101906200256f565b90503462000820576020366003190112620008205760043563ffffffff60e01b811680910362000cf15760209250637965db0b60e01b8114908115620025ea575b5015158152f35b6301ffc9a760e01b14905038620025e3565b6020908160408183019282815285518094520193019160005b82811062002624575050505090565b83518552938101939281019260010162002615565b602435906001600160a01b03821682036200196e57565b600435906001600160a01b03821682036200196e57565b6001600160401b0381116200267b57604052565b634e487b7160e01b600052604160045260246000fd5b6101c081019081106001600160401b038211176200267b57604052565b60a081019081106001600160401b038211176200267b57604052565b608081019081106001600160401b038211176200267b57604052565b90601f801991011681019081106001600160401b038211176200267b57604052565b81601f820112156200196e578035906001600160401b0382116200267b576040519262002740601f8401601f191660200185620026e6565b828452602083830101116200196e57816000926020809301838601378301015290565b60005b838110620027775750506000910152565b818101518382015260200162002766565b90602091620027a38151809281855285808601910162002763565b601f01601f1916010190565b9060048210156200167f5752565b600311156200167f57565b9060068210156200167f5752565b3360009081527f7d7ffb7a348e1c6a02869081a26547b49160dd3df72d1d75a570eb9b698292ec602090815260408083205490927fa49807205ce4d355092ef5a8a18f56e8913cf4a201fbe287825b095693c217759160ff16156200283b5750505050565b620028463362002bbd565b918451906200285582620026ca565b60428252848201926060368537825115620029ef5760308453825190600191821015620029ef5790607860218501536041915b8183116200297c575050506200293a576048620003a59386936200291d936200290d985198899376020b1b1b2b9b9a1b7b73a3937b61d1030b1b1b7bab73a1604d1b8a860152620028e3815180928c60378901910162002763565b8401917001034b99036b4b9b9b4b733903937b6329607d1b60378401525180938684019062002763565b01036028810187520185620026e6565b5192839262461bcd60e51b84526004840152602483019062002788565b60648486519062461bcd60e51b825280600483015260248201527f537472696e67733a20686578206c656e67746820696e73756666696369656e746044820152fd5b909192600f81166010811015620029db576f181899199a1a9b1b9c1cb0b131b232b360811b901a620029af858762002b95565b5360041c928015620029c75760001901919062002888565b634e487b7160e01b82526011600452602482fd5b634e487b7160e01b83526032600452602483fd5b634e487b7160e01b81526032600452602490fd5b600090808252602090828252604092838120338252835260ff84822054161562002a2d5750505050565b62002a383362002bbd565b9184519062002a4782620026ca565b60428252848201926060368537825115620029ef5760308453825190600191821015620029ef5790607860218501536041915b81831162002ad5575050506200293a576048620003a59386936200291d936200290d985198899376020b1b1b2b9b9a1b7b73a3937b61d1030b1b1b7bab73a1604d1b8a860152620028e3815180928c60378901910162002763565b909192600f81166010811015620029db576f181899199a1a9b1b9c1cb0b131b232b360811b901a62002b08858762002b95565b5360041c928015620029c75760001901919062002a7a565b9060009180835282602052604083209160018060a01b03169182845260205260ff60408420541662002b5157505050565b80835282602052604083208284526020526040832060ff1981541690557ff6391f5c32d9c69d2a47ea670b442974b53935d1edc7fd64eb21e047a839171b339380a4565b90815181101562002ba7570160200190565b634e487b7160e01b600052603260045260246000fd5b60405190606082018281106001600160401b038211176200267b57604052602a825260208201604036823782511562002ba75760309053815160019081101562002ba757607860218401536029905b80821162002c6257505062002c1e5790565b606460405162461bcd60e51b815260206004820152602060248201527f537472696e67733a20686578206c656e67746820696e73756666696369656e746044820152fd5b9091600f8116601081101562002cc0576f181899199a1a9b1b9c1cb0b131b232b360811b901a62002c94848662002b95565b5360041c91801562002cab57600019019062002c0c565b60246000634e487b7160e01b81526011600452fd5b60246000634e487b7160e01b81526032600452fd5b90600182811c9216801562002d07575b602083101462002cf157565b634e487b7160e01b600052602260045260246000fd5b91607f169162002ce5565b906040519182600082549262002d288462002cd5565b90818452600194858116908160001462002d9f575060011462002d58575b505062002d5692500383620026e6565b565b9093915060005260209081600020936000915b81831062002d8657505062002d569350820101388062002d46565b8554888401850152948501948794509183019162002d6b565b91505062002d5694506020925060ff191682840152151560051b820101388062002d46565b60ff6001541662002dd157565b60405162461bcd60e51b815260206004820152601060248201526f14185d5cd8589b194e881c185d5cd95960821b6044820152606490fd5b60048210156200167f5752565b9060048110156200167f5760ff80198354169116179055565b9062002e3b81620027bd565b61ff0082549160081b169061ff001916179055565b9062002e5c81620027bd565b62ff000082549160101b169062ff00001916179055565b9062002e7f81620027bd565b815460ff60c01b191660c09190911b60ff60c01b16179055565b600280541462002ea95760028055565b60405162461bcd60e51b815260206004820152601f60248201527f5265656e7472616e637947756172643a207265656e7472616e742063616c6c006044820152606490fd5b805482101562002ba75760005260206000200190600090565b6000818152600c602052604081205462002f9d57600b54600160401b81101562002f89576001810180600b5581101562002f755790826040927f0175b7a638427703f0dbe7bb9bbf987a2551717b34e79f33b5b1008d1fa01db90155600b54928152600c6020522055600190565b634e487b7160e01b82526032600452602482fd5b634e487b7160e01b82526041600452602482fd5b905090565b919060018301600090828252806020526040822054156000146200302657845494600160401b8610156200301257836200300262002feb886001604098999a0185558462002eee565b819391549060031b91821b91600019901b19161790565b9055549382526020522055600190565b634e487b7160e01b83526041600452602483fd5b50925050565b906001820190600092818452826020526040842054908115156000146200312257600019918083018181116200310e57825490848201918211620030fa57808203620030bf575b50505080548015620030ab578201916200308e838362002eee565b909182549160031b1b191690555582526020526040812055600190565b634e487b7160e01b86526031600452602486fd5b620030e4620030d362002feb938662002eee565b90549060031b1c9283928662002eee565b9055865284602052604086205538808062003073565b634e487b7160e01b88526011600452602488fd5b634e487b7160e01b87526011600452602487fd5b5050505090565b9060068110156200167f5760ff80198354169116179055565b60068210156200167f5752565b60009181835260209060078252604080852092815192620031708462002691565b8454845260018501546001600160a01b0390811683860190815260028701548216858701528190620031a56003890162002d12565b6060880152620031b86004890162002d12565b608088015260ff6005890154620031d582821660a08b0162002e09565b818160081c16620031e681620027bd565b60c08a015260101c16620031fa81620027bd565b60e088015260068801546101008801526007880154968288166101208201526101a0600961014083019a60ff63ffffffff9b8d8d8260a01c16905260c01c166200324481620027bd565b61016085015260088101546101808501520154910152511615620032e357868852600a8352600160ff858a2054166200327d81620027bd565b03620032e3578688526008835283882091168752815260018287200154620032db578284511615159485620032c0575b5050505050620032bd5750600190565b90565b865260099052842054915116111590503880808080620032ad565b505050505090565b5050505050505090565b9190926000908382526020600881526040928381209660018060a01b03811697888352835260018583200154620033f4575085815260098252620033348785832062002fa2565b508351906200334382620026ae565b6200334f868362003142565b828201428152858301858152606084019183835260808501938085528a8152600887528881208c825287528881209551906006821015620004fe575092600492606099979592620033c588967f339e6f1051e81b2167f634edf22c19afc661b87cc385ead8aae7e6863548a4109d9b9962003129565b51600186015551600285015551600384015551910155620033e983518095620027c8565b8301524290820152a3565b845163392d9d8360e11b8152600481018890526001600160a01b03919091166024820152604490fd5b9060405191828154918282526020928383019160005283600020936000905b828210620034555750505062002d5692500383620026e6565b8554845260019586019588955093810193909101906200343c56fe60c034620002e857601f62001fea38819003918201601f191683019291906001600160401b03841183851017620002ed578160609284926040968752833981010312620002e857805190602062000065846200005d83850162000303565b930162000303565b60018080556002805460ff199081169091556001600160a01b038086169591938615620002a45716958615620002705760805260a052600094858052858452868620818752845260ff8787205416156200023b575b7fa49807205ce4d355092ef5a8a18f56e8913cf4a201fbe287825b095693c2177590818752868552878720818852855260ff88882054161562000205575b50507f7434c6f201a551bfd17336985361933e0c4935b520dac8a49d937b325f7d5c0a808652858452868620858752845260ff878720541615620001cf575b507f8f4f2da22e8ac8f11e15f9fc141cddbb5deea8800186560abb6e68c5496619a992838652858152868620858752815260ff87872054161562000197575b8651611cb19081620003198239608051816105be015260a05181610ac90152f35b83865285815286862090858752528585209182541617905560008051602062001fca833981519152339380a438808080808062000176565b8086528584528686208587528452868620828482541617905584339160008051602062001fca8339815191528880a43862000137565b81875286855287872081885285528787208385825416179055339160008051602062001fca8339815191528880a43880620000f8565b8580528584528686208187528452868620828482541617905533818760008051602062001fca8339815191528180a4620000ba565b875162461bcd60e51b815260048101869052600d60248201526c24b73b30b634b21030b236b4b760991b6044820152606490fd5b885162461bcd60e51b815260048101879052601660248201527f496e76616c696420636f6e74726f6c206d6f64756c65000000000000000000006044820152606490fd5b600080fd5b634e487b7160e01b600052604160045260246000fd5b51906001600160a01b0382168203620002e85756fe608060408181526004918236101561001657600080fd5b600092833560e01c91826301ffc9a71461110e57508163248a9ca3146110e45781632f2ff15d1461103b57816336568abe14610fa95781633f4ba83a14610f1357816345e6772414610b3057816347a1074814610af8578163536ce92d14610ab45781635c975abb14610a905781635fa7b5841461090f57816372c16a24146108d457816375151b631461089657816375b238fc1461085b5781638456cb591461080057816391d14854146107ba578163a217fddf1461079f578163a3b0b5a314610764578163a85e35de1461072f578163bfe07da6146105e1578163c471dc3a146105a6578163c9a815bd14610530578163caa648b41461044d578163d3c7c2c714610418578163d48bfca71461030e578163d547741f146102d0578163e63ea40814610188575063f8b2cb4f1461014e57600080fd5b346101845760203660031901126101845760209181906001600160a01b0361017461117c565b1681526003845220549051908152f35b5080fd5b9050346102cc5760603660031901126102cc576101a361117c565b906101ac611161565b92604435936101b961184c565b6101c1611286565b84156102be576001600160a01b03818116949085156102ae57811693848852600360205283882054878110610278575050508461021691848852600360205283882061020e8382546117d9565b905584611a65565b8051938452606060208501526014606085015273115b595c99d95b98de481dda5d1a191c985dd85b60621b608085015242908401527f6b660b41e4e88f1cb58ddfa149465e22095f2db46104f1189ab4fb13df56593360a03394a46001805580f35b845163db42144d60e01b81526001600160a01b0390931691830191825260208201889052604082015281906060010390fd5b0390fd5b5050505163d92e233d60e01b8152fd5b5051631f2a200560e01b8152fd5b8280fd5b919050346102cc57806003193601126102cc5761030b913561030660016102f5611161565b938387528660205286200154611474565b6115c6565b80f35b8383346101845760203660031901126101845761032961117c565b90610332611286565b6001600160a01b03821691821561040857828452600560205260ff82852054166103f1578284526005602052818420805460ff191660011790558454680100000000000000008110156103de57916103d66020926103b7858960017ff4c563a3ea86ff1f4275e8c207df0375a51963f2b831b7bf4da8be938d92876c98019055611793565b90919082549060031b9160018060a01b03809116831b921b1916179055565b51428152a280f35b634e487b7160e01b855260418652602485fd5b8151632efbf13f60e21b8152808601849052602490fd5b815163d92e233d60e01b81528590fd5b50503461018457816003193601126101845761044990610436611ab7565b9051918291602083526020830190611249565b0390f35b82843461052d578060031936011261052d57610467611ab7565b9182519061048c61047783611c4f565b92610484835194856111c4565b808452611c4f565b60208381019491601f1901368637815b86518110156104dc576104d7906001600160a01b036104bb828a611c67565b5116845260038352848420546104d18288611c67565b526117ca565b61049c565b509392909193806104f68651978789988952880190611249565b928684038288015251928381520193925b82811061051657505050500390f35b835185528695509381019392810192600101610507565b80fd5b5050346101845780600319360112610184577f3bd32c0f6f623f7e2423f76f4b251ace080cdb1aff9a2a4b12d8b8d8c9178b56606061056d61117c565b60243590610579611286565b60018060a01b0316938486526006602052808620918083549355815192835260208301524290820152a280f35b505034610184578160031936011261018457602090517f00000000000000000000000000000000000000000000000000000000000000008152f35b9050346102cc5760603660031901126102cc576105fc61117c565b91602435906044359267ffffffffffffffff9384811161072b576106239036908301611202565b9461062c61184c565b610634611808565b831561071c576001600160a01b031680875260056020528287205490949060ff16156107065782516323b872dd60e01b6020820152336024820152306044820152606480820186905281529160a08301918211838310176106f35750916106c37f225ff215a128c3b90e7d9a02531a87177de9e30a3ca726ecb9ce3de0a14f939494926106e9948352866118a2565b84875260036020528087206106d983825461163a565b90555191829133964291846117e6565b0390a36001805580f35b634e487b7160e01b885260419052602487fd5b508360249251916306439c6b60e01b8352820152fd5b509051631f2a200560e01b8152fd5b8680fd5b50503461018457806003193601126101845760209061075d61074f61117c565b610757611161565b90611b2d565b9051908152f35b505034610184578160031936011261018457602090517f8f4f2da22e8ac8f11e15f9fc141cddbb5deea8800186560abb6e68c5496619a98152f35b50503461018457816003193601126101845751908152602090f35b9050346102cc57816003193601126102cc578160209360ff926107db611161565b903582528186528282206001600160a01b039091168252855220549151911615158152f35b50503461018457816003193601126101845760207f62e78cea01bee320cd4e420270b5ea74000d11b0c9f74754ebdbfc544b05a2589161083e611286565b610846611808565b600160ff19600254161760025551338152a180f35b505034610184578160031936011261018457602090517fa49807205ce4d355092ef5a8a18f56e8913cf4a201fbe287825b095693c217758152f35b5050346101845760203660031901126101845760209160ff9082906001600160a01b036108c161117c565b1681526005855220541690519015158152f35b505034610184578160031936011261018457602090517f7434c6f201a551bfd17336985361933e0c4935b520dac8a49d937b325f7d5c0a8152f35b82843461052d57602036600319011261052d5761092a61117c565b91610933611286565b6001600160a01b0392831680835260056020528183205490919060ff1615610a79578183526005602052808320805460ff19169055825b855480821015610a495785908461098084611793565b939054600394851b1c161461099f57505061099a906117ca565b61096a565b90929394959160001991828101908111610a3657906103b7846109c46109d194611793565b905490881b1c1691611793565b86548015610a2357917fbe9bb4bdca0a094babd75e3a98b1d2e2390633430d0a2f6e2b9970e2ee03fb2e9596979160209594930192610a0f84611793565b81939154921b1b191690555551428152a280f35b634e487b7160e01b875260318852602487fd5b634e487b7160e01b885260118952602488fd5b50507fbe9bb4bdca0a094babd75e3a98b1d2e2390633430d0a2f6e2b9970e2ee03fb2e92945060209193506103d6565b516306439c6b60e01b815280850191909152602490fd5b50503461018457816003193601126101845760209060ff6002541690519015158152f35b505034610184578160031936011261018457517f00000000000000000000000000000000000000000000000000000000000000006001600160a01b03168152602090f35b5050346101845760203660031901126101845760209181906001600160a01b03610b2061117c565b1681526006845220549051908152f35b9050346102cc5760803660031901126102cc57610b4b61117c565b90610b54611161565b926044359060643567ffffffffffffffff811161072b57610b789036908501611202565b94610b8161184c565b610b89611808565b7f7434c6f201a551bfd17336985361933e0c4935b520dac8a49d937b325f7d5c0a90818852602091888352838920338a52835260ff848a20541615610d4e57508315610d3e576001600160a01b0381811696908715610d2e57811695868a526005845260ff858b20541615610d1757868a5260038452848a2054868110610ce557505091610c6085610cae9593610c43827f6b660b41e4e88f1cb58ddfa149465e22095f2db46104f1189ab4fb13df565933999733611b7e565b888c5260038452848c20610c588382546117d9565b905588611a65565b620151804204338a5260088252828a20878b52825280838b205403610cb8575b503389526007815281892090868a5252808820610c9e83825461163a565b90555191829133974291846117e6565b0390a46001805580f35b338a5260078252828a20878b5282528983812055338a5260088252828a20878b528252828a205538610c80565b855163db42144d60e01b81526001600160a01b0390931691830191825260208201879052604082015281906060010390fd5b84516306439c6b60e01b8152908101879052602490fd5b845163d92e233d60e01b81528790fd5b8251631f2a200560e01b81528590fd5b858484928b610d5c33611684565b91835190610d6982611192565b60428252868201926060368537825115610f005760308453825190600191821015610eed5790607860218501536041915b818311610e8257505050610e41576048610e18938593610e27936102aa975196879376020b1b1b2b9b9a1b7b73a3937b61d1030b1b1b7bab73a1604d1b8c860152610def8c825192839160378901910161157e565b8401917001034b99036b4b9b9b4b733903937b6329607d1b60378401525180938684019061157e565b010360288101855201836111c4565b5193849362461bcd60e51b855284015260248301906115a1565b606485878087519262461bcd60e51b845283015260248201527f537472696e67733a20686578206c656e67746820696e73756666696369656e746044820152fd5b909192600f81166010811015610eda576f181899199a1a9b1b9c1cb0b131b232b360811b901a610eb2858761165d565b53881c928015610ec757600019019190610d9a565b634e487b7160e01b825260118952602482fd5b634e487b7160e01b835260328a52602483fd5b634e487b7160e01b815260328852602490fd5b634e487b7160e01b815260328752602490fd5b9050346102cc57826003193601126102cc57610f2d611286565b6002549060ff821615610f6f575060ff1916600255513381527f5db9ee0a495bf2e6ff9c91a7834c1ba4fdd244a5e8aa4e537bd38aeae4b073aa90602090a180f35b606490602084519162461bcd60e51b8352820152601460248201527314185d5cd8589b194e881b9bdd081c185d5cd95960621b6044820152fd5b83915034610184578260031936011261018457610fc4611161565b90336001600160a01b03831603610fe0579061030b91356115c6565b608490602085519162461bcd60e51b8352820152602f60248201527f416363657373436f6e74726f6c3a2063616e206f6e6c792072656e6f756e636560448201526e103937b632b9903337b91039b2b63360891b6064820152fd5b9050346102cc57816003193601126102cc573590611057611161565b908284528360205261106e60018286200154611474565b82845260208481528185206001600160a01b039093168086529290528084205460ff161561109a578380f35b828452836020528084208285526020528320600160ff1982541617905533917f2f8788117e7eff1d82e926ec794901d17c78024a50270940304540a733656f0d8480a43880808380f35b9050346102cc5760203660031901126102cc57816020936001923581528085522001549051908152f35b8491346102cc5760203660031901126102cc573563ffffffff60e01b81168091036102cc5760209250637965db0b60e01b8114908115611150575b5015158152f35b6301ffc9a760e01b14905083611149565b602435906001600160a01b038216820361117757565b600080fd5b600435906001600160a01b038216820361117757565b6080810190811067ffffffffffffffff8211176111ae57604052565b634e487b7160e01b600052604160045260246000fd5b90601f8019910116810190811067ffffffffffffffff8211176111ae57604052565b67ffffffffffffffff81116111ae57601f01601f191660200190565b81601f8201121561117757803590611219826111e6565b9261122760405194856111c4565b8284526020838301011161117757816000926020809301838601378301015290565b90815180825260208080930193019160005b828110611269575050505090565b83516001600160a01b03168552938101939281019260010161125b565b3360009081527f7d7ffb7a348e1c6a02869081a26547b49160dd3df72d1d75a570eb9b698292ec602090815260408083205490927fa49807205ce4d355092ef5a8a18f56e8913cf4a201fbe287825b095693c217759160ff16156112ea5750505050565b6112f333611684565b9184519061130082611192565b6042825284820192606036853782511561146057603084538251906001918210156114605790607860218501536041915b8183116113f2575050506113b05760486102aa93869361139493611385985198899376020b1b1b2b9b9a1b7b73a3937b61d1030b1b1b7bab73a1604d1b8a860152610def815180928c60378901910161157e565b010360288101875201856111c4565b5192839262461bcd60e51b8452600484015260248301906115a1565b60648486519062461bcd60e51b825280600483015260248201527f537472696e67733a20686578206c656e67746820696e73756666696369656e746044820152fd5b909192600f8116601081101561144c576f181899199a1a9b1b9c1cb0b131b232b360811b901a611422858761165d565b5360041c92801561143857600019019190611331565b634e487b7160e01b82526011600452602482fd5b634e487b7160e01b83526032600452602483fd5b634e487b7160e01b81526032600452602490fd5b600090808252602090828252604092838120338252835260ff84822054161561149d5750505050565b6114a633611684565b918451906114b382611192565b6042825284820192606036853782511561146057603084538251906001918210156114605790607860218501536041915b818311611538575050506113b05760486102aa93869361139493611385985198899376020b1b1b2b9b9a1b7b73a3937b61d1030b1b1b7bab73a1604d1b8a860152610def815180928c60378901910161157e565b909192600f8116601081101561144c576f181899199a1a9b1b9c1cb0b131b232b360811b901a611568858761165d565b5360041c928015611438576000190191906114e4565b60005b8381106115915750506000910152565b8181015183820152602001611581565b906020916115ba8151809281855285808601910161157e565b601f01601f1916010190565b9060009180835282602052604083209160018060a01b03169182845260205260ff6040842054166115f657505050565b80835282602052604083208284526020526040832060ff1981541690557ff6391f5c32d9c69d2a47ea670b442974b53935d1edc7fd64eb21e047a839171b339380a4565b9190820180921161164757565b634e487b7160e01b600052601160045260246000fd5b90815181101561166e570160200190565b634e487b7160e01b600052603260045260246000fd5b604051906060820182811067ffffffffffffffff8211176111ae57604052602a825260208201604036823782511561166e5760309053815160019081101561166e57607860218401536029905b8082116117255750506116e15790565b606460405162461bcd60e51b815260206004820152602060248201527f537472696e67733a20686578206c656e67746820696e73756666696369656e746044820152fd5b9091600f8116601081101561177e576f181899199a1a9b1b9c1cb0b131b232b360811b901a611754848661165d565b5360041c9180156117695760001901906116d1565b60246000634e487b7160e01b81526011600452fd5b60246000634e487b7160e01b81526032600452fd5b60045481101561166e5760046000527f8a35acfbc15ff81a39ae7d344fd709f28e8600b4aa8c65c6b64bfe7fe36bd19b0190600090565b60001981146116475760010190565b9190820391821161164757565b9392916118039060409286526060602087015260608601906115a1565b930152565b60ff6002541661181457565b60405162461bcd60e51b815260206004820152601060248201526f14185d5cd8589b194e881c185d5cd95960821b6044820152606490fd5b60026001541461185d576002600155565b60405162461bcd60e51b815260206004820152601f60248201527f5265656e7472616e637947756172643a207265656e7472616e742063616c6c006044820152606490fd5b60018060a01b031690604051604081019080821067ffffffffffffffff8311176111ae57611932916040526020938482527f5361666545524332303a206c6f772d6c6576656c2063616c6c206661696c6564858301526000808587829751910182855af13d156119c8573d91611917836111e6565b9261192560405194856111c4565b83523d868885013e6119cc565b8051918215918483156119a4575b50505090501561194d5750565b6084906040519062461bcd60e51b82526004820152602a60248201527f5361666545524332303a204552433230206f7065726174696f6e20646964206e6044820152691bdd081cdd58d8d9595960b21b6064820152fd5b9193818094500103126101845782015190811515820361052d575080388084611940565b6060915b91929015611a2e57508151156119e0575090565b3b156119e95790565b60405162461bcd60e51b815260206004820152601d60248201527f416464726573733a2063616c6c20746f206e6f6e2d636f6e74726163740000006044820152606490fd5b825190915015611a415750805190602001fd5b60405162461bcd60e51b8152602060048201529081906102aa9060248301906115a1565b60405163a9059cbb60e01b60208201526001600160a01b039092166024830152604480830193909352918152608081019167ffffffffffffffff8311828410176111ae57611ab5926040526118a2565b565b60405190600454808352826020918282019060046000527f8a35acfbc15ff81a39ae7d344fd709f28e8600b4aa8c65c6b64bfe7fe36bd19b936000905b828210611b0a57505050611ab5925003836111c4565b85546001600160a01b031684526001958601958895509381019390910190611af4565b60018060a01b0380911691600091838352600860205260408320911690818352602052620151804204604083205403611b785760409282526007602052828220908252602052205490565b50905090565b60018060a01b039283831691600094838652600660205260409586812054948515611c4557879282941680835260086020528383208284526020526201518042048484205414611c28575b5050505082611bd8838361163a565b11611be4575050505050565b6102aa9291611bf29161163a565b93516384bb52cf60e01b81526001600160a01b039093166004840152602483019390935260448201929092529081906064820190565b825260076020908152838320918352522054905084388080611bc9565b5050505050505050565b67ffffffffffffffff81116111ae5760051b60200190565b805182101561166e5760209160051b01019056fea26469706673582212202d5e59bcbe3c21efa3186766c31045f994f34489066dcf6164b0e0d4c0eb159564736f6c634300081400332f8788117e7eff1d82e926ec794901d17c78024a50270940304540a733656f0da2646970667358221220ab1a9a1434be872606ce5dbbe009e8b590706e1a96082a764f0f222fb1bae11164736f6c634300081400332f8788117e7eff1d82e926ec794901d17c78024a50270940304540a733656f0d",
  "linkReferences": {},
  "deployedLinkReferences": {}
}