{
  "_format": "hh-sol-artifact-1",
  "contractName": "Control",
  "sourceName": "contracts/modules/Control/Control.sol",
  "abi": [
    {
      "inputs": [
        {
          "internalType": "address",
          "name": "_gameToken",
          "type": "address"
        },
        {
          "internalType": "address",
          "name": "_gameStaking",
          "type": "address"
        }
      ],
      "stateMutability": "nonpayable",
      "type": "constructor"
    },
    {
      "inputs": [],
      "name": "InvalidRegistryAddress",
      "type": "error"
    },
    {
      "inputs": [],
      "name": "ModuleAlreadyInitialized",
      "type": "error"
    },
    {
      "inputs": [],
      "name": "ModuleNotInitialized",
      "type": "error"
    },
    {
      "inputs": [],
      "name": "OnlyRegistry",
      "type": "error"
    },
    {
      "anonymous": false,
      "inputs": [
        {
          "indexed": true,
          "internalType": "bytes8",
          "name": "organizationId",
          "type": "bytes8"
        },
        {
          "indexed": true,
          "internalType": "address",
          "name": "member",
          "type": "address"
        },
        {
          "indexed": false,
          "internalType": "uint256",
          "name": "timestamp",
          "type": "uint256"
        }
      ],
      "name": "MemberAdded",
      "type": "event"
    },
    {
      "anonymous": false,
      "inputs": [
        {
          "indexed": true,
          "internalType": "bytes8",
          "name": "organizationId",
          "type": "bytes8"
        },
        {
          "indexed": true,
          "internalType": "address",
          "name": "member",
          "type": "address"
        },
        {
          "indexed": false,
          "internalType": "uint256",
          "name": "timestamp",
          "type": "uint256"
        }
      ],
      "name": "MemberRemoved",
      "type": "event"
    },
    {
      "anonymous": false,
      "inputs": [
        {
          "indexed": true,
          "internalType": "bytes8",
          "name": "organizationId",
          "type": "bytes8"
        },
        {
          "indexed": true,
          "internalType": "address",
          "name": "member",
          "type": "address"
        },
        {
          "indexed": false,
          "internalType": "enum IControl.MemberState",
          "name": "oldState",
          "type": "uint8"
        },
        {
          "indexed": false,
          "internalType": "enum IControl.MemberState",
          "name": "newState",
          "type": "uint8"
        },
        {
          "indexed": false,
          "internalType": "uint256",
          "name": "timestamp",
          "type": "uint256"
        }
      ],
      "name": "MemberStateChanged",
      "type": "event"
    },
    {
      "anonymous": false,
      "inputs": [],
      "name": "ModuleDisabled",
      "type": "event"
    },
    {
      "anonymous": false,
      "inputs": [],
      "name": "ModuleEnabled",
      "type": "event"
    },
    {
      "anonymous": false,
      "inputs": [
        {
          "indexed": true,
          "internalType": "address",
          "name": "registry",
          "type": "address"
        }
      ],
      "name": "ModuleInitialized",
      "type": "event"
    },
    {
      "anonymous": false,
      "inputs": [
        {
          "indexed": true,
          "internalType": "bytes8",
          "name": "id",
          "type": "bytes8"
        },
        {
          "indexed": false,
          "internalType": "string",
          "name": "name",
          "type": "string"
        },
        {
          "indexed": true,
          "internalType": "address",
          "name": "creator",
          "type": "address"
        },
        {
          "indexed": true,
          "internalType": "address",
          "name": "treasury",
          "type": "address"
        },
        {
          "indexed": false,
          "internalType": "uint256",
          "name": "timestamp",
          "type": "uint256"
        }
      ],
      "name": "OrganizationCreated",
      "type": "event"
    },
    {
      "anonymous": false,
      "inputs": [
        {
          "indexed": true,
          "internalType": "bytes8",
          "name": "id",
          "type": "bytes8"
        },
        {
          "indexed": false,
          "internalType": "enum IControl.OrgState",
          "name": "oldState",
          "type": "uint8"
        },
        {
          "indexed": false,
          "internalType": "enum IControl.OrgState",
          "name": "newState",
          "type": "uint8"
        },
        {
          "indexed": false,
          "internalType": "uint256",
          "name": "timestamp",
          "type": "uint256"
        }
      ],
      "name": "OrganizationStateChanged",
      "type": "event"
    },
    {
      "anonymous": false,
      "inputs": [
        {
          "indexed": false,
          "internalType": "address",
          "name": "account",
          "type": "address"
        }
      ],
      "name": "Paused",
      "type": "event"
    },
    {
      "anonymous": false,
      "inputs": [
        {
          "indexed": true,
          "internalType": "bytes32",
          "name": "role",
          "type": "bytes32"
        },
        {
          "indexed": true,
          "internalType": "bytes32",
          "name": "previousAdminRole",
          "type": "bytes32"
        },
        {
          "indexed": true,
          "internalType": "bytes32",
          "name": "newAdminRole",
          "type": "bytes32"
        }
      ],
      "name": "RoleAdminChanged",
      "type": "event"
    },
    {
      "anonymous": false,
      "inputs": [
        {
          "indexed": true,
          "internalType": "bytes32",
          "name": "role",
          "type": "bytes32"
        },
        {
          "indexed": true,
          "internalType": "address",
          "name": "account",
          "type": "address"
        },
        {
          "indexed": true,
          "internalType": "address",
          "name": "sender",
          "type": "address"
        }
      ],
      "name": "RoleGranted",
      "type": "event"
    },
    {
      "anonymous": false,
      "inputs": [
        {
          "indexed": true,
          "internalType": "bytes32",
          "name": "role",
          "type": "bytes32"
        },
        {
          "indexed": true,
          "internalType": "address",
          "name": "account",
          "type": "address"
        },
        {
          "indexed": true,
          "internalType": "address",
          "name": "sender",
          "type": "address"
        }
      ],
      "name": "RoleRevoked",
      "type": "event"
    },
    {
      "anonymous": false,
      "inputs": [
        {
          "indexed": true,
          "internalType": "bytes8",
          "name": "organizationId",
          "type": "bytes8"
        },
        {
          "indexed": true,
          "internalType": "address",
          "name": "staker",
          "type": "address"
        },
        {
          "indexed": false,
          "internalType": "uint256",
          "name": "amount",
          "type": "uint256"
        },
        {
          "indexed": false,
          "internalType": "uint256",
          "name": "timestamp",
          "type": "uint256"
        }
      ],
      "name": "StakeWithdrawn",
      "type": "event"
    },
    {
      "anonymous": false,
      "inputs": [
        {
          "indexed": false,
          "internalType": "address",
          "name": "account",
          "type": "address"
        }
      ],
      "name": "Unpaused",
      "type": "event"
    },
    {
      "inputs": [],
      "name": "ADMIN_ROLE",
      "outputs": [
        {
          "internalType": "bytes32",
          "name": "",
          "type": "bytes32"
        }
      ],
      "stateMutability": "view",
      "type": "function"
    },
    {
      "inputs": [],
      "name": "DEFAULT_ADMIN_ROLE",
      "outputs": [
        {
          "internalType": "bytes32",
          "name": "",
          "type": "bytes32"
        }
      ],
      "stateMutability": "view",
      "type": "function"
    },
    {
      "inputs": [],
      "name": "MAX_MEMBER_LIMIT",
      "outputs": [
        {
          "internalType": "uint256",
          "name": "",
          "type": "uint256"
        }
      ],
      "stateMutability": "view",
      "type": "function"
    },
    {
      "inputs": [],
      "name": "MIN_MEMBER_LIMIT",
      "outputs": [
        {
          "internalType": "uint256",
          "name": "",
          "type": "uint256"
        }
      ],
      "stateMutability": "view",
      "type": "function"
    },
    {
      "inputs": [],
      "name": "MIN_STAKE_AMOUNT",
      "outputs": [
        {
          "internalType": "uint256",
          "name": "",
          "type": "uint256"
        }
      ],
      "stateMutability": "view",
      "type": "function"
    },
    {
      "inputs": [],
      "name": "MODULE_ID",
      "outputs": [
        {
          "internalType": "bytes32",
          "name": "",
          "type": "bytes32"
        }
      ],
      "stateMutability": "view",
      "type": "function"
    },
    {
      "inputs": [],
      "name": "OPERATOR_ROLE",
      "outputs": [
        {
          "internalType": "bytes32",
          "name": "",
          "type": "bytes32"
        }
      ],
      "stateMutability": "view",
      "type": "function"
    },
    {
      "inputs": [
        {
          "internalType": "bytes8",
          "name": "organizationId",
          "type": "bytes8"
        },
        {
          "internalType": "address",
          "name": "member",
          "type": "address"
        }
      ],
      "name": "addMember",
      "outputs": [],
      "stateMutability": "nonpayable",
      "type": "function"
    },
    {
      "inputs": [
        {
          "internalType": "bytes8",
          "name": "organizationId",
          "type": "bytes8"
        }
      ],
      "name": "canWithdrawStake",
      "outputs": [
        {
          "internalType": "bool",
          "name": "",
          "type": "bool"
        }
      ],
      "stateMutability": "view",
      "type": "function"
    },
    {
      "inputs": [
        {
          "internalType": "string",
          "name": "name",
          "type": "string"
        },
        {
          "internalType": "string",
          "name": "metadataURI",
          "type": "string"
        },
        {
          "internalType": "enum IControl.OrgType",
          "name": "orgType",
          "type": "uint8"
        },
        {
          "internalType": "enum IControl.AccessModel",
          "name": "accessModel",
          "type": "uint8"
        },
        {
          "internalType": "enum IControl.FeeModel",
          "name": "feeModel",
          "type": "uint8"
        },
        {
          "internalType": "uint256",
          "name": "memberLimit",
          "type": "uint256"
        },
        {
          "internalType": "uint256",
          "name": "membershipFee",
          "type": "uint256"
        },
        {
          "internalType": "uint256",
          "name": "gameStakeRequired",
          "type": "uint256"
        }
      ],
      "name": "createOrganization",
      "outputs": [
        {
          "internalType": "bytes8",
          "name": "",
          "type": "bytes8"
        }
      ],
      "stateMutability": "nonpayable",
      "type": "function"
    },
    {
      "inputs": [],
      "name": "emergencyPause",
      "outputs": [],
      "stateMutability": "nonpayable",
      "type": "function"
    },
    {
      "inputs": [],
      "name": "emergencyUnpause",
      "outputs": [],
      "stateMutability": "nonpayable",
      "type": "function"
    },
    {
      "inputs": [],
      "name": "gameStaking",
      "outputs": [
        {
          "internalType": "contract IGameStaking",
          "name": "",
          "type": "address"
        }
      ],
      "stateMutability": "view",
      "type": "function"
    },
    {
      "inputs": [],
      "name": "gameToken",
      "outputs": [
        {
          "internalType": "contract IERC20",
          "name": "",
          "type": "address"
        }
      ],
      "stateMutability": "view",
      "type": "function"
    },
    {
      "inputs": [],
      "name": "getAllOrganizations",
      "outputs": [
        {
          "components": [
            {
              "internalType": "bytes8",
              "name": "id",
              "type": "bytes8"
            },
            {
              "internalType": "string",
              "name": "name",
              "type": "string"
            },
            {
              "internalType": "string",
              "name": "metadataURI",
              "type": "string"
            },
            {
              "internalType": "address",
              "name": "creator",
              "type": "address"
            },
            {
              "internalType": "address",
              "name": "treasury",
              "type": "address"
            },
            {
              "internalType": "enum IControl.OrgType",
              "name": "orgType",
              "type": "uint8"
            },
            {
              "internalType": "enum IControl.AccessModel",
              "name": "accessModel",
              "type": "uint8"
            },
            {
              "internalType": "enum IControl.FeeModel",
              "name": "feeModel",
              "type": "uint8"
            },
            {
              "internalType": "uint256",
              "name": "memberLimit",
              "type": "uint256"
            },
            {
              "internalType": "uint256",
              "name": "memberCount",
              "type": "uint256"
            },
            {
              "internalType": "uint256",
              "name": "totalCampaigns",
              "type": "uint256"
            },
            {
              "internalType": "uint256",
              "name": "totalProposals",
              "type": "uint256"
            },
            {
              "internalType": "uint256",
              "name": "membershipFee",
              "type": "uint256"
            },
            {
              "internalType": "uint256",
              "name": "gameStakeRequired",
              "type": "uint256"
            },
            {
              "internalType": "enum IControl.OrgState",
              "name": "state",
              "type": "uint8"
            },
            {
              "internalType": "uint256",
              "name": "createdAt",
              "type": "uint256"
            },
            {
              "internalType": "uint256",
              "name": "updatedAt",
              "type": "uint256"
            }
          ],
          "internalType": "struct IControl.Organization[]",
          "name": "",
          "type": "tuple[]"
        }
      ],
      "stateMutability": "view",
      "type": "function"
    },
    {
      "inputs": [
        {
          "internalType": "bytes8",
          "name": "organizationId",
          "type": "bytes8"
        },
        {
          "internalType": "address",
          "name": "member",
          "type": "address"
        }
      ],
      "name": "getMember",
      "outputs": [
        {
          "components": [
            {
              "internalType": "address",
              "name": "account",
              "type": "address"
            },
            {
              "internalType": "enum IControl.MemberState",
              "name": "state",
              "type": "uint8"
            },
            {
              "internalType": "uint256",
              "name": "joinedAt",
              "type": "uint256"
            },
            {
              "internalType": "uint256",
              "name": "reputation",
              "type": "uint256"
            },
            {
              "internalType": "uint256",
              "name": "stake",
              "type": "uint256"
            }
          ],
          "internalType": "struct IControl.Member",
          "name": "",
          "type": "tuple"
        }
      ],
      "stateMutability": "view",
      "type": "function"
    },
    {
      "inputs": [
        {
          "internalType": "bytes8",
          "name": "organizationId",
          "type": "bytes8"
        }
      ],
      "name": "getMemberCount",
      "outputs": [
        {
          "internalType": "uint256",
          "name": "",
          "type": "uint256"
        }
      ],
      "stateMutability": "view",
      "type": "function"
    },
    {
      "inputs": [
        {
          "internalType": "bytes8",
          "name": "organizationId",
          "type": "bytes8"
        }
      ],
      "name": "getMembers",
      "outputs": [
        {
          "internalType": "address[]",
          "name": "",
          "type": "address[]"
        }
      ],
      "stateMutability": "view",
      "type": "function"
    },
    {
      "inputs": [
        {
          "internalType": "bytes8",
          "name": "id",
          "type": "bytes8"
        }
      ],
      "name": "getOrganization",
      "outputs": [
        {
          "components": [
            {
              "internalType": "bytes8",
              "name": "id",
              "type": "bytes8"
            },
            {
              "internalType": "string",
              "name": "name",
              "type": "string"
            },
            {
              "internalType": "string",
              "name": "metadataURI",
              "type": "string"
            },
            {
              "internalType": "address",
              "name": "creator",
              "type": "address"
            },
            {
              "internalType": "address",
              "name": "treasury",
              "type": "address"
            },
            {
              "internalType": "enum IControl.OrgType",
              "name": "orgType",
              "type": "uint8"
            },
            {
              "internalType": "enum IControl.AccessModel",
              "name": "accessModel",
              "type": "uint8"
            },
            {
              "internalType": "enum IControl.FeeModel",
              "name": "feeModel",
              "type": "uint8"
            },
            {
              "internalType": "uint256",
              "name": "memberLimit",
              "type": "uint256"
            },
            {
              "internalType": "uint256",
              "name": "memberCount",
              "type": "uint256"
            },
            {
              "internalType": "uint256",
              "name": "totalCampaigns",
              "type": "uint256"
            },
            {
              "internalType": "uint256",
              "name": "totalProposals",
              "type": "uint256"
            },
            {
              "internalType": "uint256",
              "name": "membershipFee",
              "type": "uint256"
            },
            {
              "internalType": "uint256",
              "name": "gameStakeRequired",
              "type": "uint256"
            },
            {
              "internalType": "enum IControl.OrgState",
              "name": "state",
              "type": "uint8"
            },
            {
              "internalType": "uint256",
              "name": "createdAt",
              "type": "uint256"
            },
            {
              "internalType": "uint256",
              "name": "updatedAt",
              "type": "uint256"
            }
          ],
          "internalType": "struct IControl.Organization",
          "name": "",
          "type": "tuple"
        }
      ],
      "stateMutability": "view",
      "type": "function"
    },
    {
      "inputs": [],
      "name": "getOrganizationCount",
      "outputs": [
        {
          "internalType": "uint256",
          "name": "",
          "type": "uint256"
        }
      ],
      "stateMutability": "view",
      "type": "function"
    },
    {
      "inputs": [
        {
          "internalType": "bytes8",
          "name": "organizationId",
          "type": "bytes8"
        }
      ],
      "name": "getOrganizationStake",
      "outputs": [
        {
          "components": [
            {
              "internalType": "bytes8",
              "name": "organizationId",
              "type": "bytes8"
            },
            {
              "internalType": "address",
              "name": "staker",
              "type": "address"
            },
            {
              "internalType": "uint256",
              "name": "amount",
              "type": "uint256"
            },
            {
              "internalType": "uint256",
              "name": "stakedAt",
              "type": "uint256"
            },
            {
              "internalType": "bool",
              "name": "active",
              "type": "bool"
            }
          ],
          "internalType": "struct IGameStaking.OrganizationStake",
          "name": "",
          "type": "tuple"
        }
      ],
      "stateMutability": "view",
      "type": "function"
    },
    {
      "inputs": [
        {
          "internalType": "enum IControl.OrgState",
          "name": "state",
          "type": "uint8"
        }
      ],
      "name": "getOrganizationsByState",
      "outputs": [
        {
          "components": [
            {
              "internalType": "bytes8",
              "name": "id",
              "type": "bytes8"
            },
            {
              "internalType": "string",
              "name": "name",
              "type": "string"
            },
            {
              "internalType": "string",
              "name": "metadataURI",
              "type": "string"
            },
            {
              "internalType": "address",
              "name": "creator",
              "type": "address"
            },
            {
              "internalType": "address",
              "name": "treasury",
              "type": "address"
            },
            {
              "internalType": "enum IControl.OrgType",
              "name": "orgType",
              "type": "uint8"
            },
            {
              "internalType": "enum IControl.AccessModel",
              "name": "accessModel",
              "type": "uint8"
            },
            {
              "internalType": "enum IControl.FeeModel",
              "name": "feeModel",
              "type": "uint8"
            },
            {
              "internalType": "uint256",
              "name": "memberLimit",
              "type": "uint256"
            },
            {
              "internalType": "uint256",
              "name": "memberCount",
              "type": "uint256"
            },
            {
              "internalType": "uint256",
              "name": "totalCampaigns",
              "type": "uint256"
            },
            {
              "internalType": "uint256",
              "name": "totalProposals",
              "type": "uint256"
            },
            {
              "internalType": "uint256",
              "name": "membershipFee",
              "type": "uint256"
            },
            {
              "internalType": "uint256",
              "name": "gameStakeRequired",
              "type": "uint256"
            },
            {
              "internalType": "enum IControl.OrgState",
              "name": "state",
              "type": "uint8"
            },
            {
              "internalType": "uint256",
              "name": "createdAt",
              "type": "uint256"
            },
            {
              "internalType": "uint256",
              "name": "updatedAt",
              "type": "uint256"
            }
          ],
          "internalType": "struct IControl.Organization[]",
          "name": "",
          "type": "tuple[]"
        }
      ],
      "stateMutability": "view",
      "type": "function"
    },
    {
      "inputs": [
        {
          "internalType": "bytes32",
          "name": "role",
          "type": "bytes32"
        }
      ],
      "name": "getRoleAdmin",
      "outputs": [
        {
          "internalType": "bytes32",
          "name": "",
          "type": "bytes32"
        }
      ],
      "stateMutability": "view",
      "type": "function"
    },
    {
      "inputs": [
        {
          "internalType": "bytes32",
          "name": "role",
          "type": "bytes32"
        },
        {
          "internalType": "address",
          "name": "account",
          "type": "address"
        }
      ],
      "name": "grantRole",
      "outputs": [],
      "stateMutability": "nonpayable",
      "type": "function"
    },
    {
      "inputs": [
        {
          "internalType": "bytes32",
          "name": "role",
          "type": "bytes32"
        },
        {
          "internalType": "address",
          "name": "account",
          "type": "address"
        }
      ],
      "name": "hasRole",
      "outputs": [
        {
          "internalType": "bool",
          "name": "",
          "type": "bool"
        }
      ],
      "stateMutability": "view",
      "type": "function"
    },
    {
      "inputs": [
        {
          "internalType": "address",
          "name": "registryAddress",
          "type": "address"
        }
      ],
      "name": "initialize",
      "outputs": [],
      "stateMutability": "nonpayable",
      "type": "function"
    },
    {
      "inputs": [],
      "name": "isInitialized",
      "outputs": [
        {
          "internalType": "bool",
          "name": "",
          "type": "bool"
        }
      ],
      "stateMutability": "view",
      "type": "function"
    },
    {
      "inputs": [
        {
          "internalType": "bytes8",
          "name": "organizationId",
          "type": "bytes8"
        },
        {
          "internalType": "address",
          "name": "member",
          "type": "address"
        }
      ],
      "name": "isMember",
      "outputs": [
        {
          "internalType": "bool",
          "name": "",
          "type": "bool"
        }
      ],
      "stateMutability": "view",
      "type": "function"
    },
    {
      "inputs": [
        {
          "internalType": "bytes8",
          "name": "organizationId",
          "type": "bytes8"
        },
        {
          "internalType": "address",
          "name": "member",
          "type": "address"
        }
      ],
      "name": "isMemberActive",
      "outputs": [
        {
          "internalType": "bool",
          "name": "",
          "type": "bool"
        }
      ],
      "stateMutability": "view",
      "type": "function"
    },
    {
      "inputs": [
        {
          "internalType": "bytes8",
          "name": "organizationId",
          "type": "bytes8"
        }
      ],
      "name": "isOrganizationActive",
      "outputs": [
        {
          "internalType": "bool",
          "name": "",
          "type": "bool"
        }
      ],
      "stateMutability": "view",
      "type": "function"
    },
    {
      "inputs": [],
      "name": "moduleId",
      "outputs": [
        {
          "internalType": "bytes32",
          "name": "",
          "type": "bytes32"
        }
      ],
      "stateMutability": "pure",
      "type": "function"
    },
    {
      "inputs": [],
      "name": "onModuleDisabled",
      "outputs": [],
      "stateMutability": "nonpayable",
      "type": "function"
    },
    {
      "inputs": [],
      "name": "onModuleEnabled",
      "outputs": [],
      "stateMutability": "nonpayable",
      "type": "function"
    },
    {
      "inputs": [],
      "name": "pause",
      "outputs": [],
      "stateMutability": "nonpayable",
      "type": "function"
    },
    {
      "inputs": [],
      "name": "paused",
      "outputs": [
        {
          "internalType": "bool",
          "name": "",
          "type": "bool"
        }
      ],
      "stateMutability": "view",
      "type": "function"
    },
    {
      "inputs": [],
      "name": "registry",
      "outputs": [
        {
          "internalType": "address",
          "name": "",
          "type": "address"
        }
      ],
      "stateMutability": "view",
      "type": "function"
    },
    {
      "inputs": [
        {
          "internalType": "bytes8",
          "name": "organizationId",
          "type": "bytes8"
        },
        {
          "internalType": "address",
          "name": "member",
          "type": "address"
        }
      ],
      "name": "removeMember",
      "outputs": [],
      "stateMutability": "nonpayable",
      "type": "function"
    },
    {
      "inputs": [
        {
          "internalType": "bytes32",
          "name": "role",
          "type": "bytes32"
        },
        {
          "internalType": "address",
          "name": "account",
          "type": "address"
        }
      ],
      "name": "renounceRole",
      "outputs": [],
      "stateMutability": "nonpayable",
      "type": "function"
    },
    {
      "inputs": [
        {
          "internalType": "bytes32",
          "name": "role",
          "type": "bytes32"
        },
        {
          "internalType": "address",
          "name": "account",
          "type": "address"
        }
      ],
      "name": "revokeRole",
      "outputs": [],
      "stateMutability": "nonpayable",
      "type": "function"
    },
    {
      "inputs": [
        {
          "internalType": "bytes4",
          "name": "interfaceId",
          "type": "bytes4"
        }
      ],
      "name": "supportsInterface",
      "outputs": [
        {
          "internalType": "bool",
          "name": "",
          "type": "bool"
        }
      ],
      "stateMutability": "view",
      "type": "function"
    },
    {
      "inputs": [],
      "name": "unpause",
      "outputs": [],
      "stateMutability": "nonpayable",
      "type": "function"
    },
    {
      "inputs": [
        {
          "internalType": "bytes8",
          "name": "organizationId",
          "type": "bytes8"
        },
        {
          "internalType": "address",
          "name": "member",
          "type": "address"
        },
        {
          "internalType": "enum IControl.MemberState",
          "name": "state",
          "type": "uint8"
        }
      ],
      "name": "updateMemberState",
      "outputs": [],
      "stateMutability": "nonpayable",
      "type": "function"
    },
    {
      "inputs": [
        {
          "internalType": "bytes8",
          "name": "organizationId",
          "type": "bytes8"
        },
        {
          "internalType": "enum IControl.OrgState",
          "name": "state",
          "type": "uint8"
        }
      ],
      "name": "updateOrganizationState",
      "outputs": [],
      "stateMutability": "nonpayable",
      "type": "function"
    },
    {
      "inputs": [],
      "name": "version",
      "outputs": [
        {
          "internalType": "string",
          "name": "",
          "type": "string"
        }
      ],
      "stateMutability": "view",
      "type": "function"
    },
    {
      "inputs": [
        {
          "internalType": "bytes8",
          "name": "organizationId",
          "type": "bytes8"
        }
      ],
      "name": "withdrawStake",
      "outputs": [],
      "stateMutability": "nonpayable",
      "type": "function"
    }
  ],
  "bytecode": "0x608034620002dd576200632d906001600160401b03601f38849003908101601f191683019082821184831017620002c75780849160409687948552833981010312620002dd576200005082620002e2565b6200005f6020809401620002e2565b9184518581019181831090831117620002c75784918652600581520190640312e302e360dc1b825260ff196001908082541682558160025560049384548381811c91168015620002bc575b88821014620002a757601f811162000276575b50516001600160d81b031916600a178455600080805280875287812033825287528790205460ff16156200023b575b7fa49807205ce4d355092ef5a8a18f56e8913cf4a201fbe287825b095693c217759182600052600087528760002033600052875260ff88600020541615620001fd575b5050506001600160a01b03908116928315620001ba57169283156200017857505060018060a01b03199081600b541617600b55600c541617600c55516160159081620002f88239f35b845162461bcd60e51b815291820152601c60248201527f496e76616c69642067616d65207374616b696e67206164647265737300000000604482015260649150fd5b855162461bcd60e51b8152808401869052601a60248201527f496e76616c69642067616d6520746f6b656e20616464726573730000000000006044820152606490fd5b8260005260008752876000203360005287528760002091825416179055339033906000805160206200630d833981519152600080a43880806200012f565b600080526000865286600020336000528652866000208282825416179055333360006000805160206200630d8339815191528180a4620000ec565b8560005283601f89600020920160051c8201915b8281106200029a575050620000bd565b600081550184906200028a565b602286634e487b7160e01b6000525260246000fd5b90607f1690620000aa565b634e487b7160e01b600052604160045260246000fd5b600080fd5b51906001600160a01b0382168203620002dd5756fe608060405260043610156200001357600080fd5b60003560e01c806301ffc9a7146200033b578063086ed93814620003355780632271035a146200032f578063248a9ca3146200032957806327ed718814620003235780632f2ff15d146200031d57806336568abe1462000317578063379aab331462000311578063392e53cd146200030b5780633f4ba83a1462000305578063426d869514620002ff57806344018cf014620002f95780634a01db7814620002f35780634a4e3bd514620002ed57806351858e2714620002e757806354fd4d5014620002e15780635734e5e314620002db5780635c975abb14620002d557806372a0e58f14620002cf57806375b238fc14620002c95780637b10399914620002c35780637cea57e614620002bd5780638456cb5914620002b7578063919f550f14620002b157806391d1485414620002ab57806398231cce14620002a5578063a1308f271462000245578063a217fddf146200029f578063a8947b851462000299578063aa7318aa1462000293578063b2073c68146200028d578063b24125501462000287578063b4ae840f1462000281578063b81fa5a4146200027b578063bb7835d61462000275578063c3dfdae6146200026f578063c4d66de81462000269578063d0a1aec41462000263578063d547741f146200025d578063e68ce6cd1462000257578063ebb7c76b1462000251578063ebf8a3e6146200024b578063ed2f21f51462000245578063f5b541a6146200023f5763f9e80a6a146200023957600080fd5b62001fce565b62001f91565b620012ce565b62001f36565b62001e37565b62001cce565b62001c84565b62001bce565b620019d5565b620019ac565b620018bc565b6200161b565b620015a1565b6200153c565b62001474565b62001419565b6200136f565b6200130b565b620012a5565b62001249565b62001133565b620010c4565b62000f46565b62000f12565b62000ed5565b62000eb6565b62000e91565b62000e71565b62000d7e565b62000cb0565b62000c2b565b62000bd3565b62000a3e565b62000933565b62000749565b62000721565b620006bf565b620005ff565b62000520565b620004e7565b620004b6565b62000498565b62000440565b3462000396576020366003190112620003965760043563ffffffff60e01b81168091036200039657602090637965db0b60e01b811490811562000384575b506040519015158152f35b6301ffc9a760e01b1490503862000379565b600080fd5b60009103126200039657565b60005b838110620003bb5750506000910152565b8181015183820152602001620003aa565b90602091620003e781518092818552858086019101620003a7565b601f01601f1916010190565b634e487b7160e01b600052602160045260246000fd5b600411156200041457565b620003f3565b90620004268262000409565b52565b600311156200041457565b90620004268262000429565b3462000396576000366003190112620003965760405162461bcd60e51b815260206004820152601d60248201527f55736520737562677261706820666f722062756c6b20717565726965730000006044820152606490fd5b34620003965760003660031901126200039657602060405160018152f35b3462000396576020366003190112620003965760043560005260006020526020600160406000200154604051908152f35b34620003965760003660031901126200039657602060405169021e19e0c9bab24000008152f35b6001600160a01b038116036200039657565b3462000396576040366003190112620003965760043560243562000544816200050e565b600091808352826020526200056060016040852001546200232b565b8083528260205260ff6200058a8360408620906001600160a01b0316600052602052604060002090565b54161562000596578280f35b80835282602052620005be8260408520906001600160a01b0316600052602052604060002090565b805460ff1916600117905533916001600160a01b0316907f2f8788117e7eff1d82e926ec794901d17c78024a50270940304540a733656f0d8480a438808280f35b3462000396576040366003190112620003965760243562000620816200050e565b336001600160a01b0382160362000641576200063f9060043562002542565b005b60405162461bcd60e51b815260206004820152602f60248201527f416363657373436f6e74726f6c3a2063616e206f6e6c792072656e6f756e636560448201527f20726f6c657320666f722073656c6600000000000000000000000000000000006064820152608490fd5b6001600160c01b03198116036200039657565b346200039657602036600319011262000396576001600160c01b0319600435620006e981620006ac565b168060005260076020526200070660ff6040600020541662003505565b60005260066020526020600660406000200154604051908152f35b34620003965760003660031901126200039657602060ff60035460a01c166040519015158152f35b346200039657600036600319011262000396576200076662002189565b60ff60035460a01c1615620007fa5760015460ff811615620007b55760ff19166001557f5db9ee0a495bf2e6ff9c91a7834c1ba4fdd244a5e8aa4e537bd38aeae4b073aa6020604051338152a1005b60405162461bcd60e51b815260206004820152601460248201527f5061757361626c653a206e6f74207061757365640000000000000000000000006044820152606490fd5b604051633165f6e960e21b8152600490fd5b60208152620008286020820183516001600160c01b0319169052565b6020820151620008626200084b61022092836040860152610240850190620003cc565b6040850151848203601f19016060860152620003cc565b60608401516001600160a01b031660808401529260808101516001600160a01b031660a08401526200089d60a082015160c08501906200041a565b620008b160c082015160e085019062000434565b60e0810151620008c8610100918286019062000434565b81015161012090818501528101516101409081850152810151610160908185015281015161018090818501528101516101a090818501528101516101c090818501528101516200091f6101e091828601906200041a565b810151906102009182850152015191015290565b3462000396576020366003190112620003965762000a3a62000a2d62000a276004356200096081620006ac565b6200096a62001b3f565b61020060009182815260606020820152606060408201528260608201528260808201528260a08201528260c08201528260e08201528261010082015282610120820152826101408201528261016082015282610180820152826101a0820152826101c0820152826101e0820152015262000a0d62000a0762000a00836001600160c01b0319166000526007602052604060002090565b5460ff1690565b62003505565b6001600160c01b0319166000526006602052604060002090565b62003e60565b604051918291826200080c565b0390f35b3462000396576020366003190112620003965760043562000a5f81620006ac565b6001600160c01b03198116600052600760205262000a8560ff6040600020541662003505565b62000ab2600b62000aaa836001600160c01b0319166000526006602052604060002090565b015460ff1690565b62000abd8162000409565b801590811562000b8f575b508062000add575b6040519015158152602090f35b50602062000b349162000b0862000afc600c546001600160a01b031690565b6001600160a01b031690565b604051808095819463114077eb60e11b8352600483019190916001600160c01b03196020820193169052565b03915afa801562000b895762000a3a9160009162000b54575b5062000ad0565b62000b7a915060203d811162000b81575b62000b71818362001b1c565b81019062002ec6565b3862000b4d565b503d62000b65565b62002e39565b6003915062000b9e8162000409565b143862000ac8565b6040906003190112620003965760043562000bc181620006ac565b9060243562000bd0816200050e565b90565b346200039657602062000c216001600160c01b031962000bf33662000ba6565b9116600052600a83526001600160a01b03604060002091169060019160005201602052604060002054151590565b6040519015158152f35b346200039657600036600319011262000396576003546001600160a01b038116330362000c9e5760a01c60ff1615620007fa5760015460ff811615620007b55760ff19166001557f5db9ee0a495bf2e6ff9c91a7834c1ba4fdd244a5e8aa4e537bd38aeae4b073aa6020604051338152a1005b6040516310f5403960e31b8152600490fd5b346200039657600036600319011262000396576003546001600160a01b038116330362000c9e5760a01c60ff1615620007fa5760015460ff811662000d265760019060ff1916176001557f62e78cea01bee320cd4e420270b5ea74000d11b0c9f74754ebdbfc544b05a2586020604051338152a1005b60405162461bcd60e51b815260206004820152601060248201527f5061757361626c653a20706175736564000000000000000000000000000000006044820152606490fd5b90602062000bd0928181520190620003cc565b34620003965760008060031936011262000e6e57604051908060045462000da5816200277f565b8085529160019180831690811562000e41575060011462000de1575b62000a3a8562000dd48187038262001b1c565b6040519182918262000d6b565b9250600483527f8a35acfbc15ff81a39ae7d344fd709f28e8600b4aa8c65c6b64bfe7fe36bd19b5b82841062000e2857505050810160200162000dd48262000a3a62000dc1565b8054602085870181019190915290930192810162000e09565b86955062000a3a9693506020925062000dd494915060ff191682840152151560051b820101929362000dc1565b80fd5b346200039657600036600319011262000396576020600854604051908152f35b34620003965760003660031901126200039657602060ff600154166040519015158152f35b3462000396576000366003190112620003965760206040516127108152f35b3462000396576000366003190112620003965760206040517fa49807205ce4d355092ef5a8a18f56e8913cf4a201fbe287825b095693c217758152f35b3462000396576000366003190112620003965760206001600160a01b0360035416604051908152f35b600311156200039657565b3462000396576060366003190112620003965760043562000f6781620006ac565b60243562000f75816200050e565b6044359162000f848362000f3b565b6001600160c01b03198116906000938285526007602052604085205460ff1662000fae9062003505565b8285526006602052806001600160a01b039485604088206003015416331462000fd79062003552565b848752600a602052604087209581169586620010029160019160005201602052604060002054151590565b6200100d9062003874565b84875260096020528060408820906200103891906001600160a01b0316600052602052604060002090565b5460a01c60ff16936200105f906001600160c01b0319166000526009602052604060002090565b906200107d91906001600160a01b0316600052602052604060002090565b90620010899162003a1a565b60405191829142906200109d928462003a2b565b037f5bea907d8fef23f4726b97b7590e86decc8054ea0ed855b971c5d83c54fbc40d91a380f35b34620003965760003660031901126200039657620010e162002189565b60ff60035460a01c1615620007fa5760015460ff811662000d265760019060ff1916176001557f62e78cea01bee320cd4e420270b5ea74000d11b0c9f74754ebdbfc544b05a2586020604051338152a1005b346200039657602036600319011262000396576001600160c01b03196004356200115d81620006ac565b6200116762003760565b50168060005260076020526200118560ff6040600020541662003505565b60a06001600160a01b03600c54169160246040518094819363919f550f60e01b835260048301525afa801562000b895762000a3a9160009162001214575b506040519182918291909160808060a08301946001600160c01b031981511684526001600160a01b036020820151166020850152604081015160408501526060810151606085015201511515910152565b6200123a915060a03d811162001241575b62001231818362001b1c565b8101906200365f565b38620011c3565b503d62001225565b34620003965760403660031901126200039657602060ff6200129960243562001272816200050e565b600435600052600084526040600020906001600160a01b0316600052602052604060002090565b54166040519015158152f35b3462000396576000366003190112620003965760206001600160a01b03600c5416604051908152f35b3462000396576000366003190112620003965760206040517fbdded29a54e6a5d6169bedea55373b06f57e35d7b0f67ac187565b435e2cc9438152f35b34620003965760003660031901126200039657602060405160008152f35b6020908160408183019282815285518094520193019160005b82811062001351575050505090565b83516001600160a01b03168552938101939281019260010162001342565b34620003965760208060031936011262000396576001600160c01b03196004356200139a81620006ac565b169060009180835260078252620013b860ff60408520541662003505565b8252600a815260408220916040518092808554928381520194835280832092905b828210620014015762000a3a85620013f48189038262001b1c565b6040519182918262001329565b835486529485019460019384019390910190620013d9565b34620003965760008060031936011262000e6e576003546001600160a01b038116330362000c9e5760a01c60ff1615620007fa577f6dff2fe8fbb5b23bf0583bf5b2157ff62ca7e27f2fb4f404914cd0c205ced5cc8180a180f35b34620003965760206001600160c01b0319620014903662000ba6565b911690816000526007835260ff60406000205416918262001508575b82620014bf575b50506040519015158152f35b6001925060ff91620014ef91600052600985526040600020906001600160a01b0316600052602052604060002090565b5460a01c16620014ff8162000429565b143880620014b3565b600a8452604060008181206001600160a01b0385168252600101602052205415159250620014ac565b600411156200039657565b346200039657602036600319011262000396576200155c60043562001531565b60405162461bcd60e51b815260206004820152601e60248201527f55736520737562677261706820666f72207374617465207175657269657300006044820152606490fd5b346200039657602036600319011262000396576001600160c01b0319600435620015cb81620006ac565b16600052600760205260ff6040600020541680620015f1575b6020906040519015158152f35b5060066020526020600160ff600b6040600020015416620016128162000409565b149050620015e4565b34620003965760208060031936011262000396576004356200163d81620006ac565b6001600160c01b03198116600092818452600781526040926200166660ff858720541662003505565b828552600682526001600160a01b03906200168b826003878920015416331462003552565b6200169562003351565b620016db620016be600b62000aaa846001600160c01b0319166000526006602052604060002090565b620016c98162000409565b8015908115620018a5575b506200359f565b620016f262000afc600c546001600160a01b031690565b855163114077eb60e11b81526001600160c01b0319831660048201529091908481602481865afa801562000b89576200173491899162001883575b5062003612565b855163919f550f60e01b81526001600160c01b0319821660048201529360a085602481865afa93841562000b89578895869562001857575b5090620017a8916200178b620017856080880151151590565b620036c7565b620017a033928701516001600160a01b031690565b161462003713565b813b15620018535785516305cc65b160e41b81526001600160c01b031991909116600482015233602482015292908390604490829084905af190811562000b89577fe2cc687e70745c9cdfaaf5120ae9faa0e449faded2d4cfd514a898353558ead492859262001835575b50015192519283524260208401523392604090a3620018326001600255565b80f35b80620018456200184c9262001ac7565b806200039b565b3862001813565b8380fd5b620017a8929195506200187a9060a03d8111620012415762001231818362001b1c565b9490916200176c565b6200189e9150863d881162000b815762000b71818362001b1c565b386200172d565b60039150620018b48162000409565b1438620016d4565b3462000396576040806003193601126200039657600435620018de81620006ac565b7f8b2f7f5316f93cf61dd91009d1753fa8655fdf96e3ed21b5acede8544f33603560606001600160c01b031960243593620019198562001531565b169260009484865260076020526200193760ff828820541662003505565b84865260066020526200195b6001600160a01b036003838920015416331462003552565b848652600660205280862091600b8301926200197d8260ff8654169562003116565b600d42910155815192620019918162000409565b83526200199e8162000409565b60208301524290820152a280f35b3462000396576000366003190112620003965760206001600160a01b03600b5416604051908152f35b34620003965760203660031901126200039657600435620019f6816200050e565b60035460ff8160a01c1662001a9f576001600160a01b03821691821562001a8d57826001600160a01b031962001a6693161760035562001a557401000000000000000000000000000000000000000060ff60a01b196003541617600355565b62001a608162002412565b620024e0565b7f27b541a16df0902e262f34789782092ab25125513b8ed73608e802951771b928600080a2005b604051637bfd2e8360e01b8152600490fd5b604051637396742f60e11b8152600490fd5b634e487b7160e01b600052604160045260246000fd5b67ffffffffffffffff811162001adc57604052565b62001ab1565b60a0810190811067ffffffffffffffff82111762001adc57604052565b6060810190811067ffffffffffffffff82111762001adc57604052565b90601f8019910116810190811067ffffffffffffffff82111762001adc57604052565b60405190610220820182811067ffffffffffffffff82111762001adc57604052565b6040519062001b708262001ae2565b565b81601f82011215620003965780359067ffffffffffffffff821162001adc576040519262001bab601f8401601f19166020018562001b1c565b828452602083830101116200039657816000926020809301838601378301015290565b346200039657610100366003190112620003965767ffffffffffffffff600435818111620003965762001c0690369060040162001b72565b90602435908111620003965762000a3a9162001c2b62001c6992369060040162001b72565b6044359162001c3a8362001531565b60643562001c488162000f3b565b6084359062001c578262000f3b565b60e4359460c4359460a435946200286c565b6040516001600160c01b031990911681529081906020820190565b346200039657604036600319011262000396576200063f60243560043562001cac826200050e565b80600052600060205262001cc86001604060002001546200232b565b62002542565b34620003965762001d6e62001ce33662000ba6565b6001600160c01b03198293921692600093808552600760205262001d0e60ff60408720541662003505565b62001d1862003351565b8452600660205260408420600481015460a81c60ff1662001d398162000429565b6002810362001d79575062001d6062000afc600362001d689301546001600160a01b031690565b3314620037da565b62003bc3565b620018326001600255565b6001915062001d888162000429565b0362003bc35762001d68600162001ddd62001dd362001dbb856001600160c01b0319166000526009602052604060002090565b336001600160a01b0316600052602052604060002090565b5460a01c60ff1690565b62001de88162000429565b146200378d565b91909160808060a08301946001600160a01b038151168452602081015162001e178162000429565b602085015260408101516040850152606081015160608501520151910152565b34620003965762000a3a6001600160c01b031962001e553662000ba6565b919062001e6162003760565b501690600362001ee6600092848452600760205260408462001e8a60ff83809820541662003505565b868152600a6020528181209662001ec662001ec06001600160a01b03998a87169060019160005201602052604060002054151590565b62003874565b8152600960205220906001600160a01b0316600052602052604060002090565b60ff83519462001ef68662001ae2565b8254908116865260a01c1662001f0c8162000429565b60208501526001810154838501526002810154606085015201546080830152519182918262001def565b34620003965760008060031936011262000e6e576003546001600160a01b038116330362000c9e5760a01c60ff1615620007fa577fa866f3901ec84758a10f30e8953c3818eef73da93dfa46cb6aa5b726fb65813f8180a180f35b3462000396576000366003190112620003965760206040517f97667070c54ef182b0f5858b034beac1b6f3089aa2d3188bb1e8929f4fa9b9298152f35b34620003965762001fdf3662000ba6565b906001600160c01b03198116908160005260076020526200200860ff6040600020541662003505565b6200201262003351565b62002110620020f884620020e06200203e856001600160c01b0319166000526006602052604060002090565b946200205862000afc60038801546001600160a01b031690565b3314801562002176575b6200206d9062003827565b6200209b62001ec08462002095846001600160c01b031916600052600a602052604060002090565b620039f6565b620020c583620020bf836001600160c01b031916600052600a602052604060002090565b620038c1565b506001600160c01b0319166000526009602052604060002090565b906001600160a01b0316600052602052604060002090565b60036000918281558260018201558260028201550155565b6006810162002120815462002692565b9055600d429101557f3c36fb00afdb12b7674df061e1b864449a906a133a15c7ef5a9d4aa999fd2cac6001600160a01b03604051931692806200216842829190602083019252565b0390a36200063f6001600255565b50336001600160a01b0384161462002062565b3360009081527f7d7ffb7a348e1c6a02869081a26547b49160dd3df72d1d75a570eb9b698292ec60205260409020547fa49807205ce4d355092ef5a8a18f56e8913cf4a201fbe287825b095693c217759060ff1615620021e65750565b620021f133620026f2565b620021fb6200261e565b916030620022098462002661565b53607862002217846200266f565b5360415b60018111620022de57620022da6048620022c185620022b288620022408815620026a6565b6040519485937f416363657373436f6e74726f6c3a206163636f756e7420000000000000000000602086015262002282815180926020603789019101620003a7565b84017f206973206d697373696e6720726f6c652000000000000000000000000000000060378201520190620023f9565b03601f19810183528262001b1c565b60405162461bcd60e51b81529182916004830162000d6b565b0390fd5b90600f811690601082101562002325576f181899199a1a9b1b9c1cb0b131b232b360811b6200231f921a62002314848762002680565b5360041c9162002692565b6200221b565b6200264b565b80600052600060205260ff62002358336040600020906001600160a01b0316600052602052604060002090565b541615620023635750565b6200236e33620026f2565b620023786200261e565b916030620023868462002661565b53607862002394846200266f565b5360415b60018111620023bd57620022da6048620022c185620022b288620022408815620026a6565b90600f811690601082101562002325576f181899199a1a9b1b9c1cb0b131b232b360811b620023f3921a62002314848762002680565b62002398565b906200240e60209282815194859201620003a7565b0190565b6001600160a01b03811660009081527f7d7ffb7a348e1c6a02869081a26547b49160dd3df72d1d75a570eb9b698292ec602052604081207fa49807205ce4d355092ef5a8a18f56e8913cf4a201fbe287825b095693c217759060ff905b5416156200247c57505050565b80825281602052620024a48360408420906001600160a01b0316600052602052604060002090565b600160ff198254161790557f2f8788117e7eff1d82e926ec794901d17c78024a50270940304540a733656f0d6001600160a01b033394169280a4565b6001600160a01b03811660009081527fee57cd81e84075558e8fcc182a1f4393f91fc97f963a136e66b7f949a62f319f602052604081207f97667070c54ef182b0f5858b034beac1b6f3089aa2d3188bb1e8929f4fa9b9299060ff906200246f565b6000908082528160205260ff6200256f8460408520906001600160a01b0316600052602052604060002090565b54166200257b57505050565b80825281602052620025a38360408420906001600160a01b0316600052602052604060002090565b60ff1981541690557ff6391f5c32d9c69d2a47ea670b442974b53935d1edc7fd64eb21e047a839171b6001600160a01b033394169280a4565b634e487b7160e01b600052601160045260246000fd5b604051906040820182811067ffffffffffffffff82111762001adc576040526008825260203681840137565b604051906080820182811067ffffffffffffffff82111762001adc57604052604282526060366020840137565b634e487b7160e01b600052603260045260246000fd5b805115620023255760200190565b805160011015620023255760210190565b90815181101562002325570160200190565b8015620026a0576000190190565b620025dc565b15620026ae57565b606460405162461bcd60e51b815260206004820152602060248201527f537472696e67733a20686578206c656e67746820696e73756666696369656e746044820152fd5b60405190620027018262001aff565b602a8252604036602084013760306200271a8362002661565b53607862002728836200266f565b536029905b60018211620027435762000bd0915015620026a6565b600f811690601082101562002325576f181899199a1a9b1b9c1cb0b131b232b360811b62002778921a62002314848662002680565b906200272d565b90600182811c92168015620027b1575b60208310146200279b57565b634e487b7160e01b600052602260045260246000fd5b91607f16916200278f565b9060405191826000825492620027d2846200277f565b90818452600194858116908160001462002847575060011462002800575b505062001b709250038362001b1c565b9093915060005260209081600020936000915b8183106200282e57505062001b7093508201013880620027f0565b8554888401850152948501948794509183019162002813565b91505062001b7094506020925060ff191682840152151560051b8201013880620027f0565b94969193969590929560018110158062002d78575b1562002d335769021e19e0c9bab2400000831062002cee57620028a362003351565b620028b18651151562002d85565b620028c0600160055401600555565b620028d160055442903390620033a6565b976200290762002901620028fd62000a008c6001600160c01b0319166000526007602052604060002090565b1590565b62002ddc565b6200291e62000afc600b546001600160a01b031690565b60408051636eb1769f60e11b815233600482015230602482015260209a91989192908b81604481855afa90811562000b89576200296b9189918e60009262002cba575b5050101562002e45565b88516323b872dd60e01b815233600482015230602482015260448101889052908b90829060649082906000905af1801562000b895762002c98575b5062002a0e8a87620029c462000afc600b546001600160a01b031690565b620029db62000afc600c546001600160a01b031690565b60008d5180968195829463095ea7b360e01b845260048401602090939291936001600160a01b0360408201951681520152565b03925af1801562000b895762002c76575b5062002a3762000afc600c546001600160a01b031690565b803b1562000396578851632124ec1b60e21b81526001600160c01b03198d16600482015233602482015260448101889052906000908290606490829084905af1801562000b895762002c5f575b5087516001600160c01b03198c16818c019081529062002aa88160088401620022b2565b51902088519061203d8083019183831067ffffffffffffffff84111762001adc57839262002aeb9262003fa3853990815230602082015233604082015260600190565b03906000f096871562000b8957896001600160a01b038d99169b62002b0f62001b3f565b6001600160c01b0319909a168a52890152888801523360608801526001600160a01b038a16608088015262002b489060a0880162002edd565b62002b579060c0870162002ee8565b62002b669060e0860162002ee8565b6101008401526000610120840181905261014084018190526101608401526101808301526101a082015260016101c0820152426101e08201524261020082015262002bc5856001600160c01b0319166000526006602052604060002090565b9062002bd19162003130565b62002bf0846001600160c01b0319166000526007602052604060002090565b805460ff1916600117905562002c0684620032c0565b62002c12338562003bc3565b51903391806001600160c01b03198616924262002c30918362003333565b037ffb7b430a1fdf350392c660ca7abcc0993099c436abc3f4705b9635c50c487a8b91a462000bd06001600255565b806200184562002c6f9262001ac7565b3862002a84565b62002c90908b3d8d1162000b815762000b71818362001b1c565b503862002a1f565b62002cb2908b3d8d1162000b815762000b71818362001b1c565b5038620029a6565b62002cde9250803d1062002ce6575b62002cd5818362001b1c565b81019062002e29565b388e62002961565b503d62002cc9565b60405162461bcd60e51b815260206004820152601a60248201527f5374616b6520616d6f756e742062656c6f77206d696e696d756d0000000000006044820152606490fd5b60405162461bcd60e51b815260206004820152601460248201527f496e76616c6964206d656d626572206c696d69740000000000000000000000006044820152606490fd5b5061271081111562002881565b1562002d8d57565b60405162461bcd60e51b815260206004820152602160248201527f4f7267616e697a6174696f6e206e616d652063616e6e6f7420626520656d70746044820152607960f81b6064820152608490fd5b1562002de457565b60405162461bcd60e51b815260206004820152601960248201527f4f7267616e697a6174696f6e20494420636f6c6c6973696f6e000000000000006044820152606490fd5b9081602091031262000396575190565b6040513d6000823e3d90fd5b1562002e4d57565b60405162461bcd60e51b815260206004820152602660248201527f496e73756666696369656e7420746f6b656e20616c6c6f77616e636520666f7260448201527f207374616b6500000000000000000000000000000000000000000000000000006064820152608490fd5b519081151582036200039657565b90816020910312620003965762000bd09062002eb8565b620004268262000409565b620004268262000429565b9162002f0e9183549060031b91821b91600019901b19161790565b9055565b90601f811162002f2157505050565b600091825260208220906020601f850160051c8301941062002f60575b601f0160051c01915b82811062002f5457505050565b81815560010162002f47565b909250829062002f3e565b919091825167ffffffffffffffff811162001adc5762002f988162002f9184546200277f565b8462002f12565b602080601f831160011462002fd757508192939460009262002fcb575b50508160011b916000199060031b1c1916179055565b01519050388062002fb5565b90601f1983169562002fee85600052602060002090565b926000905b8882106200302e5750508360019596971062003014575b505050811b019055565b015160001960f88460031b161c191690553880806200300a565b8060018596829496860151815501950193019062002ff3565b9062002f0e90620030588162000409565b82549060ff60a01b60ff60a01b199160a01b1691161790565b906200307d8162000429565b7fffffffffffffffffffff00ffffffffffffffffffffffffffffffffffffffffff75ff00000000000000000000000000000000000000000083549260a81b169116179055565b90620030cf8162000429565b7fffffffffffffffffff00ffffffffffffffffffffffffffffffffffffffffffff76ff0000000000000000000000000000000000000000000083549260b01b169116179055565b90620031228162000409565b60ff80198354169116179055565b90610200600d91620031656200314e82516001600160c01b03191690565b859060c01c67ffffffffffffffff19825416179055565b6200317860208201516001860162002f6b565b6200318b60408201516002860162002f6b565b620031c3620031a460608301516001600160a01b031690565b60038601906001600160a01b03166001600160a01b0319825416179055565b6200324d6004850162003200620031e460808501516001600160a01b031690565b82906001600160a01b03166001600160a01b0319825416179055565b6200321b60a0840151620032148162000409565b8262003047565b6200323660c08401516200322f8162000429565b8262003071565b60e083015190620032478262000429565b620030c3565b610100810151600585015561012081015160068501556101408101516007850155610160810151600885015561018081015160098501556101a0810151600a850155620032ae6101c0820151620032a48162000409565b600b860162003116565b6101e0810151600c8501550151910155565b600854906801000000000000000082101562001adc576001820180600855821015620023255760086000528160021c7ff3f7a9fe364faab93b216da50a3214154f22a0a2b415b23a84c8169e8b636ee3019167ffffffffffffffff60c084549260061b169260c01c831b921b1916179055565b9291906200334c602091604086526040860190620003cc565b930152565b6002805414620033615760028055565b60405162461bcd60e51b815260206004820152601f60248201527f5265656e7472616e637947756172643a207265656e7472616e742063616c6c006044820152606490fd5b919091604091825190602094858301937fbdded29a54e6a5d6169bedea55373b06f57e35d7b0f67ac187565b435e2cc9438552858401526bffffffffffffffffffffffff199060601b1660608301526074820152624f524760e81b609482015260778152620034158162001ae2565b5190209062003423620025f2565b91600080915b600883106200343b5750505050015190565b8351620034df916200344d8262001aff565b620034bc620034966024938481527f303132333435363738394142434445464748494a4b4c4d4e4f505152535455568b820152632bac2cad60e11b898201528484069062002680565b517fff000000000000000000000000000000000000000000000000000000000000001690565b620034d6620034cb87620034f6565b91861a918962002680565b530492620034e6565b9162003429565b6000198114620026a05760010190565b6007039060078211620026a057565b156200350d57565b60405162461bcd60e51b815260206004820152601b60248201527f4f7267616e697a6174696f6e20646f6573206e6f7420657869737400000000006044820152606490fd5b156200355a57565b60405162461bcd60e51b815260206004820152601860248201527f4e6f74206f7267616e697a6174696f6e2063726561746f7200000000000000006044820152606490fd5b15620035a757565b60405162461bcd60e51b815260206004820152602a60248201527f4f7267616e697a6174696f6e206d75737420626520696e616374697665206f7260448201527f20646973736f6c766564000000000000000000000000000000000000000000006064820152608490fd5b156200361a57565b60405162461bcd60e51b815260206004820152601d60248201527f5374616b652063616e6e6f742062652077697468647261776e207965740000006044820152606490fd5b908160a09103126200039657620036bf608060405192620036808462001ae2565b80516200368d81620006ac565b845260208101516200369f816200050e565b602085015260408101516040850152606081015160608501520162002eb8565b608082015290565b15620036cf57565b606460405162461bcd60e51b815260206004820152602060248201527f4e6f20616374697665207374616b6520666f72206f7267616e697a6174696f6e6044820152fd5b156200371b57565b60405162461bcd60e51b815260206004820152600e60248201527f4e6f7420746865207374616b65720000000000000000000000000000000000006044820152606490fd5b604051906200376f8262001ae2565b60006080838281528260208201528260408201528260608201520152565b156200379557565b60405162461bcd60e51b815260206004820152601c60248201527f4f6e6c7920616374697665206d656d626572732063616e20766f7465000000006044820152606490fd5b15620037e257565b60405162461bcd60e51b815260206004820152601f60248201527f4f6e6c792063726561746f722063616e20696e76697465206d656d62657273006044820152606490fd5b156200382f57565b60405162461bcd60e51b815260206004820152601f60248201527f4e6f7420617574686f72697a656420746f2072656d6f7665206d656d626572006044820152606490fd5b156200387c57565b60405162461bcd60e51b815260206004820152600c60248201527f4e6f742061206d656d62657200000000000000000000000000000000000000006044820152606490fd5b6001600160a01b0362000bd092169062003932565b8054821015620023255760005260206000200190600090565b80549081156200391c57600019918201916200390c8383620038d6565b909182549160031b1b1916905555565b634e487b7160e01b600052603160045260246000fd5b6001810191806000528260205260406000205492831515600014620039ed576000199284840190858211620026a0578054948501948511620026a05760009585836200398d946200399c9803620039a2575b505050620038ef565b90600052602052604060002090565b55600190565b620039d3620039cc91620039bb620039e39487620038d6565b90549060031b1c92839187620038d6565b9062002ef3565b8590600052602052604060002090565b5538808062003984565b50505050600090565b6001600160a01b0362000bd092169060019160005201602052604060002054151590565b9062002f0e90620030588162000429565b6060810194939260409262003a408162000429565b825262003a4d8162000429565b60208201520152565b1562003a5e57565b60405162461bcd60e51b815260206004820152601460248201527f4d656d626572206c696d697420726561636865640000000000000000000000006044820152606490fd5b1562003aab57565b60405162461bcd60e51b815260206004820152601060248201527f416c72656164792061206d656d626572000000000000000000000000000000006044820152606490fd5b1562003af857565b60405162461bcd60e51b815260206004820152601e60248201527f4d656d6265727368697020666565207472616e73666572206661696c656400006044820152606490fd5b90608060039162003b6e6001600160a01b0382511685906001600160a01b03166001600160a01b0319825416179055565b62003ba6602082015162003b828162000429565b62003b8d8162000429565b85549060ff60a01b60ff60a01b199160a01b1691161790565b845560408101516001850155606081015160028501550151910155565b9062003be3826001600160c01b0319166000526006602052604060002090565b6006810162003bf9815460058401541162003a56565b62003c2b62003c25620028fd8562002095886001600160c01b031916600052600a602052604060002090565b62003aa3565b60098201548062003d26575b5062003c628362003c5c866001600160c01b031916600052600a602052604060002090565b62003dd9565b5062003cc262003c7162001b61565b6001600160a01b038516815260016020820152426040820152600060608201526000608082015262003cbc85620020e0886001600160c01b0319166000526009602052604060002090565b62003b3d565b62003cce8154620034e6565b9055600d429101557f9a3339960489aa0243087dc6a04744989e9522295af4eb583536f09785ee28e86001600160c01b03196001600160a01b0360405193169316918062003d2142829190602083019252565b0390a3565b602062003d8f9162003d4462000afc600b546001600160a01b031690565b60048601546001600160a01b031660006040518096819582946323b872dd60e01b84528c600485016040919493929460608201956001600160a01b0380921683521660208201520152565b03925af1801562000b895762003daf9160009162003db6575b5062003af0565b3862003c37565b62003dd2915060203d811162000b815762000b71818362001b1c565b3862003da8565b6001600160a01b0362000bd0921690600082815260018201602052604090205462003e59578054906801000000000000000082101562001adc578262003e4262003e2b846001809601855584620038d6565b819391549060031b91821b91600019901b19161790565b905580549260005201602052604060002055600190565b5050600090565b90600d62003e6d62001b3f565b9262003e8c62003e7e825460c01b90565b6001600160c01b0319168552565b62003e9a60018201620027bc565b602085015262003ead60028201620027bc565b604085015262003edb62003ecb60038301546001600160a01b031690565b6001600160a01b03166060860152565b60048101546001600160a01b038116608086015262003f2d9060ff9062003f0b828260a01c1660a0890162002edd565b62003f1f828260a81c1660c0890162002ee8565b60b01c1660e0860162002ee8565b60058101546101008501526006810154610120850152600781015461014085015260088101546101608501526009810154610180850152600a8101546101a085015262003f8d62003f82600b83015460ff1690565b6101c0860162002edd565b600c8101546101e0850152015461020083015256fe60c034620002e857601f6200203d38819003918201601f191683019291906001600160401b03841183851017620002ed578160609284926040968752833981010312620002e857805190602062000065846200005d83850162000303565b930162000303565b60018080556002805460ff199081169091556001600160a01b038086169591938615620002a45716958615620002705760805260a052600094858052858452868620818752845260ff8787205416156200023b575b7fa49807205ce4d355092ef5a8a18f56e8913cf4a201fbe287825b095693c2177590818752868552878720818852855260ff88882054161562000205575b50507f7434c6f201a551bfd17336985361933e0c4935b520dac8a49d937b325f7d5c0a808652858452868620858752845260ff878720541615620001cf575b507f8f4f2da22e8ac8f11e15f9fc141cddbb5deea8800186560abb6e68c5496619a992838652858152868620858752815260ff87872054161562000197575b8651611d049081620003198239608051816105c8015260a05181610ad70152f35b8386528581528686209085875252858520918254161790556000805160206200201d833981519152339380a438808080808062000176565b808652858452868620858752845286862082848254161790558433916000805160206200201d8339815191528880a43862000137565b8187528685528787208188528552878720838582541617905533916000805160206200201d8339815191528880a43880620000f8565b858052858452868620818752845286862082848254161790553381876000805160206200201d8339815191528180a4620000ba565b875162461bcd60e51b815260048101869052600d60248201526c24b73b30b634b21030b236b4b760991b6044820152606490fd5b885162461bcd60e51b815260048101879052601660248201527f496e76616c696420636f6e74726f6c206d6f64756c65000000000000000000006044820152606490fd5b600080fd5b634e487b7160e01b600052604160045260246000fd5b51906001600160a01b0382168203620002e85756fe608060408181526004918236101561001657600080fd5b600092833560e01c91826301ffc9a71461113857508163248a9ca31461110e5781632f2ff15d1461106657816336568abe14610fc65781633f4ba83a14610f2757816345e6772414610b3257816347a1074814610afb578163536ce92d14610ab75781635c975abb14610a935781635fa7b5841461091457816372c16a24146108d957816375151b631461089d57816375b238fc146108625781638456cb591461080757816391d14854146107c2578163a217fddf146107a7578163a3b0b5a31461076c578163a85e35de14610737578163bfe07da6146105eb578163c471dc3a146105b0578163c9a815bd14610539578163caa648b414610456578163d3c7c2c714610421578163d48bfca714610316578163d547741f146102d8578163e63ea40814610187575063f8b2cb4f1461014e57600080fd5b3461018357602036600319011261018357806020926001600160a01b036101736111a6565b1681526003845220549051908152f35b5080fd5b9050346102d45760603660031901126102d4576101a26111a6565b906101ab61118b565b92604435936101b8611890565b6101c06112b0565b84156102c6576001600160a01b03938482169485156102b657811693848852600360205283882054878110610280575050508461021591848852600360205283882061020d838254611810565b905584611abd565b805193845260606020850152601460608501527f456d657267656e6379207769746864726177616c000000000000000000000000608085015242908401527f6b660b41e4e88f1cb58ddfa149465e22095f2db46104f1189ab4fb13df56593360a03394a46001805580f35b845163db42144d60e01b81526001600160a01b0390931691830191825260208201889052604082015281906060010390fd5b0390fd5b5050505163d92e233d60e01b8152fd5b5051631f2a200560e01b8152fd5b8280fd5b919050346102d457806003193601126102d457610313913561030e60016102fd61118b565b9383875286602052862001546114a4565b6115fc565b80f35b838334610183576020366003190112610183576103316111a6565b9061033a6112b0565b6001600160a01b03821691821561041157828452600560205260ff82852054166103fa578284526005602052818420805460ff191660011790558454680100000000000000008110156103e757916103df6020926103bf858960017ff4c563a3ea86ff1f4275e8c207df0375a51963f2b831b7bf4da8be938d92876c980190556117ca565b90919082549060031b916001600160a01b03809116831b921b1916179055565b51428152a280f35b634e487b7160e01b855260418652602485fd5b8151632efbf13f60e21b8152808601849052602490fd5b815163d92e233d60e01b81528590fd5b5050346101835781600319360112610183576104529061043f611b0c565b9051918291602083526020830190611273565b0390f35b828434610536578060031936011261053657610470611b0c565b9182519061049561048083611ca2565b9261048d835194856111ee565b808452611ca2565b60208381019491601f1901368637815b86518110156104e557806001600160a01b036104c46104e0938a611cba565b5116845260038352848420546104da8288611cba565b52611801565b6104a5565b509392909193806104ff8651978789988952880190611273565b928684038288015251928381520193925b82811061051f57505050500390f35b835185528695509381019392810192600101610510565b80fd5b5050346101835780600319360112610183577f3bd32c0f6f623f7e2423f76f4b251ace080cdb1aff9a2a4b12d8b8d8c9178b5660606105766111a6565b6001600160a01b036024359161058a6112b0565b16938486526006602052808620918083549355815192835260208301524290820152a280f35b505034610183578160031936011261018357602090517f00000000000000000000000000000000000000000000000000000000000000008152f35b9050346102d45760603660031901126102d4576106066111a6565b91602435906044359267ffffffffffffffff938481116107335761062d903690830161122c565b94610636611890565b61063e61183f565b8315610724576001600160a01b031693848752600560205260ff83882054161561070e5782516323b872dd60e01b6020820152336024820152306044820152606480820186905281529160a08301918211838310176106fb5750916106cb7f225ff215a128c3b90e7d9a02531a87177de9e30a3ca726ecb9ce3de0a14f939494926106f1948352866118e6565b84875260036020528087206106e1838254611671565b905551918291339642918461181d565b0390a36001805580f35b634e487b7160e01b885260419052602487fd5b508360249251916306439c6b60e01b8352820152fd5b509051631f2a200560e01b8152fd5b8680fd5b5050346101835780600319360112610183576020906107656107576111a6565b61075f61118b565b90611b82565b9051908152f35b505034610183578160031936011261018357602090517f8f4f2da22e8ac8f11e15f9fc141cddbb5deea8800186560abb6e68c5496619a98152f35b50503461018357816003193601126101835751908152602090f35b9050346102d457816003193601126102d4578160209360ff926107e361118b565b903582528186526001600160a01b0383832091168252855220541690519015158152f35b50503461018357816003193601126101835760207f62e78cea01bee320cd4e420270b5ea74000d11b0c9f74754ebdbfc544b05a258916108456112b0565b61084d61183f565b600160ff19600254161760025551338152a180f35b505034610183578160031936011261018357602090517fa49807205ce4d355092ef5a8a18f56e8913cf4a201fbe287825b095693c217758152f35b5050346101835760203660031901126101835760ff816020936001600160a01b036108c66111a6565b1681526005855220541690519015158152f35b505034610183578160031936011261018357602090517f7434c6f201a551bfd17336985361933e0c4935b520dac8a49d937b325f7d5c0a8152f35b8284346105365760203660031901126105365761092f6111a6565b916109386112b0565b6001600160a01b0380931690818352600560205260ff818420541615610a7c578183526005602052808320805460ff19169055825b855480821015610a4c57859084610983846117ca565b939054600394851b1c16146109a257505061099d90611801565b61096d565b90929394959160001991828101908111610a3957906103bf846109c76109d4946117ca565b905490881b1c16916117ca565b86548015610a2657917fbe9bb4bdca0a094babd75e3a98b1d2e2390633430d0a2f6e2b9970e2ee03fb2e9596979160209594930192610a12846117ca565b81939154921b1b191690555551428152a280f35b634e487b7160e01b875260318852602487fd5b634e487b7160e01b885260118952602488fd5b50507fbe9bb4bdca0a094babd75e3a98b1d2e2390633430d0a2f6e2b9970e2ee03fb2e92945060209193506103df565b516306439c6b60e01b815280850191909152602490fd5b50503461018357816003193601126101835760209060ff6002541690519015158152f35b505034610183578160031936011261018357602090516001600160a01b037f0000000000000000000000000000000000000000000000000000000000000000168152f35b50503461018357602036600319011261018357806020926001600160a01b03610b226111a6565b1681526006845220549051908152f35b9050346102d45760803660031901126102d457610b4d6111a6565b90610b5661118b565b926044359060643567ffffffffffffffff811161073357610b7a903690850161122c565b94610b83611890565b610b8b61183f565b7f7434c6f201a551bfd17336985361933e0c4935b520dac8a49d937b325f7d5c0a90818852602091888352838920338a52835260ff848a20541615610d5057508315610d40576001600160a01b0395868216968715610d3057811695868a526005845260ff858b20541615610d1957868a5260038452848a2054868110610ce757505091610c6285610cb09593610c45827f6b660b41e4e88f1cb58ddfa149465e22095f2db46104f1189ab4fb13df565933999733611bd4565b888c5260038452848c20610c5a838254611810565b905588611abd565b620151804204338a5260088252828a20878b52825280838b205403610cba575b503389526007815281892090868a5252808820610ca0838254611671565b905551918291339742918461181d565b0390a46001805580f35b338a5260078252828a20878b5282528983812055338a5260088252828a20878b528252828a205538610c82565b855163db42144d60e01b81526001600160a01b0390931691830191825260208201879052604082015281906060010390fd5b84516306439c6b60e01b8152908101879052602490fd5b845163d92e233d60e01b81528790fd5b8251631f2a200560e01b81528590fd5b858484928b610d5e336116bb565b91835190610d6b826111bc565b60428252868201926060368537825115610f145760308453825190600191821015610f015790607860218501536041915b818311610e9657505050610e55576048610e2c938593610e3b936102b297519687937f416363657373436f6e74726f6c3a206163636f756e74200000000000000000008c860152610df78c82519283916037890191016115b4565b8401917f206973206d697373696e6720726f6c65200000000000000000000000000000006037840152518093868401906115b4565b010360288101855201836111ee565b5193849362461bcd60e51b855284015260248301906115d7565b606485878087519262461bcd60e51b845283015260248201527f537472696e67733a20686578206c656e67746820696e73756666696369656e746044820152fd5b909192600f81166010811015610eee576f181899199a1a9b1b9c1cb0b131b232b360811b901a610ec68587611694565b53881c928015610edb57600019019190610d9c565b634e487b7160e01b825260118952602482fd5b634e487b7160e01b835260328a52602483fd5b634e487b7160e01b815260328852602490fd5b634e487b7160e01b815260328752602490fd5b9050346102d457826003193601126102d457610f416112b0565b6002549060ff821615610f83575060ff1916600255513381527f5db9ee0a495bf2e6ff9c91a7834c1ba4fdd244a5e8aa4e537bd38aeae4b073aa90602090a180f35b606490602084519162461bcd60e51b8352820152601460248201527f5061757361626c653a206e6f74207061757365640000000000000000000000006044820152fd5b83915034610183578260031936011261018357610fe161118b565b90336001600160a01b03831603610ffd579061031391356115fc565b608490602085519162461bcd60e51b8352820152602f60248201527f416363657373436f6e74726f6c3a2063616e206f6e6c792072656e6f756e636560448201527f20726f6c657320666f722073656c6600000000000000000000000000000000006064820152fd5b9050346102d457816003193601126102d457359061108261118b565b9082845283602052611099600182862001546114a4565b828452836020526001600160a01b0381852092169182855260205260ff8185205416156110c4578380f35b828452836020528084208285526020528320600160ff1982541617905533917f2f8788117e7eff1d82e926ec794901d17c78024a50270940304540a733656f0d8480a43880808380f35b9050346102d45760203660031901126102d457816020936001923581528085522001549051908152f35b8491346102d45760203660031901126102d4573563ffffffff60e01b81168091036102d45760209250637965db0b60e01b811490811561117a575b5015158152f35b6301ffc9a760e01b14905083611173565b602435906001600160a01b03821682036111a157565b600080fd5b600435906001600160a01b03821682036111a157565b6080810190811067ffffffffffffffff8211176111d857604052565b634e487b7160e01b600052604160045260246000fd5b90601f8019910116810190811067ffffffffffffffff8211176111d857604052565b67ffffffffffffffff81116111d857601f01601f191660200190565b81601f820112156111a15780359061124382611210565b9261125160405194856111ee565b828452602083830101116111a157816000926020809301838601378301015290565b90815180825260208080930193019160005b828110611293575050505090565b83516001600160a01b031685529381019392810192600101611285565b3360009081527f7d7ffb7a348e1c6a02869081a26547b49160dd3df72d1d75a570eb9b698292ec602090815260408083205490927fa49807205ce4d355092ef5a8a18f56e8913cf4a201fbe287825b095693c217759160ff16156113145750505050565b61131d336116bb565b9184519061132a826111bc565b6042825284820192606036853782511561149057603084538251906001918210156114905790607860218501536041915b818311611422575050506113e05760486102b29386936113c4936113b598519889937f416363657373436f6e74726f6c3a206163636f756e74200000000000000000008a860152610df7815180928c6037890191016115b4565b010360288101875201856111ee565b5192839262461bcd60e51b8452600484015260248301906115d7565b60648486519062461bcd60e51b825280600483015260248201527f537472696e67733a20686578206c656e67746820696e73756666696369656e746044820152fd5b909192600f8116601081101561147c576f181899199a1a9b1b9c1cb0b131b232b360811b901a6114528587611694565b5360041c9280156114685760001901919061135b565b634e487b7160e01b82526011600452602482fd5b634e487b7160e01b83526032600452602483fd5b634e487b7160e01b81526032600452602490fd5b600090808252602090828252604092838120338252835260ff8482205416156114cd5750505050565b6114d6336116bb565b918451906114e3826111bc565b6042825284820192606036853782511561149057603084538251906001918210156114905790607860218501536041915b81831161156e575050506113e05760486102b29386936113c4936113b598519889937f416363657373436f6e74726f6c3a206163636f756e74200000000000000000008a860152610df7815180928c6037890191016115b4565b909192600f8116601081101561147c576f181899199a1a9b1b9c1cb0b131b232b360811b901a61159e8587611694565b5360041c92801561146857600019019190611514565b60005b8381106115c75750506000910152565b81810151838201526020016115b7565b906020916115f0815180928185528580860191016115b4565b601f01601f1916010190565b90600091808352826020526001600160a01b036040842092169182845260205260ff60408420541661162d57505050565b80835282602052604083208284526020526040832060ff1981541690557ff6391f5c32d9c69d2a47ea670b442974b53935d1edc7fd64eb21e047a839171b339380a4565b9190820180921161167e57565b634e487b7160e01b600052601160045260246000fd5b9081518110156116a5570160200190565b634e487b7160e01b600052603260045260246000fd5b604051906060820182811067ffffffffffffffff8211176111d857604052602a82526020820160403682378251156116a5576030905381516001908110156116a557607860218401536029905b80821161175c5750506117185790565b606460405162461bcd60e51b815260206004820152602060248201527f537472696e67733a20686578206c656e67746820696e73756666696369656e746044820152fd5b9091600f811660108110156117b5576f181899199a1a9b1b9c1cb0b131b232b360811b901a61178b8486611694565b5360041c9180156117a0576000190190611708565b60246000634e487b7160e01b81526011600452fd5b60246000634e487b7160e01b81526032600452fd5b6004548110156116a55760046000527f8a35acfbc15ff81a39ae7d344fd709f28e8600b4aa8c65c6b64bfe7fe36bd19b0190600090565b600019811461167e5760010190565b9190820391821161167e57565b93929161183a9060409286526060602087015260608601906115d7565b930152565b60ff6002541661184b57565b60405162461bcd60e51b815260206004820152601060248201527f5061757361626c653a20706175736564000000000000000000000000000000006044820152606490fd5b6002600154146118a1576002600155565b60405162461bcd60e51b815260206004820152601f60248201527f5265656e7472616e637947756172643a207265656e7472616e742063616c6c006044820152606490fd5b6001600160a01b031690604051604081019080821067ffffffffffffffff8311176111d857611977916040526020938482527f5361666545524332303a206c6f772d6c6576656c2063616c6c206661696c6564858301526000808587829751910182855af13d15611a20573d9161195c83611210565b9261196a60405194856111ee565b83523d868885013e611a24565b8051918215918483156119fc575b5050509050156119925750565b6084906040519062461bcd60e51b82526004820152602a60248201527f5361666545524332303a204552433230206f7065726174696f6e20646964206e60448201527f6f742073756363656564000000000000000000000000000000000000000000006064820152fd5b91938180945001031261018357820151908115158203610536575080388084611985565b6060915b91929015611a865750815115611a38575090565b3b15611a415790565b60405162461bcd60e51b815260206004820152601d60248201527f416464726573733a2063616c6c20746f206e6f6e2d636f6e74726163740000006044820152606490fd5b825190915015611a995750805190602001fd5b60405162461bcd60e51b8152602060048201529081906102b29060248301906115d7565b916001600160a01b036040519263a9059cbb60e01b6020850152166024830152604482015260448152608081019181831067ffffffffffffffff8411176111d857611b0a926040526118e6565b565b60405190600454808352826020918282019060046000527f8a35acfbc15ff81a39ae7d344fd709f28e8600b4aa8c65c6b64bfe7fe36bd19b936000905b828210611b5f57505050611b0a925003836111ee565b85546001600160a01b031684526001958601958895509381019390910190611b49565b6001600160a01b0380911691600091838352600860205260408320911690818352602052620151804204604083205403611bce5760409282526007602052828220908252602052205490565b50905090565b6001600160a01b039283831691600094838652600660205260409586812054948515611c9857879282941680835260086020528383208284526020526201518042048484205414611c7b575b5050505082611c2f8383611671565b11611c3b575050505050565b6102b29291611c4991611671565b93519384936384bb52cf60e01b8552600485016040919493926001600160a01b03606083019616825260208201520152565b825260076020908152838320918352522054905084388080611c20565b5050505050505050565b67ffffffffffffffff81116111d85760051b60200190565b80518210156116a55760209160051b01019056fea26469706673582212209162bfaab1dda8cf318c7a436351b14075fc20f21ab69d87ca3913e7a69e6c6864736f6c634300081400332f8788117e7eff1d82e926ec794901d17c78024a50270940304540a733656f0da264697066735822122019e260b54aff8b6aab449b59d77ea3d136d1f15b465ab6eb566c6ea0c9f46b4c64736f6c634300081400332f8788117e7eff1d82e926ec794901d17c78024a50270940304540a733656f0d",
  "linkReferences": {},
  "deployedLinkReferences": {}
}