{
  "_format": "hh-sol-artifact-1",
  "contractName": "GameStaking",
  "sourceName": "contracts/staking/GameStaking.sol",
  "abi": [
    {
      "inputs": [
        {
          "internalType": "address",
          "name": "_gameToken",
          "type": "address"
        },
        {
          "internalType": "address",
          "name": "_treasury",
          "type": "address"
        },
        {
          "internalType": "uint256",
          "name": "_protocolFeeShare",
          "type": "uint256"
        }
      ],
      "stateMutability": "nonpayable",
      "type": "constructor"
    },
    {
      "anonymous": false,
      "inputs": [
        {
          "indexed": false,
          "internalType": "address",
          "name": "account",
          "type": "address"
        }
      ],
      "name": "Paused",
      "type": "event"
    },
    {
      "anonymous": false,
      "inputs": [
        {
          "indexed": true,
          "internalType": "enum GameStaking.StakingPurpose",
          "name": "purpose",
          "type": "uint8"
        },
        {
          "indexed": false,
          "internalType": "uint256",
          "name": "newRewardRate",
          "type": "uint256"
        },
        {
          "indexed": false,
          "internalType": "bool",
          "name": "active",
          "type": "bool"
        }
      ],
      "name": "PoolUpdated",
      "type": "event"
    },
    {
      "anonymous": false,
      "inputs": [
        {
          "indexed": true,
          "internalType": "address",
          "name": "user",
          "type": "address"
        },
        {
          "indexed": true,
          "internalType": "enum GameStaking.StakingPurpose",
          "name": "purpose",
          "type": "uint8"
        },
        {
          "indexed": false,
          "internalType": "uint256",
          "name": "amount",
          "type": "uint256"
        },
        {
          "indexed": false,
          "internalType": "uint256",
          "name": "timestamp",
          "type": "uint256"
        }
      ],
      "name": "RewardsClaimed",
      "type": "event"
    },
    {
      "anonymous": false,
      "inputs": [
        {
          "indexed": true,
          "internalType": "enum GameStaking.StakingPurpose",
          "name": "purpose",
          "type": "uint8"
        },
        {
          "indexed": false,
          "internalType": "uint256",
          "name": "amount",
          "type": "uint256"
        },
        {
          "indexed": false,
          "internalType": "uint256",
          "name": "timestamp",
          "type": "uint256"
        }
      ],
      "name": "RewardsDistributed",
      "type": "event"
    },
    {
      "anonymous": false,
      "inputs": [
        {
          "indexed": true,
          "internalType": "bytes32",
          "name": "role",
          "type": "bytes32"
        },
        {
          "indexed": true,
          "internalType": "bytes32",
          "name": "previousAdminRole",
          "type": "bytes32"
        },
        {
          "indexed": true,
          "internalType": "bytes32",
          "name": "newAdminRole",
          "type": "bytes32"
        }
      ],
      "name": "RoleAdminChanged",
      "type": "event"
    },
    {
      "anonymous": false,
      "inputs": [
        {
          "indexed": true,
          "internalType": "bytes32",
          "name": "role",
          "type": "bytes32"
        },
        {
          "indexed": true,
          "internalType": "address",
          "name": "account",
          "type": "address"
        },
        {
          "indexed": true,
          "internalType": "address",
          "name": "sender",
          "type": "address"
        }
      ],
      "name": "RoleGranted",
      "type": "event"
    },
    {
      "anonymous": false,
      "inputs": [
        {
          "indexed": true,
          "internalType": "bytes32",
          "name": "role",
          "type": "bytes32"
        },
        {
          "indexed": true,
          "internalType": "address",
          "name": "account",
          "type": "address"
        },
        {
          "indexed": true,
          "internalType": "address",
          "name": "sender",
          "type": "address"
        }
      ],
      "name": "RoleRevoked",
      "type": "event"
    },
    {
      "anonymous": false,
      "inputs": [
        {
          "indexed": true,
          "internalType": "address",
          "name": "user",
          "type": "address"
        },
        {
          "indexed": true,
          "internalType": "enum GameStaking.StakingPurpose",
          "name": "purpose",
          "type": "uint8"
        },
        {
          "indexed": false,
          "internalType": "uint256",
          "name": "amount",
          "type": "uint256"
        },
        {
          "indexed": true,
          "internalType": "address",
          "name": "slasher",
          "type": "address"
        },
        {
          "indexed": false,
          "internalType": "string",
          "name": "reason",
          "type": "string"
        },
        {
          "indexed": false,
          "internalType": "uint256",
          "name": "timestamp",
          "type": "uint256"
        }
      ],
      "name": "Slashed",
      "type": "event"
    },
    {
      "anonymous": false,
      "inputs": [
        {
          "indexed": true,
          "internalType": "address",
          "name": "user",
          "type": "address"
        },
        {
          "indexed": true,
          "internalType": "enum GameStaking.StakingPurpose",
          "name": "purpose",
          "type": "uint8"
        },
        {
          "indexed": false,
          "internalType": "uint256",
          "name": "amount",
          "type": "uint256"
        },
        {
          "indexed": false,
          "internalType": "enum GameStaking.UnstakingStrategy",
          "name": "strategy",
          "type": "uint8"
        },
        {
          "indexed": false,
          "internalType": "uint256",
          "name": "timestamp",
          "type": "uint256"
        }
      ],
      "name": "Staked",
      "type": "event"
    },
    {
      "anonymous": false,
      "inputs": [
        {
          "indexed": false,
          "internalType": "address",
          "name": "account",
          "type": "address"
        }
      ],
      "name": "Unpaused",
      "type": "event"
    },
    {
      "anonymous": false,
      "inputs": [
        {
          "indexed": true,
          "internalType": "address",
          "name": "user",
          "type": "address"
        },
        {
          "indexed": true,
          "internalType": "enum GameStaking.StakingPurpose",
          "name": "purpose",
          "type": "uint8"
        },
        {
          "indexed": false,
          "internalType": "uint256",
          "name": "amount",
          "type": "uint256"
        },
        {
          "indexed": false,
          "internalType": "enum GameStaking.UnstakingStrategy",
          "name": "strategy",
          "type": "uint8"
        },
        {
          "indexed": false,
          "internalType": "uint256",
          "name": "requestId",
          "type": "uint256"
        },
        {
          "indexed": false,
          "internalType": "uint256",
          "name": "unlockTime",
          "type": "uint256"
        }
      ],
      "name": "UnstakeRequested",
      "type": "event"
    },
    {
      "anonymous": false,
      "inputs": [
        {
          "indexed": true,
          "internalType": "address",
          "name": "user",
          "type": "address"
        },
        {
          "indexed": true,
          "internalType": "enum GameStaking.StakingPurpose",
          "name": "purpose",
          "type": "uint8"
        },
        {
          "indexed": false,
          "internalType": "uint256",
          "name": "amount",
          "type": "uint256"
        },
        {
          "indexed": false,
          "internalType": "uint256",
          "name": "penalty",
          "type": "uint256"
        },
        {
          "indexed": false,
          "internalType": "uint256",
          "name": "timestamp",
          "type": "uint256"
        }
      ],
      "name": "Unstaked",
      "type": "event"
    },
    {
      "inputs": [],
      "name": "ADMIN_ROLE",
      "outputs": [
        {
          "internalType": "bytes32",
          "name": "",
          "type": "bytes32"
        }
      ],
      "stateMutability": "view",
      "type": "function"
    },
    {
      "inputs": [],
      "name": "BASIS_POINTS",
      "outputs": [
        {
          "internalType": "uint256",
          "name": "",
          "type": "uint256"
        }
      ],
      "stateMutability": "view",
      "type": "function"
    },
    {
      "inputs": [],
      "name": "DEFAULT_ADMIN_ROLE",
      "outputs": [
        {
          "internalType": "bytes32",
          "name": "",
          "type": "bytes32"
        }
      ],
      "stateMutability": "view",
      "type": "function"
    },
    {
      "inputs": [],
      "name": "MAX_REWARD_RATE",
      "outputs": [
        {
          "internalType": "uint256",
          "name": "",
          "type": "uint256"
        }
      ],
      "stateMutability": "view",
      "type": "function"
    },
    {
      "inputs": [],
      "name": "MIN_STAKE_AMOUNT",
      "outputs": [
        {
          "internalType": "uint256",
          "name": "",
          "type": "uint256"
        }
      ],
      "stateMutability": "view",
      "type": "function"
    },
    {
      "inputs": [],
      "name": "PRECISION",
      "outputs": [
        {
          "internalType": "uint256",
          "name": "",
          "type": "uint256"
        }
      ],
      "stateMutability": "view",
      "type": "function"
    },
    {
      "inputs": [],
      "name": "RAGE_QUIT_PENALTY",
      "outputs": [
        {
          "internalType": "uint256",
          "name": "",
          "type": "uint256"
        }
      ],
      "stateMutability": "view",
      "type": "function"
    },
    {
      "inputs": [],
      "name": "REWARD_DISTRIBUTOR_ROLE",
      "outputs": [
        {
          "internalType": "bytes32",
          "name": "",
          "type": "bytes32"
        }
      ],
      "stateMutability": "view",
      "type": "function"
    },
    {
      "inputs": [],
      "name": "SLASHER_ROLE",
      "outputs": [
        {
          "internalType": "bytes32",
          "name": "",
          "type": "bytes32"
        }
      ],
      "stateMutability": "view",
      "type": "function"
    },
    {
      "inputs": [
        {
          "internalType": "enum GameStaking.StakingPurpose",
          "name": "purpose",
          "type": "uint8"
        }
      ],
      "name": "claimRewards",
      "outputs": [],
      "stateMutability": "nonpayable",
      "type": "function"
    },
    {
      "inputs": [
        {
          "internalType": "enum GameStaking.StakingPurpose",
          "name": "purpose",
          "type": "uint8"
        },
        {
          "internalType": "uint256",
          "name": "amount",
          "type": "uint256"
        }
      ],
      "name": "distributeRewards",
      "outputs": [],
      "stateMutability": "nonpayable",
      "type": "function"
    },
    {
      "inputs": [
        {
          "internalType": "address",
          "name": "token",
          "type": "address"
        },
        {
          "internalType": "uint256",
          "name": "amount",
          "type": "uint256"
        }
      ],
      "name": "emergencyWithdraw",
      "outputs": [],
      "stateMutability": "nonpayable",
      "type": "function"
    },
    {
      "inputs": [],
      "name": "gameToken",
      "outputs": [
        {
          "internalType": "contract IERC20",
          "name": "",
          "type": "address"
        }
      ],
      "stateMutability": "view",
      "type": "function"
    },
    {
      "inputs": [
        {
          "internalType": "address",
          "name": "user",
          "type": "address"
        },
        {
          "internalType": "enum GameStaking.StakingPurpose",
          "name": "purpose",
          "type": "uint8"
        }
      ],
      "name": "getPendingRewards",
      "outputs": [
        {
          "internalType": "uint256",
          "name": "",
          "type": "uint256"
        }
      ],
      "stateMutability": "view",
      "type": "function"
    },
    {
      "inputs": [
        {
          "internalType": "enum GameStaking.StakingPurpose",
          "name": "purpose",
          "type": "uint8"
        }
      ],
      "name": "getPoolInfo",
      "outputs": [
        {
          "internalType": "uint256",
          "name": "totalStaked",
          "type": "uint256"
        },
        {
          "internalType": "uint256",
          "name": "rewardRate",
          "type": "uint256"
        },
        {
          "internalType": "uint256",
          "name": "totalRewardsDistributed",
          "type": "uint256"
        },
        {
          "internalType": "bool",
          "name": "active",
          "type": "bool"
        }
      ],
      "stateMutability": "view",
      "type": "function"
    },
    {
      "inputs": [
        {
          "internalType": "bytes32",
          "name": "role",
          "type": "bytes32"
        }
      ],
      "name": "getRoleAdmin",
      "outputs": [
        {
          "internalType": "bytes32",
          "name": "",
          "type": "bytes32"
        }
      ],
      "stateMutability": "view",
      "type": "function"
    },
    {
      "inputs": [
        {
          "internalType": "address",
          "name": "user",
          "type": "address"
        },
        {
          "internalType": "enum GameStaking.StakingPurpose",
          "name": "purpose",
          "type": "uint8"
        }
      ],
      "name": "getStakeInfo",
      "outputs": [
        {
          "internalType": "uint256",
          "name": "amount",
          "type": "uint256"
        },
        {
          "internalType": "uint256",
          "name": "pendingRewards",
          "type": "uint256"
        },
        {
          "internalType": "uint256",
          "name": "stakedAt",
          "type": "uint256"
        },
        {
          "internalType": "enum GameStaking.UnstakingStrategy",
          "name": "strategy",
          "type": "uint8"
        }
      ],
      "stateMutability": "view",
      "type": "function"
    },
    {
      "inputs": [
        {
          "internalType": "bytes32",
          "name": "role",
          "type": "bytes32"
        },
        {
          "internalType": "address",
          "name": "account",
          "type": "address"
        }
      ],
      "name": "grantRole",
      "outputs": [],
      "stateMutability": "nonpayable",
      "type": "function"
    },
    {
      "inputs": [
        {
          "internalType": "bytes32",
          "name": "role",
          "type": "bytes32"
        },
        {
          "internalType": "address",
          "name": "account",
          "type": "address"
        }
      ],
      "name": "hasRole",
      "outputs": [
        {
          "internalType": "bool",
          "name": "",
          "type": "bool"
        }
      ],
      "stateMutability": "view",
      "type": "function"
    },
    {
      "inputs": [],
      "name": "pause",
      "outputs": [],
      "stateMutability": "nonpayable",
      "type": "function"
    },
    {
      "inputs": [],
      "name": "paused",
      "outputs": [
        {
          "internalType": "bool",
          "name": "",
          "type": "bool"
        }
      ],
      "stateMutability": "view",
      "type": "function"
    },
    {
      "inputs": [
        {
          "internalType": "enum GameStaking.StakingPurpose",
          "name": "purpose",
          "type": "uint8"
        },
        {
          "internalType": "uint256",
          "name": "requestId",
          "type": "uint256"
        }
      ],
      "name": "processUnstake",
      "outputs": [],
      "stateMutability": "nonpayable",
      "type": "function"
    },
    {
      "inputs": [],
      "name": "protocolFeeShare",
      "outputs": [
        {
          "internalType": "uint256",
          "name": "",
          "type": "uint256"
        }
      ],
      "stateMutability": "view",
      "type": "function"
    },
    {
      "inputs": [
        {
          "internalType": "bytes32",
          "name": "role",
          "type": "bytes32"
        },
        {
          "internalType": "address",
          "name": "account",
          "type": "address"
        }
      ],
      "name": "renounceRole",
      "outputs": [],
      "stateMutability": "nonpayable",
      "type": "function"
    },
    {
      "inputs": [
        {
          "internalType": "enum GameStaking.StakingPurpose",
          "name": "purpose",
          "type": "uint8"
        },
        {
          "internalType": "uint256",
          "name": "amount",
          "type": "uint256"
        },
        {
          "internalType": "enum GameStaking.UnstakingStrategy",
          "name": "strategy",
          "type": "uint8"
        }
      ],
      "name": "requestUnstake",
      "outputs": [],
      "stateMutability": "nonpayable",
      "type": "function"
    },
    {
      "inputs": [
        {
          "internalType": "bytes32",
          "name": "role",
          "type": "bytes32"
        },
        {
          "internalType": "address",
          "name": "account",
          "type": "address"
        }
      ],
      "name": "revokeRole",
      "outputs": [],
      "stateMutability": "nonpayable",
      "type": "function"
    },
    {
      "inputs": [
        {
          "internalType": "uint256",
          "name": "_protocolFeeShare",
          "type": "uint256"
        }
      ],
      "name": "setProtocolFeeShare",
      "outputs": [],
      "stateMutability": "nonpayable",
      "type": "function"
    },
    {
      "inputs": [
        {
          "internalType": "address",
          "name": "_treasury",
          "type": "address"
        }
      ],
      "name": "setTreasury",
      "outputs": [],
      "stateMutability": "nonpayable",
      "type": "function"
    },
    {
      "inputs": [
        {
          "internalType": "address",
          "name": "user",
          "type": "address"
        },
        {
          "internalType": "enum GameStaking.StakingPurpose",
          "name": "purpose",
          "type": "uint8"
        },
        {
          "internalType": "uint256",
          "name": "amount",
          "type": "uint256"
        },
        {
          "internalType": "string",
          "name": "reason",
          "type": "string"
        }
      ],
      "name": "slash",
      "outputs": [],
      "stateMutability": "nonpayable",
      "type": "function"
    },
    {
      "inputs": [
        {
          "internalType": "address",
          "name": "",
          "type": "address"
        }
      ],
      "name": "slashedUsers",
      "outputs": [
        {
          "internalType": "bool",
          "name": "",
          "type": "bool"
        }
      ],
      "stateMutability": "view",
      "type": "function"
    },
    {
      "inputs": [
        {
          "internalType": "enum GameStaking.StakingPurpose",
          "name": "purpose",
          "type": "uint8"
        },
        {
          "internalType": "uint256",
          "name": "amount",
          "type": "uint256"
        },
        {
          "internalType": "enum GameStaking.UnstakingStrategy",
          "name": "preferredStrategy",
          "type": "uint8"
        }
      ],
      "name": "stake",
      "outputs": [],
      "stateMutability": "nonpayable",
      "type": "function"
    },
    {
      "inputs": [
        {
          "internalType": "enum GameStaking.StakingPurpose",
          "name": "",
          "type": "uint8"
        }
      ],
      "name": "stakingPools",
      "outputs": [
        {
          "internalType": "uint256",
          "name": "totalStaked",
          "type": "uint256"
        },
        {
          "internalType": "uint256",
          "name": "rewardRate",
          "type": "uint256"
        },
        {
          "internalType": "uint256",
          "name": "lastUpdateTime",
          "type": "uint256"
        },
        {
          "internalType": "uint256",
          "name": "rewardPerTokenStored",
          "type": "uint256"
        },
        {
          "internalType": "uint256",
          "name": "totalRewardsDistributed",
          "type": "uint256"
        },
        {
          "internalType": "bool",
          "name": "active",
          "type": "bool"
        }
      ],
      "stateMutability": "view",
      "type": "function"
    },
    {
      "inputs": [
        {
          "internalType": "bytes4",
          "name": "interfaceId",
          "type": "bytes4"
        }
      ],
      "name": "supportsInterface",
      "outputs": [
        {
          "internalType": "bool",
          "name": "",
          "type": "bool"
        }
      ],
      "stateMutability": "view",
      "type": "function"
    },
    {
      "inputs": [],
      "name": "totalRewardsPool",
      "outputs": [
        {
          "internalType": "uint256",
          "name": "",
          "type": "uint256"
        }
      ],
      "stateMutability": "view",
      "type": "function"
    },
    {
      "inputs": [],
      "name": "totalSlashed",
      "outputs": [
        {
          "internalType": "uint256",
          "name": "",
          "type": "uint256"
        }
      ],
      "stateMutability": "view",
      "type": "function"
    },
    {
      "inputs": [],
      "name": "treasury",
      "outputs": [
        {
          "internalType": "address",
          "name": "",
          "type": "address"
        }
      ],
      "stateMutability": "view",
      "type": "function"
    },
    {
      "inputs": [],
      "name": "unpause",
      "outputs": [],
      "stateMutability": "nonpayable",
      "type": "function"
    },
    {
      "inputs": [
        {
          "internalType": "address",
          "name": "",
          "type": "address"
        },
        {
          "internalType": "uint256",
          "name": "",
          "type": "uint256"
        }
      ],
      "name": "unstakeRequests",
      "outputs": [
        {
          "internalType": "uint256",
          "name": "amount",
          "type": "uint256"
        },
        {
          "internalType": "uint256",
          "name": "requestTime",
          "type": "uint256"
        },
        {
          "internalType": "enum GameStaking.UnstakingStrategy",
          "name": "strategy",
          "type": "uint8"
        },
        {
          "internalType": "bool",
          "name": "processed",
          "type": "bool"
        }
      ],
      "stateMutability": "view",
      "type": "function"
    },
    {
      "inputs": [
        {
          "internalType": "enum GameStaking.StakingPurpose",
          "name": "purpose",
          "type": "uint8"
        },
        {
          "internalType": "uint256",
          "name": "newRewardRate",
          "type": "uint256"
        },
        {
          "internalType": "bool",
          "name": "active",
          "type": "bool"
        }
      ],
      "name": "updatePool",
      "outputs": [],
      "stateMutability": "nonpayable",
      "type": "function"
    },
    {
      "inputs": [
        {
          "internalType": "address",
          "name": "",
          "type": "address"
        },
        {
          "internalType": "enum GameStaking.StakingPurpose",
          "name": "",
          "type": "uint8"
        }
      ],
      "name": "userStakes",
      "outputs": [
        {
          "internalType": "uint256",
          "name": "amount",
          "type": "uint256"
        },
        {
          "internalType": "uint256",
          "name": "rewardPerTokenPaid",
          "type": "uint256"
        },
        {
          "internalType": "uint256",
          "name": "pendingRewards",
          "type": "uint256"
        },
        {
          "internalType": "uint256",
          "name": "stakedAt",
          "type": "uint256"
        },
        {
          "internalType": "uint256",
          "name": "lastClaimTime",
          "type": "uint256"
        },
        {
          "internalType": "enum GameStaking.UnstakingStrategy",
          "name": "preferredStrategy",
          "type": "uint8"
        }
      ],
      "stateMutability": "view",
      "type": "function"
    },
    {
      "inputs": [
        {
          "internalType": "address",
          "name": "",
          "type": "address"
        }
      ],
      "name": "userUnstakeRequestCount",
      "outputs": [
        {
          "internalType": "uint256",
          "name": "",
          "type": "uint256"
        }
      ],
      "stateMutability": "view",
      "type": "function"
    }
  ],
  "bytecode": "0x60a034620004a557601f62002d3538819003918201601f1916830191906001600160401b03831184841017620004aa578160609285926040958652833981010312620004a5576200005082620004e0565b9160208262000061828401620004e0565b92015160019081805560029384549060018060a01b038098169788156200046c5781161562000435576127108311620003fd5760809788526001600160a81b0319909116600891821b610100600160a81b03161785555560008080528083528481203382528352848120546200031c949360059390929187919060ff1615620003c6575b7fa49807205ce4d355092ef5a8a18f56e8913cf4a201fbe287825b095693c21775808452838552828420338552855260ff8385205416156200038d575b507fb814ff4a26ea3ec5cd1fa579daad86324826254265f3acfec78303a19845b449808452838552828420338552855260ff83852054161562000354575b50620001d26200016f620004c0565b8481528686820161012c81528583014281528d606085019089825285019189835260a08601938885528a80526003998a8d528b20965187555188870155518c860155518785015551600484015551151591019060ff801983541691151516179055565b62000241620001e0620004c0565b848152868a87830161032081528d82850142815260608601918a83528601928a845260a0870194898652898c528a8d528b20965187555188870155518c860155518785015551600484015551151591019060ff801983541691151516179055565b620002b16200024f620004c0565b84815286888b8d8985016104b081528286019042825260608701928b84528701938b855260a08801958a87528c528a8d528b20965187555188870155518c860155518785015551600484015551151591019060ff801983541691151516179055565b620002bb620004c0565b958387528487019161025883528988019042825260608901938685528b8d8b01978089528760a08d019a858c52818352522099518a5551908901555190870155519085015551600484015551151591019060ff801983541691151516179055565b5161281f9182620004f68339518181816103fe0152818161075601528181610f64015281816112b101528181611686015261180b0152f35b80845283855282842033855285528284208260ff198254161790553390339060008051602062002d158339815191528680a43862000160565b80845283855282842033855285528284208260ff198254161790553390339060008051602062002d158339815191528680a43862000122565b82805282845281832033845284528183208160ff1982541617905533338460008051602062002d158339815191528180a4620000e5565b865162461bcd60e51b8152600481018690526011602482015270496e76616c69642066656520736861726560781b6044820152606490fd5b865162461bcd60e51b815260048101869052601060248201526f496e76616c696420747265617375727960801b6044820152606490fd5b875162461bcd60e51b815260048101879052601260248201527124b73b30b634b21033b0b6b2903a37b5b2b760711b6044820152606490fd5b600080fd5b634e487b7160e01b600052604160045260246000fd5b6040519060c082016001600160401b03811183821017620004aa57604052565b51906001600160a01b0382168203620004a55756fe6080604081815260048036101561001557600080fd5b600092833560e01c90816301ffc9a714611a205750806309155c1a14611a035780630dbe9f601461198d57806321e4c90a146116f8578063236aed60146115e0578063248a9ca3146115b757806327ed7188146107bd5780632ef3ff6f146115985780632f2ff15d146114f057806332e4bb0a146114b557806336568abe146114235780633f02261e146112445780633f4ba83a146111af5780635095af64146111745780635b1ff28d14610df25780635c975abb14610dce57806361d027b314610da157806366442a0614610d31578063718dc3c314610d1457806375b238fc14610cd9578063772c5dc514610c125780638078d79614610bd45780638456cb5914610b795780638831680814610b565780638dbb73e3146109e457806391d148541461099f57806395ccea671461095d578063960b26a21461093e5780639ee8015a14610867578063a03267d2146107fc578063a201bbdd146107dd578063a217fddf146107c2578063aaf5eb68146107bd578063b492817514610785578063c3dfdae614610741578063d547741f14610704578063dbce8ef51461038e578063e1f1c4a71461036d578063ebdaae4a146102e0578063f0f442601461024e5763f742919b146101e657600080fd5b3461024a57602036600319011261024a57803591610202611c22565b612710831161021357505060085580f35b906020606492519162461bcd60e51b83528201526011602482015270496e76616c69642066656520736861726560781b6044820152fd5b8280fd5b503461024a57602036600319011261024a57610268611a8f565b91610271611c22565b6001600160a01b038316156102aa57505060028054610100600160a81b03191660089290921b610100600160a81b031691909117905580f35b906020606492519162461bcd60e51b8352820152601060248201526f496e76616c696420747265617375727960801b6044820152fd5b50823461036a57602036600319011261036a578135908282101561036a575060809261030d60a092611ad4565b9080519361031a85611bc8565b82549485815260ff60056001860154938460208501526002870154868501526003870154606085015286015495868a85015201541615159485910152815194855260208501528301526060820152f35b80fd5b50503461038a578160031936011261038a57602090516127108152f35b5080fd5b5091903461038a5761039f36611b28565b7fb814ff4a26ea3ec5cd1fa579daad86324826254265f3acfec78303a19845b449929192808552602090858252838620338752825260ff84872054161561054e5750811561051b576103f084611ad4565b54156104ec576104228230337f00000000000000000000000000000000000000000000000000000000000000006121d0565b61042b84612527565b61043484611ad4565b670de0b6b3a76400008302670de0b6b3a763ffff19848204016104d9579061045f889282549061243b565b61046e60038301918254611fed565b90550161047c838254611fed565b905561048a82600754611fed565b600755858410156104c657825191825242908201527ff6386a1d251141cfd2a6deda788c887394a348909c80098adcbf9005afb78e3d9190a280f35b634e487b7160e01b855260218652602485fd5b634e487b7160e01b875260118852602487fd5b8560649184519162461bcd60e51b8352820152600a6024820152694e6f207374616b65727360b01b6044820152fd5b8560649184519162461bcd60e51b8352820152600e60248201526d125b9d985b1a5908185b5bdd5b9d60921b6044820152fd5b8387918761055b33612021565b9183519061056882611b96565b604282528682019260603685378251156106f157603084538251906001918210156106de5790607860218501536041915b8183116106735750505061064457604861061793859361062693610640975196879376020b1b1b2b9b9a1b7b73a3937b61d1030b1b1b7bab73a1604d1b8c8601526105ee8c8251928391603789019101611f08565b8401917001034b99036b4b9b9b4b733903937b6329607d1b603784015251809386840190611f08565b01036028810185520183611be4565b5193849362461bcd60e51b85528401526024830190611f2b565b0390fd5b606485878087519262461bcd60e51b845283015260248201526000805160206127ca8339815191526044820152fd5b909192600f811660108110156106cb576f181899199a1a9b1b9c1cb0b131b232b360811b901a6106a38587611ffa565b53881c9280156106b857600019019190610599565b634e487b7160e01b825260118952602482fd5b634e487b7160e01b835260328a52602483fd5b634e487b7160e01b815260328852602490fd5b634e487b7160e01b815260328752602490fd5b50903461024a578060031936011261024a5761073e91356107396001610728611a74565b938387528660205286200154611dfe565b611f50565b80f35b50503461038a578160031936011261038a57517f00000000000000000000000000000000000000000000000000000000000000006001600160a01b03168152602090f35b50503461038a57602036600319011261038a5760209181906001600160a01b036107ad611a8f565b1681526006845220549051908152f35b611b47565b50503461038a578160031936011261038a5751908152602090f35b50503461038a578160031936011261038a57602090600a549051908152f35b50903461024a57602036600319011261024a578135928284101561036a575061082660c093611ad4565b80549260018201549260028301549060ff600560038601549486015495015416948151968752602087015285015260608401526080830152151560a0820152f35b50903461024a57606036600319011261024a578135918083101561093a5760243590604435908115158092036109365761089f611c22565b6103e883116109035750907f41082e228bfb59a58684319a72610979c7f9905cdaab0992eb07cd099ad315be92916108d685612527565b60056108e186611ad4565b8360018201550160ff1981541660ff831617905582519182526020820152a280f35b606490602085519162461bcd60e51b8352820152600d60248201526c0a4c2e8ca40e8dede40d0d2ced609b1b6044820152fd5b8580fd5b8380fd5b50503461038a578160031936011261038a576020906008549051908152f35b50503461038a5736600319011261036a5761073e610979611a8f565b610981611c22565b600254602435916001600160a01b0360089290921c82169116612468565b503461024a578160031936011261024a578160209360ff926109bf611a74565b903582528186528282206001600160a01b039091168252855220549151911615158152f35b503461024a576109f336611b6a565b909291936109ff61217a565b610a07612136565b338652602091838352610a2885610a2088858b20611b03565b5410156123ee565b610a3233876124a6565b33875260068352818720805493906000198514610b4357600185019055610a58826125d1565b948351610a6481611b96565b8781528960028483019242845287810193610a7f888661242f565b886060830194808652338152600589528181208c8252895220915182555160018201550191516003811015610b3057610ab8908361211e565b51815461ff00191690151560081b61ff001617905580881015610b1d575090610ae8918351968752860190611b1b565b83015260608201527f76a39c4b571a1ec5ab10d418f85f86574d84c5fb52b25e5851bc4df4bb4848d660803392a36001805580f35b634e487b7160e01b895260219052602488fd5b634e487b7160e01b8c526021845260248cfd5b634e487b7160e01b895260118652602489fd5b50503461038a57602090610b72610b6c36611aa5565b90612666565b9051908152f35b50503461038a578160031936011261038a5760207f62e78cea01bee320cd4e420270b5ea74000d11b0c9f74754ebdbfc544b05a25891610bb7611c22565b610bbf612136565b600160ff19600254161760025551338152a180f35b50503461038a57602036600319011261038a5760209160ff9082906001600160a01b03610bff611a8f565b1681526009855220541690519015158152f35b50913461036a57610c3f610c2536611aa5565b6001600160a01b0390911683526020859052838320611b03565b91805190610c4c82611bc8565b835482526001840154602083015260028401549381830194855260ff60056003830154926060860193845288810154608087015201541692610c9260a08201948561242f565b51945190519251936003851015610cc657608086610cc487878787815195865260208601528401526060830190611b1b565bf35b634e487b7160e01b815260218752602490fd5b50503461038a578160031936011261038a57602090517fa49807205ce4d355092ef5a8a18f56e8913cf4a201fbe287825b095693c217758152f35b50503461038a578160031936011261038a57602090516103e88152f35b50503461038a578060031936011261038a5760809160ff9082906001600160a01b03610d5b611a8f565b1681526005602052818120602435825260205220610d948154936002600184015493015492815195865260208601528401838316611b1b565b60081c1615156060820152f35b50503461038a578160031936011261038a57600254905160089190911c6001600160a01b03168152602090f35b50503461038a578160031936011261038a5760209060ff6002541690519015158152f35b503461024a57608036600319011261024a57610e0c611a8f565b9060248035928284101561093657604435916064359167ffffffffffffffff83116111705736602384011215611170578285013588610e4a82611c06565b94610e578a519687611be4565b8286523685848301011161038a5782859360209687930183890137860101527f12b42e8a160f6064dc959c6f251e3af0750ad213dbecf573b4710d67d6c28e39808a52898452888a20338b52845260ff898b20541615610feb575060018060a01b039182811696878b52808552610ed0898b8d20611b03565b9287845410610fa957505092610f88867f353d8e6d40da95de32be2fc60b4b208c6ea4d018b991562ba3e60c2ca27998ff979694606094610f14610f9a988d6124a6565b610f1f83825461245b565b9055610f2a8b611ad4565b610f3583825461245b565b9055610f4382600a54611fed565b600a55898d52600984528b8d20805460ff1916600117905560025460081c167f0000000000000000000000000000000000000000000000000000000000000000612468565b88519485528401526060830190611f2b565b9442908201528033950390a480f35b8a5162461bcd60e51b8152918201869052601b908201527f496e73756666696369656e74207374616b6520746f20736c61736800000000006044820152606490fd5b86925088908a610ffa33612021565b9183519061100782611b96565b6042825287820192606036853782511561115e576030845382519060019182101561114c5790607860218501536041915b8183116110e3575050506110b55760486106409593859361109d9361108e975197889376020b1b1b2b9b9a1b7b73a3937b61d1030b1b1b7bab73a1604d1b8d8601526105ee8d8251928391603789019101611f08565b01036028810186520184611be4565b5194859462461bcd60e51b8652850152830190611f2b565b60648688878188519362461bcd60e51b85528401528201526000805160206127ca8339815191526044820152fd5b909192600f8116601081101561113a576f181899199a1a9b1b9c1cb0b131b232b360811b901a6111138587611ffa565b53891c92801561112857600019019190611038565b634e487b7160e01b825260118a528882fd5b634e487b7160e01b835260328b528983fd5b634e487b7160e01b8152603289528790fd5b634e487b7160e01b8152603288528690fd5b8780fd5b50503461038a578160031936011261038a57602090517f12b42e8a160f6064dc959c6f251e3af0750ad213dbecf573b4710d67d6c28e398152f35b503461024a578260031936011261024a576111c8611c22565b6002549060ff82161561120a575060ff1916600255513381527f5db9ee0a495bf2e6ff9c91a7834c1ba4fdd244a5e8aa4e537bd38aeae4b073aa90602090a180f35b606490602084519162461bcd60e51b8352820152601460248201527314185d5cd8589b194e881b9bdd081c185d5cd95960621b6044820152fd5b50903461024a5761125436611b6a565b9092919361126061217a565b611268612136565b670de0b6b3a764000084106113ed5760ff600561128487611ad4565b015416156113b857338652600960205260ff8387205416611383576112a933866124a6565b6112d58430337f00000000000000000000000000000000000000000000000000000000000000006121d0565b3386528060205261130c8260056112ee88878b20611b03565b6112f9888254611fed565b815542600382015542858201550161211e565b61131585611ad4565b611320858254611fed565b905580851015611370575061133e9082519384526020840190611b1b565b42908201527feb411004633ccee9f7ddd55b7e37b34d5b21acc188fdd99b4a7d409de2bbe2d760603392a36001805580f35b634e487b7160e01b865260219052602485fd5b606490602084519162461bcd60e51b8352820152600f60248201526e155cd95c881a5cc81cdb185cda1959608a1b6044820152fd5b606490602084519162461bcd60e51b8352820152600f60248201526e506f6f6c206e6f742061637469766560881b6044820152fd5b606490602084519162461bcd60e51b8352820152601060248201526f105b5bdd5b9d081d1bdbc81cdb585b1b60821b6044820152fd5b5082903461038a578260031936011261038a5761143e611a74565b90336001600160a01b0383160361145a579061073e9135611f50565b608490602085519162461bcd60e51b8352820152602f60248201527f416363657373436f6e74726f6c3a2063616e206f6e6c792072656e6f756e636560448201526e103937b632b9903337b91039b2b63360891b6064820152fd5b50503461038a578160031936011261038a57602090517fb814ff4a26ea3ec5cd1fa579daad86324826254265f3acfec78303a19845b4498152f35b503461024a578160031936011261024a57359061150b611a74565b908284528360205261152260018286200154611dfe565b82845260208481528185206001600160a01b039093168086529290528084205460ff161561154e578380f35b828452836020528084208285526020528320600160ff1982541617905533917f2f8788117e7eff1d82e926ec794901d17c78024a50270940304540a733656f0d8480a43880808380f35b50503461038a578160031936011261038a576020906007549051908152f35b503461024a57602036600319011261024a57816020936001923581528085522001549051908152f35b50903461024a57602036600319011261024a578135918083101561093a5761160661217a565b61160e612136565b61161833846124a6565b3384528060205261162b83838620611b03565b600281019182549283156116bf578360ff600561167e957fe6096b6f53939bee85b6372b9662ba25ae4fb35ad06aef7e246629fa2623783f97958b61167896554290820155015416612634565b90611fed565b916116aa83337f0000000000000000000000000000000000000000000000000000000000000000612468565b80519283524260208401523392a36001805580f35b845162461bcd60e51b815260208184015260136024820152724e6f207265776172647320746f20636c61696d60681b6044820152606490fd5b503461024a5761170736611b28565b61171293919361217a565b61171a612136565b33855260209060058252828620908652815281852090600282019384549460ff8660081c166119575784519561174f87611b96565b84549687815289606060018801549287810193845261177460ff8b830196168661242f565b01525190516003811015611944579061167861178f9261260b565b421061190d573388528183526117b46117aa88878b20611b03565b96875410156123ee565b6117be33886124a6565b87938054968760ff84541660038110156118fa57156118b7575b6117e390825461245b565b9055546117fa6117f289611ad4565b91825461245b565b9055805461ff0019166101001790557f0000000000000000000000000000000000000000000000000000000000000000611835863383612468565b8380611894575b5050808610156118815750825193845283015242908201527f297955eed5bc2490d7428881136ec482851be7473171f1d7ce274a06f7cbfd0260603392a36001805580f35b634e487b7160e01b875260219052602486fd5b6002546118b09260089190911c6001600160a01b031690612468565b388361183c565b9795506107d08087029087820414871517156118e7576118df6127106117e39204809861245b565b9890506117d8565b634e487b7160e01b8b526011855260248bfd5b634e487b7160e01b8c526021865260248cfd5b5060649184519162461bcd60e51b8352820152601260248201527110d85b9b9bdd081c1c9bd8d95cdcc81e595d60721b6044820152fd5b634e487b7160e01b8a526021845260248afd5b5060649184519162461bcd60e51b83528201526011602482015270105b1c9958591e481c1c9bd8d95cdcd959607a1b6044820152fd5b50903461024a57806119c160c094610cc4936119a836611aa5565b6001600160a01b03909116835260208790529120611b03565b80549360018201549260028301549060ff60056003860154948601549501541694815197885260208801528601526060850152608084015260a0830190611b1b565b50503461038a578160031936011261038a57602090516107d08152f35b9250503461024a57602036600319011261024a573563ffffffff60e01b811680910361024a5760209250637965db0b60e01b8114908115611a63575b5015158152f35b6301ffc9a760e01b14905038611a5c565b602435906001600160a01b0382168203611a8a57565b600080fd5b600435906001600160a01b0382168203611a8a57565b6040906003190112611a8a576004356001600160a01b0381168103611a8a57906024356004811015611a8a5790565b6004811015611aed576000526003602052604060002090565b634e487b7160e01b600052602160045260246000fd5b906004811015611aed57600052602052604060002090565b906003821015611aed5752565b6040906003190112611a8a576004356004811015611a8a579060243590565b34611a8a576000366003190112611a8a576020604051670de0b6b3a76400008152f35b6060906003190112611a8a576004356004811015611a8a5790602435906044356003811015611a8a5790565b6080810190811067ffffffffffffffff821117611bb257604052565b634e487b7160e01b600052604160045260246000fd5b60c0810190811067ffffffffffffffff821117611bb257604052565b90601f8019910116810190811067ffffffffffffffff821117611bb257604052565b67ffffffffffffffff8111611bb257601f01601f191660200190565b3360009081527f7d7ffb7a348e1c6a02869081a26547b49160dd3df72d1d75a570eb9b698292ec602090815260408083205490927fa49807205ce4d355092ef5a8a18f56e8913cf4a201fbe287825b095693c217759160ff1615611c865750505050565b611c8f33612021565b91845190611c9c82611b96565b60428252848201926060368537825115611dea5760308453825190600191821015611dea5790607860218501536041915b818311611d7c57505050611d4c576048610640938693611d3093611d21985198899376020b1b1b2b9b9a1b7b73a3937b61d1030b1b1b7bab73a1604d1b8a8601526105ee815180928c603789019101611f08565b01036028810187520185611be4565b5192839262461bcd60e51b845260048401526024830190611f2b565b60648486519062461bcd60e51b825280600483015260248201526000805160206127ca8339815191526044820152fd5b909192600f81166010811015611dd6576f181899199a1a9b1b9c1cb0b131b232b360811b901a611dac8587611ffa565b5360041c928015611dc257600019019190611ccd565b634e487b7160e01b82526011600452602482fd5b634e487b7160e01b83526032600452602483fd5b634e487b7160e01b81526032600452602490fd5b600090808252602090828252604092838120338252835260ff848220541615611e275750505050565b611e3033612021565b91845190611e3d82611b96565b60428252848201926060368537825115611dea5760308453825190600191821015611dea5790607860218501536041915b818311611ec257505050611d4c576048610640938693611d3093611d21985198899376020b1b1b2b9b9a1b7b73a3937b61d1030b1b1b7bab73a1604d1b8a8601526105ee815180928c603789019101611f08565b909192600f81166010811015611dd6576f181899199a1a9b1b9c1cb0b131b232b360811b901a611ef28587611ffa565b5360041c928015611dc257600019019190611e6e565b60005b838110611f1b5750506000910152565b8181015183820152602001611f0b565b90602091611f4481518092818552858086019101611f08565b601f01601f1916010190565b9060009180835282602052604083209160018060a01b03169182845260205260ff604084205416611f8057505050565b80835282602052604083208284526020526040832060ff1981541690557ff6391f5c32d9c69d2a47ea670b442974b53935d1edc7fd64eb21e047a839171b339380a4565b81810292918115918404141715611fd757565b634e487b7160e01b600052601160045260246000fd5b91908201809211611fd757565b90815181101561200b570160200190565b634e487b7160e01b600052603260045260246000fd5b604051906060820182811067ffffffffffffffff821117611bb257604052602a825260208201604036823782511561200b5760309053815160019081101561200b57607860218401536029905b8082116120b057505061207e5790565b606460405162461bcd60e51b815260206004820152602060248201526000805160206127ca8339815191526044820152fd5b9091600f81166010811015612109576f181899199a1a9b1b9c1cb0b131b232b360811b901a6120df8486611ffa565b5360041c9180156120f457600019019061206e565b60246000634e487b7160e01b81526011600452fd5b60246000634e487b7160e01b81526032600452fd5b906003811015611aed5760ff80198354169116179055565b60ff6002541661214257565b60405162461bcd60e51b815260206004820152601060248201526f14185d5cd8589b194e881c185d5cd95960821b6044820152606490fd5b60026001541461218b576002600155565b60405162461bcd60e51b815260206004820152601f60248201527f5265656e7472616e637947756172643a207265656e7472616e742063616c6c006044820152606490fd5b6040516323b872dd60e01b60208201526001600160a01b03928316602482015292909116604483015260648083019390935291815260a081019181831067ffffffffffffffff841117611bb2576122299260405261222b565b565b60018060a01b031690604051604081019080821067ffffffffffffffff831117611bb2576122bb916040526020938482527f5361666545524332303a206c6f772d6c6576656c2063616c6c206661696c6564858301526000808587829751910182855af13d15612351573d916122a083611c06565b926122ae6040519485611be4565b83523d868885013e612355565b80519182159184831561232d575b5050509050156122d65750565b6084906040519062461bcd60e51b82526004820152602a60248201527f5361666545524332303a204552433230206f7065726174696f6e20646964206e6044820152691bdd081cdd58d8d9595960b21b6064820152fd5b91938180945001031261038a5782015190811515820361036a5750803880846122c9565b6060915b919290156123b75750815115612369575090565b3b156123725790565b60405162461bcd60e51b815260206004820152601d60248201527f416464726573733a2063616c6c20746f206e6f6e2d636f6e74726163740000006044820152606490fd5b8251909150156123ca5750805190602001fd5b60405162461bcd60e51b815260206004820152908190610640906024830190611f2b565b156123f557565b60405162461bcd60e51b8152602060048201526012602482015271496e73756666696369656e74207374616b6560701b6044820152606490fd5b6003821015611aed5752565b8115612445570490565b634e487b7160e01b600052601260045260246000fd5b91908203918211611fd757565b60405163a9059cbb60e01b60208201526001600160a01b039092166024830152604480830193909352918152612229916124a182611b96565b61222b565b60036124da6001926124b781612527565b6124c081611ad4565b94848060a01b031660005260046020526040600020611b03565b928354806124eb575b500154910155565b61250f670de0b6b3a76400009161250985850154878901549061245b565b90611fc4565b0461251f60028601918254611fed565b9055386124e3565b61253090611ad4565b805480156125c85760028201916301e1338061256761255085544261245b565b612710612561600186015487611fc4565b04611fc4565b0491821591821561257c575b50505050429055565b670de0b6b3a76400009283850293858504141715611fd7576125a36004926125bd9461243b565b6125b260038301918254611fed565b905501918254611fed565b905538808080612573565b50600242910155565b6003811015611aed57806125e457504290565b6001036125fb5762093a804201804211611fd75790565b62278d004201804211611fd75790565b6003811015611aed578061261f5750600090565b60010361262d5762093a8090565b62278d0090565b6003811015611aed5760021461264a5750600090565b6101f490818102918183041490151715611fd757612710900490565b61266f82611ad4565b916040519261267d84611bc8565b805484526126dd600182015492602086019384526002830154946040870195865260ff600560038601549560608a01968752600481015460808b0152015416151560a088015260018060a01b031660005260046020526040600020611b03565b92604051926126eb84611bc8565b845484526001850154916020850192835261273060ff600560028901549860408901998a52600381015460608a0152600481015460808a015201541660a0870161242f565b84511580156127c0575b6127b5576301e133809161271061256161275861276394514261245b565b928a51905190611fc4565b0494670de0b6b3a76400009384870296808804861490151715611fd7576127a06127aa946127996127b29961250995519061243b565b9051611fed565b905192519061245b565b049051611fed565b90565b505050505090505190565b5086511561273a56fe537472696e67733a20686578206c656e67746820696e73756666696369656e74a2646970667358221220b1168a133b544b116006af3fb8b9def1d83171c989a8e95f0f7845e7f92f7efc64736f6c634300081400332f8788117e7eff1d82e926ec794901d17c78024a50270940304540a733656f0d",
  "linkReferences": {},
  "deployedLinkReferences": {}
}