{
  "_format": "hh-sol-artifact-1",
  "contractName": "Identity",
  "sourceName": "contracts/modules/Identity/Identity.sol",
  "abi": [
    {
      "inputs": [],
      "stateMutability": "nonpayable",
      "type": "constructor"
    },
    {
      "inputs": [
        {
          "internalType": "address",
          "name": "token",
          "type": "address"
        },
        {
          "internalType": "uint256",
          "name": "required",
          "type": "uint256"
        },
        {
          "internalType": "uint256",
          "name": "available",
          "type": "uint256"
        }
      ],
      "name": "InsufficientTokenBalance",
      "type": "error"
    },
    {
      "inputs": [
        {
          "internalType": "bytes8",
          "name": "name",
          "type": "bytes8"
        }
      ],
      "name": "InvalidNameFormat",
      "type": "error"
    },
    {
      "inputs": [],
      "name": "InvalidRegistryAddress",
      "type": "error"
    },
    {
      "inputs": [
        {
          "internalType": "uint256",
          "name": "amount",
          "type": "uint256"
        }
      ],
      "name": "InvalidStakeAmount",
      "type": "error"
    },
    {
      "inputs": [
        {
          "internalType": "uint256",
          "name": "duration",
          "type": "uint256"
        }
      ],
      "name": "InvalidStakeDuration",
      "type": "error"
    },
    {
      "inputs": [],
      "name": "ModuleAlreadyInitialized",
      "type": "error"
    },
    {
      "inputs": [],
      "name": "ModuleNotInitialized",
      "type": "error"
    },
    {
      "inputs": [
        {
          "internalType": "bytes8",
          "name": "name",
          "type": "bytes8"
        }
      ],
      "name": "NameAlreadyClaimed",
      "type": "error"
    },
    {
      "inputs": [
        {
          "internalType": "bytes8",
          "name": "name",
          "type": "bytes8"
        }
      ],
      "name": "NameNotClaimed",
      "type": "error"
    },
    {
      "inputs": [
        {
          "internalType": "bytes8",
          "name": "name",
          "type": "bytes8"
        }
      ],
      "name": "NameNotExpired",
      "type": "error"
    },
    {
      "inputs": [],
      "name": "OnlyRegistry",
      "type": "error"
    },
    {
      "inputs": [
        {
          "internalType": "bytes8",
          "name": "organizationId",
          "type": "bytes8"
        }
      ],
      "name": "OrganizationNotFound",
      "type": "error"
    },
    {
      "inputs": [
        {
          "internalType": "address",
          "name": "owner",
          "type": "address"
        },
        {
          "internalType": "bytes8",
          "name": "organizationId",
          "type": "bytes8"
        }
      ],
      "name": "ProfileAlreadyExists",
      "type": "error"
    },
    {
      "inputs": [
        {
          "internalType": "bytes8",
          "name": "profileId",
          "type": "bytes8"
        }
      ],
      "name": "ProfileNotFound",
      "type": "error"
    },
    {
      "inputs": [
        {
          "internalType": "bytes8",
          "name": "name",
          "type": "bytes8"
        },
        {
          "internalType": "address",
          "name": "caller",
          "type": "address"
        }
      ],
      "name": "UnauthorizedNameAccess",
      "type": "error"
    },
    {
      "inputs": [
        {
          "internalType": "bytes8",
          "name": "profileId",
          "type": "bytes8"
        },
        {
          "internalType": "address",
          "name": "caller",
          "type": "address"
        }
      ],
      "name": "UnauthorizedProfileAccess",
      "type": "error"
    },
    {
      "anonymous": false,
      "inputs": [],
      "name": "ModuleDisabled",
      "type": "event"
    },
    {
      "anonymous": false,
      "inputs": [],
      "name": "ModuleEnabled",
      "type": "event"
    },
    {
      "anonymous": false,
      "inputs": [
        {
          "indexed": true,
          "internalType": "address",
          "name": "registry",
          "type": "address"
        }
      ],
      "name": "ModuleInitialized",
      "type": "event"
    },
    {
      "anonymous": false,
      "inputs": [
        {
          "indexed": true,
          "internalType": "bytes8",
          "name": "name",
          "type": "bytes8"
        },
        {
          "indexed": true,
          "internalType": "address",
          "name": "owner",
          "type": "address"
        },
        {
          "indexed": false,
          "internalType": "uint256",
          "name": "stakeAmount",
          "type": "uint256"
        },
        {
          "indexed": false,
          "internalType": "uint256",
          "name": "stakeDuration",
          "type": "uint256"
        },
        {
          "indexed": false,
          "internalType": "enum IIdentity.NameType",
          "name": "nameType",
          "type": "uint8"
        },
        {
          "indexed": false,
          "internalType": "uint256",
          "name": "timestamp",
          "type": "uint256"
        }
      ],
      "name": "NameClaimed",
      "type": "event"
    },
    {
      "anonymous": false,
      "inputs": [
        {
          "indexed": true,
          "internalType": "bytes8",
          "name": "name",
          "type": "bytes8"
        },
        {
          "indexed": true,
          "internalType": "address",
          "name": "owner",
          "type": "address"
        },
        {
          "indexed": false,
          "internalType": "uint256",
          "name": "stakeAmount",
          "type": "uint256"
        },
        {
          "indexed": false,
          "internalType": "uint256",
          "name": "timestamp",
          "type": "uint256"
        }
      ],
      "name": "NameReleased",
      "type": "event"
    },
    {
      "anonymous": false,
      "inputs": [
        {
          "indexed": false,
          "internalType": "address",
          "name": "account",
          "type": "address"
        }
      ],
      "name": "Paused",
      "type": "event"
    },
    {
      "anonymous": false,
      "inputs": [
        {
          "indexed": true,
          "internalType": "bytes8",
          "name": "profileId",
          "type": "bytes8"
        },
        {
          "indexed": true,
          "internalType": "address",
          "name": "owner",
          "type": "address"
        },
        {
          "indexed": true,
          "internalType": "bytes8",
          "name": "organizationId",
          "type": "bytes8"
        },
        {
          "indexed": false,
          "internalType": "string",
          "name": "metadata",
          "type": "string"
        },
        {
          "indexed": false,
          "internalType": "uint256",
          "name": "timestamp",
          "type": "uint256"
        }
      ],
      "name": "ProfileCreated",
      "type": "event"
    },
    {
      "anonymous": false,
      "inputs": [
        {
          "indexed": true,
          "internalType": "bytes8",
          "name": "profileId",
          "type": "bytes8"
        },
        {
          "indexed": false,
          "internalType": "string",
          "name": "metadata",
          "type": "string"
        },
        {
          "indexed": false,
          "internalType": "uint256",
          "name": "timestamp",
          "type": "uint256"
        }
      ],
      "name": "ProfileUpdated",
      "type": "event"
    },
    {
      "anonymous": false,
      "inputs": [
        {
          "indexed": true,
          "internalType": "bytes8",
          "name": "profileId",
          "type": "bytes8"
        },
        {
          "indexed": false,
          "internalType": "enum IIdentity.VerificationLevel",
          "name": "level",
          "type": "uint8"
        },
        {
          "indexed": true,
          "internalType": "address",
          "name": "verifier",
          "type": "address"
        },
        {
          "indexed": false,
          "internalType": "uint256",
          "name": "timestamp",
          "type": "uint256"
        }
      ],
      "name": "ProfileVerified",
      "type": "event"
    },
    {
      "anonymous": false,
      "inputs": [
        {
          "indexed": true,
          "internalType": "bytes32",
          "name": "role",
          "type": "bytes32"
        },
        {
          "indexed": true,
          "internalType": "bytes32",
          "name": "previousAdminRole",
          "type": "bytes32"
        },
        {
          "indexed": true,
          "internalType": "bytes32",
          "name": "newAdminRole",
          "type": "bytes32"
        }
      ],
      "name": "RoleAdminChanged",
      "type": "event"
    },
    {
      "anonymous": false,
      "inputs": [
        {
          "indexed": true,
          "internalType": "bytes32",
          "name": "role",
          "type": "bytes32"
        },
        {
          "indexed": true,
          "internalType": "address",
          "name": "account",
          "type": "address"
        },
        {
          "indexed": true,
          "internalType": "address",
          "name": "sender",
          "type": "address"
        }
      ],
      "name": "RoleGranted",
      "type": "event"
    },
    {
      "anonymous": false,
      "inputs": [
        {
          "indexed": true,
          "internalType": "bytes32",
          "name": "role",
          "type": "bytes32"
        },
        {
          "indexed": true,
          "internalType": "address",
          "name": "account",
          "type": "address"
        },
        {
          "indexed": true,
          "internalType": "address",
          "name": "sender",
          "type": "address"
        }
      ],
      "name": "RoleRevoked",
      "type": "event"
    },
    {
      "anonymous": false,
      "inputs": [
        {
          "indexed": false,
          "internalType": "address",
          "name": "account",
          "type": "address"
        }
      ],
      "name": "Unpaused",
      "type": "event"
    },
    {
      "inputs": [],
      "name": "ADMIN_ROLE",
      "outputs": [
        {
          "internalType": "bytes32",
          "name": "",
          "type": "bytes32"
        }
      ],
      "stateMutability": "view",
      "type": "function"
    },
    {
      "inputs": [],
      "name": "DEFAULT_ADMIN_ROLE",
      "outputs": [
        {
          "internalType": "bytes32",
          "name": "",
          "type": "bytes32"
        }
      ],
      "stateMutability": "view",
      "type": "function"
    },
    {
      "inputs": [],
      "name": "IDENTITY_ADMIN_ROLE",
      "outputs": [
        {
          "internalType": "bytes32",
          "name": "",
          "type": "bytes32"
        }
      ],
      "stateMutability": "view",
      "type": "function"
    },
    {
      "inputs": [],
      "name": "MAX_NAME_STAKE",
      "outputs": [
        {
          "internalType": "uint256",
          "name": "",
          "type": "uint256"
        }
      ],
      "stateMutability": "view",
      "type": "function"
    },
    {
      "inputs": [],
      "name": "MAX_STAKE_DURATION",
      "outputs": [
        {
          "internalType": "uint256",
          "name": "",
          "type": "uint256"
        }
      ],
      "stateMutability": "view",
      "type": "function"
    },
    {
      "inputs": [],
      "name": "MIN_NAME_STAKE",
      "outputs": [
        {
          "internalType": "uint256",
          "name": "",
          "type": "uint256"
        }
      ],
      "stateMutability": "view",
      "type": "function"
    },
    {
      "inputs": [],
      "name": "MIN_STAKE_DURATION",
      "outputs": [
        {
          "internalType": "uint256",
          "name": "",
          "type": "uint256"
        }
      ],
      "stateMutability": "view",
      "type": "function"
    },
    {
      "inputs": [],
      "name": "NAME_LENGTH",
      "outputs": [
        {
          "internalType": "uint256",
          "name": "",
          "type": "uint256"
        }
      ],
      "stateMutability": "view",
      "type": "function"
    },
    {
      "inputs": [],
      "name": "OPERATOR_ROLE",
      "outputs": [
        {
          "internalType": "bytes32",
          "name": "",
          "type": "bytes32"
        }
      ],
      "stateMutability": "view",
      "type": "function"
    },
    {
      "inputs": [],
      "name": "VERIFIER_ROLE",
      "outputs": [
        {
          "internalType": "bytes32",
          "name": "",
          "type": "bytes32"
        }
      ],
      "stateMutability": "view",
      "type": "function"
    },
    {
      "inputs": [
        {
          "internalType": "bytes8",
          "name": "name",
          "type": "bytes8"
        },
        {
          "internalType": "uint256",
          "name": "stakeAmount",
          "type": "uint256"
        },
        {
          "internalType": "uint256",
          "name": "stakeDuration",
          "type": "uint256"
        },
        {
          "internalType": "enum IIdentity.NameType",
          "name": "nameType",
          "type": "uint8"
        }
      ],
      "name": "claimName",
      "outputs": [
        {
          "internalType": "bool",
          "name": "success",
          "type": "bool"
        }
      ],
      "stateMutability": "nonpayable",
      "type": "function"
    },
    {
      "inputs": [
        {
          "internalType": "bytes8",
          "name": "organizationId",
          "type": "bytes8"
        },
        {
          "internalType": "string",
          "name": "metadata",
          "type": "string"
        }
      ],
      "name": "createProfile",
      "outputs": [
        {
          "internalType": "bytes8",
          "name": "profileId",
          "type": "bytes8"
        }
      ],
      "stateMutability": "nonpayable",
      "type": "function"
    },
    {
      "inputs": [],
      "name": "emergencyPause",
      "outputs": [],
      "stateMutability": "nonpayable",
      "type": "function"
    },
    {
      "inputs": [],
      "name": "emergencyUnpause",
      "outputs": [],
      "stateMutability": "nonpayable",
      "type": "function"
    },
    {
      "inputs": [
        {
          "internalType": "bytes8",
          "name": "name",
          "type": "bytes8"
        }
      ],
      "name": "getNameClaim",
      "outputs": [
        {
          "components": [
            {
              "internalType": "bytes8",
              "name": "name",
              "type": "bytes8"
            },
            {
              "internalType": "address",
              "name": "owner",
              "type": "address"
            },
            {
              "internalType": "uint256",
              "name": "stakeAmount",
              "type": "uint256"
            },
            {
              "internalType": "uint256",
              "name": "stakeDuration",
              "type": "uint256"
            },
            {
              "internalType": "uint256",
              "name": "claimedAt",
              "type": "uint256"
            },
            {
              "internalType": "uint256",
              "name": "expiresAt",
              "type": "uint256"
            },
            {
              "internalType": "bool",
              "name": "isActive",
              "type": "bool"
            },
            {
              "internalType": "enum IIdentity.NameType",
              "name": "nameType",
              "type": "uint8"
            }
          ],
          "internalType": "struct IIdentity.NameClaim",
          "name": "claim",
          "type": "tuple"
        }
      ],
      "stateMutability": "view",
      "type": "function"
    },
    {
      "inputs": [
        {
          "internalType": "address",
          "name": "owner",
          "type": "address"
        }
      ],
      "name": "getNamesOwnedBy",
      "outputs": [
        {
          "internalType": "bytes8[]",
          "name": "names",
          "type": "bytes8[]"
        }
      ],
      "stateMutability": "view",
      "type": "function"
    },
    {
      "inputs": [
        {
          "internalType": "bytes8",
          "name": "profileId",
          "type": "bytes8"
        }
      ],
      "name": "getProfile",
      "outputs": [
        {
          "components": [
            {
              "internalType": "bytes8",
              "name": "profileId",
              "type": "bytes8"
            },
            {
              "internalType": "address",
              "name": "owner",
              "type": "address"
            },
            {
              "internalType": "bytes8",
              "name": "organizationId",
              "type": "bytes8"
            },
            {
              "internalType": "string",
              "name": "metadata",
              "type": "string"
            },
            {
              "internalType": "uint256",
              "name": "createdAt",
              "type": "uint256"
            },
            {
              "internalType": "uint256",
              "name": "updatedAt",
              "type": "uint256"
            },
            {
              "internalType": "bool",
              "name": "active",
              "type": "bool"
            },
            {
              "internalType": "bool",
              "name": "verified",
              "type": "bool"
            }
          ],
          "internalType": "struct IIdentity.Profile",
          "name": "profile",
          "type": "tuple"
        }
      ],
      "stateMutability": "view",
      "type": "function"
    },
    {
      "inputs": [
        {
          "internalType": "address",
          "name": "owner",
          "type": "address"
        },
        {
          "internalType": "bytes8",
          "name": "organizationId",
          "type": "bytes8"
        }
      ],
      "name": "getProfileByOwner",
      "outputs": [
        {
          "components": [
            {
              "internalType": "bytes8",
              "name": "profileId",
              "type": "bytes8"
            },
            {
              "internalType": "address",
              "name": "owner",
              "type": "address"
            },
            {
              "internalType": "bytes8",
              "name": "organizationId",
              "type": "bytes8"
            },
            {
              "internalType": "string",
              "name": "metadata",
              "type": "string"
            },
            {
              "internalType": "uint256",
              "name": "createdAt",
              "type": "uint256"
            },
            {
              "internalType": "uint256",
              "name": "updatedAt",
              "type": "uint256"
            },
            {
              "internalType": "bool",
              "name": "active",
              "type": "bool"
            },
            {
              "internalType": "bool",
              "name": "verified",
              "type": "bool"
            }
          ],
          "internalType": "struct IIdentity.Profile",
          "name": "profile",
          "type": "tuple"
        }
      ],
      "stateMutability": "view",
      "type": "function"
    },
    {
      "inputs": [],
      "name": "getProfileCount",
      "outputs": [
        {
          "internalType": "uint256",
          "name": "count",
          "type": "uint256"
        }
      ],
      "stateMutability": "view",
      "type": "function"
    },
    {
      "inputs": [
        {
          "internalType": "bytes8",
          "name": "organizationId",
          "type": "bytes8"
        }
      ],
      "name": "getProfilesByOrganization",
      "outputs": [
        {
          "internalType": "bytes8[]",
          "name": "profileIds",
          "type": "bytes8[]"
        }
      ],
      "stateMutability": "view",
      "type": "function"
    },
    {
      "inputs": [
        {
          "internalType": "bytes32",
          "name": "role",
          "type": "bytes32"
        }
      ],
      "name": "getRoleAdmin",
      "outputs": [
        {
          "internalType": "bytes32",
          "name": "",
          "type": "bytes32"
        }
      ],
      "stateMutability": "view",
      "type": "function"
    },
    {
      "inputs": [
        {
          "internalType": "bytes8",
          "name": "profileId",
          "type": "bytes8"
        }
      ],
      "name": "getVerificationLevel",
      "outputs": [
        {
          "internalType": "enum IIdentity.VerificationLevel",
          "name": "level",
          "type": "uint8"
        }
      ],
      "stateMutability": "view",
      "type": "function"
    },
    {
      "inputs": [
        {
          "internalType": "bytes32",
          "name": "role",
          "type": "bytes32"
        },
        {
          "internalType": "address",
          "name": "account",
          "type": "address"
        }
      ],
      "name": "grantRole",
      "outputs": [],
      "stateMutability": "nonpayable",
      "type": "function"
    },
    {
      "inputs": [
        {
          "internalType": "bytes32",
          "name": "role",
          "type": "bytes32"
        },
        {
          "internalType": "address",
          "name": "account",
          "type": "address"
        }
      ],
      "name": "hasRole",
      "outputs": [
        {
          "internalType": "bool",
          "name": "",
          "type": "bool"
        }
      ],
      "stateMutability": "view",
      "type": "function"
    },
    {
      "inputs": [
        {
          "internalType": "address",
          "name": "registryAddress",
          "type": "address"
        }
      ],
      "name": "initialize",
      "outputs": [],
      "stateMutability": "nonpayable",
      "type": "function"
    },
    {
      "inputs": [],
      "name": "isInitialized",
      "outputs": [
        {
          "internalType": "bool",
          "name": "",
          "type": "bool"
        }
      ],
      "stateMutability": "view",
      "type": "function"
    },
    {
      "inputs": [
        {
          "internalType": "bytes8",
          "name": "name",
          "type": "bytes8"
        }
      ],
      "name": "isNameAvailable",
      "outputs": [
        {
          "internalType": "bool",
          "name": "available",
          "type": "bool"
        }
      ],
      "stateMutability": "view",
      "type": "function"
    },
    {
      "inputs": [],
      "name": "moduleId",
      "outputs": [
        {
          "internalType": "bytes32",
          "name": "",
          "type": "bytes32"
        }
      ],
      "stateMutability": "pure",
      "type": "function"
    },
    {
      "inputs": [],
      "name": "onModuleDisabled",
      "outputs": [],
      "stateMutability": "nonpayable",
      "type": "function"
    },
    {
      "inputs": [],
      "name": "onModuleEnabled",
      "outputs": [],
      "stateMutability": "nonpayable",
      "type": "function"
    },
    {
      "inputs": [],
      "name": "pause",
      "outputs": [],
      "stateMutability": "nonpayable",
      "type": "function"
    },
    {
      "inputs": [],
      "name": "paused",
      "outputs": [
        {
          "internalType": "bool",
          "name": "",
          "type": "bool"
        }
      ],
      "stateMutability": "view",
      "type": "function"
    },
    {
      "inputs": [
        {
          "internalType": "bytes8",
          "name": "profileId",
          "type": "bytes8"
        }
      ],
      "name": "profileExists",
      "outputs": [
        {
          "internalType": "bool",
          "name": "exists",
          "type": "bool"
        }
      ],
      "stateMutability": "view",
      "type": "function"
    },
    {
      "inputs": [],
      "name": "registry",
      "outputs": [
        {
          "internalType": "address",
          "name": "",
          "type": "address"
        }
      ],
      "stateMutability": "view",
      "type": "function"
    },
    {
      "inputs": [
        {
          "internalType": "bytes8",
          "name": "name",
          "type": "bytes8"
        }
      ],
      "name": "releaseName",
      "outputs": [
        {
          "internalType": "uint256",
          "name": "stakeAmount",
          "type": "uint256"
        }
      ],
      "stateMutability": "nonpayable",
      "type": "function"
    },
    {
      "inputs": [
        {
          "internalType": "bytes32",
          "name": "role",
          "type": "bytes32"
        },
        {
          "internalType": "address",
          "name": "account",
          "type": "address"
        }
      ],
      "name": "renounceRole",
      "outputs": [],
      "stateMutability": "nonpayable",
      "type": "function"
    },
    {
      "inputs": [
        {
          "internalType": "bytes32",
          "name": "role",
          "type": "bytes32"
        },
        {
          "internalType": "address",
          "name": "account",
          "type": "address"
        }
      ],
      "name": "revokeRole",
      "outputs": [],
      "stateMutability": "nonpayable",
      "type": "function"
    },
    {
      "inputs": [
        {
          "internalType": "bytes4",
          "name": "interfaceId",
          "type": "bytes4"
        }
      ],
      "name": "supportsInterface",
      "outputs": [
        {
          "internalType": "bool",
          "name": "",
          "type": "bool"
        }
      ],
      "stateMutability": "view",
      "type": "function"
    },
    {
      "inputs": [],
      "name": "unpause",
      "outputs": [],
      "stateMutability": "nonpayable",
      "type": "function"
    },
    {
      "inputs": [
        {
          "internalType": "bytes8",
          "name": "profileId",
          "type": "bytes8"
        },
        {
          "internalType": "string",
          "name": "metadata",
          "type": "string"
        }
      ],
      "name": "updateProfile",
      "outputs": [],
      "stateMutability": "nonpayable",
      "type": "function"
    },
    {
      "inputs": [
        {
          "internalType": "bytes8",
          "name": "name",
          "type": "bytes8"
        }
      ],
      "name": "validateNameFormat",
      "outputs": [
        {
          "internalType": "bool",
          "name": "valid",
          "type": "bool"
        }
      ],
      "stateMutability": "pure",
      "type": "function"
    },
    {
      "inputs": [
        {
          "internalType": "bytes8",
          "name": "profileId",
          "type": "bytes8"
        },
        {
          "internalType": "enum IIdentity.VerificationLevel",
          "name": "level",
          "type": "uint8"
        }
      ],
      "name": "verifyProfile",
      "outputs": [],
      "stateMutability": "nonpayable",
      "type": "function"
    },
    {
      "inputs": [],
      "name": "version",
      "outputs": [
        {
          "internalType": "string",
          "name": "",
          "type": "string"
        }
      ],
      "stateMutability": "view",
      "type": "function"
    }
  ],
  "bytecode": "0x608034620002d0576040908082016001600160401b03811182821017620002ba578252600581526020809101640312e302e360dc1b815260ff1990600190828254168255816002556004548281811c91168015620002af575b858210146200029957601f811162000267575b50516001600160d81b031916600a17600455600080805280845284812033825284528490205460ff16156200022c575b7fa49807205ce4d355092ef5a8a18f56e8913cf4a201fbe287825b095693c2177580600052600084528460002033600052845260ff85600020541615620001ef575b507f4f954bed0529967842be3cf5f1133c59c9d02d41844654c1e7ec00ff708ceff880600052600084528460002033600052845260ff85600020541615620001b2575b507f0ce23c3e399818cfee81a7ab0880f714e53d7672b08df0fa62f2843416e1ea099283600052600081528460002033600052815260ff8560002054161562000173575b84516133149081620002d68239f35b836000526000815284600020903360005252836000209182541617905533903390600080516020620035ea833981519152600080a43880808062000164565b80600052600084528460002033600052845284600020828482541617905533903390600080516020620035ea833981519152600080a43862000120565b80600052600084528460002033600052845284600020828482541617905533903390600080516020620035ea833981519152600080a438620000dd565b60008052600083528360002033600052835283600020818382541617905533336000600080516020620035ea8339815191528180a46200009b565b600460005282601f86600020920160051c8201915b8281106200028c5750506200006b565b600081550183906200027c565b634e487b7160e01b600052602260045260246000fd5b90607f169062000058565b634e487b7160e01b600052604160045260246000fd5b600080fdfe6080604052600436101561001257600080fd5b60003560e01c806301ffc9a7146102c757806311a653c0146102c25780631aaff63c146102bd5780631af72815146102b8578063248a9ca3146102b35780632e5b0e1e146102ae5780632f2ff15d146102a957806336568abe146102a45780633697611a1461029f57806336cde77b1461029a578063392e53cd146102955780633c65963f146102905780633f4ba83a1461028b5780634628f12c146102865780634a43a1d4146102815780634a4e3bd51461027c57806351858e271461027757806354fd4d50146102725780635c975abb1461026d5780635d059321146102685780636a7d9f8f1461026357806375b238fc1461025e5780637b103999146102595780638456cb591461025457806391d148541461024f57806394ee18e91461024a578063a1308f2714610245578063a217fddf14610240578063a411da4a1461023b578063a86c5f6414610236578063aa7318aa14610231578063aa902b4d1461022c578063c4d66de814610227578063cc697cd014610222578063d3d7d8b01461021d578063d547741f14610218578063dc59340114610213578063e0c570ba1461020e578063e7705db614610209578063ebf8a3e614610204578063f48fbd24146101ff578063f5b541a6146101fa5763f5fcf40f146101f557600080fd5b611f31565b611ef6565b611ed3565b611e7c565b611e41565b611e23565b611df6565b611db4565b611d90565b611c53565b611b90565b611b71565b611b1a565b611ad2565b6119e7565b611986565b61194b565b611926565b6118d0565b6118a1565b611878565b61183d565b611717565b611621565b61158c565b6114ab565b61142b565b6113ab565b61128e565b610f09565b610e5d565b610e41565b610e1b565b610d90565b610c9e565b610c06565b610b3e565b6108cf565b61076a565b61043e565b610403565b610383565b3461031d57602036600319011261031d5760043563ffffffff60e01b811680910361031d57602090637965db0b60e01b811490811561030c575b506040519015158152f35b6301ffc9a760e01b14905038610301565b600080fd5b600435906001600160c01b03198216820361031d57565b602435906001600160c01b03198216820361031d57565b6004111561035a57565b634e487b7160e01b600052602160045260246000fd5b9190602083019261038082610350565b52565b3461031d57602036600319011261031d576001600160c01b03196103a5610322565b166000818152600560205260409081902054901c6001600160a01b0316156103eb5760005260106020526103e760ff6040600020541660405191829182610370565b0390f35b60249060405190636050eaaf60e11b82526004820152fd5b3461031d57600036600319011261031d5760206040517f4f954bed0529967842be3cf5f1133c59c9d02d41844654c1e7ec00ff708ceff88152f35b3461031d57602036600319011261031d57610457610322565b60ff60035460a01c16156107585761046d612821565b610475612ed6565b6001600160c01b031981166000908152600f6020526040902090600582016104a56104a1825460ff1690565b1590565b61073657825460401c6001600160a01b0316336001600160a01b039091160361070e57600483015442106106e857600180840154825460ff191690925590610516610506846001600160401b0360c01b16600052600b602052604060002090565b80546001600160a01b0319169055565b816000938461053b826001600160401b0360c01b16600052600c602052604060002090565b558461055d826001600160401b0360c01b16600052600d602052604060002090565b55336000908152600e6020526040902090856001600160401b0360c01b809216935b61064c575b505060405163a9059cbb60e01b815233600482015260248101849052949293509091905060208460448184805af18015610647576103e7946105cc9291610619575b50612d62565b604080518381524260208201523392917f551ad81174245667048606c9ad5c1798587d77e780d7e8b160c6bc6b14e3df4891a36106096001600255565b6040519081529081906020820190565b61063a915060203d8111610640575b6106328183610806565b810190612d4a565b856105c6565b503d610628565b61287a565b8254808210156106e25784836106726106658588612e6b565b90549060031b1c60c01b90565b1614610688575061068290612ce6565b8561057f565b6106d8949596506106d392506106ac6106656106a66106b393612f2a565b86612e6b565b9184612e6b565b9091906001600160401b0383549160031b9260c01c831b921b1916179055565b612f47565b8190848080610584565b50610584565b604051634b7cb82360e01b81526001600160c01b031983166004820152602490fd5b0390fd5b604051632c69fcb360e11b81526001600160c01b031983166004820152336024820152604490fd5b60405163528144df60e11b81526001600160c01b031983166004820152602490fd5b604051633165f6e960e21b8152600490fd5b3461031d57602036600319011261031d5760043560005260006020526020600160406000200154604051908152f35b634e487b7160e01b600052604160045260246000fd5b61010081019081106001600160401b038211176107cb57604052565b610799565b608081019081106001600160401b038211176107cb57604052565b606081019081106001600160401b038211176107cb57604052565b90601f801991011681019081106001600160401b038211176107cb57604052565b60405190610834826107af565b565b6001600160401b0381116107cb57601f01601f191660200190565b90604060031983011261031d576004356001600160c01b03198116810361031d57916024356001600160401b03811161031d578160238201121561031d5780600401359061089e82610836565b926108ac6040519485610806565b8284526024838301011161031d5781600092602460209301838601378301015290565b3461031d576108dd36610851565b60ff60035460a01c1615610758576108f3612821565b6108fc8261309a565b3360009081526006602052604090206001600160c01b03199081906109449061093d9086905b906001600160401b0360c01b16600052602052604060002090565b5460c01b90565b16610b0557916103e79261095833836131d9565b926109fc600561097e866001600160401b0360c01b166000526005602052604060002090565b805467ffffffffffffffff191660c088901c178155805468010000000000000000600160e01b0319163360401b600160401b600160e01b031617815560018101805467ffffffffffffffff191660c088901c1790556109e084600283016129fd565b4260038201819055600482015501805461ffff19166001179055565b6040516001600160c01b0319851660208201908152610aae918691610a8991610a3281602881015b03601f198101835282610806565b519020610a3e81612aeb565b50610a6881610a63896001600160401b0360c01b166000526009602052604060002090565b612b62565b50336000908152600660205260409020610a9e908490610a89908a90610922565b9060c01c6001600160401b0319825416179055565b600052600a602052604060002090565b7f88c56dda8c456a57b782b149234a5f113419f653a70b7b46031df0d7f989ffe88260405194169380610ae73395881694429083612acf565b0390a46040516001600160c01b031990911681529081906020820190565b60405163a23ed76960e01b81523360048201526001600160c01b031984166024820152604490fd5b6001600160a01b0381160361031d57565b3461031d57604036600319011261031d57600435602435610b5e81610b2d565b60009180835282602052610b7860016040852001546122ea565b808352602083815260408085206001600160a01b0385166000908152925290205460ff1615610ba5578280f35b808352602083815260408085206001600160a01b038516600090815292529020805460ff1916600117905533916001600160a01b0316907f2f8788117e7eff1d82e926ec794901d17c78024a50270940304540a733656f0d8480a438808280f35b3461031d57604036600319011261031d57602435610c2381610b2d565b336001600160a01b03821603610c4157610c3f90600435612530565b005b60405162461bcd60e51b815260206004820152602f60248201527f416363657373436f6e74726f6c3a2063616e206f6e6c792072656e6f756e636560448201526e103937b632b9903337b91039b2b63360891b6064820152608490fd5b3461031d57600036600319011261031d576020600754604051908152f35b60005b838110610ccf5750506000910152565b8181015183820152602001610cbf565b90602091610cf881518092818552858086019101610cbc565b601f01601f1916010190565b602080825282516001600160c01b031990811682840152908301516001600160a01b0316604080840191909152830151166060820152610d8d90606083015160e0610d5d61010092836080860152610120850190610cdf565b94608081015160a085015260a081015160c0850152610d8460c08201518386019015159052565b01511515910152565b90565b3461031d57604036600319011261031d57600435610dad81610b2d565b610db5610339565b90610dbe612bb8565b506001600160a01b031660009081526006602090815260408083206001600160c01b0319948516845290915290205460c01b1680156103eb5760005260056020526103e7610e0f6040600020612bf6565b60405191829182610d04565b3461031d57600036600319011261031d57602060ff60035460a01c166040519015158152f35b3461031d57600036600319011261031d57602060405160088152f35b3461031d57600036600319011261031d57610e766120a0565b60ff60035460a01c16156107585760015460ff811615610ec35760ff19166001557f5db9ee0a495bf2e6ff9c91a7834c1ba4fdd244a5e8aa4e537bd38aeae4b073aa6020604051338152a1005b60405162461bcd60e51b815260206004820152601460248201527314185d5cd8589b194e881b9bdd081c185d5cd95960621b6044820152606490fd5b6004111561031d57565b3461031d57608036600319011261031d57610f22610322565b60243590604435606435610f3581610eff565b60ff60035460a01c161561075857610f4b612821565b610f53612ed6565b610f5f6104a184612fc3565b61126c57610f6f6104a184612f8a565b61124a5768056bc75e2d6310000084108015611237575b61121e5762278d0082108015611211575b6111f857604080516370a0823160e01b815233600482015290946020929091838160248160005afa908115610647576000916111cb575b508281106111a4575085516323b872dd60e01b8152336004820152306024820152604481018390529280846064816000805af1938415610647577fda3cfcf8b45c999bc2632a87524ac4c7aed27382f18e89a71753c518bf2b34599461103b916000916111875750612d62565b6110b861104886426125d0565b91611069611054610827565b6001600160c01b03198a168152913390830152565b84898201528660608201524260808201528260a082015261108d60c0820160019052565b61109a8460e08301612dae565b6001600160c01b031988166000908152600f60205260409020612dda565b6110fb336110dc886001600160401b0360c01b16600052600b602052604060002090565b80546001600160a01b0319166001600160a01b03909216919091179055565b8261111c876001600160401b0360c01b16600052600c602052604060002090565b556001600160c01b031986166000908152600d6020526040902055336000908152600e60205260409020611151908690612e8e565b611170865192839233976001600160401b0360c01b1696429285612eb1565b0390a361117d6001600255565b5160018152602090f35b61119e9150833d8511610640576106328183610806565b386105c6565b865163ebd6ced960e01b815260006004820152602481018490526044810191909152606490fd5b6111eb9150843d86116111f1575b6111e38183610806565b810190612d3b565b38610fce565b503d6111d9565b60405163031d9f5d60e21b815260048101839052602490fd5b506301e133808211610f97565b60405163222d164360e21b815260048101859052602490fd5b5069021e19e0c9bab24000008411610f86565b60405163264ad49760e21b81526001600160c01b031984166004820152602490fd5b604051631f8c3d5960e31b81526001600160c01b031984166004820152602490fd5b3461031d57604036600319011261031d576112a7610322565b602435906112b482610eff565b6112bc61220a565b60ff60035460a01c1615610758576112d2612821565b6001600160c01b0319811660008181526005602052604090819020805492939290911c6001600160a01b0316156113895761134d61135292611331869361131885610350565b600501805461ff00191685151560081b61ff0016179055565b6001600160401b0360c01b166000526010602052604060002090565b612d09565b7fd7e14b7d3055fbe3eb3f1eafa416c1827dc3780b0726b63f47dd8313e686c643604051806113843395429083612d21565b0390a3005b604051636050eaaf60e11b81526001600160c01b031983166004820152602490fd5b3461031d57600036600319011261031d576003546001600160a01b03811633036114195760a01c60ff16156107585760015460ff811615610ec35760ff19166001557f5db9ee0a495bf2e6ff9c91a7834c1ba4fdd244a5e8aa4e537bd38aeae4b073aa6020604051338152a1005b6040516310f5403960e31b8152600490fd5b3461031d57600036600319011261031d576003546001600160a01b03811633036114195760a01c60ff161561075857611462612821565b600160ff19815416176001557f62e78cea01bee320cd4e420270b5ea74000d11b0c9f74754ebdbfc544b05a2586020604051338152a1005b906020610d8d928181520190610cdf565b3461031d576000806003193601126115895760405190806004546114ce81612743565b8085529160019180831690811561155f5750600114611504575b6103e7856114f881870382610806565b6040519182918261149a565b9250600483527f8a35acfbc15ff81a39ae7d344fd709f28e8600b4aa8c65c6b64bfe7fe36bd19b5b8284106115475750505081016020016114f8826103e76114e8565b8054602085870181019190915290930192810161152c565b8695506103e7969350602092506114f894915060ff191682840152151560051b82010192936114e8565b80fd5b3461031d57600036600319011261031d57602060ff600154166040519015158152f35b91909160e0806101008301946001600160401b0360c01b815116845260018060a01b03602082015116602085015260408101516040850152606081015160608501526080810151608085015260a081015160a085015260c0810151151560c085015201519161161d83610350565b0152565b3461031d57602036600319011261031d576103e760e061163f610322565b6040918291825161164f816107af565b600092818480935282602082015282868201528260608201528260808201528260a08201528260c082015201526001600160401b0360c01b168152600f602052209061170d60ff60058351946116a4866107af565b80546001600160c01b031960c082901b1687526116cd90861c6001600160a01b03166020880152565b6001810154868601526002810154606087015260038101546080870152600481015460a08701520154818116151560c086015260081c1660e08401612dae565b51918291826115af565b3461031d57602036600319011261031d57611730610322565b611738612bb8565b506001600160401b0360c01b811660005260056020526040908160002090825191611762836107af565b80546001600160c01b031960c082901b16845290611805906001600160a01b0392861c831660208601908152906117f89060ff906005906117ba6117aa600183015460c01b90565b6001600160c01b0319168a8c0152565b6117c66002820161277d565b60608a0152600381015460808a0152600481015460a08a01520154818116151560c089015260081c16151560e0870152565b516001600160a01b031690565b161561181a57506103e7915191829182610d04565b8251636050eaaf60e11b81526001600160c01b0319919091166004820152602490fd5b3461031d57600036600319011261031d5760206040517fa49807205ce4d355092ef5a8a18f56e8913cf4a201fbe287825b095693c217758152f35b3461031d57600036600319011261031d576003546040516001600160a01b039091168152602090f35b3461031d57600036600319011261031d576118ba6120a0565b60ff60035460a01c161561075857611462612821565b3461031d57604036600319011261031d57602060ff61191a6024356118f481610b2d565b6004356000526000845260406000209060018060a01b0316600052602052604060002090565b54166040519015158152f35b3461031d57600036600319011261031d57602060405169021e19e0c9bab24000008152f35b3461031d57600036600319011261031d5760206040517f377799b22fba826cf24c3f07e6731c67676765addcee33415a2c80d453d4ed6e8152f35b3461031d57600036600319011261031d57602060405160008152f35b6020908160408183019282815285518094520193019160005b8281106119c9575050505090565b83516001600160c01b031916855293810193928101926001016119bb565b3461031d5760208060031936011261031d576001600160c01b0319611a0a610322565b169060009182526009815260408220906040518092839183825491828152019186528386209386905b828210611ab857505050611a4992500382610806565b611a538151612cb4565b915b8151811015611aaa5780611aa0611a8661093d611a75611aa59587612cf5565b51600052600a602052604060002090565b611a908387612cf5565b6001600160c01b03199091169052565b612ce6565b611a55565b604051806103e785826119a2565b855484526001958601958795509381019390910190611a33565b3461031d57602036600319011261031d576001600160c01b0319611af4610322565b166000526005602052602060018060a01b0360406000205460401c161515604051908152f35b3461031d57600080600319360112611589576003546001600160a01b03811633036114195760a01c60ff1615610758577f6dff2fe8fbb5b23bf0583bf5b2157ff62ca7e27f2fb4f404914cd0c205ced5cc8180a180f35b3461031d57600036600319011261031d5760206040516301e133808152f35b3461031d57602036600319011261031d57600435611bad81610b2d565b60ff60035460a01c16611c41576001600160a01b038116908115611c2f5760038054600160a01b6001600160a81b03199091166001600160a01b03841617179055611c0090611bfb816123a8565b61246e565b611c08612886565b7f27b541a16df0902e262f34789782092ab25125513b8ed73608e802951771b928600080a2005b604051637bfd2e8360e01b8152600490fd5b604051637396742f60e11b8152600490fd5b3461031d57611c6136610851565b9060ff60035460a01c161561075857611c78612821565b6001600160c01b03198116600090815260056020526040902080546001600160a01b039060401c8116168015611d6e5733141580611d35575b611d0e577fa6eaf5daa91aab3cf1cc6d7efc3c49c137576e9542f722d76b8897d1c9afca079181611ce8856002611d0995016129fd565b6004429101556040519182916001600160401b0360c01b1694429083612acf565b0390a2005b60405162165c6760e01b81526001600160c01b031983166004820152336024820152604490fd5b503360009081527fe807b386b6505ee48f7a1b6969ce48d79a9c0a4f49ca357cbb13bd708d2c5ddb602052604090205460ff1615611cb1565b604051636050eaaf60e11b81526001600160c01b031984166004820152602490fd5b3461031d57600036600319011261031d57602060405168056bc75e2d631000008152f35b3461031d57604036600319011261031d57610c3f602435600435611dd782610b2d565b806000526000602052611df16001604060002001546122ea565b612530565b3461031d57602036600319011261031d576020611e19611e14610322565b612fc3565b6040519015158152f35b3461031d57600036600319011261031d57602060405162278d008152f35b3461031d57600036600319011261031d5760206040517f0ce23c3e399818cfee81a7ab0880f714e53d7672b08df0fa62f2843416e1ea098152f35b3461031d57600080600319360112611589576003546001600160a01b03811633036114195760a01c60ff1615610758577fa866f3901ec84758a10f30e8953c3818eef73da93dfa46cb6aa5b726fb65813f8180a180f35b3461031d57602036600319011261031d576020611e19611ef1610322565b612f8a565b3461031d57600036600319011261031d5760206040517f97667070c54ef182b0f5858b034beac1b6f3089aa2d3188bb1e8929f4fa9b9298152f35b3461031d5760208060031936011261031d5760048035611f5081610b2d565b6001600160a01b03166000908152600e835260409081902081518154808252909390611f856020860193600052602060002090565b6000925b82600385011061204957509285926103e79792611fcc95549184828210612024575b828210612006575b828210611fea575b5010611fd6575b5090500383610806565b51918291826119a2565b6001600160c01b0319168152018038611fc2565b6001600160c01b0319848a1b1685529093019260010184611fbb565b6001600160c01b0319608085901b1685529093019260010184611fb3565b84612040600193968660c01b6001600160401b0360c01b169052565b01930184611fab565b60018883966120958497955461206d838260c01b6001600160401b0360c01b169052565b6001600160c01b0319608082811b821695850195909552818c1b81168c850152166060830152565b019501910192611f89565b3360009081527f7d7ffb7a348e1c6a02869081a26547b49160dd3df72d1d75a570eb9b698292ec60205260409020547fa49807205ce4d355092ef5a8a18f56e8913cf4a201fbe287825b095693c217759060ff16156120fc5750565b612105336126c3565b61210d61260c565b9160306121198461263d565b5360786121258461264a565b5360415b600181116121c35761070a60486121ab85610a24886121488815612678565b6040519485937f416363657373436f6e74726f6c3a206163636f756e74200000000000000000006020860152612188815180926020603789019101610cbc565b84017001034b99036b4b9b9b4b733903937b6329607d1b60378201520190612391565b60405162461bcd60e51b81529182916004830161149a565b90600f811690601082101561220557612200916f181899199a1a9b1b9c1cb0b131b232b360811b901a6121f6848761265a565b5360041c9161266b565b612129565b612627565b3360009081527f1da0b5176dfe03406af5a6eed66ca01dda9b45ac4da671c3fa379cb93717ef8160205260409020547f0ce23c3e399818cfee81a7ab0880f714e53d7672b08df0fa62f2843416e1ea099060ff16156122665750565b61226f336126c3565b61227761260c565b9160306122838461263d565b53607861228f8461264a565b5360415b600181116122b25761070a60486121ab85610a24886121488815612678565b90600f8116906010821015612205576122e5916f181899199a1a9b1b9c1cb0b131b232b360811b901a6121f6848761265a565b612293565b60008181526020818152604080832033845290915290205460ff161561230d5750565b612316336126c3565b61231e61260c565b91603061232a8461263d565b5360786123368461264a565b5360415b600181116123595761070a60486121ab85610a24886121488815612678565b90600f81169060108210156122055761238c916f181899199a1a9b1b9c1cb0b131b232b360811b901a6121f6848761265a565b61233a565b906123a460209282815194859201610cbc565b0190565b6001600160a01b03811660009081527f7d7ffb7a348e1c6a02869081a26547b49160dd3df72d1d75a570eb9b698292ec602052604081207fa49807205ce4d355092ef5a8a18f56e8913cf4a201fbe287825b095693c217759060ff905b54161561241157505050565b808252602082815260408084206001600160a01b038616600090815292529020805460ff1916600117905533926001600160a01b0316917f2f8788117e7eff1d82e926ec794901d17c78024a50270940304540a733656f0d9080a4565b6001600160a01b03811660009081527fee57cd81e84075558e8fcc182a1f4393f91fc97f963a136e66b7f949a62f319f602052604081207f97667070c54ef182b0f5858b034beac1b6f3089aa2d3188bb1e8929f4fa9b9299060ff90612405565b6001600160a01b03811660009081527f1da0b5176dfe03406af5a6eed66ca01dda9b45ac4da671c3fa379cb93717ef81602052604081207f0ce23c3e399818cfee81a7ab0880f714e53d7672b08df0fa62f2843416e1ea099060ff90612405565b6000818152602081815260408083206001600160a01b038616845290915281205490919060ff1661256057505050565b808252602082815260408084206001600160a01b038616600090815292529020805460ff1916905533926001600160a01b0316917ff6391f5c32d9c69d2a47ea670b442974b53935d1edc7fd64eb21e047a839171b9080a4565b634e487b7160e01b600052601160045260246000fd5b919082018092116125dd57565b6125ba565b60405190604082018281106001600160401b038211176107cb576040526008825260203681840137565b60405190612619826107d0565b604282526060366020840137565b634e487b7160e01b600052603260045260246000fd5b8051156122055760200190565b8051600110156122055760210190565b908151811015612205570160200190565b80156125dd576000190190565b1561267f57565b606460405162461bcd60e51b815260206004820152602060248201527f537472696e67733a20686578206c656e67746820696e73756666696369656e746044820152fd5b604051906126d0826107eb565b602a8252604036602084013760306126e78361263d565b5360786126f38361264a565b536029905b6001821161270b57610d8d915015612678565b600f81169060108210156122055761273d916f181899199a1a9b1b9c1cb0b131b232b360811b901a6121f6848661265a565b906126f8565b90600182811c92168015612773575b602083101461275d57565b634e487b7160e01b600052602260045260246000fd5b91607f1691612752565b906040519182600082549261279184612743565b9081845260019485811690816000146127fe57506001146127bb575b505061083492500383610806565b9093915060005260209081600020936000915b8183106127e6575050610834935082010138806127ad565b855488840185015294850194879450918301916127ce565b91505061083494506020925060ff191682840152151560051b82010138806127ad565b60ff6001541661282d57565b60405162461bcd60e51b815260206004820152601060248201526f14185d5cd8589b194e881c185d5cd95960821b6044820152606490fd5b9081602091031261031d5751610d8d81610b2d565b6040513d6000823e3d90fd5b604051637b10399960e01b8152602081600481305afa8015610647576108349160009161297b575b506001600160a01b03811660009081527fe807b386b6505ee48f7a1b6969ce48d79a9c0a4f49ca357cbb13bd708d2c5ddb60205260409020547f4f954bed0529967842be3cf5f1133c59c9d02d41844654c1e7ec00ff708ceff89060ff1615612918575b506124cf565b6000818152602081815260408083206001600160a01b03861684529091529020805460ff1916600117905533906001600160a01b038316907f2f8788117e7eff1d82e926ec794901d17c78024a50270940304540a733656f0d600080a438612912565b61299c915060203d81116129a2575b6129948183610806565b810190612865565b386128ae565b503d61298a565b90601f81116129b757505050565b600091825260208220906020601f850160051c830194106129f3575b601f0160051c01915b8281106129e857505050565b8181556001016129dc565b90925082906129d3565b91909182516001600160401b0381116107cb57612a2481612a1e8454612743565b846129a9565b602080601f8311600114612a60575081929394600092612a55575b50508160011b916000199060031b1c1916179055565b015190503880612a3f565b90601f19831695612a7685600052602060002090565b926000905b888210612ab357505083600195969710612a9a575b505050811b019055565b015160001960f88460031b161c19169055388080612a90565b80600185968294968601518155019501930190612a7b565b9055565b929190612ae6602091604086526040860190610cdf565b930152565b80600052600860205260406000205415600014612b5c57600754600160401b8110156107cb5760018101806007558110156122055781907fa66cc928b5edb82af9bd49922954155ab7b0942694bea4ce44661d9a8736c6880155600754906000526008602052604060002055600190565b50600090565b60008281526001820160208190526040822054612bb157825492600160401b8410156107cb57600184018082558410156122055784604094828552602085200155549382526020522055600190565b5091505090565b60405190612bc5826107af565b8160e06000918281528260208201528260408201526060808201528260808201528260a08201528260c08201520152565b90610834604051612c06816107af565b60e060ff60058396612c3f8154612c2c8160c01b88906001600160401b0360c01b169052565b60401c6001600160a01b03166020870152565b612c61612c50600183015460c01b90565b6001600160c01b0319166040870152565b612c6d6002820161277d565b606086015260038101546080860152600481015460a08601520154818116151560c085015260081c161515910152565b6001600160401b0381116107cb5760051b60200190565b90612cbe82612c9d565b612ccb6040519182610806565b8281528092612cdc601f1991612c9d565b0190602036910137565b60001981146125dd5760010190565b80518210156122055760209160051b010190565b90612d1381610350565b60ff80198354169116179055565b6040810193929160209190612d3581610350565b81520152565b9081602091031261031d575190565b9081602091031261031d5751801515810361031d5790565b15612d6957565b60405162461bcd60e51b815260206004820152601a60248201527f47414d4520746f6b656e207472616e73666572206661696c65640000000000006044820152606490fd5b61038082610350565b90612acb90612dc581610350565b825461ff00191660089190911b61ff00161790565b815181546020840151600160401b600160e01b03604091821b166001600160e01b031990921660c093841c179190911783558301516001830155606083015160028301556080830151600383015560a083015160048301558201516108349260059092019160e091612e5a901515849060ff801983541691151516179055565b015190612e6682610350565b612db7565b919091805483101561220557600052601860206000208360021c019260031b1690565b90815491600160401b8310156107cb57826106b391600161083495018155612e6b565b90949392606092608083019683526020830152612ecd81610350565b60408201520152565b6002805414612ee55760028055565b60405162461bcd60e51b815260206004820152601f60248201527f5265656e7472616e637947756172643a207265656e7472616e742063616c6c006044820152606490fd5b6000198101919082116125dd57565b60070390600782116125dd57565b80548015612f74576000190190612f5e8282612e6b565b6001600160401b0382549160031b1b1916905555565b634e487b7160e01b600052603160045260246000fd5b6001600160401b0360c01b16600052600f602052604060002060ff60058201541615908115612fb7575090565b60049150015442101590565b90612fcc6125e2565b60005b6008811061307e575090915060005b60088110612fed575050600190565b61301861300b612ffd838561265a565b516001600160f81b03191690565b6001600160f81b03191690565b600360fc1b811015908161306f575b8115613049575b50156130425761303d90612ce6565b612fde565b5050600090565b604160f81b811015915081613060575b503861302e565b602d60f91b1015905038613059565b603960f81b8111159150613027565b8084613095921a61308f828561265a565b53612ce6565b612fcf565b6001600160a01b036130aa613157565b1680156131355760405163b4ae840f60e01b81526001600160c01b03198316600482015290602090829060249082905afa90811561064757600091613117575b50156130f35750565b604051634fddb6dd60e11b81526001600160c01b0319919091166004820152602490fd5b61312f915060203d8111610640576106328183610806565b386130ea565b604051634fddb6dd60e11b81526001600160c01b031983166004820152602490fd5b60035460ff8160a01c1615610758576040516385acd64160e01b81527fbdded29a54e6a5d6169bedea55373b06f57e35d7b0f67ac187565b435e2cc943600482015290602090829060249082906001600160a01b03165afa908115610647576000916131c1575090565b610d8d915060203d81116129a2576129948183610806565b906131e5601154612ce6565b9081601155604091825190602094858301936bffffffffffffffffffffffff199060601b1684526001600160401b0360c01b16603483015242603c830152605c82015263282927a360e11b607c82015260608152613242816107d0565b5190209061324e6125e2565b91600080915b600883106132655750505050015190565b83516132d891613274826107eb565b6132ba612ffd6024938481527f303132333435363738394142434445464748494a4b4c4d4e4f505152535455568b820152632bac2cad60e11b898201528484069061265a565b6132d06132c687612f39565b91861a918961265a565b530492612ce6565b9161325456fea2646970667358221220c58670dfad1661c3cd57ac2f2f8310a6a834747a25105e0125da92cd34e57ce964736f6c634300081400332f8788117e7eff1d82e926ec794901d17c78024a50270940304540a733656f0d",
  "linkReferences": {},
  "deployedLinkReferences": {}
}