{
  "_format": "hh-sol-artifact-1",
  "contractName": "MockUSDC",
  "sourceName": "contracts/mocks/MockUSDC.sol",
  "abi": [
    {
      "inputs": [],
      "stateMutability": "nonpayable",
      "type": "constructor"
    },
    {
      "anonymous": false,
      "inputs": [
        {
          "indexed": true,
          "internalType": "address",
          "name": "owner",
          "type": "address"
        },
        {
          "indexed": true,
          "internalType": "address",
          "name": "spender",
          "type": "address"
        },
        {
          "indexed": false,
          "internalType": "uint256",
          "name": "value",
          "type": "uint256"
        }
      ],
      "name": "Approval",
      "type": "event"
    },
    {
      "anonymous": false,
      "inputs": [
        {
          "indexed": true,
          "internalType": "bytes32",
          "name": "role",
          "type": "bytes32"
        },
        {
          "indexed": true,
          "internalType": "bytes32",
          "name": "previousAdminRole",
          "type": "bytes32"
        },
        {
          "indexed": true,
          "internalType": "bytes32",
          "name": "newAdminRole",
          "type": "bytes32"
        }
      ],
      "name": "RoleAdminChanged",
      "type": "event"
    },
    {
      "anonymous": false,
      "inputs": [
        {
          "indexed": true,
          "internalType": "bytes32",
          "name": "role",
          "type": "bytes32"
        },
        {
          "indexed": true,
          "internalType": "address",
          "name": "account",
          "type": "address"
        },
        {
          "indexed": true,
          "internalType": "address",
          "name": "sender",
          "type": "address"
        }
      ],
      "name": "RoleGranted",
      "type": "event"
    },
    {
      "anonymous": false,
      "inputs": [
        {
          "indexed": true,
          "internalType": "bytes32",
          "name": "role",
          "type": "bytes32"
        },
        {
          "indexed": true,
          "internalType": "address",
          "name": "account",
          "type": "address"
        },
        {
          "indexed": true,
          "internalType": "address",
          "name": "sender",
          "type": "address"
        }
      ],
      "name": "RoleRevoked",
      "type": "event"
    },
    {
      "anonymous": false,
      "inputs": [
        {
          "indexed": true,
          "internalType": "address",
          "name": "from",
          "type": "address"
        },
        {
          "indexed": true,
          "internalType": "address",
          "name": "to",
          "type": "address"
        },
        {
          "indexed": false,
          "internalType": "uint256",
          "name": "value",
          "type": "uint256"
        }
      ],
      "name": "Transfer",
      "type": "event"
    },
    {
      "inputs": [],
      "name": "ADMIN_ROLE",
      "outputs": [
        {
          "internalType": "bytes32",
          "name": "",
          "type": "bytes32"
        }
      ],
      "stateMutability": "view",
      "type": "function"
    },
    {
      "inputs": [],
      "name": "DEFAULT_ADMIN_ROLE",
      "outputs": [
        {
          "internalType": "bytes32",
          "name": "",
          "type": "bytes32"
        }
      ],
      "stateMutability": "view",
      "type": "function"
    },
    {
      "inputs": [],
      "name": "MINTER_ROLE",
      "outputs": [
        {
          "internalType": "bytes32",
          "name": "",
          "type": "bytes32"
        }
      ],
      "stateMutability": "view",
      "type": "function"
    },
    {
      "inputs": [
        {
          "internalType": "address",
          "name": "minter",
          "type": "address"
        }
      ],
      "name": "addMinter",
      "outputs": [],
      "stateMutability": "nonpayable",
      "type": "function"
    },
    {
      "inputs": [
        {
          "internalType": "address",
          "name": "owner",
          "type": "address"
        },
        {
          "internalType": "address",
          "name": "spender",
          "type": "address"
        }
      ],
      "name": "allowance",
      "outputs": [
        {
          "internalType": "uint256",
          "name": "",
          "type": "uint256"
        }
      ],
      "stateMutability": "view",
      "type": "function"
    },
    {
      "inputs": [
        {
          "internalType": "address",
          "name": "spender",
          "type": "address"
        },
        {
          "internalType": "uint256",
          "name": "amount",
          "type": "uint256"
        }
      ],
      "name": "approve",
      "outputs": [
        {
          "internalType": "bool",
          "name": "",
          "type": "bool"
        }
      ],
      "stateMutability": "nonpayable",
      "type": "function"
    },
    {
      "inputs": [
        {
          "internalType": "address",
          "name": "account",
          "type": "address"
        }
      ],
      "name": "balanceOf",
      "outputs": [
        {
          "internalType": "uint256",
          "name": "",
          "type": "uint256"
        }
      ],
      "stateMutability": "view",
      "type": "function"
    },
    {
      "inputs": [
        {
          "internalType": "uint256",
          "name": "amount",
          "type": "uint256"
        }
      ],
      "name": "burn",
      "outputs": [],
      "stateMutability": "nonpayable",
      "type": "function"
    },
    {
      "inputs": [
        {
          "internalType": "address",
          "name": "from",
          "type": "address"
        },
        {
          "internalType": "uint256",
          "name": "amount",
          "type": "uint256"
        }
      ],
      "name": "burnFrom",
      "outputs": [],
      "stateMutability": "nonpayable",
      "type": "function"
    },
    {
      "inputs": [],
      "name": "decimals",
      "outputs": [
        {
          "internalType": "uint8",
          "name": "",
          "type": "uint8"
        }
      ],
      "stateMutability": "pure",
      "type": "function"
    },
    {
      "inputs": [
        {
          "internalType": "address",
          "name": "spender",
          "type": "address"
        },
        {
          "internalType": "uint256",
          "name": "subtractedValue",
          "type": "uint256"
        }
      ],
      "name": "decreaseAllowance",
      "outputs": [
        {
          "internalType": "bool",
          "name": "",
          "type": "bool"
        }
      ],
      "stateMutability": "nonpayable",
      "type": "function"
    },
    {
      "inputs": [
        {
          "internalType": "bytes32",
          "name": "role",
          "type": "bytes32"
        }
      ],
      "name": "getRoleAdmin",
      "outputs": [
        {
          "internalType": "bytes32",
          "name": "",
          "type": "bytes32"
        }
      ],
      "stateMutability": "view",
      "type": "function"
    },
    {
      "inputs": [
        {
          "internalType": "bytes32",
          "name": "role",
          "type": "bytes32"
        },
        {
          "internalType": "address",
          "name": "account",
          "type": "address"
        }
      ],
      "name": "grantRole",
      "outputs": [],
      "stateMutability": "nonpayable",
      "type": "function"
    },
    {
      "inputs": [
        {
          "internalType": "bytes32",
          "name": "role",
          "type": "bytes32"
        },
        {
          "internalType": "address",
          "name": "account",
          "type": "address"
        }
      ],
      "name": "hasRole",
      "outputs": [
        {
          "internalType": "bool",
          "name": "",
          "type": "bool"
        }
      ],
      "stateMutability": "view",
      "type": "function"
    },
    {
      "inputs": [
        {
          "internalType": "address",
          "name": "spender",
          "type": "address"
        },
        {
          "internalType": "uint256",
          "name": "addedValue",
          "type": "uint256"
        }
      ],
      "name": "increaseAllowance",
      "outputs": [
        {
          "internalType": "bool",
          "name": "",
          "type": "bool"
        }
      ],
      "stateMutability": "nonpayable",
      "type": "function"
    },
    {
      "inputs": [
        {
          "internalType": "address",
          "name": "account",
          "type": "address"
        }
      ],
      "name": "isMinter",
      "outputs": [
        {
          "internalType": "bool",
          "name": "",
          "type": "bool"
        }
      ],
      "stateMutability": "view",
      "type": "function"
    },
    {
      "inputs": [
        {
          "internalType": "address",
          "name": "to",
          "type": "address"
        },
        {
          "internalType": "uint256",
          "name": "amount",
          "type": "uint256"
        }
      ],
      "name": "mint",
      "outputs": [],
      "stateMutability": "nonpayable",
      "type": "function"
    },
    {
      "inputs": [],
      "name": "name",
      "outputs": [
        {
          "internalType": "string",
          "name": "",
          "type": "string"
        }
      ],
      "stateMutability": "view",
      "type": "function"
    },
    {
      "inputs": [
        {
          "internalType": "address",
          "name": "minter",
          "type": "address"
        }
      ],
      "name": "removeMinter",
      "outputs": [],
      "stateMutability": "nonpayable",
      "type": "function"
    },
    {
      "inputs": [
        {
          "internalType": "bytes32",
          "name": "role",
          "type": "bytes32"
        },
        {
          "internalType": "address",
          "name": "account",
          "type": "address"
        }
      ],
      "name": "renounceRole",
      "outputs": [],
      "stateMutability": "nonpayable",
      "type": "function"
    },
    {
      "inputs": [
        {
          "internalType": "bytes32",
          "name": "role",
          "type": "bytes32"
        },
        {
          "internalType": "address",
          "name": "account",
          "type": "address"
        }
      ],
      "name": "revokeRole",
      "outputs": [],
      "stateMutability": "nonpayable",
      "type": "function"
    },
    {
      "inputs": [
        {
          "internalType": "bytes4",
          "name": "interfaceId",
          "type": "bytes4"
        }
      ],
      "name": "supportsInterface",
      "outputs": [
        {
          "internalType": "bool",
          "name": "",
          "type": "bool"
        }
      ],
      "stateMutability": "view",
      "type": "function"
    },
    {
      "inputs": [],
      "name": "symbol",
      "outputs": [
        {
          "internalType": "string",
          "name": "",
          "type": "string"
        }
      ],
      "stateMutability": "view",
      "type": "function"
    },
    {
      "inputs": [],
      "name": "totalSupply",
      "outputs": [
        {
          "internalType": "uint256",
          "name": "",
          "type": "uint256"
        }
      ],
      "stateMutability": "view",
      "type": "function"
    },
    {
      "inputs": [
        {
          "internalType": "address",
          "name": "to",
          "type": "address"
        },
        {
          "internalType": "uint256",
          "name": "amount",
          "type": "uint256"
        }
      ],
      "name": "transfer",
      "outputs": [
        {
          "internalType": "bool",
          "name": "",
          "type": "bool"
        }
      ],
      "stateMutability": "nonpayable",
      "type": "function"
    },
    {
      "inputs": [
        {
          "internalType": "address",
          "name": "from",
          "type": "address"
        },
        {
          "internalType": "address",
          "name": "to",
          "type": "address"
        },
        {
          "internalType": "uint256",
          "name": "amount",
          "type": "uint256"
        }
      ],
      "name": "transferFrom",
      "outputs": [
        {
          "internalType": "bool",
          "name": "",
          "type": "bool"
        }
      ],
      "stateMutability": "nonpayable",
      "type": "function"
    }
  ],
  "bytecode": "0x60806040523462000026576200001462000129565b604051611730620006c3823961173090f35b600080fd5b634e487b7160e01b600052604160045260246000fd5b90601f01601f191681019081106001600160401b038211176200006357604052565b6200002b565b90620000806200007860405190565b928362000041565b565b6001600160401b0381116200006357602090601f01601f19160190565b90620000b5620000af8362000082565b62000069565b918252565b620000c660086200009f565b672aa9a21021b7b4b760c11b602082015290565b620000e4620000ba565b90565b620000f360046200009f565b635553444360e01b602082015290565b620000e4620000e7565b620000e4620000e4620000e49290565b620000e460006200010d565b6200014862000137620000da565b6200014162000103565b90620001d2565b62000080620001566200011d565b6200016333809262000467565b6200018f817fa49807205ce4d355092ef5a8a18f56e8913cf4a201fbe287825b095693c2177562000467565b620001bb817f9f2df0fed2c77648de5860a4cc508cd0818c85b8b8a1ab4ceeef8d981c8956a662000467565b620001cb64e8d4a510006200010d565b90620005ed565b6200008091829182918291620003d4565b634e487b7160e01b600052602260045260246000fd5b90600160028304921680156200021c575b60208310146200021657565b620001e3565b91607f16916200020a565b9160001960089290920291821b911b5b9181191691161790565b919062000256620000e46200025f936200010d565b90835462000227565b9055565b620000809160009162000241565b8181106200027d575050565b806200028d600060019362000263565b0162000271565b9190601f8111620002a457505050565b620002b86200008093600052602060002090565b906020601f840181900483019310620002dc575b6020601f90910104019062000271565b9091508190620002cc565b90620002f1815190565b906001600160401b03821162000063576200031982620003128554620001f9565b8562000294565b602090601f831160011462000358576200025f9291600091836200034c575b5050600019600883021c1916906002021790565b01519050388062000338565b601f198316916200036e85600052602060002090565b9260005b818110620003af5750916002939185600196941062000395575b50505002019055565b01516000196008601f8516021c191690553880806200038c565b9193602060018192878701518155019501920162000372565b906200008091620002e7565b90620003e662000080926003620003c8565b6004620003c8565b905b600052602052604060002090565b620000e49062000414906001600160a01b031682565b6001600160a01b031690565b620000e490620003fe565b620000e49062000420565b90620003f0906200042b565b9060ff9062000237565b906200045f620000e46200025f92151590565b825462000442565b906200047c620004788284620004f7565b1590565b62000485575050565b620004ac6001620004a68360006200049f876005620003ee565b0162000436565b6200044c565b3390620004e6620004df620004df7f2f8788117e7eff1d82e926ec794901d17c78024a50270940304540a733656f0d9590565b926200042b565b92620004f160405190565b600090a4565b620000e49160006200049f620005199362000510600090565b506005620003ee565b5460ff1690565b62000414620000e4620000e49290565b620000e49062000520565b156200054357565b60405162461bcd60e51b815260206004820152601f60248201527f45524332303a206d696e7420746f20746865207a65726f2061646472657373006044820152606490fd5b620000e49081565b620000e4905462000588565b634e487b7160e01b600052601160045260246000fd5b91908201809211620005c057565b6200059c565b906000199062000237565b90620005e5620000e46200025f926200010d565b8254620005c6565b60006200066a6200064f83620006038462000530565b9362000626620006138662000414565b6200061e8462000414565b14156200053b565b6200064962000641886200063b600262000590565b620005b2565b6002620005d1565b62000436565b62000663856200065f8362000590565b0190565b90620005d1565b620006bd620006a56200069e7fddf252ad1be2c89b69c2b068fc378daa952ba7f163c4a11628f55a4df523b3ef936200042b565b936200042b565b93620006b060405190565b9182918290815260200190565b0390a356fe6080604052600436101561001257600080fd5b60003560e01c806301ffc9a7146101b257806306fdde03146101ad578063095ea7b3146101a857806318160ddd146101a357806323b872dd1461019e578063248a9ca3146101995780632f2ff15d146101945780633092afd51461018f578063313ce5671461018a57806336568abe14610185578063395093511461018057806340c10f191461017b57806342966c681461017657806370a082311461017157806375b238fc1461016c57806379cc67901461016757806391d148541461016257806395d89b411461015d578063983b2d5614610158578063a217fddf14610153578063a457c2d71461014e578063a9059cbb14610149578063aa271e1a14610144578063d53913931461013f578063d547741f1461013a5763dd62ed3e036101ca5761069c565b610669565b610630565b610615565b6105f9565b6105dd565b6105c2565b61058b565b610570565b610554565b61053b565b610502565b6104e7565b6104cf565b6104b6565b61049a565b610481565b610452565b61043a565b610408565b6103ca565b61039a565b61033e565b610322565b61029d565b6101f5565b6001600160e01b031981165b036101ca57565b600080fd5b905035906101dc826101b7565b565b906020828203126101ca576101f2916101cf565b90565b346101ca5761022261021061020b3660046101de565b6106b8565b60405191829182901515815260200190565b0390f35b60009103126101ca57565b60005b8381106102445750506000910152565b8181015183820152602001610234565b61027561027e60209361028893610269815190565b80835293849260200190565b95869101610231565b601f01601f191690565b0190565b60208082526101f292910190610254565b346101ca576102ad366004610226565b6102226102b8610bd6565b6040519182918261028c565b6001600160a01b031690565b6001600160a01b0381166101c3565b905035906101dc826102d0565b806101c3565b905035906101dc826102ec565b91906040838203126101ca576101f29061031981856102df565b936020016102f2565b346101ca576102226102106103383660046102ff565b90610c45565b346101ca5761034e366004610226565b610222610359610bea565b6040515b9182918290815260200190565b90916060828403126101ca576101f261038384846102df565b9361039181602086016102df565b936040016102f2565b346101ca576102226102106103b036600461036a565b91610c50565b906020828203126101ca576101f2916102f2565b346101ca576102226103596103e03660046103b6565b610782565b91906040838203126101ca576101f2906103ff81856102f2565b936020016102df565b346101ca5761042161041b3660046103e5565b906107b9565b604051005b906020828203126101ca576101f2916102df565b346101ca5761042161044d366004610426565b6116c7565b346101ca57610462366004610226565b61022261046d6113fd565b6040519182918260ff909116815260200190565b346101ca576104216104943660046103e5565b906109bf565b346101ca576102226102106104b03660046102ff565b90610c89565b346101ca576104216104c93660046102ff565b9061143f565b346101ca576104216104e23660046103b6565b6114de565b346101ca576102226103596104fd366004610426565b610bf4565b346101ca57610512366004610226565b6102227fa49807205ce4d355092ef5a8a18f56e8913cf4a201fbe287825b095693c21775610359565b346101ca5761042161054e3660046102ff565b906115fb565b346101ca5761022261021061056a3660046103e5565b90610749565b346101ca57610580366004610226565b6102226102b8610be0565b346101ca5761042161059e366004610426565b611667565b6101f26101f26101f29290565b6101f260006105a3565b6101f26105b0565b346101ca576105d2366004610226565b6102226103596105ba565b346101ca576102226102106105f33660046102ff565b90610d1a565b346101ca5761022261021061060f3660046102ff565b90610c10565b346101ca5761022261021061062b366004610426565b6116d0565b346101ca57610640366004610226565b6102227f9f2df0fed2c77648de5860a4cc508cd0818c85b8b8a1ab4ceeef8d981c8956a6610359565b346101ca5761042161067c3660046103e5565b90610943565b91906040838203126101ca576101f2906103ff81856102df565b346101ca576102226103596106b2366004610682565b90610c25565b637965db0b60e01b6001600160e01b03198216149081156106d7575090565b6101f291506001600160e01b0319166301ffc9a760e01b1490565b905b600052602052604060002090565b6102c46101f26101f2926001600160a01b031690565b6101f290610702565b6101f290610718565b906106f490610721565b6101f2905b60ff1690565b6101f29054610734565b6101f291600061076661076c9361075e600090565b5060056106f2565b0161072a565b61073f565b6101f29081565b6101f29054610771565b60016107936101f29261075e600090565b01610778565b906101dc916107af6107aa82610782565b6107c3565b906101dc91610a0f565b906101dc91610799565b6101dc90339061089c565b6101f2906105a3565b6102886107ef926020926107e9815190565b94859290565b93849101610231565b6108366101f29392610830610830937f416363657373436f6e74726f6c3a206163636f756e7420000000000000000000815260170190565b906107d7565b7f206973206d697373696e6720726f6c6520000000000000000000000000000000815260110190565b634e487b7160e01b600052604160045260246000fd5b90601f01601f1916810190811067ffffffffffffffff82111761089757604052565b61085f565b906108ae6108aa8284610749565b1590565b6108b6575050565b610924916101f26108d26108cc61090c946113d0565b926107ce565b6108e76020916108e1836105a3565b90611270565b926109006108f460405190565b948593840192836107f8565b90810382520382610875565b60405162461bcd60e51b81529182916004830161028c565b0390fd5b906101dc916109396107aa82610782565b906101dc91610a86565b906101dc91610928565b1561095457565b60405162461bcd60e51b815260206004820152602f60248201527f416363657373436f6e74726f6c3a2063616e206f6e6c792072656e6f756e636560448201527f20726f6c657320666f722073656c6600000000000000000000000000000000006064820152608490fd5b6101dc91906109e06109d0336102c4565b6001600160a01b0384161461094d565b610a86565b9060ff905b9181191691161790565b90610a046101f2610a0b92151590565b82546109e5565b9055565b90610a1d6108aa8284610749565b610a25575050565b610a406001610a3b8360006107668760056106f2565b6109f4565b3390610a76610a70610a707f2f8788117e7eff1d82e926ec794901d17c78024a50270940304540a733656f0d9590565b92610721565b92610a8060405190565b600090a4565b90610a918183610749565b610a99575050565b610aae6000610a3b83826107668760056106f2565b3390610a76610a70610a707ff6391f5c32d9c69d2a47ea670b442974b53935d1edc7fd64eb21e047a839171b9590565b634e487b7160e01b600052602260045260246000fd5b9060016002830492168015610b14575b6020831014610b0f57565b610ade565b91607f1691610b04565b80546000939291610b3b610b3183610af4565b8085529360200190565b9160018116908115610b8d5750600114610b5457505050565b610b679192939450600052602060002090565b916000925b818410610b795750500190565b805484840152602090930192600101610b6c565b92949550505060ff1916825215156020020190565b906101f291610b1e565b906101dc610bc692610bbd60405190565b93848092610ba2565b0383610875565b6101f290610bac565b6101f26003610bcd565b6101f26004610bcd565b6101f26002610778565b610c0b6101f291610c03600090565b50600061072a565b610778565b610c20919033610eb1565b610eb1565b600190565b6101f291610c40610c0b92610c38600090565b50600161072a565b61072a565b610c2091903361102e565b610c20929190610c1b8333836110fc565b634e487b7160e01b600052601160045260246000fd5b91908201809211610c8457565b610c61565b610c209190610ca23392610c9d8385610c25565b610c77565b9161102e565b15610caf57565b60405162461bcd60e51b815260206004820152602560248201527f45524332303a2064656372656173656420616c6c6f77616e63652062656c6f7760448201527f207a65726f0000000000000000000000000000000000000000000000000000006064820152608490fd5b610c209190610ca23392610d2e8385610c25565b610d3a82821015610ca8565b0390565b6102c46101f26101f29290565b6101f290610d3e565b15610d5b57565b60405162461bcd60e51b815260206004820152602560248201527f45524332303a207472616e736665722066726f6d20746865207a65726f20616460448201527f64726573730000000000000000000000000000000000000000000000000000006064820152608490fd5b15610dcd57565b60405162461bcd60e51b815260206004820152602360248201527f45524332303a207472616e7366657220746f20746865207a65726f206164647260448201526265737360e81b6064820152608490fd5b15610e2557565b60405162461bcd60e51b815260206004820152602660248201527f45524332303a207472616e7366657220616d6f756e742065786365656473206260448201527f616c616e636500000000000000000000000000000000000000000000000000006064820152608490fd5b90600019906109ea565b90610eaa6101f2610a0b926105a3565b8254610e90565b610f3a610f27836000610ef8610ee7610ec983610d4b565b6102c46001600160a01b0382166001600160a01b038a161415610d54565b6001600160a01b0384161415610dc6565b610c40610f1888610f0c610c0b898661072a565b610d3a82821015610e1e565b610f22878461072a565b610e9a565b610f348561028883610778565b90610e9a565b610f7a610f70610f6a7fddf252ad1be2c89b69c2b068fc378daa952ba7f163c4a11628f55a4df523b3ef93610721565b93610721565b9361035d60405190565b0390a3565b15610f8657565b60405162461bcd60e51b8152602060048201526024808201527f45524332303a20617070726f76652066726f6d20746865207a65726f206164646044820152637265737360e01b6064820152608490fd5b15610fde57565b60405162461bcd60e51b815260206004820152602260248201527f45524332303a20617070726f766520746f20746865207a65726f206164647265604482015261737360f01b6064820152608490fd5b61106d61105c61103e6000610d4b565b6102c46001600160a01b0382166001600160a01b0386161415610f7f565b6001600160a01b0384161415610fd7565b61108083610f2284610c4085600161072a565b610f7a610f70610f6a7f8c5be1e5ebec7d5bd14f71427d1e84f3dd0314c0f7b2291e5b200ac8c7c3b92593610721565b156110b757565b60405162461bcd60e51b815260206004820152601d60248201527f45524332303a20696e73756666696369656e7420616c6c6f77616e63650000006044820152606490fd5b906111078183610c25565b6000198103611117575b50505050565b61112b93610ca291610d3a828210156110b0565b38808080611111565b81810292918115918404141715610c8457565b906101dc61115460405190565b9283610875565b67ffffffffffffffff811161089757602090601f01601f19160190565b9061118a6111858361115b565b611147565b918252565b369037565b906101dc6111aa6111a484611178565b9361115b565b601f19016020840161118f565b634e487b7160e01b600052603260045260246000fd5b906111d6825190565b8110156111e4570160200190565b6111b7565b8015610c84576000190190565b6107396101f26101f29290565b6101f29061121b6112176101f29460ff1690565b9190565b901c90565b1561122757565b60405162461bcd60e51b815280610924600482016020808252818101527f537472696e67733a20686578206c656e67746820696e73756666696369656e74604082015260600190565b91906002926112a161129c61128d84611288886105a3565b611134565b611296876105a3565b90610c77565b611194565b9160009060306112b96112b3846105a3565b866111cd565b536112f16112e8600f60fb1b926112886001998a95871a6112e26112dc886105a3565b8b6111cd565b536105a3565b611296836105a3565b905b611315575b506101f29394509061130f6112176101f2936105a3565b14611220565b9161131f866105a3565b83111561139a577f3031323334353637383961626364656600000000000000000000000000000000611351600f6105a3565b82169060108210156111e457879261137161138e92611394941a60f81b90565b851a61137d87896111cd565b5361138860046111f6565b90611203565b936111e9565b906112f3565b916112f8565b6101f26101f26101f2926001600160a01b031690565b6101f260146111f6565b6101f26101f26101f29260ff1690565b6113ed6113e86101f2926113e2606090565b50610718565b6113a0565b6108e16113f86113b6565b6113c0565b6101f260066111f6565b6101dc91906114357f9f2df0fed2c77648de5860a4cc508cd0818c85b8b8a1ab4ceeef8d981c8956a66107c3565b906101dc91611495565b906101dc91611407565b1561145057565b60405162461bcd60e51b815260206004820152601f60248201527f45524332303a206d696e7420746f20746865207a65726f2061646472657373006044820152606490fd5b6000610f3a610f27836114a784610d4b565b936114c66001600160a01b0386166001600160a01b0384161415611449565b610c406114d788610c9d6002610778565b6002610e9a565b6101dc9033611595565b156114ef57565b60405162461bcd60e51b815260206004820152602160248201527f45524332303a206275726e2066726f6d20746865207a65726f206164647265736044820152607360f81b6064820152608490fd5b1561154557565b60405162461bcd60e51b815260206004820152602260248201527f45524332303a206275726e20616d6f756e7420657863656564732062616c616e604482015261636560f01b6064820152608490fd5b6000906115ea6115a483610d4b565b926115c36001600160a01b0385166001600160a01b03851614156114e8565b610f22836115e4876115d8610c0b848761072a565b610d3a8282101561153e565b9261072a565b610f3a6114d784610d3a6002610778565b906101dc9161160b8233836110fc565b611595565b6101dc9061163d7fa49807205ce4d355092ef5a8a18f56e8913cf4a201fbe287825b095693c217756107c3565b6101dc907f9f2df0fed2c77648de5860a4cc508cd0818c85b8b8a1ab4ceeef8d981c8956a6610a0f565b6101dc90611610565b6101dc9061169d7fa49807205ce4d355092ef5a8a18f56e8913cf4a201fbe287825b095693c217756107c3565b6101dc907f9f2df0fed2c77648de5860a4cc508cd0818c85b8b8a1ab4ceeef8d981c8956a6610a86565b6101dc90611670565b6101f2907f9f2df0fed2c77648de5860a4cc508cd0818c85b8b8a1ab4ceeef8d981c8956a661074956fea2646970667358221220efd1272f7d7d81a7b65c14afcf02358b88be16846b261ab9020ef660be0e2feb64736f6c63430008140033",
  "linkReferences": {},
  "deployedLinkReferences": {}
}