{
  "_format": "hh-sol-artifact-1",
  "contractName": "Sense",
  "sourceName": "contracts/modules/Sense/Sense.sol",
  "abi": [
    {
      "inputs": [],
      "stateMutability": "nonpayable",
      "type": "constructor"
    },
    {
      "inputs": [
        {
          "internalType": "bytes32",
          "name": "profileId",
          "type": "bytes32"
        },
        {
          "internalType": "bytes32",
          "name": "achievementId",
          "type": "bytes32"
        }
      ],
      "name": "AchievementAlreadyGranted",
      "type": "error"
    },
    {
      "inputs": [
        {
          "internalType": "bytes32",
          "name": "achievementId",
          "type": "bytes32"
        }
      ],
      "name": "AchievementNotFound",
      "type": "error"
    },
    {
      "inputs": [
        {
          "internalType": "address",
          "name": "caller",
          "type": "address"
        },
        {
          "internalType": "string",
          "name": "action",
          "type": "string"
        }
      ],
      "name": "InsufficientPermissions",
      "type": "error"
    },
    {
      "inputs": [
        {
          "internalType": "uint8",
          "name": "rating",
          "type": "uint8"
        }
      ],
      "name": "InvalidFeedbackRating",
      "type": "error"
    },
    {
      "inputs": [
        {
          "internalType": "bytes32",
          "name": "profileId",
          "type": "bytes32"
        }
      ],
      "name": "InvalidImportProof",
      "type": "error"
    },
    {
      "inputs": [],
      "name": "InvalidRegistryAddress",
      "type": "error"
    },
    {
      "inputs": [
        {
          "internalType": "int256",
          "name": "delta",
          "type": "int256"
        }
      ],
      "name": "InvalidReputationDelta",
      "type": "error"
    },
    {
      "inputs": [
        {
          "internalType": "enum ISense.VerificationLevel",
          "name": "level",
          "type": "uint8"
        }
      ],
      "name": "InvalidVerificationLevel",
      "type": "error"
    },
    {
      "inputs": [],
      "name": "ModuleAlreadyInitialized",
      "type": "error"
    },
    {
      "inputs": [],
      "name": "ModuleNotInitialized",
      "type": "error"
    },
    {
      "inputs": [],
      "name": "OnlyRegistry",
      "type": "error"
    },
    {
      "inputs": [
        {
          "internalType": "bytes32",
          "name": "organizationId",
          "type": "bytes32"
        }
      ],
      "name": "OrganizationNotFound",
      "type": "error"
    },
    {
      "inputs": [
        {
          "internalType": "address",
          "name": "owner",
          "type": "address"
        },
        {
          "internalType": "bytes32",
          "name": "organizationId",
          "type": "bytes32"
        }
      ],
      "name": "ProfileAlreadyExists",
      "type": "error"
    },
    {
      "inputs": [
        {
          "internalType": "bytes32",
          "name": "profileId",
          "type": "bytes32"
        }
      ],
      "name": "ProfileNotFound",
      "type": "error"
    },
    {
      "inputs": [
        {
          "internalType": "bytes32",
          "name": "profileId",
          "type": "bytes32"
        }
      ],
      "name": "ReputationExportFailed",
      "type": "error"
    },
    {
      "inputs": [
        {
          "internalType": "address",
          "name": "giver",
          "type": "address"
        },
        {
          "internalType": "bytes32",
          "name": "targetProfileId",
          "type": "bytes32"
        }
      ],
      "name": "SelfFeedbackNotAllowed",
      "type": "error"
    },
    {
      "inputs": [
        {
          "internalType": "bytes32",
          "name": "profileId",
          "type": "bytes32"
        },
        {
          "internalType": "address",
          "name": "caller",
          "type": "address"
        }
      ],
      "name": "UnauthorizedProfileAccess",
      "type": "error"
    },
    {
      "anonymous": false,
      "inputs": [
        {
          "indexed": true,
          "internalType": "bytes32",
          "name": "profileId",
          "type": "bytes32"
        },
        {
          "indexed": true,
          "internalType": "bytes32",
          "name": "achievementId",
          "type": "bytes32"
        },
        {
          "indexed": false,
          "internalType": "string",
          "name": "name",
          "type": "string"
        },
        {
          "indexed": false,
          "internalType": "uint256",
          "name": "points",
          "type": "uint256"
        },
        {
          "indexed": false,
          "internalType": "address",
          "name": "grantedBy",
          "type": "address"
        },
        {
          "indexed": false,
          "internalType": "uint256",
          "name": "timestamp",
          "type": "uint256"
        }
      ],
      "name": "AchievementGranted",
      "type": "event"
    },
    {
      "anonymous": false,
      "inputs": [
        {
          "indexed": true,
          "internalType": "bytes32",
          "name": "feedbackId",
          "type": "bytes32"
        },
        {
          "indexed": true,
          "internalType": "bytes32",
          "name": "targetProfileId",
          "type": "bytes32"
        },
        {
          "indexed": true,
          "internalType": "address",
          "name": "giver",
          "type": "address"
        },
        {
          "indexed": false,
          "internalType": "enum ISense.FeedbackType",
          "name": "feedbackType",
          "type": "uint8"
        },
        {
          "indexed": false,
          "internalType": "uint8",
          "name": "rating",
          "type": "uint8"
        },
        {
          "indexed": false,
          "internalType": "uint256",
          "name": "timestamp",
          "type": "uint256"
        }
      ],
      "name": "FeedbackSubmitted",
      "type": "event"
    },
    {
      "anonymous": false,
      "inputs": [],
      "name": "ModuleDisabled",
      "type": "event"
    },
    {
      "anonymous": false,
      "inputs": [],
      "name": "ModuleEnabled",
      "type": "event"
    },
    {
      "anonymous": false,
      "inputs": [
        {
          "indexed": true,
          "internalType": "address",
          "name": "registry",
          "type": "address"
        }
      ],
      "name": "ModuleInitialized",
      "type": "event"
    },
    {
      "anonymous": false,
      "inputs": [
        {
          "indexed": false,
          "internalType": "address",
          "name": "account",
          "type": "address"
        }
      ],
      "name": "Paused",
      "type": "event"
    },
    {
      "anonymous": false,
      "inputs": [
        {
          "indexed": true,
          "internalType": "bytes32",
          "name": "profileId",
          "type": "bytes32"
        },
        {
          "indexed": true,
          "internalType": "address",
          "name": "owner",
          "type": "address"
        },
        {
          "indexed": true,
          "internalType": "bytes32",
          "name": "organizationId",
          "type": "bytes32"
        },
        {
          "indexed": false,
          "internalType": "string",
          "name": "metadata",
          "type": "string"
        },
        {
          "indexed": false,
          "internalType": "uint256",
          "name": "timestamp",
          "type": "uint256"
        }
      ],
      "name": "ProfileCreated",
      "type": "event"
    },
    {
      "anonymous": false,
      "inputs": [
        {
          "indexed": true,
          "internalType": "bytes32",
          "name": "profileId",
          "type": "bytes32"
        },
        {
          "indexed": false,
          "internalType": "string",
          "name": "metadata",
          "type": "string"
        },
        {
          "indexed": false,
          "internalType": "uint256",
          "name": "timestamp",
          "type": "uint256"
        }
      ],
      "name": "ProfileUpdated",
      "type": "event"
    },
    {
      "anonymous": false,
      "inputs": [
        {
          "indexed": true,
          "internalType": "bytes32",
          "name": "profileId",
          "type": "bytes32"
        },
        {
          "indexed": false,
          "internalType": "enum ISense.VerificationLevel",
          "name": "level",
          "type": "uint8"
        },
        {
          "indexed": false,
          "internalType": "address",
          "name": "verifier",
          "type": "address"
        },
        {
          "indexed": false,
          "internalType": "uint256",
          "name": "timestamp",
          "type": "uint256"
        }
      ],
      "name": "ProfileVerified",
      "type": "event"
    },
    {
      "anonymous": false,
      "inputs": [
        {
          "indexed": true,
          "internalType": "bytes32",
          "name": "profileId",
          "type": "bytes32"
        },
        {
          "indexed": true,
          "internalType": "bytes32",
          "name": "targetOrganizationId",
          "type": "bytes32"
        },
        {
          "indexed": false,
          "internalType": "bytes32",
          "name": "merkleRoot",
          "type": "bytes32"
        },
        {
          "indexed": false,
          "internalType": "uint256",
          "name": "timestamp",
          "type": "uint256"
        }
      ],
      "name": "ReputationExported",
      "type": "event"
    },
    {
      "anonymous": false,
      "inputs": [
        {
          "indexed": true,
          "internalType": "bytes32",
          "name": "profileId",
          "type": "bytes32"
        },
        {
          "indexed": true,
          "internalType": "bytes32",
          "name": "sourceOrganizationId",
          "type": "bytes32"
        },
        {
          "indexed": false,
          "internalType": "uint256",
          "name": "importedReputation",
          "type": "uint256"
        },
        {
          "indexed": false,
          "internalType": "uint256",
          "name": "timestamp",
          "type": "uint256"
        }
      ],
      "name": "ReputationImported",
      "type": "event"
    },
    {
      "anonymous": false,
      "inputs": [
        {
          "indexed": true,
          "internalType": "bytes32",
          "name": "profileId",
          "type": "bytes32"
        },
        {
          "indexed": true,
          "internalType": "enum ISense.ReputationType",
          "name": "repType",
          "type": "uint8"
        },
        {
          "indexed": false,
          "internalType": "int256",
          "name": "delta",
          "type": "int256"
        },
        {
          "indexed": true,
          "internalType": "bytes32",
          "name": "reason",
          "type": "bytes32"
        },
        {
          "indexed": false,
          "internalType": "address",
          "name": "updatedBy",
          "type": "address"
        },
        {
          "indexed": false,
          "internalType": "uint256",
          "name": "newValue",
          "type": "uint256"
        },
        {
          "indexed": false,
          "internalType": "uint256",
          "name": "timestamp",
          "type": "uint256"
        }
      ],
      "name": "ReputationUpdated",
      "type": "event"
    },
    {
      "anonymous": false,
      "inputs": [
        {
          "indexed": true,
          "internalType": "bytes32",
          "name": "role",
          "type": "bytes32"
        },
        {
          "indexed": true,
          "internalType": "bytes32",
          "name": "previousAdminRole",
          "type": "bytes32"
        },
        {
          "indexed": true,
          "internalType": "bytes32",
          "name": "newAdminRole",
          "type": "bytes32"
        }
      ],
      "name": "RoleAdminChanged",
      "type": "event"
    },
    {
      "anonymous": false,
      "inputs": [
        {
          "indexed": true,
          "internalType": "bytes32",
          "name": "role",
          "type": "bytes32"
        },
        {
          "indexed": true,
          "internalType": "address",
          "name": "account",
          "type": "address"
        },
        {
          "indexed": true,
          "internalType": "address",
          "name": "sender",
          "type": "address"
        }
      ],
      "name": "RoleGranted",
      "type": "event"
    },
    {
      "anonymous": false,
      "inputs": [
        {
          "indexed": true,
          "internalType": "bytes32",
          "name": "role",
          "type": "bytes32"
        },
        {
          "indexed": true,
          "internalType": "address",
          "name": "account",
          "type": "address"
        },
        {
          "indexed": true,
          "internalType": "address",
          "name": "sender",
          "type": "address"
        }
      ],
      "name": "RoleRevoked",
      "type": "event"
    },
    {
      "anonymous": false,
      "inputs": [
        {
          "indexed": false,
          "internalType": "address",
          "name": "account",
          "type": "address"
        }
      ],
      "name": "Unpaused",
      "type": "event"
    },
    {
      "inputs": [],
      "name": "ACHIEVEMENT_GRANTER_ROLE",
      "outputs": [
        {
          "internalType": "bytes32",
          "name": "",
          "type": "bytes32"
        }
      ],
      "stateMutability": "view",
      "type": "function"
    },
    {
      "inputs": [],
      "name": "ADMIN_ROLE",
      "outputs": [
        {
          "internalType": "bytes32",
          "name": "",
          "type": "bytes32"
        }
      ],
      "stateMutability": "view",
      "type": "function"
    },
    {
      "inputs": [],
      "name": "DEFAULT_ADMIN_ROLE",
      "outputs": [
        {
          "internalType": "bytes32",
          "name": "",
          "type": "bytes32"
        }
      ],
      "stateMutability": "view",
      "type": "function"
    },
    {
      "inputs": [],
      "name": "MAX_FEEDBACKS_PER_QUERY",
      "outputs": [
        {
          "internalType": "uint256",
          "name": "",
          "type": "uint256"
        }
      ],
      "stateMutability": "view",
      "type": "function"
    },
    {
      "inputs": [],
      "name": "MAX_FEEDBACK_RATING",
      "outputs": [
        {
          "internalType": "uint256",
          "name": "",
          "type": "uint256"
        }
      ],
      "stateMutability": "view",
      "type": "function"
    },
    {
      "inputs": [],
      "name": "MAX_REPUTATION_DELTA",
      "outputs": [
        {
          "internalType": "uint256",
          "name": "",
          "type": "uint256"
        }
      ],
      "stateMutability": "view",
      "type": "function"
    },
    {
      "inputs": [],
      "name": "MIN_FEEDBACK_RATING",
      "outputs": [
        {
          "internalType": "uint256",
          "name": "",
          "type": "uint256"
        }
      ],
      "stateMutability": "view",
      "type": "function"
    },
    {
      "inputs": [],
      "name": "OPERATOR_ROLE",
      "outputs": [
        {
          "internalType": "bytes32",
          "name": "",
          "type": "bytes32"
        }
      ],
      "stateMutability": "view",
      "type": "function"
    },
    {
      "inputs": [],
      "name": "REPUTATION_MANAGER_ROLE",
      "outputs": [
        {
          "internalType": "bytes32",
          "name": "",
          "type": "bytes32"
        }
      ],
      "stateMutability": "view",
      "type": "function"
    },
    {
      "inputs": [],
      "name": "REPUTATION_SCALE",
      "outputs": [
        {
          "internalType": "uint256",
          "name": "",
          "type": "uint256"
        }
      ],
      "stateMutability": "view",
      "type": "function"
    },
    {
      "inputs": [],
      "name": "SENSE_ADMIN_ROLE",
      "outputs": [
        {
          "internalType": "bytes32",
          "name": "",
          "type": "bytes32"
        }
      ],
      "stateMutability": "view",
      "type": "function"
    },
    {
      "inputs": [],
      "name": "TRUST_SCORE_SCALE",
      "outputs": [
        {
          "internalType": "uint256",
          "name": "",
          "type": "uint256"
        }
      ],
      "stateMutability": "view",
      "type": "function"
    },
    {
      "inputs": [],
      "name": "VERIFIER_ROLE",
      "outputs": [
        {
          "internalType": "bytes32",
          "name": "",
          "type": "bytes32"
        }
      ],
      "stateMutability": "view",
      "type": "function"
    },
    {
      "inputs": [
        {
          "internalType": "bytes32",
          "name": "profileId",
          "type": "bytes32"
        }
      ],
      "name": "calculateTrustScore",
      "outputs": [
        {
          "internalType": "uint256",
          "name": "trustScore",
          "type": "uint256"
        }
      ],
      "stateMutability": "view",
      "type": "function"
    },
    {
      "inputs": [
        {
          "internalType": "bytes32",
          "name": "profileId",
          "type": "bytes32"
        },
        {
          "internalType": "uint256",
          "name": "baseWeight",
          "type": "uint256"
        }
      ],
      "name": "calculateVotingWeight",
      "outputs": [
        {
          "internalType": "uint256",
          "name": "weight",
          "type": "uint256"
        }
      ],
      "stateMutability": "view",
      "type": "function"
    },
    {
      "inputs": [
        {
          "internalType": "bytes32",
          "name": "organizationId",
          "type": "bytes32"
        },
        {
          "internalType": "string",
          "name": "metadata",
          "type": "string"
        }
      ],
      "name": "createProfile",
      "outputs": [
        {
          "internalType": "bytes32",
          "name": "profileId",
          "type": "bytes32"
        }
      ],
      "stateMutability": "nonpayable",
      "type": "function"
    },
    {
      "inputs": [],
      "name": "emergencyPause",
      "outputs": [],
      "stateMutability": "nonpayable",
      "type": "function"
    },
    {
      "inputs": [],
      "name": "emergencyUnpause",
      "outputs": [],
      "stateMutability": "nonpayable",
      "type": "function"
    },
    {
      "inputs": [
        {
          "internalType": "bytes32",
          "name": "profileId",
          "type": "bytes32"
        }
      ],
      "name": "exportReputation",
      "outputs": [
        {
          "components": [
            {
              "internalType": "bytes32",
              "name": "sourceProfileId",
              "type": "bytes32"
            },
            {
              "internalType": "address",
              "name": "owner",
              "type": "address"
            },
            {
              "internalType": "bytes32",
              "name": "sourceOrganizationId",
              "type": "bytes32"
            },
            {
              "components": [
                {
                  "internalType": "uint256",
                  "name": "experience",
                  "type": "uint256"
                },
                {
                  "internalType": "uint256",
                  "name": "reputation",
                  "type": "uint256"
                },
                {
                  "internalType": "uint256",
                  "name": "trust",
                  "type": "uint256"
                },
                {
                  "internalType": "uint256",
                  "name": "lastUpdated",
                  "type": "uint256"
                },
                {
                  "internalType": "uint256",
                  "name": "totalFeedbacks",
                  "type": "uint256"
                },
                {
                  "internalType": "uint256",
                  "name": "positiveFeedbacks",
                  "type": "uint256"
                }
              ],
              "internalType": "struct ISense.ReputationData",
              "name": "reputation",
              "type": "tuple"
            },
            {
              "components": [
                {
                  "internalType": "bytes32",
                  "name": "achievementId",
                  "type": "bytes32"
                },
                {
                  "internalType": "bytes32",
                  "name": "profileId",
                  "type": "bytes32"
                },
                {
                  "internalType": "string",
                  "name": "name",
                  "type": "string"
                },
                {
                  "internalType": "string",
                  "name": "description",
                  "type": "string"
                },
                {
                  "internalType": "string",
                  "name": "category",
                  "type": "string"
                },
                {
                  "internalType": "bytes",
                  "name": "data",
                  "type": "bytes"
                },
                {
                  "internalType": "uint256",
                  "name": "earnedAt",
                  "type": "uint256"
                },
                {
                  "internalType": "address",
                  "name": "grantedBy",
                  "type": "address"
                },
                {
                  "internalType": "uint256",
                  "name": "points",
                  "type": "uint256"
                }
              ],
              "internalType": "struct ISense.Achievement[]",
              "name": "achievements",
              "type": "tuple[]"
            },
            {
              "components": [
                {
                  "internalType": "uint256",
                  "name": "totalFeedbacks",
                  "type": "uint256"
                },
                {
                  "internalType": "uint256",
                  "name": "positiveFeedbacks",
                  "type": "uint256"
                },
                {
                  "internalType": "uint256",
                  "name": "negativeFeedbacks",
                  "type": "uint256"
                },
                {
                  "internalType": "uint256",
                  "name": "neutralFeedbacks",
                  "type": "uint256"
                },
                {
                  "internalType": "uint256",
                  "name": "averageRating",
                  "type": "uint256"
                },
                {
                  "internalType": "uint256",
                  "name": "trustScore",
                  "type": "uint256"
                }
              ],
              "internalType": "struct ISense.FeedbackSummary",
              "name": "feedbackSummary",
              "type": "tuple"
            },
            {
              "internalType": "uint256",
              "name": "exportedAt",
              "type": "uint256"
            },
            {
              "internalType": "bytes32",
              "name": "merkleRoot",
              "type": "bytes32"
            }
          ],
          "internalType": "struct ISense.ReputationExport",
          "name": "exportData",
          "type": "tuple"
        }
      ],
      "stateMutability": "view",
      "type": "function"
    },
    {
      "inputs": [
        {
          "internalType": "bytes32",
          "name": "profileId",
          "type": "bytes32"
        }
      ],
      "name": "getAchievements",
      "outputs": [
        {
          "components": [
            {
              "internalType": "bytes32",
              "name": "achievementId",
              "type": "bytes32"
            },
            {
              "internalType": "bytes32",
              "name": "profileId",
              "type": "bytes32"
            },
            {
              "internalType": "string",
              "name": "name",
              "type": "string"
            },
            {
              "internalType": "string",
              "name": "description",
              "type": "string"
            },
            {
              "internalType": "string",
              "name": "category",
              "type": "string"
            },
            {
              "internalType": "bytes",
              "name": "data",
              "type": "bytes"
            },
            {
              "internalType": "uint256",
              "name": "earnedAt",
              "type": "uint256"
            },
            {
              "internalType": "address",
              "name": "grantedBy",
              "type": "address"
            },
            {
              "internalType": "uint256",
              "name": "points",
              "type": "uint256"
            }
          ],
          "internalType": "struct ISense.Achievement[]",
          "name": "achievements",
          "type": "tuple[]"
        }
      ],
      "stateMutability": "view",
      "type": "function"
    },
    {
      "inputs": [
        {
          "internalType": "bytes32",
          "name": "profileId",
          "type": "bytes32"
        },
        {
          "internalType": "string",
          "name": "category",
          "type": "string"
        }
      ],
      "name": "getAchievementsByCategory",
      "outputs": [
        {
          "components": [
            {
              "internalType": "bytes32",
              "name": "achievementId",
              "type": "bytes32"
            },
            {
              "internalType": "bytes32",
              "name": "profileId",
              "type": "bytes32"
            },
            {
              "internalType": "string",
              "name": "name",
              "type": "string"
            },
            {
              "internalType": "string",
              "name": "description",
              "type": "string"
            },
            {
              "internalType": "string",
              "name": "category",
              "type": "string"
            },
            {
              "internalType": "bytes",
              "name": "data",
              "type": "bytes"
            },
            {
              "internalType": "uint256",
              "name": "earnedAt",
              "type": "uint256"
            },
            {
              "internalType": "address",
              "name": "grantedBy",
              "type": "address"
            },
            {
              "internalType": "uint256",
              "name": "points",
              "type": "uint256"
            }
          ],
          "internalType": "struct ISense.Achievement[]",
          "name": "achievements",
          "type": "tuple[]"
        }
      ],
      "stateMutability": "view",
      "type": "function"
    },
    {
      "inputs": [
        {
          "internalType": "bytes32",
          "name": "profileId",
          "type": "bytes32"
        },
        {
          "internalType": "bytes32",
          "name": "category",
          "type": "bytes32"
        }
      ],
      "name": "getCategoryReputation",
      "outputs": [
        {
          "internalType": "uint256",
          "name": "score",
          "type": "uint256"
        }
      ],
      "stateMutability": "view",
      "type": "function"
    },
    {
      "inputs": [
        {
          "internalType": "bytes32",
          "name": "profileId",
          "type": "bytes32"
        }
      ],
      "name": "getFeedbackSummary",
      "outputs": [
        {
          "components": [
            {
              "internalType": "uint256",
              "name": "totalFeedbacks",
              "type": "uint256"
            },
            {
              "internalType": "uint256",
              "name": "positiveFeedbacks",
              "type": "uint256"
            },
            {
              "internalType": "uint256",
              "name": "negativeFeedbacks",
              "type": "uint256"
            },
            {
              "internalType": "uint256",
              "name": "neutralFeedbacks",
              "type": "uint256"
            },
            {
              "internalType": "uint256",
              "name": "averageRating",
              "type": "uint256"
            },
            {
              "internalType": "uint256",
              "name": "trustScore",
              "type": "uint256"
            }
          ],
          "internalType": "struct ISense.FeedbackSummary",
          "name": "summary",
          "type": "tuple"
        }
      ],
      "stateMutability": "view",
      "type": "function"
    },
    {
      "inputs": [
        {
          "internalType": "bytes32",
          "name": "profileId",
          "type": "bytes32"
        },
        {
          "internalType": "uint256",
          "name": "offset",
          "type": "uint256"
        },
        {
          "internalType": "uint256",
          "name": "limit",
          "type": "uint256"
        }
      ],
      "name": "getFeedbacks",
      "outputs": [
        {
          "components": [
            {
              "internalType": "bytes32",
              "name": "feedbackId",
              "type": "bytes32"
            },
            {
              "internalType": "bytes32",
              "name": "targetProfileId",
              "type": "bytes32"
            },
            {
              "internalType": "address",
              "name": "giver",
              "type": "address"
            },
            {
              "internalType": "enum ISense.FeedbackType",
              "name": "feedbackType",
              "type": "uint8"
            },
            {
              "internalType": "uint8",
              "name": "rating",
              "type": "uint8"
            },
            {
              "internalType": "string",
              "name": "comment",
              "type": "string"
            },
            {
              "internalType": "uint256",
              "name": "timestamp",
              "type": "uint256"
            },
            {
              "internalType": "bool",
              "name": "verified",
              "type": "bool"
            }
          ],
          "internalType": "struct ISense.Feedback[]",
          "name": "feedbacks",
          "type": "tuple[]"
        }
      ],
      "stateMutability": "view",
      "type": "function"
    },
    {
      "inputs": [
        {
          "internalType": "bytes32",
          "name": "profileId",
          "type": "bytes32"
        }
      ],
      "name": "getProfile",
      "outputs": [
        {
          "components": [
            {
              "internalType": "bytes32",
              "name": "profileId",
              "type": "bytes32"
            },
            {
              "internalType": "address",
              "name": "owner",
              "type": "address"
            },
            {
              "internalType": "bytes32",
              "name": "organizationId",
              "type": "bytes32"
            },
            {
              "internalType": "string",
              "name": "metadata",
              "type": "string"
            },
            {
              "internalType": "uint256",
              "name": "createdAt",
              "type": "uint256"
            },
            {
              "internalType": "uint256",
              "name": "updatedAt",
              "type": "uint256"
            },
            {
              "internalType": "bool",
              "name": "active",
              "type": "bool"
            },
            {
              "internalType": "bool",
              "name": "verified",
              "type": "bool"
            }
          ],
          "internalType": "struct ISense.Profile",
          "name": "profile",
          "type": "tuple"
        }
      ],
      "stateMutability": "view",
      "type": "function"
    },
    {
      "inputs": [
        {
          "internalType": "address",
          "name": "owner",
          "type": "address"
        },
        {
          "internalType": "bytes32",
          "name": "organizationId",
          "type": "bytes32"
        }
      ],
      "name": "getProfileByOwner",
      "outputs": [
        {
          "components": [
            {
              "internalType": "bytes32",
              "name": "profileId",
              "type": "bytes32"
            },
            {
              "internalType": "address",
              "name": "owner",
              "type": "address"
            },
            {
              "internalType": "bytes32",
              "name": "organizationId",
              "type": "bytes32"
            },
            {
              "internalType": "string",
              "name": "metadata",
              "type": "string"
            },
            {
              "internalType": "uint256",
              "name": "createdAt",
              "type": "uint256"
            },
            {
              "internalType": "uint256",
              "name": "updatedAt",
              "type": "uint256"
            },
            {
              "internalType": "bool",
              "name": "active",
              "type": "bool"
            },
            {
              "internalType": "bool",
              "name": "verified",
              "type": "bool"
            }
          ],
          "internalType": "struct ISense.Profile",
          "name": "profile",
          "type": "tuple"
        }
      ],
      "stateMutability": "view",
      "type": "function"
    },
    {
      "inputs": [],
      "name": "getProfileCount",
      "outputs": [
        {
          "internalType": "uint256",
          "name": "count",
          "type": "uint256"
        }
      ],
      "stateMutability": "view",
      "type": "function"
    },
    {
      "inputs": [
        {
          "internalType": "bytes32",
          "name": "organizationId",
          "type": "bytes32"
        }
      ],
      "name": "getProfilesByOrganization",
      "outputs": [
        {
          "internalType": "bytes32[]",
          "name": "profileIds",
          "type": "bytes32[]"
        }
      ],
      "stateMutability": "view",
      "type": "function"
    },
    {
      "inputs": [
        {
          "internalType": "bytes32",
          "name": "profileId",
          "type": "bytes32"
        }
      ],
      "name": "getReputation",
      "outputs": [
        {
          "components": [
            {
              "internalType": "uint256",
              "name": "experience",
              "type": "uint256"
            },
            {
              "internalType": "uint256",
              "name": "reputation",
              "type": "uint256"
            },
            {
              "internalType": "uint256",
              "name": "trust",
              "type": "uint256"
            },
            {
              "internalType": "uint256",
              "name": "lastUpdated",
              "type": "uint256"
            },
            {
              "internalType": "uint256",
              "name": "totalFeedbacks",
              "type": "uint256"
            },
            {
              "internalType": "uint256",
              "name": "positiveFeedbacks",
              "type": "uint256"
            }
          ],
          "internalType": "struct ISense.ReputationData",
          "name": "reputation",
          "type": "tuple"
        }
      ],
      "stateMutability": "view",
      "type": "function"
    },
    {
      "inputs": [
        {
          "internalType": "bytes32",
          "name": "profileId",
          "type": "bytes32"
        }
      ],
      "name": "getReputationHistory",
      "outputs": [
        {
          "components": [
            {
              "internalType": "bytes32",
              "name": "profileId",
              "type": "bytes32"
            },
            {
              "internalType": "enum ISense.ReputationType",
              "name": "repType",
              "type": "uint8"
            },
            {
              "internalType": "int256",
              "name": "delta",
              "type": "int256"
            },
            {
              "internalType": "bytes32",
              "name": "reason",
              "type": "bytes32"
            },
            {
              "internalType": "address",
              "name": "updatedBy",
              "type": "address"
            },
            {
              "internalType": "uint256",
              "name": "timestamp",
              "type": "uint256"
            },
            {
              "internalType": "uint256",
              "name": "blockNumber",
              "type": "uint256"
            }
          ],
          "internalType": "struct ISense.ReputationEvent[]",
          "name": "events",
          "type": "tuple[]"
        }
      ],
      "stateMutability": "view",
      "type": "function"
    },
    {
      "inputs": [
        {
          "internalType": "bytes32",
          "name": "role",
          "type": "bytes32"
        }
      ],
      "name": "getRoleAdmin",
      "outputs": [
        {
          "internalType": "bytes32",
          "name": "",
          "type": "bytes32"
        }
      ],
      "stateMutability": "view",
      "type": "function"
    },
    {
      "inputs": [
        {
          "internalType": "bytes32",
          "name": "organizationId",
          "type": "bytes32"
        },
        {
          "internalType": "uint256",
          "name": "limit",
          "type": "uint256"
        }
      ],
      "name": "getTopProfiles",
      "outputs": [
        {
          "internalType": "bytes32[]",
          "name": "profileIds",
          "type": "bytes32[]"
        }
      ],
      "stateMutability": "view",
      "type": "function"
    },
    {
      "inputs": [
        {
          "internalType": "bytes32",
          "name": "profileId",
          "type": "bytes32"
        },
        {
          "internalType": "bytes32",
          "name": "achievementId",
          "type": "bytes32"
        },
        {
          "internalType": "string",
          "name": "name",
          "type": "string"
        },
        {
          "internalType": "string",
          "name": "description",
          "type": "string"
        },
        {
          "internalType": "string",
          "name": "category",
          "type": "string"
        },
        {
          "internalType": "uint256",
          "name": "points",
          "type": "uint256"
        },
        {
          "internalType": "bytes",
          "name": "data",
          "type": "bytes"
        }
      ],
      "name": "grantAchievement",
      "outputs": [],
      "stateMutability": "nonpayable",
      "type": "function"
    },
    {
      "inputs": [
        {
          "internalType": "bytes32",
          "name": "role",
          "type": "bytes32"
        },
        {
          "internalType": "address",
          "name": "account",
          "type": "address"
        }
      ],
      "name": "grantRole",
      "outputs": [],
      "stateMutability": "nonpayable",
      "type": "function"
    },
    {
      "inputs": [
        {
          "internalType": "bytes32",
          "name": "profileId",
          "type": "bytes32"
        },
        {
          "internalType": "bytes32",
          "name": "achievementId",
          "type": "bytes32"
        }
      ],
      "name": "hasAchievement",
      "outputs": [
        {
          "internalType": "bool",
          "name": "",
          "type": "bool"
        }
      ],
      "stateMutability": "view",
      "type": "function"
    },
    {
      "inputs": [
        {
          "internalType": "bytes32",
          "name": "role",
          "type": "bytes32"
        },
        {
          "internalType": "address",
          "name": "account",
          "type": "address"
        }
      ],
      "name": "hasRole",
      "outputs": [
        {
          "internalType": "bool",
          "name": "",
          "type": "bool"
        }
      ],
      "stateMutability": "view",
      "type": "function"
    },
    {
      "inputs": [
        {
          "internalType": "bytes32",
          "name": "profileId",
          "type": "bytes32"
        },
        {
          "components": [
            {
              "internalType": "bytes32",
              "name": "sourceProfileId",
              "type": "bytes32"
            },
            {
              "internalType": "address",
              "name": "owner",
              "type": "address"
            },
            {
              "internalType": "bytes32",
              "name": "sourceOrganizationId",
              "type": "bytes32"
            },
            {
              "components": [
                {
                  "internalType": "uint256",
                  "name": "experience",
                  "type": "uint256"
                },
                {
                  "internalType": "uint256",
                  "name": "reputation",
                  "type": "uint256"
                },
                {
                  "internalType": "uint256",
                  "name": "trust",
                  "type": "uint256"
                },
                {
                  "internalType": "uint256",
                  "name": "lastUpdated",
                  "type": "uint256"
                },
                {
                  "internalType": "uint256",
                  "name": "totalFeedbacks",
                  "type": "uint256"
                },
                {
                  "internalType": "uint256",
                  "name": "positiveFeedbacks",
                  "type": "uint256"
                }
              ],
              "internalType": "struct ISense.ReputationData",
              "name": "reputation",
              "type": "tuple"
            },
            {
              "components": [
                {
                  "internalType": "bytes32",
                  "name": "achievementId",
                  "type": "bytes32"
                },
                {
                  "internalType": "bytes32",
                  "name": "profileId",
                  "type": "bytes32"
                },
                {
                  "internalType": "string",
                  "name": "name",
                  "type": "string"
                },
                {
                  "internalType": "string",
                  "name": "description",
                  "type": "string"
                },
                {
                  "internalType": "string",
                  "name": "category",
                  "type": "string"
                },
                {
                  "internalType": "bytes",
                  "name": "data",
                  "type": "bytes"
                },
                {
                  "internalType": "uint256",
                  "name": "earnedAt",
                  "type": "uint256"
                },
                {
                  "internalType": "address",
                  "name": "grantedBy",
                  "type": "address"
                },
                {
                  "internalType": "uint256",
                  "name": "points",
                  "type": "uint256"
                }
              ],
              "internalType": "struct ISense.Achievement[]",
              "name": "achievements",
              "type": "tuple[]"
            },
            {
              "components": [
                {
                  "internalType": "uint256",
                  "name": "totalFeedbacks",
                  "type": "uint256"
                },
                {
                  "internalType": "uint256",
                  "name": "positiveFeedbacks",
                  "type": "uint256"
                },
                {
                  "internalType": "uint256",
                  "name": "negativeFeedbacks",
                  "type": "uint256"
                },
                {
                  "internalType": "uint256",
                  "name": "neutralFeedbacks",
                  "type": "uint256"
                },
                {
                  "internalType": "uint256",
                  "name": "averageRating",
                  "type": "uint256"
                },
                {
                  "internalType": "uint256",
                  "name": "trustScore",
                  "type": "uint256"
                }
              ],
              "internalType": "struct ISense.FeedbackSummary",
              "name": "feedbackSummary",
              "type": "tuple"
            },
            {
              "internalType": "uint256",
              "name": "exportedAt",
              "type": "uint256"
            },
            {
              "internalType": "bytes32",
              "name": "merkleRoot",
              "type": "bytes32"
            }
          ],
          "internalType": "struct ISense.ReputationExport",
          "name": "exportData",
          "type": "tuple"
        },
        {
          "internalType": "bytes",
          "name": "",
          "type": "bytes"
        }
      ],
      "name": "importReputation",
      "outputs": [],
      "stateMutability": "nonpayable",
      "type": "function"
    },
    {
      "inputs": [
        {
          "internalType": "address",
          "name": "registryAddress",
          "type": "address"
        }
      ],
      "name": "initialize",
      "outputs": [],
      "stateMutability": "nonpayable",
      "type": "function"
    },
    {
      "inputs": [],
      "name": "isInitialized",
      "outputs": [
        {
          "internalType": "bool",
          "name": "",
          "type": "bool"
        }
      ],
      "stateMutability": "view",
      "type": "function"
    },
    {
      "inputs": [],
      "name": "moduleId",
      "outputs": [
        {
          "internalType": "bytes32",
          "name": "",
          "type": "bytes32"
        }
      ],
      "stateMutability": "pure",
      "type": "function"
    },
    {
      "inputs": [],
      "name": "onModuleDisabled",
      "outputs": [],
      "stateMutability": "nonpayable",
      "type": "function"
    },
    {
      "inputs": [],
      "name": "onModuleEnabled",
      "outputs": [],
      "stateMutability": "nonpayable",
      "type": "function"
    },
    {
      "inputs": [],
      "name": "pause",
      "outputs": [],
      "stateMutability": "nonpayable",
      "type": "function"
    },
    {
      "inputs": [],
      "name": "paused",
      "outputs": [
        {
          "internalType": "bool",
          "name": "",
          "type": "bool"
        }
      ],
      "stateMutability": "view",
      "type": "function"
    },
    {
      "inputs": [
        {
          "internalType": "bytes32",
          "name": "profileId",
          "type": "bytes32"
        }
      ],
      "name": "profileExists",
      "outputs": [
        {
          "internalType": "bool",
          "name": "exists",
          "type": "bool"
        }
      ],
      "stateMutability": "view",
      "type": "function"
    },
    {
      "inputs": [],
      "name": "registry",
      "outputs": [
        {
          "internalType": "address",
          "name": "",
          "type": "address"
        }
      ],
      "stateMutability": "view",
      "type": "function"
    },
    {
      "inputs": [
        {
          "internalType": "bytes32",
          "name": "role",
          "type": "bytes32"
        },
        {
          "internalType": "address",
          "name": "account",
          "type": "address"
        }
      ],
      "name": "renounceRole",
      "outputs": [],
      "stateMutability": "nonpayable",
      "type": "function"
    },
    {
      "inputs": [
        {
          "internalType": "bytes32",
          "name": "role",
          "type": "bytes32"
        },
        {
          "internalType": "address",
          "name": "account",
          "type": "address"
        }
      ],
      "name": "revokeRole",
      "outputs": [],
      "stateMutability": "nonpayable",
      "type": "function"
    },
    {
      "inputs": [
        {
          "internalType": "bytes32",
          "name": "targetProfileId",
          "type": "bytes32"
        },
        {
          "internalType": "enum ISense.FeedbackType",
          "name": "feedbackType",
          "type": "uint8"
        },
        {
          "internalType": "uint8",
          "name": "rating",
          "type": "uint8"
        },
        {
          "internalType": "string",
          "name": "comment",
          "type": "string"
        }
      ],
      "name": "submitFeedback",
      "outputs": [
        {
          "internalType": "bytes32",
          "name": "feedbackId",
          "type": "bytes32"
        }
      ],
      "stateMutability": "nonpayable",
      "type": "function"
    },
    {
      "inputs": [
        {
          "internalType": "bytes4",
          "name": "interfaceId",
          "type": "bytes4"
        }
      ],
      "name": "supportsInterface",
      "outputs": [
        {
          "internalType": "bool",
          "name": "",
          "type": "bool"
        }
      ],
      "stateMutability": "view",
      "type": "function"
    },
    {
      "inputs": [],
      "name": "unpause",
      "outputs": [],
      "stateMutability": "nonpayable",
      "type": "function"
    },
    {
      "inputs": [
        {
          "internalType": "bytes32",
          "name": "profileId",
          "type": "bytes32"
        },
        {
          "internalType": "bytes32",
          "name": "category",
          "type": "bytes32"
        },
        {
          "internalType": "int256",
          "name": "delta",
          "type": "int256"
        },
        {
          "internalType": "bytes32",
          "name": "reason",
          "type": "bytes32"
        }
      ],
      "name": "updateCategoryReputation",
      "outputs": [],
      "stateMutability": "nonpayable",
      "type": "function"
    },
    {
      "inputs": [
        {
          "internalType": "bytes32",
          "name": "profileId",
          "type": "bytes32"
        },
        {
          "internalType": "string",
          "name": "metadata",
          "type": "string"
        }
      ],
      "name": "updateProfile",
      "outputs": [],
      "stateMutability": "nonpayable",
      "type": "function"
    },
    {
      "inputs": [
        {
          "internalType": "bytes32",
          "name": "profileId",
          "type": "bytes32"
        },
        {
          "internalType": "enum ISense.ReputationType",
          "name": "repType",
          "type": "uint8"
        },
        {
          "internalType": "int256",
          "name": "delta",
          "type": "int256"
        },
        {
          "internalType": "bytes32",
          "name": "reason",
          "type": "bytes32"
        }
      ],
      "name": "updateReputation",
      "outputs": [],
      "stateMutability": "nonpayable",
      "type": "function"
    },
    {
      "inputs": [
        {
          "internalType": "bytes32",
          "name": "profileId",
          "type": "bytes32"
        },
        {
          "internalType": "enum ISense.VerificationLevel",
          "name": "level",
          "type": "uint8"
        }
      ],
      "name": "verifyProfile",
      "outputs": [],
      "stateMutability": "nonpayable",
      "type": "function"
    },
    {
      "inputs": [],
      "name": "version",
      "outputs": [
        {
          "internalType": "string",
          "name": "",
          "type": "string"
        }
      ],
      "stateMutability": "view",
      "type": "function"
    }
  ],
  "bytecode": "0x608034620003cd576040908082016001600160401b03811182821017620003b7578252600581526020809101640312e302e360dc1b815260ff1990600190828254168255816002556004548281811c91168015620003ac575b858210146200039657601f811162000364575b50516001600160d81b031916600a17600455600080805280845284812033825284528490205460ff939084161562000329575b7fa49807205ce4d355092ef5a8a18f56e8913cf4a201fbe287825b095693c217758060005260008252856000203360005282528486600020541615620002ec575b507f1d0f12d082b3e5338f8dab310a38db3645f19456d3e591618fb6ace837c5da398060005260008252856000203360005282528486600020541615620002af575b507fa5df84d05f94c8e589750a34f9631c6df369aabc0811ccbbd233872ff60aec66806000526000825285600020336000528252848660002054161562000272575b507f6fa27ac1cdd2e2eda2fb653a3d18c7b6ffe16599817716f8819988196f8ee95e806000526000825285600020336000528252848660002054161562000235575b507f0ce23c3e399818cfee81a7ab0880f714e53d7672b08df0fa62f2843416e1ea099384600052600082528560002033600052825285600020541615620001f6575b84516150959081620003d38239f35b83600052600081528460002090336000525283600020918254161790553390339060008051602062005468833981519152600080a438808080620001e7565b8060005260008252856000203360005282528560002083858254161790553390339060008051602062005468833981519152600080a438620001a5565b8060005260008252856000203360005282528560002083858254161790553390339060008051602062005468833981519152600080a43862000163565b8060005260008252856000203360005282528560002083858254161790553390339060008051602062005468833981519152600080a43862000121565b8060005260008252856000203360005282528560002083858254161790553390339060008051602062005468833981519152600080a438620000df565b60008052600081528460002033600052815284600020828482541617905533336000600080516020620054688339815191528180a46200009e565b600460005282601f86600020920160051c8201915b828110620003895750506200006b565b6000815501839062000379565b634e487b7160e01b600052602260045260246000fd5b90607f169062000058565b634e487b7160e01b600052604160045260246000fd5b600080fdfe608080604052600436101561001357600080fd5b60003560e01c90816301ffc9a7146139c55750806302940a821461397057806302b9c2b21461395457806309bd356f1461377a57806315943f861461375c578063173e566014613474578063182241bb146132bd578063248a9ca31461328e5780632d934ea4146132535780632f2ff15d146131b2578063337efca514612fb557806336568abe14612f235780633697611a14612f05578063392e53cd14612edf5780633f4ba83a14612e795780634a4e3bd514612dcf57806351858e2714612d9857806354fd4d5014612cb657806356e521c21461218357806359a43a5014612bce5780635c975abb14612bab5780635e8c6876146127f65780635fbcc31614612703578063627db022146126e75780636e1a514c1461225657806373290672146121ec57806375b238fc146121b15780637b10399914612188578063823ced41146121835780638456cb591461211c5780638b158f98146120f35780638dfcd170146118fc57806390ba8f041461169857806391d148541461164b57806393e9701b146116125780639aec449f146115f1578063a01a5f7f14611590578063a1308f2714611555578063a217fddf14611539578063a3cdb785146114df578063a8453e3714610d73578063aa7318aa14610d1d578063ab50a46814610d01578063b50991b414610c3f578063be152b6114610c22578063c4d66de814610828578063d14519d214610786578063d547741f14610745578063e3117249146105db578063e7705db6146105a0578063eb0fd86a14610565578063ebf8a3e6146104eb578063f2dac3c614610369578063f5b541a61461032e578063f7f032df146103085763fb7b56971461028757600080fd5b34610303576020366003190112610303576004356000818152600560205260409020600101546001600160a01b0316156102eb57600052600d6020526102e76102d360406000206148d5565b604051918291602083526020830190613bde565b0390f35b60249060405190630acbeacf60e31b82526004820152fd5b600080fd5b34610303576102e761032261031c36613a18565b90614c39565b60405191829182613e15565b346103035760003660031901126103035760206040517f97667070c54ef182b0f5858b034beac1b6f3089aa2d3188bb1e8929f4fa9b9298152f35b346103035760208060031936011261030357600435908160005260059081815260018060a01b039160019383856040600020015416156102eb5792849193600052600b835260406000209384546103bf81613dfe565b916103cd6040519384613aed565b81835260009687528587208684019791885b8484106104745750505050506040519380850191818652518092526040850195926000905b8382106104115786880387f35b90919293948360e082998851805182528381015161042e81613d1e565b82850152604081810151908301526060808201519083015260808082015187169083015260a0808201519083015260c09081015190820152019896019493920190610404565b96600789829b9960409b98999b5161048b81613a4a565b8654815260ff858801541661049f81613d1e565b8382015260028701546040820152600387015460608201528c60048801541660808201528587015460a0820152600687015460c0820152815201930193019291989698979594976103df565b34610303576000366003190112610303576003546001600160a01b03811633036105535760a01c60ff1615610541577fa866f3901ec84758a10f30e8953c3818eef73da93dfa46cb6aa5b726fb65813f600080a1005b604051633165f6e960e21b8152600490fd5b6040516310f5403960e31b8152600490fd5b346103035760003660031901126103035760206040517fa5df84d05f94c8e589750a34f9631c6df369aabc0811ccbbd233872ff60aec668152f35b346103035760003660031901126103035760206040517f0ce23c3e399818cfee81a7ab0880f714e53d7672b08df0fa62f2843416e1ea098152f35b3461030357608036600319011261030357606435600435604435602435610600613e87565b60ff60035460a01c161561054157610616614503565b6000838152600560209081526040909120600101546001600160a01b03161561072c57917f78779947684eeff96b2dc044961f47dee102b28575d1357693322a57eb479d03916106f08594600396600052600c8152604060002083600052815260406000205484600081128061071b575b1561070c5750506000925b86600052600c8252604060002090600052815282604060002055600b604051916106bb83613a4a565b87835288818401528560408401528960608401523360808401524260a08401524360c08401528760005252604060002061473d565b60408051928352336020840152820152426060820152608090a4005b61071591614721565b92610692565b508161072682614710565b11610687565b604051630acbeacf60e31b815260048101859052602490fd5b3461030357604036600319011261030357610784600435610764613cc1565b9080600052600060205261077f6001604060002001546141ba565b6142c4565b005b34610303576020366003190112610303576004356107a26147e0565b506000818152600560205260409020600101546001600160a01b0316156102eb57600052600a60205260c0604060002080549060018101549060028101546003820154906005600484015493015493604051956107fe87613a81565b8652602086015260408501526060840152608083015260a08201526108266040518092613e50565bf35b346103035760208060031936011261030357610842613cd7565b906003549160ff91828460a01c16610c10576001600160a01b03918216938415610bfe576001600160a81b0319168417600160a01b176003557fa49807205ce4d355092ef5a8a18f56e8913cf4a201fbe287825b095693c21775600081815280835260408082208783528452902054841615610bbf575b507f97667070c54ef182b0f5858b034beac1b6f3089aa2d3188bb1e8929f4fa9b92980600052600082526040600020856000528252836040600020541615610b80575b50604051637b10399960e01b8152918183600481305afa928315610b7457600093610b45575b506000805160206150408339815191529081600052600083526040600020931692836000528252836040600020541615610b06575b507fa5df84d05f94c8e589750a34f9631c6df369aabc0811ccbbd233872ff60aec6680600052600082526040600020836000528252836040600020541615610ac7575b507f6fa27ac1cdd2e2eda2fb653a3d18c7b6ffe16599817716f8819988196f8ee95e80600052600082526040600020836000528252836040600020541615610a88575b507f0ce23c3e399818cfee81a7ab0880f714e53d7672b08df0fa62f2843416e1ea0992836000526000825260406000208360005282526040600020541615610a48575b837f27b541a16df0902e262f34789782092ab25125513b8ed73608e802951771b928600080a2005b826000526000815260406000209082600052526040600020600160ff198254161790553391600080516020615020833981519152600080a4818080610a20565b806000526000825260406000208360005282526040600020600160ff19825416179055823391600080516020615020833981519152600080a4846109dd565b806000526000825260406000208360005282526040600020600160ff19825416179055823391600080516020615020833981519152600080a48461099a565b806000526000825260406000208360005282526040600020600160ff19825416179055823391600080516020615020833981519152600080a484610957565b610b66919350823d8411610b6d575b610b5e8183613aed565b810190614547565b9185610922565b503d610b54565b6040513d6000823e3d90fd5b806000526000825260406000208560005282526040600020600160ff19825416179055843391600080516020615020833981519152600080a4846108fc565b806000526000825260406000208560005282526040600020600160ff19825416179055843391600080516020615020833981519152600080a4846108b9565b604051637bfd2e8360e01b8152600490fd5b604051637396742f60e11b8152600490fd5b346103035760003660031901126103035760206040516103e88152f35b3461030357602036600319011261030357600435610c5b6146d2565b5080600052600560205260406000209060405191610c7883613a65565b8054835260018060a01b039060ff600683600184015416926020870193845260028101546040880152604051610cbc81610cb5816003860161446d565b0382613aed565b606088015260048101546080880152600581015460a08801520154818116151560c087015260081c16151560e08501525116156102eb57604051806102e78482613d3e565b3461030357600036600319011261030357602060405160058152f35b34610303576000366003190112610303576003546001600160a01b03811633036105535760a01c60ff1615610541577f6dff2fe8fbb5b23bf0583bf5b2157ff62ca7e27f2fb4f404914cd0c205ced5cc600080a1005b3461030357608036600319011261030357600460243510156103035760ff6044351660443503610303576064356001600160401b03811161030357610dbc903690600401613b0e565b60ff60035460a01c161561054157610dd2614503565b6004356000908152600560205260408120600101546001600160a01b031680156114c65733146114a057600160ff60443516108015611491575b61147457600435600052601260205260406000203360005260205260ff60406000205416600014611203576004356000526010602052604060002060005b81548110156111fa57610e5d818361493f565b50600201546001600160a01b03163314610e7f57610e7a90614566565b610e4a565b9150610e9b610e8e838361493f565b506002602435910161495b565b610ec6610ea8838361493f565b50600201805460ff60a81b191660443560a81b60ff60a81b16179055565b610ed0828261493f565b5083516001600160401b0381116111e457610efb81610ef26003850154614433565b60038501614575565b6020601f8211600114611173579080600392610f4497600092611168575b50508160011b9160001990841b1c1916179101555b610f38828261493f565b5060044291015561493f565b50545b6004356000526010602052604060002090601160205260406000208254926000906000806000926000905b8882106110a45750508685556001850184905560028501556003840155841561109b578060648102046064148115171561107557846064610fb39202614be7565b935b60048301948555801561108b5760648202948286046064148315171561107557610fef606491610fe784602099614be7565b905490614338565b0460058401555b600435600052600a85526005604060002093015460028401556004830155600582015560034291015560405161102d602435613d1e565b602435815260ff60443516838201524260408201523390827f940ec28121d8ccd05b4d980bcb62a62f5a62e59ecca3d8ffe442d91f7d16f95d606060043593a4604051908152f35b634e487b7160e01b600052601160045260246000fd5b6020945060006005840155610ff6565b50600093610fb5565b90936110b0858361493f565b50956002809701549660ff8860a01c166110c981613d1e565b806110fa5750506110f49160ff6110e26110ee93614566565b985b60a81c169061434b565b94614566565b90610f72565b6111078199969399613d1e565b600181036111295750506110f49160ff6111236110ee93614566565b956110e4565b61113581969396613d1e565b1461114a575b6110f49160ff6110ee926110e4565b936110f49160ff61115d6110ee93614566565b96925050915061113b565b015190508780610f19565b6003830160005260206000209560005b601f19841681106111cc575091610f449660019260039483601f198116106111b4575b505050811b01910155610f2e565b015160001983861b60f8161c191690558780806111a6565b82820151885560019097019660209283019201611183565b634e487b7160e01b600052604160045260246000fd5b50509050610f47565b5060155461121081614566565b601555604051602081019160043583523360601b604083015242605483015260748201526074815261124181613a9c565b519020906040519061125282613a65565b828252600435602083015233604083015261126e602435613d1e565b602435606083015260ff60443516608083015260a08201524260c0820152600060e0820152600435600052601060205260406000208054600160401b8110156111e4576112c09160018201815561493f565b61145e57815181556020820151600182015561132d6002820160018060a01b036040850151166001600160601b0360a01b82541617815561130e606085015161130881613d1e565b8261495b565b6080840151815460ff60a81b191660a89190911b60ff60a81b16179055565b60a08201518051906001600160401b0382116111e45761135d826113546003860154614433565b60038601614575565b602090601f83116001146113e957918060e094926005946000926113de575b50508160011b916000199060031b1c19161760038201555b60c084015160048201550191015115159060ff199160ff83835416911617905560043560005260126020526040600020336000526020526001604060002091825416179055610f47565b01519050878061137c565b906003840160005260206000209160005b601f198516811061144657509260e0949260019260059583601f1981161061142d575b505050811b016003820155611394565b015160001960f88460031b161c1916905587808061141d565b919260206001819286850151815501940192016113fa565b634e487b7160e01b600052600060045260246000fd5b6040516364df3ea760e01b815260443560ff166004820152602490fd5b50600560ff6044351611610e0c565b604051632dcec2ed60e21b815233600480830191909152356024820152604490fd5b0390fd5b6024604051630acbeacf60e31b81526004356004820152fd5b34610303576114ed36613a18565b6000828152600560205260409020600101549091906001600160a01b0316156102eb57600052600e602052604060002090600052602052602060ff604060002054166040519015158152f35b3461030357600036600319011261030357602060405160008152f35b346103035760003660031901126103035760206040517fda774a9a6475b94924a168725d00b478d90cbf28e9176d635f3dab48a3a915088152f35b34610303576020366003190112610303576004356115ac6147e0565b506000818152600560205260409020600101546001600160a01b0316156102eb57600052601160205260c06115e4604060002061497f565b6108266040518092613e50565b3461030357602061160a61160436613a18565b90614e97565b604051908152f35b34610303576020366003190112610303576004356000526005602052602060018060a01b03600160406000200154161515604051908152f35b3461030357604036600319011261030357611664613cc1565b600435600052600060205260406000209060018060a01b0316600052602052602060ff604060002054166040519015158152f35b346103035760208060031936011261030357600435600060e06040516116bd81613a65565b82815282858201528260408201526116d36147e0565b6060820152606060808201526116e76147e0565b60a082015260c0810183905201526000818152600583526040902060018101546001600160a01b039190821690811561072c5733821415806118cb575b6118ac5783600052600a85526040600020600d8652604060002090601187526040600020918154600183015489898860028701546003880154976004810154906005015490604051996117768b613a81565b888b5287878c01528360408c015260608b015260808a015260a089015260405194859485019642936117d995899492909160b496949286526001600160601b03199060601b16602086015260348501526054840152607483015260948201520190565b03601f19810182526117eb9082613aed565b5190209360020154906040519761180189613a65565b88528888019586526040880191825260608801928352611820906148d5565b92608088019384526118319061497f565b9560a0880196875260c088019542875260e08901958652604051998a99818b5251908a015251166040880152516060870152516080860161187191613e50565b51916102409283610140870152610260860161188c91613bde565b9351610160860161189c91613e50565b5161022085015251908301520390f35b6040516379f18c8760e11b815260048101859052336024820152604490fd5b5060008051602061504083398151915260005260008552604060002033600052855260ff6040600020541615611724565b346103035760e0366003190112610303576044356001600160401b0381116103035761192c903690600401613b0e565b6064356001600160401b0381116103035761194b903690600401613b0e565b6084356001600160401b0381116103035761196a903690600401613b0e565b9060c4356001600160401b0381116103035761198a903690600401613b0e565b3360009081527f4de34185e10013fbfe1a860075230346604c2105e70cecbdcd54936cc1a12a4960205260409020547f6fa27ac1cdd2e2eda2fb653a3d18c7b6ffe16599817716f8819988196f8ee95e9060ff1615611f62575060ff60035460a01c1615610541576119fa614503565b6004356000908152600560205260409020600101546001600160a01b0316156114c657600435600052600e602052604060002060243560005260205260ff60406000205416611f415760405191611a5083613a2e565b60243583526004356020840152846040840152606083015282608083015260a08201524260c08201523360e082015260a435610100820152600435600052600d60205260406000208054600160401b8110156111e457611ab591600182018155614812565b91909161145e57805182556020810151600183015560408101518051906001600160401b0382116111e4578190611afc82611af36002880154614433565b60028801614575565b602090601f8311600114611ecf57600092611ec4575b50508160011b916000199060031b1c19161760028301555b60608101518051906001600160401b0382116111e4578190611b5c82611b536003880154614433565b60038801614575565b602090601f8311600114611e5257600092611e47575b50508160011b916000199060031b1c19161760038301555b60808101518051906001600160401b0382116111e4578190611bbc82611bb36004880154614433565b60048801614575565b602090601f8311600114611dd557600092611dca575b50508160011b916000199060031b1c19161760048301555b60a08101518051906001600160401b0382116111e457611c1a82611c116005870154614433565b60058701614575565b602090601f8311600114611d545791806008949261010094600092611d49575b50508160011b916000199060031b1c19161760058501555b60c081015160068501556007840160018060a01b0360e0830151166001600160601b0360a01b8254161790550151910155600435600052600e60205260406000206024356000526020526040600020600160ff1982541617905560208151910120600052600f602052611ccb6024356040600020614661565b50600435600052600a6020526040600020611ce960a435825461434b565b8155600342910155611d0660405191608083526080830190613bb9565b60a43560208301523360408301524260608301527f662e17c0376d55e9c8648d13854158519f3a5d03326e4ef01f9b574fbc22c7a26024359280600435930390a3005b015190508880611c3a565b906005850160005260206000209160005b601f1985168110611db2575092600894926001926101009583601f19811610611d99575b505050811b016005850155611c52565b015160001960f88460031b161c19169055888080611d89565b91926020600181928685015181550194019201611d65565b015190508680611bd2565b9250600485016000526020600020906000935b601f1984168510611e2c576001945083601f19811610611e13575b505050811b016004830155611bea565b015160001960f88460031b161c19169055868080611e03565b81810151835560209485019460019093019290910190611de8565b015190508680611b72565b9250600385016000526020600020906000935b601f1984168510611ea9576001945083601f19811610611e90575b505050811b016003830155611b8a565b015160001960f88460031b161c19169055868080611e80565b81810151835560209485019460019093019290910190611e65565b015190508680611b12565b9250600285016000526020600020906000935b601f1984168510611f26576001945083601f19811610611f0d575b505050811b016002830155611b2a565b015160001960f88460031b161c19169055868080611efd565b81810151835560209485019460019093019290910190611ee2565b60446040516385f4287160e01b815260043560048201526024356024820152fd5b611f6b33614369565b60405191611f7883613ad2565b60428352602083019060603683378351156120dd576030825383516001908110156120dd57607860218601536041905b80821161209957505061205557604861202692612035926114c29560405195869376020b1b1b2b9b9a1b7b73a3937b61d1030b1b1b7bab73a1604d1b6020860152611ffd815180926020603789019101613b96565b8401917001034b99036b4b9b9b4b733903937b6329607d1b603784015251809386840190613b96565b01036028810184520182613aed565b60405162461bcd60e51b8152602060048201529182916024830190613bb9565b606460405162461bcd60e51b815260206004820152602060248201527f537472696e67733a20686578206c656e67746820696e73756666696369656e746044820152fd5b9091600f811660108110156120dd576f181899199a1a9b1b9c1cb0b131b232b360811b901a6120c88488614358565b5360041c918015611075576000190190611fa8565b634e487b7160e01b600052603260045260246000fd5b346103035760003660031901126103035760206040516000805160206150408339815191528152f35b3461030357600036600319011261030357612135614075565b60ff60035460a01c16156105415761214b614503565b600160ff19815416176001557f62e78cea01bee320cd4e420270b5ea74000d11b0c9f74754ebdbfc544b05a2586020604051338152a1005b613d01565b34610303576000366003190112610303576003546040516001600160a01b039091168152602090f35b346103035760003660031901126103035760206040517fa49807205ce4d355092ef5a8a18f56e8913cf4a201fbe287825b095693c217758152f35b34610303576020806003193601126103035760043560005260098152604060002090604051908181845491828152019360005281600020916000905b82821061223f576102e78561032281890382613aed565b835486529485019460019384019390910190612228565b346103035760031960603682011261030357600435906001600160401b0360243511610303576102409060243536030112610303576040519061229882613a65565b6024356004013582526122ae6024803501613ced565b60208301526044602435013560408301526122ce36606460243501613dae565b916060810192835261012460243501356001600160401b038111610303573660238260243501011215610303576004816024350101359061230e82613dfe565b9161231c6040519384613aed565b80835260208301913660248360051b838235010101116103035760248181350101925b60248360051b83823501010184106125c75750505050608082015261236a3661014460243501613dae565b60a082015260c081016102046024350135815260e0820190610224602435013582526044356001600160401b038111610303576123ab903690600401613b0e565b5060ff60035460a01c1615610541576123c2614503565b6000848152600560205260409020600101546001600160a01b039190821680156125ae5733141580612575575b6125565761246484519260208601511661245688518051946040602083015192015190519160405196879560208701998a9492909160b496949286526001600160601b03199060601b16602086015260348501526054840152607483015260948201520190565b03601f198101835282613aed565b51902090510361253d5781600052600a60205260406000209083515191603292838102908082048514901517156110755760646124a39104825461434b565b815560208551015183810290808204851490151715611075576124ce6064600184019204825461434b565b90556040855101518381029381850414901517156110755760408092827fcfc0cb7b9a928947309beb41580a0d9e4a59efa79a6731a5cc21f258445da0f19561252160646002602097019204825461434b565b90556003429101550151945101518151908152426020820152a3005b604051632957e48560e11b815260048101839052602490fd5b6040516379f18c8760e11b815260048101869052336024820152604490fd5b503360009081527f1b48dd06086c0bf876638715267caaecbd3d1847303776b263da6e5dd0e2b1db602052604090205460ff16156123ef565b604051630acbeacf60e31b815260048101879052602490fd5b83356001600160401b0381116103035782602435010190610120602319833603011261030357604051916125fa83613a2e565b602481013583526044810135602084015260648101356001600160401b0381116103035761262e9060243691840101613b0e565b604084015260848101356001600160401b038111610303576126569060243691840101613b0e565b606084015260a48101356001600160401b0381116103035761267e9060243691840101613b0e565b608084015260c4810135916001600160401b03831161030357602493610124602094936126b18695883691840101613b0e565b60a084015260e481013560c08401526126cd6101048201613ced565b60e08401520135610100820152815201940193905061233f565b3461030357600036600319011261030357602060405160648152f35b346103035760403660031901126103035761271c613cd7565b6127246146d2565b5060018060a01b03809116600052600660205260406000206024356000526020526040600020549081156127dd576102e791600052600560205260ff600660406000206040519361277485613a65565b815485526001820154166020850152600281015460408501526040516127a181610cb5816003860161446d565b606085015260048101546080850152600581015460a08501520154818116151560c084015260081c16151560e082015260405191829182613d3e565b604051630acbeacf60e31b815260048101839052602490fd5b346103035761280436613b64565b9060035460ff8160a01c16156105415761281c614503565b6040516385acd64160e01b81527fbdded29a54e6a5d6169bedea55373b06f57e35d7b0f67ac187565b435e2cc94360048201526001600160a01b03916020908290602490829086165afa908115610b7457600091612b8c575b50168015612b7357602060249160405192838092633bf0dc0160e21b82528660048301525afa908115610b7457600091612b38575b5015612b2057336000526006602052604060002081600052602052604060002054612b00576014546128db81614566565b60145560405160208101913360601b835283603483015242605483015260748201526074815261290a81613a9c565b5190209081600052600560205260406000209282845560018401336001600160601b0360a01b8254161790558160028501558051936001600160401b0385116111e45784612961602096610ef26003850154614433565b85601f8211600114612a9457908060069392600091612a89575b508160011b916000199060031b1c19161760038201555b42600482015542600582015501600161ffff1982541617905582600052600a845260006005604082208281556103e8600182015582600282015542600382015582600482015501556011845260006005604082208281558260018201558260028201558260038201558260048201550155612a0c836145c9565b508160005260098452612a23836040600020614661565b503360005260068452604060002082600052845282604060002055827fc06558701f72642f7742aff51ebf20b410ffe7496992707dc6a4e2bae713e7c4612a7560405193604085526040850190613bb9565b9242878201528033940390a4604051908152f35b90508401518861297b565b601f1982169060038401600052876000209160005b818110612ae957509183916006959460019410612ad0575b5050811b016003820155612992565b86015160001960f88460031b161c191690558880612ac1565b91928960018192868a015181550194019201612aa9565b604051631f120a6960e01b81523360048201526024810191909152604490fd5b6024906040519063f708dfa760e01b82526004820152fd5b90506020813d602011612b6b575b81612b5360209383613aed565b810103126103035751801515810361030357836128aa565b3d9150612b46565b60405163f708dfa760e01b815260048101839052602490fd5b612ba5915060203d602011610b6d57610b5e8183613aed565b84612875565b3461030357600036600319011261030357602060ff600154166040519015158152f35b346103035760608060031936011261030357612bf16044356024356004356149d2565b604051906020808301818452825180915260408401918060408360051b8701019401926000965b838810612c255786860387f35b90919293948380600192603f198a8203018652885190815181528282015183820152848060a01b03604083015116604082015285820151612c6581613d1e565b86820152608060ff81840151169082015260e080612c9360a080860151906101008091870152850190613bb9565b9360c0808201519085015201511515910152970193019701969093929193612c18565b34610303576000366003190112610303576040516000600454612cd881614433565b80845290600190818116908115612d715750600114612d16575b6102e784612d0281860382613aed565b604051918291602083526020830190613bb9565b6004600090815292507f8a35acfbc15ff81a39ae7d344fd709f28e8600b4aa8c65c6b64bfe7fe36bd19b5b828410612d59575050508101602001612d0282612cf2565b80546020858701810191909152909301928101612d41565b60ff191660208087019190915292151560051b85019092019250612d029150839050612cf2565b34610303576000366003190112610303576003546001600160a01b03811633036105535760a01c60ff16156105415761214b614503565b34610303576000366003190112610303576003546001600160a01b03811633036105535760a01c60ff16156105415760015460ff811615612e3d5760ff19166001557f5db9ee0a495bf2e6ff9c91a7834c1ba4fdd244a5e8aa4e537bd38aeae4b073aa6020604051338152a1005b60405162461bcd60e51b815260206004820152601460248201527314185d5cd8589b194e881b9bdd081c185d5cd95960621b6044820152606490fd5b3461030357600036600319011261030357612e92614075565b60ff60035460a01c16156105415760015460ff811615612e3d5760ff19166001557f5db9ee0a495bf2e6ff9c91a7834c1ba4fdd244a5e8aa4e537bd38aeae4b073aa6020604051338152a1005b3461030357600036600319011261030357602060ff60035460a01c166040519015158152f35b34610303576000366003190112610303576020600754604051908152f35b3461030357604036600319011261030357612f3c613cc1565b336001600160a01b03821603612f5857610784906004356142c4565b60405162461bcd60e51b815260206004820152602f60248201527f416363657373436f6e74726f6c3a2063616e206f6e6c792072656e6f756e636560448201526e103937b632b9903337b91039b2b63360891b6064820152608490fd5b346103035760803660031901126103035760043560243560048110156103035760643591604435612fe4613e87565b60ff60035460a01c161561054157612ffa614503565b6000828152600560205260409020600101546001600160a01b0316156127dd57612710811380156131a6575b61318e577f78779947684eeff96b2dc044961f47dee102b28575d1357693322a57eb479d039082600052600a6020526040600020600061306586613d1e565b85613108575060008212806130f6575b156130e457600081555b8054905b6003429101556130db60405161309881613a4a565b8581526130a487613d1e565b8660208201528360408201528760608201523360808201524260a08201524360c082015285600052600b602052604060002061473d565b6106f085613d1e565b6130ef828254614721565b815561307f565b5061310082614710565b815410613075565b61311186613d1e565b6001860361315d575060018101600083128061314b575b1561313957600081555b5490613083565b613144838254614721565b8155613132565b5061315583614710565b815410613128565b9061316786613d1e565b6002860361308357905060028101600083128061314b571561313957600081555490613083565b6024906040519063277ed4a360e21b82526004820152fd5b5061270f198112613026565b34610303576040366003190112610303576004356131ce613cc1565b8160005260006020526131e86001604060002001546141ba565b81600052600060205260406000209060018060a01b0316908160005260205260ff604060002054161561321757005b8160005260006020526040600020816000526020526040600020600160ff198254161790553391600080516020615020833981519152600080a4005b346103035760003660031901126103035760206040517f6fa27ac1cdd2e2eda2fb653a3d18c7b6ffe16599817716f8819988196f8ee95e8152f35b346103035760203660031901126103035760043560005260006020526020600160406000200154604051908152f35b34610303576132cb36613b64565b90806000526020906005825260018060a01b0360016040600020015416156102eb57600052600d815260406000206000926000918054925b838110613430575061331485613dfe565b946133226040519687613aed565b808652613331601f1991613dfe565b018460005b8281106133de5750505060009160005b84811061336057604051868152806102e78189018a613bde565b600461338061336f8386614812565b50610cb5604051809481930161446d565b868151910120825187840120146133a0575b61339b90614566565b613346565b926133d661339b916133bb6133b58787614812565b5061482e565b6133c5828b61492b565b526133d0818a61492b565b50614566565b939050613392565b6040516133ea81613a2e565b600081526000838201526060806040830152808083015280608083015260a0820152600060c0820152600060e0820152600061010082015282828a010152018590613336565b600461343f61336f8385614812565b8581519101208351868501201461345f575b61345a90614566565b613303565b9461346c61345a91614566565b959050613451565b346103035760403660031901126103035760043560248035906004821015610303573360009081527f1da0b5176dfe03406af5a6eed66ca01dda9b45ac4da671c3fa379cb93717ef8160209081526040909120549091907f0ce23c3e399818cfee81a7ab0880f714e53d7672b08df0fa62f2843416e1ea099060ff16156135cc575060ff60035460a01c16156105415761350c614503565b6000848152600583526040902060018101549091906001600160a01b0316156135b657509160609160067faf5286fde5de0e6b14a24a44a9e2f90cbf3f1f12a6923f0d747d90022799ace59461356184613d1e565b01805461ff00191683151560081b61ff00161790556000858152601382526040902061358c83613d1e565b60ff1981541660ff8416179055604051916135a681613d1e565b82523390820152426040820152a2005b604051630acbeacf60e31b815260048101869052fd5b82906135d733614369565b906040516135e481613ad2565b604281528381019160603684378151156137475760308353815160019081101561373257607860218401536041905b8082116136c45750506136825760486114c293612026936136669360405195869376020b1b1b2b9b9a1b7b73a3937b61d1030b1b1b7bab73a1604d1b8a860152611ffd815180928c603789019101613b96565b60405193849362461bcd60e51b85526004850152830190613bb9565b606485856040519162461bcd60e51b83528160048401528201527f537472696e67733a20686578206c656e67746820696e73756666696369656e746044820152fd5b9091600f8116601081101561371d576f181899199a1a9b1b9c1cb0b131b232b360811b901a6136f38486614358565b5360041c918015613708576000190190613613565b87634e487b7160e01b60005260116004526000fd5b88634e487b7160e01b60005260326004526000fd5b86634e487b7160e01b60005260326004526000fd5b85634e487b7160e01b60005260326004526000fd5b3461030357602036600319011261030357602061160a600435614efe565b346103035761378836613b64565b9060ff60035460a01c16156105415761379f614503565b60008181526005602090815260409091206001808201546001600160a01b0316801561393b573314158061390a575b6118ac57845160038301916001600160401b0382116111e4576137fb826137f58554614433565b85614575565b84601f831160011461387e579180806138689795937fa1cb72b2df2b666d002efa40f8cd8edaf3b7ab25ca4d23c1478ace3d54d2ef84999a9795600093613873575b501b916000199060031b1c19161790555b600542910155604051928392604084526040840190613bb9565b9042908301520390a2005b88015192508b61383d565b601f9291921982169084600052866000209160005b8181106138f557509183916138689896947fa1cb72b2df2b666d002efa40f8cd8edaf3b7ab25ca4d23c1478ace3d54d2ef849a9b989694106138dc575b5050811b01905561384e565b87015160001960f88460031b161c1916905589806138d0565b8a830151845592850192918801918801613893565b5060008051602061504083398151915260005260008352604060002033600052835260ff60406000205416156137ce565b604051630acbeacf60e31b815260048101869052602490fd5b3461030357600036600319011261030357602060405160018152f35b346103035761397e36613a18565b6000828152600560205260409020600101549091906001600160a01b0316156102eb57600052600c6020526040600020906000526020526020604060002054604051908152f35b34610303576020366003190112610303576004359063ffffffff60e01b821680920361030357602091637965db0b60e01b8114908115613a07575b5015158152f35b6301ffc9a760e01b14905083613a00565b6040906003190112610303576004359060243590565b61012081019081106001600160401b038211176111e457604052565b60e081019081106001600160401b038211176111e457604052565b61010081019081106001600160401b038211176111e457604052565b60c081019081106001600160401b038211176111e457604052565b60a081019081106001600160401b038211176111e457604052565b602081019081106001600160401b038211176111e457604052565b608081019081106001600160401b038211176111e457604052565b90601f801991011681019081106001600160401b038211176111e457604052565b81601f82011215610303578035906001600160401b0382116111e45760405192613b42601f8401601f191660200185613aed565b8284526020838301011161030357816000926020809301838601378301015290565b9060406003198301126103035760043591602435906001600160401b03821161030357613b9391600401613b0e565b90565b60005b838110613ba95750506000910152565b8181015183820152602001613b99565b90602091613bd281518092818552858086019101613b96565b601f01601f1916010190565b908082519081815260208091019281808460051b8301019501936000915b848310613c0c5750505050505090565b9091929394958480600192601f19858203018652895190815181528282015183820152613c8b613c78613c65613c52604080870151906101208091880152860190613bb9565b6060808701519086830390870152613bb9565b6080808601519085830390860152613bb9565b60a0808501519084830390850152613bb9565b9160c0808201519083015260e0868060a01b03818301511690830152610100809101519101529801930193019194939290613bfc565b602435906001600160a01b038216820361030357565b600435906001600160a01b038216820361030357565b35906001600160a01b038216820361030357565b346103035760003660031901126103035760206040516127108152f35b60041115613d2857565b634e487b7160e01b600052602160045260246000fd5b602081528151602082015260018060a01b03602083015116604082015260408201516060820152606082015160e0613d8461010092836080860152610120850190613bb9565b93608081015160a085015260a081015160c085015260c08101511515828501520151151591015290565b91908260c091031261030357604051613dc681613a81565b60a080829480358452602081013560208501526040810135604085015260608101356060850152608081013560808501520135910152565b6001600160401b0381116111e45760051b60200190565b6020908160408183019282815285518094520193019160005b828110613e3c575050505090565b835185529381019392810192600101613e2e565b60a0809180518452602081015160208501526040810151604085015260608101516060850152608081015160808501520151910152565b3360009081527fb470f2a4bcdb3397bb37cd2aed079057563c5c8c028f1abedb6d2e5f62946ce5602090815260408083205490927fa5df84d05f94c8e589750a34f9631c6df369aabc0811ccbbd233872ff60aec669160ff1615613eeb5750505050565b613ef433614369565b91845190613f0182613ad2565b6042825284820192606036853782511561406157603084538251906001918210156140615790607860218501536041915b818311613ff357505050613fb15760486114c2938693613f9593613f86985198899376020b1b1b2b9b9a1b7b73a3937b61d1030b1b1b7bab73a1604d1b8a860152611ffd815180928c603789019101613b96565b01036028810187520185613aed565b5192839262461bcd60e51b845260048401526024830190613bb9565b60648486519062461bcd60e51b825280600483015260248201527f537472696e67733a20686578206c656e67746820696e73756666696369656e746044820152fd5b909192600f8116601081101561404d576f181899199a1a9b1b9c1cb0b131b232b360811b901a6140238587614358565b5360041c92801561403957600019019190613f32565b634e487b7160e01b82526011600452602482fd5b634e487b7160e01b83526032600452602483fd5b634e487b7160e01b81526032600452602490fd5b3360009081527f7d7ffb7a348e1c6a02869081a26547b49160dd3df72d1d75a570eb9b698292ec602090815260408083205490927fa49807205ce4d355092ef5a8a18f56e8913cf4a201fbe287825b095693c217759160ff16156140d95750505050565b6140e233614369565b918451906140ef82613ad2565b6042825284820192606036853782511561406157603084538251906001918210156140615790607860218501536041915b81831161417457505050613fb15760486114c2938693613f9593613f86985198899376020b1b1b2b9b9a1b7b73a3937b61d1030b1b1b7bab73a1604d1b8a860152611ffd815180928c603789019101613b96565b909192600f8116601081101561404d576f181899199a1a9b1b9c1cb0b131b232b360811b901a6141a48587614358565b5360041c92801561403957600019019190614120565b600090808252602090828252604092838120338252835260ff8482205416156141e35750505050565b6141ec33614369565b918451906141f982613ad2565b6042825284820192606036853782511561406157603084538251906001918210156140615790607860218501536041915b81831161427e57505050613fb15760486114c2938693613f9593613f86985198899376020b1b1b2b9b9a1b7b73a3937b61d1030b1b1b7bab73a1604d1b8a860152611ffd815180928c603789019101613b96565b909192600f8116601081101561404d576f181899199a1a9b1b9c1cb0b131b232b360811b901a6142ae8587614358565b5360041c9280156140395760001901919061422a565b9060009180835282602052604083209160018060a01b03169182845260205260ff6040842054166142f457505050565b80835282602052604083208284526020526040832060ff1981541690557ff6391f5c32d9c69d2a47ea670b442974b53935d1edc7fd64eb21e047a839171b339380a4565b8181029291811591840414171561107557565b9190820180921161107557565b9081518110156120dd570160200190565b60405190606082018281106001600160401b038211176111e457604052602a82526020820160403682378251156120dd576030905381516001908110156120dd57607860218401536029905b8082116143c55750506120555790565b9091600f8116601081101561441e576f181899199a1a9b1b9c1cb0b131b232b360811b901a6143f48486614358565b5360041c9180156144095760001901906143b5565b60246000634e487b7160e01b81526011600452fd5b60246000634e487b7160e01b81526032600452fd5b90600182811c92168015614463575b602083101461444d57565b634e487b7160e01b600052602260045260246000fd5b91607f1691614442565b906000929180549161447e83614433565b9182825260019384811690816000146144e057506001146144a0575b50505050565b90919394506000526020928360002092846000945b8386106144cc57505050500101903880808061449a565b8054858701830152940193859082016144b5565b9294505050602093945060ff191683830152151560051b0101903880808061449a565b60ff6001541661450f57565b60405162461bcd60e51b815260206004820152601060248201526f14185d5cd8589b194e881c185d5cd95960821b6044820152606490fd5b9081602091031261030357516001600160a01b03811681036103035790565b60001981146110755760010190565b90601f811161458357505050565b600091825260208220906020601f850160051c830194106145bf575b601f0160051c01915b8281106145b457505050565b8181556001016145a8565b909250829061459f565b60008181526008602052604081205461465c57600754600160401b8110156146485760018101806007558110156146345790826040927fa66cc928b5edb82af9bd49922954155ab7b0942694bea4ce44661d9a8736c688015560075492815260086020522055600190565b634e487b7160e01b82526032600452602482fd5b634e487b7160e01b82526041600452602482fd5b905090565b919060018301600090828252806020526040822054156000146146cc57845494600160401b8610156146b8576001860180825586101561404d57836040949596828552602085200155549382526020522055600190565b634e487b7160e01b83526041600452602483fd5b50925050565b604051906146df82613a65565b8160e06000918281528260208201528260408201526060808201528260808201528260a08201528260c08201520152565b600160ff1b81146110755760000390565b9190916000838201938412911290801582169115161761107557565b805490600160401b8210156111e457600182018082558210156120dd5760069160c09160005260076020600020910201928051845560018401602082015161478481613d1e565b61478d81613d1e565b60ff8019835416911617905560408101516002850155606081015160038501556004840160018060a01b036080830151166001600160601b0360a01b82541617905560a081015160058501550151910155565b604051906147ed82613a81565b8160a06000918281528260208201528260408201528260608201528260808201520152565b80548210156120dd576000526009602060002091020190600090565b90604091610100600884519261484384613a2e565b83958154855260018201546020860152805161486681610cb5816002870161446d565b81860152805161487d81610cb5816003870161446d565b6060860152805161489581610cb5816004870161446d565b6080860152516148ac81610cb5816005860161446d565b60a0850152600681015460c085015260078101546001600160a01b031660e08501520154910152565b9081546148e181613dfe565b926148ef6040519485613aed565b818452600090815260208082208186015b84841061490e575050505050565b60098360019261491d8561482e565b815201920193019290614900565b80518210156120dd5760209160051b010190565b80548210156120dd576000526006602060002091020190600090565b9061496581613d1e565b815460ff60a01b191660a09190911b60ff60a01b16179055565b9060405161498c81613a81565b60a06005829480548452600181015460208501526002810154604085015260038101546060850152600481015460808501520154910152565b9190820391821161107557565b90929160009180835260059460209186835260018060a01b03966001926040928985858a2001541615614bd05787526010855282872098895480831015614bb557614a1d888461434b565b97818911614bab575b606410614b7a575b50614a3982886149c5565b97614a4389613dfe565b98614a5086519a8b613aed565b808a52614a5f601f1991613dfe565b019087815b838110614b365750505050815b878110614a85575096985050505050505050565b806133d08a88614b2a8f614a9d614b31978e9261493f565b50938b8b614aab8c8a6149c5565b968794835197614aba89613a65565b825489528201549088015260028101548c81168489015260ff938460a0928181851c16614ae681613d1e565b60608c015260a81c1660808a01525190614b0e82614b07816003870161446d565b0383613aed565b880152600481015460c0880152015416151560e085015261492b565b528b61492b565b614a71565b875182828e614b4484613a65565b8684528683850152868c8501526060878186015287608086015260a08501528660c08501528660e0850152010152018890614a64565b606483019750878311614b975780881115614a2e57965038614a2e565b634e487b7160e01b89526011600452602489fd5b9097508790614a26565b50505050939495505050505190614bcb82613ab7565b815290565b602490845190630acbeacf60e31b82526004820152fd5b8115614bf1570490565b634e487b7160e01b600052601260045260246000fd5b90614c1182613dfe565b614c1e6040519182613aed565b8281528092614c2f601f1991613dfe565b0190602036910137565b90919060009080614e3c575050604051808160075480835260208093019060076000527fa66cc928b5edb82af9bd49922954155ab7b0942694bea4ce44661d9a8736c688936000905b828210614e2257505050614c9892500382613aed565b805115614e0757614ca98151614c07565b9260005b8251811015614cda5780614cc4614cd5928561492b565b51614ccf828861492b565b52614566565b614cad565b5091600091505b8351600019939084810190811161107557831015614db45760005b614d078487516149c5565b85810190811161107557811015614da157614d22818761492b565b51600052600a90602091808352600160409080826000200154918185019384861161107557614d6a96614d55868e61492b565b5160005252600020015411614d6f5750614566565b614cfc565b614d9a614d7c838a61492b565b5191614d88818b61492b565b51614d93858c61492b565b528961492b565b52386133d0565b50925090614dae90614566565b90614ce1565b91509150825190818111600014614e0057505b614dd081614c07565b9060005b818110614de2575090925050565b80614df0614dfb928761492b565b51614ccf828661492b565b614dd4565b9050614dc7565b509050604051614e1681613ab7565b60008152600036813790565b855484526001958601958795509381019390910190614c82565b815260209060098252604081209160405192838285938354928381520192855280852094905b828210614e7d57505050614e7892500382613aed565b614c98565b855484526001958601958795509381019390910190614e62565b6000908152600560205260409020600101546001600160a01b031615613b9357614eea6103e891600a60205260016040600020015490610bb8808311614ef6575b506101f4808310614eee575b50614338565b0490565b915038614ee4565b915038614ed8565b6000818152600560205260408120600101549192916001600160a01b03161561501b57600a60205260408120926011602052604082209160028501549281908054614ff5575b506064614f9095965404916107d0808411614fec575b509283526013602052604083205460ff16614f7481613d1e565b60018103614f9e5750614f8b9250614f8b906101f4945b61434b565b61271080821161465c575090565b614fa781613d1e565b60028103614fc25750614f8b9250614f8b906103e89461434b565b80614fce600392613d1e565b14614fe2575b614f8b90614f8b939461434b565b6105dc9250614fd4565b92506040614f5a565b600401546107d0808202979250811591880414171561403957946101f490046064614f44565b915056fe2f8788117e7eff1d82e926ec794901d17c78024a50270940304540a733656f0d1d0f12d082b3e5338f8dab310a38db3645f19456d3e591618fb6ace837c5da39a2646970667358221220c14b3ca2e3ce00d9665568562d4f22a5c6170370ad96b272d1c933530939d01e64736f6c634300081400332f8788117e7eff1d82e926ec794901d17c78024a50270940304540a733656f0d",
  "linkReferences": {},
  "deployedLinkReferences": {}
}