{
  "_format": "hh-sol-artifact-1",
  "contractName": "Sense",
  "sourceName": "contracts/modules/Sense/Sense.sol",
  "abi": [
    {
      "inputs": [],
      "stateMutability": "nonpayable",
      "type": "constructor"
    },
    {
      "inputs": [],
      "name": "InvalidRegistryAddress",
      "type": "error"
    },
    {
      "inputs": [
        {
          "internalType": "int256",
          "name": "delta",
          "type": "int256"
        }
      ],
      "name": "InvalidReputationDelta",
      "type": "error"
    },
    {
      "inputs": [],
      "name": "ModuleAlreadyInitialized",
      "type": "error"
    },
    {
      "inputs": [],
      "name": "ModuleNotInitialized",
      "type": "error"
    },
    {
      "inputs": [],
      "name": "OnlyRegistry",
      "type": "error"
    },
    {
      "inputs": [
        {
          "internalType": "string",
          "name": "profileId",
          "type": "string"
        }
      ],
      "name": "ProfileNotFound",
      "type": "error"
    },
    {
      "inputs": [
        {
          "internalType": "address",
          "name": "caller",
          "type": "address"
        }
      ],
      "name": "UnauthorizedReputationUpdate",
      "type": "error"
    },
    {
      "anonymous": false,
      "inputs": [
        {
          "indexed": true,
          "internalType": "bytes8",
          "name": "profileId",
          "type": "bytes8"
        },
        {
          "indexed": false,
          "internalType": "uint256",
          "name": "amount",
          "type": "uint256"
        },
        {
          "indexed": false,
          "internalType": "bytes32",
          "name": "reason",
          "type": "bytes32"
        },
        {
          "indexed": true,
          "internalType": "address",
          "name": "awardedBy",
          "type": "address"
        },
        {
          "indexed": false,
          "internalType": "uint256",
          "name": "timestamp",
          "type": "uint256"
        }
      ],
      "name": "ExperienceAwarded",
      "type": "event"
    },
    {
      "anonymous": false,
      "inputs": [
        {
          "indexed": true,
          "internalType": "bytes8",
          "name": "profileId",
          "type": "bytes8"
        },
        {
          "indexed": false,
          "internalType": "bool",
          "name": "positive",
          "type": "bool"
        },
        {
          "indexed": false,
          "internalType": "bytes32",
          "name": "reason",
          "type": "bytes32"
        },
        {
          "indexed": true,
          "internalType": "address",
          "name": "recordedBy",
          "type": "address"
        },
        {
          "indexed": false,
          "internalType": "uint256",
          "name": "timestamp",
          "type": "uint256"
        }
      ],
      "name": "InteractionRecorded",
      "type": "event"
    },
    {
      "anonymous": false,
      "inputs": [],
      "name": "ModuleDisabled",
      "type": "event"
    },
    {
      "anonymous": false,
      "inputs": [],
      "name": "ModuleEnabled",
      "type": "event"
    },
    {
      "anonymous": false,
      "inputs": [
        {
          "indexed": true,
          "internalType": "address",
          "name": "registry",
          "type": "address"
        }
      ],
      "name": "ModuleInitialized",
      "type": "event"
    },
    {
      "anonymous": false,
      "inputs": [
        {
          "indexed": false,
          "internalType": "address",
          "name": "account",
          "type": "address"
        }
      ],
      "name": "Paused",
      "type": "event"
    },
    {
      "anonymous": false,
      "inputs": [
        {
          "indexed": true,
          "internalType": "bytes8",
          "name": "profileId",
          "type": "bytes8"
        },
        {
          "indexed": true,
          "internalType": "enum ISense.ReputationType",
          "name": "repType",
          "type": "uint8"
        },
        {
          "indexed": false,
          "internalType": "int256",
          "name": "delta",
          "type": "int256"
        },
        {
          "indexed": false,
          "internalType": "bytes32",
          "name": "reason",
          "type": "bytes32"
        },
        {
          "indexed": true,
          "internalType": "address",
          "name": "updatedBy",
          "type": "address"
        },
        {
          "indexed": false,
          "internalType": "uint256",
          "name": "timestamp",
          "type": "uint256"
        }
      ],
      "name": "ReputationUpdated",
      "type": "event"
    },
    {
      "anonymous": false,
      "inputs": [
        {
          "indexed": true,
          "internalType": "bytes32",
          "name": "role",
          "type": "bytes32"
        },
        {
          "indexed": true,
          "internalType": "bytes32",
          "name": "previousAdminRole",
          "type": "bytes32"
        },
        {
          "indexed": true,
          "internalType": "bytes32",
          "name": "newAdminRole",
          "type": "bytes32"
        }
      ],
      "name": "RoleAdminChanged",
      "type": "event"
    },
    {
      "anonymous": false,
      "inputs": [
        {
          "indexed": true,
          "internalType": "bytes32",
          "name": "role",
          "type": "bytes32"
        },
        {
          "indexed": true,
          "internalType": "address",
          "name": "account",
          "type": "address"
        },
        {
          "indexed": true,
          "internalType": "address",
          "name": "sender",
          "type": "address"
        }
      ],
      "name": "RoleGranted",
      "type": "event"
    },
    {
      "anonymous": false,
      "inputs": [
        {
          "indexed": true,
          "internalType": "bytes32",
          "name": "role",
          "type": "bytes32"
        },
        {
          "indexed": true,
          "internalType": "address",
          "name": "account",
          "type": "address"
        },
        {
          "indexed": true,
          "internalType": "address",
          "name": "sender",
          "type": "address"
        }
      ],
      "name": "RoleRevoked",
      "type": "event"
    },
    {
      "anonymous": false,
      "inputs": [
        {
          "indexed": false,
          "internalType": "address",
          "name": "account",
          "type": "address"
        }
      ],
      "name": "Unpaused",
      "type": "event"
    },
    {
      "inputs": [],
      "name": "ADMIN_ROLE",
      "outputs": [
        {
          "internalType": "bytes32",
          "name": "",
          "type": "bytes32"
        }
      ],
      "stateMutability": "view",
      "type": "function"
    },
    {
      "inputs": [],
      "name": "DEFAULT_ADMIN_ROLE",
      "outputs": [
        {
          "internalType": "bytes32",
          "name": "",
          "type": "bytes32"
        }
      ],
      "stateMutability": "view",
      "type": "function"
    },
    {
      "inputs": [],
      "name": "MAX_REPUTATION_DELTA",
      "outputs": [
        {
          "internalType": "uint256",
          "name": "",
          "type": "uint256"
        }
      ],
      "stateMutability": "view",
      "type": "function"
    },
    {
      "inputs": [],
      "name": "OPERATOR_ROLE",
      "outputs": [
        {
          "internalType": "bytes32",
          "name": "",
          "type": "bytes32"
        }
      ],
      "stateMutability": "view",
      "type": "function"
    },
    {
      "inputs": [],
      "name": "REPUTATION_MANAGER_ROLE",
      "outputs": [
        {
          "internalType": "bytes32",
          "name": "",
          "type": "bytes32"
        }
      ],
      "stateMutability": "view",
      "type": "function"
    },
    {
      "inputs": [],
      "name": "REPUTATION_SCALE",
      "outputs": [
        {
          "internalType": "uint256",
          "name": "",
          "type": "uint256"
        }
      ],
      "stateMutability": "view",
      "type": "function"
    },
    {
      "inputs": [],
      "name": "SENSE_ADMIN_ROLE",
      "outputs": [
        {
          "internalType": "bytes32",
          "name": "",
          "type": "bytes32"
        }
      ],
      "stateMutability": "view",
      "type": "function"
    },
    {
      "inputs": [],
      "name": "TRUST_SCORE_SCALE",
      "outputs": [
        {
          "internalType": "uint256",
          "name": "",
          "type": "uint256"
        }
      ],
      "stateMutability": "view",
      "type": "function"
    },
    {
      "inputs": [
        {
          "internalType": "bytes8",
          "name": "profileId",
          "type": "bytes8"
        },
        {
          "internalType": "uint256",
          "name": "amount",
          "type": "uint256"
        },
        {
          "internalType": "bytes32",
          "name": "reason",
          "type": "bytes32"
        }
      ],
      "name": "awardExperience",
      "outputs": [],
      "stateMutability": "nonpayable",
      "type": "function"
    },
    {
      "inputs": [
        {
          "internalType": "bytes8",
          "name": "profileId",
          "type": "bytes8"
        }
      ],
      "name": "calculateTrustScore",
      "outputs": [
        {
          "internalType": "uint256",
          "name": "trustScore",
          "type": "uint256"
        }
      ],
      "stateMutability": "view",
      "type": "function"
    },
    {
      "inputs": [
        {
          "internalType": "bytes8",
          "name": "profileId",
          "type": "bytes8"
        },
        {
          "internalType": "uint256",
          "name": "baseWeight",
          "type": "uint256"
        }
      ],
      "name": "calculateVotingWeight",
      "outputs": [
        {
          "internalType": "uint256",
          "name": "votingWeight",
          "type": "uint256"
        }
      ],
      "stateMutability": "view",
      "type": "function"
    },
    {
      "inputs": [],
      "name": "emergencyPause",
      "outputs": [],
      "stateMutability": "nonpayable",
      "type": "function"
    },
    {
      "inputs": [],
      "name": "emergencyUnpause",
      "outputs": [],
      "stateMutability": "nonpayable",
      "type": "function"
    },
    {
      "inputs": [
        {
          "internalType": "bytes8",
          "name": "profileId",
          "type": "bytes8"
        }
      ],
      "name": "getExperience",
      "outputs": [
        {
          "internalType": "uint256",
          "name": "experience",
          "type": "uint256"
        }
      ],
      "stateMutability": "view",
      "type": "function"
    },
    {
      "inputs": [
        {
          "internalType": "bytes8",
          "name": "profileId",
          "type": "bytes8"
        }
      ],
      "name": "getReputation",
      "outputs": [
        {
          "components": [
            {
              "internalType": "uint256",
              "name": "experience",
              "type": "uint256"
            },
            {
              "internalType": "uint256",
              "name": "reputation",
              "type": "uint256"
            },
            {
              "internalType": "uint256",
              "name": "trust",
              "type": "uint256"
            },
            {
              "internalType": "uint256",
              "name": "lastUpdated",
              "type": "uint256"
            },
            {
              "internalType": "uint256",
              "name": "totalInteractions",
              "type": "uint256"
            },
            {
              "internalType": "uint256",
              "name": "positiveInteractions",
              "type": "uint256"
            }
          ],
          "internalType": "struct ISense.ReputationData",
          "name": "reputation",
          "type": "tuple"
        }
      ],
      "stateMutability": "view",
      "type": "function"
    },
    {
      "inputs": [
        {
          "internalType": "bytes8[]",
          "name": "profileIds",
          "type": "bytes8[]"
        }
      ],
      "name": "getReputationBatch",
      "outputs": [
        {
          "components": [
            {
              "internalType": "uint256",
              "name": "experience",
              "type": "uint256"
            },
            {
              "internalType": "uint256",
              "name": "reputation",
              "type": "uint256"
            },
            {
              "internalType": "uint256",
              "name": "trust",
              "type": "uint256"
            },
            {
              "internalType": "uint256",
              "name": "lastUpdated",
              "type": "uint256"
            },
            {
              "internalType": "uint256",
              "name": "totalInteractions",
              "type": "uint256"
            },
            {
              "internalType": "uint256",
              "name": "positiveInteractions",
              "type": "uint256"
            }
          ],
          "internalType": "struct ISense.ReputationData[]",
          "name": "reputations",
          "type": "tuple[]"
        }
      ],
      "stateMutability": "view",
      "type": "function"
    },
    {
      "inputs": [
        {
          "internalType": "bytes8",
          "name": "profileId",
          "type": "bytes8"
        }
      ],
      "name": "getReputationHistory",
      "outputs": [
        {
          "components": [
            {
              "internalType": "bytes8",
              "name": "profileId",
              "type": "bytes8"
            },
            {
              "internalType": "enum ISense.ReputationType",
              "name": "repType",
              "type": "uint8"
            },
            {
              "internalType": "int256",
              "name": "delta",
              "type": "int256"
            },
            {
              "internalType": "bytes32",
              "name": "reason",
              "type": "bytes32"
            },
            {
              "internalType": "address",
              "name": "updatedBy",
              "type": "address"
            },
            {
              "internalType": "uint256",
              "name": "timestamp",
              "type": "uint256"
            }
          ],
          "internalType": "struct ISense.ReputationEvent[]",
          "name": "events",
          "type": "tuple[]"
        }
      ],
      "stateMutability": "view",
      "type": "function"
    },
    {
      "inputs": [
        {
          "internalType": "bytes32",
          "name": "role",
          "type": "bytes32"
        }
      ],
      "name": "getRoleAdmin",
      "outputs": [
        {
          "internalType": "bytes32",
          "name": "",
          "type": "bytes32"
        }
      ],
      "stateMutability": "view",
      "type": "function"
    },
    {
      "inputs": [
        {
          "internalType": "bytes8",
          "name": "profileId",
          "type": "bytes8"
        }
      ],
      "name": "getTrustScore",
      "outputs": [
        {
          "internalType": "uint256",
          "name": "trustScore",
          "type": "uint256"
        }
      ],
      "stateMutability": "view",
      "type": "function"
    },
    {
      "inputs": [
        {
          "internalType": "bytes32",
          "name": "role",
          "type": "bytes32"
        },
        {
          "internalType": "address",
          "name": "account",
          "type": "address"
        }
      ],
      "name": "grantRole",
      "outputs": [],
      "stateMutability": "nonpayable",
      "type": "function"
    },
    {
      "inputs": [
        {
          "internalType": "bytes32",
          "name": "role",
          "type": "bytes32"
        },
        {
          "internalType": "address",
          "name": "account",
          "type": "address"
        }
      ],
      "name": "hasRole",
      "outputs": [
        {
          "internalType": "bool",
          "name": "",
          "type": "bool"
        }
      ],
      "stateMutability": "view",
      "type": "function"
    },
    {
      "inputs": [
        {
          "internalType": "address",
          "name": "registryAddress",
          "type": "address"
        }
      ],
      "name": "initialize",
      "outputs": [],
      "stateMutability": "nonpayable",
      "type": "function"
    },
    {
      "inputs": [],
      "name": "isInitialized",
      "outputs": [
        {
          "internalType": "bool",
          "name": "",
          "type": "bool"
        }
      ],
      "stateMutability": "view",
      "type": "function"
    },
    {
      "inputs": [],
      "name": "moduleId",
      "outputs": [
        {
          "internalType": "bytes32",
          "name": "",
          "type": "bytes32"
        }
      ],
      "stateMutability": "pure",
      "type": "function"
    },
    {
      "inputs": [],
      "name": "onModuleDisabled",
      "outputs": [],
      "stateMutability": "nonpayable",
      "type": "function"
    },
    {
      "inputs": [],
      "name": "onModuleEnabled",
      "outputs": [],
      "stateMutability": "nonpayable",
      "type": "function"
    },
    {
      "inputs": [],
      "name": "pause",
      "outputs": [],
      "stateMutability": "nonpayable",
      "type": "function"
    },
    {
      "inputs": [],
      "name": "paused",
      "outputs": [
        {
          "internalType": "bool",
          "name": "",
          "type": "bool"
        }
      ],
      "stateMutability": "view",
      "type": "function"
    },
    {
      "inputs": [
        {
          "internalType": "bytes8",
          "name": "profileId",
          "type": "bytes8"
        },
        {
          "internalType": "bool",
          "name": "positive",
          "type": "bool"
        },
        {
          "internalType": "bytes32",
          "name": "reason",
          "type": "bytes32"
        }
      ],
      "name": "recordInteraction",
      "outputs": [],
      "stateMutability": "nonpayable",
      "type": "function"
    },
    {
      "inputs": [],
      "name": "registry",
      "outputs": [
        {
          "internalType": "address",
          "name": "",
          "type": "address"
        }
      ],
      "stateMutability": "view",
      "type": "function"
    },
    {
      "inputs": [
        {
          "internalType": "bytes32",
          "name": "role",
          "type": "bytes32"
        },
        {
          "internalType": "address",
          "name": "account",
          "type": "address"
        }
      ],
      "name": "renounceRole",
      "outputs": [],
      "stateMutability": "nonpayable",
      "type": "function"
    },
    {
      "inputs": [
        {
          "internalType": "bytes32",
          "name": "role",
          "type": "bytes32"
        },
        {
          "internalType": "address",
          "name": "account",
          "type": "address"
        }
      ],
      "name": "revokeRole",
      "outputs": [],
      "stateMutability": "nonpayable",
      "type": "function"
    },
    {
      "inputs": [
        {
          "internalType": "bytes4",
          "name": "interfaceId",
          "type": "bytes4"
        }
      ],
      "name": "supportsInterface",
      "outputs": [
        {
          "internalType": "bool",
          "name": "",
          "type": "bool"
        }
      ],
      "stateMutability": "view",
      "type": "function"
    },
    {
      "inputs": [],
      "name": "unpause",
      "outputs": [],
      "stateMutability": "nonpayable",
      "type": "function"
    },
    {
      "inputs": [
        {
          "internalType": "bytes8",
          "name": "profileId",
          "type": "bytes8"
        },
        {
          "internalType": "enum ISense.ReputationType",
          "name": "repType",
          "type": "uint8"
        },
        {
          "internalType": "int256",
          "name": "delta",
          "type": "int256"
        },
        {
          "internalType": "bytes32",
          "name": "reason",
          "type": "bytes32"
        }
      ],
      "name": "updateReputation",
      "outputs": [],
      "stateMutability": "nonpayable",
      "type": "function"
    },
    {
      "inputs": [],
      "name": "version",
      "outputs": [
        {
          "internalType": "string",
          "name": "",
          "type": "string"
        }
      ],
      "stateMutability": "view",
      "type": "function"
    }
  ],
  "bytecode": "0x608034620002d0576040908082016001600160401b03811182821017620002ba578252600581526020809101640312e302e360dc1b815260ff1990600190828254168255816002556004548281811c91168015620002af575b858210146200029957601f811162000267575b50516001600160d81b031916600a17600455600080805280845284812033825284528490205460ff16156200022c575b7fa49807205ce4d355092ef5a8a18f56e8913cf4a201fbe287825b095693c2177580600052600084528460002033600052845260ff85600020541615620001ef575b507f1d0f12d082b3e5338f8dab310a38db3645f19456d3e591618fb6ace837c5da3980600052600084528460002033600052845260ff85600020541615620001b2575b507fa5df84d05f94c8e589750a34f9631c6df369aabc0811ccbbd233872ff60aec669283600052600081528460002033600052815260ff8560002054161562000173575b84516122659081620002d68239f35b8360005260008152846000209033600052528360002091825416179055339033906000805160206200253b833981519152600080a43880808062000164565b806000526000845284600020336000528452846000208284825416179055339033906000805160206200253b833981519152600080a43862000120565b806000526000845284600020336000528452846000208284825416179055339033906000805160206200253b833981519152600080a438620000dd565b600080526000835283600020336000528352836000208183825416179055333360006000805160206200253b8339815191528180a46200009b565b600460005282601f86600020920160051c8201915b8281106200028c5750506200006b565b600081550183906200027c565b634e487b7160e01b600052602260045260246000fd5b90607f169062000058565b634e487b7160e01b600052604160045260246000fd5b600080fdfe608060408181526004918236101561001657600080fd5b600092833560e01c91826301ffc9a7146117d757508163152e6475146116535781631e9fc7601461155c57816321118a2d146114a2578163248a9ca314611478578163255e57801461143f5781632f2ff15d146113a857816336568abe14611316578163392e53cd146112ef5781633f4ba83a146112855781634a4e3bd5146111d95781634fc2c0771461112f57816351858e27146110ac57816354fd4d5014610fa957816356e521c214610f1c5781635c975abb14610f8557816375b238fc14610f4a5781637b10399914610f21578163823ced4114610f1c5781638456cb5914610e6c57816384d8e2d014610d375781638b158f9814610cfc57816391d1485414610cb6578163a1308f2714610c7b578163a217fddf14610c60578163aa7318aa14610c07578163b95c0ff414610bc9578163be152b6114610bac578163bfaa09cb14610b7f578163c4d66de8146108c6578163d547741f14610888578163e69e729e14610483578163ea836c831461028f578163eb0fd86a14610266578163ebf8a3e6146101ee575063f5b541a6146101b157600080fd5b346101ea57816003193601126101ea57602090517f97667070c54ef182b0f5858b034beac1b6f3089aa2d3188bb1e8929f4fa9b9298152f35b5080fd5b919050346102625782600319360112610262576003546001600160a01b03811633036102545760a01c60ff161561024757827fa866f3901ec84758a10f30e8953c3818eef73da93dfa46cb6aa5b726fb65813f8180a180f35b51633165f6e960e21b8152fd5b50516310f5403960e31b8152fd5b8280fd5b5050346101ea57816003193601126101ea57602090516000805160206122108339815191528152f35b905034610262576020908160031936011261047f5780359267ffffffffffffffff841161047b573660238501121561047b5783820135916102cf83611938565b946102dc83519687611916565b8386528486016024600595861b8301019136831161047757602401905b8282106104535750505084519561030f87611938565b9661031c84519889611916565b80885261032b601f1991611938565b0185825b82811061043d57505050805b86518110156103c2576103bd906001600160c01b031961035b828a612067565b5116835285875284832086865191610372836118c8565b8054835260018101548a84015260028101548884015260038101546060840152868101546080840152015460a08201526103ac828b612067565b526103b7818a612067565b50611f8a565b61033b565b8351868152885181880181905289880191908187019089865b8281106103e85784840385f35b9091928260c08261042e6001948a5160a0809180518452602081015160208501526040810151604085015260608101516060850152608081015160808501520151910152565b019601910194929190946103db565b610445611f1b565b82828c01015201869061032f565b81356001600160c01b0319811681036104735781529086019086016102f9565b8980fd5b8880fd5b8480fd5b8380fd5b919050346102625760803660031901126102625761049f61182a565b91602491823592600384101561088457604435946064359160008051602061221083398151915291828952602092898452858a20338b52845260ff868b205416156106c257506104ee8161207b565b6001600160c01b03191680895260058352848920909590899088610604578a8a126105b85761051e8a8254611cb6565b81555b600342910155868a526006845261056b868b20875190610540826118c8565b89825261054f8b888401611e4c565b8b898301528760608301523360808301524260a0830152611e6e565b6105a7575050825195865285015242908401527f8447f892fee5ad64a0d887d9dc5bfa7a6ab41cdf7441a4b73be5625ffe7faea260603394a480f35b634e487b7160e01b89526021905287fd5b865162461bcd60e51b81528084018690526021818601527f457870657269656e63652064656c7461206d75737420626520706f73697469766044820152606560f81b6064820152608490fd5b8a915060018903610679578a8a131561064457600181016106268b8254611cb6565b9081815561271080921161063c575b5050610521565b553880610635565b8a61064e8b611e2e565b600183019080825411600014610672578161066b92935054611e3f565b9055610521565b5055610521565b8a915060028903610521578a8a131561069b576002810161066b8b8254611cb6565b8a6106a58b611e2e565b600283019080825411600014610672578161066b92935054611e3f565b86848b8589946106d133611d00565b90918651926106df846118fa565b6042845285840194606036873784511561087257603086538451906001918210156108605790607860218701536041915b8183116107f7575050506107b657506107b293869361079e9361078f6048946107669a519a8576020b1b1b2b9b9a1b7b73a3937b61d1030b1b1b7bab73a1604d1b8d97880152825192839160378901910161185c565b8401917001034b99036b4b9b9b4b733903937b6329607d1b60378401525180938684019061185c565b01036028810187520185611916565b5162461bcd60e51b8152928392830161187f565b0390fd5b9250505081606494519362461bcd60e51b85528401528201527f537472696e67733a20686578206c656e67746820696e73756666696369656e746044820152fd5b909192600f8116601081101561084e576f181899199a1a9b1b9c1cb0b131b232b360811b901a6108278589611cd9565b53891c92801561083c57600019019190610710565b634e487b7160e01b825260118a528482fd5b634e487b7160e01b835260328b528583fd5b634e487b7160e01b8152603289528390fd5b634e487b7160e01b8152603288529050fd5b8580fd5b919050346102625780600319360112610262576108c391356108be60016108ad611846565b938387528660205286200154611b39565b611c42565b80f35b905034610262576020908160031936011261047f5780356001600160a01b0381811694918590036108845760035460ff8160a01c16610b70578515610b61576001600160a81b0319168517600160a01b176003557fa49807205ce4d355092ef5a8a18f56e8913cf4a201fbe287825b095693c2177580875286855282872086885285528287205460ff1615610b2a575b507f97667070c54ef182b0f5858b034beac1b6f3089aa2d3188bb1e8929f4fa9b929808752868552828720868852855260ff838820541615610af3575b508382518094637b10399960e01b825281305afa928315610ae9578693610aba575b507f1d0f12d082b3e5338f8dab310a38db3645f19456d3e591618fb6ace837c5da3990818752868552828720931692838752845260ff828720541615610a83575b5060008051602061221083398151915292838652858152818620838752815260ff828720541615610a4b575b85857f27b541a16df0902e262f34789782092ab25125513b8ed73608e802951771b9288280a280f35b83865285815281862083875290528420805460ff1916600117905533916000805160206121f08339815191528580a438808080610a22565b8086528584528186208387528452818620600160ff198254161790558233916000805160206121f08339815191528880a4386109f6565b610adb919350843d8611610ae2575b610ad38183611916565b810190611e0f565b91386109b5565b503d610ac9565b82513d88823e3d90fd5b8087528685528287208688528552828720600160ff198254161790558533916000805160206121f08339815191528980a438610993565b8087528685528287208688528552828720600160ff198254161790558533916000805160206121f08339815191528980a438610956565b505051637bfd2e8360e01b8152fd5b505051637396742f60e11b8152fd5b5050346101ea5760203660031901126101ea57602090610ba5610ba061182a565b611f99565b9051908152f35b5050346101ea57816003193601126101ea57602090516103e88152f35b5050346101ea5760203660031901126101ea5760028160209367ffffffffffffffff60c01b610bf661182a565b168152600585522001549051908152f35b919050346102625782600319360112610262576003546001600160a01b03811633036102545760a01c60ff161561024757827f6dff2fe8fbb5b23bf0583bf5b2157ff62ca7e27f2fb4f404914cd0c205ced5cc8180a180f35b5050346101ea57816003193601126101ea5751908152602090f35b5050346101ea57816003193601126101ea57602090517fda774a9a6475b94924a168725d00b478d90cbf28e9176d635f3dab48a3a915088152f35b9050346102625781600319360112610262578160209360ff92610cd7611846565b903582528186528282206001600160a01b039091168252855220549151911615158152f35b5050346101ea57816003193601126101ea57602090517f1d0f12d082b3e5338f8dab310a38db3645f19456d3e591618fb6ace837c5da398152f35b90503461026257606036600319011261026257610d5261182a565b916024358015159384820361088457600080516020612210833981519152865285602052828620338752602052610d8e60ff8488205416611f4d565b610d978161207b565b67ffffffffffffffff60c01b1692838652600560205282862091818301610dbe8154611f8a565b905515610e3e5760058201610dd38154611f8a565b905560028201805491600a8301809311610e2b5750555b6003429101558051928352604435602084015242908301527f6c723e08ef2de1ee5b9e008f0a865930373e0b01c4e14f8fae0163abd232880760603393a380f35b634e487b7160e01b885260119052602487fd5b6002820180548790600511610e6457508054600419810192908311610e2b575055610dea565b915055610dea565b905034610262578260031936011261026257610e86611950565b60ff60035460a01c1615610f0e576001549060ff8216610ed857507f62e78cea01bee320cd4e420270b5ea74000d11b0c9f74754ebdbfc544b05a25891600160209260ff19161760015551338152a180f35b606490602084519162461bcd60e51b8352820152601060248201526f14185d5cd8589b194e881c185d5cd95960821b6044820152fd5b9051633165f6e960e21b8152fd5b6118ab565b5050346101ea57816003193601126101ea5760035490516001600160a01b039091168152602090f35b5050346101ea57816003193601126101ea57602090517fa49807205ce4d355092ef5a8a18f56e8913cf4a201fbe287825b095693c217758152f35b5050346101ea57816003193601126101ea5760209060ff6001541690519015158152f35b8383346101ea57816003193601126101ea57805191809380549160019083821c928285169485156110a2575b602095868610811461108f5785895290811561106b5750600114611013575b61100f8787611005828c0383611916565b519182918261187f565b0390f35b81529295507f8a35acfbc15ff81a39ae7d344fd709f28e8600b4aa8c65c6b64bfe7fe36bd19b5b828410611058575050508261100f9461100592820101948680610ff4565b805486850188015292860192810161103a565b60ff19168887015250505050151560051b83010192506110058261100f8680610ff4565b634e487b7160e01b845260228352602484fd5b93607f1693610fd5565b9050346102625782600319360112610262576003546001600160a01b03811633036111205760a01c60ff1615610f0e576001549060ff8216610ed857507f62e78cea01bee320cd4e420270b5ea74000d11b0c9f74754ebdbfc544b05a25891600160209260ff19161760015551338152a180f35b5090516310f5403960e31b8152fd5b905082346111d657826003193601126111d65761114a61182a565b6001600160c01b03191681526005602052828120835190929060243590611170816118c8565b8454815260a060056001870154968760208501526002810154898501526003810154606085015285810154608085015201549101528381029381850414901517156111c3576020836103e8865191048152f35b634e487b7160e01b825260119052602490fd5b80fd5b9050346102625782600319360112610262576003546001600160a01b03811633036111205760a01c60ff1615610f0e576001549060ff82161561124b575060ff1916600155513381527f5db9ee0a495bf2e6ff9c91a7834c1ba4fdd244a5e8aa4e537bd38aeae4b073aa90602090a180f35b606490602084519162461bcd60e51b8352820152601460248201527314185d5cd8589b194e881b9bdd081c185d5cd95960621b6044820152fd5b90503461026257826003193601126102625761129f611950565b60ff60035460a01c1615610f0e576001549060ff82161561124b575060ff1916600155513381527f5db9ee0a495bf2e6ff9c91a7834c1ba4fdd244a5e8aa4e537bd38aeae4b073aa90602090a180f35b5050346101ea57816003193601126101ea5760209060ff60035460a01c1690519015158152f35b839150346101ea57826003193601126101ea57611331611846565b90336001600160a01b0383160361134d57906108c39135611c42565b608490602085519162461bcd60e51b8352820152602f60248201527f416363657373436f6e74726f6c3a2063616e206f6e6c792072656e6f756e636560448201526e103937b632b9903337b91039b2b63360891b6064820152fd5b90503461026257816003193601126102625735906113c4611846565b90828452836020526113db60018286200154611b39565b82845260208481528185206001600160a01b039093168086529290528084205460ff1615611407578380f35b828452836020528084208285526020528320600160ff1982541617905533916000805160206121f08339815191528480a43880808380f35b5050346101ea5760203660031901126101ea5760209181906001600160c01b031961146861182a565b1681526005845220549051908152f35b90503461026257602036600319011261026257816020936001923581528085522001549051908152f35b919050346102625760203660031901126102625780600561155a9260c0956114c861182a565b6114d0611f1b565b5067ffffffffffffffff881b16815282602052208251946114f0866118c8565b8154865260018201546020870152600282015484870152600382015460608701528101546080860152015460a084015251809260a0809180518452602081015160208501526040810151604085015260608101516060850152608081015160808501520151910152565bf35b5050346101ea5760603660031901126101ea5761157761182a565b60243591604435600080516020612210833981519152855260209285845282862033875284526115ac60ff8488205416611f4d565b6115b58161207b565b67ffffffffffffffff60c01b1692838652600581528286206115d8868254611cb6565b81556003429101558386526006815261161d8387208451906115f9826118c8565b868252888483015287868301528460608301523360808301524260a0830152611e6e565b825194855284015242908301527fb41e8155e63d061d70010ebc289c7ee1a7092ba601591de6ae8e1c3af3f6a3db60603393a380f35b839150346101ea57602080600319360112610262576001600160c01b03199184908361167d61182a565b168552600683528185209283549061169482611938565b916116a185519384611916565b8083528183018096895282892089915b83831061175f5750505050835196879682880193838952518094528588019695825b8584106116e0578989038af35b91939597909294968099505184815116825286810151600381101561174c5782889260c0928460019601528681015187830152606080820151908301526080858060a01b0381830151169083015260a080910151908201520199019401918998979593919694966116d3565b634e487b7160e01b845260218a52602484fd5b6005856001928a809e999b9d989a9c9d519061177a826118c8565b61179460ff88548c8160c01b168552831c16858401611e4c565b858701549082015260028601546060820152848060a01b0360038701541660808201528c86015460a08201528152019201920191909996949998979593986116b1565b849134610262576020366003190112610262573563ffffffff60e01b81168091036102625760209250637965db0b60e01b8114908115611819575b5015158152f35b6301ffc9a760e01b14905083611812565b600435906001600160c01b03198216820361184157565b600080fd5b602435906001600160a01b038216820361184157565b60005b83811061186f5750506000910152565b818101518382015260200161185f565b6040916020825261189f815180928160208601526020868601910161185c565b601f01601f1916010190565b346118415760003660031901126118415760206040516127108152f35b60c0810190811067ffffffffffffffff8211176118e457604052565b634e487b7160e01b600052604160045260246000fd5b6080810190811067ffffffffffffffff8211176118e457604052565b90601f8019910116810190811067ffffffffffffffff8211176118e457604052565b67ffffffffffffffff81116118e45760051b60200190565b3360009081527f7d7ffb7a348e1c6a02869081a26547b49160dd3df72d1d75a570eb9b698292ec60209081526040808320549092907fa49807205ce4d355092ef5a8a18f56e8913cf4a201fbe287825b095693c217759060ff16156119b55750505050565b6119be33611d00565b8451916119ca836118fa565b60428352848301936060368637835115611b255760308553835190600191821015611b255790607860218601536041915b818311611ab757505050611a7557610766938593611a5f93611a506048946107b29951988576020b1b1b2b9b9a1b7b73a3937b61d1030b1b1b7bab73a1604d1b8b97880152825192839160378901910161185c565b01036028810185520183611916565b5162461bcd60e51b81529182916004830161187f565b60648486519062461bcd60e51b825280600483015260248201527f537472696e67733a20686578206c656e67746820696e73756666696369656e746044820152fd5b909192600f81166010811015611b11576f181899199a1a9b1b9c1cb0b131b232b360811b901a611ae78588611cd9565b5360041c928015611afd576000190191906119fb565b634e487b7160e01b82526011600452602482fd5b634e487b7160e01b83526032600452602483fd5b634e487b7160e01b81526032600452602490fd5b6000818152602090808252604092838220338352835260ff848320541615611b615750505050565b611b6a33611d00565b845191611b76836118fa565b60428352848301936060368637835115611b255760308553835190600191821015611b255790607860218601536041915b818311611bfc57505050611a7557610766938593611a5f93611a506048946107b29951988576020b1b1b2b9b9a1b7b73a3937b61d1030b1b1b7bab73a1604d1b8b97880152825192839160378901910161185c565b909192600f81166010811015611b11576f181899199a1a9b1b9c1cb0b131b232b360811b901a611c2c8588611cd9565b5360041c928015611afd57600019019190611ba7565b9060009180835282602052604083209160018060a01b03169182845260205260ff604084205416611c7257505050565b80835282602052604083208284526020526040832060ff1981541690557ff6391f5c32d9c69d2a47ea670b442974b53935d1edc7fd64eb21e047a839171b339380a4565b91908201809211611cc357565b634e487b7160e01b600052601160045260246000fd5b908151811015611cea570160200190565b634e487b7160e01b600052603260045260246000fd5b604051906060820182811067ffffffffffffffff8211176118e457604052602a8252602082016040368237825115611cea57603090538151600190811015611cea57607860218401536029905b808211611da1575050611d5d5790565b606460405162461bcd60e51b815260206004820152602060248201527f537472696e67733a20686578206c656e67746820696e73756666696369656e746044820152fd5b9091600f81166010811015611dfa576f181899199a1a9b1b9c1cb0b131b232b360811b901a611dd08486611cd9565b5360041c918015611de5576000190190611d4d565b60246000634e487b7160e01b81526011600452fd5b60246000634e487b7160e01b81526032600452fd5b9081602091031261184157516001600160a01b03811681036118415790565b600160ff1b8114611cc35760000390565b91908203918211611cc357565b6003821015611e585752565b634e487b7160e01b600052602160045260246000fd5b805490680100000000000000008210156118e45760018201808255821015611cea576000526005602060002091020190805160c01c908254906020810151916003831015611e585760049368ff000000000000000060a09460401b169168ffffffffffffffffff191617178455604081015160018501556060810151600285015560038401600180841b036080830151166bffffffffffffffffffffffff841b8254161790550151910155565b60405190611f28826118c8565b8160a06000918281528260208201528260408201528260608201528260808201520152565b15611f5457565b60405162461bcd60e51b815260206004820152600e60248201526d139bdd08185d5d1a1bdc9a5e995960921b6044820152606490fd5b6000198114611cc35760010190565b9060009167ffffffffffffffff60c01b168252600560205260a06040832060405190611fc4826118c8565b8054825260018101546020830152600281015491604081019283526003820154606082015260048201549060056080820193838552015494859101521561205d576127109283810293818504149015171561204957519081156120355761202f939450519104611cb6565b60011c90565b634e487b7160e01b85526012600452602485fd5b634e487b7160e01b85526011600452602485fd5b5061138893505050565b8051821015611cea5760209160051b010190565b612084906120c9565b1561208b57565b60405162461bcd60e51b8152602060048201526016602482015275141c9bd99a5b1948191bd95cc81b9bdd08195e1a5cdd60521b6044820152606490fd5b6003549060ff8260a01c16156121dd576040516385acd64160e01b81527f377799b22fba826cf24c3f07e6731c67676765addcee33415a2c80d453d4ed6e60048201526020926001600160a01b03919084908290602490829086165afa9081156121ac576000916121c0575b50169081156121b8578290602460405180948193632a1b17d960e21b835267ffffffffffffffff60c01b1660048301525afa9182156121ac5760009261217a57505090565b81813d83116121a5575b61218e8183611916565b810103126101ea57519081151582036111d6575090565b503d612184565b6040513d6000823e3d90fd5b505050600090565b6121d79150843d8611610ae257610ad38183611916565b38612135565b604051633165f6e960e21b8152600490fdfe2f8788117e7eff1d82e926ec794901d17c78024a50270940304540a733656f0da5df84d05f94c8e589750a34f9631c6df369aabc0811ccbbd233872ff60aec66a26469706673582212204c36ad3cf25c9bb749e19cf8530a5b92270fecde4e8f36b3d31913db1d081ae864736f6c634300081400332f8788117e7eff1d82e926ec794901d17c78024a50270940304540a733656f0d",
  "linkReferences": {},
  "deployedLinkReferences": {}
}