{
  "_format": "hh-sol-artifact-1",
  "contractName": "GameStaking",
  "sourceName": "contracts/staking/GameStaking.sol",
  "abi": [
    {
      "inputs": [
        {
          "internalType": "address",
          "name": "_gameToken",
          "type": "address"
        },
        {
          "internalType": "address",
          "name": "_treasury",
          "type": "address"
        },
        {
          "internalType": "uint256",
          "name": "_protocolFeeShare",
          "type": "uint256"
        }
      ],
      "stateMutability": "nonpayable",
      "type": "constructor"
    },
    {
      "anonymous": false,
      "inputs": [
        {
          "indexed": true,
          "internalType": "bytes8",
          "name": "organizationId",
          "type": "bytes8"
        },
        {
          "indexed": true,
          "internalType": "address",
          "name": "staker",
          "type": "address"
        },
        {
          "indexed": false,
          "internalType": "uint256",
          "name": "amount",
          "type": "uint256"
        },
        {
          "indexed": false,
          "internalType": "uint256",
          "name": "timestamp",
          "type": "uint256"
        }
      ],
      "name": "OrganizationStakeWithdrawn",
      "type": "event"
    },
    {
      "anonymous": false,
      "inputs": [
        {
          "indexed": true,
          "internalType": "bytes8",
          "name": "organizationId",
          "type": "bytes8"
        },
        {
          "indexed": true,
          "internalType": "address",
          "name": "staker",
          "type": "address"
        },
        {
          "indexed": false,
          "internalType": "uint256",
          "name": "amount",
          "type": "uint256"
        },
        {
          "indexed": false,
          "internalType": "uint256",
          "name": "timestamp",
          "type": "uint256"
        }
      ],
      "name": "OrganizationStaked",
      "type": "event"
    },
    {
      "anonymous": false,
      "inputs": [
        {
          "indexed": false,
          "internalType": "address",
          "name": "account",
          "type": "address"
        }
      ],
      "name": "Paused",
      "type": "event"
    },
    {
      "anonymous": false,
      "inputs": [
        {
          "indexed": true,
          "internalType": "enum GameStaking.StakingPurpose",
          "name": "purpose",
          "type": "uint8"
        },
        {
          "indexed": false,
          "internalType": "uint256",
          "name": "newRewardRate",
          "type": "uint256"
        },
        {
          "indexed": false,
          "internalType": "bool",
          "name": "active",
          "type": "bool"
        }
      ],
      "name": "PoolUpdated",
      "type": "event"
    },
    {
      "anonymous": false,
      "inputs": [
        {
          "indexed": true,
          "internalType": "address",
          "name": "user",
          "type": "address"
        },
        {
          "indexed": true,
          "internalType": "enum GameStaking.StakingPurpose",
          "name": "purpose",
          "type": "uint8"
        },
        {
          "indexed": false,
          "internalType": "uint256",
          "name": "amount",
          "type": "uint256"
        },
        {
          "indexed": false,
          "internalType": "uint256",
          "name": "timestamp",
          "type": "uint256"
        }
      ],
      "name": "RewardsClaimed",
      "type": "event"
    },
    {
      "anonymous": false,
      "inputs": [
        {
          "indexed": true,
          "internalType": "enum GameStaking.StakingPurpose",
          "name": "purpose",
          "type": "uint8"
        },
        {
          "indexed": false,
          "internalType": "uint256",
          "name": "amount",
          "type": "uint256"
        },
        {
          "indexed": false,
          "internalType": "uint256",
          "name": "timestamp",
          "type": "uint256"
        }
      ],
      "name": "RewardsDistributed",
      "type": "event"
    },
    {
      "anonymous": false,
      "inputs": [
        {
          "indexed": true,
          "internalType": "bytes32",
          "name": "role",
          "type": "bytes32"
        },
        {
          "indexed": true,
          "internalType": "bytes32",
          "name": "previousAdminRole",
          "type": "bytes32"
        },
        {
          "indexed": true,
          "internalType": "bytes32",
          "name": "newAdminRole",
          "type": "bytes32"
        }
      ],
      "name": "RoleAdminChanged",
      "type": "event"
    },
    {
      "anonymous": false,
      "inputs": [
        {
          "indexed": true,
          "internalType": "bytes32",
          "name": "role",
          "type": "bytes32"
        },
        {
          "indexed": true,
          "internalType": "address",
          "name": "account",
          "type": "address"
        },
        {
          "indexed": true,
          "internalType": "address",
          "name": "sender",
          "type": "address"
        }
      ],
      "name": "RoleGranted",
      "type": "event"
    },
    {
      "anonymous": false,
      "inputs": [
        {
          "indexed": true,
          "internalType": "bytes32",
          "name": "role",
          "type": "bytes32"
        },
        {
          "indexed": true,
          "internalType": "address",
          "name": "account",
          "type": "address"
        },
        {
          "indexed": true,
          "internalType": "address",
          "name": "sender",
          "type": "address"
        }
      ],
      "name": "RoleRevoked",
      "type": "event"
    },
    {
      "anonymous": false,
      "inputs": [
        {
          "indexed": true,
          "internalType": "address",
          "name": "user",
          "type": "address"
        },
        {
          "indexed": true,
          "internalType": "enum GameStaking.StakingPurpose",
          "name": "purpose",
          "type": "uint8"
        },
        {
          "indexed": false,
          "internalType": "uint256",
          "name": "amount",
          "type": "uint256"
        },
        {
          "indexed": true,
          "internalType": "address",
          "name": "slasher",
          "type": "address"
        },
        {
          "indexed": false,
          "internalType": "string",
          "name": "reason",
          "type": "string"
        },
        {
          "indexed": false,
          "internalType": "uint256",
          "name": "timestamp",
          "type": "uint256"
        }
      ],
      "name": "Slashed",
      "type": "event"
    },
    {
      "anonymous": false,
      "inputs": [
        {
          "indexed": true,
          "internalType": "address",
          "name": "user",
          "type": "address"
        },
        {
          "indexed": true,
          "internalType": "enum GameStaking.StakingPurpose",
          "name": "purpose",
          "type": "uint8"
        },
        {
          "indexed": false,
          "internalType": "uint256",
          "name": "amount",
          "type": "uint256"
        },
        {
          "indexed": false,
          "internalType": "enum GameStaking.UnstakingStrategy",
          "name": "strategy",
          "type": "uint8"
        },
        {
          "indexed": false,
          "internalType": "uint256",
          "name": "timestamp",
          "type": "uint256"
        }
      ],
      "name": "Staked",
      "type": "event"
    },
    {
      "anonymous": false,
      "inputs": [
        {
          "indexed": false,
          "internalType": "address",
          "name": "account",
          "type": "address"
        }
      ],
      "name": "Unpaused",
      "type": "event"
    },
    {
      "anonymous": false,
      "inputs": [
        {
          "indexed": true,
          "internalType": "address",
          "name": "user",
          "type": "address"
        },
        {
          "indexed": true,
          "internalType": "enum GameStaking.StakingPurpose",
          "name": "purpose",
          "type": "uint8"
        },
        {
          "indexed": false,
          "internalType": "uint256",
          "name": "amount",
          "type": "uint256"
        },
        {
          "indexed": false,
          "internalType": "enum GameStaking.UnstakingStrategy",
          "name": "strategy",
          "type": "uint8"
        },
        {
          "indexed": false,
          "internalType": "uint256",
          "name": "requestId",
          "type": "uint256"
        },
        {
          "indexed": false,
          "internalType": "uint256",
          "name": "unlockTime",
          "type": "uint256"
        }
      ],
      "name": "UnstakeRequested",
      "type": "event"
    },
    {
      "anonymous": false,
      "inputs": [
        {
          "indexed": true,
          "internalType": "address",
          "name": "user",
          "type": "address"
        },
        {
          "indexed": true,
          "internalType": "enum GameStaking.StakingPurpose",
          "name": "purpose",
          "type": "uint8"
        },
        {
          "indexed": false,
          "internalType": "uint256",
          "name": "amount",
          "type": "uint256"
        },
        {
          "indexed": false,
          "internalType": "uint256",
          "name": "penalty",
          "type": "uint256"
        },
        {
          "indexed": false,
          "internalType": "uint256",
          "name": "timestamp",
          "type": "uint256"
        }
      ],
      "name": "Unstaked",
      "type": "event"
    },
    {
      "inputs": [],
      "name": "ADMIN_ROLE",
      "outputs": [
        {
          "internalType": "bytes32",
          "name": "",
          "type": "bytes32"
        }
      ],
      "stateMutability": "view",
      "type": "function"
    },
    {
      "inputs": [],
      "name": "BASIS_POINTS",
      "outputs": [
        {
          "internalType": "uint256",
          "name": "",
          "type": "uint256"
        }
      ],
      "stateMutability": "view",
      "type": "function"
    },
    {
      "inputs": [],
      "name": "DEFAULT_ADMIN_ROLE",
      "outputs": [
        {
          "internalType": "bytes32",
          "name": "",
          "type": "bytes32"
        }
      ],
      "stateMutability": "view",
      "type": "function"
    },
    {
      "inputs": [],
      "name": "MAX_REWARD_RATE",
      "outputs": [
        {
          "internalType": "uint256",
          "name": "",
          "type": "uint256"
        }
      ],
      "stateMutability": "view",
      "type": "function"
    },
    {
      "inputs": [],
      "name": "MIN_STAKE_AMOUNT",
      "outputs": [
        {
          "internalType": "uint256",
          "name": "",
          "type": "uint256"
        }
      ],
      "stateMutability": "view",
      "type": "function"
    },
    {
      "inputs": [],
      "name": "ORGANIZATION_MANAGER_ROLE",
      "outputs": [
        {
          "internalType": "bytes32",
          "name": "",
          "type": "bytes32"
        }
      ],
      "stateMutability": "view",
      "type": "function"
    },
    {
      "inputs": [],
      "name": "ORGANIZATION_STAKE_LOCK_PERIOD",
      "outputs": [
        {
          "internalType": "uint256",
          "name": "",
          "type": "uint256"
        }
      ],
      "stateMutability": "view",
      "type": "function"
    },
    {
      "inputs": [],
      "name": "PRECISION",
      "outputs": [
        {
          "internalType": "uint256",
          "name": "",
          "type": "uint256"
        }
      ],
      "stateMutability": "view",
      "type": "function"
    },
    {
      "inputs": [],
      "name": "RAGE_QUIT_PENALTY",
      "outputs": [
        {
          "internalType": "uint256",
          "name": "",
          "type": "uint256"
        }
      ],
      "stateMutability": "view",
      "type": "function"
    },
    {
      "inputs": [],
      "name": "REWARD_DISTRIBUTOR_ROLE",
      "outputs": [
        {
          "internalType": "bytes32",
          "name": "",
          "type": "bytes32"
        }
      ],
      "stateMutability": "view",
      "type": "function"
    },
    {
      "inputs": [],
      "name": "SLASHER_ROLE",
      "outputs": [
        {
          "internalType": "bytes32",
          "name": "",
          "type": "bytes32"
        }
      ],
      "stateMutability": "view",
      "type": "function"
    },
    {
      "inputs": [
        {
          "internalType": "bytes8",
          "name": "organizationId",
          "type": "bytes8"
        }
      ],
      "name": "canWithdrawOrganizationStake",
      "outputs": [
        {
          "internalType": "bool",
          "name": "",
          "type": "bool"
        }
      ],
      "stateMutability": "view",
      "type": "function"
    },
    {
      "inputs": [
        {
          "internalType": "enum GameStaking.StakingPurpose",
          "name": "purpose",
          "type": "uint8"
        }
      ],
      "name": "claimRewards",
      "outputs": [],
      "stateMutability": "nonpayable",
      "type": "function"
    },
    {
      "inputs": [
        {
          "internalType": "enum GameStaking.StakingPurpose",
          "name": "purpose",
          "type": "uint8"
        },
        {
          "internalType": "uint256",
          "name": "amount",
          "type": "uint256"
        }
      ],
      "name": "distributeRewards",
      "outputs": [],
      "stateMutability": "nonpayable",
      "type": "function"
    },
    {
      "inputs": [
        {
          "internalType": "address",
          "name": "token",
          "type": "address"
        },
        {
          "internalType": "uint256",
          "name": "amount",
          "type": "uint256"
        }
      ],
      "name": "emergencyWithdraw",
      "outputs": [],
      "stateMutability": "nonpayable",
      "type": "function"
    },
    {
      "inputs": [],
      "name": "gameToken",
      "outputs": [
        {
          "internalType": "contract IERC20",
          "name": "",
          "type": "address"
        }
      ],
      "stateMutability": "view",
      "type": "function"
    },
    {
      "inputs": [
        {
          "internalType": "bytes8",
          "name": "organizationId",
          "type": "bytes8"
        }
      ],
      "name": "getOrganizationStake",
      "outputs": [
        {
          "components": [
            {
              "internalType": "bytes8",
              "name": "organizationId",
              "type": "bytes8"
            },
            {
              "internalType": "address",
              "name": "staker",
              "type": "address"
            },
            {
              "internalType": "uint256",
              "name": "amount",
              "type": "uint256"
            },
            {
              "internalType": "uint256",
              "name": "stakedAt",
              "type": "uint256"
            },
            {
              "internalType": "bool",
              "name": "active",
              "type": "bool"
            }
          ],
          "internalType": "struct GameStaking.OrganizationStake",
          "name": "",
          "type": "tuple"
        }
      ],
      "stateMutability": "view",
      "type": "function"
    },
    {
      "inputs": [
        {
          "internalType": "address",
          "name": "user",
          "type": "address"
        },
        {
          "internalType": "enum GameStaking.StakingPurpose",
          "name": "purpose",
          "type": "uint8"
        }
      ],
      "name": "getPendingRewards",
      "outputs": [
        {
          "internalType": "uint256",
          "name": "",
          "type": "uint256"
        }
      ],
      "stateMutability": "view",
      "type": "function"
    },
    {
      "inputs": [
        {
          "internalType": "enum GameStaking.StakingPurpose",
          "name": "purpose",
          "type": "uint8"
        }
      ],
      "name": "getPoolInfo",
      "outputs": [
        {
          "internalType": "uint256",
          "name": "totalStaked",
          "type": "uint256"
        },
        {
          "internalType": "uint256",
          "name": "rewardRate",
          "type": "uint256"
        },
        {
          "internalType": "uint256",
          "name": "totalRewardsDistributed",
          "type": "uint256"
        },
        {
          "internalType": "bool",
          "name": "active",
          "type": "bool"
        }
      ],
      "stateMutability": "view",
      "type": "function"
    },
    {
      "inputs": [
        {
          "internalType": "bytes32",
          "name": "role",
          "type": "bytes32"
        }
      ],
      "name": "getRoleAdmin",
      "outputs": [
        {
          "internalType": "bytes32",
          "name": "",
          "type": "bytes32"
        }
      ],
      "stateMutability": "view",
      "type": "function"
    },
    {
      "inputs": [
        {
          "internalType": "address",
          "name": "user",
          "type": "address"
        },
        {
          "internalType": "enum GameStaking.StakingPurpose",
          "name": "purpose",
          "type": "uint8"
        }
      ],
      "name": "getStakeInfo",
      "outputs": [
        {
          "internalType": "uint256",
          "name": "amount",
          "type": "uint256"
        },
        {
          "internalType": "uint256",
          "name": "pendingRewards",
          "type": "uint256"
        },
        {
          "internalType": "uint256",
          "name": "stakedAt",
          "type": "uint256"
        },
        {
          "internalType": "enum GameStaking.UnstakingStrategy",
          "name": "strategy",
          "type": "uint8"
        }
      ],
      "stateMutability": "view",
      "type": "function"
    },
    {
      "inputs": [
        {
          "internalType": "address",
          "name": "user",
          "type": "address"
        }
      ],
      "name": "getUserOrganizationStakes",
      "outputs": [
        {
          "internalType": "bytes8[]",
          "name": "",
          "type": "bytes8[]"
        }
      ],
      "stateMutability": "view",
      "type": "function"
    },
    {
      "inputs": [
        {
          "internalType": "bytes32",
          "name": "role",
          "type": "bytes32"
        },
        {
          "internalType": "address",
          "name": "account",
          "type": "address"
        }
      ],
      "name": "grantRole",
      "outputs": [],
      "stateMutability": "nonpayable",
      "type": "function"
    },
    {
      "inputs": [
        {
          "internalType": "bytes32",
          "name": "role",
          "type": "bytes32"
        },
        {
          "internalType": "address",
          "name": "account",
          "type": "address"
        }
      ],
      "name": "hasRole",
      "outputs": [
        {
          "internalType": "bool",
          "name": "",
          "type": "bool"
        }
      ],
      "stateMutability": "view",
      "type": "function"
    },
    {
      "inputs": [
        {
          "internalType": "bytes8",
          "name": "",
          "type": "bytes8"
        }
      ],
      "name": "organizationStakes",
      "outputs": [
        {
          "internalType": "bytes8",
          "name": "organizationId",
          "type": "bytes8"
        },
        {
          "internalType": "address",
          "name": "staker",
          "type": "address"
        },
        {
          "internalType": "uint256",
          "name": "amount",
          "type": "uint256"
        },
        {
          "internalType": "uint256",
          "name": "stakedAt",
          "type": "uint256"
        },
        {
          "internalType": "bool",
          "name": "active",
          "type": "bool"
        }
      ],
      "stateMutability": "view",
      "type": "function"
    },
    {
      "inputs": [],
      "name": "pause",
      "outputs": [],
      "stateMutability": "nonpayable",
      "type": "function"
    },
    {
      "inputs": [],
      "name": "paused",
      "outputs": [
        {
          "internalType": "bool",
          "name": "",
          "type": "bool"
        }
      ],
      "stateMutability": "view",
      "type": "function"
    },
    {
      "inputs": [
        {
          "internalType": "enum GameStaking.StakingPurpose",
          "name": "purpose",
          "type": "uint8"
        },
        {
          "internalType": "uint256",
          "name": "requestId",
          "type": "uint256"
        }
      ],
      "name": "processUnstake",
      "outputs": [],
      "stateMutability": "nonpayable",
      "type": "function"
    },
    {
      "inputs": [],
      "name": "protocolFeeShare",
      "outputs": [
        {
          "internalType": "uint256",
          "name": "",
          "type": "uint256"
        }
      ],
      "stateMutability": "view",
      "type": "function"
    },
    {
      "inputs": [
        {
          "internalType": "bytes32",
          "name": "role",
          "type": "bytes32"
        },
        {
          "internalType": "address",
          "name": "account",
          "type": "address"
        }
      ],
      "name": "renounceRole",
      "outputs": [],
      "stateMutability": "nonpayable",
      "type": "function"
    },
    {
      "inputs": [
        {
          "internalType": "enum GameStaking.StakingPurpose",
          "name": "purpose",
          "type": "uint8"
        },
        {
          "internalType": "uint256",
          "name": "amount",
          "type": "uint256"
        },
        {
          "internalType": "enum GameStaking.UnstakingStrategy",
          "name": "strategy",
          "type": "uint8"
        }
      ],
      "name": "requestUnstake",
      "outputs": [],
      "stateMutability": "nonpayable",
      "type": "function"
    },
    {
      "inputs": [
        {
          "internalType": "bytes32",
          "name": "role",
          "type": "bytes32"
        },
        {
          "internalType": "address",
          "name": "account",
          "type": "address"
        }
      ],
      "name": "revokeRole",
      "outputs": [],
      "stateMutability": "nonpayable",
      "type": "function"
    },
    {
      "inputs": [
        {
          "internalType": "uint256",
          "name": "_protocolFeeShare",
          "type": "uint256"
        }
      ],
      "name": "setProtocolFeeShare",
      "outputs": [],
      "stateMutability": "nonpayable",
      "type": "function"
    },
    {
      "inputs": [
        {
          "internalType": "address",
          "name": "_treasury",
          "type": "address"
        }
      ],
      "name": "setTreasury",
      "outputs": [],
      "stateMutability": "nonpayable",
      "type": "function"
    },
    {
      "inputs": [
        {
          "internalType": "address",
          "name": "user",
          "type": "address"
        },
        {
          "internalType": "enum GameStaking.StakingPurpose",
          "name": "purpose",
          "type": "uint8"
        },
        {
          "internalType": "uint256",
          "name": "amount",
          "type": "uint256"
        },
        {
          "internalType": "string",
          "name": "reason",
          "type": "string"
        }
      ],
      "name": "slash",
      "outputs": [],
      "stateMutability": "nonpayable",
      "type": "function"
    },
    {
      "inputs": [
        {
          "internalType": "address",
          "name": "",
          "type": "address"
        }
      ],
      "name": "slashedUsers",
      "outputs": [
        {
          "internalType": "bool",
          "name": "",
          "type": "bool"
        }
      ],
      "stateMutability": "view",
      "type": "function"
    },
    {
      "inputs": [
        {
          "internalType": "enum GameStaking.StakingPurpose",
          "name": "purpose",
          "type": "uint8"
        },
        {
          "internalType": "uint256",
          "name": "amount",
          "type": "uint256"
        },
        {
          "internalType": "enum GameStaking.UnstakingStrategy",
          "name": "preferredStrategy",
          "type": "uint8"
        }
      ],
      "name": "stake",
      "outputs": [],
      "stateMutability": "nonpayable",
      "type": "function"
    },
    {
      "inputs": [
        {
          "internalType": "bytes8",
          "name": "organizationId",
          "type": "bytes8"
        },
        {
          "internalType": "address",
          "name": "staker",
          "type": "address"
        },
        {
          "internalType": "uint256",
          "name": "amount",
          "type": "uint256"
        }
      ],
      "name": "stakeForOrganization",
      "outputs": [],
      "stateMutability": "nonpayable",
      "type": "function"
    },
    {
      "inputs": [
        {
          "internalType": "enum GameStaking.StakingPurpose",
          "name": "",
          "type": "uint8"
        }
      ],
      "name": "stakingPools",
      "outputs": [
        {
          "internalType": "uint256",
          "name": "totalStaked",
          "type": "uint256"
        },
        {
          "internalType": "uint256",
          "name": "rewardRate",
          "type": "uint256"
        },
        {
          "internalType": "uint256",
          "name": "lastUpdateTime",
          "type": "uint256"
        },
        {
          "internalType": "uint256",
          "name": "rewardPerTokenStored",
          "type": "uint256"
        },
        {
          "internalType": "uint256",
          "name": "totalRewardsDistributed",
          "type": "uint256"
        },
        {
          "internalType": "bool",
          "name": "active",
          "type": "bool"
        }
      ],
      "stateMutability": "view",
      "type": "function"
    },
    {
      "inputs": [
        {
          "internalType": "bytes4",
          "name": "interfaceId",
          "type": "bytes4"
        }
      ],
      "name": "supportsInterface",
      "outputs": [
        {
          "internalType": "bool",
          "name": "",
          "type": "bool"
        }
      ],
      "stateMutability": "view",
      "type": "function"
    },
    {
      "inputs": [],
      "name": "totalRewardsPool",
      "outputs": [
        {
          "internalType": "uint256",
          "name": "",
          "type": "uint256"
        }
      ],
      "stateMutability": "view",
      "type": "function"
    },
    {
      "inputs": [],
      "name": "totalSlashed",
      "outputs": [
        {
          "internalType": "uint256",
          "name": "",
          "type": "uint256"
        }
      ],
      "stateMutability": "view",
      "type": "function"
    },
    {
      "inputs": [],
      "name": "treasury",
      "outputs": [
        {
          "internalType": "address",
          "name": "",
          "type": "address"
        }
      ],
      "stateMutability": "view",
      "type": "function"
    },
    {
      "inputs": [],
      "name": "unpause",
      "outputs": [],
      "stateMutability": "nonpayable",
      "type": "function"
    },
    {
      "inputs": [
        {
          "internalType": "address",
          "name": "",
          "type": "address"
        },
        {
          "internalType": "uint256",
          "name": "",
          "type": "uint256"
        }
      ],
      "name": "unstakeRequests",
      "outputs": [
        {
          "internalType": "uint256",
          "name": "amount",
          "type": "uint256"
        },
        {
          "internalType": "uint256",
          "name": "requestTime",
          "type": "uint256"
        },
        {
          "internalType": "enum GameStaking.UnstakingStrategy",
          "name": "strategy",
          "type": "uint8"
        },
        {
          "internalType": "bool",
          "name": "processed",
          "type": "bool"
        }
      ],
      "stateMutability": "view",
      "type": "function"
    },
    {
      "inputs": [
        {
          "internalType": "enum GameStaking.StakingPurpose",
          "name": "purpose",
          "type": "uint8"
        },
        {
          "internalType": "uint256",
          "name": "newRewardRate",
          "type": "uint256"
        },
        {
          "internalType": "bool",
          "name": "active",
          "type": "bool"
        }
      ],
      "name": "updatePool",
      "outputs": [],
      "stateMutability": "nonpayable",
      "type": "function"
    },
    {
      "inputs": [
        {
          "internalType": "address",
          "name": "",
          "type": "address"
        },
        {
          "internalType": "uint256",
          "name": "",
          "type": "uint256"
        }
      ],
      "name": "userOrganizationStakes",
      "outputs": [
        {
          "internalType": "bytes8",
          "name": "",
          "type": "bytes8"
        }
      ],
      "stateMutability": "view",
      "type": "function"
    },
    {
      "inputs": [
        {
          "internalType": "address",
          "name": "",
          "type": "address"
        },
        {
          "internalType": "enum GameStaking.StakingPurpose",
          "name": "",
          "type": "uint8"
        }
      ],
      "name": "userStakes",
      "outputs": [
        {
          "internalType": "uint256",
          "name": "amount",
          "type": "uint256"
        },
        {
          "internalType": "uint256",
          "name": "rewardPerTokenPaid",
          "type": "uint256"
        },
        {
          "internalType": "uint256",
          "name": "pendingRewards",
          "type": "uint256"
        },
        {
          "internalType": "uint256",
          "name": "stakedAt",
          "type": "uint256"
        },
        {
          "internalType": "uint256",
          "name": "lastClaimTime",
          "type": "uint256"
        },
        {
          "internalType": "enum GameStaking.UnstakingStrategy",
          "name": "preferredStrategy",
          "type": "uint8"
        }
      ],
      "stateMutability": "view",
      "type": "function"
    },
    {
      "inputs": [
        {
          "internalType": "address",
          "name": "",
          "type": "address"
        }
      ],
      "name": "userUnstakeRequestCount",
      "outputs": [
        {
          "internalType": "uint256",
          "name": "",
          "type": "uint256"
        }
      ],
      "stateMutability": "view",
      "type": "function"
    },
    {
      "inputs": [
        {
          "internalType": "bytes8",
          "name": "organizationId",
          "type": "bytes8"
        },
        {
          "internalType": "address",
          "name": "staker",
          "type": "address"
        }
      ],
      "name": "withdrawOrganizationStake",
      "outputs": [],
      "stateMutability": "nonpayable",
      "type": "function"
    }
  ],
  "bytecode": "0x60a0346200052d57601f620039ed38819003918201601f1916830191906001600160401b03831184841017620005325781606092859260409586528339810103126200052d57620000508262000568565b916020826200006182840162000568565b92015160019081805560029384549060018060a01b03809816978815620004f457811615620004bd576127108311620004855760809788526001600160a81b031990911660089190911b610100600160a81b0316178455600a5560008080528083528481203382528352848120546200035d949360059390929187919060ff16156200044e575b7fa49807205ce4d355092ef5a8a18f56e8913cf4a201fbe287825b095693c21775808452838552828420338552855260ff83852054161562000415575b507fb814ff4a26ea3ec5cd1fa579daad86324826254265f3acfec78303a19845b449808452838552828420338552855260ff838520541615620003dc575b507f12274c208a40c3eca6c09426911c6b1a9bcdb6ae935ccde65ec88694c95cd3a7808452838552828420338552855260ff838520541615620003a3575b5062000213620001b062000548565b8481528686820161012c81528583014281528d606085019089825285019189835260a08601938885528a80526003998a8d528b20965187555188870155518c860155518785015551600484015551151591019060ff801983541691151516179055565b620002826200022162000548565b848152868a87830161032081528d82850142815260608601918a83528601928a845260a0870194898652898c528a8d528b20965187555188870155518c860155518785015551600484015551151591019060ff801983541691151516179055565b620002f26200029062000548565b84815286888b8d8985016104b081528286019042825260608701928b84528701938b855260a08801958a87528c528a8d528b20965187555188870155518c860155518785015551600484015551151591019060ff801983541691151516179055565b620002fc62000548565b958387528487019161025883528988019042825260608901938685528b8d8b01978089528760a08d019a858c52818352522099518a5551908901555190870155519085015551600484015551151591019060ff801983541691151516179055565b5161344f91826200057e8339518181816104f30152818161089c01528181610e1801528181611431015281816116d601528181611a4301528181611e4e01526120640152f35b80845283855282842033855285528284208260ff1982541617905533903390600080516020620039cd8339815191528680a438620001a1565b80845283855282842033855285528284208260ff1982541617905533903390600080516020620039cd8339815191528680a43862000163565b80845283855282842033855285528284208260ff1982541617905533903390600080516020620039cd8339815191528680a43862000125565b82805282845281832033845284528183208160ff19825416179055333384600080516020620039cd8339815191528180a4620000e8565b865162461bcd60e51b8152600481018690526011602482015270496e76616c69642066656520736861726560781b6044820152606490fd5b865162461bcd60e51b815260048101869052601060248201526f496e76616c696420747265617375727960801b6044820152606490fd5b875162461bcd60e51b815260048101879052601260248201527124b73b30b634b21033b0b6b2903a37b5b2b760711b6044820152606490fd5b600080fd5b634e487b7160e01b600052604160045260246000fd5b6040519060c082016001600160401b038111838210176200053257604052565b51906001600160a01b03821682036200052d5756fe6080604081815260048036101561001557600080fd5b600092833560e01c908163012579a41461232a5750806301ffc9a71461228a57806309155c1a1461226d5780630dbe9f60146121fa57806321e4c90a14611f515780632280efd614611ece578063236aed6014611da8578063248a9ca314611d7f57806327ed7188146108f75780632ef3ff6f14611d605780632f2ff15d14611cb957806332e4bb0a14611c7e57806336568abe14611bde5780633f02261e146119d65780633f4ba83a146119385780635095af64146118fd5780635b1ff28d146115635780635c975abb1461153f5780635cc65b101461136a57806361d027b31461133f57806366442a06146112d1578063718dc3c3146112b457806375b238fc14611279578063772c5dc5146111b45780637765f4051461115157806377913bc7146110db5780638078d7961461109f5780638456cb59146110445780638493b06c14610d935780638831680814610d705780638dbb73e314610bfe578063919f550f14610b2f57806391d1485414610aeb57806395ccea6714610aab578063960b26a214610a8c5780639ee8015a146109a1578063a03267d214610936578063a201bbdd14610917578063a217fddf146108fc578063aaf5eb68146108f7578063b4928175146108c0578063c3dfdae61461087c578063d547741f1461083f578063dbce8ef514610483578063dfda0c4014610448578063e1f1c4a71461042b578063ebdaae4a1461039e578063f0f44260146102df578063f45902b4146102bd5763f742919b1461024957600080fd5b346102b95760203660031901126102b9578035916102656126cd565b6127108311610276575050600a5580f35b906020606492519162461bcd60e51b8352820152601160248201527f496e76616c6964206665652073686172650000000000000000000000000000006044820152fd5b8280fd5b5050346102db57816003193601126102db576020905162278d008152f35b5080fd5b50346102b95760203660031901126102b9576102f96124b3565b916103026126cd565b6001600160a01b0383161561035b5750507fffffffffffffffffffffff0000000000000000000000000000000000000000ff74ffffffffffffffffffffffffffffffffffffffff006002549260081b1691161760025580f35b906020606492519162461bcd60e51b8352820152601060248201527f496e76616c6964207472656173757279000000000000000000000000000000006044820152fd5b508234610428576020366003190112610428578135908282101561042857506080926103cb60a092612513565b908051936103d88561261e565b82549485815260ff60056001860154938460208501526002870154868501526003870154606085015286015495868a85015201541615159485910152815194855260208501528301526060820152f35b80fd5b5050346102db57816003193601126102db57602090516127108152f35b5050346102db57816003193601126102db57602090517f12274c208a40c3eca6c09426911c6b1a9bcdb6ae935ccde65ec88694c95cd3a78152f35b509190346102db5761049436612567565b7fb814ff4a26ea3ec5cd1fa579daad86324826254265f3acfec78303a19845b449929192808552602090858252838620338752825260ff84872054161561066557508115610623576104e584612513565b54156105e1576105178230337f0000000000000000000000000000000000000000000000000000000000000000612dec565b61052084613176565b61052984612513565b670de0b6b3a76400008302670de0b6b3a763ffff19848204016105ce57906105548892825490613078565b61056360038301918254612c02565b905501610571838254612c02565b905561057f82600954612c02565b600955858410156105bb57825191825242908201527ff6386a1d251141cfd2a6deda788c887394a348909c80098adcbf9005afb78e3d9190a280f35b602485602188634e487b7160e01b835252fd5b60248760118a634e487b7160e01b835252fd5b8560649184519162461bcd60e51b8352820152600a60248201527f4e6f207374616b657273000000000000000000000000000000000000000000006044820152fd5b8560649184519162461bcd60e51b8352820152600e60248201527f496e76616c696420616d6f756e740000000000000000000000000000000000006044820152fd5b8387918761067233612c20565b9183519061067f826125ec565b6042825286820192606036853782511561082c57603084538251906001918210156108195790607860218501536041915b8183116107ae5750505061076d57604861074093859361074f9361076997519687937f416363657373436f6e74726f6c3a206163636f756e74200000000000000000008c86015261070b8c8251928391603789019101612b1c565b8401917f206973206d697373696e6720726f6c6520000000000000000000000000000000603784015251809386840190612b1c565b01036028810185520183612656565b5193849362461bcd60e51b85528401526024830190612b3f565b0390fd5b606485878087519262461bcd60e51b845283015260248201527f537472696e67733a20686578206c656e67746820696e73756666696369656e746044820152fd5b909192600f81166010811015610806576f181899199a1a9b1b9c1cb0b131b232b360811b901a6107de8587612c0f565b53881c9280156107f3576000190191906106b0565b60248260118b634e487b7160e01b835252fd5b60248360328c634e487b7160e01b835252fd5b80603289634e487b7160e01b6024945252fd5b80603288634e487b7160e01b6024945252fd5b5090346102b957806003193601126102b957610879913561087460016108636124ce565b938387528660205286200154612a0c565b612b64565b80f35b5050346102db57816003193601126102db57602090516001600160a01b037f0000000000000000000000000000000000000000000000000000000000000000168152f35b5050346102db5760203660031901126102db57806020926001600160a01b036108e76124b3565b1681526006845220549051908152f35b61259d565b5050346102db57816003193601126102db5751908152602090f35b5050346102db57816003193601126102db57602090600c549051908152f35b5090346102b95760203660031901126102b95781359282841015610428575061096060c093612513565b80549260018201549260028301549060ff600560038601549486015495015416948151968752602087015285015260608401526080830152151560a0820152f35b509190346102db5760603660031901126102db57823590838210156102b9576024356044359485151590818703610a88576109da6126cd565b6103e88311610a455750610a37849596610a147f41082e228bfb59a58684319a72610979c7f9905cdaab0992eb07cd099ad315be96613176565b6005610a1f88612513565b856001820155019060ff801983541691151516179055565b82519182526020820152a280f35b606490602085519162461bcd60e51b8352820152600d60248201527f5261746520746f6f2068696768000000000000000000000000000000000000006044820152fd5b8580fd5b5050346102db57816003193601126102db57602090600a549051908152f35b5050346102db5736600319011261042857610879610ac76124b3565b610acf6126cd565b6001600160a01b0390602435918060025460081c1691166130a5565b50346102b957816003193601126102b9578160209360ff92610b0b6124ce565b903582528186526001600160a01b0383832091168252855220541690519015158152f35b5050346102db5760203660031901126102db57908160a092610b4f612586565b928060808351610b5e8161263a565b828152826020820152828582015282606082015201526001600160c01b03198094168152600760205220815191610b948361263a565b8154938460c01b169384845260208401906001600160a01b038091841c168252600184015491838601928352608060ff600360028801549760608a019889520154169601951515865283519687525116602086015251908401525160608301525115156080820152f35b50346102b957610c0d366125c0565b90929193610c19612d97565b610c21612d47565b338652602091838352610c4285610c3a88858b20612542565b541015613021565b610c4c33876130f3565b33875260068352818720805493906000198514610d5d57600185019055610c7282613220565b948351610c7e816125ec565b8781528960028483019242845287810193610c99888661306c565b886060830194808652338152600589528181208c8252895220915182555160018201550191516003811015610d4a57610cd29083612d2f565b51815461ff00191690151560081b61ff001617905580881015610d37575090610d0291835196875286019061255a565b83015260608201527f76a39c4b571a1ec5ab10d418f85f86574d84c5fb52b25e5851bc4df4bb4848d660803392a36001805580f35b886021602492634e487b7160e01b835252fd5b60248c602186634e487b7160e01b835252fd5b602489601188634e487b7160e01b835252fd5b5050346102db57602090610d8c610d86366124e4565b906132b5565b9051908152f35b509190346102db5760603660031901126102db57610daf612586565b90610db86124ce565b9160443591610dc56128c1565b610dcd612d97565b610dd5612d47565b8215611002576001600160a01b038416928315610fbf576001600160c01b03198316928387526020906007825260019687858a200154610f7d5783610e3c9130907f0000000000000000000000000000000000000000000000000000000000000000612dec565b610eea8451610e4a8161263a565b8681526003898b8684018b8152898501908982528a6060870193428552608088019586528d815260078b52209551907fffffffff000000000000000000000000000000000000000000000000000000007bffffffffffffffffffffffffffffffffffffffff00000000000000008d89549351901b169260c01c911617178555518c85015551600284015551151591019060ff801983541691151516179055565b8588526008825283882080549068010000000000000000821015610f6a5781610f3c918a7ff3c05cc1adca04ea2dfd84aa9f8de05dd7431abd4342ded8fb391ee0a01992349897969594018155612694565b67ffffffffffffffff829392549160031b9260c01c831b921b191617905582519182524290820152a3805580f35b60248a60418d634e487b7160e01b835252fd5b60648a8487519162461bcd60e51b8352820152601e60248201527f4f7267616e697a6174696f6e20616c726561647920686173207374616b6500006044820152fd5b606487602084519162461bcd60e51b8352820152601660248201527f496e76616c6964207374616b65722061646472657373000000000000000000006044820152fd5b5162461bcd60e51b8152602081870152601d60248201527f416d6f756e74206d7573742062652067726561746572207468616e20300000006044820152606490fd5b5050346102db57816003193601126102db5760207f62e78cea01bee320cd4e420270b5ea74000d11b0c9f74754ebdbfc544b05a258916110826126cd565b61108a612d47565b600160ff19600254161760025551338152a180f35b5050346102db5760203660031901126102db5760ff816020936001600160a01b036110c86124b3565b168152600b855220541690519015158152f35b5050346102db5760203660031901126102db57908160a0926001600160c01b03199283611106612586565b1681526007602052208054916001820154906001600160a01b0360ff6003600286015495015416948251968160c01b168752821c166020860152840152606083015215156080820152f35b5050346102db57806003193601126102db5761116b6124b3565b6001600160a01b0316825260086020528082208054602435939084101561042857506111a26020936001600160c01b031992612694565b92905490519260031b1c60c01b168152f35b509134610428576111df6001600160a01b036111cf366124e4565b9116835284602052838320612542565b918051906111ec8261261e565b835482526001840154602083015260028401549381830194855260ff6005600383015492606086019384528881015460808701520154169261123260a08201948561306c565b51945190519251936003851015611266576080866112648787878781519586526020860152840152606083019061255a565bf35b80602188634e487b7160e01b6024945252fd5b5050346102db57816003193601126102db57602090517fa49807205ce4d355092ef5a8a18f56e8913cf4a201fbe287825b095693c217758152f35b5050346102db57816003193601126102db57602090516103e88152f35b5050346102db57806003193601126102db5760ff816080936001600160a01b036112f96124b3565b1681526005602052818120602435825260205220611332815493600260018401549301549281519586526020860152840183831661255a565b60081c1615156060820152f35b5050346102db57816003193601126102db576020906001600160a01b0360025460081c169051908152f35b5090346102b957806003193601126102b957611384612586565b906001600160c01b03196113966124ce565b9261139f6128c1565b6113a7612d97565b1691828552602060078152828620600381019283549160ff8316156114fe576001600160a01b0397888254881c169883168099036114bc57600282015462278d0081018091116114a95742106114675750916114559160017f816cfe9020a5a78d303ddf1add5ac9c8805b1f91798c5c4977f8e91d409c094e97969594015494859260ff191690557f00000000000000000000000000000000000000000000000000000000000000006130a5565b82519182524290820152a36001805580f35b6064908588519162461bcd60e51b8352820152601260248201527f5374616b65207374696c6c206c6f636b656400000000000000000000000000006044820152fd5b60248b601184634e487b7160e01b835252fd5b6064908588519162461bcd60e51b8352820152600e60248201527f4e6f7420746865207374616b65720000000000000000000000000000000000006044820152fd5b606488858089519262461bcd60e51b845283015260248201527f4e6f20616374697665207374616b6520666f72206f7267616e697a6174696f6e6044820152fd5b5050346102db57816003193601126102db5760209060ff6002541690519015158152f35b50346102b95760803660031901126102b95761157d6124b3565b90602480359282841015610a8857604435916064359167ffffffffffffffff83116118f957366023840112156118f95782850135886115bb82612678565b946115c88a519687612656565b828652368584830101116102db5782859360209687930183890137860101527f12b42e8a160f6064dc959c6f251e3af0750ad213dbecf573b4710d67d6c28e39808a52898452888a20338b52845260ff898b2054161561175c57506001600160a01b039182811696878b52808552611642898b8d20612542565b928784541061171b575050926116fa867f353d8e6d40da95de32be2fc60b4b208c6ea4d018b991562ba3e60c2ca27998ff97969460609461168661170c988d6130f3565b611691838254613098565b905561169c8b612513565b6116a7838254613098565b90556116b582600c54612c02565b600c55898d52600b84528b8d20805460ff1916600117905560025460081c167f00000000000000000000000000000000000000000000000000000000000000006130a5565b88519485528401526060830190612b3f565b9442908201528033950390a480f35b90601b606492878d519362461bcd60e51b85528401528201527f496e73756666696369656e74207374616b6520746f20736c61736800000000006044820152fd5b86925088908a61176b33612c20565b91835190611778826125ec565b604282528782019260603685378251156118e757603084538251906001918210156118d55790607860218501536041915b81831161186c5750505061182c576048610769959385936118149361180597519788937f416363657373436f6e74726f6c3a206163636f756e74200000000000000000008d86015261070b8d8251928391603789019101612b1c565b01036028810186520184612656565b5194859462461bcd60e51b8652850152830190612b3f565b60648688878188519362461bcd60e51b85528401528201527f537472696e67733a20686578206c656e67746820696e73756666696369656e746044820152fd5b909192600f811660108110156118c3576f181899199a1a9b1b9c1cb0b131b232b360811b901a61189c8587612c0f565b53891c9280156118b1576000190191906117a9565b888260118c634e487b7160e01b835252fd5b898360328d634e487b7160e01b835252fd5b8060328a634e487b7160e01b8b945252fd5b80603289634e487b7160e01b8a945252fd5b8780fd5b5050346102db57816003193601126102db57602090517f12b42e8a160f6064dc959c6f251e3af0750ad213dbecf573b4710d67d6c28e398152f35b50346102b957826003193601126102b9576119516126cd565b6002549060ff821615611993575060ff1916600255513381527f5db9ee0a495bf2e6ff9c91a7834c1ba4fdd244a5e8aa4e537bd38aeae4b073aa90602090a180f35b606490602084519162461bcd60e51b8352820152601460248201527f5061757361626c653a206e6f74207061757365640000000000000000000000006044820152fd5b5090346102b9576119e6366125c0565b909291936119f2612d97565b6119fa612d47565b670de0b6b3a76400008410611b9b5760ff6005611a1687612513565b01541615611b5857338652600b60205260ff8387205416611b1557611a3b33866130f3565b611a678430337f0000000000000000000000000000000000000000000000000000000000000000612dec565b33865280602052611a9e826005611a8088878b20612542565b611a8b888254612c02565b8155426003820155428582015501612d2f565b611aa785612513565b611ab2858254612c02565b905580851015611b025750611ad0908251938452602084019061255a565b42908201527feb411004633ccee9f7ddd55b7e37b34d5b21acc188fdd99b4a7d409de2bbe2d760603392a36001805580f35b856021602492634e487b7160e01b835252fd5b606490602084519162461bcd60e51b8352820152600f60248201527f5573657220697320736c617368656400000000000000000000000000000000006044820152fd5b606490602084519162461bcd60e51b8352820152600f60248201527f506f6f6c206e6f742061637469766500000000000000000000000000000000006044820152fd5b606490602084519162461bcd60e51b8352820152601060248201527f416d6f756e7420746f6f20736d616c6c000000000000000000000000000000006044820152fd5b508290346102db57826003193601126102db57611bf96124ce565b90336001600160a01b03831603611c1557906108799135612b64565b608490602085519162461bcd60e51b8352820152602f60248201527f416363657373436f6e74726f6c3a2063616e206f6e6c792072656e6f756e636560448201527f20726f6c657320666f722073656c6600000000000000000000000000000000006064820152fd5b5050346102db57816003193601126102db57602090517fb814ff4a26ea3ec5cd1fa579daad86324826254265f3acfec78303a19845b4498152f35b50346102b957816003193601126102b9573590611cd46124ce565b9082845283602052611ceb60018286200154612a0c565b828452836020526001600160a01b0381852092169182855260205260ff818520541615611d16578380f35b828452836020528084208285526020528320600160ff1982541617905533917f2f8788117e7eff1d82e926ec794901d17c78024a50270940304540a733656f0d8480a43880808380f35b5050346102db57816003193601126102db576020906009549051908152f35b50346102b95760203660031901126102b957816020936001923581528085522001549051908152f35b5090346102b95760203660031901126102b95781359180831015611eca57611dce612d97565b611dd6612d47565b611de033846130f3565b33845280602052611df383838620612542565b60028101918254928315611e87578360ff6005611e46957fe6096b6f53939bee85b6372b9662ba25ae4fb35ad06aef7e246629fa2623783f97958b611e4096554290820155015416613283565b90612c02565b91611e7283337f00000000000000000000000000000000000000000000000000000000000000006130a5565b80519283524260208401523392a36001805580f35b606482602087519162461bcd60e51b8352820152601360248201527f4e6f207265776172647320746f20636c61696d000000000000000000000000006044820152fd5b8380fd5b509190346102db5760203660031901126102db576001600160c01b0319611ef3612586565b16825260076020528082209160ff6003840154169283611f1a575b60208484519015158152f35b6002015491925062278d008201918210611f3e575060209250421015903880611f0e565b80601185634e487b7160e01b6024945252fd5b50346102b957611f6036612567565b611f6b939193612d97565b611f73612d47565b33855260209060058252828620908652815281852090600282019384549460ff8660081c166121b857845195611fa8876125ec565b845496878152896060600188015492878101938452611fcd60ff8b830196168661306c565b015251905160038110156121a55790611e40611fe89261325a565b42106121635733885281835261200d61200388878b20612542565b9687541015613021565b61201733886130f3565b87938054968760ff8454166003811015612150571561210d575b61203c908254613098565b90555461205361204b89612513565b918254613098565b9055805461ff0019166101001790557f000000000000000000000000000000000000000000000000000000000000000061208e8633836130a5565b83806120ed575b5050808610156120da5750825193845283015242908201527f297955eed5bc2490d7428881136ec482851be7473171f1d7ce274a06f7cbfd0260603392a36001805580f35b866021602492634e487b7160e01b835252fd5b612106916001600160a01b0360025460081c16906130a5565b3883612095565b9795506107d080870290878204148715171561213d5761213561271061203c92048098613098565b989050612031565b60248b601187634e487b7160e01b835252fd5b60248c602188634e487b7160e01b835252fd5b5060649184519162461bcd60e51b8352820152601260248201527f43616e6e6f742070726f636573732079657400000000000000000000000000006044820152fd5b60248a602186634e487b7160e01b835252fd5b5060649184519162461bcd60e51b8352820152601160248201527f416c72656164792070726f6365737365640000000000000000000000000000006044820152fd5b5090346102b9578061222b6001600160a01b036112649360c09661221d366124e4565b931681528660205220612542565b80549360018201549260028301549060ff60056003860154948601549501541694815197885260208801528601526060850152608084015260a083019061255a565b5050346102db57816003193601126102db57602090516107d08152f35b50346102b95760203660031901126102b95735907fffffffff0000000000000000000000000000000000000000000000000000000082168092036102b957602092507f7965db0b000000000000000000000000000000000000000000000000000000008214918215612300575b50519015158152f35b7f01ffc9a700000000000000000000000000000000000000000000000000000000149150386122f7565b905083346104285760209081600319360112610428576001600160a01b036123506124b3565b1681526008825284812093838386549283835281830190819886528286209486915b8b8260038501106124685750506123b79554918482821061244b575b82821061242e575b8c838310612411575b5050106123fc575b5090509695949293960382612656565b83519485948186019282875251809352850193925b8281106123db57505050500390f35b83516001600160c01b031916855286955093810193928101926001016123cc565b6001600160c01b0319168152018490896123a7565b946001600160c01b031985600194971b168152019301848c61239f565b600191946001600160c01b03198560801b16815201930184612396565b600191946001600160c01b03198560c01b1681520193018461238e565b909550600191945085929387546001600160c01b031990818160c01b1683526080938282861b168d8501528282821b1690840152166060820152019501910186928894959295612372565b600435906001600160a01b03821682036124c957565b600080fd5b602435906001600160a01b03821682036124c957565b60409060031901126124c9576004356001600160a01b03811681036124c9579060243560048110156124c95790565b600481101561252c576000526003602052604060002090565b634e487b7160e01b600052602160045260246000fd5b90600481101561252c57600052602052604060002090565b90600382101561252c5752565b60409060031901126124c95760043560048110156124c9579060243590565b600435906001600160c01b0319821682036124c957565b346124c95760003660031901126124c9576020604051670de0b6b3a76400008152f35b60609060031901126124c95760043560048110156124c957906024359060443560038110156124c95790565b6080810190811067ffffffffffffffff82111761260857604052565b634e487b7160e01b600052604160045260246000fd5b60c0810190811067ffffffffffffffff82111761260857604052565b60a0810190811067ffffffffffffffff82111761260857604052565b90601f8019910116810190811067ffffffffffffffff82111761260857604052565b67ffffffffffffffff811161260857601f01601f191660200190565b91909180548310156126b757600052601860206000208360021c019260031b1690565b634e487b7160e01b600052603260045260246000fd5b3360009081527f7d7ffb7a348e1c6a02869081a26547b49160dd3df72d1d75a570eb9b698292ec602090815260408083205490927fa49807205ce4d355092ef5a8a18f56e8913cf4a201fbe287825b095693c217759160ff16156127315750505050565b61273a33612c20565b91845190612747826125ec565b604282528482019260603685378251156128ad57603084538251906001918210156128ad5790607860218501536041915b81831161283f575050506127fd5760486107699386936127e1936127d298519889937f416363657373436f6e74726f6c3a206163636f756e74200000000000000000008a86015261070b815180928c603789019101612b1c565b01036028810187520185612656565b5192839262461bcd60e51b845260048401526024830190612b3f565b60648486519062461bcd60e51b825280600483015260248201527f537472696e67733a20686578206c656e67746820696e73756666696369656e746044820152fd5b909192600f81166010811015612899576f181899199a1a9b1b9c1cb0b131b232b360811b901a61286f8587612c0f565b5360041c92801561288557600019019190612778565b602482634e487b7160e01b81526011600452fd5b602483634e487b7160e01b81526032600452fd5b80634e487b7160e01b602492526032600452fd5b3360009081527f50999934d8a1e754cd972f3ef083771c8f2ce25758107e9bdaf4119da21d9de4602090815260408083205490927f12274c208a40c3eca6c09426911c6b1a9bcdb6ae935ccde65ec88694c95cd3a79160ff16156129255750505050565b61292e33612c20565b9184519061293b826125ec565b604282528482019260603685378251156128ad57603084538251906001918210156128ad5790607860218501536041915b8183116129c6575050506127fd5760486107699386936127e1936127d298519889937f416363657373436f6e74726f6c3a206163636f756e74200000000000000000008a86015261070b815180928c603789019101612b1c565b909192600f81166010811015612899576f181899199a1a9b1b9c1cb0b131b232b360811b901a6129f68587612c0f565b5360041c9280156128855760001901919061296c565b600090808252602090828252604092838120338252835260ff848220541615612a355750505050565b612a3e33612c20565b91845190612a4b826125ec565b604282528482019260603685378251156128ad57603084538251906001918210156128ad5790607860218501536041915b818311612ad6575050506127fd5760486107699386936127e1936127d298519889937f416363657373436f6e74726f6c3a206163636f756e74200000000000000000008a86015261070b815180928c603789019101612b1c565b909192600f81166010811015612899576f181899199a1a9b1b9c1cb0b131b232b360811b901a612b068587612c0f565b5360041c92801561288557600019019190612a7c565b60005b838110612b2f5750506000910152565b8181015183820152602001612b1f565b90602091612b5881518092818552858086019101612b1c565b601f01601f1916010190565b90600091808352826020526001600160a01b036040842092169182845260205260ff604084205416612b9557505050565b80835282602052604083208284526020526040832060ff1981541690557ff6391f5c32d9c69d2a47ea670b442974b53935d1edc7fd64eb21e047a839171b339380a4565b81810292918115918404141715612bec57565b634e487b7160e01b600052601160045260246000fd5b91908201809211612bec57565b9081518110156126b7570160200190565b604051906060820182811067ffffffffffffffff82111761260857604052602a82526020820160403682378251156126b7576030905381516001908110156126b757607860218401536029905b808211612cc1575050612c7d5790565b606460405162461bcd60e51b815260206004820152602060248201527f537472696e67733a20686578206c656e67746820696e73756666696369656e746044820152fd5b9091600f81166010811015612d1a576f181899199a1a9b1b9c1cb0b131b232b360811b901a612cf08486612c0f565b5360041c918015612d05576000190190612c6d565b60246000634e487b7160e01b81526011600452fd5b60246000634e487b7160e01b81526032600452fd5b90600381101561252c5760ff80198354169116179055565b60ff60025416612d5357565b606460405162461bcd60e51b815260206004820152601060248201527f5061757361626c653a20706175736564000000000000000000000000000000006044820152fd5b600260015414612da8576002600155565b606460405162461bcd60e51b815260206004820152601f60248201527f5265656e7472616e637947756172643a207265656e7472616e742063616c6c006044820152fd5b9092612e4993604051937f23b872dd0000000000000000000000000000000000000000000000000000000060208601526001600160a01b038092166024860152166044840152606483015260648252612e448261263a565b612e4b565b565b6001600160a01b031690604051604081019080821067ffffffffffffffff83111761260857612edc916040526020938482527f5361666545524332303a206c6f772d6c6576656c2063616c6c206661696c6564858301526000808587829751910182855af13d15612f85573d91612ec183612678565b92612ecf6040519485612656565b83523d868885013e612f89565b805191821591848315612f61575b505050905015612ef75750565b6084906040519062461bcd60e51b82526004820152602a60248201527f5361666545524332303a204552433230206f7065726174696f6e20646964206e60448201527f6f742073756363656564000000000000000000000000000000000000000000006064820152fd5b9193818094500103126102db57820151908115158203610428575080388084612eea565b6060915b91929015612fea5750815115612f9d575090565b3b15612fa65790565b606460405162461bcd60e51b815260206004820152601d60248201527f416464726573733a2063616c6c20746f206e6f6e2d636f6e74726163740000006044820152fd5b825190915015612ffd5750805190602001fd5b6107699060405191829162461bcd60e51b8352602060048401526024830190612b3f565b1561302857565b606460405162461bcd60e51b815260206004820152601260248201527f496e73756666696369656e74207374616b6500000000000000000000000000006044820152fd5b600382101561252c5752565b8115613082570490565b634e487b7160e01b600052601260045260246000fd5b91908203918211612bec57565b612e49926001600160a01b03604051937fa9059cbb000000000000000000000000000000000000000000000000000000006020860152166024840152604483015260448252612e44826125ec565b600361312960019261310481613176565b6001600160a01b0361311582612513565b951660005260046020526040600020612542565b9283548061313a575b500154910155565b61315e670de0b6b3a764000091613158858501548789015490613098565b90612bd9565b0461316e60028601918254612c02565b905538613132565b61317f90612513565b805480156132175760028201916301e133806131b661319f855442613098565b6127106131b0600186015487612bd9565b04612bd9565b049182159182156131cb575b50505050429055565b670de0b6b3a76400009283850293858504141715612bec576131f260049261320c94613078565b61320160038301918254612c02565b905501918254612c02565b9055388080806131c2565b50600242910155565b600381101561252c578061323357504290565b60010361324a5762093a804201804211612bec5790565b62278d004201804211612bec5790565b600381101561252c578061326e5750600090565b60010361327c5762093a8090565b62278d0090565b600381101561252c576002146132995750600090565b6101f490818102918183041490151715612bec57612710900490565b6132be82612513565b91604051926132cc8461261e565b8054845261332d600182015492602086019384526001600160a01b036002840154956040880196875260ff600560038701549660608b01978852600481015460808c0152015416151560a08901521660005260046020526040600020612542565b926040519261333b8461261e565b845484526001850154916020850192835261338060ff600560028901549860408901998a52600381015460608a0152600481015460808a015201541660a0870161306c565b8451158015613410575b613405576301e13380916127106131b06133a86133b3945142613098565b928a51905190612bd9565b0494670de0b6b3a76400009384870296808804861490151715612bec576133f06133fa946133e961340299613158955190613078565b9051612c02565b9051925190613098565b049051612c02565b90565b505050505090505190565b5086511561338a56fea26469706673582212204f32d02c4a529cf0a8bcab9540a0f7504d78458a981e618b9fb70db96dd9ca0964736f6c634300081400332f8788117e7eff1d82e926ec794901d17c78024a50270940304540a733656f0d",
  "linkReferences": {},
  "deployedLinkReferences": {}
}