{
  "_format": "hh-sol-artifact-1",
  "contractName": "Identity",
  "sourceName": "contracts/modules/Identity/Identity.sol",
  "abi": [
    {
      "inputs": [],
      "stateMutability": "nonpayable",
      "type": "constructor"
    },
    {
      "inputs": [
        {
          "internalType": "address",
          "name": "token",
          "type": "address"
        },
        {
          "internalType": "uint256",
          "name": "required",
          "type": "uint256"
        },
        {
          "internalType": "uint256",
          "name": "available",
          "type": "uint256"
        }
      ],
      "name": "InsufficientTokenBalance",
      "type": "error"
    },
    {
      "inputs": [
        {
          "internalType": "bytes8",
          "name": "name",
          "type": "bytes8"
        }
      ],
      "name": "InvalidNameFormat",
      "type": "error"
    },
    {
      "inputs": [],
      "name": "InvalidRegistryAddress",
      "type": "error"
    },
    {
      "inputs": [
        {
          "internalType": "uint256",
          "name": "amount",
          "type": "uint256"
        }
      ],
      "name": "InvalidStakeAmount",
      "type": "error"
    },
    {
      "inputs": [
        {
          "internalType": "uint256",
          "name": "duration",
          "type": "uint256"
        }
      ],
      "name": "InvalidStakeDuration",
      "type": "error"
    },
    {
      "inputs": [],
      "name": "ModuleAlreadyInitialized",
      "type": "error"
    },
    {
      "inputs": [],
      "name": "ModuleNotInitialized",
      "type": "error"
    },
    {
      "inputs": [
        {
          "internalType": "bytes8",
          "name": "name",
          "type": "bytes8"
        }
      ],
      "name": "NameAlreadyClaimed",
      "type": "error"
    },
    {
      "inputs": [
        {
          "internalType": "bytes8",
          "name": "name",
          "type": "bytes8"
        }
      ],
      "name": "NameNotClaimed",
      "type": "error"
    },
    {
      "inputs": [
        {
          "internalType": "bytes8",
          "name": "name",
          "type": "bytes8"
        }
      ],
      "name": "NameNotExpired",
      "type": "error"
    },
    {
      "inputs": [],
      "name": "OnlyRegistry",
      "type": "error"
    },
    {
      "inputs": [
        {
          "internalType": "bytes8",
          "name": "organizationId",
          "type": "bytes8"
        }
      ],
      "name": "OrganizationNotFound",
      "type": "error"
    },
    {
      "inputs": [
        {
          "internalType": "address",
          "name": "owner",
          "type": "address"
        },
        {
          "internalType": "bytes8",
          "name": "organizationId",
          "type": "bytes8"
        }
      ],
      "name": "ProfileAlreadyExists",
      "type": "error"
    },
    {
      "inputs": [
        {
          "internalType": "bytes8",
          "name": "profileId",
          "type": "bytes8"
        }
      ],
      "name": "ProfileNotFound",
      "type": "error"
    },
    {
      "inputs": [
        {
          "internalType": "bytes8",
          "name": "name",
          "type": "bytes8"
        },
        {
          "internalType": "address",
          "name": "caller",
          "type": "address"
        }
      ],
      "name": "UnauthorizedNameAccess",
      "type": "error"
    },
    {
      "inputs": [
        {
          "internalType": "bytes8",
          "name": "profileId",
          "type": "bytes8"
        },
        {
          "internalType": "address",
          "name": "caller",
          "type": "address"
        }
      ],
      "name": "UnauthorizedProfileAccess",
      "type": "error"
    },
    {
      "anonymous": false,
      "inputs": [],
      "name": "ModuleDisabled",
      "type": "event"
    },
    {
      "anonymous": false,
      "inputs": [],
      "name": "ModuleEnabled",
      "type": "event"
    },
    {
      "anonymous": false,
      "inputs": [
        {
          "indexed": true,
          "internalType": "address",
          "name": "registry",
          "type": "address"
        }
      ],
      "name": "ModuleInitialized",
      "type": "event"
    },
    {
      "anonymous": false,
      "inputs": [
        {
          "indexed": true,
          "internalType": "bytes8",
          "name": "name",
          "type": "bytes8"
        },
        {
          "indexed": true,
          "internalType": "address",
          "name": "owner",
          "type": "address"
        },
        {
          "indexed": false,
          "internalType": "uint256",
          "name": "stakeAmount",
          "type": "uint256"
        },
        {
          "indexed": false,
          "internalType": "uint256",
          "name": "stakeDuration",
          "type": "uint256"
        },
        {
          "indexed": false,
          "internalType": "enum IIdentity.NameType",
          "name": "nameType",
          "type": "uint8"
        },
        {
          "indexed": false,
          "internalType": "uint256",
          "name": "timestamp",
          "type": "uint256"
        }
      ],
      "name": "NameClaimed",
      "type": "event"
    },
    {
      "anonymous": false,
      "inputs": [
        {
          "indexed": true,
          "internalType": "bytes8",
          "name": "name",
          "type": "bytes8"
        },
        {
          "indexed": true,
          "internalType": "address",
          "name": "owner",
          "type": "address"
        },
        {
          "indexed": false,
          "internalType": "uint256",
          "name": "stakeAmount",
          "type": "uint256"
        },
        {
          "indexed": false,
          "internalType": "uint256",
          "name": "timestamp",
          "type": "uint256"
        }
      ],
      "name": "NameReleased",
      "type": "event"
    },
    {
      "anonymous": false,
      "inputs": [
        {
          "indexed": false,
          "internalType": "address",
          "name": "account",
          "type": "address"
        }
      ],
      "name": "Paused",
      "type": "event"
    },
    {
      "anonymous": false,
      "inputs": [
        {
          "indexed": true,
          "internalType": "bytes8",
          "name": "profileId",
          "type": "bytes8"
        },
        {
          "indexed": true,
          "internalType": "address",
          "name": "owner",
          "type": "address"
        },
        {
          "indexed": true,
          "internalType": "bytes8",
          "name": "organizationId",
          "type": "bytes8"
        },
        {
          "indexed": false,
          "internalType": "string",
          "name": "metadata",
          "type": "string"
        },
        {
          "indexed": false,
          "internalType": "uint256",
          "name": "timestamp",
          "type": "uint256"
        }
      ],
      "name": "ProfileCreated",
      "type": "event"
    },
    {
      "anonymous": false,
      "inputs": [
        {
          "indexed": true,
          "internalType": "bytes8",
          "name": "profileId",
          "type": "bytes8"
        },
        {
          "indexed": false,
          "internalType": "string",
          "name": "metadata",
          "type": "string"
        },
        {
          "indexed": false,
          "internalType": "uint256",
          "name": "timestamp",
          "type": "uint256"
        }
      ],
      "name": "ProfileUpdated",
      "type": "event"
    },
    {
      "anonymous": false,
      "inputs": [
        {
          "indexed": true,
          "internalType": "bytes8",
          "name": "profileId",
          "type": "bytes8"
        },
        {
          "indexed": false,
          "internalType": "enum IIdentity.VerificationLevel",
          "name": "level",
          "type": "uint8"
        },
        {
          "indexed": true,
          "internalType": "address",
          "name": "verifier",
          "type": "address"
        },
        {
          "indexed": false,
          "internalType": "uint256",
          "name": "timestamp",
          "type": "uint256"
        }
      ],
      "name": "ProfileVerified",
      "type": "event"
    },
    {
      "anonymous": false,
      "inputs": [
        {
          "indexed": true,
          "internalType": "bytes32",
          "name": "role",
          "type": "bytes32"
        },
        {
          "indexed": true,
          "internalType": "bytes32",
          "name": "previousAdminRole",
          "type": "bytes32"
        },
        {
          "indexed": true,
          "internalType": "bytes32",
          "name": "newAdminRole",
          "type": "bytes32"
        }
      ],
      "name": "RoleAdminChanged",
      "type": "event"
    },
    {
      "anonymous": false,
      "inputs": [
        {
          "indexed": true,
          "internalType": "bytes32",
          "name": "role",
          "type": "bytes32"
        },
        {
          "indexed": true,
          "internalType": "address",
          "name": "account",
          "type": "address"
        },
        {
          "indexed": true,
          "internalType": "address",
          "name": "sender",
          "type": "address"
        }
      ],
      "name": "RoleGranted",
      "type": "event"
    },
    {
      "anonymous": false,
      "inputs": [
        {
          "indexed": true,
          "internalType": "bytes32",
          "name": "role",
          "type": "bytes32"
        },
        {
          "indexed": true,
          "internalType": "address",
          "name": "account",
          "type": "address"
        },
        {
          "indexed": true,
          "internalType": "address",
          "name": "sender",
          "type": "address"
        }
      ],
      "name": "RoleRevoked",
      "type": "event"
    },
    {
      "anonymous": false,
      "inputs": [
        {
          "indexed": false,
          "internalType": "address",
          "name": "account",
          "type": "address"
        }
      ],
      "name": "Unpaused",
      "type": "event"
    },
    {
      "inputs": [],
      "name": "ADMIN_ROLE",
      "outputs": [
        {
          "internalType": "bytes32",
          "name": "",
          "type": "bytes32"
        }
      ],
      "stateMutability": "view",
      "type": "function"
    },
    {
      "inputs": [],
      "name": "DEFAULT_ADMIN_ROLE",
      "outputs": [
        {
          "internalType": "bytes32",
          "name": "",
          "type": "bytes32"
        }
      ],
      "stateMutability": "view",
      "type": "function"
    },
    {
      "inputs": [],
      "name": "IDENTITY_ADMIN_ROLE",
      "outputs": [
        {
          "internalType": "bytes32",
          "name": "",
          "type": "bytes32"
        }
      ],
      "stateMutability": "view",
      "type": "function"
    },
    {
      "inputs": [],
      "name": "MAX_NAME_LENGTH",
      "outputs": [
        {
          "internalType": "uint256",
          "name": "",
          "type": "uint256"
        }
      ],
      "stateMutability": "view",
      "type": "function"
    },
    {
      "inputs": [],
      "name": "MAX_NAME_STAKE",
      "outputs": [
        {
          "internalType": "uint256",
          "name": "",
          "type": "uint256"
        }
      ],
      "stateMutability": "view",
      "type": "function"
    },
    {
      "inputs": [],
      "name": "MAX_PROFILE_LIMIT",
      "outputs": [
        {
          "internalType": "uint256",
          "name": "",
          "type": "uint256"
        }
      ],
      "stateMutability": "view",
      "type": "function"
    },
    {
      "inputs": [],
      "name": "MAX_STAKE_DURATION",
      "outputs": [
        {
          "internalType": "uint256",
          "name": "",
          "type": "uint256"
        }
      ],
      "stateMutability": "view",
      "type": "function"
    },
    {
      "inputs": [],
      "name": "MIN_NAME_STAKE",
      "outputs": [
        {
          "internalType": "uint256",
          "name": "",
          "type": "uint256"
        }
      ],
      "stateMutability": "view",
      "type": "function"
    },
    {
      "inputs": [],
      "name": "MIN_STAKE_DURATION",
      "outputs": [
        {
          "internalType": "uint256",
          "name": "",
          "type": "uint256"
        }
      ],
      "stateMutability": "view",
      "type": "function"
    },
    {
      "inputs": [],
      "name": "MODULE_ADMIN_ROLE",
      "outputs": [
        {
          "internalType": "bytes32",
          "name": "",
          "type": "bytes32"
        }
      ],
      "stateMutability": "view",
      "type": "function"
    },
    {
      "inputs": [],
      "name": "MODULE_ID",
      "outputs": [
        {
          "internalType": "bytes32",
          "name": "",
          "type": "bytes32"
        }
      ],
      "stateMutability": "view",
      "type": "function"
    },
    {
      "inputs": [],
      "name": "NAME_LENGTH",
      "outputs": [
        {
          "internalType": "uint256",
          "name": "",
          "type": "uint256"
        }
      ],
      "stateMutability": "view",
      "type": "function"
    },
    {
      "inputs": [],
      "name": "OPERATOR_ROLE",
      "outputs": [
        {
          "internalType": "bytes32",
          "name": "",
          "type": "bytes32"
        }
      ],
      "stateMutability": "view",
      "type": "function"
    },
    {
      "inputs": [],
      "name": "VERIFIER_ROLE",
      "outputs": [
        {
          "internalType": "bytes32",
          "name": "",
          "type": "bytes32"
        }
      ],
      "stateMutability": "view",
      "type": "function"
    },
    {
      "inputs": [
        {
          "internalType": "bytes8",
          "name": "name",
          "type": "bytes8"
        },
        {
          "internalType": "uint256",
          "name": "stakeAmount",
          "type": "uint256"
        },
        {
          "internalType": "uint256",
          "name": "stakeDuration",
          "type": "uint256"
        },
        {
          "internalType": "enum IIdentity.NameType",
          "name": "nameType",
          "type": "uint8"
        }
      ],
      "name": "claimName",
      "outputs": [
        {
          "internalType": "bool",
          "name": "success",
          "type": "bool"
        }
      ],
      "stateMutability": "nonpayable",
      "type": "function"
    },
    {
      "inputs": [
        {
          "internalType": "bytes8",
          "name": "organizationId",
          "type": "bytes8"
        },
        {
          "internalType": "string",
          "name": "metadata",
          "type": "string"
        }
      ],
      "name": "createProfile",
      "outputs": [
        {
          "internalType": "bytes8",
          "name": "",
          "type": "bytes8"
        }
      ],
      "stateMutability": "nonpayable",
      "type": "function"
    },
    {
      "inputs": [],
      "name": "emergencyPause",
      "outputs": [],
      "stateMutability": "nonpayable",
      "type": "function"
    },
    {
      "inputs": [],
      "name": "emergencyUnpause",
      "outputs": [],
      "stateMutability": "nonpayable",
      "type": "function"
    },
    {
      "inputs": [
        {
          "internalType": "bytes8",
          "name": "name",
          "type": "bytes8"
        }
      ],
      "name": "getNameClaim",
      "outputs": [
        {
          "components": [
            {
              "internalType": "bytes8",
              "name": "name",
              "type": "bytes8"
            },
            {
              "internalType": "address",
              "name": "owner",
              "type": "address"
            },
            {
              "internalType": "uint256",
              "name": "stakeAmount",
              "type": "uint256"
            },
            {
              "internalType": "uint256",
              "name": "stakeDuration",
              "type": "uint256"
            },
            {
              "internalType": "uint256",
              "name": "claimedAt",
              "type": "uint256"
            },
            {
              "internalType": "uint256",
              "name": "expiresAt",
              "type": "uint256"
            },
            {
              "internalType": "bool",
              "name": "isActive",
              "type": "bool"
            },
            {
              "internalType": "enum IIdentity.NameType",
              "name": "nameType",
              "type": "uint8"
            }
          ],
          "internalType": "struct IIdentity.NameClaim",
          "name": "claim",
          "type": "tuple"
        }
      ],
      "stateMutability": "view",
      "type": "function"
    },
    {
      "inputs": [
        {
          "internalType": "address",
          "name": "owner",
          "type": "address"
        }
      ],
      "name": "getNamesOwnedBy",
      "outputs": [
        {
          "internalType": "bytes8[]",
          "name": "names",
          "type": "bytes8[]"
        }
      ],
      "stateMutability": "view",
      "type": "function"
    },
    {
      "inputs": [
        {
          "internalType": "bytes8",
          "name": "profileId",
          "type": "bytes8"
        }
      ],
      "name": "getProfile",
      "outputs": [
        {
          "components": [
            {
              "internalType": "bytes8",
              "name": "profileId",
              "type": "bytes8"
            },
            {
              "internalType": "address",
              "name": "owner",
              "type": "address"
            },
            {
              "internalType": "bytes8",
              "name": "organizationId",
              "type": "bytes8"
            },
            {
              "internalType": "string",
              "name": "metadata",
              "type": "string"
            },
            {
              "internalType": "uint256",
              "name": "createdAt",
              "type": "uint256"
            },
            {
              "internalType": "uint256",
              "name": "updatedAt",
              "type": "uint256"
            },
            {
              "internalType": "bool",
              "name": "active",
              "type": "bool"
            },
            {
              "internalType": "bool",
              "name": "verified",
              "type": "bool"
            }
          ],
          "internalType": "struct IIdentity.Profile",
          "name": "profile",
          "type": "tuple"
        }
      ],
      "stateMutability": "view",
      "type": "function"
    },
    {
      "inputs": [
        {
          "internalType": "address",
          "name": "owner",
          "type": "address"
        },
        {
          "internalType": "bytes8",
          "name": "organizationId",
          "type": "bytes8"
        }
      ],
      "name": "getProfileByOwner",
      "outputs": [
        {
          "components": [
            {
              "internalType": "bytes8",
              "name": "profileId",
              "type": "bytes8"
            },
            {
              "internalType": "address",
              "name": "owner",
              "type": "address"
            },
            {
              "internalType": "bytes8",
              "name": "organizationId",
              "type": "bytes8"
            },
            {
              "internalType": "string",
              "name": "metadata",
              "type": "string"
            },
            {
              "internalType": "uint256",
              "name": "createdAt",
              "type": "uint256"
            },
            {
              "internalType": "uint256",
              "name": "updatedAt",
              "type": "uint256"
            },
            {
              "internalType": "bool",
              "name": "active",
              "type": "bool"
            },
            {
              "internalType": "bool",
              "name": "verified",
              "type": "bool"
            }
          ],
          "internalType": "struct IIdentity.Profile",
          "name": "profile",
          "type": "tuple"
        }
      ],
      "stateMutability": "view",
      "type": "function"
    },
    {
      "inputs": [],
      "name": "getProfileCount",
      "outputs": [
        {
          "internalType": "uint256",
          "name": "count",
          "type": "uint256"
        }
      ],
      "stateMutability": "view",
      "type": "function"
    },
    {
      "inputs": [
        {
          "internalType": "bytes8",
          "name": "organizationId",
          "type": "bytes8"
        }
      ],
      "name": "getProfilesByOrganization",
      "outputs": [
        {
          "internalType": "bytes8[]",
          "name": "profileIds",
          "type": "bytes8[]"
        }
      ],
      "stateMutability": "view",
      "type": "function"
    },
    {
      "inputs": [
        {
          "internalType": "bytes32",
          "name": "role",
          "type": "bytes32"
        }
      ],
      "name": "getRoleAdmin",
      "outputs": [
        {
          "internalType": "bytes32",
          "name": "",
          "type": "bytes32"
        }
      ],
      "stateMutability": "view",
      "type": "function"
    },
    {
      "inputs": [
        {
          "internalType": "bytes8",
          "name": "profileId",
          "type": "bytes8"
        }
      ],
      "name": "getVerificationLevel",
      "outputs": [
        {
          "internalType": "enum IIdentity.VerificationLevel",
          "name": "level",
          "type": "uint8"
        }
      ],
      "stateMutability": "view",
      "type": "function"
    },
    {
      "inputs": [
        {
          "internalType": "bytes32",
          "name": "role",
          "type": "bytes32"
        },
        {
          "internalType": "address",
          "name": "account",
          "type": "address"
        }
      ],
      "name": "grantRole",
      "outputs": [],
      "stateMutability": "nonpayable",
      "type": "function"
    },
    {
      "inputs": [
        {
          "internalType": "bytes32",
          "name": "role",
          "type": "bytes32"
        },
        {
          "internalType": "address",
          "name": "account",
          "type": "address"
        }
      ],
      "name": "hasRole",
      "outputs": [
        {
          "internalType": "bool",
          "name": "",
          "type": "bool"
        }
      ],
      "stateMutability": "view",
      "type": "function"
    },
    {
      "inputs": [
        {
          "internalType": "address",
          "name": "registryAddress",
          "type": "address"
        }
      ],
      "name": "initialize",
      "outputs": [],
      "stateMutability": "nonpayable",
      "type": "function"
    },
    {
      "inputs": [],
      "name": "isInitialized",
      "outputs": [
        {
          "internalType": "bool",
          "name": "",
          "type": "bool"
        }
      ],
      "stateMutability": "view",
      "type": "function"
    },
    {
      "inputs": [
        {
          "internalType": "bytes8",
          "name": "name",
          "type": "bytes8"
        }
      ],
      "name": "isNameAvailable",
      "outputs": [
        {
          "internalType": "bool",
          "name": "available",
          "type": "bool"
        }
      ],
      "stateMutability": "view",
      "type": "function"
    },
    {
      "inputs": [],
      "name": "moduleId",
      "outputs": [
        {
          "internalType": "bytes32",
          "name": "",
          "type": "bytes32"
        }
      ],
      "stateMutability": "pure",
      "type": "function"
    },
    {
      "inputs": [],
      "name": "onModuleDisabled",
      "outputs": [],
      "stateMutability": "nonpayable",
      "type": "function"
    },
    {
      "inputs": [],
      "name": "onModuleEnabled",
      "outputs": [],
      "stateMutability": "nonpayable",
      "type": "function"
    },
    {
      "inputs": [],
      "name": "pause",
      "outputs": [],
      "stateMutability": "nonpayable",
      "type": "function"
    },
    {
      "inputs": [],
      "name": "paused",
      "outputs": [
        {
          "internalType": "bool",
          "name": "",
          "type": "bool"
        }
      ],
      "stateMutability": "view",
      "type": "function"
    },
    {
      "inputs": [
        {
          "internalType": "bytes8",
          "name": "profileId",
          "type": "bytes8"
        }
      ],
      "name": "profileExists",
      "outputs": [
        {
          "internalType": "bool",
          "name": "exists",
          "type": "bool"
        }
      ],
      "stateMutability": "view",
      "type": "function"
    },
    {
      "inputs": [],
      "name": "registry",
      "outputs": [
        {
          "internalType": "address",
          "name": "",
          "type": "address"
        }
      ],
      "stateMutability": "view",
      "type": "function"
    },
    {
      "inputs": [
        {
          "internalType": "bytes8",
          "name": "name",
          "type": "bytes8"
        }
      ],
      "name": "releaseName",
      "outputs": [
        {
          "internalType": "uint256",
          "name": "stakeAmount",
          "type": "uint256"
        }
      ],
      "stateMutability": "nonpayable",
      "type": "function"
    },
    {
      "inputs": [
        {
          "internalType": "bytes32",
          "name": "role",
          "type": "bytes32"
        },
        {
          "internalType": "address",
          "name": "account",
          "type": "address"
        }
      ],
      "name": "renounceRole",
      "outputs": [],
      "stateMutability": "nonpayable",
      "type": "function"
    },
    {
      "inputs": [
        {
          "internalType": "bytes32",
          "name": "role",
          "type": "bytes32"
        },
        {
          "internalType": "address",
          "name": "account",
          "type": "address"
        }
      ],
      "name": "revokeRole",
      "outputs": [],
      "stateMutability": "nonpayable",
      "type": "function"
    },
    {
      "inputs": [
        {
          "internalType": "bytes4",
          "name": "interfaceId",
          "type": "bytes4"
        }
      ],
      "name": "supportsInterface",
      "outputs": [
        {
          "internalType": "bool",
          "name": "",
          "type": "bool"
        }
      ],
      "stateMutability": "view",
      "type": "function"
    },
    {
      "inputs": [],
      "name": "unpause",
      "outputs": [],
      "stateMutability": "nonpayable",
      "type": "function"
    },
    {
      "inputs": [
        {
          "internalType": "bytes8",
          "name": "profileId",
          "type": "bytes8"
        },
        {
          "internalType": "string",
          "name": "metadata",
          "type": "string"
        }
      ],
      "name": "updateProfile",
      "outputs": [],
      "stateMutability": "nonpayable",
      "type": "function"
    },
    {
      "inputs": [
        {
          "internalType": "bytes8",
          "name": "name",
          "type": "bytes8"
        }
      ],
      "name": "validateNameFormat",
      "outputs": [
        {
          "internalType": "bool",
          "name": "valid",
          "type": "bool"
        }
      ],
      "stateMutability": "pure",
      "type": "function"
    },
    {
      "inputs": [
        {
          "internalType": "bytes8",
          "name": "profileId",
          "type": "bytes8"
        },
        {
          "internalType": "enum IIdentity.VerificationLevel",
          "name": "level",
          "type": "uint8"
        }
      ],
      "name": "verifyProfile",
      "outputs": [],
      "stateMutability": "nonpayable",
      "type": "function"
    },
    {
      "inputs": [],
      "name": "version",
      "outputs": [
        {
          "internalType": "string",
          "name": "",
          "type": "string"
        }
      ],
      "stateMutability": "view",
      "type": "function"
    }
  ],
  "bytecode": "0x608060405234620000265762000014620000e4565b604051613c4f6200054a8239613c4f90f35b600080fd5b634e487b7160e01b600052604160045260246000fd5b90601f01601f191681019081106001600160401b038211176200006357604052565b6200002b565b90620000806200007860405190565b928362000041565b565b6001600160401b0381116200006357602090601f01601f19160190565b90620000b5620000af8362000082565b62000069565b918252565b620000c660056200009f565b640312e302e360dc1b602082015290565b620000e1620000ba565b90565b620000f8620000f2620000d7565b62000152565b620000807f4f954bed0529967842be3cf5f1133c59c9d02d41844654c1e7ec00ff708ceff86200012b335b80926200049b565b7f0ce23c3e399818cfee81a7ab0880f714e53d7672b08df0fa62f2843416e1ea096200049b565b62000080906200036a565b634e487b7160e01b600052602260045260246000fd5b906001600283049216801562000196575b60208310146200019057565b6200015d565b91607f169162000184565b9160001960089290920291821b911b5b9181191691161790565b620000e1620000e1620000e19290565b9190620001e0620000e1620001e993620001bb565b908354620001a1565b9055565b6200008091600091620001cb565b81811062000207575050565b80620002176000600193620001ed565b01620001fb565b9190601f81116200022e57505050565b620002426200008093600052602060002090565b906020601f84018190048301931062000266575b6020601f909101040190620001fb565b909150819062000256565b906200027b815190565b906001600160401b0382116200006357620002a3826200029c855462000173565b856200021e565b602090601f8311600114620002e257620001e9929160009183620002d6575b5050600019600883021c1916906002021790565b015190503880620002c2565b601f19831691620002f885600052602060002090565b9260005b81811062000339575091600293918560019694106200031f575b50505002019055565b01516000196008601f8516021c1916905538808062000316565b91936020600181928787015181550195019201620002fc565b90620000809162000271565b620000e16000620001bb565b620003819062000379620003f4565b600462000352565b620000806200038f6200035e565b6200039a3362000123565b7fa49807205ce4d355092ef5a8a18f56e8913cf4a201fbe287825b095693c217756200049b565b620000e16001620001bb565b9060001990620001b1565b90620003ec620000e1620001e992620001bb565b8254620003cd565b620003fe62000439565b620000806200040c620003c1565b6002620003d8565b9060ff90620001b1565b9062000431620000e1620001e992151590565b825462000414565b62000080600060016200041e565b905b600052602052604060002090565b620000e1906200046d906001600160a01b031682565b6001600160a01b031690565b620000e19062000457565b620000e19062000479565b90620004499062000484565b90620004b0620004ac82846200052a565b1590565b620004b9575050565b620004df6001620004d9836000620004d2878262000447565b016200048f565b6200041e565b33906200051962000512620005127f2f8788117e7eff1d82e926ec794901d17c78024a50270940304540a733656f0d9590565b9262000484565b926200052460405190565b600090a4565b620000e1916200054291620004d26000918262000447565b5460ff169056fe6080604052600436101561001257600080fd5b60003560e01c806301ffc9a7146102fd5780630510839d146102f857806311a653c0146102f35780631aaff63c146102ee5780631af72815146102e9578063248a9ca3146102e45780632e5b0e1e146102df5780632f2ff15d146102da57806336568abe146102d55780633697611a146102d057806336cde77b146102cb578063392e53cd146102c65780633c65963f146102c15780633f4ba83a146102bc5780634628f12c146102b75780634a43a1d4146102b25780634a4e3bd5146102ad57806351858e27146102a857806354fd4d50146102a35780635c975abb1461029e5780635d059321146102995780636a7d9f8f1461029457806375b238fc1461028f5780637b1039991461028a5780638456cb5914610285578063860749851461028057806391d148541461027b57806394ee18e914610276578063a1308f2714610230578063a217fddf14610271578063a411da4a1461026c578063a86c5f6414610267578063aa7318aa14610262578063aa902b4d1461025d578063c4d66de814610258578063cc697cd014610253578063d3d7d8b01461024e578063d547741f14610249578063dc59340114610244578063e0c570ba1461023f578063e7705db61461023a578063ebf8a3e614610235578063ed2f21f514610230578063f48fbd241461022b578063f5b541a614610226578063f5fcf40f146102215763fb24973c0361031557610e80565b610e65565b610e2c565b610e11565b610b82565b610df9565b610dc0565b610da5565b610d76565b610d5d565b610d42565b610d0f565b610cf7565b610cc8565b610c9b565b610c80565b610c59565b610bcd565b610b67565b610b30565b610b15565b610aeb565b610ab5565b610a7c565b610a61565b610a3a565b610991565b61096a565b610941565b610929565b610910565b6108ce565b610863565b610848565b61081b565b6107f3565b6106c2565b6106a9565b61068b565b610609565b6104f0565b6104ae565b610475565b61044e565b6103a1565b610344565b6001600160e01b031981165b0361031557565b600080fd5b9050359061032782610302565b565b906020828203126103155761033d9161031a565b90565b9052565b346103155761037161035f61035a366004610329565b610eb9565b60405191829182901515815260200190565b0390f35b600091031261031557565b61033d61033d61033d9290565b61033d620f4240610380565b61033d61038d565b34610315576103b1366004610375565b6103716103bc610399565b6040519182918290815260200190565b6001600160c01b0319811661030e565b90503590610327826103cc565b906020828203126103155761033d916103dc565b634e487b7160e01b600052602160045260246000fd5b6004111561041d57565b6103fd565b9061032782610413565b61033d90610422565b6103409061042c565b6020810192916103279190610435565b34610315576103716104696104643660046103e9565b612c51565b6040519182918261043e565b3461031557610485366004610375565b6103717f4f954bed0529967842be3cf5f1133c59c9d02d41844654c1e7ec00ff708ceff86103bc565b34610315576103716103bc6104c43660046103e9565b613620565b8061030e565b90503590610327826104c9565b906020828203126103155761033d916104cf565b34610315576103716103bc6105063660046104dc565b610f7a565b634e487b7160e01b600052604160045260246000fd5b90601f01601f1916810190811067ffffffffffffffff82111761054357604052565b61050b565b9061032761055560405190565b9283610521565b67ffffffffffffffff811161054357602090601f01601f19160190565b0190565b90826000939282370152565b9092919261059e6105998261055c565b610548565b93818552602085019082840111610315576103279261057d565b9080601f830112156103155781602061033d93359101610589565b919091604081840312610315576105ea83826103dc565b92602082013567ffffffffffffffff81116103155761033d92016105b8565b346103155761037161062561061f3660046105d3565b906123f8565b604051918291826001600160c01b0319909116815260200190565b6001600160a01b031690565b6001600160a01b03811661030e565b905035906103278261064c565b91906040838203126103155761033d9061068281856104cf565b9360200161065b565b34610315576106a461069e366004610668565b90610fb9565b604051005b34610315576106a46106bc366004610668565b90611182565b34610315576106d2366004610375565b6103716103bc612af4565b91906040838203126103155761033d906106f7818561065b565b936020016103dc565b60005b8381106107135750506000910152565b8181015183820152602001610703565b61074461074d60209361057993610738815190565b80835293849260200190565b95869101610700565b601f01601f191690565b80516001600160c01b03191682526020808201516001600160a01b0316908301529061033d9060e0806107ae61010084016040878101516001600160c01b0319169086015260608701518582036060870152610723565b946107be60808201516080860152565b6107cd60a082015160a0860152565b60c08181015115159085015201511515910152565b602080825261033d92910190610757565b346103155761037161080f6108093660046106dd565b906128cf565b604051918291826107e2565b346103155761082b366004610375565b61037161035f611913565b61033d6008610380565b61033d610836565b3461031557610858366004610375565b6103716103bc610840565b3461031557610873366004610375565b6106a461199c565b6004111561031557565b905035906103278261087b565b608081830312610315576108a682826103dc565b9261033d6108b784602085016104cf565b936108c581604086016104cf565b93606001610885565b346103155761037161035f6108e4366004610892565b9291909161326b565b91906040838203126103155761033d9061090781856103dc565b93602001610885565b34610315576106a46109233660046108ed565b90612c47565b3461031557610939366004610375565b6106a46119ee565b3461031557610951366004610375565b6106a46119c5565b602080825261033d92910190610723565b346103155761097a366004610375565b61037161098561165c565b60405191829182610959565b34610315576109a1366004610375565b61037161035f61129f565b80516001600160c01b03191682526020808201516001600160a01b031690830152610327919060e09081906109e660408201516040860152565b6109f560608201516060860152565b610a0460808201516080860152565b610a1360a082015160a0860152565b60c0818101511515908501520151910190610435565b6101008101929161032791906109ac565b3461031557610371610a55610a503660046103e9565b613708565b60405191829182610a29565b346103155761037161080f610a773660046103e9565b612878565b3461031557610a8c366004610375565b6103717fa49807205ce4d355092ef5a8a18f56e8913cf4a201fbe287825b095693c217756103bc565b3461031557610ac5366004610375565b610371610ad061191d565b6040515b918291826001600160a01b03909116815260200190565b3461031557610afb366004610375565b6106a461195f565b61033d6020610380565b61033d610b03565b3461031557610b25366004610375565b6103716103bc610b0d565b346103155761037161035f610b46366004610668565b90610f4a565b61033d69021e19e0c9bab2400000610380565b61033d610b4c565b3461031557610b77366004610375565b6103716103bc610b5f565b3461031557610b92366004610375565b6103717f377799b22fba826cf24c3f07e6731c67676765addcee33415a2c80d453d4ed6e6103bc565b61033d6000610380565b61033d610bbb565b3461031557610bdd366004610375565b6103716103bc610bc5565b90610c08610c01610bf7845190565b8084529260200190565b9260200190565b9060005b818110610c195750505090565b909192610c40610c3960019286516001600160c01b031916815260200190565b9460200190565b929101610c0c565b602080825261033d92910190610be8565b3461031557610371610c74610c6f3660046103e9565b6129af565b60405191829182610c48565b346103155761037161035f610c963660046103e9565b61291c565b3461031557610cab366004610375565b6106a461190b565b61033d6301e13380610380565b61033d610cb3565b3461031557610cd8366004610375565b6103716103bc610cc0565b906020828203126103155761033d9161065b565b34610315576106a4610d0a366004610ce3565b6116ef565b34610315576106a4610d223660046105d3565b90612739565b61033d68056bc75e2d63100000610380565b61033d610d28565b3461031557610d52366004610375565b6103716103bc610d3a565b34610315576106a4610d70366004610668565b90611106565b346103155761037161035f610d8c3660046103e9565b6138de565b61033d62278d00610380565b61033d610d91565b3461031557610db5366004610375565b6103716103bc610d9d565b3461031557610dd0366004610375565b6103717f0ce23c3e399818cfee81a7ab0880f714e53d7672b08df0fa62f2843416e1ea096103bc565b3461031557610e09366004610375565b6106a46118a9565b346103155761037161035f610e273660046103e9565b61362b565b3461031557610e3c366004610375565b6103717f97667070c54ef182b0f5858b034beac1b6f3089aa2d3188bb1e8929f4fa9b9296103bc565b3461031557610371610c74610e7b366004610ce3565b6138a2565b3461031557610e90366004610375565b6103717ff83fbdecd7018694593b521db8f6c864cd19f8450388b844650c68334dac9ab56103bc565b637965db0b60e01b6001600160e01b0319821614908115610ed8575090565b61033d91506001600160e01b0319166301ffc9a760e01b1490565b905b600052602052604060002090565b61064061033d61033d926001600160a01b031690565b61033d90610f03565b61033d90610f19565b90610ef590610f22565b61033d905b60ff1690565b61033d9054610f35565b61033d91610f6491610f5e60009182610ef3565b01610f2b565b610f40565b61033d9081565b61033d9054610f69565b6001610f9361033d92610f8b600090565b506000610ef3565b01610f70565b9061032791610faf610faa82610f7a565b610fc3565b90610327916111d2565b9061032791610f99565b61032790339061105f565b61033d90610380565b610579610fef92602092610fe9815190565b94859290565b93849101610700565b61103661033d9392611030611030937f416363657373436f6e74726f6c3a206163636f756e7420000000000000000000815260170190565b90610fd7565b7f206973206d697373696e6720726f6c6520000000000000000000000000000000815260110190565b9061107161106d8284610f4a565b1590565b611079575050565b6110e79161033d61109561108f6110cf94611537565b92610fce565b6110aa6020916110a483610380565b906113d7565b926110c36110b760405190565b94859384019283610ff8565b90810382520382610521565b60405162461bcd60e51b815291829160048301610959565b0390fd5b90610327916110fc610faa82610f7a565b9061032791611248565b90610327916110eb565b1561111757565b60405162461bcd60e51b815260206004820152602f60248201527f416363657373436f6e74726f6c3a2063616e206f6e6c792072656e6f756e636560448201527f20726f6c657320666f722073656c6600000000000000000000000000000000006064820152608490fd5b61032791906111a361119333610640565b6001600160a01b03841614611110565b611248565b9060ff905b9181191691161790565b906111c761033d6111ce92151590565b82546111a8565b9055565b906111e061106d8284610f4a565b6111e8575050565b61120260016111fd836000610f5e8782610ef3565b6111b7565b33906112386112326112327f2f8788117e7eff1d82e926ec794901d17c78024a50270940304540a733656f0d9590565b92610f22565b9261124260405190565b600090a4565b906112538183610f4a565b61125b575050565b61126f60006111fd8382610f5e8782610ef3565b33906112386112326112327ff6391f5c32d9c69d2a47ea670b442974b53935d1edc7fd64eb21e047a839171b9590565b61033d6001610f40565b634e487b7160e01b600052601160045260246000fd5b818102929181159184041417156112d257565b6112a9565b919082018092116112d257565b906112f16105998361055c565b918252565b369037565b9061032761131161130b846112e4565b9361055c565b601f1901602084016112f6565b634e487b7160e01b600052603260045260246000fd5b9061133d825190565b81101561134b570160200190565b61131e565b80156112d2576000190190565b610f3a61033d61033d9290565b61033d9061138261137e61033d9460ff1690565b9190565b901c90565b1561138e57565b60405162461bcd60e51b8152806110e7600482016020808252818101527f537472696e67733a20686578206c656e67746820696e73756666696369656e74604082015260600190565b91906002926114086114036113f4846113ef88610380565b6112bf565b6113fd87610380565b906112d7565b6112fb565b91600090603061142061141a84610380565b86611334565b5361145861144f600f60fb1b926113ef6001998a95871a61144961144388610380565b8b611334565b53610380565b6113fd83610380565b905b61147c575b5061033d9394509061147661137e61033d93610380565b14611387565b9161148686610380565b831115611501577f30313233343536373839616263646566000000000000000000000000000000006114b8600f610380565b821690601082101561134b5787926114d86114f5926114fb941a60f81b90565b851a6114e48789611334565b536114ef600461135d565b9061136a565b93611350565b9061145a565b9161145f565b61033d61033d61033d926001600160a01b031690565b61033d601461135d565b61033d61033d61033d9260ff1690565b61155461154f61033d92611549606090565b50610f19565b611507565b6110a461155f61151d565b611527565b634e487b7160e01b600052602260045260246000fd5b906001600283049216801561159a575b602083101461159557565b611564565b91607f169161158a565b805460009392916115c16115b78361157a565b8085529360200190565b916001811690811561161357506001146115da57505050565b6115ed9192939450600052602060002090565b916000925b8184106115ff5750500190565b8054848401526020909301926001016115f2565b92949550505060ff1916825215156020020190565b9061033d916115a4565b9061032761164c9261164360405190565b93848092611628565b0383610521565b61033d90611632565b61033d6004611653565b61033d9060a01c610f3a565b61033d9054611666565b61064061033d61033d9290565b61033d9061167c565b906001600160a01b03906111ad565b906116b161033d6111ce92610f22565b8254611692565b9074ff00000000000000000000000000000000000000009060a01b6111ad565b906116e861033d6111ce92151590565b82546116b8565b6116f96003611672565b6117e25761170a6106406000611689565b6001600160a01b038216146117d05761172c61172582610f22565b60036116a1565b611738600160036116d8565b611762817fa49807205ce4d355092ef5a8a18f56e8913cf4a201fbe287825b095693c217756111d2565b61178c817f97667070c54ef182b0f5858b034beac1b6f3089aa2d3188bb1e8929f4fa9b9296111d2565b611794611bc1565b6117be7f27b541a16df0902e262f34789782092ab25125513b8ed73608e802951771b92891610f22565b906117c860405190565b80805b0390a2565b604051637bfd2e8360e01b8152600490fd5b604051637396742f60e11b8152600490fd5b61033d90610640565b61033d90546117f4565b3361182d61182061064061181b60036117fd565b610f22565b916001600160a01b031690565b0361183a5761032761184c565b6040516310f5403960e31b8152600490fd5b61185961106d6003611672565b61186557610327611877565b604051633165f6e960e21b8152600490fd5b7fa866f3901ec84758a10f30e8953c3818eef73da93dfa46cb6aa5b726fb65813f6118a160405190565b80805b0390a1565b610327611807565b336118c561182061064061181b60036117fd565b0361183a576103276118da61106d6003611672565b611865576103277f6dff2fe8fbb5b23bf0583bf5b2157ff62ca7e27f2fb4f404914cd0c205ced5cc6118a160405190565b6103276118b1565b61033d6003611672565b61033d61181b60036117fd565b6119537fa49807205ce4d355092ef5a8a18f56e8913cf4a201fbe287825b095693c21775610fc3565b6103275b610327611a12565b61032761192a565b6119907fa49807205ce4d355092ef5a8a18f56e8913cf4a201fbe287825b095693c21775610fc3565b6103275b610327611ae2565b610327611967565b336119b861182061064061181b60036117fd565b0361183a57610327611957565b6103276119a4565b336119e161182061064061181b60036117fd565b0361183a57610327611994565b6103276119cd565b611a0361106d6003611672565b61186557610327610327611a5f565b6103276119f6565b611a22611ab3565b610327611a306001806111b7565b336118a47f62e78cea01bee320cd4e420270b5ea74000d11b0c9f74754ebdbfc544b05a25891610ad460405190565b610327611a1a565b15611a6e57565b60405162461bcd60e51b815260206004820152601060248201527f5061757361626c653a20706175736564000000000000000000000000000000006044820152606490fd5b610327611ac161106d61129f565b611a67565b611ad361106d6003611672565b61186557610327610327611b30565b610327611ac6565b611af2611b84565b610327611b01600060016111b7565b336118a47f5db9ee0a495bf2e6ff9c91a7834c1ba4fdd244a5e8aa4e537bd38aeae4b073aa91610ad460405190565b610327611aea565b15611b3f57565b60405162461bcd60e51b815260206004820152601460248201527f5061757361626c653a206e6f74207061757365640000000000000000000000006044820152606490fd5b610327611b8f61129f565b611b38565b905051906103278261064c565b906020828203126103155761033d91611b94565b6040513d6000823e3d90fd5b611be76020611bcf30610f22565b637b10399990611bde60405190565b93849260e01b90565b825260049082905afa8015611c815761032791600091611c53575b50611c2d817f4f954bed0529967842be3cf5f1133c59c9d02d41844654c1e7ec00ff708ceff86111d2565b7f0ce23c3e399818cfee81a7ab0880f714e53d7672b08df0fa62f2843416e1ea096111d2565b611c74915060203d8111611c7a575b611c6c8183610521565b810190611ba1565b38611c02565b503d611c62565b611bb5565b9190611c9561106d6003611672565b6118655761033d929061033d9291611cab611ab3565b90611cbe9291611cb961245a565b612124565b9061032761248c565b611cda611cd461033d9290565b60c01b90565b6001600160c01b03191690565b80151561030e565b9050519061032782611ce7565b906020828203126103155761033d91611cef565b15611d1757565b60405162461bcd60e51b815260206004820152601760248201527f4f7267616e697a6174696f6e206e6f74206163746976650000000000000000006044820152606490fd5b90610ef590611cda565b61033d90611cd4565b61033d9054611d66565b15611d8057565b60405162461bcd60e51b815260206004820152603460248201527f50726f66696c6520616c72656164792065786973747320666f7220746869732060448201527f7573657220696e207468697320636f6e746578740000000000000000000000006064820152608490fd5b61033d610100610548565b9067ffffffffffffffff906111ad565b90611e1c611e166111ce92611cda565b60c01c90565b8254611df6565b907bffffffffffffffffffffffffffffffffffffffff00000000000000009060401b6111ad565b90611e5a61033d6111ce92610f22565b8254611e23565b9160001960089290920291821b911b6111ad565b921b90565b9190611e8b61033d6111ce93610380565b908354611e61565b61032791600091611e7a565b818110611eaa575050565b80611eb86000600193611e93565b01611e9f565b9190601f8111611ecd57505050565b611edf61032793600052602060002090565b906020601f840181900483019310611f01575b6020601f909101040190611e9f565b9091508190611ef2565b90611f14815190565b9067ffffffffffffffff821161054357611f3882611f32855461157a565b85611ebe565b602090601f8311600114611f73576111ce929160009183611f68575b5050600019600883021c1916906002021790565b015190503880611f54565b601f19831691611f8885600052602060002090565b9260005b818110611fc657509160029391856001969410611fad575b50505002019055565b01516000196008601f8516021c19169055388080611fa4565b91936020600181928787015181550195019201611f8c565b9061032791611f0b565b90600019906111ad565b9061200261033d6111ce92610380565b8254611fe8565b9061ff009060081b6111ad565b9061202661033d6111ce92151590565b8254612009565b61032791906120f29060e09060059061206f8161205b61205588516001600160c01b03191690565b82611e06565b60208701516001600160a01b031690611e4a565b6120916001820161208b60408801516001600160c01b03191690565b90611e06565b6120a9600282016120a3606088015190565b90611fde565b6120c1600382016120bb608088015190565b90611ff2565b6120d3600482016120bb60a088015190565b01926120eb6120e560c0830151151590565b856111b7565b0151151590565b90612016565b906103279161202d565b9291602061211f6103279360408701908782036000890152610723565b940152565b509081600061213281611cc7565b6001600160c01b03198316141590816122d5575b33916006846121558583610f2b565b9061215f91611d5c565b61216890611d6f565b61217184611cc7565b612185916001600160c01b03191614611d79565b61218f8486613a15565b9687918542956001906121a0611deb565b6001600160c01b03198716818301526001600160a01b0384166020820152916001600160c01b031986166040840152606083018c90526121e1896080850152565b6121ec8960a0850152565b151560c0830152151560e0820152612205856005611d5c565b9061220f916120f8565b61221891610f2b565b9061222291611d5c565b9061222c91611e06565b61223586611cda565b90612241826007612497565b508661224e83600a610ef3565b9061225891611e06565b6122b7575b507f88c56dda8c456a57b782b149234a5f113419f653a70b7b46031df0d7f989ffe89061229b61229561228f88611cda565b94610f22565b94611cda565b946122b16122a860405190565b92839283612102565b0390a490565b6122ce906122c961033d866009611d5c565b612497565b503861225d565b612336925060206122e761181b6125a6565b6385acd641906123287fbdded29a54e6a5d6169bedea55373b06f57e35d7b0f67ac187565b435e2cc9439261231b60405190565b9788948593849360e01b90565b835260048301526024820190565b03915afa928315611c815761235c61181b612374956020936000916123db575b50610f22565b63b4ae840f9061236b60405190565b95869260e01b90565b82526001600160c01b03198816600483015260249082905afa928315611c815785936123a8916000916123ad575b50611d10565b612146565b6123ce915060203d81116123d4575b6123c68183610521565b810190611cfc565b386123a2565b503d6123bc565b6123f29150843d8111611c7a57611c6c8183610521565b38612356565b61033d91906000611c86565b61033d6002610380565b1561241557565b60405162461bcd60e51b815260206004820152601f60248201527f5265656e7472616e637947756172643a207265656e7472616e742063616c6c006044820152606490fd5b6103276124676002610f70565b61247b612472612404565b9182141561240e565b6002611ff2565b61033d6001610380565b61032761247b612482565b906124ae600061033d936124a9600090565b500190565b612513565b805482101561134b576124cd600191600052602060002090565b91020190600090565b9190611e8b61033d6111ce9390565b9081549168010000000000000000831015610543578261250d916001610327950181556124b3565b906124d6565b61252061106d8383612559565b156125525761254d916125489060016125418461253d84826124e5565b5490565b9301610ef3565b611ff2565b600190565b5050600090565b6125779160016125729261256b600090565b5001610ef3565b610f70565b61258461137e6000610380565b141590565b61259661106d6003611672565b611865575061033d8060036117fd565b61033d6000612589565b906125be61106d6003611672565b611865576103279190610327916125d3611ab3565b6125ee565b61033d9060401c610640565b61033d90546125d8565b6125fc61033d826005611d5c565b612605816125e4565b60009061261761182061064084611689565b14612707576126279082016125e4565b339061263282611820565b1415806126d4575b612693575061265c8161265285600260049501611fde565b4292839101611ff2565b6126867fa6eaf5daa91aab3cf1cc6d7efc3c49c137576e9542f722d76b8897d1c9afca0792611cda565b926117cb6122a860405190565b826110e76126a060405190565b62165c6760e01b81526001600160c01b031990921660048301526001600160a01b0390921660248201529081906044820190565b5061270261106d827f4f954bed0529967842be3cf5f1133c59c9d02d41844654c1e7ec00ff708ceff8610f4a565b61263a565b6110e78361271460405190565b636050eaaf60e11b8152918291600483016001600160c01b0319909116815260200190565b90610327916125b0565b61274b611deb565b906000825260208080808080808089016000815201600081520160605b8152016000815201600081520160008152016000905250565b61033d612743565b61033d9060081c610f3a565b61033d9054612789565b9061032761286660056127b0611deb565b946127cb6127bd82611d6f565b6001600160c01b0319168752565b6127e76127d7826125e4565b6001600160a01b03166020880152565b6128076127f660018301611d6f565b6001600160c01b0319166040880152565b61281d61281660028301611632565b6060880152565b61283361282c60038301610f70565b6080880152565b61284961284260048301610f70565b60a0880152565b612860612857838301610f40565b151560c0880152565b01612795565b151560e0840152565b61033d9061279f565b612880612781565b5061289461288f826005611d5c565b61286f565b906128a960208301516001600160a01b031690565b6128b96118206106406000611689565b146128c2575090565b6110e79061271460405190565b6128f4916128ea6128ef926128e2612781565b506006610f2b565b611d5c565b611d6f565b6128fe6000611cc7565b6001600160c01b03198216146128c25761288f61033d916005611d5c565b600061293561293b9261292d600090565b506005611d5c565b016125e4565b6125846118206106406000611689565b67ffffffffffffffff81116105435760208091020190565b906112f16105998361294b565b9061032761131161298084612963565b9361294b565b60001981146112d25760010190565b9061299e825190565b81101561134b576020809102010190565b6129c961033d6129ce926129c1606090565b506009611d5c565b612a49565b6129de6129d9825190565b612970565b906129e96000610380565b6129f461033d835190565b811015612a4457612a3f90612a3a612a216128ef600a612a1b612a178689612995565b5190565b90610ef3565b612a2b8387612995565b906001600160c01b0319169052565b612986565b6129e9565b505090565b606090612a5590612adf565b905090565b90612a75612a69610bf7845490565b92600052602060002090565b9060005b818110612a865750505090565b909192612aaa612aa3600192612a9b87610f70565b815260200190565b9460010190565b929101612a79565b9061033d91612a5a565b9061032761164c92612acd60405190565b93848092612ab2565b61033d90612abc565b600061033d91612aed606090565b5001612ad6565b60075461033d90819081565b6103279190612b2e7f0ce23c3e399818cfee81a7ab0880f714e53d7672b08df0fa62f2843416e1ea09610fc3565b90612b3c61106d6003611672565b61186557610327919061032791612b51611ab3565b612b85565b906111c761033d6111ce9261042c565b916020610327929493612b8160408201966000830190610435565b0152565b6005612b9461033d8383611d5c565b90612b9e826125e4565b600090612bb061182061064084611689565b14612c3a5790612bc3612bd59392610422565b612bcc86610422565b14159101612016565b612be982612be4836010611d5c565b612b56565b339042612c1f612c197fd7e14b7d3055fbe3eb3f1eafa416c1827dc3780b0726b63f47dd8313e686c64393611cda565b93610f22565b93612c35612c2c60405190565b92839283612b66565b0390a3565b6110e78461271460405190565b9061032791612b00565b612c616000612935836005611d5c565b612c716118206106406000611689565b146128c257610f6461033d916010611d5c565b93929190612c9561106d6003611672565b6118655761033d949061033d94939291612cad611ab3565b90611cbe94939291612cbd61245a565b612ef1565b90505190610327826104c9565b906020828203126103155761033d91612cc2565b6001600160a01b039091168152606081019392610327929091604091612b81906020830152565b6001600160a01b039182168152911660208201526060810192916103279160400152565b15612d3557565b60405162461bcd60e51b815260206004820152601a60248201527f47414d4520746f6b656e207472616e73666572206661696c65640000000000006044820152606490fd5b9061034090610422565b61033d9051610422565b9061202661033d6111ce9261042c565b6103279190612e269060e090600590612dc68161205b61205588516001600160c01b03191690565b612dd8600182016120bb604088015190565b612dea600282016120bb606088015190565b612dfc600382016120bb608088015190565b612e0e600482016120bb60a088015190565b0192612e206120e560c0830151151590565b01612d84565b90612d8e565b9061032791612d9e565b805491929183101561134b576004612e55600892600052602060002090565b8185040193060290565b919060086111ad910291611e7567ffffffffffffffff841b90565b9190612e8b611e166111ce93611cda565b908354612e5f565b90815491680100000000000000008310156105435782612ebb91600161032795018155612e36565b90612e7a565b612b8161032794612ee7606094989795612ee0608086019a6000870152565b6020850152565b6040830190610435565b9392919350612f0261106d826138de565b61323957612f1261106d8261362b565b61320757612f2161033d610d28565b841080156131f4575b6131cd57612f3961033d610d91565b821080156131ba575b61319357612f4e613c0f565b91612f5b61181b84610f22565b6370a08231933394612f76612f6f60405190565b9160e01b90565b81526001600160a01b0386166004820152602081602481865afa908115611c8157600091613165575b50878110613140575050602086916323b872dd90612fdb6000612fc130610f22565b93612fe7612fce60405190565b9788968795869460e01b90565b84528c60048501612d0a565b03925af18015611c815761300391600091613122575b50612d2e565b429461311c61301283886112d7565b966130bf600198613091613024611deb565b6001600160c01b0319891681526001600160a01b038a16602082015261304b876040830152565b613056886060830152565b613061856080830152565b61306c8360a0830152565b8b151560c08201526130818b60e08301612d7a565b61308c89600f611d5c565b612e2c565b6130a5886130a089600b611d5c565b6116a1565b6130b48561254889600c611d5c565b61254887600d611d5c565b6130d6856130d161033d89600e610f2b565b612e93565b6131096131037fda3cfcf8b45c999bc2632a87524ac4c7aed27382f18e89a71753c518bf2b345996611cda565b96610f22565b9661311360405190565b94859485612ec1565b0390a390565b61313a915060203d81116123d4576123c68183610521565b38612ffd565b906110e7889261314f60405190565b63ebd6ced960e01b815293849360048501612ce3565b613186915060203d811161318c575b61317e8183610521565b810190612ccf565b38612f9f565b503d613174565b6110e7826131a060405190565b63031d9f5d60e21b81529182916004830190815260200190565b506131c661033d610cb3565b8211612f42565b6110e7846131da60405190565b63222d164360e21b81529182916004830190815260200190565b5061320061033d610b4c565b8411612f2a565b6110e79061321460405190565b63264ad49760e21b8152918291600483016001600160c01b0319909116815260200190565b6110e79061324660405190565b631f8c3d5960e31b8152918291600483016001600160c01b0319909116815260200190565b61033d939291906000612c84565b9061328761106d6003611672565b6118655761033d919061033d9161329c611ab3565b90611cbe916132a961245a565b61338c565b919060086111ad910291611e756001600160a01b03841b90565b91906132d961033d6111ce93610f22565b9083546132ae565b610327916000916132c8565b61033d916008021c611cd4565b9061033d91546132ed565b919082039182116112d257565b634e487b7160e01b600052603160045260246000fd5b61032791600091612e7a565b8054801561335757600019019061335461334e8383612e36565b90613328565b55565b613312565b6001600160a01b0390911681526040810192916103279160200152565b9081526040810192916103279160200152565b5061339b61033d82600f611d5c565b9060058201916133ad61106d84610f40565b6135ee576133ba816125e4565b33906133c582611820565b036135ac5742916133db61033d60048301610f70565b831061357a5760016133ed9101610f70565b926133fa600080966111b7565b61340e8561340983600b611d5c565b6132e1565b6134228561341d83600c611d5c565b611e93565b6134318561341d83600d611d5c565b61343f61033d83600e610f2b565b9461344981610380565b61345461033d885490565b81101561356e5761346e6134688289612e36565b906132fa565b6001600160c01b031984811691161461348f5761348a90612986565b613449565b956134cd6134d2929394959697612ebb6134c66134686134c06134b0875490565b6134ba6001610380565b90613305565b86612e36565b9184612e36565b613334565b60206134fe6134e561181b61181b613c0f565b63a9059cbb6134f360405190565b948593849260e01b90565b82528161350f8b8a6004840161335c565b03925af18015611c815761352a916000916131225750612d2e565b61311c61355a612c197f551ad81174245667048606c9ad5c1798587d77e780d7e8b160c6bc6b14e3df4893611cda565b9361356460405190565b9182918783613379565b509091929394506134d2565b6110e78461358760405190565b634b7cb82360e01b8152918291600483016001600160c01b0319909116815260200190565b826110e76135b960405190565b632c69fcb360e11b81526001600160c01b031990921660048301526001600160a01b0390921660248201529081906044820190565b6110e7826135fb60405190565b63528144df60e11b8152918291600483016001600160c01b0319909116815260200190565b61033d906000613279565b61033d6136429161363a600090565b50600f611d5c565b61365161106d60058301610f40565b90811561365c575090565b905061367161137e61033d6004429401610f70565b101590565b61367e611deb565b90600082526020808080808080808901600081520160008152016000612768565b61033d613676565b906103276136f660056136b8611deb565b946136c56127bd82611d6f565b6136d16127d7826125e4565b6136e76136e060018301610f70565b6040880152565b61281d61281660028301610f70565b60e08401612d7a565b61033d906136a7565b61371761033d9161363a61369f565b6136ff565b61033d9060401c611cd4565b61033d9060801c611cd4565b61033d9060c01c611cd4565b9060019061375e613752610bf7855490565b93600052602060002090565b600092613819575b613771565b50505090565b54908083106137fc575b8083106137df575b8083106137c2575b8210613798575b8061376b565b826137b9600193946137ab602094613734565b6001600160c01b0319169052565b01910138613792565b91926020816137d66001936137ab86613728565b0193019161378b565b91926020816137f36001936137ab8661371c565b01930191613783565b91926020816138106001936137ab86611d66565b0193019161377b565b600383018211156137665792600160206137ab61386a6004948380808b5493613845816137ab87611d66565b01613853816137ab8661371c565b01613861816137ab85613728565b01928391613734565b019401920191613819565b9061033d91613740565b9061032761164c9261389060405190565b93848092613875565b61033d9061387f565b6138b961033d916138b1606090565b50600e610f2b565b613899565b6138d16138cb61033d9290565b60f81b90565b6001600160f81b03191690565b9060086138ea81610380565b916138f4836112fb565b9160009161390183610380565b85811015613932578281101561134b5761392d9087811a60f81b851a6139278288611334565b53612986565b613901565b509450509061394082610380565b83811015613a0c5761398f6139666139588385611334565b516001600160f81b03191690565b61397060306138be565b6001600160f81b03198216101590816139ed575b81156139a857501590565b6139a15761399c90612986565b613940565b5050905090565b90506139b460416138be565b6001600160f81b03198216101590816139cc57501590565b90506139e96139db605a6138be565b916001600160f81b03191690565b1190565b90506139f960396138be565b6001600160f81b03198216111590613984565b50505050600190565b61033d9190613a31613a2a612a3a6011610f70565b6011611ff2565b4290613a3d6011610f70565b92613a9f565b610340906001600160a01b031660601b90565b602093613a88600861033d9795613a88601486613a778b98613a8e9a613a43565b0180926001600160c01b0319169052565b01918252565b0163282927a360e11b815260040190565b90613ac5916110c361033d95613ab3600090565b50604051958694602086019485613a56565b613ad7613ad0825190565b9160200190565b20613b66565b613ae760246112e4565b7f303132333435363738394142434445464748494a4b4c4d4e4f505152535455566020820152632bac2cad60e11b604082015290565b61033d613add565b61033d613b1d565b61033d6024610380565b634e487b7160e01b600052601260045260246000fd5b8115613b57570690565b613b37565b8115613b57570490565b613b71600091610fce565b613b79610836565b92613b83846112fb565b90600090613b9082610380565b935b86851015613c0057613bf4613bfa91613ba9613b25565b9089613bee613be48a613bdf613bd4613958613bc3613b2d565b98613bce8a8a613b4d565b90611334565b946134ba6001610380565b613305565b91881a9189611334565b53613b5c565b94612986565b93613b92565b50945050905060209150015190565b61033d600061168956fea2646970667358221220260a786d20bb09f61dcee089182bfec35bcd068f2eaba52d1c11671d88ed6f0864736f6c63430008140033",
  "linkReferences": {},
  "deployedLinkReferences": {}
}