{
  "_format": "hh-sol-artifact-1",
  "contractName": "Membership",
  "sourceName": "contracts/modules/Membership/Membership.sol",
  "abi": [
    {
      "inputs": [],
      "stateMutability": "nonpayable",
      "type": "constructor"
    },
    {
      "inputs": [
        {
          "internalType": "address",
          "name": "member",
          "type": "address"
        },
        {
          "internalType": "uint256",
          "name": "required",
          "type": "uint256"
        },
        {
          "internalType": "uint256",
          "name": "available",
          "type": "uint256"
        }
      ],
      "name": "InsufficientVotingPower",
      "type": "error"
    },
    {
      "inputs": [
        {
          "internalType": "uint256",
          "name": "amount",
          "type": "uint256"
        }
      ],
      "name": "InvalidDelegationAmount",
      "type": "error"
    },
    {
      "inputs": [
        {
          "internalType": "enum IMembership.MemberState",
          "name": "state",
          "type": "uint8"
        }
      ],
      "name": "InvalidMemberState",
      "type": "error"
    },
    {
      "inputs": [
        {
          "internalType": "enum IMembership.MembershipTier",
          "name": "tier",
          "type": "uint8"
        }
      ],
      "name": "InvalidMembershipTier",
      "type": "error"
    },
    {
      "inputs": [],
      "name": "InvalidRegistryAddress",
      "type": "error"
    },
    {
      "inputs": [
        {
          "internalType": "bytes8",
          "name": "organizationId",
          "type": "bytes8"
        },
        {
          "internalType": "address",
          "name": "member",
          "type": "address"
        }
      ],
      "name": "MemberAlreadyExists",
      "type": "error"
    },
    {
      "inputs": [
        {
          "internalType": "bytes8",
          "name": "organizationId",
          "type": "bytes8"
        },
        {
          "internalType": "address",
          "name": "member",
          "type": "address"
        }
      ],
      "name": "MemberNotActive",
      "type": "error"
    },
    {
      "inputs": [
        {
          "internalType": "bytes8",
          "name": "organizationId",
          "type": "bytes8"
        },
        {
          "internalType": "address",
          "name": "member",
          "type": "address"
        }
      ],
      "name": "MemberNotFound",
      "type": "error"
    },
    {
      "inputs": [],
      "name": "ModuleAlreadyInitialized",
      "type": "error"
    },
    {
      "inputs": [],
      "name": "ModuleNotInitialized",
      "type": "error"
    },
    {
      "inputs": [],
      "name": "OnlyRegistry",
      "type": "error"
    },
    {
      "inputs": [
        {
          "internalType": "bytes8",
          "name": "organizationId",
          "type": "bytes8"
        }
      ],
      "name": "OrganizationNotActive",
      "type": "error"
    },
    {
      "inputs": [
        {
          "internalType": "bytes8",
          "name": "organizationId",
          "type": "bytes8"
        }
      ],
      "name": "OrganizationNotFound",
      "type": "error"
    },
    {
      "inputs": [
        {
          "internalType": "address",
          "name": "member",
          "type": "address"
        }
      ],
      "name": "SelfDelegationNotAllowed",
      "type": "error"
    },
    {
      "inputs": [
        {
          "internalType": "address",
          "name": "caller",
          "type": "address"
        }
      ],
      "name": "UnauthorizedAccess",
      "type": "error"
    },
    {
      "anonymous": false,
      "inputs": [
        {
          "indexed": true,
          "internalType": "bytes8",
          "name": "organizationId",
          "type": "bytes8"
        },
        {
          "indexed": true,
          "internalType": "address",
          "name": "member",
          "type": "address"
        },
        {
          "indexed": false,
          "internalType": "enum IMembership.MembershipTier",
          "name": "tier",
          "type": "uint8"
        },
        {
          "indexed": false,
          "internalType": "uint256",
          "name": "timestamp",
          "type": "uint256"
        }
      ],
      "name": "MemberAdded",
      "type": "event"
    },
    {
      "anonymous": false,
      "inputs": [
        {
          "indexed": true,
          "internalType": "bytes8",
          "name": "organizationId",
          "type": "bytes8"
        },
        {
          "indexed": true,
          "internalType": "address",
          "name": "member",
          "type": "address"
        },
        {
          "indexed": false,
          "internalType": "uint256",
          "name": "timestamp",
          "type": "uint256"
        }
      ],
      "name": "MemberRemoved",
      "type": "event"
    },
    {
      "anonymous": false,
      "inputs": [
        {
          "indexed": true,
          "internalType": "bytes8",
          "name": "organizationId",
          "type": "bytes8"
        },
        {
          "indexed": true,
          "internalType": "address",
          "name": "member",
          "type": "address"
        },
        {
          "indexed": false,
          "internalType": "enum IMembership.MemberState",
          "name": "oldState",
          "type": "uint8"
        },
        {
          "indexed": false,
          "internalType": "enum IMembership.MemberState",
          "name": "newState",
          "type": "uint8"
        },
        {
          "indexed": false,
          "internalType": "uint256",
          "name": "timestamp",
          "type": "uint256"
        }
      ],
      "name": "MemberStateUpdated",
      "type": "event"
    },
    {
      "anonymous": false,
      "inputs": [
        {
          "indexed": true,
          "internalType": "bytes8",
          "name": "organizationId",
          "type": "bytes8"
        },
        {
          "indexed": true,
          "internalType": "address",
          "name": "member",
          "type": "address"
        },
        {
          "indexed": false,
          "internalType": "enum IMembership.MembershipTier",
          "name": "oldTier",
          "type": "uint8"
        },
        {
          "indexed": false,
          "internalType": "enum IMembership.MembershipTier",
          "name": "newTier",
          "type": "uint8"
        },
        {
          "indexed": false,
          "internalType": "uint256",
          "name": "timestamp",
          "type": "uint256"
        }
      ],
      "name": "MemberTierUpdated",
      "type": "event"
    },
    {
      "anonymous": false,
      "inputs": [],
      "name": "ModuleDisabled",
      "type": "event"
    },
    {
      "anonymous": false,
      "inputs": [],
      "name": "ModuleEnabled",
      "type": "event"
    },
    {
      "anonymous": false,
      "inputs": [
        {
          "indexed": true,
          "internalType": "address",
          "name": "registry",
          "type": "address"
        }
      ],
      "name": "ModuleInitialized",
      "type": "event"
    },
    {
      "anonymous": false,
      "inputs": [
        {
          "indexed": false,
          "internalType": "address",
          "name": "account",
          "type": "address"
        }
      ],
      "name": "Paused",
      "type": "event"
    },
    {
      "anonymous": false,
      "inputs": [
        {
          "indexed": true,
          "internalType": "bytes32",
          "name": "role",
          "type": "bytes32"
        },
        {
          "indexed": true,
          "internalType": "bytes32",
          "name": "previousAdminRole",
          "type": "bytes32"
        },
        {
          "indexed": true,
          "internalType": "bytes32",
          "name": "newAdminRole",
          "type": "bytes32"
        }
      ],
      "name": "RoleAdminChanged",
      "type": "event"
    },
    {
      "anonymous": false,
      "inputs": [
        {
          "indexed": true,
          "internalType": "bytes32",
          "name": "role",
          "type": "bytes32"
        },
        {
          "indexed": true,
          "internalType": "address",
          "name": "account",
          "type": "address"
        },
        {
          "indexed": true,
          "internalType": "address",
          "name": "sender",
          "type": "address"
        }
      ],
      "name": "RoleGranted",
      "type": "event"
    },
    {
      "anonymous": false,
      "inputs": [
        {
          "indexed": true,
          "internalType": "bytes32",
          "name": "role",
          "type": "bytes32"
        },
        {
          "indexed": true,
          "internalType": "address",
          "name": "account",
          "type": "address"
        },
        {
          "indexed": true,
          "internalType": "address",
          "name": "sender",
          "type": "address"
        }
      ],
      "name": "RoleRevoked",
      "type": "event"
    },
    {
      "anonymous": false,
      "inputs": [
        {
          "indexed": false,
          "internalType": "address",
          "name": "account",
          "type": "address"
        }
      ],
      "name": "Unpaused",
      "type": "event"
    },
    {
      "anonymous": false,
      "inputs": [
        {
          "indexed": true,
          "internalType": "bytes8",
          "name": "organizationId",
          "type": "bytes8"
        },
        {
          "indexed": true,
          "internalType": "address",
          "name": "delegator",
          "type": "address"
        },
        {
          "indexed": true,
          "internalType": "address",
          "name": "delegatee",
          "type": "address"
        },
        {
          "indexed": false,
          "internalType": "uint256",
          "name": "amount",
          "type": "uint256"
        },
        {
          "indexed": false,
          "internalType": "uint256",
          "name": "timestamp",
          "type": "uint256"
        }
      ],
      "name": "VotingDelegated",
      "type": "event"
    },
    {
      "anonymous": false,
      "inputs": [
        {
          "indexed": true,
          "internalType": "bytes8",
          "name": "organizationId",
          "type": "bytes8"
        },
        {
          "indexed": true,
          "internalType": "address",
          "name": "member",
          "type": "address"
        },
        {
          "indexed": false,
          "internalType": "uint256",
          "name": "oldPower",
          "type": "uint256"
        },
        {
          "indexed": false,
          "internalType": "uint256",
          "name": "newPower",
          "type": "uint256"
        },
        {
          "indexed": false,
          "internalType": "uint256",
          "name": "timestamp",
          "type": "uint256"
        }
      ],
      "name": "VotingPowerUpdated",
      "type": "event"
    },
    {
      "anonymous": false,
      "inputs": [
        {
          "indexed": true,
          "internalType": "bytes8",
          "name": "organizationId",
          "type": "bytes8"
        },
        {
          "indexed": true,
          "internalType": "address",
          "name": "delegator",
          "type": "address"
        },
        {
          "indexed": true,
          "internalType": "address",
          "name": "delegatee",
          "type": "address"
        },
        {
          "indexed": false,
          "internalType": "uint256",
          "name": "amount",
          "type": "uint256"
        },
        {
          "indexed": false,
          "internalType": "uint256",
          "name": "timestamp",
          "type": "uint256"
        }
      ],
      "name": "VotingUndelegated",
      "type": "event"
    },
    {
      "inputs": [],
      "name": "ADMIN_ROLE",
      "outputs": [
        {
          "internalType": "bytes32",
          "name": "",
          "type": "bytes32"
        }
      ],
      "stateMutability": "view",
      "type": "function"
    },
    {
      "inputs": [],
      "name": "DEFAULT_ADMIN_ROLE",
      "outputs": [
        {
          "internalType": "bytes32",
          "name": "",
          "type": "bytes32"
        }
      ],
      "stateMutability": "view",
      "type": "function"
    },
    {
      "inputs": [],
      "name": "MEMBERSHIP_ADMIN_ROLE",
      "outputs": [
        {
          "internalType": "bytes32",
          "name": "",
          "type": "bytes32"
        }
      ],
      "stateMutability": "view",
      "type": "function"
    },
    {
      "inputs": [],
      "name": "MODULE_ADMIN_ROLE",
      "outputs": [
        {
          "internalType": "bytes32",
          "name": "",
          "type": "bytes32"
        }
      ],
      "stateMutability": "view",
      "type": "function"
    },
    {
      "inputs": [],
      "name": "MODULE_ID",
      "outputs": [
        {
          "internalType": "bytes32",
          "name": "",
          "type": "bytes32"
        }
      ],
      "stateMutability": "view",
      "type": "function"
    },
    {
      "inputs": [],
      "name": "OPERATOR_ROLE",
      "outputs": [
        {
          "internalType": "bytes32",
          "name": "",
          "type": "bytes32"
        }
      ],
      "stateMutability": "view",
      "type": "function"
    },
    {
      "inputs": [],
      "name": "ORGANIZATION_MANAGER_ROLE",
      "outputs": [
        {
          "internalType": "bytes32",
          "name": "",
          "type": "bytes32"
        }
      ],
      "stateMutability": "view",
      "type": "function"
    },
    {
      "inputs": [
        {
          "internalType": "bytes8",
          "name": "organizationId",
          "type": "bytes8"
        }
      ],
      "name": "activateOrganization",
      "outputs": [
        {
          "internalType": "bool",
          "name": "",
          "type": "bool"
        }
      ],
      "stateMutability": "nonpayable",
      "type": "function"
    },
    {
      "inputs": [
        {
          "internalType": "bytes8",
          "name": "organizationId",
          "type": "bytes8"
        },
        {
          "internalType": "address",
          "name": "member",
          "type": "address"
        },
        {
          "internalType": "enum IMembership.MembershipTier",
          "name": "tier",
          "type": "uint8"
        }
      ],
      "name": "addMember",
      "outputs": [
        {
          "internalType": "bool",
          "name": "",
          "type": "bool"
        }
      ],
      "stateMutability": "nonpayable",
      "type": "function"
    },
    {
      "inputs": [],
      "name": "controlContract",
      "outputs": [
        {
          "internalType": "contract IControl",
          "name": "",
          "type": "address"
        }
      ],
      "stateMutability": "view",
      "type": "function"
    },
    {
      "inputs": [
        {
          "internalType": "bytes8",
          "name": "organizationId",
          "type": "bytes8"
        }
      ],
      "name": "deactivateOrganization",
      "outputs": [
        {
          "internalType": "bool",
          "name": "",
          "type": "bool"
        }
      ],
      "stateMutability": "nonpayable",
      "type": "function"
    },
    {
      "inputs": [
        {
          "internalType": "bytes8",
          "name": "organizationId",
          "type": "bytes8"
        },
        {
          "internalType": "address",
          "name": "delegatee",
          "type": "address"
        },
        {
          "internalType": "uint256",
          "name": "amount",
          "type": "uint256"
        }
      ],
      "name": "delegateVotingPower",
      "outputs": [
        {
          "internalType": "bool",
          "name": "",
          "type": "bool"
        }
      ],
      "stateMutability": "nonpayable",
      "type": "function"
    },
    {
      "inputs": [],
      "name": "emergencyPause",
      "outputs": [],
      "stateMutability": "nonpayable",
      "type": "function"
    },
    {
      "inputs": [],
      "name": "emergencyUnpause",
      "outputs": [],
      "stateMutability": "nonpayable",
      "type": "function"
    },
    {
      "inputs": [],
      "name": "gameToken",
      "outputs": [
        {
          "internalType": "contract IERC20",
          "name": "",
          "type": "address"
        }
      ],
      "stateMutability": "view",
      "type": "function"
    },
    {
      "inputs": [
        {
          "internalType": "bytes8",
          "name": "organizationId",
          "type": "bytes8"
        },
        {
          "internalType": "address",
          "name": "member",
          "type": "address"
        }
      ],
      "name": "getDelegations",
      "outputs": [
        {
          "components": [
            {
              "internalType": "address",
              "name": "delegator",
              "type": "address"
            },
            {
              "internalType": "address",
              "name": "delegatee",
              "type": "address"
            },
            {
              "internalType": "uint256",
              "name": "amount",
              "type": "uint256"
            },
            {
              "internalType": "uint256",
              "name": "timestamp",
              "type": "uint256"
            },
            {
              "internalType": "bool",
              "name": "active",
              "type": "bool"
            }
          ],
          "internalType": "struct IMembership.VotingDelegation[]",
          "name": "",
          "type": "tuple[]"
        }
      ],
      "stateMutability": "view",
      "type": "function"
    },
    {
      "inputs": [
        {
          "internalType": "bytes8",
          "name": "organizationId",
          "type": "bytes8"
        },
        {
          "internalType": "address",
          "name": "member",
          "type": "address"
        }
      ],
      "name": "getEffectiveVotingPower",
      "outputs": [
        {
          "internalType": "uint256",
          "name": "",
          "type": "uint256"
        }
      ],
      "stateMutability": "view",
      "type": "function"
    },
    {
      "inputs": [
        {
          "internalType": "bytes8",
          "name": "organizationId",
          "type": "bytes8"
        },
        {
          "internalType": "address",
          "name": "account",
          "type": "address"
        }
      ],
      "name": "getMember",
      "outputs": [
        {
          "components": [
            {
              "internalType": "address",
              "name": "account",
              "type": "address"
            },
            {
              "internalType": "enum IMembership.MembershipTier",
              "name": "tier",
              "type": "uint8"
            },
            {
              "internalType": "enum IMembership.MemberState",
              "name": "state",
              "type": "uint8"
            },
            {
              "internalType": "uint256",
              "name": "joinedAt",
              "type": "uint256"
            },
            {
              "internalType": "uint256",
              "name": "votingPower",
              "type": "uint256"
            },
            {
              "internalType": "uint256",
              "name": "delegatedPower",
              "type": "uint256"
            },
            {
              "internalType": "bool",
              "name": "canVote",
              "type": "bool"
            },
            {
              "internalType": "bool",
              "name": "canPropose",
              "type": "bool"
            },
            {
              "internalType": "bool",
              "name": "canDelegate",
              "type": "bool"
            }
          ],
          "internalType": "struct IMembership.Member",
          "name": "",
          "type": "tuple"
        }
      ],
      "stateMutability": "view",
      "type": "function"
    },
    {
      "inputs": [
        {
          "internalType": "bytes8",
          "name": "organizationId",
          "type": "bytes8"
        }
      ],
      "name": "getMemberCount",
      "outputs": [
        {
          "internalType": "uint256",
          "name": "",
          "type": "uint256"
        }
      ],
      "stateMutability": "view",
      "type": "function"
    },
    {
      "inputs": [
        {
          "internalType": "bytes8",
          "name": "organizationId",
          "type": "bytes8"
        }
      ],
      "name": "getMembers",
      "outputs": [
        {
          "internalType": "address[]",
          "name": "",
          "type": "address[]"
        }
      ],
      "stateMutability": "view",
      "type": "function"
    },
    {
      "inputs": [
        {
          "internalType": "bytes8",
          "name": "organizationId",
          "type": "bytes8"
        },
        {
          "internalType": "enum IMembership.MemberState",
          "name": "state",
          "type": "uint8"
        }
      ],
      "name": "getMembersByState",
      "outputs": [
        {
          "internalType": "address[]",
          "name": "",
          "type": "address[]"
        }
      ],
      "stateMutability": "view",
      "type": "function"
    },
    {
      "inputs": [
        {
          "internalType": "bytes8",
          "name": "organizationId",
          "type": "bytes8"
        },
        {
          "internalType": "enum IMembership.MembershipTier",
          "name": "tier",
          "type": "uint8"
        }
      ],
      "name": "getMembersByTier",
      "outputs": [
        {
          "internalType": "address[]",
          "name": "",
          "type": "address[]"
        }
      ],
      "stateMutability": "view",
      "type": "function"
    },
    {
      "inputs": [
        {
          "internalType": "bytes8",
          "name": "organizationId",
          "type": "bytes8"
        }
      ],
      "name": "getMembershipStats",
      "outputs": [
        {
          "components": [
            {
              "internalType": "uint256",
              "name": "totalMembers",
              "type": "uint256"
            },
            {
              "internalType": "uint256",
              "name": "activeMembers",
              "type": "uint256"
            },
            {
              "internalType": "uint256",
              "name": "totalVotingPower",
              "type": "uint256"
            }
          ],
          "internalType": "struct IMembership.MembershipStats",
          "name": "",
          "type": "tuple"
        }
      ],
      "stateMutability": "view",
      "type": "function"
    },
    {
      "inputs": [
        {
          "internalType": "bytes32",
          "name": "role",
          "type": "bytes32"
        }
      ],
      "name": "getRoleAdmin",
      "outputs": [
        {
          "internalType": "bytes32",
          "name": "",
          "type": "bytes32"
        }
      ],
      "stateMutability": "view",
      "type": "function"
    },
    {
      "inputs": [
        {
          "internalType": "bytes8",
          "name": "organizationId",
          "type": "bytes8"
        },
        {
          "internalType": "address",
          "name": "member",
          "type": "address"
        }
      ],
      "name": "getTotalDelegatedIn",
      "outputs": [
        {
          "internalType": "uint256",
          "name": "",
          "type": "uint256"
        }
      ],
      "stateMutability": "view",
      "type": "function"
    },
    {
      "inputs": [
        {
          "internalType": "bytes8",
          "name": "organizationId",
          "type": "bytes8"
        },
        {
          "internalType": "address",
          "name": "member",
          "type": "address"
        }
      ],
      "name": "getTotalDelegatedOut",
      "outputs": [
        {
          "internalType": "uint256",
          "name": "",
          "type": "uint256"
        }
      ],
      "stateMutability": "view",
      "type": "function"
    },
    {
      "inputs": [
        {
          "internalType": "bytes32",
          "name": "role",
          "type": "bytes32"
        },
        {
          "internalType": "address",
          "name": "account",
          "type": "address"
        }
      ],
      "name": "grantRole",
      "outputs": [],
      "stateMutability": "nonpayable",
      "type": "function"
    },
    {
      "inputs": [
        {
          "internalType": "bytes32",
          "name": "role",
          "type": "bytes32"
        },
        {
          "internalType": "address",
          "name": "account",
          "type": "address"
        }
      ],
      "name": "hasRole",
      "outputs": [
        {
          "internalType": "bool",
          "name": "",
          "type": "bool"
        }
      ],
      "stateMutability": "view",
      "type": "function"
    },
    {
      "inputs": [
        {
          "internalType": "address",
          "name": "registryAddress",
          "type": "address"
        }
      ],
      "name": "initialize",
      "outputs": [],
      "stateMutability": "nonpayable",
      "type": "function"
    },
    {
      "inputs": [],
      "name": "isInitialized",
      "outputs": [
        {
          "internalType": "bool",
          "name": "",
          "type": "bool"
        }
      ],
      "stateMutability": "view",
      "type": "function"
    },
    {
      "inputs": [
        {
          "internalType": "bytes8",
          "name": "organizationId",
          "type": "bytes8"
        },
        {
          "internalType": "address",
          "name": "account",
          "type": "address"
        }
      ],
      "name": "isMember",
      "outputs": [
        {
          "internalType": "bool",
          "name": "",
          "type": "bool"
        }
      ],
      "stateMutability": "view",
      "type": "function"
    },
    {
      "inputs": [
        {
          "internalType": "bytes8",
          "name": "organizationId",
          "type": "bytes8"
        }
      ],
      "name": "isOrganizationActive",
      "outputs": [
        {
          "internalType": "bool",
          "name": "",
          "type": "bool"
        }
      ],
      "stateMutability": "view",
      "type": "function"
    },
    {
      "inputs": [],
      "name": "moduleId",
      "outputs": [
        {
          "internalType": "bytes32",
          "name": "",
          "type": "bytes32"
        }
      ],
      "stateMutability": "pure",
      "type": "function"
    },
    {
      "inputs": [],
      "name": "onModuleDisabled",
      "outputs": [],
      "stateMutability": "nonpayable",
      "type": "function"
    },
    {
      "inputs": [],
      "name": "onModuleEnabled",
      "outputs": [],
      "stateMutability": "nonpayable",
      "type": "function"
    },
    {
      "inputs": [],
      "name": "pause",
      "outputs": [],
      "stateMutability": "nonpayable",
      "type": "function"
    },
    {
      "inputs": [],
      "name": "paused",
      "outputs": [
        {
          "internalType": "bool",
          "name": "",
          "type": "bool"
        }
      ],
      "stateMutability": "view",
      "type": "function"
    },
    {
      "inputs": [],
      "name": "registry",
      "outputs": [
        {
          "internalType": "address",
          "name": "",
          "type": "address"
        }
      ],
      "stateMutability": "view",
      "type": "function"
    },
    {
      "inputs": [
        {
          "internalType": "bytes8",
          "name": "organizationId",
          "type": "bytes8"
        },
        {
          "internalType": "address",
          "name": "member",
          "type": "address"
        }
      ],
      "name": "removeMember",
      "outputs": [
        {
          "internalType": "bool",
          "name": "",
          "type": "bool"
        }
      ],
      "stateMutability": "nonpayable",
      "type": "function"
    },
    {
      "inputs": [
        {
          "internalType": "bytes32",
          "name": "role",
          "type": "bytes32"
        },
        {
          "internalType": "address",
          "name": "account",
          "type": "address"
        }
      ],
      "name": "renounceRole",
      "outputs": [],
      "stateMutability": "nonpayable",
      "type": "function"
    },
    {
      "inputs": [
        {
          "internalType": "bytes32",
          "name": "role",
          "type": "bytes32"
        },
        {
          "internalType": "address",
          "name": "account",
          "type": "address"
        }
      ],
      "name": "revokeRole",
      "outputs": [],
      "stateMutability": "nonpayable",
      "type": "function"
    },
    {
      "inputs": [
        {
          "internalType": "address",
          "name": "_controlContract",
          "type": "address"
        }
      ],
      "name": "setControlContract",
      "outputs": [],
      "stateMutability": "nonpayable",
      "type": "function"
    },
    {
      "inputs": [
        {
          "internalType": "address",
          "name": "_gameToken",
          "type": "address"
        }
      ],
      "name": "setGameToken",
      "outputs": [],
      "stateMutability": "nonpayable",
      "type": "function"
    },
    {
      "inputs": [
        {
          "internalType": "bytes4",
          "name": "interfaceId",
          "type": "bytes4"
        }
      ],
      "name": "supportsInterface",
      "outputs": [
        {
          "internalType": "bool",
          "name": "",
          "type": "bool"
        }
      ],
      "stateMutability": "view",
      "type": "function"
    },
    {
      "inputs": [
        {
          "internalType": "bytes8",
          "name": "organizationId",
          "type": "bytes8"
        },
        {
          "internalType": "address",
          "name": "delegatee",
          "type": "address"
        },
        {
          "internalType": "uint256",
          "name": "amount",
          "type": "uint256"
        }
      ],
      "name": "undelegateVotingPower",
      "outputs": [
        {
          "internalType": "bool",
          "name": "",
          "type": "bool"
        }
      ],
      "stateMutability": "nonpayable",
      "type": "function"
    },
    {
      "inputs": [],
      "name": "unpause",
      "outputs": [],
      "stateMutability": "nonpayable",
      "type": "function"
    },
    {
      "inputs": [
        {
          "internalType": "bytes8",
          "name": "organizationId",
          "type": "bytes8"
        },
        {
          "internalType": "address",
          "name": "member",
          "type": "address"
        },
        {
          "internalType": "enum IMembership.MemberState",
          "name": "newState",
          "type": "uint8"
        }
      ],
      "name": "updateMemberState",
      "outputs": [
        {
          "internalType": "bool",
          "name": "",
          "type": "bool"
        }
      ],
      "stateMutability": "nonpayable",
      "type": "function"
    },
    {
      "inputs": [
        {
          "internalType": "bytes8",
          "name": "organizationId",
          "type": "bytes8"
        },
        {
          "internalType": "address",
          "name": "member",
          "type": "address"
        },
        {
          "internalType": "enum IMembership.MembershipTier",
          "name": "newTier",
          "type": "uint8"
        }
      ],
      "name": "updateMemberTier",
      "outputs": [
        {
          "internalType": "bool",
          "name": "",
          "type": "bool"
        }
      ],
      "stateMutability": "nonpayable",
      "type": "function"
    },
    {
      "inputs": [
        {
          "internalType": "bytes8",
          "name": "organizationId",
          "type": "bytes8"
        },
        {
          "internalType": "address",
          "name": "member",
          "type": "address"
        },
        {
          "internalType": "uint256",
          "name": "newVotingPower",
          "type": "uint256"
        }
      ],
      "name": "updateVotingPower",
      "outputs": [
        {
          "internalType": "bool",
          "name": "",
          "type": "bool"
        }
      ],
      "stateMutability": "nonpayable",
      "type": "function"
    },
    {
      "inputs": [],
      "name": "version",
      "outputs": [
        {
          "internalType": "string",
          "name": "",
          "type": "string"
        }
      ],
      "stateMutability": "view",
      "type": "function"
    }
  ],
  "bytecode": "0x608060405234620000265762000014620000e4565b6040516139d76200054a82396139d790f35b600080fd5b634e487b7160e01b600052604160045260246000fd5b90601f01601f191681019081106001600160401b038211176200006357604052565b6200002b565b90620000806200007860405190565b928362000041565b565b6001600160401b0381116200006357602090601f01601f19160190565b90620000b5620000af8362000082565b62000069565b918252565b620000c660056200009f565b640312e302e360dc1b602082015290565b620000e1620000ba565b90565b620000f8620000f2620000d7565b62000150565b620000803362000129817fc2d561df6b4eeee3113d2cd8a29736f8b2bff7ceac4477c2f6285b7759363a076200049b565b7f12274c208a40c3eca6c09426911c6b1a9bcdb6ae935ccde65ec88694c95cd3a76200049b565b620000809062000368565b634e487b7160e01b600052602260045260246000fd5b906001600283049216801562000194575b60208310146200018e57565b6200015b565b91607f169162000182565b9160001960089290920291821b911b5b9181191691161790565b620000e1620000e1620000e19290565b9190620001de620000e1620001e793620001b9565b9083546200019f565b9055565b6200008091600091620001c9565b81811062000205575050565b80620002156000600193620001eb565b01620001f9565b9190601f81116200022c57505050565b620002406200008093600052602060002090565b906020601f84018190048301931062000264575b6020601f909101040190620001f9565b909150819062000254565b9062000279815190565b906001600160401b0382116200006357620002a1826200029a855462000171565b856200021c565b602090601f8311600114620002e057620001e7929160009183620002d4575b5050600019600883021c1916906002021790565b015190503880620002c0565b601f19831691620002f685600052602060002090565b9260005b81811062000337575091600293918560019694106200031d575b50505002019055565b01516000196008601f8516021c1916905538808062000314565b91936020600181928787015181550195019201620002fa565b9062000080916200026f565b620000e16000620001b9565b6200037f9062000377620003f4565b600462000350565b620000806200038d6200035c565b6200039a3380926200049b565b7fa49807205ce4d355092ef5a8a18f56e8913cf4a201fbe287825b095693c217756200049b565b620000e16001620001b9565b9060001990620001af565b90620003ec620000e1620001e792620001b9565b8254620003cd565b620003fe62000439565b620000806200040c620003c1565b6002620003d8565b9060ff90620001af565b9062000431620000e1620001e792151590565b825462000414565b62000080600060016200041e565b905b600052602052604060002090565b620000e1906200046d906001600160a01b031682565b6001600160a01b031690565b620000e19062000457565b620000e19062000479565b90620004499062000484565b90620004b0620004ac82846200052a565b1590565b620004b9575050565b620004df6001620004d9836000620004d2878262000447565b016200048f565b6200041e565b33906200051962000512620005127f2f8788117e7eff1d82e926ec794901d17c78024a50270940304540a733656f0d9590565b9262000484565b926200052460405190565b600090a4565b620000e1916200054291620004d26000918262000447565b5460ff169056fe6080604052600436101561001257600080fd5b60003560e01c806301ffc9a71461032d5780630f45607e14610328578063167bd00914610323578063248a9ca31461031e5780632838a3e6146103195780632f2ff15d1461031457806336568abe1461030f578063379aab331461030a578063392e53cd146103055780633f4ba83a1461030057806348ccfe47146102fb5780634a01db78146102f65780634a4e3bd5146102f157806351858e27146102ec57806354fd4d50146102e7578063576205b2146102e25780635c975abb146102dd57806367858174146102d857806375b238fc146102d35780637b103999146102ce5780637cea57e6146102c957806380b43622146102c457806380d29e66146102bf578063812e696e146102ba5780638456cb59146102b557806391d14854146102b0578063a0e37611146102ab578063a1308f2714610251578063a217fddf146102a6578063a8947b85146102a1578063aa7318aa1461029c578063ac89dfc714610297578063b4ae840f14610292578063bf29959f1461028d578063bfd3834a14610288578063c3dfdae614610283578063c4d66de81461027e578063c822939a14610279578063ca35e8a014610274578063d547741f1461026f578063d6110d241461026a578063db96c96514610265578063dfda0c4014610260578063ebb7c76b1461025b578063ebf8a3e614610256578063ed2f21f514610251578063f5b541a61461024c578063f6d80d9314610247578063f9e80a6a146102425763fb24973c0361034557610e25565b610e09565b610ded565b610db4565b610a80565b610d9c565b610d74565b610c75565b610c3c565b610c21565b610c08565b610bf0565b610bd4565b610bbc565b610ba1565b610b79565b610b5d565b610b42565b610b26565b610b0e565b610af3565b610ad8565b610a64565b610a18565b610a00565b6109e4565b6109cc565b610991565b610941565b6108db565b6108a2565b610886565b61086b565b61084f565b610828565b6107a8565b610790565b610774565b61074d565b6106c9565b6106ae565b610688565b61066f565b610651565b61060f565b610551565b61050f565b6104d3565b610374565b6001600160e01b031981165b0361034557565b600080fd5b9050359061035782610332565b565b906020828203126103455761036d9161034a565b90565b9052565b34610345576103a161038f61038a366004610359565b610e5e565b60405191829182901515815260200190565b0390f35b6001600160c01b0319811661033e565b90503590610357826103a5565b6001600160a01b031690565b6001600160a01b03811661033e565b90503590610357826103ce565b91906040838203126103455761036d9061040481856103b5565b936020016103dd565b80516001600160a01b03168252610357919060809081906020818101516001600160a01b03169085015261044660408201516040860152565b61045560608201516060860152565b01511515910152565b9061046b8160a09361040d565b0190565b9061048f61048861047e845190565b8084529260200190565b9260200190565b9060005b8181106104a05750505090565b9091926104ba6104b3600192865161045e565b9460200190565b929101610493565b602080825261036d9291019061046f565b34610345576103a16104ef6104e93660046103ea565b90613507565b604051918291826104c2565b906020828203126103455761036d916103b5565b34610345576103a161038f6105253660046104fb565b61358e565b8061033e565b905035906103578261052a565b906020828203126103455761036d91610530565b34610345576103a161056c61056736600461053d565b610ef7565b6040515b9182918290815260200190565b6004111561034557565b905035906103578261057d565b91906040838203126103455761036d906105ae81856103b5565b93602001610587565b906105c661048861047e845190565b9060005b8181106105d75750505090565b9091926105f66104b360019286516001600160a01b0316815260200190565b9291016105ca565b602080825261036d929101906105b7565b34610345576103a161062b610625366004610594565b906132d6565b604051918291826105fe565b91906040838203126103455761036d906104048185610530565b346103455761066a610664366004610637565b90610f36565b604051005b346103455761066a610682366004610637565b90611141565b34610345576103a161056c61069e3660046104fb565b6132f4565b600091031261034557565b34610345576106be3660046106a3565b6103a161038f61190a565b34610345576106d93660046106a3565b61066a611993565b61036d916008021c6001600160a01b031690565b9061036d91546106e1565b61036d6000600f6106f5565b6103c261036d61036d926001600160a01b031690565b61036d9061070c565b61036d90610722565b6103709061072b565b6020810192916103579190610734565b346103455761075d3660046106a3565b6103a1610768610700565b6040519182918261073d565b34610345576103a161038f61078a3660046103ea565b90613055565b34610345576107a03660046106a3565b61066a6119e5565b34610345576107b83660046106a3565b61066a6119bc565b60005b8381106107d35750506000910152565b81810151838201526020016107c3565b61080461080d60209361046b936107f8815190565b80835293849260200190565b958691016107c0565b601f01601f191690565b602080825261036d929101906107e3565b34610345576108383660046106a3565b6103a1610843611655565b60405191829182610817565b34610345576103a161056c6108653660046103ea565b90613542565b346103455761087b3660046106a3565b6103a161038f61125e565b34610345576103a161056c61089c3660046103ea565b906133c0565b34610345576108b23660046106a3565b6103a17fa49807205ce4d355092ef5a8a18f56e8913cf4a201fbe287825b095693c2177561056c565b34610345576108eb3660046106a3565b6103a16108f6611914565b6040515b918291826001600160a01b03909116815260200190565b90916060828403126103455761036d61092a84846103b5565b9361093881602086016103dd565b93604001610587565b34610345576103a161038f610957366004610911565b9161292a565b805182526103579190604090819061097a60208201516020860152565b0151910152565b606081019291610357919061095d565b34610345576103a16109ac6109a73660046104fb565b6133a4565b60405191829182610981565b906020828203126103455761036d916103dd565b346103455761066a6109df3660046109b8565b611c86565b34610345576103a161038f6109fa366004610911565b91612096565b3461034557610a103660046106a3565b61066a611956565b34610345576103a161038f610a2e366004610637565b90610ec7565b90916060828403126103455761036d610a4d84846103b5565b93610a5b81602086016103dd565b93604001610530565b34610345576103a161038f610a7a366004610a34565b91612a1c565b3461034557610a903660046106a3565b6103a17f3a895dd7c72f83eeb5f75bd8d64cf0f19825ab80804745a41f58e42088602c2061056c565b61036d61036d61036d9290565b61036d6000610ab9565b61036d610ac6565b3461034557610ae83660046106a3565b6103a161056c610ad0565b34610345576103a161062b610b093660046104fb565b6131fb565b3461034557610b1e3660046106a3565b61066a611902565b34610345576103a161038f610b3c366004610911565b9161276b565b34610345576103a161038f610b583660046104fb565b6135d3565b34610345576103a161056c610b733660046103ea565b90613527565b34610345576103a161038f610b8f366004610a34565b91612e19565b61036d6000600e6106f5565b3461034557610bb13660046106a3565b6103a1610768610b95565b346103455761066a610bcf3660046109b8565b6116e8565b34610345576103a161062b610bea366004610594565b906132b8565b346103455761066a610c033660046109b8565b611d40565b346103455761066a610c1b366004610637565b906110c5565b34610345576103a161038f610c373660046104fb565b6135c8565b3461034557610c4c3660046106a3565b6103a17fc2d561df6b4eeee3113d2cd8a29736f8b2bff7ceac4477c2f6285b7759363a0761056c565b3461034557610c853660046106a3565b6103a160008051602061398283398151915261056c565b634e487b7160e01b600052602160045260246000fd5b60041115610cbc57565b610c9c565b9061035782610cb2565b61036d90610cc1565b61037090610ccb565b80516001600160a01b031682526103579190610100908190610d0760208201516020860190610cd4565b610d1960408201516040860190610cd4565b610d2860608201516060860152565b610d3760808201516080860152565b610d4660a082015160a0860152565b60c08181015115159085015260e081810151151590850152610455565b610120810192916103579190610cdd565b34610345576103a1610d90610d8a3660046103ea565b906131db565b60405191829182610d63565b3461034557610dac3660046106a3565b61066a6118a0565b3461034557610dc43660046106a3565b6103a17f97667070c54ef182b0f5858b034beac1b6f3089aa2d3188bb1e8929f4fa9b92961056c565b34610345576103a161038f610e03366004610a34565b91613048565b34610345576103a161038f610e1f3660046103ea565b90612410565b3461034557610e353660046106a3565b6103a17ff83fbdecd7018694593b521db8f6c864cd19f8450388b844650c68334dac9ab561056c565b637965db0b60e01b6001600160e01b0319821614908115610e7d575090565b61036d91506001600160e01b0319166301ffc9a760e01b1490565b905b600052602052604060002090565b90610e9a9061072b565b61036d905b60ff1690565b61036d9054610eb2565b61036d91610ee191610edb60009182610e98565b01610ea8565b610ebd565b61036d9081565b61036d9054610ee6565b6001610f1061036d92610f08600090565b506000610e98565b01610eed565b9061035791610f2c610f2782610ef7565b610f40565b9061035791611191565b9061035791610f16565b61035790339061101e565b61036d90610ab9565b610ab9565b61046b610f7192602092610f6b815190565b94859290565b938491016107c0565b610fb861036d9392610fb2610fb2937f416363657373436f6e74726f6c3a206163636f756e7420000000000000000000815260170190565b90610f59565b7f206973206d697373696e6720726f6c6520000000000000000000000000000000815260110190565b634e487b7160e01b600052604160045260246000fd5b90601f01601f1916810190811067ffffffffffffffff82111761101957604052565b610fe1565b9061103061102c8284610ec7565b1590565b611038575050565b6110a69161036d61105461104e61108e9461152c565b92610f4b565b61106960209161106383610ab9565b906113cc565b9261108261107660405190565b94859384019283610f7a565b90810382520382610ff7565b60405162461bcd60e51b815291829160048301610817565b0390fd5b90610357916110bb610f2782610ef7565b9061035791611207565b90610357916110aa565b156110d657565b60405162461bcd60e51b815260206004820152602f60248201527f416363657373436f6e74726f6c3a2063616e206f6e6c792072656e6f756e636560448201527f20726f6c657320666f722073656c6600000000000000000000000000000000006064820152608490fd5b6103579190611162611152336103c2565b6001600160a01b038416146110cf565b611207565b9060ff905b9181191691161790565b9061118661036d61118d92151590565b8254611167565b9055565b9061119f61102c8284610ec7565b6111a7575050565b6111c160016111bc836000610edb8782610e98565b611176565b33906111f76111f16111f17f2f8788117e7eff1d82e926ec794901d17c78024a50270940304540a733656f0d9590565b9261072b565b9261120160405190565b600090a4565b906112128183610ec7565b61121a575050565b61122e60006111bc8382610edb8782610e98565b33906111f76111f16111f17ff6391f5c32d9c69d2a47ea670b442974b53935d1edc7fd64eb21e047a839171b9590565b61036d6001610ebd565b634e487b7160e01b600052601160045260246000fd5b8181029291811591840414171561129157565b611268565b9190820180921161129157565b906103576112b060405190565b9283610ff7565b67ffffffffffffffff811161101957602090601f01601f19160190565b906112e66112e1836112b7565b6112a3565b918252565b369037565b90610357611306611300846112d4565b936112b7565b601f1901602084016112eb565b634e487b7160e01b600052603260045260246000fd5b90611332825190565b811015611340570160200190565b611313565b8015611291576000190190565b610eb761036d61036d9290565b61036d9061137761137361036d9460ff1690565b9190565b901c90565b1561138357565b60405162461bcd60e51b8152806110a6600482016020808252818101527f537472696e67733a20686578206c656e67746820696e73756666696369656e74604082015260600190565b91906002926113fd6113f86113e9846113e488610ab9565b61127e565b6113f287610ab9565b90611296565b6112f0565b91600090603061141561140f84610ab9565b86611329565b5361144d611444600f60fb1b926113e46001998a95871a61143e61143888610ab9565b8b611329565b53610ab9565b6113f283610ab9565b905b611471575b5061036d9394509061146b61137361036d93610ab9565b1461137c565b9161147b86610ab9565b8311156114f6577f30313233343536373839616263646566000000000000000000000000000000006114ad600f610ab9565b82169060108210156113405787926114cd6114ea926114f0941a60f81b90565b851a6114d98789611329565b536114e46004611352565b9061135f565b93611345565b9061144f565b91611454565b61036d61036d61036d926001600160a01b031690565b61036d6014611352565b61036d61036d61036d9260ff1690565b61154961154461036d9261153e606090565b50610722565b6114fc565b611063611554611512565b61151c565b1490565b634e487b7160e01b600052602260045260246000fd5b9060016002830492168015611593575b602083101461158e57565b61155d565b91607f1691611583565b805460009392916115ba6115b083611573565b8085529360200190565b916001811690811561160c57506001146115d357505050565b6115e69192939450600052602060002090565b916000925b8184106115f85750500190565b8054848401526020909301926001016115eb565b92949550505060ff1916825215156020020190565b9061036d9161159d565b906103576116459261163c60405190565b93848092611621565b0383610ff7565b61036d9061162b565b61036d600461164c565b61036d9060a01c610eb7565b61036d905461165f565b6103c261036d61036d9290565b61036d90611675565b906001600160a01b039061116c565b906116aa61036d61118d9261072b565b825461168b565b9074ff00000000000000000000000000000000000000009060a01b61116c565b906116e161036d61118d92151590565b82546116b1565b6116f2600361166b565b6117d9576117036103c26000611682565b6001600160a01b038216146117c75761172561171e8261072b565b600361169a565b611731600160036116d1565b61175b817fa49807205ce4d355092ef5a8a18f56e8913cf4a201fbe287825b095693c21775611191565b611785817f97667070c54ef182b0f5858b034beac1b6f3089aa2d3188bb1e8929f4fa9b929611191565b61178d611b8b565b6117b77f27b541a16df0902e262f34789782092ab25125513b8ed73608e802951771b9289161072b565b906117c160405190565b600090a2565b604051637bfd2e8360e01b8152600490fd5b604051637396742f60e11b8152600490fd5b61036d906103c2565b61036d90546117eb565b336118246118176103c261181260036117f4565b61072b565b916001600160a01b031690565b0361183157610357611843565b6040516310f5403960e31b8152600490fd5b61185061102c600361166b565b61185c5761035761186e565b604051633165f6e960e21b8152600490fd5b7fa866f3901ec84758a10f30e8953c3818eef73da93dfa46cb6aa5b726fb65813f61189860405190565b80805b0390a1565b6103576117fe565b336118bc6118176103c261181260036117f4565b03611831576103576118d161102c600361166b565b61185c576103577f6dff2fe8fbb5b23bf0583bf5b2157ff62ca7e27f2fb4f404914cd0c205ced5cc61189860405190565b6103576118a8565b61036d600361166b565b61036d61181260036117f4565b61194a7fa49807205ce4d355092ef5a8a18f56e8913cf4a201fbe287825b095693c21775610f40565b6103575b610357611a09565b610357611921565b6119877fa49807205ce4d355092ef5a8a18f56e8913cf4a201fbe287825b095693c21775610f40565b6103575b610357611ad9565b61035761195e565b336119af6118176103c261181260036117f4565b036118315761035761194e565b61035761199b565b336119d86118176103c261181260036117f4565b036118315761035761198b565b6103576119c4565b6119fa61102c600361166b565b61185c57610357610357611a56565b6103576119ed565b611a19611aaa565b610357611a27600180611176565b3361189b7f62e78cea01bee320cd4e420270b5ea74000d11b0c9f74754ebdbfc544b05a258916108fa60405190565b610357611a11565b15611a6557565b60405162461bcd60e51b815260206004820152601060248201527f5061757361626c653a20706175736564000000000000000000000000000000006044820152606490fd5b610357611ab861102c61125e565b611a5e565b611aca61102c600361166b565b61185c57610357610357611b27565b610357611abd565b611ae9611b7b565b610357611af860006001611176565b3361189b7f5db9ee0a495bf2e6ff9c91a7834c1ba4fdd244a5e8aa4e537bd38aeae4b073aa916108fa60405190565b610357611ae1565b15611b3657565b60405162461bcd60e51b815260206004820152601460248201527f5061757361626c653a206e6f74207061757365640000000000000000000000006044820152606490fd5b610357611b8661125e565b611b2f565b610357611b9b61181260036117f4565b611bc5817fc2d561df6b4eeee3113d2cd8a29736f8b2bff7ceac4477c2f6285b7759363a07611191565b600080516020613982833981519152611191565b61035790611c067fc2d561df6b4eeee3113d2cd8a29736f8b2bff7ceac4477c2f6285b7759363a07610f40565b611c57565b15611c1257565b60405162461bcd60e51b815260206004820152601a60248201527f496e76616c69642067616d6520746f6b656e20616464726573730000000000006044820152606490fd5b611c7f61035791611812611c6e6103c26000611682565b6001600160a01b0383161415611c0b565b600e61169a565b61035790611bd9565b61035790611cbc7fc2d561df6b4eeee3113d2cd8a29736f8b2bff7ceac4477c2f6285b7759363a07610f40565b611d11565b15611cc857565b60405162461bcd60e51b8152806110a6600482016020808252818101527f496e76616c696420636f6e74726f6c20636f6e74726163742061646472657373604082015260600190565b611d3961035791611812611d286103c26000611682565b6001600160a01b0383161415611cc1565b600f61169a565b61035790611c8f565b906001600160c01b031916610e9a565b9392919093611d6f61102c610ee1876009611d49565b611d7e579361036d9394611db0565b6110a685611d8b60405190565b631668b7f560e11b8152918291600483016001600160c01b0319909116815260200190565b93929190611dcb82611dc661036d846006611d49565b6121bd565b611dd95761036d9394611e1a565b6110a6611de560405190565b6314c3117d60e11b81526001600160c01b031990921660048301526001600160a01b0390921660248201529081906044820190565b61036d93929190611e38600080516020613982833981519152610f40565b611f28565b6020810192916103579190610cd4565b906116e161036d61118d92610ccb565b9075ff0000000000000000000000000000000000000000009060a81b61116c565b90611e8e61036d61118d92610ccb565b8254611e5d565b906000199061116c565b90611eaf61036d61118d92610ab9565b8254611e95565b9061ff009060081b61116c565b90611ed361036d61118d92151590565b8254611eb6565b9062ff00009060101b61116c565b90611ef861036d61118d92151590565b8254611eda565b90610e9a90610ccb565b916020610357929493611f2460408201966000830190610cd4565b0152565b509190611f3482610ccb565b611f4461137361036d6003610ccb565b1161207357611f6061036d82611f5b866005611d49565b610ea8565b92611f758385611f70858261169a565b611e4d565b6000611f818186611e7e565b61201283611fe561036d4294611f9a8660018c01611e9f565b611fd360019a611fc18c60048301611fb28282611176565b611fbc8282611ec3565b611ee8565b6002611fcc8c61360f565b9101611e9f565b611fea84611fe561036d8a6006611d49565b6120a3565b5061200684611fe561036d8c6120018c6007611d49565b611eff565b50612001876008611d49565b5061201c826136f0565b6120576120517f0e2f2e51013a7bc3c60928cc4136f80675316bbd5373ffde8d1fb83ecd3510a1936001600160c01b03191690565b9361072b565b9361206d61206460405190565b92839283611f09565b0390a390565b6110a68261208060405190565b630a89a1cf60e11b815291829160048301611e3d565b61036d9291906000611d59565b906120c6611373610f54611544600061036d966120be600090565b500194610722565b612147565b8054821015611340576120e5600191600052602060002090565b91020190600090565b9160001960089290920291821b911b61116c565b919061211161036d61118d9390565b9083546120ee565b90815491680100000000000000008310156110195782612141916001610357950181556120cb565b90612102565b61215461102c838361218d565b15612186576121819161217c906001612175846121718482612119565b5490565b9301610e98565b611e9f565b600190565b5050600090565b6121ab9160016121a69261219f600090565b5001610e98565b610eed565b6121b86113736000610ab9565b141590565b906121d8611373610f54611544600061036d966120be600090565b61218d565b929190926121f261102c610ee1866009611d49565b612201579261036d929361220e565b6110a684611d8b60405190565b92919061222661102c83611dc661036d856006611d49565b6122345761036d9293612274565b6110a661224060405190565b6286efa760e31b81526001600160c01b031990921660048301526001600160a01b0390921660248201529081906044820190565b61036d929190612291600080516020613982833981519152610f40565b612329565b61036d9060a81c610eb7565b61036d9054612296565b919061211161036d61118d93610ab9565b610357916000916122ac565b6000808255906004906122df83600183016122bd565b6122ec83600283016122bd565b6122f983600383016122bd565b0155565b634e487b7160e01b600052600060045260246000fd5b9060000361232457610357906122c9565b6122fd565b50906123bb60006123b683611f5b8660056123a68461236361036d6123518184898989611d49565b6123688461236361036d8a6006611d49565b61241c565b506123918461236361036d8e61237f8c6007611d49565b95019461238b8661166b565b90611eff565b5061238b6123a0886008611d49565b916122a2565b506123b18483613895565b611d49565b612313565b6123c4826136f0565b42916124086123fe6120517f3c36fb00afdb12b7674df061e1b864449a906a133a15c7ef5a9d4aa999fd2cac936001600160c01b03191690565b9361057060405190565b0390a3600190565b61036d919060006121dd565b90612437611373610f54611544600061036d966120be600090565b6124a9565b9190820391821161129157565b61036d916008021c81565b9061036d9154612449565b634e487b7160e01b600052603160045260246000fd5b61035791600091612102565b805480156124a45760001901906124a161249b83836120cb565b90612475565b55565b61245f565b906124ba6121a68260018501610e98565b6000926124c684610ab9565b82146125195761036d9261251f949261252a9261252460019788936124f36124ed86610ab9565b8261243c565b88850191612511612502845490565b61250b89610ab9565b9061243c565b82810361252f575b50505090565b612481565b01610e98565b6122bd565b6121416125586125609461254f61254961217c95896120cb565b90612454565b928391886120cb565b888801610e98565b388080612519565b939291909361257e61102c610ee1876009611d49565b611d7e57929361036d92919061259d61102c83611dc687856006611d49565b6122345761036d939461036d939291906125c4600080516020613982833981519152610f40565b612611565b604090611f2461035794969593966125e960608401986000850190610cd4565b6020830190610cd4565b908152606081019392610357929091604091611f24905b6020830152565b5061261b83610ccb565b61262b61137361036d6003610ccb565b1161275e5761264261036d83611f5b846005611d49565b91829061264e8261166b565b61265786610cc1565b61266082610cc1565b14612753576126a0866127009661269a85611fe561036d856120018c8a6126948761236361036d6007946120018787611d49565b50611d49565b50611e4d565b60026126ab8761360f565b9301916126c1846126bb85610eed565b94611e9f565b6126ca856136f0565b42947fb89bd4e98e5aaf06cd928194e0368fcc55f180edc654df8e050d633104d0ec6e906001600160c01b03191696879261072b565b9788936127198861271060405190565b938493846125c9565b0390a36124087fefc251d262623a9cf4828a897d6c098756a95ca49a37dcdf99d6f31af8a515bc9361274a60405190565b938493846125f3565b505050505050600190565b6110a68361208060405190565b61036d9291906000612568565b939291909361278e61102c610ee1876009611d49565b611d7e57929361036d9291906127ad61102c83611dc687856006611d49565b6122345761036d939461036d939291906127d4600080516020613982833981519152610f40565b506127de83610ccb565b6127ee61137361036d6003610ccb565b116129075761280561036d83611f5b846005611d49565b9283612810816122a2565b9461281a83610cc1565b61282387610cc1565b146127535761285d836128b49361285788611fe561036d856120018c8f6126948761236361036d6008946120018787611d49565b50611e7e565b6128a46000612883600461287083610cc1565b61287988610cc1565b1494019384611176565b61289f61288f82610cc1565b61289887610cc1565b1484611ec3565b610cc1565b6128ad84610cc1565b1490611ee8565b6128bd826136f0565b42936124086128fd6128f77f42205b92250f5aee0d5de1e5755f5e37283f25e4c08ee5343e2488c463168967956001600160c01b03191690565b9561072b565b9561271060405190565b6110a68361291460405190565b63bccdb9a960e01b815291829160048301611e3d565b61036d9291906000612778565b939291909361294d61102c610ee1876009611d49565b611d7e57929361036d92919061296c61102c83611dc687856006611d49565b6122345761036d939461036d93929190612993600080516020613982833981519152610f40565b5060026129a861036d84611f5b856005611d49565b01926129b384610eed565b93818514612a1257816129c591611e9f565b6129ce826136f0565b4293612408612a086128f77fefc251d262623a9cf4828a897d6c098756a95ca49a37dcdf99d6f31af8a515bc956001600160c01b03191690565b9561274a60405190565b5050505050600190565b61036d9291906000612937565b9392919093612a3f61102c610ee1876009611d49565b611d7e579293339361036d93929190612a696000612a638789611f5b876005611d49565b016122a2565b612a7c612a766000610cc1565b91610cc1565b03612a8c5761036d949550612be6565b85826110a6612a9a60405190565b631881763960e31b81526001600160c01b031990921660048301526001600160a01b0390921660248201529081906044820190565b6001600160a01b039091168152606081019392610357929091604091611f249061260a565b61036d60a06112a3565b8054821015611340576120e5600591600052602060002090565b6103579190612b9090608090600490612b4281612b3c87516001600160a01b031690565b9061169a565b612b5d60018201612b3c60208801516001600160a01b031690565b612b7560028201612b6f604088015190565b90611e9f565b612b8760038201612b6f606088015190565b01920151151590565b90611176565b91906123245761035791612b18565b90815491680100000000000000008310156110195782612bcd91600161035795018155612afe565b90612b96565b9081526040810192916103579160200152565b50919033806001600160a01b03831614612de857600093612c0685610ab9565b8414612dc157612c2161102c84611dc661036d856006611d49565b612db357612c3c6002610f1061036d85611f5b866005611d49565b93612c54600c9561250b6121a686611f5b878b611d49565b818110612d8f57508242958360019883612c6c612af4565b91820190612c8291906001600160a01b03169052565b6001600160a01b0388166020820152612c9c856040830152565b612ca7896060830152565b891515608082015283612cbb83600b611d49565b90612cc591610ea8565b90612ccf91612ba5565b612cd891611d49565b90612ce291610ea8565b81612cec82610eed565b90612cf691611296565b612cff91611e9f565b83612d0b83600d611d49565b90612d1591610ea8565b81612d1f82610eed565b90612d2991611296565b612d3291611e9f565b7f4600603cd36eb0cf5f771965802bd2ab09e6c2e76b025f3031594f7935e889b8916001600160c01b03191692612d689061072b565b93612d729061072b565b94612d7c60405190565b918291612d899183612bd3565b0390a490565b6110a68491612d9d60405190565b6309e915af60e01b815293849360048501612acf565b90506110a661224060405190565b6110a684612dce60405190565b634e53fe2160e01b81529182916004830190815260200190565b6110a690612df560405190565b630c71b3bd60e01b8152918291600483016001600160a01b03909116815260200190565b61036d9291906000612a29565b9392919093612e3c61102c610ee1876009611d49565b611d7e579361036d9394612e5a565b60001981146112915760010190565b5091929160009190612e6b83610ab9565b851461303b57612e7c81600b611d49565b90612e8b61036d338094610ea8565b9593612e9681610ab9565b612ea161036d895490565b81108061302a575b156130155780612ec3612ebf612ef3938b612afe565b5090565b612ecf600182016117f4565b612ee16001600160a01b038916611817565b1480613003575b612ef8575b50612e4b565b612e96565b8084612f6d612f3b6002612f369501809c612f1561036d83610eed565b811115612ffa57612f2582610eed565b9687925b612b6f84612f3683610eed565b61243c565b9a612f5b612f4e8b611f5b8c600c611d49565b612b6f87612f3683610eed565b6121a6612f4e8c611f5b8c600d611d49565b612f7961137383610ab9565b14612fe7575b5050427f57f9b98d9936a8360b35fdf64000e34759b0d0d1a95205deb73ca7ff3092b37b612fb4876001600160c01b03191690565b90612fbe8961072b565b92612fc88b61072b565b94612fde612fd560405190565b92839283612bd3565b0390a438612eed565b6004612ff39201611176565b3884612f7f565b80968792612f29565b5061301060048201610ebd565b612ee8565b50915050611559929394506113739150610ab9565b5061303482610ab9565b8611612ea9565b6110a685612dce60405190565b61036d9291906000612e26565b90611dc661036d61036d93613068600090565b506006611d49565b61036d6101206112a3565b613083613070565b9060008252602080808080808080808a0160008152016000815201600081520160008152016000815201600081520160005b8152016000905250565b61036d61307b565b9061037090610cc1565b61036d9060081c610eb7565b61036d90546130d1565b61036d9060101c610eb7565b61036d90546130e7565b906103576131c8600461310e613070565b9461312861311b826117f4565b6001600160a01b03168752565b61313d6131348261166b565b602088016130c7565b613152613149826122a2565b604088016130c7565b61316861316160018301610eed565b6060880152565b61317e61317760028301610eed565b6080880152565b61319461318d60038301610eed565b60a0880152565b6131ab6131a2838301610ebd565b151560c0880152565b6131c26131b98383016130dd565b151560e0880152565b016130f3565b1515610100840152565b61036d906130fd565b61036d91611f5b6131f6926131ee6130bf565b506005611d49565b6131d2565b61320d61036d61036d92613068606090565b606090613219906132a3565b905090565b9061323961322d61047e845490565b92600052602060002090565b9060005b81811061324a5750505090565b90919261326e61326760019261325f87610eed565b815260200190565b9460010190565b92910161323d565b9061036d9161321e565b906103576116459261329160405190565b93848092613276565b61036d90613280565b600061036d916132b1606090565b500161329a565b61036d61036d9261200161320d936132ce606090565b506007611d49565b61036d61036d9261200161320d936132ec606090565b506008611d49565b61330661036d61036d92613068600090565b61331c600061036d92613317600090565b500190565b600061036d9161332a600090565b50015490565b61036d60606112a3565b613342613330565b906000825260208080840160006130b5565b61036d61333a565b90610357613394600261336d613330565b9461337e61337a82610eed565b8752565b610f1061338d60018301610eed565b6020880152565b6040840152565b61036d9061335c565b6133bb61036d916133b3613354565b50600a611d49565b61339b565b6113f26121a661036d936133d2600090565b50611f5b6134026133f06002610f1061036d86611f5b8b6005611d49565b61250b6121a685611f5b8a600c611d49565b94600d611d49565b67ffffffffffffffff81116110195760208091020190565b906112e66112e18361340a565b906103576134976004613440612af4565b9461344d61311b826117f4565b61346c61345c600183016117f4565b6001600160a01b03166020880152565b61348261347b60028301610eed565b6040880152565b61349161316160038301610eed565b01610ebd565b15156080840152565b61036d9061342f565b906134b2825490565b6134bb81613422565b926134cf6020850191600052602060002090565b6000915b8383106134e05750505050565b600560206001926134f0856134a0565b8152019201920191906134d3565b61036d906134a9565b61036d91611f5b6135229261351a606090565b50600b611d49565b6134fe565b61036d91611f5b6121a69261353a600090565b50600c611d49565b61036d91611f5b6121a692613555600090565b50600d611d49565b61036d9190613579600080516020613982833981519152610f40565b6111bc9161036d915060019283916009611d49565b61036d90600061355d565b61036d91906135b5600080516020613982833981519152610f40565b9061218191506111bc6000916009611d49565b61036d906000613599565b610ee161036d916135e2600090565b506009611d49565b634e487b7160e01b600052601260045260246000fd5b811561360a570490565b6135ea565b61365561036d9161361e600090565b906136296064610ab9565b91506136356000610cc1565b61363e82610cc1565b03613666575061364f6103e8610ab9565b9061127e565b6136606103e8610ab9565b90613600565b6136706001610cc1565b61367982610cc1565b0361368a575061364f6104e2610ab9565b6136946002610cc1565b61369d82610cc1565b036136ae575061364f6105dc610ab9565b6136bb612a766003610cc1565b036136cb5761364f6107d0610ab9565b61364f6103e8610ab9565b906136df825190565b811015611340576020809102010190565b6136fe61036d82600a611d49565b9060069061375b61320d61036d8361375561371f61330661036d848a611d49565b610f5461372d846008611d49565b9161374c61374361330661036d60008097611eff565b91848d01611e9f565b60018b01611e9f565b95611d49565b93825b61376961036d875190565b8410156137ba576137ae6137b4916113f26002610f1061036d8b6137a861379b8c6137958d6005611d49565b936136d6565b516001600160a01b031690565b90610ea8565b93612e4b565b9261375e565b925093505060026103579201611e9f565b61036d90600561127e565b600460009182808201558260018201556122ec83600283016122bd565b9060000361232457610357906137d6565b81811061380f575050565b8061381d60006005936137f3565b01613804565b909182811061383157505050565b61384961322d613843610357956137cb565b926137cb565b9081019101613804565b906801000000000000000081116110195781613870610357935490565b90828155613823565b600061035791613853565b906000036123245761035790613879565b90600b916138aa61036d83611f5b8487611d49565b916000906138b782610ab9565b6138c261036d865490565b81101561394257806138e360046138dc6138ec9489612afe565b5001610ebd565b6138f157612e4b565b6138b7565b61393d85612b6f613933896137a8600161392c8861392661391e60026139178489612afe565b5001610eed565b98600d611d49565b94612afe565b50016117f4565b91612f3683610eed565b612e4b565b50909250611f5b826139678561396285611f5b61252a986103579b611d49565b613884565b61397a8561252a85611f5b85600c611d49565b600d611d4956fe12274c208a40c3eca6c09426911c6b1a9bcdb6ae935ccde65ec88694c95cd3a7a264697066735822122016dcb96930eb01a0338012f270f702d8a5c29d2be34870bf1623356b82e8f2e264736f6c63430008140033",
  "linkReferences": {},
  "deployedLinkReferences": {}
}