{
  "_format": "hh-sol-artifact-1",
  "contractName": "MockGameToken",
  "sourceName": "contracts/mocks/MockGameToken.sol",
  "abi": [
    {
      "inputs": [],
      "stateMutability": "nonpayable",
      "type": "constructor"
    },
    {
      "anonymous": false,
      "inputs": [
        {
          "indexed": true,
          "internalType": "address",
          "name": "owner",
          "type": "address"
        },
        {
          "indexed": true,
          "internalType": "address",
          "name": "spender",
          "type": "address"
        },
        {
          "indexed": false,
          "internalType": "uint256",
          "name": "value",
          "type": "uint256"
        }
      ],
      "name": "Approval",
      "type": "event"
    },
    {
      "anonymous": false,
      "inputs": [
        {
          "indexed": false,
          "internalType": "address",
          "name": "account",
          "type": "address"
        }
      ],
      "name": "Paused",
      "type": "event"
    },
    {
      "anonymous": false,
      "inputs": [
        {
          "indexed": true,
          "internalType": "bytes32",
          "name": "role",
          "type": "bytes32"
        },
        {
          "indexed": true,
          "internalType": "bytes32",
          "name": "previousAdminRole",
          "type": "bytes32"
        },
        {
          "indexed": true,
          "internalType": "bytes32",
          "name": "newAdminRole",
          "type": "bytes32"
        }
      ],
      "name": "RoleAdminChanged",
      "type": "event"
    },
    {
      "anonymous": false,
      "inputs": [
        {
          "indexed": true,
          "internalType": "bytes32",
          "name": "role",
          "type": "bytes32"
        },
        {
          "indexed": true,
          "internalType": "address",
          "name": "account",
          "type": "address"
        },
        {
          "indexed": true,
          "internalType": "address",
          "name": "sender",
          "type": "address"
        }
      ],
      "name": "RoleGranted",
      "type": "event"
    },
    {
      "anonymous": false,
      "inputs": [
        {
          "indexed": true,
          "internalType": "bytes32",
          "name": "role",
          "type": "bytes32"
        },
        {
          "indexed": true,
          "internalType": "address",
          "name": "account",
          "type": "address"
        },
        {
          "indexed": true,
          "internalType": "address",
          "name": "sender",
          "type": "address"
        }
      ],
      "name": "RoleRevoked",
      "type": "event"
    },
    {
      "anonymous": false,
      "inputs": [
        {
          "indexed": true,
          "internalType": "address",
          "name": "from",
          "type": "address"
        },
        {
          "indexed": false,
          "internalType": "uint256",
          "name": "amount",
          "type": "uint256"
        },
        {
          "indexed": false,
          "internalType": "uint256",
          "name": "timestamp",
          "type": "uint256"
        }
      ],
      "name": "TokensBurned",
      "type": "event"
    },
    {
      "anonymous": false,
      "inputs": [
        {
          "indexed": true,
          "internalType": "address",
          "name": "to",
          "type": "address"
        },
        {
          "indexed": false,
          "internalType": "uint256",
          "name": "amount",
          "type": "uint256"
        },
        {
          "indexed": false,
          "internalType": "uint256",
          "name": "timestamp",
          "type": "uint256"
        }
      ],
      "name": "TokensMinted",
      "type": "event"
    },
    {
      "anonymous": false,
      "inputs": [
        {
          "indexed": true,
          "internalType": "address",
          "name": "from",
          "type": "address"
        },
        {
          "indexed": true,
          "internalType": "address",
          "name": "to",
          "type": "address"
        },
        {
          "indexed": false,
          "internalType": "uint256",
          "name": "value",
          "type": "uint256"
        }
      ],
      "name": "Transfer",
      "type": "event"
    },
    {
      "anonymous": false,
      "inputs": [
        {
          "indexed": false,
          "internalType": "address",
          "name": "account",
          "type": "address"
        }
      ],
      "name": "Unpaused",
      "type": "event"
    },
    {
      "inputs": [],
      "name": "ADMIN_ROLE",
      "outputs": [
        {
          "internalType": "bytes32",
          "name": "",
          "type": "bytes32"
        }
      ],
      "stateMutability": "view",
      "type": "function"
    },
    {
      "inputs": [],
      "name": "DEFAULT_ADMIN_ROLE",
      "outputs": [
        {
          "internalType": "bytes32",
          "name": "",
          "type": "bytes32"
        }
      ],
      "stateMutability": "view",
      "type": "function"
    },
    {
      "inputs": [],
      "name": "INITIAL_SUPPLY",
      "outputs": [
        {
          "internalType": "uint256",
          "name": "",
          "type": "uint256"
        }
      ],
      "stateMutability": "view",
      "type": "function"
    },
    {
      "inputs": [],
      "name": "MAX_SUPPLY",
      "outputs": [
        {
          "internalType": "uint256",
          "name": "",
          "type": "uint256"
        }
      ],
      "stateMutability": "view",
      "type": "function"
    },
    {
      "inputs": [],
      "name": "MINTER_ROLE",
      "outputs": [
        {
          "internalType": "bytes32",
          "name": "",
          "type": "bytes32"
        }
      ],
      "stateMutability": "view",
      "type": "function"
    },
    {
      "inputs": [
        {
          "internalType": "address",
          "name": "minter",
          "type": "address"
        }
      ],
      "name": "addMinter",
      "outputs": [],
      "stateMutability": "nonpayable",
      "type": "function"
    },
    {
      "inputs": [
        {
          "internalType": "address",
          "name": "owner",
          "type": "address"
        },
        {
          "internalType": "address",
          "name": "spender",
          "type": "address"
        }
      ],
      "name": "allowance",
      "outputs": [
        {
          "internalType": "uint256",
          "name": "",
          "type": "uint256"
        }
      ],
      "stateMutability": "view",
      "type": "function"
    },
    {
      "inputs": [
        {
          "internalType": "address",
          "name": "spender",
          "type": "address"
        },
        {
          "internalType": "uint256",
          "name": "amount",
          "type": "uint256"
        }
      ],
      "name": "approve",
      "outputs": [
        {
          "internalType": "bool",
          "name": "",
          "type": "bool"
        }
      ],
      "stateMutability": "nonpayable",
      "type": "function"
    },
    {
      "inputs": [
        {
          "internalType": "address",
          "name": "account",
          "type": "address"
        }
      ],
      "name": "balanceOf",
      "outputs": [
        {
          "internalType": "uint256",
          "name": "",
          "type": "uint256"
        }
      ],
      "stateMutability": "view",
      "type": "function"
    },
    {
      "inputs": [
        {
          "internalType": "uint256",
          "name": "amount",
          "type": "uint256"
        }
      ],
      "name": "burn",
      "outputs": [],
      "stateMutability": "nonpayable",
      "type": "function"
    },
    {
      "inputs": [
        {
          "internalType": "address",
          "name": "from",
          "type": "address"
        },
        {
          "internalType": "uint256",
          "name": "amount",
          "type": "uint256"
        }
      ],
      "name": "burnFrom",
      "outputs": [],
      "stateMutability": "nonpayable",
      "type": "function"
    },
    {
      "inputs": [],
      "name": "decimals",
      "outputs": [
        {
          "internalType": "uint8",
          "name": "",
          "type": "uint8"
        }
      ],
      "stateMutability": "view",
      "type": "function"
    },
    {
      "inputs": [
        {
          "internalType": "address",
          "name": "spender",
          "type": "address"
        },
        {
          "internalType": "uint256",
          "name": "subtractedValue",
          "type": "uint256"
        }
      ],
      "name": "decreaseAllowance",
      "outputs": [
        {
          "internalType": "bool",
          "name": "",
          "type": "bool"
        }
      ],
      "stateMutability": "nonpayable",
      "type": "function"
    },
    {
      "inputs": [
        {
          "internalType": "bytes32",
          "name": "role",
          "type": "bytes32"
        }
      ],
      "name": "getRoleAdmin",
      "outputs": [
        {
          "internalType": "bytes32",
          "name": "",
          "type": "bytes32"
        }
      ],
      "stateMutability": "view",
      "type": "function"
    },
    {
      "inputs": [
        {
          "internalType": "bytes32",
          "name": "role",
          "type": "bytes32"
        },
        {
          "internalType": "address",
          "name": "account",
          "type": "address"
        }
      ],
      "name": "grantRole",
      "outputs": [],
      "stateMutability": "nonpayable",
      "type": "function"
    },
    {
      "inputs": [
        {
          "internalType": "bytes32",
          "name": "role",
          "type": "bytes32"
        },
        {
          "internalType": "address",
          "name": "account",
          "type": "address"
        }
      ],
      "name": "hasRole",
      "outputs": [
        {
          "internalType": "bool",
          "name": "",
          "type": "bool"
        }
      ],
      "stateMutability": "view",
      "type": "function"
    },
    {
      "inputs": [
        {
          "internalType": "address",
          "name": "spender",
          "type": "address"
        },
        {
          "internalType": "uint256",
          "name": "addedValue",
          "type": "uint256"
        }
      ],
      "name": "increaseAllowance",
      "outputs": [
        {
          "internalType": "bool",
          "name": "",
          "type": "bool"
        }
      ],
      "stateMutability": "nonpayable",
      "type": "function"
    },
    {
      "inputs": [
        {
          "internalType": "address",
          "name": "to",
          "type": "address"
        },
        {
          "internalType": "uint256",
          "name": "amount",
          "type": "uint256"
        }
      ],
      "name": "mint",
      "outputs": [],
      "stateMutability": "nonpayable",
      "type": "function"
    },
    {
      "inputs": [],
      "name": "name",
      "outputs": [
        {
          "internalType": "string",
          "name": "",
          "type": "string"
        }
      ],
      "stateMutability": "view",
      "type": "function"
    },
    {
      "inputs": [],
      "name": "pause",
      "outputs": [],
      "stateMutability": "nonpayable",
      "type": "function"
    },
    {
      "inputs": [],
      "name": "paused",
      "outputs": [
        {
          "internalType": "bool",
          "name": "",
          "type": "bool"
        }
      ],
      "stateMutability": "view",
      "type": "function"
    },
    {
      "inputs": [
        {
          "internalType": "address",
          "name": "minter",
          "type": "address"
        }
      ],
      "name": "removeMinter",
      "outputs": [],
      "stateMutability": "nonpayable",
      "type": "function"
    },
    {
      "inputs": [
        {
          "internalType": "bytes32",
          "name": "role",
          "type": "bytes32"
        },
        {
          "internalType": "address",
          "name": "account",
          "type": "address"
        }
      ],
      "name": "renounceRole",
      "outputs": [],
      "stateMutability": "nonpayable",
      "type": "function"
    },
    {
      "inputs": [
        {
          "internalType": "bytes32",
          "name": "role",
          "type": "bytes32"
        },
        {
          "internalType": "address",
          "name": "account",
          "type": "address"
        }
      ],
      "name": "revokeRole",
      "outputs": [],
      "stateMutability": "nonpayable",
      "type": "function"
    },
    {
      "inputs": [
        {
          "internalType": "bytes4",
          "name": "interfaceId",
          "type": "bytes4"
        }
      ],
      "name": "supportsInterface",
      "outputs": [
        {
          "internalType": "bool",
          "name": "",
          "type": "bool"
        }
      ],
      "stateMutability": "view",
      "type": "function"
    },
    {
      "inputs": [],
      "name": "symbol",
      "outputs": [
        {
          "internalType": "string",
          "name": "",
          "type": "string"
        }
      ],
      "stateMutability": "view",
      "type": "function"
    },
    {
      "inputs": [],
      "name": "totalSupply",
      "outputs": [
        {
          "internalType": "uint256",
          "name": "",
          "type": "uint256"
        }
      ],
      "stateMutability": "view",
      "type": "function"
    },
    {
      "inputs": [
        {
          "internalType": "address",
          "name": "to",
          "type": "address"
        },
        {
          "internalType": "uint256",
          "name": "amount",
          "type": "uint256"
        }
      ],
      "name": "transfer",
      "outputs": [
        {
          "internalType": "bool",
          "name": "",
          "type": "bool"
        }
      ],
      "stateMutability": "nonpayable",
      "type": "function"
    },
    {
      "inputs": [
        {
          "internalType": "address",
          "name": "from",
          "type": "address"
        },
        {
          "internalType": "address",
          "name": "to",
          "type": "address"
        },
        {
          "internalType": "uint256",
          "name": "amount",
          "type": "uint256"
        }
      ],
      "name": "transferFrom",
      "outputs": [
        {
          "internalType": "bool",
          "name": "",
          "type": "bool"
        }
      ],
      "stateMutability": "nonpayable",
      "type": "function"
    },
    {
      "inputs": [],
      "name": "unpause",
      "outputs": [],
      "stateMutability": "nonpayable",
      "type": "function"
    }
  ],
  "bytecode": "0x60806040523462000026576200001462000143565b604051611d13620007798239611d1390f35b600080fd5b634e487b7160e01b600052604160045260246000fd5b90601f01601f191681019081106001600160401b038211176200006357604052565b6200002b565b90620000806200007860405190565b928362000041565b565b6001600160401b0381116200006357602090601f01601f19160190565b90620000b5620000af8362000082565b62000069565b918252565b620000c6600d6200009f565b6c23b0b6b2a220a7902a37b5b2b760991b602082015290565b620000e9620000ba565b90565b620000f860046200009f565b6347414d4560e01b602082015290565b620000e9620000ec565b620000e9620000e9620000e99290565b620000e9600062000112565b620000e969d3c21bcecceda100000062000112565b6200016262000151620000df565b6200015b62000108565b9062000214565b620000806200017062000122565b6200017d33809262000495565b620001a9817fa49807205ce4d355092ef5a8a18f56e8913cf4a201fbe287825b095693c2177562000495565b620001d5817f9f2df0fed2c77648de5860a4cc508cd0818c85b8b8a1ab4ceeef8d981c8956a662000495565b620001df6200012e565b906200061b565b9060ff905b9181191691161790565b9062000208620000e96200021092151590565b8254620001e6565b9055565b9062000220916200022e565b6200008060006006620001f5565b620000809182918291829162000427565b634e487b7160e01b600052602260045260246000fd5b906001600283049216801562000278575b60208310146200027257565b6200023f565b91607f169162000266565b9160001960089290920291821b911b620001eb565b9190620002ad620000e9620002109362000112565b90835462000283565b620000809160009162000298565b818110620002d0575050565b80620002e06000600193620002b6565b01620002c4565b9190601f8111620002f757505050565b6200030b6200008093600052602060002090565b906020601f8401819004830193106200032f575b6020601f909101040190620002c4565b90915081906200031f565b9062000344815190565b906001600160401b03821162000063576200036c8262000365855462000255565b85620002e7565b602090601f8311600114620003ab57620002109291600091836200039f575b5050600019600883021c1916906002021790565b0151905038806200038b565b601f19831691620003c185600052602060002090565b9260005b8181106200040257509160029391856001969410620003e8575b50505002019055565b01516000196008601f8516021c19169055388080620003df565b91936020600181928787015181550195019201620003c5565b9062000080916200033a565b9062000439620000809260036200041b565b60046200041b565b905b600052602052604060002090565b620000e99062000467906001600160a01b031682565b6001600160a01b031690565b620000e99062000451565b620000e99062000473565b9062000443906200047e565b90620004aa620004a6828462000525565b1590565b620004b3575050565b620004da6001620004d4836000620004cd87600562000441565b0162000489565b620001f5565b3390620005146200050d6200050d7f2f8788117e7eff1d82e926ec794901d17c78024a50270940304540a733656f0d9590565b926200047e565b926200051f60405190565b600090a4565b620000e9916000620004cd62000547936200053e600090565b50600562000441565b5460ff1690565b62000467620000e9620000e99290565b620000e9906200054e565b156200057157565b60405162461bcd60e51b815260206004820152601f60248201527f45524332303a206d696e7420746f20746865207a65726f2061646472657373006044820152606490fd5b620000e99081565b620000e99054620005b6565b634e487b7160e01b600052601160045260246000fd5b91908201809211620005ee57565b620005ca565b9060001990620001eb565b9062000613620000e9620002109262000112565b8254620005f4565b6000620006a56200068a8362000631846200055e565b9362000654620006418662000467565b6200064c8462000467565b141562000569565b620006618783876200070a565b620006846200067c88620006766002620005be565b620005e0565b6002620005ff565b62000489565b6200069e856200069a83620005be565b0190565b90620005ff565b620006f8620006e0620006d97fddf252ad1be2c89b69c2b068fc378daa952ba7f163c4a11628f55a4df523b3ef936200047e565b936200047e565b93620006eb60405190565b9182918290815260200190565b0390a3565b5050506200008062000757565b90620000809291620006fd565b156200071f57565b60405162461bcd60e51b815260206004820152601060248201526f14185d5cd8589b194e881c185d5cd95960821b6044820152606490fd5b6200008062000769620004a66200076f565b62000717565b60065460ff169056fe6080604052600436101561001257600080fd5b60003560e01c806301ffc9a7146101f257806306fdde03146101ed578063095ea7b3146101e857806318160ddd146101e357806323b872dd146101de578063248a9ca3146101d95780632f2ff15d146101d45780632ff2e9dc146101cf5780633092afd5146101ca578063313ce567146101c557806332cb6b0c146101c057806336568abe146101bb57806339509351146101b65780633f4ba83a146101b157806340c10f19146101ac57806342966c68146101a75780635c975abb146101a257806370a082311461019d57806375b238fc1461019857806379cc6790146101935780638456cb591461018e57806391d148541461018957806395d89b4114610184578063983b2d561461017f578063a217fddf1461017a578063a457c2d714610175578063a9059cbb14610170578063d53913931461016b578063d547741f146101665763dd62ed3e0361020a57610779565b610746565b61070d565b6106f1565b6106d5565b6106ba565b610690565b610675565b610659565b610641565b610628565b6105ef565b6105d4565b6105b9565b6105a1565b610588565b610570565b610554565b61053b565b610520565b6104d5565b6104bd565b61048e565b610448565b61040a565b6103da565b61037e565b610362565b6102dd565b610235565b6001600160e01b031981165b0361020a57565b600080fd5b9050359061021c826101f7565b565b9060208282031261020a576102329161020f565b90565b3461020a5761026261025061024b36600461021e565b610795565b60405191829182901515815260200190565b0390f35b600091031261020a57565b60005b8381106102845750506000910152565b8181015183820152602001610274565b6102b56102be6020936102c8936102a9815190565b80835293849260200190565b95869101610271565b601f01601f191690565b0190565b602080825261023292910190610294565b3461020a576102ed366004610266565b6102626102f8610cc2565b604051918291826102cc565b6001600160a01b031690565b6001600160a01b038116610203565b9050359061021c82610310565b80610203565b9050359061021c8261032c565b919060408382031261020a5761023290610359818561031f565b93602001610332565b3461020a5761026261025061037836600461033f565b90610d48565b3461020a5761038e366004610266565b610262610399610ced565b6040515b9182918290815260200190565b909160608284031261020a576102326103c3848461031f565b936103d1816020860161031f565b93604001610332565b3461020a576102626102506103f03660046103aa565b91610d53565b9060208282031261020a5761023291610332565b3461020a576102626103996104203660046103f6565b61085f565b919060408382031261020a576102329061043f8185610332565b9360200161031f565b3461020a5761046161045b366004610425565b90610896565b604051005b6102326102326102329290565b61023269d3c21bcecceda1000000610466565b610232610473565b3461020a5761049e366004610266565b610262610399610486565b9060208282031261020a576102329161031f565b3461020a576104616104d03660046104a9565b611cbe565b3461020a576104e5366004610266565b6102626104f0610ce3565b6040519182918260ff909116815260200190565b6102326a52b7d2dcc80cd2e4000000610466565b610232610504565b3461020a57610530366004610266565b610262610399610518565b3461020a5761046161054e366004610425565b90610aa1565b3461020a5761026261025061056a36600461033f565b90610d8c565b3461020a57610580366004610266565b610461611b55565b3461020a5761046161059b36600461033f565b906116d9565b3461020a576104616105b43660046103f6565b61189c565b3461020a576105c9366004610266565b610262610250610bc0565b3461020a576102626103996105ea3660046104a9565b610cf7565b3461020a576105ff366004610266565b6102627fa49807205ce4d355092ef5a8a18f56e8913cf4a201fbe287825b095693c21775610399565b3461020a5761046161063b36600461033f565b90611a71565b3461020a57610651366004610266565b610461611aaf565b3461020a5761026261025061066f366004610425565b90610826565b3461020a57610685366004610266565b6102626102f8610ccc565b3461020a576104616106a33660046104a9565b611c5e565b6102326000610466565b6102326106a8565b3461020a576106ca366004610266565b6102626103996106b2565b3461020a576102626102506106eb36600461033f565b90610e1d565b3461020a5761026261025061070736600461033f565b90610d13565b3461020a5761071d366004610266565b6102627f9f2df0fed2c77648de5860a4cc508cd0818c85b8b8a1ab4ceeef8d981c8956a6610399565b3461020a57610461610759366004610425565b90610a25565b919060408382031261020a576102329061043f818561031f565b3461020a5761026261039961078f36600461075f565b90610d28565b637965db0b60e01b6001600160e01b03198216149081156107b4575090565b61023291506001600160e01b0319166301ffc9a760e01b1490565b905b600052602052604060002090565b610304610232610232926001600160a01b031690565b610232906107df565b610232906107f5565b906107d1906107fe565b610232905b60ff1690565b6102329054610811565b6102329160006108436108499361083b600090565b5060056107cf565b01610807565b61081c565b6102329081565b610232905461084e565b60016108706102329261083b600090565b01610855565b9061021c9161088c6108878261085f565b6108a0565b9061021c91610af1565b9061021c91610876565b61021c90339061097e565b61023290610466565b610466565b6102c86108d1926020926108cb815190565b94859290565b93849101610271565b6109186102329392610912610912937f416363657373436f6e74726f6c3a206163636f756e7420000000000000000000815260170190565b906108b9565b7f206973206d697373696e6720726f6c6520000000000000000000000000000000815260110190565b634e487b7160e01b600052604160045260246000fd5b90601f01601f1916810190811067ffffffffffffffff82111761097957604052565b610941565b9061099061098c8284610826565b1590565b610998575050565b610a06916102326109b46109ae6109ee946114d1565b926108ab565b6109c96020916109c383610466565b90611371565b926109e26109d660405190565b948593840192836108da565b90810382520382610957565b60405162461bcd60e51b8152918291600483016102cc565b0390fd5b9061021c91610a1b6108878261085f565b9061021c91610b68565b9061021c91610a0a565b15610a3657565b60405162461bcd60e51b815260206004820152602f60248201527f416363657373436f6e74726f6c3a2063616e206f6e6c792072656e6f756e636560448201527f20726f6c657320666f722073656c6600000000000000000000000000000000006064820152608490fd5b61021c9190610ac2610ab233610304565b6001600160a01b03841614610a2f565b610b68565b9060ff905b9181191691161790565b90610ae6610232610aed92151590565b8254610ac7565b9055565b90610aff61098c8284610826565b610b07575050565b610b226001610b1d8360006108438760056107cf565b610ad6565b3390610b58610b52610b527f2f8788117e7eff1d82e926ec794901d17c78024a50270940304540a733656f0d9590565b926107fe565b92610b6260405190565b600090a4565b90610b738183610826565b610b7b575050565b610b906000610b1d83826108438760056107cf565b3390610b58610b52610b527ff6391f5c32d9c69d2a47ea670b442974b53935d1edc7fd64eb21e047a839171b9590565b610232600661081c565b634e487b7160e01b600052602260045260246000fd5b9060016002830492168015610c00575b6020831014610bfb57565b610bca565b91607f1691610bf0565b80546000939291610c27610c1d83610be0565b8085529360200190565b9160018116908115610c795750600114610c4057505050565b610c539192939450600052602060002090565b916000925b818410610c655750500190565b805484840152602090930192600101610c58565b92949550505060ff1916825215156020020190565b9061023291610c0a565b9061021c610cb292610ca960405190565b93848092610c8e565b0383610957565b61023290610c98565b6102326003610cb9565b6102326004610cb9565b6108166102326102329290565b6102326012610cd6565b6102326002610855565b610d0e61023291610d06600090565b506000610807565b610855565b610d23919033610fb4565b610fb4565b600190565b61023291610d43610d0e92610d3b600090565b506001610807565b610807565b610d2391903361113c565b610d23929190610d1e83338361120a565b634e487b7160e01b600052601160045260246000fd5b91908201809211610d8757565b610d64565b610d239190610da53392610da08385610d28565b610d7a565b9161113c565b15610db257565b60405162461bcd60e51b815260206004820152602560248201527f45524332303a2064656372656173656420616c6c6f77616e63652062656c6f7760448201527f207a65726f0000000000000000000000000000000000000000000000000000006064820152608490fd5b610d239190610da53392610e318385610d28565b610e3d82821015610dab565b0390565b6103046102326102329290565b61023290610e41565b15610e5e57565b60405162461bcd60e51b815260206004820152602560248201527f45524332303a207472616e736665722066726f6d20746865207a65726f20616460448201527f64726573730000000000000000000000000000000000000000000000000000006064820152608490fd5b15610ed057565b60405162461bcd60e51b815260206004820152602360248201527f45524332303a207472616e7366657220746f20746865207a65726f206164647260448201526265737360e81b6064820152608490fd5b15610f2857565b60405162461bcd60e51b815260206004820152602660248201527f45524332303a207472616e7366657220616d6f756e742065786365656473206260448201527f616c616e636500000000000000000000000000000000000000000000000000006064820152608490fd5b9060001990610acc565b90610fad610232610aed92610466565b8254610f93565b611048611035836000610ffb610fea610fcc83610e4e565b6103046001600160a01b0382166001600160a01b038a161415610e57565b6001600160a01b0384161415610ec9565b611006878387611cd2565b610d436110268861101a610d0e8986610807565b610e3d82821015610f21565b6110308784610807565b610f9d565b611042856102c883610855565b90610f9d565b61108861107e6110787fddf252ad1be2c89b69c2b068fc378daa952ba7f163c4a11628f55a4df523b3ef936107fe565b936107fe565b9361039d60405190565b0390a3565b1561109457565b60405162461bcd60e51b8152602060048201526024808201527f45524332303a20617070726f76652066726f6d20746865207a65726f206164646044820152637265737360e01b6064820152608490fd5b156110ec57565b60405162461bcd60e51b815260206004820152602260248201527f45524332303a20617070726f766520746f20746865207a65726f206164647265604482015261737360f01b6064820152608490fd5b61117b61116a61114c6000610e4e565b6103046001600160a01b0382166001600160a01b038616141561108d565b6001600160a01b03841614156110e5565b61118e8361103084610d43856001610807565b61108861107e6110787f8c5be1e5ebec7d5bd14f71427d1e84f3dd0314c0f7b2291e5b200ac8c7c3b925936107fe565b156111c557565b60405162461bcd60e51b815260206004820152601d60248201527f45524332303a20696e73756666696369656e7420616c6c6f77616e63650000006044820152606490fd5b906112158183610d28565b6000198103611225575b50505050565b61123993610da591610e3d828210156111be565b3880808061121f565b81810292918115918404141715610d8757565b9061021c61126260405190565b9283610957565b67ffffffffffffffff811161097957602090601f01601f19160190565b9061129861129383611269565b611255565b918252565b369037565b9061021c6112b86112b284611286565b93611269565b601f19016020840161129d565b634e487b7160e01b600052603260045260246000fd5b906112e4825190565b8110156112f2570160200190565b6112c5565b8015610d87576000190190565b6102329061131c6113186102329460ff1690565b9190565b901c90565b1561132857565b60405162461bcd60e51b815280610a06600482016020808252818101527f537472696e67733a20686578206c656e67746820696e73756666696369656e74604082015260600190565b91906002926113a261139d61138e8461138988610466565b611242565b61139787610466565b90610d7a565b6112a2565b9160009060306113ba6113b484610466565b866112db565b536113f26113e9600f60fb1b926113896001998a95871a6113e36113dd88610466565b8b6112db565b53610466565b61139783610466565b905b611416575b506102329394509061141061131861023293610466565b14611321565b9161142086610466565b83111561149b577f3031323334353637383961626364656600000000000000000000000000000000611452600f610466565b82169060108210156112f257879261147261148f92611495941a60f81b90565b851a61147e87896112db565b536114896004610cd6565b90611304565b936112f7565b906113f4565b916113f9565b610232610232610232926001600160a01b031690565b6102326014610cd6565b6102326102326102329260ff1690565b6114ee6114e9610232926114e3606090565b506107f5565b6114a1565b6109c36114f96114b7565b6114c1565b61021c919061152c7f9f2df0fed2c77648de5860a4cc508cd0818c85b8b8a1ab4ceeef8d981c8956a66108a0565b9061021c9161153961172f565b611635565b1561154557565b60405162461bcd60e51b815260206004820152601b60248201527f43616e6e6f74206d696e7420746f207a65726f206164647265737300000000006044820152606490fd5b1561159157565b60405162461bcd60e51b815260206004820152601d60248201527f416d6f756e74206d7573742062652067726561746572207468616e20300000006044820152606490fd5b156115dd57565b60405162461bcd60e51b815260206004820152601760248201527f576f756c6420657863656564206d617820737570706c790000000000000000006044820152606490fd5b90815260408101929161021c9160200152565b61166561165d60006108b461164c61030483610e4e565b6001600160a01b038616141561153e565b835b1161158a565b61168961167483610da0610ced565b611682611318610232610504565b11156115d6565b611693828261178e565b426116be7f2e8ac5177a616f2aec08c3048f5021e4e9743ece034e8d83ba5caf76688bb475926107fe565b926116d46116cb60405190565b92839283611622565b0390a2565b9061021c916114fe565b156116ea57565b60405162461bcd60e51b815260206004820152601060248201527f5061757361626c653a20706175736564000000000000000000000000000000006044820152606490fd5b61021c61173d61098c610bc0565b6116e3565b1561174957565b60405162461bcd60e51b815260206004820152601f60248201527f45524332303a206d696e7420746f20746865207a65726f2061646472657373006044820152606490fd5b6000611048611035836117a084610e4e565b936117bf6001600160a01b0386166001600160a01b0384161415611742565b6117ca878387611cd2565b610d436117db88610da06002610855565b6002610f9d565b61021c906117ee61172f565b61183f565b156117fa57565b60405162461bcd60e51b815260206004820152601460248201527f496e73756666696369656e742062616c616e63650000000000000000000000006044820152606490fd5b61185261184c6000610466565b8261165f565b3361186761185f82610cf7565b8311156117f3565b6118718282611952565b426116be7fccbea4088a3b7ae9ca2d15fab9a9742a4075b4d7247768a1eecea917565aba00926107fe565b61021c906117e2565b156118ac57565b60405162461bcd60e51b815260206004820152602160248201527f45524332303a206275726e2066726f6d20746865207a65726f206164647265736044820152607360f81b6064820152608490fd5b1561190257565b60405162461bcd60e51b815260206004820152602260248201527f45524332303a206275726e20616d6f756e7420657863656564732062616c616e604482015261636560f01b6064820152608490fd5b6000906119b261196183610e4e565b926119806001600160a01b0385166001600160a01b03851614156118a5565b61198b858585611cd2565b611030836119ac876119a0610d0e8487610807565b610e3d828210156118fb565b92610807565b6110486117db84610e3d6002610855565b9061021c916119d061172f565b611a2e565b156119dc57565b60405162461bcd60e51b815260206004820152601660248201527f496e73756666696369656e7420616c6c6f77616e6365000000000000000000006044820152606490fd5b91908203918211610d8757565b611a3b61165d6000610466565b611a4761185f82610cf7565b61186733611a6a84611a598386610d28565b611a65828210156119d5565b611a21565b908361113c565b9061021c916119c3565b611aa47fa49807205ce4d355092ef5a8a18f56e8913cf4a201fbe287825b095693c217756108a0565b61021c61021c611b19565b61021c611a7b565b611abf61172f565b61021c611ace60016006610ad6565b33611b147f62e78cea01bee320cd4e420270b5ea74000d11b0c9f74754ebdbfc544b05a25891611afd60405190565b918291826001600160a01b03909116815260200190565b0390a1565b61021c611ab7565b611b4a7fa49807205ce4d355092ef5a8a18f56e8913cf4a201fbe287825b095693c217756108a0565b61021c61021c611ba3565b61021c611b21565b611b65611bf7565b61021c611b7460006006610ad6565b33611b147f5db9ee0a495bf2e6ff9c91a7834c1ba4fdd244a5e8aa4e537bd38aeae4b073aa91611afd60405190565b61021c611b5d565b15611bb257565b60405162461bcd60e51b815260206004820152601460248201527f5061757361626c653a206e6f74207061757365640000000000000000000000006044820152606490fd5b61021c611c02610bc0565b611bab565b61021c90611c347fa49807205ce4d355092ef5a8a18f56e8913cf4a201fbe287825b095693c217756108a0565b61021c907f9f2df0fed2c77648de5860a4cc508cd0818c85b8b8a1ab4ceeef8d981c8956a6610af1565b61021c90611c07565b61021c90611c947fa49807205ce4d355092ef5a8a18f56e8913cf4a201fbe287825b095693c217756108a0565b61021c907f9f2df0fed2c77648de5860a4cc508cd0818c85b8b8a1ab4ceeef8d981c8956a6610b68565b61021c90611c67565b50505061021c61172f565b9061021c9291611cc756fea26469706673582212201d4392a77ff509fb11164aeb45aeebca73975cbefb67e4be2ba3b03184282ce764736f6c63430008140033",
  "linkReferences": {},
  "deployedLinkReferences": {}
}