{
  "_format": "hh-sol-artifact-1",
  "contractName": "Registry",
  "sourceName": "contracts/core/Registry.sol",
  "abi": [
    {
      "inputs": [
        {
          "internalType": "address",
          "name": "admin",
          "type": "address"
        }
      ],
      "stateMutability": "nonpayable",
      "type": "constructor"
    },
    {
      "inputs": [],
      "name": "InvalidModuleAddress",
      "type": "error"
    },
    {
      "inputs": [
        {
          "internalType": "bytes32",
          "name": "moduleId",
          "type": "bytes32"
        }
      ],
      "name": "ModuleAlreadyEnabled",
      "type": "error"
    },
    {
      "inputs": [
        {
          "internalType": "bytes32",
          "name": "moduleId",
          "type": "bytes32"
        }
      ],
      "name": "ModuleAlreadyRegistered",
      "type": "error"
    },
    {
      "inputs": [],
      "name": "ModuleInitializationFailed",
      "type": "error"
    },
    {
      "inputs": [
        {
          "internalType": "bytes32",
          "name": "moduleId",
          "type": "bytes32"
        }
      ],
      "name": "ModuleNotEnabled",
      "type": "error"
    },
    {
      "inputs": [
        {
          "internalType": "bytes32",
          "name": "moduleId",
          "type": "bytes32"
        }
      ],
      "name": "ModuleNotRegistered",
      "type": "error"
    },
    {
      "anonymous": false,
      "inputs": [
        {
          "indexed": true,
          "internalType": "bytes32",
          "name": "moduleId",
          "type": "bytes32"
        }
      ],
      "name": "ModuleDisabled",
      "type": "event"
    },
    {
      "anonymous": false,
      "inputs": [
        {
          "indexed": true,
          "internalType": "bytes32",
          "name": "moduleId",
          "type": "bytes32"
        }
      ],
      "name": "ModuleEnabled",
      "type": "event"
    },
    {
      "anonymous": false,
      "inputs": [
        {
          "indexed": true,
          "internalType": "bytes32",
          "name": "moduleId",
          "type": "bytes32"
        },
        {
          "indexed": true,
          "internalType": "address",
          "name": "moduleAddress",
          "type": "address"
        },
        {
          "indexed": false,
          "internalType": "string",
          "name": "version",
          "type": "string"
        }
      ],
      "name": "ModuleRegistered",
      "type": "event"
    },
    {
      "anonymous": false,
      "inputs": [
        {
          "indexed": true,
          "internalType": "bytes32",
          "name": "moduleId",
          "type": "bytes32"
        },
        {
          "indexed": true,
          "internalType": "address",
          "name": "oldAddress",
          "type": "address"
        },
        {
          "indexed": true,
          "internalType": "address",
          "name": "newAddress",
          "type": "address"
        },
        {
          "indexed": false,
          "internalType": "string",
          "name": "newVersion",
          "type": "string"
        }
      ],
      "name": "ModuleUpgraded",
      "type": "event"
    },
    {
      "anonymous": false,
      "inputs": [
        {
          "indexed": false,
          "internalType": "address",
          "name": "account",
          "type": "address"
        }
      ],
      "name": "Paused",
      "type": "event"
    },
    {
      "anonymous": false,
      "inputs": [
        {
          "indexed": true,
          "internalType": "address",
          "name": "admin",
          "type": "address"
        }
      ],
      "name": "RegistryInitialized",
      "type": "event"
    },
    {
      "anonymous": false,
      "inputs": [
        {
          "indexed": true,
          "internalType": "bytes32",
          "name": "role",
          "type": "bytes32"
        },
        {
          "indexed": true,
          "internalType": "bytes32",
          "name": "previousAdminRole",
          "type": "bytes32"
        },
        {
          "indexed": true,
          "internalType": "bytes32",
          "name": "newAdminRole",
          "type": "bytes32"
        }
      ],
      "name": "RoleAdminChanged",
      "type": "event"
    },
    {
      "anonymous": false,
      "inputs": [
        {
          "indexed": true,
          "internalType": "bytes32",
          "name": "role",
          "type": "bytes32"
        },
        {
          "indexed": true,
          "internalType": "address",
          "name": "account",
          "type": "address"
        },
        {
          "indexed": true,
          "internalType": "address",
          "name": "sender",
          "type": "address"
        }
      ],
      "name": "RoleGranted",
      "type": "event"
    },
    {
      "anonymous": false,
      "inputs": [
        {
          "indexed": true,
          "internalType": "bytes32",
          "name": "role",
          "type": "bytes32"
        },
        {
          "indexed": true,
          "internalType": "address",
          "name": "account",
          "type": "address"
        },
        {
          "indexed": true,
          "internalType": "address",
          "name": "sender",
          "type": "address"
        }
      ],
      "name": "RoleRevoked",
      "type": "event"
    },
    {
      "anonymous": false,
      "inputs": [
        {
          "indexed": false,
          "internalType": "address",
          "name": "account",
          "type": "address"
        }
      ],
      "name": "Unpaused",
      "type": "event"
    },
    {
      "inputs": [],
      "name": "ADMIN_ROLE",
      "outputs": [
        {
          "internalType": "bytes32",
          "name": "",
          "type": "bytes32"
        }
      ],
      "stateMutability": "view",
      "type": "function"
    },
    {
      "inputs": [],
      "name": "DEFAULT_ADMIN_ROLE",
      "outputs": [
        {
          "internalType": "bytes32",
          "name": "",
          "type": "bytes32"
        }
      ],
      "stateMutability": "view",
      "type": "function"
    },
    {
      "inputs": [],
      "name": "MODULE_MANAGER_ROLE",
      "outputs": [
        {
          "internalType": "bytes32",
          "name": "",
          "type": "bytes32"
        }
      ],
      "stateMutability": "view",
      "type": "function"
    },
    {
      "inputs": [
        {
          "internalType": "bytes32",
          "name": "moduleId",
          "type": "bytes32"
        }
      ],
      "name": "disableModule",
      "outputs": [],
      "stateMutability": "nonpayable",
      "type": "function"
    },
    {
      "inputs": [],
      "name": "emergencyDisableAllModules",
      "outputs": [],
      "stateMutability": "nonpayable",
      "type": "function"
    },
    {
      "inputs": [
        {
          "internalType": "bytes32",
          "name": "moduleId",
          "type": "bytes32"
        }
      ],
      "name": "enableModule",
      "outputs": [],
      "stateMutability": "nonpayable",
      "type": "function"
    },
    {
      "inputs": [],
      "name": "getAllModules",
      "outputs": [
        {
          "internalType": "bytes32[]",
          "name": "",
          "type": "bytes32[]"
        }
      ],
      "stateMutability": "view",
      "type": "function"
    },
    {
      "inputs": [],
      "name": "getEnabledModuleCount",
      "outputs": [
        {
          "internalType": "uint256",
          "name": "",
          "type": "uint256"
        }
      ],
      "stateMutability": "view",
      "type": "function"
    },
    {
      "inputs": [],
      "name": "getEnabledModules",
      "outputs": [
        {
          "internalType": "bytes32[]",
          "name": "",
          "type": "bytes32[]"
        }
      ],
      "stateMutability": "view",
      "type": "function"
    },
    {
      "inputs": [
        {
          "internalType": "bytes32",
          "name": "moduleId",
          "type": "bytes32"
        }
      ],
      "name": "getModule",
      "outputs": [
        {
          "internalType": "address",
          "name": "",
          "type": "address"
        }
      ],
      "stateMutability": "view",
      "type": "function"
    },
    {
      "inputs": [],
      "name": "getModuleCount",
      "outputs": [
        {
          "internalType": "uint256",
          "name": "",
          "type": "uint256"
        }
      ],
      "stateMutability": "view",
      "type": "function"
    },
    {
      "inputs": [
        {
          "internalType": "bytes32",
          "name": "moduleId",
          "type": "bytes32"
        }
      ],
      "name": "getModuleInfo",
      "outputs": [
        {
          "components": [
            {
              "internalType": "address",
              "name": "moduleAddress",
              "type": "address"
            },
            {
              "internalType": "string",
              "name": "version",
              "type": "string"
            },
            {
              "internalType": "bool",
              "name": "isEnabled",
              "type": "bool"
            },
            {
              "internalType": "uint256",
              "name": "registeredAt",
              "type": "uint256"
            },
            {
              "internalType": "uint256",
              "name": "enabledAt",
              "type": "uint256"
            }
          ],
          "internalType": "struct Registry.ModuleInfo",
          "name": "",
          "type": "tuple"
        }
      ],
      "stateMutability": "view",
      "type": "function"
    },
    {
      "inputs": [
        {
          "internalType": "bytes32",
          "name": "moduleId",
          "type": "bytes32"
        }
      ],
      "name": "getModuleVersion",
      "outputs": [
        {
          "internalType": "string",
          "name": "",
          "type": "string"
        }
      ],
      "stateMutability": "view",
      "type": "function"
    },
    {
      "inputs": [
        {
          "internalType": "bytes32",
          "name": "role",
          "type": "bytes32"
        }
      ],
      "name": "getRoleAdmin",
      "outputs": [
        {
          "internalType": "bytes32",
          "name": "",
          "type": "bytes32"
        }
      ],
      "stateMutability": "view",
      "type": "function"
    },
    {
      "inputs": [
        {
          "internalType": "bytes32",
          "name": "role",
          "type": "bytes32"
        },
        {
          "internalType": "address",
          "name": "account",
          "type": "address"
        }
      ],
      "name": "grantRole",
      "outputs": [],
      "stateMutability": "nonpayable",
      "type": "function"
    },
    {
      "inputs": [
        {
          "internalType": "bytes32",
          "name": "role",
          "type": "bytes32"
        },
        {
          "internalType": "address",
          "name": "account",
          "type": "address"
        }
      ],
      "name": "hasRole",
      "outputs": [
        {
          "internalType": "bool",
          "name": "",
          "type": "bool"
        }
      ],
      "stateMutability": "view",
      "type": "function"
    },
    {
      "inputs": [
        {
          "internalType": "bytes32",
          "name": "moduleId",
          "type": "bytes32"
        }
      ],
      "name": "isModuleEnabled",
      "outputs": [
        {
          "internalType": "bool",
          "name": "",
          "type": "bool"
        }
      ],
      "stateMutability": "view",
      "type": "function"
    },
    {
      "inputs": [],
      "name": "pause",
      "outputs": [],
      "stateMutability": "nonpayable",
      "type": "function"
    },
    {
      "inputs": [],
      "name": "paused",
      "outputs": [
        {
          "internalType": "bool",
          "name": "",
          "type": "bool"
        }
      ],
      "stateMutability": "view",
      "type": "function"
    },
    {
      "inputs": [
        {
          "internalType": "address",
          "name": "moduleAddress",
          "type": "address"
        }
      ],
      "name": "registerModule",
      "outputs": [],
      "stateMutability": "nonpayable",
      "type": "function"
    },
    {
      "inputs": [
        {
          "internalType": "bytes32",
          "name": "role",
          "type": "bytes32"
        },
        {
          "internalType": "address",
          "name": "account",
          "type": "address"
        }
      ],
      "name": "renounceRole",
      "outputs": [],
      "stateMutability": "nonpayable",
      "type": "function"
    },
    {
      "inputs": [
        {
          "internalType": "bytes32",
          "name": "role",
          "type": "bytes32"
        },
        {
          "internalType": "address",
          "name": "account",
          "type": "address"
        }
      ],
      "name": "revokeRole",
      "outputs": [],
      "stateMutability": "nonpayable",
      "type": "function"
    },
    {
      "inputs": [
        {
          "internalType": "bytes4",
          "name": "interfaceId",
          "type": "bytes4"
        }
      ],
      "name": "supportsInterface",
      "outputs": [
        {
          "internalType": "bool",
          "name": "",
          "type": "bool"
        }
      ],
      "stateMutability": "view",
      "type": "function"
    },
    {
      "inputs": [],
      "name": "unpause",
      "outputs": [],
      "stateMutability": "nonpayable",
      "type": "function"
    },
    {
      "inputs": [
        {
          "internalType": "bytes32",
          "name": "moduleId",
          "type": "bytes32"
        },
        {
          "internalType": "address",
          "name": "newModuleAddress",
          "type": "address"
        }
      ],
      "name": "upgradeModule",
      "outputs": [],
      "stateMutability": "nonpayable",
      "type": "function"
    }
  ],
  "bytecode": "0x60806040523462000030576200001e62000018620000d3565b620001a6565b604051612417620003da823961241790f35b600080fd5b634e487b7160e01b600052604160045260246000fd5b90601f01601f191681019081106001600160401b038211176200006d57604052565b62000035565b906200008a6200008260405190565b92836200004b565b565b6001600160a01b031690565b90565b6001600160a01b038116036200003057565b905051906200008a826200009b565b9060208282031262000030576200009891620000ad565b62000098620027f180380380620000ea8162000073565b928339810190620000bc565b6200008c62000098620000989290565b6200009890620000f6565b156200011957565b60405162461bcd60e51b815260206004820152601560248201527f496e76616c69642061646d696e206164647265737300000000000000000000006044820152606490fd5b6200009862000098620000989290565b6200009860006200015e565b62000098906200008c906001600160a01b031682565b62000098906200017a565b620000989062000190565b620001b0620002bc565b620001d6620001c46200008c600062000106565b6001600160a01b038316141562000111565b620001eb81620001e56200016e565b6200032b565b62000217817fa49807205ce4d355092ef5a8a18f56e8913cf4a201fbe287825b095693c217756200032b565b62000243817f79dfcec784e591aafcf60db7db7b029a5c8b12aac4afd4e8c4eb740430405fa66200032b565b6200026f7f43dcf2166be267d8f6dc31580b9b1a605fddb5259a48dddd50b0348ac38fb24e916200019b565b906200027a60405190565b600090a2565b6200009860016200015e565b90600019905b9181191691161790565b90620002b062000098620002b8926200015e565b82546200028c565b9055565b620002c662000301565b6200008a620002d462000280565b60026200029c565b9060ff9062000292565b90620002f962000098620002b892151590565b8254620002dc565b6200008a60006001620002e6565b905b600052602052604060002090565b9062000311906200019b565b90620003406200033c8284620003ba565b1590565b62000349575050565b6200036f6001620003698360006200036287826200030f565b016200031f565b620002e6565b3390620003a9620003a2620003a27f2f8788117e7eff1d82e926ec794901d17c78024a50270940304540a733656f0d9590565b926200019b565b92620003b460405190565b600090a4565b6200009891620003d29162000362600091826200030f565b5460ff169056fe6080604052600436101561001257600080fd5b60003560e01c806301ffc9a7146101a2578063211b20a31461019d578063248a9ca3146101985780632f2ff15d1461019357806336568abe1461018e5780633aaa49da146101895780633f4ba83a1461018457806357d562671461017f5780635c975abb1461017a57806375b238fc146101755780638456cb591461017057806385acd6411461016b5780638d8d6c731461016657806391d1485414610161578063a217fddf1461015c578063ad64ae4b14610157578063b6450b8d14610152578063c13981371461014d578063cb17ed3e14610148578063d4d9b55c14610143578063d547741f1461013e578063dafa995514610139578063e9ec2c8b14610134578063eed01af11461012f5763f7a87c94036101ba576106d3565b6106aa565b61068f565b610674565b61065b565b610642565b610609565b6105e2565b610560565b610548565b610519565b6104de565b6104c6565b610490565b610478565b61043f565b610424565b610409565b6103f1565b6103ce565b6103b5565b610397565b61032d565b610306565b6101e5565b6001600160e01b031981165b036101ba57565b600080fd5b905035906101cc826101a7565b565b906020828203126101ba576101e2916101bf565b90565b346101ba576102126102006101fb3660046101ce565b6106fb565b60405191829182901515815260200190565b0390f35b806101b3565b905035906101cc82610216565b906020828203126101ba576101e29161021c565b6001600160a01b031690565b60005b83811061025c5750506000910152565b818101518382015260200161024c565b61028d6102966020936102a093610281815190565b80835293849260200190565b95869101610249565b601f01601f191690565b0190565b80516001600160a01b03168252906101e2906080806102d260a084016020870151858203602087015261026c565b604080870151151590850152946102ee60608201516060860152565b0151910152565b60208082526101e2929101906102a4565b346101ba5761021261032161031c366004610229565b611ff9565b604051918291826102f5565b346101ba57610212610348610343366004610229565b6107bc565b6040519182918290815260200190565b6001600160a01b0381166101b3565b905035906101cc82610358565b91906040838203126101ba576101e29061038e818561021c565b93602001610367565b346101ba576103b06103aa366004610374565b906107fb565b604051005b346101ba576103b06103c8366004610374565b90610a06565b346101ba576103b06103e1366004610229565b61180b565b60009103126101ba57565b346101ba576104013660046103e6565b6103b06121bf565b346101ba576104193660046103e6565b6102126103486120c8565b346101ba576104343660046103e6565b610212610200610b25565b346101ba5761044f3660046103e6565b6102127fa49807205ce4d355092ef5a8a18f56e8913cf4a201fbe287825b095693c21775610348565b346101ba576104883660046103e6565b6103b0612131565b346101ba576102126104ab6104a6366004610229565b611e48565b6040515b918291826001600160a01b03909116815260200190565b346101ba576104d63660046103e6565b6103b06123d9565b346101ba576102126102006104f4366004610374565b9061078c565b6101e26101e26101e29290565b6101e260006104fa565b6101e2610507565b346101ba576105293660046103e6565b610212610348610511565b906020828203126101ba576101e291610367565b346101ba576103b061055b366004610534565b611483565b346101ba57610212610200610576366004610229565b611e61565b9061059b61059461058a845190565b8084529260200190565b9260200190565b9060005b8181106105ac5750505090565b9091926105c96105c26001928651815260200190565b9460200190565b92910161059f565b60208082526101e29291019061057b565b346101ba576105f23660046103e6565b6102126105fd61200d565b604051918291826105d1565b346101ba576106193660046103e6565b6102127f79dfcec784e591aafcf60db7db7b029a5c8b12aac4afd4e8c4eb740430405fa6610348565b346101ba576103b0610655366004610374565b90611e3e565b346101ba576103b061066e366004610374565b9061098a565b346101ba576106843660046103e6565b6102126105fd6120be565b346101ba5761069f3660046103e6565b6102126103486120f3565b346101ba576103b06106bd366004610229565b611971565b60208082526101e29291019061026c565b346101ba576102126106ee6106e9366004610229565b611f30565b6040515b918291826106c2565b637965db0b60e01b6001600160e01b031982161490811561071a575090565b6101e291506001600160e01b0319166301ffc9a760e01b1490565b905b600052602052604060002090565b61023d6101e26101e2926001600160a01b031690565b6101e290610745565b6101e29061075b565b9061073790610764565b6101e2905b60ff1690565b6101e29054610777565b6101e2916107a6916107a060009182610735565b0161076d565b610782565b6101e29081565b6101e290546107ab565b60016107d56101e2926107cd600090565b506000610735565b016107b2565b906101cc916107f16107ec826107bc565b610805565b906101cc91610a56565b906101cc916107db565b6101cc9033906108e3565b6101e2906104fa565b6104fa565b6102a061083692602092610830815190565b94859290565b93849101610249565b61087d6101e29392610877610877937f416363657373436f6e74726f6c3a206163636f756e7420000000000000000000815260170190565b9061081e565b7f206973206d697373696e6720726f6c6520000000000000000000000000000000815260110190565b634e487b7160e01b600052604160045260246000fd5b90601f01601f1916810190811067ffffffffffffffff8211176108de57604052565b6108a6565b906108f56108f1828461078c565b1590565b6108fd575050565b61096b916101e261091961091361095394610df3565b92610810565b61092e602091610928836104fa565b90610c93565b9261094761093b60405190565b9485938401928361083f565b908103825203826108bc565b60405162461bcd60e51b8152918291600483016106c2565b0390fd5b906101cc916109806107ec826107bc565b906101cc91610ace565b906101cc9161096f565b1561099b57565b60405162461bcd60e51b815260206004820152602f60248201527f416363657373436f6e74726f6c3a2063616e206f6e6c792072656e6f756e636560448201527f20726f6c657320666f722073656c6600000000000000000000000000000000006064820152608490fd5b6101cc9190610a27610a173361023d565b6001600160a01b03841614610994565b610ace565b9060ff905b9181191691161790565b90610a4b6101e2610a5292151590565b8254610a2c565b9055565b90610a646108f1828461078c565b610a6c575050565b610a866001610a818360006107a08782610735565b610a3b565b3390610abc610ab6610ab67f2f8788117e7eff1d82e926ec794901d17c78024a50270940304540a733656f0d9590565b92610764565b92610ac660405190565b80805b0390a4565b90610ad9818361078c565b610ae1575050565b610af56000610a8183826107a08782610735565b3390610abc610ab6610ab67ff6391f5c32d9c69d2a47ea670b442974b53935d1edc7fd64eb21e047a839171b9590565b6101e26001610782565b634e487b7160e01b600052601160045260246000fd5b81810292918115918404141715610b5857565b610b2f565b91908201809211610b5857565b906101cc610b7760405190565b92836108bc565b67ffffffffffffffff81116108de57602090601f01601f19160190565b90610bad610ba883610b7e565b610b6a565b918252565b369037565b906101cc610bcd610bc784610b9b565b93610b7e565b601f190160208401610bb2565b634e487b7160e01b600052603260045260246000fd5b90610bf9825190565b811015610c07570160200190565b610bda565b8015610b58576000190190565b61077c6101e26101e29290565b6101e290610c3e610c3a6101e29460ff1690565b9190565b901c90565b15610c4a57565b60405162461bcd60e51b81528061096b600482016020808252818101527f537472696e67733a20686578206c656e67746820696e73756666696369656e74604082015260600190565b9190600292610cc4610cbf610cb084610cab886104fa565b610b45565b610cb9876104fa565b90610b5d565b610bb7565b916000906030610cdc610cd6846104fa565b86610bf0565b53610d14610d0b600f60fb1b92610cab6001998a95871a610d05610cff886104fa565b8b610bf0565b536104fa565b610cb9836104fa565b905b610d38575b506101e293945090610d32610c3a6101e2936104fa565b14610c43565b91610d42866104fa565b831115610dbd577f3031323334353637383961626364656600000000000000000000000000000000610d74600f6104fa565b8216906010821015610c07578792610d94610db192610db7941a60f81b90565b851a610da08789610bf0565b53610dab6004610c19565b90610c26565b93610c0c565b90610d16565b91610d1b565b6101e26101e26101e2926001600160a01b031690565b6101e26014610c19565b6101e26101e26101e29260ff1690565b610e10610e0b6101e292610e05606090565b5061075b565b610dc3565b610928610e1b610dd9565b610de3565b6101cc90610e4d7f79dfcec784e591aafcf60db7db7b029a5c8b12aac4afd4e8c4eb740430405fa6610805565b6101cc90610e596114d8565b610e6a90610e65611541565b6111ca565b6101cc611573565b61023d6101e26101e29290565b6101e290610e72565b905051906101cc82610216565b906020828203126101ba576101e291610e88565b6040513d6000823e3d90fd5b90929192610ec5610ba882610b7e565b938185526020850190828401116101ba576101cc92610249565b9080601f830112156101ba5781516101e292602001610eb5565b906020828203126101ba57815167ffffffffffffffff81116101ba576101e29201610edf565b6101e29061023d565b6101e29054610f1f565b6101e260a0610b6a565b906001600160a01b0390610a31565b90610f5b6101e2610a5292610764565b8254610f3c565b634e487b7160e01b600052602260045260246000fd5b9060016002830492168015610f98575b6020831014610f9357565b610f62565b91607f1691610f88565b9160001960089290920291821b911b610a31565b9190610fc76101e2610a52936104fa565b908354610fa2565b6101cc91600091610fb6565b818110610fe6575050565b80610ff46000600193610fcf565b01610fdb565b9190601f811161100957505050565b61101b6101cc93600052602060002090565b906020601f84018190048301931061103d575b6020601f909101040190610fdb565b909150819061102e565b90611050815190565b9067ffffffffffffffff82116108de576110748261106e8554610f78565b85610ffa565b602090601f83116001146110af57610a529291600091836110a4575b5050600019600883021c1916906002021790565b015190503880611090565b601f198316916110c485600052602060002090565b9260005b818110611102575091600293918560019694106110e9575b50505002019055565b01516000196008601f8516021c191690553880806110e0565b919360206001819287870151815501950192016110c8565b906101cc91611047565b9060001990610a31565b9061113e6101e2610a52926104fa565b8254611124565b6101cc91906111b39060809060049061116f8161116987516001600160a01b031690565b90610f4b565b61118760018201611181602088015190565b9061111a565b6111a16002820161119b6040880151151590565b90610a3b565b6111b9600382016111b3606088015190565b9061112e565b0192015190565b906101cc91611145565b6000906111d682610e7f565b916001600160a01b0383166001600160a01b03831614611471576112016111fc83610764565b610764565b9263a1308f279161121b61121460405190565b9360e01b90565b8352602083600481885afa92831561143c57600093611441575b506354fd4d509461124f61124860405190565b9660e01b90565b86528186600481845afa95861561143c57600096611419575b506003926112a0611293611286856112808989610735565b01610f28565b926001600160a01b031690565b916001600160a01b031690565b036113f25763c4d66de8906112b430610764565b91813b156101ba5785926112f5926112de8680946112d160405190565b9687958694859360e01b90565b83526001600160a01b031660048301526024820190565b03925af190816113c6575b506113b957506113a7565b61134e611347429561081961131e610f32565b6001600160a01b038c1683820152976113388d60208b0152565b82151560408a01526060890152565b6080860152565b610735565b6111c0565b61136381600461157e565b506113a26113986113927ff45369c3f7e6d5c7d1f4536055b3964e878abbce7204bca95aff657d3303cd959390565b93610764565b936106f260405190565b0390a3565b6040516349373c1560e01b8152600490fd5b611353906113589361130b565b6113e590843d86116113eb575b6113dd81836108bc565b8101906103e6565b38611300565b503d6113d3565b61096b846113ff60405190565b639ec85aa560e01b81529182916004830190815260200190565b61143591963d8091833e61142d81836108bc565b810190610ef9565b9438611268565b610ea9565b61146391935060203d811161146a575b61145b81836108bc565b810190610e95565b9138611235565b503d611451565b604051632e7f3c7f60e11b8152600490fd5b6101cc90610e20565b1561149357565b60405162461bcd60e51b815260206004820152601060248201527f5061757361626c653a20706175736564000000000000000000000000000000006044820152606490fd5b6101cc6114e66108f1610b25565b61148c565b6101e260026104fa565b156114fc57565b60405162461bcd60e51b815260206004820152601f60248201527f5265656e7472616e637947756172643a207265656e7472616e742063616c6c006044820152606490fd5b6101cc61154e60026107b2565b6115626115596114eb565b918214156114f5565b600261112e565b6101e260016104fa565b6101cc611562611569565b9061159560006101e293611590600090565b500190565b6115fa565b8054821015610c07576115b4600191600052602060002090565b91020190600090565b9190610fc76101e2610a529390565b90815491680100000000000000008310156108de57826115f49160016101cc9501815561159a565b906115bd565b6116076108f18383611640565b15611639576116349161162f9060016116288461162484826115cc565b5490565b9301610735565b61112e565b600190565b5050600090565b61165e91600161165992611652600090565b5001610735565b6107b2565b61166b610c3a60006104fa565b141590565b6101cc9061169d7f79dfcec784e591aafcf60db7db7b029a5c8b12aac4afd4e8c4eb740430405fa6610805565b6101cc906116a96114d8565b610e6a906116b5611541565b6116c36101e2826003610735565b6116cc81610f28565b906000916116df61129361023d85610e7f565b146117e457600281016116f181610782565b6117bd576111fc8361172b9361170c6111fc94600190610a3b565b611719426004830161112e565b61172487600661157e565b5001610f28565b63ebf8a3e690803b156101ba5761175091839161174760405190565b93849260e01b90565b8252600490829084905af1801561143c576117a0575b50506117907f51b2dc199208e98ada43025e81c42a03803d516b406957f4067803d0f24d8b1f9190565b9061179a60405190565b600090a2565b816117b692903d106113eb576113dd81836108bc565b3880611766565b61096b846117ca60405190565b63eb9e285f60e01b81529182916004830190815260200190565b61096b836117f160405190565b6374fce40560e01b81529182916004830190815260200190565b6101cc90611670565b6101cc906118417f79dfcec784e591aafcf60db7db7b029a5c8b12aac4afd4e8c4eb740430405fa6610805565b6101cc9061184d6114d8565b610e6a90611859611541565b6118676101e2826003610735565b61187081610f28565b9060009161188361129361023d85610e7f565b146117e457600281016118986108f182610782565b61194a576111fc836118d1936118b1826111fc95610a3b565b6118c66118bd836104fa565b6004830161112e565b61172487600661197a565b63aa7318aa90803b156101ba576118ed91839161174760405190565b8252600490829084905af1801561143c5761192d575b50506117907f1c925d295bc85a3052cd19f118806ded7a9972fdf0d7da672734dcbdcc227bd19190565b8161194392903d106113eb576113dd81836108bc565b3880611903565b61096b8461195760405190565b6318c3151f60e31b81529182916004830190815260200190565b6101cc90611814565b9061198c60006101e293611590600090565b6119fe565b91908203918211610b5857565b6101e2916008021c81565b906101e2915461199e565b634e487b7160e01b600052603160045260246000fd5b6101cc916000916115bd565b805480156119f95760001901906119f66119f0838361159a565b906119ca565b55565b6119b4565b90611a0f6116598260018501610735565b600092611a1b846104fa565b8214611a6e576101e292611a749492611a7f92611a796001978893611a48611a42866104fa565b82611991565b88850191611a66611a57845490565b611a60896104fa565b90611991565b828103611a84575b50505090565b6119d6565b01610735565b610fcf565b6115f4611aad611ab594611aa4611a9e61162f958961159a565b906119a9565b9283918861159a565b888801610735565b388080611a6e565b6101cc9190611aeb7fa49807205ce4d355092ef5a8a18f56e8913cf4a201fbe287825b095693c21775610805565b906101cc91611af86114d8565b90610e6a91611b05611541565b611b56565b15611b1157565b60405162461bcd60e51b815260206004820152601260248201527f4d6f64756c65204944206d69736d6174636800000000000000000000000000006044820152606490fd5b90600091611b6383610e7f565b906001600160a01b0382166001600160a01b0384161461147157611b8b6101e2826003610735565b9380850192611b9f61129361128686610f28565b14611e3157611bad83610f28565b92611bba6111fc86610764565b9063a1308f27611bd3611bcc60405190565b9160e01b90565b8152602081600481865afa801561143c57611bf891600091611e13575b508514611b0a565b6354fd4d5096611c11611c0a60405190565b9860e01b90565b88528388600481865afa97881561143c57600098611df7575b506002810191611c3983610782565b9081611d81575b63c4d66de8611c4e30610764565b863b156101ba57876112de8c93611c72611c6760405190565b948593849360e01b90565b0381838b5af19081611d65575b50611d5c57506113a7565b611c97896001840161111a565b611ce1575b50505050610ac9611cd7611cd1611cd17fe4c85ec1bd042035946c5cedbdb7516ebeccbdbd0170d5db0d5a675f7137274e9490565b94610764565b946106f260405190565b611cf0611cfa92600190610a3b565b600442910161112e565b611d0583600661157e565b5063ebf8a3e690803b156101ba57611d2291839161174760405190565b8252600490829084905af1801561143c57611d3f575b8080611c9c565b81611d5592903d106113eb576113dd81836108bc565b3880611d38565b611c8a91610f4b565b611d7b90893d8b116113eb576113dd81836108bc565b38611c7f565b611d8b8685610a3b565b611d9687600661197a565b50611da36111fc89610764565b63aa7318aa90803b156101ba57611dbf91889161174760405190565b8252600490829084905af1801561143c57611ddb575b50611c40565b611df190873d89116113eb576113dd81836108bc565b38611dd5565b611e0c9198503d8086833e61142d81836108bc565b9638611c2a565b611e2b915060203d811161146a5761145b81836108bc565b38611bf0565b61096b826117f160405190565b906101cc91611abd565b60006112806101e292611e59600090565b506003610735565b6002611e726101e292611e59600090565b01610782565b80546000939291611e95611e8b83610f78565b8085529360200190565b9160018116908115611ee75750600114611eae57505050565b611ec19192939450600052602060002090565b916000925b818410611ed35750500190565b805484840152602090930192600101611ec6565b92949550505060ff1916825215156020020190565b906101e291611e78565b906101cc611f2092611f1760405190565b93848092611efc565b03836108bc565b6101e290611f06565b6001611f416101e292611e59606090565b01611f27565b611f4f610f32565b906000825260208080808086016060815201600081520160008152016000905250565b6101e2611f47565b906101cc611fe96004611f8b610f32565b94611fa5611f9882610f28565b6001600160a01b03168752565b611fbb611fb460018301611f06565b6020880152565b611fd3611fca60028301610782565b15156040880152565b6107d5611fe2600383016107b2565b6060880152565b6080840152565b6101e290611f7a565b6120086101e291611e59611f72565b611ff0565b6101e260045b60609061201f906120a9565b905090565b9061203f61203361058a845490565b92600052602060002090565b9060005b8181106120505750505090565b90919261207461206d600192612065876107b2565b815260200190565b9460010190565b929101612043565b906101e291612024565b906101cc611f209261209760405190565b9384809261207c565b6101e290612086565b60006101e2916120b7606090565b50016120a0565b6101e26006612013565b6101e260045b6120df60006101e292611590600090565b60006101e2916120ed600090565b50015490565b6101e260066120ce565b6121267fa49807205ce4d355092ef5a8a18f56e8913cf4a201fbe287825b095693c21775610805565b6101cc6101cc612183565b6101cc6120fd565b6121416114d8565b6101cc61214f600180610a3b565b3361217e7f62e78cea01bee320cd4e420270b5ea74000d11b0c9f74754ebdbfc544b05a258916104af60405190565b0390a1565b6101cc612139565b6121b47fa49807205ce4d355092ef5a8a18f56e8913cf4a201fbe287825b095693c21775610805565b6101cc6101cc61220d565b6101cc61218b565b6121cf612261565b6101cc6121de60006001610a3b565b3361217e7f5db9ee0a495bf2e6ff9c91a7834c1ba4fdd244a5e8aa4e537bd38aeae4b073aa916104af60405190565b6101cc6121c7565b1561221c57565b60405162461bcd60e51b815260206004820152601460248201527f5061757361626c653a206e6f74207061757365640000000000000000000000006044820152606490fd5b6101cc61226c610b25565b612215565b61229a7fa49807205ce4d355092ef5a8a18f56e8913cf4a201fbe287825b095693c21775610805565b6101cc6122cb565b6000198114610b585760010190565b906122ba825190565b811015610c07576020809102010190565b6006906122d782612013565b916000926122e4846104fa565b6122ef6101e2835190565b8110156123d25761230761230382846122b1565b5190565b906123436111fc6111fc886123206101e2876003610735565b61232d8260028301610a3b565b6123396118bd836104fa565b611724878a61197a565b9163aa7318aa833b156101ba5787612362916123b19561174760405190565b8252600490829084905af190816123b6575b505061239e7f1c925d295bc85a3052cd19f118806ded7a9972fdf0d7da672734dcbdcc227bd19190565b906123a860405190565b600090a26122a2565b6122e4565b6123cc90893d8b116113eb576113dd81836108bc565b38612374565b5050509050565b6101cc61227156fea26469706673582212205eb6e9ef0c6af06e625df4445567d745e415443cdba72c48f69ff66716d94ed964736f6c63430008140033",
  "linkReferences": {},
  "deployedLinkReferences": {}
}