{
  "_format": "hh-sol-artifact-1",
  "contractName": "Sense",
  "sourceName": "contracts/modules/Sense/Sense.sol",
  "abi": [
    {
      "inputs": [],
      "stateMutability": "nonpayable",
      "type": "constructor"
    },
    {
      "inputs": [],
      "name": "InvalidRegistryAddress",
      "type": "error"
    },
    {
      "inputs": [
        {
          "internalType": "int256",
          "name": "delta",
          "type": "int256"
        }
      ],
      "name": "InvalidReputationDelta",
      "type": "error"
    },
    {
      "inputs": [],
      "name": "ModuleAlreadyInitialized",
      "type": "error"
    },
    {
      "inputs": [],
      "name": "ModuleNotInitialized",
      "type": "error"
    },
    {
      "inputs": [],
      "name": "OnlyRegistry",
      "type": "error"
    },
    {
      "inputs": [
        {
          "internalType": "bytes8",
          "name": "organizationId",
          "type": "bytes8"
        }
      ],
      "name": "OrganizationNotFound",
      "type": "error"
    },
    {
      "inputs": [
        {
          "internalType": "string",
          "name": "profileId",
          "type": "string"
        }
      ],
      "name": "ProfileNotFound",
      "type": "error"
    },
    {
      "inputs": [
        {
          "internalType": "address",
          "name": "caller",
          "type": "address"
        }
      ],
      "name": "UnauthorizedReputationUpdate",
      "type": "error"
    },
    {
      "anonymous": false,
      "inputs": [
        {
          "indexed": true,
          "internalType": "bytes8",
          "name": "organizationId",
          "type": "bytes8"
        },
        {
          "indexed": true,
          "internalType": "bytes8",
          "name": "profileId",
          "type": "bytes8"
        },
        {
          "indexed": false,
          "internalType": "uint256",
          "name": "amount",
          "type": "uint256"
        },
        {
          "indexed": false,
          "internalType": "bytes32",
          "name": "reason",
          "type": "bytes32"
        },
        {
          "indexed": true,
          "internalType": "address",
          "name": "awardedBy",
          "type": "address"
        },
        {
          "indexed": false,
          "internalType": "uint256",
          "name": "timestamp",
          "type": "uint256"
        }
      ],
      "name": "ExperienceAwarded",
      "type": "event"
    },
    {
      "anonymous": false,
      "inputs": [
        {
          "indexed": true,
          "internalType": "bytes8",
          "name": "organizationId",
          "type": "bytes8"
        },
        {
          "indexed": true,
          "internalType": "bytes8",
          "name": "profileId",
          "type": "bytes8"
        },
        {
          "indexed": false,
          "internalType": "bool",
          "name": "positive",
          "type": "bool"
        },
        {
          "indexed": false,
          "internalType": "bytes32",
          "name": "reason",
          "type": "bytes32"
        },
        {
          "indexed": true,
          "internalType": "address",
          "name": "recordedBy",
          "type": "address"
        },
        {
          "indexed": false,
          "internalType": "uint256",
          "name": "timestamp",
          "type": "uint256"
        }
      ],
      "name": "InteractionRecorded",
      "type": "event"
    },
    {
      "anonymous": false,
      "inputs": [],
      "name": "ModuleDisabled",
      "type": "event"
    },
    {
      "anonymous": false,
      "inputs": [],
      "name": "ModuleEnabled",
      "type": "event"
    },
    {
      "anonymous": false,
      "inputs": [
        {
          "indexed": true,
          "internalType": "address",
          "name": "registry",
          "type": "address"
        }
      ],
      "name": "ModuleInitialized",
      "type": "event"
    },
    {
      "anonymous": false,
      "inputs": [
        {
          "indexed": false,
          "internalType": "address",
          "name": "account",
          "type": "address"
        }
      ],
      "name": "Paused",
      "type": "event"
    },
    {
      "anonymous": false,
      "inputs": [
        {
          "indexed": true,
          "internalType": "bytes8",
          "name": "organizationId",
          "type": "bytes8"
        },
        {
          "indexed": true,
          "internalType": "bytes8",
          "name": "profileId",
          "type": "bytes8"
        },
        {
          "indexed": true,
          "internalType": "enum ISense.ReputationType",
          "name": "repType",
          "type": "uint8"
        },
        {
          "indexed": false,
          "internalType": "int256",
          "name": "delta",
          "type": "int256"
        },
        {
          "indexed": false,
          "internalType": "bytes32",
          "name": "reason",
          "type": "bytes32"
        },
        {
          "indexed": false,
          "internalType": "address",
          "name": "updatedBy",
          "type": "address"
        },
        {
          "indexed": false,
          "internalType": "uint256",
          "name": "timestamp",
          "type": "uint256"
        }
      ],
      "name": "ReputationUpdated",
      "type": "event"
    },
    {
      "anonymous": false,
      "inputs": [
        {
          "indexed": true,
          "internalType": "bytes32",
          "name": "role",
          "type": "bytes32"
        },
        {
          "indexed": true,
          "internalType": "bytes32",
          "name": "previousAdminRole",
          "type": "bytes32"
        },
        {
          "indexed": true,
          "internalType": "bytes32",
          "name": "newAdminRole",
          "type": "bytes32"
        }
      ],
      "name": "RoleAdminChanged",
      "type": "event"
    },
    {
      "anonymous": false,
      "inputs": [
        {
          "indexed": true,
          "internalType": "bytes32",
          "name": "role",
          "type": "bytes32"
        },
        {
          "indexed": true,
          "internalType": "address",
          "name": "account",
          "type": "address"
        },
        {
          "indexed": true,
          "internalType": "address",
          "name": "sender",
          "type": "address"
        }
      ],
      "name": "RoleGranted",
      "type": "event"
    },
    {
      "anonymous": false,
      "inputs": [
        {
          "indexed": true,
          "internalType": "bytes32",
          "name": "role",
          "type": "bytes32"
        },
        {
          "indexed": true,
          "internalType": "address",
          "name": "account",
          "type": "address"
        },
        {
          "indexed": true,
          "internalType": "address",
          "name": "sender",
          "type": "address"
        }
      ],
      "name": "RoleRevoked",
      "type": "event"
    },
    {
      "anonymous": false,
      "inputs": [
        {
          "indexed": false,
          "internalType": "address",
          "name": "account",
          "type": "address"
        }
      ],
      "name": "Unpaused",
      "type": "event"
    },
    {
      "inputs": [],
      "name": "ADMIN_ROLE",
      "outputs": [
        {
          "internalType": "bytes32",
          "name": "",
          "type": "bytes32"
        }
      ],
      "stateMutability": "view",
      "type": "function"
    },
    {
      "inputs": [],
      "name": "DEFAULT_ADMIN_ROLE",
      "outputs": [
        {
          "internalType": "bytes32",
          "name": "",
          "type": "bytes32"
        }
      ],
      "stateMutability": "view",
      "type": "function"
    },
    {
      "inputs": [],
      "name": "MAX_REPUTATION_DELTA",
      "outputs": [
        {
          "internalType": "uint256",
          "name": "",
          "type": "uint256"
        }
      ],
      "stateMutability": "view",
      "type": "function"
    },
    {
      "inputs": [],
      "name": "MODULE_ADMIN_ROLE",
      "outputs": [
        {
          "internalType": "bytes32",
          "name": "",
          "type": "bytes32"
        }
      ],
      "stateMutability": "view",
      "type": "function"
    },
    {
      "inputs": [],
      "name": "OPERATOR_ROLE",
      "outputs": [
        {
          "internalType": "bytes32",
          "name": "",
          "type": "bytes32"
        }
      ],
      "stateMutability": "view",
      "type": "function"
    },
    {
      "inputs": [],
      "name": "REPUTATION_MANAGER_ROLE",
      "outputs": [
        {
          "internalType": "bytes32",
          "name": "",
          "type": "bytes32"
        }
      ],
      "stateMutability": "view",
      "type": "function"
    },
    {
      "inputs": [],
      "name": "REPUTATION_SCALE",
      "outputs": [
        {
          "internalType": "uint256",
          "name": "",
          "type": "uint256"
        }
      ],
      "stateMutability": "view",
      "type": "function"
    },
    {
      "inputs": [],
      "name": "SENSE_ADMIN_ROLE",
      "outputs": [
        {
          "internalType": "bytes32",
          "name": "",
          "type": "bytes32"
        }
      ],
      "stateMutability": "view",
      "type": "function"
    },
    {
      "inputs": [],
      "name": "TRUST_SCORE_SCALE",
      "outputs": [
        {
          "internalType": "uint256",
          "name": "",
          "type": "uint256"
        }
      ],
      "stateMutability": "view",
      "type": "function"
    },
    {
      "inputs": [
        {
          "internalType": "bytes8",
          "name": "organizationId",
          "type": "bytes8"
        },
        {
          "internalType": "bytes8",
          "name": "profileId",
          "type": "bytes8"
        },
        {
          "internalType": "uint256",
          "name": "amount",
          "type": "uint256"
        },
        {
          "internalType": "bytes32",
          "name": "reason",
          "type": "bytes32"
        }
      ],
      "name": "awardExperience",
      "outputs": [],
      "stateMutability": "nonpayable",
      "type": "function"
    },
    {
      "inputs": [
        {
          "internalType": "bytes8",
          "name": "organizationId",
          "type": "bytes8"
        },
        {
          "internalType": "bytes8",
          "name": "profileId",
          "type": "bytes8"
        }
      ],
      "name": "calculateTrustScore",
      "outputs": [
        {
          "internalType": "uint256",
          "name": "trustScore",
          "type": "uint256"
        }
      ],
      "stateMutability": "view",
      "type": "function"
    },
    {
      "inputs": [
        {
          "internalType": "bytes8",
          "name": "organizationId",
          "type": "bytes8"
        },
        {
          "internalType": "bytes8",
          "name": "profileId",
          "type": "bytes8"
        },
        {
          "internalType": "uint256",
          "name": "baseWeight",
          "type": "uint256"
        }
      ],
      "name": "calculateVotingWeight",
      "outputs": [
        {
          "internalType": "uint256",
          "name": "votingWeight",
          "type": "uint256"
        }
      ],
      "stateMutability": "view",
      "type": "function"
    },
    {
      "inputs": [],
      "name": "emergencyPause",
      "outputs": [],
      "stateMutability": "nonpayable",
      "type": "function"
    },
    {
      "inputs": [],
      "name": "emergencyUnpause",
      "outputs": [],
      "stateMutability": "nonpayable",
      "type": "function"
    },
    {
      "inputs": [
        {
          "internalType": "bytes8",
          "name": "organizationId",
          "type": "bytes8"
        },
        {
          "internalType": "bytes8",
          "name": "profileId",
          "type": "bytes8"
        }
      ],
      "name": "getExperience",
      "outputs": [
        {
          "internalType": "uint256",
          "name": "experience",
          "type": "uint256"
        }
      ],
      "stateMutability": "view",
      "type": "function"
    },
    {
      "inputs": [
        {
          "internalType": "bytes8",
          "name": "organizationId",
          "type": "bytes8"
        },
        {
          "internalType": "address",
          "name": "memberAddress",
          "type": "address"
        },
        {
          "internalType": "uint256",
          "name": "baseWeight",
          "type": "uint256"
        }
      ],
      "name": "getMemberVotingPower",
      "outputs": [
        {
          "internalType": "uint256",
          "name": "votingPower",
          "type": "uint256"
        }
      ],
      "stateMutability": "view",
      "type": "function"
    },
    {
      "inputs": [
        {
          "internalType": "bytes8",
          "name": "organizationId",
          "type": "bytes8"
        }
      ],
      "name": "getOrganizationReputationStats",
      "outputs": [
        {
          "internalType": "uint256",
          "name": "totalMembers",
          "type": "uint256"
        },
        {
          "internalType": "uint256",
          "name": "averageReputation",
          "type": "uint256"
        },
        {
          "internalType": "uint256",
          "name": "totalExperience",
          "type": "uint256"
        },
        {
          "internalType": "uint256",
          "name": "averageTrust",
          "type": "uint256"
        }
      ],
      "stateMutability": "view",
      "type": "function"
    },
    {
      "inputs": [
        {
          "internalType": "bytes8",
          "name": "organizationId",
          "type": "bytes8"
        },
        {
          "internalType": "bytes8",
          "name": "profileId",
          "type": "bytes8"
        }
      ],
      "name": "getReputation",
      "outputs": [
        {
          "components": [
            {
              "internalType": "uint256",
              "name": "experience",
              "type": "uint256"
            },
            {
              "internalType": "uint256",
              "name": "reputation",
              "type": "uint256"
            },
            {
              "internalType": "uint256",
              "name": "trust",
              "type": "uint256"
            },
            {
              "internalType": "uint256",
              "name": "lastUpdated",
              "type": "uint256"
            },
            {
              "internalType": "uint256",
              "name": "totalInteractions",
              "type": "uint256"
            },
            {
              "internalType": "uint256",
              "name": "positiveInteractions",
              "type": "uint256"
            },
            {
              "internalType": "bytes8",
              "name": "organizationId",
              "type": "bytes8"
            }
          ],
          "internalType": "struct ISense.ReputationData",
          "name": "reputation",
          "type": "tuple"
        }
      ],
      "stateMutability": "view",
      "type": "function"
    },
    {
      "inputs": [
        {
          "internalType": "bytes8",
          "name": "organizationId",
          "type": "bytes8"
        },
        {
          "internalType": "bytes8[]",
          "name": "profileIds",
          "type": "bytes8[]"
        }
      ],
      "name": "getReputationBatch",
      "outputs": [
        {
          "components": [
            {
              "internalType": "uint256",
              "name": "experience",
              "type": "uint256"
            },
            {
              "internalType": "uint256",
              "name": "reputation",
              "type": "uint256"
            },
            {
              "internalType": "uint256",
              "name": "trust",
              "type": "uint256"
            },
            {
              "internalType": "uint256",
              "name": "lastUpdated",
              "type": "uint256"
            },
            {
              "internalType": "uint256",
              "name": "totalInteractions",
              "type": "uint256"
            },
            {
              "internalType": "uint256",
              "name": "positiveInteractions",
              "type": "uint256"
            },
            {
              "internalType": "bytes8",
              "name": "organizationId",
              "type": "bytes8"
            }
          ],
          "internalType": "struct ISense.ReputationData[]",
          "name": "reputations",
          "type": "tuple[]"
        }
      ],
      "stateMutability": "view",
      "type": "function"
    },
    {
      "inputs": [
        {
          "internalType": "bytes8",
          "name": "organizationId",
          "type": "bytes8"
        },
        {
          "internalType": "bytes8",
          "name": "profileId",
          "type": "bytes8"
        }
      ],
      "name": "getReputationHistory",
      "outputs": [
        {
          "components": [
            {
              "internalType": "bytes8",
              "name": "organizationId",
              "type": "bytes8"
            },
            {
              "internalType": "bytes8",
              "name": "profileId",
              "type": "bytes8"
            },
            {
              "internalType": "enum ISense.ReputationType",
              "name": "repType",
              "type": "uint8"
            },
            {
              "internalType": "int256",
              "name": "delta",
              "type": "int256"
            },
            {
              "internalType": "bytes32",
              "name": "reason",
              "type": "bytes32"
            },
            {
              "internalType": "address",
              "name": "updatedBy",
              "type": "address"
            },
            {
              "internalType": "uint256",
              "name": "timestamp",
              "type": "uint256"
            }
          ],
          "internalType": "struct ISense.ReputationEvent[]",
          "name": "events",
          "type": "tuple[]"
        }
      ],
      "stateMutability": "view",
      "type": "function"
    },
    {
      "inputs": [
        {
          "internalType": "bytes32",
          "name": "role",
          "type": "bytes32"
        }
      ],
      "name": "getRoleAdmin",
      "outputs": [
        {
          "internalType": "bytes32",
          "name": "",
          "type": "bytes32"
        }
      ],
      "stateMutability": "view",
      "type": "function"
    },
    {
      "inputs": [
        {
          "internalType": "bytes8",
          "name": "organizationId",
          "type": "bytes8"
        },
        {
          "internalType": "bytes8",
          "name": "profileId",
          "type": "bytes8"
        }
      ],
      "name": "getTrustScore",
      "outputs": [
        {
          "internalType": "uint256",
          "name": "trust",
          "type": "uint256"
        }
      ],
      "stateMutability": "view",
      "type": "function"
    },
    {
      "inputs": [
        {
          "internalType": "bytes32",
          "name": "role",
          "type": "bytes32"
        },
        {
          "internalType": "address",
          "name": "account",
          "type": "address"
        }
      ],
      "name": "grantRole",
      "outputs": [],
      "stateMutability": "nonpayable",
      "type": "function"
    },
    {
      "inputs": [
        {
          "internalType": "bytes32",
          "name": "role",
          "type": "bytes32"
        },
        {
          "internalType": "address",
          "name": "account",
          "type": "address"
        }
      ],
      "name": "hasRole",
      "outputs": [
        {
          "internalType": "bool",
          "name": "",
          "type": "bool"
        }
      ],
      "stateMutability": "view",
      "type": "function"
    },
    {
      "inputs": [
        {
          "internalType": "address",
          "name": "registryAddress",
          "type": "address"
        }
      ],
      "name": "initialize",
      "outputs": [],
      "stateMutability": "nonpayable",
      "type": "function"
    },
    {
      "inputs": [],
      "name": "isInitialized",
      "outputs": [
        {
          "internalType": "bool",
          "name": "",
          "type": "bool"
        }
      ],
      "stateMutability": "view",
      "type": "function"
    },
    {
      "inputs": [],
      "name": "moduleId",
      "outputs": [
        {
          "internalType": "bytes32",
          "name": "",
          "type": "bytes32"
        }
      ],
      "stateMutability": "pure",
      "type": "function"
    },
    {
      "inputs": [],
      "name": "onModuleDisabled",
      "outputs": [],
      "stateMutability": "nonpayable",
      "type": "function"
    },
    {
      "inputs": [],
      "name": "onModuleEnabled",
      "outputs": [],
      "stateMutability": "nonpayable",
      "type": "function"
    },
    {
      "inputs": [],
      "name": "pause",
      "outputs": [],
      "stateMutability": "nonpayable",
      "type": "function"
    },
    {
      "inputs": [],
      "name": "paused",
      "outputs": [
        {
          "internalType": "bool",
          "name": "",
          "type": "bool"
        }
      ],
      "stateMutability": "view",
      "type": "function"
    },
    {
      "inputs": [
        {
          "internalType": "bytes8",
          "name": "organizationId",
          "type": "bytes8"
        },
        {
          "internalType": "bytes8",
          "name": "profileId",
          "type": "bytes8"
        },
        {
          "internalType": "bool",
          "name": "positive",
          "type": "bool"
        },
        {
          "internalType": "bytes32",
          "name": "reason",
          "type": "bytes32"
        }
      ],
      "name": "recordInteraction",
      "outputs": [],
      "stateMutability": "nonpayable",
      "type": "function"
    },
    {
      "inputs": [],
      "name": "registry",
      "outputs": [
        {
          "internalType": "address",
          "name": "",
          "type": "address"
        }
      ],
      "stateMutability": "view",
      "type": "function"
    },
    {
      "inputs": [
        {
          "internalType": "bytes32",
          "name": "role",
          "type": "bytes32"
        },
        {
          "internalType": "address",
          "name": "account",
          "type": "address"
        }
      ],
      "name": "renounceRole",
      "outputs": [],
      "stateMutability": "nonpayable",
      "type": "function"
    },
    {
      "inputs": [
        {
          "internalType": "bytes32",
          "name": "role",
          "type": "bytes32"
        },
        {
          "internalType": "address",
          "name": "account",
          "type": "address"
        }
      ],
      "name": "revokeRole",
      "outputs": [],
      "stateMutability": "nonpayable",
      "type": "function"
    },
    {
      "inputs": [
        {
          "internalType": "bytes4",
          "name": "interfaceId",
          "type": "bytes4"
        }
      ],
      "name": "supportsInterface",
      "outputs": [
        {
          "internalType": "bool",
          "name": "",
          "type": "bool"
        }
      ],
      "stateMutability": "view",
      "type": "function"
    },
    {
      "inputs": [],
      "name": "unpause",
      "outputs": [],
      "stateMutability": "nonpayable",
      "type": "function"
    },
    {
      "inputs": [
        {
          "internalType": "bytes8",
          "name": "organizationId",
          "type": "bytes8"
        },
        {
          "internalType": "bytes8",
          "name": "profileId",
          "type": "bytes8"
        },
        {
          "internalType": "enum ISense.ReputationType",
          "name": "repType",
          "type": "uint8"
        },
        {
          "internalType": "int256",
          "name": "delta",
          "type": "int256"
        },
        {
          "internalType": "bytes32",
          "name": "reason",
          "type": "bytes32"
        }
      ],
      "name": "updateReputation",
      "outputs": [],
      "stateMutability": "nonpayable",
      "type": "function"
    },
    {
      "inputs": [],
      "name": "version",
      "outputs": [
        {
          "internalType": "string",
          "name": "",
          "type": "string"
        }
      ],
      "stateMutability": "view",
      "type": "function"
    }
  ],
  "bytecode": "0x608060405234620000265762000014620000e4565b6040516131e76200053f82396131e790f35b600080fd5b634e487b7160e01b600052604160045260246000fd5b90601f01601f191681019081106001600160401b038211176200006357604052565b6200002b565b90620000806200007860405190565b928362000041565b565b6001600160401b0381116200006357602090601f01601f19160190565b90620000b5620000af8362000082565b62000069565b918252565b620000c660056200009f565b640312e302e360dc1b602082015290565b620000e1620000ba565b90565b620000f8620000f2620000d7565b6200035f565b620000807f1d0f12d082b3e5338f8dab310a38db3645f19456d3e591618fb6ace837c5da396200012b335b809262000490565b7fa5df84d05f94c8e589750a34f9631c6df369aabc0811ccbbd233872ff60aec6662000490565b634e487b7160e01b600052602260045260246000fd5b90600160028304921680156200018b575b60208310146200018557565b62000152565b91607f169162000179565b9160001960089290920291821b911b5b9181191691161790565b620000e1620000e1620000e19290565b9190620001d5620000e1620001de93620001b0565b90835462000196565b9055565b6200008091600091620001c0565b818110620001fc575050565b806200020c6000600193620001e2565b01620001f0565b9190601f81116200022357505050565b620002376200008093600052602060002090565b906020601f8401819004830193106200025b575b6020601f909101040190620001f0565b90915081906200024b565b9062000270815190565b906001600160401b0382116200006357620002988262000291855462000168565b8562000213565b602090601f8311600114620002d757620001de929160009183620002cb575b5050600019600883021c1916906002021790565b015190503880620002b7565b601f19831691620002ed85600052602060002090565b9260005b8181106200032e5750916002939185600196941062000314575b50505002019055565b01516000196008601f8516021c191690553880806200030b565b91936020600181928787015181550195019201620002f1565b90620000809162000266565b620000e16000620001b0565b62000376906200036e620003e9565b600462000347565b620000806200038462000353565b6200038f3362000123565b7fa49807205ce4d355092ef5a8a18f56e8913cf4a201fbe287825b095693c2177562000490565b620000e16001620001b0565b9060001990620001a6565b90620003e1620000e1620001de92620001b0565b8254620003c2565b620003f36200042e565b6200008062000401620003b6565b6002620003cd565b9060ff90620001a6565b9062000426620000e1620001de92151590565b825462000409565b620000806000600162000413565b905b600052602052604060002090565b620000e19062000462906001600160a01b031682565b6001600160a01b031690565b620000e1906200044c565b620000e1906200046e565b906200043e9062000479565b90620004a5620004a182846200051f565b1590565b620004ae575050565b620004d46001620004ce836000620004c787826200043c565b0162000484565b62000413565b33906200050e62000507620005077f2f8788117e7eff1d82e926ec794901d17c78024a50270940304540a733656f0d9590565b9262000479565b926200051960405190565b600090a4565b620000e1916200053791620004c7600091826200043c565b5460ff169056fe6080604052600436101561001257600080fd5b60003560e01c806301ffc9a71461027d5780631be6592d146102785780631d61cbd414610273578063248a9ca31461026e57806326684c09146102695780632f2ff15d1461026457806336568abe1461025f578063392e53cd1461025a5780633f4ba83a146102555780634157db8d1461025057806348bd59a61461024b5780634a4e3bd5146102465780634f6303ea1461024157806351858e271461023c57806354fd4d501461023757806356e521c2146102235780635c975abb1461023257806375b238fc1461022d5780637b10399914610228578063823ced41146102235780638456cb591461021e5780638b158f981461021957806391d1485414610214578063955dcc3f1461020f578063a1308f271461020a578063a217fddf14610205578063aa7318aa14610200578063ad7498c0146101fb578063b3a9a657146101f6578063be152b61146101f1578063c4d66de8146101ec578063d547741f146101e7578063dbf5af0a146101e2578063dd6339c8146101dd578063e89326e0146101d8578063eb0fd86a146101d3578063ebf8a3e6146101ce578063f5b541a6146101c95763fb24973c0361029557610dca565b610d91565b610d79565b610d40565b610d24565b610d08565b610cb9565b610c90565b610c78565b610c49565b610c0e565b610ae2565b610aca565b610aaf565b610a64565b610a48565b6109f9565b6109c0565b6109a8565b610903565b610972565b610939565b61091e565b6108bc565b61083c565b610820565b6107d8565b6107bc565b61074f565b6106d4565b6106b9565b610695565b610677565b610604565b6103fe565b6103ab565b610357565b6102c4565b6001600160e01b031981165b0361029557565b600080fd5b905035906102a782610282565b565b90602082820312610295576102bd9161029a565b90565b9052565b34610295576102f16102df6102da3660046102a9565b610e03565b60405191829182901515815260200190565b0390f35b6001600160c01b0319811661028e565b905035906102a7826102f5565b90602082820312610295576102bd91610305565b6103536102a79461034c606094989795610345608086019a6000870152565b6020850152565b6040830152565b0152565b34610295576102f161037261036d366004610312565b612cde565b9061037f94929460405190565b94859485610326565b9190604083820312610295576102bd906103a28185610305565b93602001610305565b34610295576102f16103c76103c1366004610388565b90612711565b6040519182918290815260200190565b8061028e565b905035906102a7826103d7565b90602082820312610295576102bd916103dd565b34610295576102f16103c76104143660046103ea565b610ec4565b634e487b7160e01b600052604160045260246000fd5b90601f01601f1916810190811067ffffffffffffffff82111761045157604052565b610419565b906102a761046360405190565b928361042f565b67ffffffffffffffff81116104515760208091020190565b909291926104976104928261046a565b610456565b938185526020808601920283019281841161029557915b8383106104bb5750505050565b602080916104c98486610305565b8152019201916104ae565b9080601f83011215610295578160206102bd93359101610482565b919091604081840312610295576105068382610305565b92602082013567ffffffffffffffff8111610295576102bd92016104d4565b805182526102a7919060c090819061054260208201516020860152565b61055160408201516040860152565b61056060608201516060860152565b61056f60808201516080860152565b61057e60a082015160a0860152565b01516001600160c01b031916910152565b9061059c8160e093610525565b0190565b906105c06105b96105af845190565b8084529260200190565b9260200190565b9060005b8181106105d15750505090565b9091926105eb6105e4600192865161058f565b9460200190565b9291016105c4565b60208082526102bd929101906105a0565b34610295576102f161062061061a3660046104ef565b90612860565b604051918291826105f3565b6001600160a01b031690565b6001600160a01b03811661028e565b905035906102a782610638565b9190604083820312610295576102bd9061066e81856103dd565b93602001610647565b346102955761069061068a366004610654565b90610f03565b604051005b34610295576106906106a8366004610654565b906110d1565b600091031261029557565b34610295576106c93660046106ae565b6102f16102df61187f565b34610295576106e43660046106ae565b610690611908565b6003111561029557565b905035906102a7826106ec565b919060a083820312610295576107198184610305565b926107278260208301610305565b926102bd61073884604085016106f6565b9361074681606086016103dd565b936080016103dd565b3461029557610690610762366004610703565b9392909261213d565b80151561028e565b905035906102a78261076b565b608081830312610295576107948282610305565b926102bd6107a58460208501610305565b936107b38160408601610773565b936060016103dd565b34610295576106906107cf366004610780565b929190916125d1565b34610295576107e83660046106ae565b61069061195a565b9091606082840312610295576102bd6108098484610305565b936108178160208601610647565b936040016103dd565b34610295576102f16103c76108363660046107f0565b91612a76565b346102955761084c3660046106ae565b610690611931565b60005b8381106108675750506000910152565b8181015183820152602001610857565b6108986108a160209361059c9361088c815190565b80835293849260200190565b95869101610854565b601f01601f191690565b60208082526102bd92910190610877565b34610295576108cc3660046106ae565b6102f16108d76115ca565b604051918291826108ab565b6102bd6102bd6102bd9290565b6102bd6127106108e3565b6102bd6108f0565b34610295576109133660046106ae565b6102f16103c76108fb565b346102955761092e3660046106ae565b6102f16102df6111f0565b34610295576109493660046106ae565b6102f17fa49807205ce4d355092ef5a8a18f56e8913cf4a201fbe287825b095693c217756103c7565b34610295576109823660046106ae565b6102f161098d611889565b6040515b918291826001600160a01b03909116815260200190565b34610295576109b83660046106ae565b6106906118cb565b34610295576109d03660046106ae565b6102f17f1d0f12d082b3e5338f8dab310a38db3645f19456d3e591618fb6ace837c5da396103c7565b34610295576102f16102df610a0f366004610654565b90610e94565b60808183031261029557610a298282610305565b926102bd610a3a8460208501610305565b936107b381604086016103dd565b3461029557610690610a5b366004610a15565b9291909161242a565b3461029557610a743660046106ae565b6102f17fda774a9a6475b94924a168725d00b478d90cbf28e9176d635f3dab48a3a915086103c7565b6102bd60006108e3565b6102bd610a9d565b3461029557610abf3660046106ae565b6102f16103c7610aa7565b3461029557610ada3660046106ae565b610690611877565b34610295576102f16103c7610af8366004610388565b90612590565b634e487b7160e01b600052602160045260246000fd5b60031115610b1e57565b610afe565b906102a782610b14565b6102bd90610b23565b6102c090610b2d565b80516001600160c01b03191682526102a7919060c09081906020818101516001600160c01b03191690850152610b7d60408201516040860190610b36565b610b8c60608201516060860152565b610b9b60808201516080860152565b60a0818101516001600160a01b0316908501520151910152565b9061059c8160e093610b3f565b90610bd16105b96105af845190565b9060005b818110610be25750505090565b909192610bf56105e46001928651610bb5565b929101610bd5565b60208082526102bd92910190610bc2565b34610295576102f1610c2a610c24366004610388565b906123a0565b60405191829182610bfd565b6102bd6103e86108e3565b6102bd610c36565b3461029557610c593660046106ae565b6102f16103c7610c41565b90602082820312610295576102bd91610647565b3461029557610690610c8b366004610c64565b61165d565b3461029557610690610ca3366004610654565b90611055565b60e0810192916102a79190610525565b34610295576102f1610cd5610ccf366004610388565b9061223b565b60405191829182610ca9565b9091606082840312610295576102bd610cfa8484610305565b936108178160208601610305565b34610295576102f16103c7610d1e366004610ce1565b9161274b565b34610295576102f16103c7610d3a366004610388565b90612786565b3461029557610d503660046106ae565b6102f17fa5df84d05f94c8e589750a34f9631c6df369aabc0811ccbbd233872ff60aec666103c7565b3461029557610d893660046106ae565b610690611815565b3461029557610da13660046106ae565b6102f17f97667070c54ef182b0f5858b034beac1b6f3089aa2d3188bb1e8929f4fa9b9296103c7565b3461029557610dda3660046106ae565b6102f17ff83fbdecd7018694593b521db8f6c864cd19f8450388b844650c68334dac9ab56103c7565b637965db0b60e01b6001600160e01b0319821614908115610e22575090565b6102bd91506001600160e01b0319166301ffc9a760e01b1490565b905b600052602052604060002090565b61062c6102bd6102bd926001600160a01b031690565b6102bd90610e4d565b6102bd90610e63565b90610e3f90610e6c565b6102bd905b60ff1690565b6102bd9054610e7f565b6102bd91610eae91610ea860009182610e3d565b01610e75565b610e8a565b6102bd9081565b6102bd9054610eb3565b6001610edd6102bd92610ed5600090565b506000610e3d565b01610eba565b906102a791610ef9610ef482610ec4565b610f0d565b906102a791611121565b906102a791610ee3565b6102a7903390610fae565b6102bd906108e3565b6108e3565b61059c610f3e92602092610f38815190565b94859290565b93849101610854565b610f856102bd9392610f7f610f7f937f416363657373436f6e74726f6c3a206163636f756e7420000000000000000000815260170190565b90610f26565b7f206973206d697373696e6720726f6c6520000000000000000000000000000000815260110190565b90610fc0610fbc8284610e94565b1590565b610fc8575050565b611036916102bd610fe4610fde61101e946114a5565b92610f18565b610ff9602091610ff3836108e3565b90611345565b9261101261100660405190565b94859384019283610f47565b9081038252038261042f565b60405162461bcd60e51b8152918291600483016108ab565b0390fd5b906102a79161104b610ef482610ec4565b906102a791611199565b906102a79161103a565b1561106657565b60405162461bcd60e51b815260206004820152602f60248201527f416363657373436f6e74726f6c3a2063616e206f6e6c792072656e6f756e636560448201527f20726f6c657320666f722073656c6600000000000000000000000000000000006064820152608490fd5b6102a791906110f26110e23361062c565b6001600160a01b0384161461105f565b611199565b9060ff905b9181191691161790565b906111166102bd61111d92151590565b82546110f7565b9055565b9061112f610fbc8284610e94565b611137575050565b611151600161114c836000610ea88782610e3d565b611106565b33906111876111816111817f2f8788117e7eff1d82e926ec794901d17c78024a50270940304540a733656f0d9590565b92610e6c565b9261119160405190565b80805b0390a4565b906111a48183610e94565b6111ac575050565b6111c0600061114c8382610ea88782610e3d565b33906111876111816111817ff6391f5c32d9c69d2a47ea670b442974b53935d1edc7fd64eb21e047a839171b9590565b6102bd6001610e8a565b634e487b7160e01b600052601160045260246000fd5b8181029291811591840414171561122357565b6111fa565b9190820180921161122357565b67ffffffffffffffff811161045157602090601f01601f19160190565b9061125f61049283611235565b918252565b369037565b906102a761127f61127984611252565b93611235565b601f190160208401611264565b634e487b7160e01b600052603260045260246000fd5b906112ab825190565b8110156112b9570160200190565b61128c565b8015611223576000190190565b610e846102bd6102bd9290565b6102bd906112f06112ec6102bd9460ff1690565b9190565b901c90565b156112fc57565b60405162461bcd60e51b815280611036600482016020808252818101527f537472696e67733a20686578206c656e67746820696e73756666696369656e74604082015260600190565b91906002926113766113716113628461135d886108e3565b611210565b61136b876108e3565b90611228565b611269565b91600090603061138e611388846108e3565b866112a2565b536113c66113bd600f60fb1b9261135d6001998a95871a6113b76113b1886108e3565b8b6112a2565b536108e3565b61136b836108e3565b905b6113ea575b506102bd939450906113e46112ec6102bd936108e3565b146112f5565b916113f4866108e3565b83111561146f577f3031323334353637383961626364656600000000000000000000000000000000611426600f6108e3565b82169060108210156112b957879261144661146392611469941a60f81b90565b851a61145287896112a2565b5361145d60046112cb565b906112d8565b936112be565b906113c8565b916113cd565b6102bd6102bd6102bd926001600160a01b031690565b6102bd60146112cb565b6102bd6102bd6102bd9260ff1690565b6114c26114bd6102bd926114b7606090565b50610e63565b611475565b610ff36114cd61148b565b611495565b634e487b7160e01b600052602260045260246000fd5b9060016002830492168015611508575b602083101461150357565b6114d2565b91607f16916114f8565b8054600093929161152f611525836114e8565b8085529360200190565b9160018116908115611581575060011461154857505050565b61155b9192939450600052602060002090565b916000925b81841061156d5750500190565b805484840152602090930192600101611560565b92949550505060ff1916825215156020020190565b906102bd91611512565b906102a76115ba926115b160405190565b93848092611596565b038361042f565b6102bd906115a0565b6102bd60046115c1565b6102bd9060a01c610e84565b6102bd90546115d4565b61062c6102bd6102bd9290565b6102bd906115ea565b906001600160a01b03906110fc565b9061161f6102bd61111d92610e6c565b8254611600565b9074ff00000000000000000000000000000000000000009060a01b6110fc565b906116566102bd61111d92151590565b8254611626565b61166760036115e0565b61174e5761167861062c60006115f7565b6001600160a01b0382161461173c5761169a61169382610e6c565b600361160f565b6116a660016003611646565b6116d0817fa49807205ce4d355092ef5a8a18f56e8913cf4a201fbe287825b095693c21775611121565b6116fa817f97667070c54ef182b0f5858b034beac1b6f3089aa2d3188bb1e8929f4fa9b929611121565b611702611b00565b61172c7f27b541a16df0902e262f34789782092ab25125513b8ed73608e802951771b92891610e6c565b9061173660405190565b600090a2565b604051637bfd2e8360e01b8152600490fd5b604051637396742f60e11b8152600490fd5b6102bd9061062c565b6102bd9054611760565b3361179961178c61062c6117876003611769565b610e6c565b916001600160a01b031690565b036117a6576102a76117b8565b6040516310f5403960e31b8152600490fd5b6117c5610fbc60036115e0565b6117d1576102a76117e3565b604051633165f6e960e21b8152600490fd5b7fa866f3901ec84758a10f30e8953c3818eef73da93dfa46cb6aa5b726fb65813f61180d60405190565b80805b0390a1565b6102a7611773565b3361183161178c61062c6117876003611769565b036117a6576102a7611846610fbc60036115e0565b6117d1576102a77f6dff2fe8fbb5b23bf0583bf5b2157ff62ca7e27f2fb4f404914cd0c205ced5cc61180d60405190565b6102a761181d565b6102bd60036115e0565b6102bd6117876003611769565b6118bf7fa49807205ce4d355092ef5a8a18f56e8913cf4a201fbe287825b095693c21775610f0d565b6102a75b6102a761197e565b6102a7611896565b6118fc7fa49807205ce4d355092ef5a8a18f56e8913cf4a201fbe287825b095693c21775610f0d565b6102a75b6102a7611a4e565b6102a76118d3565b3361192461178c61062c6117876003611769565b036117a6576102a76118c3565b6102a7611910565b3361194d61178c61062c6117876003611769565b036117a6576102a7611900565b6102a7611939565b61196f610fbc60036115e0565b6117d1576102a76102a76119cb565b6102a7611962565b61198e611a1f565b6102a761199c600180611106565b336118107f62e78cea01bee320cd4e420270b5ea74000d11b0c9f74754ebdbfc544b05a2589161099160405190565b6102a7611986565b156119da57565b60405162461bcd60e51b815260206004820152601060248201527f5061757361626c653a20706175736564000000000000000000000000000000006044820152606490fd5b6102a7611a2d610fbc6111f0565b6119d3565b611a3f610fbc60036115e0565b6117d1576102a76102a7611a9c565b6102a7611a32565b611a5e611af0565b6102a7611a6d60006001611106565b336118107f5db9ee0a495bf2e6ff9c91a7834c1ba4fdd244a5e8aa4e537bd38aeae4b073aa9161099160405190565b6102a7611a56565b15611aab57565b60405162461bcd60e51b815260206004820152601460248201527f5061757361626c653a206e6f74207061757365640000000000000000000000006044820152606490fd5b6102a7611afb6111f0565b611aa4565b6102a7611b106117876003611769565b611b3a817f1d0f12d082b3e5338f8dab310a38db3645f19456d3e591618fb6ace837c5da39611121565b7fa5df84d05f94c8e589750a34f9631c6df369aabc0811ccbbd233872ff60aec66611121565b6102a79493929190611b917fa5df84d05f94c8e589750a34f9631c6df369aabc0811ccbbd233872ff60aec66610f0d565b611e33565b6001600160c01b03191690565b906001600160c01b031916610e3f565b60c01b90565b611b96611bb36102bd9290565b9067ffffffffffffffff906110fc565b90611bf4611bee61111d926001600160c01b03191690565b60c01c90565b8254611bc6565b600160ff1b81146112235760000390565b90600019906110fc565b90611c266102bd61111d926108e3565b8254611c0c565b9190820391821161122357565b6102bd60e0610456565b906102c090610b23565b80548210156112b957611c68600591600052602060002090565b91020190600090565b634e487b7160e01b600052600060045260246000fd5b906fffffffffffffffff00000000000000009060401b6110fc565b90611cba611bee61111d926001600160c01b03191690565b8254611c87565b6102bd9051610b23565b9070ff000000000000000000000000000000009060801b6110fc565b90611cf76102bd61111d92610b2d565b8254611ccb565b90611c266102bd61111d9290565b6102a79190611d7c9060c090600490611d6a81611d3a611d3488516001600160c01b03191690565b82611bd6565b611d58611d5260208901516001600160c01b03191690565b82611ca2565b611d6460408801611cc1565b90611ce7565b611d8260018201611d7c606088015190565b90611c16565b611d9a60028201611d94608088015190565b90611cfe565b611dbb60038201611db560a08801516001600160a01b031690565b9061160f565b0192015190565b9190611dd1576102a791611d0c565b611c71565b90815491680100000000000000008310156104515782611dfe9160016102a795018155611c4e565b90611dc2565b6103536102a794611e23606094989795610345608086019a6000870152565b6001600160a01b03166040830152565b90919293611b9694611e4483613022565b611e4d8461307f565b6111946003611eed611e6c6102bd88611e67896005611ba3565b611ba3565b6006810187611e7c825460c01b90565b611e99611e8b60009e8f611bb9565b916001600160c01b03191690565b1461212d575b5050611eaa8a610b23565b611eb38a610b23565b03611fe357611ec18a6108e3565b8512611fd4575b611ee38a8201611d7c611eda82610eba565b61136b896108e3565b4292839101611c16565b611f75611f026102bd88611e67896006611ba3565b983399611f2388611f11611c3a565b938401906001600160c01b0319169052565b6001600160c01b031989166020830152611f408a60408401611c44565b611f4b866060840152565b611f56876080840152565b6001600160a01b038b1660a0830152611f708460c0840152565b611dd6565b611fc1611fbb611fad7f5bc4eaa883164bc98b8d38af900cf3fabbc35142c8ce265f392551a475de3b0e976001600160c01b03191690565b976001600160c01b03191690565b97610b2d565b97611fcb60405190565b94859485611e04565b611fdd85611bfb565b50611ec8565b6001611fee81610b23565b611ff78b610b23565b036120a3576120058b6108e3565b861261205c57810161202261201c611eda83610eba565b82611c16565b61202b81610eba565b906127109161203c6112ec846108e3565b11612049575b5050611ee3565b611d7c612055926108e3565b3880612042565b612068610f2187611bfb565b90820161207481610eba565b82101561209557611d7c6120909261208b83610eba565b611c2d565b611ee3565b6120909150611d7c8c6108e3565b5060026120af81610b23565b6120b88b610b23565b146120c4575b50611ee3565b6120cd8b6108e3565b86126120eb576120e5908201611d7c611eda82610eba565b386120be565b6120f7610f2187611bfb565b90820161210381610eba565b82101561211f57611d7c61211a9261208b83610eba565b6120e5565b61211a9150611d7c8c6108e3565b61213691611bd6565b3887611e9f565b906102a794939291611b60565b612152611c3a565b906000825260208080808080808801600081520160008152016000815201600081520160008152016000905250565b6102bd61214a565b906102a7612221600661219a611c3a565b946121ab6121a782610eba565b8752565b6121c16121ba60018301610eba565b6020880152565b6121d76121d060028301610eba565b6040880152565b6121ed6121e660038301610eba565b6060880152565b6122036121fc60048301610eba565b6080880152565b61221961221260058301610eba565b60a0880152565b015460c01b90565b6001600160c01b03191660c0840152565b6102bd90612189565b6102bd91611e676122569261224e612181565b506005611ba3565b612232565b9061125f6104928361046a565b6102bd9060401c60c01b90565b6102bd9054612268565b6102bd9060801c610e84565b6102bd905461227f565b906102a761233260046122a6611c3a565b946122c36122b5825460c01b90565b6001600160c01b0319168752565b6122e06122cf82612275565b6001600160c01b0319166020880152565b6122f56122ec8261228b565b60408801611c44565b6123046121e660018301610eba565b6123136121fc60028301610eba565b610edd61232260038301611769565b6001600160a01b031660a0880152565b60c0840152565b6102bd90612295565b9061234b825490565b6123548161225b565b926123686020850191600052602060002090565b6000915b8383106123795750505050565b6005602060019261238985612339565b81520192019201919061236c565b6102bd90612342565b6102bd91611e676123bb926123b3606090565b506006611ba3565b612397565b156123c757565b60405162461bcd60e51b815260206004820152600e60248201527f4e6f7420617574686f72697a65640000000000000000000000000000000000006044820152606490fd5b9081526060810193926102a7929091604091610353905b6020830152565b6003937fa5df84d05f94c8e589750a34f9631c6df369aabc0811ccbbd233872ff60aec669361246361245e335b8097610e94565b6123c0565b61246c83613022565b6124758461307f565b6124aa61248a6102bd86611e67876005611ba3565b6124a081611d7c8561249b83610eba565b611228565b4297889101611c16565b61252e6124bf6102bd86611e67876006611ba3565b6000906125096124ce856108e3565b6125026124d9611c3a565b6001600160c01b03198a1686820152946001600160c01b03198b16602087015260408601611c44565b6060840152565b612514856080840152565b6001600160a01b03881660a0830152611f708960c0840152565b61119461257d6125776125697fe993dcd775d80486c85bc545833c1237c683d563e5b94a1489c53e8eda115f6e966001600160c01b03191690565b966001600160c01b03191690565b96610e6c565b9661258760405190565b9384938461240c565b610edd6102bd92611e6760009361224e600090565b60001981146112235760010190565b90151581526060810193926102a792909160409161035390612423565b6003937fa5df84d05f94c8e589750a34f9631c6df369aabc0811ccbbd233872ff60aec669361260261245e33612457565b61260b83613022565b6126148461307f565b612679600561262a6102bd87611e678885611ba3565b9061264360048301611d7c61263e82610eba565b6125a5565b83156126c75761265b908201611d7c61263e82610eba565b6124a0612668600a6108e3565b611d7c600284019161249b83610eba565b6111946126b46125776125697f2f8763f3ec36d2227a9383bc64222556fdb445157459b8bda88be19ca4345d68966001600160c01b03191690565b966126be60405190565b938493846125b4565b600282016126d481610eba565b6126e06112ec846108e3565b1061270257611d7c6126f46126fd936108e3565b61208b83610eba565b6124a0565b6126fd9150611d7c60006108e3565b610edd6102bd92611e6760029361224e600090565b634e487b7160e01b600052601260045260246000fd5b8115612746570490565b612726565b9161276f602061276a61225661277595611e676102bd9861224e600090565b015190565b90611210565b6127806103e86108e3565b9061273c565b61279991611e676122569261224e600090565b6080810180516127ac6112ec60006108e3565b146127f2578161136b60406127e26127e8946127806127dd6127d260a06102bd9a015190565b61276f6127106108e3565b915190565b92015190565b61278060026108e3565b50506102bd6113886108e3565b60005b82811061280e57505050565b602090612819612181565b8184015201612802565b906102a76128396128338461225b565b9361046a565b601f1901602084016127ff565b9061284f825190565b8110156112b9576020809102010190565b9061287161286c825190565b612823565b9161287c60006108e3565b6128876102bd845190565b8110156128e4576128df906128c46122566128a3856005611ba3565b6128be6128b08589612846565b516001600160c01b03191690565b90611ba3565b6128ce8287612846565b526128d98186612846565b506125a5565b61287c565b50505090565b905051906102a7826102f5565b905051906102a782610638565b9092919261291461049282611235565b93818552602085019082840111610295576102a792610854565b9080601f830112156102955781516102bd92602001612904565b905051906102a7826103d7565b905051906102a78261076b565b919091610100818403126102955761297b610100610456565b92600061298882846128ea565b90850152602061299a828285016128f7565b9085015260406129ac828285016128ea565b9085015260608201519067ffffffffffffffff8211610295576129d481612a1993850161292e565b606086015260806129e782828601612948565b9086015260a06129f982828601612948565b9086015260c0612a0b82828601612955565b9086015260e0809301612955565b90830152565b9060208282031261029557815167ffffffffffffffff8111610295576102bd9201612962565b6001600160a01b039190911681526001600160c01b0319909116602082015260400190565b6040513d6000823e3d90fd5b612a9f7f377799b22fba826cf24c3f07e6731c67676765addcee33415a2c80d453d4ed6e612c46565b91600092612aaf61062c856115f7565b6001600160a01b03821614612b91578291612acd6117878693610e6c565b612aee6336cde77b612af9612ae160405190565b9687958694859460e01b90565b845260048401612a45565b03915afa8015612b8c578391600091612b6b575b500191612b31611e8b611b96612b2b86516001600160c01b03191690565b93611bb9565b14612b66579161276f602061276a612256612775956128be612b576102bd996005611ba3565b91516001600160c01b03191690565b505090565b612b86913d8091833e612b7e818361042f565b810190612a1f565b38612b0d565b612a6a565b5050505090565b90612ba6610fbc60036115e0565b6117d1576102bd91612bc7565b90602082820312610295576102bd916128f7565b612c089160209150612bdc6117876003611769565b612bfa6385acd641612bed60405190565b9586948593849360e01b90565b835260048301526024820190565b03915afa908115612b8c57600091612c1e575090565b6102bd915060203d8111612c3f575b612c37818361042f565b810190612bb3565b503d612c2d565b6102bd906000612b98565b90929192612c616104928261046a565b938185526020808601920283019281841161029557915b838310612c855750505050565b60208091612c9384866128f7565b815201920191612c78565b9080601f830112156102955781516102bd92602001612c51565b9060208282031261029557815167ffffffffffffffff8111610295576102bd9201612c9e565b612d077f3a895dd7c72f83eeb5f75bd8d64cf0f19825ab80804745a41f58e42088602c20612c46565b91600092612d14846115f7565b906001600160a01b0382166001600160a01b03821614612fc9579380612d3f611787612d5797610e6c565b63a8947b8590612d4e60405190565b97889260e01b90565b82526001600160c01b03198716600483015260249082905afa948515612b8c57600095612fa5575b508451612d8e6112ec836108e3565b14612f8e57612d9c816108e3565b908180918194612dce61178c7f377799b22fba826cf24c3f07e6731c67676765addcee33415a2c80d453d4ed6e612c46565b6001600160a01b03821614612f7757612de690610e6c565b825b612df36102bd8b5190565b811015612f0d5788838b612e0685610e6c565b612aee612e28612e1b876336cde77b95612846565b516001600160a01b031690565b92612e35612ae160405190565b03915afa8015612b8c578491600091612ef4575b500180516001600160c01b031916612e66611e8b611b9687611bb9565b03612e7b575b50612e76906125a5565b612de8565b90969395939490612e8d8a6005611ba3565b90516001600160c01b031916612ea291611ba3565b612eab90612232565b95612eb7602088015190565b612ec091611228565b93612ecb8785015190565b612ed491611228565b604090960151612ee391611228565b93612eed906125a5565b9538612e6c565b612f07913d8091833e612b7e818361042f565b38612e49565b505092955095612f1f90949391945190565b93612f29836108e3565b821196828815612f6657612f3c9161273c565b965b15612f5557612f4d925061273c565b915b93929190565b5050612f60906108e3565b91612f4f565b5050612f71836108e3565b96612f3e565b50509551939450612f8792505050565b9180918190565b91935050612f9c91506108e3565b90819082908390565b612fc29195503d8087833e612fba818361042f565b810190612cb8565b9338612d7f565b505091612f9c91506108e3565b15612fdd57565b60405162461bcd60e51b815260206004820152601b60248201527f4f7267616e697a6174696f6e20646f6573206e6f7420657869737400000000006044820152606490fd5b61302e6102a791613090565b612fd6565b1561303a57565b60405162461bcd60e51b815260206004820152601660248201527f50726f66696c6520646f6573206e6f74206578697374000000000000000000006044820152606490fd5b61308b6102a7916130eb565b613033565b506130ba7fbdded29a54e6a5d6169bedea55373b06f57e35d7b0f67ac187565b435e2cc943612c46565b6000906130cc61178c61062c846115f7565b146102bd5750600190565b90602082820312610295576102bd91612955565b6131147f377799b22fba826cf24c3f07e6731c67676765addcee33415a2c80d453d4ed6e612c46565b600061312261062c826115f7565b6001600160a01b038316146131ab575061316d91613144611787602093610e6c565b61315563a86c5f64612bed60405190565b83526001600160c01b03191660048301526024820190565b03915afa908115612b8c57600091613183575090565b6102bd915060203d81116131a4575b61319c818361042f565b8101906130d7565b503d613192565b9150509056fea26469706673582212208d954029f0d08b67c6bfeb7cb2bff4ac784b2849e632077cbeff6f747418516b64736f6c63430008140033",
  "linkReferences": {},
  "deployedLinkReferences": {}
}