{
  "_format": "hh-sol-artifact-1",
  "contractName": "Staking",
  "sourceName": "contracts/modules/Staking/Staking.sol",
  "abi": [
    {
      "inputs": [
        {
          "internalType": "address",
          "name": "_gameToken",
          "type": "address"
        },
        {
          "internalType": "address",
          "name": "_treasury",
          "type": "address"
        },
        {
          "internalType": "uint256",
          "name": "_protocolFeeShare",
          "type": "uint256"
        }
      ],
      "stateMutability": "nonpayable",
      "type": "constructor"
    },
    {
      "anonymous": false,
      "inputs": [
        {
          "indexed": true,
          "internalType": "bytes8",
          "name": "organizationId",
          "type": "bytes8"
        },
        {
          "indexed": true,
          "internalType": "address",
          "name": "staker",
          "type": "address"
        },
        {
          "indexed": false,
          "internalType": "uint256",
          "name": "amount",
          "type": "uint256"
        },
        {
          "indexed": false,
          "internalType": "uint256",
          "name": "timestamp",
          "type": "uint256"
        }
      ],
      "name": "OrganizationStakeWithdrawn",
      "type": "event"
    },
    {
      "anonymous": false,
      "inputs": [
        {
          "indexed": true,
          "internalType": "bytes8",
          "name": "organizationId",
          "type": "bytes8"
        },
        {
          "indexed": true,
          "internalType": "address",
          "name": "staker",
          "type": "address"
        },
        {
          "indexed": false,
          "internalType": "uint256",
          "name": "amount",
          "type": "uint256"
        },
        {
          "indexed": false,
          "internalType": "uint256",
          "name": "timestamp",
          "type": "uint256"
        }
      ],
      "name": "OrganizationStaked",
      "type": "event"
    },
    {
      "anonymous": false,
      "inputs": [
        {
          "indexed": false,
          "internalType": "address",
          "name": "account",
          "type": "address"
        }
      ],
      "name": "Paused",
      "type": "event"
    },
    {
      "anonymous": false,
      "inputs": [
        {
          "indexed": true,
          "internalType": "enum Staking.StakingPurpose",
          "name": "purpose",
          "type": "uint8"
        },
        {
          "indexed": false,
          "internalType": "uint256",
          "name": "newRewardRate",
          "type": "uint256"
        },
        {
          "indexed": false,
          "internalType": "bool",
          "name": "active",
          "type": "bool"
        }
      ],
      "name": "PoolUpdated",
      "type": "event"
    },
    {
      "anonymous": false,
      "inputs": [
        {
          "indexed": true,
          "internalType": "address",
          "name": "user",
          "type": "address"
        },
        {
          "indexed": true,
          "internalType": "enum Staking.StakingPurpose",
          "name": "purpose",
          "type": "uint8"
        },
        {
          "indexed": false,
          "internalType": "uint256",
          "name": "amount",
          "type": "uint256"
        },
        {
          "indexed": false,
          "internalType": "uint256",
          "name": "timestamp",
          "type": "uint256"
        }
      ],
      "name": "RewardsClaimed",
      "type": "event"
    },
    {
      "anonymous": false,
      "inputs": [
        {
          "indexed": true,
          "internalType": "enum Staking.StakingPurpose",
          "name": "purpose",
          "type": "uint8"
        },
        {
          "indexed": false,
          "internalType": "uint256",
          "name": "amount",
          "type": "uint256"
        },
        {
          "indexed": false,
          "internalType": "uint256",
          "name": "timestamp",
          "type": "uint256"
        }
      ],
      "name": "RewardsDistributed",
      "type": "event"
    },
    {
      "anonymous": false,
      "inputs": [
        {
          "indexed": true,
          "internalType": "bytes32",
          "name": "role",
          "type": "bytes32"
        },
        {
          "indexed": true,
          "internalType": "bytes32",
          "name": "previousAdminRole",
          "type": "bytes32"
        },
        {
          "indexed": true,
          "internalType": "bytes32",
          "name": "newAdminRole",
          "type": "bytes32"
        }
      ],
      "name": "RoleAdminChanged",
      "type": "event"
    },
    {
      "anonymous": false,
      "inputs": [
        {
          "indexed": true,
          "internalType": "bytes32",
          "name": "role",
          "type": "bytes32"
        },
        {
          "indexed": true,
          "internalType": "address",
          "name": "account",
          "type": "address"
        },
        {
          "indexed": true,
          "internalType": "address",
          "name": "sender",
          "type": "address"
        }
      ],
      "name": "RoleGranted",
      "type": "event"
    },
    {
      "anonymous": false,
      "inputs": [
        {
          "indexed": true,
          "internalType": "bytes32",
          "name": "role",
          "type": "bytes32"
        },
        {
          "indexed": true,
          "internalType": "address",
          "name": "account",
          "type": "address"
        },
        {
          "indexed": true,
          "internalType": "address",
          "name": "sender",
          "type": "address"
        }
      ],
      "name": "RoleRevoked",
      "type": "event"
    },
    {
      "anonymous": false,
      "inputs": [
        {
          "indexed": true,
          "internalType": "address",
          "name": "user",
          "type": "address"
        },
        {
          "indexed": true,
          "internalType": "enum Staking.StakingPurpose",
          "name": "purpose",
          "type": "uint8"
        },
        {
          "indexed": false,
          "internalType": "uint256",
          "name": "amount",
          "type": "uint256"
        },
        {
          "indexed": true,
          "internalType": "address",
          "name": "slasher",
          "type": "address"
        },
        {
          "indexed": false,
          "internalType": "string",
          "name": "reason",
          "type": "string"
        },
        {
          "indexed": false,
          "internalType": "uint256",
          "name": "timestamp",
          "type": "uint256"
        }
      ],
      "name": "Slashed",
      "type": "event"
    },
    {
      "anonymous": false,
      "inputs": [
        {
          "indexed": true,
          "internalType": "address",
          "name": "user",
          "type": "address"
        },
        {
          "indexed": true,
          "internalType": "enum Staking.StakingPurpose",
          "name": "purpose",
          "type": "uint8"
        },
        {
          "indexed": false,
          "internalType": "uint256",
          "name": "amount",
          "type": "uint256"
        },
        {
          "indexed": false,
          "internalType": "enum Staking.UnstakingStrategy",
          "name": "strategy",
          "type": "uint8"
        },
        {
          "indexed": false,
          "internalType": "uint256",
          "name": "timestamp",
          "type": "uint256"
        }
      ],
      "name": "Staked",
      "type": "event"
    },
    {
      "anonymous": false,
      "inputs": [
        {
          "indexed": false,
          "internalType": "address",
          "name": "account",
          "type": "address"
        }
      ],
      "name": "Unpaused",
      "type": "event"
    },
    {
      "anonymous": false,
      "inputs": [
        {
          "indexed": true,
          "internalType": "address",
          "name": "user",
          "type": "address"
        },
        {
          "indexed": true,
          "internalType": "enum Staking.StakingPurpose",
          "name": "purpose",
          "type": "uint8"
        },
        {
          "indexed": false,
          "internalType": "uint256",
          "name": "amount",
          "type": "uint256"
        },
        {
          "indexed": false,
          "internalType": "enum Staking.UnstakingStrategy",
          "name": "strategy",
          "type": "uint8"
        },
        {
          "indexed": false,
          "internalType": "uint256",
          "name": "requestId",
          "type": "uint256"
        },
        {
          "indexed": false,
          "internalType": "uint256",
          "name": "unlockTime",
          "type": "uint256"
        }
      ],
      "name": "UnstakeRequested",
      "type": "event"
    },
    {
      "anonymous": false,
      "inputs": [
        {
          "indexed": true,
          "internalType": "address",
          "name": "user",
          "type": "address"
        },
        {
          "indexed": true,
          "internalType": "enum Staking.StakingPurpose",
          "name": "purpose",
          "type": "uint8"
        },
        {
          "indexed": false,
          "internalType": "uint256",
          "name": "amount",
          "type": "uint256"
        },
        {
          "indexed": false,
          "internalType": "uint256",
          "name": "penalty",
          "type": "uint256"
        },
        {
          "indexed": false,
          "internalType": "uint256",
          "name": "timestamp",
          "type": "uint256"
        }
      ],
      "name": "Unstaked",
      "type": "event"
    },
    {
      "inputs": [],
      "name": "ADMIN_ROLE",
      "outputs": [
        {
          "internalType": "bytes32",
          "name": "",
          "type": "bytes32"
        }
      ],
      "stateMutability": "view",
      "type": "function"
    },
    {
      "inputs": [],
      "name": "BASIS_POINTS",
      "outputs": [
        {
          "internalType": "uint256",
          "name": "",
          "type": "uint256"
        }
      ],
      "stateMutability": "view",
      "type": "function"
    },
    {
      "inputs": [],
      "name": "DEFAULT_ADMIN_ROLE",
      "outputs": [
        {
          "internalType": "bytes32",
          "name": "",
          "type": "bytes32"
        }
      ],
      "stateMutability": "view",
      "type": "function"
    },
    {
      "inputs": [],
      "name": "MAX_REWARD_RATE",
      "outputs": [
        {
          "internalType": "uint256",
          "name": "",
          "type": "uint256"
        }
      ],
      "stateMutability": "view",
      "type": "function"
    },
    {
      "inputs": [],
      "name": "MIN_STAKE_AMOUNT",
      "outputs": [
        {
          "internalType": "uint256",
          "name": "",
          "type": "uint256"
        }
      ],
      "stateMutability": "view",
      "type": "function"
    },
    {
      "inputs": [],
      "name": "ORGANIZATION_MANAGER_ROLE",
      "outputs": [
        {
          "internalType": "bytes32",
          "name": "",
          "type": "bytes32"
        }
      ],
      "stateMutability": "view",
      "type": "function"
    },
    {
      "inputs": [],
      "name": "ORGANIZATION_STAKE_LOCK_PERIOD",
      "outputs": [
        {
          "internalType": "uint256",
          "name": "",
          "type": "uint256"
        }
      ],
      "stateMutability": "view",
      "type": "function"
    },
    {
      "inputs": [],
      "name": "PRECISION",
      "outputs": [
        {
          "internalType": "uint256",
          "name": "",
          "type": "uint256"
        }
      ],
      "stateMutability": "view",
      "type": "function"
    },
    {
      "inputs": [],
      "name": "RAGE_QUIT_PENALTY",
      "outputs": [
        {
          "internalType": "uint256",
          "name": "",
          "type": "uint256"
        }
      ],
      "stateMutability": "view",
      "type": "function"
    },
    {
      "inputs": [],
      "name": "REWARD_DISTRIBUTOR_ROLE",
      "outputs": [
        {
          "internalType": "bytes32",
          "name": "",
          "type": "bytes32"
        }
      ],
      "stateMutability": "view",
      "type": "function"
    },
    {
      "inputs": [],
      "name": "SLASHER_ROLE",
      "outputs": [
        {
          "internalType": "bytes32",
          "name": "",
          "type": "bytes32"
        }
      ],
      "stateMutability": "view",
      "type": "function"
    },
    {
      "inputs": [
        {
          "internalType": "bytes8",
          "name": "organizationId",
          "type": "bytes8"
        }
      ],
      "name": "canWithdrawOrganizationStake",
      "outputs": [
        {
          "internalType": "bool",
          "name": "",
          "type": "bool"
        }
      ],
      "stateMutability": "view",
      "type": "function"
    },
    {
      "inputs": [
        {
          "internalType": "enum Staking.StakingPurpose",
          "name": "purpose",
          "type": "uint8"
        }
      ],
      "name": "claimRewards",
      "outputs": [],
      "stateMutability": "nonpayable",
      "type": "function"
    },
    {
      "inputs": [
        {
          "internalType": "enum Staking.StakingPurpose",
          "name": "purpose",
          "type": "uint8"
        },
        {
          "internalType": "uint256",
          "name": "amount",
          "type": "uint256"
        }
      ],
      "name": "distributeRewards",
      "outputs": [],
      "stateMutability": "nonpayable",
      "type": "function"
    },
    {
      "inputs": [
        {
          "internalType": "address",
          "name": "token",
          "type": "address"
        },
        {
          "internalType": "uint256",
          "name": "amount",
          "type": "uint256"
        }
      ],
      "name": "emergencyWithdraw",
      "outputs": [],
      "stateMutability": "nonpayable",
      "type": "function"
    },
    {
      "inputs": [],
      "name": "gameToken",
      "outputs": [
        {
          "internalType": "contract IERC20",
          "name": "",
          "type": "address"
        }
      ],
      "stateMutability": "view",
      "type": "function"
    },
    {
      "inputs": [
        {
          "internalType": "bytes8",
          "name": "organizationId",
          "type": "bytes8"
        }
      ],
      "name": "getOrganizationStake",
      "outputs": [
        {
          "components": [
            {
              "internalType": "bytes8",
              "name": "organizationId",
              "type": "bytes8"
            },
            {
              "internalType": "address",
              "name": "staker",
              "type": "address"
            },
            {
              "internalType": "uint256",
              "name": "amount",
              "type": "uint256"
            },
            {
              "internalType": "uint256",
              "name": "stakedAt",
              "type": "uint256"
            },
            {
              "internalType": "bool",
              "name": "active",
              "type": "bool"
            }
          ],
          "internalType": "struct Staking.OrganizationStake",
          "name": "",
          "type": "tuple"
        }
      ],
      "stateMutability": "view",
      "type": "function"
    },
    {
      "inputs": [
        {
          "internalType": "address",
          "name": "user",
          "type": "address"
        },
        {
          "internalType": "enum Staking.StakingPurpose",
          "name": "purpose",
          "type": "uint8"
        }
      ],
      "name": "getPendingRewards",
      "outputs": [
        {
          "internalType": "uint256",
          "name": "",
          "type": "uint256"
        }
      ],
      "stateMutability": "view",
      "type": "function"
    },
    {
      "inputs": [
        {
          "internalType": "enum Staking.StakingPurpose",
          "name": "purpose",
          "type": "uint8"
        }
      ],
      "name": "getPoolInfo",
      "outputs": [
        {
          "internalType": "uint256",
          "name": "totalStaked",
          "type": "uint256"
        },
        {
          "internalType": "uint256",
          "name": "rewardRate",
          "type": "uint256"
        },
        {
          "internalType": "uint256",
          "name": "totalRewardsDistributed",
          "type": "uint256"
        },
        {
          "internalType": "bool",
          "name": "active",
          "type": "bool"
        }
      ],
      "stateMutability": "view",
      "type": "function"
    },
    {
      "inputs": [
        {
          "internalType": "bytes32",
          "name": "role",
          "type": "bytes32"
        }
      ],
      "name": "getRoleAdmin",
      "outputs": [
        {
          "internalType": "bytes32",
          "name": "",
          "type": "bytes32"
        }
      ],
      "stateMutability": "view",
      "type": "function"
    },
    {
      "inputs": [
        {
          "internalType": "address",
          "name": "user",
          "type": "address"
        },
        {
          "internalType": "enum Staking.StakingPurpose",
          "name": "purpose",
          "type": "uint8"
        }
      ],
      "name": "getStakeInfo",
      "outputs": [
        {
          "internalType": "uint256",
          "name": "amount",
          "type": "uint256"
        },
        {
          "internalType": "uint256",
          "name": "pendingRewards",
          "type": "uint256"
        },
        {
          "internalType": "uint256",
          "name": "stakedAt",
          "type": "uint256"
        },
        {
          "internalType": "enum Staking.UnstakingStrategy",
          "name": "strategy",
          "type": "uint8"
        }
      ],
      "stateMutability": "view",
      "type": "function"
    },
    {
      "inputs": [
        {
          "internalType": "address",
          "name": "user",
          "type": "address"
        }
      ],
      "name": "getUserOrganizationStakes",
      "outputs": [
        {
          "internalType": "bytes8[]",
          "name": "",
          "type": "bytes8[]"
        }
      ],
      "stateMutability": "view",
      "type": "function"
    },
    {
      "inputs": [
        {
          "internalType": "bytes32",
          "name": "role",
          "type": "bytes32"
        },
        {
          "internalType": "address",
          "name": "account",
          "type": "address"
        }
      ],
      "name": "grantRole",
      "outputs": [],
      "stateMutability": "nonpayable",
      "type": "function"
    },
    {
      "inputs": [
        {
          "internalType": "bytes32",
          "name": "role",
          "type": "bytes32"
        },
        {
          "internalType": "address",
          "name": "account",
          "type": "address"
        }
      ],
      "name": "hasRole",
      "outputs": [
        {
          "internalType": "bool",
          "name": "",
          "type": "bool"
        }
      ],
      "stateMutability": "view",
      "type": "function"
    },
    {
      "inputs": [
        {
          "internalType": "bytes8",
          "name": "",
          "type": "bytes8"
        }
      ],
      "name": "organizationStakes",
      "outputs": [
        {
          "internalType": "bytes8",
          "name": "organizationId",
          "type": "bytes8"
        },
        {
          "internalType": "address",
          "name": "staker",
          "type": "address"
        },
        {
          "internalType": "uint256",
          "name": "amount",
          "type": "uint256"
        },
        {
          "internalType": "uint256",
          "name": "stakedAt",
          "type": "uint256"
        },
        {
          "internalType": "bool",
          "name": "active",
          "type": "bool"
        }
      ],
      "stateMutability": "view",
      "type": "function"
    },
    {
      "inputs": [],
      "name": "pause",
      "outputs": [],
      "stateMutability": "nonpayable",
      "type": "function"
    },
    {
      "inputs": [],
      "name": "paused",
      "outputs": [
        {
          "internalType": "bool",
          "name": "",
          "type": "bool"
        }
      ],
      "stateMutability": "view",
      "type": "function"
    },
    {
      "inputs": [
        {
          "internalType": "enum Staking.StakingPurpose",
          "name": "purpose",
          "type": "uint8"
        },
        {
          "internalType": "uint256",
          "name": "requestId",
          "type": "uint256"
        }
      ],
      "name": "processUnstake",
      "outputs": [],
      "stateMutability": "nonpayable",
      "type": "function"
    },
    {
      "inputs": [],
      "name": "protocolFeeShare",
      "outputs": [
        {
          "internalType": "uint256",
          "name": "",
          "type": "uint256"
        }
      ],
      "stateMutability": "view",
      "type": "function"
    },
    {
      "inputs": [
        {
          "internalType": "bytes32",
          "name": "role",
          "type": "bytes32"
        },
        {
          "internalType": "address",
          "name": "account",
          "type": "address"
        }
      ],
      "name": "renounceRole",
      "outputs": [],
      "stateMutability": "nonpayable",
      "type": "function"
    },
    {
      "inputs": [
        {
          "internalType": "enum Staking.StakingPurpose",
          "name": "purpose",
          "type": "uint8"
        },
        {
          "internalType": "uint256",
          "name": "amount",
          "type": "uint256"
        },
        {
          "internalType": "enum Staking.UnstakingStrategy",
          "name": "strategy",
          "type": "uint8"
        }
      ],
      "name": "requestUnstake",
      "outputs": [],
      "stateMutability": "nonpayable",
      "type": "function"
    },
    {
      "inputs": [
        {
          "internalType": "bytes32",
          "name": "role",
          "type": "bytes32"
        },
        {
          "internalType": "address",
          "name": "account",
          "type": "address"
        }
      ],
      "name": "revokeRole",
      "outputs": [],
      "stateMutability": "nonpayable",
      "type": "function"
    },
    {
      "inputs": [
        {
          "internalType": "uint256",
          "name": "_protocolFeeShare",
          "type": "uint256"
        }
      ],
      "name": "setProtocolFeeShare",
      "outputs": [],
      "stateMutability": "nonpayable",
      "type": "function"
    },
    {
      "inputs": [
        {
          "internalType": "address",
          "name": "_treasury",
          "type": "address"
        }
      ],
      "name": "setTreasury",
      "outputs": [],
      "stateMutability": "nonpayable",
      "type": "function"
    },
    {
      "inputs": [
        {
          "internalType": "address",
          "name": "user",
          "type": "address"
        },
        {
          "internalType": "enum Staking.StakingPurpose",
          "name": "purpose",
          "type": "uint8"
        },
        {
          "internalType": "uint256",
          "name": "amount",
          "type": "uint256"
        },
        {
          "internalType": "string",
          "name": "reason",
          "type": "string"
        }
      ],
      "name": "slash",
      "outputs": [],
      "stateMutability": "nonpayable",
      "type": "function"
    },
    {
      "inputs": [
        {
          "internalType": "address",
          "name": "",
          "type": "address"
        }
      ],
      "name": "slashedUsers",
      "outputs": [
        {
          "internalType": "bool",
          "name": "",
          "type": "bool"
        }
      ],
      "stateMutability": "view",
      "type": "function"
    },
    {
      "inputs": [
        {
          "internalType": "enum Staking.StakingPurpose",
          "name": "purpose",
          "type": "uint8"
        },
        {
          "internalType": "uint256",
          "name": "amount",
          "type": "uint256"
        },
        {
          "internalType": "enum Staking.UnstakingStrategy",
          "name": "preferredStrategy",
          "type": "uint8"
        }
      ],
      "name": "stake",
      "outputs": [],
      "stateMutability": "nonpayable",
      "type": "function"
    },
    {
      "inputs": [
        {
          "internalType": "bytes8",
          "name": "organizationId",
          "type": "bytes8"
        },
        {
          "internalType": "address",
          "name": "staker",
          "type": "address"
        },
        {
          "internalType": "uint256",
          "name": "amount",
          "type": "uint256"
        }
      ],
      "name": "stakeForOrganization",
      "outputs": [],
      "stateMutability": "nonpayable",
      "type": "function"
    },
    {
      "inputs": [
        {
          "internalType": "enum Staking.StakingPurpose",
          "name": "",
          "type": "uint8"
        }
      ],
      "name": "stakingPools",
      "outputs": [
        {
          "internalType": "uint256",
          "name": "totalStaked",
          "type": "uint256"
        },
        {
          "internalType": "uint256",
          "name": "rewardRate",
          "type": "uint256"
        },
        {
          "internalType": "uint256",
          "name": "lastUpdateTime",
          "type": "uint256"
        },
        {
          "internalType": "uint256",
          "name": "rewardPerTokenStored",
          "type": "uint256"
        },
        {
          "internalType": "uint256",
          "name": "totalRewardsDistributed",
          "type": "uint256"
        },
        {
          "internalType": "bool",
          "name": "active",
          "type": "bool"
        }
      ],
      "stateMutability": "view",
      "type": "function"
    },
    {
      "inputs": [
        {
          "internalType": "bytes4",
          "name": "interfaceId",
          "type": "bytes4"
        }
      ],
      "name": "supportsInterface",
      "outputs": [
        {
          "internalType": "bool",
          "name": "",
          "type": "bool"
        }
      ],
      "stateMutability": "view",
      "type": "function"
    },
    {
      "inputs": [],
      "name": "totalRewardsPool",
      "outputs": [
        {
          "internalType": "uint256",
          "name": "",
          "type": "uint256"
        }
      ],
      "stateMutability": "view",
      "type": "function"
    },
    {
      "inputs": [],
      "name": "totalSlashed",
      "outputs": [
        {
          "internalType": "uint256",
          "name": "",
          "type": "uint256"
        }
      ],
      "stateMutability": "view",
      "type": "function"
    },
    {
      "inputs": [],
      "name": "treasury",
      "outputs": [
        {
          "internalType": "address",
          "name": "",
          "type": "address"
        }
      ],
      "stateMutability": "view",
      "type": "function"
    },
    {
      "inputs": [],
      "name": "unpause",
      "outputs": [],
      "stateMutability": "nonpayable",
      "type": "function"
    },
    {
      "inputs": [
        {
          "internalType": "address",
          "name": "",
          "type": "address"
        },
        {
          "internalType": "uint256",
          "name": "",
          "type": "uint256"
        }
      ],
      "name": "unstakeRequests",
      "outputs": [
        {
          "internalType": "uint256",
          "name": "amount",
          "type": "uint256"
        },
        {
          "internalType": "uint256",
          "name": "requestTime",
          "type": "uint256"
        },
        {
          "internalType": "enum Staking.UnstakingStrategy",
          "name": "strategy",
          "type": "uint8"
        },
        {
          "internalType": "bool",
          "name": "processed",
          "type": "bool"
        }
      ],
      "stateMutability": "view",
      "type": "function"
    },
    {
      "inputs": [
        {
          "internalType": "enum Staking.StakingPurpose",
          "name": "purpose",
          "type": "uint8"
        },
        {
          "internalType": "uint256",
          "name": "newRewardRate",
          "type": "uint256"
        },
        {
          "internalType": "bool",
          "name": "active",
          "type": "bool"
        }
      ],
      "name": "updatePool",
      "outputs": [],
      "stateMutability": "nonpayable",
      "type": "function"
    },
    {
      "inputs": [
        {
          "internalType": "address",
          "name": "",
          "type": "address"
        },
        {
          "internalType": "uint256",
          "name": "",
          "type": "uint256"
        }
      ],
      "name": "userOrganizationStakes",
      "outputs": [
        {
          "internalType": "bytes8",
          "name": "",
          "type": "bytes8"
        }
      ],
      "stateMutability": "view",
      "type": "function"
    },
    {
      "inputs": [
        {
          "internalType": "address",
          "name": "",
          "type": "address"
        },
        {
          "internalType": "enum Staking.StakingPurpose",
          "name": "",
          "type": "uint8"
        }
      ],
      "name": "userStakes",
      "outputs": [
        {
          "internalType": "uint256",
          "name": "amount",
          "type": "uint256"
        },
        {
          "internalType": "uint256",
          "name": "rewardPerTokenPaid",
          "type": "uint256"
        },
        {
          "internalType": "uint256",
          "name": "pendingRewards",
          "type": "uint256"
        },
        {
          "internalType": "uint256",
          "name": "stakedAt",
          "type": "uint256"
        },
        {
          "internalType": "uint256",
          "name": "lastClaimTime",
          "type": "uint256"
        },
        {
          "internalType": "enum Staking.UnstakingStrategy",
          "name": "preferredStrategy",
          "type": "uint8"
        }
      ],
      "stateMutability": "view",
      "type": "function"
    },
    {
      "inputs": [
        {
          "internalType": "address",
          "name": "",
          "type": "address"
        }
      ],
      "name": "userUnstakeRequestCount",
      "outputs": [
        {
          "internalType": "uint256",
          "name": "",
          "type": "uint256"
        }
      ],
      "stateMutability": "view",
      "type": "function"
    },
    {
      "inputs": [
        {
          "internalType": "bytes8",
          "name": "organizationId",
          "type": "bytes8"
        },
        {
          "internalType": "address",
          "name": "staker",
          "type": "address"
        }
      ],
      "name": "withdrawOrganizationStake",
      "outputs": [],
      "stateMutability": "nonpayable",
      "type": "function"
    }
  ],
  "bytecode": "0x60a0604052346200006b576200001f6200001862000145565b9162000300565b604051613e92620007ee82396080518181816111cb01528181611ba0015281816125ef0152818161282e015281816129e301528181612b7b015281816138af0152613b420152613e9290f35b600080fd5b634e487b7160e01b600052604160045260246000fd5b90601f01601f191681019081106001600160401b03821117620000a857604052565b62000070565b90620000c5620000bd60405190565b928362000086565b565b6001600160a01b031690565b90565b6001600160a01b0381165b036200006b57565b90505190620000c582620000d6565b80620000e1565b90505190620000c582620000f8565b90916060828403126200006b57620000d36200012b8484620000e9565b936200013b8160208601620000e9565b93604001620000ff565b6200016862004680803803806200015c81620000ae565b9283398101906200010e565b909192565b620000c7620000d3620000d39290565b620000d3906200016d565b156200019057565b60405162461bcd60e51b815260206004820152601260248201527124b73b30b634b21033b0b6b2903a37b5b2b760711b6044820152606490fd5b15620001d257565b60405162461bcd60e51b815260206004820152601060248201526f496e76616c696420747265617375727960801b6044820152606490fd5b620000d3620000d3620000d39290565b620000d36127106200020a565b156200022f57565b60405162461bcd60e51b8152602060048201526011602482015270496e76616c69642066656520736861726560781b6044820152606490fd5b620000d390620000c7906001600160a01b031682565b620000d39062000268565b620000d3906200027e565b90610100600160a81b039060081b5b9181191691161790565b90620002c1620000d3620002c99262000289565b825462000294565b9055565b9060001990620002a3565b90620002ec620000d3620002c9926200020a565b8254620002cd565b620000d360006200020a565b620003939291620003806200038b92620003196200045c565b6200035f6200034d6200032d60006200017d565b620000c76001600160a01b0382166001600160a01b038616141562000188565b6001600160a01b0385161415620001ca565b6200037a62000371620000d36200021a565b86111562000227565b62000289565b6080526002620002ad565b600a620002d8565b6200042d620003a1620002f4565b620003ae338092620004b2565b620003da817fa49807205ce4d355092ef5a8a18f56e8913cf4a201fbe287825b095693c21775620004b2565b62000406817fb814ff4a26ea3ec5cd1fa579daad86324826254265f3acfec78303a19845b449620004b2565b7f12274c208a40c3eca6c09426911c6b1a9bcdb6ae935ccde65ec88694c95cd3a7620004b2565b620000c562000648565b9060ff90620002a3565b9062000454620000d3620002c992151590565b825462000437565b6200046662000480565b620000c56000600262000441565b620000d360016200020a565b620000c56200048e62000474565b6001620002d8565b905b600052602052604060002090565b90620004989062000289565b90620004c7620004c3828462000541565b1590565b620004d0575050565b620004f66001620004f0836000620004e9878262000496565b01620004a6565b62000441565b33906200053062000529620005297f2f8788117e7eff1d82e926ec794901d17c78024a50270940304540a733656f0d9590565b9262000289565b926200053b60405190565b600090a4565b620000d3916200055991620004e96000918262000496565b5460ff1690565b620000d360c0620000ae565b634e487b7160e01b600052602160045260246000fd5b600411156200058d57565b6200056c565b90620000c58262000582565b620000d39062000593565b9062000498906200059f565b620000c59190620006359060a090600590620005dc81620005d5875190565b90620002d8565b620005f060018201620005d5602088015190565b6200060460028201620005d5604088015190565b6200061860038201620005d5606088015190565b6200062c60048201620005d5608088015190565b01920151151590565b9062000441565b90620000c591620005b6565b620000c56000620006da42620007e66001620007dd61012c620007ca6200066e62000560565b956200069b62000694620006828b6200020a565b946200068e868d8c0152565b6200020a565b6020890152565b620006a7816040890152565b620006b3836060890152565b620006bf836080890152565b84151560a0880152620006e0600397620006da8b8a620005aa565b6200063c565b62000744896200070c620007056103206200068e88620006ff62000560565b95860152565b6020830152565b62000718836040830152565b62000724856060830152565b62000730856080830152565b86151560a0820152620006da878a620005aa565b6200079c8962000763620007056104b06200068e88620006ff62000560565b6200076f836040830152565b6200077b856060830152565b62000787856080830152565b86151560a0820152620006da60028a620005aa565b620007c3620007bc6102586200068e86620007b662000560565b9d8e0152565b60208b0152565b6040890152565b620007d6816060890152565b6080870152565b151560a0850152565b80620005aa56fe6080604052600436101561001257600080fd5b60003560e01c8063012579a41461032d57806301ffc9a71461032857806309155c1a146103235780630dbe9f601461031e57806321e4c90a146103195780632280efd614610314578063236aed601461030f578063248a9ca31461030a57806327ed71881461026f5780632ef3ff6f146103055780632f2ff15d1461030057806332e4bb0a146102fb57806336568abe146102f65780633f02261e146102f15780633f4ba83a146102ec5780635095af64146102e75780635b1ff28d146102e25780635c975abb146102dd5780635cc65b10146102d857806361d027b3146102d357806366442a06146102ce578063718dc3c3146102c957806375b238fc146102c4578063772c5dc5146102bf5780637765f405146102ba57806377913bc7146102b55780638078d796146102b05780638456cb59146102ab5780638493b06c146102a657806388316808146102a15780638dbb73e31461029c578063919f550f1461029757806391d148541461029257806395ccea671461028d578063960b26a2146102885780639ee8015a14610283578063a03267d21461027e578063a201bbdd14610279578063a217fddf14610274578063aaf5eb681461026f578063b49281751461026a578063c3dfdae614610265578063d547741f14610260578063dbce8ef51461025b578063dfda0c4014610256578063e1f1c4a714610251578063ebdaae4a1461024c578063f0f4426014610247578063f45902b4146102425763f742919b0361035357611320565b611305565b6112d9565b6112a8565b61126e565b611222565b611209565b6111f0565b6111b2565b61117e565b6107cd565b61114c565b61111f565b6110df565b611093565b611033565b61100e565b610ff2565b610fcb565b610f50565b610f34565b610f1b565b610ed3565b610eb8565b610e58565b610d74565b610cb0565b610c51565b610c36565b610bf1565b610b06565b610ac9565b610a94565b610a78565b61092b565b610913565b6108fa565b61089a565b610861565b610848565b61080a565b610799565b61076d565b61073e565b6106ef565b610684565b6104a8565b610450565b6103f4565b6001600160a01b031690565b90565b6001600160a01b0381165b0361035357565b600080fd5b9050359061036582610341565b565b906020828203126103535761033e91610358565b9052565b0190565b906103a361039c610392845190565b8084529260200190565b9260200190565b9060005b8181106103b45750505090565b9091926103db6103d460019286516001600160c01b031916815260200190565b9460200190565b9291016103a7565b602080825261033e92910190610383565b346103535761041b61040f61040a366004610367565b613e03565b604051918291826103e3565b0390f35b6001600160e01b0319811661034c565b905035906103658261041f565b906020828203126103535761033e9161042f565b346103535761041b61046b61046636600461043c565b611338565b60405191829182901515815260200190565b600091031261035357565b61033e61033e61033e9290565b61033e6107d0610488565b61033e610495565b34610353576104b836600461047d565b61041b6104c36104a0565b6040519182918290815260200190565b6004111561035357565b90503590610365826104d3565b91906040838203126103535761033e906105048185610358565b936020016104dd565b61033261033e61033e926001600160a01b031690565b61033e9061050d565b61033e90610523565b9061053f9061052c565b600052602052604060002090565b634e487b7160e01b600052602160045260246000fd5b6004111561056d57565b61054d565b9061036582610563565b61033e90610572565b9061053f9061057c565b61033e9081565b61033e905461058f565b61033e905b60ff1690565b61033e90546105a0565b906105c46105c9926004610535565b610585565b906105d382610596565b916105e060018201610596565b916105ed60028301610596565b916105fa60038201610596565b9161033e600561060c60048501610596565b93016105ab565b6003111561056d57565b9061036582610613565b61033e9061061d565b61037b90610627565b919461067661067d9298979561066f60a0966106686103659a61066160c08a019e60008b0152565b6020890152565b6040870152565b6060850152565b6080830152565b0190610630565b346103535761041b6106a061069a3660046104ea565b906105b5565b926106b096949692919260405190565b96879687610639565b8061034c565b90503590610365826106b9565b91906040838203126103535761033e906106e681856104dd565b936020016106bf565b34610353576107086107023660046106cc565b906126e0565b604051005b6001600160c01b0319811661034c565b905035906103658261070d565b906020828203126103535761033e9161071d565b346103535761041b61046b61075436600461072a565b613e1f565b906020828203126103535761033e916104dd565b3461035357610708610780366004610759565b61289b565b906020828203126103535761033e916106bf565b346103535761041b6104c36107af366004610785565b611397565b61033e670de0b6b3a7640000610488565b61033e6107b4565b34610353576107dd36600461047d565b61041b6104c36107c5565b61033e916008021c81565b9061033e91546107e8565b61033e600060096107f3565b346103535761081a36600461047d565b61041b6104c36107fe565b91906040838203126103535761033e9061083f81856106bf565b93602001610358565b346103535761070861085b366004610825565b906113d6565b346103535761087136600461047d565b61041b7fb814ff4a26ea3ec5cd1fa579daad86324826254265f3acfec78303a19845b4496104c3565b34610353576107086108ad366004610825565b9061160d565b6003111561035357565b90503590610365826108b3565b90916060828403126103535761033e6108e384846104dd565b936108f181602086016106bf565b936040016108bd565b346103535761070861090d3660046108ca565b91611cac565b346103535761092336600461047d565b610708613302565b346103535761093b36600461047d565b61041b7f12b42e8a160f6064dc959c6f251e3af0750ad213dbecf573b4710d67d6c28e396104c3565b634e487b7160e01b600052604160045260246000fd5b90601f01601f1916810190811067ffffffffffffffff82111761099c57604052565b610964565b906103656109ae60405190565b928361097a565b67ffffffffffffffff811161099c57602090601f01601f19160190565b90826000939282370152565b909291926109f36109ee826109b5565b6109a1565b9381855260208501908284011161035357610365926109d2565b9080601f830112156103535781602061033e933591016109de565b9060808282031261035357610a3d8183610358565b92610a4b82602085016104dd565b92610a5983604083016106bf565b92606082013567ffffffffffffffff81116103535761033e9201610a0d565b3461035357610708610a8b366004610a28565b92919091612a5c565b3461035357610aa436600461047d565b61041b61046b61172c565b91906040838203126103535761033e9061083f818561071d565b3461035357610708610adc366004610aaf565b90613b9b565b61033e916008021c610332565b9061033e9154610ae2565b61033e60016002610aef565b3461035357610b1636600461047d565b61041b610b21610afa565b6040515b918291826001600160a01b03909116815260200190565b91906040838203126103535761033e906106e68185610358565b9061053f90610488565b61033e9060081c6105a5565b61033e9054610b60565b90610b85610b8a926005610535565b610b56565b90610b9482610596565b91610ba160018201610596565b9161033e6002610bb28185016105ab565b9301610b6c565b610be961036594610bdf606094989795610bd8608086019a6000870152565b6020850152565b6040830190610630565b019015159052565b346103535761041b610c0d610c07366004610b3c565b90610b76565b90610c1a94929460405190565b94859485610bb9565b61033e6103e8610488565b61033e610c23565b3461035357610c4636600461047d565b61041b6104c3610c2e565b3461035357610c6136600461047d565b61041b7fa49807205ce4d355092ef5a8a18f56e8913cf4a201fbe287825b095693c217756104c3565b61067d61036594610ca9606094989795610bd8608086019a6000870152565b6040830152565b346103535761041b610ccc610cc63660046104ea565b906131c7565b90610cd994929460405190565b94859485610c8a565b634e487b7160e01b600052603260045260246000fd5b8054919291831015610d21576004610d17600892600052602060002090565b8185040193060290565b610ce2565b61033e916008021c60c01b90565b9061033e9154610d26565b610d4d600891600092610535565b90610d56825490565b831015610d71575061033e91610d6b91610cf8565b90610d34565b80fd5b346103535761041b610d90610d8a366004610b3c565b90610d3f565b604051918291826001600160c01b0319909116815260200190565b906001600160c01b03191661053f565b61033e9060401c610332565b61033e9054610dbb565b610ddc906007610dab565b805460c01b91610deb82610dc7565b91610df860018201610596565b9161033e600361060c60028501610596565b9095949261036594610e51610be992610e4a608096610e3a60a088019c60008901906001600160c01b0319169052565b6001600160a01b03166020870152565b6040850152565b6060830152565b346103535761041b610e73610e6e36600461072a565b610dd1565b91610e8095939560405190565b95869586610e0a565b61033e916008021c6105a5565b9061033e9154610e89565b61033e90610eb3600b91600092610535565b610e96565b346103535761041b61046b610ece366004610367565b610ea1565b3461035357610ee336600461047d565b610708613273565b90916060828403126103535761033e610f04848461071d565b93610f128160208601610358565b936040016106bf565b3461035357610708610f2e366004610eeb565b9161398b565b346103535761041b6104c3610f4a3660046104ea565b906130c2565b3461035357610708610f633660046108ca565b9161234e565b80516001600160c01b03191682526020808201516001600160a01b03169083015261036591906080908190610fa360408201516040860152565b610fb260608201516060860152565b01511515910152565b60a0810192916103659190610f69565b346103535761041b610fe6610fe136600461072a565b613c52565b60405191829182610fbb565b346103535761041b61046b611008366004610825565b90611378565b3461035357610708611021366004610b3c565b906135a1565b61033e6000600a6107f3565b346103535761104336600461047d565b61041b6104c3611027565b80151561034c565b905035906103658261104e565b90916060828403126103535761033e61107c84846104dd565b9361108a81602086016106bf565b93604001611056565b34610353576107086110a6366004611063565b91612d7a565b6105c9906003610585565b9194610676610be99298979561066f60a0966106686103659a61066160c08a019e60008b0152565b346103535761041b6110fa6110f5366004610759565b6110ac565b9261110a96949692919260405190565b968796876110b7565b61033e6000600c6107f3565b346103535761112f36600461047d565b61041b6104c3611113565b61033e6000610488565b61033e61113a565b346103535761115c36600461047d565b61041b6104c3611144565b61033e90611179600691600092610535565b6107f3565b346103535761041b6104c3611194366004610367565b611167565b61037b9061052c565b6020810192916103659190611199565b34610353576111c236600461047d565b6040518061041b7f0000000000000000000000000000000000000000000000000000000000000000826111a2565b3461035357610708611203366004610825565b90611591565b346103535761070861121c3660046106cc565b90612c53565b346103535761123236600461047d565b61041b7f12274c208a40c3eca6c09426911c6b1a9bcdb6ae935ccde65ec88694c95cd3a76104c3565b61033e612710610488565b61033e61125b565b346103535761127e36600461047d565b61041b6104c3611266565b610be961036594610ca9606094989795610bd8608086019a6000870152565b346103535761041b6112c36112be366004610759565b613208565b906112d094929460405190565b94859485611289565b34610353576107086112ec366004610367565b6134ab565b61033e62278d00610488565b61033e6112f1565b346103535761131536600461047d565b61041b6104c36112fd565b3461035357610708611333366004610785565b613553565b637965db0b60e01b6001600160e01b0319821614908115611357575090565b61033e91506001600160e01b0319166301ffc9a760e01b1490565b9061053f565b61033e916113929161138c60009182611372565b01610535565b6105ab565b60016113b061033e926113a8600090565b506000611372565b01610596565b90610365916113cc6113c782611397565b6113e0565b906103659161165d565b90610365916113b6565b6103659033906114e9565b61033e90610488565b610488565b60005b83811061140c5750506000910152565b81810151838201526020016113fc565b61037f6114349260209261142e815190565b94859290565b938491016113f9565b61147b61033e9392611475611475937f416363657373436f6e74726f6c3a206163636f756e7420000000000000000000815260170190565b9061141c565b7f206973206d697373696e6720726f6c6520000000000000000000000000000000815260110190565b6114c56114ce60209361037f936114b9815190565b80835293849260200190565b958691016113f9565b601f01601f191690565b602080825261033e929101906114a4565b906114fb6114f78284611378565b1590565b611503575050565b6115729161033e61151f611519611559946119a9565b926113eb565b61153460209161152e83610488565b90611849565b9261154d61154160405190565b9485938401928361143d565b9081038252038261097a565b6040515b62461bcd60e51b8152918291600483016114d8565b0390fd5b90610365916115876113c782611397565b90610365916116d5565b9061036591611576565b156115a257565b60405162461bcd60e51b815260206004820152602f60248201527f416363657373436f6e74726f6c3a2063616e206f6e6c792072656e6f756e636560448201527f20726f6c657320666f722073656c6600000000000000000000000000000000006064820152608490fd5b610365919061162e61161e33610332565b6001600160a01b0384161461159b565b6116d5565b9060ff905b9181191691161790565b9061165261033e61165992151590565b8254611633565b9055565b9061166b6114f78284611378565b611673575050565b61168d600161168883600061138c8782611372565b611642565b33906116c36116bd6116bd7f2f8788117e7eff1d82e926ec794901d17c78024a50270940304540a733656f0d9590565b9261052c565b926116cd60405190565b80805b0390a4565b906116e08183611378565b6116e8575050565b6116fc6000611688838261138c8782611372565b33906116c36116bd6116bd7ff6391f5c32d9c69d2a47ea670b442974b53935d1edc7fd64eb21e047a839171b9590565b61033e60026105ab565b634e487b7160e01b600052601160045260246000fd5b8181029291811591840414171561175f57565b611736565b9190820180921161175f57565b9061177e6109ee836109b5565b918252565b369037565b9061036561179e61179884611771565b936109b5565b601f190160208401611783565b906117b4825190565b811015610d21570160200190565b801561175f576000190190565b6105a561033e61033e9290565b61033e906117f46117f061033e9460ff1690565b9190565b901c90565b1561180057565b60405162461bcd60e51b815280611572600482016020808252818101527f537472696e67733a20686578206c656e67746820696e73756666696369656e74604082015260600190565b919060029261187a6118756118668461186188610488565b61174c565b61186f87610488565b90611764565b611788565b91600090603061189261188c84610488565b866117ab565b536118ca6118c1600f60fb1b926118616001998a95871a6118bb6118b588610488565b8b6117ab565b53610488565b61186f83610488565b905b6118ee575b5061033e939450906118e86117f061033e93610488565b146117f9565b916118f886610488565b831115611973577f303132333435363738396162636465660000000000000000000000000000000061192a600f610488565b8216906010821015610d2157879261194a6119679261196d941a60f81b90565b851a61195687896117ab565b5361196160046117cf565b906117dc565b936117c2565b906118cc565b916118d1565b61033e61033e61033e926001600160a01b031690565b61033e60146117cf565b61033e61033e61033e9260ff1690565b6119c66119c161033e926119bb606090565b50610523565b611979565b61152e6119d161198f565b611999565b906119e992916119e4611d6c565b6119f1565b610365611d9e565b9061036592916119ff611d03565b611b3d565b15611a0b57565b60405162461bcd60e51b815260206004820152601060248201527f416d6f756e7420746f6f20736d616c6c000000000000000000000000000000006044820152606490fd5b15611a5757565b60405162461bcd60e51b815260206004820152600f60248201527f506f6f6c206e6f742061637469766500000000000000000000000000000000006044820152606490fd5b15611aa357565b60405162461bcd60e51b815260206004820152600f60248201527f5573657220697320736c617368656400000000000000000000000000000000006044820152606490fd5b9060001990611638565b90611b0261033e61165992610488565b8254611ae8565b9061165261033e61165992610627565b908152606081019392610365929091604091611b39906020830190610630565b0152565b9091611b476107b4565b831015611b5390611a04565b6003611b5f8382610585565b600501611b6b906105ab565b611b7490611a50565b3391611b8183600b610535565b611b8a906105ab565b15611b9490611a9c565b611b9e8385612d85565b7f00000000000000000000000000000000000000000000000000000000000000008584611bca3061052c565b90611bd493611df3565b600491848281611be48787610535565b90611bee91610585565b8089611bf982610596565b90611c0391611764565b611c0c91611af2565b42958690611c1c82848801611af2565b820190611c2891611af2565b60050190611c3591611b09565b611c3e91610585565b85611c4882610596565b90611c5291611764565b611c5b91611af2565b7feb411004633ccee9f7ddd55b7e37b34d5b21acc188fdd99b4a7d409de2bbe2d792611c869061052c565b93611c909061057c565b94611c9a60405190565b928392611ca79284611b19565b0390a3565b9061036592916119d6565b15611cbe57565b60405162461bcd60e51b815260206004820152601060248201527f5061757361626c653a20706175736564000000000000000000000000000000006044820152606490fd5b610365611d116114f761172c565b611cb7565b61033e6002610488565b15611d2757565b60405162461bcd60e51b815260206004820152601f60248201527f5265656e7472616e637947756172643a207265656e7472616e742063616c6c006044820152606490fd5b610365611d796001610596565b611d8d611d84611d16565b91821415611d20565b6001611af2565b61033e6001610488565b610365611d8d611d94565b611dc2611dbc61033e9263ffffffff1690565b60e01b90565b6001600160e01b03191690565b6001600160a01b039182168152911660208201526060810192916103659160400152565b90611e3890611e2961036595600495611e0f6323b872dd611da9565b93611e1960405190565b9788956020870190815201611dcf565b6020820181038252038361097a565b611f0b565b611e476020611771565b7f5361666545524332303a206c6f772d6c6576656c2063616c6c206661696c6564602082015290565b61033e611e3d565b905051906103658261104e565b906020828203126103535761033e91611e78565b15611ea057565b60405162461bcd60e51b815260206004820152602a60248201527f5361666545524332303a204552433230206f7065726174696f6e20646964206e60448201527f6f742073756363656564000000000000000000000000000000000000000000006064820152608490fd5b61036591611f1b611f2a9261052c565b90611f24611e70565b91611f68565b8051611f396117f06000610488565b14908115611f48575b50611e99565b611f6291506020611f57825190565b818301019101611e85565b38611f42565b61033e9291611f776000610488565b9161200e565b15611f8457565b60405162461bcd60e51b815260206004820152602660248201527f416464726573733a20696e73756666696369656e742062616c616e636520666f60448201527f722063616c6c00000000000000000000000000000000000000000000000000006064820152608490fd5b3d1561200957611ffe3d611771565b903d6000602084013e565b606090565b90600061033e94938192612020606090565b5061203761202d3061052c565b8390311015611f7d565b60208101905191855af1612049611fef565b9161209b565b1561205657565b60405162461bcd60e51b815260206004820152601d60248201527f416464726573733a2063616c6c20746f206e6f6e2d636f6e74726163740000006044820152606490fd5b919290156120cd575081516120b36117f06000610488565b146120bc575090565b6120c861033e916120d3565b61204f565b826120e5565b3b6120e16117f06000610488565b1190565b906120ee825190565b6120fb6117f06000610488565b111561210a5750805190602001fd5b6115729061155d60405190565b906119e99291612125611d6c565b906103659291612133611d03565b61225f565b1561213f57565b60405162461bcd60e51b815260206004820152601260248201527f496e73756666696369656e74207374616b6500000000000000000000000000006044820152606490fd5b600019811461175f5760010190565b61033e60806109a1565b9061037b9061061d565b61033e905161061d565b9061ff009060081b611638565b906121ce61033e61165992151590565b82546121b1565b6103659190612226906060906002906121f6816121f0875190565b90611af2565b612208600182016121f0602088015190565b019261221f612219604083016121a7565b85611b09565b0151151590565b906121be565b90610365916121d5565b611b3961036594610ca9606094989795612255608086019a6000870152565b6020850190610630565b9091339061228761227d60006113b061033e876105c4886004610535565b85905b1015612138565b6122918284612d85565b61229c826006610535565b936122b36122a986610596565b956121f087612184565b611ca76122bf83612f21565b612308426122f460006122de6122d3612193565b93610bd88984870152565b6122eb886040850161219d565b15156060830152565b61230389610b85896005610535565b61222c565b61233b6123357f76a39c4b571a1ec5ab10d418f85f86574d84c5fb52b25e5851bc4df4bb4848d69661052c565b9661057c565b9661234560405190565b94859485612236565b906103659291612117565b906119e991612366611d6c565b9061036591612373611d03565b6124dc565b1561237f57565b60405162461bcd60e51b815260206004820152601160248201527f416c72656164792070726f6365737365640000000000000000000000000000006044820152606490fd5b9061036561241960026123d5612193565b946123e66123e282610596565b8752565b6123fc6123f560018301610596565b6020880152565b61241361240a8383016105ab565b6040880161219d565b01610b6c565b15156060840152565b61033e906123c4565b1561243257565b60405162461bcd60e51b815260206004820152601260248201527f43616e6e6f742070726f636573732079657400000000000000000000000000006044820152606490fd5b634e487b7160e01b600052601260045260246000fd5b8115612497570490565b612477565b9190820391821161175f57565b61033e9060081c610332565b61033e90546124a9565b908152606081019392610365929091604091611b39906020830152565b6124f061033e600593610b85338096610535565b91600283019261250a6125056114f786610b6c565b612378565b61252361251e61251983612422565b612f70565b61242b565b61253561033e846105c4856004610535565b9361255161254286610596565b6122806117f061033e86610596565b61255b8385612d85565b6000908161256881610488565b930161257381610596565b9661257d836105ab565b61258f6125898661061d565b9161061d565b14612689575b6125c7826125c26125e1936121f0886125b16125e99998610596565b9201916125bd83610596565b61249c565b610596565b6121f0856125d68a6003610585565b01916125bd83610596565b6001906121be565b8161261a7f0000000000000000000000000000000000000000000000000000000000000000926113f4888786612707565b811161266e575b50504293611ca761265b6126557f297955eed5bc2490d7428881136ec482851be7473171f1d7ce274a06f7cbfd029561052c565b9561057c565b9561266560405190565b938493846124bf565b6126829161267c60026124b5565b90612707565b3881612621565b965092506125e9906125e16125c76126c26126b46126a688610596565b6126ae610495565b9061174c565b6126bc61125b565b9061248d565b956125c26126d3886125bd84610596565b9a93505092935050612595565b9061036591612359565b6001600160a01b0390911681526040810192916103659160200152565b611e38600492611e296103659561272163a9059cbb611da9565b9261272b60405190565b96879460208601908152016126ea565b6119e990612747611d6c565b61036590612753611d03565b6127b7565b1561275f57565b60405162461bcd60e51b815260206004820152601360248201527f4e6f207265776172647320746f20636c61696d000000000000000000000000006044820152606490fd5b9081526040810192916103659160200152565b33906127c38282612d85565b60049161282661280e61186f6127e061033e866105c4878a610535565b612821600560028301926127f384610596565b9586946121f060006113f461280782610488565b8911612758565b61281b42809b8301611af2565b016105ab565b612fe5565b9261285284837f0000000000000000000000000000000000000000000000000000000000000000612707565b61288561287f7fe6096b6f53939bee85b6372b9662ba25ae4fb35ad06aef7e246629fa2623783f9361052c565b9361057c565b93611ca761289260405190565b928392836127a4565b6103659061273b565b610365939291906128d47f12b42e8a160f6064dc959c6f251e3af0750ad213dbecf573b4710d67d6c28e396113e0565b61294c565b156128e057565b60405162461bcd60e51b815260206004820152601b60248201527f496e73756666696369656e74207374616b6520746f20736c61736800000000006044820152606490fd5b90815292916103659160409061294790606087019087820360208901526114a4565b940152565b929192612992600061296661033e856105c4866004610535565b0161297b61297382610596565b8711156128d9565b6129858385612d85565b6121f0866125bd83610596565b6129b060006129a2846003610585565b016121f0866125bd83610596565b6129cd6129c6856129c1600c610596565b611764565b600c611af2565b6129dd600161168883600b610535565b612a0c847f000000000000000000000000000000000000000000000000000000000000000061267c60026124b5565b339242946116d0612a49612a436123357f353d8e6d40da95de32be2fc60b4b208c6ea4d018b991562ba3e60c2ca27998ff9661052c565b9661052c565b96612a5360405190565b93849384612925565b906103659392916128a4565b6103659190612a967fb814ff4a26ea3ec5cd1fa579daad86324826254265f3acfec78303a19845b4496113e0565b612b33565b15612aa257565b60405162461bcd60e51b815260206004820152600e60248201527f496e76616c696420616d6f756e740000000000000000000000000000000000006044820152606490fd5b15612aee57565b60405162461bcd60e51b815260206004820152600a60248201527f4e6f207374616b657273000000000000000000000000000000000000000000006044820152606490fd5b612bfe60046000612b4d612b4682610488565b8611612a9b565b612bf06003612b75612b63846113b08985610585565b612b6f6117f086610488565b11612ae7565b612baa877f000000000000000000000000000000000000000000000000000000000000000033612ba43061052c565b91611df3565b612bb386612e38565b6121f0612be3612bc661033e8985610585565b946126bc612bdb612bd56107b4565b8c61174c565b918701610596565b918401916129c183610596565b016121f0846129c183610596565b612c16612c0f836129c16009610596565b6009611af2565b42612c417ff6386a1d251141cfd2a6deda788c887394a348909c80098adcbf9005afb78e3d9261057c565b92612c4e61289260405190565b0390a2565b9061036591612a68565b610365929190612c8c7fa49807205ce4d355092ef5a8a18f56e8913cf4a201fbe287825b095693c217756113e0565b612cf2565b15612c9857565b60405162461bcd60e51b815260206004820152600d60248201527f5261746520746f6f2068696768000000000000000000000000000000000000006044820152606490fd5b90815260408101929161036591602090610be9565b9091612d0a612d0261033e610c23565b841115612c91565b612d1382612e38565b612d3a816005612d2761033e866003610585565b612d348760018301611af2565b01611642565b612d647f41082e228bfb59a58684319a72610979c7f9905cdaab0992eb07cd099ad315be9261057c565b92612c4e612d7160405190565b92839283612cdd565b906103659291612c5d565b906001612ddf61036593612d9881612e38565b612db961033e6003926105c4612db161033e8387610585565b976004610535565b93612dc385610596565b600090612dd26117f083610488565b11612de6575b5001610596565b9101611af2565b612e21612e19612dfa612e32938901610596565b6126ae612e08878701610596565b612e138a8c01610596565b9061249c565b6126bc6107b4565b6121f060028801916129c183610596565b38612dd8565b612e4761033e60039283610585565b90612e5182610596565b90600091612e616117f084610488565b14612f11576103659242926002820192612e83612e7d85610596565b8661249c565b90612ebf612eb9612eac858701946118616126b4612ea088610596565b6126ae60018c01610596565b6126bc6301e13380610488565b93610488565b8311612ecf575b50505050611af2565b612f0893612efd6004926121f0612be36121f0966126bc612ef7612ef16107b4565b8b61174c565b91610596565b01916129c183610596565b38808080612ec6565b5050610365906002429101611af2565b612f2b600061061d565b612f348261061d565b03612f3e57504290565b612f4b612589600161061d565b03612f605761033e4261186f62093a80610488565b61033e4261186f62278d00610488565b612f939061186f612f8e6040612f87602085015190565b93016121a7565b612fa3565b612f9e6117f0429290565b101590565b6000612fae8161061d565b612fb78361061d565b03612fc65761033e9150610488565b50612fd4612589600161061d565b036112f15761033e62093a80610488565b612ff2612589600261061d565b14613002575061033e6000610488565b6126b461033e916126ae6101f4610488565b61033e60c06109a1565b9061036561308d600561302f613014565b9461303c6123e282610596565b61304b6123f560018301610596565b61306161305a60028301610596565b6040880152565b61307761307060038301610596565b6060880152565b61281b61308660048301610596565b6080880152565b151560a0840152565b61033e9061301e565b906103656130b0600561302f613014565b60a0840161219d565b61033e9061309f565b906130f16130f6916130d2600090565b506105c46130e96130e4836003610585565b613096565b946004610535565b6130b9565b906130ff825190565b9060009161310f6117f084610488565b1480156131b0575b6131a75760406131896131646131a261033e96956126ae61319661318f6129c1986129c1606061318961316e612eac613155428f612e139089015190565b6118616126b48c89019e8f5190565b60208a01516126ae565b996126bc61318461317d6107b4565b809d61174c565b915190565b92015190565b9289015190565b91612e1360208a015190565b61248d565b50506040015190565b50808201516131c16117f084610488565b14613117565b6131e2916105c46130f1926131da600090565b506004610535565b805160408201519261320160a06131fa606086015190565b94016121a7565b9193929190565b6130e461321f91613217600090565b506003610585565b805160208201519261320160a0613237608086015190565b940151151590565b6132687fa49807205ce4d355092ef5a8a18f56e8913cf4a201fbe287825b095693c217756113e0565b6103656103656132c6565b61036561323f565b613283611d03565b61036561329260016002611642565b336132c17f62e78cea01bee320cd4e420270b5ea74000d11b0c9f74754ebdbfc544b05a25891610b2560405190565b0390a1565b61036561327b565b6132f77fa49807205ce4d355092ef5a8a18f56e8913cf4a201fbe287825b095693c217756113e0565b610365610365613350565b6103656132ce565b6133126133a4565b61036561332160006002611642565b336132c17f5db9ee0a495bf2e6ff9c91a7834c1ba4fdd244a5e8aa4e537bd38aeae4b073aa91610b2560405190565b61036561330a565b1561335f57565b60405162461bcd60e51b815260206004820152601460248201527f5061757361626c653a206e6f74207061757365640000000000000000000000006044820152606490fd5b6103656133af61172c565b613358565b610365906133e17fa49807205ce4d355092ef5a8a18f56e8913cf4a201fbe287825b095693c217756113e0565b61347f565b61033261033e61033e9290565b61033e906133e6565b1561340357565b60405162461bcd60e51b815260206004820152601060248201527f496e76616c6964207472656173757279000000000000000000000000000000006044820152606490fd5b9074ffffffffffffffffffffffffffffffffffffffff009060081b611638565b9061347861033e6116599261052c565b8254613448565b610365906134a461349361033260006133f3565b6001600160a01b03831614156133fc565b6002613468565b610365906133b4565b610365906134e17fa49807205ce4d355092ef5a8a18f56e8913cf4a201fbe287825b095693c217756113e0565b613532565b156134ed57565b60405162461bcd60e51b815260206004820152601160248201527f496e76616c6964206665652073686172650000000000000000000000000000006044820152606490fd5b6103659061354c61354461033e61125b565b8211156134e6565b600a611af2565b610365906134b4565b610365919061358a7fa49807205ce4d355092ef5a8a18f56e8913cf4a201fbe287825b095693c217756113e0565b906135976103659261052c565b61267c60026124b5565b906103659161355c565b6103659291906135da7f12274c208a40c3eca6c09426911c6b1a9bcdb6ae935ccde65ec88694c95cd3a76113e0565b906119e992916135e8611d6c565b9061036592916135f6611d03565b61384a565b1561360257565b60405162461bcd60e51b815260206004820152601d60248201527f416d6f756e74206d7573742062652067726561746572207468616e20300000006044820152606490fd5b1561364e57565b60405162461bcd60e51b815260206004820152601660248201527f496e76616c6964207374616b65722061646472657373000000000000000000006044820152606490fd5b1561369a57565b60405162461bcd60e51b815260206004820152601e60248201527f4f7267616e697a6174696f6e20616c726561647920686173207374616b6500006044820152606490fd5b61033e60a06109a1565b9067ffffffffffffffff90611638565b90613717613711611659926001600160c01b03191690565b60c01c90565b82546136e9565b907bffffffffffffffffffffffffffffffffffffffff00000000000000009060401b611638565b9061375561033e6116599261052c565b825461371e565b61036591906137cb9060809060039061379e8161378a61378488516001600160c01b03191690565b826136f9565b60208701516001600160a01b031690613745565b6137b0600182016121f0604088015190565b6137c2600282016121f0606088015190565b01920151151590565b90611642565b906103659161375c565b919060086116389102916137f667ffffffffffffffff841b90565b921b90565b9190613814613711611659936001600160c01b03191690565b9083546137db565b908154916801000000000000000083101561099c578261384491600161036595018155610cf8565b906137fb565b600061385f61385882610488565b85116135fb565b61387f61386e610332836133f3565b6001600160a01b0385161415613647565b6139396007916138a961389760016113b08787610dab565b6138a36117f084610488565b14613693565b6138d8867f000000000000000000000000000000000000000000000000000000000000000087612ba43061052c565b61393484429461392f6001613901846138ef6136df565b978801906001600160c01b0319169052565b6001600160a01b038a16602087015261391b8b6040880152565b613926886060880152565b15156080860152565b610dab565b6137d1565b6139508261394b61033e866008610535565b61381c565b6128856139857ff3c05cc1adca04ea2dfd84aa9f8de05dd7431abd4342ded8fb391ee0a0199234936001600160c01b03191690565b9361052c565b9061036592916135ab565b61036591906139c47f12274c208a40c3eca6c09426911c6b1a9bcdb6ae935ccde65ec88694c95cd3a76113e0565b906119e9916139d1611d6c565b613abe565b156139dd57565b60405162461bcd60e51b815280611572600482016020808252818101527f4e6f20616374697665207374616b6520666f72206f7267616e697a6174696f6e604082015260600190565b15613a2d57565b60405162461bcd60e51b815260206004820152600e60248201527f4e6f7420746865207374616b65720000000000000000000000000000000000006044820152606490fd5b15613a7957565b60405162461bcd60e51b815260206004820152601260248201527f5374616b65207374696c6c206c6f636b656400000000000000000000000000006044820152606490fd5b90613acd61033e836007610dab565b916003830192613ae4613adf856105ab565b6139d6565b613b03613af082610dc7565b6001600160a01b03858116911614613a26565b613b3b613b32600142936113b0613b2a61033e613b2260028501610596565b61186f6112f1565b861015613a72565b94600090611642565b613b6684847f0000000000000000000000000000000000000000000000000000000000000000612707565b6128856139857f816cfe9020a5a78d303ddf1add5ac9c8805b1f91798c5c4977f8e91d409c094e936001600160c01b03191690565b9061036591613996565b613bad6136df565b906000825260208080808086016000815201600081520160008152016000905250565b61033e613ba5565b90610365613c406003613be96136df565b94613c06613bf8825460c01b90565b6001600160c01b0319168752565b613c22613c1282610dc7565b6001600160a01b03166020880152565b613c3161305a60018301610596565b61281b61307060028301610596565b15156080840152565b61033e90613bd8565b613c6961033e91613c61613bd0565b506007610dab565b613c49565b61033e9060401c60c01b90565b61033e9060801c60c01b90565b90600190613ca6613c9a610392855490565b93600052602060002090565b600092613d6a575b613cb9565b50505090565b5490808310613d4c575b808310613d2f575b808310613d12575b8210613ce0575b80613cb3565b82613d0960019394613cfb6020946001600160c01b03191690565b6001600160c01b0319169052565b01910138613cda565b9192602081613d26600193613cfb86613c7b565b01930191613cd3565b9192602081613d43600193613cfb86613c6e565b01930191613ccb565b9192602081613d61600193613cfb8660c01b90565b01930191613cc3565b60038301821115613cae579260016020613cfb613dc46004948380808b5493613d9781613cfb8760c01b90565b01613da581613cfb86613c6e565b01613db381613cfb85613c7b565b019283916001600160c01b03191690565b019401920191613d6a565b9061033e91613c88565b90610365613df392613dea60405190565b93848092613dcf565b038361097a565b61033e90613dd9565b613e1a61033e91613e12606090565b506008610535565b613dfa565b61033e613e2e91613c61600090565b613e3a600382016105ab565b9081613e44575090565b9050612f9e6117f061033e613b22600242950161059656fea26469706673582212208a962d6ff90097a3a567a8a5bb53987ac1e6a3e73e056862de79e124d2cb897464736f6c63430008140033",
  "linkReferences": {},
  "deployedLinkReferences": {}
}