{
  "_format": "hh-sol-artifact-1",
  "contractName": "Treasury",
  "sourceName": "contracts/core/Treasury.sol",
  "abi": [
    {
      "inputs": [
        {
          "internalType": "bytes32",
          "name": "_organizationId",
          "type": "bytes32"
        },
        {
          "internalType": "address",
          "name": "_controlModule",
          "type": "address"
        },
        {
          "internalType": "address",
          "name": "_admin",
          "type": "address"
        }
      ],
      "stateMutability": "nonpayable",
      "type": "constructor"
    },
    {
      "inputs": [
        {
          "internalType": "address",
          "name": "token",
          "type": "address"
        },
        {
          "internalType": "uint256",
          "name": "requested",
          "type": "uint256"
        },
        {
          "internalType": "uint256",
          "name": "available",
          "type": "uint256"
        }
      ],
      "name": "InsufficientBalance",
      "type": "error"
    },
    {
      "inputs": [],
      "name": "OnlyControlModule",
      "type": "error"
    },
    {
      "inputs": [
        {
          "internalType": "address",
          "name": "token",
          "type": "address"
        },
        {
          "internalType": "uint256",
          "name": "requested",
          "type": "uint256"
        },
        {
          "internalType": "uint256",
          "name": "limit",
          "type": "uint256"
        }
      ],
      "name": "SpendingLimitExceeded",
      "type": "error"
    },
    {
      "inputs": [
        {
          "internalType": "address",
          "name": "token",
          "type": "address"
        }
      ],
      "name": "TokenAlreadySupported",
      "type": "error"
    },
    {
      "inputs": [
        {
          "internalType": "address",
          "name": "token",
          "type": "address"
        }
      ],
      "name": "TokenNotSupported",
      "type": "error"
    },
    {
      "inputs": [],
      "name": "ZeroAddress",
      "type": "error"
    },
    {
      "inputs": [],
      "name": "ZeroAmount",
      "type": "error"
    },
    {
      "anonymous": false,
      "inputs": [
        {
          "indexed": true,
          "internalType": "address",
          "name": "token",
          "type": "address"
        },
        {
          "indexed": true,
          "internalType": "address",
          "name": "from",
          "type": "address"
        },
        {
          "indexed": false,
          "internalType": "uint256",
          "name": "amount",
          "type": "uint256"
        },
        {
          "indexed": false,
          "internalType": "string",
          "name": "purpose",
          "type": "string"
        },
        {
          "indexed": false,
          "internalType": "uint256",
          "name": "timestamp",
          "type": "uint256"
        }
      ],
      "name": "FundsDeposited",
      "type": "event"
    },
    {
      "anonymous": false,
      "inputs": [
        {
          "indexed": true,
          "internalType": "address",
          "name": "token",
          "type": "address"
        },
        {
          "indexed": true,
          "internalType": "address",
          "name": "to",
          "type": "address"
        },
        {
          "indexed": true,
          "internalType": "address",
          "name": "spender",
          "type": "address"
        },
        {
          "indexed": false,
          "internalType": "uint256",
          "name": "amount",
          "type": "uint256"
        },
        {
          "indexed": false,
          "internalType": "string",
          "name": "purpose",
          "type": "string"
        },
        {
          "indexed": false,
          "internalType": "uint256",
          "name": "timestamp",
          "type": "uint256"
        }
      ],
      "name": "FundsSpent",
      "type": "event"
    },
    {
      "anonymous": false,
      "inputs": [
        {
          "indexed": false,
          "internalType": "address",
          "name": "account",
          "type": "address"
        }
      ],
      "name": "Paused",
      "type": "event"
    },
    {
      "anonymous": false,
      "inputs": [
        {
          "indexed": true,
          "internalType": "bytes32",
          "name": "role",
          "type": "bytes32"
        },
        {
          "indexed": true,
          "internalType": "bytes32",
          "name": "previousAdminRole",
          "type": "bytes32"
        },
        {
          "indexed": true,
          "internalType": "bytes32",
          "name": "newAdminRole",
          "type": "bytes32"
        }
      ],
      "name": "RoleAdminChanged",
      "type": "event"
    },
    {
      "anonymous": false,
      "inputs": [
        {
          "indexed": true,
          "internalType": "bytes32",
          "name": "role",
          "type": "bytes32"
        },
        {
          "indexed": true,
          "internalType": "address",
          "name": "account",
          "type": "address"
        },
        {
          "indexed": true,
          "internalType": "address",
          "name": "sender",
          "type": "address"
        }
      ],
      "name": "RoleGranted",
      "type": "event"
    },
    {
      "anonymous": false,
      "inputs": [
        {
          "indexed": true,
          "internalType": "bytes32",
          "name": "role",
          "type": "bytes32"
        },
        {
          "indexed": true,
          "internalType": "address",
          "name": "account",
          "type": "address"
        },
        {
          "indexed": true,
          "internalType": "address",
          "name": "sender",
          "type": "address"
        }
      ],
      "name": "RoleRevoked",
      "type": "event"
    },
    {
      "anonymous": false,
      "inputs": [
        {
          "indexed": true,
          "internalType": "address",
          "name": "token",
          "type": "address"
        },
        {
          "indexed": false,
          "internalType": "uint256",
          "name": "oldLimit",
          "type": "uint256"
        },
        {
          "indexed": false,
          "internalType": "uint256",
          "name": "newLimit",
          "type": "uint256"
        },
        {
          "indexed": false,
          "internalType": "uint256",
          "name": "timestamp",
          "type": "uint256"
        }
      ],
      "name": "SpendingLimitUpdated",
      "type": "event"
    },
    {
      "anonymous": false,
      "inputs": [
        {
          "indexed": true,
          "internalType": "address",
          "name": "token",
          "type": "address"
        },
        {
          "indexed": false,
          "internalType": "uint256",
          "name": "timestamp",
          "type": "uint256"
        }
      ],
      "name": "TokenAdded",
      "type": "event"
    },
    {
      "anonymous": false,
      "inputs": [
        {
          "indexed": true,
          "internalType": "address",
          "name": "token",
          "type": "address"
        },
        {
          "indexed": false,
          "internalType": "uint256",
          "name": "timestamp",
          "type": "uint256"
        }
      ],
      "name": "TokenRemoved",
      "type": "event"
    },
    {
      "anonymous": false,
      "inputs": [
        {
          "indexed": false,
          "internalType": "address",
          "name": "account",
          "type": "address"
        }
      ],
      "name": "Unpaused",
      "type": "event"
    },
    {
      "inputs": [],
      "name": "ADMIN_ROLE",
      "outputs": [
        {
          "internalType": "bytes32",
          "name": "",
          "type": "bytes32"
        }
      ],
      "stateMutability": "view",
      "type": "function"
    },
    {
      "inputs": [],
      "name": "DEFAULT_ADMIN_ROLE",
      "outputs": [
        {
          "internalType": "bytes32",
          "name": "",
          "type": "bytes32"
        }
      ],
      "stateMutability": "view",
      "type": "function"
    },
    {
      "inputs": [],
      "name": "DEPOSITOR_ROLE",
      "outputs": [
        {
          "internalType": "bytes32",
          "name": "",
          "type": "bytes32"
        }
      ],
      "stateMutability": "view",
      "type": "function"
    },
    {
      "inputs": [],
      "name": "SPENDER_ROLE",
      "outputs": [
        {
          "internalType": "bytes32",
          "name": "",
          "type": "bytes32"
        }
      ],
      "stateMutability": "view",
      "type": "function"
    },
    {
      "inputs": [
        {
          "internalType": "address",
          "name": "token",
          "type": "address"
        }
      ],
      "name": "addToken",
      "outputs": [],
      "stateMutability": "nonpayable",
      "type": "function"
    },
    {
      "inputs": [],
      "name": "controlModule",
      "outputs": [
        {
          "internalType": "address",
          "name": "",
          "type": "address"
        }
      ],
      "stateMutability": "view",
      "type": "function"
    },
    {
      "inputs": [
        {
          "internalType": "address",
          "name": "token",
          "type": "address"
        },
        {
          "internalType": "uint256",
          "name": "amount",
          "type": "uint256"
        },
        {
          "internalType": "string",
          "name": "purpose",
          "type": "string"
        }
      ],
      "name": "deposit",
      "outputs": [],
      "stateMutability": "nonpayable",
      "type": "function"
    },
    {
      "inputs": [
        {
          "internalType": "address",
          "name": "token",
          "type": "address"
        },
        {
          "internalType": "address",
          "name": "to",
          "type": "address"
        },
        {
          "internalType": "uint256",
          "name": "amount",
          "type": "uint256"
        }
      ],
      "name": "emergencyWithdraw",
      "outputs": [],
      "stateMutability": "nonpayable",
      "type": "function"
    },
    {
      "inputs": [
        {
          "internalType": "address",
          "name": "token",
          "type": "address"
        }
      ],
      "name": "getBalance",
      "outputs": [
        {
          "internalType": "uint256",
          "name": "",
          "type": "uint256"
        }
      ],
      "stateMutability": "view",
      "type": "function"
    },
    {
      "inputs": [
        {
          "internalType": "address",
          "name": "spender",
          "type": "address"
        },
        {
          "internalType": "address",
          "name": "token",
          "type": "address"
        }
      ],
      "name": "getDailySpent",
      "outputs": [
        {
          "internalType": "uint256",
          "name": "",
          "type": "uint256"
        }
      ],
      "stateMutability": "view",
      "type": "function"
    },
    {
      "inputs": [
        {
          "internalType": "bytes32",
          "name": "role",
          "type": "bytes32"
        }
      ],
      "name": "getRoleAdmin",
      "outputs": [
        {
          "internalType": "bytes32",
          "name": "",
          "type": "bytes32"
        }
      ],
      "stateMutability": "view",
      "type": "function"
    },
    {
      "inputs": [
        {
          "internalType": "address",
          "name": "token",
          "type": "address"
        }
      ],
      "name": "getSpendingLimit",
      "outputs": [
        {
          "internalType": "uint256",
          "name": "",
          "type": "uint256"
        }
      ],
      "stateMutability": "view",
      "type": "function"
    },
    {
      "inputs": [],
      "name": "getSupportedTokens",
      "outputs": [
        {
          "internalType": "address[]",
          "name": "",
          "type": "address[]"
        }
      ],
      "stateMutability": "view",
      "type": "function"
    },
    {
      "inputs": [],
      "name": "getTotalValue",
      "outputs": [
        {
          "internalType": "address[]",
          "name": "tokens",
          "type": "address[]"
        },
        {
          "internalType": "uint256[]",
          "name": "balances",
          "type": "uint256[]"
        }
      ],
      "stateMutability": "view",
      "type": "function"
    },
    {
      "inputs": [
        {
          "internalType": "bytes32",
          "name": "role",
          "type": "bytes32"
        },
        {
          "internalType": "address",
          "name": "account",
          "type": "address"
        }
      ],
      "name": "grantRole",
      "outputs": [],
      "stateMutability": "nonpayable",
      "type": "function"
    },
    {
      "inputs": [
        {
          "internalType": "bytes32",
          "name": "role",
          "type": "bytes32"
        },
        {
          "internalType": "address",
          "name": "account",
          "type": "address"
        }
      ],
      "name": "hasRole",
      "outputs": [
        {
          "internalType": "bool",
          "name": "",
          "type": "bool"
        }
      ],
      "stateMutability": "view",
      "type": "function"
    },
    {
      "inputs": [
        {
          "internalType": "address",
          "name": "token",
          "type": "address"
        }
      ],
      "name": "isTokenSupported",
      "outputs": [
        {
          "internalType": "bool",
          "name": "",
          "type": "bool"
        }
      ],
      "stateMutability": "view",
      "type": "function"
    },
    {
      "inputs": [],
      "name": "organizationId",
      "outputs": [
        {
          "internalType": "bytes32",
          "name": "",
          "type": "bytes32"
        }
      ],
      "stateMutability": "view",
      "type": "function"
    },
    {
      "inputs": [],
      "name": "pause",
      "outputs": [],
      "stateMutability": "nonpayable",
      "type": "function"
    },
    {
      "inputs": [],
      "name": "paused",
      "outputs": [
        {
          "internalType": "bool",
          "name": "",
          "type": "bool"
        }
      ],
      "stateMutability": "view",
      "type": "function"
    },
    {
      "inputs": [
        {
          "internalType": "address",
          "name": "token",
          "type": "address"
        }
      ],
      "name": "removeToken",
      "outputs": [],
      "stateMutability": "nonpayable",
      "type": "function"
    },
    {
      "inputs": [
        {
          "internalType": "bytes32",
          "name": "role",
          "type": "bytes32"
        },
        {
          "internalType": "address",
          "name": "account",
          "type": "address"
        }
      ],
      "name": "renounceRole",
      "outputs": [],
      "stateMutability": "nonpayable",
      "type": "function"
    },
    {
      "inputs": [
        {
          "internalType": "bytes32",
          "name": "role",
          "type": "bytes32"
        },
        {
          "internalType": "address",
          "name": "account",
          "type": "address"
        }
      ],
      "name": "revokeRole",
      "outputs": [],
      "stateMutability": "nonpayable",
      "type": "function"
    },
    {
      "inputs": [
        {
          "internalType": "address",
          "name": "token",
          "type": "address"
        },
        {
          "internalType": "uint256",
          "name": "limit",
          "type": "uint256"
        }
      ],
      "name": "setSpendingLimit",
      "outputs": [],
      "stateMutability": "nonpayable",
      "type": "function"
    },
    {
      "inputs": [
        {
          "internalType": "address",
          "name": "token",
          "type": "address"
        },
        {
          "internalType": "address",
          "name": "to",
          "type": "address"
        },
        {
          "internalType": "uint256",
          "name": "amount",
          "type": "uint256"
        },
        {
          "internalType": "string",
          "name": "purpose",
          "type": "string"
        }
      ],
      "name": "spend",
      "outputs": [],
      "stateMutability": "nonpayable",
      "type": "function"
    },
    {
      "inputs": [
        {
          "internalType": "bytes4",
          "name": "interfaceId",
          "type": "bytes4"
        }
      ],
      "name": "supportsInterface",
      "outputs": [
        {
          "internalType": "bool",
          "name": "",
          "type": "bool"
        }
      ],
      "stateMutability": "view",
      "type": "function"
    },
    {
      "inputs": [],
      "name": "unpause",
      "outputs": [],
      "stateMutability": "nonpayable",
      "type": "function"
    }
  ],
  "bytecode": "0x60c034620002e857601f6200203d38819003918201601f191683019291906001600160401b03841183851017620002ed578160609284926040968752833981010312620002e857805190602062000065846200005d83850162000303565b930162000303565b60018080556002805460ff199081169091556001600160a01b038086169591938615620002a45716958615620002705760805260a052600094858052858452868620818752845260ff8787205416156200023b575b7fa49807205ce4d355092ef5a8a18f56e8913cf4a201fbe287825b095693c2177590818752868552878720818852855260ff88882054161562000205575b50507f7434c6f201a551bfd17336985361933e0c4935b520dac8a49d937b325f7d5c0a808652858452868620858752845260ff878720541615620001cf575b507f8f4f2da22e8ac8f11e15f9fc141cddbb5deea8800186560abb6e68c5496619a992838652858152868620858752815260ff87872054161562000197575b8651611d049081620003198239608051816105c8015260a05181610ad70152f35b8386528581528686209085875252858520918254161790556000805160206200201d833981519152339380a438808080808062000176565b808652858452868620858752845286862082848254161790558433916000805160206200201d8339815191528880a43862000137565b8187528685528787208188528552878720838582541617905533916000805160206200201d8339815191528880a43880620000f8565b858052858452868620818752845286862082848254161790553381876000805160206200201d8339815191528180a4620000ba565b875162461bcd60e51b815260048101869052600d60248201526c24b73b30b634b21030b236b4b760991b6044820152606490fd5b885162461bcd60e51b815260048101879052601660248201527f496e76616c696420636f6e74726f6c206d6f64756c65000000000000000000006044820152606490fd5b600080fd5b634e487b7160e01b600052604160045260246000fd5b51906001600160a01b0382168203620002e85756fe608060408181526004918236101561001657600080fd5b600092833560e01c91826301ffc9a71461113857508163248a9ca31461110e5781632f2ff15d1461106657816336568abe14610fc65781633f4ba83a14610f2757816345e6772414610b3257816347a1074814610afb578163536ce92d14610ab75781635c975abb14610a935781635fa7b5841461091457816372c16a24146108d957816375151b631461089d57816375b238fc146108625781638456cb591461080757816391d14854146107c2578163a217fddf146107a7578163a3b0b5a31461076c578163a85e35de14610737578163bfe07da6146105eb578163c471dc3a146105b0578163c9a815bd14610539578163caa648b414610456578163d3c7c2c714610421578163d48bfca714610316578163d547741f146102d8578163e63ea40814610187575063f8b2cb4f1461014e57600080fd5b3461018357602036600319011261018357806020926001600160a01b036101736111a6565b1681526003845220549051908152f35b5080fd5b9050346102d45760603660031901126102d4576101a26111a6565b906101ab61118b565b92604435936101b8611890565b6101c06112b0565b84156102c6576001600160a01b03938482169485156102b657811693848852600360205283882054878110610280575050508461021591848852600360205283882061020d838254611810565b905584611abd565b805193845260606020850152601460608501527f456d657267656e6379207769746864726177616c000000000000000000000000608085015242908401527f6b660b41e4e88f1cb58ddfa149465e22095f2db46104f1189ab4fb13df56593360a03394a46001805580f35b845163db42144d60e01b81526001600160a01b0390931691830191825260208201889052604082015281906060010390fd5b0390fd5b5050505163d92e233d60e01b8152fd5b5051631f2a200560e01b8152fd5b8280fd5b919050346102d457806003193601126102d457610313913561030e60016102fd61118b565b9383875286602052862001546114a4565b6115fc565b80f35b838334610183576020366003190112610183576103316111a6565b9061033a6112b0565b6001600160a01b03821691821561041157828452600560205260ff82852054166103fa578284526005602052818420805460ff191660011790558454680100000000000000008110156103e757916103df6020926103bf858960017ff4c563a3ea86ff1f4275e8c207df0375a51963f2b831b7bf4da8be938d92876c980190556117ca565b90919082549060031b916001600160a01b03809116831b921b1916179055565b51428152a280f35b634e487b7160e01b855260418652602485fd5b8151632efbf13f60e21b8152808601849052602490fd5b815163d92e233d60e01b81528590fd5b5050346101835781600319360112610183576104529061043f611b0c565b9051918291602083526020830190611273565b0390f35b828434610536578060031936011261053657610470611b0c565b9182519061049561048083611ca2565b9261048d835194856111ee565b808452611ca2565b60208381019491601f1901368637815b86518110156104e557806001600160a01b036104c46104e0938a611cba565b5116845260038352848420546104da8288611cba565b52611801565b6104a5565b509392909193806104ff8651978789988952880190611273565b928684038288015251928381520193925b82811061051f57505050500390f35b835185528695509381019392810192600101610510565b80fd5b5050346101835780600319360112610183577f3bd32c0f6f623f7e2423f76f4b251ace080cdb1aff9a2a4b12d8b8d8c9178b5660606105766111a6565b6001600160a01b036024359161058a6112b0565b16938486526006602052808620918083549355815192835260208301524290820152a280f35b505034610183578160031936011261018357602090517f00000000000000000000000000000000000000000000000000000000000000008152f35b9050346102d45760603660031901126102d4576106066111a6565b91602435906044359267ffffffffffffffff938481116107335761062d903690830161122c565b94610636611890565b61063e61183f565b8315610724576001600160a01b031693848752600560205260ff83882054161561070e5782516323b872dd60e01b6020820152336024820152306044820152606480820186905281529160a08301918211838310176106fb5750916106cb7f225ff215a128c3b90e7d9a02531a87177de9e30a3ca726ecb9ce3de0a14f939494926106f1948352866118e6565b84875260036020528087206106e1838254611671565b905551918291339642918461181d565b0390a36001805580f35b634e487b7160e01b885260419052602487fd5b508360249251916306439c6b60e01b8352820152fd5b509051631f2a200560e01b8152fd5b8680fd5b5050346101835780600319360112610183576020906107656107576111a6565b61075f61118b565b90611b82565b9051908152f35b505034610183578160031936011261018357602090517f8f4f2da22e8ac8f11e15f9fc141cddbb5deea8800186560abb6e68c5496619a98152f35b50503461018357816003193601126101835751908152602090f35b9050346102d457816003193601126102d4578160209360ff926107e361118b565b903582528186526001600160a01b0383832091168252855220541690519015158152f35b50503461018357816003193601126101835760207f62e78cea01bee320cd4e420270b5ea74000d11b0c9f74754ebdbfc544b05a258916108456112b0565b61084d61183f565b600160ff19600254161760025551338152a180f35b505034610183578160031936011261018357602090517fa49807205ce4d355092ef5a8a18f56e8913cf4a201fbe287825b095693c217758152f35b5050346101835760203660031901126101835760ff816020936001600160a01b036108c66111a6565b1681526005855220541690519015158152f35b505034610183578160031936011261018357602090517f7434c6f201a551bfd17336985361933e0c4935b520dac8a49d937b325f7d5c0a8152f35b8284346105365760203660031901126105365761092f6111a6565b916109386112b0565b6001600160a01b0380931690818352600560205260ff818420541615610a7c578183526005602052808320805460ff19169055825b855480821015610a4c57859084610983846117ca565b939054600394851b1c16146109a257505061099d90611801565b61096d565b90929394959160001991828101908111610a3957906103bf846109c76109d4946117ca565b905490881b1c16916117ca565b86548015610a2657917fbe9bb4bdca0a094babd75e3a98b1d2e2390633430d0a2f6e2b9970e2ee03fb2e9596979160209594930192610a12846117ca565b81939154921b1b191690555551428152a280f35b634e487b7160e01b875260318852602487fd5b634e487b7160e01b885260118952602488fd5b50507fbe9bb4bdca0a094babd75e3a98b1d2e2390633430d0a2f6e2b9970e2ee03fb2e92945060209193506103df565b516306439c6b60e01b815280850191909152602490fd5b50503461018357816003193601126101835760209060ff6002541690519015158152f35b505034610183578160031936011261018357602090516001600160a01b037f0000000000000000000000000000000000000000000000000000000000000000168152f35b50503461018357602036600319011261018357806020926001600160a01b03610b226111a6565b1681526006845220549051908152f35b9050346102d45760803660031901126102d457610b4d6111a6565b90610b5661118b565b926044359060643567ffffffffffffffff811161073357610b7a903690850161122c565b94610b83611890565b610b8b61183f565b7f7434c6f201a551bfd17336985361933e0c4935b520dac8a49d937b325f7d5c0a90818852602091888352838920338a52835260ff848a20541615610d5057508315610d40576001600160a01b0395868216968715610d3057811695868a526005845260ff858b20541615610d1957868a5260038452848a2054868110610ce757505091610c6285610cb09593610c45827f6b660b41e4e88f1cb58ddfa149465e22095f2db46104f1189ab4fb13df565933999733611bd4565b888c5260038452848c20610c5a838254611810565b905588611abd565b620151804204338a5260088252828a20878b52825280838b205403610cba575b503389526007815281892090868a5252808820610ca0838254611671565b905551918291339742918461181d565b0390a46001805580f35b338a5260078252828a20878b5282528983812055338a5260088252828a20878b528252828a205538610c82565b855163db42144d60e01b81526001600160a01b0390931691830191825260208201879052604082015281906060010390fd5b84516306439c6b60e01b8152908101879052602490fd5b845163d92e233d60e01b81528790fd5b8251631f2a200560e01b81528590fd5b858484928b610d5e336116bb565b91835190610d6b826111bc565b60428252868201926060368537825115610f145760308453825190600191821015610f015790607860218501536041915b818311610e9657505050610e55576048610e2c938593610e3b936102b297519687937f416363657373436f6e74726f6c3a206163636f756e74200000000000000000008c860152610df78c82519283916037890191016115b4565b8401917f206973206d697373696e6720726f6c65200000000000000000000000000000006037840152518093868401906115b4565b010360288101855201836111ee565b5193849362461bcd60e51b855284015260248301906115d7565b606485878087519262461bcd60e51b845283015260248201527f537472696e67733a20686578206c656e67746820696e73756666696369656e746044820152fd5b909192600f81166010811015610eee576f181899199a1a9b1b9c1cb0b131b232b360811b901a610ec68587611694565b53881c928015610edb57600019019190610d9c565b634e487b7160e01b825260118952602482fd5b634e487b7160e01b835260328a52602483fd5b634e487b7160e01b815260328852602490fd5b634e487b7160e01b815260328752602490fd5b9050346102d457826003193601126102d457610f416112b0565b6002549060ff821615610f83575060ff1916600255513381527f5db9ee0a495bf2e6ff9c91a7834c1ba4fdd244a5e8aa4e537bd38aeae4b073aa90602090a180f35b606490602084519162461bcd60e51b8352820152601460248201527f5061757361626c653a206e6f74207061757365640000000000000000000000006044820152fd5b83915034610183578260031936011261018357610fe161118b565b90336001600160a01b03831603610ffd579061031391356115fc565b608490602085519162461bcd60e51b8352820152602f60248201527f416363657373436f6e74726f6c3a2063616e206f6e6c792072656e6f756e636560448201527f20726f6c657320666f722073656c6600000000000000000000000000000000006064820152fd5b9050346102d457816003193601126102d457359061108261118b565b9082845283602052611099600182862001546114a4565b828452836020526001600160a01b0381852092169182855260205260ff8185205416156110c4578380f35b828452836020528084208285526020528320600160ff1982541617905533917f2f8788117e7eff1d82e926ec794901d17c78024a50270940304540a733656f0d8480a43880808380f35b9050346102d45760203660031901126102d457816020936001923581528085522001549051908152f35b8491346102d45760203660031901126102d4573563ffffffff60e01b81168091036102d45760209250637965db0b60e01b811490811561117a575b5015158152f35b6301ffc9a760e01b14905083611173565b602435906001600160a01b03821682036111a157565b600080fd5b600435906001600160a01b03821682036111a157565b6080810190811067ffffffffffffffff8211176111d857604052565b634e487b7160e01b600052604160045260246000fd5b90601f8019910116810190811067ffffffffffffffff8211176111d857604052565b67ffffffffffffffff81116111d857601f01601f191660200190565b81601f820112156111a15780359061124382611210565b9261125160405194856111ee565b828452602083830101116111a157816000926020809301838601378301015290565b90815180825260208080930193019160005b828110611293575050505090565b83516001600160a01b031685529381019392810192600101611285565b3360009081527f7d7ffb7a348e1c6a02869081a26547b49160dd3df72d1d75a570eb9b698292ec602090815260408083205490927fa49807205ce4d355092ef5a8a18f56e8913cf4a201fbe287825b095693c217759160ff16156113145750505050565b61131d336116bb565b9184519061132a826111bc565b6042825284820192606036853782511561149057603084538251906001918210156114905790607860218501536041915b818311611422575050506113e05760486102b29386936113c4936113b598519889937f416363657373436f6e74726f6c3a206163636f756e74200000000000000000008a860152610df7815180928c6037890191016115b4565b010360288101875201856111ee565b5192839262461bcd60e51b8452600484015260248301906115d7565b60648486519062461bcd60e51b825280600483015260248201527f537472696e67733a20686578206c656e67746820696e73756666696369656e746044820152fd5b909192600f8116601081101561147c576f181899199a1a9b1b9c1cb0b131b232b360811b901a6114528587611694565b5360041c9280156114685760001901919061135b565b634e487b7160e01b82526011600452602482fd5b634e487b7160e01b83526032600452602483fd5b634e487b7160e01b81526032600452602490fd5b600090808252602090828252604092838120338252835260ff8482205416156114cd5750505050565b6114d6336116bb565b918451906114e3826111bc565b6042825284820192606036853782511561149057603084538251906001918210156114905790607860218501536041915b81831161156e575050506113e05760486102b29386936113c4936113b598519889937f416363657373436f6e74726f6c3a206163636f756e74200000000000000000008a860152610df7815180928c6037890191016115b4565b909192600f8116601081101561147c576f181899199a1a9b1b9c1cb0b131b232b360811b901a61159e8587611694565b5360041c92801561146857600019019190611514565b60005b8381106115c75750506000910152565b81810151838201526020016115b7565b906020916115f0815180928185528580860191016115b4565b601f01601f1916010190565b90600091808352826020526001600160a01b036040842092169182845260205260ff60408420541661162d57505050565b80835282602052604083208284526020526040832060ff1981541690557ff6391f5c32d9c69d2a47ea670b442974b53935d1edc7fd64eb21e047a839171b339380a4565b9190820180921161167e57565b634e487b7160e01b600052601160045260246000fd5b9081518110156116a5570160200190565b634e487b7160e01b600052603260045260246000fd5b604051906060820182811067ffffffffffffffff8211176111d857604052602a82526020820160403682378251156116a5576030905381516001908110156116a557607860218401536029905b80821161175c5750506117185790565b606460405162461bcd60e51b815260206004820152602060248201527f537472696e67733a20686578206c656e67746820696e73756666696369656e746044820152fd5b9091600f811660108110156117b5576f181899199a1a9b1b9c1cb0b131b232b360811b901a61178b8486611694565b5360041c9180156117a0576000190190611708565b60246000634e487b7160e01b81526011600452fd5b60246000634e487b7160e01b81526032600452fd5b6004548110156116a55760046000527f8a35acfbc15ff81a39ae7d344fd709f28e8600b4aa8c65c6b64bfe7fe36bd19b0190600090565b600019811461167e5760010190565b9190820391821161167e57565b93929161183a9060409286526060602087015260608601906115d7565b930152565b60ff6002541661184b57565b60405162461bcd60e51b815260206004820152601060248201527f5061757361626c653a20706175736564000000000000000000000000000000006044820152606490fd5b6002600154146118a1576002600155565b60405162461bcd60e51b815260206004820152601f60248201527f5265656e7472616e637947756172643a207265656e7472616e742063616c6c006044820152606490fd5b6001600160a01b031690604051604081019080821067ffffffffffffffff8311176111d857611977916040526020938482527f5361666545524332303a206c6f772d6c6576656c2063616c6c206661696c6564858301526000808587829751910182855af13d15611a20573d9161195c83611210565b9261196a60405194856111ee565b83523d868885013e611a24565b8051918215918483156119fc575b5050509050156119925750565b6084906040519062461bcd60e51b82526004820152602a60248201527f5361666545524332303a204552433230206f7065726174696f6e20646964206e60448201527f6f742073756363656564000000000000000000000000000000000000000000006064820152fd5b91938180945001031261018357820151908115158203610536575080388084611985565b6060915b91929015611a865750815115611a38575090565b3b15611a415790565b60405162461bcd60e51b815260206004820152601d60248201527f416464726573733a2063616c6c20746f206e6f6e2d636f6e74726163740000006044820152606490fd5b825190915015611a995750805190602001fd5b60405162461bcd60e51b8152602060048201529081906102b29060248301906115d7565b916001600160a01b036040519263a9059cbb60e01b6020850152166024830152604482015260448152608081019181831067ffffffffffffffff8411176111d857611b0a926040526118e6565b565b60405190600454808352826020918282019060046000527f8a35acfbc15ff81a39ae7d344fd709f28e8600b4aa8c65c6b64bfe7fe36bd19b936000905b828210611b5f57505050611b0a925003836111ee565b85546001600160a01b031684526001958601958895509381019390910190611b49565b6001600160a01b0380911691600091838352600860205260408320911690818352602052620151804204604083205403611bce5760409282526007602052828220908252602052205490565b50905090565b6001600160a01b039283831691600094838652600660205260409586812054948515611c9857879282941680835260086020528383208284526020526201518042048484205414611c7b575b5050505082611c2f8383611671565b11611c3b575050505050565b6102b29291611c4991611671565b93519384936384bb52cf60e01b8552600485016040919493926001600160a01b03606083019616825260208201520152565b825260076020908152838320918352522054905084388080611c20565b5050505050505050565b67ffffffffffffffff81116111d85760051b60200190565b80518210156116a55760209160051b01019056fea26469706673582212209162bfaab1dda8cf318c7a436351b14075fc20f21ab69d87ca3913e7a69e6c6864736f6c634300081400332f8788117e7eff1d82e926ec794901d17c78024a50270940304540a733656f0d",
  "linkReferences": {},
  "deployedLinkReferences": {}
}