{"contracts/modules/Control/Control.sol":{"Control":{"abi":[{"inputs":[],"stateMutability":"nonpayable","type":"constructor"},{"inputs":[{"internalType":"uint256","name":"required","type":"uint256"},{"internalType":"uint256","name":"provided","type":"uint256"}],"name":"InsufficientGameStake","type":"error"},{"inputs":[],"name":"InvalidGameToken","type":"error"},{"inputs":[],"name":"InvalidParameters","type":"error"},{"inputs":[],"name":"InvalidRegistryAddress","type":"error"},{"inputs":[{"internalType":"bytes32","name":"orgId","type":"bytes32"},{"internalType":"address","name":"member","type":"address"}],"name":"MemberExists","type":"error"},{"inputs":[{"internalType":"bytes32","name":"orgId","type":"bytes32"},{"internalType":"uint256","name":"limit","type":"uint256"}],"name":"MemberLimitReached","type":"error"},{"inputs":[{"internalType":"bytes32","name":"orgId","type":"bytes32"},{"internalType":"address","name":"member","type":"address"}],"name":"MemberNotFound","type":"error"},{"inputs":[],"name":"ModuleAlreadyInitialized","type":"error"},{"inputs":[],"name":"ModuleNotInitialized","type":"error"},{"inputs":[],"name":"OnlyRegistry","type":"error"},{"inputs":[{"internalType":"bytes32","name":"orgId","type":"bytes32"}],"name":"OrganizationExists","type":"error"},{"inputs":[{"internalType":"bytes32","name":"orgId","type":"bytes32"}],"name":"OrganizationInactive","type":"error"},{"inputs":[{"internalType":"bytes32","name":"orgId","type":"bytes32"}],"name":"OrganizationNotFound","type":"error"},{"inputs":[{"internalType":"bytes32","name":"orgId","type":"bytes32"},{"internalType":"address","name":"caller","type":"address"}],"name":"UnauthorizedAccess","type":"error"},{"anonymous":false,"inputs":[{"indexed":true,"internalType":"bytes32","name":"orgId","type":"bytes32"},{"indexed":true,"internalType":"address","name":"member","type":"address"},{"indexed":false,"internalType":"enum IControl.MemberState","name":"state","type":"uint8"},{"indexed":false,"internalType":"uint256","name":"fee","type":"uint256"},{"indexed":false,"internalType":"uint256","name":"timestamp","type":"uint256"}],"name":"MemberAdded","type":"event"},{"anonymous":false,"inputs":[{"indexed":true,"internalType":"bytes32","name":"orgId","type":"bytes32"},{"indexed":true,"internalType":"address","name":"member","type":"address"},{"indexed":false,"internalType":"uint256","name":"timestamp","type":"uint256"}],"name":"MemberRemoved","type":"event"},{"anonymous":false,"inputs":[{"indexed":true,"internalType":"bytes32","name":"orgId","type":"bytes32"},{"indexed":true,"internalType":"address","name":"member","type":"address"},{"indexed":false,"internalType":"enum IControl.MemberState","name":"oldState","type":"uint8"},{"indexed":false,"internalType":"enum IControl.MemberState","name":"newState","type":"uint8"},{"indexed":false,"internalType":"uint256","name":"timestamp","type":"uint256"}],"name":"MemberStateChanged","type":"event"},{"anonymous":false,"inputs":[{"indexed":true,"internalType":"bytes32","name":"orgId","type":"bytes32"},{"indexed":false,"internalType":"uint256","name":"oldFee","type":"uint256"},{"indexed":false,"internalType":"uint256","name":"newFee","type":"uint256"},{"indexed":false,"internalType":"uint256","name":"timestamp","type":"uint256"}],"name":"MembershipFeeUpdated","type":"event"},{"anonymous":false,"inputs":[],"name":"ModuleDisabled","type":"event"},{"anonymous":false,"inputs":[],"name":"ModuleEnabled","type":"event"},{"anonymous":false,"inputs":[{"indexed":true,"internalType":"address","name":"registry","type":"address"}],"name":"ModuleInitialized","type":"event"},{"anonymous":false,"inputs":[{"indexed":true,"internalType":"bytes32","name":"orgId","type":"bytes32"},{"indexed":true,"internalType":"address","name":"creator","type":"address"},{"indexed":true,"internalType":"address","name":"prime","type":"address"},{"indexed":false,"internalType":"string","name":"name","type":"string"},{"indexed":false,"internalType":"enum IControl.OrgType","name":"orgType","type":"uint8"},{"indexed":false,"internalType":"uint256","name":"timestamp","type":"uint256"}],"name":"OrganizationCreated","type":"event"},{"anonymous":false,"inputs":[{"indexed":true,"internalType":"bytes32","name":"orgId","type":"bytes32"},{"indexed":false,"internalType":"enum IControl.OrgState","name":"oldState","type":"uint8"},{"indexed":false,"internalType":"enum IControl.OrgState","name":"newState","type":"uint8"},{"indexed":false,"internalType":"uint256","name":"timestamp","type":"uint256"}],"name":"OrganizationStateChanged","type":"event"},{"anonymous":false,"inputs":[{"indexed":true,"internalType":"bytes32","name":"orgId","type":"bytes32"},{"indexed":true,"internalType":"address","name":"prime","type":"address"},{"indexed":false,"internalType":"enum IControl.OrgType","name":"orgType","type":"uint8"},{"indexed":false,"internalType":"enum IControl.AccessModel","name":"accessModel","type":"uint8"},{"indexed":false,"internalType":"uint32","name":"memberLimit","type":"uint32"},{"indexed":false,"internalType":"uint256","name":"timestamp","type":"uint256"}],"name":"OrganizationUpdated","type":"event"},{"anonymous":false,"inputs":[{"indexed":false,"internalType":"address","name":"account","type":"address"}],"name":"Paused","type":"event"},{"anonymous":false,"inputs":[{"indexed":true,"internalType":"bytes32","name":"role","type":"bytes32"},{"indexed":true,"internalType":"bytes32","name":"previousAdminRole","type":"bytes32"},{"indexed":true,"internalType":"bytes32","name":"newAdminRole","type":"bytes32"}],"name":"RoleAdminChanged","type":"event"},{"anonymous":false,"inputs":[{"indexed":true,"internalType":"bytes32","name":"role","type":"bytes32"},{"indexed":true,"internalType":"address","name":"account","type":"address"},{"indexed":true,"internalType":"address","name":"sender","type":"address"}],"name":"RoleGranted","type":"event"},{"anonymous":false,"inputs":[{"indexed":true,"internalType":"bytes32","name":"role","type":"bytes32"},{"indexed":true,"internalType":"address","name":"account","type":"address"},{"indexed":true,"internalType":"address","name":"sender","type":"address"}],"name":"RoleRevoked","type":"event"},{"anonymous":false,"inputs":[{"indexed":true,"internalType":"bytes32","name":"orgId","type":"bytes32"},{"indexed":true,"internalType":"address","name":"beneficiary","type":"address"},{"indexed":true,"internalType":"address","name":"token","type":"address"},{"indexed":false,"internalType":"uint256","name":"amount","type":"uint256"},{"indexed":false,"internalType":"string","name":"purpose","type":"string"},{"indexed":false,"internalType":"uint256","name":"timestamp","type":"uint256"}],"name":"TreasuryFundsSpent","type":"event"},{"anonymous":false,"inputs":[{"indexed":false,"internalType":"address","name":"account","type":"address"}],"name":"Unpaused","type":"event"},{"inputs":[],"name":"ADMIN_ROLE","outputs":[{"internalType":"bytes32","name":"","type":"bytes32"}],"stateMutability":"view","type":"function"},{"inputs":[],"name":"DEFAULT_ADMIN_ROLE","outputs":[{"internalType":"bytes32","name":"","type":"bytes32"}],"stateMutability":"view","type":"function"},{"inputs":[],"name":"GAME_STAKE_PURPOSE","outputs":[{"internalType":"bytes32","name":"","type":"bytes32"}],"stateMutability":"view","type":"function"},{"inputs":[],"name":"MODULE_ID","outputs":[{"internalType":"bytes32","name":"","type":"bytes32"}],"stateMutability":"view","type":"function"},{"inputs":[],"name":"OPERATOR_ROLE","outputs":[{"internalType":"bytes32","name":"","type":"bytes32"}],"stateMutability":"view","type":"function"},{"inputs":[{"internalType":"bytes32","name":"orgId","type":"bytes32"},{"internalType":"address","name":"member","type":"address"}],"name":"addMember","outputs":[],"stateMutability":"nonpayable","type":"function"},{"inputs":[{"internalType":"bytes32","name":"orgId","type":"bytes32"},{"internalType":"address","name":"member","type":"address"}],"name":"canJoinOrganization","outputs":[{"internalType":"bool","name":"","type":"bool"}],"stateMutability":"view","type":"function"},{"inputs":[{"internalType":"string","name":"name","type":"string"},{"internalType":"string","name":"metadataURI","type":"string"},{"internalType":"enum IControl.OrgType","name":"orgType","type":"uint8"},{"internalType":"enum IControl.AccessModel","name":"accessModel","type":"uint8"},{"internalType":"enum IControl.FeeModel","name":"feeModel","type":"uint8"},{"internalType":"uint32","name":"memberLimit","type":"uint32"},{"internalType":"uint256","name":"membershipFee","type":"uint256"},{"internalType":"uint256","name":"gameStakeRequired","type":"uint256"}],"name":"createOrganization","outputs":[{"internalType":"bytes32","name":"orgId","type":"bytes32"}],"stateMutability":"nonpayable","type":"function"},{"inputs":[],"name":"emergencyPause","outputs":[],"stateMutability":"nonpayable","type":"function"},{"inputs":[],"name":"emergencyUnpause","outputs":[],"stateMutability":"nonpayable","type":"function"},{"inputs":[],"name":"gameToken","outputs":[{"internalType":"contract IGameToken","name":"","type":"address"}],"stateMutability":"view","type":"function"},{"inputs":[],"name":"getAllOrganizations","outputs":[{"internalType":"bytes32[]","name":"","type":"bytes32[]"}],"stateMutability":"view","type":"function"},{"inputs":[{"internalType":"bytes32","name":"orgId","type":"bytes32"}],"name":"getGameStakeRequired","outputs":[{"internalType":"uint256","name":"","type":"uint256"}],"stateMutability":"view","type":"function"},{"inputs":[{"internalType":"bytes32","name":"orgId","type":"bytes32"},{"internalType":"address","name":"member","type":"address"}],"name":"getMember","outputs":[{"components":[{"internalType":"enum IControl.MemberState","name":"state","type":"uint8"},{"internalType":"uint256","name":"joinedAt","type":"uint256"},{"internalType":"uint256","name":"totalContribution","type":"uint256"},{"internalType":"bytes32","name":"role","type":"bytes32"},{"internalType":"uint256","name":"stakedAmount","type":"uint256"}],"internalType":"struct IControl.Member","name":"","type":"tuple"}],"stateMutability":"view","type":"function"},{"inputs":[{"internalType":"bytes32","name":"orgId","type":"bytes32"}],"name":"getMemberCount","outputs":[{"internalType":"uint256","name":"","type":"uint256"}],"stateMutability":"view","type":"function"},{"inputs":[{"internalType":"bytes32","name":"orgId","type":"bytes32"}],"name":"getOrganization","outputs":[{"components":[{"internalType":"uint256","name":"index","type":"uint256"},{"internalType":"address","name":"creator","type":"address"},{"internalType":"address","name":"prime","type":"address"},{"internalType":"string","name":"name","type":"string"},{"internalType":"string","name":"metadataURI","type":"string"},{"internalType":"enum IControl.OrgType","name":"orgType","type":"uint8"},{"internalType":"enum IControl.AccessModel","name":"accessModel","type":"uint8"},{"internalType":"enum IControl.FeeModel","name":"feeModel","type":"uint8"},{"internalType":"uint256","name":"membershipFee","type":"uint256"},{"internalType":"address","name":"treasury","type":"address"},{"internalType":"uint32","name":"memberLimit","type":"uint32"},{"internalType":"enum IControl.OrgState","name":"state","type":"uint8"},{"internalType":"uint256","name":"createdAt","type":"uint256"},{"internalType":"uint256","name":"updatedAt","type":"uint256"}],"internalType":"struct IControl.Organization","name":"","type":"tuple"}],"stateMutability":"view","type":"function"},{"inputs":[],"name":"getOrganizationCount","outputs":[{"internalType":"uint256","name":"","type":"uint256"}],"stateMutability":"view","type":"function"},{"inputs":[{"internalType":"bytes32","name":"orgId","type":"bytes32"}],"name":"getOrganizationMembers","outputs":[{"internalType":"address[]","name":"","type":"address[]"}],"stateMutability":"view","type":"function"},{"inputs":[{"internalType":"enum IControl.OrgState","name":"state","type":"uint8"}],"name":"getOrganizationsByState","outputs":[{"internalType":"bytes32[]","name":"","type":"bytes32[]"}],"stateMutability":"view","type":"function"},{"inputs":[{"internalType":"bytes32","name":"role","type":"bytes32"}],"name":"getRoleAdmin","outputs":[{"internalType":"bytes32","name":"","type":"bytes32"}],"stateMutability":"view","type":"function"},{"inputs":[{"internalType":"bytes32","name":"orgId","type":"bytes32"}],"name":"getTreasuryAddress","outputs":[{"internalType":"address","name":"","type":"address"}],"stateMutability":"view","type":"function"},{"inputs":[{"internalType":"bytes32","name":"role","type":"bytes32"},{"internalType":"address","name":"account","type":"address"}],"name":"grantRole","outputs":[],"stateMutability":"nonpayable","type":"function"},{"inputs":[{"internalType":"bytes32","name":"orgId","type":"bytes32"},{"internalType":"address","name":"member","type":"address"},{"internalType":"bytes32","name":"role","type":"bytes32"}],"name":"hasRole","outputs":[{"internalType":"bool","name":"","type":"bool"}],"stateMutability":"view","type":"function"},{"inputs":[{"internalType":"bytes32","name":"role","type":"bytes32"},{"internalType":"address","name":"account","type":"address"}],"name":"hasRole","outputs":[{"internalType":"bool","name":"","type":"bool"}],"stateMutability":"view","type":"function"},{"inputs":[{"internalType":"address","name":"registryAddress","type":"address"}],"name":"initialize","outputs":[],"stateMutability":"nonpayable","type":"function"},{"inputs":[],"name":"isInitialized","outputs":[{"internalType":"bool","name":"","type":"bool"}],"stateMutability":"view","type":"function"},{"inputs":[{"internalType":"bytes32","name":"orgId","type":"bytes32"},{"internalType":"address","name":"member","type":"address"}],"name":"isMemberActive","outputs":[{"internalType":"bool","name":"","type":"bool"}],"stateMutability":"view","type":"function"},{"inputs":[{"internalType":"bytes32","name":"orgId","type":"bytes32"}],"name":"isOrganizationActive","outputs":[{"internalType":"bool","name":"","type":"bool"}],"stateMutability":"view","type":"function"},{"inputs":[],"name":"moduleId","outputs":[{"internalType":"bytes32","name":"","type":"bytes32"}],"stateMutability":"pure","type":"function"},{"inputs":[],"name":"onModuleDisabled","outputs":[],"stateMutability":"nonpayable","type":"function"},{"inputs":[],"name":"onModuleEnabled","outputs":[],"stateMutability":"nonpayable","type":"function"},{"inputs":[],"name":"pause","outputs":[],"stateMutability":"nonpayable","type":"function"},{"inputs":[],"name":"paused","outputs":[{"internalType":"bool","name":"","type":"bool"}],"stateMutability":"view","type":"function"},{"inputs":[],"name":"registry","outputs":[{"internalType":"address","name":"","type":"address"}],"stateMutability":"view","type":"function"},{"inputs":[{"internalType":"bytes32","name":"orgId","type":"bytes32"},{"internalType":"address","name":"member","type":"address"}],"name":"removeMember","outputs":[],"stateMutability":"nonpayable","type":"function"},{"inputs":[{"internalType":"bytes32","name":"role","type":"bytes32"},{"internalType":"address","name":"account","type":"address"}],"name":"renounceRole","outputs":[],"stateMutability":"nonpayable","type":"function"},{"inputs":[{"internalType":"bytes32","name":"role","type":"bytes32"},{"internalType":"address","name":"account","type":"address"}],"name":"revokeRole","outputs":[],"stateMutability":"nonpayable","type":"function"},{"inputs":[{"internalType":"address","name":"_gameToken","type":"address"}],"name":"setGameToken","outputs":[],"stateMutability":"nonpayable","type":"function"},{"inputs":[{"internalType":"bytes32","name":"orgId","type":"bytes32"},{"internalType":"enum IControl.OrgState","name":"newState","type":"uint8"}],"name":"setOrganizationState","outputs":[],"stateMutability":"nonpayable","type":"function"},{"inputs":[{"internalType":"bytes32","name":"orgId","type":"bytes32"},{"internalType":"address","name":"token","type":"address"},{"internalType":"address","name":"beneficiary","type":"address"},{"internalType":"uint256","name":"amount","type":"uint256"},{"internalType":"string","name":"purpose","type":"string"}],"name":"spendTreasuryFunds","outputs":[],"stateMutability":"nonpayable","type":"function"},{"inputs":[{"internalType":"bytes4","name":"interfaceId","type":"bytes4"}],"name":"supportsInterface","outputs":[{"internalType":"bool","name":"","type":"bool"}],"stateMutability":"view","type":"function"},{"inputs":[],"name":"unpause","outputs":[],"stateMutability":"nonpayable","type":"function"},{"inputs":[{"internalType":"bytes32","name":"orgId","type":"bytes32"},{"internalType":"address","name":"member","type":"address"},{"internalType":"enum IControl.MemberState","name":"newState","type":"uint8"}],"name":"updateMemberState","outputs":[],"stateMutability":"nonpayable","type":"function"},{"inputs":[{"internalType":"bytes32","name":"orgId","type":"bytes32"},{"internalType":"address","name":"newPrime","type":"address"},{"internalType":"enum IControl.OrgType","name":"orgType","type":"uint8"},{"internalType":"enum IControl.AccessModel","name":"accessModel","type":"uint8"},{"internalType":"uint32","name":"memberLimit","type":"uint32"},{"internalType":"enum IControl.FeeModel","name":"feeModel","type":"uint8"},{"internalType":"uint256","name":"membershipFee","type":"uint256"}],"name":"updateOrganization","outputs":[],"stateMutability":"nonpayable","type":"function"},{"inputs":[],"name":"version","outputs":[{"internalType":"string","name":"","type":"string"}],"stateMutability":"view","type":"function"}],"evm":{"bytecode":{"linkReferences":{},"object":"608034620001d0576040908082016001600160401b03811182821017620001ba578252600581526020809101640312e302e360dc1b815260ff1990600190828254168255816002556004548281811c91168015620001af575b858210146200019957601f811162000167575b50516001600160d81b031916600a17600455600080805280845284812033825284528490205460ff16156200012c575b7fa49807205ce4d355092ef5a8a18f56e8913cf4a201fbe287825b095693c217759283600052600081528460002033600052815260ff85600020541615620000ed575b845161542e9081620001d68239f35b83600052600081528460002090336000525283600020918254161790553390339060008051602062005604833981519152600080a438808080620000de565b60008052600083528360002033600052835283600020818382541617905533336000600080516020620056048339815191528180a46200009b565b600460005282601f86600020920160051c8201915b8281106200018c5750506200006b565b600081550183906200017c565b634e487b7160e01b600052602260045260246000fd5b90607f169062000058565b634e487b7160e01b600052604160045260246000fd5b600080fdfe60808060405260043610156200001457600080fd5b600090813560e01c90816301ffc9a7146200267057508063086ed93814620025f3578063089d0b0c14620025a7578063097e2e3d146200247d578063200224b414620022b157806322b3cd4e146200201f578063248a9ca31462001ff15780632f2ff15d1462001f335780632f645c601462001dfa57806336568abe1462001d60578063392e53cd1462001d385780633f4ba83a1462001ccb5780634092e2c21462001a0057806349d07f1d146200183a5780634a4e3bd5146200178a5780634e42dd9f1462000edc57806351858e271462000e9f57806354fd4d501462000dad5780635734e5e31462000d8d5780635c975abb1462000d6857806375b238fc1462000d2b5780637b1039991462000d0057806380d29e661462000ca15780638456cb591462000c3257806384ea5c741462000bfa57806391d148541462000bab57806393f36bd81462000b7f5780639a73748614620008f7578063a1308f271462000368578063a217fddf14620008d9578063a6606fb214620008ad578063aa7318aa1462000853578063ad932b6c146200081c578063b1d92cf61462000739578063b241255014620006e2578063c1f8218a1462000668578063c3dfdae6146200063d578063c4d66de8146200046b578063d547741f1462000423578063ebf8a3e614620003a5578063ed2f21f51462000368578063efc37004146200032b578063f385bfc914620002ba578063f579164e146200027d5763f5b541a6146200023e57600080fd5b346200027a57806003193601126200027a5760206040517f97667070c54ef182b0f5858b034beac1b6f3089aa2d3188bb1e8929f4fa9b9298152f35b80fd5b50346200027a57806003193601126200027a5760206040517f9d5b5f65afa369fa6c9af26783f16db68a74bcb30633c8b6fdd12acc5c52c85e8152f35b50346200027a5760403660031901126200027a57620002d862002707565b60043582526008602052604082209060018060a01b031660005260205260ff604060002054169060068210156200031757602082600160405191148152f35b634e487b7160e01b81526021600452602490fd5b50346200027a5760203660031901126200027a5760ff60406020926004358152600a84522054166200035d816200288b565b600160405191148152f35b50346200027a57806003193601126200027a5760206040517fbdded29a54e6a5d6169bedea55373b06f57e35d7b0f67ac187565b435e2cc9438152f35b50346200027a57806003193601126200027a576003546001600160a01b0381163303620004115760a01c60ff1615620003ff577fa866f3901ec84758a10f30e8953c3818eef73da93dfa46cb6aa5b726fb65813f8180a180f35b604051633165f6e960e21b8152600490fd5b6040516310f5403960e31b8152600490fd5b50346200027a5760403660031901126200027a57620004686004356200044862002707565b908084528360205262000462600160408620015462002ad1565b62002bee565b80f35b50346200027a5760208060031936011262000639576200048a6200271e565b906003549160ff8360a01c1662000627576001600160a01b031691821562000615576001600160a81b0319168217600160a01b176003557fa49807205ce4d355092ef5a8a18f56e8913cf4a201fbe287825b095693c2177560008181528083526040808220858352845290205460ff1615620005c3575b507f97667070c54ef182b0f5858b034beac1b6f3089aa2d3188bb1e8929f4fa9b929908160005260008152604060002083600052815260ff604060002054161562000570575b50507f27b541a16df0902e262f34789782092ab25125513b8ed73608e802951771b9288280a280f35b816000526000815260406000209083600052526040600020600160ff198254161790558133917f2f8788117e7eff1d82e926ec794901d17c78024a50270940304540a733656f0d600080a4388062000547565b806000526000825260406000208360005282526040600020600160ff198254161790558233917f2f8788117e7eff1d82e926ec794901d17c78024a50270940304540a733656f0d600080a43862000501565b604051637bfd2e8360e01b8152600490fd5b604051637396742f60e11b8152600490fd5b5080fd5b50346200027a57806003193601126200027a576006546040516001600160a01b039091168152602090f35b50346200027a57602090816003193601126200027a57906004358252600981526200069660408320620033bb565b60405192828493840190808552835180925280604086019401925b828110620006c157505050500390f35b83516001600160a01b031685528695509381019392810192600101620006b1565b50346200027a5760203660031901126200027a576004356003811015620006395760406200073592826200071a62000728946200288b565b8152600d60205220620033bb565b60405191829182620026ca565b0390f35b50346200027a5760403660031901126200027a5760406200075962002707565b9180608083516200076a816200277c565b8281528260208201528285820152826060820152015260043581526008602052209060018060a01b031660005260205260a0604060002060405190620007b0826200277c565b620007c060ff8254168362003210565b60018101549060208301918252600281015460408401908152600460038301549260608601938452015492608085019384526200080260405180965162002896565b516020850152516040840152516060830152516080820152f35b50346200027a5760403660031901126200027a576020620008496200084062002707565b6004356200321d565b6040519015158152f35b50346200027a57806003193601126200027a576003546001600160a01b0381163303620004115760a01c60ff1615620003ff577f6dff2fe8fbb5b23bf0583bf5b2157ff62ca7e27f2fb4f404914cd0c205ced5cc8180a180f35b50346200027a5760203660031901126200027a5760406020916004358152601083522054604051908152f35b50346200027a57806003193601126200027a57602090604051908152f35b50346200027a5760403660031901126200027a576004356200091862002707565b906200092362002f67565b6200092d62002e92565b808352600760209081526040842060018101546001600160a01b03919082161562000b6657838652600883526040862094828116958660005284526001604060002001541562000b3c5750600282910154163314158062000b31575b62000b0e57849083825260098352620009a68560408420620030fa565b50838252600883526040822085600052835260006004604082208481558260018201558260028201558260038201550155838252600e83526040822085600052835260006040812055838252601183526040822085600052835260406000205462000a3f575b50507f31bd20fe15001ee66b7528035447ad30c320a25815eb7d5de52d8e35ec26600090604051428152a3600160025580f35b83825260118352604082208560005283526040600020549084835260118452604083208660005284528260406000205560065416908162000a82575b5062000a0c565b813b1562000b0a5782916044839260405194859384926316ae261d60e01b84527f9d5b5f65afa369fa6c9af26783f16db68a74bcb30633c8b6fdd12acc5c52c85e600485015260248401525af1801562000aff5762000ae3575b8062000a7b565b62000aee9062002735565b62000afb57833862000adc565b8380fd5b6040513d84823e3d90fd5b8280fd5b6040516303a2a05160e11b815260048101849052336024820152604490fd5b0390fd5b508333141562000989565b604051630308532560e21b8152600481018690526001600160a01b03919091166024820152604490fd5b60405163f708dfa760e01b815260048101859052602490fd5b50346200027a5760203660031901126200027a5760406020916004358152600983522054604051908152f35b50346200027a5760403660031901126200027a57604062000bcb62002707565b91600435815280602052209060018060a01b0316600052602052602060ff604060002054166040519015158152f35b50346200027a5760203660031901126200027a576020906004358152600782526007604060018060a01b039220015416604051908152f35b50346200027a57806003193601126200027a5762000c4f620028a4565b60ff60035460a01c1615620003ff5762000c6862002e92565b600160ff19815416176001557f62e78cea01bee320cd4e420270b5ea74000d11b0c9f74754ebdbfc544b05a2586020604051338152a180f35b50346200027a5760203660031901126200027a5762000cbf6200271e565b62000cc9620028a4565b6001600160a01b0316801562000cef576001600160601b0360a01b600654161760065580f35b6040516203daa560e31b8152600490fd5b50346200027a57806003193601126200027a576003546040516001600160a01b039091168152602090f35b50346200027a57806003193601126200027a5760206040517fa49807205ce4d355092ef5a8a18f56e8913cf4a201fbe287825b095693c217758152f35b50346200027a57806003193601126200027a57602060ff600154166040519015158152f35b50346200027a57806003193601126200027a576020600554604051908152f35b50346200027a57806003193601126200027a57604051600060045462000dd38162002da3565b8084529060019081811690811562000e76575060011462000e17575b620007358462000e0281860382620027b4565b60405191829160208352602083019062002856565b6004600090815292507f8a35acfbc15ff81a39ae7d344fd709f28e8600b4aa8c65c6b64bfe7fe36bd19b5b82841062000e5d57505050810160200162000e028262000def565b8054602085870181019190915290930192810162000e42565b60ff191660208087019190915292151560051b8501909201925062000e02915083905062000def565b50346200027a57806003193601126200027a576003546001600160a01b0381163303620004115760a01c60ff1615620003ff5762000c6862002e92565b50346200027a576101003660031901126200027a576004356001600160401b038111620006395762000f13903690600401620027d6565b906024356001600160401b038111620006395762000f36903690600401620027d6565b90600460443510156200027a57600360643510156200027a57600360843510156200027a5760a43563ffffffff81168103620017855762000f7662002f67565b62000f8062002e92565b835115620017735760e435151580806200175f575b62000cef57620016ca575b60016005540190816005556040517fbdded29a54e6a5d6169bedea55373b06f57e35d7b0f67ac187565b435e2cc94360208201528260408201523360601b60608201524260748201526074815262000ff8816200277c565b6020815191012093848452600760205260018060a01b03600160408620015416620016b15760405180611fea8101106001600160401b03611fea83011117620015bc57611fea6200340f8239611fea81018681523060208201523360408201528190036060019085f0908115620016a6579063ffffffff92916040519462001080866200275f565b85523360208601523360408601528760608601526080850152620010aa60443560a0860162002ed7565b620010b76064356200288b565b60643560c0850152620010cc6084356200288b565b60843560e085015260c43561010085015260018060a01b031661012084015216610140820152600161016082015242610180820152426101a082015282825260076020526040822090805182556001820160018060a01b036020830151166001600160601b0360a01b8254161790556002820160018060a01b036040830151166001600160601b0360a01b82541617905560608101518051906001600160401b038211620015bc57819062001185600386015462002da3565b601f811162001650575b50602090601f8311600114620015dc578692620015d0575b50508160011b916000199060031b1c19161760038301555b60808101518051906001600160401b038211620015bc578190620011e7600486015462002da3565b601f811162001566575b50602090601f8311600114620014f2578692620014e6575b50508160011b916000199060031b1c19161760048301555b60a08101516004811015620014d257928260096101a0604094620012866200133e986200125460058c9a01918262002ee4565b6200126f60c084015162001268816200288b565b8262002efd565b60e08301519062001280826200288b565b62002f1e565b610100810151600685015561012081015160078501805461014084015163ffffffff60a01b60a09190911b166001600160a01b039093166001600160c01b031990911617919091178155620012ed9061016083015190620012e7826200288b565b62002f41565b61018081015160088501550151910155828152600a602052818120600160ff19825416179055828152601060205260e435828220556200132d8362002fd5565b5060018152600d6020522062003070565b50806000526008602052604060002033600052602052600160406000200154620014b2578060005260096020526200137b33604060002062003070565b50604051916200138b836200277c565b60018352602083019242845260408101600081526060820160008152608083019060008252856000526008602052604060002033600052602052604060002093519260068410156200149c57602097620013e860049587620031f7565b5160018601555160028501555160038401555191015560405160018152600084820152426040820152827f339e6f1051e81b2167f634edf22c19afc661b87cc385ead8aae7e6863548a41060603393a36200144f6040519160608352606083019062002856565b6200145f8483016044356200287d565b426040830152827fb666949cb144777f2b9c231357c48a44dd297b72cca767eee2290801b924ee2233938033940390a46001600255604051908152f35b634e487b7160e01b600052602160045260246000fd5b60405163392d9d8360e11b81526004810191909152336024820152604490fd5b634e487b7160e01b84526021600452602484fd5b01519050388062001209565b9250600485018652602086209086935b601f19841685106200154a576001945083601f1981161062001530575b505050811b01600483015562001221565b015160001960f88460031b161c191690553880806200151f565b8181015183556020948501946001909301929091019062001502565b90915060048501865260208620601f840160051c810160208510620015b4575b90849392915b601f830160051c82018110620015a4575050620011f1565b600081558594506001016200158c565b508062001586565b634e487b7160e01b85526041600452602485fd5b015190503880620011a7565b9250600385018652602086209086935b601f198416851062001634576001945083601f198116106200161a575b505050811b016003830155620011bf565b015160001960f88460031b161c1916905538808062001609565b81810151835560209485019460019093019290910190620015ec565b90915060038501865260208620601f840160051c8101602085106200169e575b90849392915b601f830160051c820181106200168e5750506200118f565b6000815585945060010162001676565b508062001670565b6040513d86823e3d90fd5b604051635670e0e960e01b815260048101869052602490fd5b6006546001600160a01b0316803b1562000b0a578280916044604051809481936308caa52360e41b83527f9d5b5f65afa369fa6c9af26783f16db68a74bcb30633c8b6fdd12acc5c52c85e600484015260e43560248401525af1801562001754579083916200173c575b505062000fa0565b620017479062002735565b6200063957813862001734565b6040513d85823e3d90fd5b506006546001600160a01b03161562000f95565b604051630e52390960e41b8152600490fd5b600080fd5b50346200027a57806003193601126200027a576003546001600160a01b0381163303620004115760a01c60ff1615620003ff5760015460ff811615620017fe5760ff19166001557f5db9ee0a495bf2e6ff9c91a7834c1ba4fdd244a5e8aa4e537bd38aeae4b073aa6020604051338152a180f35b60405162461bcd60e51b815260206004820152601460248201527314185d5cd8589b194e881b9bdd081c185d5cd95960621b6044820152606490fd5b50346200027a5760e03660031901126200027a576004356200185b62002707565b90604435600481101562000afb57606435926003841015620019fc5760843563ffffffff811691828203620017855760a4356003811015620019f857620018a162002f67565b620018ab62002e92565b85885260076020526040882060018101546001600160a01b039491929190851615620019df5760028301938454908682163303620019c057928a6200128088969462001967947ff7e47866c964bbd057f40b818c03a0eed60d85fe9a473df67ecb631b97ab5db59c9a60809c9a98169081620019ab575b5050620019406005870193620019398c8662002ee4565b8462002efd565b60078601805463ffffffff60a01b191660a09290921b63ffffffff60a01b16919091179055565b60c43560068201556009429101555416956200198760405180946200287d565b62001992816200288b565b60208301526040820152426060820152a3600160025580f35b6001600160a01b031916178755388062001922565b6040516303a2a05160e11b8152600481018b9052336024820152604490fd5b60405163f708dfa760e01b815260048101899052602490fd5b8780fd5b8480fd5b50346200027a5760403660031901126200027a5760043562001a2162002707565b9062001a2c62002f67565b62001a3662002e92565b80835260209060078252604084209260018060a01b03926001948486820154161562000b6657838752600a82528560ff60408920541662001a77816200288b565b0362001cb25760058101549260ff8460081c1662001a95816200288b565b600281148062001ca1575b62001c825763ffffffff600784015460a01c168015158062001c6c575b62001c4e57508062001ad089926200288b565b0362001c46576002915b60ff899560101c1662001aed816200288b565b15158062001c38575b62001c2b575b508460005260088352604060002095811695866000528352866040600020015462001c015750836000526009825262001b3a85604060002062003070565b506040519262001b4a846200277c565b62001b56828562003210565b82840192428452604085019482865260608101600081526080820160008152886000526008845260406000208a6000528452604060002092519160068310156200149c577f339e6f1051e81b2167f634edf22c19afc661b87cc385ead8aae7e6863548a4109860609862001bcd60049587620031f7565b518d8601555160028501555160038401555191015562001bf1604051809462002896565b820152426040820152a360025580f35b60405163392d9d8360e11b8152600481018690526001600160a01b03919091166024820152604490fd5b6006015493503862001afc565b506006810154151562001af6565b869162001ada565b866044916040519163ab1b44b760e01b835260048301526024820152fd5b50868a52600985528060408b2054101562001abd565b6040516303a2a05160e11b815260048101879052336024820152604490fd5b508660028401541633141562001aa0565b604051633aeb474b60e01b815260048101859052602490fd5b50346200027a57806003193601126200027a5762001ce8620028a4565b60ff60035460a01c1615620003ff5760015460ff811615620017fe5760ff19166001557f5db9ee0a495bf2e6ff9c91a7834c1ba4fdd244a5e8aa4e537bd38aeae4b073aa6020604051338152a180f35b50346200027a57806003193601126200027a57602060ff60035460a01c166040519015158152f35b50346200027a5760403660031901126200027a5762001d7e62002707565b336001600160a01b0382160362001d9d57620004689060043562002bee565b60405162461bcd60e51b815260206004820152602f60248201527f416363657373436f6e74726f6c3a2063616e206f6e6c792072656e6f756e636560448201526e103937b632b9903337b91039b2b63360891b6064820152608490fd5b50346200027a5760403660031901126200027a57600435602435600381101562000b0a5762001e28620028a4565b81835260076020526040832060018101549091906001600160a01b03161562001f1a577f0964d0ff1c915ba70deedb74119ea25ab58a9eeb937d43f985e28cdab434e97c91606091848652600a60205262001ea9816007604089209485549560ff87169662001e97856200288b565b60ff191660ff85161790550162002f41565b62001eb4826200288b565b818652600d60205262001ecb8560408820620030fa565b5062001ed7816200288b565b808652600d60205262001eee856040882062003070565b506040519162001efe816200288b565b825262001f0b816200288b565b6020820152426040820152a280f35b60405163f708dfa760e01b815260048101849052602490fd5b50346200027a5760403660031901126200027a5760043562001f5462002707565b8183528260205262001f6d600160408520015462002ad1565b81600052600060205260406000209060018060a01b0316908160005260205260ff604060002054161562001f9f578280f35b8160005260006020526040600020816000526020526040600020600160ff1982541617905533917f2f8788117e7eff1d82e926ec794901d17c78024a50270940304540a733656f0d600080a438808280f35b50346200027a5760203660031901126200027a57600160406020926004358152808452200154604051908152f35b50346200027a5760203660031901126200027a57806040916101a0835162002047816200275f565b8281528260208201528285820152606080820152606060808201528260a08201528260c08201528260e0820152826101008201528261012082015282610140820152826101608201528261018082015201526004358152600760205220600960405191620020b5836200275f565b8054835260018101546001600160a01b0390811660208501526002820154166040840152620020e76003820162002de0565b6060840152620020fa6004820162002de0565b608084015260ff60058201546200211782821660a0870162002ed7565b818160081c1662002128816200288b565b60c086015260101c166200213c816200288b565b60e0840152600681015461010084015260078101546001600160a01b03811661012085015260a081901c63ffffffff1661014085015260ff906200218660c082901c83166200288b565b60c01c16610160840152600881015461018084015201546101a08201526040518091602082528051602083015260018060a01b03602082015116604083015260018060a01b0360408201511660608301526101a062002212620021fb60608401516101c060808701526101e086019062002856565b6080840151858203601f190160a087015262002856565b916200222760a082015160c08601906200287d565b60c081015162002237816200288b565b60e085015260e08101516200224c816200288b565b61010085015261010081015161012085015260018060a01b036101208201511661014085015263ffffffff6101408201511661016085015261016081015162002295816200288b565b6101808501526101808101518285015201516101c08301520390f35b50346200027a5760a03660031901126200027a57600435620022d262002707565b906044356001600160a01b038181169291839003620019fc576064356084356001600160401b038111620024795762002310903690600401620027d6565b916200231b62002f67565b6200232562002e92565b838752600760205260408720816001820154161562002460578160028201541633036200244157816007899201541696873b1562000639576040519283916311799dc960e21b83521697886004830152876024830152846044830152608060648301528183816200239a608482018a62002856565b03925af180156200243657620023fe575b50907f1a30243129fb6bc49485c6d9dbbf494656057845799b7ab9ba971352ea0bf14d91620023ed604051928392835260606020840152606083019062002856565b4260408301520390a4600160025580f35b956200242d7f1a30243129fb6bc49485c6d9dbbf494656057845799b7ab9ba971352ea0bf14d93929762002735565b959091620023ab565b6040513d89823e3d90fd5b6040516303a2a05160e11b815260048101869052336024820152604490fd5b60405163f708dfa760e01b815260048101869052602490fd5b8680fd5b50346200027a5760603660031901126200027a576004356200249e62002707565b9060443591600683101562000afb57620024b762002f67565b620024c162002e92565b81845260076020526040842060018101549093906001600160a01b039081161562000b6657838652600860205260408620948184169586885260205260408720936001850154156200257d57506002015416330362000b0e57816200256e826200255460609460ff7fa0bb32fce8b7cb6c25ff2a9b338c0e52c38d780f32fb9d786289fbe2d929a1f797541694620031f7565b62002563604051809462002896565b602083019062002896565b426040820152a3600160025580f35b604051630308532560e21b8152600481018790526001600160a01b03919091166024820152604490fd5b50346200027a5760603660031901126200027a57602090620025c862002707565b6004358252600e8352604082209060018060a01b031682528252604060443591205414604051908152f35b50346200027a57806003193601126200027a57604051600b80548083529083526020808301937f0175b7a638427703f0dbe7bb9bbf987a2551717b34e79f33b5b1008d1fa01db992915b828210620026585762000735856200072881890382620027b4565b8354865294850194600193840193909101906200263d565b90503462000639576020366003190112620006395760043563ffffffff60e01b811680910362000b0a5760209250637965db0b60e01b8114908115620026b8575b5015158152f35b6301ffc9a760e01b14905038620026b1565b6020908160408183019282815285518094520193019160005b828110620026f2575050505090565b835185529381019392810192600101620026e3565b602435906001600160a01b03821682036200178557565b600435906001600160a01b03821682036200178557565b6001600160401b0381116200274957604052565b634e487b7160e01b600052604160045260246000fd5b6101c081019081106001600160401b038211176200274957604052565b60a081019081106001600160401b038211176200274957604052565b608081019081106001600160401b038211176200274957604052565b90601f801991011681019081106001600160401b038211176200274957604052565b81601f8201121562001785578035906001600160401b0382116200274957604051926200280e601f8401601f191660200185620027b4565b828452602083830101116200178557816000926020809301838601378301015290565b60005b838110620028455750506000910152565b818101518382015260200162002834565b90602091620028718151809281855285808601910162002831565b601f01601f1916010190565b9060048210156200149c5752565b600311156200149c57565b9060068210156200149c5752565b3360009081527f7d7ffb7a348e1c6a02869081a26547b49160dd3df72d1d75a570eb9b698292ec602090815260408083205490927fa49807205ce4d355092ef5a8a18f56e8913cf4a201fbe287825b095693c217759160ff1615620029095750505050565b620029143362002c8b565b91845190620029238262002798565b6042825284820192606036853782511562002abd576030845382519060019182101562002abd5790607860218501536041915b81831162002a4a5750505062002a0857604862000b2d938693620029eb93620029db985198899376020b1b1b2b9b9a1b7b73a3937b61d1030b1b1b7bab73a1604d1b8a860152620029b1815180928c60378901910162002831565b8401917001034b99036b4b9b9b4b733903937b6329607d1b60378401525180938684019062002831565b01036028810187520185620027b4565b5192839262461bcd60e51b84526004840152602483019062002856565b60648486519062461bcd60e51b825280600483015260248201527f537472696e67733a20686578206c656e67746820696e73756666696369656e746044820152fd5b909192600f8116601081101562002aa9576f181899199a1a9b1b9c1cb0b131b232b360811b901a62002a7d858762002c63565b5360041c92801562002a955760001901919062002956565b634e487b7160e01b82526011600452602482fd5b634e487b7160e01b83526032600452602483fd5b634e487b7160e01b81526032600452602490fd5b600090808252602090828252604092838120338252835260ff84822054161562002afb5750505050565b62002b063362002c8b565b9184519062002b158262002798565b6042825284820192606036853782511562002abd576030845382519060019182101562002abd5790607860218501536041915b81831162002ba35750505062002a0857604862000b2d938693620029eb93620029db985198899376020b1b1b2b9b9a1b7b73a3937b61d1030b1b1b7bab73a1604d1b8a860152620029b1815180928c60378901910162002831565b909192600f8116601081101562002aa9576f181899199a1a9b1b9c1cb0b131b232b360811b901a62002bd6858762002c63565b5360041c92801562002a955760001901919062002b48565b9060009180835282602052604083209160018060a01b03169182845260205260ff60408420541662002c1f57505050565b80835282602052604083208284526020526040832060ff1981541690557ff6391f5c32d9c69d2a47ea670b442974b53935d1edc7fd64eb21e047a839171b339380a4565b90815181101562002c75570160200190565b634e487b7160e01b600052603260045260246000fd5b60405190606082018281106001600160401b038211176200274957604052602a825260208201604036823782511562002c755760309053815160019081101562002c7557607860218401536029905b80821162002d3057505062002cec5790565b606460405162461bcd60e51b815260206004820152602060248201527f537472696e67733a20686578206c656e67746820696e73756666696369656e746044820152fd5b9091600f8116601081101562002d8e576f181899199a1a9b1b9c1cb0b131b232b360811b901a62002d62848662002c63565b5360041c91801562002d7957600019019062002cda565b60246000634e487b7160e01b81526011600452fd5b60246000634e487b7160e01b81526032600452fd5b90600182811c9216801562002dd5575b602083101462002dbf57565b634e487b7160e01b600052602260045260246000fd5b91607f169162002db3565b906040519182600082549262002df68462002da3565b90818452600194858116908160001462002e6d575060011462002e26575b505062002e2492500383620027b4565b565b9093915060005260209081600020936000915b81831062002e5457505062002e249350820101388062002e14565b8554888401850152948501948794509183019162002e39565b91505062002e2494506020925060ff191682840152151560051b820101388062002e14565b60ff6001541662002e9f57565b60405162461bcd60e51b815260206004820152601060248201526f14185d5cd8589b194e881c185d5cd95960821b6044820152606490fd5b60048210156200149c5752565b9060048110156200149c5760ff80198354169116179055565b9062002f09816200288b565b61ff0082549160081b169061ff001916179055565b9062002f2a816200288b565b62ff000082549160101b169062ff00001916179055565b9062002f4d816200288b565b815460ff60c01b191660c09190911b60ff60c01b16179055565b600280541462002f775760028055565b60405162461bcd60e51b815260206004820152601f60248201527f5265656e7472616e637947756172643a207265656e7472616e742063616c6c006044820152606490fd5b805482101562002c755760005260206000200190600090565b6000818152600c60205260408120546200306b57600b54600160401b81101562003057576001810180600b55811015620030435790826040927f0175b7a638427703f0dbe7bb9bbf987a2551717b34e79f33b5b1008d1fa01db90155600b54928152600c6020522055600190565b634e487b7160e01b82526032600452602482fd5b634e487b7160e01b82526041600452602482fd5b905090565b91906001830160009082825280602052604082205415600014620030f457845494600160401b861015620030e05783620030d0620030b9886001604098999a0185558462002fbc565b819391549060031b91821b91600019901b19161790565b9055549382526020522055600190565b634e487b7160e01b83526041600452602483fd5b50925050565b90600182019060009281845282602052604084205490811515600014620031f05760001991808301818111620031dc57825490848201918211620031c8578082036200318d575b5050508054801562003179578201916200315c838362002fbc565b909182549160031b1b191690555582526020526040812055600190565b634e487b7160e01b86526031600452602486fd5b620031b2620031a1620030b9938662002fbc565b90549060031b1c9283928662002fbc565b9055865284602052604086205538808062003141565b634e487b7160e01b88526011600452602488fd5b634e487b7160e01b87526011600452602487fd5b5050505090565b9060068110156200149c5760ff80198354169116179055565b60068210156200149c5752565b600091818352602090600782526040808520928151926200323e846200275f565b8454845260018501546001600160a01b0390811683860190815260028701548216858701528190620032736003890162002de0565b6060880152620032866004890162002de0565b608088015260ff6005890154620032a382821660a08b0162002ed7565b818160081c16620032b4816200288b565b60c08a015260101c16620032c8816200288b565b60e088015260068801546101008801526007880154968288166101208201526101a0600961014083019a60ff63ffffffff9b8d8d8260a01c16905260c01c1662003312816200288b565b61016085015260088101546101808501520154910152511615620033b157868852600a8352600160ff858a2054166200334b816200288b565b03620033b1578688526008835283882091168752815260018287200154620033a95782845116151594856200338e575b50505050506200338b5750600190565b90565b8652600990528420549151161115905038808080806200337b565b505050505090565b5050505050505090565b9060405191828154918282526020928383019160005283600020936000905b828210620033f35750505062002e2492500383620027b4565b855484526001958601958895509381019390910190620033da56fe60c034620002e857601f62001fea38819003918201601f191683019291906001600160401b03841183851017620002ed578160609284926040968752833981010312620002e857805190602062000065846200005d83850162000303565b930162000303565b60018080556002805460ff199081169091556001600160a01b038086169591938615620002a45716958615620002705760805260a052600094858052858452868620818752845260ff8787205416156200023b575b7fa49807205ce4d355092ef5a8a18f56e8913cf4a201fbe287825b095693c2177590818752868552878720818852855260ff88882054161562000205575b50507f7434c6f201a551bfd17336985361933e0c4935b520dac8a49d937b325f7d5c0a808652858452868620858752845260ff878720541615620001cf575b507f8f4f2da22e8ac8f11e15f9fc141cddbb5deea8800186560abb6e68c5496619a992838652858152868620858752815260ff87872054161562000197575b8651611cb19081620003198239608051816105be015260a05181610ac90152f35b83865285815286862090858752528585209182541617905560008051602062001fca833981519152339380a438808080808062000176565b8086528584528686208587528452868620828482541617905584339160008051602062001fca8339815191528880a43862000137565b81875286855287872081885285528787208385825416179055339160008051602062001fca8339815191528880a43880620000f8565b8580528584528686208187528452868620828482541617905533818760008051602062001fca8339815191528180a4620000ba565b875162461bcd60e51b815260048101869052600d60248201526c24b73b30b634b21030b236b4b760991b6044820152606490fd5b885162461bcd60e51b815260048101879052601660248201527f496e76616c696420636f6e74726f6c206d6f64756c65000000000000000000006044820152606490fd5b600080fd5b634e487b7160e01b600052604160045260246000fd5b51906001600160a01b0382168203620002e85756fe608060408181526004918236101561001657600080fd5b600092833560e01c91826301ffc9a71461110e57508163248a9ca3146110e45781632f2ff15d1461103b57816336568abe14610fa95781633f4ba83a14610f1357816345e6772414610b3057816347a1074814610af8578163536ce92d14610ab45781635c975abb14610a905781635fa7b5841461090f57816372c16a24146108d457816375151b631461089657816375b238fc1461085b5781638456cb591461080057816391d14854146107ba578163a217fddf1461079f578163a3b0b5a314610764578163a85e35de1461072f578163bfe07da6146105e1578163c471dc3a146105a6578163c9a815bd14610530578163caa648b41461044d578163d3c7c2c714610418578163d48bfca71461030e578163d547741f146102d0578163e63ea40814610188575063f8b2cb4f1461014e57600080fd5b346101845760203660031901126101845760209181906001600160a01b0361017461117c565b1681526003845220549051908152f35b5080fd5b9050346102cc5760603660031901126102cc576101a361117c565b906101ac611161565b92604435936101b961184c565b6101c1611286565b84156102be576001600160a01b03818116949085156102ae57811693848852600360205283882054878110610278575050508461021691848852600360205283882061020e8382546117d9565b905584611a65565b8051938452606060208501526014606085015273115b595c99d95b98de481dda5d1a191c985dd85b60621b608085015242908401527f6b660b41e4e88f1cb58ddfa149465e22095f2db46104f1189ab4fb13df56593360a03394a46001805580f35b845163db42144d60e01b81526001600160a01b0390931691830191825260208201889052604082015281906060010390fd5b0390fd5b5050505163d92e233d60e01b8152fd5b5051631f2a200560e01b8152fd5b8280fd5b919050346102cc57806003193601126102cc5761030b913561030660016102f5611161565b938387528660205286200154611474565b6115c6565b80f35b8383346101845760203660031901126101845761032961117c565b90610332611286565b6001600160a01b03821691821561040857828452600560205260ff82852054166103f1578284526005602052818420805460ff191660011790558454680100000000000000008110156103de57916103d66020926103b7858960017ff4c563a3ea86ff1f4275e8c207df0375a51963f2b831b7bf4da8be938d92876c98019055611793565b90919082549060031b9160018060a01b03809116831b921b1916179055565b51428152a280f35b634e487b7160e01b855260418652602485fd5b8151632efbf13f60e21b8152808601849052602490fd5b815163d92e233d60e01b81528590fd5b50503461018457816003193601126101845761044990610436611ab7565b9051918291602083526020830190611249565b0390f35b82843461052d578060031936011261052d57610467611ab7565b9182519061048c61047783611c4f565b92610484835194856111c4565b808452611c4f565b60208381019491601f1901368637815b86518110156104dc576104d7906001600160a01b036104bb828a611c67565b5116845260038352848420546104d18288611c67565b526117ca565b61049c565b509392909193806104f68651978789988952880190611249565b928684038288015251928381520193925b82811061051657505050500390f35b835185528695509381019392810192600101610507565b80fd5b5050346101845780600319360112610184577f3bd32c0f6f623f7e2423f76f4b251ace080cdb1aff9a2a4b12d8b8d8c9178b56606061056d61117c565b60243590610579611286565b60018060a01b0316938486526006602052808620918083549355815192835260208301524290820152a280f35b505034610184578160031936011261018457602090517f00000000000000000000000000000000000000000000000000000000000000008152f35b9050346102cc5760603660031901126102cc576105fc61117c565b91602435906044359267ffffffffffffffff9384811161072b576106239036908301611202565b9461062c61184c565b610634611808565b831561071c576001600160a01b031680875260056020528287205490949060ff16156107065782516323b872dd60e01b6020820152336024820152306044820152606480820186905281529160a08301918211838310176106f35750916106c37f225ff215a128c3b90e7d9a02531a87177de9e30a3ca726ecb9ce3de0a14f939494926106e9948352866118a2565b84875260036020528087206106d983825461163a565b90555191829133964291846117e6565b0390a36001805580f35b634e487b7160e01b885260419052602487fd5b508360249251916306439c6b60e01b8352820152fd5b509051631f2a200560e01b8152fd5b8680fd5b50503461018457806003193601126101845760209061075d61074f61117c565b610757611161565b90611b2d565b9051908152f35b505034610184578160031936011261018457602090517f8f4f2da22e8ac8f11e15f9fc141cddbb5deea8800186560abb6e68c5496619a98152f35b50503461018457816003193601126101845751908152602090f35b9050346102cc57816003193601126102cc578160209360ff926107db611161565b903582528186528282206001600160a01b039091168252855220549151911615158152f35b50503461018457816003193601126101845760207f62e78cea01bee320cd4e420270b5ea74000d11b0c9f74754ebdbfc544b05a2589161083e611286565b610846611808565b600160ff19600254161760025551338152a180f35b505034610184578160031936011261018457602090517fa49807205ce4d355092ef5a8a18f56e8913cf4a201fbe287825b095693c217758152f35b5050346101845760203660031901126101845760209160ff9082906001600160a01b036108c161117c565b1681526005855220541690519015158152f35b505034610184578160031936011261018457602090517f7434c6f201a551bfd17336985361933e0c4935b520dac8a49d937b325f7d5c0a8152f35b82843461052d57602036600319011261052d5761092a61117c565b91610933611286565b6001600160a01b0392831680835260056020528183205490919060ff1615610a79578183526005602052808320805460ff19169055825b855480821015610a495785908461098084611793565b939054600394851b1c161461099f57505061099a906117ca565b61096a565b90929394959160001991828101908111610a3657906103b7846109c46109d194611793565b905490881b1c1691611793565b86548015610a2357917fbe9bb4bdca0a094babd75e3a98b1d2e2390633430d0a2f6e2b9970e2ee03fb2e9596979160209594930192610a0f84611793565b81939154921b1b191690555551428152a280f35b634e487b7160e01b875260318852602487fd5b634e487b7160e01b885260118952602488fd5b50507fbe9bb4bdca0a094babd75e3a98b1d2e2390633430d0a2f6e2b9970e2ee03fb2e92945060209193506103d6565b516306439c6b60e01b815280850191909152602490fd5b50503461018457816003193601126101845760209060ff6002541690519015158152f35b505034610184578160031936011261018457517f00000000000000000000000000000000000000000000000000000000000000006001600160a01b03168152602090f35b5050346101845760203660031901126101845760209181906001600160a01b03610b2061117c565b1681526006845220549051908152f35b9050346102cc5760803660031901126102cc57610b4b61117c565b90610b54611161565b926044359060643567ffffffffffffffff811161072b57610b789036908501611202565b94610b8161184c565b610b89611808565b7f7434c6f201a551bfd17336985361933e0c4935b520dac8a49d937b325f7d5c0a90818852602091888352838920338a52835260ff848a20541615610d4e57508315610d3e576001600160a01b0381811696908715610d2e57811695868a526005845260ff858b20541615610d1757868a5260038452848a2054868110610ce557505091610c6085610cae9593610c43827f6b660b41e4e88f1cb58ddfa149465e22095f2db46104f1189ab4fb13df565933999733611b7e565b888c5260038452848c20610c588382546117d9565b905588611a65565b620151804204338a5260088252828a20878b52825280838b205403610cb8575b503389526007815281892090868a5252808820610c9e83825461163a565b90555191829133974291846117e6565b0390a46001805580f35b338a5260078252828a20878b5282528983812055338a5260088252828a20878b528252828a205538610c80565b855163db42144d60e01b81526001600160a01b0390931691830191825260208201879052604082015281906060010390fd5b84516306439c6b60e01b8152908101879052602490fd5b845163d92e233d60e01b81528790fd5b8251631f2a200560e01b81528590fd5b858484928b610d5c33611684565b91835190610d6982611192565b60428252868201926060368537825115610f005760308453825190600191821015610eed5790607860218501536041915b818311610e8257505050610e41576048610e18938593610e27936102aa975196879376020b1b1b2b9b9a1b7b73a3937b61d1030b1b1b7bab73a1604d1b8c860152610def8c825192839160378901910161157e565b8401917001034b99036b4b9b9b4b733903937b6329607d1b60378401525180938684019061157e565b010360288101855201836111c4565b5193849362461bcd60e51b855284015260248301906115a1565b606485878087519262461bcd60e51b845283015260248201527f537472696e67733a20686578206c656e67746820696e73756666696369656e746044820152fd5b909192600f81166010811015610eda576f181899199a1a9b1b9c1cb0b131b232b360811b901a610eb2858761165d565b53881c928015610ec757600019019190610d9a565b634e487b7160e01b825260118952602482fd5b634e487b7160e01b835260328a52602483fd5b634e487b7160e01b815260328852602490fd5b634e487b7160e01b815260328752602490fd5b9050346102cc57826003193601126102cc57610f2d611286565b6002549060ff821615610f6f575060ff1916600255513381527f5db9ee0a495bf2e6ff9c91a7834c1ba4fdd244a5e8aa4e537bd38aeae4b073aa90602090a180f35b606490602084519162461bcd60e51b8352820152601460248201527314185d5cd8589b194e881b9bdd081c185d5cd95960621b6044820152fd5b83915034610184578260031936011261018457610fc4611161565b90336001600160a01b03831603610fe0579061030b91356115c6565b608490602085519162461bcd60e51b8352820152602f60248201527f416363657373436f6e74726f6c3a2063616e206f6e6c792072656e6f756e636560448201526e103937b632b9903337b91039b2b63360891b6064820152fd5b9050346102cc57816003193601126102cc573590611057611161565b908284528360205261106e60018286200154611474565b82845260208481528185206001600160a01b039093168086529290528084205460ff161561109a578380f35b828452836020528084208285526020528320600160ff1982541617905533917f2f8788117e7eff1d82e926ec794901d17c78024a50270940304540a733656f0d8480a43880808380f35b9050346102cc5760203660031901126102cc57816020936001923581528085522001549051908152f35b8491346102cc5760203660031901126102cc573563ffffffff60e01b81168091036102cc5760209250637965db0b60e01b8114908115611150575b5015158152f35b6301ffc9a760e01b14905083611149565b602435906001600160a01b038216820361117757565b600080fd5b600435906001600160a01b038216820361117757565b6080810190811067ffffffffffffffff8211176111ae57604052565b634e487b7160e01b600052604160045260246000fd5b90601f8019910116810190811067ffffffffffffffff8211176111ae57604052565b67ffffffffffffffff81116111ae57601f01601f191660200190565b81601f8201121561117757803590611219826111e6565b9261122760405194856111c4565b8284526020838301011161117757816000926020809301838601378301015290565b90815180825260208080930193019160005b828110611269575050505090565b83516001600160a01b03168552938101939281019260010161125b565b3360009081527f7d7ffb7a348e1c6a02869081a26547b49160dd3df72d1d75a570eb9b698292ec602090815260408083205490927fa49807205ce4d355092ef5a8a18f56e8913cf4a201fbe287825b095693c217759160ff16156112ea5750505050565b6112f333611684565b9184519061130082611192565b6042825284820192606036853782511561146057603084538251906001918210156114605790607860218501536041915b8183116113f2575050506113b05760486102aa93869361139493611385985198899376020b1b1b2b9b9a1b7b73a3937b61d1030b1b1b7bab73a1604d1b8a860152610def815180928c60378901910161157e565b010360288101875201856111c4565b5192839262461bcd60e51b8452600484015260248301906115a1565b60648486519062461bcd60e51b825280600483015260248201527f537472696e67733a20686578206c656e67746820696e73756666696369656e746044820152fd5b909192600f8116601081101561144c576f181899199a1a9b1b9c1cb0b131b232b360811b901a611422858761165d565b5360041c92801561143857600019019190611331565b634e487b7160e01b82526011600452602482fd5b634e487b7160e01b83526032600452602483fd5b634e487b7160e01b81526032600452602490fd5b600090808252602090828252604092838120338252835260ff84822054161561149d5750505050565b6114a633611684565b918451906114b382611192565b6042825284820192606036853782511561146057603084538251906001918210156114605790607860218501536041915b818311611538575050506113b05760486102aa93869361139493611385985198899376020b1b1b2b9b9a1b7b73a3937b61d1030b1b1b7bab73a1604d1b8a860152610def815180928c60378901910161157e565b909192600f8116601081101561144c576f181899199a1a9b1b9c1cb0b131b232b360811b901a611568858761165d565b5360041c928015611438576000190191906114e4565b60005b8381106115915750506000910152565b8181015183820152602001611581565b906020916115ba8151809281855285808601910161157e565b601f01601f1916010190565b9060009180835282602052604083209160018060a01b03169182845260205260ff6040842054166115f657505050565b80835282602052604083208284526020526040832060ff1981541690557ff6391f5c32d9c69d2a47ea670b442974b53935d1edc7fd64eb21e047a839171b339380a4565b9190820180921161164757565b634e487b7160e01b600052601160045260246000fd5b90815181101561166e570160200190565b634e487b7160e01b600052603260045260246000fd5b604051906060820182811067ffffffffffffffff8211176111ae57604052602a825260208201604036823782511561166e5760309053815160019081101561166e57607860218401536029905b8082116117255750506116e15790565b606460405162461bcd60e51b815260206004820152602060248201527f537472696e67733a20686578206c656e67746820696e73756666696369656e746044820152fd5b9091600f8116601081101561177e576f181899199a1a9b1b9c1cb0b131b232b360811b901a611754848661165d565b5360041c9180156117695760001901906116d1565b60246000634e487b7160e01b81526011600452fd5b60246000634e487b7160e01b81526032600452fd5b60045481101561166e5760046000527f8a35acfbc15ff81a39ae7d344fd709f28e8600b4aa8c65c6b64bfe7fe36bd19b0190600090565b60001981146116475760010190565b9190820391821161164757565b9392916118039060409286526060602087015260608601906115a1565b930152565b60ff6002541661181457565b60405162461bcd60e51b815260206004820152601060248201526f14185d5cd8589b194e881c185d5cd95960821b6044820152606490fd5b60026001541461185d576002600155565b60405162461bcd60e51b815260206004820152601f60248201527f5265656e7472616e637947756172643a207265656e7472616e742063616c6c006044820152606490fd5b60018060a01b031690604051604081019080821067ffffffffffffffff8311176111ae57611932916040526020938482527f5361666545524332303a206c6f772d6c6576656c2063616c6c206661696c6564858301526000808587829751910182855af13d156119c8573d91611917836111e6565b9261192560405194856111c4565b83523d868885013e6119cc565b8051918215918483156119a4575b50505090501561194d5750565b6084906040519062461bcd60e51b82526004820152602a60248201527f5361666545524332303a204552433230206f7065726174696f6e20646964206e6044820152691bdd081cdd58d8d9595960b21b6064820152fd5b9193818094500103126101845782015190811515820361052d575080388084611940565b6060915b91929015611a2e57508151156119e0575090565b3b156119e95790565b60405162461bcd60e51b815260206004820152601d60248201527f416464726573733a2063616c6c20746f206e6f6e2d636f6e74726163740000006044820152606490fd5b825190915015611a415750805190602001fd5b60405162461bcd60e51b8152602060048201529081906102aa9060248301906115a1565b60405163a9059cbb60e01b60208201526001600160a01b039092166024830152604480830193909352918152608081019167ffffffffffffffff8311828410176111ae57611ab5926040526118a2565b565b60405190600454808352826020918282019060046000527f8a35acfbc15ff81a39ae7d344fd709f28e8600b4aa8c65c6b64bfe7fe36bd19b936000905b828210611b0a57505050611ab5925003836111c4565b85546001600160a01b031684526001958601958895509381019390910190611af4565b60018060a01b0380911691600091838352600860205260408320911690818352602052620151804204604083205403611b785760409282526007602052828220908252602052205490565b50905090565b60018060a01b039283831691600094838652600660205260409586812054948515611c4557879282941680835260086020528383208284526020526201518042048484205414611c28575b5050505082611bd8838361163a565b11611be4575050505050565b6102aa9291611bf29161163a565b93516384bb52cf60e01b81526001600160a01b039093166004840152602483019390935260448201929092529081906064820190565b825260076020908152838320918352522054905084388080611bc9565b5050505050505050565b67ffffffffffffffff81116111ae5760051b60200190565b805182101561166e5760209160051b01019056fea26469706673582212202d5e59bcbe3c21efa3186766c31045f994f34489066dcf6164b0e0d4c0eb159564736f6c634300081400332f8788117e7eff1d82e926ec794901d17c78024a50270940304540a733656f0da26469706673582212206e4da1443a1dd27dd2bec7a882d38533ef804bf7d3e711ff80e7d3cbb91950fe64736f6c634300081400332f8788117e7eff1d82e926ec794901d17c78024a50270940304540a733656f0d","opcodes":"PUSH1 0x80 CALLVALUE PUSH3 0x1D0 JUMPI PUSH1 0x40 SWAP1 DUP1 DUP3 ADD PUSH1 0x1 PUSH1 0x1 PUSH1 0x40 SHL SUB DUP2 GT DUP3 DUP3 LT OR PUSH3 0x1BA JUMPI DUP3 MSTORE PUSH1 0x5 DUP2 MSTORE PUSH1 0x20 DUP1 SWAP2 ADD PUSH5 0x312E302E3 PUSH1 0xDC SHL DUP2 MSTORE PUSH1 0xFF NOT SWAP1 PUSH1 0x1 SWAP1 DUP3 DUP3 SLOAD AND DUP3 SSTORE DUP2 PUSH1 0x2 SSTORE PUSH1 0x4 SLOAD DUP3 DUP2 DUP2 SHR SWAP2 AND DUP1 ISZERO PUSH3 0x1AF JUMPI JUMPDEST DUP6 DUP3 LT EQ PUSH3 0x199 JUMPI PUSH1 0x1F DUP2 GT PUSH3 0x167 JUMPI JUMPDEST POP MLOAD PUSH1 0x1 PUSH1 0x1 PUSH1 0xD8 SHL SUB NOT AND PUSH1 0xA OR PUSH1 0x4 SSTORE PUSH1 0x0 DUP1 DUP1 MSTORE DUP1 DUP5 MSTORE DUP5 DUP2 KECCAK256 CALLER DUP3 MSTORE DUP5 MSTORE DUP5 SWAP1 KECCAK256 SLOAD PUSH1 0xFF AND ISZERO PUSH3 0x12C JUMPI JUMPDEST PUSH32 0xA49807205CE4D355092EF5A8A18F56E8913CF4A201FBE287825B095693C21775 SWAP3 DUP4 PUSH1 0x0 MSTORE PUSH1 0x0 DUP2 MSTORE DUP5 PUSH1 0x0 KECCAK256 CALLER PUSH1 0x0 MSTORE DUP2 MSTORE PUSH1 0xFF DUP6 PUSH1 0x0 KECCAK256 SLOAD AND ISZERO PUSH3 0xED JUMPI JUMPDEST DUP5 MLOAD PUSH2 0x542E SWAP1 DUP2 PUSH3 0x1D6 DUP3 CODECOPY RETURN JUMPDEST DUP4 PUSH1 0x0 MSTORE PUSH1 0x0 DUP2 MSTORE DUP5 PUSH1 0x0 KECCAK256 SWAP1 CALLER PUSH1 0x0 MSTORE MSTORE DUP4 PUSH1 0x0 KECCAK256 SWAP2 DUP3 SLOAD AND OR SWAP1 SSTORE CALLER SWAP1 CALLER SWAP1 PUSH1 0x0 DUP1 MLOAD PUSH1 0x20 PUSH3 0x5604 DUP4 CODECOPY DUP2 MLOAD SWAP2 MSTORE PUSH1 0x0 DUP1 LOG4 CODESIZE DUP1 DUP1 DUP1 PUSH3 0xDE JUMP JUMPDEST PUSH1 0x0 DUP1 MSTORE PUSH1 0x0 DUP4 MSTORE DUP4 PUSH1 0x0 KECCAK256 CALLER PUSH1 0x0 MSTORE DUP4 MSTORE DUP4 PUSH1 0x0 KECCAK256 DUP2 DUP4 DUP3 SLOAD AND OR SWAP1 SSTORE CALLER CALLER PUSH1 0x0 PUSH1 0x0 DUP1 MLOAD PUSH1 0x20 PUSH3 0x5604 DUP4 CODECOPY DUP2 MLOAD SWAP2 MSTORE DUP2 DUP1 LOG4 PUSH3 0x9B JUMP JUMPDEST PUSH1 0x4 PUSH1 0x0 MSTORE DUP3 PUSH1 0x1F DUP7 PUSH1 0x0 KECCAK256 SWAP3 ADD PUSH1 0x5 SHR DUP3 ADD SWAP2 JUMPDEST DUP3 DUP2 LT PUSH3 0x18C JUMPI POP POP PUSH3 0x6B JUMP JUMPDEST PUSH1 0x0 DUP2 SSTORE ADD DUP4 SWAP1 PUSH3 0x17C JUMP JUMPDEST PUSH4 0x4E487B71 PUSH1 0xE0 SHL PUSH1 0x0 MSTORE PUSH1 0x22 PUSH1 0x4 MSTORE PUSH1 0x24 PUSH1 0x0 REVERT JUMPDEST SWAP1 PUSH1 0x7F AND SWAP1 PUSH3 0x58 JUMP JUMPDEST PUSH4 0x4E487B71 PUSH1 0xE0 SHL PUSH1 0x0 MSTORE PUSH1 0x41 PUSH1 0x4 MSTORE PUSH1 0x24 PUSH1 0x0 REVERT JUMPDEST PUSH1 0x0 DUP1 REVERT INVALID PUSH1 0x80 DUP1 PUSH1 0x40 MSTORE PUSH1 0x4 CALLDATASIZE LT ISZERO PUSH3 0x14 JUMPI PUSH1 0x0 DUP1 REVERT JUMPDEST PUSH1 0x0 SWAP1 DUP2 CALLDATALOAD PUSH1 0xE0 SHR SWAP1 DUP2 PUSH4 0x1FFC9A7 EQ PUSH3 0x2670 JUMPI POP DUP1 PUSH4 0x86ED938 EQ PUSH3 0x25F3 JUMPI DUP1 PUSH4 0x89D0B0C EQ PUSH3 0x25A7 JUMPI DUP1 PUSH4 0x97E2E3D EQ PUSH3 0x247D JUMPI DUP1 PUSH4 0x200224B4 EQ PUSH3 0x22B1 JUMPI DUP1 PUSH4 0x22B3CD4E EQ PUSH3 0x201F JUMPI DUP1 PUSH4 0x248A9CA3 EQ PUSH3 0x1FF1 JUMPI DUP1 PUSH4 0x2F2FF15D EQ PUSH3 0x1F33 JUMPI DUP1 PUSH4 0x2F645C60 EQ PUSH3 0x1DFA JUMPI DUP1 PUSH4 0x36568ABE EQ PUSH3 0x1D60 JUMPI DUP1 PUSH4 0x392E53CD EQ PUSH3 0x1D38 JUMPI DUP1 PUSH4 0x3F4BA83A EQ PUSH3 0x1CCB JUMPI DUP1 PUSH4 0x4092E2C2 EQ PUSH3 0x1A00 JUMPI DUP1 PUSH4 0x49D07F1D EQ PUSH3 0x183A JUMPI DUP1 PUSH4 0x4A4E3BD5 EQ PUSH3 0x178A JUMPI DUP1 PUSH4 0x4E42DD9F EQ PUSH3 0xEDC JUMPI DUP1 PUSH4 0x51858E27 EQ PUSH3 0xE9F JUMPI DUP1 PUSH4 0x54FD4D50 EQ PUSH3 0xDAD JUMPI DUP1 PUSH4 0x5734E5E3 EQ PUSH3 0xD8D JUMPI DUP1 PUSH4 0x5C975ABB EQ PUSH3 0xD68 JUMPI DUP1 PUSH4 0x75B238FC EQ PUSH3 0xD2B JUMPI DUP1 PUSH4 0x7B103999 EQ PUSH3 0xD00 JUMPI DUP1 PUSH4 0x80D29E66 EQ PUSH3 0xCA1 JUMPI DUP1 PUSH4 0x8456CB59 EQ PUSH3 0xC32 JUMPI DUP1 PUSH4 0x84EA5C74 EQ PUSH3 0xBFA JUMPI DUP1 PUSH4 0x91D14854 EQ PUSH3 0xBAB JUMPI DUP1 PUSH4 0x93F36BD8 EQ PUSH3 0xB7F JUMPI DUP1 PUSH4 0x9A737486 EQ PUSH3 0x8F7 JUMPI DUP1 PUSH4 0xA1308F27 EQ PUSH3 0x368 JUMPI DUP1 PUSH4 0xA217FDDF EQ PUSH3 0x8D9 JUMPI DUP1 PUSH4 0xA6606FB2 EQ PUSH3 0x8AD JUMPI DUP1 PUSH4 0xAA7318AA EQ PUSH3 0x853 JUMPI DUP1 PUSH4 0xAD932B6C EQ PUSH3 0x81C JUMPI DUP1 PUSH4 0xB1D92CF6 EQ PUSH3 0x739 JUMPI DUP1 PUSH4 0xB2412550 EQ PUSH3 0x6E2 JUMPI DUP1 PUSH4 0xC1F8218A EQ PUSH3 0x668 JUMPI DUP1 PUSH4 0xC3DFDAE6 EQ PUSH3 0x63D JUMPI DUP1 PUSH4 0xC4D66DE8 EQ PUSH3 0x46B JUMPI DUP1 PUSH4 0xD547741F EQ PUSH3 0x423 JUMPI DUP1 PUSH4 0xEBF8A3E6 EQ PUSH3 0x3A5 JUMPI DUP1 PUSH4 0xED2F21F5 EQ PUSH3 0x368 JUMPI DUP1 PUSH4 0xEFC37004 EQ PUSH3 0x32B JUMPI DUP1 PUSH4 0xF385BFC9 EQ PUSH3 0x2BA JUMPI DUP1 PUSH4 0xF579164E EQ PUSH3 0x27D JUMPI PUSH4 0xF5B541A6 EQ PUSH3 0x23E JUMPI PUSH1 0x0 DUP1 REVERT JUMPDEST CALLVALUE PUSH3 0x27A JUMPI DUP1 PUSH1 0x3 NOT CALLDATASIZE ADD SLT PUSH3 0x27A JUMPI PUSH1 0x20 PUSH1 0x40 MLOAD PUSH32 0x97667070C54EF182B0F5858B034BEAC1B6F3089AA2D3188BB1E8929F4FA9B929 DUP2 MSTORE RETURN JUMPDEST DUP1 REVERT JUMPDEST POP CALLVALUE PUSH3 0x27A JUMPI DUP1 PUSH1 0x3 NOT CALLDATASIZE ADD SLT PUSH3 0x27A JUMPI PUSH1 0x20 PUSH1 0x40 MLOAD PUSH32 0x9D5B5F65AFA369FA6C9AF26783F16DB68A74BCB30633C8B6FDD12ACC5C52C85E DUP2 MSTORE RETURN JUMPDEST POP CALLVALUE PUSH3 0x27A JUMPI PUSH1 0x40 CALLDATASIZE PUSH1 0x3 NOT ADD SLT PUSH3 0x27A JUMPI PUSH3 0x2D8 PUSH3 0x2707 JUMP JUMPDEST PUSH1 0x4 CALLDATALOAD DUP3 MSTORE PUSH1 0x8 PUSH1 0x20 MSTORE PUSH1 0x40 DUP3 KECCAK256 SWAP1 PUSH1 0x1 DUP1 PUSH1 0xA0 SHL SUB AND PUSH1 0x0 MSTORE PUSH1 0x20 MSTORE PUSH1 0xFF PUSH1 0x40 PUSH1 0x0 KECCAK256 SLOAD AND SWAP1 PUSH1 0x6 DUP3 LT ISZERO PUSH3 0x317 JUMPI PUSH1 0x20 DUP3 PUSH1 0x1 PUSH1 0x40 MLOAD SWAP2 EQ DUP2 MSTORE RETURN JUMPDEST PUSH4 0x4E487B71 PUSH1 0xE0 SHL DUP2 MSTORE PUSH1 0x21 PUSH1 0x4 MSTORE PUSH1 0x24 SWAP1 REVERT JUMPDEST POP CALLVALUE PUSH3 0x27A JUMPI PUSH1 0x20 CALLDATASIZE PUSH1 0x3 NOT ADD SLT PUSH3 0x27A JUMPI PUSH1 0xFF PUSH1 0x40 PUSH1 0x20 SWAP3 PUSH1 0x4 CALLDATALOAD DUP2 MSTORE PUSH1 0xA DUP5 MSTORE KECCAK256 SLOAD AND PUSH3 0x35D DUP2 PUSH3 0x288B JUMP JUMPDEST PUSH1 0x1 PUSH1 0x40 MLOAD SWAP2 EQ DUP2 MSTORE RETURN JUMPDEST POP CALLVALUE PUSH3 0x27A JUMPI DUP1 PUSH1 0x3 NOT CALLDATASIZE ADD SLT PUSH3 0x27A JUMPI PUSH1 0x20 PUSH1 0x40 MLOAD PUSH32 0xBDDED29A54E6A5D6169BEDEA55373B06F57E35D7B0F67AC187565B435E2CC943 DUP2 MSTORE RETURN JUMPDEST POP CALLVALUE PUSH3 0x27A JUMPI DUP1 PUSH1 0x3 NOT CALLDATASIZE ADD SLT PUSH3 0x27A JUMPI PUSH1 0x3 SLOAD PUSH1 0x1 PUSH1 0x1 PUSH1 0xA0 SHL SUB DUP2 AND CALLER SUB PUSH3 0x411 JUMPI PUSH1 0xA0 SHR PUSH1 0xFF AND ISZERO PUSH3 0x3FF JUMPI PUSH32 0xA866F3901EC84758A10F30E8953C3818EEF73DA93DFA46CB6AA5B726FB65813F DUP2 DUP1 LOG1 DUP1 RETURN JUMPDEST PUSH1 0x40 MLOAD PUSH4 0x3165F6E9 PUSH1 0xE2 SHL DUP2 MSTORE PUSH1 0x4 SWAP1 REVERT JUMPDEST PUSH1 0x40 MLOAD PUSH4 0x10F54039 PUSH1 0xE3 SHL DUP2 MSTORE PUSH1 0x4 SWAP1 REVERT JUMPDEST POP CALLVALUE PUSH3 0x27A JUMPI PUSH1 0x40 CALLDATASIZE PUSH1 0x3 NOT ADD SLT PUSH3 0x27A JUMPI PUSH3 0x468 PUSH1 0x4 CALLDATALOAD PUSH3 0x448 PUSH3 0x2707 JUMP JUMPDEST SWAP1 DUP1 DUP5 MSTORE DUP4 PUSH1 0x20 MSTORE PUSH3 0x462 PUSH1 0x1 PUSH1 0x40 DUP7 KECCAK256 ADD SLOAD PUSH3 0x2AD1 JUMP JUMPDEST PUSH3 0x2BEE JUMP JUMPDEST DUP1 RETURN JUMPDEST POP CALLVALUE PUSH3 0x27A JUMPI PUSH1 0x20 DUP1 PUSH1 0x3 NOT CALLDATASIZE ADD SLT PUSH3 0x639 JUMPI PUSH3 0x48A PUSH3 0x271E JUMP JUMPDEST SWAP1 PUSH1 0x3 SLOAD SWAP2 PUSH1 0xFF DUP4 PUSH1 0xA0 SHR AND PUSH3 0x627 JUMPI PUSH1 0x1 PUSH1 0x1 PUSH1 0xA0 SHL SUB AND SWAP2 DUP3 ISZERO PUSH3 0x615 JUMPI PUSH1 0x1 PUSH1 0x1 PUSH1 0xA8 SHL SUB NOT AND DUP3 OR PUSH1 0x1 PUSH1 0xA0 SHL OR PUSH1 0x3 SSTORE PUSH32 0xA49807205CE4D355092EF5A8A18F56E8913CF4A201FBE287825B095693C21775 PUSH1 0x0 DUP2 DUP2 MSTORE DUP1 DUP4 MSTORE PUSH1 0x40 DUP1 DUP3 KECCAK256 DUP6 DUP4 MSTORE DUP5 MSTORE SWAP1 KECCAK256 SLOAD PUSH1 0xFF AND ISZERO PUSH3 0x5C3 JUMPI JUMPDEST POP PUSH32 0x97667070C54EF182B0F5858B034BEAC1B6F3089AA2D3188BB1E8929F4FA9B929 SWAP1 DUP2 PUSH1 0x0 MSTORE PUSH1 0x0 DUP2 MSTORE PUSH1 0x40 PUSH1 0x0 KECCAK256 DUP4 PUSH1 0x0 MSTORE DUP2 MSTORE PUSH1 0xFF PUSH1 0x40 PUSH1 0x0 KECCAK256 SLOAD AND ISZERO PUSH3 0x570 JUMPI JUMPDEST POP POP PUSH32 0x27B541A16DF0902E262F34789782092AB25125513B8ED73608E802951771B928 DUP3 DUP1 LOG2 DUP1 RETURN JUMPDEST DUP2 PUSH1 0x0 MSTORE PUSH1 0x0 DUP2 MSTORE PUSH1 0x40 PUSH1 0x0 KECCAK256 SWAP1 DUP4 PUSH1 0x0 MSTORE MSTORE PUSH1 0x40 PUSH1 0x0 KECCAK256 PUSH1 0x1 PUSH1 0xFF NOT DUP3 SLOAD AND OR SWAP1 SSTORE DUP2 CALLER SWAP2 PUSH32 0x2F8788117E7EFF1D82E926EC794901D17C78024A50270940304540A733656F0D PUSH1 0x0 DUP1 LOG4 CODESIZE DUP1 PUSH3 0x547 JUMP JUMPDEST DUP1 PUSH1 0x0 MSTORE PUSH1 0x0 DUP3 MSTORE PUSH1 0x40 PUSH1 0x0 KECCAK256 DUP4 PUSH1 0x0 MSTORE DUP3 MSTORE PUSH1 0x40 PUSH1 0x0 KECCAK256 PUSH1 0x1 PUSH1 0xFF NOT DUP3 SLOAD AND OR SWAP1 SSTORE DUP3 CALLER SWAP2 PUSH32 0x2F8788117E7EFF1D82E926EC794901D17C78024A50270940304540A733656F0D PUSH1 0x0 DUP1 LOG4 CODESIZE PUSH3 0x501 JUMP JUMPDEST PUSH1 0x40 MLOAD PUSH4 0x7BFD2E83 PUSH1 0xE0 SHL DUP2 MSTORE PUSH1 0x4 SWAP1 REVERT JUMPDEST PUSH1 0x40 MLOAD PUSH4 0x7396742F PUSH1 0xE1 SHL DUP2 MSTORE PUSH1 0x4 SWAP1 REVERT JUMPDEST POP DUP1 REVERT JUMPDEST POP CALLVALUE PUSH3 0x27A JUMPI DUP1 PUSH1 0x3 NOT CALLDATASIZE ADD SLT PUSH3 0x27A JUMPI PUSH1 0x6 SLOAD PUSH1 0x40 MLOAD PUSH1 0x1 PUSH1 0x1 PUSH1 0xA0 SHL SUB SWAP1 SWAP2 AND DUP2 MSTORE PUSH1 0x20 SWAP1 RETURN JUMPDEST POP CALLVALUE PUSH3 0x27A JUMPI PUSH1 0x20 SWAP1 DUP2 PUSH1 0x3 NOT CALLDATASIZE ADD SLT PUSH3 0x27A JUMPI SWAP1 PUSH1 0x4 CALLDATALOAD DUP3 MSTORE PUSH1 0x9 DUP2 MSTORE PUSH3 0x696 PUSH1 0x40 DUP4 KECCAK256 PUSH3 0x33BB JUMP JUMPDEST PUSH1 0x40 MLOAD SWAP3 DUP3 DUP5 SWAP4 DUP5 ADD SWAP1 DUP1 DUP6 MSTORE DUP4 MLOAD DUP1 SWAP3 MSTORE DUP1 PUSH1 0x40 DUP7 ADD SWAP5 ADD SWAP3 JUMPDEST DUP3 DUP2 LT PUSH3 0x6C1 JUMPI POP POP POP POP SUB SWAP1 RETURN JUMPDEST DUP4 MLOAD PUSH1 0x1 PUSH1 0x1 PUSH1 0xA0 SHL SUB AND DUP6 MSTORE DUP7 SWAP6 POP SWAP4 DUP2 ADD SWAP4 SWAP3 DUP2 ADD SWAP3 PUSH1 0x1 ADD PUSH3 0x6B1 JUMP JUMPDEST POP CALLVALUE PUSH3 0x27A JUMPI PUSH1 0x20 CALLDATASIZE PUSH1 0x3 NOT ADD SLT PUSH3 0x27A JUMPI PUSH1 0x4 CALLDATALOAD PUSH1 0x3 DUP2 LT ISZERO PUSH3 0x639 JUMPI PUSH1 0x40 PUSH3 0x735 SWAP3 DUP3 PUSH3 0x71A PUSH3 0x728 SWAP5 PUSH3 0x288B JUMP JUMPDEST DUP2 MSTORE PUSH1 0xD PUSH1 0x20 MSTORE KECCAK256 PUSH3 0x33BB JUMP JUMPDEST PUSH1 0x40 MLOAD SWAP2 DUP3 SWAP2 DUP3 PUSH3 0x26CA JUMP JUMPDEST SUB SWAP1 RETURN JUMPDEST POP CALLVALUE PUSH3 0x27A JUMPI PUSH1 0x40 CALLDATASIZE PUSH1 0x3 NOT ADD SLT PUSH3 0x27A JUMPI PUSH1 0x40 PUSH3 0x759 PUSH3 0x2707 JUMP JUMPDEST SWAP2 DUP1 PUSH1 0x80 DUP4 MLOAD PUSH3 0x76A DUP2 PUSH3 0x277C JUMP JUMPDEST DUP3 DUP2 MSTORE DUP3 PUSH1 0x20 DUP3 ADD MSTORE DUP3 DUP6 DUP3 ADD MSTORE DUP3 PUSH1 0x60 DUP3 ADD MSTORE ADD MSTORE PUSH1 0x4 CALLDATALOAD DUP2 MSTORE PUSH1 0x8 PUSH1 0x20 MSTORE KECCAK256 SWAP1 PUSH1 0x1 DUP1 PUSH1 0xA0 SHL SUB AND PUSH1 0x0 MSTORE PUSH1 0x20 MSTORE PUSH1 0xA0 PUSH1 0x40 PUSH1 0x0 KECCAK256 PUSH1 0x40 MLOAD SWAP1 PUSH3 0x7B0 DUP3 PUSH3 0x277C JUMP JUMPDEST PUSH3 0x7C0 PUSH1 0xFF DUP3 SLOAD AND DUP4 PUSH3 0x3210 JUMP JUMPDEST PUSH1 0x1 DUP2 ADD SLOAD SWAP1 PUSH1 0x20 DUP4 ADD SWAP2 DUP3 MSTORE PUSH1 0x2 DUP2 ADD SLOAD PUSH1 0x40 DUP5 ADD SWAP1 DUP2 MSTORE PUSH1 0x4 PUSH1 0x3 DUP4 ADD SLOAD SWAP3 PUSH1 0x60 DUP7 ADD SWAP4 DUP5 MSTORE ADD SLOAD SWAP3 PUSH1 0x80 DUP6 ADD SWAP4 DUP5 MSTORE PUSH3 0x802 PUSH1 0x40 MLOAD DUP1 SWAP7 MLOAD PUSH3 0x2896 JUMP JUMPDEST MLOAD PUSH1 0x20 DUP6 ADD MSTORE MLOAD PUSH1 0x40 DUP5 ADD MSTORE MLOAD PUSH1 0x60 DUP4 ADD MSTORE MLOAD PUSH1 0x80 DUP3 ADD MSTORE RETURN JUMPDEST POP CALLVALUE PUSH3 0x27A JUMPI PUSH1 0x40 CALLDATASIZE PUSH1 0x3 NOT ADD SLT PUSH3 0x27A JUMPI PUSH1 0x20 PUSH3 0x849 PUSH3 0x840 PUSH3 0x2707 JUMP JUMPDEST PUSH1 0x4 CALLDATALOAD PUSH3 0x321D JUMP JUMPDEST PUSH1 0x40 MLOAD SWAP1 ISZERO ISZERO DUP2 MSTORE RETURN JUMPDEST POP CALLVALUE PUSH3 0x27A JUMPI DUP1 PUSH1 0x3 NOT CALLDATASIZE ADD SLT PUSH3 0x27A JUMPI PUSH1 0x3 SLOAD PUSH1 0x1 PUSH1 0x1 PUSH1 0xA0 SHL SUB DUP2 AND CALLER SUB PUSH3 0x411 JUMPI PUSH1 0xA0 SHR PUSH1 0xFF AND ISZERO PUSH3 0x3FF JUMPI PUSH32 0x6DFF2FE8FBB5B23BF0583BF5B2157FF62CA7E27F2FB4F404914CD0C205CED5CC DUP2 DUP1 LOG1 DUP1 RETURN JUMPDEST POP CALLVALUE PUSH3 0x27A JUMPI PUSH1 0x20 CALLDATASIZE PUSH1 0x3 NOT ADD SLT PUSH3 0x27A JUMPI PUSH1 0x40 PUSH1 0x20 SWAP2 PUSH1 0x4 CALLDATALOAD DUP2 MSTORE PUSH1 0x10 DUP4 MSTORE KECCAK256 SLOAD PUSH1 0x40 MLOAD SWAP1 DUP2 MSTORE RETURN JUMPDEST POP CALLVALUE PUSH3 0x27A JUMPI DUP1 PUSH1 0x3 NOT CALLDATASIZE ADD SLT PUSH3 0x27A JUMPI PUSH1 0x20 SWAP1 PUSH1 0x40 MLOAD SWAP1 DUP2 MSTORE RETURN JUMPDEST POP CALLVALUE PUSH3 0x27A JUMPI PUSH1 0x40 CALLDATASIZE PUSH1 0x3 NOT ADD SLT PUSH3 0x27A JUMPI PUSH1 0x4 CALLDATALOAD PUSH3 0x918 PUSH3 0x2707 JUMP JUMPDEST SWAP1 PUSH3 0x923 PUSH3 0x2F67 JUMP JUMPDEST PUSH3 0x92D PUSH3 0x2E92 JUMP JUMPDEST DUP1 DUP4 MSTORE PUSH1 0x7 PUSH1 0x20 SWAP1 DUP2 MSTORE PUSH1 0x40 DUP5 KECCAK256 PUSH1 0x1 DUP2 ADD SLOAD PUSH1 0x1 PUSH1 0x1 PUSH1 0xA0 SHL SUB SWAP2 SWAP1 DUP3 AND ISZERO PUSH3 0xB66 JUMPI DUP4 DUP7 MSTORE PUSH1 0x8 DUP4 MSTORE PUSH1 0x40 DUP7 KECCAK256 SWAP5 DUP3 DUP2 AND SWAP6 DUP7 PUSH1 0x0 MSTORE DUP5 MSTORE PUSH1 0x1 PUSH1 0x40 PUSH1 0x0 KECCAK256 ADD SLOAD ISZERO PUSH3 0xB3C JUMPI POP PUSH1 0x2 DUP3 SWAP2 ADD SLOAD AND CALLER EQ ISZERO DUP1 PUSH3 0xB31 JUMPI JUMPDEST PUSH3 0xB0E JUMPI DUP5 SWAP1 DUP4 DUP3 MSTORE PUSH1 0x9 DUP4 MSTORE PUSH3 0x9A6 DUP6 PUSH1 0x40 DUP5 KECCAK256 PUSH3 0x30FA JUMP JUMPDEST POP DUP4 DUP3 MSTORE PUSH1 0x8 DUP4 MSTORE PUSH1 0x40 DUP3 KECCAK256 DUP6 PUSH1 0x0 MSTORE DUP4 MSTORE PUSH1 0x0 PUSH1 0x4 PUSH1 0x40 DUP3 KECCAK256 DUP5 DUP2 SSTORE DUP3 PUSH1 0x1 DUP3 ADD SSTORE DUP3 PUSH1 0x2 DUP3 ADD SSTORE DUP3 PUSH1 0x3 DUP3 ADD SSTORE ADD SSTORE DUP4 DUP3 MSTORE PUSH1 0xE DUP4 MSTORE PUSH1 0x40 DUP3 KECCAK256 DUP6 PUSH1 0x0 MSTORE DUP4 MSTORE PUSH1 0x0 PUSH1 0x40 DUP2 KECCAK256 SSTORE DUP4 DUP3 MSTORE PUSH1 0x11 DUP4 MSTORE PUSH1 0x40 DUP3 KECCAK256 DUP6 PUSH1 0x0 MSTORE DUP4 MSTORE PUSH1 0x40 PUSH1 0x0 KECCAK256 SLOAD PUSH3 0xA3F JUMPI JUMPDEST POP POP PUSH32 0x31BD20FE15001EE66B7528035447AD30C320A25815EB7D5DE52D8E35EC266000 SWAP1 PUSH1 0x40 MLOAD TIMESTAMP DUP2 MSTORE LOG3 PUSH1 0x1 PUSH1 0x2 SSTORE DUP1 RETURN JUMPDEST DUP4 DUP3 MSTORE PUSH1 0x11 DUP4 MSTORE PUSH1 0x40 DUP3 KECCAK256 DUP6 PUSH1 0x0 MSTORE DUP4 MSTORE PUSH1 0x40 PUSH1 0x0 KECCAK256 SLOAD SWAP1 DUP5 DUP4 MSTORE PUSH1 0x11 DUP5 MSTORE PUSH1 0x40 DUP4 KECCAK256 DUP7 PUSH1 0x0 MSTORE DUP5 MSTORE DUP3 PUSH1 0x40 PUSH1 0x0 KECCAK256 SSTORE PUSH1 0x6 SLOAD AND SWAP1 DUP2 PUSH3 0xA82 JUMPI JUMPDEST POP PUSH3 0xA0C JUMP JUMPDEST DUP2 EXTCODESIZE ISZERO PUSH3 0xB0A JUMPI DUP3 SWAP2 PUSH1 0x44 DUP4 SWAP3 PUSH1 0x40 MLOAD SWAP5 DUP6 SWAP4 DUP5 SWAP3 PUSH4 0x16AE261D PUSH1 0xE0 SHL DUP5 MSTORE PUSH32 0x9D5B5F65AFA369FA6C9AF26783F16DB68A74BCB30633C8B6FDD12ACC5C52C85E PUSH1 0x4 DUP6 ADD MSTORE PUSH1 0x24 DUP5 ADD MSTORE GAS CALL DUP1 ISZERO PUSH3 0xAFF JUMPI PUSH3 0xAE3 JUMPI JUMPDEST DUP1 PUSH3 0xA7B JUMP JUMPDEST PUSH3 0xAEE SWAP1 PUSH3 0x2735 JUMP JUMPDEST PUSH3 0xAFB JUMPI DUP4 CODESIZE PUSH3 0xADC JUMP JUMPDEST DUP4 DUP1 REVERT JUMPDEST PUSH1 0x40 MLOAD RETURNDATASIZE DUP5 DUP3 RETURNDATACOPY RETURNDATASIZE SWAP1 REVERT JUMPDEST DUP3 DUP1 REVERT JUMPDEST PUSH1 0x40 MLOAD PUSH4 0x3A2A051 PUSH1 0xE1 SHL DUP2 MSTORE PUSH1 0x4 DUP2 ADD DUP5 SWAP1 MSTORE CALLER PUSH1 0x24 DUP3 ADD MSTORE PUSH1 0x44 SWAP1 REVERT JUMPDEST SUB SWAP1 REVERT JUMPDEST POP DUP4 CALLER EQ ISZERO PUSH3 0x989 JUMP JUMPDEST PUSH1 0x40 MLOAD PUSH4 0x3085325 PUSH1 0xE2 SHL DUP2 MSTORE PUSH1 0x4 DUP2 ADD DUP7 SWAP1 MSTORE PUSH1 0x1 PUSH1 0x1 PUSH1 0xA0 SHL SUB SWAP2 SWAP1 SWAP2 AND PUSH1 0x24 DUP3 ADD MSTORE PUSH1 0x44 SWAP1 REVERT JUMPDEST PUSH1 0x40 MLOAD PUSH4 0xF708DFA7 PUSH1 0xE0 SHL DUP2 MSTORE PUSH1 0x4 DUP2 ADD DUP6 SWAP1 MSTORE PUSH1 0x24 SWAP1 REVERT JUMPDEST POP CALLVALUE PUSH3 0x27A JUMPI PUSH1 0x20 CALLDATASIZE PUSH1 0x3 NOT ADD SLT PUSH3 0x27A JUMPI PUSH1 0x40 PUSH1 0x20 SWAP2 PUSH1 0x4 CALLDATALOAD DUP2 MSTORE PUSH1 0x9 DUP4 MSTORE KECCAK256 SLOAD PUSH1 0x40 MLOAD SWAP1 DUP2 MSTORE RETURN JUMPDEST POP CALLVALUE PUSH3 0x27A JUMPI PUSH1 0x40 CALLDATASIZE PUSH1 0x3 NOT ADD SLT PUSH3 0x27A JUMPI PUSH1 0x40 PUSH3 0xBCB PUSH3 0x2707 JUMP JUMPDEST SWAP2 PUSH1 0x4 CALLDATALOAD DUP2 MSTORE DUP1 PUSH1 0x20 MSTORE KECCAK256 SWAP1 PUSH1 0x1 DUP1 PUSH1 0xA0 SHL SUB AND PUSH1 0x0 MSTORE PUSH1 0x20 MSTORE PUSH1 0x20 PUSH1 0xFF PUSH1 0x40 PUSH1 0x0 KECCAK256 SLOAD AND PUSH1 0x40 MLOAD SWAP1 ISZERO ISZERO DUP2 MSTORE RETURN JUMPDEST POP CALLVALUE PUSH3 0x27A JUMPI PUSH1 0x20 CALLDATASIZE PUSH1 0x3 NOT ADD SLT PUSH3 0x27A JUMPI PUSH1 0x20 SWAP1 PUSH1 0x4 CALLDATALOAD DUP2 MSTORE PUSH1 0x7 DUP3 MSTORE PUSH1 0x7 PUSH1 0x40 PUSH1 0x1 DUP1 PUSH1 0xA0 SHL SUB SWAP3 KECCAK256 ADD SLOAD AND PUSH1 0x40 MLOAD SWAP1 DUP2 MSTORE RETURN JUMPDEST POP CALLVALUE PUSH3 0x27A JUMPI DUP1 PUSH1 0x3 NOT CALLDATASIZE ADD SLT PUSH3 0x27A JUMPI PUSH3 0xC4F PUSH3 0x28A4 JUMP JUMPDEST PUSH1 0xFF PUSH1 0x3 SLOAD PUSH1 0xA0 SHR AND ISZERO PUSH3 0x3FF JUMPI PUSH3 0xC68 PUSH3 0x2E92 JUMP JUMPDEST PUSH1 0x1 PUSH1 0xFF NOT DUP2 SLOAD AND OR PUSH1 0x1 SSTORE PUSH32 0x62E78CEA01BEE320CD4E420270B5EA74000D11B0C9F74754EBDBFC544B05A258 PUSH1 0x20 PUSH1 0x40 MLOAD CALLER DUP2 MSTORE LOG1 DUP1 RETURN JUMPDEST POP CALLVALUE PUSH3 0x27A JUMPI PUSH1 0x20 CALLDATASIZE PUSH1 0x3 NOT ADD SLT PUSH3 0x27A JUMPI PUSH3 0xCBF PUSH3 0x271E JUMP JUMPDEST PUSH3 0xCC9 PUSH3 0x28A4 JUMP JUMPDEST PUSH1 0x1 PUSH1 0x1 PUSH1 0xA0 SHL SUB AND DUP1 ISZERO PUSH3 0xCEF JUMPI PUSH1 0x1 PUSH1 0x1 PUSH1 0x60 SHL SUB PUSH1 0xA0 SHL PUSH1 0x6 SLOAD AND OR PUSH1 0x6 SSTORE DUP1 RETURN JUMPDEST PUSH1 0x40 MLOAD PUSH3 0x3DAA5 PUSH1 0xE3 SHL DUP2 MSTORE PUSH1 0x4 SWAP1 REVERT JUMPDEST POP CALLVALUE PUSH3 0x27A JUMPI DUP1 PUSH1 0x3 NOT CALLDATASIZE ADD SLT PUSH3 0x27A JUMPI PUSH1 0x3 SLOAD PUSH1 0x40 MLOAD PUSH1 0x1 PUSH1 0x1 PUSH1 0xA0 SHL SUB SWAP1 SWAP2 AND DUP2 MSTORE PUSH1 0x20 SWAP1 RETURN JUMPDEST POP CALLVALUE PUSH3 0x27A JUMPI DUP1 PUSH1 0x3 NOT CALLDATASIZE ADD SLT PUSH3 0x27A JUMPI PUSH1 0x20 PUSH1 0x40 MLOAD PUSH32 0xA49807205CE4D355092EF5A8A18F56E8913CF4A201FBE287825B095693C21775 DUP2 MSTORE RETURN JUMPDEST POP CALLVALUE PUSH3 0x27A JUMPI DUP1 PUSH1 0x3 NOT CALLDATASIZE ADD SLT PUSH3 0x27A JUMPI PUSH1 0x20 PUSH1 0xFF PUSH1 0x1 SLOAD AND PUSH1 0x40 MLOAD SWAP1 ISZERO ISZERO DUP2 MSTORE RETURN JUMPDEST POP CALLVALUE PUSH3 0x27A JUMPI DUP1 PUSH1 0x3 NOT CALLDATASIZE ADD SLT PUSH3 0x27A JUMPI PUSH1 0x20 PUSH1 0x5 SLOAD PUSH1 0x40 MLOAD SWAP1 DUP2 MSTORE RETURN JUMPDEST POP CALLVALUE PUSH3 0x27A JUMPI DUP1 PUSH1 0x3 NOT CALLDATASIZE ADD SLT PUSH3 0x27A JUMPI PUSH1 0x40 MLOAD PUSH1 0x0 PUSH1 0x4 SLOAD PUSH3 0xDD3 DUP2 PUSH3 0x2DA3 JUMP JUMPDEST DUP1 DUP5 MSTORE SWAP1 PUSH1 0x1 SWAP1 DUP2 DUP2 AND SWAP1 DUP2 ISZERO PUSH3 0xE76 JUMPI POP PUSH1 0x1 EQ PUSH3 0xE17 JUMPI JUMPDEST PUSH3 0x735 DUP5 PUSH3 0xE02 DUP2 DUP7 SUB DUP3 PUSH3 0x27B4 JUMP JUMPDEST PUSH1 0x40 MLOAD SWAP2 DUP3 SWAP2 PUSH1 0x20 DUP4 MSTORE PUSH1 0x20 DUP4 ADD SWAP1 PUSH3 0x2856 JUMP JUMPDEST PUSH1 0x4 PUSH1 0x0 SWAP1 DUP2 MSTORE SWAP3 POP PUSH32 0x8A35ACFBC15FF81A39AE7D344FD709F28E8600B4AA8C65C6B64BFE7FE36BD19B JUMPDEST DUP3 DUP5 LT PUSH3 0xE5D JUMPI POP POP POP DUP2 ADD PUSH1 0x20 ADD PUSH3 0xE02 DUP3 PUSH3 0xDEF JUMP JUMPDEST DUP1 SLOAD PUSH1 0x20 DUP6 DUP8 ADD DUP2 ADD SWAP2 SWAP1 SWAP2 MSTORE SWAP1 SWAP4 ADD SWAP3 DUP2 ADD PUSH3 0xE42 JUMP JUMPDEST PUSH1 0xFF NOT AND PUSH1 0x20 DUP1 DUP8 ADD SWAP2 SWAP1 SWAP2 MSTORE SWAP3 ISZERO ISZERO PUSH1 0x5 SHL DUP6 ADD SWAP1 SWAP3 ADD SWAP3 POP PUSH3 0xE02 SWAP2 POP DUP4 SWAP1 POP PUSH3 0xDEF JUMP JUMPDEST POP CALLVALUE PUSH3 0x27A JUMPI DUP1 PUSH1 0x3 NOT CALLDATASIZE ADD SLT PUSH3 0x27A JUMPI PUSH1 0x3 SLOAD PUSH1 0x1 PUSH1 0x1 PUSH1 0xA0 SHL SUB DUP2 AND CALLER SUB PUSH3 0x411 JUMPI PUSH1 0xA0 SHR PUSH1 0xFF AND ISZERO PUSH3 0x3FF JUMPI PUSH3 0xC68 PUSH3 0x2E92 JUMP JUMPDEST POP CALLVALUE PUSH3 0x27A JUMPI PUSH2 0x100 CALLDATASIZE PUSH1 0x3 NOT ADD SLT PUSH3 0x27A JUMPI PUSH1 0x4 CALLDATALOAD PUSH1 0x1 PUSH1 0x1 PUSH1 0x40 SHL SUB DUP2 GT PUSH3 0x639 JUMPI PUSH3 0xF13 SWAP1 CALLDATASIZE SWAP1 PUSH1 0x4 ADD PUSH3 0x27D6 JUMP JUMPDEST SWAP1 PUSH1 0x24 CALLDATALOAD PUSH1 0x1 PUSH1 0x1 PUSH1 0x40 SHL SUB DUP2 GT PUSH3 0x639 JUMPI PUSH3 0xF36 SWAP1 CALLDATASIZE SWAP1 PUSH1 0x4 ADD PUSH3 0x27D6 JUMP JUMPDEST SWAP1 PUSH1 0x4 PUSH1 0x44 CALLDATALOAD LT ISZERO PUSH3 0x27A JUMPI PUSH1 0x3 PUSH1 0x64 CALLDATALOAD LT ISZERO PUSH3 0x27A JUMPI PUSH1 0x3 PUSH1 0x84 CALLDATALOAD LT ISZERO PUSH3 0x27A JUMPI PUSH1 0xA4 CALLDATALOAD PUSH4 0xFFFFFFFF DUP2 AND DUP2 SUB PUSH3 0x1785 JUMPI PUSH3 0xF76 PUSH3 0x2F67 JUMP JUMPDEST PUSH3 0xF80 PUSH3 0x2E92 JUMP JUMPDEST DUP4 MLOAD ISZERO PUSH3 0x1773 JUMPI PUSH1 0xE4 CALLDATALOAD ISZERO ISZERO DUP1 DUP1 PUSH3 0x175F JUMPI JUMPDEST PUSH3 0xCEF JUMPI PUSH3 0x16CA JUMPI JUMPDEST PUSH1 0x1 PUSH1 0x5 SLOAD ADD SWAP1 DUP2 PUSH1 0x5 SSTORE PUSH1 0x40 MLOAD PUSH32 0xBDDED29A54E6A5D6169BEDEA55373B06F57E35D7B0F67AC187565B435E2CC943 PUSH1 0x20 DUP3 ADD MSTORE DUP3 PUSH1 0x40 DUP3 ADD MSTORE CALLER PUSH1 0x60 SHL PUSH1 0x60 DUP3 ADD MSTORE TIMESTAMP PUSH1 0x74 DUP3 ADD MSTORE PUSH1 0x74 DUP2 MSTORE PUSH3 0xFF8 DUP2 PUSH3 0x277C JUMP JUMPDEST PUSH1 0x20 DUP2 MLOAD SWAP2 ADD KECCAK256 SWAP4 DUP5 DUP5 MSTORE PUSH1 0x7 PUSH1 0x20 MSTORE PUSH1 0x1 DUP1 PUSH1 0xA0 SHL SUB PUSH1 0x1 PUSH1 0x40 DUP7 KECCAK256 ADD SLOAD AND PUSH3 0x16B1 JUMPI PUSH1 0x40 MLOAD DUP1 PUSH2 0x1FEA DUP2 ADD LT PUSH1 0x1 PUSH1 0x1 PUSH1 0x40 SHL SUB PUSH2 0x1FEA DUP4 ADD GT OR PUSH3 0x15BC JUMPI PUSH2 0x1FEA PUSH3 0x340F DUP3 CODECOPY PUSH2 0x1FEA DUP2 ADD DUP7 DUP2 MSTORE ADDRESS PUSH1 0x20 DUP3 ADD MSTORE CALLER PUSH1 0x40 DUP3 ADD MSTORE DUP2 SWAP1 SUB PUSH1 0x60 ADD SWAP1 DUP6 CREATE SWAP1 DUP2 ISZERO PUSH3 0x16A6 JUMPI SWAP1 PUSH4 0xFFFFFFFF SWAP3 SWAP2 PUSH1 0x40 MLOAD SWAP5 PUSH3 0x1080 DUP7 PUSH3 0x275F JUMP JUMPDEST DUP6 MSTORE CALLER PUSH1 0x20 DUP7 ADD MSTORE CALLER PUSH1 0x40 DUP7 ADD MSTORE DUP8 PUSH1 0x60 DUP7 ADD MSTORE PUSH1 0x80 DUP6 ADD MSTORE PUSH3 0x10AA PUSH1 0x44 CALLDATALOAD PUSH1 0xA0 DUP7 ADD PUSH3 0x2ED7 JUMP JUMPDEST PUSH3 0x10B7 PUSH1 0x64 CALLDATALOAD PUSH3 0x288B JUMP JUMPDEST PUSH1 0x64 CALLDATALOAD PUSH1 0xC0 DUP6 ADD MSTORE PUSH3 0x10CC PUSH1 0x84 CALLDATALOAD PUSH3 0x288B JUMP JUMPDEST PUSH1 0x84 CALLDATALOAD PUSH1 0xE0 DUP6 ADD MSTORE PUSH1 0xC4 CALLDATALOAD PUSH2 0x100 DUP6 ADD MSTORE PUSH1 0x1 DUP1 PUSH1 0xA0 SHL SUB AND PUSH2 0x120 DUP5 ADD MSTORE AND PUSH2 0x140 DUP3 ADD MSTORE PUSH1 0x1 PUSH2 0x160 DUP3 ADD MSTORE TIMESTAMP PUSH2 0x180 DUP3 ADD MSTORE TIMESTAMP PUSH2 0x1A0 DUP3 ADD MSTORE DUP3 DUP3 MSTORE PUSH1 0x7 PUSH1 0x20 MSTORE PUSH1 0x40 DUP3 KECCAK256 SWAP1 DUP1 MLOAD DUP3 SSTORE PUSH1 0x1 DUP3 ADD PUSH1 0x1 DUP1 PUSH1 0xA0 SHL SUB PUSH1 0x20 DUP4 ADD MLOAD AND PUSH1 0x1 PUSH1 0x1 PUSH1 0x60 SHL SUB PUSH1 0xA0 SHL DUP3 SLOAD AND OR SWAP1 SSTORE PUSH1 0x2 DUP3 ADD PUSH1 0x1 DUP1 PUSH1 0xA0 SHL SUB PUSH1 0x40 DUP4 ADD MLOAD AND PUSH1 0x1 PUSH1 0x1 PUSH1 0x60 SHL SUB PUSH1 0xA0 SHL DUP3 SLOAD AND OR SWAP1 SSTORE PUSH1 0x60 DUP2 ADD MLOAD DUP1 MLOAD SWAP1 PUSH1 0x1 PUSH1 0x1 PUSH1 0x40 SHL SUB DUP3 GT PUSH3 0x15BC JUMPI DUP2 SWAP1 PUSH3 0x1185 PUSH1 0x3 DUP7 ADD SLOAD PUSH3 0x2DA3 JUMP JUMPDEST PUSH1 0x1F DUP2 GT PUSH3 0x1650 JUMPI JUMPDEST POP PUSH1 0x20 SWAP1 PUSH1 0x1F DUP4 GT PUSH1 0x1 EQ PUSH3 0x15DC JUMPI DUP7 SWAP3 PUSH3 0x15D0 JUMPI JUMPDEST POP POP DUP2 PUSH1 0x1 SHL SWAP2 PUSH1 0x0 NOT SWAP1 PUSH1 0x3 SHL SHR NOT AND OR PUSH1 0x3 DUP4 ADD SSTORE JUMPDEST PUSH1 0x80 DUP2 ADD MLOAD DUP1 MLOAD SWAP1 PUSH1 0x1 PUSH1 0x1 PUSH1 0x40 SHL SUB DUP3 GT PUSH3 0x15BC JUMPI DUP2 SWAP1 PUSH3 0x11E7 PUSH1 0x4 DUP7 ADD SLOAD PUSH3 0x2DA3 JUMP JUMPDEST PUSH1 0x1F DUP2 GT PUSH3 0x1566 JUMPI JUMPDEST POP PUSH1 0x20 SWAP1 PUSH1 0x1F DUP4 GT PUSH1 0x1 EQ PUSH3 0x14F2 JUMPI DUP7 SWAP3 PUSH3 0x14E6 JUMPI JUMPDEST POP POP DUP2 PUSH1 0x1 SHL SWAP2 PUSH1 0x0 NOT SWAP1 PUSH1 0x3 SHL SHR NOT AND OR PUSH1 0x4 DUP4 ADD SSTORE JUMPDEST PUSH1 0xA0 DUP2 ADD MLOAD PUSH1 0x4 DUP2 LT ISZERO PUSH3 0x14D2 JUMPI SWAP3 DUP3 PUSH1 0x9 PUSH2 0x1A0 PUSH1 0x40 SWAP5 PUSH3 0x1286 PUSH3 0x133E SWAP9 PUSH3 0x1254 PUSH1 0x5 DUP13 SWAP11 ADD SWAP2 DUP3 PUSH3 0x2EE4 JUMP JUMPDEST PUSH3 0x126F PUSH1 0xC0 DUP5 ADD MLOAD PUSH3 0x1268 DUP2 PUSH3 0x288B JUMP JUMPDEST DUP3 PUSH3 0x2EFD JUMP JUMPDEST PUSH1 0xE0 DUP4 ADD MLOAD SWAP1 PUSH3 0x1280 DUP3 PUSH3 0x288B JUMP JUMPDEST PUSH3 0x2F1E JUMP JUMPDEST PUSH2 0x100 DUP2 ADD MLOAD PUSH1 0x6 DUP6 ADD SSTORE PUSH2 0x120 DUP2 ADD MLOAD PUSH1 0x7 DUP6 ADD DUP1 SLOAD PUSH2 0x140 DUP5 ADD MLOAD PUSH4 0xFFFFFFFF PUSH1 0xA0 SHL PUSH1 0xA0 SWAP2 SWAP1 SWAP2 SHL AND PUSH1 0x1 PUSH1 0x1 PUSH1 0xA0 SHL SUB SWAP1 SWAP4 AND PUSH1 0x1 PUSH1 0x1 PUSH1 0xC0 SHL SUB NOT SWAP1 SWAP2 AND OR SWAP2 SWAP1 SWAP2 OR DUP2 SSTORE PUSH3 0x12ED SWAP1 PUSH2 0x160 DUP4 ADD MLOAD SWAP1 PUSH3 0x12E7 DUP3 PUSH3 0x288B JUMP JUMPDEST PUSH3 0x2F41 JUMP JUMPDEST PUSH2 0x180 DUP2 ADD MLOAD PUSH1 0x8 DUP6 ADD SSTORE ADD MLOAD SWAP2 ADD SSTORE DUP3 DUP2 MSTORE PUSH1 0xA PUSH1 0x20 MSTORE DUP2 DUP2 KECCAK256 PUSH1 0x1 PUSH1 0xFF NOT DUP3 SLOAD AND OR SWAP1 SSTORE DUP3 DUP2 MSTORE PUSH1 0x10 PUSH1 0x20 MSTORE PUSH1 0xE4 CALLDATALOAD DUP3 DUP3 KECCAK256 SSTORE PUSH3 0x132D DUP4 PUSH3 0x2FD5 JUMP JUMPDEST POP PUSH1 0x1 DUP2 MSTORE PUSH1 0xD PUSH1 0x20 MSTORE KECCAK256 PUSH3 0x3070 JUMP JUMPDEST POP DUP1 PUSH1 0x0 MSTORE PUSH1 0x8 PUSH1 0x20 MSTORE PUSH1 0x40 PUSH1 0x0 KECCAK256 CALLER PUSH1 0x0 MSTORE PUSH1 0x20 MSTORE PUSH1 0x1 PUSH1 0x40 PUSH1 0x0 KECCAK256 ADD SLOAD PUSH3 0x14B2 JUMPI DUP1 PUSH1 0x0 MSTORE PUSH1 0x9 PUSH1 0x20 MSTORE PUSH3 0x137B CALLER PUSH1 0x40 PUSH1 0x0 KECCAK256 PUSH3 0x3070 JUMP JUMPDEST POP PUSH1 0x40 MLOAD SWAP2 PUSH3 0x138B DUP4 PUSH3 0x277C JUMP JUMPDEST PUSH1 0x1 DUP4 MSTORE PUSH1 0x20 DUP4 ADD SWAP3 TIMESTAMP DUP5 MSTORE PUSH1 0x40 DUP2 ADD PUSH1 0x0 DUP2 MSTORE PUSH1 0x60 DUP3 ADD PUSH1 0x0 DUP2 MSTORE PUSH1 0x80 DUP4 ADD SWAP1 PUSH1 0x0 DUP3 MSTORE DUP6 PUSH1 0x0 MSTORE PUSH1 0x8 PUSH1 0x20 MSTORE PUSH1 0x40 PUSH1 0x0 KECCAK256 CALLER PUSH1 0x0 MSTORE PUSH1 0x20 MSTORE PUSH1 0x40 PUSH1 0x0 KECCAK256 SWAP4 MLOAD SWAP3 PUSH1 0x6 DUP5 LT ISZERO PUSH3 0x149C JUMPI PUSH1 0x20 SWAP8 PUSH3 0x13E8 PUSH1 0x4 SWAP6 DUP8 PUSH3 0x31F7 JUMP JUMPDEST MLOAD PUSH1 0x1 DUP7 ADD SSTORE MLOAD PUSH1 0x2 DUP6 ADD SSTORE MLOAD PUSH1 0x3 DUP5 ADD SSTORE MLOAD SWAP2 ADD SSTORE PUSH1 0x40 MLOAD PUSH1 0x1 DUP2 MSTORE PUSH1 0x0 DUP5 DUP3 ADD MSTORE TIMESTAMP PUSH1 0x40 DUP3 ADD MSTORE DUP3 PUSH32 0x339E6F1051E81B2167F634EDF22C19AFC661B87CC385EAD8AAE7E6863548A410 PUSH1 0x60 CALLER SWAP4 LOG3 PUSH3 0x144F PUSH1 0x40 MLOAD SWAP2 PUSH1 0x60 DUP4 MSTORE PUSH1 0x60 DUP4 ADD SWAP1 PUSH3 0x2856 JUMP JUMPDEST PUSH3 0x145F DUP5 DUP4 ADD PUSH1 0x44 CALLDATALOAD PUSH3 0x287D JUMP JUMPDEST TIMESTAMP PUSH1 0x40 DUP4 ADD MSTORE DUP3 PUSH32 0xB666949CB144777F2B9C231357C48A44DD297B72CCA767EEE2290801B924EE22 CALLER SWAP4 DUP1 CALLER SWAP5 SUB SWAP1 LOG4 PUSH1 0x1 PUSH1 0x2 SSTORE PUSH1 0x40 MLOAD SWAP1 DUP2 MSTORE RETURN JUMPDEST PUSH4 0x4E487B71 PUSH1 0xE0 SHL PUSH1 0x0 MSTORE PUSH1 0x21 PUSH1 0x4 MSTORE PUSH1 0x24 PUSH1 0x0 REVERT JUMPDEST PUSH1 0x40 MLOAD PUSH4 0x392D9D83 PUSH1 0xE1 SHL DUP2 MSTORE PUSH1 0x4 DUP2 ADD SWAP2 SWAP1 SWAP2 MSTORE CALLER PUSH1 0x24 DUP3 ADD MSTORE PUSH1 0x44 SWAP1 REVERT JUMPDEST PUSH4 0x4E487B71 PUSH1 0xE0 SHL DUP5 MSTORE PUSH1 0x21 PUSH1 0x4 MSTORE PUSH1 0x24 DUP5 REVERT JUMPDEST ADD MLOAD SWAP1 POP CODESIZE DUP1 PUSH3 0x1209 JUMP JUMPDEST SWAP3 POP PUSH1 0x4 DUP6 ADD DUP7 MSTORE PUSH1 0x20 DUP7 KECCAK256 SWAP1 DUP7 SWAP4 JUMPDEST PUSH1 0x1F NOT DUP5 AND DUP6 LT PUSH3 0x154A JUMPI PUSH1 0x1 SWAP5 POP DUP4 PUSH1 0x1F NOT DUP2 AND LT PUSH3 0x1530 JUMPI JUMPDEST POP POP POP DUP2 SHL ADD PUSH1 0x4 DUP4 ADD SSTORE PUSH3 0x1221 JUMP JUMPDEST ADD MLOAD PUSH1 0x0 NOT PUSH1 0xF8 DUP5 PUSH1 0x3 SHL AND SHR NOT AND SWAP1 SSTORE CODESIZE DUP1 DUP1 PUSH3 0x151F JUMP JUMPDEST DUP2 DUP2 ADD MLOAD DUP4 SSTORE PUSH1 0x20 SWAP5 DUP6 ADD SWAP5 PUSH1 0x1 SWAP1 SWAP4 ADD SWAP3 SWAP1 SWAP2 ADD SWAP1 PUSH3 0x1502 JUMP JUMPDEST SWAP1 SWAP2 POP PUSH1 0x4 DUP6 ADD DUP7 MSTORE PUSH1 0x20 DUP7 KECCAK256 PUSH1 0x1F DUP5 ADD PUSH1 0x5 SHR DUP2 ADD PUSH1 0x20 DUP6 LT PUSH3 0x15B4 JUMPI JUMPDEST SWAP1 DUP5 SWAP4 SWAP3 SWAP2 JUMPDEST PUSH1 0x1F DUP4 ADD PUSH1 0x5 SHR DUP3 ADD DUP2 LT PUSH3 0x15A4 JUMPI POP POP PUSH3 0x11F1 JUMP JUMPDEST PUSH1 0x0 DUP2 SSTORE DUP6 SWAP5 POP PUSH1 0x1 ADD PUSH3 0x158C JUMP JUMPDEST POP DUP1 PUSH3 0x1586 JUMP JUMPDEST PUSH4 0x4E487B71 PUSH1 0xE0 SHL DUP6 MSTORE PUSH1 0x41 PUSH1 0x4 MSTORE PUSH1 0x24 DUP6 REVERT JUMPDEST ADD MLOAD SWAP1 POP CODESIZE DUP1 PUSH3 0x11A7 JUMP JUMPDEST SWAP3 POP PUSH1 0x3 DUP6 ADD DUP7 MSTORE PUSH1 0x20 DUP7 KECCAK256 SWAP1 DUP7 SWAP4 JUMPDEST PUSH1 0x1F NOT DUP5 AND DUP6 LT PUSH3 0x1634 JUMPI PUSH1 0x1 SWAP5 POP DUP4 PUSH1 0x1F NOT DUP2 AND LT PUSH3 0x161A JUMPI JUMPDEST POP POP POP DUP2 SHL ADD PUSH1 0x3 DUP4 ADD SSTORE PUSH3 0x11BF JUMP JUMPDEST ADD MLOAD PUSH1 0x0 NOT PUSH1 0xF8 DUP5 PUSH1 0x3 SHL AND SHR NOT AND SWAP1 SSTORE CODESIZE DUP1 DUP1 PUSH3 0x1609 JUMP JUMPDEST DUP2 DUP2 ADD MLOAD DUP4 SSTORE PUSH1 0x20 SWAP5 DUP6 ADD SWAP5 PUSH1 0x1 SWAP1 SWAP4 ADD SWAP3 SWAP1 SWAP2 ADD SWAP1 PUSH3 0x15EC JUMP JUMPDEST SWAP1 SWAP2 POP PUSH1 0x3 DUP6 ADD DUP7 MSTORE PUSH1 0x20 DUP7 KECCAK256 PUSH1 0x1F DUP5 ADD PUSH1 0x5 SHR DUP2 ADD PUSH1 0x20 DUP6 LT PUSH3 0x169E JUMPI JUMPDEST SWAP1 DUP5 SWAP4 SWAP3 SWAP2 JUMPDEST PUSH1 0x1F DUP4 ADD PUSH1 0x5 SHR DUP3 ADD DUP2 LT PUSH3 0x168E JUMPI POP POP PUSH3 0x118F JUMP JUMPDEST PUSH1 0x0 DUP2 SSTORE DUP6 SWAP5 POP PUSH1 0x1 ADD PUSH3 0x1676 JUMP JUMPDEST POP DUP1 PUSH3 0x1670 JUMP JUMPDEST PUSH1 0x40 MLOAD RETURNDATASIZE DUP7 DUP3 RETURNDATACOPY RETURNDATASIZE SWAP1 REVERT JUMPDEST PUSH1 0x40 MLOAD PUSH4 0x5670E0E9 PUSH1 0xE0 SHL DUP2 MSTORE PUSH1 0x4 DUP2 ADD DUP7 SWAP1 MSTORE PUSH1 0x24 SWAP1 REVERT JUMPDEST PUSH1 0x6 SLOAD PUSH1 0x1 PUSH1 0x1 PUSH1 0xA0 SHL SUB AND DUP1 EXTCODESIZE ISZERO PUSH3 0xB0A JUMPI DUP3 DUP1 SWAP2 PUSH1 0x44 PUSH1 0x40 MLOAD DUP1 SWAP5 DUP2 SWAP4 PUSH4 0x8CAA523 PUSH1 0xE4 SHL DUP4 MSTORE PUSH32 0x9D5B5F65AFA369FA6C9AF26783F16DB68A74BCB30633C8B6FDD12ACC5C52C85E PUSH1 0x4 DUP5 ADD MSTORE PUSH1 0xE4 CALLDATALOAD PUSH1 0x24 DUP5 ADD MSTORE GAS CALL DUP1 ISZERO PUSH3 0x1754 JUMPI SWAP1 DUP4 SWAP2 PUSH3 0x173C JUMPI JUMPDEST POP POP PUSH3 0xFA0 JUMP JUMPDEST PUSH3 0x1747 SWAP1 PUSH3 0x2735 JUMP JUMPDEST PUSH3 0x639 JUMPI DUP2 CODESIZE PUSH3 0x1734 JUMP JUMPDEST PUSH1 0x40 MLOAD RETURNDATASIZE DUP6 DUP3 RETURNDATACOPY RETURNDATASIZE SWAP1 REVERT JUMPDEST POP PUSH1 0x6 SLOAD PUSH1 0x1 PUSH1 0x1 PUSH1 0xA0 SHL SUB AND ISZERO PUSH3 0xF95 JUMP JUMPDEST PUSH1 0x40 MLOAD PUSH4 0xE523909 PUSH1 0xE4 SHL DUP2 MSTORE PUSH1 0x4 SWAP1 REVERT JUMPDEST PUSH1 0x0 DUP1 REVERT JUMPDEST POP CALLVALUE PUSH3 0x27A JUMPI DUP1 PUSH1 0x3 NOT CALLDATASIZE ADD SLT PUSH3 0x27A JUMPI PUSH1 0x3 SLOAD PUSH1 0x1 PUSH1 0x1 PUSH1 0xA0 SHL SUB DUP2 AND CALLER SUB PUSH3 0x411 JUMPI PUSH1 0xA0 SHR PUSH1 0xFF AND ISZERO PUSH3 0x3FF JUMPI PUSH1 0x1 SLOAD PUSH1 0xFF DUP2 AND ISZERO PUSH3 0x17FE JUMPI PUSH1 0xFF NOT AND PUSH1 0x1 SSTORE PUSH32 0x5DB9EE0A495BF2E6FF9C91A7834C1BA4FDD244A5E8AA4E537BD38AEAE4B073AA PUSH1 0x20 PUSH1 0x40 MLOAD CALLER DUP2 MSTORE LOG1 DUP1 RETURN JUMPDEST PUSH1 0x40 MLOAD PUSH3 0x461BCD PUSH1 0xE5 SHL DUP2 MSTORE PUSH1 0x20 PUSH1 0x4 DUP3 ADD MSTORE PUSH1 0x14 PUSH1 0x24 DUP3 ADD MSTORE PUSH20 0x14185D5CD8589B194E881B9BDD081C185D5CD959 PUSH1 0x62 SHL PUSH1 0x44 DUP3 ADD MSTORE PUSH1 0x64 SWAP1 REVERT JUMPDEST POP CALLVALUE PUSH3 0x27A JUMPI PUSH1 0xE0 CALLDATASIZE PUSH1 0x3 NOT ADD SLT PUSH3 0x27A JUMPI PUSH1 0x4 CALLDATALOAD PUSH3 0x185B PUSH3 0x2707 JUMP JUMPDEST SWAP1 PUSH1 0x44 CALLDATALOAD PUSH1 0x4 DUP2 LT ISZERO PUSH3 0xAFB JUMPI PUSH1 0x64 CALLDATALOAD SWAP3 PUSH1 0x3 DUP5 LT ISZERO PUSH3 0x19FC JUMPI PUSH1 0x84 CALLDATALOAD PUSH4 0xFFFFFFFF DUP2 AND SWAP2 DUP3 DUP3 SUB PUSH3 0x1785 JUMPI PUSH1 0xA4 CALLDATALOAD PUSH1 0x3 DUP2 LT ISZERO PUSH3 0x19F8 JUMPI PUSH3 0x18A1 PUSH3 0x2F67 JUMP JUMPDEST PUSH3 0x18AB PUSH3 0x2E92 JUMP JUMPDEST DUP6 DUP9 MSTORE PUSH1 0x7 PUSH1 0x20 MSTORE PUSH1 0x40 DUP9 KECCAK256 PUSH1 0x1 DUP2 ADD SLOAD PUSH1 0x1 PUSH1 0x1 PUSH1 0xA0 SHL SUB SWAP5 SWAP2 SWAP3 SWAP2 SWAP1 DUP6 AND ISZERO PUSH3 0x19DF JUMPI PUSH1 0x2 DUP4 ADD SWAP4 DUP5 SLOAD SWAP1 DUP7 DUP3 AND CALLER SUB PUSH3 0x19C0 JUMPI SWAP3 DUP11 PUSH3 0x1280 DUP9 SWAP7 SWAP5 PUSH3 0x1967 SWAP5 PUSH32 0xF7E47866C964BBD057F40B818C03A0EED60D85FE9A473DF67ECB631B97AB5DB5 SWAP13 SWAP11 PUSH1 0x80 SWAP13 SWAP11 SWAP9 AND SWAP1 DUP2 PUSH3 0x19AB JUMPI JUMPDEST POP POP PUSH3 0x1940 PUSH1 0x5 DUP8 ADD SWAP4 PUSH3 0x1939 DUP13 DUP7 PUSH3 0x2EE4 JUMP JUMPDEST DUP5 PUSH3 0x2EFD JUMP JUMPDEST PUSH1 0x7 DUP7 ADD DUP1 SLOAD PUSH4 0xFFFFFFFF PUSH1 0xA0 SHL NOT AND PUSH1 0xA0 SWAP3 SWAP1 SWAP3 SHL PUSH4 0xFFFFFFFF PUSH1 0xA0 SHL AND SWAP2 SWAP1 SWAP2 OR SWAP1 SSTORE JUMP JUMPDEST PUSH1 0xC4 CALLDATALOAD PUSH1 0x6 DUP3 ADD SSTORE PUSH1 0x9 TIMESTAMP SWAP2 ADD SSTORE SLOAD AND SWAP6 PUSH3 0x1987 PUSH1 0x40 MLOAD DUP1 SWAP5 PUSH3 0x287D JUMP JUMPDEST PUSH3 0x1992 DUP2 PUSH3 0x288B JUMP JUMPDEST PUSH1 0x20 DUP4 ADD MSTORE PUSH1 0x40 DUP3 ADD MSTORE TIMESTAMP PUSH1 0x60 DUP3 ADD MSTORE LOG3 PUSH1 0x1 PUSH1 0x2 SSTORE DUP1 RETURN JUMPDEST PUSH1 0x1 PUSH1 0x1 PUSH1 0xA0 SHL SUB NOT AND OR DUP8 SSTORE CODESIZE DUP1 PUSH3 0x1922 JUMP JUMPDEST PUSH1 0x40 MLOAD PUSH4 0x3A2A051 PUSH1 0xE1 SHL DUP2 MSTORE PUSH1 0x4 DUP2 ADD DUP12 SWAP1 MSTORE CALLER PUSH1 0x24 DUP3 ADD MSTORE PUSH1 0x44 SWAP1 REVERT JUMPDEST PUSH1 0x40 MLOAD PUSH4 0xF708DFA7 PUSH1 0xE0 SHL DUP2 MSTORE PUSH1 0x4 DUP2 ADD DUP10 SWAP1 MSTORE PUSH1 0x24 SWAP1 REVERT JUMPDEST DUP8 DUP1 REVERT JUMPDEST DUP5 DUP1 REVERT JUMPDEST POP CALLVALUE PUSH3 0x27A JUMPI PUSH1 0x40 CALLDATASIZE PUSH1 0x3 NOT ADD SLT PUSH3 0x27A JUMPI PUSH1 0x4 CALLDATALOAD PUSH3 0x1A21 PUSH3 0x2707 JUMP JUMPDEST SWAP1 PUSH3 0x1A2C PUSH3 0x2F67 JUMP JUMPDEST PUSH3 0x1A36 PUSH3 0x2E92 JUMP JUMPDEST DUP1 DUP4 MSTORE PUSH1 0x20 SWAP1 PUSH1 0x7 DUP3 MSTORE PUSH1 0x40 DUP5 KECCAK256 SWAP3 PUSH1 0x1 DUP1 PUSH1 0xA0 SHL SUB SWAP3 PUSH1 0x1 SWAP5 DUP5 DUP7 DUP3 ADD SLOAD AND ISZERO PUSH3 0xB66 JUMPI DUP4 DUP8 MSTORE PUSH1 0xA DUP3 MSTORE DUP6 PUSH1 0xFF PUSH1 0x40 DUP10 KECCAK256 SLOAD AND PUSH3 0x1A77 DUP2 PUSH3 0x288B JUMP JUMPDEST SUB PUSH3 0x1CB2 JUMPI PUSH1 0x5 DUP2 ADD SLOAD SWAP3 PUSH1 0xFF DUP5 PUSH1 0x8 SHR AND PUSH3 0x1A95 DUP2 PUSH3 0x288B JUMP JUMPDEST PUSH1 0x2 DUP2 EQ DUP1 PUSH3 0x1CA1 JUMPI JUMPDEST PUSH3 0x1C82 JUMPI PUSH4 0xFFFFFFFF PUSH1 0x7 DUP5 ADD SLOAD PUSH1 0xA0 SHR AND DUP1 ISZERO ISZERO DUP1 PUSH3 0x1C6C JUMPI JUMPDEST PUSH3 0x1C4E JUMPI POP DUP1 PUSH3 0x1AD0 DUP10 SWAP3 PUSH3 0x288B JUMP JUMPDEST SUB PUSH3 0x1C46 JUMPI PUSH1 0x2 SWAP2 JUMPDEST PUSH1 0xFF DUP10 SWAP6 PUSH1 0x10 SHR AND PUSH3 0x1AED DUP2 PUSH3 0x288B JUMP JUMPDEST ISZERO ISZERO DUP1 PUSH3 0x1C38 JUMPI JUMPDEST PUSH3 0x1C2B JUMPI JUMPDEST POP DUP5 PUSH1 0x0 MSTORE PUSH1 0x8 DUP4 MSTORE PUSH1 0x40 PUSH1 0x0 KECCAK256 SWAP6 DUP2 AND SWAP6 DUP7 PUSH1 0x0 MSTORE DUP4 MSTORE DUP7 PUSH1 0x40 PUSH1 0x0 KECCAK256 ADD SLOAD PUSH3 0x1C01 JUMPI POP DUP4 PUSH1 0x0 MSTORE PUSH1 0x9 DUP3 MSTORE PUSH3 0x1B3A DUP6 PUSH1 0x40 PUSH1 0x0 KECCAK256 PUSH3 0x3070 JUMP JUMPDEST POP PUSH1 0x40 MLOAD SWAP3 PUSH3 0x1B4A DUP5 PUSH3 0x277C JUMP JUMPDEST PUSH3 0x1B56 DUP3 DUP6 PUSH3 0x3210 JUMP JUMPDEST DUP3 DUP5 ADD SWAP3 TIMESTAMP DUP5 MSTORE PUSH1 0x40 DUP6 ADD SWAP5 DUP3 DUP7 MSTORE PUSH1 0x60 DUP2 ADD PUSH1 0x0 DUP2 MSTORE PUSH1 0x80 DUP3 ADD PUSH1 0x0 DUP2 MSTORE DUP9 PUSH1 0x0 MSTORE PUSH1 0x8 DUP5 MSTORE PUSH1 0x40 PUSH1 0x0 KECCAK256 DUP11 PUSH1 0x0 MSTORE DUP5 MSTORE PUSH1 0x40 PUSH1 0x0 KECCAK256 SWAP3 MLOAD SWAP2 PUSH1 0x6 DUP4 LT ISZERO PUSH3 0x149C JUMPI PUSH32 0x339E6F1051E81B2167F634EDF22C19AFC661B87CC385EAD8AAE7E6863548A410 SWAP9 PUSH1 0x60 SWAP9 PUSH3 0x1BCD PUSH1 0x4 SWAP6 DUP8 PUSH3 0x31F7 JUMP JUMPDEST MLOAD DUP14 DUP7 ADD SSTORE MLOAD PUSH1 0x2 DUP6 ADD SSTORE MLOAD PUSH1 0x3 DUP5 ADD SSTORE MLOAD SWAP2 ADD SSTORE PUSH3 0x1BF1 PUSH1 0x40 MLOAD DUP1 SWAP5 PUSH3 0x2896 JUMP JUMPDEST DUP3 ADD MSTORE TIMESTAMP PUSH1 0x40 DUP3 ADD MSTORE LOG3 PUSH1 0x2 SSTORE DUP1 RETURN JUMPDEST PUSH1 0x40 MLOAD PUSH4 0x392D9D83 PUSH1 0xE1 SHL DUP2 MSTORE PUSH1 0x4 DUP2 ADD DUP7 SWAP1 MSTORE PUSH1 0x1 PUSH1 0x1 PUSH1 0xA0 SHL SUB SWAP2 SWAP1 SWAP2 AND PUSH1 0x24 DUP3 ADD MSTORE PUSH1 0x44 SWAP1 REVERT JUMPDEST PUSH1 0x6 ADD SLOAD SWAP4 POP CODESIZE PUSH3 0x1AFC JUMP JUMPDEST POP PUSH1 0x6 DUP2 ADD SLOAD ISZERO ISZERO PUSH3 0x1AF6 JUMP JUMPDEST DUP7 SWAP2 PUSH3 0x1ADA JUMP JUMPDEST DUP7 PUSH1 0x44 SWAP2 PUSH1 0x40 MLOAD SWAP2 PUSH4 0xAB1B44B7 PUSH1 0xE0 SHL DUP4 MSTORE PUSH1 0x4 DUP4 ADD MSTORE PUSH1 0x24 DUP3 ADD MSTORE REVERT JUMPDEST POP DUP7 DUP11 MSTORE PUSH1 0x9 DUP6 MSTORE DUP1 PUSH1 0x40 DUP12 KECCAK256 SLOAD LT ISZERO PUSH3 0x1ABD JUMP JUMPDEST PUSH1 0x40 MLOAD PUSH4 0x3A2A051 PUSH1 0xE1 SHL DUP2 MSTORE PUSH1 0x4 DUP2 ADD DUP8 SWAP1 MSTORE CALLER PUSH1 0x24 DUP3 ADD MSTORE PUSH1 0x44 SWAP1 REVERT JUMPDEST POP DUP7 PUSH1 0x2 DUP5 ADD SLOAD AND CALLER EQ ISZERO PUSH3 0x1AA0 JUMP JUMPDEST PUSH1 0x40 MLOAD PUSH4 0x3AEB474B PUSH1 0xE0 SHL DUP2 MSTORE PUSH1 0x4 DUP2 ADD DUP6 SWAP1 MSTORE PUSH1 0x24 SWAP1 REVERT JUMPDEST POP CALLVALUE PUSH3 0x27A JUMPI DUP1 PUSH1 0x3 NOT CALLDATASIZE ADD SLT PUSH3 0x27A JUMPI PUSH3 0x1CE8 PUSH3 0x28A4 JUMP JUMPDEST PUSH1 0xFF PUSH1 0x3 SLOAD PUSH1 0xA0 SHR AND ISZERO PUSH3 0x3FF JUMPI PUSH1 0x1 SLOAD PUSH1 0xFF DUP2 AND ISZERO PUSH3 0x17FE JUMPI PUSH1 0xFF NOT AND PUSH1 0x1 SSTORE PUSH32 0x5DB9EE0A495BF2E6FF9C91A7834C1BA4FDD244A5E8AA4E537BD38AEAE4B073AA PUSH1 0x20 PUSH1 0x40 MLOAD CALLER DUP2 MSTORE LOG1 DUP1 RETURN JUMPDEST POP CALLVALUE PUSH3 0x27A JUMPI DUP1 PUSH1 0x3 NOT CALLDATASIZE ADD SLT PUSH3 0x27A JUMPI PUSH1 0x20 PUSH1 0xFF PUSH1 0x3 SLOAD PUSH1 0xA0 SHR AND PUSH1 0x40 MLOAD SWAP1 ISZERO ISZERO DUP2 MSTORE RETURN JUMPDEST POP CALLVALUE PUSH3 0x27A JUMPI PUSH1 0x40 CALLDATASIZE PUSH1 0x3 NOT ADD SLT PUSH3 0x27A JUMPI PUSH3 0x1D7E PUSH3 0x2707 JUMP JUMPDEST CALLER PUSH1 0x1 PUSH1 0x1 PUSH1 0xA0 SHL SUB DUP3 AND SUB PUSH3 0x1D9D JUMPI PUSH3 0x468 SWAP1 PUSH1 0x4 CALLDATALOAD PUSH3 0x2BEE JUMP JUMPDEST PUSH1 0x40 MLOAD PUSH3 0x461BCD PUSH1 0xE5 SHL DUP2 MSTORE PUSH1 0x20 PUSH1 0x4 DUP3 ADD MSTORE PUSH1 0x2F PUSH1 0x24 DUP3 ADD MSTORE PUSH32 0x416363657373436F6E74726F6C3A2063616E206F6E6C792072656E6F756E6365 PUSH1 0x44 DUP3 ADD MSTORE PUSH15 0x103937B632B9903337B91039B2B633 PUSH1 0x89 SHL PUSH1 0x64 DUP3 ADD MSTORE PUSH1 0x84 SWAP1 REVERT JUMPDEST POP CALLVALUE PUSH3 0x27A JUMPI PUSH1 0x40 CALLDATASIZE PUSH1 0x3 NOT ADD SLT PUSH3 0x27A JUMPI PUSH1 0x4 CALLDATALOAD PUSH1 0x24 CALLDATALOAD PUSH1 0x3 DUP2 LT ISZERO PUSH3 0xB0A JUMPI PUSH3 0x1E28 PUSH3 0x28A4 JUMP JUMPDEST DUP2 DUP4 MSTORE PUSH1 0x7 PUSH1 0x20 MSTORE PUSH1 0x40 DUP4 KECCAK256 PUSH1 0x1 DUP2 ADD SLOAD SWAP1 SWAP2 SWAP1 PUSH1 0x1 PUSH1 0x1 PUSH1 0xA0 SHL SUB AND ISZERO PUSH3 0x1F1A JUMPI PUSH32 0x964D0FF1C915BA70DEEDB74119EA25AB58A9EEB937D43F985E28CDAB434E97C SWAP2 PUSH1 0x60 SWAP2 DUP5 DUP7 MSTORE PUSH1 0xA PUSH1 0x20 MSTORE PUSH3 0x1EA9 DUP2 PUSH1 0x7 PUSH1 0x40 DUP10 KECCAK256 SWAP5 DUP6 SLOAD SWAP6 PUSH1 0xFF DUP8 AND SWAP7 PUSH3 0x1E97 DUP6 PUSH3 0x288B JUMP JUMPDEST PUSH1 0xFF NOT AND PUSH1 0xFF DUP6 AND OR SWAP1 SSTORE ADD PUSH3 0x2F41 JUMP JUMPDEST PUSH3 0x1EB4 DUP3 PUSH3 0x288B JUMP JUMPDEST DUP2 DUP7 MSTORE PUSH1 0xD PUSH1 0x20 MSTORE PUSH3 0x1ECB DUP6 PUSH1 0x40 DUP9 KECCAK256 PUSH3 0x30FA JUMP JUMPDEST POP PUSH3 0x1ED7 DUP2 PUSH3 0x288B JUMP JUMPDEST DUP1 DUP7 MSTORE PUSH1 0xD PUSH1 0x20 MSTORE PUSH3 0x1EEE DUP6 PUSH1 0x40 DUP9 KECCAK256 PUSH3 0x3070 JUMP JUMPDEST POP PUSH1 0x40 MLOAD SWAP2 PUSH3 0x1EFE DUP2 PUSH3 0x288B JUMP JUMPDEST DUP3 MSTORE PUSH3 0x1F0B DUP2 PUSH3 0x288B JUMP JUMPDEST PUSH1 0x20 DUP3 ADD MSTORE TIMESTAMP PUSH1 0x40 DUP3 ADD MSTORE LOG2 DUP1 RETURN JUMPDEST PUSH1 0x40 MLOAD PUSH4 0xF708DFA7 PUSH1 0xE0 SHL DUP2 MSTORE PUSH1 0x4 DUP2 ADD DUP5 SWAP1 MSTORE PUSH1 0x24 SWAP1 REVERT JUMPDEST POP CALLVALUE PUSH3 0x27A JUMPI PUSH1 0x40 CALLDATASIZE PUSH1 0x3 NOT ADD SLT PUSH3 0x27A JUMPI PUSH1 0x4 CALLDATALOAD PUSH3 0x1F54 PUSH3 0x2707 JUMP JUMPDEST DUP2 DUP4 MSTORE DUP3 PUSH1 0x20 MSTORE PUSH3 0x1F6D PUSH1 0x1 PUSH1 0x40 DUP6 KECCAK256 ADD SLOAD PUSH3 0x2AD1 JUMP JUMPDEST DUP2 PUSH1 0x0 MSTORE PUSH1 0x0 PUSH1 0x20 MSTORE PUSH1 0x40 PUSH1 0x0 KECCAK256 SWAP1 PUSH1 0x1 DUP1 PUSH1 0xA0 SHL SUB AND SWAP1 DUP2 PUSH1 0x0 MSTORE PUSH1 0x20 MSTORE PUSH1 0xFF PUSH1 0x40 PUSH1 0x0 KECCAK256 SLOAD AND ISZERO PUSH3 0x1F9F JUMPI DUP3 DUP1 RETURN JUMPDEST DUP2 PUSH1 0x0 MSTORE PUSH1 0x0 PUSH1 0x20 MSTORE PUSH1 0x40 PUSH1 0x0 KECCAK256 DUP2 PUSH1 0x0 MSTORE PUSH1 0x20 MSTORE PUSH1 0x40 PUSH1 0x0 KECCAK256 PUSH1 0x1 PUSH1 0xFF NOT DUP3 SLOAD AND OR SWAP1 SSTORE CALLER SWAP2 PUSH32 0x2F8788117E7EFF1D82E926EC794901D17C78024A50270940304540A733656F0D PUSH1 0x0 DUP1 LOG4 CODESIZE DUP1 DUP3 DUP1 RETURN JUMPDEST POP CALLVALUE PUSH3 0x27A JUMPI PUSH1 0x20 CALLDATASIZE PUSH1 0x3 NOT ADD SLT PUSH3 0x27A JUMPI PUSH1 0x1 PUSH1 0x40 PUSH1 0x20 SWAP3 PUSH1 0x4 CALLDATALOAD DUP2 MSTORE DUP1 DUP5 MSTORE KECCAK256 ADD SLOAD PUSH1 0x40 MLOAD SWAP1 DUP2 MSTORE RETURN JUMPDEST POP CALLVALUE PUSH3 0x27A JUMPI PUSH1 0x20 CALLDATASIZE PUSH1 0x3 NOT ADD SLT PUSH3 0x27A JUMPI DUP1 PUSH1 0x40 SWAP2 PUSH2 0x1A0 DUP4 MLOAD PUSH3 0x2047 DUP2 PUSH3 0x275F JUMP JUMPDEST DUP3 DUP2 MSTORE DUP3 PUSH1 0x20 DUP3 ADD MSTORE DUP3 DUP6 DUP3 ADD MSTORE PUSH1 0x60 DUP1 DUP3 ADD MSTORE PUSH1 0x60 PUSH1 0x80 DUP3 ADD MSTORE DUP3 PUSH1 0xA0 DUP3 ADD MSTORE DUP3 PUSH1 0xC0 DUP3 ADD MSTORE DUP3 PUSH1 0xE0 DUP3 ADD MSTORE DUP3 PUSH2 0x100 DUP3 ADD MSTORE DUP3 PUSH2 0x120 DUP3 ADD MSTORE DUP3 PUSH2 0x140 DUP3 ADD MSTORE DUP3 PUSH2 0x160 DUP3 ADD MSTORE DUP3 PUSH2 0x180 DUP3 ADD MSTORE ADD MSTORE PUSH1 0x4 CALLDATALOAD DUP2 MSTORE PUSH1 0x7 PUSH1 0x20 MSTORE KECCAK256 PUSH1 0x9 PUSH1 0x40 MLOAD SWAP2 PUSH3 0x20B5 DUP4 PUSH3 0x275F JUMP JUMPDEST DUP1 SLOAD DUP4 MSTORE PUSH1 0x1 DUP2 ADD SLOAD PUSH1 0x1 PUSH1 0x1 PUSH1 0xA0 SHL SUB SWAP1 DUP2 AND PUSH1 0x20 DUP6 ADD MSTORE PUSH1 0x2 DUP3 ADD SLOAD AND PUSH1 0x40 DUP5 ADD MSTORE PUSH3 0x20E7 PUSH1 0x3 DUP3 ADD PUSH3 0x2DE0 JUMP JUMPDEST PUSH1 0x60 DUP5 ADD MSTORE PUSH3 0x20FA PUSH1 0x4 DUP3 ADD PUSH3 0x2DE0 JUMP JUMPDEST PUSH1 0x80 DUP5 ADD MSTORE PUSH1 0xFF PUSH1 0x5 DUP3 ADD SLOAD PUSH3 0x2117 DUP3 DUP3 AND PUSH1 0xA0 DUP8 ADD PUSH3 0x2ED7 JUMP JUMPDEST DUP2 DUP2 PUSH1 0x8 SHR AND PUSH3 0x2128 DUP2 PUSH3 0x288B JUMP JUMPDEST PUSH1 0xC0 DUP7 ADD MSTORE PUSH1 0x10 SHR AND PUSH3 0x213C DUP2 PUSH3 0x288B JUMP JUMPDEST PUSH1 0xE0 DUP5 ADD MSTORE PUSH1 0x6 DUP2 ADD SLOAD PUSH2 0x100 DUP5 ADD MSTORE PUSH1 0x7 DUP2 ADD SLOAD PUSH1 0x1 PUSH1 0x1 PUSH1 0xA0 SHL SUB DUP2 AND PUSH2 0x120 DUP6 ADD MSTORE PUSH1 0xA0 DUP2 SWAP1 SHR PUSH4 0xFFFFFFFF AND PUSH2 0x140 DUP6 ADD MSTORE PUSH1 0xFF SWAP1 PUSH3 0x2186 PUSH1 0xC0 DUP3 SWAP1 SHR DUP4 AND PUSH3 0x288B JUMP JUMPDEST PUSH1 0xC0 SHR AND PUSH2 0x160 DUP5 ADD MSTORE PUSH1 0x8 DUP2 ADD SLOAD PUSH2 0x180 DUP5 ADD MSTORE ADD SLOAD PUSH2 0x1A0 DUP3 ADD MSTORE PUSH1 0x40 MLOAD DUP1 SWAP2 PUSH1 0x20 DUP3 MSTORE DUP1 MLOAD PUSH1 0x20 DUP4 ADD MSTORE PUSH1 0x1 DUP1 PUSH1 0xA0 SHL SUB PUSH1 0x20 DUP3 ADD MLOAD AND PUSH1 0x40 DUP4 ADD MSTORE PUSH1 0x1 DUP1 PUSH1 0xA0 SHL SUB PUSH1 0x40 DUP3 ADD MLOAD AND PUSH1 0x60 DUP4 ADD MSTORE PUSH2 0x1A0 PUSH3 0x2212 PUSH3 0x21FB PUSH1 0x60 DUP5 ADD MLOAD PUSH2 0x1C0 PUSH1 0x80 DUP8 ADD MSTORE PUSH2 0x1E0 DUP7 ADD SWAP1 PUSH3 0x2856 JUMP JUMPDEST PUSH1 0x80 DUP5 ADD MLOAD DUP6 DUP3 SUB PUSH1 0x1F NOT ADD PUSH1 0xA0 DUP8 ADD MSTORE PUSH3 0x2856 JUMP JUMPDEST SWAP2 PUSH3 0x2227 PUSH1 0xA0 DUP3 ADD MLOAD PUSH1 0xC0 DUP7 ADD SWAP1 PUSH3 0x287D JUMP JUMPDEST PUSH1 0xC0 DUP2 ADD MLOAD PUSH3 0x2237 DUP2 PUSH3 0x288B JUMP JUMPDEST PUSH1 0xE0 DUP6 ADD MSTORE PUSH1 0xE0 DUP2 ADD MLOAD PUSH3 0x224C DUP2 PUSH3 0x288B JUMP JUMPDEST PUSH2 0x100 DUP6 ADD MSTORE PUSH2 0x100 DUP2 ADD MLOAD PUSH2 0x120 DUP6 ADD MSTORE PUSH1 0x1 DUP1 PUSH1 0xA0 SHL SUB PUSH2 0x120 DUP3 ADD MLOAD AND PUSH2 0x140 DUP6 ADD MSTORE PUSH4 0xFFFFFFFF PUSH2 0x140 DUP3 ADD MLOAD AND PUSH2 0x160 DUP6 ADD MSTORE PUSH2 0x160 DUP2 ADD MLOAD PUSH3 0x2295 DUP2 PUSH3 0x288B JUMP JUMPDEST PUSH2 0x180 DUP6 ADD MSTORE PUSH2 0x180 DUP2 ADD MLOAD DUP3 DUP6 ADD MSTORE ADD MLOAD PUSH2 0x1C0 DUP4 ADD MSTORE SUB SWAP1 RETURN JUMPDEST POP CALLVALUE PUSH3 0x27A JUMPI PUSH1 0xA0 CALLDATASIZE PUSH1 0x3 NOT ADD SLT PUSH3 0x27A JUMPI PUSH1 0x4 CALLDATALOAD PUSH3 0x22D2 PUSH3 0x2707 JUMP JUMPDEST SWAP1 PUSH1 0x44 CALLDATALOAD PUSH1 0x1 PUSH1 0x1 PUSH1 0xA0 SHL SUB DUP2 DUP2 AND SWAP3 SWAP2 DUP4 SWAP1 SUB PUSH3 0x19FC JUMPI PUSH1 0x64 CALLDATALOAD PUSH1 0x84 CALLDATALOAD PUSH1 0x1 PUSH1 0x1 PUSH1 0x40 SHL SUB DUP2 GT PUSH3 0x2479 JUMPI PUSH3 0x2310 SWAP1 CALLDATASIZE SWAP1 PUSH1 0x4 ADD PUSH3 0x27D6 JUMP JUMPDEST SWAP2 PUSH3 0x231B PUSH3 0x2F67 JUMP JUMPDEST PUSH3 0x2325 PUSH3 0x2E92 JUMP JUMPDEST DUP4 DUP8 MSTORE PUSH1 0x7 PUSH1 0x20 MSTORE PUSH1 0x40 DUP8 KECCAK256 DUP2 PUSH1 0x1 DUP3 ADD SLOAD AND ISZERO PUSH3 0x2460 JUMPI DUP2 PUSH1 0x2 DUP3 ADD SLOAD AND CALLER SUB PUSH3 0x2441 JUMPI DUP2 PUSH1 0x7 DUP10 SWAP3 ADD SLOAD AND SWAP7 DUP8 EXTCODESIZE ISZERO PUSH3 0x639 JUMPI PUSH1 0x40 MLOAD SWAP3 DUP4 SWAP2 PUSH4 0x11799DC9 PUSH1 0xE2 SHL DUP4 MSTORE AND SWAP8 DUP9 PUSH1 0x4 DUP4 ADD MSTORE DUP8 PUSH1 0x24 DUP4 ADD MSTORE DUP5 PUSH1 0x44 DUP4 ADD MSTORE PUSH1 0x80 PUSH1 0x64 DUP4 ADD MSTORE DUP2 DUP4 DUP2 PUSH3 0x239A PUSH1 0x84 DUP3 ADD DUP11 PUSH3 0x2856 JUMP JUMPDEST SUB SWAP3 GAS CALL DUP1 ISZERO PUSH3 0x2436 JUMPI PUSH3 0x23FE JUMPI JUMPDEST POP SWAP1 PUSH32 0x1A30243129FB6BC49485C6D9DBBF494656057845799B7AB9BA971352EA0BF14D SWAP2 PUSH3 0x23ED PUSH1 0x40 MLOAD SWAP3 DUP4 SWAP3 DUP4 MSTORE PUSH1 0x60 PUSH1 0x20 DUP5 ADD MSTORE PUSH1 0x60 DUP4 ADD SWAP1 PUSH3 0x2856 JUMP JUMPDEST TIMESTAMP PUSH1 0x40 DUP4 ADD MSTORE SUB SWAP1 LOG4 PUSH1 0x1 PUSH1 0x2 SSTORE DUP1 RETURN JUMPDEST SWAP6 PUSH3 0x242D PUSH32 0x1A30243129FB6BC49485C6D9DBBF494656057845799B7AB9BA971352EA0BF14D SWAP4 SWAP3 SWAP8 PUSH3 0x2735 JUMP JUMPDEST SWAP6 SWAP1 SWAP2 PUSH3 0x23AB JUMP JUMPDEST PUSH1 0x40 MLOAD RETURNDATASIZE DUP10 DUP3 RETURNDATACOPY RETURNDATASIZE SWAP1 REVERT JUMPDEST PUSH1 0x40 MLOAD PUSH4 0x3A2A051 PUSH1 0xE1 SHL DUP2 MSTORE PUSH1 0x4 DUP2 ADD DUP7 SWAP1 MSTORE CALLER PUSH1 0x24 DUP3 ADD MSTORE PUSH1 0x44 SWAP1 REVERT JUMPDEST PUSH1 0x40 MLOAD PUSH4 0xF708DFA7 PUSH1 0xE0 SHL DUP2 MSTORE PUSH1 0x4 DUP2 ADD DUP7 SWAP1 MSTORE PUSH1 0x24 SWAP1 REVERT JUMPDEST DUP7 DUP1 REVERT JUMPDEST POP CALLVALUE PUSH3 0x27A JUMPI PUSH1 0x60 CALLDATASIZE PUSH1 0x3 NOT ADD SLT PUSH3 0x27A JUMPI PUSH1 0x4 CALLDATALOAD PUSH3 0x249E PUSH3 0x2707 JUMP JUMPDEST SWAP1 PUSH1 0x44 CALLDATALOAD SWAP2 PUSH1 0x6 DUP4 LT ISZERO PUSH3 0xAFB JUMPI PUSH3 0x24B7 PUSH3 0x2F67 JUMP JUMPDEST PUSH3 0x24C1 PUSH3 0x2E92 JUMP JUMPDEST DUP2 DUP5 MSTORE PUSH1 0x7 PUSH1 0x20 MSTORE PUSH1 0x40 DUP5 KECCAK256 PUSH1 0x1 DUP2 ADD SLOAD SWAP1 SWAP4 SWAP1 PUSH1 0x1 PUSH1 0x1 PUSH1 0xA0 SHL SUB SWAP1 DUP2 AND ISZERO PUSH3 0xB66 JUMPI DUP4 DUP7 MSTORE PUSH1 0x8 PUSH1 0x20 MSTORE PUSH1 0x40 DUP7 KECCAK256 SWAP5 DUP2 DUP5 AND SWAP6 DUP7 DUP9 MSTORE PUSH1 0x20 MSTORE PUSH1 0x40 DUP8 KECCAK256 SWAP4 PUSH1 0x1 DUP6 ADD SLOAD ISZERO PUSH3 0x257D JUMPI POP PUSH1 0x2 ADD SLOAD AND CALLER SUB PUSH3 0xB0E JUMPI DUP2 PUSH3 0x256E DUP3 PUSH3 0x2554 PUSH1 0x60 SWAP5 PUSH1 0xFF PUSH32 0xA0BB32FCE8B7CB6C25FF2A9B338C0E52C38D780F32FB9D786289FBE2D929A1F7 SWAP8 SLOAD AND SWAP5 PUSH3 0x31F7 JUMP JUMPDEST PUSH3 0x2563 PUSH1 0x40 MLOAD DUP1 SWAP5 PUSH3 0x2896 JUMP JUMPDEST PUSH1 0x20 DUP4 ADD SWAP1 PUSH3 0x2896 JUMP JUMPDEST TIMESTAMP PUSH1 0x40 DUP3 ADD MSTORE LOG3 PUSH1 0x1 PUSH1 0x2 SSTORE DUP1 RETURN JUMPDEST PUSH1 0x40 MLOAD PUSH4 0x3085325 PUSH1 0xE2 SHL DUP2 MSTORE PUSH1 0x4 DUP2 ADD DUP8 SWAP1 MSTORE PUSH1 0x1 PUSH1 0x1 PUSH1 0xA0 SHL SUB SWAP2 SWAP1 SWAP2 AND PUSH1 0x24 DUP3 ADD MSTORE PUSH1 0x44 SWAP1 REVERT JUMPDEST POP CALLVALUE PUSH3 0x27A JUMPI PUSH1 0x60 CALLDATASIZE PUSH1 0x3 NOT ADD SLT PUSH3 0x27A JUMPI PUSH1 0x20 SWAP1 PUSH3 0x25C8 PUSH3 0x2707 JUMP JUMPDEST PUSH1 0x4 CALLDATALOAD DUP3 MSTORE PUSH1 0xE DUP4 MSTORE PUSH1 0x40 DUP3 KECCAK256 SWAP1 PUSH1 0x1 DUP1 PUSH1 0xA0 SHL SUB AND DUP3 MSTORE DUP3 MSTORE PUSH1 0x40 PUSH1 0x44 CALLDATALOAD SWAP2 KECCAK256 SLOAD EQ PUSH1 0x40 MLOAD SWAP1 DUP2 MSTORE RETURN JUMPDEST POP CALLVALUE PUSH3 0x27A JUMPI DUP1 PUSH1 0x3 NOT CALLDATASIZE ADD SLT PUSH3 0x27A JUMPI PUSH1 0x40 MLOAD PUSH1 0xB DUP1 SLOAD DUP1 DUP4 MSTORE SWAP1 DUP4 MSTORE PUSH1 0x20 DUP1 DUP4 ADD SWAP4 PUSH32 0x175B7A638427703F0DBE7BB9BBF987A2551717B34E79F33B5B1008D1FA01DB9 SWAP3 SWAP2 JUMPDEST DUP3 DUP3 LT PUSH3 0x2658 JUMPI PUSH3 0x735 DUP6 PUSH3 0x728 DUP2 DUP10 SUB DUP3 PUSH3 0x27B4 JUMP JUMPDEST DUP4 SLOAD DUP7 MSTORE SWAP5 DUP6 ADD SWAP5 PUSH1 0x1 SWAP4 DUP5 ADD SWAP4 SWAP1 SWAP2 ADD SWAP1 PUSH3 0x263D JUMP JUMPDEST SWAP1 POP CALLVALUE PUSH3 0x639 JUMPI PUSH1 0x20 CALLDATASIZE PUSH1 0x3 NOT ADD SLT PUSH3 0x639 JUMPI PUSH1 0x4 CALLDATALOAD PUSH4 0xFFFFFFFF PUSH1 0xE0 SHL DUP2 AND DUP1 SWAP2 SUB PUSH3 0xB0A JUMPI PUSH1 0x20 SWAP3 POP PUSH4 0x7965DB0B PUSH1 0xE0 SHL DUP2 EQ SWAP1 DUP2 ISZERO PUSH3 0x26B8 JUMPI JUMPDEST POP ISZERO ISZERO DUP2 MSTORE RETURN JUMPDEST PUSH4 0x1FFC9A7 PUSH1 0xE0 SHL EQ SWAP1 POP CODESIZE PUSH3 0x26B1 JUMP JUMPDEST PUSH1 0x20 SWAP1 DUP2 PUSH1 0x40 DUP2 DUP4 ADD SWAP3 DUP3 DUP2 MSTORE DUP6 MLOAD DUP1 SWAP5 MSTORE ADD SWAP4 ADD SWAP2 PUSH1 0x0 JUMPDEST DUP3 DUP2 LT PUSH3 0x26F2 JUMPI POP POP POP POP SWAP1 JUMP JUMPDEST DUP4 MLOAD DUP6 MSTORE SWAP4 DUP2 ADD SWAP4 SWAP3 DUP2 ADD SWAP3 PUSH1 0x1 ADD PUSH3 0x26E3 JUMP JUMPDEST PUSH1 0x24 CALLDATALOAD SWAP1 PUSH1 0x1 PUSH1 0x1 PUSH1 0xA0 SHL SUB DUP3 AND DUP3 SUB PUSH3 0x1785 JUMPI JUMP JUMPDEST PUSH1 0x4 CALLDATALOAD SWAP1 PUSH1 0x1 PUSH1 0x1 PUSH1 0xA0 SHL SUB DUP3 AND DUP3 SUB PUSH3 0x1785 JUMPI JUMP JUMPDEST PUSH1 0x1 PUSH1 0x1 PUSH1 0x40 SHL SUB DUP2 GT PUSH3 0x2749 JUMPI PUSH1 0x40 MSTORE JUMP JUMPDEST PUSH4 0x4E487B71 PUSH1 0xE0 SHL PUSH1 0x0 MSTORE PUSH1 0x41 PUSH1 0x4 MSTORE PUSH1 0x24 PUSH1 0x0 REVERT JUMPDEST PUSH2 0x1C0 DUP2 ADD SWAP1 DUP2 LT PUSH1 0x1 PUSH1 0x1 PUSH1 0x40 SHL SUB DUP3 GT OR PUSH3 0x2749 JUMPI PUSH1 0x40 MSTORE JUMP JUMPDEST PUSH1 0xA0 DUP2 ADD SWAP1 DUP2 LT PUSH1 0x1 PUSH1 0x1 PUSH1 0x40 SHL SUB DUP3 GT OR PUSH3 0x2749 JUMPI PUSH1 0x40 MSTORE JUMP JUMPDEST PUSH1 0x80 DUP2 ADD SWAP1 DUP2 LT PUSH1 0x1 PUSH1 0x1 PUSH1 0x40 SHL SUB DUP3 GT OR PUSH3 0x2749 JUMPI PUSH1 0x40 MSTORE JUMP JUMPDEST SWAP1 PUSH1 0x1F DUP1 NOT SWAP2 ADD AND DUP2 ADD SWAP1 DUP2 LT PUSH1 0x1 PUSH1 0x1 PUSH1 0x40 SHL SUB DUP3 GT OR PUSH3 0x2749 JUMPI PUSH1 0x40 MSTORE JUMP JUMPDEST DUP2 PUSH1 0x1F DUP3 ADD SLT ISZERO PUSH3 0x1785 JUMPI DUP1 CALLDATALOAD SWAP1 PUSH1 0x1 PUSH1 0x1 PUSH1 0x40 SHL SUB DUP3 GT PUSH3 0x2749 JUMPI PUSH1 0x40 MLOAD SWAP3 PUSH3 0x280E PUSH1 0x1F DUP5 ADD PUSH1 0x1F NOT AND PUSH1 0x20 ADD DUP6 PUSH3 0x27B4 JUMP JUMPDEST DUP3 DUP5 MSTORE PUSH1 0x20 DUP4 DUP4 ADD ADD GT PUSH3 0x1785 JUMPI DUP2 PUSH1 0x0 SWAP3 PUSH1 0x20 DUP1 SWAP4 ADD DUP4 DUP7 ADD CALLDATACOPY DUP4 ADD ADD MSTORE SWAP1 JUMP JUMPDEST PUSH1 0x0 JUMPDEST DUP4 DUP2 LT PUSH3 0x2845 JUMPI POP POP PUSH1 0x0 SWAP2 ADD MSTORE JUMP JUMPDEST DUP2 DUP2 ADD MLOAD DUP4 DUP3 ADD MSTORE PUSH1 0x20 ADD PUSH3 0x2834 JUMP JUMPDEST SWAP1 PUSH1 0x20 SWAP2 PUSH3 0x2871 DUP2 MLOAD DUP1 SWAP3 DUP2 DUP6 MSTORE DUP6 DUP1 DUP7 ADD SWAP2 ADD PUSH3 0x2831 JUMP JUMPDEST PUSH1 0x1F ADD PUSH1 0x1F NOT AND ADD ADD SWAP1 JUMP JUMPDEST SWAP1 PUSH1 0x4 DUP3 LT ISZERO PUSH3 0x149C JUMPI MSTORE JUMP JUMPDEST PUSH1 0x3 GT ISZERO PUSH3 0x149C JUMPI JUMP JUMPDEST SWAP1 PUSH1 0x6 DUP3 LT ISZERO PUSH3 0x149C JUMPI MSTORE JUMP JUMPDEST CALLER PUSH1 0x0 SWAP1 DUP2 MSTORE PUSH32 0x7D7FFB7A348E1C6A02869081A26547B49160DD3DF72D1D75A570EB9B698292EC PUSH1 0x20 SWAP1 DUP2 MSTORE PUSH1 0x40 DUP1 DUP4 KECCAK256 SLOAD SWAP1 SWAP3 PUSH32 0xA49807205CE4D355092EF5A8A18F56E8913CF4A201FBE287825B095693C21775 SWAP2 PUSH1 0xFF AND ISZERO PUSH3 0x2909 JUMPI POP POP POP POP JUMP JUMPDEST PUSH3 0x2914 CALLER PUSH3 0x2C8B JUMP JUMPDEST SWAP2 DUP5 MLOAD SWAP1 PUSH3 0x2923 DUP3 PUSH3 0x2798 JUMP JUMPDEST PUSH1 0x42 DUP3 MSTORE DUP5 DUP3 ADD SWAP3 PUSH1 0x60 CALLDATASIZE DUP6 CALLDATACOPY DUP3 MLOAD ISZERO PUSH3 0x2ABD JUMPI PUSH1 0x30 DUP5 MSTORE8 DUP3 MLOAD SWAP1 PUSH1 0x1 SWAP2 DUP3 LT ISZERO PUSH3 0x2ABD JUMPI SWAP1 PUSH1 0x78 PUSH1 0x21 DUP6 ADD MSTORE8 PUSH1 0x41 SWAP2 JUMPDEST DUP2 DUP4 GT PUSH3 0x2A4A JUMPI POP POP POP PUSH3 0x2A08 JUMPI PUSH1 0x48 PUSH3 0xB2D SWAP4 DUP7 SWAP4 PUSH3 0x29EB SWAP4 PUSH3 0x29DB SWAP9 MLOAD SWAP9 DUP10 SWAP4 PUSH23 0x20B1B1B2B9B9A1B7B73A3937B61D1030B1B1B7BAB73A1 PUSH1 0x4D SHL DUP11 DUP7 ADD MSTORE PUSH3 0x29B1 DUP2 MLOAD DUP1 SWAP3 DUP13 PUSH1 0x37 DUP10 ADD SWAP2 ADD PUSH3 0x2831 JUMP JUMPDEST DUP5 ADD SWAP2 PUSH17 0x1034B99036B4B9B9B4B733903937B6329 PUSH1 0x7D SHL PUSH1 0x37 DUP5 ADD MSTORE MLOAD DUP1 SWAP4 DUP7 DUP5 ADD SWAP1 PUSH3 0x2831 JUMP JUMPDEST ADD SUB PUSH1 0x28 DUP2 ADD DUP8 MSTORE ADD DUP6 PUSH3 0x27B4 JUMP JUMPDEST MLOAD SWAP3 DUP4 SWAP3 PUSH3 0x461BCD PUSH1 0xE5 SHL DUP5 MSTORE PUSH1 0x4 DUP5 ADD MSTORE PUSH1 0x24 DUP4 ADD SWAP1 PUSH3 0x2856 JUMP JUMPDEST PUSH1 0x64 DUP5 DUP7 MLOAD SWAP1 PUSH3 0x461BCD PUSH1 0xE5 SHL DUP3 MSTORE DUP1 PUSH1 0x4 DUP4 ADD MSTORE PUSH1 0x24 DUP3 ADD MSTORE PUSH32 0x537472696E67733A20686578206C656E67746820696E73756666696369656E74 PUSH1 0x44 DUP3 ADD MSTORE REVERT JUMPDEST SWAP1 SWAP2 SWAP3 PUSH1 0xF DUP2 AND PUSH1 0x10 DUP2 LT ISZERO PUSH3 0x2AA9 JUMPI PUSH16 0x181899199A1A9B1B9C1CB0B131B232B3 PUSH1 0x81 SHL SWAP1 BYTE PUSH3 0x2A7D DUP6 DUP8 PUSH3 0x2C63 JUMP JUMPDEST MSTORE8 PUSH1 0x4 SHR SWAP3 DUP1 ISZERO PUSH3 0x2A95 JUMPI PUSH1 0x0 NOT ADD SWAP2 SWAP1 PUSH3 0x2956 JUMP JUMPDEST PUSH4 0x4E487B71 PUSH1 0xE0 SHL DUP3 MSTORE PUSH1 0x11 PUSH1 0x4 MSTORE PUSH1 0x24 DUP3 REVERT JUMPDEST PUSH4 0x4E487B71 PUSH1 0xE0 SHL DUP4 MSTORE PUSH1 0x32 PUSH1 0x4 MSTORE PUSH1 0x24 DUP4 REVERT JUMPDEST PUSH4 0x4E487B71 PUSH1 0xE0 SHL DUP2 MSTORE PUSH1 0x32 PUSH1 0x4 MSTORE PUSH1 0x24 SWAP1 REVERT JUMPDEST PUSH1 0x0 SWAP1 DUP1 DUP3 MSTORE PUSH1 0x20 SWAP1 DUP3 DUP3 MSTORE PUSH1 0x40 SWAP3 DUP4 DUP2 KECCAK256 CALLER DUP3 MSTORE DUP4 MSTORE PUSH1 0xFF DUP5 DUP3 KECCAK256 SLOAD AND ISZERO PUSH3 0x2AFB JUMPI POP POP POP POP JUMP JUMPDEST PUSH3 0x2B06 CALLER PUSH3 0x2C8B JUMP JUMPDEST SWAP2 DUP5 MLOAD SWAP1 PUSH3 0x2B15 DUP3 PUSH3 0x2798 JUMP JUMPDEST PUSH1 0x42 DUP3 MSTORE DUP5 DUP3 ADD SWAP3 PUSH1 0x60 CALLDATASIZE DUP6 CALLDATACOPY DUP3 MLOAD ISZERO PUSH3 0x2ABD JUMPI PUSH1 0x30 DUP5 MSTORE8 DUP3 MLOAD SWAP1 PUSH1 0x1 SWAP2 DUP3 LT ISZERO PUSH3 0x2ABD JUMPI SWAP1 PUSH1 0x78 PUSH1 0x21 DUP6 ADD MSTORE8 PUSH1 0x41 SWAP2 JUMPDEST DUP2 DUP4 GT PUSH3 0x2BA3 JUMPI POP POP POP PUSH3 0x2A08 JUMPI PUSH1 0x48 PUSH3 0xB2D SWAP4 DUP7 SWAP4 PUSH3 0x29EB SWAP4 PUSH3 0x29DB SWAP9 MLOAD SWAP9 DUP10 SWAP4 PUSH23 0x20B1B1B2B9B9A1B7B73A3937B61D1030B1B1B7BAB73A1 PUSH1 0x4D SHL DUP11 DUP7 ADD MSTORE PUSH3 0x29B1 DUP2 MLOAD DUP1 SWAP3 DUP13 PUSH1 0x37 DUP10 ADD SWAP2 ADD PUSH3 0x2831 JUMP JUMPDEST SWAP1 SWAP2 SWAP3 PUSH1 0xF DUP2 AND PUSH1 0x10 DUP2 LT ISZERO PUSH3 0x2AA9 JUMPI PUSH16 0x181899199A1A9B1B9C1CB0B131B232B3 PUSH1 0x81 SHL SWAP1 BYTE PUSH3 0x2BD6 DUP6 DUP8 PUSH3 0x2C63 JUMP JUMPDEST MSTORE8 PUSH1 0x4 SHR SWAP3 DUP1 ISZERO PUSH3 0x2A95 JUMPI PUSH1 0x0 NOT ADD SWAP2 SWAP1 PUSH3 0x2B48 JUMP JUMPDEST SWAP1 PUSH1 0x0 SWAP2 DUP1 DUP4 MSTORE DUP3 PUSH1 0x20 MSTORE PUSH1 0x40 DUP4 KECCAK256 SWAP2 PUSH1 0x1 DUP1 PUSH1 0xA0 SHL SUB AND SWAP2 DUP3 DUP5 MSTORE PUSH1 0x20 MSTORE PUSH1 0xFF PUSH1 0x40 DUP5 KECCAK256 SLOAD AND PUSH3 0x2C1F JUMPI POP POP POP JUMP JUMPDEST DUP1 DUP4 MSTORE DUP3 PUSH1 0x20 MSTORE PUSH1 0x40 DUP4 KECCAK256 DUP3 DUP5 MSTORE PUSH1 0x20 MSTORE PUSH1 0x40 DUP4 KECCAK256 PUSH1 0xFF NOT DUP2 SLOAD AND SWAP1 SSTORE PUSH32 0xF6391F5C32D9C69D2A47EA670B442974B53935D1EDC7FD64EB21E047A839171B CALLER SWAP4 DUP1 LOG4 JUMP JUMPDEST SWAP1 DUP2 MLOAD DUP2 LT ISZERO PUSH3 0x2C75 JUMPI ADD PUSH1 0x20 ADD SWAP1 JUMP JUMPDEST PUSH4 0x4E487B71 PUSH1 0xE0 SHL PUSH1 0x0 MSTORE PUSH1 0x32 PUSH1 0x4 MSTORE PUSH1 0x24 PUSH1 0x0 REVERT JUMPDEST PUSH1 0x40 MLOAD SWAP1 PUSH1 0x60 DUP3 ADD DUP3 DUP2 LT PUSH1 0x1 PUSH1 0x1 PUSH1 0x40 SHL SUB DUP3 GT OR PUSH3 0x2749 JUMPI PUSH1 0x40 MSTORE PUSH1 0x2A DUP3 MSTORE PUSH1 0x20 DUP3 ADD PUSH1 0x40 CALLDATASIZE DUP3 CALLDATACOPY DUP3 MLOAD ISZERO PUSH3 0x2C75 JUMPI PUSH1 0x30 SWAP1 MSTORE8 DUP2 MLOAD PUSH1 0x1 SWAP1 DUP2 LT ISZERO PUSH3 0x2C75 JUMPI PUSH1 0x78 PUSH1 0x21 DUP5 ADD MSTORE8 PUSH1 0x29 SWAP1 JUMPDEST DUP1 DUP3 GT PUSH3 0x2D30 JUMPI POP POP PUSH3 0x2CEC JUMPI SWAP1 JUMP JUMPDEST PUSH1 0x64 PUSH1 0x40 MLOAD PUSH3 0x461BCD PUSH1 0xE5 SHL DUP2 MSTORE PUSH1 0x20 PUSH1 0x4 DUP3 ADD MSTORE PUSH1 0x20 PUSH1 0x24 DUP3 ADD MSTORE PUSH32 0x537472696E67733A20686578206C656E67746820696E73756666696369656E74 PUSH1 0x44 DUP3 ADD MSTORE REVERT JUMPDEST SWAP1 SWAP2 PUSH1 0xF DUP2 AND PUSH1 0x10 DUP2 LT ISZERO PUSH3 0x2D8E JUMPI PUSH16 0x181899199A1A9B1B9C1CB0B131B232B3 PUSH1 0x81 SHL SWAP1 BYTE PUSH3 0x2D62 DUP5 DUP7 PUSH3 0x2C63 JUMP JUMPDEST MSTORE8 PUSH1 0x4 SHR SWAP2 DUP1 ISZERO PUSH3 0x2D79 JUMPI PUSH1 0x0 NOT ADD SWAP1 PUSH3 0x2CDA JUMP JUMPDEST PUSH1 0x24 PUSH1 0x0 PUSH4 0x4E487B71 PUSH1 0xE0 SHL DUP2 MSTORE PUSH1 0x11 PUSH1 0x4 MSTORE REVERT JUMPDEST PUSH1 0x24 PUSH1 0x0 PUSH4 0x4E487B71 PUSH1 0xE0 SHL DUP2 MSTORE PUSH1 0x32 PUSH1 0x4 MSTORE REVERT JUMPDEST SWAP1 PUSH1 0x1 DUP3 DUP2 SHR SWAP3 AND DUP1 ISZERO PUSH3 0x2DD5 JUMPI JUMPDEST PUSH1 0x20 DUP4 LT EQ PUSH3 0x2DBF JUMPI JUMP JUMPDEST PUSH4 0x4E487B71 PUSH1 0xE0 SHL PUSH1 0x0 MSTORE PUSH1 0x22 PUSH1 0x4 MSTORE PUSH1 0x24 PUSH1 0x0 REVERT JUMPDEST SWAP2 PUSH1 0x7F AND SWAP2 PUSH3 0x2DB3 JUMP JUMPDEST SWAP1 PUSH1 0x40 MLOAD SWAP2 DUP3 PUSH1 0x0 DUP3 SLOAD SWAP3 PUSH3 0x2DF6 DUP5 PUSH3 0x2DA3 JUMP JUMPDEST SWAP1 DUP2 DUP5 MSTORE PUSH1 0x1 SWAP5 DUP6 DUP2 AND SWAP1 DUP2 PUSH1 0x0 EQ PUSH3 0x2E6D JUMPI POP PUSH1 0x1 EQ PUSH3 0x2E26 JUMPI JUMPDEST POP POP PUSH3 0x2E24 SWAP3 POP SUB DUP4 PUSH3 0x27B4 JUMP JUMPDEST JUMP JUMPDEST SWAP1 SWAP4 SWAP2 POP PUSH1 0x0 MSTORE PUSH1 0x20 SWAP1 DUP2 PUSH1 0x0 KECCAK256 SWAP4 PUSH1 0x0 SWAP2 JUMPDEST DUP2 DUP4 LT PUSH3 0x2E54 JUMPI POP POP PUSH3 0x2E24 SWAP4 POP DUP3 ADD ADD CODESIZE DUP1 PUSH3 0x2E14 JUMP JUMPDEST DUP6 SLOAD DUP9 DUP5 ADD DUP6 ADD MSTORE SWAP5 DUP6 ADD SWAP5 DUP8 SWAP5 POP SWAP2 DUP4 ADD SWAP2 PUSH3 0x2E39 JUMP JUMPDEST SWAP2 POP POP PUSH3 0x2E24 SWAP5 POP PUSH1 0x20 SWAP3 POP PUSH1 0xFF NOT AND DUP3 DUP5 ADD MSTORE ISZERO ISZERO PUSH1 0x5 SHL DUP3 ADD ADD CODESIZE DUP1 PUSH3 0x2E14 JUMP JUMPDEST PUSH1 0xFF PUSH1 0x1 SLOAD AND PUSH3 0x2E9F JUMPI JUMP JUMPDEST PUSH1 0x40 MLOAD PUSH3 0x461BCD PUSH1 0xE5 SHL DUP2 MSTORE PUSH1 0x20 PUSH1 0x4 DUP3 ADD MSTORE PUSH1 0x10 PUSH1 0x24 DUP3 ADD MSTORE PUSH16 0x14185D5CD8589B194E881C185D5CD959 PUSH1 0x82 SHL PUSH1 0x44 DUP3 ADD MSTORE PUSH1 0x64 SWAP1 REVERT JUMPDEST PUSH1 0x4 DUP3 LT ISZERO PUSH3 0x149C JUMPI MSTORE JUMP JUMPDEST SWAP1 PUSH1 0x4 DUP2 LT ISZERO PUSH3 0x149C JUMPI PUSH1 0xFF DUP1 NOT DUP4 SLOAD AND SWAP2 AND OR SWAP1 SSTORE JUMP JUMPDEST SWAP1 PUSH3 0x2F09 DUP2 PUSH3 0x288B JUMP JUMPDEST PUSH2 0xFF00 DUP3 SLOAD SWAP2 PUSH1 0x8 SHL AND SWAP1 PUSH2 0xFF00 NOT AND OR SWAP1 SSTORE JUMP JUMPDEST SWAP1 PUSH3 0x2F2A DUP2 PUSH3 0x288B JUMP JUMPDEST PUSH3 0xFF0000 DUP3 SLOAD SWAP2 PUSH1 0x10 SHL AND SWAP1 PUSH3 0xFF0000 NOT AND OR SWAP1 SSTORE JUMP JUMPDEST SWAP1 PUSH3 0x2F4D DUP2 PUSH3 0x288B JUMP JUMPDEST DUP2 SLOAD PUSH1 0xFF PUSH1 0xC0 SHL NOT AND PUSH1 0xC0 SWAP2 SWAP1 SWAP2 SHL PUSH1 0xFF PUSH1 0xC0 SHL AND OR SWAP1 SSTORE JUMP JUMPDEST PUSH1 0x2 DUP1 SLOAD EQ PUSH3 0x2F77 JUMPI PUSH1 0x2 DUP1 SSTORE JUMP JUMPDEST PUSH1 0x40 MLOAD PUSH3 0x461BCD PUSH1 0xE5 SHL DUP2 MSTORE PUSH1 0x20 PUSH1 0x4 DUP3 ADD MSTORE PUSH1 0x1F PUSH1 0x24 DUP3 ADD MSTORE PUSH32 0x5265656E7472616E637947756172643A207265656E7472616E742063616C6C00 PUSH1 0x44 DUP3 ADD MSTORE PUSH1 0x64 SWAP1 REVERT JUMPDEST DUP1 SLOAD DUP3 LT ISZERO PUSH3 0x2C75 JUMPI PUSH1 0x0 MSTORE PUSH1 0x20 PUSH1 0x0 KECCAK256 ADD SWAP1 PUSH1 0x0 SWAP1 JUMP JUMPDEST PUSH1 0x0 DUP2 DUP2 MSTORE PUSH1 0xC PUSH1 0x20 MSTORE PUSH1 0x40 DUP2 KECCAK256 SLOAD PUSH3 0x306B JUMPI PUSH1 0xB SLOAD PUSH1 0x1 PUSH1 0x40 SHL DUP2 LT ISZERO PUSH3 0x3057 JUMPI PUSH1 0x1 DUP2 ADD DUP1 PUSH1 0xB SSTORE DUP2 LT ISZERO PUSH3 0x3043 JUMPI SWAP1 DUP3 PUSH1 0x40 SWAP3 PUSH32 0x175B7A638427703F0DBE7BB9BBF987A2551717B34E79F33B5B1008D1FA01DB9 ADD SSTORE PUSH1 0xB SLOAD SWAP3 DUP2 MSTORE PUSH1 0xC PUSH1 0x20 MSTORE KECCAK256 SSTORE PUSH1 0x1 SWAP1 JUMP JUMPDEST PUSH4 0x4E487B71 PUSH1 0xE0 SHL DUP3 MSTORE PUSH1 0x32 PUSH1 0x4 MSTORE PUSH1 0x24 DUP3 REVERT JUMPDEST PUSH4 0x4E487B71 PUSH1 0xE0 SHL DUP3 MSTORE PUSH1 0x41 PUSH1 0x4 MSTORE PUSH1 0x24 DUP3 REVERT JUMPDEST SWAP1 POP SWAP1 JUMP JUMPDEST SWAP2 SWAP1 PUSH1 0x1 DUP4 ADD PUSH1 0x0 SWAP1 DUP3 DUP3 MSTORE DUP1 PUSH1 0x20 MSTORE PUSH1 0x40 DUP3 KECCAK256 SLOAD ISZERO PUSH1 0x0 EQ PUSH3 0x30F4 JUMPI DUP5 SLOAD SWAP5 PUSH1 0x1 PUSH1 0x40 SHL DUP7 LT ISZERO PUSH3 0x30E0 JUMPI DUP4 PUSH3 0x30D0 PUSH3 0x30B9 DUP9 PUSH1 0x1 PUSH1 0x40 SWAP9 SWAP10 SWAP11 ADD DUP6 SSTORE DUP5 PUSH3 0x2FBC JUMP JUMPDEST DUP2 SWAP4 SWAP2 SLOAD SWAP1 PUSH1 0x3 SHL SWAP2 DUP3 SHL SWAP2 PUSH1 0x0 NOT SWAP1 SHL NOT AND OR SWAP1 JUMP JUMPDEST SWAP1 SSTORE SLOAD SWAP4 DUP3 MSTORE PUSH1 0x20 MSTORE KECCAK256 SSTORE PUSH1 0x1 SWAP1 JUMP JUMPDEST PUSH4 0x4E487B71 PUSH1 0xE0 SHL DUP4 MSTORE PUSH1 0x41 PUSH1 0x4 MSTORE PUSH1 0x24 DUP4 REVERT JUMPDEST POP SWAP3 POP POP JUMP JUMPDEST SWAP1 PUSH1 0x1 DUP3 ADD SWAP1 PUSH1 0x0 SWAP3 DUP2 DUP5 MSTORE DUP3 PUSH1 0x20 MSTORE PUSH1 0x40 DUP5 KECCAK256 SLOAD SWAP1 DUP2 ISZERO ISZERO PUSH1 0x0 EQ PUSH3 0x31F0 JUMPI PUSH1 0x0 NOT SWAP2 DUP1 DUP4 ADD DUP2 DUP2 GT PUSH3 0x31DC JUMPI DUP3 SLOAD SWAP1 DUP5 DUP3 ADD SWAP2 DUP3 GT PUSH3 0x31C8 JUMPI DUP1 DUP3 SUB PUSH3 0x318D JUMPI JUMPDEST POP POP POP DUP1 SLOAD DUP1 ISZERO PUSH3 0x3179 JUMPI DUP3 ADD SWAP2 PUSH3 0x315C DUP4 DUP4 PUSH3 0x2FBC JUMP JUMPDEST SWAP1 SWAP2 DUP3 SLOAD SWAP2 PUSH1 0x3 SHL SHL NOT AND SWAP1 SSTORE SSTORE DUP3 MSTORE PUSH1 0x20 MSTORE PUSH1 0x40 DUP2 KECCAK256 SSTORE PUSH1 0x1 SWAP1 JUMP JUMPDEST PUSH4 0x4E487B71 PUSH1 0xE0 SHL DUP7 MSTORE PUSH1 0x31 PUSH1 0x4 MSTORE PUSH1 0x24 DUP7 REVERT JUMPDEST PUSH3 0x31B2 PUSH3 0x31A1 PUSH3 0x30B9 SWAP4 DUP7 PUSH3 0x2FBC JUMP JUMPDEST SWAP1 SLOAD SWAP1 PUSH1 0x3 SHL SHR SWAP3 DUP4 SWAP3 DUP7 PUSH3 0x2FBC JUMP JUMPDEST SWAP1 SSTORE DUP7 MSTORE DUP5 PUSH1 0x20 MSTORE PUSH1 0x40 DUP7 KECCAK256 SSTORE CODESIZE DUP1 DUP1 PUSH3 0x3141 JUMP JUMPDEST PUSH4 0x4E487B71 PUSH1 0xE0 SHL DUP9 MSTORE PUSH1 0x11 PUSH1 0x4 MSTORE PUSH1 0x24 DUP9 REVERT JUMPDEST PUSH4 0x4E487B71 PUSH1 0xE0 SHL DUP8 MSTORE PUSH1 0x11 PUSH1 0x4 MSTORE PUSH1 0x24 DUP8 REVERT JUMPDEST POP POP POP POP SWAP1 JUMP JUMPDEST SWAP1 PUSH1 0x6 DUP2 LT ISZERO PUSH3 0x149C JUMPI PUSH1 0xFF DUP1 NOT DUP4 SLOAD AND SWAP2 AND OR SWAP1 SSTORE JUMP JUMPDEST PUSH1 0x6 DUP3 LT ISZERO PUSH3 0x149C JUMPI MSTORE JUMP JUMPDEST PUSH1 0x0 SWAP2 DUP2 DUP4 MSTORE PUSH1 0x20 SWAP1 PUSH1 0x7 DUP3 MSTORE PUSH1 0x40 DUP1 DUP6 KECCAK256 SWAP3 DUP2 MLOAD SWAP3 PUSH3 0x323E DUP5 PUSH3 0x275F JUMP JUMPDEST DUP5 SLOAD DUP5 MSTORE PUSH1 0x1 DUP6 ADD SLOAD PUSH1 0x1 PUSH1 0x1 PUSH1 0xA0 SHL SUB SWAP1 DUP2 AND DUP4 DUP7 ADD SWAP1 DUP2 MSTORE PUSH1 0x2 DUP8 ADD SLOAD DUP3 AND DUP6 DUP8 ADD MSTORE DUP2 SWAP1 PUSH3 0x3273 PUSH1 0x3 DUP10 ADD PUSH3 0x2DE0 JUMP JUMPDEST PUSH1 0x60 DUP9 ADD MSTORE PUSH3 0x3286 PUSH1 0x4 DUP10 ADD PUSH3 0x2DE0 JUMP JUMPDEST PUSH1 0x80 DUP9 ADD MSTORE PUSH1 0xFF PUSH1 0x5 DUP10 ADD SLOAD PUSH3 0x32A3 DUP3 DUP3 AND PUSH1 0xA0 DUP12 ADD PUSH3 0x2ED7 JUMP JUMPDEST DUP2 DUP2 PUSH1 0x8 SHR AND PUSH3 0x32B4 DUP2 PUSH3 0x288B JUMP JUMPDEST PUSH1 0xC0 DUP11 ADD MSTORE PUSH1 0x10 SHR AND PUSH3 0x32C8 DUP2 PUSH3 0x288B JUMP JUMPDEST PUSH1 0xE0 DUP9 ADD MSTORE PUSH1 0x6 DUP9 ADD SLOAD PUSH2 0x100 DUP9 ADD MSTORE PUSH1 0x7 DUP9 ADD SLOAD SWAP7 DUP3 DUP9 AND PUSH2 0x120 DUP3 ADD MSTORE PUSH2 0x1A0 PUSH1 0x9 PUSH2 0x140 DUP4 ADD SWAP11 PUSH1 0xFF PUSH4 0xFFFFFFFF SWAP12 DUP14 DUP14 DUP3 PUSH1 0xA0 SHR AND SWAP1 MSTORE PUSH1 0xC0 SHR AND PUSH3 0x3312 DUP2 PUSH3 0x288B JUMP JUMPDEST PUSH2 0x160 DUP6 ADD MSTORE PUSH1 0x8 DUP2 ADD SLOAD PUSH2 0x180 DUP6 ADD MSTORE ADD SLOAD SWAP2 ADD MSTORE MLOAD AND ISZERO PUSH3 0x33B1 JUMPI DUP7 DUP9 MSTORE PUSH1 0xA DUP4 MSTORE PUSH1 0x1 PUSH1 0xFF DUP6 DUP11 KECCAK256 SLOAD AND PUSH3 0x334B DUP2 PUSH3 0x288B JUMP JUMPDEST SUB PUSH3 0x33B1 JUMPI DUP7 DUP9 MSTORE PUSH1 0x8 DUP4 MSTORE DUP4 DUP9 KECCAK256 SWAP2 AND DUP8 MSTORE DUP2 MSTORE PUSH1 0x1 DUP3 DUP8 KECCAK256 ADD SLOAD PUSH3 0x33A9 JUMPI DUP3 DUP5 MLOAD AND ISZERO ISZERO SWAP5 DUP6 PUSH3 0x338E JUMPI JUMPDEST POP POP POP POP POP PUSH3 0x338B JUMPI POP PUSH1 0x1 SWAP1 JUMP JUMPDEST SWAP1 JUMP JUMPDEST DUP7 MSTORE PUSH1 0x9 SWAP1 MSTORE DUP5 KECCAK256 SLOAD SWAP2 MLOAD AND GT ISZERO SWAP1 POP CODESIZE DUP1 DUP1 DUP1 DUP1 PUSH3 0x337B JUMP JUMPDEST POP POP POP POP POP SWAP1 JUMP JUMPDEST POP POP POP POP POP POP POP SWAP1 JUMP JUMPDEST SWAP1 PUSH1 0x40 MLOAD SWAP2 DUP3 DUP2 SLOAD SWAP2 DUP3 DUP3 MSTORE PUSH1 0x20 SWAP3 DUP4 DUP4 ADD SWAP2 PUSH1 0x0 MSTORE DUP4 PUSH1 0x0 KECCAK256 SWAP4 PUSH1 0x0 SWAP1 JUMPDEST DUP3 DUP3 LT PUSH3 0x33F3 JUMPI POP POP POP PUSH3 0x2E24 SWAP3 POP SUB DUP4 PUSH3 0x27B4 JUMP JUMPDEST DUP6 SLOAD DUP5 MSTORE PUSH1 0x1 SWAP6 DUP7 ADD SWAP6 DUP9 SWAP6 POP SWAP4 DUP2 ADD SWAP4 SWAP1 SWAP2 ADD SWAP1 PUSH3 0x33DA JUMP INVALID PUSH1 0xC0 CALLVALUE PUSH3 0x2E8 JUMPI PUSH1 0x1F PUSH3 0x1FEA CODESIZE DUP2 SWAP1 SUB SWAP2 DUP3 ADD PUSH1 0x1F NOT AND DUP4 ADD SWAP3 SWAP2 SWAP1 PUSH1 0x1 PUSH1 0x1 PUSH1 0x40 SHL SUB DUP5 GT DUP4 DUP6 LT OR PUSH3 0x2ED JUMPI DUP2 PUSH1 0x60 SWAP3 DUP5 SWAP3 PUSH1 0x40 SWAP7 DUP8 MSTORE DUP4 CODECOPY DUP2 ADD SUB SLT PUSH3 0x2E8 JUMPI DUP1 MLOAD SWAP1 PUSH1 0x20 PUSH3 0x65 DUP5 PUSH3 0x5D DUP4 DUP6 ADD PUSH3 0x303 JUMP JUMPDEST SWAP4 ADD PUSH3 0x303 JUMP JUMPDEST PUSH1 0x1 DUP1 DUP1 SSTORE PUSH1 0x2 DUP1 SLOAD PUSH1 0xFF NOT SWAP1 DUP2 AND SWAP1 SWAP2 SSTORE PUSH1 0x1 PUSH1 0x1 PUSH1 0xA0 SHL SUB DUP1 DUP7 AND SWAP6 SWAP2 SWAP4 DUP7 ISZERO PUSH3 0x2A4 JUMPI AND SWAP6 DUP7 ISZERO PUSH3 0x270 JUMPI PUSH1 0x80 MSTORE PUSH1 0xA0 MSTORE PUSH1 0x0 SWAP5 DUP6 DUP1 MSTORE DUP6 DUP5 MSTORE DUP7 DUP7 KECCAK256 DUP2 DUP8 MSTORE DUP5 MSTORE PUSH1 0xFF DUP8 DUP8 KECCAK256 SLOAD AND ISZERO PUSH3 0x23B JUMPI JUMPDEST PUSH32 0xA49807205CE4D355092EF5A8A18F56E8913CF4A201FBE287825B095693C21775 SWAP1 DUP2 DUP8 MSTORE DUP7 DUP6 MSTORE DUP8 DUP8 KECCAK256 DUP2 DUP9 MSTORE DUP6 MSTORE PUSH1 0xFF DUP9 DUP9 KECCAK256 SLOAD AND ISZERO PUSH3 0x205 JUMPI JUMPDEST POP POP PUSH32 0x7434C6F201A551BFD17336985361933E0C4935B520DAC8A49D937B325F7D5C0A DUP1 DUP7 MSTORE DUP6 DUP5 MSTORE DUP7 DUP7 KECCAK256 DUP6 DUP8 MSTORE DUP5 MSTORE PUSH1 0xFF DUP8 DUP8 KECCAK256 SLOAD AND ISZERO PUSH3 0x1CF JUMPI JUMPDEST POP PUSH32 0x8F4F2DA22E8AC8F11E15F9FC141CDDBB5DEEA8800186560ABB6E68C5496619A9 SWAP3 DUP4 DUP7 MSTORE DUP6 DUP2 MSTORE DUP7 DUP7 KECCAK256 DUP6 DUP8 MSTORE DUP2 MSTORE PUSH1 0xFF DUP8 DUP8 KECCAK256 SLOAD AND ISZERO PUSH3 0x197 JUMPI JUMPDEST DUP7 MLOAD PUSH2 0x1CB1 SWAP1 DUP2 PUSH3 0x319 DUP3 CODECOPY PUSH1 0x80 MLOAD DUP2 PUSH2 0x5BE ADD MSTORE PUSH1 0xA0 MLOAD DUP2 PUSH2 0xAC9 ADD MSTORE RETURN JUMPDEST DUP4 DUP7 MSTORE DUP6 DUP2 MSTORE DUP7 DUP7 KECCAK256 SWAP1 DUP6 DUP8 MSTORE MSTORE DUP6 DUP6 KECCAK256 SWAP2 DUP3 SLOAD AND OR SWAP1 SSTORE PUSH1 0x0 DUP1 MLOAD PUSH1 0x20 PUSH3 0x1FCA DUP4 CODECOPY DUP2 MLOAD SWAP2 MSTORE CALLER SWAP4 DUP1 LOG4 CODESIZE DUP1 DUP1 DUP1 DUP1 DUP1 PUSH3 0x176 JUMP JUMPDEST DUP1 DUP7 MSTORE DUP6 DUP5 MSTORE DUP7 DUP7 KECCAK256 DUP6 DUP8 MSTORE DUP5 MSTORE DUP7 DUP7 KECCAK256 DUP3 DUP5 DUP3 SLOAD AND OR SWAP1 SSTORE DUP5 CALLER SWAP2 PUSH1 0x0 DUP1 MLOAD PUSH1 0x20 PUSH3 0x1FCA DUP4 CODECOPY DUP2 MLOAD SWAP2 MSTORE DUP9 DUP1 LOG4 CODESIZE PUSH3 0x137 JUMP JUMPDEST DUP2 DUP8 MSTORE DUP7 DUP6 MSTORE DUP8 DUP8 KECCAK256 DUP2 DUP9 MSTORE DUP6 MSTORE DUP8 DUP8 KECCAK256 DUP4 DUP6 DUP3 SLOAD AND OR SWAP1 SSTORE CALLER SWAP2 PUSH1 0x0 DUP1 MLOAD PUSH1 0x20 PUSH3 0x1FCA DUP4 CODECOPY DUP2 MLOAD SWAP2 MSTORE DUP9 DUP1 LOG4 CODESIZE DUP1 PUSH3 0xF8 JUMP JUMPDEST DUP6 DUP1 MSTORE DUP6 DUP5 MSTORE DUP7 DUP7 KECCAK256 DUP2 DUP8 MSTORE DUP5 MSTORE DUP7 DUP7 KECCAK256 DUP3 DUP5 DUP3 SLOAD AND OR SWAP1 SSTORE CALLER DUP2 DUP8 PUSH1 0x0 DUP1 MLOAD PUSH1 0x20 PUSH3 0x1FCA DUP4 CODECOPY DUP2 MLOAD SWAP2 MSTORE DUP2 DUP1 LOG4 PUSH3 0xBA JUMP JUMPDEST DUP8 MLOAD PUSH3 0x461BCD PUSH1 0xE5 SHL DUP2 MSTORE PUSH1 0x4 DUP2 ADD DUP7 SWAP1 MSTORE PUSH1 0xD PUSH1 0x24 DUP3 ADD MSTORE PUSH13 0x24B73B30B634B21030B236B4B7 PUSH1 0x99 SHL PUSH1 0x44 DUP3 ADD MSTORE PUSH1 0x64 SWAP1 REVERT JUMPDEST DUP9 MLOAD PUSH3 0x461BCD PUSH1 0xE5 SHL DUP2 MSTORE PUSH1 0x4 DUP2 ADD DUP8 SWAP1 MSTORE PUSH1 0x16 PUSH1 0x24 DUP3 ADD MSTORE PUSH32 0x496E76616C696420636F6E74726F6C206D6F64756C6500000000000000000000 PUSH1 0x44 DUP3 ADD MSTORE PUSH1 0x64 SWAP1 REVERT JUMPDEST PUSH1 0x0 DUP1 REVERT JUMPDEST PUSH4 0x4E487B71 PUSH1 0xE0 SHL PUSH1 0x0 MSTORE PUSH1 0x41 PUSH1 0x4 MSTORE PUSH1 0x24 PUSH1 0x0 REVERT JUMPDEST MLOAD SWAP1 PUSH1 0x1 PUSH1 0x1 PUSH1 0xA0 SHL SUB DUP3 AND DUP3 SUB PUSH3 0x2E8 JUMPI JUMP INVALID PUSH1 0x80 PUSH1 0x40 DUP2 DUP2 MSTORE PUSH1 0x4 SWAP2 DUP3 CALLDATASIZE LT ISZERO PUSH2 0x16 JUMPI PUSH1 0x0 DUP1 REVERT JUMPDEST PUSH1 0x0 SWAP3 DUP4 CALLDATALOAD PUSH1 0xE0 SHR SWAP2 DUP3 PUSH4 0x1FFC9A7 EQ PUSH2 0x110E JUMPI POP DUP2 PUSH4 0x248A9CA3 EQ PUSH2 0x10E4 JUMPI DUP2 PUSH4 0x2F2FF15D EQ PUSH2 0x103B JUMPI DUP2 PUSH4 0x36568ABE EQ PUSH2 0xFA9 JUMPI DUP2 PUSH4 0x3F4BA83A EQ PUSH2 0xF13 JUMPI DUP2 PUSH4 0x45E67724 EQ PUSH2 0xB30 JUMPI DUP2 PUSH4 0x47A10748 EQ PUSH2 0xAF8 JUMPI DUP2 PUSH4 0x536CE92D EQ PUSH2 0xAB4 JUMPI DUP2 PUSH4 0x5C975ABB EQ PUSH2 0xA90 JUMPI DUP2 PUSH4 0x5FA7B584 EQ PUSH2 0x90F JUMPI DUP2 PUSH4 0x72C16A24 EQ PUSH2 0x8D4 JUMPI DUP2 PUSH4 0x75151B63 EQ PUSH2 0x896 JUMPI DUP2 PUSH4 0x75B238FC EQ PUSH2 0x85B JUMPI DUP2 PUSH4 0x8456CB59 EQ PUSH2 0x800 JUMPI DUP2 PUSH4 0x91D14854 EQ PUSH2 0x7BA JUMPI DUP2 PUSH4 0xA217FDDF EQ PUSH2 0x79F JUMPI DUP2 PUSH4 0xA3B0B5A3 EQ PUSH2 0x764 JUMPI DUP2 PUSH4 0xA85E35DE EQ PUSH2 0x72F JUMPI DUP2 PUSH4 0xBFE07DA6 EQ PUSH2 0x5E1 JUMPI DUP2 PUSH4 0xC471DC3A EQ PUSH2 0x5A6 JUMPI DUP2 PUSH4 0xC9A815BD EQ PUSH2 0x530 JUMPI DUP2 PUSH4 0xCAA648B4 EQ PUSH2 0x44D JUMPI DUP2 PUSH4 0xD3C7C2C7 EQ PUSH2 0x418 JUMPI DUP2 PUSH4 0xD48BFCA7 EQ PUSH2 0x30E JUMPI DUP2 PUSH4 0xD547741F EQ PUSH2 0x2D0 JUMPI DUP2 PUSH4 0xE63EA408 EQ PUSH2 0x188 JUMPI POP PUSH4 0xF8B2CB4F EQ PUSH2 0x14E JUMPI PUSH1 0x0 DUP1 REVERT JUMPDEST CALLVALUE PUSH2 0x184 JUMPI PUSH1 0x20 CALLDATASIZE PUSH1 0x3 NOT ADD SLT PUSH2 0x184 JUMPI PUSH1 0x20 SWAP2 DUP2 SWAP1 PUSH1 0x1 PUSH1 0x1 PUSH1 0xA0 SHL SUB PUSH2 0x174 PUSH2 0x117C JUMP JUMPDEST AND DUP2 MSTORE PUSH1 0x3 DUP5 MSTORE KECCAK256 SLOAD SWAP1 MLOAD SWAP1 DUP2 MSTORE RETURN JUMPDEST POP DUP1 REVERT JUMPDEST SWAP1 POP CALLVALUE PUSH2 0x2CC JUMPI PUSH1 0x60 CALLDATASIZE PUSH1 0x3 NOT ADD SLT PUSH2 0x2CC JUMPI PUSH2 0x1A3 PUSH2 0x117C JUMP JUMPDEST SWAP1 PUSH2 0x1AC PUSH2 0x1161 JUMP JUMPDEST SWAP3 PUSH1 0x44 CALLDATALOAD SWAP4 PUSH2 0x1B9 PUSH2 0x184C JUMP JUMPDEST PUSH2 0x1C1 PUSH2 0x1286 JUMP JUMPDEST DUP5 ISZERO PUSH2 0x2BE JUMPI PUSH1 0x1 PUSH1 0x1 PUSH1 0xA0 SHL SUB DUP2 DUP2 AND SWAP5 SWAP1 DUP6 ISZERO PUSH2 0x2AE JUMPI DUP2 AND SWAP4 DUP5 DUP9 MSTORE PUSH1 0x3 PUSH1 0x20 MSTORE DUP4 DUP9 KECCAK256 SLOAD DUP8 DUP2 LT PUSH2 0x278 JUMPI POP POP POP DUP5 PUSH2 0x216 SWAP2 DUP5 DUP9 MSTORE PUSH1 0x3 PUSH1 0x20 MSTORE DUP4 DUP9 KECCAK256 PUSH2 0x20E DUP4 DUP3 SLOAD PUSH2 0x17D9 JUMP JUMPDEST SWAP1 SSTORE DUP5 PUSH2 0x1A65 JUMP JUMPDEST DUP1 MLOAD SWAP4 DUP5 MSTORE PUSH1 0x60 PUSH1 0x20 DUP6 ADD MSTORE PUSH1 0x14 PUSH1 0x60 DUP6 ADD MSTORE PUSH20 0x115B595C99D95B98DE481DDA5D1A191C985DD85B PUSH1 0x62 SHL PUSH1 0x80 DUP6 ADD MSTORE TIMESTAMP SWAP1 DUP5 ADD MSTORE PUSH32 0x6B660B41E4E88F1CB58DDFA149465E22095F2DB46104F1189AB4FB13DF565933 PUSH1 0xA0 CALLER SWAP5 LOG4 PUSH1 0x1 DUP1 SSTORE DUP1 RETURN JUMPDEST DUP5 MLOAD PUSH4 0xDB42144D PUSH1 0xE0 SHL DUP2 MSTORE PUSH1 0x1 PUSH1 0x1 PUSH1 0xA0 SHL SUB SWAP1 SWAP4 AND SWAP2 DUP4 ADD SWAP2 DUP3 MSTORE PUSH1 0x20 DUP3 ADD DUP9 SWAP1 MSTORE PUSH1 0x40 DUP3 ADD MSTORE DUP2 SWAP1 PUSH1 0x60 ADD SUB SWAP1 REVERT JUMPDEST SUB SWAP1 REVERT JUMPDEST POP POP POP MLOAD PUSH4 0xD92E233D PUSH1 0xE0 SHL DUP2 MSTORE REVERT JUMPDEST POP MLOAD PUSH4 0x1F2A2005 PUSH1 0xE0 SHL DUP2 MSTORE REVERT JUMPDEST DUP3 DUP1 REVERT JUMPDEST SWAP2 SWAP1 POP CALLVALUE PUSH2 0x2CC JUMPI DUP1 PUSH1 0x3 NOT CALLDATASIZE ADD SLT PUSH2 0x2CC JUMPI PUSH2 0x30B SWAP2 CALLDATALOAD PUSH2 0x306 PUSH1 0x1 PUSH2 0x2F5 PUSH2 0x1161 JUMP JUMPDEST SWAP4 DUP4 DUP8 MSTORE DUP7 PUSH1 0x20 MSTORE DUP7 KECCAK256 ADD SLOAD PUSH2 0x1474 JUMP JUMPDEST PUSH2 0x15C6 JUMP JUMPDEST DUP1 RETURN JUMPDEST DUP4 DUP4 CALLVALUE PUSH2 0x184 JUMPI PUSH1 0x20 CALLDATASIZE PUSH1 0x3 NOT ADD SLT PUSH2 0x184 JUMPI PUSH2 0x329 PUSH2 0x117C JUMP JUMPDEST SWAP1 PUSH2 0x332 PUSH2 0x1286 JUMP JUMPDEST PUSH1 0x1 PUSH1 0x1 PUSH1 0xA0 SHL SUB DUP3 AND SWAP2 DUP3 ISZERO PUSH2 0x408 JUMPI DUP3 DUP5 MSTORE PUSH1 0x5 PUSH1 0x20 MSTORE PUSH1 0xFF DUP3 DUP6 KECCAK256 SLOAD AND PUSH2 0x3F1 JUMPI DUP3 DUP5 MSTORE PUSH1 0x5 PUSH1 0x20 MSTORE DUP2 DUP5 KECCAK256 DUP1 SLOAD PUSH1 0xFF NOT AND PUSH1 0x1 OR SWAP1 SSTORE DUP5 SLOAD PUSH9 0x10000000000000000 DUP2 LT ISZERO PUSH2 0x3DE JUMPI SWAP2 PUSH2 0x3D6 PUSH1 0x20 SWAP3 PUSH2 0x3B7 DUP6 DUP10 PUSH1 0x1 PUSH32 0xF4C563A3EA86FF1F4275E8C207DF0375A51963F2B831B7BF4DA8BE938D92876C SWAP9 ADD SWAP1 SSTORE PUSH2 0x1793 JUMP JUMPDEST SWAP1 SWAP2 SWAP1 DUP3 SLOAD SWAP1 PUSH1 0x3 SHL SWAP2 PUSH1 0x1 DUP1 PUSH1 0xA0 SHL SUB DUP1 SWAP2 AND DUP4 SHL SWAP3 SHL NOT AND OR SWAP1 SSTORE JUMP JUMPDEST MLOAD TIMESTAMP DUP2 MSTORE LOG2 DUP1 RETURN JUMPDEST PUSH4 0x4E487B71 PUSH1 0xE0 SHL DUP6 MSTORE PUSH1 0x41 DUP7 MSTORE PUSH1 0x24 DUP6 REVERT JUMPDEST DUP2 MLOAD PUSH4 0x2EFBF13F PUSH1 0xE2 SHL DUP2 MSTORE DUP1 DUP7 ADD DUP5 SWAP1 MSTORE PUSH1 0x24 SWAP1 REVERT JUMPDEST DUP2 MLOAD PUSH4 0xD92E233D PUSH1 0xE0 SHL DUP2 MSTORE DUP6 SWAP1 REVERT JUMPDEST POP POP CALLVALUE PUSH2 0x184 JUMPI DUP2 PUSH1 0x3 NOT CALLDATASIZE ADD SLT PUSH2 0x184 JUMPI PUSH2 0x449 SWAP1 PUSH2 0x436 PUSH2 0x1AB7 JUMP JUMPDEST SWAP1 MLOAD SWAP2 DUP3 SWAP2 PUSH1 0x20 DUP4 MSTORE PUSH1 0x20 DUP4 ADD SWAP1 PUSH2 0x1249 JUMP JUMPDEST SUB SWAP1 RETURN JUMPDEST DUP3 DUP5 CALLVALUE PUSH2 0x52D JUMPI DUP1 PUSH1 0x3 NOT CALLDATASIZE ADD SLT PUSH2 0x52D JUMPI PUSH2 0x467 PUSH2 0x1AB7 JUMP JUMPDEST SWAP2 DUP3 MLOAD SWAP1 PUSH2 0x48C PUSH2 0x477 DUP4 PUSH2 0x1C4F JUMP JUMPDEST SWAP3 PUSH2 0x484 DUP4 MLOAD SWAP5 DUP6 PUSH2 0x11C4 JUMP JUMPDEST DUP1 DUP5 MSTORE PUSH2 0x1C4F JUMP JUMPDEST PUSH1 0x20 DUP4 DUP2 ADD SWAP5 SWAP2 PUSH1 0x1F NOT ADD CALLDATASIZE DUP7 CALLDATACOPY DUP2 JUMPDEST DUP7 MLOAD DUP2 LT ISZERO PUSH2 0x4DC JUMPI PUSH2 0x4D7 SWAP1 PUSH1 0x1 PUSH1 0x1 PUSH1 0xA0 SHL SUB PUSH2 0x4BB DUP3 DUP11 PUSH2 0x1C67 JUMP JUMPDEST MLOAD AND DUP5 MSTORE PUSH1 0x3 DUP4 MSTORE DUP5 DUP5 KECCAK256 SLOAD PUSH2 0x4D1 DUP3 DUP9 PUSH2 0x1C67 JUMP JUMPDEST MSTORE PUSH2 0x17CA JUMP JUMPDEST PUSH2 0x49C JUMP JUMPDEST POP SWAP4 SWAP3 SWAP1 SWAP2 SWAP4 DUP1 PUSH2 0x4F6 DUP7 MLOAD SWAP8 DUP8 DUP10 SWAP9 DUP10 MSTORE DUP9 ADD SWAP1 PUSH2 0x1249 JUMP JUMPDEST SWAP3 DUP7 DUP5 SUB DUP3 DUP9 ADD MSTORE MLOAD SWAP3 DUP4 DUP2 MSTORE ADD SWAP4 SWAP3 JUMPDEST DUP3 DUP2 LT PUSH2 0x516 JUMPI POP POP POP POP SUB SWAP1 RETURN JUMPDEST DUP4 MLOAD DUP6 MSTORE DUP7 SWAP6 POP SWAP4 DUP2 ADD SWAP4 SWAP3 DUP2 ADD SWAP3 PUSH1 0x1 ADD PUSH2 0x507 JUMP JUMPDEST DUP1 REVERT JUMPDEST POP POP CALLVALUE PUSH2 0x184 JUMPI DUP1 PUSH1 0x3 NOT CALLDATASIZE ADD SLT PUSH2 0x184 JUMPI PUSH32 0x3BD32C0F6F623F7E2423F76F4B251ACE080CDB1AFF9A2A4B12D8B8D8C9178B56 PUSH1 0x60 PUSH2 0x56D PUSH2 0x117C JUMP JUMPDEST PUSH1 0x24 CALLDATALOAD SWAP1 PUSH2 0x579 PUSH2 0x1286 JUMP JUMPDEST PUSH1 0x1 DUP1 PUSH1 0xA0 SHL SUB AND SWAP4 DUP5 DUP7 MSTORE PUSH1 0x6 PUSH1 0x20 MSTORE DUP1 DUP7 KECCAK256 SWAP2 DUP1 DUP4 SLOAD SWAP4 SSTORE DUP2 MLOAD SWAP3 DUP4 MSTORE PUSH1 0x20 DUP4 ADD MSTORE TIMESTAMP SWAP1 DUP3 ADD MSTORE LOG2 DUP1 RETURN JUMPDEST POP POP CALLVALUE PUSH2 0x184 JUMPI DUP2 PUSH1 0x3 NOT CALLDATASIZE ADD SLT PUSH2 0x184 JUMPI PUSH1 0x20 SWAP1 MLOAD PUSH32 0x0 DUP2 MSTORE RETURN JUMPDEST SWAP1 POP CALLVALUE PUSH2 0x2CC JUMPI PUSH1 0x60 CALLDATASIZE PUSH1 0x3 NOT ADD SLT PUSH2 0x2CC JUMPI PUSH2 0x5FC PUSH2 0x117C JUMP JUMPDEST SWAP2 PUSH1 0x24 CALLDATALOAD SWAP1 PUSH1 0x44 CALLDATALOAD SWAP3 PUSH8 0xFFFFFFFFFFFFFFFF SWAP4 DUP5 DUP2 GT PUSH2 0x72B JUMPI PUSH2 0x623 SWAP1 CALLDATASIZE SWAP1 DUP4 ADD PUSH2 0x1202 JUMP JUMPDEST SWAP5 PUSH2 0x62C PUSH2 0x184C JUMP JUMPDEST PUSH2 0x634 PUSH2 0x1808 JUMP JUMPDEST DUP4 ISZERO PUSH2 0x71C JUMPI PUSH1 0x1 PUSH1 0x1 PUSH1 0xA0 SHL SUB AND DUP1 DUP8 MSTORE PUSH1 0x5 PUSH1 0x20 MSTORE DUP3 DUP8 KECCAK256 SLOAD SWAP1 SWAP5 SWAP1 PUSH1 0xFF AND ISZERO PUSH2 0x706 JUMPI DUP3 MLOAD PUSH4 0x23B872DD PUSH1 0xE0 SHL PUSH1 0x20 DUP3 ADD MSTORE CALLER PUSH1 0x24 DUP3 ADD MSTORE ADDRESS PUSH1 0x44 DUP3 ADD MSTORE PUSH1 0x64 DUP1 DUP3 ADD DUP7 SWAP1 MSTORE DUP2 MSTORE SWAP2 PUSH1 0xA0 DUP4 ADD SWAP2 DUP3 GT DUP4 DUP4 LT OR PUSH2 0x6F3 JUMPI POP SWAP2 PUSH2 0x6C3 PUSH32 0x225FF215A128C3B90E7D9A02531A87177DE9E30A3CA726ECB9CE3DE0A14F9394 SWAP5 SWAP3 PUSH2 0x6E9 SWAP5 DUP4 MSTORE DUP7 PUSH2 0x18A2 JUMP JUMPDEST DUP5 DUP8 MSTORE PUSH1 0x3 PUSH1 0x20 MSTORE DUP1 DUP8 KECCAK256 PUSH2 0x6D9 DUP4 DUP3 SLOAD PUSH2 0x163A JUMP JUMPDEST SWAP1 SSTORE MLOAD SWAP2 DUP3 SWAP2 CALLER SWAP7 TIMESTAMP SWAP2 DUP5 PUSH2 0x17E6 JUMP JUMPDEST SUB SWAP1 LOG3 PUSH1 0x1 DUP1 SSTORE DUP1 RETURN JUMPDEST PUSH4 0x4E487B71 PUSH1 0xE0 SHL DUP9 MSTORE PUSH1 0x41 SWAP1 MSTORE PUSH1 0x24 DUP8 REVERT JUMPDEST POP DUP4 PUSH1 0x24 SWAP3 MLOAD SWAP2 PUSH4 0x6439C6B PUSH1 0xE0 SHL DUP4 MSTORE DUP3 ADD MSTORE REVERT JUMPDEST POP SWAP1 MLOAD PUSH4 0x1F2A2005 PUSH1 0xE0 SHL DUP2 MSTORE REVERT JUMPDEST DUP7 DUP1 REVERT JUMPDEST POP POP CALLVALUE PUSH2 0x184 JUMPI DUP1 PUSH1 0x3 NOT CALLDATASIZE ADD SLT PUSH2 0x184 JUMPI PUSH1 0x20 SWAP1 PUSH2 0x75D PUSH2 0x74F PUSH2 0x117C JUMP JUMPDEST PUSH2 0x757 PUSH2 0x1161 JUMP JUMPDEST SWAP1 PUSH2 0x1B2D JUMP JUMPDEST SWAP1 MLOAD SWAP1 DUP2 MSTORE RETURN JUMPDEST POP POP CALLVALUE PUSH2 0x184 JUMPI DUP2 PUSH1 0x3 NOT CALLDATASIZE ADD SLT PUSH2 0x184 JUMPI PUSH1 0x20 SWAP1 MLOAD PUSH32 0x8F4F2DA22E8AC8F11E15F9FC141CDDBB5DEEA8800186560ABB6E68C5496619A9 DUP2 MSTORE RETURN JUMPDEST POP POP CALLVALUE PUSH2 0x184 JUMPI DUP2 PUSH1 0x3 NOT CALLDATASIZE ADD SLT PUSH2 0x184 JUMPI MLOAD SWAP1 DUP2 MSTORE PUSH1 0x20 SWAP1 RETURN JUMPDEST SWAP1 POP CALLVALUE PUSH2 0x2CC JUMPI DUP2 PUSH1 0x3 NOT CALLDATASIZE ADD SLT PUSH2 0x2CC JUMPI DUP2 PUSH1 0x20 SWAP4 PUSH1 0xFF SWAP3 PUSH2 0x7DB PUSH2 0x1161 JUMP JUMPDEST SWAP1 CALLDATALOAD DUP3 MSTORE DUP2 DUP7 MSTORE DUP3 DUP3 KECCAK256 PUSH1 0x1 PUSH1 0x1 PUSH1 0xA0 SHL SUB SWAP1 SWAP2 AND DUP3 MSTORE DUP6 MSTORE KECCAK256 SLOAD SWAP2 MLOAD SWAP2 AND ISZERO ISZERO DUP2 MSTORE RETURN JUMPDEST POP POP CALLVALUE PUSH2 0x184 JUMPI DUP2 PUSH1 0x3 NOT CALLDATASIZE ADD SLT PUSH2 0x184 JUMPI PUSH1 0x20 PUSH32 0x62E78CEA01BEE320CD4E420270B5EA74000D11B0C9F74754EBDBFC544B05A258 SWAP2 PUSH2 0x83E PUSH2 0x1286 JUMP JUMPDEST PUSH2 0x846 PUSH2 0x1808 JUMP JUMPDEST PUSH1 0x1 PUSH1 0xFF NOT PUSH1 0x2 SLOAD AND OR PUSH1 0x2 SSTORE MLOAD CALLER DUP2 MSTORE LOG1 DUP1 RETURN JUMPDEST POP POP CALLVALUE PUSH2 0x184 JUMPI DUP2 PUSH1 0x3 NOT CALLDATASIZE ADD SLT PUSH2 0x184 JUMPI PUSH1 0x20 SWAP1 MLOAD PUSH32 0xA49807205CE4D355092EF5A8A18F56E8913CF4A201FBE287825B095693C21775 DUP2 MSTORE RETURN JUMPDEST POP POP CALLVALUE PUSH2 0x184 JUMPI PUSH1 0x20 CALLDATASIZE PUSH1 0x3 NOT ADD SLT PUSH2 0x184 JUMPI PUSH1 0x20 SWAP2 PUSH1 0xFF SWAP1 DUP3 SWAP1 PUSH1 0x1 PUSH1 0x1 PUSH1 0xA0 SHL SUB PUSH2 0x8C1 PUSH2 0x117C JUMP JUMPDEST AND DUP2 MSTORE PUSH1 0x5 DUP6 MSTORE KECCAK256 SLOAD AND SWAP1 MLOAD SWAP1 ISZERO ISZERO DUP2 MSTORE RETURN JUMPDEST POP POP CALLVALUE PUSH2 0x184 JUMPI DUP2 PUSH1 0x3 NOT CALLDATASIZE ADD SLT PUSH2 0x184 JUMPI PUSH1 0x20 SWAP1 MLOAD PUSH32 0x7434C6F201A551BFD17336985361933E0C4935B520DAC8A49D937B325F7D5C0A DUP2 MSTORE RETURN JUMPDEST DUP3 DUP5 CALLVALUE PUSH2 0x52D JUMPI PUSH1 0x20 CALLDATASIZE PUSH1 0x3 NOT ADD SLT PUSH2 0x52D JUMPI PUSH2 0x92A PUSH2 0x117C JUMP JUMPDEST SWAP2 PUSH2 0x933 PUSH2 0x1286 JUMP JUMPDEST PUSH1 0x1 PUSH1 0x1 PUSH1 0xA0 SHL SUB SWAP3 DUP4 AND DUP1 DUP4 MSTORE PUSH1 0x5 PUSH1 0x20 MSTORE DUP2 DUP4 KECCAK256 SLOAD SWAP1 SWAP2 SWAP1 PUSH1 0xFF AND ISZERO PUSH2 0xA79 JUMPI DUP2 DUP4 MSTORE PUSH1 0x5 PUSH1 0x20 MSTORE DUP1 DUP4 KECCAK256 DUP1 SLOAD PUSH1 0xFF NOT AND SWAP1 SSTORE DUP3 JUMPDEST DUP6 SLOAD DUP1 DUP3 LT ISZERO PUSH2 0xA49 JUMPI DUP6 SWAP1 DUP5 PUSH2 0x980 DUP5 PUSH2 0x1793 JUMP JUMPDEST SWAP4 SWAP1 SLOAD PUSH1 0x3 SWAP5 DUP6 SHL SHR AND EQ PUSH2 0x99F JUMPI POP POP PUSH2 0x99A SWAP1 PUSH2 0x17CA JUMP JUMPDEST PUSH2 0x96A JUMP JUMPDEST SWAP1 SWAP3 SWAP4 SWAP5 SWAP6 SWAP2 PUSH1 0x0 NOT SWAP2 DUP3 DUP2 ADD SWAP1 DUP2 GT PUSH2 0xA36 JUMPI SWAP1 PUSH2 0x3B7 DUP5 PUSH2 0x9C4 PUSH2 0x9D1 SWAP5 PUSH2 0x1793 JUMP JUMPDEST SWAP1 SLOAD SWAP1 DUP9 SHL SHR AND SWAP2 PUSH2 0x1793 JUMP JUMPDEST DUP7 SLOAD DUP1 ISZERO PUSH2 0xA23 JUMPI SWAP2 PUSH32 0xBE9BB4BDCA0A094BABD75E3A98B1D2E2390633430D0A2F6E2B9970E2EE03FB2E SWAP6 SWAP7 SWAP8 SWAP2 PUSH1 0x20 SWAP6 SWAP5 SWAP4 ADD SWAP3 PUSH2 0xA0F DUP5 PUSH2 0x1793 JUMP JUMPDEST DUP2 SWAP4 SWAP2 SLOAD SWAP3 SHL SHL NOT AND SWAP1 SSTORE SSTORE MLOAD TIMESTAMP DUP2 MSTORE LOG2 DUP1 RETURN JUMPDEST PUSH4 0x4E487B71 PUSH1 0xE0 SHL DUP8 MSTORE PUSH1 0x31 DUP9 MSTORE PUSH1 0x24 DUP8 REVERT JUMPDEST PUSH4 0x4E487B71 PUSH1 0xE0 SHL DUP9 MSTORE PUSH1 0x11 DUP10 MSTORE PUSH1 0x24 DUP9 REVERT JUMPDEST POP POP PUSH32 0xBE9BB4BDCA0A094BABD75E3A98B1D2E2390633430D0A2F6E2B9970E2EE03FB2E SWAP3 SWAP5 POP PUSH1 0x20 SWAP2 SWAP4 POP PUSH2 0x3D6 JUMP JUMPDEST MLOAD PUSH4 0x6439C6B PUSH1 0xE0 SHL DUP2 MSTORE DUP1 DUP6 ADD SWAP2 SWAP1 SWAP2 MSTORE PUSH1 0x24 SWAP1 REVERT JUMPDEST POP POP CALLVALUE PUSH2 0x184 JUMPI DUP2 PUSH1 0x3 NOT CALLDATASIZE ADD SLT PUSH2 0x184 JUMPI PUSH1 0x20 SWAP1 PUSH1 0xFF PUSH1 0x2 SLOAD AND SWAP1 MLOAD SWAP1 ISZERO ISZERO DUP2 MSTORE RETURN JUMPDEST POP POP CALLVALUE PUSH2 0x184 JUMPI DUP2 PUSH1 0x3 NOT CALLDATASIZE ADD SLT PUSH2 0x184 JUMPI MLOAD PUSH32 0x0 PUSH1 0x1 PUSH1 0x1 PUSH1 0xA0 SHL SUB AND DUP2 MSTORE PUSH1 0x20 SWAP1 RETURN JUMPDEST POP POP CALLVALUE PUSH2 0x184 JUMPI PUSH1 0x20 CALLDATASIZE PUSH1 0x3 NOT ADD SLT PUSH2 0x184 JUMPI PUSH1 0x20 SWAP2 DUP2 SWAP1 PUSH1 0x1 PUSH1 0x1 PUSH1 0xA0 SHL SUB PUSH2 0xB20 PUSH2 0x117C JUMP JUMPDEST AND DUP2 MSTORE PUSH1 0x6 DUP5 MSTORE KECCAK256 SLOAD SWAP1 MLOAD SWAP1 DUP2 MSTORE RETURN JUMPDEST SWAP1 POP CALLVALUE PUSH2 0x2CC JUMPI PUSH1 0x80 CALLDATASIZE PUSH1 0x3 NOT ADD SLT PUSH2 0x2CC JUMPI PUSH2 0xB4B PUSH2 0x117C JUMP JUMPDEST SWAP1 PUSH2 0xB54 PUSH2 0x1161 JUMP JUMPDEST SWAP3 PUSH1 0x44 CALLDATALOAD SWAP1 PUSH1 0x64 CALLDATALOAD PUSH8 0xFFFFFFFFFFFFFFFF DUP2 GT PUSH2 0x72B JUMPI PUSH2 0xB78 SWAP1 CALLDATASIZE SWAP1 DUP6 ADD PUSH2 0x1202 JUMP JUMPDEST SWAP5 PUSH2 0xB81 PUSH2 0x184C JUMP JUMPDEST PUSH2 0xB89 PUSH2 0x1808 JUMP JUMPDEST PUSH32 0x7434C6F201A551BFD17336985361933E0C4935B520DAC8A49D937B325F7D5C0A SWAP1 DUP2 DUP9 MSTORE PUSH1 0x20 SWAP2 DUP9 DUP4 MSTORE DUP4 DUP10 KECCAK256 CALLER DUP11 MSTORE DUP4 MSTORE PUSH1 0xFF DUP5 DUP11 KECCAK256 SLOAD AND ISZERO PUSH2 0xD4E JUMPI POP DUP4 ISZERO PUSH2 0xD3E JUMPI PUSH1 0x1 PUSH1 0x1 PUSH1 0xA0 SHL SUB DUP2 DUP2 AND SWAP7 SWAP1 DUP8 ISZERO PUSH2 0xD2E JUMPI DUP2 AND SWAP6 DUP7 DUP11 MSTORE PUSH1 0x5 DUP5 MSTORE PUSH1 0xFF DUP6 DUP12 KECCAK256 SLOAD AND ISZERO PUSH2 0xD17 JUMPI DUP7 DUP11 MSTORE PUSH1 0x3 DUP5 MSTORE DUP5 DUP11 KECCAK256 SLOAD DUP7 DUP2 LT PUSH2 0xCE5 JUMPI POP POP SWAP2 PUSH2 0xC60 DUP6 PUSH2 0xCAE SWAP6 SWAP4 PUSH2 0xC43 DUP3 PUSH32 0x6B660B41E4E88F1CB58DDFA149465E22095F2DB46104F1189AB4FB13DF565933 SWAP10 SWAP8 CALLER PUSH2 0x1B7E JUMP JUMPDEST DUP9 DUP13 MSTORE PUSH1 0x3 DUP5 MSTORE DUP5 DUP13 KECCAK256 PUSH2 0xC58 DUP4 DUP3 SLOAD PUSH2 0x17D9 JUMP JUMPDEST SWAP1 SSTORE DUP9 PUSH2 0x1A65 JUMP JUMPDEST PUSH3 0x15180 TIMESTAMP DIV CALLER DUP11 MSTORE PUSH1 0x8 DUP3 MSTORE DUP3 DUP11 KECCAK256 DUP8 DUP12 MSTORE DUP3 MSTORE DUP1 DUP4 DUP12 KECCAK256 SLOAD SUB PUSH2 0xCB8 JUMPI JUMPDEST POP CALLER DUP10 MSTORE PUSH1 0x7 DUP2 MSTORE DUP2 DUP10 KECCAK256 SWAP1 DUP7 DUP11 MSTORE MSTORE DUP1 DUP9 KECCAK256 PUSH2 0xC9E DUP4 DUP3 SLOAD PUSH2 0x163A JUMP JUMPDEST SWAP1 SSTORE MLOAD SWAP2 DUP3 SWAP2 CALLER SWAP8 TIMESTAMP SWAP2 DUP5 PUSH2 0x17E6 JUMP JUMPDEST SUB SWAP1 LOG4 PUSH1 0x1 DUP1 SSTORE DUP1 RETURN JUMPDEST CALLER DUP11 MSTORE PUSH1 0x7 DUP3 MSTORE DUP3 DUP11 KECCAK256 DUP8 DUP12 MSTORE DUP3 MSTORE DUP10 DUP4 DUP2 KECCAK256 SSTORE CALLER DUP11 MSTORE PUSH1 0x8 DUP3 MSTORE DUP3 DUP11 KECCAK256 DUP8 DUP12 MSTORE DUP3 MSTORE DUP3 DUP11 KECCAK256 SSTORE CODESIZE PUSH2 0xC80 JUMP JUMPDEST DUP6 MLOAD PUSH4 0xDB42144D PUSH1 0xE0 SHL DUP2 MSTORE PUSH1 0x1 PUSH1 0x1 PUSH1 0xA0 SHL SUB SWAP1 SWAP4 AND SWAP2 DUP4 ADD SWAP2 DUP3 MSTORE PUSH1 0x20 DUP3 ADD DUP8 SWAP1 MSTORE PUSH1 0x40 DUP3 ADD MSTORE DUP2 SWAP1 PUSH1 0x60 ADD SUB SWAP1 REVERT JUMPDEST DUP5 MLOAD PUSH4 0x6439C6B PUSH1 0xE0 SHL DUP2 MSTORE SWAP1 DUP2 ADD DUP8 SWAP1 MSTORE PUSH1 0x24 SWAP1 REVERT JUMPDEST DUP5 MLOAD PUSH4 0xD92E233D PUSH1 0xE0 SHL DUP2 MSTORE DUP8 SWAP1 REVERT JUMPDEST DUP3 MLOAD PUSH4 0x1F2A2005 PUSH1 0xE0 SHL DUP2 MSTORE DUP6 SWAP1 REVERT JUMPDEST DUP6 DUP5 DUP5 SWAP3 DUP12 PUSH2 0xD5C CALLER PUSH2 0x1684 JUMP JUMPDEST SWAP2 DUP4 MLOAD SWAP1 PUSH2 0xD69 DUP3 PUSH2 0x1192 JUMP JUMPDEST PUSH1 0x42 DUP3 MSTORE DUP7 DUP3 ADD SWAP3 PUSH1 0x60 CALLDATASIZE DUP6 CALLDATACOPY DUP3 MLOAD ISZERO PUSH2 0xF00 JUMPI PUSH1 0x30 DUP5 MSTORE8 DUP3 MLOAD SWAP1 PUSH1 0x1 SWAP2 DUP3 LT ISZERO PUSH2 0xEED JUMPI SWAP1 PUSH1 0x78 PUSH1 0x21 DUP6 ADD MSTORE8 PUSH1 0x41 SWAP2 JUMPDEST DUP2 DUP4 GT PUSH2 0xE82 JUMPI POP POP POP PUSH2 0xE41 JUMPI PUSH1 0x48 PUSH2 0xE18 SWAP4 DUP6 SWAP4 PUSH2 0xE27 SWAP4 PUSH2 0x2AA SWAP8 MLOAD SWAP7 DUP8 SWAP4 PUSH23 0x20B1B1B2B9B9A1B7B73A3937B61D1030B1B1B7BAB73A1 PUSH1 0x4D SHL DUP13 DUP7 ADD MSTORE PUSH2 0xDEF DUP13 DUP3 MLOAD SWAP3 DUP4 SWAP2 PUSH1 0x37 DUP10 ADD SWAP2 ADD PUSH2 0x157E JUMP JUMPDEST DUP5 ADD SWAP2 PUSH17 0x1034B99036B4B9B9B4B733903937B6329 PUSH1 0x7D SHL PUSH1 0x37 DUP5 ADD MSTORE MLOAD DUP1 SWAP4 DUP7 DUP5 ADD SWAP1 PUSH2 0x157E JUMP JUMPDEST ADD SUB PUSH1 0x28 DUP2 ADD DUP6 MSTORE ADD DUP4 PUSH2 0x11C4 JUMP JUMPDEST MLOAD SWAP4 DUP5 SWAP4 PUSH3 0x461BCD PUSH1 0xE5 SHL DUP6 MSTORE DUP5 ADD MSTORE PUSH1 0x24 DUP4 ADD SWAP1 PUSH2 0x15A1 JUMP JUMPDEST PUSH1 0x64 DUP6 DUP8 DUP1 DUP8 MLOAD SWAP3 PUSH3 0x461BCD PUSH1 0xE5 SHL DUP5 MSTORE DUP4 ADD MSTORE PUSH1 0x24 DUP3 ADD MSTORE PUSH32 0x537472696E67733A20686578206C656E67746820696E73756666696369656E74 PUSH1 0x44 DUP3 ADD MSTORE REVERT JUMPDEST SWAP1 SWAP2 SWAP3 PUSH1 0xF DUP2 AND PUSH1 0x10 DUP2 LT ISZERO PUSH2 0xEDA JUMPI PUSH16 0x181899199A1A9B1B9C1CB0B131B232B3 PUSH1 0x81 SHL SWAP1 BYTE PUSH2 0xEB2 DUP6 DUP8 PUSH2 0x165D JUMP JUMPDEST MSTORE8 DUP9 SHR SWAP3 DUP1 ISZERO PUSH2 0xEC7 JUMPI PUSH1 0x0 NOT ADD SWAP2 SWAP1 PUSH2 0xD9A JUMP JUMPDEST PUSH4 0x4E487B71 PUSH1 0xE0 SHL DUP3 MSTORE PUSH1 0x11 DUP10 MSTORE PUSH1 0x24 DUP3 REVERT JUMPDEST PUSH4 0x4E487B71 PUSH1 0xE0 SHL DUP4 MSTORE PUSH1 0x32 DUP11 MSTORE PUSH1 0x24 DUP4 REVERT JUMPDEST PUSH4 0x4E487B71 PUSH1 0xE0 SHL DUP2 MSTORE PUSH1 0x32 DUP9 MSTORE PUSH1 0x24 SWAP1 REVERT JUMPDEST PUSH4 0x4E487B71 PUSH1 0xE0 SHL DUP2 MSTORE PUSH1 0x32 DUP8 MSTORE PUSH1 0x24 SWAP1 REVERT JUMPDEST SWAP1 POP CALLVALUE PUSH2 0x2CC JUMPI DUP3 PUSH1 0x3 NOT CALLDATASIZE ADD SLT PUSH2 0x2CC JUMPI PUSH2 0xF2D PUSH2 0x1286 JUMP JUMPDEST PUSH1 0x2 SLOAD SWAP1 PUSH1 0xFF DUP3 AND ISZERO PUSH2 0xF6F JUMPI POP PUSH1 0xFF NOT AND PUSH1 0x2 SSTORE MLOAD CALLER DUP2 MSTORE PUSH32 0x5DB9EE0A495BF2E6FF9C91A7834C1BA4FDD244A5E8AA4E537BD38AEAE4B073AA SWAP1 PUSH1 0x20 SWAP1 LOG1 DUP1 RETURN JUMPDEST PUSH1 0x64 SWAP1 PUSH1 0x20 DUP5 MLOAD SWAP2 PUSH3 0x461BCD PUSH1 0xE5 SHL DUP4 MSTORE DUP3 ADD MSTORE PUSH1 0x14 PUSH1 0x24 DUP3 ADD MSTORE PUSH20 0x14185D5CD8589B194E881B9BDD081C185D5CD959 PUSH1 0x62 SHL PUSH1 0x44 DUP3 ADD MSTORE REVERT JUMPDEST DUP4 SWAP2 POP CALLVALUE PUSH2 0x184 JUMPI DUP3 PUSH1 0x3 NOT CALLDATASIZE ADD SLT PUSH2 0x184 JUMPI PUSH2 0xFC4 PUSH2 0x1161 JUMP JUMPDEST SWAP1 CALLER PUSH1 0x1 PUSH1 0x1 PUSH1 0xA0 SHL SUB DUP4 AND SUB PUSH2 0xFE0 JUMPI SWAP1 PUSH2 0x30B SWAP2 CALLDATALOAD PUSH2 0x15C6 JUMP JUMPDEST PUSH1 0x84 SWAP1 PUSH1 0x20 DUP6 MLOAD SWAP2 PUSH3 0x461BCD PUSH1 0xE5 SHL DUP4 MSTORE DUP3 ADD MSTORE PUSH1 0x2F PUSH1 0x24 DUP3 ADD MSTORE PUSH32 0x416363657373436F6E74726F6C3A2063616E206F6E6C792072656E6F756E6365 PUSH1 0x44 DUP3 ADD MSTORE PUSH15 0x103937B632B9903337B91039B2B633 PUSH1 0x89 SHL PUSH1 0x64 DUP3 ADD MSTORE REVERT JUMPDEST SWAP1 POP CALLVALUE PUSH2 0x2CC JUMPI DUP2 PUSH1 0x3 NOT CALLDATASIZE ADD SLT PUSH2 0x2CC JUMPI CALLDATALOAD SWAP1 PUSH2 0x1057 PUSH2 0x1161 JUMP JUMPDEST SWAP1 DUP3 DUP5 MSTORE DUP4 PUSH1 0x20 MSTORE PUSH2 0x106E PUSH1 0x1 DUP3 DUP7 KECCAK256 ADD SLOAD PUSH2 0x1474 JUMP JUMPDEST DUP3 DUP5 MSTORE PUSH1 0x20 DUP5 DUP2 MSTORE DUP2 DUP6 KECCAK256 PUSH1 0x1 PUSH1 0x1 PUSH1 0xA0 SHL SUB SWAP1 SWAP4 AND DUP1 DUP7 MSTORE SWAP3 SWAP1 MSTORE DUP1 DUP5 KECCAK256 SLOAD PUSH1 0xFF AND ISZERO PUSH2 0x109A JUMPI DUP4 DUP1 RETURN JUMPDEST DUP3 DUP5 MSTORE DUP4 PUSH1 0x20 MSTORE DUP1 DUP5 KECCAK256 DUP3 DUP6 MSTORE PUSH1 0x20 MSTORE DUP4 KECCAK256 PUSH1 0x1 PUSH1 0xFF NOT DUP3 SLOAD AND OR SWAP1 SSTORE CALLER SWAP2 PUSH32 0x2F8788117E7EFF1D82E926EC794901D17C78024A50270940304540A733656F0D DUP5 DUP1 LOG4 CODESIZE DUP1 DUP1 DUP4 DUP1 RETURN JUMPDEST SWAP1 POP CALLVALUE PUSH2 0x2CC JUMPI PUSH1 0x20 CALLDATASIZE PUSH1 0x3 NOT ADD SLT PUSH2 0x2CC JUMPI DUP2 PUSH1 0x20 SWAP4 PUSH1 0x1 SWAP3 CALLDATALOAD DUP2 MSTORE DUP1 DUP6 MSTORE KECCAK256 ADD SLOAD SWAP1 MLOAD SWAP1 DUP2 MSTORE RETURN JUMPDEST DUP5 SWAP2 CALLVALUE PUSH2 0x2CC JUMPI PUSH1 0x20 CALLDATASIZE PUSH1 0x3 NOT ADD SLT PUSH2 0x2CC JUMPI CALLDATALOAD PUSH4 0xFFFFFFFF PUSH1 0xE0 SHL DUP2 AND DUP1 SWAP2 SUB PUSH2 0x2CC JUMPI PUSH1 0x20 SWAP3 POP PUSH4 0x7965DB0B PUSH1 0xE0 SHL DUP2 EQ SWAP1 DUP2 ISZERO PUSH2 0x1150 JUMPI JUMPDEST POP ISZERO ISZERO DUP2 MSTORE RETURN JUMPDEST PUSH4 0x1FFC9A7 PUSH1 0xE0 SHL EQ SWAP1 POP DUP4 PUSH2 0x1149 JUMP JUMPDEST PUSH1 0x24 CALLDATALOAD SWAP1 PUSH1 0x1 PUSH1 0x1 PUSH1 0xA0 SHL SUB DUP3 AND DUP3 SUB PUSH2 0x1177 JUMPI JUMP JUMPDEST PUSH1 0x0 DUP1 REVERT JUMPDEST PUSH1 0x4 CALLDATALOAD SWAP1 PUSH1 0x1 PUSH1 0x1 PUSH1 0xA0 SHL SUB DUP3 AND DUP3 SUB PUSH2 0x1177 JUMPI JUMP JUMPDEST PUSH1 0x80 DUP2 ADD SWAP1 DUP2 LT PUSH8 0xFFFFFFFFFFFFFFFF DUP3 GT OR PUSH2 0x11AE JUMPI PUSH1 0x40 MSTORE JUMP JUMPDEST PUSH4 0x4E487B71 PUSH1 0xE0 SHL PUSH1 0x0 MSTORE PUSH1 0x41 PUSH1 0x4 MSTORE PUSH1 0x24 PUSH1 0x0 REVERT JUMPDEST SWAP1 PUSH1 0x1F DUP1 NOT SWAP2 ADD AND DUP2 ADD SWAP1 DUP2 LT PUSH8 0xFFFFFFFFFFFFFFFF DUP3 GT OR PUSH2 0x11AE JUMPI PUSH1 0x40 MSTORE JUMP JUMPDEST PUSH8 0xFFFFFFFFFFFFFFFF DUP2 GT PUSH2 0x11AE JUMPI PUSH1 0x1F ADD PUSH1 0x1F NOT AND PUSH1 0x20 ADD SWAP1 JUMP JUMPDEST DUP2 PUSH1 0x1F DUP3 ADD SLT ISZERO PUSH2 0x1177 JUMPI DUP1 CALLDATALOAD SWAP1 PUSH2 0x1219 DUP3 PUSH2 0x11E6 JUMP JUMPDEST SWAP3 PUSH2 0x1227 PUSH1 0x40 MLOAD SWAP5 DUP6 PUSH2 0x11C4 JUMP JUMPDEST DUP3 DUP5 MSTORE PUSH1 0x20 DUP4 DUP4 ADD ADD GT PUSH2 0x1177 JUMPI DUP2 PUSH1 0x0 SWAP3 PUSH1 0x20 DUP1 SWAP4 ADD DUP4 DUP7 ADD CALLDATACOPY DUP4 ADD ADD MSTORE SWAP1 JUMP JUMPDEST SWAP1 DUP2 MLOAD DUP1 DUP3 MSTORE PUSH1 0x20 DUP1 DUP1 SWAP4 ADD SWAP4 ADD SWAP2 PUSH1 0x0 JUMPDEST DUP3 DUP2 LT PUSH2 0x1269 JUMPI POP POP POP POP SWAP1 JUMP JUMPDEST DUP4 MLOAD PUSH1 0x1 PUSH1 0x1 PUSH1 0xA0 SHL SUB AND DUP6 MSTORE SWAP4 DUP2 ADD SWAP4 SWAP3 DUP2 ADD SWAP3 PUSH1 0x1 ADD PUSH2 0x125B JUMP JUMPDEST CALLER PUSH1 0x0 SWAP1 DUP2 MSTORE PUSH32 0x7D7FFB7A348E1C6A02869081A26547B49160DD3DF72D1D75A570EB9B698292EC PUSH1 0x20 SWAP1 DUP2 MSTORE PUSH1 0x40 DUP1 DUP4 KECCAK256 SLOAD SWAP1 SWAP3 PUSH32 0xA49807205CE4D355092EF5A8A18F56E8913CF4A201FBE287825B095693C21775 SWAP2 PUSH1 0xFF AND ISZERO PUSH2 0x12EA JUMPI POP POP POP POP JUMP JUMPDEST PUSH2 0x12F3 CALLER PUSH2 0x1684 JUMP JUMPDEST SWAP2 DUP5 MLOAD SWAP1 PUSH2 0x1300 DUP3 PUSH2 0x1192 JUMP JUMPDEST PUSH1 0x42 DUP3 MSTORE DUP5 DUP3 ADD SWAP3 PUSH1 0x60 CALLDATASIZE DUP6 CALLDATACOPY DUP3 MLOAD ISZERO PUSH2 0x1460 JUMPI PUSH1 0x30 DUP5 MSTORE8 DUP3 MLOAD SWAP1 PUSH1 0x1 SWAP2 DUP3 LT ISZERO PUSH2 0x1460 JUMPI SWAP1 PUSH1 0x78 PUSH1 0x21 DUP6 ADD MSTORE8 PUSH1 0x41 SWAP2 JUMPDEST DUP2 DUP4 GT PUSH2 0x13F2 JUMPI POP POP POP PUSH2 0x13B0 JUMPI PUSH1 0x48 PUSH2 0x2AA SWAP4 DUP7 SWAP4 PUSH2 0x1394 SWAP4 PUSH2 0x1385 SWAP9 MLOAD SWAP9 DUP10 SWAP4 PUSH23 0x20B1B1B2B9B9A1B7B73A3937B61D1030B1B1B7BAB73A1 PUSH1 0x4D SHL DUP11 DUP7 ADD MSTORE PUSH2 0xDEF DUP2 MLOAD DUP1 SWAP3 DUP13 PUSH1 0x37 DUP10 ADD SWAP2 ADD PUSH2 0x157E JUMP JUMPDEST ADD SUB PUSH1 0x28 DUP2 ADD DUP8 MSTORE ADD DUP6 PUSH2 0x11C4 JUMP JUMPDEST MLOAD SWAP3 DUP4 SWAP3 PUSH3 0x461BCD PUSH1 0xE5 SHL DUP5 MSTORE PUSH1 0x4 DUP5 ADD MSTORE PUSH1 0x24 DUP4 ADD SWAP1 PUSH2 0x15A1 JUMP JUMPDEST PUSH1 0x64 DUP5 DUP7 MLOAD SWAP1 PUSH3 0x461BCD PUSH1 0xE5 SHL DUP3 MSTORE DUP1 PUSH1 0x4 DUP4 ADD MSTORE PUSH1 0x24 DUP3 ADD MSTORE PUSH32 0x537472696E67733A20686578206C656E67746820696E73756666696369656E74 PUSH1 0x44 DUP3 ADD MSTORE REVERT JUMPDEST SWAP1 SWAP2 SWAP3 PUSH1 0xF DUP2 AND PUSH1 0x10 DUP2 LT ISZERO PUSH2 0x144C JUMPI PUSH16 0x181899199A1A9B1B9C1CB0B131B232B3 PUSH1 0x81 SHL SWAP1 BYTE PUSH2 0x1422 DUP6 DUP8 PUSH2 0x165D JUMP JUMPDEST MSTORE8 PUSH1 0x4 SHR SWAP3 DUP1 ISZERO PUSH2 0x1438 JUMPI PUSH1 0x0 NOT ADD SWAP2 SWAP1 PUSH2 0x1331 JUMP JUMPDEST PUSH4 0x4E487B71 PUSH1 0xE0 SHL DUP3 MSTORE PUSH1 0x11 PUSH1 0x4 MSTORE PUSH1 0x24 DUP3 REVERT JUMPDEST PUSH4 0x4E487B71 PUSH1 0xE0 SHL DUP4 MSTORE PUSH1 0x32 PUSH1 0x4 MSTORE PUSH1 0x24 DUP4 REVERT JUMPDEST PUSH4 0x4E487B71 PUSH1 0xE0 SHL DUP2 MSTORE PUSH1 0x32 PUSH1 0x4 MSTORE PUSH1 0x24 SWAP1 REVERT JUMPDEST PUSH1 0x0 SWAP1 DUP1 DUP3 MSTORE PUSH1 0x20 SWAP1 DUP3 DUP3 MSTORE PUSH1 0x40 SWAP3 DUP4 DUP2 KECCAK256 CALLER DUP3 MSTORE DUP4 MSTORE PUSH1 0xFF DUP5 DUP3 KECCAK256 SLOAD AND ISZERO PUSH2 0x149D JUMPI POP POP POP POP JUMP JUMPDEST PUSH2 0x14A6 CALLER PUSH2 0x1684 JUMP JUMPDEST SWAP2 DUP5 MLOAD SWAP1 PUSH2 0x14B3 DUP3 PUSH2 0x1192 JUMP JUMPDEST PUSH1 0x42 DUP3 MSTORE DUP5 DUP3 ADD SWAP3 PUSH1 0x60 CALLDATASIZE DUP6 CALLDATACOPY DUP3 MLOAD ISZERO PUSH2 0x1460 JUMPI PUSH1 0x30 DUP5 MSTORE8 DUP3 MLOAD SWAP1 PUSH1 0x1 SWAP2 DUP3 LT ISZERO PUSH2 0x1460 JUMPI SWAP1 PUSH1 0x78 PUSH1 0x21 DUP6 ADD MSTORE8 PUSH1 0x41 SWAP2 JUMPDEST DUP2 DUP4 GT PUSH2 0x1538 JUMPI POP POP POP PUSH2 0x13B0 JUMPI PUSH1 0x48 PUSH2 0x2AA SWAP4 DUP7 SWAP4 PUSH2 0x1394 SWAP4 PUSH2 0x1385 SWAP9 MLOAD SWAP9 DUP10 SWAP4 PUSH23 0x20B1B1B2B9B9A1B7B73A3937B61D1030B1B1B7BAB73A1 PUSH1 0x4D SHL DUP11 DUP7 ADD MSTORE PUSH2 0xDEF DUP2 MLOAD DUP1 SWAP3 DUP13 PUSH1 0x37 DUP10 ADD SWAP2 ADD PUSH2 0x157E JUMP JUMPDEST SWAP1 SWAP2 SWAP3 PUSH1 0xF DUP2 AND PUSH1 0x10 DUP2 LT ISZERO PUSH2 0x144C JUMPI PUSH16 0x181899199A1A9B1B9C1CB0B131B232B3 PUSH1 0x81 SHL SWAP1 BYTE PUSH2 0x1568 DUP6 DUP8 PUSH2 0x165D JUMP JUMPDEST MSTORE8 PUSH1 0x4 SHR SWAP3 DUP1 ISZERO PUSH2 0x1438 JUMPI PUSH1 0x0 NOT ADD SWAP2 SWAP1 PUSH2 0x14E4 JUMP JUMPDEST PUSH1 0x0 JUMPDEST DUP4 DUP2 LT PUSH2 0x1591 JUMPI POP POP PUSH1 0x0 SWAP2 ADD MSTORE JUMP JUMPDEST DUP2 DUP2 ADD MLOAD DUP4 DUP3 ADD MSTORE PUSH1 0x20 ADD PUSH2 0x1581 JUMP JUMPDEST SWAP1 PUSH1 0x20 SWAP2 PUSH2 0x15BA DUP2 MLOAD DUP1 SWAP3 DUP2 DUP6 MSTORE DUP6 DUP1 DUP7 ADD SWAP2 ADD PUSH2 0x157E JUMP JUMPDEST PUSH1 0x1F ADD PUSH1 0x1F NOT AND ADD ADD SWAP1 JUMP JUMPDEST SWAP1 PUSH1 0x0 SWAP2 DUP1 DUP4 MSTORE DUP3 PUSH1 0x20 MSTORE PUSH1 0x40 DUP4 KECCAK256 SWAP2 PUSH1 0x1 DUP1 PUSH1 0xA0 SHL SUB AND SWAP2 DUP3 DUP5 MSTORE PUSH1 0x20 MSTORE PUSH1 0xFF PUSH1 0x40 DUP5 KECCAK256 SLOAD AND PUSH2 0x15F6 JUMPI POP POP POP JUMP JUMPDEST DUP1 DUP4 MSTORE DUP3 PUSH1 0x20 MSTORE PUSH1 0x40 DUP4 KECCAK256 DUP3 DUP5 MSTORE PUSH1 0x20 MSTORE PUSH1 0x40 DUP4 KECCAK256 PUSH1 0xFF NOT DUP2 SLOAD AND SWAP1 SSTORE PUSH32 0xF6391F5C32D9C69D2A47EA670B442974B53935D1EDC7FD64EB21E047A839171B CALLER SWAP4 DUP1 LOG4 JUMP JUMPDEST SWAP2 SWAP1 DUP3 ADD DUP1 SWAP3 GT PUSH2 0x1647 JUMPI JUMP JUMPDEST PUSH4 0x4E487B71 PUSH1 0xE0 SHL PUSH1 0x0 MSTORE PUSH1 0x11 PUSH1 0x4 MSTORE PUSH1 0x24 PUSH1 0x0 REVERT JUMPDEST SWAP1 DUP2 MLOAD DUP2 LT ISZERO PUSH2 0x166E JUMPI ADD PUSH1 0x20 ADD SWAP1 JUMP JUMPDEST PUSH4 0x4E487B71 PUSH1 0xE0 SHL PUSH1 0x0 MSTORE PUSH1 0x32 PUSH1 0x4 MSTORE PUSH1 0x24 PUSH1 0x0 REVERT JUMPDEST PUSH1 0x40 MLOAD SWAP1 PUSH1 0x60 DUP3 ADD DUP3 DUP2 LT PUSH8 0xFFFFFFFFFFFFFFFF DUP3 GT OR PUSH2 0x11AE JUMPI PUSH1 0x40 MSTORE PUSH1 0x2A DUP3 MSTORE PUSH1 0x20 DUP3 ADD PUSH1 0x40 CALLDATASIZE DUP3 CALLDATACOPY DUP3 MLOAD ISZERO PUSH2 0x166E JUMPI PUSH1 0x30 SWAP1 MSTORE8 DUP2 MLOAD PUSH1 0x1 SWAP1 DUP2 LT ISZERO PUSH2 0x166E JUMPI PUSH1 0x78 PUSH1 0x21 DUP5 ADD MSTORE8 PUSH1 0x29 SWAP1 JUMPDEST DUP1 DUP3 GT PUSH2 0x1725 JUMPI POP POP PUSH2 0x16E1 JUMPI SWAP1 JUMP JUMPDEST PUSH1 0x64 PUSH1 0x40 MLOAD PUSH3 0x461BCD PUSH1 0xE5 SHL DUP2 MSTORE PUSH1 0x20 PUSH1 0x4 DUP3 ADD MSTORE PUSH1 0x20 PUSH1 0x24 DUP3 ADD MSTORE PUSH32 0x537472696E67733A20686578206C656E67746820696E73756666696369656E74 PUSH1 0x44 DUP3 ADD MSTORE REVERT JUMPDEST SWAP1 SWAP2 PUSH1 0xF DUP2 AND PUSH1 0x10 DUP2 LT ISZERO PUSH2 0x177E JUMPI PUSH16 0x181899199A1A9B1B9C1CB0B131B232B3 PUSH1 0x81 SHL SWAP1 BYTE PUSH2 0x1754 DUP5 DUP7 PUSH2 0x165D JUMP JUMPDEST MSTORE8 PUSH1 0x4 SHR SWAP2 DUP1 ISZERO PUSH2 0x1769 JUMPI PUSH1 0x0 NOT ADD SWAP1 PUSH2 0x16D1 JUMP JUMPDEST PUSH1 0x24 PUSH1 0x0 PUSH4 0x4E487B71 PUSH1 0xE0 SHL DUP2 MSTORE PUSH1 0x11 PUSH1 0x4 MSTORE REVERT JUMPDEST PUSH1 0x24 PUSH1 0x0 PUSH4 0x4E487B71 PUSH1 0xE0 SHL DUP2 MSTORE PUSH1 0x32 PUSH1 0x4 MSTORE REVERT JUMPDEST PUSH1 0x4 SLOAD DUP2 LT ISZERO PUSH2 0x166E JUMPI PUSH1 0x4 PUSH1 0x0 MSTORE PUSH32 0x8A35ACFBC15FF81A39AE7D344FD709F28E8600B4AA8C65C6B64BFE7FE36BD19B ADD SWAP1 PUSH1 0x0 SWAP1 JUMP JUMPDEST PUSH1 0x0 NOT DUP2 EQ PUSH2 0x1647 JUMPI PUSH1 0x1 ADD SWAP1 JUMP JUMPDEST SWAP2 SWAP1 DUP3 SUB SWAP2 DUP3 GT PUSH2 0x1647 JUMPI JUMP JUMPDEST SWAP4 SWAP3 SWAP2 PUSH2 0x1803 SWAP1 PUSH1 0x40 SWAP3 DUP7 MSTORE PUSH1 0x60 PUSH1 0x20 DUP8 ADD MSTORE PUSH1 0x60 DUP7 ADD SWAP1 PUSH2 0x15A1 JUMP JUMPDEST SWAP4 ADD MSTORE JUMP JUMPDEST PUSH1 0xFF PUSH1 0x2 SLOAD AND PUSH2 0x1814 JUMPI JUMP JUMPDEST PUSH1 0x40 MLOAD PUSH3 0x461BCD PUSH1 0xE5 SHL DUP2 MSTORE PUSH1 0x20 PUSH1 0x4 DUP3 ADD MSTORE PUSH1 0x10 PUSH1 0x24 DUP3 ADD MSTORE PUSH16 0x14185D5CD8589B194E881C185D5CD959 PUSH1 0x82 SHL PUSH1 0x44 DUP3 ADD MSTORE PUSH1 0x64 SWAP1 REVERT JUMPDEST PUSH1 0x2 PUSH1 0x1 SLOAD EQ PUSH2 0x185D JUMPI PUSH1 0x2 PUSH1 0x1 SSTORE JUMP JUMPDEST PUSH1 0x40 MLOAD PUSH3 0x461BCD PUSH1 0xE5 SHL DUP2 MSTORE PUSH1 0x20 PUSH1 0x4 DUP3 ADD MSTORE PUSH1 0x1F PUSH1 0x24 DUP3 ADD MSTORE PUSH32 0x5265656E7472616E637947756172643A207265656E7472616E742063616C6C00 PUSH1 0x44 DUP3 ADD MSTORE PUSH1 0x64 SWAP1 REVERT JUMPDEST PUSH1 0x1 DUP1 PUSH1 0xA0 SHL SUB AND SWAP1 PUSH1 0x40 MLOAD PUSH1 0x40 DUP2 ADD SWAP1 DUP1 DUP3 LT PUSH8 0xFFFFFFFFFFFFFFFF DUP4 GT OR PUSH2 0x11AE JUMPI PUSH2 0x1932 SWAP2 PUSH1 0x40 MSTORE PUSH1 0x20 SWAP4 DUP5 DUP3 MSTORE PUSH32 0x5361666545524332303A206C6F772D6C6576656C2063616C6C206661696C6564 DUP6 DUP4 ADD MSTORE PUSH1 0x0 DUP1 DUP6 DUP8 DUP3 SWAP8 MLOAD SWAP2 ADD DUP3 DUP6 GAS CALL RETURNDATASIZE ISZERO PUSH2 0x19C8 JUMPI RETURNDATASIZE SWAP2 PUSH2 0x1917 DUP4 PUSH2 0x11E6 JUMP JUMPDEST SWAP3 PUSH2 0x1925 PUSH1 0x40 MLOAD SWAP5 DUP6 PUSH2 0x11C4 JUMP JUMPDEST DUP4 MSTORE RETURNDATASIZE DUP7 DUP9 DUP6 ADD RETURNDATACOPY PUSH2 0x19CC JUMP JUMPDEST DUP1 MLOAD SWAP2 DUP3 ISZERO SWAP2 DUP5 DUP4 ISZERO PUSH2 0x19A4 JUMPI JUMPDEST POP POP POP SWAP1 POP ISZERO PUSH2 0x194D JUMPI POP JUMP JUMPDEST PUSH1 0x84 SWAP1 PUSH1 0x40 MLOAD SWAP1 PUSH3 0x461BCD PUSH1 0xE5 SHL DUP3 MSTORE PUSH1 0x4 DUP3 ADD MSTORE PUSH1 0x2A PUSH1 0x24 DUP3 ADD MSTORE PUSH32 0x5361666545524332303A204552433230206F7065726174696F6E20646964206E PUSH1 0x44 DUP3 ADD MSTORE PUSH10 0x1BDD081CDD58D8D95959 PUSH1 0xB2 SHL PUSH1 0x64 DUP3 ADD MSTORE REVERT JUMPDEST SWAP2 SWAP4 DUP2 DUP1 SWAP5 POP ADD SUB SLT PUSH2 0x184 JUMPI DUP3 ADD MLOAD SWAP1 DUP2 ISZERO ISZERO DUP3 SUB PUSH2 0x52D JUMPI POP DUP1 CODESIZE DUP1 DUP5 PUSH2 0x1940 JUMP JUMPDEST PUSH1 0x60 SWAP2 JUMPDEST SWAP2 SWAP3 SWAP1 ISZERO PUSH2 0x1A2E JUMPI POP DUP2 MLOAD ISZERO PUSH2 0x19E0 JUMPI POP SWAP1 JUMP JUMPDEST EXTCODESIZE ISZERO PUSH2 0x19E9 JUMPI SWAP1 JUMP JUMPDEST PUSH1 0x40 MLOAD PUSH3 0x461BCD PUSH1 0xE5 SHL DUP2 MSTORE PUSH1 0x20 PUSH1 0x4 DUP3 ADD MSTORE PUSH1 0x1D PUSH1 0x24 DUP3 ADD MSTORE PUSH32 0x416464726573733A2063616C6C20746F206E6F6E2D636F6E7472616374000000 PUSH1 0x44 DUP3 ADD MSTORE PUSH1 0x64 SWAP1 REVERT JUMPDEST DUP3 MLOAD SWAP1 SWAP2 POP ISZERO PUSH2 0x1A41 JUMPI POP DUP1 MLOAD SWAP1 PUSH1 0x20 ADD REVERT JUMPDEST PUSH1 0x40 MLOAD PUSH3 0x461BCD PUSH1 0xE5 SHL DUP2 MSTORE PUSH1 0x20 PUSH1 0x4 DUP3 ADD MSTORE SWAP1 DUP2 SWAP1 PUSH2 0x2AA SWAP1 PUSH1 0x24 DUP4 ADD SWAP1 PUSH2 0x15A1 JUMP JUMPDEST PUSH1 0x40 MLOAD PUSH4 0xA9059CBB PUSH1 0xE0 SHL PUSH1 0x20 DUP3 ADD MSTORE PUSH1 0x1 PUSH1 0x1 PUSH1 0xA0 SHL SUB SWAP1 SWAP3 AND PUSH1 0x24 DUP4 ADD MSTORE PUSH1 0x44 DUP1 DUP4 ADD SWAP4 SWAP1 SWAP4 MSTORE SWAP2 DUP2 MSTORE PUSH1 0x80 DUP2 ADD SWAP2 PUSH8 0xFFFFFFFFFFFFFFFF DUP4 GT DUP3 DUP5 LT OR PUSH2 0x11AE JUMPI PUSH2 0x1AB5 SWAP3 PUSH1 0x40 MSTORE PUSH2 0x18A2 JUMP JUMPDEST JUMP JUMPDEST PUSH1 0x40 MLOAD SWAP1 PUSH1 0x4 SLOAD DUP1 DUP4 MSTORE DUP3 PUSH1 0x20 SWAP2 DUP3 DUP3 ADD SWAP1 PUSH1 0x4 PUSH1 0x0 MSTORE PUSH32 0x8A35ACFBC15FF81A39AE7D344FD709F28E8600B4AA8C65C6B64BFE7FE36BD19B SWAP4 PUSH1 0x0 SWAP1 JUMPDEST DUP3 DUP3 LT PUSH2 0x1B0A JUMPI POP POP POP PUSH2 0x1AB5 SWAP3 POP SUB DUP4 PUSH2 0x11C4 JUMP JUMPDEST DUP6 SLOAD PUSH1 0x1 PUSH1 0x1 PUSH1 0xA0 SHL SUB AND DUP5 MSTORE PUSH1 0x1 SWAP6 DUP7 ADD SWAP6 DUP9 SWAP6 POP SWAP4 DUP2 ADD SWAP4 SWAP1 SWAP2 ADD SWAP1 PUSH2 0x1AF4 JUMP JUMPDEST PUSH1 0x1 DUP1 PUSH1 0xA0 SHL SUB DUP1 SWAP2 AND SWAP2 PUSH1 0x0 SWAP2 DUP4 DUP4 MSTORE PUSH1 0x8 PUSH1 0x20 MSTORE PUSH1 0x40 DUP4 KECCAK256 SWAP2 AND SWAP1 DUP2 DUP4 MSTORE PUSH1 0x20 MSTORE PUSH3 0x15180 TIMESTAMP DIV PUSH1 0x40 DUP4 KECCAK256 SLOAD SUB PUSH2 0x1B78 JUMPI PUSH1 0x40 SWAP3 DUP3 MSTORE PUSH1 0x7 PUSH1 0x20 MSTORE DUP3 DUP3 KECCAK256 SWAP1 DUP3 MSTORE PUSH1 0x20 MSTORE KECCAK256 SLOAD SWAP1 JUMP JUMPDEST POP SWAP1 POP SWAP1 JUMP JUMPDEST PUSH1 0x1 DUP1 PUSH1 0xA0 SHL SUB SWAP3 DUP4 DUP4 AND SWAP2 PUSH1 0x0 SWAP5 DUP4 DUP7 MSTORE PUSH1 0x6 PUSH1 0x20 MSTORE PUSH1 0x40 SWAP6 DUP7 DUP2 KECCAK256 SLOAD SWAP5 DUP6 ISZERO PUSH2 0x1C45 JUMPI DUP8 SWAP3 DUP3 SWAP5 AND DUP1 DUP4 MSTORE PUSH1 0x8 PUSH1 0x20 MSTORE DUP4 DUP4 KECCAK256 DUP3 DUP5 MSTORE PUSH1 0x20 MSTORE PUSH3 0x15180 TIMESTAMP DIV DUP5 DUP5 KECCAK256 SLOAD EQ PUSH2 0x1C28 JUMPI JUMPDEST POP POP POP POP DUP3 PUSH2 0x1BD8 DUP4 DUP4 PUSH2 0x163A JUMP JUMPDEST GT PUSH2 0x1BE4 JUMPI POP POP POP POP POP JUMP JUMPDEST PUSH2 0x2AA SWAP3 SWAP2 PUSH2 0x1BF2 SWAP2 PUSH2 0x163A JUMP JUMPDEST SWAP4 MLOAD PUSH4 0x84BB52CF PUSH1 0xE0 SHL DUP2 MSTORE PUSH1 0x1 PUSH1 0x1 PUSH1 0xA0 SHL SUB SWAP1 SWAP4 AND PUSH1 0x4 DUP5 ADD MSTORE PUSH1 0x24 DUP4 ADD SWAP4 SWAP1 SWAP4 MSTORE PUSH1 0x44 DUP3 ADD SWAP3 SWAP1 SWAP3 MSTORE SWAP1 DUP2 SWAP1 PUSH1 0x64 DUP3 ADD SWAP1 JUMP JUMPDEST DUP3 MSTORE PUSH1 0x7 PUSH1 0x20 SWAP1 DUP2 MSTORE DUP4 DUP4 KECCAK256 SWAP2 DUP4 MSTORE MSTORE KECCAK256 SLOAD SWAP1 POP DUP5 CODESIZE DUP1 DUP1 PUSH2 0x1BC9 JUMP JUMPDEST POP POP POP POP POP POP POP POP JUMP JUMPDEST PUSH8 0xFFFFFFFFFFFFFFFF DUP2 GT PUSH2 0x11AE JUMPI PUSH1 0x5 SHL PUSH1 0x20 ADD SWAP1 JUMP JUMPDEST DUP1 MLOAD DUP3 LT ISZERO PUSH2 0x166E JUMPI PUSH1 0x20 SWAP2 PUSH1 0x5 SHL ADD ADD SWAP1 JUMP INVALID LOG2 PUSH5 0x6970667358 0x22 SLT KECCAK256 0x2D 0x5E MSIZE 0xBC 0xBE EXTCODECOPY 0x21 0xEF LOG3 XOR PUSH8 0x66C31045F994F344 DUP10 MOD PUSH14 0xCF6164B0E0D4C0EB159564736F6C PUSH4 0x43000814 STOP CALLER 0x2F DUP8 DUP9 GT PUSH31 0x7EFF1D82E926EC794901D17C78024A50270940304540A733656F0DA2646970 PUSH7 0x73582212206E4D LOG1 PREVRANDAO GASPRICE SAR 0xD2 PUSH30 0xD2BEC7A882D38533EF804BF7D3E711FF80E7D3CBB91950FE64736F6C6343 STOP ADDMOD EQ STOP CALLER 0x2F DUP8 DUP9 GT PUSH31 0x7EFF1D82E926EC794901D17C78024A50270940304540A733656F0D00000000 "},"methodIdentifiers":{"ADMIN_ROLE()":"75b238fc","DEFAULT_ADMIN_ROLE()":"a217fddf","GAME_STAKE_PURPOSE()":"f579164e","MODULE_ID()":"ed2f21f5","OPERATOR_ROLE()":"f5b541a6","addMember(bytes32,address)":"4092e2c2","canJoinOrganization(bytes32,address)":"ad932b6c","createOrganization(string,string,uint8,uint8,uint8,uint32,uint256,uint256)":"4e42dd9f","emergencyPause()":"51858e27","emergencyUnpause()":"4a4e3bd5","gameToken()":"c3dfdae6","getAllOrganizations()":"086ed938","getGameStakeRequired(bytes32)":"a6606fb2","getMember(bytes32,address)":"b1d92cf6","getMemberCount(bytes32)":"93f36bd8","getOrganization(bytes32)":"22b3cd4e","getOrganizationCount()":"5734e5e3","getOrganizationMembers(bytes32)":"c1f8218a","getOrganizationsByState(uint8)":"b2412550","getRoleAdmin(bytes32)":"248a9ca3","getTreasuryAddress(bytes32)":"84ea5c74","grantRole(bytes32,address)":"2f2ff15d","hasRole(bytes32,address)":"91d14854","hasRole(bytes32,address,bytes32)":"089d0b0c","initialize(address)":"c4d66de8","isInitialized()":"392e53cd","isMemberActive(bytes32,address)":"f385bfc9","isOrganizationActive(bytes32)":"efc37004","moduleId()":"a1308f27","onModuleDisabled()":"aa7318aa","onModuleEnabled()":"ebf8a3e6","pause()":"8456cb59","paused()":"5c975abb","registry()":"7b103999","removeMember(bytes32,address)":"9a737486","renounceRole(bytes32,address)":"36568abe","revokeRole(bytes32,address)":"d547741f","setGameToken(address)":"80d29e66","setOrganizationState(bytes32,uint8)":"2f645c60","spendTreasuryFunds(bytes32,address,address,uint256,string)":"200224b4","supportsInterface(bytes4)":"01ffc9a7","unpause()":"3f4ba83a","updateMemberState(bytes32,address,uint8)":"097e2e3d","updateOrganization(bytes32,address,uint8,uint8,uint32,uint8,uint256)":"49d07f1d","version()":"54fd4d50"}}}}}