{"contracts/core/GameDAORegistry.sol":{"GameDAORegistry":{"abi":[{"inputs":[{"internalType":"address","name":"admin","type":"address"}],"stateMutability":"nonpayable","type":"constructor"},{"inputs":[],"name":"InvalidModuleAddress","type":"error"},{"inputs":[{"internalType":"bytes32","name":"moduleId","type":"bytes32"}],"name":"ModuleAlreadyEnabled","type":"error"},{"inputs":[{"internalType":"bytes32","name":"moduleId","type":"bytes32"}],"name":"ModuleAlreadyRegistered","type":"error"},{"inputs":[],"name":"ModuleInitializationFailed","type":"error"},{"inputs":[{"internalType":"bytes32","name":"moduleId","type":"bytes32"}],"name":"ModuleNotEnabled","type":"error"},{"inputs":[{"internalType":"bytes32","name":"moduleId","type":"bytes32"}],"name":"ModuleNotRegistered","type":"error"},{"anonymous":false,"inputs":[{"indexed":true,"internalType":"bytes32","name":"moduleId","type":"bytes32"}],"name":"ModuleDisabled","type":"event"},{"anonymous":false,"inputs":[{"indexed":true,"internalType":"bytes32","name":"moduleId","type":"bytes32"}],"name":"ModuleEnabled","type":"event"},{"anonymous":false,"inputs":[{"indexed":true,"internalType":"bytes32","name":"moduleId","type":"bytes32"},{"indexed":true,"internalType":"address","name":"moduleAddress","type":"address"},{"indexed":false,"internalType":"string","name":"version","type":"string"}],"name":"ModuleRegistered","type":"event"},{"anonymous":false,"inputs":[{"indexed":true,"internalType":"bytes32","name":"moduleId","type":"bytes32"},{"indexed":true,"internalType":"address","name":"oldAddress","type":"address"},{"indexed":true,"internalType":"address","name":"newAddress","type":"address"},{"indexed":false,"internalType":"string","name":"newVersion","type":"string"}],"name":"ModuleUpgraded","type":"event"},{"anonymous":false,"inputs":[{"indexed":false,"internalType":"address","name":"account","type":"address"}],"name":"Paused","type":"event"},{"anonymous":false,"inputs":[{"indexed":true,"internalType":"address","name":"admin","type":"address"}],"name":"RegistryInitialized","type":"event"},{"anonymous":false,"inputs":[{"indexed":true,"internalType":"bytes32","name":"role","type":"bytes32"},{"indexed":true,"internalType":"bytes32","name":"previousAdminRole","type":"bytes32"},{"indexed":true,"internalType":"bytes32","name":"newAdminRole","type":"bytes32"}],"name":"RoleAdminChanged","type":"event"},{"anonymous":false,"inputs":[{"indexed":true,"internalType":"bytes32","name":"role","type":"bytes32"},{"indexed":true,"internalType":"address","name":"account","type":"address"},{"indexed":true,"internalType":"address","name":"sender","type":"address"}],"name":"RoleGranted","type":"event"},{"anonymous":false,"inputs":[{"indexed":true,"internalType":"bytes32","name":"role","type":"bytes32"},{"indexed":true,"internalType":"address","name":"account","type":"address"},{"indexed":true,"internalType":"address","name":"sender","type":"address"}],"name":"RoleRevoked","type":"event"},{"anonymous":false,"inputs":[{"indexed":false,"internalType":"address","name":"account","type":"address"}],"name":"Unpaused","type":"event"},{"inputs":[],"name":"ADMIN_ROLE","outputs":[{"internalType":"bytes32","name":"","type":"bytes32"}],"stateMutability":"view","type":"function"},{"inputs":[],"name":"DEFAULT_ADMIN_ROLE","outputs":[{"internalType":"bytes32","name":"","type":"bytes32"}],"stateMutability":"view","type":"function"},{"inputs":[],"name":"MODULE_MANAGER_ROLE","outputs":[{"internalType":"bytes32","name":"","type":"bytes32"}],"stateMutability":"view","type":"function"},{"inputs":[{"internalType":"bytes32","name":"moduleId","type":"bytes32"}],"name":"disableModule","outputs":[],"stateMutability":"nonpayable","type":"function"},{"inputs":[],"name":"emergencyDisableAllModules","outputs":[],"stateMutability":"nonpayable","type":"function"},{"inputs":[{"internalType":"bytes32","name":"moduleId","type":"bytes32"}],"name":"enableModule","outputs":[],"stateMutability":"nonpayable","type":"function"},{"inputs":[],"name":"getAllModules","outputs":[{"internalType":"bytes32[]","name":"","type":"bytes32[]"}],"stateMutability":"view","type":"function"},{"inputs":[],"name":"getEnabledModuleCount","outputs":[{"internalType":"uint256","name":"","type":"uint256"}],"stateMutability":"view","type":"function"},{"inputs":[],"name":"getEnabledModules","outputs":[{"internalType":"bytes32[]","name":"","type":"bytes32[]"}],"stateMutability":"view","type":"function"},{"inputs":[{"internalType":"bytes32","name":"moduleId","type":"bytes32"}],"name":"getModule","outputs":[{"internalType":"address","name":"","type":"address"}],"stateMutability":"view","type":"function"},{"inputs":[],"name":"getModuleCount","outputs":[{"internalType":"uint256","name":"","type":"uint256"}],"stateMutability":"view","type":"function"},{"inputs":[{"internalType":"bytes32","name":"moduleId","type":"bytes32"}],"name":"getModuleInfo","outputs":[{"components":[{"internalType":"address","name":"moduleAddress","type":"address"},{"internalType":"string","name":"version","type":"string"},{"internalType":"bool","name":"isEnabled","type":"bool"},{"internalType":"uint256","name":"registeredAt","type":"uint256"},{"internalType":"uint256","name":"enabledAt","type":"uint256"}],"internalType":"struct GameDAORegistry.ModuleInfo","name":"","type":"tuple"}],"stateMutability":"view","type":"function"},{"inputs":[{"internalType":"bytes32","name":"moduleId","type":"bytes32"}],"name":"getModuleVersion","outputs":[{"internalType":"string","name":"","type":"string"}],"stateMutability":"view","type":"function"},{"inputs":[{"internalType":"bytes32","name":"role","type":"bytes32"}],"name":"getRoleAdmin","outputs":[{"internalType":"bytes32","name":"","type":"bytes32"}],"stateMutability":"view","type":"function"},{"inputs":[{"internalType":"bytes32","name":"role","type":"bytes32"},{"internalType":"address","name":"account","type":"address"}],"name":"grantRole","outputs":[],"stateMutability":"nonpayable","type":"function"},{"inputs":[{"internalType":"bytes32","name":"role","type":"bytes32"},{"internalType":"address","name":"account","type":"address"}],"name":"hasRole","outputs":[{"internalType":"bool","name":"","type":"bool"}],"stateMutability":"view","type":"function"},{"inputs":[{"internalType":"bytes32","name":"moduleId","type":"bytes32"}],"name":"isModuleEnabled","outputs":[{"internalType":"bool","name":"","type":"bool"}],"stateMutability":"view","type":"function"},{"inputs":[],"name":"pause","outputs":[],"stateMutability":"nonpayable","type":"function"},{"inputs":[],"name":"paused","outputs":[{"internalType":"bool","name":"","type":"bool"}],"stateMutability":"view","type":"function"},{"inputs":[{"internalType":"address","name":"moduleAddress","type":"address"}],"name":"registerModule","outputs":[],"stateMutability":"nonpayable","type":"function"},{"inputs":[{"internalType":"bytes32","name":"role","type":"bytes32"},{"internalType":"address","name":"account","type":"address"}],"name":"renounceRole","outputs":[],"stateMutability":"nonpayable","type":"function"},{"inputs":[{"internalType":"bytes32","name":"role","type":"bytes32"},{"internalType":"address","name":"account","type":"address"}],"name":"revokeRole","outputs":[],"stateMutability":"nonpayable","type":"function"},{"inputs":[{"internalType":"bytes4","name":"interfaceId","type":"bytes4"}],"name":"supportsInterface","outputs":[{"internalType":"bool","name":"","type":"bool"}],"stateMutability":"view","type":"function"},{"inputs":[],"name":"unpause","outputs":[],"stateMutability":"nonpayable","type":"function"},{"inputs":[{"internalType":"bytes32","name":"moduleId","type":"bytes32"},{"internalType":"address","name":"newModuleAddress","type":"address"}],"name":"upgradeModule","outputs":[],"stateMutability":"nonpayable","type":"function"}],"evm":{"bytecode":{"linkReferences":{},"object":"6080346200022d57601f6200210c38819003918201601f19168301916001600160401b038311848410176200023257808492604094855283396020938491810103126200022d57516001600160a01b03811691908290036200022d5760ff1992600193808554168555846002558315620001ea57907f43dcf2166be267d8f6dc31580b9b1a605fddb5259a48dddd50b0348ac38fb24e9291600095868052868352838720868852835260ff848820541615620001b5575b7fa49807205ce4d355092ef5a8a18f56e8913cf4a201fbe287825b095693c21775808852878452848820878952845260ff8589205416156200017f575b507f79dfcec784e591aafcf60db7db7b029a5c8b12aac4afd4e8c4eb740430405fa692838852878152848820878952815260ff85892054161562000147575b50505050519280a2611ea39081620002498239f35b838852878152848820908789525283872091825416179055833391600080516020620020ec8339815191528780a43880808062000132565b80885287845284882087895284528488208284825416179055863391600080516020620020ec8339815191528a80a438620000f3565b86805286835283872086885283528387208183825416179055338688600080516020620020ec8339815191528180a4620000b6565b50606491519062461bcd60e51b82526004820152601560248201527f496e76616c69642061646d696e206164647265737300000000000000000000006044820152fd5b600080fd5b634e487b7160e01b600052604160045260246000fdfe608080604052600436101561001357600080fd5b600090813560e01c90816301ffc9a7146112e257508063211b20a314611205578063248a9ca3146111d95780632f2ff15d1461112b57806336568abe146110985780633aaa49da14610f895780633f4ba83a14610ef457806357d5626714610ed65780635c975abb14610eb357806375b238fc14610e785780638456cb5914610e1e57806385acd64114610deb5780638d8d6c7314610ca057806391d1485414610c55578063a217fddf14610c39578063ad64ae4b146108a7578063b6450b8d14610875578063c1398137146107ff578063cb17ed3e146107c4578063d4d9b55c1461037f578063d547741f1461033f578063dafa9955146102bd578063e9ec2c8b1461029f578063eed01af11461017c5763f7a87c941461013457600080fd5b34610179576020366003190112610179576101616001604061017593600435815260036020522001611dc7565b60405191829160208352602083019061135e565b0390f35b80fd5b5034610179576020366003190112610179576004356101996113d4565b6101a1611b12565b6101a9611b56565b80825260036020526040822080546001600160a01b0391908216156102865760028101805460ff81161561026d5760ff19169055600481018490558391906101f084611cdd565b505416803b1561025e578180916004604051809481936355398c5560e11b83525af180156102625761024a575b50807f1c925d295bc85a3052cd19f118806ded7a9972fdf0d7da672734dcbdcc227bd191a2600160025580f35b61025390611870565b61025e57813861021d565b5080fd5b6040513d84823e3d90fd5b6040516318c3151f60e31b815260048101869052602490fd5b6040516374fce40560e01b815260048101849052602490fd5b50346101795780600319360112610179576020600654604051908152f35b5034610179578060031936011261017957604051600680548083529083526020808301937ff652222313e28459528d920b65115c16c04f3efc82aaedc97be59f3f377c0d3f92915b828210610328576101758561031c818903826118a0565b60405191829182611399565b835486529485019460019384019390910190610305565b50346101795760403660031901126101795761037c60043561035f611383565b90808452836020526103776001604086200154611734565b6118c2565b80f35b503461017957604036600319011261017957610399611383565b6103a16115ef565b6103a9611b12565b6103b1611b56565b6001600160a01b03818116156107b2576004358352600360205260408320818154169182156107995760405163a1308f2760e01b81526020816004818886165afa90811561071d578691610762575b50600435036107285760405163054fd4d560e41b81529185836004818886165afa92831561071d5786936106f9575b50600281015460ff811661069e575b8286163b1561069a5760405163189acdbd60e31b8152306004820152878082602481838c8a165af19182610682575b5050610485576040516349373c1560e01b8152600490fd5b81546001600160a01b031916868416178255835167ffffffffffffffff811161066e576104b56001840154611ad8565b601f8111610625575b506020601f82116001146105b857908060ff93928a916105ad575b508160011b916000199060031b1c19161760018401555b16610540575b507fe4c85ec1bd042035946c5cedbdb7516ebeccbdbd0170d5db0d5a675f7137274e90604051946020865216938061053560043594602083019061135e565b0390a4600160025580f35b60028101805460ff19166001179055426004918201556105609035611be1565b508084163b156105a9576040516375fc51f360e11b815285908181600481838a88165af1801561026257610595575b506104f6565b61059e90611870565b6105a957843861058f565b8480fd5b9050860151386104d9565b6001840189526020892090895b601f198416811061060d57509160019160ff949382601f198116106105f4575b5050811b0160018401556104f0565b88015160001960f88460031b161c1916905538806105e5565b9091602060018192858b0151815501930191016105c5565b60018401895260208920601f830160051c81019160208410610664575b601f0160051c01905b81811061065857506104be565b6000815560010161064b565b9091508190610642565b634e487b7160e01b88526041600452602488fd5b61068b90611870565b61069657873861046d565b8780fd5b8680fd5b60ff19811660028301556106b3600435611cdd565b50843b1561069a576040516355398c5560e11b815287908181600481838b5af18015610262576106e5575b505061043e565b6106ee90611870565b61069a5786386106de565b6107169193503d8088833e61070e81836118a0565b810190611a6c565b913861042f565b6040513d88823e3d90fd5b60405162461bcd60e51b815260206004820152601260248201527109adec8ead8ca40928840dad2e6dac2e8c6d60731b6044820152606490fd5b90506020813d602011610791575b8161077d602093836118a0565b8101031261078c575138610400565b600080fd5b3d9150610770565b60246040516374fce40560e01b81526004356004820152fd5b604051632e7f3c7f60e11b8152600490fd5b503461017957806003193601126101795760206040517f79dfcec784e591aafcf60db7db7b029a5c8b12aac4afd4e8c4eb740430405fa68152f35b5034610179578060031936011261017957604051600480548083529083526020808301937f8a35acfbc15ff81a39ae7d344fd709f28e8600b4aa8c65c6b64bfe7fe36bd19b92915b82821061085e576101758561031c818903826118a0565b835486529485019460019384019390910190610847565b50346101795760203660031901126101795760ff60026040602093600435815260038552200154166040519015158152f35b503461017957602036600319011261017957600435906001600160a01b03808316830361078c576108d66113d4565b6108de611b12565b6108e6611b56565b808316156107b25760405163a1308f2760e01b81526020816004818786165afa908115610c2e578391610bfc575b5060405163054fd4d560e41b81529183836004818885165afa928315610bf1578493610bd5575b50818452600360205280604085205416610bbc578085163b15610bb85760405163189acdbd60e31b8152306004820152848082602481838b88165af19182610ba4575b5050610996576040516349373c1560e01b8152600490fd5b604051946109a38661183e565b81811686526020860184815285604088015242606088015285608088015283865260036020526040862090838851166bffffffffffffffffffffffff60a01b8354161782555196875167ffffffffffffffff811161066e57610a086001840154611ad8565b601f8111610b5f575b506020601f8211600114610aca5791816080926004948b9c7ff45369c3f7e6d5c7d1f4536055b3964e878abbce7204bca95aff657d3303cd959a9b9c92610abf575b50508160011b916000199060031b1c19161760018501555b600284016040820151151560ff80198354169116179055606081015160038501550151910155610a9a84611c5e565b50610ab4604051928392602084521695602083019061135e565b0390a3600160025580f35b015190503880610a53565b6001840189526020892099895b601f1984168110610b475750827ff45369c3f7e6d5c7d1f4536055b3964e878abbce7204bca95aff657d3303cd9598999a9b60049593600193608096601f19811610610b2e575b505050811b016001850155610a6b565b015160001960f88460031b161c19169055388080610b1e565b828201518c556001909b019a60209283019201610ad7565b60018401895260208920601f830160051c810160208410610b9d575b601f830160051c82018110610b91575050610a11565b60008155600101610b7b565b5080610b7b565b610bad90611870565b6105a957843861097e565b8380fd5b604051639ec85aa560e01b815260048101839052602490fd5b610bea9193503d8086833e61070e81836118a0565b913861093b565b6040513d86823e3d90fd5b90506020813d602011610c26575b81610c17602093836118a0565b8101031261078c575138610914565b3d9150610c0a565b6040513d85823e3d90fd5b5034610179578060031936011261017957602090604051908152f35b5034610179576040366003190112610179576040610c71611383565b91600435815280602052209060018060a01b0316600052602052602060ff604060002054166040519015158152f35b5034610179578060031936011261017957610cb96115ef565b6040519081600654808252836020809301600685527ff652222313e28459528d920b65115c16c04f3efc82aaedc97be59f3f377c0d3f92855b85828210610dd557505050610d09925003846118a0565b815b8351811015610dd157818160051b8501015180845260038352604084206002810160ff198154169055846004820155610d4382611cdd565b50546001600160a01b0316803b156105a957848080926004604051809481936355398c5560e11b83525af1610dbd575b50807f1c925d295bc85a3052cd19f118806ded7a9972fdf0d7da672734dcbdcc227bd191a26000198114610da957600101610d0b565b634e487b7160e01b83526011600452602483fd5b610dc690611870565b610bb8578338610d73565b8280f35b8554845260019586019589955093019201610cf2565b503461017957602036600319011261017957602090600435815260038252604060018060a01b0391205416604051908152f35b5034610179578060031936011261017957610e376115ef565b610e3f611b12565b600160ff19815416176001557f62e78cea01bee320cd4e420270b5ea74000d11b0c9f74754ebdbfc544b05a2586020604051338152a180f35b503461017957806003193601126101795760206040517fa49807205ce4d355092ef5a8a18f56e8913cf4a201fbe287825b095693c217758152f35b5034610179578060031936011261017957602060ff600154166040519015158152f35b50346101795780600319360112610179576020600454604051908152f35b5034610179578060031936011261017957610f0d6115ef565b60015460ff811615610f4d5760ff19166001557f5db9ee0a495bf2e6ff9c91a7834c1ba4fdd244a5e8aa4e537bd38aeae4b073aa6020604051338152a180f35b60405162461bcd60e51b815260206004820152601460248201527314185d5cd8589b194e881b9bdd081c185d5cd95960621b6044820152606490fd5b50346101795760203660031901126101795760043590610fa76113d4565b610faf611b12565b610fb7611b56565b81815260036020526040812080546001600160a01b03919082161561107f5760028101805460ff81166110665760ff19166001179055426004820155610ffc84611be1565b505416803b1561025e578180916004604051809481936375fc51f360e11b83525af1801561026257611057575b50907f51b2dc199208e98ada43025e81c42a03803d516b406957f4067803d0f24d8b1f8280a2600160025580f35b61106090611870565b38611029565b60405163eb9e285f60e01b815260048101879052602490fd5b6040516374fce40560e01b815260048101859052602490fd5b5034610179576040366003190112610179576110b2611383565b336001600160a01b038216036110ce5761037c906004356118c2565b60405162461bcd60e51b815260206004820152602f60248201527f416363657373436f6e74726f6c3a2063616e206f6e6c792072656e6f756e636560448201526e103937b632b9903337b91039b2b63360891b6064820152608490fd5b503461017957604036600319011261017957600435611148611383565b8183528260205261115f6001604085200154611734565b818352602083815260408085206001600160a01b039093168086529290915283205460ff161561118d578280f35b818352826020526040832081845260205260408320600160ff1982541617905533917f2f8788117e7eff1d82e926ec794901d17c78024a50270940304540a733656f0d8480a438808280f35b503461017957602036600319011261017957600160406020926004358152808452200154604051908152f35b5034610179576020908160031936011261017957806040916080835161122a8161183e565b8281526060868201528285820152826060820152015260043581526003835220604051906112578261183e565b80546001600160a01b0390811683529261127360018301611dc7565b918184019283526112c960ff60028301541693604086019415158552600460038401549360608801948552015493608087019485526040519788978289525116908701525160a0604087015260c086019061135e565b9251151560608501525160808401525160a08301520390f35b90503461025e57602036600319011261025e5760043563ffffffff60e01b81168091036113375760209250637965db0b60e01b8114908115611326575b5015158152f35b6301ffc9a760e01b1490503861131f565b8280fd5b60005b83811061134e5750506000910152565b818101518382015260200161133e565b906020916113778151809281855285808601910161133b565b601f01601f1916010190565b602435906001600160a01b038216820361078c57565b6020908160408183019282815285518094520193019160005b8281106113c0575050505090565b8351855293810193928101926001016113b2565b3360009081527fd298b934cec0ecfc262793aebb9c7a067e36b848af9525172c7c18aa626e48f5602090815260408083205490927f79dfcec784e591aafcf60db7db7b029a5c8b12aac4afd4e8c4eb740430405fa69160ff16156114385750505050565b6114413361195d565b9184519061144e82611884565b604282528482019260603685378251156115db57603084538251906001918210156115db5790607860218501536041915b81831161156d5750505061152b57604861152793869361150b936114fc985198899376020b1b1b2b9b9a1b7b73a3937b61d1030b1b1b7bab73a1604d1b8a8601526114d3815180928c60378901910161133b565b8401917001034b99036b4b9b9b4b733903937b6329607d1b60378401525180938684019061133b565b010360288101875201856118a0565b5192839262461bcd60e51b84526004840152602483019061135e565b0390fd5b60648486519062461bcd60e51b825280600483015260248201527f537472696e67733a20686578206c656e67746820696e73756666696369656e746044820152fd5b909192600f811660108110156115c7576f181899199a1a9b1b9c1cb0b131b232b360811b901a61159d8587611936565b5360041c9280156115b35760001901919061147f565b634e487b7160e01b82526011600452602482fd5b634e487b7160e01b83526032600452602483fd5b634e487b7160e01b81526032600452602490fd5b3360009081527f7d7ffb7a348e1c6a02869081a26547b49160dd3df72d1d75a570eb9b698292ec602090815260408083205490927fa49807205ce4d355092ef5a8a18f56e8913cf4a201fbe287825b095693c217759160ff16156116535750505050565b61165c3361195d565b9184519061166982611884565b604282528482019260603685378251156115db57603084538251906001918210156115db5790607860218501536041915b8183116116ee5750505061152b57604861152793869361150b936114fc985198899376020b1b1b2b9b9a1b7b73a3937b61d1030b1b1b7bab73a1604d1b8a8601526114d3815180928c60378901910161133b565b909192600f811660108110156115c7576f181899199a1a9b1b9c1cb0b131b232b360811b901a61171e8587611936565b5360041c9280156115b35760001901919061169a565b600090808252602090828252604092838120338252835260ff84822054161561175d5750505050565b6117663361195d565b9184519061177382611884565b604282528482019260603685378251156115db57603084538251906001918210156115db5790607860218501536041915b8183116117f85750505061152b57604861152793869361150b936114fc985198899376020b1b1b2b9b9a1b7b73a3937b61d1030b1b1b7bab73a1604d1b8a8601526114d3815180928c60378901910161133b565b909192600f811660108110156115c7576f181899199a1a9b1b9c1cb0b131b232b360811b901a6118288587611936565b5360041c9280156115b3576000190191906117a4565b60a0810190811067ffffffffffffffff82111761185a57604052565b634e487b7160e01b600052604160045260246000fd5b67ffffffffffffffff811161185a57604052565b6080810190811067ffffffffffffffff82111761185a57604052565b90601f8019910116810190811067ffffffffffffffff82111761185a57604052565b9060009180835282602052604083209160018060a01b03169182845260205260ff6040842054166118f257505050565b80835282602052604083208284526020526040832060ff1981541690557ff6391f5c32d9c69d2a47ea670b442974b53935d1edc7fd64eb21e047a839171b339380a4565b908151811015611947570160200190565b634e487b7160e01b600052603260045260246000fd5b604051906060820182811067ffffffffffffffff82111761185a57604052602a82526020820160403682378251156119475760309053815160019081101561194757607860218401536029905b8082116119fe5750506119ba5790565b606460405162461bcd60e51b815260206004820152602060248201527f537472696e67733a20686578206c656e67746820696e73756666696369656e746044820152fd5b9091600f81166010811015611a57576f181899199a1a9b1b9c1cb0b131b232b360811b901a611a2d8486611936565b5360041c918015611a425760001901906119aa565b60246000634e487b7160e01b81526011600452fd5b60246000634e487b7160e01b81526032600452fd5b60208183031261078c57805167ffffffffffffffff9182821161078c57019082601f8301121561078c57815190811161185a5760405192611ab7601f8301601f1916602001856118a0565b8184526020828401011161078c57611ad5916020808501910161133b565b90565b90600182811c92168015611b08575b6020831014611af257565b634e487b7160e01b600052602260045260246000fd5b91607f1691611ae7565b60ff60015416611b1e57565b60405162461bcd60e51b815260206004820152601060248201526f14185d5cd8589b194e881c185d5cd95960821b6044820152606490fd5b6002805414611b655760028055565b60405162461bcd60e51b815260206004820152601f60248201527f5265656e7472616e637947756172643a207265656e7472616e742063616c6c006044820152606490fd5b6006548110156119475760066000527ff652222313e28459528d920b65115c16c04f3efc82aaedc97be59f3f377c0d3f0190600090565b600081815260076020526040812054611c5957600654600160401b811015611c45579082611c31611c1a84600160409601600655611baa565b819391549060031b91821b91600019901b19161790565b905560065492815260076020522055600190565b634e487b7160e01b82526041600452602482fd5b905090565b600081815260056020526040812054611c5957600454600160401b811015611c45576001810180600455811015611cc95790826040927f8a35acfbc15ff81a39ae7d344fd709f28e8600b4aa8c65c6b64bfe7fe36bd19b015560045492815260056020522055600190565b634e487b7160e01b82526032600452602482fd5b6000818152600760205260408120549091908015611dc25760001990808201818111611dae5760065490838201918211611d9a57808203611d66575b5050506006548015611d5257810190611d3182611baa565b909182549160031b1b19169055600655815260076020526040812055600190565b634e487b7160e01b84526031600452602484fd5b611d84611d75611c1a93611baa565b90549060031b1c928392611baa565b9055845260076020526040842055388080611d19565b634e487b7160e01b86526011600452602486fd5b634e487b7160e01b85526011600452602485fd5b505090565b9060405191826000825492611ddb84611ad8565b908184526001948581169081600014611e4a5750600114611e07575b5050611e05925003836118a0565b565b9093915060005260209081600020936000915b818310611e32575050611e0593508201013880611df7565b85548884018501529485019487945091830191611e1a565b915050611e0594506020925060ff191682840152151560051b8201013880611df756fea2646970667358221220fd3c0bd063b6f32170b3ea686fee8a49bd263a0fd177fde869b10b6fffb63ba264736f6c634300081400332f8788117e7eff1d82e926ec794901d17c78024a50270940304540a733656f0d","opcodes":"PUSH1 0x80 CALLVALUE PUSH3 0x22D JUMPI PUSH1 0x1F PUSH3 0x210C CODESIZE DUP2 SWAP1 SUB SWAP2 DUP3 ADD PUSH1 0x1F NOT AND DUP4 ADD SWAP2 PUSH1 0x1 PUSH1 0x1 PUSH1 0x40 SHL SUB DUP4 GT DUP5 DUP5 LT OR PUSH3 0x232 JUMPI DUP1 DUP5 SWAP3 PUSH1 0x40 SWAP5 DUP6 MSTORE DUP4 CODECOPY PUSH1 0x20 SWAP4 DUP5 SWAP2 DUP2 ADD SUB SLT PUSH3 0x22D JUMPI MLOAD PUSH1 0x1 PUSH1 0x1 PUSH1 0xA0 SHL SUB DUP2 AND SWAP2 SWAP1 DUP3 SWAP1 SUB PUSH3 0x22D JUMPI PUSH1 0xFF NOT SWAP3 PUSH1 0x1 SWAP4 DUP1 DUP6 SLOAD AND DUP6 SSTORE DUP5 PUSH1 0x2 SSTORE DUP4 ISZERO PUSH3 0x1EA JUMPI SWAP1 PUSH32 0x43DCF2166BE267D8F6DC31580B9B1A605FDDB5259A48DDDD50B0348AC38FB24E SWAP3 SWAP2 PUSH1 0x0 SWAP6 DUP7 DUP1 MSTORE DUP7 DUP4 MSTORE DUP4 DUP8 KECCAK256 DUP7 DUP9 MSTORE DUP4 MSTORE PUSH1 0xFF DUP5 DUP9 KECCAK256 SLOAD AND ISZERO PUSH3 0x1B5 JUMPI JUMPDEST PUSH32 0xA49807205CE4D355092EF5A8A18F56E8913CF4A201FBE287825B095693C21775 DUP1 DUP9 MSTORE DUP8 DUP5 MSTORE DUP5 DUP9 KECCAK256 DUP8 DUP10 MSTORE DUP5 MSTORE PUSH1 0xFF DUP6 DUP10 KECCAK256 SLOAD AND ISZERO PUSH3 0x17F JUMPI JUMPDEST POP PUSH32 0x79DFCEC784E591AAFCF60DB7DB7B029A5C8B12AAC4AFD4E8C4EB740430405FA6 SWAP3 DUP4 DUP9 MSTORE DUP8 DUP2 MSTORE DUP5 DUP9 KECCAK256 DUP8 DUP10 MSTORE DUP2 MSTORE PUSH1 0xFF DUP6 DUP10 KECCAK256 SLOAD AND ISZERO PUSH3 0x147 JUMPI JUMPDEST POP POP POP POP MLOAD SWAP3 DUP1 LOG2 PUSH2 0x1EA3 SWAP1 DUP2 PUSH3 0x249 DUP3 CODECOPY RETURN JUMPDEST DUP4 DUP9 MSTORE DUP8 DUP2 MSTORE DUP5 DUP9 KECCAK256 SWAP1 DUP8 DUP10 MSTORE MSTORE DUP4 DUP8 KECCAK256 SWAP2 DUP3 SLOAD AND OR SWAP1 SSTORE DUP4 CALLER SWAP2 PUSH1 0x0 DUP1 MLOAD PUSH1 0x20 PUSH3 0x20EC DUP4 CODECOPY DUP2 MLOAD SWAP2 MSTORE DUP8 DUP1 LOG4 CODESIZE DUP1 DUP1 DUP1 PUSH3 0x132 JUMP JUMPDEST DUP1 DUP9 MSTORE DUP8 DUP5 MSTORE DUP5 DUP9 KECCAK256 DUP8 DUP10 MSTORE DUP5 MSTORE DUP5 DUP9 KECCAK256 DUP3 DUP5 DUP3 SLOAD AND OR SWAP1 SSTORE DUP7 CALLER SWAP2 PUSH1 0x0 DUP1 MLOAD PUSH1 0x20 PUSH3 0x20EC DUP4 CODECOPY DUP2 MLOAD SWAP2 MSTORE DUP11 DUP1 LOG4 CODESIZE PUSH3 0xF3 JUMP JUMPDEST DUP7 DUP1 MSTORE DUP7 DUP4 MSTORE DUP4 DUP8 KECCAK256 DUP7 DUP9 MSTORE DUP4 MSTORE DUP4 DUP8 KECCAK256 DUP2 DUP4 DUP3 SLOAD AND OR SWAP1 SSTORE CALLER DUP7 DUP9 PUSH1 0x0 DUP1 MLOAD PUSH1 0x20 PUSH3 0x20EC DUP4 CODECOPY DUP2 MLOAD SWAP2 MSTORE DUP2 DUP1 LOG4 PUSH3 0xB6 JUMP JUMPDEST POP PUSH1 0x64 SWAP2 MLOAD SWAP1 PUSH3 0x461BCD PUSH1 0xE5 SHL DUP3 MSTORE PUSH1 0x4 DUP3 ADD MSTORE PUSH1 0x15 PUSH1 0x24 DUP3 ADD MSTORE PUSH32 0x496E76616C69642061646D696E20616464726573730000000000000000000000 PUSH1 0x44 DUP3 ADD MSTORE REVERT JUMPDEST PUSH1 0x0 DUP1 REVERT JUMPDEST PUSH4 0x4E487B71 PUSH1 0xE0 SHL PUSH1 0x0 MSTORE PUSH1 0x41 PUSH1 0x4 MSTORE PUSH1 0x24 PUSH1 0x0 REVERT INVALID PUSH1 0x80 DUP1 PUSH1 0x40 MSTORE PUSH1 0x4 CALLDATASIZE LT ISZERO PUSH2 0x13 JUMPI PUSH1 0x0 DUP1 REVERT JUMPDEST PUSH1 0x0 SWAP1 DUP2 CALLDATALOAD PUSH1 0xE0 SHR SWAP1 DUP2 PUSH4 0x1FFC9A7 EQ PUSH2 0x12E2 JUMPI POP DUP1 PUSH4 0x211B20A3 EQ PUSH2 0x1205 JUMPI DUP1 PUSH4 0x248A9CA3 EQ PUSH2 0x11D9 JUMPI DUP1 PUSH4 0x2F2FF15D EQ PUSH2 0x112B JUMPI DUP1 PUSH4 0x36568ABE EQ PUSH2 0x1098 JUMPI DUP1 PUSH4 0x3AAA49DA EQ PUSH2 0xF89 JUMPI DUP1 PUSH4 0x3F4BA83A EQ PUSH2 0xEF4 JUMPI DUP1 PUSH4 0x57D56267 EQ PUSH2 0xED6 JUMPI DUP1 PUSH4 0x5C975ABB EQ PUSH2 0xEB3 JUMPI DUP1 PUSH4 0x75B238FC EQ PUSH2 0xE78 JUMPI DUP1 PUSH4 0x8456CB59 EQ PUSH2 0xE1E JUMPI DUP1 PUSH4 0x85ACD641 EQ PUSH2 0xDEB JUMPI DUP1 PUSH4 0x8D8D6C73 EQ PUSH2 0xCA0 JUMPI DUP1 PUSH4 0x91D14854 EQ PUSH2 0xC55 JUMPI DUP1 PUSH4 0xA217FDDF EQ PUSH2 0xC39 JUMPI DUP1 PUSH4 0xAD64AE4B EQ PUSH2 0x8A7 JUMPI DUP1 PUSH4 0xB6450B8D EQ PUSH2 0x875 JUMPI DUP1 PUSH4 0xC1398137 EQ PUSH2 0x7FF JUMPI DUP1 PUSH4 0xCB17ED3E EQ PUSH2 0x7C4 JUMPI DUP1 PUSH4 0xD4D9B55C EQ PUSH2 0x37F JUMPI DUP1 PUSH4 0xD547741F EQ PUSH2 0x33F JUMPI DUP1 PUSH4 0xDAFA9955 EQ PUSH2 0x2BD JUMPI DUP1 PUSH4 0xE9EC2C8B EQ PUSH2 0x29F JUMPI DUP1 PUSH4 0xEED01AF1 EQ PUSH2 0x17C JUMPI PUSH4 0xF7A87C94 EQ PUSH2 0x134 JUMPI PUSH1 0x0 DUP1 REVERT JUMPDEST CALLVALUE PUSH2 0x179 JUMPI PUSH1 0x20 CALLDATASIZE PUSH1 0x3 NOT ADD SLT PUSH2 0x179 JUMPI PUSH2 0x161 PUSH1 0x1 PUSH1 0x40 PUSH2 0x175 SWAP4 PUSH1 0x4 CALLDATALOAD DUP2 MSTORE PUSH1 0x3 PUSH1 0x20 MSTORE KECCAK256 ADD PUSH2 0x1DC7 JUMP JUMPDEST PUSH1 0x40 MLOAD SWAP2 DUP3 SWAP2 PUSH1 0x20 DUP4 MSTORE PUSH1 0x20 DUP4 ADD SWAP1 PUSH2 0x135E JUMP JUMPDEST SUB SWAP1 RETURN JUMPDEST DUP1 REVERT JUMPDEST POP CALLVALUE PUSH2 0x179 JUMPI PUSH1 0x20 CALLDATASIZE PUSH1 0x3 NOT ADD SLT PUSH2 0x179 JUMPI PUSH1 0x4 CALLDATALOAD PUSH2 0x199 PUSH2 0x13D4 JUMP JUMPDEST PUSH2 0x1A1 PUSH2 0x1B12 JUMP JUMPDEST PUSH2 0x1A9 PUSH2 0x1B56 JUMP JUMPDEST DUP1 DUP3 MSTORE PUSH1 0x3 PUSH1 0x20 MSTORE PUSH1 0x40 DUP3 KECCAK256 DUP1 SLOAD PUSH1 0x1 PUSH1 0x1 PUSH1 0xA0 SHL SUB SWAP2 SWAP1 DUP3 AND ISZERO PUSH2 0x286 JUMPI PUSH1 0x2 DUP2 ADD DUP1 SLOAD PUSH1 0xFF DUP2 AND ISZERO PUSH2 0x26D JUMPI PUSH1 0xFF NOT AND SWAP1 SSTORE PUSH1 0x4 DUP2 ADD DUP5 SWAP1 SSTORE DUP4 SWAP2 SWAP1 PUSH2 0x1F0 DUP5 PUSH2 0x1CDD JUMP JUMPDEST POP SLOAD AND DUP1 EXTCODESIZE ISZERO PUSH2 0x25E JUMPI DUP2 DUP1 SWAP2 PUSH1 0x4 PUSH1 0x40 MLOAD DUP1 SWAP5 DUP2 SWAP4 PUSH4 0x55398C55 PUSH1 0xE1 SHL DUP4 MSTORE GAS CALL DUP1 ISZERO PUSH2 0x262 JUMPI PUSH2 0x24A JUMPI JUMPDEST POP DUP1 PUSH32 0x1C925D295BC85A3052CD19F118806DED7A9972FDF0D7DA672734DCBDCC227BD1 SWAP2 LOG2 PUSH1 0x1 PUSH1 0x2 SSTORE DUP1 RETURN JUMPDEST PUSH2 0x253 SWAP1 PUSH2 0x1870 JUMP JUMPDEST PUSH2 0x25E JUMPI DUP2 CODESIZE PUSH2 0x21D JUMP JUMPDEST POP DUP1 REVERT JUMPDEST PUSH1 0x40 MLOAD RETURNDATASIZE DUP5 DUP3 RETURNDATACOPY RETURNDATASIZE SWAP1 REVERT JUMPDEST PUSH1 0x40 MLOAD PUSH4 0x18C3151F PUSH1 0xE3 SHL DUP2 MSTORE PUSH1 0x4 DUP2 ADD DUP7 SWAP1 MSTORE PUSH1 0x24 SWAP1 REVERT JUMPDEST PUSH1 0x40 MLOAD PUSH4 0x74FCE405 PUSH1 0xE0 SHL DUP2 MSTORE PUSH1 0x4 DUP2 ADD DUP5 SWAP1 MSTORE PUSH1 0x24 SWAP1 REVERT JUMPDEST POP CALLVALUE PUSH2 0x179 JUMPI DUP1 PUSH1 0x3 NOT CALLDATASIZE ADD SLT PUSH2 0x179 JUMPI PUSH1 0x20 PUSH1 0x6 SLOAD PUSH1 0x40 MLOAD SWAP1 DUP2 MSTORE RETURN JUMPDEST POP CALLVALUE PUSH2 0x179 JUMPI DUP1 PUSH1 0x3 NOT CALLDATASIZE ADD SLT PUSH2 0x179 JUMPI PUSH1 0x40 MLOAD PUSH1 0x6 DUP1 SLOAD DUP1 DUP4 MSTORE SWAP1 DUP4 MSTORE PUSH1 0x20 DUP1 DUP4 ADD SWAP4 PUSH32 0xF652222313E28459528D920B65115C16C04F3EFC82AAEDC97BE59F3F377C0D3F SWAP3 SWAP2 JUMPDEST DUP3 DUP3 LT PUSH2 0x328 JUMPI PUSH2 0x175 DUP6 PUSH2 0x31C DUP2 DUP10 SUB DUP3 PUSH2 0x18A0 JUMP JUMPDEST PUSH1 0x40 MLOAD SWAP2 DUP3 SWAP2 DUP3 PUSH2 0x1399 JUMP JUMPDEST DUP4 SLOAD DUP7 MSTORE SWAP5 DUP6 ADD SWAP5 PUSH1 0x1 SWAP4 DUP5 ADD SWAP4 SWAP1 SWAP2 ADD SWAP1 PUSH2 0x305 JUMP JUMPDEST POP CALLVALUE PUSH2 0x179 JUMPI PUSH1 0x40 CALLDATASIZE PUSH1 0x3 NOT ADD SLT PUSH2 0x179 JUMPI PUSH2 0x37C PUSH1 0x4 CALLDATALOAD PUSH2 0x35F PUSH2 0x1383 JUMP JUMPDEST SWAP1 DUP1 DUP5 MSTORE DUP4 PUSH1 0x20 MSTORE PUSH2 0x377 PUSH1 0x1 PUSH1 0x40 DUP7 KECCAK256 ADD SLOAD PUSH2 0x1734 JUMP JUMPDEST PUSH2 0x18C2 JUMP JUMPDEST DUP1 RETURN JUMPDEST POP CALLVALUE PUSH2 0x179 JUMPI PUSH1 0x40 CALLDATASIZE PUSH1 0x3 NOT ADD SLT PUSH2 0x179 JUMPI PUSH2 0x399 PUSH2 0x1383 JUMP JUMPDEST PUSH2 0x3A1 PUSH2 0x15EF JUMP JUMPDEST PUSH2 0x3A9 PUSH2 0x1B12 JUMP JUMPDEST PUSH2 0x3B1 PUSH2 0x1B56 JUMP JUMPDEST PUSH1 0x1 PUSH1 0x1 PUSH1 0xA0 SHL SUB DUP2 DUP2 AND ISZERO PUSH2 0x7B2 JUMPI PUSH1 0x4 CALLDATALOAD DUP4 MSTORE PUSH1 0x3 PUSH1 0x20 MSTORE PUSH1 0x40 DUP4 KECCAK256 DUP2 DUP2 SLOAD AND SWAP2 DUP3 ISZERO PUSH2 0x799 JUMPI PUSH1 0x40 MLOAD PUSH4 0xA1308F27 PUSH1 0xE0 SHL DUP2 MSTORE PUSH1 0x20 DUP2 PUSH1 0x4 DUP2 DUP9 DUP7 AND GAS STATICCALL SWAP1 DUP2 ISZERO PUSH2 0x71D JUMPI DUP7 SWAP2 PUSH2 0x762 JUMPI JUMPDEST POP PUSH1 0x4 CALLDATALOAD SUB PUSH2 0x728 JUMPI PUSH1 0x40 MLOAD PUSH4 0x54FD4D5 PUSH1 0xE4 SHL DUP2 MSTORE SWAP2 DUP6 DUP4 PUSH1 0x4 DUP2 DUP9 DUP7 AND GAS STATICCALL SWAP3 DUP4 ISZERO PUSH2 0x71D JUMPI DUP7 SWAP4 PUSH2 0x6F9 JUMPI JUMPDEST POP PUSH1 0x2 DUP2 ADD SLOAD PUSH1 0xFF DUP2 AND PUSH2 0x69E JUMPI JUMPDEST DUP3 DUP7 AND EXTCODESIZE ISZERO PUSH2 0x69A JUMPI PUSH1 0x40 MLOAD PUSH4 0x189ACDBD PUSH1 0xE3 SHL DUP2 MSTORE ADDRESS PUSH1 0x4 DUP3 ADD MSTORE DUP8 DUP1 DUP3 PUSH1 0x24 DUP2 DUP4 DUP13 DUP11 AND GAS CALL SWAP2 DUP3 PUSH2 0x682 JUMPI JUMPDEST POP POP PUSH2 0x485 JUMPI PUSH1 0x40 MLOAD PUSH4 0x49373C15 PUSH1 0xE0 SHL DUP2 MSTORE PUSH1 0x4 SWAP1 REVERT JUMPDEST DUP2 SLOAD PUSH1 0x1 PUSH1 0x1 PUSH1 0xA0 SHL SUB NOT AND DUP7 DUP5 AND OR DUP3 SSTORE DUP4 MLOAD PUSH8 0xFFFFFFFFFFFFFFFF DUP2 GT PUSH2 0x66E JUMPI PUSH2 0x4B5 PUSH1 0x1 DUP5 ADD SLOAD PUSH2 0x1AD8 JUMP JUMPDEST PUSH1 0x1F DUP2 GT PUSH2 0x625 JUMPI JUMPDEST POP PUSH1 0x20 PUSH1 0x1F DUP3 GT PUSH1 0x1 EQ PUSH2 0x5B8 JUMPI SWAP1 DUP1 PUSH1 0xFF SWAP4 SWAP3 DUP11 SWAP2 PUSH2 0x5AD JUMPI JUMPDEST POP DUP2 PUSH1 0x1 SHL SWAP2 PUSH1 0x0 NOT SWAP1 PUSH1 0x3 SHL SHR NOT AND OR PUSH1 0x1 DUP5 ADD SSTORE JUMPDEST AND PUSH2 0x540 JUMPI JUMPDEST POP PUSH32 0xE4C85EC1BD042035946C5CEDBDB7516EBECCBDBD0170D5DB0D5A675F7137274E SWAP1 PUSH1 0x40 MLOAD SWAP5 PUSH1 0x20 DUP7 MSTORE AND SWAP4 DUP1 PUSH2 0x535 PUSH1 0x4 CALLDATALOAD SWAP5 PUSH1 0x20 DUP4 ADD SWAP1 PUSH2 0x135E JUMP JUMPDEST SUB SWAP1 LOG4 PUSH1 0x1 PUSH1 0x2 SSTORE DUP1 RETURN JUMPDEST PUSH1 0x2 DUP2 ADD DUP1 SLOAD PUSH1 0xFF NOT AND PUSH1 0x1 OR SWAP1 SSTORE TIMESTAMP PUSH1 0x4 SWAP2 DUP3 ADD SSTORE PUSH2 0x560 SWAP1 CALLDATALOAD PUSH2 0x1BE1 JUMP JUMPDEST POP DUP1 DUP5 AND EXTCODESIZE ISZERO PUSH2 0x5A9 JUMPI PUSH1 0x40 MLOAD PUSH4 0x75FC51F3 PUSH1 0xE1 SHL DUP2 MSTORE DUP6 SWAP1 DUP2 DUP2 PUSH1 0x4 DUP2 DUP4 DUP11 DUP9 AND GAS CALL DUP1 ISZERO PUSH2 0x262 JUMPI PUSH2 0x595 JUMPI JUMPDEST POP PUSH2 0x4F6 JUMP JUMPDEST PUSH2 0x59E SWAP1 PUSH2 0x1870 JUMP JUMPDEST PUSH2 0x5A9 JUMPI DUP5 CODESIZE PUSH2 0x58F JUMP JUMPDEST DUP5 DUP1 REVERT JUMPDEST SWAP1 POP DUP7 ADD MLOAD CODESIZE PUSH2 0x4D9 JUMP JUMPDEST PUSH1 0x1 DUP5 ADD DUP10 MSTORE PUSH1 0x20 DUP10 KECCAK256 SWAP1 DUP10 JUMPDEST PUSH1 0x1F NOT DUP5 AND DUP2 LT PUSH2 0x60D JUMPI POP SWAP2 PUSH1 0x1 SWAP2 PUSH1 0xFF SWAP5 SWAP4 DUP3 PUSH1 0x1F NOT DUP2 AND LT PUSH2 0x5F4 JUMPI JUMPDEST POP POP DUP2 SHL ADD PUSH1 0x1 DUP5 ADD SSTORE PUSH2 0x4F0 JUMP JUMPDEST DUP9 ADD MLOAD PUSH1 0x0 NOT PUSH1 0xF8 DUP5 PUSH1 0x3 SHL AND SHR NOT AND SWAP1 SSTORE CODESIZE DUP1 PUSH2 0x5E5 JUMP JUMPDEST SWAP1 SWAP2 PUSH1 0x20 PUSH1 0x1 DUP2 SWAP3 DUP6 DUP12 ADD MLOAD DUP2 SSTORE ADD SWAP4 ADD SWAP2 ADD PUSH2 0x5C5 JUMP JUMPDEST PUSH1 0x1 DUP5 ADD DUP10 MSTORE PUSH1 0x20 DUP10 KECCAK256 PUSH1 0x1F DUP4 ADD PUSH1 0x5 SHR DUP2 ADD SWAP2 PUSH1 0x20 DUP5 LT PUSH2 0x664 JUMPI JUMPDEST PUSH1 0x1F ADD PUSH1 0x5 SHR ADD SWAP1 JUMPDEST DUP2 DUP2 LT PUSH2 0x658 JUMPI POP PUSH2 0x4BE JUMP JUMPDEST PUSH1 0x0 DUP2 SSTORE PUSH1 0x1 ADD PUSH2 0x64B JUMP JUMPDEST SWAP1 SWAP2 POP DUP2 SWAP1 PUSH2 0x642 JUMP JUMPDEST PUSH4 0x4E487B71 PUSH1 0xE0 SHL DUP9 MSTORE PUSH1 0x41 PUSH1 0x4 MSTORE PUSH1 0x24 DUP9 REVERT JUMPDEST PUSH2 0x68B SWAP1 PUSH2 0x1870 JUMP JUMPDEST PUSH2 0x696 JUMPI DUP8 CODESIZE PUSH2 0x46D JUMP JUMPDEST DUP8 DUP1 REVERT JUMPDEST DUP7 DUP1 REVERT JUMPDEST PUSH1 0xFF NOT DUP2 AND PUSH1 0x2 DUP4 ADD SSTORE PUSH2 0x6B3 PUSH1 0x4 CALLDATALOAD PUSH2 0x1CDD JUMP JUMPDEST POP DUP5 EXTCODESIZE ISZERO PUSH2 0x69A JUMPI PUSH1 0x40 MLOAD PUSH4 0x55398C55 PUSH1 0xE1 SHL DUP2 MSTORE DUP8 SWAP1 DUP2 DUP2 PUSH1 0x4 DUP2 DUP4 DUP12 GAS CALL DUP1 ISZERO PUSH2 0x262 JUMPI PUSH2 0x6E5 JUMPI JUMPDEST POP POP PUSH2 0x43E JUMP JUMPDEST PUSH2 0x6EE SWAP1 PUSH2 0x1870 JUMP JUMPDEST PUSH2 0x69A JUMPI DUP7 CODESIZE PUSH2 0x6DE JUMP JUMPDEST PUSH2 0x716 SWAP2 SWAP4 POP RETURNDATASIZE DUP1 DUP9 DUP4 RETURNDATACOPY PUSH2 0x70E DUP2 DUP4 PUSH2 0x18A0 JUMP JUMPDEST DUP2 ADD SWAP1 PUSH2 0x1A6C JUMP JUMPDEST SWAP2 CODESIZE PUSH2 0x42F JUMP JUMPDEST PUSH1 0x40 MLOAD RETURNDATASIZE DUP9 DUP3 RETURNDATACOPY RETURNDATASIZE SWAP1 REVERT JUMPDEST PUSH1 0x40 MLOAD PUSH3 0x461BCD PUSH1 0xE5 SHL DUP2 MSTORE PUSH1 0x20 PUSH1 0x4 DUP3 ADD MSTORE PUSH1 0x12 PUSH1 0x24 DUP3 ADD MSTORE PUSH18 0x9ADEC8EAD8CA40928840DAD2E6DAC2E8C6D PUSH1 0x73 SHL PUSH1 0x44 DUP3 ADD MSTORE PUSH1 0x64 SWAP1 REVERT JUMPDEST SWAP1 POP PUSH1 0x20 DUP2 RETURNDATASIZE PUSH1 0x20 GT PUSH2 0x791 JUMPI JUMPDEST DUP2 PUSH2 0x77D PUSH1 0x20 SWAP4 DUP4 PUSH2 0x18A0 JUMP JUMPDEST DUP2 ADD SUB SLT PUSH2 0x78C JUMPI MLOAD CODESIZE PUSH2 0x400 JUMP JUMPDEST PUSH1 0x0 DUP1 REVERT JUMPDEST RETURNDATASIZE SWAP2 POP PUSH2 0x770 JUMP JUMPDEST PUSH1 0x24 PUSH1 0x40 MLOAD PUSH4 0x74FCE405 PUSH1 0xE0 SHL DUP2 MSTORE PUSH1 0x4 CALLDATALOAD PUSH1 0x4 DUP3 ADD MSTORE REVERT JUMPDEST PUSH1 0x40 MLOAD PUSH4 0x2E7F3C7F PUSH1 0xE1 SHL DUP2 MSTORE PUSH1 0x4 SWAP1 REVERT JUMPDEST POP CALLVALUE PUSH2 0x179 JUMPI DUP1 PUSH1 0x3 NOT CALLDATASIZE ADD SLT PUSH2 0x179 JUMPI PUSH1 0x20 PUSH1 0x40 MLOAD PUSH32 0x79DFCEC784E591AAFCF60DB7DB7B029A5C8B12AAC4AFD4E8C4EB740430405FA6 DUP2 MSTORE RETURN JUMPDEST POP CALLVALUE PUSH2 0x179 JUMPI DUP1 PUSH1 0x3 NOT CALLDATASIZE ADD SLT PUSH2 0x179 JUMPI PUSH1 0x40 MLOAD PUSH1 0x4 DUP1 SLOAD DUP1 DUP4 MSTORE SWAP1 DUP4 MSTORE PUSH1 0x20 DUP1 DUP4 ADD SWAP4 PUSH32 0x8A35ACFBC15FF81A39AE7D344FD709F28E8600B4AA8C65C6B64BFE7FE36BD19B SWAP3 SWAP2 JUMPDEST DUP3 DUP3 LT PUSH2 0x85E JUMPI PUSH2 0x175 DUP6 PUSH2 0x31C DUP2 DUP10 SUB DUP3 PUSH2 0x18A0 JUMP JUMPDEST DUP4 SLOAD DUP7 MSTORE SWAP5 DUP6 ADD SWAP5 PUSH1 0x1 SWAP4 DUP5 ADD SWAP4 SWAP1 SWAP2 ADD SWAP1 PUSH2 0x847 JUMP JUMPDEST POP CALLVALUE PUSH2 0x179 JUMPI PUSH1 0x20 CALLDATASIZE PUSH1 0x3 NOT ADD SLT PUSH2 0x179 JUMPI PUSH1 0xFF PUSH1 0x2 PUSH1 0x40 PUSH1 0x20 SWAP4 PUSH1 0x4 CALLDATALOAD DUP2 MSTORE PUSH1 0x3 DUP6 MSTORE KECCAK256 ADD SLOAD AND PUSH1 0x40 MLOAD SWAP1 ISZERO ISZERO DUP2 MSTORE RETURN JUMPDEST POP CALLVALUE PUSH2 0x179 JUMPI PUSH1 0x20 CALLDATASIZE PUSH1 0x3 NOT ADD SLT PUSH2 0x179 JUMPI PUSH1 0x4 CALLDATALOAD SWAP1 PUSH1 0x1 PUSH1 0x1 PUSH1 0xA0 SHL SUB DUP1 DUP4 AND DUP4 SUB PUSH2 0x78C JUMPI PUSH2 0x8D6 PUSH2 0x13D4 JUMP JUMPDEST PUSH2 0x8DE PUSH2 0x1B12 JUMP JUMPDEST PUSH2 0x8E6 PUSH2 0x1B56 JUMP JUMPDEST DUP1 DUP4 AND ISZERO PUSH2 0x7B2 JUMPI PUSH1 0x40 MLOAD PUSH4 0xA1308F27 PUSH1 0xE0 SHL DUP2 MSTORE PUSH1 0x20 DUP2 PUSH1 0x4 DUP2 DUP8 DUP7 AND GAS STATICCALL SWAP1 DUP2 ISZERO PUSH2 0xC2E JUMPI DUP4 SWAP2 PUSH2 0xBFC JUMPI JUMPDEST POP PUSH1 0x40 MLOAD PUSH4 0x54FD4D5 PUSH1 0xE4 SHL DUP2 MSTORE SWAP2 DUP4 DUP4 PUSH1 0x4 DUP2 DUP9 DUP6 AND GAS STATICCALL SWAP3 DUP4 ISZERO PUSH2 0xBF1 JUMPI DUP5 SWAP4 PUSH2 0xBD5 JUMPI JUMPDEST POP DUP2 DUP5 MSTORE PUSH1 0x3 PUSH1 0x20 MSTORE DUP1 PUSH1 0x40 DUP6 KECCAK256 SLOAD AND PUSH2 0xBBC JUMPI DUP1 DUP6 AND EXTCODESIZE ISZERO PUSH2 0xBB8 JUMPI PUSH1 0x40 MLOAD PUSH4 0x189ACDBD PUSH1 0xE3 SHL DUP2 MSTORE ADDRESS PUSH1 0x4 DUP3 ADD MSTORE DUP5 DUP1 DUP3 PUSH1 0x24 DUP2 DUP4 DUP12 DUP9 AND GAS CALL SWAP2 DUP3 PUSH2 0xBA4 JUMPI JUMPDEST POP POP PUSH2 0x996 JUMPI PUSH1 0x40 MLOAD PUSH4 0x49373C15 PUSH1 0xE0 SHL DUP2 MSTORE PUSH1 0x4 SWAP1 REVERT JUMPDEST PUSH1 0x40 MLOAD SWAP5 PUSH2 0x9A3 DUP7 PUSH2 0x183E JUMP JUMPDEST DUP2 DUP2 AND DUP7 MSTORE PUSH1 0x20 DUP7 ADD DUP5 DUP2 MSTORE DUP6 PUSH1 0x40 DUP9 ADD MSTORE TIMESTAMP PUSH1 0x60 DUP9 ADD MSTORE DUP6 PUSH1 0x80 DUP9 ADD MSTORE DUP4 DUP7 MSTORE PUSH1 0x3 PUSH1 0x20 MSTORE PUSH1 0x40 DUP7 KECCAK256 SWAP1 DUP4 DUP9 MLOAD AND PUSH12 0xFFFFFFFFFFFFFFFFFFFFFFFF PUSH1 0xA0 SHL DUP4 SLOAD AND OR DUP3 SSTORE MLOAD SWAP7 DUP8 MLOAD PUSH8 0xFFFFFFFFFFFFFFFF DUP2 GT PUSH2 0x66E JUMPI PUSH2 0xA08 PUSH1 0x1 DUP5 ADD SLOAD PUSH2 0x1AD8 JUMP JUMPDEST PUSH1 0x1F DUP2 GT PUSH2 0xB5F JUMPI JUMPDEST POP PUSH1 0x20 PUSH1 0x1F DUP3 GT PUSH1 0x1 EQ PUSH2 0xACA JUMPI SWAP2 DUP2 PUSH1 0x80 SWAP3 PUSH1 0x4 SWAP5 DUP12 SWAP13 PUSH32 0xF45369C3F7E6D5C7D1F4536055B3964E878ABBCE7204BCA95AFF657D3303CD95 SWAP11 SWAP12 SWAP13 SWAP3 PUSH2 0xABF JUMPI JUMPDEST POP POP DUP2 PUSH1 0x1 SHL SWAP2 PUSH1 0x0 NOT SWAP1 PUSH1 0x3 SHL SHR NOT AND OR PUSH1 0x1 DUP6 ADD SSTORE JUMPDEST PUSH1 0x2 DUP5 ADD PUSH1 0x40 DUP3 ADD MLOAD ISZERO ISZERO PUSH1 0xFF DUP1 NOT DUP4 SLOAD AND SWAP2 AND OR SWAP1 SSTORE PUSH1 0x60 DUP2 ADD MLOAD PUSH1 0x3 DUP6 ADD SSTORE ADD MLOAD SWAP2 ADD SSTORE PUSH2 0xA9A DUP5 PUSH2 0x1C5E JUMP JUMPDEST POP PUSH2 0xAB4 PUSH1 0x40 MLOAD SWAP3 DUP4 SWAP3 PUSH1 0x20 DUP5 MSTORE AND SWAP6 PUSH1 0x20 DUP4 ADD SWAP1 PUSH2 0x135E JUMP JUMPDEST SUB SWAP1 LOG3 PUSH1 0x1 PUSH1 0x2 SSTORE DUP1 RETURN JUMPDEST ADD MLOAD SWAP1 POP CODESIZE DUP1 PUSH2 0xA53 JUMP JUMPDEST PUSH1 0x1 DUP5 ADD DUP10 MSTORE PUSH1 0x20 DUP10 KECCAK256 SWAP10 DUP10 JUMPDEST PUSH1 0x1F NOT DUP5 AND DUP2 LT PUSH2 0xB47 JUMPI POP DUP3 PUSH32 0xF45369C3F7E6D5C7D1F4536055B3964E878ABBCE7204BCA95AFF657D3303CD95 SWAP9 SWAP10 SWAP11 SWAP12 PUSH1 0x4 SWAP6 SWAP4 PUSH1 0x1 SWAP4 PUSH1 0x80 SWAP7 PUSH1 0x1F NOT DUP2 AND LT PUSH2 0xB2E JUMPI JUMPDEST POP POP POP DUP2 SHL ADD PUSH1 0x1 DUP6 ADD SSTORE PUSH2 0xA6B JUMP JUMPDEST ADD MLOAD PUSH1 0x0 NOT PUSH1 0xF8 DUP5 PUSH1 0x3 SHL AND SHR NOT AND SWAP1 SSTORE CODESIZE DUP1 DUP1 PUSH2 0xB1E JUMP JUMPDEST DUP3 DUP3 ADD MLOAD DUP13 SSTORE PUSH1 0x1 SWAP1 SWAP12 ADD SWAP11 PUSH1 0x20 SWAP3 DUP4 ADD SWAP3 ADD PUSH2 0xAD7 JUMP JUMPDEST PUSH1 0x1 DUP5 ADD DUP10 MSTORE PUSH1 0x20 DUP10 KECCAK256 PUSH1 0x1F DUP4 ADD PUSH1 0x5 SHR DUP2 ADD PUSH1 0x20 DUP5 LT PUSH2 0xB9D JUMPI JUMPDEST PUSH1 0x1F DUP4 ADD PUSH1 0x5 SHR DUP3 ADD DUP2 LT PUSH2 0xB91 JUMPI POP POP PUSH2 0xA11 JUMP JUMPDEST PUSH1 0x0 DUP2 SSTORE PUSH1 0x1 ADD PUSH2 0xB7B JUMP JUMPDEST POP DUP1 PUSH2 0xB7B JUMP JUMPDEST PUSH2 0xBAD SWAP1 PUSH2 0x1870 JUMP JUMPDEST PUSH2 0x5A9 JUMPI DUP5 CODESIZE PUSH2 0x97E JUMP JUMPDEST DUP4 DUP1 REVERT JUMPDEST PUSH1 0x40 MLOAD PUSH4 0x9EC85AA5 PUSH1 0xE0 SHL DUP2 MSTORE PUSH1 0x4 DUP2 ADD DUP4 SWAP1 MSTORE PUSH1 0x24 SWAP1 REVERT JUMPDEST PUSH2 0xBEA SWAP2 SWAP4 POP RETURNDATASIZE DUP1 DUP7 DUP4 RETURNDATACOPY PUSH2 0x70E DUP2 DUP4 PUSH2 0x18A0 JUMP JUMPDEST SWAP2 CODESIZE PUSH2 0x93B JUMP JUMPDEST PUSH1 0x40 MLOAD RETURNDATASIZE DUP7 DUP3 RETURNDATACOPY RETURNDATASIZE SWAP1 REVERT JUMPDEST SWAP1 POP PUSH1 0x20 DUP2 RETURNDATASIZE PUSH1 0x20 GT PUSH2 0xC26 JUMPI JUMPDEST DUP2 PUSH2 0xC17 PUSH1 0x20 SWAP4 DUP4 PUSH2 0x18A0 JUMP JUMPDEST DUP2 ADD SUB SLT PUSH2 0x78C JUMPI MLOAD CODESIZE PUSH2 0x914 JUMP JUMPDEST RETURNDATASIZE SWAP2 POP PUSH2 0xC0A JUMP JUMPDEST PUSH1 0x40 MLOAD RETURNDATASIZE DUP6 DUP3 RETURNDATACOPY RETURNDATASIZE SWAP1 REVERT JUMPDEST POP CALLVALUE PUSH2 0x179 JUMPI DUP1 PUSH1 0x3 NOT CALLDATASIZE ADD SLT PUSH2 0x179 JUMPI PUSH1 0x20 SWAP1 PUSH1 0x40 MLOAD SWAP1 DUP2 MSTORE RETURN JUMPDEST POP CALLVALUE PUSH2 0x179 JUMPI PUSH1 0x40 CALLDATASIZE PUSH1 0x3 NOT ADD SLT PUSH2 0x179 JUMPI PUSH1 0x40 PUSH2 0xC71 PUSH2 0x1383 JUMP JUMPDEST SWAP2 PUSH1 0x4 CALLDATALOAD DUP2 MSTORE DUP1 PUSH1 0x20 MSTORE KECCAK256 SWAP1 PUSH1 0x1 DUP1 PUSH1 0xA0 SHL SUB AND PUSH1 0x0 MSTORE PUSH1 0x20 MSTORE PUSH1 0x20 PUSH1 0xFF PUSH1 0x40 PUSH1 0x0 KECCAK256 SLOAD AND PUSH1 0x40 MLOAD SWAP1 ISZERO ISZERO DUP2 MSTORE RETURN JUMPDEST POP CALLVALUE PUSH2 0x179 JUMPI DUP1 PUSH1 0x3 NOT CALLDATASIZE ADD SLT PUSH2 0x179 JUMPI PUSH2 0xCB9 PUSH2 0x15EF JUMP JUMPDEST PUSH1 0x40 MLOAD SWAP1 DUP2 PUSH1 0x6 SLOAD DUP1 DUP3 MSTORE DUP4 PUSH1 0x20 DUP1 SWAP4 ADD PUSH1 0x6 DUP6 MSTORE PUSH32 0xF652222313E28459528D920B65115C16C04F3EFC82AAEDC97BE59F3F377C0D3F SWAP3 DUP6 JUMPDEST DUP6 DUP3 DUP3 LT PUSH2 0xDD5 JUMPI POP POP POP PUSH2 0xD09 SWAP3 POP SUB DUP5 PUSH2 0x18A0 JUMP JUMPDEST DUP2 JUMPDEST DUP4 MLOAD DUP2 LT ISZERO PUSH2 0xDD1 JUMPI DUP2 DUP2 PUSH1 0x5 SHL DUP6 ADD ADD MLOAD DUP1 DUP5 MSTORE PUSH1 0x3 DUP4 MSTORE PUSH1 0x40 DUP5 KECCAK256 PUSH1 0x2 DUP2 ADD PUSH1 0xFF NOT DUP2 SLOAD AND SWAP1 SSTORE DUP5 PUSH1 0x4 DUP3 ADD SSTORE PUSH2 0xD43 DUP3 PUSH2 0x1CDD JUMP JUMPDEST POP SLOAD PUSH1 0x1 PUSH1 0x1 PUSH1 0xA0 SHL SUB AND DUP1 EXTCODESIZE ISZERO PUSH2 0x5A9 JUMPI DUP5 DUP1 DUP1 SWAP3 PUSH1 0x4 PUSH1 0x40 MLOAD DUP1 SWAP5 DUP2 SWAP4 PUSH4 0x55398C55 PUSH1 0xE1 SHL DUP4 MSTORE GAS CALL PUSH2 0xDBD JUMPI JUMPDEST POP DUP1 PUSH32 0x1C925D295BC85A3052CD19F118806DED7A9972FDF0D7DA672734DCBDCC227BD1 SWAP2 LOG2 PUSH1 0x0 NOT DUP2 EQ PUSH2 0xDA9 JUMPI PUSH1 0x1 ADD PUSH2 0xD0B JUMP JUMPDEST PUSH4 0x4E487B71 PUSH1 0xE0 SHL DUP4 MSTORE PUSH1 0x11 PUSH1 0x4 MSTORE PUSH1 0x24 DUP4 REVERT JUMPDEST PUSH2 0xDC6 SWAP1 PUSH2 0x1870 JUMP JUMPDEST PUSH2 0xBB8 JUMPI DUP4 CODESIZE PUSH2 0xD73 JUMP JUMPDEST DUP3 DUP1 RETURN JUMPDEST DUP6 SLOAD DUP5 MSTORE PUSH1 0x1 SWAP6 DUP7 ADD SWAP6 DUP10 SWAP6 POP SWAP4 ADD SWAP3 ADD PUSH2 0xCF2 JUMP JUMPDEST POP CALLVALUE PUSH2 0x179 JUMPI PUSH1 0x20 CALLDATASIZE PUSH1 0x3 NOT ADD SLT PUSH2 0x179 JUMPI PUSH1 0x20 SWAP1 PUSH1 0x4 CALLDATALOAD DUP2 MSTORE PUSH1 0x3 DUP3 MSTORE PUSH1 0x40 PUSH1 0x1 DUP1 PUSH1 0xA0 SHL SUB SWAP2 KECCAK256 SLOAD AND PUSH1 0x40 MLOAD SWAP1 DUP2 MSTORE RETURN JUMPDEST POP CALLVALUE PUSH2 0x179 JUMPI DUP1 PUSH1 0x3 NOT CALLDATASIZE ADD SLT PUSH2 0x179 JUMPI PUSH2 0xE37 PUSH2 0x15EF JUMP JUMPDEST PUSH2 0xE3F PUSH2 0x1B12 JUMP JUMPDEST PUSH1 0x1 PUSH1 0xFF NOT DUP2 SLOAD AND OR PUSH1 0x1 SSTORE PUSH32 0x62E78CEA01BEE320CD4E420270B5EA74000D11B0C9F74754EBDBFC544B05A258 PUSH1 0x20 PUSH1 0x40 MLOAD CALLER DUP2 MSTORE LOG1 DUP1 RETURN JUMPDEST POP CALLVALUE PUSH2 0x179 JUMPI DUP1 PUSH1 0x3 NOT CALLDATASIZE ADD SLT PUSH2 0x179 JUMPI PUSH1 0x20 PUSH1 0x40 MLOAD PUSH32 0xA49807205CE4D355092EF5A8A18F56E8913CF4A201FBE287825B095693C21775 DUP2 MSTORE RETURN JUMPDEST POP CALLVALUE PUSH2 0x179 JUMPI DUP1 PUSH1 0x3 NOT CALLDATASIZE ADD SLT PUSH2 0x179 JUMPI PUSH1 0x20 PUSH1 0xFF PUSH1 0x1 SLOAD AND PUSH1 0x40 MLOAD SWAP1 ISZERO ISZERO DUP2 MSTORE RETURN JUMPDEST POP CALLVALUE PUSH2 0x179 JUMPI DUP1 PUSH1 0x3 NOT CALLDATASIZE ADD SLT PUSH2 0x179 JUMPI PUSH1 0x20 PUSH1 0x4 SLOAD PUSH1 0x40 MLOAD SWAP1 DUP2 MSTORE RETURN JUMPDEST POP CALLVALUE PUSH2 0x179 JUMPI DUP1 PUSH1 0x3 NOT CALLDATASIZE ADD SLT PUSH2 0x179 JUMPI PUSH2 0xF0D PUSH2 0x15EF JUMP JUMPDEST PUSH1 0x1 SLOAD PUSH1 0xFF DUP2 AND ISZERO PUSH2 0xF4D JUMPI PUSH1 0xFF NOT AND PUSH1 0x1 SSTORE PUSH32 0x5DB9EE0A495BF2E6FF9C91A7834C1BA4FDD244A5E8AA4E537BD38AEAE4B073AA PUSH1 0x20 PUSH1 0x40 MLOAD CALLER DUP2 MSTORE LOG1 DUP1 RETURN JUMPDEST PUSH1 0x40 MLOAD PUSH3 0x461BCD PUSH1 0xE5 SHL DUP2 MSTORE PUSH1 0x20 PUSH1 0x4 DUP3 ADD MSTORE PUSH1 0x14 PUSH1 0x24 DUP3 ADD MSTORE PUSH20 0x14185D5CD8589B194E881B9BDD081C185D5CD959 PUSH1 0x62 SHL PUSH1 0x44 DUP3 ADD MSTORE PUSH1 0x64 SWAP1 REVERT JUMPDEST POP CALLVALUE PUSH2 0x179 JUMPI PUSH1 0x20 CALLDATASIZE PUSH1 0x3 NOT ADD SLT PUSH2 0x179 JUMPI PUSH1 0x4 CALLDATALOAD SWAP1 PUSH2 0xFA7 PUSH2 0x13D4 JUMP JUMPDEST PUSH2 0xFAF PUSH2 0x1B12 JUMP JUMPDEST PUSH2 0xFB7 PUSH2 0x1B56 JUMP JUMPDEST DUP2 DUP2 MSTORE PUSH1 0x3 PUSH1 0x20 MSTORE PUSH1 0x40 DUP2 KECCAK256 DUP1 SLOAD PUSH1 0x1 PUSH1 0x1 PUSH1 0xA0 SHL SUB SWAP2 SWAP1 DUP3 AND ISZERO PUSH2 0x107F JUMPI PUSH1 0x2 DUP2 ADD DUP1 SLOAD PUSH1 0xFF DUP2 AND PUSH2 0x1066 JUMPI PUSH1 0xFF NOT AND PUSH1 0x1 OR SWAP1 SSTORE TIMESTAMP PUSH1 0x4 DUP3 ADD SSTORE PUSH2 0xFFC DUP5 PUSH2 0x1BE1 JUMP JUMPDEST POP SLOAD AND DUP1 EXTCODESIZE ISZERO PUSH2 0x25E JUMPI DUP2 DUP1 SWAP2 PUSH1 0x4 PUSH1 0x40 MLOAD DUP1 SWAP5 DUP2 SWAP4 PUSH4 0x75FC51F3 PUSH1 0xE1 SHL DUP4 MSTORE GAS CALL DUP1 ISZERO PUSH2 0x262 JUMPI PUSH2 0x1057 JUMPI JUMPDEST POP SWAP1 PUSH32 0x51B2DC199208E98ADA43025E81C42A03803D516B406957F4067803D0F24D8B1F DUP3 DUP1 LOG2 PUSH1 0x1 PUSH1 0x2 SSTORE DUP1 RETURN JUMPDEST PUSH2 0x1060 SWAP1 PUSH2 0x1870 JUMP JUMPDEST CODESIZE PUSH2 0x1029 JUMP JUMPDEST PUSH1 0x40 MLOAD PUSH4 0xEB9E285F PUSH1 0xE0 SHL DUP2 MSTORE PUSH1 0x4 DUP2 ADD DUP8 SWAP1 MSTORE PUSH1 0x24 SWAP1 REVERT JUMPDEST PUSH1 0x40 MLOAD PUSH4 0x74FCE405 PUSH1 0xE0 SHL DUP2 MSTORE PUSH1 0x4 DUP2 ADD DUP6 SWAP1 MSTORE PUSH1 0x24 SWAP1 REVERT JUMPDEST POP CALLVALUE PUSH2 0x179 JUMPI PUSH1 0x40 CALLDATASIZE PUSH1 0x3 NOT ADD SLT PUSH2 0x179 JUMPI PUSH2 0x10B2 PUSH2 0x1383 JUMP JUMPDEST CALLER PUSH1 0x1 PUSH1 0x1 PUSH1 0xA0 SHL SUB DUP3 AND SUB PUSH2 0x10CE JUMPI PUSH2 0x37C SWAP1 PUSH1 0x4 CALLDATALOAD PUSH2 0x18C2 JUMP JUMPDEST PUSH1 0x40 MLOAD PUSH3 0x461BCD PUSH1 0xE5 SHL DUP2 MSTORE PUSH1 0x20 PUSH1 0x4 DUP3 ADD MSTORE PUSH1 0x2F PUSH1 0x24 DUP3 ADD MSTORE PUSH32 0x416363657373436F6E74726F6C3A2063616E206F6E6C792072656E6F756E6365 PUSH1 0x44 DUP3 ADD MSTORE PUSH15 0x103937B632B9903337B91039B2B633 PUSH1 0x89 SHL PUSH1 0x64 DUP3 ADD MSTORE PUSH1 0x84 SWAP1 REVERT JUMPDEST POP CALLVALUE PUSH2 0x179 JUMPI PUSH1 0x40 CALLDATASIZE PUSH1 0x3 NOT ADD SLT PUSH2 0x179 JUMPI PUSH1 0x4 CALLDATALOAD PUSH2 0x1148 PUSH2 0x1383 JUMP JUMPDEST DUP2 DUP4 MSTORE DUP3 PUSH1 0x20 MSTORE PUSH2 0x115F PUSH1 0x1 PUSH1 0x40 DUP6 KECCAK256 ADD SLOAD PUSH2 0x1734 JUMP JUMPDEST DUP2 DUP4 MSTORE PUSH1 0x20 DUP4 DUP2 MSTORE PUSH1 0x40 DUP1 DUP6 KECCAK256 PUSH1 0x1 PUSH1 0x1 PUSH1 0xA0 SHL SUB SWAP1 SWAP4 AND DUP1 DUP7 MSTORE SWAP3 SWAP1 SWAP2 MSTORE DUP4 KECCAK256 SLOAD PUSH1 0xFF AND ISZERO PUSH2 0x118D JUMPI DUP3 DUP1 RETURN JUMPDEST DUP2 DUP4 MSTORE DUP3 PUSH1 0x20 MSTORE PUSH1 0x40 DUP4 KECCAK256 DUP2 DUP5 MSTORE PUSH1 0x20 MSTORE PUSH1 0x40 DUP4 KECCAK256 PUSH1 0x1 PUSH1 0xFF NOT DUP3 SLOAD AND OR SWAP1 SSTORE CALLER SWAP2 PUSH32 0x2F8788117E7EFF1D82E926EC794901D17C78024A50270940304540A733656F0D DUP5 DUP1 LOG4 CODESIZE DUP1 DUP3 DUP1 RETURN JUMPDEST POP CALLVALUE PUSH2 0x179 JUMPI PUSH1 0x20 CALLDATASIZE PUSH1 0x3 NOT ADD SLT PUSH2 0x179 JUMPI PUSH1 0x1 PUSH1 0x40 PUSH1 0x20 SWAP3 PUSH1 0x4 CALLDATALOAD DUP2 MSTORE DUP1 DUP5 MSTORE KECCAK256 ADD SLOAD PUSH1 0x40 MLOAD SWAP1 DUP2 MSTORE RETURN JUMPDEST POP CALLVALUE PUSH2 0x179 JUMPI PUSH1 0x20 SWAP1 DUP2 PUSH1 0x3 NOT CALLDATASIZE ADD SLT PUSH2 0x179 JUMPI DUP1 PUSH1 0x40 SWAP2 PUSH1 0x80 DUP4 MLOAD PUSH2 0x122A DUP2 PUSH2 0x183E JUMP JUMPDEST DUP3 DUP2 MSTORE PUSH1 0x60 DUP7 DUP3 ADD MSTORE DUP3 DUP6 DUP3 ADD MSTORE DUP3 PUSH1 0x60 DUP3 ADD MSTORE ADD MSTORE PUSH1 0x4 CALLDATALOAD DUP2 MSTORE PUSH1 0x3 DUP4 MSTORE KECCAK256 PUSH1 0x40 MLOAD SWAP1 PUSH2 0x1257 DUP3 PUSH2 0x183E JUMP JUMPDEST DUP1 SLOAD PUSH1 0x1 PUSH1 0x1 PUSH1 0xA0 SHL SUB SWAP1 DUP2 AND DUP4 MSTORE SWAP3 PUSH2 0x1273 PUSH1 0x1 DUP4 ADD PUSH2 0x1DC7 JUMP JUMPDEST SWAP2 DUP2 DUP5 ADD SWAP3 DUP4 MSTORE PUSH2 0x12C9 PUSH1 0xFF PUSH1 0x2 DUP4 ADD SLOAD AND SWAP4 PUSH1 0x40 DUP7 ADD SWAP5 ISZERO ISZERO DUP6 MSTORE PUSH1 0x4 PUSH1 0x3 DUP5 ADD SLOAD SWAP4 PUSH1 0x60 DUP9 ADD SWAP5 DUP6 MSTORE ADD SLOAD SWAP4 PUSH1 0x80 DUP8 ADD SWAP5 DUP6 MSTORE PUSH1 0x40 MLOAD SWAP8 DUP9 SWAP8 DUP3 DUP10 MSTORE MLOAD AND SWAP1 DUP8 ADD MSTORE MLOAD PUSH1 0xA0 PUSH1 0x40 DUP8 ADD MSTORE PUSH1 0xC0 DUP7 ADD SWAP1 PUSH2 0x135E JUMP JUMPDEST SWAP3 MLOAD ISZERO ISZERO PUSH1 0x60 DUP6 ADD MSTORE MLOAD PUSH1 0x80 DUP5 ADD MSTORE MLOAD PUSH1 0xA0 DUP4 ADD MSTORE SUB SWAP1 RETURN JUMPDEST SWAP1 POP CALLVALUE PUSH2 0x25E JUMPI PUSH1 0x20 CALLDATASIZE PUSH1 0x3 NOT ADD SLT PUSH2 0x25E JUMPI PUSH1 0x4 CALLDATALOAD PUSH4 0xFFFFFFFF PUSH1 0xE0 SHL DUP2 AND DUP1 SWAP2 SUB PUSH2 0x1337 JUMPI PUSH1 0x20 SWAP3 POP PUSH4 0x7965DB0B PUSH1 0xE0 SHL DUP2 EQ SWAP1 DUP2 ISZERO PUSH2 0x1326 JUMPI JUMPDEST POP ISZERO ISZERO DUP2 MSTORE RETURN JUMPDEST PUSH4 0x1FFC9A7 PUSH1 0xE0 SHL EQ SWAP1 POP CODESIZE PUSH2 0x131F JUMP JUMPDEST DUP3 DUP1 REVERT JUMPDEST PUSH1 0x0 JUMPDEST DUP4 DUP2 LT PUSH2 0x134E JUMPI POP POP PUSH1 0x0 SWAP2 ADD MSTORE JUMP JUMPDEST DUP2 DUP2 ADD MLOAD DUP4 DUP3 ADD MSTORE PUSH1 0x20 ADD PUSH2 0x133E JUMP JUMPDEST SWAP1 PUSH1 0x20 SWAP2 PUSH2 0x1377 DUP2 MLOAD DUP1 SWAP3 DUP2 DUP6 MSTORE DUP6 DUP1 DUP7 ADD SWAP2 ADD PUSH2 0x133B JUMP JUMPDEST PUSH1 0x1F ADD PUSH1 0x1F NOT AND ADD ADD SWAP1 JUMP JUMPDEST PUSH1 0x24 CALLDATALOAD SWAP1 PUSH1 0x1 PUSH1 0x1 PUSH1 0xA0 SHL SUB DUP3 AND DUP3 SUB PUSH2 0x78C JUMPI JUMP JUMPDEST PUSH1 0x20 SWAP1 DUP2 PUSH1 0x40 DUP2 DUP4 ADD SWAP3 DUP3 DUP2 MSTORE DUP6 MLOAD DUP1 SWAP5 MSTORE ADD SWAP4 ADD SWAP2 PUSH1 0x0 JUMPDEST DUP3 DUP2 LT PUSH2 0x13C0 JUMPI POP POP POP POP SWAP1 JUMP JUMPDEST DUP4 MLOAD DUP6 MSTORE SWAP4 DUP2 ADD SWAP4 SWAP3 DUP2 ADD SWAP3 PUSH1 0x1 ADD PUSH2 0x13B2 JUMP JUMPDEST CALLER PUSH1 0x0 SWAP1 DUP2 MSTORE PUSH32 0xD298B934CEC0ECFC262793AEBB9C7A067E36B848AF9525172C7C18AA626E48F5 PUSH1 0x20 SWAP1 DUP2 MSTORE PUSH1 0x40 DUP1 DUP4 KECCAK256 SLOAD SWAP1 SWAP3 PUSH32 0x79DFCEC784E591AAFCF60DB7DB7B029A5C8B12AAC4AFD4E8C4EB740430405FA6 SWAP2 PUSH1 0xFF AND ISZERO PUSH2 0x1438 JUMPI POP POP POP POP JUMP JUMPDEST PUSH2 0x1441 CALLER PUSH2 0x195D JUMP JUMPDEST SWAP2 DUP5 MLOAD SWAP1 PUSH2 0x144E DUP3 PUSH2 0x1884 JUMP JUMPDEST PUSH1 0x42 DUP3 MSTORE DUP5 DUP3 ADD SWAP3 PUSH1 0x60 CALLDATASIZE DUP6 CALLDATACOPY DUP3 MLOAD ISZERO PUSH2 0x15DB JUMPI PUSH1 0x30 DUP5 MSTORE8 DUP3 MLOAD SWAP1 PUSH1 0x1 SWAP2 DUP3 LT ISZERO PUSH2 0x15DB JUMPI SWAP1 PUSH1 0x78 PUSH1 0x21 DUP6 ADD MSTORE8 PUSH1 0x41 SWAP2 JUMPDEST DUP2 DUP4 GT PUSH2 0x156D JUMPI POP POP POP PUSH2 0x152B JUMPI PUSH1 0x48 PUSH2 0x1527 SWAP4 DUP7 SWAP4 PUSH2 0x150B SWAP4 PUSH2 0x14FC SWAP9 MLOAD SWAP9 DUP10 SWAP4 PUSH23 0x20B1B1B2B9B9A1B7B73A3937B61D1030B1B1B7BAB73A1 PUSH1 0x4D SHL DUP11 DUP7 ADD MSTORE PUSH2 0x14D3 DUP2 MLOAD DUP1 SWAP3 DUP13 PUSH1 0x37 DUP10 ADD SWAP2 ADD PUSH2 0x133B JUMP JUMPDEST DUP5 ADD SWAP2 PUSH17 0x1034B99036B4B9B9B4B733903937B6329 PUSH1 0x7D SHL PUSH1 0x37 DUP5 ADD MSTORE MLOAD DUP1 SWAP4 DUP7 DUP5 ADD SWAP1 PUSH2 0x133B JUMP JUMPDEST ADD SUB PUSH1 0x28 DUP2 ADD DUP8 MSTORE ADD DUP6 PUSH2 0x18A0 JUMP JUMPDEST MLOAD SWAP3 DUP4 SWAP3 PUSH3 0x461BCD PUSH1 0xE5 SHL DUP5 MSTORE PUSH1 0x4 DUP5 ADD MSTORE PUSH1 0x24 DUP4 ADD SWAP1 PUSH2 0x135E JUMP JUMPDEST SUB SWAP1 REVERT JUMPDEST PUSH1 0x64 DUP5 DUP7 MLOAD SWAP1 PUSH3 0x461BCD PUSH1 0xE5 SHL DUP3 MSTORE DUP1 PUSH1 0x4 DUP4 ADD MSTORE PUSH1 0x24 DUP3 ADD MSTORE PUSH32 0x537472696E67733A20686578206C656E67746820696E73756666696369656E74 PUSH1 0x44 DUP3 ADD MSTORE REVERT JUMPDEST SWAP1 SWAP2 SWAP3 PUSH1 0xF DUP2 AND PUSH1 0x10 DUP2 LT ISZERO PUSH2 0x15C7 JUMPI PUSH16 0x181899199A1A9B1B9C1CB0B131B232B3 PUSH1 0x81 SHL SWAP1 BYTE PUSH2 0x159D DUP6 DUP8 PUSH2 0x1936 JUMP JUMPDEST MSTORE8 PUSH1 0x4 SHR SWAP3 DUP1 ISZERO PUSH2 0x15B3 JUMPI PUSH1 0x0 NOT ADD SWAP2 SWAP1 PUSH2 0x147F JUMP JUMPDEST PUSH4 0x4E487B71 PUSH1 0xE0 SHL DUP3 MSTORE PUSH1 0x11 PUSH1 0x4 MSTORE PUSH1 0x24 DUP3 REVERT JUMPDEST PUSH4 0x4E487B71 PUSH1 0xE0 SHL DUP4 MSTORE PUSH1 0x32 PUSH1 0x4 MSTORE PUSH1 0x24 DUP4 REVERT JUMPDEST PUSH4 0x4E487B71 PUSH1 0xE0 SHL DUP2 MSTORE PUSH1 0x32 PUSH1 0x4 MSTORE PUSH1 0x24 SWAP1 REVERT JUMPDEST CALLER PUSH1 0x0 SWAP1 DUP2 MSTORE PUSH32 0x7D7FFB7A348E1C6A02869081A26547B49160DD3DF72D1D75A570EB9B698292EC PUSH1 0x20 SWAP1 DUP2 MSTORE PUSH1 0x40 DUP1 DUP4 KECCAK256 SLOAD SWAP1 SWAP3 PUSH32 0xA49807205CE4D355092EF5A8A18F56E8913CF4A201FBE287825B095693C21775 SWAP2 PUSH1 0xFF AND ISZERO PUSH2 0x1653 JUMPI POP POP POP POP JUMP JUMPDEST PUSH2 0x165C CALLER PUSH2 0x195D JUMP JUMPDEST SWAP2 DUP5 MLOAD SWAP1 PUSH2 0x1669 DUP3 PUSH2 0x1884 JUMP JUMPDEST PUSH1 0x42 DUP3 MSTORE DUP5 DUP3 ADD SWAP3 PUSH1 0x60 CALLDATASIZE DUP6 CALLDATACOPY DUP3 MLOAD ISZERO PUSH2 0x15DB JUMPI PUSH1 0x30 DUP5 MSTORE8 DUP3 MLOAD SWAP1 PUSH1 0x1 SWAP2 DUP3 LT ISZERO PUSH2 0x15DB JUMPI SWAP1 PUSH1 0x78 PUSH1 0x21 DUP6 ADD MSTORE8 PUSH1 0x41 SWAP2 JUMPDEST DUP2 DUP4 GT PUSH2 0x16EE JUMPI POP POP POP PUSH2 0x152B JUMPI PUSH1 0x48 PUSH2 0x1527 SWAP4 DUP7 SWAP4 PUSH2 0x150B SWAP4 PUSH2 0x14FC SWAP9 MLOAD SWAP9 DUP10 SWAP4 PUSH23 0x20B1B1B2B9B9A1B7B73A3937B61D1030B1B1B7BAB73A1 PUSH1 0x4D SHL DUP11 DUP7 ADD MSTORE PUSH2 0x14D3 DUP2 MLOAD DUP1 SWAP3 DUP13 PUSH1 0x37 DUP10 ADD SWAP2 ADD PUSH2 0x133B JUMP JUMPDEST SWAP1 SWAP2 SWAP3 PUSH1 0xF DUP2 AND PUSH1 0x10 DUP2 LT ISZERO PUSH2 0x15C7 JUMPI PUSH16 0x181899199A1A9B1B9C1CB0B131B232B3 PUSH1 0x81 SHL SWAP1 BYTE PUSH2 0x171E DUP6 DUP8 PUSH2 0x1936 JUMP JUMPDEST MSTORE8 PUSH1 0x4 SHR SWAP3 DUP1 ISZERO PUSH2 0x15B3 JUMPI PUSH1 0x0 NOT ADD SWAP2 SWAP1 PUSH2 0x169A JUMP JUMPDEST PUSH1 0x0 SWAP1 DUP1 DUP3 MSTORE PUSH1 0x20 SWAP1 DUP3 DUP3 MSTORE PUSH1 0x40 SWAP3 DUP4 DUP2 KECCAK256 CALLER DUP3 MSTORE DUP4 MSTORE PUSH1 0xFF DUP5 DUP3 KECCAK256 SLOAD AND ISZERO PUSH2 0x175D JUMPI POP POP POP POP JUMP JUMPDEST PUSH2 0x1766 CALLER PUSH2 0x195D JUMP JUMPDEST SWAP2 DUP5 MLOAD SWAP1 PUSH2 0x1773 DUP3 PUSH2 0x1884 JUMP JUMPDEST PUSH1 0x42 DUP3 MSTORE DUP5 DUP3 ADD SWAP3 PUSH1 0x60 CALLDATASIZE DUP6 CALLDATACOPY DUP3 MLOAD ISZERO PUSH2 0x15DB JUMPI PUSH1 0x30 DUP5 MSTORE8 DUP3 MLOAD SWAP1 PUSH1 0x1 SWAP2 DUP3 LT ISZERO PUSH2 0x15DB JUMPI SWAP1 PUSH1 0x78 PUSH1 0x21 DUP6 ADD MSTORE8 PUSH1 0x41 SWAP2 JUMPDEST DUP2 DUP4 GT PUSH2 0x17F8 JUMPI POP POP POP PUSH2 0x152B JUMPI PUSH1 0x48 PUSH2 0x1527 SWAP4 DUP7 SWAP4 PUSH2 0x150B SWAP4 PUSH2 0x14FC SWAP9 MLOAD SWAP9 DUP10 SWAP4 PUSH23 0x20B1B1B2B9B9A1B7B73A3937B61D1030B1B1B7BAB73A1 PUSH1 0x4D SHL DUP11 DUP7 ADD MSTORE PUSH2 0x14D3 DUP2 MLOAD DUP1 SWAP3 DUP13 PUSH1 0x37 DUP10 ADD SWAP2 ADD PUSH2 0x133B JUMP JUMPDEST SWAP1 SWAP2 SWAP3 PUSH1 0xF DUP2 AND PUSH1 0x10 DUP2 LT ISZERO PUSH2 0x15C7 JUMPI PUSH16 0x181899199A1A9B1B9C1CB0B131B232B3 PUSH1 0x81 SHL SWAP1 BYTE PUSH2 0x1828 DUP6 DUP8 PUSH2 0x1936 JUMP JUMPDEST MSTORE8 PUSH1 0x4 SHR SWAP3 DUP1 ISZERO PUSH2 0x15B3 JUMPI PUSH1 0x0 NOT ADD SWAP2 SWAP1 PUSH2 0x17A4 JUMP JUMPDEST PUSH1 0xA0 DUP2 ADD SWAP1 DUP2 LT PUSH8 0xFFFFFFFFFFFFFFFF DUP3 GT OR PUSH2 0x185A JUMPI PUSH1 0x40 MSTORE JUMP JUMPDEST PUSH4 0x4E487B71 PUSH1 0xE0 SHL PUSH1 0x0 MSTORE PUSH1 0x41 PUSH1 0x4 MSTORE PUSH1 0x24 PUSH1 0x0 REVERT JUMPDEST PUSH8 0xFFFFFFFFFFFFFFFF DUP2 GT PUSH2 0x185A JUMPI PUSH1 0x40 MSTORE JUMP JUMPDEST PUSH1 0x80 DUP2 ADD SWAP1 DUP2 LT PUSH8 0xFFFFFFFFFFFFFFFF DUP3 GT OR PUSH2 0x185A JUMPI PUSH1 0x40 MSTORE JUMP JUMPDEST SWAP1 PUSH1 0x1F DUP1 NOT SWAP2 ADD AND DUP2 ADD SWAP1 DUP2 LT PUSH8 0xFFFFFFFFFFFFFFFF DUP3 GT OR PUSH2 0x185A JUMPI PUSH1 0x40 MSTORE JUMP JUMPDEST SWAP1 PUSH1 0x0 SWAP2 DUP1 DUP4 MSTORE DUP3 PUSH1 0x20 MSTORE PUSH1 0x40 DUP4 KECCAK256 SWAP2 PUSH1 0x1 DUP1 PUSH1 0xA0 SHL SUB AND SWAP2 DUP3 DUP5 MSTORE PUSH1 0x20 MSTORE PUSH1 0xFF PUSH1 0x40 DUP5 KECCAK256 SLOAD AND PUSH2 0x18F2 JUMPI POP POP POP JUMP JUMPDEST DUP1 DUP4 MSTORE DUP3 PUSH1 0x20 MSTORE PUSH1 0x40 DUP4 KECCAK256 DUP3 DUP5 MSTORE PUSH1 0x20 MSTORE PUSH1 0x40 DUP4 KECCAK256 PUSH1 0xFF NOT DUP2 SLOAD AND SWAP1 SSTORE PUSH32 0xF6391F5C32D9C69D2A47EA670B442974B53935D1EDC7FD64EB21E047A839171B CALLER SWAP4 DUP1 LOG4 JUMP JUMPDEST SWAP1 DUP2 MLOAD DUP2 LT ISZERO PUSH2 0x1947 JUMPI ADD PUSH1 0x20 ADD SWAP1 JUMP JUMPDEST PUSH4 0x4E487B71 PUSH1 0xE0 SHL PUSH1 0x0 MSTORE PUSH1 0x32 PUSH1 0x4 MSTORE PUSH1 0x24 PUSH1 0x0 REVERT JUMPDEST PUSH1 0x40 MLOAD SWAP1 PUSH1 0x60 DUP3 ADD DUP3 DUP2 LT PUSH8 0xFFFFFFFFFFFFFFFF DUP3 GT OR PUSH2 0x185A JUMPI PUSH1 0x40 MSTORE PUSH1 0x2A DUP3 MSTORE PUSH1 0x20 DUP3 ADD PUSH1 0x40 CALLDATASIZE DUP3 CALLDATACOPY DUP3 MLOAD ISZERO PUSH2 0x1947 JUMPI PUSH1 0x30 SWAP1 MSTORE8 DUP2 MLOAD PUSH1 0x1 SWAP1 DUP2 LT ISZERO PUSH2 0x1947 JUMPI PUSH1 0x78 PUSH1 0x21 DUP5 ADD MSTORE8 PUSH1 0x29 SWAP1 JUMPDEST DUP1 DUP3 GT PUSH2 0x19FE JUMPI POP POP PUSH2 0x19BA JUMPI SWAP1 JUMP JUMPDEST PUSH1 0x64 PUSH1 0x40 MLOAD PUSH3 0x461BCD PUSH1 0xE5 SHL DUP2 MSTORE PUSH1 0x20 PUSH1 0x4 DUP3 ADD MSTORE PUSH1 0x20 PUSH1 0x24 DUP3 ADD MSTORE PUSH32 0x537472696E67733A20686578206C656E67746820696E73756666696369656E74 PUSH1 0x44 DUP3 ADD MSTORE REVERT JUMPDEST SWAP1 SWAP2 PUSH1 0xF DUP2 AND PUSH1 0x10 DUP2 LT ISZERO PUSH2 0x1A57 JUMPI PUSH16 0x181899199A1A9B1B9C1CB0B131B232B3 PUSH1 0x81 SHL SWAP1 BYTE PUSH2 0x1A2D DUP5 DUP7 PUSH2 0x1936 JUMP JUMPDEST MSTORE8 PUSH1 0x4 SHR SWAP2 DUP1 ISZERO PUSH2 0x1A42 JUMPI PUSH1 0x0 NOT ADD SWAP1 PUSH2 0x19AA JUMP JUMPDEST PUSH1 0x24 PUSH1 0x0 PUSH4 0x4E487B71 PUSH1 0xE0 SHL DUP2 MSTORE PUSH1 0x11 PUSH1 0x4 MSTORE REVERT JUMPDEST PUSH1 0x24 PUSH1 0x0 PUSH4 0x4E487B71 PUSH1 0xE0 SHL DUP2 MSTORE PUSH1 0x32 PUSH1 0x4 MSTORE REVERT JUMPDEST PUSH1 0x20 DUP2 DUP4 SUB SLT PUSH2 0x78C JUMPI DUP1 MLOAD PUSH8 0xFFFFFFFFFFFFFFFF SWAP2 DUP3 DUP3 GT PUSH2 0x78C JUMPI ADD SWAP1 DUP3 PUSH1 0x1F DUP4 ADD SLT ISZERO PUSH2 0x78C JUMPI DUP2 MLOAD SWAP1 DUP2 GT PUSH2 0x185A JUMPI PUSH1 0x40 MLOAD SWAP3 PUSH2 0x1AB7 PUSH1 0x1F DUP4 ADD PUSH1 0x1F NOT AND PUSH1 0x20 ADD DUP6 PUSH2 0x18A0 JUMP JUMPDEST DUP2 DUP5 MSTORE PUSH1 0x20 DUP3 DUP5 ADD ADD GT PUSH2 0x78C JUMPI PUSH2 0x1AD5 SWAP2 PUSH1 0x20 DUP1 DUP6 ADD SWAP2 ADD PUSH2 0x133B JUMP JUMPDEST SWAP1 JUMP JUMPDEST SWAP1 PUSH1 0x1 DUP3 DUP2 SHR SWAP3 AND DUP1 ISZERO PUSH2 0x1B08 JUMPI JUMPDEST PUSH1 0x20 DUP4 LT EQ PUSH2 0x1AF2 JUMPI JUMP JUMPDEST PUSH4 0x4E487B71 PUSH1 0xE0 SHL PUSH1 0x0 MSTORE PUSH1 0x22 PUSH1 0x4 MSTORE PUSH1 0x24 PUSH1 0x0 REVERT JUMPDEST SWAP2 PUSH1 0x7F AND SWAP2 PUSH2 0x1AE7 JUMP JUMPDEST PUSH1 0xFF PUSH1 0x1 SLOAD AND PUSH2 0x1B1E JUMPI JUMP JUMPDEST PUSH1 0x40 MLOAD PUSH3 0x461BCD PUSH1 0xE5 SHL DUP2 MSTORE PUSH1 0x20 PUSH1 0x4 DUP3 ADD MSTORE PUSH1 0x10 PUSH1 0x24 DUP3 ADD MSTORE PUSH16 0x14185D5CD8589B194E881C185D5CD959 PUSH1 0x82 SHL PUSH1 0x44 DUP3 ADD MSTORE PUSH1 0x64 SWAP1 REVERT JUMPDEST PUSH1 0x2 DUP1 SLOAD EQ PUSH2 0x1B65 JUMPI PUSH1 0x2 DUP1 SSTORE JUMP JUMPDEST PUSH1 0x40 MLOAD PUSH3 0x461BCD PUSH1 0xE5 SHL DUP2 MSTORE PUSH1 0x20 PUSH1 0x4 DUP3 ADD MSTORE PUSH1 0x1F PUSH1 0x24 DUP3 ADD MSTORE PUSH32 0x5265656E7472616E637947756172643A207265656E7472616E742063616C6C00 PUSH1 0x44 DUP3 ADD MSTORE PUSH1 0x64 SWAP1 REVERT JUMPDEST PUSH1 0x6 SLOAD DUP2 LT ISZERO PUSH2 0x1947 JUMPI PUSH1 0x6 PUSH1 0x0 MSTORE PUSH32 0xF652222313E28459528D920B65115C16C04F3EFC82AAEDC97BE59F3F377C0D3F ADD SWAP1 PUSH1 0x0 SWAP1 JUMP JUMPDEST PUSH1 0x0 DUP2 DUP2 MSTORE PUSH1 0x7 PUSH1 0x20 MSTORE PUSH1 0x40 DUP2 KECCAK256 SLOAD PUSH2 0x1C59 JUMPI PUSH1 0x6 SLOAD PUSH1 0x1 PUSH1 0x40 SHL DUP2 LT ISZERO PUSH2 0x1C45 JUMPI SWAP1 DUP3 PUSH2 0x1C31 PUSH2 0x1C1A DUP5 PUSH1 0x1 PUSH1 0x40 SWAP7 ADD PUSH1 0x6 SSTORE PUSH2 0x1BAA JUMP JUMPDEST DUP2 SWAP4 SWAP2 SLOAD SWAP1 PUSH1 0x3 SHL SWAP2 DUP3 SHL SWAP2 PUSH1 0x0 NOT SWAP1 SHL NOT AND OR SWAP1 JUMP JUMPDEST SWAP1 SSTORE PUSH1 0x6 SLOAD SWAP3 DUP2 MSTORE PUSH1 0x7 PUSH1 0x20 MSTORE KECCAK256 SSTORE PUSH1 0x1 SWAP1 JUMP JUMPDEST PUSH4 0x4E487B71 PUSH1 0xE0 SHL DUP3 MSTORE PUSH1 0x41 PUSH1 0x4 MSTORE PUSH1 0x24 DUP3 REVERT JUMPDEST SWAP1 POP SWAP1 JUMP JUMPDEST PUSH1 0x0 DUP2 DUP2 MSTORE PUSH1 0x5 PUSH1 0x20 MSTORE PUSH1 0x40 DUP2 KECCAK256 SLOAD PUSH2 0x1C59 JUMPI PUSH1 0x4 SLOAD PUSH1 0x1 PUSH1 0x40 SHL DUP2 LT ISZERO PUSH2 0x1C45 JUMPI PUSH1 0x1 DUP2 ADD DUP1 PUSH1 0x4 SSTORE DUP2 LT ISZERO PUSH2 0x1CC9 JUMPI SWAP1 DUP3 PUSH1 0x40 SWAP3 PUSH32 0x8A35ACFBC15FF81A39AE7D344FD709F28E8600B4AA8C65C6B64BFE7FE36BD19B ADD SSTORE PUSH1 0x4 SLOAD SWAP3 DUP2 MSTORE PUSH1 0x5 PUSH1 0x20 MSTORE KECCAK256 SSTORE PUSH1 0x1 SWAP1 JUMP JUMPDEST PUSH4 0x4E487B71 PUSH1 0xE0 SHL DUP3 MSTORE PUSH1 0x32 PUSH1 0x4 MSTORE PUSH1 0x24 DUP3 REVERT JUMPDEST PUSH1 0x0 DUP2 DUP2 MSTORE PUSH1 0x7 PUSH1 0x20 MSTORE PUSH1 0x40 DUP2 KECCAK256 SLOAD SWAP1 SWAP2 SWAP1 DUP1 ISZERO PUSH2 0x1DC2 JUMPI PUSH1 0x0 NOT SWAP1 DUP1 DUP3 ADD DUP2 DUP2 GT PUSH2 0x1DAE JUMPI PUSH1 0x6 SLOAD SWAP1 DUP4 DUP3 ADD SWAP2 DUP3 GT PUSH2 0x1D9A JUMPI DUP1 DUP3 SUB PUSH2 0x1D66 JUMPI JUMPDEST POP POP POP PUSH1 0x6 SLOAD DUP1 ISZERO PUSH2 0x1D52 JUMPI DUP2 ADD SWAP1 PUSH2 0x1D31 DUP3 PUSH2 0x1BAA JUMP JUMPDEST SWAP1 SWAP2 DUP3 SLOAD SWAP2 PUSH1 0x3 SHL SHL NOT AND SWAP1 SSTORE PUSH1 0x6 SSTORE DUP2 MSTORE PUSH1 0x7 PUSH1 0x20 MSTORE PUSH1 0x40 DUP2 KECCAK256 SSTORE PUSH1 0x1 SWAP1 JUMP JUMPDEST PUSH4 0x4E487B71 PUSH1 0xE0 SHL DUP5 MSTORE PUSH1 0x31 PUSH1 0x4 MSTORE PUSH1 0x24 DUP5 REVERT JUMPDEST PUSH2 0x1D84 PUSH2 0x1D75 PUSH2 0x1C1A SWAP4 PUSH2 0x1BAA JUMP JUMPDEST SWAP1 SLOAD SWAP1 PUSH1 0x3 SHL SHR SWAP3 DUP4 SWAP3 PUSH2 0x1BAA JUMP JUMPDEST SWAP1 SSTORE DUP5 MSTORE PUSH1 0x7 PUSH1 0x20 MSTORE PUSH1 0x40 DUP5 KECCAK256 SSTORE CODESIZE DUP1 DUP1 PUSH2 0x1D19 JUMP JUMPDEST PUSH4 0x4E487B71 PUSH1 0xE0 SHL DUP7 MSTORE PUSH1 0x11 PUSH1 0x4 MSTORE PUSH1 0x24 DUP7 REVERT JUMPDEST PUSH4 0x4E487B71 PUSH1 0xE0 SHL DUP6 MSTORE PUSH1 0x11 PUSH1 0x4 MSTORE PUSH1 0x24 DUP6 REVERT JUMPDEST POP POP SWAP1 JUMP JUMPDEST SWAP1 PUSH1 0x40 MLOAD SWAP2 DUP3 PUSH1 0x0 DUP3 SLOAD SWAP3 PUSH2 0x1DDB DUP5 PUSH2 0x1AD8 JUMP JUMPDEST SWAP1 DUP2 DUP5 MSTORE PUSH1 0x1 SWAP5 DUP6 DUP2 AND SWAP1 DUP2 PUSH1 0x0 EQ PUSH2 0x1E4A JUMPI POP PUSH1 0x1 EQ PUSH2 0x1E07 JUMPI JUMPDEST POP POP PUSH2 0x1E05 SWAP3 POP SUB DUP4 PUSH2 0x18A0 JUMP JUMPDEST JUMP JUMPDEST SWAP1 SWAP4 SWAP2 POP PUSH1 0x0 MSTORE PUSH1 0x20 SWAP1 DUP2 PUSH1 0x0 KECCAK256 SWAP4 PUSH1 0x0 SWAP2 JUMPDEST DUP2 DUP4 LT PUSH2 0x1E32 JUMPI POP POP PUSH2 0x1E05 SWAP4 POP DUP3 ADD ADD CODESIZE DUP1 PUSH2 0x1DF7 JUMP JUMPDEST DUP6 SLOAD DUP9 DUP5 ADD DUP6 ADD MSTORE SWAP5 DUP6 ADD SWAP5 DUP8 SWAP5 POP SWAP2 DUP4 ADD SWAP2 PUSH2 0x1E1A JUMP JUMPDEST SWAP2 POP POP PUSH2 0x1E05 SWAP5 POP PUSH1 0x20 SWAP3 POP PUSH1 0xFF NOT AND DUP3 DUP5 ADD MSTORE ISZERO ISZERO PUSH1 0x5 SHL DUP3 ADD ADD CODESIZE DUP1 PUSH2 0x1DF7 JUMP INVALID LOG2 PUSH5 0x6970667358 0x22 SLT KECCAK256 REVERT EXTCODECOPY SIGNEXTEND 0xD0 PUSH4 0xB6F32170 0xB3 0xEA PUSH9 0x6FEE8A49BD263A0FD1 PUSH24 0xFDE869B10B6FFFB63BA264736F6C634300081400332F8788 GT PUSH31 0x7EFF1D82E926EC794901D17C78024A50270940304540A733656F0D00000000 "},"methodIdentifiers":{"ADMIN_ROLE()":"75b238fc","DEFAULT_ADMIN_ROLE()":"a217fddf","MODULE_MANAGER_ROLE()":"cb17ed3e","disableModule(bytes32)":"eed01af1","emergencyDisableAllModules()":"8d8d6c73","enableModule(bytes32)":"3aaa49da","getAllModules()":"c1398137","getEnabledModuleCount()":"e9ec2c8b","getEnabledModules()":"dafa9955","getModule(bytes32)":"85acd641","getModuleCount()":"57d56267","getModuleInfo(bytes32)":"211b20a3","getModuleVersion(bytes32)":"f7a87c94","getRoleAdmin(bytes32)":"248a9ca3","grantRole(bytes32,address)":"2f2ff15d","hasRole(bytes32,address)":"91d14854","isModuleEnabled(bytes32)":"b6450b8d","pause()":"8456cb59","paused()":"5c975abb","registerModule(address)":"ad64ae4b","renounceRole(bytes32,address)":"36568abe","revokeRole(bytes32,address)":"d547741f","supportsInterface(bytes4)":"01ffc9a7","unpause()":"3f4ba83a","upgradeModule(bytes32,address)":"d4d9b55c"}}}}}