{"contracts/core/Treasury.sol":{"Treasury":{"abi":[{"inputs":[{"internalType":"bytes32","name":"_organizationId","type":"bytes32"},{"internalType":"address","name":"_controlModule","type":"address"},{"internalType":"address","name":"_admin","type":"address"}],"stateMutability":"nonpayable","type":"constructor"},{"inputs":[{"internalType":"address","name":"token","type":"address"},{"internalType":"uint256","name":"requested","type":"uint256"},{"internalType":"uint256","name":"available","type":"uint256"}],"name":"InsufficientBalance","type":"error"},{"inputs":[],"name":"OnlyControlModule","type":"error"},{"inputs":[{"internalType":"address","name":"token","type":"address"},{"internalType":"uint256","name":"requested","type":"uint256"},{"internalType":"uint256","name":"limit","type":"uint256"}],"name":"SpendingLimitExceeded","type":"error"},{"inputs":[{"internalType":"address","name":"token","type":"address"}],"name":"TokenAlreadySupported","type":"error"},{"inputs":[{"internalType":"address","name":"token","type":"address"}],"name":"TokenNotSupported","type":"error"},{"inputs":[],"name":"ZeroAddress","type":"error"},{"inputs":[],"name":"ZeroAmount","type":"error"},{"anonymous":false,"inputs":[{"indexed":true,"internalType":"address","name":"token","type":"address"},{"indexed":true,"internalType":"address","name":"from","type":"address"},{"indexed":false,"internalType":"uint256","name":"amount","type":"uint256"},{"indexed":false,"internalType":"string","name":"purpose","type":"string"},{"indexed":false,"internalType":"uint256","name":"timestamp","type":"uint256"}],"name":"FundsDeposited","type":"event"},{"anonymous":false,"inputs":[{"indexed":true,"internalType":"address","name":"token","type":"address"},{"indexed":true,"internalType":"address","name":"to","type":"address"},{"indexed":true,"internalType":"address","name":"spender","type":"address"},{"indexed":false,"internalType":"uint256","name":"amount","type":"uint256"},{"indexed":false,"internalType":"string","name":"purpose","type":"string"},{"indexed":false,"internalType":"uint256","name":"timestamp","type":"uint256"}],"name":"FundsSpent","type":"event"},{"anonymous":false,"inputs":[{"indexed":false,"internalType":"address","name":"account","type":"address"}],"name":"Paused","type":"event"},{"anonymous":false,"inputs":[{"indexed":true,"internalType":"bytes32","name":"role","type":"bytes32"},{"indexed":true,"internalType":"bytes32","name":"previousAdminRole","type":"bytes32"},{"indexed":true,"internalType":"bytes32","name":"newAdminRole","type":"bytes32"}],"name":"RoleAdminChanged","type":"event"},{"anonymous":false,"inputs":[{"indexed":true,"internalType":"bytes32","name":"role","type":"bytes32"},{"indexed":true,"internalType":"address","name":"account","type":"address"},{"indexed":true,"internalType":"address","name":"sender","type":"address"}],"name":"RoleGranted","type":"event"},{"anonymous":false,"inputs":[{"indexed":true,"internalType":"bytes32","name":"role","type":"bytes32"},{"indexed":true,"internalType":"address","name":"account","type":"address"},{"indexed":true,"internalType":"address","name":"sender","type":"address"}],"name":"RoleRevoked","type":"event"},{"anonymous":false,"inputs":[{"indexed":true,"internalType":"address","name":"token","type":"address"},{"indexed":false,"internalType":"uint256","name":"oldLimit","type":"uint256"},{"indexed":false,"internalType":"uint256","name":"newLimit","type":"uint256"},{"indexed":false,"internalType":"uint256","name":"timestamp","type":"uint256"}],"name":"SpendingLimitUpdated","type":"event"},{"anonymous":false,"inputs":[{"indexed":true,"internalType":"address","name":"token","type":"address"},{"indexed":false,"internalType":"uint256","name":"timestamp","type":"uint256"}],"name":"TokenAdded","type":"event"},{"anonymous":false,"inputs":[{"indexed":true,"internalType":"address","name":"token","type":"address"},{"indexed":false,"internalType":"uint256","name":"timestamp","type":"uint256"}],"name":"TokenRemoved","type":"event"},{"anonymous":false,"inputs":[{"indexed":false,"internalType":"address","name":"account","type":"address"}],"name":"Unpaused","type":"event"},{"inputs":[],"name":"ADMIN_ROLE","outputs":[{"internalType":"bytes32","name":"","type":"bytes32"}],"stateMutability":"view","type":"function"},{"inputs":[],"name":"DEFAULT_ADMIN_ROLE","outputs":[{"internalType":"bytes32","name":"","type":"bytes32"}],"stateMutability":"view","type":"function"},{"inputs":[],"name":"DEPOSITOR_ROLE","outputs":[{"internalType":"bytes32","name":"","type":"bytes32"}],"stateMutability":"view","type":"function"},{"inputs":[],"name":"SPENDER_ROLE","outputs":[{"internalType":"bytes32","name":"","type":"bytes32"}],"stateMutability":"view","type":"function"},{"inputs":[{"internalType":"address","name":"token","type":"address"}],"name":"addToken","outputs":[],"stateMutability":"nonpayable","type":"function"},{"inputs":[],"name":"controlModule","outputs":[{"internalType":"address","name":"","type":"address"}],"stateMutability":"view","type":"function"},{"inputs":[{"internalType":"address","name":"token","type":"address"},{"internalType":"uint256","name":"amount","type":"uint256"},{"internalType":"string","name":"purpose","type":"string"}],"name":"deposit","outputs":[],"stateMutability":"nonpayable","type":"function"},{"inputs":[{"internalType":"address","name":"token","type":"address"},{"internalType":"address","name":"to","type":"address"},{"internalType":"uint256","name":"amount","type":"uint256"}],"name":"emergencyWithdraw","outputs":[],"stateMutability":"nonpayable","type":"function"},{"inputs":[{"internalType":"address","name":"token","type":"address"}],"name":"getBalance","outputs":[{"internalType":"uint256","name":"","type":"uint256"}],"stateMutability":"view","type":"function"},{"inputs":[{"internalType":"address","name":"spender","type":"address"},{"internalType":"address","name":"token","type":"address"}],"name":"getDailySpent","outputs":[{"internalType":"uint256","name":"","type":"uint256"}],"stateMutability":"view","type":"function"},{"inputs":[{"internalType":"bytes32","name":"role","type":"bytes32"}],"name":"getRoleAdmin","outputs":[{"internalType":"bytes32","name":"","type":"bytes32"}],"stateMutability":"view","type":"function"},{"inputs":[{"internalType":"address","name":"token","type":"address"}],"name":"getSpendingLimit","outputs":[{"internalType":"uint256","name":"","type":"uint256"}],"stateMutability":"view","type":"function"},{"inputs":[],"name":"getSupportedTokens","outputs":[{"internalType":"address[]","name":"","type":"address[]"}],"stateMutability":"view","type":"function"},{"inputs":[],"name":"getTotalValue","outputs":[{"internalType":"address[]","name":"tokens","type":"address[]"},{"internalType":"uint256[]","name":"balances","type":"uint256[]"}],"stateMutability":"view","type":"function"},{"inputs":[{"internalType":"bytes32","name":"role","type":"bytes32"},{"internalType":"address","name":"account","type":"address"}],"name":"grantRole","outputs":[],"stateMutability":"nonpayable","type":"function"},{"inputs":[{"internalType":"bytes32","name":"role","type":"bytes32"},{"internalType":"address","name":"account","type":"address"}],"name":"hasRole","outputs":[{"internalType":"bool","name":"","type":"bool"}],"stateMutability":"view","type":"function"},{"inputs":[{"internalType":"address","name":"token","type":"address"}],"name":"isTokenSupported","outputs":[{"internalType":"bool","name":"","type":"bool"}],"stateMutability":"view","type":"function"},{"inputs":[],"name":"organizationId","outputs":[{"internalType":"bytes32","name":"","type":"bytes32"}],"stateMutability":"view","type":"function"},{"inputs":[],"name":"pause","outputs":[],"stateMutability":"nonpayable","type":"function"},{"inputs":[],"name":"paused","outputs":[{"internalType":"bool","name":"","type":"bool"}],"stateMutability":"view","type":"function"},{"inputs":[{"internalType":"address","name":"token","type":"address"}],"name":"removeToken","outputs":[],"stateMutability":"nonpayable","type":"function"},{"inputs":[{"internalType":"bytes32","name":"role","type":"bytes32"},{"internalType":"address","name":"account","type":"address"}],"name":"renounceRole","outputs":[],"stateMutability":"nonpayable","type":"function"},{"inputs":[{"internalType":"bytes32","name":"role","type":"bytes32"},{"internalType":"address","name":"account","type":"address"}],"name":"revokeRole","outputs":[],"stateMutability":"nonpayable","type":"function"},{"inputs":[{"internalType":"address","name":"token","type":"address"},{"internalType":"uint256","name":"limit","type":"uint256"}],"name":"setSpendingLimit","outputs":[],"stateMutability":"nonpayable","type":"function"},{"inputs":[{"internalType":"address","name":"token","type":"address"},{"internalType":"address","name":"to","type":"address"},{"internalType":"uint256","name":"amount","type":"uint256"},{"internalType":"string","name":"purpose","type":"string"}],"name":"spend","outputs":[],"stateMutability":"nonpayable","type":"function"},{"inputs":[{"internalType":"bytes4","name":"interfaceId","type":"bytes4"}],"name":"supportsInterface","outputs":[{"internalType":"bool","name":"","type":"bool"}],"stateMutability":"view","type":"function"},{"inputs":[],"name":"unpause","outputs":[],"stateMutability":"nonpayable","type":"function"}],"evm":{"bytecode":{"linkReferences":{},"object":"60c034620002e857601f62001fea38819003918201601f191683019291906001600160401b03841183851017620002ed578160609284926040968752833981010312620002e857805190602062000065846200005d83850162000303565b930162000303565b60018080556002805460ff199081169091556001600160a01b038086169591938615620002a45716958615620002705760805260a052600094858052858452868620818752845260ff8787205416156200023b575b7fa49807205ce4d355092ef5a8a18f56e8913cf4a201fbe287825b095693c2177590818752868552878720818852855260ff88882054161562000205575b50507f7434c6f201a551bfd17336985361933e0c4935b520dac8a49d937b325f7d5c0a808652858452868620858752845260ff878720541615620001cf575b507f8f4f2da22e8ac8f11e15f9fc141cddbb5deea8800186560abb6e68c5496619a992838652858152868620858752815260ff87872054161562000197575b8651611cb19081620003198239608051816105be015260a05181610ac90152f35b83865285815286862090858752528585209182541617905560008051602062001fca833981519152339380a438808080808062000176565b8086528584528686208587528452868620828482541617905584339160008051602062001fca8339815191528880a43862000137565b81875286855287872081885285528787208385825416179055339160008051602062001fca8339815191528880a43880620000f8565b8580528584528686208187528452868620828482541617905533818760008051602062001fca8339815191528180a4620000ba565b875162461bcd60e51b815260048101869052600d60248201526c24b73b30b634b21030b236b4b760991b6044820152606490fd5b885162461bcd60e51b815260048101879052601660248201527f496e76616c696420636f6e74726f6c206d6f64756c65000000000000000000006044820152606490fd5b600080fd5b634e487b7160e01b600052604160045260246000fd5b51906001600160a01b0382168203620002e85756fe608060408181526004918236101561001657600080fd5b600092833560e01c91826301ffc9a71461110e57508163248a9ca3146110e45781632f2ff15d1461103b57816336568abe14610fa95781633f4ba83a14610f1357816345e6772414610b3057816347a1074814610af8578163536ce92d14610ab45781635c975abb14610a905781635fa7b5841461090f57816372c16a24146108d457816375151b631461089657816375b238fc1461085b5781638456cb591461080057816391d14854146107ba578163a217fddf1461079f578163a3b0b5a314610764578163a85e35de1461072f578163bfe07da6146105e1578163c471dc3a146105a6578163c9a815bd14610530578163caa648b41461044d578163d3c7c2c714610418578163d48bfca71461030e578163d547741f146102d0578163e63ea40814610188575063f8b2cb4f1461014e57600080fd5b346101845760203660031901126101845760209181906001600160a01b0361017461117c565b1681526003845220549051908152f35b5080fd5b9050346102cc5760603660031901126102cc576101a361117c565b906101ac611161565b92604435936101b961184c565b6101c1611286565b84156102be576001600160a01b03818116949085156102ae57811693848852600360205283882054878110610278575050508461021691848852600360205283882061020e8382546117d9565b905584611a65565b8051938452606060208501526014606085015273115b595c99d95b98de481dda5d1a191c985dd85b60621b608085015242908401527f6b660b41e4e88f1cb58ddfa149465e22095f2db46104f1189ab4fb13df56593360a03394a46001805580f35b845163db42144d60e01b81526001600160a01b0390931691830191825260208201889052604082015281906060010390fd5b0390fd5b5050505163d92e233d60e01b8152fd5b5051631f2a200560e01b8152fd5b8280fd5b919050346102cc57806003193601126102cc5761030b913561030660016102f5611161565b938387528660205286200154611474565b6115c6565b80f35b8383346101845760203660031901126101845761032961117c565b90610332611286565b6001600160a01b03821691821561040857828452600560205260ff82852054166103f1578284526005602052818420805460ff191660011790558454680100000000000000008110156103de57916103d66020926103b7858960017ff4c563a3ea86ff1f4275e8c207df0375a51963f2b831b7bf4da8be938d92876c98019055611793565b90919082549060031b9160018060a01b03809116831b921b1916179055565b51428152a280f35b634e487b7160e01b855260418652602485fd5b8151632efbf13f60e21b8152808601849052602490fd5b815163d92e233d60e01b81528590fd5b50503461018457816003193601126101845761044990610436611ab7565b9051918291602083526020830190611249565b0390f35b82843461052d578060031936011261052d57610467611ab7565b9182519061048c61047783611c4f565b92610484835194856111c4565b808452611c4f565b60208381019491601f1901368637815b86518110156104dc576104d7906001600160a01b036104bb828a611c67565b5116845260038352848420546104d18288611c67565b526117ca565b61049c565b509392909193806104f68651978789988952880190611249565b928684038288015251928381520193925b82811061051657505050500390f35b835185528695509381019392810192600101610507565b80fd5b5050346101845780600319360112610184577f3bd32c0f6f623f7e2423f76f4b251ace080cdb1aff9a2a4b12d8b8d8c9178b56606061056d61117c565b60243590610579611286565b60018060a01b0316938486526006602052808620918083549355815192835260208301524290820152a280f35b505034610184578160031936011261018457602090517f00000000000000000000000000000000000000000000000000000000000000008152f35b9050346102cc5760603660031901126102cc576105fc61117c565b91602435906044359267ffffffffffffffff9384811161072b576106239036908301611202565b9461062c61184c565b610634611808565b831561071c576001600160a01b031680875260056020528287205490949060ff16156107065782516323b872dd60e01b6020820152336024820152306044820152606480820186905281529160a08301918211838310176106f35750916106c37f225ff215a128c3b90e7d9a02531a87177de9e30a3ca726ecb9ce3de0a14f939494926106e9948352866118a2565b84875260036020528087206106d983825461163a565b90555191829133964291846117e6565b0390a36001805580f35b634e487b7160e01b885260419052602487fd5b508360249251916306439c6b60e01b8352820152fd5b509051631f2a200560e01b8152fd5b8680fd5b50503461018457806003193601126101845760209061075d61074f61117c565b610757611161565b90611b2d565b9051908152f35b505034610184578160031936011261018457602090517f8f4f2da22e8ac8f11e15f9fc141cddbb5deea8800186560abb6e68c5496619a98152f35b50503461018457816003193601126101845751908152602090f35b9050346102cc57816003193601126102cc578160209360ff926107db611161565b903582528186528282206001600160a01b039091168252855220549151911615158152f35b50503461018457816003193601126101845760207f62e78cea01bee320cd4e420270b5ea74000d11b0c9f74754ebdbfc544b05a2589161083e611286565b610846611808565b600160ff19600254161760025551338152a180f35b505034610184578160031936011261018457602090517fa49807205ce4d355092ef5a8a18f56e8913cf4a201fbe287825b095693c217758152f35b5050346101845760203660031901126101845760209160ff9082906001600160a01b036108c161117c565b1681526005855220541690519015158152f35b505034610184578160031936011261018457602090517f7434c6f201a551bfd17336985361933e0c4935b520dac8a49d937b325f7d5c0a8152f35b82843461052d57602036600319011261052d5761092a61117c565b91610933611286565b6001600160a01b0392831680835260056020528183205490919060ff1615610a79578183526005602052808320805460ff19169055825b855480821015610a495785908461098084611793565b939054600394851b1c161461099f57505061099a906117ca565b61096a565b90929394959160001991828101908111610a3657906103b7846109c46109d194611793565b905490881b1c1691611793565b86548015610a2357917fbe9bb4bdca0a094babd75e3a98b1d2e2390633430d0a2f6e2b9970e2ee03fb2e9596979160209594930192610a0f84611793565b81939154921b1b191690555551428152a280f35b634e487b7160e01b875260318852602487fd5b634e487b7160e01b885260118952602488fd5b50507fbe9bb4bdca0a094babd75e3a98b1d2e2390633430d0a2f6e2b9970e2ee03fb2e92945060209193506103d6565b516306439c6b60e01b815280850191909152602490fd5b50503461018457816003193601126101845760209060ff6002541690519015158152f35b505034610184578160031936011261018457517f00000000000000000000000000000000000000000000000000000000000000006001600160a01b03168152602090f35b5050346101845760203660031901126101845760209181906001600160a01b03610b2061117c565b1681526006845220549051908152f35b9050346102cc5760803660031901126102cc57610b4b61117c565b90610b54611161565b926044359060643567ffffffffffffffff811161072b57610b789036908501611202565b94610b8161184c565b610b89611808565b7f7434c6f201a551bfd17336985361933e0c4935b520dac8a49d937b325f7d5c0a90818852602091888352838920338a52835260ff848a20541615610d4e57508315610d3e576001600160a01b0381811696908715610d2e57811695868a526005845260ff858b20541615610d1757868a5260038452848a2054868110610ce557505091610c6085610cae9593610c43827f6b660b41e4e88f1cb58ddfa149465e22095f2db46104f1189ab4fb13df565933999733611b7e565b888c5260038452848c20610c588382546117d9565b905588611a65565b620151804204338a5260088252828a20878b52825280838b205403610cb8575b503389526007815281892090868a5252808820610c9e83825461163a565b90555191829133974291846117e6565b0390a46001805580f35b338a5260078252828a20878b5282528983812055338a5260088252828a20878b528252828a205538610c80565b855163db42144d60e01b81526001600160a01b0390931691830191825260208201879052604082015281906060010390fd5b84516306439c6b60e01b8152908101879052602490fd5b845163d92e233d60e01b81528790fd5b8251631f2a200560e01b81528590fd5b858484928b610d5c33611684565b91835190610d6982611192565b60428252868201926060368537825115610f005760308453825190600191821015610eed5790607860218501536041915b818311610e8257505050610e41576048610e18938593610e27936102aa975196879376020b1b1b2b9b9a1b7b73a3937b61d1030b1b1b7bab73a1604d1b8c860152610def8c825192839160378901910161157e565b8401917001034b99036b4b9b9b4b733903937b6329607d1b60378401525180938684019061157e565b010360288101855201836111c4565b5193849362461bcd60e51b855284015260248301906115a1565b606485878087519262461bcd60e51b845283015260248201527f537472696e67733a20686578206c656e67746820696e73756666696369656e746044820152fd5b909192600f81166010811015610eda576f181899199a1a9b1b9c1cb0b131b232b360811b901a610eb2858761165d565b53881c928015610ec757600019019190610d9a565b634e487b7160e01b825260118952602482fd5b634e487b7160e01b835260328a52602483fd5b634e487b7160e01b815260328852602490fd5b634e487b7160e01b815260328752602490fd5b9050346102cc57826003193601126102cc57610f2d611286565b6002549060ff821615610f6f575060ff1916600255513381527f5db9ee0a495bf2e6ff9c91a7834c1ba4fdd244a5e8aa4e537bd38aeae4b073aa90602090a180f35b606490602084519162461bcd60e51b8352820152601460248201527314185d5cd8589b194e881b9bdd081c185d5cd95960621b6044820152fd5b83915034610184578260031936011261018457610fc4611161565b90336001600160a01b03831603610fe0579061030b91356115c6565b608490602085519162461bcd60e51b8352820152602f60248201527f416363657373436f6e74726f6c3a2063616e206f6e6c792072656e6f756e636560448201526e103937b632b9903337b91039b2b63360891b6064820152fd5b9050346102cc57816003193601126102cc573590611057611161565b908284528360205261106e60018286200154611474565b82845260208481528185206001600160a01b039093168086529290528084205460ff161561109a578380f35b828452836020528084208285526020528320600160ff1982541617905533917f2f8788117e7eff1d82e926ec794901d17c78024a50270940304540a733656f0d8480a43880808380f35b9050346102cc5760203660031901126102cc57816020936001923581528085522001549051908152f35b8491346102cc5760203660031901126102cc573563ffffffff60e01b81168091036102cc5760209250637965db0b60e01b8114908115611150575b5015158152f35b6301ffc9a760e01b14905083611149565b602435906001600160a01b038216820361117757565b600080fd5b600435906001600160a01b038216820361117757565b6080810190811067ffffffffffffffff8211176111ae57604052565b634e487b7160e01b600052604160045260246000fd5b90601f8019910116810190811067ffffffffffffffff8211176111ae57604052565b67ffffffffffffffff81116111ae57601f01601f191660200190565b81601f8201121561117757803590611219826111e6565b9261122760405194856111c4565b8284526020838301011161117757816000926020809301838601378301015290565b90815180825260208080930193019160005b828110611269575050505090565b83516001600160a01b03168552938101939281019260010161125b565b3360009081527f7d7ffb7a348e1c6a02869081a26547b49160dd3df72d1d75a570eb9b698292ec602090815260408083205490927fa49807205ce4d355092ef5a8a18f56e8913cf4a201fbe287825b095693c217759160ff16156112ea5750505050565b6112f333611684565b9184519061130082611192565b6042825284820192606036853782511561146057603084538251906001918210156114605790607860218501536041915b8183116113f2575050506113b05760486102aa93869361139493611385985198899376020b1b1b2b9b9a1b7b73a3937b61d1030b1b1b7bab73a1604d1b8a860152610def815180928c60378901910161157e565b010360288101875201856111c4565b5192839262461bcd60e51b8452600484015260248301906115a1565b60648486519062461bcd60e51b825280600483015260248201527f537472696e67733a20686578206c656e67746820696e73756666696369656e746044820152fd5b909192600f8116601081101561144c576f181899199a1a9b1b9c1cb0b131b232b360811b901a611422858761165d565b5360041c92801561143857600019019190611331565b634e487b7160e01b82526011600452602482fd5b634e487b7160e01b83526032600452602483fd5b634e487b7160e01b81526032600452602490fd5b600090808252602090828252604092838120338252835260ff84822054161561149d5750505050565b6114a633611684565b918451906114b382611192565b6042825284820192606036853782511561146057603084538251906001918210156114605790607860218501536041915b818311611538575050506113b05760486102aa93869361139493611385985198899376020b1b1b2b9b9a1b7b73a3937b61d1030b1b1b7bab73a1604d1b8a860152610def815180928c60378901910161157e565b909192600f8116601081101561144c576f181899199a1a9b1b9c1cb0b131b232b360811b901a611568858761165d565b5360041c928015611438576000190191906114e4565b60005b8381106115915750506000910152565b8181015183820152602001611581565b906020916115ba8151809281855285808601910161157e565b601f01601f1916010190565b9060009180835282602052604083209160018060a01b03169182845260205260ff6040842054166115f657505050565b80835282602052604083208284526020526040832060ff1981541690557ff6391f5c32d9c69d2a47ea670b442974b53935d1edc7fd64eb21e047a839171b339380a4565b9190820180921161164757565b634e487b7160e01b600052601160045260246000fd5b90815181101561166e570160200190565b634e487b7160e01b600052603260045260246000fd5b604051906060820182811067ffffffffffffffff8211176111ae57604052602a825260208201604036823782511561166e5760309053815160019081101561166e57607860218401536029905b8082116117255750506116e15790565b606460405162461bcd60e51b815260206004820152602060248201527f537472696e67733a20686578206c656e67746820696e73756666696369656e746044820152fd5b9091600f8116601081101561177e576f181899199a1a9b1b9c1cb0b131b232b360811b901a611754848661165d565b5360041c9180156117695760001901906116d1565b60246000634e487b7160e01b81526011600452fd5b60246000634e487b7160e01b81526032600452fd5b60045481101561166e5760046000527f8a35acfbc15ff81a39ae7d344fd709f28e8600b4aa8c65c6b64bfe7fe36bd19b0190600090565b60001981146116475760010190565b9190820391821161164757565b9392916118039060409286526060602087015260608601906115a1565b930152565b60ff6002541661181457565b60405162461bcd60e51b815260206004820152601060248201526f14185d5cd8589b194e881c185d5cd95960821b6044820152606490fd5b60026001541461185d576002600155565b60405162461bcd60e51b815260206004820152601f60248201527f5265656e7472616e637947756172643a207265656e7472616e742063616c6c006044820152606490fd5b60018060a01b031690604051604081019080821067ffffffffffffffff8311176111ae57611932916040526020938482527f5361666545524332303a206c6f772d6c6576656c2063616c6c206661696c6564858301526000808587829751910182855af13d156119c8573d91611917836111e6565b9261192560405194856111c4565b83523d868885013e6119cc565b8051918215918483156119a4575b50505090501561194d5750565b6084906040519062461bcd60e51b82526004820152602a60248201527f5361666545524332303a204552433230206f7065726174696f6e20646964206e6044820152691bdd081cdd58d8d9595960b21b6064820152fd5b9193818094500103126101845782015190811515820361052d575080388084611940565b6060915b91929015611a2e57508151156119e0575090565b3b156119e95790565b60405162461bcd60e51b815260206004820152601d60248201527f416464726573733a2063616c6c20746f206e6f6e2d636f6e74726163740000006044820152606490fd5b825190915015611a415750805190602001fd5b60405162461bcd60e51b8152602060048201529081906102aa9060248301906115a1565b60405163a9059cbb60e01b60208201526001600160a01b039092166024830152604480830193909352918152608081019167ffffffffffffffff8311828410176111ae57611ab5926040526118a2565b565b60405190600454808352826020918282019060046000527f8a35acfbc15ff81a39ae7d344fd709f28e8600b4aa8c65c6b64bfe7fe36bd19b936000905b828210611b0a57505050611ab5925003836111c4565b85546001600160a01b031684526001958601958895509381019390910190611af4565b60018060a01b0380911691600091838352600860205260408320911690818352602052620151804204604083205403611b785760409282526007602052828220908252602052205490565b50905090565b60018060a01b039283831691600094838652600660205260409586812054948515611c4557879282941680835260086020528383208284526020526201518042048484205414611c28575b5050505082611bd8838361163a565b11611be4575050505050565b6102aa9291611bf29161163a565b93516384bb52cf60e01b81526001600160a01b039093166004840152602483019390935260448201929092529081906064820190565b825260076020908152838320918352522054905084388080611bc9565b5050505050505050565b67ffffffffffffffff81116111ae5760051b60200190565b805182101561166e5760209160051b01019056fea26469706673582212202d5e59bcbe3c21efa3186766c31045f994f34489066dcf6164b0e0d4c0eb159564736f6c634300081400332f8788117e7eff1d82e926ec794901d17c78024a50270940304540a733656f0d","opcodes":"PUSH1 0xC0 CALLVALUE PUSH3 0x2E8 JUMPI PUSH1 0x1F PUSH3 0x1FEA CODESIZE DUP2 SWAP1 SUB SWAP2 DUP3 ADD PUSH1 0x1F NOT AND DUP4 ADD SWAP3 SWAP2 SWAP1 PUSH1 0x1 PUSH1 0x1 PUSH1 0x40 SHL SUB DUP5 GT DUP4 DUP6 LT OR PUSH3 0x2ED JUMPI DUP2 PUSH1 0x60 SWAP3 DUP5 SWAP3 PUSH1 0x40 SWAP7 DUP8 MSTORE DUP4 CODECOPY DUP2 ADD SUB SLT PUSH3 0x2E8 JUMPI DUP1 MLOAD SWAP1 PUSH1 0x20 PUSH3 0x65 DUP5 PUSH3 0x5D DUP4 DUP6 ADD PUSH3 0x303 JUMP JUMPDEST SWAP4 ADD PUSH3 0x303 JUMP JUMPDEST PUSH1 0x1 DUP1 DUP1 SSTORE PUSH1 0x2 DUP1 SLOAD PUSH1 0xFF NOT SWAP1 DUP2 AND SWAP1 SWAP2 SSTORE PUSH1 0x1 PUSH1 0x1 PUSH1 0xA0 SHL SUB DUP1 DUP7 AND SWAP6 SWAP2 SWAP4 DUP7 ISZERO PUSH3 0x2A4 JUMPI AND SWAP6 DUP7 ISZERO PUSH3 0x270 JUMPI PUSH1 0x80 MSTORE PUSH1 0xA0 MSTORE PUSH1 0x0 SWAP5 DUP6 DUP1 MSTORE DUP6 DUP5 MSTORE DUP7 DUP7 KECCAK256 DUP2 DUP8 MSTORE DUP5 MSTORE PUSH1 0xFF DUP8 DUP8 KECCAK256 SLOAD AND ISZERO PUSH3 0x23B JUMPI JUMPDEST PUSH32 0xA49807205CE4D355092EF5A8A18F56E8913CF4A201FBE287825B095693C21775 SWAP1 DUP2 DUP8 MSTORE DUP7 DUP6 MSTORE DUP8 DUP8 KECCAK256 DUP2 DUP9 MSTORE DUP6 MSTORE PUSH1 0xFF DUP9 DUP9 KECCAK256 SLOAD AND ISZERO PUSH3 0x205 JUMPI JUMPDEST POP POP PUSH32 0x7434C6F201A551BFD17336985361933E0C4935B520DAC8A49D937B325F7D5C0A DUP1 DUP7 MSTORE DUP6 DUP5 MSTORE DUP7 DUP7 KECCAK256 DUP6 DUP8 MSTORE DUP5 MSTORE PUSH1 0xFF DUP8 DUP8 KECCAK256 SLOAD AND ISZERO PUSH3 0x1CF JUMPI JUMPDEST POP PUSH32 0x8F4F2DA22E8AC8F11E15F9FC141CDDBB5DEEA8800186560ABB6E68C5496619A9 SWAP3 DUP4 DUP7 MSTORE DUP6 DUP2 MSTORE DUP7 DUP7 KECCAK256 DUP6 DUP8 MSTORE DUP2 MSTORE PUSH1 0xFF DUP8 DUP8 KECCAK256 SLOAD AND ISZERO PUSH3 0x197 JUMPI JUMPDEST DUP7 MLOAD PUSH2 0x1CB1 SWAP1 DUP2 PUSH3 0x319 DUP3 CODECOPY PUSH1 0x80 MLOAD DUP2 PUSH2 0x5BE ADD MSTORE PUSH1 0xA0 MLOAD DUP2 PUSH2 0xAC9 ADD MSTORE RETURN JUMPDEST DUP4 DUP7 MSTORE DUP6 DUP2 MSTORE DUP7 DUP7 KECCAK256 SWAP1 DUP6 DUP8 MSTORE MSTORE DUP6 DUP6 KECCAK256 SWAP2 DUP3 SLOAD AND OR SWAP1 SSTORE PUSH1 0x0 DUP1 MLOAD PUSH1 0x20 PUSH3 0x1FCA DUP4 CODECOPY DUP2 MLOAD SWAP2 MSTORE CALLER SWAP4 DUP1 LOG4 CODESIZE DUP1 DUP1 DUP1 DUP1 DUP1 PUSH3 0x176 JUMP JUMPDEST DUP1 DUP7 MSTORE DUP6 DUP5 MSTORE DUP7 DUP7 KECCAK256 DUP6 DUP8 MSTORE DUP5 MSTORE DUP7 DUP7 KECCAK256 DUP3 DUP5 DUP3 SLOAD AND OR SWAP1 SSTORE DUP5 CALLER SWAP2 PUSH1 0x0 DUP1 MLOAD PUSH1 0x20 PUSH3 0x1FCA DUP4 CODECOPY DUP2 MLOAD SWAP2 MSTORE DUP9 DUP1 LOG4 CODESIZE PUSH3 0x137 JUMP JUMPDEST DUP2 DUP8 MSTORE DUP7 DUP6 MSTORE DUP8 DUP8 KECCAK256 DUP2 DUP9 MSTORE DUP6 MSTORE DUP8 DUP8 KECCAK256 DUP4 DUP6 DUP3 SLOAD AND OR SWAP1 SSTORE CALLER SWAP2 PUSH1 0x0 DUP1 MLOAD PUSH1 0x20 PUSH3 0x1FCA DUP4 CODECOPY DUP2 MLOAD SWAP2 MSTORE DUP9 DUP1 LOG4 CODESIZE DUP1 PUSH3 0xF8 JUMP JUMPDEST DUP6 DUP1 MSTORE DUP6 DUP5 MSTORE DUP7 DUP7 KECCAK256 DUP2 DUP8 MSTORE DUP5 MSTORE DUP7 DUP7 KECCAK256 DUP3 DUP5 DUP3 SLOAD AND OR SWAP1 SSTORE CALLER DUP2 DUP8 PUSH1 0x0 DUP1 MLOAD PUSH1 0x20 PUSH3 0x1FCA DUP4 CODECOPY DUP2 MLOAD SWAP2 MSTORE DUP2 DUP1 LOG4 PUSH3 0xBA JUMP JUMPDEST DUP8 MLOAD PUSH3 0x461BCD PUSH1 0xE5 SHL DUP2 MSTORE PUSH1 0x4 DUP2 ADD DUP7 SWAP1 MSTORE PUSH1 0xD PUSH1 0x24 DUP3 ADD MSTORE PUSH13 0x24B73B30B634B21030B236B4B7 PUSH1 0x99 SHL PUSH1 0x44 DUP3 ADD MSTORE PUSH1 0x64 SWAP1 REVERT JUMPDEST DUP9 MLOAD PUSH3 0x461BCD PUSH1 0xE5 SHL DUP2 MSTORE PUSH1 0x4 DUP2 ADD DUP8 SWAP1 MSTORE PUSH1 0x16 PUSH1 0x24 DUP3 ADD MSTORE PUSH32 0x496E76616C696420636F6E74726F6C206D6F64756C6500000000000000000000 PUSH1 0x44 DUP3 ADD MSTORE PUSH1 0x64 SWAP1 REVERT JUMPDEST PUSH1 0x0 DUP1 REVERT JUMPDEST PUSH4 0x4E487B71 PUSH1 0xE0 SHL PUSH1 0x0 MSTORE PUSH1 0x41 PUSH1 0x4 MSTORE PUSH1 0x24 PUSH1 0x0 REVERT JUMPDEST MLOAD SWAP1 PUSH1 0x1 PUSH1 0x1 PUSH1 0xA0 SHL SUB DUP3 AND DUP3 SUB PUSH3 0x2E8 JUMPI JUMP INVALID PUSH1 0x80 PUSH1 0x40 DUP2 DUP2 MSTORE PUSH1 0x4 SWAP2 DUP3 CALLDATASIZE LT ISZERO PUSH2 0x16 JUMPI PUSH1 0x0 DUP1 REVERT JUMPDEST PUSH1 0x0 SWAP3 DUP4 CALLDATALOAD PUSH1 0xE0 SHR SWAP2 DUP3 PUSH4 0x1FFC9A7 EQ PUSH2 0x110E JUMPI POP DUP2 PUSH4 0x248A9CA3 EQ PUSH2 0x10E4 JUMPI DUP2 PUSH4 0x2F2FF15D EQ PUSH2 0x103B JUMPI DUP2 PUSH4 0x36568ABE EQ PUSH2 0xFA9 JUMPI DUP2 PUSH4 0x3F4BA83A EQ PUSH2 0xF13 JUMPI DUP2 PUSH4 0x45E67724 EQ PUSH2 0xB30 JUMPI DUP2 PUSH4 0x47A10748 EQ PUSH2 0xAF8 JUMPI DUP2 PUSH4 0x536CE92D EQ PUSH2 0xAB4 JUMPI DUP2 PUSH4 0x5C975ABB EQ PUSH2 0xA90 JUMPI DUP2 PUSH4 0x5FA7B584 EQ PUSH2 0x90F JUMPI DUP2 PUSH4 0x72C16A24 EQ PUSH2 0x8D4 JUMPI DUP2 PUSH4 0x75151B63 EQ PUSH2 0x896 JUMPI DUP2 PUSH4 0x75B238FC EQ PUSH2 0x85B JUMPI DUP2 PUSH4 0x8456CB59 EQ PUSH2 0x800 JUMPI DUP2 PUSH4 0x91D14854 EQ PUSH2 0x7BA JUMPI DUP2 PUSH4 0xA217FDDF EQ PUSH2 0x79F JUMPI DUP2 PUSH4 0xA3B0B5A3 EQ PUSH2 0x764 JUMPI DUP2 PUSH4 0xA85E35DE EQ PUSH2 0x72F JUMPI DUP2 PUSH4 0xBFE07DA6 EQ PUSH2 0x5E1 JUMPI DUP2 PUSH4 0xC471DC3A EQ PUSH2 0x5A6 JUMPI DUP2 PUSH4 0xC9A815BD EQ PUSH2 0x530 JUMPI DUP2 PUSH4 0xCAA648B4 EQ PUSH2 0x44D JUMPI DUP2 PUSH4 0xD3C7C2C7 EQ PUSH2 0x418 JUMPI DUP2 PUSH4 0xD48BFCA7 EQ PUSH2 0x30E JUMPI DUP2 PUSH4 0xD547741F EQ PUSH2 0x2D0 JUMPI DUP2 PUSH4 0xE63EA408 EQ PUSH2 0x188 JUMPI POP PUSH4 0xF8B2CB4F EQ PUSH2 0x14E JUMPI PUSH1 0x0 DUP1 REVERT JUMPDEST CALLVALUE PUSH2 0x184 JUMPI PUSH1 0x20 CALLDATASIZE PUSH1 0x3 NOT ADD SLT PUSH2 0x184 JUMPI PUSH1 0x20 SWAP2 DUP2 SWAP1 PUSH1 0x1 PUSH1 0x1 PUSH1 0xA0 SHL SUB PUSH2 0x174 PUSH2 0x117C JUMP JUMPDEST AND DUP2 MSTORE PUSH1 0x3 DUP5 MSTORE KECCAK256 SLOAD SWAP1 MLOAD SWAP1 DUP2 MSTORE RETURN JUMPDEST POP DUP1 REVERT JUMPDEST SWAP1 POP CALLVALUE PUSH2 0x2CC JUMPI PUSH1 0x60 CALLDATASIZE PUSH1 0x3 NOT ADD SLT PUSH2 0x2CC JUMPI PUSH2 0x1A3 PUSH2 0x117C JUMP JUMPDEST SWAP1 PUSH2 0x1AC PUSH2 0x1161 JUMP JUMPDEST SWAP3 PUSH1 0x44 CALLDATALOAD SWAP4 PUSH2 0x1B9 PUSH2 0x184C JUMP JUMPDEST PUSH2 0x1C1 PUSH2 0x1286 JUMP JUMPDEST DUP5 ISZERO PUSH2 0x2BE JUMPI PUSH1 0x1 PUSH1 0x1 PUSH1 0xA0 SHL SUB DUP2 DUP2 AND SWAP5 SWAP1 DUP6 ISZERO PUSH2 0x2AE JUMPI DUP2 AND SWAP4 DUP5 DUP9 MSTORE PUSH1 0x3 PUSH1 0x20 MSTORE DUP4 DUP9 KECCAK256 SLOAD DUP8 DUP2 LT PUSH2 0x278 JUMPI POP POP POP DUP5 PUSH2 0x216 SWAP2 DUP5 DUP9 MSTORE PUSH1 0x3 PUSH1 0x20 MSTORE DUP4 DUP9 KECCAK256 PUSH2 0x20E DUP4 DUP3 SLOAD PUSH2 0x17D9 JUMP JUMPDEST SWAP1 SSTORE DUP5 PUSH2 0x1A65 JUMP JUMPDEST DUP1 MLOAD SWAP4 DUP5 MSTORE PUSH1 0x60 PUSH1 0x20 DUP6 ADD MSTORE PUSH1 0x14 PUSH1 0x60 DUP6 ADD MSTORE PUSH20 0x115B595C99D95B98DE481DDA5D1A191C985DD85B PUSH1 0x62 SHL PUSH1 0x80 DUP6 ADD MSTORE TIMESTAMP SWAP1 DUP5 ADD MSTORE PUSH32 0x6B660B41E4E88F1CB58DDFA149465E22095F2DB46104F1189AB4FB13DF565933 PUSH1 0xA0 CALLER SWAP5 LOG4 PUSH1 0x1 DUP1 SSTORE DUP1 RETURN JUMPDEST DUP5 MLOAD PUSH4 0xDB42144D PUSH1 0xE0 SHL DUP2 MSTORE PUSH1 0x1 PUSH1 0x1 PUSH1 0xA0 SHL SUB SWAP1 SWAP4 AND SWAP2 DUP4 ADD SWAP2 DUP3 MSTORE PUSH1 0x20 DUP3 ADD DUP9 SWAP1 MSTORE PUSH1 0x40 DUP3 ADD MSTORE DUP2 SWAP1 PUSH1 0x60 ADD SUB SWAP1 REVERT JUMPDEST SUB SWAP1 REVERT JUMPDEST POP POP POP MLOAD PUSH4 0xD92E233D PUSH1 0xE0 SHL DUP2 MSTORE REVERT JUMPDEST POP MLOAD PUSH4 0x1F2A2005 PUSH1 0xE0 SHL DUP2 MSTORE REVERT JUMPDEST DUP3 DUP1 REVERT JUMPDEST SWAP2 SWAP1 POP CALLVALUE PUSH2 0x2CC JUMPI DUP1 PUSH1 0x3 NOT CALLDATASIZE ADD SLT PUSH2 0x2CC JUMPI PUSH2 0x30B SWAP2 CALLDATALOAD PUSH2 0x306 PUSH1 0x1 PUSH2 0x2F5 PUSH2 0x1161 JUMP JUMPDEST SWAP4 DUP4 DUP8 MSTORE DUP7 PUSH1 0x20 MSTORE DUP7 KECCAK256 ADD SLOAD PUSH2 0x1474 JUMP JUMPDEST PUSH2 0x15C6 JUMP JUMPDEST DUP1 RETURN JUMPDEST DUP4 DUP4 CALLVALUE PUSH2 0x184 JUMPI PUSH1 0x20 CALLDATASIZE PUSH1 0x3 NOT ADD SLT PUSH2 0x184 JUMPI PUSH2 0x329 PUSH2 0x117C JUMP JUMPDEST SWAP1 PUSH2 0x332 PUSH2 0x1286 JUMP JUMPDEST PUSH1 0x1 PUSH1 0x1 PUSH1 0xA0 SHL SUB DUP3 AND SWAP2 DUP3 ISZERO PUSH2 0x408 JUMPI DUP3 DUP5 MSTORE PUSH1 0x5 PUSH1 0x20 MSTORE PUSH1 0xFF DUP3 DUP6 KECCAK256 SLOAD AND PUSH2 0x3F1 JUMPI DUP3 DUP5 MSTORE PUSH1 0x5 PUSH1 0x20 MSTORE DUP2 DUP5 KECCAK256 DUP1 SLOAD PUSH1 0xFF NOT AND PUSH1 0x1 OR SWAP1 SSTORE DUP5 SLOAD PUSH9 0x10000000000000000 DUP2 LT ISZERO PUSH2 0x3DE JUMPI SWAP2 PUSH2 0x3D6 PUSH1 0x20 SWAP3 PUSH2 0x3B7 DUP6 DUP10 PUSH1 0x1 PUSH32 0xF4C563A3EA86FF1F4275E8C207DF0375A51963F2B831B7BF4DA8BE938D92876C SWAP9 ADD SWAP1 SSTORE PUSH2 0x1793 JUMP JUMPDEST SWAP1 SWAP2 SWAP1 DUP3 SLOAD SWAP1 PUSH1 0x3 SHL SWAP2 PUSH1 0x1 DUP1 PUSH1 0xA0 SHL SUB DUP1 SWAP2 AND DUP4 SHL SWAP3 SHL NOT AND OR SWAP1 SSTORE JUMP JUMPDEST MLOAD TIMESTAMP DUP2 MSTORE LOG2 DUP1 RETURN JUMPDEST PUSH4 0x4E487B71 PUSH1 0xE0 SHL DUP6 MSTORE PUSH1 0x41 DUP7 MSTORE PUSH1 0x24 DUP6 REVERT JUMPDEST DUP2 MLOAD PUSH4 0x2EFBF13F PUSH1 0xE2 SHL DUP2 MSTORE DUP1 DUP7 ADD DUP5 SWAP1 MSTORE PUSH1 0x24 SWAP1 REVERT JUMPDEST DUP2 MLOAD PUSH4 0xD92E233D PUSH1 0xE0 SHL DUP2 MSTORE DUP6 SWAP1 REVERT JUMPDEST POP POP CALLVALUE PUSH2 0x184 JUMPI DUP2 PUSH1 0x3 NOT CALLDATASIZE ADD SLT PUSH2 0x184 JUMPI PUSH2 0x449 SWAP1 PUSH2 0x436 PUSH2 0x1AB7 JUMP JUMPDEST SWAP1 MLOAD SWAP2 DUP3 SWAP2 PUSH1 0x20 DUP4 MSTORE PUSH1 0x20 DUP4 ADD SWAP1 PUSH2 0x1249 JUMP JUMPDEST SUB SWAP1 RETURN JUMPDEST DUP3 DUP5 CALLVALUE PUSH2 0x52D JUMPI DUP1 PUSH1 0x3 NOT CALLDATASIZE ADD SLT PUSH2 0x52D JUMPI PUSH2 0x467 PUSH2 0x1AB7 JUMP JUMPDEST SWAP2 DUP3 MLOAD SWAP1 PUSH2 0x48C PUSH2 0x477 DUP4 PUSH2 0x1C4F JUMP JUMPDEST SWAP3 PUSH2 0x484 DUP4 MLOAD SWAP5 DUP6 PUSH2 0x11C4 JUMP JUMPDEST DUP1 DUP5 MSTORE PUSH2 0x1C4F JUMP JUMPDEST PUSH1 0x20 DUP4 DUP2 ADD SWAP5 SWAP2 PUSH1 0x1F NOT ADD CALLDATASIZE DUP7 CALLDATACOPY DUP2 JUMPDEST DUP7 MLOAD DUP2 LT ISZERO PUSH2 0x4DC JUMPI PUSH2 0x4D7 SWAP1 PUSH1 0x1 PUSH1 0x1 PUSH1 0xA0 SHL SUB PUSH2 0x4BB DUP3 DUP11 PUSH2 0x1C67 JUMP JUMPDEST MLOAD AND DUP5 MSTORE PUSH1 0x3 DUP4 MSTORE DUP5 DUP5 KECCAK256 SLOAD PUSH2 0x4D1 DUP3 DUP9 PUSH2 0x1C67 JUMP JUMPDEST MSTORE PUSH2 0x17CA JUMP JUMPDEST PUSH2 0x49C JUMP JUMPDEST POP SWAP4 SWAP3 SWAP1 SWAP2 SWAP4 DUP1 PUSH2 0x4F6 DUP7 MLOAD SWAP8 DUP8 DUP10 SWAP9 DUP10 MSTORE DUP9 ADD SWAP1 PUSH2 0x1249 JUMP JUMPDEST SWAP3 DUP7 DUP5 SUB DUP3 DUP9 ADD MSTORE MLOAD SWAP3 DUP4 DUP2 MSTORE ADD SWAP4 SWAP3 JUMPDEST DUP3 DUP2 LT PUSH2 0x516 JUMPI POP POP POP POP SUB SWAP1 RETURN JUMPDEST DUP4 MLOAD DUP6 MSTORE DUP7 SWAP6 POP SWAP4 DUP2 ADD SWAP4 SWAP3 DUP2 ADD SWAP3 PUSH1 0x1 ADD PUSH2 0x507 JUMP JUMPDEST DUP1 REVERT JUMPDEST POP POP CALLVALUE PUSH2 0x184 JUMPI DUP1 PUSH1 0x3 NOT CALLDATASIZE ADD SLT PUSH2 0x184 JUMPI PUSH32 0x3BD32C0F6F623F7E2423F76F4B251ACE080CDB1AFF9A2A4B12D8B8D8C9178B56 PUSH1 0x60 PUSH2 0x56D PUSH2 0x117C JUMP JUMPDEST PUSH1 0x24 CALLDATALOAD SWAP1 PUSH2 0x579 PUSH2 0x1286 JUMP JUMPDEST PUSH1 0x1 DUP1 PUSH1 0xA0 SHL SUB AND SWAP4 DUP5 DUP7 MSTORE PUSH1 0x6 PUSH1 0x20 MSTORE DUP1 DUP7 KECCAK256 SWAP2 DUP1 DUP4 SLOAD SWAP4 SSTORE DUP2 MLOAD SWAP3 DUP4 MSTORE PUSH1 0x20 DUP4 ADD MSTORE TIMESTAMP SWAP1 DUP3 ADD MSTORE LOG2 DUP1 RETURN JUMPDEST POP POP CALLVALUE PUSH2 0x184 JUMPI DUP2 PUSH1 0x3 NOT CALLDATASIZE ADD SLT PUSH2 0x184 JUMPI PUSH1 0x20 SWAP1 MLOAD PUSH32 0x0 DUP2 MSTORE RETURN JUMPDEST SWAP1 POP CALLVALUE PUSH2 0x2CC JUMPI PUSH1 0x60 CALLDATASIZE PUSH1 0x3 NOT ADD SLT PUSH2 0x2CC JUMPI PUSH2 0x5FC PUSH2 0x117C JUMP JUMPDEST SWAP2 PUSH1 0x24 CALLDATALOAD SWAP1 PUSH1 0x44 CALLDATALOAD SWAP3 PUSH8 0xFFFFFFFFFFFFFFFF SWAP4 DUP5 DUP2 GT PUSH2 0x72B JUMPI PUSH2 0x623 SWAP1 CALLDATASIZE SWAP1 DUP4 ADD PUSH2 0x1202 JUMP JUMPDEST SWAP5 PUSH2 0x62C PUSH2 0x184C JUMP JUMPDEST PUSH2 0x634 PUSH2 0x1808 JUMP JUMPDEST DUP4 ISZERO PUSH2 0x71C JUMPI PUSH1 0x1 PUSH1 0x1 PUSH1 0xA0 SHL SUB AND DUP1 DUP8 MSTORE PUSH1 0x5 PUSH1 0x20 MSTORE DUP3 DUP8 KECCAK256 SLOAD SWAP1 SWAP5 SWAP1 PUSH1 0xFF AND ISZERO PUSH2 0x706 JUMPI DUP3 MLOAD PUSH4 0x23B872DD PUSH1 0xE0 SHL PUSH1 0x20 DUP3 ADD MSTORE CALLER PUSH1 0x24 DUP3 ADD MSTORE ADDRESS PUSH1 0x44 DUP3 ADD MSTORE PUSH1 0x64 DUP1 DUP3 ADD DUP7 SWAP1 MSTORE DUP2 MSTORE SWAP2 PUSH1 0xA0 DUP4 ADD SWAP2 DUP3 GT DUP4 DUP4 LT OR PUSH2 0x6F3 JUMPI POP SWAP2 PUSH2 0x6C3 PUSH32 0x225FF215A128C3B90E7D9A02531A87177DE9E30A3CA726ECB9CE3DE0A14F9394 SWAP5 SWAP3 PUSH2 0x6E9 SWAP5 DUP4 MSTORE DUP7 PUSH2 0x18A2 JUMP JUMPDEST DUP5 DUP8 MSTORE PUSH1 0x3 PUSH1 0x20 MSTORE DUP1 DUP8 KECCAK256 PUSH2 0x6D9 DUP4 DUP3 SLOAD PUSH2 0x163A JUMP JUMPDEST SWAP1 SSTORE MLOAD SWAP2 DUP3 SWAP2 CALLER SWAP7 TIMESTAMP SWAP2 DUP5 PUSH2 0x17E6 JUMP JUMPDEST SUB SWAP1 LOG3 PUSH1 0x1 DUP1 SSTORE DUP1 RETURN JUMPDEST PUSH4 0x4E487B71 PUSH1 0xE0 SHL DUP9 MSTORE PUSH1 0x41 SWAP1 MSTORE PUSH1 0x24 DUP8 REVERT JUMPDEST POP DUP4 PUSH1 0x24 SWAP3 MLOAD SWAP2 PUSH4 0x6439C6B PUSH1 0xE0 SHL DUP4 MSTORE DUP3 ADD MSTORE REVERT JUMPDEST POP SWAP1 MLOAD PUSH4 0x1F2A2005 PUSH1 0xE0 SHL DUP2 MSTORE REVERT JUMPDEST DUP7 DUP1 REVERT JUMPDEST POP POP CALLVALUE PUSH2 0x184 JUMPI DUP1 PUSH1 0x3 NOT CALLDATASIZE ADD SLT PUSH2 0x184 JUMPI PUSH1 0x20 SWAP1 PUSH2 0x75D PUSH2 0x74F PUSH2 0x117C JUMP JUMPDEST PUSH2 0x757 PUSH2 0x1161 JUMP JUMPDEST SWAP1 PUSH2 0x1B2D JUMP JUMPDEST SWAP1 MLOAD SWAP1 DUP2 MSTORE RETURN JUMPDEST POP POP CALLVALUE PUSH2 0x184 JUMPI DUP2 PUSH1 0x3 NOT CALLDATASIZE ADD SLT PUSH2 0x184 JUMPI PUSH1 0x20 SWAP1 MLOAD PUSH32 0x8F4F2DA22E8AC8F11E15F9FC141CDDBB5DEEA8800186560ABB6E68C5496619A9 DUP2 MSTORE RETURN JUMPDEST POP POP CALLVALUE PUSH2 0x184 JUMPI DUP2 PUSH1 0x3 NOT CALLDATASIZE ADD SLT PUSH2 0x184 JUMPI MLOAD SWAP1 DUP2 MSTORE PUSH1 0x20 SWAP1 RETURN JUMPDEST SWAP1 POP CALLVALUE PUSH2 0x2CC JUMPI DUP2 PUSH1 0x3 NOT CALLDATASIZE ADD SLT PUSH2 0x2CC JUMPI DUP2 PUSH1 0x20 SWAP4 PUSH1 0xFF SWAP3 PUSH2 0x7DB PUSH2 0x1161 JUMP JUMPDEST SWAP1 CALLDATALOAD DUP3 MSTORE DUP2 DUP7 MSTORE DUP3 DUP3 KECCAK256 PUSH1 0x1 PUSH1 0x1 PUSH1 0xA0 SHL SUB SWAP1 SWAP2 AND DUP3 MSTORE DUP6 MSTORE KECCAK256 SLOAD SWAP2 MLOAD SWAP2 AND ISZERO ISZERO DUP2 MSTORE RETURN JUMPDEST POP POP CALLVALUE PUSH2 0x184 JUMPI DUP2 PUSH1 0x3 NOT CALLDATASIZE ADD SLT PUSH2 0x184 JUMPI PUSH1 0x20 PUSH32 0x62E78CEA01BEE320CD4E420270B5EA74000D11B0C9F74754EBDBFC544B05A258 SWAP2 PUSH2 0x83E PUSH2 0x1286 JUMP JUMPDEST PUSH2 0x846 PUSH2 0x1808 JUMP JUMPDEST PUSH1 0x1 PUSH1 0xFF NOT PUSH1 0x2 SLOAD AND OR PUSH1 0x2 SSTORE MLOAD CALLER DUP2 MSTORE LOG1 DUP1 RETURN JUMPDEST POP POP CALLVALUE PUSH2 0x184 JUMPI DUP2 PUSH1 0x3 NOT CALLDATASIZE ADD SLT PUSH2 0x184 JUMPI PUSH1 0x20 SWAP1 MLOAD PUSH32 0xA49807205CE4D355092EF5A8A18F56E8913CF4A201FBE287825B095693C21775 DUP2 MSTORE RETURN JUMPDEST POP POP CALLVALUE PUSH2 0x184 JUMPI PUSH1 0x20 CALLDATASIZE PUSH1 0x3 NOT ADD SLT PUSH2 0x184 JUMPI PUSH1 0x20 SWAP2 PUSH1 0xFF SWAP1 DUP3 SWAP1 PUSH1 0x1 PUSH1 0x1 PUSH1 0xA0 SHL SUB PUSH2 0x8C1 PUSH2 0x117C JUMP JUMPDEST AND DUP2 MSTORE PUSH1 0x5 DUP6 MSTORE KECCAK256 SLOAD AND SWAP1 MLOAD SWAP1 ISZERO ISZERO DUP2 MSTORE RETURN JUMPDEST POP POP CALLVALUE PUSH2 0x184 JUMPI DUP2 PUSH1 0x3 NOT CALLDATASIZE ADD SLT PUSH2 0x184 JUMPI PUSH1 0x20 SWAP1 MLOAD PUSH32 0x7434C6F201A551BFD17336985361933E0C4935B520DAC8A49D937B325F7D5C0A DUP2 MSTORE RETURN JUMPDEST DUP3 DUP5 CALLVALUE PUSH2 0x52D JUMPI PUSH1 0x20 CALLDATASIZE PUSH1 0x3 NOT ADD SLT PUSH2 0x52D JUMPI PUSH2 0x92A PUSH2 0x117C JUMP JUMPDEST SWAP2 PUSH2 0x933 PUSH2 0x1286 JUMP JUMPDEST PUSH1 0x1 PUSH1 0x1 PUSH1 0xA0 SHL SUB SWAP3 DUP4 AND DUP1 DUP4 MSTORE PUSH1 0x5 PUSH1 0x20 MSTORE DUP2 DUP4 KECCAK256 SLOAD SWAP1 SWAP2 SWAP1 PUSH1 0xFF AND ISZERO PUSH2 0xA79 JUMPI DUP2 DUP4 MSTORE PUSH1 0x5 PUSH1 0x20 MSTORE DUP1 DUP4 KECCAK256 DUP1 SLOAD PUSH1 0xFF NOT AND SWAP1 SSTORE DUP3 JUMPDEST DUP6 SLOAD DUP1 DUP3 LT ISZERO PUSH2 0xA49 JUMPI DUP6 SWAP1 DUP5 PUSH2 0x980 DUP5 PUSH2 0x1793 JUMP JUMPDEST SWAP4 SWAP1 SLOAD PUSH1 0x3 SWAP5 DUP6 SHL SHR AND EQ PUSH2 0x99F JUMPI POP POP PUSH2 0x99A SWAP1 PUSH2 0x17CA JUMP JUMPDEST PUSH2 0x96A JUMP JUMPDEST SWAP1 SWAP3 SWAP4 SWAP5 SWAP6 SWAP2 PUSH1 0x0 NOT SWAP2 DUP3 DUP2 ADD SWAP1 DUP2 GT PUSH2 0xA36 JUMPI SWAP1 PUSH2 0x3B7 DUP5 PUSH2 0x9C4 PUSH2 0x9D1 SWAP5 PUSH2 0x1793 JUMP JUMPDEST SWAP1 SLOAD SWAP1 DUP9 SHL SHR AND SWAP2 PUSH2 0x1793 JUMP JUMPDEST DUP7 SLOAD DUP1 ISZERO PUSH2 0xA23 JUMPI SWAP2 PUSH32 0xBE9BB4BDCA0A094BABD75E3A98B1D2E2390633430D0A2F6E2B9970E2EE03FB2E SWAP6 SWAP7 SWAP8 SWAP2 PUSH1 0x20 SWAP6 SWAP5 SWAP4 ADD SWAP3 PUSH2 0xA0F DUP5 PUSH2 0x1793 JUMP JUMPDEST DUP2 SWAP4 SWAP2 SLOAD SWAP3 SHL SHL NOT AND SWAP1 SSTORE SSTORE MLOAD TIMESTAMP DUP2 MSTORE LOG2 DUP1 RETURN JUMPDEST PUSH4 0x4E487B71 PUSH1 0xE0 SHL DUP8 MSTORE PUSH1 0x31 DUP9 MSTORE PUSH1 0x24 DUP8 REVERT JUMPDEST PUSH4 0x4E487B71 PUSH1 0xE0 SHL DUP9 MSTORE PUSH1 0x11 DUP10 MSTORE PUSH1 0x24 DUP9 REVERT JUMPDEST POP POP PUSH32 0xBE9BB4BDCA0A094BABD75E3A98B1D2E2390633430D0A2F6E2B9970E2EE03FB2E SWAP3 SWAP5 POP PUSH1 0x20 SWAP2 SWAP4 POP PUSH2 0x3D6 JUMP JUMPDEST MLOAD PUSH4 0x6439C6B PUSH1 0xE0 SHL DUP2 MSTORE DUP1 DUP6 ADD SWAP2 SWAP1 SWAP2 MSTORE PUSH1 0x24 SWAP1 REVERT JUMPDEST POP POP CALLVALUE PUSH2 0x184 JUMPI DUP2 PUSH1 0x3 NOT CALLDATASIZE ADD SLT PUSH2 0x184 JUMPI PUSH1 0x20 SWAP1 PUSH1 0xFF PUSH1 0x2 SLOAD AND SWAP1 MLOAD SWAP1 ISZERO ISZERO DUP2 MSTORE RETURN JUMPDEST POP POP CALLVALUE PUSH2 0x184 JUMPI DUP2 PUSH1 0x3 NOT CALLDATASIZE ADD SLT PUSH2 0x184 JUMPI MLOAD PUSH32 0x0 PUSH1 0x1 PUSH1 0x1 PUSH1 0xA0 SHL SUB AND DUP2 MSTORE PUSH1 0x20 SWAP1 RETURN JUMPDEST POP POP CALLVALUE PUSH2 0x184 JUMPI PUSH1 0x20 CALLDATASIZE PUSH1 0x3 NOT ADD SLT PUSH2 0x184 JUMPI PUSH1 0x20 SWAP2 DUP2 SWAP1 PUSH1 0x1 PUSH1 0x1 PUSH1 0xA0 SHL SUB PUSH2 0xB20 PUSH2 0x117C JUMP JUMPDEST AND DUP2 MSTORE PUSH1 0x6 DUP5 MSTORE KECCAK256 SLOAD SWAP1 MLOAD SWAP1 DUP2 MSTORE RETURN JUMPDEST SWAP1 POP CALLVALUE PUSH2 0x2CC JUMPI PUSH1 0x80 CALLDATASIZE PUSH1 0x3 NOT ADD SLT PUSH2 0x2CC JUMPI PUSH2 0xB4B PUSH2 0x117C JUMP JUMPDEST SWAP1 PUSH2 0xB54 PUSH2 0x1161 JUMP JUMPDEST SWAP3 PUSH1 0x44 CALLDATALOAD SWAP1 PUSH1 0x64 CALLDATALOAD PUSH8 0xFFFFFFFFFFFFFFFF DUP2 GT PUSH2 0x72B JUMPI PUSH2 0xB78 SWAP1 CALLDATASIZE SWAP1 DUP6 ADD PUSH2 0x1202 JUMP JUMPDEST SWAP5 PUSH2 0xB81 PUSH2 0x184C JUMP JUMPDEST PUSH2 0xB89 PUSH2 0x1808 JUMP JUMPDEST PUSH32 0x7434C6F201A551BFD17336985361933E0C4935B520DAC8A49D937B325F7D5C0A SWAP1 DUP2 DUP9 MSTORE PUSH1 0x20 SWAP2 DUP9 DUP4 MSTORE DUP4 DUP10 KECCAK256 CALLER DUP11 MSTORE DUP4 MSTORE PUSH1 0xFF DUP5 DUP11 KECCAK256 SLOAD AND ISZERO PUSH2 0xD4E JUMPI POP DUP4 ISZERO PUSH2 0xD3E JUMPI PUSH1 0x1 PUSH1 0x1 PUSH1 0xA0 SHL SUB DUP2 DUP2 AND SWAP7 SWAP1 DUP8 ISZERO PUSH2 0xD2E JUMPI DUP2 AND SWAP6 DUP7 DUP11 MSTORE PUSH1 0x5 DUP5 MSTORE PUSH1 0xFF DUP6 DUP12 KECCAK256 SLOAD AND ISZERO PUSH2 0xD17 JUMPI DUP7 DUP11 MSTORE PUSH1 0x3 DUP5 MSTORE DUP5 DUP11 KECCAK256 SLOAD DUP7 DUP2 LT PUSH2 0xCE5 JUMPI POP POP SWAP2 PUSH2 0xC60 DUP6 PUSH2 0xCAE SWAP6 SWAP4 PUSH2 0xC43 DUP3 PUSH32 0x6B660B41E4E88F1CB58DDFA149465E22095F2DB46104F1189AB4FB13DF565933 SWAP10 SWAP8 CALLER PUSH2 0x1B7E JUMP JUMPDEST DUP9 DUP13 MSTORE PUSH1 0x3 DUP5 MSTORE DUP5 DUP13 KECCAK256 PUSH2 0xC58 DUP4 DUP3 SLOAD PUSH2 0x17D9 JUMP JUMPDEST SWAP1 SSTORE DUP9 PUSH2 0x1A65 JUMP JUMPDEST PUSH3 0x15180 TIMESTAMP DIV CALLER DUP11 MSTORE PUSH1 0x8 DUP3 MSTORE DUP3 DUP11 KECCAK256 DUP8 DUP12 MSTORE DUP3 MSTORE DUP1 DUP4 DUP12 KECCAK256 SLOAD SUB PUSH2 0xCB8 JUMPI JUMPDEST POP CALLER DUP10 MSTORE PUSH1 0x7 DUP2 MSTORE DUP2 DUP10 KECCAK256 SWAP1 DUP7 DUP11 MSTORE MSTORE DUP1 DUP9 KECCAK256 PUSH2 0xC9E DUP4 DUP3 SLOAD PUSH2 0x163A JUMP JUMPDEST SWAP1 SSTORE MLOAD SWAP2 DUP3 SWAP2 CALLER SWAP8 TIMESTAMP SWAP2 DUP5 PUSH2 0x17E6 JUMP JUMPDEST SUB SWAP1 LOG4 PUSH1 0x1 DUP1 SSTORE DUP1 RETURN JUMPDEST CALLER DUP11 MSTORE PUSH1 0x7 DUP3 MSTORE DUP3 DUP11 KECCAK256 DUP8 DUP12 MSTORE DUP3 MSTORE DUP10 DUP4 DUP2 KECCAK256 SSTORE CALLER DUP11 MSTORE PUSH1 0x8 DUP3 MSTORE DUP3 DUP11 KECCAK256 DUP8 DUP12 MSTORE DUP3 MSTORE DUP3 DUP11 KECCAK256 SSTORE CODESIZE PUSH2 0xC80 JUMP JUMPDEST DUP6 MLOAD PUSH4 0xDB42144D PUSH1 0xE0 SHL DUP2 MSTORE PUSH1 0x1 PUSH1 0x1 PUSH1 0xA0 SHL SUB SWAP1 SWAP4 AND SWAP2 DUP4 ADD SWAP2 DUP3 MSTORE PUSH1 0x20 DUP3 ADD DUP8 SWAP1 MSTORE PUSH1 0x40 DUP3 ADD MSTORE DUP2 SWAP1 PUSH1 0x60 ADD SUB SWAP1 REVERT JUMPDEST DUP5 MLOAD PUSH4 0x6439C6B PUSH1 0xE0 SHL DUP2 MSTORE SWAP1 DUP2 ADD DUP8 SWAP1 MSTORE PUSH1 0x24 SWAP1 REVERT JUMPDEST DUP5 MLOAD PUSH4 0xD92E233D PUSH1 0xE0 SHL DUP2 MSTORE DUP8 SWAP1 REVERT JUMPDEST DUP3 MLOAD PUSH4 0x1F2A2005 PUSH1 0xE0 SHL DUP2 MSTORE DUP6 SWAP1 REVERT JUMPDEST DUP6 DUP5 DUP5 SWAP3 DUP12 PUSH2 0xD5C CALLER PUSH2 0x1684 JUMP JUMPDEST SWAP2 DUP4 MLOAD SWAP1 PUSH2 0xD69 DUP3 PUSH2 0x1192 JUMP JUMPDEST PUSH1 0x42 DUP3 MSTORE DUP7 DUP3 ADD SWAP3 PUSH1 0x60 CALLDATASIZE DUP6 CALLDATACOPY DUP3 MLOAD ISZERO PUSH2 0xF00 JUMPI PUSH1 0x30 DUP5 MSTORE8 DUP3 MLOAD SWAP1 PUSH1 0x1 SWAP2 DUP3 LT ISZERO PUSH2 0xEED JUMPI SWAP1 PUSH1 0x78 PUSH1 0x21 DUP6 ADD MSTORE8 PUSH1 0x41 SWAP2 JUMPDEST DUP2 DUP4 GT PUSH2 0xE82 JUMPI POP POP POP PUSH2 0xE41 JUMPI PUSH1 0x48 PUSH2 0xE18 SWAP4 DUP6 SWAP4 PUSH2 0xE27 SWAP4 PUSH2 0x2AA SWAP8 MLOAD SWAP7 DUP8 SWAP4 PUSH23 0x20B1B1B2B9B9A1B7B73A3937B61D1030B1B1B7BAB73A1 PUSH1 0x4D SHL DUP13 DUP7 ADD MSTORE PUSH2 0xDEF DUP13 DUP3 MLOAD SWAP3 DUP4 SWAP2 PUSH1 0x37 DUP10 ADD SWAP2 ADD PUSH2 0x157E JUMP JUMPDEST DUP5 ADD SWAP2 PUSH17 0x1034B99036B4B9B9B4B733903937B6329 PUSH1 0x7D SHL PUSH1 0x37 DUP5 ADD MSTORE MLOAD DUP1 SWAP4 DUP7 DUP5 ADD SWAP1 PUSH2 0x157E JUMP JUMPDEST ADD SUB PUSH1 0x28 DUP2 ADD DUP6 MSTORE ADD DUP4 PUSH2 0x11C4 JUMP JUMPDEST MLOAD SWAP4 DUP5 SWAP4 PUSH3 0x461BCD PUSH1 0xE5 SHL DUP6 MSTORE DUP5 ADD MSTORE PUSH1 0x24 DUP4 ADD SWAP1 PUSH2 0x15A1 JUMP JUMPDEST PUSH1 0x64 DUP6 DUP8 DUP1 DUP8 MLOAD SWAP3 PUSH3 0x461BCD PUSH1 0xE5 SHL DUP5 MSTORE DUP4 ADD MSTORE PUSH1 0x24 DUP3 ADD MSTORE PUSH32 0x537472696E67733A20686578206C656E67746820696E73756666696369656E74 PUSH1 0x44 DUP3 ADD MSTORE REVERT JUMPDEST SWAP1 SWAP2 SWAP3 PUSH1 0xF DUP2 AND PUSH1 0x10 DUP2 LT ISZERO PUSH2 0xEDA JUMPI PUSH16 0x181899199A1A9B1B9C1CB0B131B232B3 PUSH1 0x81 SHL SWAP1 BYTE PUSH2 0xEB2 DUP6 DUP8 PUSH2 0x165D JUMP JUMPDEST MSTORE8 DUP9 SHR SWAP3 DUP1 ISZERO PUSH2 0xEC7 JUMPI PUSH1 0x0 NOT ADD SWAP2 SWAP1 PUSH2 0xD9A JUMP JUMPDEST PUSH4 0x4E487B71 PUSH1 0xE0 SHL DUP3 MSTORE PUSH1 0x11 DUP10 MSTORE PUSH1 0x24 DUP3 REVERT JUMPDEST PUSH4 0x4E487B71 PUSH1 0xE0 SHL DUP4 MSTORE PUSH1 0x32 DUP11 MSTORE PUSH1 0x24 DUP4 REVERT JUMPDEST PUSH4 0x4E487B71 PUSH1 0xE0 SHL DUP2 MSTORE PUSH1 0x32 DUP9 MSTORE PUSH1 0x24 SWAP1 REVERT JUMPDEST PUSH4 0x4E487B71 PUSH1 0xE0 SHL DUP2 MSTORE PUSH1 0x32 DUP8 MSTORE PUSH1 0x24 SWAP1 REVERT JUMPDEST SWAP1 POP CALLVALUE PUSH2 0x2CC JUMPI DUP3 PUSH1 0x3 NOT CALLDATASIZE ADD SLT PUSH2 0x2CC JUMPI PUSH2 0xF2D PUSH2 0x1286 JUMP JUMPDEST PUSH1 0x2 SLOAD SWAP1 PUSH1 0xFF DUP3 AND ISZERO PUSH2 0xF6F JUMPI POP PUSH1 0xFF NOT AND PUSH1 0x2 SSTORE MLOAD CALLER DUP2 MSTORE PUSH32 0x5DB9EE0A495BF2E6FF9C91A7834C1BA4FDD244A5E8AA4E537BD38AEAE4B073AA SWAP1 PUSH1 0x20 SWAP1 LOG1 DUP1 RETURN JUMPDEST PUSH1 0x64 SWAP1 PUSH1 0x20 DUP5 MLOAD SWAP2 PUSH3 0x461BCD PUSH1 0xE5 SHL DUP4 MSTORE DUP3 ADD MSTORE PUSH1 0x14 PUSH1 0x24 DUP3 ADD MSTORE PUSH20 0x14185D5CD8589B194E881B9BDD081C185D5CD959 PUSH1 0x62 SHL PUSH1 0x44 DUP3 ADD MSTORE REVERT JUMPDEST DUP4 SWAP2 POP CALLVALUE PUSH2 0x184 JUMPI DUP3 PUSH1 0x3 NOT CALLDATASIZE ADD SLT PUSH2 0x184 JUMPI PUSH2 0xFC4 PUSH2 0x1161 JUMP JUMPDEST SWAP1 CALLER PUSH1 0x1 PUSH1 0x1 PUSH1 0xA0 SHL SUB DUP4 AND SUB PUSH2 0xFE0 JUMPI SWAP1 PUSH2 0x30B SWAP2 CALLDATALOAD PUSH2 0x15C6 JUMP JUMPDEST PUSH1 0x84 SWAP1 PUSH1 0x20 DUP6 MLOAD SWAP2 PUSH3 0x461BCD PUSH1 0xE5 SHL DUP4 MSTORE DUP3 ADD MSTORE PUSH1 0x2F PUSH1 0x24 DUP3 ADD MSTORE PUSH32 0x416363657373436F6E74726F6C3A2063616E206F6E6C792072656E6F756E6365 PUSH1 0x44 DUP3 ADD MSTORE PUSH15 0x103937B632B9903337B91039B2B633 PUSH1 0x89 SHL PUSH1 0x64 DUP3 ADD MSTORE REVERT JUMPDEST SWAP1 POP CALLVALUE PUSH2 0x2CC JUMPI DUP2 PUSH1 0x3 NOT CALLDATASIZE ADD SLT PUSH2 0x2CC JUMPI CALLDATALOAD SWAP1 PUSH2 0x1057 PUSH2 0x1161 JUMP JUMPDEST SWAP1 DUP3 DUP5 MSTORE DUP4 PUSH1 0x20 MSTORE PUSH2 0x106E PUSH1 0x1 DUP3 DUP7 KECCAK256 ADD SLOAD PUSH2 0x1474 JUMP JUMPDEST DUP3 DUP5 MSTORE PUSH1 0x20 DUP5 DUP2 MSTORE DUP2 DUP6 KECCAK256 PUSH1 0x1 PUSH1 0x1 PUSH1 0xA0 SHL SUB SWAP1 SWAP4 AND DUP1 DUP7 MSTORE SWAP3 SWAP1 MSTORE DUP1 DUP5 KECCAK256 SLOAD PUSH1 0xFF AND ISZERO PUSH2 0x109A JUMPI DUP4 DUP1 RETURN JUMPDEST DUP3 DUP5 MSTORE DUP4 PUSH1 0x20 MSTORE DUP1 DUP5 KECCAK256 DUP3 DUP6 MSTORE PUSH1 0x20 MSTORE DUP4 KECCAK256 PUSH1 0x1 PUSH1 0xFF NOT DUP3 SLOAD AND OR SWAP1 SSTORE CALLER SWAP2 PUSH32 0x2F8788117E7EFF1D82E926EC794901D17C78024A50270940304540A733656F0D DUP5 DUP1 LOG4 CODESIZE DUP1 DUP1 DUP4 DUP1 RETURN JUMPDEST SWAP1 POP CALLVALUE PUSH2 0x2CC JUMPI PUSH1 0x20 CALLDATASIZE PUSH1 0x3 NOT ADD SLT PUSH2 0x2CC JUMPI DUP2 PUSH1 0x20 SWAP4 PUSH1 0x1 SWAP3 CALLDATALOAD DUP2 MSTORE DUP1 DUP6 MSTORE KECCAK256 ADD SLOAD SWAP1 MLOAD SWAP1 DUP2 MSTORE RETURN JUMPDEST DUP5 SWAP2 CALLVALUE PUSH2 0x2CC JUMPI PUSH1 0x20 CALLDATASIZE PUSH1 0x3 NOT ADD SLT PUSH2 0x2CC JUMPI CALLDATALOAD PUSH4 0xFFFFFFFF PUSH1 0xE0 SHL DUP2 AND DUP1 SWAP2 SUB PUSH2 0x2CC JUMPI PUSH1 0x20 SWAP3 POP PUSH4 0x7965DB0B PUSH1 0xE0 SHL DUP2 EQ SWAP1 DUP2 ISZERO PUSH2 0x1150 JUMPI JUMPDEST POP ISZERO ISZERO DUP2 MSTORE RETURN JUMPDEST PUSH4 0x1FFC9A7 PUSH1 0xE0 SHL EQ SWAP1 POP DUP4 PUSH2 0x1149 JUMP JUMPDEST PUSH1 0x24 CALLDATALOAD SWAP1 PUSH1 0x1 PUSH1 0x1 PUSH1 0xA0 SHL SUB DUP3 AND DUP3 SUB PUSH2 0x1177 JUMPI JUMP JUMPDEST PUSH1 0x0 DUP1 REVERT JUMPDEST PUSH1 0x4 CALLDATALOAD SWAP1 PUSH1 0x1 PUSH1 0x1 PUSH1 0xA0 SHL SUB DUP3 AND DUP3 SUB PUSH2 0x1177 JUMPI JUMP JUMPDEST PUSH1 0x80 DUP2 ADD SWAP1 DUP2 LT PUSH8 0xFFFFFFFFFFFFFFFF DUP3 GT OR PUSH2 0x11AE JUMPI PUSH1 0x40 MSTORE JUMP JUMPDEST PUSH4 0x4E487B71 PUSH1 0xE0 SHL PUSH1 0x0 MSTORE PUSH1 0x41 PUSH1 0x4 MSTORE PUSH1 0x24 PUSH1 0x0 REVERT JUMPDEST SWAP1 PUSH1 0x1F DUP1 NOT SWAP2 ADD AND DUP2 ADD SWAP1 DUP2 LT PUSH8 0xFFFFFFFFFFFFFFFF DUP3 GT OR PUSH2 0x11AE JUMPI PUSH1 0x40 MSTORE JUMP JUMPDEST PUSH8 0xFFFFFFFFFFFFFFFF DUP2 GT PUSH2 0x11AE JUMPI PUSH1 0x1F ADD PUSH1 0x1F NOT AND PUSH1 0x20 ADD SWAP1 JUMP JUMPDEST DUP2 PUSH1 0x1F DUP3 ADD SLT ISZERO PUSH2 0x1177 JUMPI DUP1 CALLDATALOAD SWAP1 PUSH2 0x1219 DUP3 PUSH2 0x11E6 JUMP JUMPDEST SWAP3 PUSH2 0x1227 PUSH1 0x40 MLOAD SWAP5 DUP6 PUSH2 0x11C4 JUMP JUMPDEST DUP3 DUP5 MSTORE PUSH1 0x20 DUP4 DUP4 ADD ADD GT PUSH2 0x1177 JUMPI DUP2 PUSH1 0x0 SWAP3 PUSH1 0x20 DUP1 SWAP4 ADD DUP4 DUP7 ADD CALLDATACOPY DUP4 ADD ADD MSTORE SWAP1 JUMP JUMPDEST SWAP1 DUP2 MLOAD DUP1 DUP3 MSTORE PUSH1 0x20 DUP1 DUP1 SWAP4 ADD SWAP4 ADD SWAP2 PUSH1 0x0 JUMPDEST DUP3 DUP2 LT PUSH2 0x1269 JUMPI POP POP POP POP SWAP1 JUMP JUMPDEST DUP4 MLOAD PUSH1 0x1 PUSH1 0x1 PUSH1 0xA0 SHL SUB AND DUP6 MSTORE SWAP4 DUP2 ADD SWAP4 SWAP3 DUP2 ADD SWAP3 PUSH1 0x1 ADD PUSH2 0x125B JUMP JUMPDEST CALLER PUSH1 0x0 SWAP1 DUP2 MSTORE PUSH32 0x7D7FFB7A348E1C6A02869081A26547B49160DD3DF72D1D75A570EB9B698292EC PUSH1 0x20 SWAP1 DUP2 MSTORE PUSH1 0x40 DUP1 DUP4 KECCAK256 SLOAD SWAP1 SWAP3 PUSH32 0xA49807205CE4D355092EF5A8A18F56E8913CF4A201FBE287825B095693C21775 SWAP2 PUSH1 0xFF AND ISZERO PUSH2 0x12EA JUMPI POP POP POP POP JUMP JUMPDEST PUSH2 0x12F3 CALLER PUSH2 0x1684 JUMP JUMPDEST SWAP2 DUP5 MLOAD SWAP1 PUSH2 0x1300 DUP3 PUSH2 0x1192 JUMP JUMPDEST PUSH1 0x42 DUP3 MSTORE DUP5 DUP3 ADD SWAP3 PUSH1 0x60 CALLDATASIZE DUP6 CALLDATACOPY DUP3 MLOAD ISZERO PUSH2 0x1460 JUMPI PUSH1 0x30 DUP5 MSTORE8 DUP3 MLOAD SWAP1 PUSH1 0x1 SWAP2 DUP3 LT ISZERO PUSH2 0x1460 JUMPI SWAP1 PUSH1 0x78 PUSH1 0x21 DUP6 ADD MSTORE8 PUSH1 0x41 SWAP2 JUMPDEST DUP2 DUP4 GT PUSH2 0x13F2 JUMPI POP POP POP PUSH2 0x13B0 JUMPI PUSH1 0x48 PUSH2 0x2AA SWAP4 DUP7 SWAP4 PUSH2 0x1394 SWAP4 PUSH2 0x1385 SWAP9 MLOAD SWAP9 DUP10 SWAP4 PUSH23 0x20B1B1B2B9B9A1B7B73A3937B61D1030B1B1B7BAB73A1 PUSH1 0x4D SHL DUP11 DUP7 ADD MSTORE PUSH2 0xDEF DUP2 MLOAD DUP1 SWAP3 DUP13 PUSH1 0x37 DUP10 ADD SWAP2 ADD PUSH2 0x157E JUMP JUMPDEST ADD SUB PUSH1 0x28 DUP2 ADD DUP8 MSTORE ADD DUP6 PUSH2 0x11C4 JUMP JUMPDEST MLOAD SWAP3 DUP4 SWAP3 PUSH3 0x461BCD PUSH1 0xE5 SHL DUP5 MSTORE PUSH1 0x4 DUP5 ADD MSTORE PUSH1 0x24 DUP4 ADD SWAP1 PUSH2 0x15A1 JUMP JUMPDEST PUSH1 0x64 DUP5 DUP7 MLOAD SWAP1 PUSH3 0x461BCD PUSH1 0xE5 SHL DUP3 MSTORE DUP1 PUSH1 0x4 DUP4 ADD MSTORE PUSH1 0x24 DUP3 ADD MSTORE PUSH32 0x537472696E67733A20686578206C656E67746820696E73756666696369656E74 PUSH1 0x44 DUP3 ADD MSTORE REVERT JUMPDEST SWAP1 SWAP2 SWAP3 PUSH1 0xF DUP2 AND PUSH1 0x10 DUP2 LT ISZERO PUSH2 0x144C JUMPI PUSH16 0x181899199A1A9B1B9C1CB0B131B232B3 PUSH1 0x81 SHL SWAP1 BYTE PUSH2 0x1422 DUP6 DUP8 PUSH2 0x165D JUMP JUMPDEST MSTORE8 PUSH1 0x4 SHR SWAP3 DUP1 ISZERO PUSH2 0x1438 JUMPI PUSH1 0x0 NOT ADD SWAP2 SWAP1 PUSH2 0x1331 JUMP JUMPDEST PUSH4 0x4E487B71 PUSH1 0xE0 SHL DUP3 MSTORE PUSH1 0x11 PUSH1 0x4 MSTORE PUSH1 0x24 DUP3 REVERT JUMPDEST PUSH4 0x4E487B71 PUSH1 0xE0 SHL DUP4 MSTORE PUSH1 0x32 PUSH1 0x4 MSTORE PUSH1 0x24 DUP4 REVERT JUMPDEST PUSH4 0x4E487B71 PUSH1 0xE0 SHL DUP2 MSTORE PUSH1 0x32 PUSH1 0x4 MSTORE PUSH1 0x24 SWAP1 REVERT JUMPDEST PUSH1 0x0 SWAP1 DUP1 DUP3 MSTORE PUSH1 0x20 SWAP1 DUP3 DUP3 MSTORE PUSH1 0x40 SWAP3 DUP4 DUP2 KECCAK256 CALLER DUP3 MSTORE DUP4 MSTORE PUSH1 0xFF DUP5 DUP3 KECCAK256 SLOAD AND ISZERO PUSH2 0x149D JUMPI POP POP POP POP JUMP JUMPDEST PUSH2 0x14A6 CALLER PUSH2 0x1684 JUMP JUMPDEST SWAP2 DUP5 MLOAD SWAP1 PUSH2 0x14B3 DUP3 PUSH2 0x1192 JUMP JUMPDEST PUSH1 0x42 DUP3 MSTORE DUP5 DUP3 ADD SWAP3 PUSH1 0x60 CALLDATASIZE DUP6 CALLDATACOPY DUP3 MLOAD ISZERO PUSH2 0x1460 JUMPI PUSH1 0x30 DUP5 MSTORE8 DUP3 MLOAD SWAP1 PUSH1 0x1 SWAP2 DUP3 LT ISZERO PUSH2 0x1460 JUMPI SWAP1 PUSH1 0x78 PUSH1 0x21 DUP6 ADD MSTORE8 PUSH1 0x41 SWAP2 JUMPDEST DUP2 DUP4 GT PUSH2 0x1538 JUMPI POP POP POP PUSH2 0x13B0 JUMPI PUSH1 0x48 PUSH2 0x2AA SWAP4 DUP7 SWAP4 PUSH2 0x1394 SWAP4 PUSH2 0x1385 SWAP9 MLOAD SWAP9 DUP10 SWAP4 PUSH23 0x20B1B1B2B9B9A1B7B73A3937B61D1030B1B1B7BAB73A1 PUSH1 0x4D SHL DUP11 DUP7 ADD MSTORE PUSH2 0xDEF DUP2 MLOAD DUP1 SWAP3 DUP13 PUSH1 0x37 DUP10 ADD SWAP2 ADD PUSH2 0x157E JUMP JUMPDEST SWAP1 SWAP2 SWAP3 PUSH1 0xF DUP2 AND PUSH1 0x10 DUP2 LT ISZERO PUSH2 0x144C JUMPI PUSH16 0x181899199A1A9B1B9C1CB0B131B232B3 PUSH1 0x81 SHL SWAP1 BYTE PUSH2 0x1568 DUP6 DUP8 PUSH2 0x165D JUMP JUMPDEST MSTORE8 PUSH1 0x4 SHR SWAP3 DUP1 ISZERO PUSH2 0x1438 JUMPI PUSH1 0x0 NOT ADD SWAP2 SWAP1 PUSH2 0x14E4 JUMP JUMPDEST PUSH1 0x0 JUMPDEST DUP4 DUP2 LT PUSH2 0x1591 JUMPI POP POP PUSH1 0x0 SWAP2 ADD MSTORE JUMP JUMPDEST DUP2 DUP2 ADD MLOAD DUP4 DUP3 ADD MSTORE PUSH1 0x20 ADD PUSH2 0x1581 JUMP JUMPDEST SWAP1 PUSH1 0x20 SWAP2 PUSH2 0x15BA DUP2 MLOAD DUP1 SWAP3 DUP2 DUP6 MSTORE DUP6 DUP1 DUP7 ADD SWAP2 ADD PUSH2 0x157E JUMP JUMPDEST PUSH1 0x1F ADD PUSH1 0x1F NOT AND ADD ADD SWAP1 JUMP JUMPDEST SWAP1 PUSH1 0x0 SWAP2 DUP1 DUP4 MSTORE DUP3 PUSH1 0x20 MSTORE PUSH1 0x40 DUP4 KECCAK256 SWAP2 PUSH1 0x1 DUP1 PUSH1 0xA0 SHL SUB AND SWAP2 DUP3 DUP5 MSTORE PUSH1 0x20 MSTORE PUSH1 0xFF PUSH1 0x40 DUP5 KECCAK256 SLOAD AND PUSH2 0x15F6 JUMPI POP POP POP JUMP JUMPDEST DUP1 DUP4 MSTORE DUP3 PUSH1 0x20 MSTORE PUSH1 0x40 DUP4 KECCAK256 DUP3 DUP5 MSTORE PUSH1 0x20 MSTORE PUSH1 0x40 DUP4 KECCAK256 PUSH1 0xFF NOT DUP2 SLOAD AND SWAP1 SSTORE PUSH32 0xF6391F5C32D9C69D2A47EA670B442974B53935D1EDC7FD64EB21E047A839171B CALLER SWAP4 DUP1 LOG4 JUMP JUMPDEST SWAP2 SWAP1 DUP3 ADD DUP1 SWAP3 GT PUSH2 0x1647 JUMPI JUMP JUMPDEST PUSH4 0x4E487B71 PUSH1 0xE0 SHL PUSH1 0x0 MSTORE PUSH1 0x11 PUSH1 0x4 MSTORE PUSH1 0x24 PUSH1 0x0 REVERT JUMPDEST SWAP1 DUP2 MLOAD DUP2 LT ISZERO PUSH2 0x166E JUMPI ADD PUSH1 0x20 ADD SWAP1 JUMP JUMPDEST PUSH4 0x4E487B71 PUSH1 0xE0 SHL PUSH1 0x0 MSTORE PUSH1 0x32 PUSH1 0x4 MSTORE PUSH1 0x24 PUSH1 0x0 REVERT JUMPDEST PUSH1 0x40 MLOAD SWAP1 PUSH1 0x60 DUP3 ADD DUP3 DUP2 LT PUSH8 0xFFFFFFFFFFFFFFFF DUP3 GT OR PUSH2 0x11AE JUMPI PUSH1 0x40 MSTORE PUSH1 0x2A DUP3 MSTORE PUSH1 0x20 DUP3 ADD PUSH1 0x40 CALLDATASIZE DUP3 CALLDATACOPY DUP3 MLOAD ISZERO PUSH2 0x166E JUMPI PUSH1 0x30 SWAP1 MSTORE8 DUP2 MLOAD PUSH1 0x1 SWAP1 DUP2 LT ISZERO PUSH2 0x166E JUMPI PUSH1 0x78 PUSH1 0x21 DUP5 ADD MSTORE8 PUSH1 0x29 SWAP1 JUMPDEST DUP1 DUP3 GT PUSH2 0x1725 JUMPI POP POP PUSH2 0x16E1 JUMPI SWAP1 JUMP JUMPDEST PUSH1 0x64 PUSH1 0x40 MLOAD PUSH3 0x461BCD PUSH1 0xE5 SHL DUP2 MSTORE PUSH1 0x20 PUSH1 0x4 DUP3 ADD MSTORE PUSH1 0x20 PUSH1 0x24 DUP3 ADD MSTORE PUSH32 0x537472696E67733A20686578206C656E67746820696E73756666696369656E74 PUSH1 0x44 DUP3 ADD MSTORE REVERT JUMPDEST SWAP1 SWAP2 PUSH1 0xF DUP2 AND PUSH1 0x10 DUP2 LT ISZERO PUSH2 0x177E JUMPI PUSH16 0x181899199A1A9B1B9C1CB0B131B232B3 PUSH1 0x81 SHL SWAP1 BYTE PUSH2 0x1754 DUP5 DUP7 PUSH2 0x165D JUMP JUMPDEST MSTORE8 PUSH1 0x4 SHR SWAP2 DUP1 ISZERO PUSH2 0x1769 JUMPI PUSH1 0x0 NOT ADD SWAP1 PUSH2 0x16D1 JUMP JUMPDEST PUSH1 0x24 PUSH1 0x0 PUSH4 0x4E487B71 PUSH1 0xE0 SHL DUP2 MSTORE PUSH1 0x11 PUSH1 0x4 MSTORE REVERT JUMPDEST PUSH1 0x24 PUSH1 0x0 PUSH4 0x4E487B71 PUSH1 0xE0 SHL DUP2 MSTORE PUSH1 0x32 PUSH1 0x4 MSTORE REVERT JUMPDEST PUSH1 0x4 SLOAD DUP2 LT ISZERO PUSH2 0x166E JUMPI PUSH1 0x4 PUSH1 0x0 MSTORE PUSH32 0x8A35ACFBC15FF81A39AE7D344FD709F28E8600B4AA8C65C6B64BFE7FE36BD19B ADD SWAP1 PUSH1 0x0 SWAP1 JUMP JUMPDEST PUSH1 0x0 NOT DUP2 EQ PUSH2 0x1647 JUMPI PUSH1 0x1 ADD SWAP1 JUMP JUMPDEST SWAP2 SWAP1 DUP3 SUB SWAP2 DUP3 GT PUSH2 0x1647 JUMPI JUMP JUMPDEST SWAP4 SWAP3 SWAP2 PUSH2 0x1803 SWAP1 PUSH1 0x40 SWAP3 DUP7 MSTORE PUSH1 0x60 PUSH1 0x20 DUP8 ADD MSTORE PUSH1 0x60 DUP7 ADD SWAP1 PUSH2 0x15A1 JUMP JUMPDEST SWAP4 ADD MSTORE JUMP JUMPDEST PUSH1 0xFF PUSH1 0x2 SLOAD AND PUSH2 0x1814 JUMPI JUMP JUMPDEST PUSH1 0x40 MLOAD PUSH3 0x461BCD PUSH1 0xE5 SHL DUP2 MSTORE PUSH1 0x20 PUSH1 0x4 DUP3 ADD MSTORE PUSH1 0x10 PUSH1 0x24 DUP3 ADD MSTORE PUSH16 0x14185D5CD8589B194E881C185D5CD959 PUSH1 0x82 SHL PUSH1 0x44 DUP3 ADD MSTORE PUSH1 0x64 SWAP1 REVERT JUMPDEST PUSH1 0x2 PUSH1 0x1 SLOAD EQ PUSH2 0x185D JUMPI PUSH1 0x2 PUSH1 0x1 SSTORE JUMP JUMPDEST PUSH1 0x40 MLOAD PUSH3 0x461BCD PUSH1 0xE5 SHL DUP2 MSTORE PUSH1 0x20 PUSH1 0x4 DUP3 ADD MSTORE PUSH1 0x1F PUSH1 0x24 DUP3 ADD MSTORE PUSH32 0x5265656E7472616E637947756172643A207265656E7472616E742063616C6C00 PUSH1 0x44 DUP3 ADD MSTORE PUSH1 0x64 SWAP1 REVERT JUMPDEST PUSH1 0x1 DUP1 PUSH1 0xA0 SHL SUB AND SWAP1 PUSH1 0x40 MLOAD PUSH1 0x40 DUP2 ADD SWAP1 DUP1 DUP3 LT PUSH8 0xFFFFFFFFFFFFFFFF DUP4 GT OR PUSH2 0x11AE JUMPI PUSH2 0x1932 SWAP2 PUSH1 0x40 MSTORE PUSH1 0x20 SWAP4 DUP5 DUP3 MSTORE PUSH32 0x5361666545524332303A206C6F772D6C6576656C2063616C6C206661696C6564 DUP6 DUP4 ADD MSTORE PUSH1 0x0 DUP1 DUP6 DUP8 DUP3 SWAP8 MLOAD SWAP2 ADD DUP3 DUP6 GAS CALL RETURNDATASIZE ISZERO PUSH2 0x19C8 JUMPI RETURNDATASIZE SWAP2 PUSH2 0x1917 DUP4 PUSH2 0x11E6 JUMP JUMPDEST SWAP3 PUSH2 0x1925 PUSH1 0x40 MLOAD SWAP5 DUP6 PUSH2 0x11C4 JUMP JUMPDEST DUP4 MSTORE RETURNDATASIZE DUP7 DUP9 DUP6 ADD RETURNDATACOPY PUSH2 0x19CC JUMP JUMPDEST DUP1 MLOAD SWAP2 DUP3 ISZERO SWAP2 DUP5 DUP4 ISZERO PUSH2 0x19A4 JUMPI JUMPDEST POP POP POP SWAP1 POP ISZERO PUSH2 0x194D JUMPI POP JUMP JUMPDEST PUSH1 0x84 SWAP1 PUSH1 0x40 MLOAD SWAP1 PUSH3 0x461BCD PUSH1 0xE5 SHL DUP3 MSTORE PUSH1 0x4 DUP3 ADD MSTORE PUSH1 0x2A PUSH1 0x24 DUP3 ADD MSTORE PUSH32 0x5361666545524332303A204552433230206F7065726174696F6E20646964206E PUSH1 0x44 DUP3 ADD MSTORE PUSH10 0x1BDD081CDD58D8D95959 PUSH1 0xB2 SHL PUSH1 0x64 DUP3 ADD MSTORE REVERT JUMPDEST SWAP2 SWAP4 DUP2 DUP1 SWAP5 POP ADD SUB SLT PUSH2 0x184 JUMPI DUP3 ADD MLOAD SWAP1 DUP2 ISZERO ISZERO DUP3 SUB PUSH2 0x52D JUMPI POP DUP1 CODESIZE DUP1 DUP5 PUSH2 0x1940 JUMP JUMPDEST PUSH1 0x60 SWAP2 JUMPDEST SWAP2 SWAP3 SWAP1 ISZERO PUSH2 0x1A2E JUMPI POP DUP2 MLOAD ISZERO PUSH2 0x19E0 JUMPI POP SWAP1 JUMP JUMPDEST EXTCODESIZE ISZERO PUSH2 0x19E9 JUMPI SWAP1 JUMP JUMPDEST PUSH1 0x40 MLOAD PUSH3 0x461BCD PUSH1 0xE5 SHL DUP2 MSTORE PUSH1 0x20 PUSH1 0x4 DUP3 ADD MSTORE PUSH1 0x1D PUSH1 0x24 DUP3 ADD MSTORE PUSH32 0x416464726573733A2063616C6C20746F206E6F6E2D636F6E7472616374000000 PUSH1 0x44 DUP3 ADD MSTORE PUSH1 0x64 SWAP1 REVERT JUMPDEST DUP3 MLOAD SWAP1 SWAP2 POP ISZERO PUSH2 0x1A41 JUMPI POP DUP1 MLOAD SWAP1 PUSH1 0x20 ADD REVERT JUMPDEST PUSH1 0x40 MLOAD PUSH3 0x461BCD PUSH1 0xE5 SHL DUP2 MSTORE PUSH1 0x20 PUSH1 0x4 DUP3 ADD MSTORE SWAP1 DUP2 SWAP1 PUSH2 0x2AA SWAP1 PUSH1 0x24 DUP4 ADD SWAP1 PUSH2 0x15A1 JUMP JUMPDEST PUSH1 0x40 MLOAD PUSH4 0xA9059CBB PUSH1 0xE0 SHL PUSH1 0x20 DUP3 ADD MSTORE PUSH1 0x1 PUSH1 0x1 PUSH1 0xA0 SHL SUB SWAP1 SWAP3 AND PUSH1 0x24 DUP4 ADD MSTORE PUSH1 0x44 DUP1 DUP4 ADD SWAP4 SWAP1 SWAP4 MSTORE SWAP2 DUP2 MSTORE PUSH1 0x80 DUP2 ADD SWAP2 PUSH8 0xFFFFFFFFFFFFFFFF DUP4 GT DUP3 DUP5 LT OR PUSH2 0x11AE JUMPI PUSH2 0x1AB5 SWAP3 PUSH1 0x40 MSTORE PUSH2 0x18A2 JUMP JUMPDEST JUMP JUMPDEST PUSH1 0x40 MLOAD SWAP1 PUSH1 0x4 SLOAD DUP1 DUP4 MSTORE DUP3 PUSH1 0x20 SWAP2 DUP3 DUP3 ADD SWAP1 PUSH1 0x4 PUSH1 0x0 MSTORE PUSH32 0x8A35ACFBC15FF81A39AE7D344FD709F28E8600B4AA8C65C6B64BFE7FE36BD19B SWAP4 PUSH1 0x0 SWAP1 JUMPDEST DUP3 DUP3 LT PUSH2 0x1B0A JUMPI POP POP POP PUSH2 0x1AB5 SWAP3 POP SUB DUP4 PUSH2 0x11C4 JUMP JUMPDEST DUP6 SLOAD PUSH1 0x1 PUSH1 0x1 PUSH1 0xA0 SHL SUB AND DUP5 MSTORE PUSH1 0x1 SWAP6 DUP7 ADD SWAP6 DUP9 SWAP6 POP SWAP4 DUP2 ADD SWAP4 SWAP1 SWAP2 ADD SWAP1 PUSH2 0x1AF4 JUMP JUMPDEST PUSH1 0x1 DUP1 PUSH1 0xA0 SHL SUB DUP1 SWAP2 AND SWAP2 PUSH1 0x0 SWAP2 DUP4 DUP4 MSTORE PUSH1 0x8 PUSH1 0x20 MSTORE PUSH1 0x40 DUP4 KECCAK256 SWAP2 AND SWAP1 DUP2 DUP4 MSTORE PUSH1 0x20 MSTORE PUSH3 0x15180 TIMESTAMP DIV PUSH1 0x40 DUP4 KECCAK256 SLOAD SUB PUSH2 0x1B78 JUMPI PUSH1 0x40 SWAP3 DUP3 MSTORE PUSH1 0x7 PUSH1 0x20 MSTORE DUP3 DUP3 KECCAK256 SWAP1 DUP3 MSTORE PUSH1 0x20 MSTORE KECCAK256 SLOAD SWAP1 JUMP JUMPDEST POP SWAP1 POP SWAP1 JUMP JUMPDEST PUSH1 0x1 DUP1 PUSH1 0xA0 SHL SUB SWAP3 DUP4 DUP4 AND SWAP2 PUSH1 0x0 SWAP5 DUP4 DUP7 MSTORE PUSH1 0x6 PUSH1 0x20 MSTORE PUSH1 0x40 SWAP6 DUP7 DUP2 KECCAK256 SLOAD SWAP5 DUP6 ISZERO PUSH2 0x1C45 JUMPI DUP8 SWAP3 DUP3 SWAP5 AND DUP1 DUP4 MSTORE PUSH1 0x8 PUSH1 0x20 MSTORE DUP4 DUP4 KECCAK256 DUP3 DUP5 MSTORE PUSH1 0x20 MSTORE PUSH3 0x15180 TIMESTAMP DIV DUP5 DUP5 KECCAK256 SLOAD EQ PUSH2 0x1C28 JUMPI JUMPDEST POP POP POP POP DUP3 PUSH2 0x1BD8 DUP4 DUP4 PUSH2 0x163A JUMP JUMPDEST GT PUSH2 0x1BE4 JUMPI POP POP POP POP POP JUMP JUMPDEST PUSH2 0x2AA SWAP3 SWAP2 PUSH2 0x1BF2 SWAP2 PUSH2 0x163A JUMP JUMPDEST SWAP4 MLOAD PUSH4 0x84BB52CF PUSH1 0xE0 SHL DUP2 MSTORE PUSH1 0x1 PUSH1 0x1 PUSH1 0xA0 SHL SUB SWAP1 SWAP4 AND PUSH1 0x4 DUP5 ADD MSTORE PUSH1 0x24 DUP4 ADD SWAP4 SWAP1 SWAP4 MSTORE PUSH1 0x44 DUP3 ADD SWAP3 SWAP1 SWAP3 MSTORE SWAP1 DUP2 SWAP1 PUSH1 0x64 DUP3 ADD SWAP1 JUMP JUMPDEST DUP3 MSTORE PUSH1 0x7 PUSH1 0x20 SWAP1 DUP2 MSTORE DUP4 DUP4 KECCAK256 SWAP2 DUP4 MSTORE MSTORE KECCAK256 SLOAD SWAP1 POP DUP5 CODESIZE DUP1 DUP1 PUSH2 0x1BC9 JUMP JUMPDEST POP POP POP POP POP POP POP POP JUMP JUMPDEST PUSH8 0xFFFFFFFFFFFFFFFF DUP2 GT PUSH2 0x11AE JUMPI PUSH1 0x5 SHL PUSH1 0x20 ADD SWAP1 JUMP JUMPDEST DUP1 MLOAD DUP3 LT ISZERO PUSH2 0x166E JUMPI PUSH1 0x20 SWAP2 PUSH1 0x5 SHL ADD ADD SWAP1 JUMP INVALID LOG2 PUSH5 0x6970667358 0x22 SLT KECCAK256 0x2D 0x5E MSIZE 0xBC 0xBE EXTCODECOPY 0x21 0xEF LOG3 XOR PUSH8 0x66C31045F994F344 DUP10 MOD PUSH14 0xCF6164B0E0D4C0EB159564736F6C PUSH4 0x43000814 STOP CALLER 0x2F DUP8 DUP9 GT PUSH31 0x7EFF1D82E926EC794901D17C78024A50270940304540A733656F0D00000000 "},"methodIdentifiers":{"ADMIN_ROLE()":"75b238fc","DEFAULT_ADMIN_ROLE()":"a217fddf","DEPOSITOR_ROLE()":"a3b0b5a3","SPENDER_ROLE()":"72c16a24","addToken(address)":"d48bfca7","controlModule()":"536ce92d","deposit(address,uint256,string)":"bfe07da6","emergencyWithdraw(address,address,uint256)":"e63ea408","getBalance(address)":"f8b2cb4f","getDailySpent(address,address)":"a85e35de","getRoleAdmin(bytes32)":"248a9ca3","getSpendingLimit(address)":"47a10748","getSupportedTokens()":"d3c7c2c7","getTotalValue()":"caa648b4","grantRole(bytes32,address)":"2f2ff15d","hasRole(bytes32,address)":"91d14854","isTokenSupported(address)":"75151b63","organizationId()":"c471dc3a","pause()":"8456cb59","paused()":"5c975abb","removeToken(address)":"5fa7b584","renounceRole(bytes32,address)":"36568abe","revokeRole(bytes32,address)":"d547741f","setSpendingLimit(address,uint256)":"c9a815bd","spend(address,address,uint256,string)":"45e67724","supportsInterface(bytes4)":"01ffc9a7","unpause()":"3f4ba83a"}}}}}