{"contracts/modules/Sense/Sense.sol":{"Sense":{"abi":[{"inputs":[],"stateMutability":"nonpayable","type":"constructor"},{"inputs":[{"internalType":"bytes32","name":"profileId","type":"bytes32"},{"internalType":"bytes32","name":"achievementId","type":"bytes32"}],"name":"AchievementAlreadyGranted","type":"error"},{"inputs":[{"internalType":"bytes32","name":"achievementId","type":"bytes32"}],"name":"AchievementNotFound","type":"error"},{"inputs":[{"internalType":"address","name":"caller","type":"address"},{"internalType":"string","name":"action","type":"string"}],"name":"InsufficientPermissions","type":"error"},{"inputs":[{"internalType":"uint8","name":"rating","type":"uint8"}],"name":"InvalidFeedbackRating","type":"error"},{"inputs":[{"internalType":"bytes32","name":"profileId","type":"bytes32"}],"name":"InvalidImportProof","type":"error"},{"inputs":[],"name":"InvalidRegistryAddress","type":"error"},{"inputs":[{"internalType":"int256","name":"delta","type":"int256"}],"name":"InvalidReputationDelta","type":"error"},{"inputs":[{"internalType":"enum ISense.VerificationLevel","name":"level","type":"uint8"}],"name":"InvalidVerificationLevel","type":"error"},{"inputs":[],"name":"ModuleAlreadyInitialized","type":"error"},{"inputs":[],"name":"ModuleNotInitialized","type":"error"},{"inputs":[],"name":"OnlyRegistry","type":"error"},{"inputs":[{"internalType":"bytes32","name":"organizationId","type":"bytes32"}],"name":"OrganizationNotFound","type":"error"},{"inputs":[{"internalType":"address","name":"owner","type":"address"},{"internalType":"bytes32","name":"organizationId","type":"bytes32"}],"name":"ProfileAlreadyExists","type":"error"},{"inputs":[{"internalType":"bytes32","name":"profileId","type":"bytes32"}],"name":"ProfileNotFound","type":"error"},{"inputs":[{"internalType":"bytes32","name":"profileId","type":"bytes32"}],"name":"ReputationExportFailed","type":"error"},{"inputs":[{"internalType":"address","name":"giver","type":"address"},{"internalType":"bytes32","name":"targetProfileId","type":"bytes32"}],"name":"SelfFeedbackNotAllowed","type":"error"},{"inputs":[{"internalType":"bytes32","name":"profileId","type":"bytes32"},{"internalType":"address","name":"caller","type":"address"}],"name":"UnauthorizedProfileAccess","type":"error"},{"anonymous":false,"inputs":[{"indexed":true,"internalType":"bytes32","name":"profileId","type":"bytes32"},{"indexed":true,"internalType":"bytes32","name":"achievementId","type":"bytes32"},{"indexed":false,"internalType":"string","name":"name","type":"string"},{"indexed":false,"internalType":"uint256","name":"points","type":"uint256"},{"indexed":false,"internalType":"address","name":"grantedBy","type":"address"},{"indexed":false,"internalType":"uint256","name":"timestamp","type":"uint256"}],"name":"AchievementGranted","type":"event"},{"anonymous":false,"inputs":[{"indexed":true,"internalType":"bytes32","name":"feedbackId","type":"bytes32"},{"indexed":true,"internalType":"bytes32","name":"targetProfileId","type":"bytes32"},{"indexed":true,"internalType":"address","name":"giver","type":"address"},{"indexed":false,"internalType":"enum ISense.FeedbackType","name":"feedbackType","type":"uint8"},{"indexed":false,"internalType":"uint8","name":"rating","type":"uint8"},{"indexed":false,"internalType":"uint256","name":"timestamp","type":"uint256"}],"name":"FeedbackSubmitted","type":"event"},{"anonymous":false,"inputs":[],"name":"ModuleDisabled","type":"event"},{"anonymous":false,"inputs":[],"name":"ModuleEnabled","type":"event"},{"anonymous":false,"inputs":[{"indexed":true,"internalType":"address","name":"registry","type":"address"}],"name":"ModuleInitialized","type":"event"},{"anonymous":false,"inputs":[{"indexed":false,"internalType":"address","name":"account","type":"address"}],"name":"Paused","type":"event"},{"anonymous":false,"inputs":[{"indexed":true,"internalType":"bytes32","name":"profileId","type":"bytes32"},{"indexed":true,"internalType":"address","name":"owner","type":"address"},{"indexed":true,"internalType":"bytes32","name":"organizationId","type":"bytes32"},{"indexed":false,"internalType":"string","name":"metadata","type":"string"},{"indexed":false,"internalType":"uint256","name":"timestamp","type":"uint256"}],"name":"ProfileCreated","type":"event"},{"anonymous":false,"inputs":[{"indexed":true,"internalType":"bytes32","name":"profileId","type":"bytes32"},{"indexed":false,"internalType":"string","name":"metadata","type":"string"},{"indexed":false,"internalType":"uint256","name":"timestamp","type":"uint256"}],"name":"ProfileUpdated","type":"event"},{"anonymous":false,"inputs":[{"indexed":true,"internalType":"bytes32","name":"profileId","type":"bytes32"},{"indexed":false,"internalType":"enum ISense.VerificationLevel","name":"level","type":"uint8"},{"indexed":false,"internalType":"address","name":"verifier","type":"address"},{"indexed":false,"internalType":"uint256","name":"timestamp","type":"uint256"}],"name":"ProfileVerified","type":"event"},{"anonymous":false,"inputs":[{"indexed":true,"internalType":"bytes32","name":"profileId","type":"bytes32"},{"indexed":true,"internalType":"bytes32","name":"targetOrganizationId","type":"bytes32"},{"indexed":false,"internalType":"bytes32","name":"merkleRoot","type":"bytes32"},{"indexed":false,"internalType":"uint256","name":"timestamp","type":"uint256"}],"name":"ReputationExported","type":"event"},{"anonymous":false,"inputs":[{"indexed":true,"internalType":"bytes32","name":"profileId","type":"bytes32"},{"indexed":true,"internalType":"bytes32","name":"sourceOrganizationId","type":"bytes32"},{"indexed":false,"internalType":"uint256","name":"importedReputation","type":"uint256"},{"indexed":false,"internalType":"uint256","name":"timestamp","type":"uint256"}],"name":"ReputationImported","type":"event"},{"anonymous":false,"inputs":[{"indexed":true,"internalType":"bytes32","name":"profileId","type":"bytes32"},{"indexed":true,"internalType":"enum ISense.ReputationType","name":"repType","type":"uint8"},{"indexed":false,"internalType":"int256","name":"delta","type":"int256"},{"indexed":true,"internalType":"bytes32","name":"reason","type":"bytes32"},{"indexed":false,"internalType":"address","name":"updatedBy","type":"address"},{"indexed":false,"internalType":"uint256","name":"newValue","type":"uint256"},{"indexed":false,"internalType":"uint256","name":"timestamp","type":"uint256"}],"name":"ReputationUpdated","type":"event"},{"anonymous":false,"inputs":[{"indexed":true,"internalType":"bytes32","name":"role","type":"bytes32"},{"indexed":true,"internalType":"bytes32","name":"previousAdminRole","type":"bytes32"},{"indexed":true,"internalType":"bytes32","name":"newAdminRole","type":"bytes32"}],"name":"RoleAdminChanged","type":"event"},{"anonymous":false,"inputs":[{"indexed":true,"internalType":"bytes32","name":"role","type":"bytes32"},{"indexed":true,"internalType":"address","name":"account","type":"address"},{"indexed":true,"internalType":"address","name":"sender","type":"address"}],"name":"RoleGranted","type":"event"},{"anonymous":false,"inputs":[{"indexed":true,"internalType":"bytes32","name":"role","type":"bytes32"},{"indexed":true,"internalType":"address","name":"account","type":"address"},{"indexed":true,"internalType":"address","name":"sender","type":"address"}],"name":"RoleRevoked","type":"event"},{"anonymous":false,"inputs":[{"indexed":false,"internalType":"address","name":"account","type":"address"}],"name":"Unpaused","type":"event"},{"inputs":[],"name":"ACHIEVEMENT_GRANTER_ROLE","outputs":[{"internalType":"bytes32","name":"","type":"bytes32"}],"stateMutability":"view","type":"function"},{"inputs":[],"name":"ADMIN_ROLE","outputs":[{"internalType":"bytes32","name":"","type":"bytes32"}],"stateMutability":"view","type":"function"},{"inputs":[],"name":"DEFAULT_ADMIN_ROLE","outputs":[{"internalType":"bytes32","name":"","type":"bytes32"}],"stateMutability":"view","type":"function"},{"inputs":[],"name":"MAX_FEEDBACKS_PER_QUERY","outputs":[{"internalType":"uint256","name":"","type":"uint256"}],"stateMutability":"view","type":"function"},{"inputs":[],"name":"MAX_FEEDBACK_RATING","outputs":[{"internalType":"uint256","name":"","type":"uint256"}],"stateMutability":"view","type":"function"},{"inputs":[],"name":"MAX_REPUTATION_DELTA","outputs":[{"internalType":"uint256","name":"","type":"uint256"}],"stateMutability":"view","type":"function"},{"inputs":[],"name":"MIN_FEEDBACK_RATING","outputs":[{"internalType":"uint256","name":"","type":"uint256"}],"stateMutability":"view","type":"function"},{"inputs":[],"name":"OPERATOR_ROLE","outputs":[{"internalType":"bytes32","name":"","type":"bytes32"}],"stateMutability":"view","type":"function"},{"inputs":[],"name":"REPUTATION_MANAGER_ROLE","outputs":[{"internalType":"bytes32","name":"","type":"bytes32"}],"stateMutability":"view","type":"function"},{"inputs":[],"name":"REPUTATION_SCALE","outputs":[{"internalType":"uint256","name":"","type":"uint256"}],"stateMutability":"view","type":"function"},{"inputs":[],"name":"SENSE_ADMIN_ROLE","outputs":[{"internalType":"bytes32","name":"","type":"bytes32"}],"stateMutability":"view","type":"function"},{"inputs":[],"name":"TRUST_SCORE_SCALE","outputs":[{"internalType":"uint256","name":"","type":"uint256"}],"stateMutability":"view","type":"function"},{"inputs":[],"name":"VERIFIER_ROLE","outputs":[{"internalType":"bytes32","name":"","type":"bytes32"}],"stateMutability":"view","type":"function"},{"inputs":[{"internalType":"bytes32","name":"profileId","type":"bytes32"}],"name":"calculateTrustScore","outputs":[{"internalType":"uint256","name":"trustScore","type":"uint256"}],"stateMutability":"view","type":"function"},{"inputs":[{"internalType":"bytes32","name":"profileId","type":"bytes32"},{"internalType":"uint256","name":"baseWeight","type":"uint256"}],"name":"calculateVotingWeight","outputs":[{"internalType":"uint256","name":"weight","type":"uint256"}],"stateMutability":"view","type":"function"},{"inputs":[{"internalType":"bytes32","name":"organizationId","type":"bytes32"},{"internalType":"string","name":"metadata","type":"string"}],"name":"createProfile","outputs":[{"internalType":"bytes32","name":"profileId","type":"bytes32"}],"stateMutability":"nonpayable","type":"function"},{"inputs":[],"name":"emergencyPause","outputs":[],"stateMutability":"nonpayable","type":"function"},{"inputs":[],"name":"emergencyUnpause","outputs":[],"stateMutability":"nonpayable","type":"function"},{"inputs":[{"internalType":"bytes32","name":"profileId","type":"bytes32"}],"name":"exportReputation","outputs":[{"components":[{"internalType":"bytes32","name":"sourceProfileId","type":"bytes32"},{"internalType":"address","name":"owner","type":"address"},{"internalType":"bytes32","name":"sourceOrganizationId","type":"bytes32"},{"components":[{"internalType":"uint256","name":"experience","type":"uint256"},{"internalType":"uint256","name":"reputation","type":"uint256"},{"internalType":"uint256","name":"trust","type":"uint256"},{"internalType":"uint256","name":"lastUpdated","type":"uint256"},{"internalType":"uint256","name":"totalFeedbacks","type":"uint256"},{"internalType":"uint256","name":"positiveFeedbacks","type":"uint256"}],"internalType":"struct ISense.ReputationData","name":"reputation","type":"tuple"},{"components":[{"internalType":"bytes32","name":"achievementId","type":"bytes32"},{"internalType":"bytes32","name":"profileId","type":"bytes32"},{"internalType":"string","name":"name","type":"string"},{"internalType":"string","name":"description","type":"string"},{"internalType":"string","name":"category","type":"string"},{"internalType":"bytes","name":"data","type":"bytes"},{"internalType":"uint256","name":"earnedAt","type":"uint256"},{"internalType":"address","name":"grantedBy","type":"address"},{"internalType":"uint256","name":"points","type":"uint256"}],"internalType":"struct ISense.Achievement[]","name":"achievements","type":"tuple[]"},{"components":[{"internalType":"uint256","name":"totalFeedbacks","type":"uint256"},{"internalType":"uint256","name":"positiveFeedbacks","type":"uint256"},{"internalType":"uint256","name":"negativeFeedbacks","type":"uint256"},{"internalType":"uint256","name":"neutralFeedbacks","type":"uint256"},{"internalType":"uint256","name":"averageRating","type":"uint256"},{"internalType":"uint256","name":"trustScore","type":"uint256"}],"internalType":"struct ISense.FeedbackSummary","name":"feedbackSummary","type":"tuple"},{"internalType":"uint256","name":"exportedAt","type":"uint256"},{"internalType":"bytes32","name":"merkleRoot","type":"bytes32"}],"internalType":"struct ISense.ReputationExport","name":"exportData","type":"tuple"}],"stateMutability":"view","type":"function"},{"inputs":[{"internalType":"bytes32","name":"profileId","type":"bytes32"}],"name":"getAchievements","outputs":[{"components":[{"internalType":"bytes32","name":"achievementId","type":"bytes32"},{"internalType":"bytes32","name":"profileId","type":"bytes32"},{"internalType":"string","name":"name","type":"string"},{"internalType":"string","name":"description","type":"string"},{"internalType":"string","name":"category","type":"string"},{"internalType":"bytes","name":"data","type":"bytes"},{"internalType":"uint256","name":"earnedAt","type":"uint256"},{"internalType":"address","name":"grantedBy","type":"address"},{"internalType":"uint256","name":"points","type":"uint256"}],"internalType":"struct ISense.Achievement[]","name":"achievements","type":"tuple[]"}],"stateMutability":"view","type":"function"},{"inputs":[{"internalType":"bytes32","name":"profileId","type":"bytes32"},{"internalType":"string","name":"category","type":"string"}],"name":"getAchievementsByCategory","outputs":[{"components":[{"internalType":"bytes32","name":"achievementId","type":"bytes32"},{"internalType":"bytes32","name":"profileId","type":"bytes32"},{"internalType":"string","name":"name","type":"string"},{"internalType":"string","name":"description","type":"string"},{"internalType":"string","name":"category","type":"string"},{"internalType":"bytes","name":"data","type":"bytes"},{"internalType":"uint256","name":"earnedAt","type":"uint256"},{"internalType":"address","name":"grantedBy","type":"address"},{"internalType":"uint256","name":"points","type":"uint256"}],"internalType":"struct ISense.Achievement[]","name":"achievements","type":"tuple[]"}],"stateMutability":"view","type":"function"},{"inputs":[{"internalType":"bytes32","name":"profileId","type":"bytes32"},{"internalType":"bytes32","name":"category","type":"bytes32"}],"name":"getCategoryReputation","outputs":[{"internalType":"uint256","name":"score","type":"uint256"}],"stateMutability":"view","type":"function"},{"inputs":[{"internalType":"bytes32","name":"profileId","type":"bytes32"}],"name":"getFeedbackSummary","outputs":[{"components":[{"internalType":"uint256","name":"totalFeedbacks","type":"uint256"},{"internalType":"uint256","name":"positiveFeedbacks","type":"uint256"},{"internalType":"uint256","name":"negativeFeedbacks","type":"uint256"},{"internalType":"uint256","name":"neutralFeedbacks","type":"uint256"},{"internalType":"uint256","name":"averageRating","type":"uint256"},{"internalType":"uint256","name":"trustScore","type":"uint256"}],"internalType":"struct ISense.FeedbackSummary","name":"summary","type":"tuple"}],"stateMutability":"view","type":"function"},{"inputs":[{"internalType":"bytes32","name":"profileId","type":"bytes32"},{"internalType":"uint256","name":"offset","type":"uint256"},{"internalType":"uint256","name":"limit","type":"uint256"}],"name":"getFeedbacks","outputs":[{"components":[{"internalType":"bytes32","name":"feedbackId","type":"bytes32"},{"internalType":"bytes32","name":"targetProfileId","type":"bytes32"},{"internalType":"address","name":"giver","type":"address"},{"internalType":"enum ISense.FeedbackType","name":"feedbackType","type":"uint8"},{"internalType":"uint8","name":"rating","type":"uint8"},{"internalType":"string","name":"comment","type":"string"},{"internalType":"uint256","name":"timestamp","type":"uint256"},{"internalType":"bool","name":"verified","type":"bool"}],"internalType":"struct ISense.Feedback[]","name":"feedbacks","type":"tuple[]"}],"stateMutability":"view","type":"function"},{"inputs":[{"internalType":"bytes32","name":"profileId","type":"bytes32"}],"name":"getProfile","outputs":[{"components":[{"internalType":"bytes32","name":"profileId","type":"bytes32"},{"internalType":"address","name":"owner","type":"address"},{"internalType":"bytes32","name":"organizationId","type":"bytes32"},{"internalType":"string","name":"metadata","type":"string"},{"internalType":"uint256","name":"createdAt","type":"uint256"},{"internalType":"uint256","name":"updatedAt","type":"uint256"},{"internalType":"bool","name":"active","type":"bool"},{"internalType":"bool","name":"verified","type":"bool"}],"internalType":"struct ISense.Profile","name":"profile","type":"tuple"}],"stateMutability":"view","type":"function"},{"inputs":[{"internalType":"address","name":"owner","type":"address"},{"internalType":"bytes32","name":"organizationId","type":"bytes32"}],"name":"getProfileByOwner","outputs":[{"components":[{"internalType":"bytes32","name":"profileId","type":"bytes32"},{"internalType":"address","name":"owner","type":"address"},{"internalType":"bytes32","name":"organizationId","type":"bytes32"},{"internalType":"string","name":"metadata","type":"string"},{"internalType":"uint256","name":"createdAt","type":"uint256"},{"internalType":"uint256","name":"updatedAt","type":"uint256"},{"internalType":"bool","name":"active","type":"bool"},{"internalType":"bool","name":"verified","type":"bool"}],"internalType":"struct ISense.Profile","name":"profile","type":"tuple"}],"stateMutability":"view","type":"function"},{"inputs":[],"name":"getProfileCount","outputs":[{"internalType":"uint256","name":"count","type":"uint256"}],"stateMutability":"view","type":"function"},{"inputs":[{"internalType":"bytes32","name":"organizationId","type":"bytes32"}],"name":"getProfilesByOrganization","outputs":[{"internalType":"bytes32[]","name":"profileIds","type":"bytes32[]"}],"stateMutability":"view","type":"function"},{"inputs":[{"internalType":"bytes32","name":"profileId","type":"bytes32"}],"name":"getReputation","outputs":[{"components":[{"internalType":"uint256","name":"experience","type":"uint256"},{"internalType":"uint256","name":"reputation","type":"uint256"},{"internalType":"uint256","name":"trust","type":"uint256"},{"internalType":"uint256","name":"lastUpdated","type":"uint256"},{"internalType":"uint256","name":"totalFeedbacks","type":"uint256"},{"internalType":"uint256","name":"positiveFeedbacks","type":"uint256"}],"internalType":"struct ISense.ReputationData","name":"reputation","type":"tuple"}],"stateMutability":"view","type":"function"},{"inputs":[{"internalType":"bytes32","name":"profileId","type":"bytes32"}],"name":"getReputationHistory","outputs":[{"components":[{"internalType":"bytes32","name":"profileId","type":"bytes32"},{"internalType":"enum ISense.ReputationType","name":"repType","type":"uint8"},{"internalType":"int256","name":"delta","type":"int256"},{"internalType":"bytes32","name":"reason","type":"bytes32"},{"internalType":"address","name":"updatedBy","type":"address"},{"internalType":"uint256","name":"timestamp","type":"uint256"},{"internalType":"uint256","name":"blockNumber","type":"uint256"}],"internalType":"struct ISense.ReputationEvent[]","name":"events","type":"tuple[]"}],"stateMutability":"view","type":"function"},{"inputs":[{"internalType":"bytes32","name":"role","type":"bytes32"}],"name":"getRoleAdmin","outputs":[{"internalType":"bytes32","name":"","type":"bytes32"}],"stateMutability":"view","type":"function"},{"inputs":[{"internalType":"bytes32","name":"organizationId","type":"bytes32"},{"internalType":"uint256","name":"limit","type":"uint256"}],"name":"getTopProfiles","outputs":[{"internalType":"bytes32[]","name":"profileIds","type":"bytes32[]"}],"stateMutability":"view","type":"function"},{"inputs":[{"internalType":"bytes32","name":"profileId","type":"bytes32"},{"internalType":"bytes32","name":"achievementId","type":"bytes32"},{"internalType":"string","name":"name","type":"string"},{"internalType":"string","name":"description","type":"string"},{"internalType":"string","name":"category","type":"string"},{"internalType":"uint256","name":"points","type":"uint256"},{"internalType":"bytes","name":"data","type":"bytes"}],"name":"grantAchievement","outputs":[],"stateMutability":"nonpayable","type":"function"},{"inputs":[{"internalType":"bytes32","name":"role","type":"bytes32"},{"internalType":"address","name":"account","type":"address"}],"name":"grantRole","outputs":[],"stateMutability":"nonpayable","type":"function"},{"inputs":[{"internalType":"bytes32","name":"profileId","type":"bytes32"},{"internalType":"bytes32","name":"achievementId","type":"bytes32"}],"name":"hasAchievement","outputs":[{"internalType":"bool","name":"","type":"bool"}],"stateMutability":"view","type":"function"},{"inputs":[{"internalType":"bytes32","name":"role","type":"bytes32"},{"internalType":"address","name":"account","type":"address"}],"name":"hasRole","outputs":[{"internalType":"bool","name":"","type":"bool"}],"stateMutability":"view","type":"function"},{"inputs":[{"internalType":"bytes32","name":"profileId","type":"bytes32"},{"components":[{"internalType":"bytes32","name":"sourceProfileId","type":"bytes32"},{"internalType":"address","name":"owner","type":"address"},{"internalType":"bytes32","name":"sourceOrganizationId","type":"bytes32"},{"components":[{"internalType":"uint256","name":"experience","type":"uint256"},{"internalType":"uint256","name":"reputation","type":"uint256"},{"internalType":"uint256","name":"trust","type":"uint256"},{"internalType":"uint256","name":"lastUpdated","type":"uint256"},{"internalType":"uint256","name":"totalFeedbacks","type":"uint256"},{"internalType":"uint256","name":"positiveFeedbacks","type":"uint256"}],"internalType":"struct ISense.ReputationData","name":"reputation","type":"tuple"},{"components":[{"internalType":"bytes32","name":"achievementId","type":"bytes32"},{"internalType":"bytes32","name":"profileId","type":"bytes32"},{"internalType":"string","name":"name","type":"string"},{"internalType":"string","name":"description","type":"string"},{"internalType":"string","name":"category","type":"string"},{"internalType":"bytes","name":"data","type":"bytes"},{"internalType":"uint256","name":"earnedAt","type":"uint256"},{"internalType":"address","name":"grantedBy","type":"address"},{"internalType":"uint256","name":"points","type":"uint256"}],"internalType":"struct ISense.Achievement[]","name":"achievements","type":"tuple[]"},{"components":[{"internalType":"uint256","name":"totalFeedbacks","type":"uint256"},{"internalType":"uint256","name":"positiveFeedbacks","type":"uint256"},{"internalType":"uint256","name":"negativeFeedbacks","type":"uint256"},{"internalType":"uint256","name":"neutralFeedbacks","type":"uint256"},{"internalType":"uint256","name":"averageRating","type":"uint256"},{"internalType":"uint256","name":"trustScore","type":"uint256"}],"internalType":"struct ISense.FeedbackSummary","name":"feedbackSummary","type":"tuple"},{"internalType":"uint256","name":"exportedAt","type":"uint256"},{"internalType":"bytes32","name":"merkleRoot","type":"bytes32"}],"internalType":"struct ISense.ReputationExport","name":"exportData","type":"tuple"},{"internalType":"bytes","name":"proof","type":"bytes"}],"name":"importReputation","outputs":[],"stateMutability":"nonpayable","type":"function"},{"inputs":[{"internalType":"address","name":"registryAddress","type":"address"}],"name":"initialize","outputs":[],"stateMutability":"nonpayable","type":"function"},{"inputs":[],"name":"isInitialized","outputs":[{"internalType":"bool","name":"","type":"bool"}],"stateMutability":"view","type":"function"},{"inputs":[],"name":"moduleId","outputs":[{"internalType":"bytes32","name":"","type":"bytes32"}],"stateMutability":"pure","type":"function"},{"inputs":[],"name":"onModuleDisabled","outputs":[],"stateMutability":"nonpayable","type":"function"},{"inputs":[],"name":"onModuleEnabled","outputs":[],"stateMutability":"nonpayable","type":"function"},{"inputs":[],"name":"pause","outputs":[],"stateMutability":"nonpayable","type":"function"},{"inputs":[],"name":"paused","outputs":[{"internalType":"bool","name":"","type":"bool"}],"stateMutability":"view","type":"function"},{"inputs":[{"internalType":"bytes32","name":"profileId","type":"bytes32"}],"name":"profileExists","outputs":[{"internalType":"bool","name":"exists","type":"bool"}],"stateMutability":"view","type":"function"},{"inputs":[],"name":"registry","outputs":[{"internalType":"address","name":"","type":"address"}],"stateMutability":"view","type":"function"},{"inputs":[{"internalType":"bytes32","name":"role","type":"bytes32"},{"internalType":"address","name":"account","type":"address"}],"name":"renounceRole","outputs":[],"stateMutability":"nonpayable","type":"function"},{"inputs":[{"internalType":"bytes32","name":"role","type":"bytes32"},{"internalType":"address","name":"account","type":"address"}],"name":"revokeRole","outputs":[],"stateMutability":"nonpayable","type":"function"},{"inputs":[{"internalType":"bytes32","name":"targetProfileId","type":"bytes32"},{"internalType":"enum ISense.FeedbackType","name":"feedbackType","type":"uint8"},{"internalType":"uint8","name":"rating","type":"uint8"},{"internalType":"string","name":"comment","type":"string"}],"name":"submitFeedback","outputs":[{"internalType":"bytes32","name":"feedbackId","type":"bytes32"}],"stateMutability":"nonpayable","type":"function"},{"inputs":[{"internalType":"bytes4","name":"interfaceId","type":"bytes4"}],"name":"supportsInterface","outputs":[{"internalType":"bool","name":"","type":"bool"}],"stateMutability":"view","type":"function"},{"inputs":[],"name":"unpause","outputs":[],"stateMutability":"nonpayable","type":"function"},{"inputs":[{"internalType":"bytes32","name":"profileId","type":"bytes32"},{"internalType":"bytes32","name":"category","type":"bytes32"},{"internalType":"int256","name":"delta","type":"int256"},{"internalType":"bytes32","name":"reason","type":"bytes32"}],"name":"updateCategoryReputation","outputs":[],"stateMutability":"nonpayable","type":"function"},{"inputs":[{"internalType":"bytes32","name":"profileId","type":"bytes32"},{"internalType":"string","name":"metadata","type":"string"}],"name":"updateProfile","outputs":[],"stateMutability":"nonpayable","type":"function"},{"inputs":[{"internalType":"bytes32","name":"profileId","type":"bytes32"},{"internalType":"enum ISense.ReputationType","name":"repType","type":"uint8"},{"internalType":"int256","name":"delta","type":"int256"},{"internalType":"bytes32","name":"reason","type":"bytes32"}],"name":"updateReputation","outputs":[],"stateMutability":"nonpayable","type":"function"},{"inputs":[{"internalType":"bytes32","name":"profileId","type":"bytes32"},{"internalType":"enum ISense.VerificationLevel","name":"level","type":"uint8"}],"name":"verifyProfile","outputs":[],"stateMutability":"nonpayable","type":"function"},{"inputs":[],"name":"version","outputs":[{"internalType":"string","name":"","type":"string"}],"stateMutability":"view","type":"function"}],"evm":{"bytecode":{"linkReferences":{},"object":"608034620003cd576040908082016001600160401b03811182821017620003b7578252600581526020809101640312e302e360dc1b815260ff1990600190828254168255816002556004548281811c91168015620003ac575b858210146200039657601f811162000364575b50516001600160d81b031916600a17600455600080805280845284812033825284528490205460ff939084161562000329575b7fa49807205ce4d355092ef5a8a18f56e8913cf4a201fbe287825b095693c217758060005260008252856000203360005282528486600020541615620002ec575b507f1d0f12d082b3e5338f8dab310a38db3645f19456d3e591618fb6ace837c5da398060005260008252856000203360005282528486600020541615620002af575b507fa5df84d05f94c8e589750a34f9631c6df369aabc0811ccbbd233872ff60aec66806000526000825285600020336000528252848660002054161562000272575b507f6fa27ac1cdd2e2eda2fb653a3d18c7b6ffe16599817716f8819988196f8ee95e806000526000825285600020336000528252848660002054161562000235575b507f0ce23c3e399818cfee81a7ab0880f714e53d7672b08df0fa62f2843416e1ea099384600052600082528560002033600052825285600020541615620001f6575b84516150959081620003d38239f35b83600052600081528460002090336000525283600020918254161790553390339060008051602062005468833981519152600080a438808080620001e7565b8060005260008252856000203360005282528560002083858254161790553390339060008051602062005468833981519152600080a438620001a5565b8060005260008252856000203360005282528560002083858254161790553390339060008051602062005468833981519152600080a43862000163565b8060005260008252856000203360005282528560002083858254161790553390339060008051602062005468833981519152600080a43862000121565b8060005260008252856000203360005282528560002083858254161790553390339060008051602062005468833981519152600080a438620000df565b60008052600081528460002033600052815284600020828482541617905533336000600080516020620054688339815191528180a46200009e565b600460005282601f86600020920160051c8201915b828110620003895750506200006b565b6000815501839062000379565b634e487b7160e01b600052602260045260246000fd5b90607f169062000058565b634e487b7160e01b600052604160045260246000fd5b600080fdfe608080604052600436101561001357600080fd5b60003560e01c90816301ffc9a7146139c55750806302940a821461397057806302b9c2b21461395457806309bd356f1461377a57806315943f861461375c578063173e566014613474578063182241bb146132bd578063248a9ca31461328e5780632d934ea4146132535780632f2ff15d146131b2578063337efca514612fb557806336568abe14612f235780633697611a14612f05578063392e53cd14612edf5780633f4ba83a14612e795780634a4e3bd514612dcf57806351858e2714612d9857806354fd4d5014612cb657806356e521c21461218357806359a43a5014612bce5780635c975abb14612bab5780635e8c6876146127f65780635fbcc31614612703578063627db022146126e75780636e1a514c1461225657806373290672146121ec57806375b238fc146121b15780637b10399914612188578063823ced41146121835780638456cb591461211c5780638b158f98146120f35780638dfcd170146118fc57806390ba8f041461169857806391d148541461164b57806393e9701b146116125780639aec449f146115f1578063a01a5f7f14611590578063a1308f2714611555578063a217fddf14611539578063a3cdb785146114df578063a8453e3714610d73578063aa7318aa14610d1d578063ab50a46814610d01578063b50991b414610c3f578063be152b6114610c22578063c4d66de814610828578063d14519d214610786578063d547741f14610745578063e3117249146105db578063e7705db6146105a0578063eb0fd86a14610565578063ebf8a3e6146104eb578063f2dac3c614610369578063f5b541a61461032e578063f7f032df146103085763fb7b56971461028757600080fd5b34610303576020366003190112610303576004356000818152600560205260409020600101546001600160a01b0316156102eb57600052600d6020526102e76102d360406000206148d5565b604051918291602083526020830190613bde565b0390f35b60249060405190630acbeacf60e31b82526004820152fd5b600080fd5b34610303576102e761032261031c36613a18565b90614c39565b60405191829182613e15565b346103035760003660031901126103035760206040517f97667070c54ef182b0f5858b034beac1b6f3089aa2d3188bb1e8929f4fa9b9298152f35b346103035760208060031936011261030357600435908160005260059081815260018060a01b039160019383856040600020015416156102eb5792849193600052600b835260406000209384546103bf81613dfe565b916103cd6040519384613aed565b81835260009687528587208684019791885b8484106104745750505050506040519380850191818652518092526040850195926000905b8382106104115786880387f35b90919293948360e082998851805182528381015161042e81613d1e565b82850152604081810151908301526060808201519083015260808082015187169083015260a0808201519083015260c09081015190820152019896019493920190610404565b96600789829b9960409b98999b5161048b81613a4a565b8654815260ff858801541661049f81613d1e565b8382015260028701546040820152600387015460608201528c60048801541660808201528587015460a0820152600687015460c0820152815201930193019291989698979594976103df565b34610303576000366003190112610303576003546001600160a01b03811633036105535760a01c60ff1615610541577fa866f3901ec84758a10f30e8953c3818eef73da93dfa46cb6aa5b726fb65813f600080a1005b604051633165f6e960e21b8152600490fd5b6040516310f5403960e31b8152600490fd5b346103035760003660031901126103035760206040517fa5df84d05f94c8e589750a34f9631c6df369aabc0811ccbbd233872ff60aec668152f35b346103035760003660031901126103035760206040517f0ce23c3e399818cfee81a7ab0880f714e53d7672b08df0fa62f2843416e1ea098152f35b3461030357608036600319011261030357606435600435604435602435610600613e87565b60ff60035460a01c161561054157610616614503565b6000838152600560209081526040909120600101546001600160a01b03161561072c57917f78779947684eeff96b2dc044961f47dee102b28575d1357693322a57eb479d03916106f08594600396600052600c8152604060002083600052815260406000205484600081128061071b575b1561070c5750506000925b86600052600c8252604060002090600052815282604060002055600b604051916106bb83613a4a565b87835288818401528560408401528960608401523360808401524260a08401524360c08401528760005252604060002061473d565b60408051928352336020840152820152426060820152608090a4005b61071591614721565b92610692565b508161072682614710565b11610687565b604051630acbeacf60e31b815260048101859052602490fd5b3461030357604036600319011261030357610784600435610764613cc1565b9080600052600060205261077f6001604060002001546141ba565b6142c4565b005b34610303576020366003190112610303576004356107a26147e0565b506000818152600560205260409020600101546001600160a01b0316156102eb57600052600a60205260c0604060002080549060018101549060028101546003820154906005600484015493015493604051956107fe87613a81565b8652602086015260408501526060840152608083015260a08201526108266040518092613e50565bf35b346103035760208060031936011261030357610842613cd7565b906003549160ff91828460a01c16610c10576001600160a01b03918216938415610bfe576001600160a81b0319168417600160a01b176003557fa49807205ce4d355092ef5a8a18f56e8913cf4a201fbe287825b095693c21775600081815280835260408082208783528452902054841615610bbf575b507f97667070c54ef182b0f5858b034beac1b6f3089aa2d3188bb1e8929f4fa9b92980600052600082526040600020856000528252836040600020541615610b80575b50604051637b10399960e01b8152918183600481305afa928315610b7457600093610b45575b506000805160206150408339815191529081600052600083526040600020931692836000528252836040600020541615610b06575b507fa5df84d05f94c8e589750a34f9631c6df369aabc0811ccbbd233872ff60aec6680600052600082526040600020836000528252836040600020541615610ac7575b507f6fa27ac1cdd2e2eda2fb653a3d18c7b6ffe16599817716f8819988196f8ee95e80600052600082526040600020836000528252836040600020541615610a88575b507f0ce23c3e399818cfee81a7ab0880f714e53d7672b08df0fa62f2843416e1ea0992836000526000825260406000208360005282526040600020541615610a48575b837f27b541a16df0902e262f34789782092ab25125513b8ed73608e802951771b928600080a2005b826000526000815260406000209082600052526040600020600160ff198254161790553391600080516020615020833981519152600080a4818080610a20565b806000526000825260406000208360005282526040600020600160ff19825416179055823391600080516020615020833981519152600080a4846109dd565b806000526000825260406000208360005282526040600020600160ff19825416179055823391600080516020615020833981519152600080a48461099a565b806000526000825260406000208360005282526040600020600160ff19825416179055823391600080516020615020833981519152600080a484610957565b610b66919350823d8411610b6d575b610b5e8183613aed565b810190614547565b9185610922565b503d610b54565b6040513d6000823e3d90fd5b806000526000825260406000208560005282526040600020600160ff19825416179055843391600080516020615020833981519152600080a4846108fc565b806000526000825260406000208560005282526040600020600160ff19825416179055843391600080516020615020833981519152600080a4846108b9565b604051637bfd2e8360e01b8152600490fd5b604051637396742f60e11b8152600490fd5b346103035760003660031901126103035760206040516103e88152f35b3461030357602036600319011261030357600435610c5b6146d2565b5080600052600560205260406000209060405191610c7883613a65565b8054835260018060a01b039060ff600683600184015416926020870193845260028101546040880152604051610cbc81610cb5816003860161446d565b0382613aed565b606088015260048101546080880152600581015460a08801520154818116151560c087015260081c16151560e08501525116156102eb57604051806102e78482613d3e565b3461030357600036600319011261030357602060405160058152f35b34610303576000366003190112610303576003546001600160a01b03811633036105535760a01c60ff1615610541577f6dff2fe8fbb5b23bf0583bf5b2157ff62ca7e27f2fb4f404914cd0c205ced5cc600080a1005b3461030357608036600319011261030357600460243510156103035760ff6044351660443503610303576064356001600160401b03811161030357610dbc903690600401613b0e565b60ff60035460a01c161561054157610dd2614503565b6004356000908152600560205260408120600101546001600160a01b031680156114c65733146114a057600160ff60443516108015611491575b61147457600435600052601260205260406000203360005260205260ff60406000205416600014611203576004356000526010602052604060002060005b81548110156111fa57610e5d818361493f565b50600201546001600160a01b03163314610e7f57610e7a90614566565b610e4a565b9150610e9b610e8e838361493f565b506002602435910161495b565b610ec6610ea8838361493f565b50600201805460ff60a81b191660443560a81b60ff60a81b16179055565b610ed0828261493f565b5083516001600160401b0381116111e457610efb81610ef26003850154614433565b60038501614575565b6020601f8211600114611173579080600392610f4497600092611168575b50508160011b9160001990841b1c1916179101555b610f38828261493f565b5060044291015561493f565b50545b6004356000526010602052604060002090601160205260406000208254926000906000806000926000905b8882106110a45750508685556001850184905560028501556003840155841561109b578060648102046064148115171561107557846064610fb39202614be7565b935b60048301948555801561108b5760648202948286046064148315171561107557610fef606491610fe784602099614be7565b905490614338565b0460058401555b600435600052600a85526005604060002093015460028401556004830155600582015560034291015560405161102d602435613d1e565b602435815260ff60443516838201524260408201523390827f940ec28121d8ccd05b4d980bcb62a62f5a62e59ecca3d8ffe442d91f7d16f95d606060043593a4604051908152f35b634e487b7160e01b600052601160045260246000fd5b6020945060006005840155610ff6565b50600093610fb5565b90936110b0858361493f565b50956002809701549660ff8860a01c166110c981613d1e565b806110fa5750506110f49160ff6110e26110ee93614566565b985b60a81c169061434b565b94614566565b90610f72565b6111078199969399613d1e565b600181036111295750506110f49160ff6111236110ee93614566565b956110e4565b61113581969396613d1e565b1461114a575b6110f49160ff6110ee926110e4565b936110f49160ff61115d6110ee93614566565b96925050915061113b565b015190508780610f19565b6003830160005260206000209560005b601f19841681106111cc575091610f449660019260039483601f198116106111b4575b505050811b01910155610f2e565b015160001983861b60f8161c191690558780806111a6565b82820151885560019097019660209283019201611183565b634e487b7160e01b600052604160045260246000fd5b50509050610f47565b5060155461121081614566565b601555604051602081019160043583523360601b604083015242605483015260748201526074815261124181613a9c565b519020906040519061125282613a65565b828252600435602083015233604083015261126e602435613d1e565b602435606083015260ff60443516608083015260a08201524260c0820152600060e0820152600435600052601060205260406000208054600160401b8110156111e4576112c09160018201815561493f565b61145e57815181556020820151600182015561132d6002820160018060a01b036040850151166001600160601b0360a01b82541617815561130e606085015161130881613d1e565b8261495b565b6080840151815460ff60a81b191660a89190911b60ff60a81b16179055565b60a08201518051906001600160401b0382116111e45761135d826113546003860154614433565b60038601614575565b602090601f83116001146113e957918060e094926005946000926113de575b50508160011b916000199060031b1c19161760038201555b60c084015160048201550191015115159060ff199160ff83835416911617905560043560005260126020526040600020336000526020526001604060002091825416179055610f47565b01519050878061137c565b906003840160005260206000209160005b601f198516811061144657509260e0949260019260059583601f1981161061142d575b505050811b016003820155611394565b015160001960f88460031b161c1916905587808061141d565b919260206001819286850151815501940192016113fa565b634e487b7160e01b600052600060045260246000fd5b6040516364df3ea760e01b815260443560ff166004820152602490fd5b50600560ff6044351611610e0c565b604051632dcec2ed60e21b815233600480830191909152356024820152604490fd5b0390fd5b6024604051630acbeacf60e31b81526004356004820152fd5b34610303576114ed36613a18565b6000828152600560205260409020600101549091906001600160a01b0316156102eb57600052600e602052604060002090600052602052602060ff604060002054166040519015158152f35b3461030357600036600319011261030357602060405160008152f35b346103035760003660031901126103035760206040517fda774a9a6475b94924a168725d00b478d90cbf28e9176d635f3dab48a3a915088152f35b34610303576020366003190112610303576004356115ac6147e0565b506000818152600560205260409020600101546001600160a01b0316156102eb57600052601160205260c06115e4604060002061497f565b6108266040518092613e50565b3461030357602061160a61160436613a18565b90614e97565b604051908152f35b34610303576020366003190112610303576004356000526005602052602060018060a01b03600160406000200154161515604051908152f35b3461030357604036600319011261030357611664613cc1565b600435600052600060205260406000209060018060a01b0316600052602052602060ff604060002054166040519015158152f35b346103035760208060031936011261030357600435600060e06040516116bd81613a65565b82815282858201528260408201526116d36147e0565b6060820152606060808201526116e76147e0565b60a082015260c0810183905201526000818152600583526040902060018101546001600160a01b039190821690811561072c5733821415806118cb575b6118ac5783600052600a85526040600020600d8652604060002090601187526040600020918154600183015489898860028701546003880154976004810154906005015490604051996117768b613a81565b888b5287878c01528360408c015260608b015260808a015260a089015260405194859485019642936117d995899492909160b496949286526001600160601b03199060601b16602086015260348501526054840152607483015260948201520190565b03601f19810182526117eb9082613aed565b5190209360020154906040519761180189613a65565b88528888019586526040880191825260608801928352611820906148d5565b92608088019384526118319061497f565b9560a0880196875260c088019542875260e08901958652604051998a99818b5251908a015251166040880152516060870152516080860161187191613e50565b51916102409283610140870152610260860161188c91613bde565b9351610160860161189c91613e50565b5161022085015251908301520390f35b6040516379f18c8760e11b815260048101859052336024820152604490fd5b5060008051602061504083398151915260005260008552604060002033600052855260ff6040600020541615611724565b346103035760e0366003190112610303576044356001600160401b0381116103035761192c903690600401613b0e565b6064356001600160401b0381116103035761194b903690600401613b0e565b6084356001600160401b0381116103035761196a903690600401613b0e565b9060c4356001600160401b0381116103035761198a903690600401613b0e565b3360009081527f4de34185e10013fbfe1a860075230346604c2105e70cecbdcd54936cc1a12a4960205260409020547f6fa27ac1cdd2e2eda2fb653a3d18c7b6ffe16599817716f8819988196f8ee95e9060ff1615611f62575060ff60035460a01c1615610541576119fa614503565b6004356000908152600560205260409020600101546001600160a01b0316156114c657600435600052600e602052604060002060243560005260205260ff60406000205416611f415760405191611a5083613a2e565b60243583526004356020840152846040840152606083015282608083015260a08201524260c08201523360e082015260a435610100820152600435600052600d60205260406000208054600160401b8110156111e457611ab591600182018155614812565b91909161145e57805182556020810151600183015560408101518051906001600160401b0382116111e4578190611afc82611af36002880154614433565b60028801614575565b602090601f8311600114611ecf57600092611ec4575b50508160011b916000199060031b1c19161760028301555b60608101518051906001600160401b0382116111e4578190611b5c82611b536003880154614433565b60038801614575565b602090601f8311600114611e5257600092611e47575b50508160011b916000199060031b1c19161760038301555b60808101518051906001600160401b0382116111e4578190611bbc82611bb36004880154614433565b60048801614575565b602090601f8311600114611dd557600092611dca575b50508160011b916000199060031b1c19161760048301555b60a08101518051906001600160401b0382116111e457611c1a82611c116005870154614433565b60058701614575565b602090601f8311600114611d545791806008949261010094600092611d49575b50508160011b916000199060031b1c19161760058501555b60c081015160068501556007840160018060a01b0360e0830151166001600160601b0360a01b8254161790550151910155600435600052600e60205260406000206024356000526020526040600020600160ff1982541617905560208151910120600052600f602052611ccb6024356040600020614661565b50600435600052600a6020526040600020611ce960a435825461434b565b8155600342910155611d0660405191608083526080830190613bb9565b60a43560208301523360408301524260608301527f662e17c0376d55e9c8648d13854158519f3a5d03326e4ef01f9b574fbc22c7a26024359280600435930390a3005b015190508880611c3a565b906005850160005260206000209160005b601f1985168110611db2575092600894926001926101009583601f19811610611d99575b505050811b016005850155611c52565b015160001960f88460031b161c19169055888080611d89565b91926020600181928685015181550194019201611d65565b015190508680611bd2565b9250600485016000526020600020906000935b601f1984168510611e2c576001945083601f19811610611e13575b505050811b016004830155611bea565b015160001960f88460031b161c19169055868080611e03565b81810151835560209485019460019093019290910190611de8565b015190508680611b72565b9250600385016000526020600020906000935b601f1984168510611ea9576001945083601f19811610611e90575b505050811b016003830155611b8a565b015160001960f88460031b161c19169055868080611e80565b81810151835560209485019460019093019290910190611e65565b015190508680611b12565b9250600285016000526020600020906000935b601f1984168510611f26576001945083601f19811610611f0d575b505050811b016002830155611b2a565b015160001960f88460031b161c19169055868080611efd565b81810151835560209485019460019093019290910190611ee2565b60446040516385f4287160e01b815260043560048201526024356024820152fd5b611f6b33614369565b60405191611f7883613ad2565b60428352602083019060603683378351156120dd576030825383516001908110156120dd57607860218601536041905b80821161209957505061205557604861202692612035926114c29560405195869376020b1b1b2b9b9a1b7b73a3937b61d1030b1b1b7bab73a1604d1b6020860152611ffd815180926020603789019101613b96565b8401917001034b99036b4b9b9b4b733903937b6329607d1b603784015251809386840190613b96565b01036028810184520182613aed565b60405162461bcd60e51b8152602060048201529182916024830190613bb9565b606460405162461bcd60e51b815260206004820152602060248201527f537472696e67733a20686578206c656e67746820696e73756666696369656e746044820152fd5b9091600f811660108110156120dd576f181899199a1a9b1b9c1cb0b131b232b360811b901a6120c88488614358565b5360041c918015611075576000190190611fa8565b634e487b7160e01b600052603260045260246000fd5b346103035760003660031901126103035760206040516000805160206150408339815191528152f35b3461030357600036600319011261030357612135614075565b60ff60035460a01c16156105415761214b614503565b600160ff19815416176001557f62e78cea01bee320cd4e420270b5ea74000d11b0c9f74754ebdbfc544b05a2586020604051338152a1005b613d01565b34610303576000366003190112610303576003546040516001600160a01b039091168152602090f35b346103035760003660031901126103035760206040517fa49807205ce4d355092ef5a8a18f56e8913cf4a201fbe287825b095693c217758152f35b34610303576020806003193601126103035760043560005260098152604060002090604051908181845491828152019360005281600020916000905b82821061223f576102e78561032281890382613aed565b835486529485019460019384019390910190612228565b346103035760031960603682011261030357600435906001600160401b0360243511610303576102409060243536030112610303576040519061229882613a65565b6024356004013582526122ae6024803501613ced565b60208301526044602435013560408301526122ce36606460243501613dae565b916060810192835261012460243501356001600160401b038111610303573660238260243501011215610303576004816024350101359061230e82613dfe565b9161231c6040519384613aed565b80835260208301913660248360051b838235010101116103035760248181350101925b60248360051b83823501010184106125c75750505050608082015261236a3661014460243501613dae565b60a082015260c081016102046024350135815260e0820190610224602435013582526044356001600160401b038111610303576123ab903690600401613b0e565b5060ff60035460a01c1615610541576123c2614503565b6000848152600560205260409020600101546001600160a01b039190821680156125ae5733141580612575575b6125565761246484519260208601511661245688518051946040602083015192015190519160405196879560208701998a9492909160b496949286526001600160601b03199060601b16602086015260348501526054840152607483015260948201520190565b03601f198101835282613aed565b51902090510361253d5781600052600a60205260406000209083515191603292838102908082048514901517156110755760646124a39104825461434b565b815560208551015183810290808204851490151715611075576124ce6064600184019204825461434b565b90556040855101518381029381850414901517156110755760408092827fcfc0cb7b9a928947309beb41580a0d9e4a59efa79a6731a5cc21f258445da0f19561252160646002602097019204825461434b565b90556003429101550151945101518151908152426020820152a3005b604051632957e48560e11b815260048101839052602490fd5b6040516379f18c8760e11b815260048101869052336024820152604490fd5b503360009081527f1b48dd06086c0bf876638715267caaecbd3d1847303776b263da6e5dd0e2b1db602052604090205460ff16156123ef565b604051630acbeacf60e31b815260048101879052602490fd5b83356001600160401b0381116103035782602435010190610120602319833603011261030357604051916125fa83613a2e565b602481013583526044810135602084015260648101356001600160401b0381116103035761262e9060243691840101613b0e565b604084015260848101356001600160401b038111610303576126569060243691840101613b0e565b606084015260a48101356001600160401b0381116103035761267e9060243691840101613b0e565b608084015260c4810135916001600160401b03831161030357602493610124602094936126b18695883691840101613b0e565b60a084015260e481013560c08401526126cd6101048201613ced565b60e08401520135610100820152815201940193905061233f565b3461030357600036600319011261030357602060405160648152f35b346103035760403660031901126103035761271c613cd7565b6127246146d2565b5060018060a01b03809116600052600660205260406000206024356000526020526040600020549081156127dd576102e791600052600560205260ff600660406000206040519361277485613a65565b815485526001820154166020850152600281015460408501526040516127a181610cb5816003860161446d565b606085015260048101546080850152600581015460a08501520154818116151560c084015260081c16151560e082015260405191829182613d3e565b604051630acbeacf60e31b815260048101839052602490fd5b346103035761280436613b64565b9060035460ff8160a01c16156105415761281c614503565b6040516385acd64160e01b81527fbdded29a54e6a5d6169bedea55373b06f57e35d7b0f67ac187565b435e2cc94360048201526001600160a01b03916020908290602490829086165afa908115610b7457600091612b8c575b50168015612b7357602060249160405192838092633bf0dc0160e21b82528660048301525afa908115610b7457600091612b38575b5015612b2057336000526006602052604060002081600052602052604060002054612b00576014546128db81614566565b60145560405160208101913360601b835283603483015242605483015260748201526074815261290a81613a9c565b5190209081600052600560205260406000209282845560018401336001600160601b0360a01b8254161790558160028501558051936001600160401b0385116111e45784612961602096610ef26003850154614433565b85601f8211600114612a9457908060069392600091612a89575b508160011b916000199060031b1c19161760038201555b42600482015542600582015501600161ffff1982541617905582600052600a845260006005604082208281556103e8600182015582600282015542600382015582600482015501556011845260006005604082208281558260018201558260028201558260038201558260048201550155612a0c836145c9565b508160005260098452612a23836040600020614661565b503360005260068452604060002082600052845282604060002055827fc06558701f72642f7742aff51ebf20b410ffe7496992707dc6a4e2bae713e7c4612a7560405193604085526040850190613bb9565b9242878201528033940390a4604051908152f35b90508401518861297b565b601f1982169060038401600052876000209160005b818110612ae957509183916006959460019410612ad0575b5050811b016003820155612992565b86015160001960f88460031b161c191690558880612ac1565b91928960018192868a015181550194019201612aa9565b604051631f120a6960e01b81523360048201526024810191909152604490fd5b6024906040519063f708dfa760e01b82526004820152fd5b90506020813d602011612b6b575b81612b5360209383613aed565b810103126103035751801515810361030357836128aa565b3d9150612b46565b60405163f708dfa760e01b815260048101839052602490fd5b612ba5915060203d602011610b6d57610b5e8183613aed565b84612875565b3461030357600036600319011261030357602060ff600154166040519015158152f35b346103035760608060031936011261030357612bf16044356024356004356149d2565b604051906020808301818452825180915260408401918060408360051b8701019401926000965b838810612c255786860387f35b90919293948380600192603f198a8203018652885190815181528282015183820152848060a01b03604083015116604082015285820151612c6581613d1e565b86820152608060ff81840151169082015260e080612c9360a080860151906101008091870152850190613bb9565b9360c0808201519085015201511515910152970193019701969093929193612c18565b34610303576000366003190112610303576040516000600454612cd881614433565b80845290600190818116908115612d715750600114612d16575b6102e784612d0281860382613aed565b604051918291602083526020830190613bb9565b6004600090815292507f8a35acfbc15ff81a39ae7d344fd709f28e8600b4aa8c65c6b64bfe7fe36bd19b5b828410612d59575050508101602001612d0282612cf2565b80546020858701810191909152909301928101612d41565b60ff191660208087019190915292151560051b85019092019250612d029150839050612cf2565b34610303576000366003190112610303576003546001600160a01b03811633036105535760a01c60ff16156105415761214b614503565b34610303576000366003190112610303576003546001600160a01b03811633036105535760a01c60ff16156105415760015460ff811615612e3d5760ff19166001557f5db9ee0a495bf2e6ff9c91a7834c1ba4fdd244a5e8aa4e537bd38aeae4b073aa6020604051338152a1005b60405162461bcd60e51b815260206004820152601460248201527314185d5cd8589b194e881b9bdd081c185d5cd95960621b6044820152606490fd5b3461030357600036600319011261030357612e92614075565b60ff60035460a01c16156105415760015460ff811615612e3d5760ff19166001557f5db9ee0a495bf2e6ff9c91a7834c1ba4fdd244a5e8aa4e537bd38aeae4b073aa6020604051338152a1005b3461030357600036600319011261030357602060ff60035460a01c166040519015158152f35b34610303576000366003190112610303576020600754604051908152f35b3461030357604036600319011261030357612f3c613cc1565b336001600160a01b03821603612f5857610784906004356142c4565b60405162461bcd60e51b815260206004820152602f60248201527f416363657373436f6e74726f6c3a2063616e206f6e6c792072656e6f756e636560448201526e103937b632b9903337b91039b2b63360891b6064820152608490fd5b346103035760803660031901126103035760043560243560048110156103035760643591604435612fe4613e87565b60ff60035460a01c161561054157612ffa614503565b6000828152600560205260409020600101546001600160a01b0316156127dd57612710811380156131a6575b61318e577f78779947684eeff96b2dc044961f47dee102b28575d1357693322a57eb479d039082600052600a6020526040600020600061306586613d1e565b85613108575060008212806130f6575b156130e457600081555b8054905b6003429101556130db60405161309881613a4a565b8581526130a487613d1e565b8660208201528360408201528760608201523360808201524260a08201524360c082015285600052600b602052604060002061473d565b6106f085613d1e565b6130ef828254614721565b815561307f565b5061310082614710565b815410613075565b61311186613d1e565b6001860361315d575060018101600083128061314b575b1561313957600081555b5490613083565b613144838254614721565b8155613132565b5061315583614710565b815410613128565b9061316786613d1e565b6002860361308357905060028101600083128061314b571561313957600081555490613083565b6024906040519063277ed4a360e21b82526004820152fd5b5061270f198112613026565b34610303576040366003190112610303576004356131ce613cc1565b8160005260006020526131e86001604060002001546141ba565b81600052600060205260406000209060018060a01b0316908160005260205260ff604060002054161561321757005b8160005260006020526040600020816000526020526040600020600160ff198254161790553391600080516020615020833981519152600080a4005b346103035760003660031901126103035760206040517f6fa27ac1cdd2e2eda2fb653a3d18c7b6ffe16599817716f8819988196f8ee95e8152f35b346103035760203660031901126103035760043560005260006020526020600160406000200154604051908152f35b34610303576132cb36613b64565b90806000526020906005825260018060a01b0360016040600020015416156102eb57600052600d815260406000206000926000918054925b838110613430575061331485613dfe565b946133226040519687613aed565b808652613331601f1991613dfe565b018460005b8281106133de5750505060009160005b84811061336057604051868152806102e78189018a613bde565b600461338061336f8386614812565b50610cb5604051809481930161446d565b868151910120825187840120146133a0575b61339b90614566565b613346565b926133d661339b916133bb6133b58787614812565b5061482e565b6133c5828b61492b565b526133d0818a61492b565b50614566565b939050613392565b6040516133ea81613a2e565b600081526000838201526060806040830152808083015280608083015260a0820152600060c0820152600060e0820152600061010082015282828a010152018590613336565b600461343f61336f8385614812565b8581519101208351868501201461345f575b61345a90614566565b613303565b9461346c61345a91614566565b959050613451565b346103035760403660031901126103035760043560248035906004821015610303573360009081527f1da0b5176dfe03406af5a6eed66ca01dda9b45ac4da671c3fa379cb93717ef8160209081526040909120549091907f0ce23c3e399818cfee81a7ab0880f714e53d7672b08df0fa62f2843416e1ea099060ff16156135cc575060ff60035460a01c16156105415761350c614503565b6000848152600583526040902060018101549091906001600160a01b0316156135b657509160609160067faf5286fde5de0e6b14a24a44a9e2f90cbf3f1f12a6923f0d747d90022799ace59461356184613d1e565b01805461ff00191683151560081b61ff00161790556000858152601382526040902061358c83613d1e565b60ff1981541660ff8416179055604051916135a681613d1e565b82523390820152426040820152a2005b604051630acbeacf60e31b815260048101869052fd5b82906135d733614369565b906040516135e481613ad2565b604281528381019160603684378151156137475760308353815160019081101561373257607860218401536041905b8082116136c45750506136825760486114c293612026936136669360405195869376020b1b1b2b9b9a1b7b73a3937b61d1030b1b1b7bab73a1604d1b8a860152611ffd815180928c603789019101613b96565b60405193849362461bcd60e51b85526004850152830190613bb9565b606485856040519162461bcd60e51b83528160048401528201527f537472696e67733a20686578206c656e67746820696e73756666696369656e746044820152fd5b9091600f8116601081101561371d576f181899199a1a9b1b9c1cb0b131b232b360811b901a6136f38486614358565b5360041c918015613708576000190190613613565b87634e487b7160e01b60005260116004526000fd5b88634e487b7160e01b60005260326004526000fd5b86634e487b7160e01b60005260326004526000fd5b85634e487b7160e01b60005260326004526000fd5b3461030357602036600319011261030357602061160a600435614efe565b346103035761378836613b64565b9060ff60035460a01c16156105415761379f614503565b60008181526005602090815260409091206001808201546001600160a01b0316801561393b573314158061390a575b6118ac57845160038301916001600160401b0382116111e4576137fb826137f58554614433565b85614575565b84601f831160011461387e579180806138689795937fa1cb72b2df2b666d002efa40f8cd8edaf3b7ab25ca4d23c1478ace3d54d2ef84999a9795600093613873575b501b916000199060031b1c19161790555b600542910155604051928392604084526040840190613bb9565b9042908301520390a2005b88015192508b61383d565b601f9291921982169084600052866000209160005b8181106138f557509183916138689896947fa1cb72b2df2b666d002efa40f8cd8edaf3b7ab25ca4d23c1478ace3d54d2ef849a9b989694106138dc575b5050811b01905561384e565b87015160001960f88460031b161c1916905589806138d0565b8a830151845592850192918801918801613893565b5060008051602061504083398151915260005260008352604060002033600052835260ff60406000205416156137ce565b604051630acbeacf60e31b815260048101869052602490fd5b3461030357600036600319011261030357602060405160018152f35b346103035761397e36613a18565b6000828152600560205260409020600101549091906001600160a01b0316156102eb57600052600c6020526040600020906000526020526020604060002054604051908152f35b34610303576020366003190112610303576004359063ffffffff60e01b821680920361030357602091637965db0b60e01b8114908115613a07575b5015158152f35b6301ffc9a760e01b14905083613a00565b6040906003190112610303576004359060243590565b61012081019081106001600160401b038211176111e457604052565b60e081019081106001600160401b038211176111e457604052565b61010081019081106001600160401b038211176111e457604052565b60c081019081106001600160401b038211176111e457604052565b60a081019081106001600160401b038211176111e457604052565b602081019081106001600160401b038211176111e457604052565b608081019081106001600160401b038211176111e457604052565b90601f801991011681019081106001600160401b038211176111e457604052565b81601f82011215610303578035906001600160401b0382116111e45760405192613b42601f8401601f191660200185613aed565b8284526020838301011161030357816000926020809301838601378301015290565b9060406003198301126103035760043591602435906001600160401b03821161030357613b9391600401613b0e565b90565b60005b838110613ba95750506000910152565b8181015183820152602001613b99565b90602091613bd281518092818552858086019101613b96565b601f01601f1916010190565b908082519081815260208091019281808460051b8301019501936000915b848310613c0c5750505050505090565b9091929394958480600192601f19858203018652895190815181528282015183820152613c8b613c78613c65613c52604080870151906101208091880152860190613bb9565b6060808701519086830390870152613bb9565b6080808601519085830390860152613bb9565b60a0808501519084830390850152613bb9565b9160c0808201519083015260e0868060a01b03818301511690830152610100809101519101529801930193019194939290613bfc565b602435906001600160a01b038216820361030357565b600435906001600160a01b038216820361030357565b35906001600160a01b038216820361030357565b346103035760003660031901126103035760206040516127108152f35b60041115613d2857565b634e487b7160e01b600052602160045260246000fd5b602081528151602082015260018060a01b03602083015116604082015260408201516060820152606082015160e0613d8461010092836080860152610120850190613bb9565b93608081015160a085015260a081015160c085015260c08101511515828501520151151591015290565b91908260c091031261030357604051613dc681613a81565b60a080829480358452602081013560208501526040810135604085015260608101356060850152608081013560808501520135910152565b6001600160401b0381116111e45760051b60200190565b6020908160408183019282815285518094520193019160005b828110613e3c575050505090565b835185529381019392810192600101613e2e565b60a0809180518452602081015160208501526040810151604085015260608101516060850152608081015160808501520151910152565b3360009081527fb470f2a4bcdb3397bb37cd2aed079057563c5c8c028f1abedb6d2e5f62946ce5602090815260408083205490927fa5df84d05f94c8e589750a34f9631c6df369aabc0811ccbbd233872ff60aec669160ff1615613eeb5750505050565b613ef433614369565b91845190613f0182613ad2565b6042825284820192606036853782511561406157603084538251906001918210156140615790607860218501536041915b818311613ff357505050613fb15760486114c2938693613f9593613f86985198899376020b1b1b2b9b9a1b7b73a3937b61d1030b1b1b7bab73a1604d1b8a860152611ffd815180928c603789019101613b96565b01036028810187520185613aed565b5192839262461bcd60e51b845260048401526024830190613bb9565b60648486519062461bcd60e51b825280600483015260248201527f537472696e67733a20686578206c656e67746820696e73756666696369656e746044820152fd5b909192600f8116601081101561404d576f181899199a1a9b1b9c1cb0b131b232b360811b901a6140238587614358565b5360041c92801561403957600019019190613f32565b634e487b7160e01b82526011600452602482fd5b634e487b7160e01b83526032600452602483fd5b634e487b7160e01b81526032600452602490fd5b3360009081527f7d7ffb7a348e1c6a02869081a26547b49160dd3df72d1d75a570eb9b698292ec602090815260408083205490927fa49807205ce4d355092ef5a8a18f56e8913cf4a201fbe287825b095693c217759160ff16156140d95750505050565b6140e233614369565b918451906140ef82613ad2565b6042825284820192606036853782511561406157603084538251906001918210156140615790607860218501536041915b81831161417457505050613fb15760486114c2938693613f9593613f86985198899376020b1b1b2b9b9a1b7b73a3937b61d1030b1b1b7bab73a1604d1b8a860152611ffd815180928c603789019101613b96565b909192600f8116601081101561404d576f181899199a1a9b1b9c1cb0b131b232b360811b901a6141a48587614358565b5360041c92801561403957600019019190614120565b600090808252602090828252604092838120338252835260ff8482205416156141e35750505050565b6141ec33614369565b918451906141f982613ad2565b6042825284820192606036853782511561406157603084538251906001918210156140615790607860218501536041915b81831161427e57505050613fb15760486114c2938693613f9593613f86985198899376020b1b1b2b9b9a1b7b73a3937b61d1030b1b1b7bab73a1604d1b8a860152611ffd815180928c603789019101613b96565b909192600f8116601081101561404d576f181899199a1a9b1b9c1cb0b131b232b360811b901a6142ae8587614358565b5360041c9280156140395760001901919061422a565b9060009180835282602052604083209160018060a01b03169182845260205260ff6040842054166142f457505050565b80835282602052604083208284526020526040832060ff1981541690557ff6391f5c32d9c69d2a47ea670b442974b53935d1edc7fd64eb21e047a839171b339380a4565b8181029291811591840414171561107557565b9190820180921161107557565b9081518110156120dd570160200190565b60405190606082018281106001600160401b038211176111e457604052602a82526020820160403682378251156120dd576030905381516001908110156120dd57607860218401536029905b8082116143c55750506120555790565b9091600f8116601081101561441e576f181899199a1a9b1b9c1cb0b131b232b360811b901a6143f48486614358565b5360041c9180156144095760001901906143b5565b60246000634e487b7160e01b81526011600452fd5b60246000634e487b7160e01b81526032600452fd5b90600182811c92168015614463575b602083101461444d57565b634e487b7160e01b600052602260045260246000fd5b91607f1691614442565b906000929180549161447e83614433565b9182825260019384811690816000146144e057506001146144a0575b50505050565b90919394506000526020928360002092846000945b8386106144cc57505050500101903880808061449a565b8054858701830152940193859082016144b5565b9294505050602093945060ff191683830152151560051b0101903880808061449a565b60ff6001541661450f57565b60405162461bcd60e51b815260206004820152601060248201526f14185d5cd8589b194e881c185d5cd95960821b6044820152606490fd5b9081602091031261030357516001600160a01b03811681036103035790565b60001981146110755760010190565b90601f811161458357505050565b600091825260208220906020601f850160051c830194106145bf575b601f0160051c01915b8281106145b457505050565b8181556001016145a8565b909250829061459f565b60008181526008602052604081205461465c57600754600160401b8110156146485760018101806007558110156146345790826040927fa66cc928b5edb82af9bd49922954155ab7b0942694bea4ce44661d9a8736c688015560075492815260086020522055600190565b634e487b7160e01b82526032600452602482fd5b634e487b7160e01b82526041600452602482fd5b905090565b919060018301600090828252806020526040822054156000146146cc57845494600160401b8610156146b8576001860180825586101561404d57836040949596828552602085200155549382526020522055600190565b634e487b7160e01b83526041600452602483fd5b50925050565b604051906146df82613a65565b8160e06000918281528260208201528260408201526060808201528260808201528260a08201528260c08201520152565b600160ff1b81146110755760000390565b9190916000838201938412911290801582169115161761107557565b805490600160401b8210156111e457600182018082558210156120dd5760069160c09160005260076020600020910201928051845560018401602082015161478481613d1e565b61478d81613d1e565b60ff8019835416911617905560408101516002850155606081015160038501556004840160018060a01b036080830151166001600160601b0360a01b82541617905560a081015160058501550151910155565b604051906147ed82613a81565b8160a06000918281528260208201528260408201528260608201528260808201520152565b80548210156120dd576000526009602060002091020190600090565b90604091610100600884519261484384613a2e565b83958154855260018201546020860152805161486681610cb5816002870161446d565b81860152805161487d81610cb5816003870161446d565b6060860152805161489581610cb5816004870161446d565b6080860152516148ac81610cb5816005860161446d565b60a0850152600681015460c085015260078101546001600160a01b031660e08501520154910152565b9081546148e181613dfe565b926148ef6040519485613aed565b818452600090815260208082208186015b84841061490e575050505050565b60098360019261491d8561482e565b815201920193019290614900565b80518210156120dd5760209160051b010190565b80548210156120dd576000526006602060002091020190600090565b9061496581613d1e565b815460ff60a01b191660a09190911b60ff60a01b16179055565b9060405161498c81613a81565b60a06005829480548452600181015460208501526002810154604085015260038101546060850152600481015460808501520154910152565b9190820391821161107557565b90929160009180835260059460209186835260018060a01b03966001926040928985858a2001541615614bd05787526010855282872098895480831015614bb557614a1d888461434b565b97818911614bab575b606410614b7a575b50614a3982886149c5565b97614a4389613dfe565b98614a5086519a8b613aed565b808a52614a5f601f1991613dfe565b019087815b838110614b365750505050815b878110614a85575096985050505050505050565b806133d08a88614b2a8f614a9d614b31978e9261493f565b50938b8b614aab8c8a6149c5565b968794835197614aba89613a65565b825489528201549088015260028101548c81168489015260ff938460a0928181851c16614ae681613d1e565b60608c015260a81c1660808a01525190614b0e82614b07816003870161446d565b0383613aed565b880152600481015460c0880152015416151560e085015261492b565b528b61492b565b614a71565b875182828e614b4484613a65565b8684528683850152868c8501526060878186015287608086015260a08501528660c08501528660e0850152010152018890614a64565b606483019750878311614b975780881115614a2e57965038614a2e565b634e487b7160e01b89526011600452602489fd5b9097508790614a26565b50505050939495505050505190614bcb82613ab7565b815290565b602490845190630acbeacf60e31b82526004820152fd5b8115614bf1570490565b634e487b7160e01b600052601260045260246000fd5b90614c1182613dfe565b614c1e6040519182613aed565b8281528092614c2f601f1991613dfe565b0190602036910137565b90919060009080614e3c575050604051808160075480835260208093019060076000527fa66cc928b5edb82af9bd49922954155ab7b0942694bea4ce44661d9a8736c688936000905b828210614e2257505050614c9892500382613aed565b805115614e0757614ca98151614c07565b9260005b8251811015614cda5780614cc4614cd5928561492b565b51614ccf828861492b565b52614566565b614cad565b5091600091505b8351600019939084810190811161107557831015614db45760005b614d078487516149c5565b85810190811161107557811015614da157614d22818761492b565b51600052600a90602091808352600160409080826000200154918185019384861161107557614d6a96614d55868e61492b565b5160005252600020015411614d6f5750614566565b614cfc565b614d9a614d7c838a61492b565b5191614d88818b61492b565b51614d93858c61492b565b528961492b565b52386133d0565b50925090614dae90614566565b90614ce1565b91509150825190818111600014614e0057505b614dd081614c07565b9060005b818110614de2575090925050565b80614df0614dfb928761492b565b51614ccf828661492b565b614dd4565b9050614dc7565b509050604051614e1681613ab7565b60008152600036813790565b855484526001958601958795509381019390910190614c82565b815260209060098252604081209160405192838285938354928381520192855280852094905b828210614e7d57505050614e7892500382613aed565b614c98565b855484526001958601958795509381019390910190614e62565b6000908152600560205260409020600101546001600160a01b031615613b9357614eea6103e891600a60205260016040600020015490610bb8808311614ef6575b506101f4808310614eee575b50614338565b0490565b915038614ee4565b915038614ed8565b6000818152600560205260408120600101549192916001600160a01b03161561501b57600a60205260408120926011602052604082209160028501549281908054614ff5575b506064614f9095965404916107d0808411614fec575b509283526013602052604083205460ff16614f7481613d1e565b60018103614f9e5750614f8b9250614f8b906101f4945b61434b565b61271080821161465c575090565b614fa781613d1e565b60028103614fc25750614f8b9250614f8b906103e89461434b565b80614fce600392613d1e565b14614fe2575b614f8b90614f8b939461434b565b6105dc9250614fd4565b92506040614f5a565b600401546107d0808202979250811591880414171561403957946101f490046064614f44565b915056fe2f8788117e7eff1d82e926ec794901d17c78024a50270940304540a733656f0d1d0f12d082b3e5338f8dab310a38db3645f19456d3e591618fb6ace837c5da39a26469706673582212204a48188f7d10888651db77e4e9a45eafeb881c6f5c3671eba496dee5cb10856164736f6c634300081400332f8788117e7eff1d82e926ec794901d17c78024a50270940304540a733656f0d","opcodes":"PUSH1 0x80 CALLVALUE PUSH3 0x3CD JUMPI PUSH1 0x40 SWAP1 DUP1 DUP3 ADD PUSH1 0x1 PUSH1 0x1 PUSH1 0x40 SHL SUB DUP2 GT DUP3 DUP3 LT OR PUSH3 0x3B7 JUMPI DUP3 MSTORE PUSH1 0x5 DUP2 MSTORE PUSH1 0x20 DUP1 SWAP2 ADD PUSH5 0x312E302E3 PUSH1 0xDC SHL DUP2 MSTORE PUSH1 0xFF NOT SWAP1 PUSH1 0x1 SWAP1 DUP3 DUP3 SLOAD AND DUP3 SSTORE DUP2 PUSH1 0x2 SSTORE PUSH1 0x4 SLOAD DUP3 DUP2 DUP2 SHR SWAP2 AND DUP1 ISZERO PUSH3 0x3AC JUMPI JUMPDEST DUP6 DUP3 LT EQ PUSH3 0x396 JUMPI PUSH1 0x1F DUP2 GT PUSH3 0x364 JUMPI JUMPDEST POP MLOAD PUSH1 0x1 PUSH1 0x1 PUSH1 0xD8 SHL SUB NOT AND PUSH1 0xA OR PUSH1 0x4 SSTORE PUSH1 0x0 DUP1 DUP1 MSTORE DUP1 DUP5 MSTORE DUP5 DUP2 KECCAK256 CALLER DUP3 MSTORE DUP5 MSTORE DUP5 SWAP1 KECCAK256 SLOAD PUSH1 0xFF SWAP4 SWAP1 DUP5 AND ISZERO PUSH3 0x329 JUMPI JUMPDEST PUSH32 0xA49807205CE4D355092EF5A8A18F56E8913CF4A201FBE287825B095693C21775 DUP1 PUSH1 0x0 MSTORE PUSH1 0x0 DUP3 MSTORE DUP6 PUSH1 0x0 KECCAK256 CALLER PUSH1 0x0 MSTORE DUP3 MSTORE DUP5 DUP7 PUSH1 0x0 KECCAK256 SLOAD AND ISZERO PUSH3 0x2EC JUMPI JUMPDEST POP PUSH32 0x1D0F12D082B3E5338F8DAB310A38DB3645F19456D3E591618FB6ACE837C5DA39 DUP1 PUSH1 0x0 MSTORE PUSH1 0x0 DUP3 MSTORE DUP6 PUSH1 0x0 KECCAK256 CALLER PUSH1 0x0 MSTORE DUP3 MSTORE DUP5 DUP7 PUSH1 0x0 KECCAK256 SLOAD AND ISZERO PUSH3 0x2AF JUMPI JUMPDEST POP PUSH32 0xA5DF84D05F94C8E589750A34F9631C6DF369AABC0811CCBBD233872FF60AEC66 DUP1 PUSH1 0x0 MSTORE PUSH1 0x0 DUP3 MSTORE DUP6 PUSH1 0x0 KECCAK256 CALLER PUSH1 0x0 MSTORE DUP3 MSTORE DUP5 DUP7 PUSH1 0x0 KECCAK256 SLOAD AND ISZERO PUSH3 0x272 JUMPI JUMPDEST POP PUSH32 0x6FA27AC1CDD2E2EDA2FB653A3D18C7B6FFE16599817716F8819988196F8EE95E DUP1 PUSH1 0x0 MSTORE PUSH1 0x0 DUP3 MSTORE DUP6 PUSH1 0x0 KECCAK256 CALLER PUSH1 0x0 MSTORE DUP3 MSTORE DUP5 DUP7 PUSH1 0x0 KECCAK256 SLOAD AND ISZERO PUSH3 0x235 JUMPI JUMPDEST POP PUSH32 0xCE23C3E399818CFEE81A7AB0880F714E53D7672B08DF0FA62F2843416E1EA09 SWAP4 DUP5 PUSH1 0x0 MSTORE PUSH1 0x0 DUP3 MSTORE DUP6 PUSH1 0x0 KECCAK256 CALLER PUSH1 0x0 MSTORE DUP3 MSTORE DUP6 PUSH1 0x0 KECCAK256 SLOAD AND ISZERO PUSH3 0x1F6 JUMPI JUMPDEST DUP5 MLOAD PUSH2 0x5095 SWAP1 DUP2 PUSH3 0x3D3 DUP3 CODECOPY RETURN JUMPDEST DUP4 PUSH1 0x0 MSTORE PUSH1 0x0 DUP2 MSTORE DUP5 PUSH1 0x0 KECCAK256 SWAP1 CALLER PUSH1 0x0 MSTORE MSTORE DUP4 PUSH1 0x0 KECCAK256 SWAP2 DUP3 SLOAD AND OR SWAP1 SSTORE CALLER SWAP1 CALLER SWAP1 PUSH1 0x0 DUP1 MLOAD PUSH1 0x20 PUSH3 0x5468 DUP4 CODECOPY DUP2 MLOAD SWAP2 MSTORE PUSH1 0x0 DUP1 LOG4 CODESIZE DUP1 DUP1 DUP1 PUSH3 0x1E7 JUMP JUMPDEST DUP1 PUSH1 0x0 MSTORE PUSH1 0x0 DUP3 MSTORE DUP6 PUSH1 0x0 KECCAK256 CALLER PUSH1 0x0 MSTORE DUP3 MSTORE DUP6 PUSH1 0x0 KECCAK256 DUP4 DUP6 DUP3 SLOAD AND OR SWAP1 SSTORE CALLER SWAP1 CALLER SWAP1 PUSH1 0x0 DUP1 MLOAD PUSH1 0x20 PUSH3 0x5468 DUP4 CODECOPY DUP2 MLOAD SWAP2 MSTORE PUSH1 0x0 DUP1 LOG4 CODESIZE PUSH3 0x1A5 JUMP JUMPDEST DUP1 PUSH1 0x0 MSTORE PUSH1 0x0 DUP3 MSTORE DUP6 PUSH1 0x0 KECCAK256 CALLER PUSH1 0x0 MSTORE DUP3 MSTORE DUP6 PUSH1 0x0 KECCAK256 DUP4 DUP6 DUP3 SLOAD AND OR SWAP1 SSTORE CALLER SWAP1 CALLER SWAP1 PUSH1 0x0 DUP1 MLOAD PUSH1 0x20 PUSH3 0x5468 DUP4 CODECOPY DUP2 MLOAD SWAP2 MSTORE PUSH1 0x0 DUP1 LOG4 CODESIZE PUSH3 0x163 JUMP JUMPDEST DUP1 PUSH1 0x0 MSTORE PUSH1 0x0 DUP3 MSTORE DUP6 PUSH1 0x0 KECCAK256 CALLER PUSH1 0x0 MSTORE DUP3 MSTORE DUP6 PUSH1 0x0 KECCAK256 DUP4 DUP6 DUP3 SLOAD AND OR SWAP1 SSTORE CALLER SWAP1 CALLER SWAP1 PUSH1 0x0 DUP1 MLOAD PUSH1 0x20 PUSH3 0x5468 DUP4 CODECOPY DUP2 MLOAD SWAP2 MSTORE PUSH1 0x0 DUP1 LOG4 CODESIZE PUSH3 0x121 JUMP JUMPDEST DUP1 PUSH1 0x0 MSTORE PUSH1 0x0 DUP3 MSTORE DUP6 PUSH1 0x0 KECCAK256 CALLER PUSH1 0x0 MSTORE DUP3 MSTORE DUP6 PUSH1 0x0 KECCAK256 DUP4 DUP6 DUP3 SLOAD AND OR SWAP1 SSTORE CALLER SWAP1 CALLER SWAP1 PUSH1 0x0 DUP1 MLOAD PUSH1 0x20 PUSH3 0x5468 DUP4 CODECOPY DUP2 MLOAD SWAP2 MSTORE PUSH1 0x0 DUP1 LOG4 CODESIZE PUSH3 0xDF JUMP JUMPDEST PUSH1 0x0 DUP1 MSTORE PUSH1 0x0 DUP2 MSTORE DUP5 PUSH1 0x0 KECCAK256 CALLER PUSH1 0x0 MSTORE DUP2 MSTORE DUP5 PUSH1 0x0 KECCAK256 DUP3 DUP5 DUP3 SLOAD AND OR SWAP1 SSTORE CALLER CALLER PUSH1 0x0 PUSH1 0x0 DUP1 MLOAD PUSH1 0x20 PUSH3 0x5468 DUP4 CODECOPY DUP2 MLOAD SWAP2 MSTORE DUP2 DUP1 LOG4 PUSH3 0x9E JUMP JUMPDEST PUSH1 0x4 PUSH1 0x0 MSTORE DUP3 PUSH1 0x1F DUP7 PUSH1 0x0 KECCAK256 SWAP3 ADD PUSH1 0x5 SHR DUP3 ADD SWAP2 JUMPDEST DUP3 DUP2 LT PUSH3 0x389 JUMPI POP POP PUSH3 0x6B JUMP JUMPDEST PUSH1 0x0 DUP2 SSTORE ADD DUP4 SWAP1 PUSH3 0x379 JUMP JUMPDEST PUSH4 0x4E487B71 PUSH1 0xE0 SHL PUSH1 0x0 MSTORE PUSH1 0x22 PUSH1 0x4 MSTORE PUSH1 0x24 PUSH1 0x0 REVERT JUMPDEST SWAP1 PUSH1 0x7F AND SWAP1 PUSH3 0x58 JUMP JUMPDEST PUSH4 0x4E487B71 PUSH1 0xE0 SHL PUSH1 0x0 MSTORE PUSH1 0x41 PUSH1 0x4 MSTORE PUSH1 0x24 PUSH1 0x0 REVERT JUMPDEST PUSH1 0x0 DUP1 REVERT INVALID PUSH1 0x80 DUP1 PUSH1 0x40 MSTORE PUSH1 0x4 CALLDATASIZE LT ISZERO PUSH2 0x13 JUMPI PUSH1 0x0 DUP1 REVERT JUMPDEST PUSH1 0x0 CALLDATALOAD PUSH1 0xE0 SHR SWAP1 DUP2 PUSH4 0x1FFC9A7 EQ PUSH2 0x39C5 JUMPI POP DUP1 PUSH4 0x2940A82 EQ PUSH2 0x3970 JUMPI DUP1 PUSH4 0x2B9C2B2 EQ PUSH2 0x3954 JUMPI DUP1 PUSH4 0x9BD356F EQ PUSH2 0x377A JUMPI DUP1 PUSH4 0x15943F86 EQ PUSH2 0x375C JUMPI DUP1 PUSH4 0x173E5660 EQ PUSH2 0x3474 JUMPI DUP1 PUSH4 0x182241BB EQ PUSH2 0x32BD JUMPI DUP1 PUSH4 0x248A9CA3 EQ PUSH2 0x328E JUMPI DUP1 PUSH4 0x2D934EA4 EQ PUSH2 0x3253 JUMPI DUP1 PUSH4 0x2F2FF15D EQ PUSH2 0x31B2 JUMPI DUP1 PUSH4 0x337EFCA5 EQ PUSH2 0x2FB5 JUMPI DUP1 PUSH4 0x36568ABE EQ PUSH2 0x2F23 JUMPI DUP1 PUSH4 0x3697611A EQ PUSH2 0x2F05 JUMPI DUP1 PUSH4 0x392E53CD EQ PUSH2 0x2EDF JUMPI DUP1 PUSH4 0x3F4BA83A EQ PUSH2 0x2E79 JUMPI DUP1 PUSH4 0x4A4E3BD5 EQ PUSH2 0x2DCF JUMPI DUP1 PUSH4 0x51858E27 EQ PUSH2 0x2D98 JUMPI DUP1 PUSH4 0x54FD4D50 EQ PUSH2 0x2CB6 JUMPI DUP1 PUSH4 0x56E521C2 EQ PUSH2 0x2183 JUMPI DUP1 PUSH4 0x59A43A50 EQ PUSH2 0x2BCE JUMPI DUP1 PUSH4 0x5C975ABB EQ PUSH2 0x2BAB JUMPI DUP1 PUSH4 0x5E8C6876 EQ PUSH2 0x27F6 JUMPI DUP1 PUSH4 0x5FBCC316 EQ PUSH2 0x2703 JUMPI DUP1 PUSH4 0x627DB022 EQ PUSH2 0x26E7 JUMPI DUP1 PUSH4 0x6E1A514C EQ PUSH2 0x2256 JUMPI DUP1 PUSH4 0x73290672 EQ PUSH2 0x21EC JUMPI DUP1 PUSH4 0x75B238FC EQ PUSH2 0x21B1 JUMPI DUP1 PUSH4 0x7B103999 EQ PUSH2 0x2188 JUMPI DUP1 PUSH4 0x823CED41 EQ PUSH2 0x2183 JUMPI DUP1 PUSH4 0x8456CB59 EQ PUSH2 0x211C JUMPI DUP1 PUSH4 0x8B158F98 EQ PUSH2 0x20F3 JUMPI DUP1 PUSH4 0x8DFCD170 EQ PUSH2 0x18FC JUMPI DUP1 PUSH4 0x90BA8F04 EQ PUSH2 0x1698 JUMPI DUP1 PUSH4 0x91D14854 EQ PUSH2 0x164B JUMPI DUP1 PUSH4 0x93E9701B EQ PUSH2 0x1612 JUMPI DUP1 PUSH4 0x9AEC449F EQ PUSH2 0x15F1 JUMPI DUP1 PUSH4 0xA01A5F7F EQ PUSH2 0x1590 JUMPI DUP1 PUSH4 0xA1308F27 EQ PUSH2 0x1555 JUMPI DUP1 PUSH4 0xA217FDDF EQ PUSH2 0x1539 JUMPI DUP1 PUSH4 0xA3CDB785 EQ PUSH2 0x14DF JUMPI DUP1 PUSH4 0xA8453E37 EQ PUSH2 0xD73 JUMPI DUP1 PUSH4 0xAA7318AA EQ PUSH2 0xD1D JUMPI DUP1 PUSH4 0xAB50A468 EQ PUSH2 0xD01 JUMPI DUP1 PUSH4 0xB50991B4 EQ PUSH2 0xC3F JUMPI DUP1 PUSH4 0xBE152B61 EQ PUSH2 0xC22 JUMPI DUP1 PUSH4 0xC4D66DE8 EQ PUSH2 0x828 JUMPI DUP1 PUSH4 0xD14519D2 EQ PUSH2 0x786 JUMPI DUP1 PUSH4 0xD547741F EQ PUSH2 0x745 JUMPI DUP1 PUSH4 0xE3117249 EQ PUSH2 0x5DB JUMPI DUP1 PUSH4 0xE7705DB6 EQ PUSH2 0x5A0 JUMPI DUP1 PUSH4 0xEB0FD86A EQ PUSH2 0x565 JUMPI DUP1 PUSH4 0xEBF8A3E6 EQ PUSH2 0x4EB JUMPI DUP1 PUSH4 0xF2DAC3C6 EQ PUSH2 0x369 JUMPI DUP1 PUSH4 0xF5B541A6 EQ PUSH2 0x32E JUMPI DUP1 PUSH4 0xF7F032DF EQ PUSH2 0x308 JUMPI PUSH4 0xFB7B5697 EQ PUSH2 0x287 JUMPI PUSH1 0x0 DUP1 REVERT JUMPDEST CALLVALUE PUSH2 0x303 JUMPI PUSH1 0x20 CALLDATASIZE PUSH1 0x3 NOT ADD SLT PUSH2 0x303 JUMPI PUSH1 0x4 CALLDATALOAD PUSH1 0x0 DUP2 DUP2 MSTORE PUSH1 0x5 PUSH1 0x20 MSTORE PUSH1 0x40 SWAP1 KECCAK256 PUSH1 0x1 ADD SLOAD PUSH1 0x1 PUSH1 0x1 PUSH1 0xA0 SHL SUB AND ISZERO PUSH2 0x2EB JUMPI PUSH1 0x0 MSTORE PUSH1 0xD PUSH1 0x20 MSTORE PUSH2 0x2E7 PUSH2 0x2D3 PUSH1 0x40 PUSH1 0x0 KECCAK256 PUSH2 0x48D5 JUMP JUMPDEST PUSH1 0x40 MLOAD SWAP2 DUP3 SWAP2 PUSH1 0x20 DUP4 MSTORE PUSH1 0x20 DUP4 ADD SWAP1 PUSH2 0x3BDE JUMP JUMPDEST SUB SWAP1 RETURN JUMPDEST PUSH1 0x24 SWAP1 PUSH1 0x40 MLOAD SWAP1 PUSH4 0xACBEACF PUSH1 0xE3 SHL DUP3 MSTORE PUSH1 0x4 DUP3 ADD MSTORE REVERT JUMPDEST PUSH1 0x0 DUP1 REVERT JUMPDEST CALLVALUE PUSH2 0x303 JUMPI PUSH2 0x2E7 PUSH2 0x322 PUSH2 0x31C CALLDATASIZE PUSH2 0x3A18 JUMP JUMPDEST SWAP1 PUSH2 0x4C39 JUMP JUMPDEST PUSH1 0x40 MLOAD SWAP2 DUP3 SWAP2 DUP3 PUSH2 0x3E15 JUMP JUMPDEST CALLVALUE PUSH2 0x303 JUMPI PUSH1 0x0 CALLDATASIZE PUSH1 0x3 NOT ADD SLT PUSH2 0x303 JUMPI PUSH1 0x20 PUSH1 0x40 MLOAD PUSH32 0x97667070C54EF182B0F5858B034BEAC1B6F3089AA2D3188BB1E8929F4FA9B929 DUP2 MSTORE RETURN JUMPDEST CALLVALUE PUSH2 0x303 JUMPI PUSH1 0x20 DUP1 PUSH1 0x3 NOT CALLDATASIZE ADD SLT PUSH2 0x303 JUMPI PUSH1 0x4 CALLDATALOAD SWAP1 DUP2 PUSH1 0x0 MSTORE PUSH1 0x5 SWAP1 DUP2 DUP2 MSTORE PUSH1 0x1 DUP1 PUSH1 0xA0 SHL SUB SWAP2 PUSH1 0x1 SWAP4 DUP4 DUP6 PUSH1 0x40 PUSH1 0x0 KECCAK256 ADD SLOAD AND ISZERO PUSH2 0x2EB JUMPI SWAP3 DUP5 SWAP2 SWAP4 PUSH1 0x0 MSTORE PUSH1 0xB DUP4 MSTORE PUSH1 0x40 PUSH1 0x0 KECCAK256 SWAP4 DUP5 SLOAD PUSH2 0x3BF DUP2 PUSH2 0x3DFE JUMP JUMPDEST SWAP2 PUSH2 0x3CD PUSH1 0x40 MLOAD SWAP4 DUP5 PUSH2 0x3AED JUMP JUMPDEST DUP2 DUP4 MSTORE PUSH1 0x0 SWAP7 DUP8 MSTORE DUP6 DUP8 KECCAK256 DUP7 DUP5 ADD SWAP8 SWAP2 DUP9 JUMPDEST DUP5 DUP5 LT PUSH2 0x474 JUMPI POP POP POP POP POP PUSH1 0x40 MLOAD SWAP4 DUP1 DUP6 ADD SWAP2 DUP2 DUP7 MSTORE MLOAD DUP1 SWAP3 MSTORE PUSH1 0x40 DUP6 ADD SWAP6 SWAP3 PUSH1 0x0 SWAP1 JUMPDEST DUP4 DUP3 LT PUSH2 0x411 JUMPI DUP7 DUP9 SUB DUP8 RETURN JUMPDEST SWAP1 SWAP2 SWAP3 SWAP4 SWAP5 DUP4 PUSH1 0xE0 DUP3 SWAP10 DUP9 MLOAD DUP1 MLOAD DUP3 MSTORE DUP4 DUP2 ADD MLOAD PUSH2 0x42E DUP2 PUSH2 0x3D1E JUMP JUMPDEST DUP3 DUP6 ADD MSTORE PUSH1 0x40 DUP2 DUP2 ADD MLOAD SWAP1 DUP4 ADD MSTORE PUSH1 0x60 DUP1 DUP3 ADD MLOAD SWAP1 DUP4 ADD MSTORE PUSH1 0x80 DUP1 DUP3 ADD MLOAD DUP8 AND SWAP1 DUP4 ADD MSTORE PUSH1 0xA0 DUP1 DUP3 ADD MLOAD SWAP1 DUP4 ADD MSTORE PUSH1 0xC0 SWAP1 DUP2 ADD MLOAD SWAP1 DUP3 ADD MSTORE ADD SWAP9 SWAP7 ADD SWAP5 SWAP4 SWAP3 ADD SWAP1 PUSH2 0x404 JUMP JUMPDEST SWAP7 PUSH1 0x7 DUP10 DUP3 SWAP12 SWAP10 PUSH1 0x40 SWAP12 SWAP9 SWAP10 SWAP12 MLOAD PUSH2 0x48B DUP2 PUSH2 0x3A4A JUMP JUMPDEST DUP7 SLOAD DUP2 MSTORE PUSH1 0xFF DUP6 DUP9 ADD SLOAD AND PUSH2 0x49F DUP2 PUSH2 0x3D1E JUMP JUMPDEST DUP4 DUP3 ADD MSTORE PUSH1 0x2 DUP8 ADD SLOAD PUSH1 0x40 DUP3 ADD MSTORE PUSH1 0x3 DUP8 ADD SLOAD PUSH1 0x60 DUP3 ADD MSTORE DUP13 PUSH1 0x4 DUP9 ADD SLOAD AND PUSH1 0x80 DUP3 ADD MSTORE DUP6 DUP8 ADD SLOAD PUSH1 0xA0 DUP3 ADD MSTORE PUSH1 0x6 DUP8 ADD SLOAD PUSH1 0xC0 DUP3 ADD MSTORE DUP2 MSTORE ADD SWAP4 ADD SWAP4 ADD SWAP3 SWAP2 SWAP9 SWAP7 SWAP9 SWAP8 SWAP6 SWAP5 SWAP8 PUSH2 0x3DF JUMP JUMPDEST CALLVALUE PUSH2 0x303 JUMPI PUSH1 0x0 CALLDATASIZE PUSH1 0x3 NOT ADD SLT PUSH2 0x303 JUMPI PUSH1 0x3 SLOAD PUSH1 0x1 PUSH1 0x1 PUSH1 0xA0 SHL SUB DUP2 AND CALLER SUB PUSH2 0x553 JUMPI PUSH1 0xA0 SHR PUSH1 0xFF AND ISZERO PUSH2 0x541 JUMPI PUSH32 0xA866F3901EC84758A10F30E8953C3818EEF73DA93DFA46CB6AA5B726FB65813F PUSH1 0x0 DUP1 LOG1 STOP JUMPDEST PUSH1 0x40 MLOAD PUSH4 0x3165F6E9 PUSH1 0xE2 SHL DUP2 MSTORE PUSH1 0x4 SWAP1 REVERT JUMPDEST PUSH1 0x40 MLOAD PUSH4 0x10F54039 PUSH1 0xE3 SHL DUP2 MSTORE PUSH1 0x4 SWAP1 REVERT JUMPDEST CALLVALUE PUSH2 0x303 JUMPI PUSH1 0x0 CALLDATASIZE PUSH1 0x3 NOT ADD SLT PUSH2 0x303 JUMPI PUSH1 0x20 PUSH1 0x40 MLOAD PUSH32 0xA5DF84D05F94C8E589750A34F9631C6DF369AABC0811CCBBD233872FF60AEC66 DUP2 MSTORE RETURN JUMPDEST CALLVALUE PUSH2 0x303 JUMPI PUSH1 0x0 CALLDATASIZE PUSH1 0x3 NOT ADD SLT PUSH2 0x303 JUMPI PUSH1 0x20 PUSH1 0x40 MLOAD PUSH32 0xCE23C3E399818CFEE81A7AB0880F714E53D7672B08DF0FA62F2843416E1EA09 DUP2 MSTORE RETURN JUMPDEST CALLVALUE PUSH2 0x303 JUMPI PUSH1 0x80 CALLDATASIZE PUSH1 0x3 NOT ADD SLT PUSH2 0x303 JUMPI PUSH1 0x64 CALLDATALOAD PUSH1 0x4 CALLDATALOAD PUSH1 0x44 CALLDATALOAD PUSH1 0x24 CALLDATALOAD PUSH2 0x600 PUSH2 0x3E87 JUMP JUMPDEST PUSH1 0xFF PUSH1 0x3 SLOAD PUSH1 0xA0 SHR AND ISZERO PUSH2 0x541 JUMPI PUSH2 0x616 PUSH2 0x4503 JUMP JUMPDEST PUSH1 0x0 DUP4 DUP2 MSTORE PUSH1 0x5 PUSH1 0x20 SWAP1 DUP2 MSTORE PUSH1 0x40 SWAP1 SWAP2 KECCAK256 PUSH1 0x1 ADD SLOAD PUSH1 0x1 PUSH1 0x1 PUSH1 0xA0 SHL SUB AND ISZERO PUSH2 0x72C JUMPI SWAP2 PUSH32 0x78779947684EEFF96B2DC044961F47DEE102B28575D1357693322A57EB479D03 SWAP2 PUSH2 0x6F0 DUP6 SWAP5 PUSH1 0x3 SWAP7 PUSH1 0x0 MSTORE PUSH1 0xC DUP2 MSTORE PUSH1 0x40 PUSH1 0x0 KECCAK256 DUP4 PUSH1 0x0 MSTORE DUP2 MSTORE PUSH1 0x40 PUSH1 0x0 KECCAK256 SLOAD DUP5 PUSH1 0x0 DUP2 SLT DUP1 PUSH2 0x71B JUMPI JUMPDEST ISZERO PUSH2 0x70C JUMPI POP POP PUSH1 0x0 SWAP3 JUMPDEST DUP7 PUSH1 0x0 MSTORE PUSH1 0xC DUP3 MSTORE PUSH1 0x40 PUSH1 0x0 KECCAK256 SWAP1 PUSH1 0x0 MSTORE DUP2 MSTORE DUP3 PUSH1 0x40 PUSH1 0x0 KECCAK256 SSTORE PUSH1 0xB PUSH1 0x40 MLOAD SWAP2 PUSH2 0x6BB DUP4 PUSH2 0x3A4A JUMP JUMPDEST DUP8 DUP4 MSTORE DUP9 DUP2 DUP5 ADD MSTORE DUP6 PUSH1 0x40 DUP5 ADD MSTORE DUP10 PUSH1 0x60 DUP5 ADD MSTORE CALLER PUSH1 0x80 DUP5 ADD MSTORE TIMESTAMP PUSH1 0xA0 DUP5 ADD MSTORE NUMBER PUSH1 0xC0 DUP5 ADD MSTORE DUP8 PUSH1 0x0 MSTORE MSTORE PUSH1 0x40 PUSH1 0x0 KECCAK256 PUSH2 0x473D JUMP JUMPDEST PUSH1 0x40 DUP1 MLOAD SWAP3 DUP4 MSTORE CALLER PUSH1 0x20 DUP5 ADD MSTORE DUP3 ADD MSTORE TIMESTAMP PUSH1 0x60 DUP3 ADD MSTORE PUSH1 0x80 SWAP1 LOG4 STOP JUMPDEST PUSH2 0x715 SWAP2 PUSH2 0x4721 JUMP JUMPDEST SWAP3 PUSH2 0x692 JUMP JUMPDEST POP DUP2 PUSH2 0x726 DUP3 PUSH2 0x4710 JUMP JUMPDEST GT PUSH2 0x687 JUMP JUMPDEST PUSH1 0x40 MLOAD PUSH4 0xACBEACF PUSH1 0xE3 SHL DUP2 MSTORE PUSH1 0x4 DUP2 ADD DUP6 SWAP1 MSTORE PUSH1 0x24 SWAP1 REVERT JUMPDEST CALLVALUE PUSH2 0x303 JUMPI PUSH1 0x40 CALLDATASIZE PUSH1 0x3 NOT ADD SLT PUSH2 0x303 JUMPI PUSH2 0x784 PUSH1 0x4 CALLDATALOAD PUSH2 0x764 PUSH2 0x3CC1 JUMP JUMPDEST SWAP1 DUP1 PUSH1 0x0 MSTORE PUSH1 0x0 PUSH1 0x20 MSTORE PUSH2 0x77F PUSH1 0x1 PUSH1 0x40 PUSH1 0x0 KECCAK256 ADD SLOAD PUSH2 0x41BA JUMP JUMPDEST PUSH2 0x42C4 JUMP JUMPDEST STOP JUMPDEST CALLVALUE PUSH2 0x303 JUMPI PUSH1 0x20 CALLDATASIZE PUSH1 0x3 NOT ADD SLT PUSH2 0x303 JUMPI PUSH1 0x4 CALLDATALOAD PUSH2 0x7A2 PUSH2 0x47E0 JUMP JUMPDEST POP PUSH1 0x0 DUP2 DUP2 MSTORE PUSH1 0x5 PUSH1 0x20 MSTORE PUSH1 0x40 SWAP1 KECCAK256 PUSH1 0x1 ADD SLOAD PUSH1 0x1 PUSH1 0x1 PUSH1 0xA0 SHL SUB AND ISZERO PUSH2 0x2EB JUMPI PUSH1 0x0 MSTORE PUSH1 0xA PUSH1 0x20 MSTORE PUSH1 0xC0 PUSH1 0x40 PUSH1 0x0 KECCAK256 DUP1 SLOAD SWAP1 PUSH1 0x1 DUP2 ADD SLOAD SWAP1 PUSH1 0x2 DUP2 ADD SLOAD PUSH1 0x3 DUP3 ADD SLOAD SWAP1 PUSH1 0x5 PUSH1 0x4 DUP5 ADD SLOAD SWAP4 ADD SLOAD SWAP4 PUSH1 0x40 MLOAD SWAP6 PUSH2 0x7FE DUP8 PUSH2 0x3A81 JUMP JUMPDEST DUP7 MSTORE PUSH1 0x20 DUP7 ADD MSTORE PUSH1 0x40 DUP6 ADD MSTORE PUSH1 0x60 DUP5 ADD MSTORE PUSH1 0x80 DUP4 ADD MSTORE PUSH1 0xA0 DUP3 ADD MSTORE PUSH2 0x826 PUSH1 0x40 MLOAD DUP1 SWAP3 PUSH2 0x3E50 JUMP JUMPDEST RETURN JUMPDEST CALLVALUE PUSH2 0x303 JUMPI PUSH1 0x20 DUP1 PUSH1 0x3 NOT CALLDATASIZE ADD SLT PUSH2 0x303 JUMPI PUSH2 0x842 PUSH2 0x3CD7 JUMP JUMPDEST SWAP1 PUSH1 0x3 SLOAD SWAP2 PUSH1 0xFF SWAP2 DUP3 DUP5 PUSH1 0xA0 SHR AND PUSH2 0xC10 JUMPI PUSH1 0x1 PUSH1 0x1 PUSH1 0xA0 SHL SUB SWAP2 DUP3 AND SWAP4 DUP5 ISZERO PUSH2 0xBFE JUMPI PUSH1 0x1 PUSH1 0x1 PUSH1 0xA8 SHL SUB NOT AND DUP5 OR PUSH1 0x1 PUSH1 0xA0 SHL OR PUSH1 0x3 SSTORE PUSH32 0xA49807205CE4D355092EF5A8A18F56E8913CF4A201FBE287825B095693C21775 PUSH1 0x0 DUP2 DUP2 MSTORE DUP1 DUP4 MSTORE PUSH1 0x40 DUP1 DUP3 KECCAK256 DUP8 DUP4 MSTORE DUP5 MSTORE SWAP1 KECCAK256 SLOAD DUP5 AND ISZERO PUSH2 0xBBF JUMPI JUMPDEST POP PUSH32 0x97667070C54EF182B0F5858B034BEAC1B6F3089AA2D3188BB1E8929F4FA9B929 DUP1 PUSH1 0x0 MSTORE PUSH1 0x0 DUP3 MSTORE PUSH1 0x40 PUSH1 0x0 KECCAK256 DUP6 PUSH1 0x0 MSTORE DUP3 MSTORE DUP4 PUSH1 0x40 PUSH1 0x0 KECCAK256 SLOAD AND ISZERO PUSH2 0xB80 JUMPI JUMPDEST POP PUSH1 0x40 MLOAD PUSH4 0x7B103999 PUSH1 0xE0 SHL DUP2 MSTORE SWAP2 DUP2 DUP4 PUSH1 0x4 DUP2 ADDRESS GAS STATICCALL SWAP3 DUP4 ISZERO PUSH2 0xB74 JUMPI PUSH1 0x0 SWAP4 PUSH2 0xB45 JUMPI JUMPDEST POP PUSH1 0x0 DUP1 MLOAD PUSH1 0x20 PUSH2 0x5040 DUP4 CODECOPY DUP2 MLOAD SWAP2 MSTORE SWAP1 DUP2 PUSH1 0x0 MSTORE PUSH1 0x0 DUP4 MSTORE PUSH1 0x40 PUSH1 0x0 KECCAK256 SWAP4 AND SWAP3 DUP4 PUSH1 0x0 MSTORE DUP3 MSTORE DUP4 PUSH1 0x40 PUSH1 0x0 KECCAK256 SLOAD AND ISZERO PUSH2 0xB06 JUMPI JUMPDEST POP PUSH32 0xA5DF84D05F94C8E589750A34F9631C6DF369AABC0811CCBBD233872FF60AEC66 DUP1 PUSH1 0x0 MSTORE PUSH1 0x0 DUP3 MSTORE PUSH1 0x40 PUSH1 0x0 KECCAK256 DUP4 PUSH1 0x0 MSTORE DUP3 MSTORE DUP4 PUSH1 0x40 PUSH1 0x0 KECCAK256 SLOAD AND ISZERO PUSH2 0xAC7 JUMPI JUMPDEST POP PUSH32 0x6FA27AC1CDD2E2EDA2FB653A3D18C7B6FFE16599817716F8819988196F8EE95E DUP1 PUSH1 0x0 MSTORE PUSH1 0x0 DUP3 MSTORE PUSH1 0x40 PUSH1 0x0 KECCAK256 DUP4 PUSH1 0x0 MSTORE DUP3 MSTORE DUP4 PUSH1 0x40 PUSH1 0x0 KECCAK256 SLOAD AND ISZERO PUSH2 0xA88 JUMPI JUMPDEST POP PUSH32 0xCE23C3E399818CFEE81A7AB0880F714E53D7672B08DF0FA62F2843416E1EA09 SWAP3 DUP4 PUSH1 0x0 MSTORE PUSH1 0x0 DUP3 MSTORE PUSH1 0x40 PUSH1 0x0 KECCAK256 DUP4 PUSH1 0x0 MSTORE DUP3 MSTORE PUSH1 0x40 PUSH1 0x0 KECCAK256 SLOAD AND ISZERO PUSH2 0xA48 JUMPI JUMPDEST DUP4 PUSH32 0x27B541A16DF0902E262F34789782092AB25125513B8ED73608E802951771B928 PUSH1 0x0 DUP1 LOG2 STOP JUMPDEST DUP3 PUSH1 0x0 MSTORE PUSH1 0x0 DUP2 MSTORE PUSH1 0x40 PUSH1 0x0 KECCAK256 SWAP1 DUP3 PUSH1 0x0 MSTORE MSTORE PUSH1 0x40 PUSH1 0x0 KECCAK256 PUSH1 0x1 PUSH1 0xFF NOT DUP3 SLOAD AND OR SWAP1 SSTORE CALLER SWAP2 PUSH1 0x0 DUP1 MLOAD PUSH1 0x20 PUSH2 0x5020 DUP4 CODECOPY DUP2 MLOAD SWAP2 MSTORE PUSH1 0x0 DUP1 LOG4 DUP2 DUP1 DUP1 PUSH2 0xA20 JUMP JUMPDEST DUP1 PUSH1 0x0 MSTORE PUSH1 0x0 DUP3 MSTORE PUSH1 0x40 PUSH1 0x0 KECCAK256 DUP4 PUSH1 0x0 MSTORE DUP3 MSTORE PUSH1 0x40 PUSH1 0x0 KECCAK256 PUSH1 0x1 PUSH1 0xFF NOT DUP3 SLOAD AND OR SWAP1 SSTORE DUP3 CALLER SWAP2 PUSH1 0x0 DUP1 MLOAD PUSH1 0x20 PUSH2 0x5020 DUP4 CODECOPY DUP2 MLOAD SWAP2 MSTORE PUSH1 0x0 DUP1 LOG4 DUP5 PUSH2 0x9DD JUMP JUMPDEST DUP1 PUSH1 0x0 MSTORE PUSH1 0x0 DUP3 MSTORE PUSH1 0x40 PUSH1 0x0 KECCAK256 DUP4 PUSH1 0x0 MSTORE DUP3 MSTORE PUSH1 0x40 PUSH1 0x0 KECCAK256 PUSH1 0x1 PUSH1 0xFF NOT DUP3 SLOAD AND OR SWAP1 SSTORE DUP3 CALLER SWAP2 PUSH1 0x0 DUP1 MLOAD PUSH1 0x20 PUSH2 0x5020 DUP4 CODECOPY DUP2 MLOAD SWAP2 MSTORE PUSH1 0x0 DUP1 LOG4 DUP5 PUSH2 0x99A JUMP JUMPDEST DUP1 PUSH1 0x0 MSTORE PUSH1 0x0 DUP3 MSTORE PUSH1 0x40 PUSH1 0x0 KECCAK256 DUP4 PUSH1 0x0 MSTORE DUP3 MSTORE PUSH1 0x40 PUSH1 0x0 KECCAK256 PUSH1 0x1 PUSH1 0xFF NOT DUP3 SLOAD AND OR SWAP1 SSTORE DUP3 CALLER SWAP2 PUSH1 0x0 DUP1 MLOAD PUSH1 0x20 PUSH2 0x5020 DUP4 CODECOPY DUP2 MLOAD SWAP2 MSTORE PUSH1 0x0 DUP1 LOG4 DUP5 PUSH2 0x957 JUMP JUMPDEST PUSH2 0xB66 SWAP2 SWAP4 POP DUP3 RETURNDATASIZE DUP5 GT PUSH2 0xB6D JUMPI JUMPDEST PUSH2 0xB5E DUP2 DUP4 PUSH2 0x3AED JUMP JUMPDEST DUP2 ADD SWAP1 PUSH2 0x4547 JUMP JUMPDEST SWAP2 DUP6 PUSH2 0x922 JUMP JUMPDEST POP RETURNDATASIZE PUSH2 0xB54 JUMP JUMPDEST PUSH1 0x40 MLOAD RETURNDATASIZE PUSH1 0x0 DUP3 RETURNDATACOPY RETURNDATASIZE SWAP1 REVERT JUMPDEST DUP1 PUSH1 0x0 MSTORE PUSH1 0x0 DUP3 MSTORE PUSH1 0x40 PUSH1 0x0 KECCAK256 DUP6 PUSH1 0x0 MSTORE DUP3 MSTORE PUSH1 0x40 PUSH1 0x0 KECCAK256 PUSH1 0x1 PUSH1 0xFF NOT DUP3 SLOAD AND OR SWAP1 SSTORE DUP5 CALLER SWAP2 PUSH1 0x0 DUP1 MLOAD PUSH1 0x20 PUSH2 0x5020 DUP4 CODECOPY DUP2 MLOAD SWAP2 MSTORE PUSH1 0x0 DUP1 LOG4 DUP5 PUSH2 0x8FC JUMP JUMPDEST DUP1 PUSH1 0x0 MSTORE PUSH1 0x0 DUP3 MSTORE PUSH1 0x40 PUSH1 0x0 KECCAK256 DUP6 PUSH1 0x0 MSTORE DUP3 MSTORE PUSH1 0x40 PUSH1 0x0 KECCAK256 PUSH1 0x1 PUSH1 0xFF NOT DUP3 SLOAD AND OR SWAP1 SSTORE DUP5 CALLER SWAP2 PUSH1 0x0 DUP1 MLOAD PUSH1 0x20 PUSH2 0x5020 DUP4 CODECOPY DUP2 MLOAD SWAP2 MSTORE PUSH1 0x0 DUP1 LOG4 DUP5 PUSH2 0x8B9 JUMP JUMPDEST PUSH1 0x40 MLOAD PUSH4 0x7BFD2E83 PUSH1 0xE0 SHL DUP2 MSTORE PUSH1 0x4 SWAP1 REVERT JUMPDEST PUSH1 0x40 MLOAD PUSH4 0x7396742F PUSH1 0xE1 SHL DUP2 MSTORE PUSH1 0x4 SWAP1 REVERT JUMPDEST CALLVALUE PUSH2 0x303 JUMPI PUSH1 0x0 CALLDATASIZE PUSH1 0x3 NOT ADD SLT PUSH2 0x303 JUMPI PUSH1 0x20 PUSH1 0x40 MLOAD PUSH2 0x3E8 DUP2 MSTORE RETURN JUMPDEST CALLVALUE PUSH2 0x303 JUMPI PUSH1 0x20 CALLDATASIZE PUSH1 0x3 NOT ADD SLT PUSH2 0x303 JUMPI PUSH1 0x4 CALLDATALOAD PUSH2 0xC5B PUSH2 0x46D2 JUMP JUMPDEST POP DUP1 PUSH1 0x0 MSTORE PUSH1 0x5 PUSH1 0x20 MSTORE PUSH1 0x40 PUSH1 0x0 KECCAK256 SWAP1 PUSH1 0x40 MLOAD SWAP2 PUSH2 0xC78 DUP4 PUSH2 0x3A65 JUMP JUMPDEST DUP1 SLOAD DUP4 MSTORE PUSH1 0x1 DUP1 PUSH1 0xA0 SHL SUB SWAP1 PUSH1 0xFF PUSH1 0x6 DUP4 PUSH1 0x1 DUP5 ADD SLOAD AND SWAP3 PUSH1 0x20 DUP8 ADD SWAP4 DUP5 MSTORE PUSH1 0x2 DUP2 ADD SLOAD PUSH1 0x40 DUP9 ADD MSTORE PUSH1 0x40 MLOAD PUSH2 0xCBC DUP2 PUSH2 0xCB5 DUP2 PUSH1 0x3 DUP7 ADD PUSH2 0x446D JUMP JUMPDEST SUB DUP3 PUSH2 0x3AED JUMP JUMPDEST PUSH1 0x60 DUP9 ADD MSTORE PUSH1 0x4 DUP2 ADD SLOAD PUSH1 0x80 DUP9 ADD MSTORE PUSH1 0x5 DUP2 ADD SLOAD PUSH1 0xA0 DUP9 ADD MSTORE ADD SLOAD DUP2 DUP2 AND ISZERO ISZERO PUSH1 0xC0 DUP8 ADD MSTORE PUSH1 0x8 SHR AND ISZERO ISZERO PUSH1 0xE0 DUP6 ADD MSTORE MLOAD AND ISZERO PUSH2 0x2EB JUMPI PUSH1 0x40 MLOAD DUP1 PUSH2 0x2E7 DUP5 DUP3 PUSH2 0x3D3E JUMP JUMPDEST CALLVALUE PUSH2 0x303 JUMPI PUSH1 0x0 CALLDATASIZE PUSH1 0x3 NOT ADD SLT PUSH2 0x303 JUMPI PUSH1 0x20 PUSH1 0x40 MLOAD PUSH1 0x5 DUP2 MSTORE RETURN JUMPDEST CALLVALUE PUSH2 0x303 JUMPI PUSH1 0x0 CALLDATASIZE PUSH1 0x3 NOT ADD SLT PUSH2 0x303 JUMPI PUSH1 0x3 SLOAD PUSH1 0x1 PUSH1 0x1 PUSH1 0xA0 SHL SUB DUP2 AND CALLER SUB PUSH2 0x553 JUMPI PUSH1 0xA0 SHR PUSH1 0xFF AND ISZERO PUSH2 0x541 JUMPI PUSH32 0x6DFF2FE8FBB5B23BF0583BF5B2157FF62CA7E27F2FB4F404914CD0C205CED5CC PUSH1 0x0 DUP1 LOG1 STOP JUMPDEST CALLVALUE PUSH2 0x303 JUMPI PUSH1 0x80 CALLDATASIZE PUSH1 0x3 NOT ADD SLT PUSH2 0x303 JUMPI PUSH1 0x4 PUSH1 0x24 CALLDATALOAD LT ISZERO PUSH2 0x303 JUMPI PUSH1 0xFF PUSH1 0x44 CALLDATALOAD AND PUSH1 0x44 CALLDATALOAD SUB PUSH2 0x303 JUMPI PUSH1 0x64 CALLDATALOAD PUSH1 0x1 PUSH1 0x1 PUSH1 0x40 SHL SUB DUP2 GT PUSH2 0x303 JUMPI PUSH2 0xDBC SWAP1 CALLDATASIZE SWAP1 PUSH1 0x4 ADD PUSH2 0x3B0E JUMP JUMPDEST PUSH1 0xFF PUSH1 0x3 SLOAD PUSH1 0xA0 SHR AND ISZERO PUSH2 0x541 JUMPI PUSH2 0xDD2 PUSH2 0x4503 JUMP JUMPDEST PUSH1 0x4 CALLDATALOAD PUSH1 0x0 SWAP1 DUP2 MSTORE PUSH1 0x5 PUSH1 0x20 MSTORE PUSH1 0x40 DUP2 KECCAK256 PUSH1 0x1 ADD SLOAD PUSH1 0x1 PUSH1 0x1 PUSH1 0xA0 SHL SUB AND DUP1 ISZERO PUSH2 0x14C6 JUMPI CALLER EQ PUSH2 0x14A0 JUMPI PUSH1 0x1 PUSH1 0xFF PUSH1 0x44 CALLDATALOAD AND LT DUP1 ISZERO PUSH2 0x1491 JUMPI JUMPDEST PUSH2 0x1474 JUMPI PUSH1 0x4 CALLDATALOAD PUSH1 0x0 MSTORE PUSH1 0x12 PUSH1 0x20 MSTORE PUSH1 0x40 PUSH1 0x0 KECCAK256 CALLER PUSH1 0x0 MSTORE PUSH1 0x20 MSTORE PUSH1 0xFF PUSH1 0x40 PUSH1 0x0 KECCAK256 SLOAD AND PUSH1 0x0 EQ PUSH2 0x1203 JUMPI PUSH1 0x4 CALLDATALOAD PUSH1 0x0 MSTORE PUSH1 0x10 PUSH1 0x20 MSTORE PUSH1 0x40 PUSH1 0x0 KECCAK256 PUSH1 0x0 JUMPDEST DUP2 SLOAD DUP2 LT ISZERO PUSH2 0x11FA JUMPI PUSH2 0xE5D DUP2 DUP4 PUSH2 0x493F JUMP JUMPDEST POP PUSH1 0x2 ADD SLOAD PUSH1 0x1 PUSH1 0x1 PUSH1 0xA0 SHL SUB AND CALLER EQ PUSH2 0xE7F JUMPI PUSH2 0xE7A SWAP1 PUSH2 0x4566 JUMP JUMPDEST PUSH2 0xE4A JUMP JUMPDEST SWAP2 POP PUSH2 0xE9B PUSH2 0xE8E DUP4 DUP4 PUSH2 0x493F JUMP JUMPDEST POP PUSH1 0x2 PUSH1 0x24 CALLDATALOAD SWAP2 ADD PUSH2 0x495B JUMP JUMPDEST PUSH2 0xEC6 PUSH2 0xEA8 DUP4 DUP4 PUSH2 0x493F JUMP JUMPDEST POP PUSH1 0x2 ADD DUP1 SLOAD PUSH1 0xFF PUSH1 0xA8 SHL NOT AND PUSH1 0x44 CALLDATALOAD PUSH1 0xA8 SHL PUSH1 0xFF PUSH1 0xA8 SHL AND OR SWAP1 SSTORE JUMP JUMPDEST PUSH2 0xED0 DUP3 DUP3 PUSH2 0x493F JUMP JUMPDEST POP DUP4 MLOAD PUSH1 0x1 PUSH1 0x1 PUSH1 0x40 SHL SUB DUP2 GT PUSH2 0x11E4 JUMPI PUSH2 0xEFB DUP2 PUSH2 0xEF2 PUSH1 0x3 DUP6 ADD SLOAD PUSH2 0x4433 JUMP JUMPDEST PUSH1 0x3 DUP6 ADD PUSH2 0x4575 JUMP JUMPDEST PUSH1 0x20 PUSH1 0x1F DUP3 GT PUSH1 0x1 EQ PUSH2 0x1173 JUMPI SWAP1 DUP1 PUSH1 0x3 SWAP3 PUSH2 0xF44 SWAP8 PUSH1 0x0 SWAP3 PUSH2 0x1168 JUMPI JUMPDEST POP POP DUP2 PUSH1 0x1 SHL SWAP2 PUSH1 0x0 NOT SWAP1 DUP5 SHL SHR NOT AND OR SWAP2 ADD SSTORE JUMPDEST PUSH2 0xF38 DUP3 DUP3 PUSH2 0x493F JUMP JUMPDEST POP PUSH1 0x4 TIMESTAMP SWAP2 ADD SSTORE PUSH2 0x493F JUMP JUMPDEST POP SLOAD JUMPDEST PUSH1 0x4 CALLDATALOAD PUSH1 0x0 MSTORE PUSH1 0x10 PUSH1 0x20 MSTORE PUSH1 0x40 PUSH1 0x0 KECCAK256 SWAP1 PUSH1 0x11 PUSH1 0x20 MSTORE PUSH1 0x40 PUSH1 0x0 KECCAK256 DUP3 SLOAD SWAP3 PUSH1 0x0 SWAP1 PUSH1 0x0 DUP1 PUSH1 0x0 SWAP3 PUSH1 0x0 SWAP1 JUMPDEST DUP9 DUP3 LT PUSH2 0x10A4 JUMPI POP POP DUP7 DUP6 SSTORE PUSH1 0x1 DUP6 ADD DUP5 SWAP1 SSTORE PUSH1 0x2 DUP6 ADD SSTORE PUSH1 0x3 DUP5 ADD SSTORE DUP5 ISZERO PUSH2 0x109B JUMPI DUP1 PUSH1 0x64 DUP2 MUL DIV PUSH1 0x64 EQ DUP2 ISZERO OR ISZERO PUSH2 0x1075 JUMPI DUP5 PUSH1 0x64 PUSH2 0xFB3 SWAP3 MUL PUSH2 0x4BE7 JUMP JUMPDEST SWAP4 JUMPDEST PUSH1 0x4 DUP4 ADD SWAP5 DUP6 SSTORE DUP1 ISZERO PUSH2 0x108B JUMPI PUSH1 0x64 DUP3 MUL SWAP5 DUP3 DUP7 DIV PUSH1 0x64 EQ DUP4 ISZERO OR ISZERO PUSH2 0x1075 JUMPI PUSH2 0xFEF PUSH1 0x64 SWAP2 PUSH2 0xFE7 DUP5 PUSH1 0x20 SWAP10 PUSH2 0x4BE7 JUMP JUMPDEST SWAP1 SLOAD SWAP1 PUSH2 0x4338 JUMP JUMPDEST DIV PUSH1 0x5 DUP5 ADD SSTORE JUMPDEST PUSH1 0x4 CALLDATALOAD PUSH1 0x0 MSTORE PUSH1 0xA DUP6 MSTORE PUSH1 0x5 PUSH1 0x40 PUSH1 0x0 KECCAK256 SWAP4 ADD SLOAD PUSH1 0x2 DUP5 ADD SSTORE PUSH1 0x4 DUP4 ADD SSTORE PUSH1 0x5 DUP3 ADD SSTORE PUSH1 0x3 TIMESTAMP SWAP2 ADD SSTORE PUSH1 0x40 MLOAD PUSH2 0x102D PUSH1 0x24 CALLDATALOAD PUSH2 0x3D1E JUMP JUMPDEST PUSH1 0x24 CALLDATALOAD DUP2 MSTORE PUSH1 0xFF PUSH1 0x44 CALLDATALOAD AND DUP4 DUP3 ADD MSTORE TIMESTAMP PUSH1 0x40 DUP3 ADD MSTORE CALLER SWAP1 DUP3 PUSH32 0x940EC28121D8CCD05B4D980BCB62A62F5A62E59ECCA3D8FFE442D91F7D16F95D PUSH1 0x60 PUSH1 0x4 CALLDATALOAD SWAP4 LOG4 PUSH1 0x40 MLOAD SWAP1 DUP2 MSTORE RETURN JUMPDEST PUSH4 0x4E487B71 PUSH1 0xE0 SHL PUSH1 0x0 MSTORE PUSH1 0x11 PUSH1 0x4 MSTORE PUSH1 0x24 PUSH1 0x0 REVERT JUMPDEST PUSH1 0x20 SWAP5 POP PUSH1 0x0 PUSH1 0x5 DUP5 ADD SSTORE PUSH2 0xFF6 JUMP JUMPDEST POP PUSH1 0x0 SWAP4 PUSH2 0xFB5 JUMP JUMPDEST SWAP1 SWAP4 PUSH2 0x10B0 DUP6 DUP4 PUSH2 0x493F JUMP JUMPDEST POP SWAP6 PUSH1 0x2 DUP1 SWAP8 ADD SLOAD SWAP7 PUSH1 0xFF DUP9 PUSH1 0xA0 SHR AND PUSH2 0x10C9 DUP2 PUSH2 0x3D1E JUMP JUMPDEST DUP1 PUSH2 0x10FA JUMPI POP POP PUSH2 0x10F4 SWAP2 PUSH1 0xFF PUSH2 0x10E2 PUSH2 0x10EE SWAP4 PUSH2 0x4566 JUMP JUMPDEST SWAP9 JUMPDEST PUSH1 0xA8 SHR AND SWAP1 PUSH2 0x434B JUMP JUMPDEST SWAP5 PUSH2 0x4566 JUMP JUMPDEST SWAP1 PUSH2 0xF72 JUMP JUMPDEST PUSH2 0x1107 DUP2 SWAP10 SWAP7 SWAP4 SWAP10 PUSH2 0x3D1E JUMP JUMPDEST PUSH1 0x1 DUP2 SUB PUSH2 0x1129 JUMPI POP POP PUSH2 0x10F4 SWAP2 PUSH1 0xFF PUSH2 0x1123 PUSH2 0x10EE SWAP4 PUSH2 0x4566 JUMP JUMPDEST SWAP6 PUSH2 0x10E4 JUMP JUMPDEST PUSH2 0x1135 DUP2 SWAP7 SWAP4 SWAP7 PUSH2 0x3D1E JUMP JUMPDEST EQ PUSH2 0x114A JUMPI JUMPDEST PUSH2 0x10F4 SWAP2 PUSH1 0xFF PUSH2 0x10EE SWAP3 PUSH2 0x10E4 JUMP JUMPDEST SWAP4 PUSH2 0x10F4 SWAP2 PUSH1 0xFF PUSH2 0x115D PUSH2 0x10EE SWAP4 PUSH2 0x4566 JUMP JUMPDEST SWAP7 SWAP3 POP POP SWAP2 POP PUSH2 0x113B JUMP JUMPDEST ADD MLOAD SWAP1 POP DUP8 DUP1 PUSH2 0xF19 JUMP JUMPDEST PUSH1 0x3 DUP4 ADD PUSH1 0x0 MSTORE PUSH1 0x20 PUSH1 0x0 KECCAK256 SWAP6 PUSH1 0x0 JUMPDEST PUSH1 0x1F NOT DUP5 AND DUP2 LT PUSH2 0x11CC JUMPI POP SWAP2 PUSH2 0xF44 SWAP7 PUSH1 0x1 SWAP3 PUSH1 0x3 SWAP5 DUP4 PUSH1 0x1F NOT DUP2 AND LT PUSH2 0x11B4 JUMPI JUMPDEST POP POP POP DUP2 SHL ADD SWAP2 ADD SSTORE PUSH2 0xF2E JUMP JUMPDEST ADD MLOAD PUSH1 0x0 NOT DUP4 DUP7 SHL PUSH1 0xF8 AND SHR NOT AND SWAP1 SSTORE DUP8 DUP1 DUP1 PUSH2 0x11A6 JUMP JUMPDEST DUP3 DUP3 ADD MLOAD DUP9 SSTORE PUSH1 0x1 SWAP1 SWAP8 ADD SWAP7 PUSH1 0x20 SWAP3 DUP4 ADD SWAP3 ADD PUSH2 0x1183 JUMP JUMPDEST PUSH4 0x4E487B71 PUSH1 0xE0 SHL PUSH1 0x0 MSTORE PUSH1 0x41 PUSH1 0x4 MSTORE PUSH1 0x24 PUSH1 0x0 REVERT JUMPDEST POP POP SWAP1 POP PUSH2 0xF47 JUMP JUMPDEST POP PUSH1 0x15 SLOAD PUSH2 0x1210 DUP2 PUSH2 0x4566 JUMP JUMPDEST PUSH1 0x15 SSTORE PUSH1 0x40 MLOAD PUSH1 0x20 DUP2 ADD SWAP2 PUSH1 0x4 CALLDATALOAD DUP4 MSTORE CALLER PUSH1 0x60 SHL PUSH1 0x40 DUP4 ADD MSTORE TIMESTAMP PUSH1 0x54 DUP4 ADD MSTORE PUSH1 0x74 DUP3 ADD MSTORE PUSH1 0x74 DUP2 MSTORE PUSH2 0x1241 DUP2 PUSH2 0x3A9C JUMP JUMPDEST MLOAD SWAP1 KECCAK256 SWAP1 PUSH1 0x40 MLOAD SWAP1 PUSH2 0x1252 DUP3 PUSH2 0x3A65 JUMP JUMPDEST DUP3 DUP3 MSTORE PUSH1 0x4 CALLDATALOAD PUSH1 0x20 DUP4 ADD MSTORE CALLER PUSH1 0x40 DUP4 ADD MSTORE PUSH2 0x126E PUSH1 0x24 CALLDATALOAD PUSH2 0x3D1E JUMP JUMPDEST PUSH1 0x24 CALLDATALOAD PUSH1 0x60 DUP4 ADD MSTORE PUSH1 0xFF PUSH1 0x44 CALLDATALOAD AND PUSH1 0x80 DUP4 ADD MSTORE PUSH1 0xA0 DUP3 ADD MSTORE TIMESTAMP PUSH1 0xC0 DUP3 ADD MSTORE PUSH1 0x0 PUSH1 0xE0 DUP3 ADD MSTORE PUSH1 0x4 CALLDATALOAD PUSH1 0x0 MSTORE PUSH1 0x10 PUSH1 0x20 MSTORE PUSH1 0x40 PUSH1 0x0 KECCAK256 DUP1 SLOAD PUSH1 0x1 PUSH1 0x40 SHL DUP2 LT ISZERO PUSH2 0x11E4 JUMPI PUSH2 0x12C0 SWAP2 PUSH1 0x1 DUP3 ADD DUP2 SSTORE PUSH2 0x493F JUMP JUMPDEST PUSH2 0x145E JUMPI DUP2 MLOAD DUP2 SSTORE PUSH1 0x20 DUP3 ADD MLOAD PUSH1 0x1 DUP3 ADD SSTORE PUSH2 0x132D PUSH1 0x2 DUP3 ADD PUSH1 0x1 DUP1 PUSH1 0xA0 SHL SUB PUSH1 0x40 DUP6 ADD MLOAD AND PUSH1 0x1 PUSH1 0x1 PUSH1 0x60 SHL SUB PUSH1 0xA0 SHL DUP3 SLOAD AND OR DUP2 SSTORE PUSH2 0x130E PUSH1 0x60 DUP6 ADD MLOAD PUSH2 0x1308 DUP2 PUSH2 0x3D1E JUMP JUMPDEST DUP3 PUSH2 0x495B JUMP JUMPDEST PUSH1 0x80 DUP5 ADD MLOAD DUP2 SLOAD PUSH1 0xFF PUSH1 0xA8 SHL NOT AND PUSH1 0xA8 SWAP2 SWAP1 SWAP2 SHL PUSH1 0xFF PUSH1 0xA8 SHL AND OR SWAP1 SSTORE JUMP JUMPDEST PUSH1 0xA0 DUP3 ADD MLOAD DUP1 MLOAD SWAP1 PUSH1 0x1 PUSH1 0x1 PUSH1 0x40 SHL SUB DUP3 GT PUSH2 0x11E4 JUMPI PUSH2 0x135D DUP3 PUSH2 0x1354 PUSH1 0x3 DUP7 ADD SLOAD PUSH2 0x4433 JUMP JUMPDEST PUSH1 0x3 DUP7 ADD PUSH2 0x4575 JUMP JUMPDEST PUSH1 0x20 SWAP1 PUSH1 0x1F DUP4 GT PUSH1 0x1 EQ PUSH2 0x13E9 JUMPI SWAP2 DUP1 PUSH1 0xE0 SWAP5 SWAP3 PUSH1 0x5 SWAP5 PUSH1 0x0 SWAP3 PUSH2 0x13DE JUMPI JUMPDEST POP POP DUP2 PUSH1 0x1 SHL SWAP2 PUSH1 0x0 NOT SWAP1 PUSH1 0x3 SHL SHR NOT AND OR PUSH1 0x3 DUP3 ADD SSTORE JUMPDEST PUSH1 0xC0 DUP5 ADD MLOAD PUSH1 0x4 DUP3 ADD SSTORE ADD SWAP2 ADD MLOAD ISZERO ISZERO SWAP1 PUSH1 0xFF NOT SWAP2 PUSH1 0xFF DUP4 DUP4 SLOAD AND SWAP2 AND OR SWAP1 SSTORE PUSH1 0x4 CALLDATALOAD PUSH1 0x0 MSTORE PUSH1 0x12 PUSH1 0x20 MSTORE PUSH1 0x40 PUSH1 0x0 KECCAK256 CALLER PUSH1 0x0 MSTORE PUSH1 0x20 MSTORE PUSH1 0x1 PUSH1 0x40 PUSH1 0x0 KECCAK256 SWAP2 DUP3 SLOAD AND OR SWAP1 SSTORE PUSH2 0xF47 JUMP JUMPDEST ADD MLOAD SWAP1 POP DUP8 DUP1 PUSH2 0x137C JUMP JUMPDEST SWAP1 PUSH1 0x3 DUP5 ADD PUSH1 0x0 MSTORE PUSH1 0x20 PUSH1 0x0 KECCAK256 SWAP2 PUSH1 0x0 JUMPDEST PUSH1 0x1F NOT DUP6 AND DUP2 LT PUSH2 0x1446 JUMPI POP SWAP3 PUSH1 0xE0 SWAP5 SWAP3 PUSH1 0x1 SWAP3 PUSH1 0x5 SWAP6 DUP4 PUSH1 0x1F NOT DUP2 AND LT PUSH2 0x142D JUMPI JUMPDEST POP POP POP DUP2 SHL ADD PUSH1 0x3 DUP3 ADD SSTORE PUSH2 0x1394 JUMP JUMPDEST ADD MLOAD PUSH1 0x0 NOT PUSH1 0xF8 DUP5 PUSH1 0x3 SHL AND SHR NOT AND SWAP1 SSTORE DUP8 DUP1 DUP1 PUSH2 0x141D JUMP JUMPDEST SWAP2 SWAP3 PUSH1 0x20 PUSH1 0x1 DUP2 SWAP3 DUP7 DUP6 ADD MLOAD DUP2 SSTORE ADD SWAP5 ADD SWAP3 ADD PUSH2 0x13FA JUMP JUMPDEST PUSH4 0x4E487B71 PUSH1 0xE0 SHL PUSH1 0x0 MSTORE PUSH1 0x0 PUSH1 0x4 MSTORE PUSH1 0x24 PUSH1 0x0 REVERT JUMPDEST PUSH1 0x40 MLOAD PUSH4 0x64DF3EA7 PUSH1 0xE0 SHL DUP2 MSTORE PUSH1 0x44 CALLDATALOAD PUSH1 0xFF AND PUSH1 0x4 DUP3 ADD MSTORE PUSH1 0x24 SWAP1 REVERT JUMPDEST POP PUSH1 0x5 PUSH1 0xFF PUSH1 0x44 CALLDATALOAD AND GT PUSH2 0xE0C JUMP JUMPDEST PUSH1 0x40 MLOAD PUSH4 0x2DCEC2ED PUSH1 0xE2 SHL DUP2 MSTORE CALLER PUSH1 0x4 DUP1 DUP4 ADD SWAP2 SWAP1 SWAP2 MSTORE CALLDATALOAD PUSH1 0x24 DUP3 ADD MSTORE PUSH1 0x44 SWAP1 REVERT JUMPDEST SUB SWAP1 REVERT JUMPDEST PUSH1 0x24 PUSH1 0x40 MLOAD PUSH4 0xACBEACF PUSH1 0xE3 SHL DUP2 MSTORE PUSH1 0x4 CALLDATALOAD PUSH1 0x4 DUP3 ADD MSTORE REVERT JUMPDEST CALLVALUE PUSH2 0x303 JUMPI PUSH2 0x14ED CALLDATASIZE PUSH2 0x3A18 JUMP JUMPDEST PUSH1 0x0 DUP3 DUP2 MSTORE PUSH1 0x5 PUSH1 0x20 MSTORE PUSH1 0x40 SWAP1 KECCAK256 PUSH1 0x1 ADD SLOAD SWAP1 SWAP2 SWAP1 PUSH1 0x1 PUSH1 0x1 PUSH1 0xA0 SHL SUB AND ISZERO PUSH2 0x2EB JUMPI PUSH1 0x0 MSTORE PUSH1 0xE PUSH1 0x20 MSTORE PUSH1 0x40 PUSH1 0x0 KECCAK256 SWAP1 PUSH1 0x0 MSTORE PUSH1 0x20 MSTORE PUSH1 0x20 PUSH1 0xFF PUSH1 0x40 PUSH1 0x0 KECCAK256 SLOAD AND PUSH1 0x40 MLOAD SWAP1 ISZERO ISZERO DUP2 MSTORE RETURN JUMPDEST CALLVALUE PUSH2 0x303 JUMPI PUSH1 0x0 CALLDATASIZE PUSH1 0x3 NOT ADD SLT PUSH2 0x303 JUMPI PUSH1 0x20 PUSH1 0x40 MLOAD PUSH1 0x0 DUP2 MSTORE RETURN JUMPDEST CALLVALUE PUSH2 0x303 JUMPI PUSH1 0x0 CALLDATASIZE PUSH1 0x3 NOT ADD SLT PUSH2 0x303 JUMPI PUSH1 0x20 PUSH1 0x40 MLOAD PUSH32 0xDA774A9A6475B94924A168725D00B478D90CBF28E9176D635F3DAB48A3A91508 DUP2 MSTORE RETURN JUMPDEST CALLVALUE PUSH2 0x303 JUMPI PUSH1 0x20 CALLDATASIZE PUSH1 0x3 NOT ADD SLT PUSH2 0x303 JUMPI PUSH1 0x4 CALLDATALOAD PUSH2 0x15AC PUSH2 0x47E0 JUMP JUMPDEST POP PUSH1 0x0 DUP2 DUP2 MSTORE PUSH1 0x5 PUSH1 0x20 MSTORE PUSH1 0x40 SWAP1 KECCAK256 PUSH1 0x1 ADD SLOAD PUSH1 0x1 PUSH1 0x1 PUSH1 0xA0 SHL SUB AND ISZERO PUSH2 0x2EB JUMPI PUSH1 0x0 MSTORE PUSH1 0x11 PUSH1 0x20 MSTORE PUSH1 0xC0 PUSH2 0x15E4 PUSH1 0x40 PUSH1 0x0 KECCAK256 PUSH2 0x497F JUMP JUMPDEST PUSH2 0x826 PUSH1 0x40 MLOAD DUP1 SWAP3 PUSH2 0x3E50 JUMP JUMPDEST CALLVALUE PUSH2 0x303 JUMPI PUSH1 0x20 PUSH2 0x160A PUSH2 0x1604 CALLDATASIZE PUSH2 0x3A18 JUMP JUMPDEST SWAP1 PUSH2 0x4E97 JUMP JUMPDEST PUSH1 0x40 MLOAD SWAP1 DUP2 MSTORE RETURN JUMPDEST CALLVALUE PUSH2 0x303 JUMPI PUSH1 0x20 CALLDATASIZE PUSH1 0x3 NOT ADD SLT PUSH2 0x303 JUMPI PUSH1 0x4 CALLDATALOAD PUSH1 0x0 MSTORE PUSH1 0x5 PUSH1 0x20 MSTORE PUSH1 0x20 PUSH1 0x1 DUP1 PUSH1 0xA0 SHL SUB PUSH1 0x1 PUSH1 0x40 PUSH1 0x0 KECCAK256 ADD SLOAD AND ISZERO ISZERO PUSH1 0x40 MLOAD SWAP1 DUP2 MSTORE RETURN JUMPDEST CALLVALUE PUSH2 0x303 JUMPI PUSH1 0x40 CALLDATASIZE PUSH1 0x3 NOT ADD SLT PUSH2 0x303 JUMPI PUSH2 0x1664 PUSH2 0x3CC1 JUMP JUMPDEST PUSH1 0x4 CALLDATALOAD PUSH1 0x0 MSTORE PUSH1 0x0 PUSH1 0x20 MSTORE PUSH1 0x40 PUSH1 0x0 KECCAK256 SWAP1 PUSH1 0x1 DUP1 PUSH1 0xA0 SHL SUB AND PUSH1 0x0 MSTORE PUSH1 0x20 MSTORE PUSH1 0x20 PUSH1 0xFF PUSH1 0x40 PUSH1 0x0 KECCAK256 SLOAD AND PUSH1 0x40 MLOAD SWAP1 ISZERO ISZERO DUP2 MSTORE RETURN JUMPDEST CALLVALUE PUSH2 0x303 JUMPI PUSH1 0x20 DUP1 PUSH1 0x3 NOT CALLDATASIZE ADD SLT PUSH2 0x303 JUMPI PUSH1 0x4 CALLDATALOAD PUSH1 0x0 PUSH1 0xE0 PUSH1 0x40 MLOAD PUSH2 0x16BD DUP2 PUSH2 0x3A65 JUMP JUMPDEST DUP3 DUP2 MSTORE DUP3 DUP6 DUP3 ADD MSTORE DUP3 PUSH1 0x40 DUP3 ADD MSTORE PUSH2 0x16D3 PUSH2 0x47E0 JUMP JUMPDEST PUSH1 0x60 DUP3 ADD MSTORE PUSH1 0x60 PUSH1 0x80 DUP3 ADD MSTORE PUSH2 0x16E7 PUSH2 0x47E0 JUMP JUMPDEST PUSH1 0xA0 DUP3 ADD MSTORE PUSH1 0xC0 DUP2 ADD DUP4 SWAP1 MSTORE ADD MSTORE PUSH1 0x0 DUP2 DUP2 MSTORE PUSH1 0x5 DUP4 MSTORE PUSH1 0x40 SWAP1 KECCAK256 PUSH1 0x1 DUP2 ADD SLOAD PUSH1 0x1 PUSH1 0x1 PUSH1 0xA0 SHL SUB SWAP2 SWAP1 DUP3 AND SWAP1 DUP2 ISZERO PUSH2 0x72C JUMPI CALLER DUP3 EQ ISZERO DUP1 PUSH2 0x18CB JUMPI JUMPDEST PUSH2 0x18AC JUMPI DUP4 PUSH1 0x0 MSTORE PUSH1 0xA DUP6 MSTORE PUSH1 0x40 PUSH1 0x0 KECCAK256 PUSH1 0xD DUP7 MSTORE PUSH1 0x40 PUSH1 0x0 KECCAK256 SWAP1 PUSH1 0x11 DUP8 MSTORE PUSH1 0x40 PUSH1 0x0 KECCAK256 SWAP2 DUP2 SLOAD PUSH1 0x1 DUP4 ADD SLOAD DUP10 DUP10 DUP9 PUSH1 0x2 DUP8 ADD SLOAD PUSH1 0x3 DUP9 ADD SLOAD SWAP8 PUSH1 0x4 DUP2 ADD SLOAD SWAP1 PUSH1 0x5 ADD SLOAD SWAP1 PUSH1 0x40 MLOAD SWAP10 PUSH2 0x1776 DUP12 PUSH2 0x3A81 JUMP JUMPDEST DUP9 DUP12 MSTORE DUP8 DUP8 DUP13 ADD MSTORE DUP4 PUSH1 0x40 DUP13 ADD MSTORE PUSH1 0x60 DUP12 ADD MSTORE PUSH1 0x80 DUP11 ADD MSTORE PUSH1 0xA0 DUP10 ADD MSTORE PUSH1 0x40 MLOAD SWAP5 DUP6 SWAP5 DUP6 ADD SWAP7 TIMESTAMP SWAP4 PUSH2 0x17D9 SWAP6 DUP10 SWAP5 SWAP3 SWAP1 SWAP2 PUSH1 0xB4 SWAP7 SWAP5 SWAP3 DUP7 MSTORE PUSH1 0x1 PUSH1 0x1 PUSH1 0x60 SHL SUB NOT SWAP1 PUSH1 0x60 SHL AND PUSH1 0x20 DUP7 ADD MSTORE PUSH1 0x34 DUP6 ADD MSTORE PUSH1 0x54 DUP5 ADD MSTORE PUSH1 0x74 DUP4 ADD MSTORE PUSH1 0x94 DUP3 ADD MSTORE ADD SWAP1 JUMP JUMPDEST SUB PUSH1 0x1F NOT DUP2 ADD DUP3 MSTORE PUSH2 0x17EB SWAP1 DUP3 PUSH2 0x3AED JUMP JUMPDEST MLOAD SWAP1 KECCAK256 SWAP4 PUSH1 0x2 ADD SLOAD SWAP1 PUSH1 0x40 MLOAD SWAP8 PUSH2 0x1801 DUP10 PUSH2 0x3A65 JUMP JUMPDEST DUP9 MSTORE DUP9 DUP9 ADD SWAP6 DUP7 MSTORE PUSH1 0x40 DUP9 ADD SWAP2 DUP3 MSTORE PUSH1 0x60 DUP9 ADD SWAP3 DUP4 MSTORE PUSH2 0x1820 SWAP1 PUSH2 0x48D5 JUMP JUMPDEST SWAP3 PUSH1 0x80 DUP9 ADD SWAP4 DUP5 MSTORE PUSH2 0x1831 SWAP1 PUSH2 0x497F JUMP JUMPDEST SWAP6 PUSH1 0xA0 DUP9 ADD SWAP7 DUP8 MSTORE PUSH1 0xC0 DUP9 ADD SWAP6 TIMESTAMP DUP8 MSTORE PUSH1 0xE0 DUP10 ADD SWAP6 DUP7 MSTORE PUSH1 0x40 MLOAD SWAP10 DUP11 SWAP10 DUP2 DUP12 MSTORE MLOAD SWAP1 DUP11 ADD MSTORE MLOAD AND PUSH1 0x40 DUP9 ADD MSTORE MLOAD PUSH1 0x60 DUP8 ADD MSTORE MLOAD PUSH1 0x80 DUP7 ADD PUSH2 0x1871 SWAP2 PUSH2 0x3E50 JUMP JUMPDEST MLOAD SWAP2 PUSH2 0x240 SWAP3 DUP4 PUSH2 0x140 DUP8 ADD MSTORE PUSH2 0x260 DUP7 ADD PUSH2 0x188C SWAP2 PUSH2 0x3BDE JUMP JUMPDEST SWAP4 MLOAD PUSH2 0x160 DUP7 ADD PUSH2 0x189C SWAP2 PUSH2 0x3E50 JUMP JUMPDEST MLOAD PUSH2 0x220 DUP6 ADD MSTORE MLOAD SWAP1 DUP4 ADD MSTORE SUB SWAP1 RETURN JUMPDEST PUSH1 0x40 MLOAD PUSH4 0x79F18C87 PUSH1 0xE1 SHL DUP2 MSTORE PUSH1 0x4 DUP2 ADD DUP6 SWAP1 MSTORE CALLER PUSH1 0x24 DUP3 ADD MSTORE PUSH1 0x44 SWAP1 REVERT JUMPDEST POP PUSH1 0x0 DUP1 MLOAD PUSH1 0x20 PUSH2 0x5040 DUP4 CODECOPY DUP2 MLOAD SWAP2 MSTORE PUSH1 0x0 MSTORE PUSH1 0x0 DUP6 MSTORE PUSH1 0x40 PUSH1 0x0 KECCAK256 CALLER PUSH1 0x0 MSTORE DUP6 MSTORE PUSH1 0xFF PUSH1 0x40 PUSH1 0x0 KECCAK256 SLOAD AND ISZERO PUSH2 0x1724 JUMP JUMPDEST CALLVALUE PUSH2 0x303 JUMPI PUSH1 0xE0 CALLDATASIZE PUSH1 0x3 NOT ADD SLT PUSH2 0x303 JUMPI PUSH1 0x44 CALLDATALOAD PUSH1 0x1 PUSH1 0x1 PUSH1 0x40 SHL SUB DUP2 GT PUSH2 0x303 JUMPI PUSH2 0x192C SWAP1 CALLDATASIZE SWAP1 PUSH1 0x4 ADD PUSH2 0x3B0E JUMP JUMPDEST PUSH1 0x64 CALLDATALOAD PUSH1 0x1 PUSH1 0x1 PUSH1 0x40 SHL SUB DUP2 GT PUSH2 0x303 JUMPI PUSH2 0x194B SWAP1 CALLDATASIZE SWAP1 PUSH1 0x4 ADD PUSH2 0x3B0E JUMP JUMPDEST PUSH1 0x84 CALLDATALOAD PUSH1 0x1 PUSH1 0x1 PUSH1 0x40 SHL SUB DUP2 GT PUSH2 0x303 JUMPI PUSH2 0x196A SWAP1 CALLDATASIZE SWAP1 PUSH1 0x4 ADD PUSH2 0x3B0E JUMP JUMPDEST SWAP1 PUSH1 0xC4 CALLDATALOAD PUSH1 0x1 PUSH1 0x1 PUSH1 0x40 SHL SUB DUP2 GT PUSH2 0x303 JUMPI PUSH2 0x198A SWAP1 CALLDATASIZE SWAP1 PUSH1 0x4 ADD PUSH2 0x3B0E JUMP JUMPDEST CALLER PUSH1 0x0 SWAP1 DUP2 MSTORE PUSH32 0x4DE34185E10013FBFE1A860075230346604C2105E70CECBDCD54936CC1A12A49 PUSH1 0x20 MSTORE PUSH1 0x40 SWAP1 KECCAK256 SLOAD PUSH32 0x6FA27AC1CDD2E2EDA2FB653A3D18C7B6FFE16599817716F8819988196F8EE95E SWAP1 PUSH1 0xFF AND ISZERO PUSH2 0x1F62 JUMPI POP PUSH1 0xFF PUSH1 0x3 SLOAD PUSH1 0xA0 SHR AND ISZERO PUSH2 0x541 JUMPI PUSH2 0x19FA PUSH2 0x4503 JUMP JUMPDEST PUSH1 0x4 CALLDATALOAD PUSH1 0x0 SWAP1 DUP2 MSTORE PUSH1 0x5 PUSH1 0x20 MSTORE PUSH1 0x40 SWAP1 KECCAK256 PUSH1 0x1 ADD SLOAD PUSH1 0x1 PUSH1 0x1 PUSH1 0xA0 SHL SUB AND ISZERO PUSH2 0x14C6 JUMPI PUSH1 0x4 CALLDATALOAD PUSH1 0x0 MSTORE PUSH1 0xE PUSH1 0x20 MSTORE PUSH1 0x40 PUSH1 0x0 KECCAK256 PUSH1 0x24 CALLDATALOAD PUSH1 0x0 MSTORE PUSH1 0x20 MSTORE PUSH1 0xFF PUSH1 0x40 PUSH1 0x0 KECCAK256 SLOAD AND PUSH2 0x1F41 JUMPI PUSH1 0x40 MLOAD SWAP2 PUSH2 0x1A50 DUP4 PUSH2 0x3A2E JUMP JUMPDEST PUSH1 0x24 CALLDATALOAD DUP4 MSTORE PUSH1 0x4 CALLDATALOAD PUSH1 0x20 DUP5 ADD MSTORE DUP5 PUSH1 0x40 DUP5 ADD MSTORE PUSH1 0x60 DUP4 ADD MSTORE DUP3 PUSH1 0x80 DUP4 ADD MSTORE PUSH1 0xA0 DUP3 ADD MSTORE TIMESTAMP PUSH1 0xC0 DUP3 ADD MSTORE CALLER PUSH1 0xE0 DUP3 ADD MSTORE PUSH1 0xA4 CALLDATALOAD PUSH2 0x100 DUP3 ADD MSTORE PUSH1 0x4 CALLDATALOAD PUSH1 0x0 MSTORE PUSH1 0xD PUSH1 0x20 MSTORE PUSH1 0x40 PUSH1 0x0 KECCAK256 DUP1 SLOAD PUSH1 0x1 PUSH1 0x40 SHL DUP2 LT ISZERO PUSH2 0x11E4 JUMPI PUSH2 0x1AB5 SWAP2 PUSH1 0x1 DUP3 ADD DUP2 SSTORE PUSH2 0x4812 JUMP JUMPDEST SWAP2 SWAP1 SWAP2 PUSH2 0x145E JUMPI DUP1 MLOAD DUP3 SSTORE PUSH1 0x20 DUP2 ADD MLOAD PUSH1 0x1 DUP4 ADD SSTORE PUSH1 0x40 DUP2 ADD MLOAD DUP1 MLOAD SWAP1 PUSH1 0x1 PUSH1 0x1 PUSH1 0x40 SHL SUB DUP3 GT PUSH2 0x11E4 JUMPI DUP2 SWAP1 PUSH2 0x1AFC DUP3 PUSH2 0x1AF3 PUSH1 0x2 DUP9 ADD SLOAD PUSH2 0x4433 JUMP JUMPDEST PUSH1 0x2 DUP9 ADD PUSH2 0x4575 JUMP JUMPDEST PUSH1 0x20 SWAP1 PUSH1 0x1F DUP4 GT PUSH1 0x1 EQ PUSH2 0x1ECF JUMPI PUSH1 0x0 SWAP3 PUSH2 0x1EC4 JUMPI JUMPDEST POP POP DUP2 PUSH1 0x1 SHL SWAP2 PUSH1 0x0 NOT SWAP1 PUSH1 0x3 SHL SHR NOT AND OR PUSH1 0x2 DUP4 ADD SSTORE JUMPDEST PUSH1 0x60 DUP2 ADD MLOAD DUP1 MLOAD SWAP1 PUSH1 0x1 PUSH1 0x1 PUSH1 0x40 SHL SUB DUP3 GT PUSH2 0x11E4 JUMPI DUP2 SWAP1 PUSH2 0x1B5C DUP3 PUSH2 0x1B53 PUSH1 0x3 DUP9 ADD SLOAD PUSH2 0x4433 JUMP JUMPDEST PUSH1 0x3 DUP9 ADD PUSH2 0x4575 JUMP JUMPDEST PUSH1 0x20 SWAP1 PUSH1 0x1F DUP4 GT PUSH1 0x1 EQ PUSH2 0x1E52 JUMPI PUSH1 0x0 SWAP3 PUSH2 0x1E47 JUMPI JUMPDEST POP POP DUP2 PUSH1 0x1 SHL SWAP2 PUSH1 0x0 NOT SWAP1 PUSH1 0x3 SHL SHR NOT AND OR PUSH1 0x3 DUP4 ADD SSTORE JUMPDEST PUSH1 0x80 DUP2 ADD MLOAD DUP1 MLOAD SWAP1 PUSH1 0x1 PUSH1 0x1 PUSH1 0x40 SHL SUB DUP3 GT PUSH2 0x11E4 JUMPI DUP2 SWAP1 PUSH2 0x1BBC DUP3 PUSH2 0x1BB3 PUSH1 0x4 DUP9 ADD SLOAD PUSH2 0x4433 JUMP JUMPDEST PUSH1 0x4 DUP9 ADD PUSH2 0x4575 JUMP JUMPDEST PUSH1 0x20 SWAP1 PUSH1 0x1F DUP4 GT PUSH1 0x1 EQ PUSH2 0x1DD5 JUMPI PUSH1 0x0 SWAP3 PUSH2 0x1DCA JUMPI JUMPDEST POP POP DUP2 PUSH1 0x1 SHL SWAP2 PUSH1 0x0 NOT SWAP1 PUSH1 0x3 SHL SHR NOT AND OR PUSH1 0x4 DUP4 ADD SSTORE JUMPDEST PUSH1 0xA0 DUP2 ADD MLOAD DUP1 MLOAD SWAP1 PUSH1 0x1 PUSH1 0x1 PUSH1 0x40 SHL SUB DUP3 GT PUSH2 0x11E4 JUMPI PUSH2 0x1C1A DUP3 PUSH2 0x1C11 PUSH1 0x5 DUP8 ADD SLOAD PUSH2 0x4433 JUMP JUMPDEST PUSH1 0x5 DUP8 ADD PUSH2 0x4575 JUMP JUMPDEST PUSH1 0x20 SWAP1 PUSH1 0x1F DUP4 GT PUSH1 0x1 EQ PUSH2 0x1D54 JUMPI SWAP2 DUP1 PUSH1 0x8 SWAP5 SWAP3 PUSH2 0x100 SWAP5 PUSH1 0x0 SWAP3 PUSH2 0x1D49 JUMPI JUMPDEST POP POP DUP2 PUSH1 0x1 SHL SWAP2 PUSH1 0x0 NOT SWAP1 PUSH1 0x3 SHL SHR NOT AND OR PUSH1 0x5 DUP6 ADD SSTORE JUMPDEST PUSH1 0xC0 DUP2 ADD MLOAD PUSH1 0x6 DUP6 ADD SSTORE PUSH1 0x7 DUP5 ADD PUSH1 0x1 DUP1 PUSH1 0xA0 SHL SUB PUSH1 0xE0 DUP4 ADD MLOAD AND PUSH1 0x1 PUSH1 0x1 PUSH1 0x60 SHL SUB PUSH1 0xA0 SHL DUP3 SLOAD AND OR SWAP1 SSTORE ADD MLOAD SWAP2 ADD SSTORE PUSH1 0x4 CALLDATALOAD PUSH1 0x0 MSTORE PUSH1 0xE PUSH1 0x20 MSTORE PUSH1 0x40 PUSH1 0x0 KECCAK256 PUSH1 0x24 CALLDATALOAD PUSH1 0x0 MSTORE PUSH1 0x20 MSTORE PUSH1 0x40 PUSH1 0x0 KECCAK256 PUSH1 0x1 PUSH1 0xFF NOT DUP3 SLOAD AND OR SWAP1 SSTORE PUSH1 0x20 DUP2 MLOAD SWAP2 ADD KECCAK256 PUSH1 0x0 MSTORE PUSH1 0xF PUSH1 0x20 MSTORE PUSH2 0x1CCB PUSH1 0x24 CALLDATALOAD PUSH1 0x40 PUSH1 0x0 KECCAK256 PUSH2 0x4661 JUMP JUMPDEST POP PUSH1 0x4 CALLDATALOAD PUSH1 0x0 MSTORE PUSH1 0xA PUSH1 0x20 MSTORE PUSH1 0x40 PUSH1 0x0 KECCAK256 PUSH2 0x1CE9 PUSH1 0xA4 CALLDATALOAD DUP3 SLOAD PUSH2 0x434B JUMP JUMPDEST DUP2 SSTORE PUSH1 0x3 TIMESTAMP SWAP2 ADD SSTORE PUSH2 0x1D06 PUSH1 0x40 MLOAD SWAP2 PUSH1 0x80 DUP4 MSTORE PUSH1 0x80 DUP4 ADD SWAP1 PUSH2 0x3BB9 JUMP JUMPDEST PUSH1 0xA4 CALLDATALOAD PUSH1 0x20 DUP4 ADD MSTORE CALLER PUSH1 0x40 DUP4 ADD MSTORE TIMESTAMP PUSH1 0x60 DUP4 ADD MSTORE PUSH32 0x662E17C0376D55E9C8648D13854158519F3A5D03326E4EF01F9B574FBC22C7A2 PUSH1 0x24 CALLDATALOAD SWAP3 DUP1 PUSH1 0x4 CALLDATALOAD SWAP4 SUB SWAP1 LOG3 STOP JUMPDEST ADD MLOAD SWAP1 POP DUP9 DUP1 PUSH2 0x1C3A JUMP JUMPDEST SWAP1 PUSH1 0x5 DUP6 ADD PUSH1 0x0 MSTORE PUSH1 0x20 PUSH1 0x0 KECCAK256 SWAP2 PUSH1 0x0 JUMPDEST PUSH1 0x1F NOT DUP6 AND DUP2 LT PUSH2 0x1DB2 JUMPI POP SWAP3 PUSH1 0x8 SWAP5 SWAP3 PUSH1 0x1 SWAP3 PUSH2 0x100 SWAP6 DUP4 PUSH1 0x1F NOT DUP2 AND LT PUSH2 0x1D99 JUMPI JUMPDEST POP POP POP DUP2 SHL ADD PUSH1 0x5 DUP6 ADD SSTORE PUSH2 0x1C52 JUMP JUMPDEST ADD MLOAD PUSH1 0x0 NOT PUSH1 0xF8 DUP5 PUSH1 0x3 SHL AND SHR NOT AND SWAP1 SSTORE DUP9 DUP1 DUP1 PUSH2 0x1D89 JUMP JUMPDEST SWAP2 SWAP3 PUSH1 0x20 PUSH1 0x1 DUP2 SWAP3 DUP7 DUP6 ADD MLOAD DUP2 SSTORE ADD SWAP5 ADD SWAP3 ADD PUSH2 0x1D65 JUMP JUMPDEST ADD MLOAD SWAP1 POP DUP7 DUP1 PUSH2 0x1BD2 JUMP JUMPDEST SWAP3 POP PUSH1 0x4 DUP6 ADD PUSH1 0x0 MSTORE PUSH1 0x20 PUSH1 0x0 KECCAK256 SWAP1 PUSH1 0x0 SWAP4 JUMPDEST PUSH1 0x1F NOT DUP5 AND DUP6 LT PUSH2 0x1E2C JUMPI PUSH1 0x1 SWAP5 POP DUP4 PUSH1 0x1F NOT DUP2 AND LT PUSH2 0x1E13 JUMPI JUMPDEST POP POP POP DUP2 SHL ADD PUSH1 0x4 DUP4 ADD SSTORE PUSH2 0x1BEA JUMP JUMPDEST ADD MLOAD PUSH1 0x0 NOT PUSH1 0xF8 DUP5 PUSH1 0x3 SHL AND SHR NOT AND SWAP1 SSTORE DUP7 DUP1 DUP1 PUSH2 0x1E03 JUMP JUMPDEST DUP2 DUP2 ADD MLOAD DUP4 SSTORE PUSH1 0x20 SWAP5 DUP6 ADD SWAP5 PUSH1 0x1 SWAP1 SWAP4 ADD SWAP3 SWAP1 SWAP2 ADD SWAP1 PUSH2 0x1DE8 JUMP JUMPDEST ADD MLOAD SWAP1 POP DUP7 DUP1 PUSH2 0x1B72 JUMP JUMPDEST SWAP3 POP PUSH1 0x3 DUP6 ADD PUSH1 0x0 MSTORE PUSH1 0x20 PUSH1 0x0 KECCAK256 SWAP1 PUSH1 0x0 SWAP4 JUMPDEST PUSH1 0x1F NOT DUP5 AND DUP6 LT PUSH2 0x1EA9 JUMPI PUSH1 0x1 SWAP5 POP DUP4 PUSH1 0x1F NOT DUP2 AND LT PUSH2 0x1E90 JUMPI JUMPDEST POP POP POP DUP2 SHL ADD PUSH1 0x3 DUP4 ADD SSTORE PUSH2 0x1B8A JUMP JUMPDEST ADD MLOAD PUSH1 0x0 NOT PUSH1 0xF8 DUP5 PUSH1 0x3 SHL AND SHR NOT AND SWAP1 SSTORE DUP7 DUP1 DUP1 PUSH2 0x1E80 JUMP JUMPDEST DUP2 DUP2 ADD MLOAD DUP4 SSTORE PUSH1 0x20 SWAP5 DUP6 ADD SWAP5 PUSH1 0x1 SWAP1 SWAP4 ADD SWAP3 SWAP1 SWAP2 ADD SWAP1 PUSH2 0x1E65 JUMP JUMPDEST ADD MLOAD SWAP1 POP DUP7 DUP1 PUSH2 0x1B12 JUMP JUMPDEST SWAP3 POP PUSH1 0x2 DUP6 ADD PUSH1 0x0 MSTORE PUSH1 0x20 PUSH1 0x0 KECCAK256 SWAP1 PUSH1 0x0 SWAP4 JUMPDEST PUSH1 0x1F NOT DUP5 AND DUP6 LT PUSH2 0x1F26 JUMPI PUSH1 0x1 SWAP5 POP DUP4 PUSH1 0x1F NOT DUP2 AND LT PUSH2 0x1F0D JUMPI JUMPDEST POP POP POP DUP2 SHL ADD PUSH1 0x2 DUP4 ADD SSTORE PUSH2 0x1B2A JUMP JUMPDEST ADD MLOAD PUSH1 0x0 NOT PUSH1 0xF8 DUP5 PUSH1 0x3 SHL AND SHR NOT AND SWAP1 SSTORE DUP7 DUP1 DUP1 PUSH2 0x1EFD JUMP JUMPDEST DUP2 DUP2 ADD MLOAD DUP4 SSTORE PUSH1 0x20 SWAP5 DUP6 ADD SWAP5 PUSH1 0x1 SWAP1 SWAP4 ADD SWAP3 SWAP1 SWAP2 ADD SWAP1 PUSH2 0x1EE2 JUMP JUMPDEST PUSH1 0x44 PUSH1 0x40 MLOAD PUSH4 0x85F42871 PUSH1 0xE0 SHL DUP2 MSTORE PUSH1 0x4 CALLDATALOAD PUSH1 0x4 DUP3 ADD MSTORE PUSH1 0x24 CALLDATALOAD PUSH1 0x24 DUP3 ADD MSTORE REVERT JUMPDEST PUSH2 0x1F6B CALLER PUSH2 0x4369 JUMP JUMPDEST PUSH1 0x40 MLOAD SWAP2 PUSH2 0x1F78 DUP4 PUSH2 0x3AD2 JUMP JUMPDEST PUSH1 0x42 DUP4 MSTORE PUSH1 0x20 DUP4 ADD SWAP1 PUSH1 0x60 CALLDATASIZE DUP4 CALLDATACOPY DUP4 MLOAD ISZERO PUSH2 0x20DD JUMPI PUSH1 0x30 DUP3 MSTORE8 DUP4 MLOAD PUSH1 0x1 SWAP1 DUP2 LT ISZERO PUSH2 0x20DD JUMPI PUSH1 0x78 PUSH1 0x21 DUP7 ADD MSTORE8 PUSH1 0x41 SWAP1 JUMPDEST DUP1 DUP3 GT PUSH2 0x2099 JUMPI POP POP PUSH2 0x2055 JUMPI PUSH1 0x48 PUSH2 0x2026 SWAP3 PUSH2 0x2035 SWAP3 PUSH2 0x14C2 SWAP6 PUSH1 0x40 MLOAD SWAP6 DUP7 SWAP4 PUSH23 0x20B1B1B2B9B9A1B7B73A3937B61D1030B1B1B7BAB73A1 PUSH1 0x4D SHL PUSH1 0x20 DUP7 ADD MSTORE PUSH2 0x1FFD DUP2 MLOAD DUP1 SWAP3 PUSH1 0x20 PUSH1 0x37 DUP10 ADD SWAP2 ADD PUSH2 0x3B96 JUMP JUMPDEST DUP5 ADD SWAP2 PUSH17 0x1034B99036B4B9B9B4B733903937B6329 PUSH1 0x7D SHL PUSH1 0x37 DUP5 ADD MSTORE MLOAD DUP1 SWAP4 DUP7 DUP5 ADD SWAP1 PUSH2 0x3B96 JUMP JUMPDEST ADD SUB PUSH1 0x28 DUP2 ADD DUP5 MSTORE ADD DUP3 PUSH2 0x3AED JUMP JUMPDEST PUSH1 0x40 MLOAD PUSH3 0x461BCD PUSH1 0xE5 SHL DUP2 MSTORE PUSH1 0x20 PUSH1 0x4 DUP3 ADD MSTORE SWAP2 DUP3 SWAP2 PUSH1 0x24 DUP4 ADD SWAP1 PUSH2 0x3BB9 JUMP JUMPDEST PUSH1 0x64 PUSH1 0x40 MLOAD PUSH3 0x461BCD PUSH1 0xE5 SHL DUP2 MSTORE PUSH1 0x20 PUSH1 0x4 DUP3 ADD MSTORE PUSH1 0x20 PUSH1 0x24 DUP3 ADD MSTORE PUSH32 0x537472696E67733A20686578206C656E67746820696E73756666696369656E74 PUSH1 0x44 DUP3 ADD MSTORE REVERT JUMPDEST SWAP1 SWAP2 PUSH1 0xF DUP2 AND PUSH1 0x10 DUP2 LT ISZERO PUSH2 0x20DD JUMPI PUSH16 0x181899199A1A9B1B9C1CB0B131B232B3 PUSH1 0x81 SHL SWAP1 BYTE PUSH2 0x20C8 DUP5 DUP9 PUSH2 0x4358 JUMP JUMPDEST MSTORE8 PUSH1 0x4 SHR SWAP2 DUP1 ISZERO PUSH2 0x1075 JUMPI PUSH1 0x0 NOT ADD SWAP1 PUSH2 0x1FA8 JUMP JUMPDEST PUSH4 0x4E487B71 PUSH1 0xE0 SHL PUSH1 0x0 MSTORE PUSH1 0x32 PUSH1 0x4 MSTORE PUSH1 0x24 PUSH1 0x0 REVERT JUMPDEST CALLVALUE PUSH2 0x303 JUMPI PUSH1 0x0 CALLDATASIZE PUSH1 0x3 NOT ADD SLT PUSH2 0x303 JUMPI PUSH1 0x20 PUSH1 0x40 MLOAD PUSH1 0x0 DUP1 MLOAD PUSH1 0x20 PUSH2 0x5040 DUP4 CODECOPY DUP2 MLOAD SWAP2 MSTORE DUP2 MSTORE RETURN JUMPDEST CALLVALUE PUSH2 0x303 JUMPI PUSH1 0x0 CALLDATASIZE PUSH1 0x3 NOT ADD SLT PUSH2 0x303 JUMPI PUSH2 0x2135 PUSH2 0x4075 JUMP JUMPDEST PUSH1 0xFF PUSH1 0x3 SLOAD PUSH1 0xA0 SHR AND ISZERO PUSH2 0x541 JUMPI PUSH2 0x214B PUSH2 0x4503 JUMP JUMPDEST PUSH1 0x1 PUSH1 0xFF NOT DUP2 SLOAD AND OR PUSH1 0x1 SSTORE PUSH32 0x62E78CEA01BEE320CD4E420270B5EA74000D11B0C9F74754EBDBFC544B05A258 PUSH1 0x20 PUSH1 0x40 MLOAD CALLER DUP2 MSTORE LOG1 STOP JUMPDEST PUSH2 0x3D01 JUMP JUMPDEST CALLVALUE PUSH2 0x303 JUMPI PUSH1 0x0 CALLDATASIZE PUSH1 0x3 NOT ADD SLT PUSH2 0x303 JUMPI PUSH1 0x3 SLOAD PUSH1 0x40 MLOAD PUSH1 0x1 PUSH1 0x1 PUSH1 0xA0 SHL SUB SWAP1 SWAP2 AND DUP2 MSTORE PUSH1 0x20 SWAP1 RETURN JUMPDEST CALLVALUE PUSH2 0x303 JUMPI PUSH1 0x0 CALLDATASIZE PUSH1 0x3 NOT ADD SLT PUSH2 0x303 JUMPI PUSH1 0x20 PUSH1 0x40 MLOAD PUSH32 0xA49807205CE4D355092EF5A8A18F56E8913CF4A201FBE287825B095693C21775 DUP2 MSTORE RETURN JUMPDEST CALLVALUE PUSH2 0x303 JUMPI PUSH1 0x20 DUP1 PUSH1 0x3 NOT CALLDATASIZE ADD SLT PUSH2 0x303 JUMPI PUSH1 0x4 CALLDATALOAD PUSH1 0x0 MSTORE PUSH1 0x9 DUP2 MSTORE PUSH1 0x40 PUSH1 0x0 KECCAK256 SWAP1 PUSH1 0x40 MLOAD SWAP1 DUP2 DUP2 DUP5 SLOAD SWAP2 DUP3 DUP2 MSTORE ADD SWAP4 PUSH1 0x0 MSTORE DUP2 PUSH1 0x0 KECCAK256 SWAP2 PUSH1 0x0 SWAP1 JUMPDEST DUP3 DUP3 LT PUSH2 0x223F JUMPI PUSH2 0x2E7 DUP6 PUSH2 0x322 DUP2 DUP10 SUB DUP3 PUSH2 0x3AED JUMP JUMPDEST DUP4 SLOAD DUP7 MSTORE SWAP5 DUP6 ADD SWAP5 PUSH1 0x1 SWAP4 DUP5 ADD SWAP4 SWAP1 SWAP2 ADD SWAP1 PUSH2 0x2228 JUMP JUMPDEST CALLVALUE PUSH2 0x303 JUMPI PUSH1 0x3 NOT PUSH1 0x60 CALLDATASIZE DUP3 ADD SLT PUSH2 0x303 JUMPI PUSH1 0x4 CALLDATALOAD SWAP1 PUSH1 0x1 PUSH1 0x1 PUSH1 0x40 SHL SUB PUSH1 0x24 CALLDATALOAD GT PUSH2 0x303 JUMPI PUSH2 0x240 SWAP1 PUSH1 0x24 CALLDATALOAD CALLDATASIZE SUB ADD SLT PUSH2 0x303 JUMPI PUSH1 0x40 MLOAD SWAP1 PUSH2 0x2298 DUP3 PUSH2 0x3A65 JUMP JUMPDEST PUSH1 0x24 CALLDATALOAD PUSH1 0x4 ADD CALLDATALOAD DUP3 MSTORE PUSH2 0x22AE PUSH1 0x24 DUP1 CALLDATALOAD ADD PUSH2 0x3CED JUMP JUMPDEST PUSH1 0x20 DUP4 ADD MSTORE PUSH1 0x44 PUSH1 0x24 CALLDATALOAD ADD CALLDATALOAD PUSH1 0x40 DUP4 ADD MSTORE PUSH2 0x22CE CALLDATASIZE PUSH1 0x64 PUSH1 0x24 CALLDATALOAD ADD PUSH2 0x3DAE JUMP JUMPDEST SWAP2 PUSH1 0x60 DUP2 ADD SWAP3 DUP4 MSTORE PUSH2 0x124 PUSH1 0x24 CALLDATALOAD ADD CALLDATALOAD PUSH1 0x1 PUSH1 0x1 PUSH1 0x40 SHL SUB DUP2 GT PUSH2 0x303 JUMPI CALLDATASIZE PUSH1 0x23 DUP3 PUSH1 0x24 CALLDATALOAD ADD ADD SLT ISZERO PUSH2 0x303 JUMPI PUSH1 0x4 DUP2 PUSH1 0x24 CALLDATALOAD ADD ADD CALLDATALOAD SWAP1 PUSH2 0x230E DUP3 PUSH2 0x3DFE JUMP JUMPDEST SWAP2 PUSH2 0x231C PUSH1 0x40 MLOAD SWAP4 DUP5 PUSH2 0x3AED JUMP JUMPDEST DUP1 DUP4 MSTORE PUSH1 0x20 DUP4 ADD SWAP2 CALLDATASIZE PUSH1 0x24 DUP4 PUSH1 0x5 SHL DUP4 DUP3 CALLDATALOAD ADD ADD ADD GT PUSH2 0x303 JUMPI PUSH1 0x24 DUP2 DUP2 CALLDATALOAD ADD ADD SWAP3 JUMPDEST PUSH1 0x24 DUP4 PUSH1 0x5 SHL DUP4 DUP3 CALLDATALOAD ADD ADD ADD DUP5 LT PUSH2 0x25C7 JUMPI POP POP POP POP PUSH1 0x80 DUP3 ADD MSTORE PUSH2 0x236A CALLDATASIZE PUSH2 0x144 PUSH1 0x24 CALLDATALOAD ADD PUSH2 0x3DAE JUMP JUMPDEST PUSH1 0xA0 DUP3 ADD MSTORE PUSH1 0xC0 DUP2 ADD PUSH2 0x204 PUSH1 0x24 CALLDATALOAD ADD CALLDATALOAD DUP2 MSTORE PUSH1 0xE0 DUP3 ADD SWAP1 PUSH2 0x224 PUSH1 0x24 CALLDATALOAD ADD CALLDATALOAD DUP3 MSTORE PUSH1 0x44 CALLDATALOAD PUSH1 0x1 PUSH1 0x1 PUSH1 0x40 SHL SUB DUP2 GT PUSH2 0x303 JUMPI PUSH2 0x23AB SWAP1 CALLDATASIZE SWAP1 PUSH1 0x4 ADD PUSH2 0x3B0E JUMP JUMPDEST POP PUSH1 0xFF PUSH1 0x3 SLOAD PUSH1 0xA0 SHR AND ISZERO PUSH2 0x541 JUMPI PUSH2 0x23C2 PUSH2 0x4503 JUMP JUMPDEST PUSH1 0x0 DUP5 DUP2 MSTORE PUSH1 0x5 PUSH1 0x20 MSTORE PUSH1 0x40 SWAP1 KECCAK256 PUSH1 0x1 ADD SLOAD PUSH1 0x1 PUSH1 0x1 PUSH1 0xA0 SHL SUB SWAP2 SWAP1 DUP3 AND DUP1 ISZERO PUSH2 0x25AE JUMPI CALLER EQ ISZERO DUP1 PUSH2 0x2575 JUMPI JUMPDEST PUSH2 0x2556 JUMPI PUSH2 0x2464 DUP5 MLOAD SWAP3 PUSH1 0x20 DUP7 ADD MLOAD AND PUSH2 0x2456 DUP9 MLOAD DUP1 MLOAD SWAP5 PUSH1 0x40 PUSH1 0x20 DUP4 ADD MLOAD SWAP3 ADD MLOAD SWAP1 MLOAD SWAP2 PUSH1 0x40 MLOAD SWAP7 DUP8 SWAP6 PUSH1 0x20 DUP8 ADD SWAP10 DUP11 SWAP5 SWAP3 SWAP1 SWAP2 PUSH1 0xB4 SWAP7 SWAP5 SWAP3 DUP7 MSTORE PUSH1 0x1 PUSH1 0x1 PUSH1 0x60 SHL SUB NOT SWAP1 PUSH1 0x60 SHL AND PUSH1 0x20 DUP7 ADD MSTORE PUSH1 0x34 DUP6 ADD MSTORE PUSH1 0x54 DUP5 ADD MSTORE PUSH1 0x74 DUP4 ADD MSTORE PUSH1 0x94 DUP3 ADD MSTORE ADD SWAP1 JUMP JUMPDEST SUB PUSH1 0x1F NOT DUP2 ADD DUP4 MSTORE DUP3 PUSH2 0x3AED JUMP JUMPDEST MLOAD SWAP1 KECCAK256 SWAP1 MLOAD SUB PUSH2 0x253D JUMPI DUP2 PUSH1 0x0 MSTORE PUSH1 0xA PUSH1 0x20 MSTORE PUSH1 0x40 PUSH1 0x0 KECCAK256 SWAP1 DUP4 MLOAD MLOAD SWAP2 PUSH1 0x32 SWAP3 DUP4 DUP2 MUL SWAP1 DUP1 DUP3 DIV DUP6 EQ SWAP1 ISZERO OR ISZERO PUSH2 0x1075 JUMPI PUSH1 0x64 PUSH2 0x24A3 SWAP2 DIV DUP3 SLOAD PUSH2 0x434B JUMP JUMPDEST DUP2 SSTORE PUSH1 0x20 DUP6 MLOAD ADD MLOAD DUP4 DUP2 MUL SWAP1 DUP1 DUP3 DIV DUP6 EQ SWAP1 ISZERO OR ISZERO PUSH2 0x1075 JUMPI PUSH2 0x24CE PUSH1 0x64 PUSH1 0x1 DUP5 ADD SWAP3 DIV DUP3 SLOAD PUSH2 0x434B JUMP JUMPDEST SWAP1 SSTORE PUSH1 0x40 DUP6 MLOAD ADD MLOAD DUP4 DUP2 MUL SWAP4 DUP2 DUP6 DIV EQ SWAP1 ISZERO OR ISZERO PUSH2 0x1075 JUMPI PUSH1 0x40 DUP1 SWAP3 DUP3 PUSH32 0xCFC0CB7B9A928947309BEB41580A0D9E4A59EFA79A6731A5CC21F258445DA0F1 SWAP6 PUSH2 0x2521 PUSH1 0x64 PUSH1 0x2 PUSH1 0x20 SWAP8 ADD SWAP3 DIV DUP3 SLOAD PUSH2 0x434B JUMP JUMPDEST SWAP1 SSTORE PUSH1 0x3 TIMESTAMP SWAP2 ADD SSTORE ADD MLOAD SWAP5 MLOAD ADD MLOAD DUP2 MLOAD SWAP1 DUP2 MSTORE TIMESTAMP PUSH1 0x20 DUP3 ADD MSTORE LOG3 STOP JUMPDEST PUSH1 0x40 MLOAD PUSH4 0x2957E485 PUSH1 0xE1 SHL DUP2 MSTORE PUSH1 0x4 DUP2 ADD DUP4 SWAP1 MSTORE PUSH1 0x24 SWAP1 REVERT JUMPDEST PUSH1 0x40 MLOAD PUSH4 0x79F18C87 PUSH1 0xE1 SHL DUP2 MSTORE PUSH1 0x4 DUP2 ADD DUP7 SWAP1 MSTORE CALLER PUSH1 0x24 DUP3 ADD MSTORE PUSH1 0x44 SWAP1 REVERT JUMPDEST POP CALLER PUSH1 0x0 SWAP1 DUP2 MSTORE PUSH32 0x1B48DD06086C0BF876638715267CAAECBD3D1847303776B263DA6E5DD0E2B1DB PUSH1 0x20 MSTORE PUSH1 0x40 SWAP1 KECCAK256 SLOAD PUSH1 0xFF AND ISZERO PUSH2 0x23EF JUMP JUMPDEST PUSH1 0x40 MLOAD PUSH4 0xACBEACF PUSH1 0xE3 SHL DUP2 MSTORE PUSH1 0x4 DUP2 ADD DUP8 SWAP1 MSTORE PUSH1 0x24 SWAP1 REVERT JUMPDEST DUP4 CALLDATALOAD PUSH1 0x1 PUSH1 0x1 PUSH1 0x40 SHL SUB DUP2 GT PUSH2 0x303 JUMPI DUP3 PUSH1 0x24 CALLDATALOAD ADD ADD SWAP1 PUSH2 0x120 PUSH1 0x23 NOT DUP4 CALLDATASIZE SUB ADD SLT PUSH2 0x303 JUMPI PUSH1 0x40 MLOAD SWAP2 PUSH2 0x25FA DUP4 PUSH2 0x3A2E JUMP JUMPDEST PUSH1 0x24 DUP2 ADD CALLDATALOAD DUP4 MSTORE PUSH1 0x44 DUP2 ADD CALLDATALOAD PUSH1 0x20 DUP5 ADD MSTORE PUSH1 0x64 DUP2 ADD CALLDATALOAD PUSH1 0x1 PUSH1 0x1 PUSH1 0x40 SHL SUB DUP2 GT PUSH2 0x303 JUMPI PUSH2 0x262E SWAP1 PUSH1 0x24 CALLDATASIZE SWAP2 DUP5 ADD ADD PUSH2 0x3B0E JUMP JUMPDEST PUSH1 0x40 DUP5 ADD MSTORE PUSH1 0x84 DUP2 ADD CALLDATALOAD PUSH1 0x1 PUSH1 0x1 PUSH1 0x40 SHL SUB DUP2 GT PUSH2 0x303 JUMPI PUSH2 0x2656 SWAP1 PUSH1 0x24 CALLDATASIZE SWAP2 DUP5 ADD ADD PUSH2 0x3B0E JUMP JUMPDEST PUSH1 0x60 DUP5 ADD MSTORE PUSH1 0xA4 DUP2 ADD CALLDATALOAD PUSH1 0x1 PUSH1 0x1 PUSH1 0x40 SHL SUB DUP2 GT PUSH2 0x303 JUMPI PUSH2 0x267E SWAP1 PUSH1 0x24 CALLDATASIZE SWAP2 DUP5 ADD ADD PUSH2 0x3B0E JUMP JUMPDEST PUSH1 0x80 DUP5 ADD MSTORE PUSH1 0xC4 DUP2 ADD CALLDATALOAD SWAP2 PUSH1 0x1 PUSH1 0x1 PUSH1 0x40 SHL SUB DUP4 GT PUSH2 0x303 JUMPI PUSH1 0x24 SWAP4 PUSH2 0x124 PUSH1 0x20 SWAP5 SWAP4 PUSH2 0x26B1 DUP7 SWAP6 DUP9 CALLDATASIZE SWAP2 DUP5 ADD ADD PUSH2 0x3B0E JUMP JUMPDEST PUSH1 0xA0 DUP5 ADD MSTORE PUSH1 0xE4 DUP2 ADD CALLDATALOAD PUSH1 0xC0 DUP5 ADD MSTORE PUSH2 0x26CD PUSH2 0x104 DUP3 ADD PUSH2 0x3CED JUMP JUMPDEST PUSH1 0xE0 DUP5 ADD MSTORE ADD CALLDATALOAD PUSH2 0x100 DUP3 ADD MSTORE DUP2 MSTORE ADD SWAP5 ADD SWAP4 SWAP1 POP PUSH2 0x233F JUMP JUMPDEST CALLVALUE PUSH2 0x303 JUMPI PUSH1 0x0 CALLDATASIZE PUSH1 0x3 NOT ADD SLT PUSH2 0x303 JUMPI PUSH1 0x20 PUSH1 0x40 MLOAD PUSH1 0x64 DUP2 MSTORE RETURN JUMPDEST CALLVALUE PUSH2 0x303 JUMPI PUSH1 0x40 CALLDATASIZE PUSH1 0x3 NOT ADD SLT PUSH2 0x303 JUMPI PUSH2 0x271C PUSH2 0x3CD7 JUMP JUMPDEST PUSH2 0x2724 PUSH2 0x46D2 JUMP JUMPDEST POP PUSH1 0x1 DUP1 PUSH1 0xA0 SHL SUB DUP1 SWAP2 AND PUSH1 0x0 MSTORE PUSH1 0x6 PUSH1 0x20 MSTORE PUSH1 0x40 PUSH1 0x0 KECCAK256 PUSH1 0x24 CALLDATALOAD PUSH1 0x0 MSTORE PUSH1 0x20 MSTORE PUSH1 0x40 PUSH1 0x0 KECCAK256 SLOAD SWAP1 DUP2 ISZERO PUSH2 0x27DD JUMPI PUSH2 0x2E7 SWAP2 PUSH1 0x0 MSTORE PUSH1 0x5 PUSH1 0x20 MSTORE PUSH1 0xFF PUSH1 0x6 PUSH1 0x40 PUSH1 0x0 KECCAK256 PUSH1 0x40 MLOAD SWAP4 PUSH2 0x2774 DUP6 PUSH2 0x3A65 JUMP JUMPDEST DUP2 SLOAD DUP6 MSTORE PUSH1 0x1 DUP3 ADD SLOAD AND PUSH1 0x20 DUP6 ADD MSTORE PUSH1 0x2 DUP2 ADD SLOAD PUSH1 0x40 DUP6 ADD MSTORE PUSH1 0x40 MLOAD PUSH2 0x27A1 DUP2 PUSH2 0xCB5 DUP2 PUSH1 0x3 DUP7 ADD PUSH2 0x446D JUMP JUMPDEST PUSH1 0x60 DUP6 ADD MSTORE PUSH1 0x4 DUP2 ADD SLOAD PUSH1 0x80 DUP6 ADD MSTORE PUSH1 0x5 DUP2 ADD SLOAD PUSH1 0xA0 DUP6 ADD MSTORE ADD SLOAD DUP2 DUP2 AND ISZERO ISZERO PUSH1 0xC0 DUP5 ADD MSTORE PUSH1 0x8 SHR AND ISZERO ISZERO PUSH1 0xE0 DUP3 ADD MSTORE PUSH1 0x40 MLOAD SWAP2 DUP3 SWAP2 DUP3 PUSH2 0x3D3E JUMP JUMPDEST PUSH1 0x40 MLOAD PUSH4 0xACBEACF PUSH1 0xE3 SHL DUP2 MSTORE PUSH1 0x4 DUP2 ADD DUP4 SWAP1 MSTORE PUSH1 0x24 SWAP1 REVERT JUMPDEST CALLVALUE PUSH2 0x303 JUMPI PUSH2 0x2804 CALLDATASIZE PUSH2 0x3B64 JUMP JUMPDEST SWAP1 PUSH1 0x3 SLOAD PUSH1 0xFF DUP2 PUSH1 0xA0 SHR AND ISZERO PUSH2 0x541 JUMPI PUSH2 0x281C PUSH2 0x4503 JUMP JUMPDEST PUSH1 0x40 MLOAD PUSH4 0x85ACD641 PUSH1 0xE0 SHL DUP2 MSTORE PUSH32 0xBDDED29A54E6A5D6169BEDEA55373B06F57E35D7B0F67AC187565B435E2CC943 PUSH1 0x4 DUP3 ADD MSTORE PUSH1 0x1 PUSH1 0x1 PUSH1 0xA0 SHL SUB SWAP2 PUSH1 0x20 SWAP1 DUP3 SWAP1 PUSH1 0x24 SWAP1 DUP3 SWAP1 DUP7 AND GAS STATICCALL SWAP1 DUP2 ISZERO PUSH2 0xB74 JUMPI PUSH1 0x0 SWAP2 PUSH2 0x2B8C JUMPI JUMPDEST POP AND DUP1 ISZERO PUSH2 0x2B73 JUMPI PUSH1 0x20 PUSH1 0x24 SWAP2 PUSH1 0x40 MLOAD SWAP3 DUP4 DUP1 SWAP3 PUSH4 0x3BF0DC01 PUSH1 0xE2 SHL DUP3 MSTORE DUP7 PUSH1 0x4 DUP4 ADD MSTORE GAS STATICCALL SWAP1 DUP2 ISZERO PUSH2 0xB74 JUMPI PUSH1 0x0 SWAP2 PUSH2 0x2B38 JUMPI JUMPDEST POP ISZERO PUSH2 0x2B20 JUMPI CALLER PUSH1 0x0 MSTORE PUSH1 0x6 PUSH1 0x20 MSTORE PUSH1 0x40 PUSH1 0x0 KECCAK256 DUP2 PUSH1 0x0 MSTORE PUSH1 0x20 MSTORE PUSH1 0x40 PUSH1 0x0 KECCAK256 SLOAD PUSH2 0x2B00 JUMPI PUSH1 0x14 SLOAD PUSH2 0x28DB DUP2 PUSH2 0x4566 JUMP JUMPDEST PUSH1 0x14 SSTORE PUSH1 0x40 MLOAD PUSH1 0x20 DUP2 ADD SWAP2 CALLER PUSH1 0x60 SHL DUP4 MSTORE DUP4 PUSH1 0x34 DUP4 ADD MSTORE TIMESTAMP PUSH1 0x54 DUP4 ADD MSTORE PUSH1 0x74 DUP3 ADD MSTORE PUSH1 0x74 DUP2 MSTORE PUSH2 0x290A DUP2 PUSH2 0x3A9C JUMP JUMPDEST MLOAD SWAP1 KECCAK256 SWAP1 DUP2 PUSH1 0x0 MSTORE PUSH1 0x5 PUSH1 0x20 MSTORE PUSH1 0x40 PUSH1 0x0 KECCAK256 SWAP3 DUP3 DUP5 SSTORE PUSH1 0x1 DUP5 ADD CALLER PUSH1 0x1 PUSH1 0x1 PUSH1 0x60 SHL SUB PUSH1 0xA0 SHL DUP3 SLOAD AND OR SWAP1 SSTORE DUP2 PUSH1 0x2 DUP6 ADD SSTORE DUP1 MLOAD SWAP4 PUSH1 0x1 PUSH1 0x1 PUSH1 0x40 SHL SUB DUP6 GT PUSH2 0x11E4 JUMPI DUP5 PUSH2 0x2961 PUSH1 0x20 SWAP7 PUSH2 0xEF2 PUSH1 0x3 DUP6 ADD SLOAD PUSH2 0x4433 JUMP JUMPDEST DUP6 PUSH1 0x1F DUP3 GT PUSH1 0x1 EQ PUSH2 0x2A94 JUMPI SWAP1 DUP1 PUSH1 0x6 SWAP4 SWAP3 PUSH1 0x0 SWAP2 PUSH2 0x2A89 JUMPI JUMPDEST POP DUP2 PUSH1 0x1 SHL SWAP2 PUSH1 0x0 NOT SWAP1 PUSH1 0x3 SHL SHR NOT AND OR PUSH1 0x3 DUP3 ADD SSTORE JUMPDEST TIMESTAMP PUSH1 0x4 DUP3 ADD SSTORE TIMESTAMP PUSH1 0x5 DUP3 ADD SSTORE ADD PUSH1 0x1 PUSH2 0xFFFF NOT DUP3 SLOAD AND OR SWAP1 SSTORE DUP3 PUSH1 0x0 MSTORE PUSH1 0xA DUP5 MSTORE PUSH1 0x0 PUSH1 0x5 PUSH1 0x40 DUP3 KECCAK256 DUP3 DUP2 SSTORE PUSH2 0x3E8 PUSH1 0x1 DUP3 ADD SSTORE DUP3 PUSH1 0x2 DUP3 ADD SSTORE TIMESTAMP PUSH1 0x3 DUP3 ADD SSTORE DUP3 PUSH1 0x4 DUP3 ADD SSTORE ADD SSTORE PUSH1 0x11 DUP5 MSTORE PUSH1 0x0 PUSH1 0x5 PUSH1 0x40 DUP3 KECCAK256 DUP3 DUP2 SSTORE DUP3 PUSH1 0x1 DUP3 ADD SSTORE DUP3 PUSH1 0x2 DUP3 ADD SSTORE DUP3 PUSH1 0x3 DUP3 ADD SSTORE DUP3 PUSH1 0x4 DUP3 ADD SSTORE ADD SSTORE PUSH2 0x2A0C DUP4 PUSH2 0x45C9 JUMP JUMPDEST POP DUP2 PUSH1 0x0 MSTORE PUSH1 0x9 DUP5 MSTORE PUSH2 0x2A23 DUP4 PUSH1 0x40 PUSH1 0x0 KECCAK256 PUSH2 0x4661 JUMP JUMPDEST POP CALLER PUSH1 0x0 MSTORE PUSH1 0x6 DUP5 MSTORE PUSH1 0x40 PUSH1 0x0 KECCAK256 DUP3 PUSH1 0x0 MSTORE DUP5 MSTORE DUP3 PUSH1 0x40 PUSH1 0x0 KECCAK256 SSTORE DUP3 PUSH32 0xC06558701F72642F7742AFF51EBF20B410FFE7496992707DC6A4E2BAE713E7C4 PUSH2 0x2A75 PUSH1 0x40 MLOAD SWAP4 PUSH1 0x40 DUP6 MSTORE PUSH1 0x40 DUP6 ADD SWAP1 PUSH2 0x3BB9 JUMP JUMPDEST SWAP3 TIMESTAMP DUP8 DUP3 ADD MSTORE DUP1 CALLER SWAP5 SUB SWAP1 LOG4 PUSH1 0x40 MLOAD SWAP1 DUP2 MSTORE RETURN JUMPDEST SWAP1 POP DUP5 ADD MLOAD DUP9 PUSH2 0x297B JUMP JUMPDEST PUSH1 0x1F NOT DUP3 AND SWAP1 PUSH1 0x3 DUP5 ADD PUSH1 0x0 MSTORE DUP8 PUSH1 0x0 KECCAK256 SWAP2 PUSH1 0x0 JUMPDEST DUP2 DUP2 LT PUSH2 0x2AE9 JUMPI POP SWAP2 DUP4 SWAP2 PUSH1 0x6 SWAP6 SWAP5 PUSH1 0x1 SWAP5 LT PUSH2 0x2AD0 JUMPI JUMPDEST POP POP DUP2 SHL ADD PUSH1 0x3 DUP3 ADD SSTORE PUSH2 0x2992 JUMP JUMPDEST DUP7 ADD MLOAD PUSH1 0x0 NOT PUSH1 0xF8 DUP5 PUSH1 0x3 SHL AND SHR NOT AND SWAP1 SSTORE DUP9 DUP1 PUSH2 0x2AC1 JUMP JUMPDEST SWAP2 SWAP3 DUP10 PUSH1 0x1 DUP2 SWAP3 DUP7 DUP11 ADD MLOAD DUP2 SSTORE ADD SWAP5 ADD SWAP3 ADD PUSH2 0x2AA9 JUMP JUMPDEST PUSH1 0x40 MLOAD PUSH4 0x1F120A69 PUSH1 0xE0 SHL DUP2 MSTORE CALLER PUSH1 0x4 DUP3 ADD MSTORE PUSH1 0x24 DUP2 ADD SWAP2 SWAP1 SWAP2 MSTORE PUSH1 0x44 SWAP1 REVERT JUMPDEST PUSH1 0x24 SWAP1 PUSH1 0x40 MLOAD SWAP1 PUSH4 0xF708DFA7 PUSH1 0xE0 SHL DUP3 MSTORE PUSH1 0x4 DUP3 ADD MSTORE REVERT JUMPDEST SWAP1 POP PUSH1 0x20 DUP2 RETURNDATASIZE PUSH1 0x20 GT PUSH2 0x2B6B JUMPI JUMPDEST DUP2 PUSH2 0x2B53 PUSH1 0x20 SWAP4 DUP4 PUSH2 0x3AED JUMP JUMPDEST DUP2 ADD SUB SLT PUSH2 0x303 JUMPI MLOAD DUP1 ISZERO ISZERO DUP2 SUB PUSH2 0x303 JUMPI DUP4 PUSH2 0x28AA JUMP JUMPDEST RETURNDATASIZE SWAP2 POP PUSH2 0x2B46 JUMP JUMPDEST PUSH1 0x40 MLOAD PUSH4 0xF708DFA7 PUSH1 0xE0 SHL DUP2 MSTORE PUSH1 0x4 DUP2 ADD DUP4 SWAP1 MSTORE PUSH1 0x24 SWAP1 REVERT JUMPDEST PUSH2 0x2BA5 SWAP2 POP PUSH1 0x20 RETURNDATASIZE PUSH1 0x20 GT PUSH2 0xB6D JUMPI PUSH2 0xB5E DUP2 DUP4 PUSH2 0x3AED JUMP JUMPDEST DUP5 PUSH2 0x2875 JUMP JUMPDEST CALLVALUE PUSH2 0x303 JUMPI PUSH1 0x0 CALLDATASIZE PUSH1 0x3 NOT ADD SLT PUSH2 0x303 JUMPI PUSH1 0x20 PUSH1 0xFF PUSH1 0x1 SLOAD AND PUSH1 0x40 MLOAD SWAP1 ISZERO ISZERO DUP2 MSTORE RETURN JUMPDEST CALLVALUE PUSH2 0x303 JUMPI PUSH1 0x60 DUP1 PUSH1 0x3 NOT CALLDATASIZE ADD SLT PUSH2 0x303 JUMPI PUSH2 0x2BF1 PUSH1 0x44 CALLDATALOAD PUSH1 0x24 CALLDATALOAD PUSH1 0x4 CALLDATALOAD PUSH2 0x49D2 JUMP JUMPDEST PUSH1 0x40 MLOAD SWAP1 PUSH1 0x20 DUP1 DUP4 ADD DUP2 DUP5 MSTORE DUP3 MLOAD DUP1 SWAP2 MSTORE PUSH1 0x40 DUP5 ADD SWAP2 DUP1 PUSH1 0x40 DUP4 PUSH1 0x5 SHL DUP8 ADD ADD SWAP5 ADD SWAP3 PUSH1 0x0 SWAP7 JUMPDEST DUP4 DUP9 LT PUSH2 0x2C25 JUMPI DUP7 DUP7 SUB DUP8 RETURN JUMPDEST SWAP1 SWAP2 SWAP3 SWAP4 SWAP5 DUP4 DUP1 PUSH1 0x1 SWAP3 PUSH1 0x3F NOT DUP11 DUP3 SUB ADD DUP7 MSTORE DUP9 MLOAD SWAP1 DUP2 MLOAD DUP2 MSTORE DUP3 DUP3 ADD MLOAD DUP4 DUP3 ADD MSTORE DUP5 DUP1 PUSH1 0xA0 SHL SUB PUSH1 0x40 DUP4 ADD MLOAD AND PUSH1 0x40 DUP3 ADD MSTORE DUP6 DUP3 ADD MLOAD PUSH2 0x2C65 DUP2 PUSH2 0x3D1E JUMP JUMPDEST DUP7 DUP3 ADD MSTORE PUSH1 0x80 PUSH1 0xFF DUP2 DUP5 ADD MLOAD AND SWAP1 DUP3 ADD MSTORE PUSH1 0xE0 DUP1 PUSH2 0x2C93 PUSH1 0xA0 DUP1 DUP7 ADD MLOAD SWAP1 PUSH2 0x100 DUP1 SWAP2 DUP8 ADD MSTORE DUP6 ADD SWAP1 PUSH2 0x3BB9 JUMP JUMPDEST SWAP4 PUSH1 0xC0 DUP1 DUP3 ADD MLOAD SWAP1 DUP6 ADD MSTORE ADD MLOAD ISZERO ISZERO SWAP2 ADD MSTORE SWAP8 ADD SWAP4 ADD SWAP8 ADD SWAP7 SWAP1 SWAP4 SWAP3 SWAP2 SWAP4 PUSH2 0x2C18 JUMP JUMPDEST CALLVALUE PUSH2 0x303 JUMPI PUSH1 0x0 CALLDATASIZE PUSH1 0x3 NOT ADD SLT PUSH2 0x303 JUMPI PUSH1 0x40 MLOAD PUSH1 0x0 PUSH1 0x4 SLOAD PUSH2 0x2CD8 DUP2 PUSH2 0x4433 JUMP JUMPDEST DUP1 DUP5 MSTORE SWAP1 PUSH1 0x1 SWAP1 DUP2 DUP2 AND SWAP1 DUP2 ISZERO PUSH2 0x2D71 JUMPI POP PUSH1 0x1 EQ PUSH2 0x2D16 JUMPI JUMPDEST PUSH2 0x2E7 DUP5 PUSH2 0x2D02 DUP2 DUP7 SUB DUP3 PUSH2 0x3AED JUMP JUMPDEST PUSH1 0x40 MLOAD SWAP2 DUP3 SWAP2 PUSH1 0x20 DUP4 MSTORE PUSH1 0x20 DUP4 ADD SWAP1 PUSH2 0x3BB9 JUMP JUMPDEST PUSH1 0x4 PUSH1 0x0 SWAP1 DUP2 MSTORE SWAP3 POP PUSH32 0x8A35ACFBC15FF81A39AE7D344FD709F28E8600B4AA8C65C6B64BFE7FE36BD19B JUMPDEST DUP3 DUP5 LT PUSH2 0x2D59 JUMPI POP POP POP DUP2 ADD PUSH1 0x20 ADD PUSH2 0x2D02 DUP3 PUSH2 0x2CF2 JUMP JUMPDEST DUP1 SLOAD PUSH1 0x20 DUP6 DUP8 ADD DUP2 ADD SWAP2 SWAP1 SWAP2 MSTORE SWAP1 SWAP4 ADD SWAP3 DUP2 ADD PUSH2 0x2D41 JUMP JUMPDEST PUSH1 0xFF NOT AND PUSH1 0x20 DUP1 DUP8 ADD SWAP2 SWAP1 SWAP2 MSTORE SWAP3 ISZERO ISZERO PUSH1 0x5 SHL DUP6 ADD SWAP1 SWAP3 ADD SWAP3 POP PUSH2 0x2D02 SWAP2 POP DUP4 SWAP1 POP PUSH2 0x2CF2 JUMP JUMPDEST CALLVALUE PUSH2 0x303 JUMPI PUSH1 0x0 CALLDATASIZE PUSH1 0x3 NOT ADD SLT PUSH2 0x303 JUMPI PUSH1 0x3 SLOAD PUSH1 0x1 PUSH1 0x1 PUSH1 0xA0 SHL SUB DUP2 AND CALLER SUB PUSH2 0x553 JUMPI PUSH1 0xA0 SHR PUSH1 0xFF AND ISZERO PUSH2 0x541 JUMPI PUSH2 0x214B PUSH2 0x4503 JUMP JUMPDEST CALLVALUE PUSH2 0x303 JUMPI PUSH1 0x0 CALLDATASIZE PUSH1 0x3 NOT ADD SLT PUSH2 0x303 JUMPI PUSH1 0x3 SLOAD PUSH1 0x1 PUSH1 0x1 PUSH1 0xA0 SHL SUB DUP2 AND CALLER SUB PUSH2 0x553 JUMPI PUSH1 0xA0 SHR PUSH1 0xFF AND ISZERO PUSH2 0x541 JUMPI PUSH1 0x1 SLOAD PUSH1 0xFF DUP2 AND ISZERO PUSH2 0x2E3D JUMPI PUSH1 0xFF NOT AND PUSH1 0x1 SSTORE PUSH32 0x5DB9EE0A495BF2E6FF9C91A7834C1BA4FDD244A5E8AA4E537BD38AEAE4B073AA PUSH1 0x20 PUSH1 0x40 MLOAD CALLER DUP2 MSTORE LOG1 STOP JUMPDEST PUSH1 0x40 MLOAD PUSH3 0x461BCD PUSH1 0xE5 SHL DUP2 MSTORE PUSH1 0x20 PUSH1 0x4 DUP3 ADD MSTORE PUSH1 0x14 PUSH1 0x24 DUP3 ADD MSTORE PUSH20 0x14185D5CD8589B194E881B9BDD081C185D5CD959 PUSH1 0x62 SHL PUSH1 0x44 DUP3 ADD MSTORE PUSH1 0x64 SWAP1 REVERT JUMPDEST CALLVALUE PUSH2 0x303 JUMPI PUSH1 0x0 CALLDATASIZE PUSH1 0x3 NOT ADD SLT PUSH2 0x303 JUMPI PUSH2 0x2E92 PUSH2 0x4075 JUMP JUMPDEST PUSH1 0xFF PUSH1 0x3 SLOAD PUSH1 0xA0 SHR AND ISZERO PUSH2 0x541 JUMPI PUSH1 0x1 SLOAD PUSH1 0xFF DUP2 AND ISZERO PUSH2 0x2E3D JUMPI PUSH1 0xFF NOT AND PUSH1 0x1 SSTORE PUSH32 0x5DB9EE0A495BF2E6FF9C91A7834C1BA4FDD244A5E8AA4E537BD38AEAE4B073AA PUSH1 0x20 PUSH1 0x40 MLOAD CALLER DUP2 MSTORE LOG1 STOP JUMPDEST CALLVALUE PUSH2 0x303 JUMPI PUSH1 0x0 CALLDATASIZE PUSH1 0x3 NOT ADD SLT PUSH2 0x303 JUMPI PUSH1 0x20 PUSH1 0xFF PUSH1 0x3 SLOAD PUSH1 0xA0 SHR AND PUSH1 0x40 MLOAD SWAP1 ISZERO ISZERO DUP2 MSTORE RETURN JUMPDEST CALLVALUE PUSH2 0x303 JUMPI PUSH1 0x0 CALLDATASIZE PUSH1 0x3 NOT ADD SLT PUSH2 0x303 JUMPI PUSH1 0x20 PUSH1 0x7 SLOAD PUSH1 0x40 MLOAD SWAP1 DUP2 MSTORE RETURN JUMPDEST CALLVALUE PUSH2 0x303 JUMPI PUSH1 0x40 CALLDATASIZE PUSH1 0x3 NOT ADD SLT PUSH2 0x303 JUMPI PUSH2 0x2F3C PUSH2 0x3CC1 JUMP JUMPDEST CALLER PUSH1 0x1 PUSH1 0x1 PUSH1 0xA0 SHL SUB DUP3 AND SUB PUSH2 0x2F58 JUMPI PUSH2 0x784 SWAP1 PUSH1 0x4 CALLDATALOAD PUSH2 0x42C4 JUMP JUMPDEST PUSH1 0x40 MLOAD PUSH3 0x461BCD PUSH1 0xE5 SHL DUP2 MSTORE PUSH1 0x20 PUSH1 0x4 DUP3 ADD MSTORE PUSH1 0x2F PUSH1 0x24 DUP3 ADD MSTORE PUSH32 0x416363657373436F6E74726F6C3A2063616E206F6E6C792072656E6F756E6365 PUSH1 0x44 DUP3 ADD MSTORE PUSH15 0x103937B632B9903337B91039B2B633 PUSH1 0x89 SHL PUSH1 0x64 DUP3 ADD MSTORE PUSH1 0x84 SWAP1 REVERT JUMPDEST CALLVALUE PUSH2 0x303 JUMPI PUSH1 0x80 CALLDATASIZE PUSH1 0x3 NOT ADD SLT PUSH2 0x303 JUMPI PUSH1 0x4 CALLDATALOAD PUSH1 0x24 CALLDATALOAD PUSH1 0x4 DUP2 LT ISZERO PUSH2 0x303 JUMPI PUSH1 0x64 CALLDATALOAD SWAP2 PUSH1 0x44 CALLDATALOAD PUSH2 0x2FE4 PUSH2 0x3E87 JUMP JUMPDEST PUSH1 0xFF PUSH1 0x3 SLOAD PUSH1 0xA0 SHR AND ISZERO PUSH2 0x541 JUMPI PUSH2 0x2FFA PUSH2 0x4503 JUMP JUMPDEST PUSH1 0x0 DUP3 DUP2 MSTORE PUSH1 0x5 PUSH1 0x20 MSTORE PUSH1 0x40 SWAP1 KECCAK256 PUSH1 0x1 ADD SLOAD PUSH1 0x1 PUSH1 0x1 PUSH1 0xA0 SHL SUB AND ISZERO PUSH2 0x27DD JUMPI PUSH2 0x2710 DUP2 SGT DUP1 ISZERO PUSH2 0x31A6 JUMPI JUMPDEST PUSH2 0x318E JUMPI PUSH32 0x78779947684EEFF96B2DC044961F47DEE102B28575D1357693322A57EB479D03 SWAP1 DUP3 PUSH1 0x0 MSTORE PUSH1 0xA PUSH1 0x20 MSTORE PUSH1 0x40 PUSH1 0x0 KECCAK256 PUSH1 0x0 PUSH2 0x3065 DUP7 PUSH2 0x3D1E JUMP JUMPDEST DUP6 PUSH2 0x3108 JUMPI POP PUSH1 0x0 DUP3 SLT DUP1 PUSH2 0x30F6 JUMPI JUMPDEST ISZERO PUSH2 0x30E4 JUMPI PUSH1 0x0 DUP2 SSTORE JUMPDEST DUP1 SLOAD SWAP1 JUMPDEST PUSH1 0x3 TIMESTAMP SWAP2 ADD SSTORE PUSH2 0x30DB PUSH1 0x40 MLOAD PUSH2 0x3098 DUP2 PUSH2 0x3A4A JUMP JUMPDEST DUP6 DUP2 MSTORE PUSH2 0x30A4 DUP8 PUSH2 0x3D1E JUMP JUMPDEST DUP7 PUSH1 0x20 DUP3 ADD MSTORE DUP4 PUSH1 0x40 DUP3 ADD MSTORE DUP8 PUSH1 0x60 DUP3 ADD MSTORE CALLER PUSH1 0x80 DUP3 ADD MSTORE TIMESTAMP PUSH1 0xA0 DUP3 ADD MSTORE NUMBER PUSH1 0xC0 DUP3 ADD MSTORE DUP6 PUSH1 0x0 MSTORE PUSH1 0xB PUSH1 0x20 MSTORE PUSH1 0x40 PUSH1 0x0 KECCAK256 PUSH2 0x473D JUMP JUMPDEST PUSH2 0x6F0 DUP6 PUSH2 0x3D1E JUMP JUMPDEST PUSH2 0x30EF DUP3 DUP3 SLOAD PUSH2 0x4721 JUMP JUMPDEST DUP2 SSTORE PUSH2 0x307F JUMP JUMPDEST POP PUSH2 0x3100 DUP3 PUSH2 0x4710 JUMP JUMPDEST DUP2 SLOAD LT PUSH2 0x3075 JUMP JUMPDEST PUSH2 0x3111 DUP7 PUSH2 0x3D1E JUMP JUMPDEST PUSH1 0x1 DUP7 SUB PUSH2 0x315D JUMPI POP PUSH1 0x1 DUP2 ADD PUSH1 0x0 DUP4 SLT DUP1 PUSH2 0x314B JUMPI JUMPDEST ISZERO PUSH2 0x3139 JUMPI PUSH1 0x0 DUP2 SSTORE JUMPDEST SLOAD SWAP1 PUSH2 0x3083 JUMP JUMPDEST PUSH2 0x3144 DUP4 DUP3 SLOAD PUSH2 0x4721 JUMP JUMPDEST DUP2 SSTORE PUSH2 0x3132 JUMP JUMPDEST POP PUSH2 0x3155 DUP4 PUSH2 0x4710 JUMP JUMPDEST DUP2 SLOAD LT PUSH2 0x3128 JUMP JUMPDEST SWAP1 PUSH2 0x3167 DUP7 PUSH2 0x3D1E JUMP JUMPDEST PUSH1 0x2 DUP7 SUB PUSH2 0x3083 JUMPI SWAP1 POP PUSH1 0x2 DUP2 ADD PUSH1 0x0 DUP4 SLT DUP1 PUSH2 0x314B JUMPI ISZERO PUSH2 0x3139 JUMPI PUSH1 0x0 DUP2 SSTORE SLOAD SWAP1 PUSH2 0x3083 JUMP JUMPDEST PUSH1 0x24 SWAP1 PUSH1 0x40 MLOAD SWAP1 PUSH4 0x277ED4A3 PUSH1 0xE2 SHL DUP3 MSTORE PUSH1 0x4 DUP3 ADD MSTORE REVERT JUMPDEST POP PUSH2 0x270F NOT DUP2 SLT PUSH2 0x3026 JUMP JUMPDEST CALLVALUE PUSH2 0x303 JUMPI PUSH1 0x40 CALLDATASIZE PUSH1 0x3 NOT ADD SLT PUSH2 0x303 JUMPI PUSH1 0x4 CALLDATALOAD PUSH2 0x31CE PUSH2 0x3CC1 JUMP JUMPDEST DUP2 PUSH1 0x0 MSTORE PUSH1 0x0 PUSH1 0x20 MSTORE PUSH2 0x31E8 PUSH1 0x1 PUSH1 0x40 PUSH1 0x0 KECCAK256 ADD SLOAD PUSH2 0x41BA JUMP JUMPDEST DUP2 PUSH1 0x0 MSTORE PUSH1 0x0 PUSH1 0x20 MSTORE PUSH1 0x40 PUSH1 0x0 KECCAK256 SWAP1 PUSH1 0x1 DUP1 PUSH1 0xA0 SHL SUB AND SWAP1 DUP2 PUSH1 0x0 MSTORE PUSH1 0x20 MSTORE PUSH1 0xFF PUSH1 0x40 PUSH1 0x0 KECCAK256 SLOAD AND ISZERO PUSH2 0x3217 JUMPI STOP JUMPDEST DUP2 PUSH1 0x0 MSTORE PUSH1 0x0 PUSH1 0x20 MSTORE PUSH1 0x40 PUSH1 0x0 KECCAK256 DUP2 PUSH1 0x0 MSTORE PUSH1 0x20 MSTORE PUSH1 0x40 PUSH1 0x0 KECCAK256 PUSH1 0x1 PUSH1 0xFF NOT DUP3 SLOAD AND OR SWAP1 SSTORE CALLER SWAP2 PUSH1 0x0 DUP1 MLOAD PUSH1 0x20 PUSH2 0x5020 DUP4 CODECOPY DUP2 MLOAD SWAP2 MSTORE PUSH1 0x0 DUP1 LOG4 STOP JUMPDEST CALLVALUE PUSH2 0x303 JUMPI PUSH1 0x0 CALLDATASIZE PUSH1 0x3 NOT ADD SLT PUSH2 0x303 JUMPI PUSH1 0x20 PUSH1 0x40 MLOAD PUSH32 0x6FA27AC1CDD2E2EDA2FB653A3D18C7B6FFE16599817716F8819988196F8EE95E DUP2 MSTORE RETURN JUMPDEST CALLVALUE PUSH2 0x303 JUMPI PUSH1 0x20 CALLDATASIZE PUSH1 0x3 NOT ADD SLT PUSH2 0x303 JUMPI PUSH1 0x4 CALLDATALOAD PUSH1 0x0 MSTORE PUSH1 0x0 PUSH1 0x20 MSTORE PUSH1 0x20 PUSH1 0x1 PUSH1 0x40 PUSH1 0x0 KECCAK256 ADD SLOAD PUSH1 0x40 MLOAD SWAP1 DUP2 MSTORE RETURN JUMPDEST CALLVALUE PUSH2 0x303 JUMPI PUSH2 0x32CB CALLDATASIZE PUSH2 0x3B64 JUMP JUMPDEST SWAP1 DUP1 PUSH1 0x0 MSTORE PUSH1 0x20 SWAP1 PUSH1 0x5 DUP3 MSTORE PUSH1 0x1 DUP1 PUSH1 0xA0 SHL SUB PUSH1 0x1 PUSH1 0x40 PUSH1 0x0 KECCAK256 ADD SLOAD AND ISZERO PUSH2 0x2EB JUMPI PUSH1 0x0 MSTORE PUSH1 0xD DUP2 MSTORE PUSH1 0x40 PUSH1 0x0 KECCAK256 PUSH1 0x0 SWAP3 PUSH1 0x0 SWAP2 DUP1 SLOAD SWAP3 JUMPDEST DUP4 DUP2 LT PUSH2 0x3430 JUMPI POP PUSH2 0x3314 DUP6 PUSH2 0x3DFE JUMP JUMPDEST SWAP5 PUSH2 0x3322 PUSH1 0x40 MLOAD SWAP7 DUP8 PUSH2 0x3AED JUMP JUMPDEST DUP1 DUP7 MSTORE PUSH2 0x3331 PUSH1 0x1F NOT SWAP2 PUSH2 0x3DFE JUMP JUMPDEST ADD DUP5 PUSH1 0x0 JUMPDEST DUP3 DUP2 LT PUSH2 0x33DE JUMPI POP POP POP PUSH1 0x0 SWAP2 PUSH1 0x0 JUMPDEST DUP5 DUP2 LT PUSH2 0x3360 JUMPI PUSH1 0x40 MLOAD DUP7 DUP2 MSTORE DUP1 PUSH2 0x2E7 DUP2 DUP10 ADD DUP11 PUSH2 0x3BDE JUMP JUMPDEST PUSH1 0x4 PUSH2 0x3380 PUSH2 0x336F DUP4 DUP7 PUSH2 0x4812 JUMP JUMPDEST POP PUSH2 0xCB5 PUSH1 0x40 MLOAD DUP1 SWAP5 DUP2 SWAP4 ADD PUSH2 0x446D JUMP JUMPDEST DUP7 DUP2 MLOAD SWAP2 ADD KECCAK256 DUP3 MLOAD DUP8 DUP5 ADD KECCAK256 EQ PUSH2 0x33A0 JUMPI JUMPDEST PUSH2 0x339B SWAP1 PUSH2 0x4566 JUMP JUMPDEST PUSH2 0x3346 JUMP JUMPDEST SWAP3 PUSH2 0x33D6 PUSH2 0x339B SWAP2 PUSH2 0x33BB PUSH2 0x33B5 DUP8 DUP8 PUSH2 0x4812 JUMP JUMPDEST POP PUSH2 0x482E JUMP JUMPDEST PUSH2 0x33C5 DUP3 DUP12 PUSH2 0x492B JUMP JUMPDEST MSTORE PUSH2 0x33D0 DUP2 DUP11 PUSH2 0x492B JUMP JUMPDEST POP PUSH2 0x4566 JUMP JUMPDEST SWAP4 SWAP1 POP PUSH2 0x3392 JUMP JUMPDEST PUSH1 0x40 MLOAD PUSH2 0x33EA DUP2 PUSH2 0x3A2E JUMP JUMPDEST PUSH1 0x0 DUP2 MSTORE PUSH1 0x0 DUP4 DUP3 ADD MSTORE PUSH1 0x60 DUP1 PUSH1 0x40 DUP4 ADD MSTORE DUP1 DUP1 DUP4 ADD MSTORE DUP1 PUSH1 0x80 DUP4 ADD MSTORE PUSH1 0xA0 DUP3 ADD MSTORE PUSH1 0x0 PUSH1 0xC0 DUP3 ADD MSTORE PUSH1 0x0 PUSH1 0xE0 DUP3 ADD MSTORE PUSH1 0x0 PUSH2 0x100 DUP3 ADD MSTORE DUP3 DUP3 DUP11 ADD ADD MSTORE ADD DUP6 SWAP1 PUSH2 0x3336 JUMP JUMPDEST PUSH1 0x4 PUSH2 0x343F PUSH2 0x336F DUP4 DUP6 PUSH2 0x4812 JUMP JUMPDEST DUP6 DUP2 MLOAD SWAP2 ADD KECCAK256 DUP4 MLOAD DUP7 DUP6 ADD KECCAK256 EQ PUSH2 0x345F JUMPI JUMPDEST PUSH2 0x345A SWAP1 PUSH2 0x4566 JUMP JUMPDEST PUSH2 0x3303 JUMP JUMPDEST SWAP5 PUSH2 0x346C PUSH2 0x345A SWAP2 PUSH2 0x4566 JUMP JUMPDEST SWAP6 SWAP1 POP PUSH2 0x3451 JUMP JUMPDEST CALLVALUE PUSH2 0x303 JUMPI PUSH1 0x40 CALLDATASIZE PUSH1 0x3 NOT ADD SLT PUSH2 0x303 JUMPI PUSH1 0x4 CALLDATALOAD PUSH1 0x24 DUP1 CALLDATALOAD SWAP1 PUSH1 0x4 DUP3 LT ISZERO PUSH2 0x303 JUMPI CALLER PUSH1 0x0 SWAP1 DUP2 MSTORE PUSH32 0x1DA0B5176DFE03406AF5A6EED66CA01DDA9B45AC4DA671C3FA379CB93717EF81 PUSH1 0x20 SWAP1 DUP2 MSTORE PUSH1 0x40 SWAP1 SWAP2 KECCAK256 SLOAD SWAP1 SWAP2 SWAP1 PUSH32 0xCE23C3E399818CFEE81A7AB0880F714E53D7672B08DF0FA62F2843416E1EA09 SWAP1 PUSH1 0xFF AND ISZERO PUSH2 0x35CC JUMPI POP PUSH1 0xFF PUSH1 0x3 SLOAD PUSH1 0xA0 SHR AND ISZERO PUSH2 0x541 JUMPI PUSH2 0x350C PUSH2 0x4503 JUMP JUMPDEST PUSH1 0x0 DUP5 DUP2 MSTORE PUSH1 0x5 DUP4 MSTORE PUSH1 0x40 SWAP1 KECCAK256 PUSH1 0x1 DUP2 ADD SLOAD SWAP1 SWAP2 SWAP1 PUSH1 0x1 PUSH1 0x1 PUSH1 0xA0 SHL SUB AND ISZERO PUSH2 0x35B6 JUMPI POP SWAP2 PUSH1 0x60 SWAP2 PUSH1 0x6 PUSH32 0xAF5286FDE5DE0E6B14A24A44A9E2F90CBF3F1F12A6923F0D747D90022799ACE5 SWAP5 PUSH2 0x3561 DUP5 PUSH2 0x3D1E JUMP JUMPDEST ADD DUP1 SLOAD PUSH2 0xFF00 NOT AND DUP4 ISZERO ISZERO PUSH1 0x8 SHL PUSH2 0xFF00 AND OR SWAP1 SSTORE PUSH1 0x0 DUP6 DUP2 MSTORE PUSH1 0x13 DUP3 MSTORE PUSH1 0x40 SWAP1 KECCAK256 PUSH2 0x358C DUP4 PUSH2 0x3D1E JUMP JUMPDEST PUSH1 0xFF NOT DUP2 SLOAD AND PUSH1 0xFF DUP5 AND OR SWAP1 SSTORE PUSH1 0x40 MLOAD SWAP2 PUSH2 0x35A6 DUP2 PUSH2 0x3D1E JUMP JUMPDEST DUP3 MSTORE CALLER SWAP1 DUP3 ADD MSTORE TIMESTAMP PUSH1 0x40 DUP3 ADD MSTORE LOG2 STOP JUMPDEST PUSH1 0x40 MLOAD PUSH4 0xACBEACF PUSH1 0xE3 SHL DUP2 MSTORE PUSH1 0x4 DUP2 ADD DUP7 SWAP1 MSTORE REVERT JUMPDEST DUP3 SWAP1 PUSH2 0x35D7 CALLER PUSH2 0x4369 JUMP JUMPDEST SWAP1 PUSH1 0x40 MLOAD PUSH2 0x35E4 DUP2 PUSH2 0x3AD2 JUMP JUMPDEST PUSH1 0x42 DUP2 MSTORE DUP4 DUP2 ADD SWAP2 PUSH1 0x60 CALLDATASIZE DUP5 CALLDATACOPY DUP2 MLOAD ISZERO PUSH2 0x3747 JUMPI PUSH1 0x30 DUP4 MSTORE8 DUP2 MLOAD PUSH1 0x1 SWAP1 DUP2 LT ISZERO PUSH2 0x3732 JUMPI PUSH1 0x78 PUSH1 0x21 DUP5 ADD MSTORE8 PUSH1 0x41 SWAP1 JUMPDEST DUP1 DUP3 GT PUSH2 0x36C4 JUMPI POP POP PUSH2 0x3682 JUMPI PUSH1 0x48 PUSH2 0x14C2 SWAP4 PUSH2 0x2026 SWAP4 PUSH2 0x3666 SWAP4 PUSH1 0x40 MLOAD SWAP6 DUP7 SWAP4 PUSH23 0x20B1B1B2B9B9A1B7B73A3937B61D1030B1B1B7BAB73A1 PUSH1 0x4D SHL DUP11 DUP7 ADD MSTORE PUSH2 0x1FFD DUP2 MLOAD DUP1 SWAP3 DUP13 PUSH1 0x37 DUP10 ADD SWAP2 ADD PUSH2 0x3B96 JUMP JUMPDEST PUSH1 0x40 MLOAD SWAP4 DUP5 SWAP4 PUSH3 0x461BCD PUSH1 0xE5 SHL DUP6 MSTORE PUSH1 0x4 DUP6 ADD MSTORE DUP4 ADD SWAP1 PUSH2 0x3BB9 JUMP JUMPDEST PUSH1 0x64 DUP6 DUP6 PUSH1 0x40 MLOAD SWAP2 PUSH3 0x461BCD PUSH1 0xE5 SHL DUP4 MSTORE DUP2 PUSH1 0x4 DUP5 ADD MSTORE DUP3 ADD MSTORE PUSH32 0x537472696E67733A20686578206C656E67746820696E73756666696369656E74 PUSH1 0x44 DUP3 ADD MSTORE REVERT JUMPDEST SWAP1 SWAP2 PUSH1 0xF DUP2 AND PUSH1 0x10 DUP2 LT ISZERO PUSH2 0x371D JUMPI PUSH16 0x181899199A1A9B1B9C1CB0B131B232B3 PUSH1 0x81 SHL SWAP1 BYTE PUSH2 0x36F3 DUP5 DUP7 PUSH2 0x4358 JUMP JUMPDEST MSTORE8 PUSH1 0x4 SHR SWAP2 DUP1 ISZERO PUSH2 0x3708 JUMPI PUSH1 0x0 NOT ADD SWAP1 PUSH2 0x3613 JUMP JUMPDEST DUP8 PUSH4 0x4E487B71 PUSH1 0xE0 SHL PUSH1 0x0 MSTORE PUSH1 0x11 PUSH1 0x4 MSTORE PUSH1 0x0 REVERT JUMPDEST DUP9 PUSH4 0x4E487B71 PUSH1 0xE0 SHL PUSH1 0x0 MSTORE PUSH1 0x32 PUSH1 0x4 MSTORE PUSH1 0x0 REVERT JUMPDEST DUP7 PUSH4 0x4E487B71 PUSH1 0xE0 SHL PUSH1 0x0 MSTORE PUSH1 0x32 PUSH1 0x4 MSTORE PUSH1 0x0 REVERT JUMPDEST DUP6 PUSH4 0x4E487B71 PUSH1 0xE0 SHL PUSH1 0x0 MSTORE PUSH1 0x32 PUSH1 0x4 MSTORE PUSH1 0x0 REVERT JUMPDEST CALLVALUE PUSH2 0x303 JUMPI PUSH1 0x20 CALLDATASIZE PUSH1 0x3 NOT ADD SLT PUSH2 0x303 JUMPI PUSH1 0x20 PUSH2 0x160A PUSH1 0x4 CALLDATALOAD PUSH2 0x4EFE JUMP JUMPDEST CALLVALUE PUSH2 0x303 JUMPI PUSH2 0x3788 CALLDATASIZE PUSH2 0x3B64 JUMP JUMPDEST SWAP1 PUSH1 0xFF PUSH1 0x3 SLOAD PUSH1 0xA0 SHR AND ISZERO PUSH2 0x541 JUMPI PUSH2 0x379F PUSH2 0x4503 JUMP JUMPDEST PUSH1 0x0 DUP2 DUP2 MSTORE PUSH1 0x5 PUSH1 0x20 SWAP1 DUP2 MSTORE PUSH1 0x40 SWAP1 SWAP2 KECCAK256 PUSH1 0x1 DUP1 DUP3 ADD SLOAD PUSH1 0x1 PUSH1 0x1 PUSH1 0xA0 SHL SUB AND DUP1 ISZERO PUSH2 0x393B JUMPI CALLER EQ ISZERO DUP1 PUSH2 0x390A JUMPI JUMPDEST PUSH2 0x18AC JUMPI DUP5 MLOAD PUSH1 0x3 DUP4 ADD SWAP2 PUSH1 0x1 PUSH1 0x1 PUSH1 0x40 SHL SUB DUP3 GT PUSH2 0x11E4 JUMPI PUSH2 0x37FB DUP3 PUSH2 0x37F5 DUP6 SLOAD PUSH2 0x4433 JUMP JUMPDEST DUP6 PUSH2 0x4575 JUMP JUMPDEST DUP5 PUSH1 0x1F DUP4 GT PUSH1 0x1 EQ PUSH2 0x387E JUMPI SWAP2 DUP1 DUP1 PUSH2 0x3868 SWAP8 SWAP6 SWAP4 PUSH32 0xA1CB72B2DF2B666D002EFA40F8CD8EDAF3B7AB25CA4D23C1478ACE3D54D2EF84 SWAP10 SWAP11 SWAP8 SWAP6 PUSH1 0x0 SWAP4 PUSH2 0x3873 JUMPI JUMPDEST POP SHL SWAP2 PUSH1 0x0 NOT SWAP1 PUSH1 0x3 SHL SHR NOT AND OR SWAP1 SSTORE JUMPDEST PUSH1 0x5 TIMESTAMP SWAP2 ADD SSTORE PUSH1 0x40 MLOAD SWAP3 DUP4 SWAP3 PUSH1 0x40 DUP5 MSTORE PUSH1 0x40 DUP5 ADD SWAP1 PUSH2 0x3BB9 JUMP JUMPDEST SWAP1 TIMESTAMP SWAP1 DUP4 ADD MSTORE SUB SWAP1 LOG2 STOP JUMPDEST DUP9 ADD MLOAD SWAP3 POP DUP12 PUSH2 0x383D JUMP JUMPDEST PUSH1 0x1F SWAP3 SWAP2 SWAP3 NOT DUP3 AND SWAP1 DUP5 PUSH1 0x0 MSTORE DUP7 PUSH1 0x0 KECCAK256 SWAP2 PUSH1 0x0 JUMPDEST DUP2 DUP2 LT PUSH2 0x38F5 JUMPI POP SWAP2 DUP4 SWAP2 PUSH2 0x3868 SWAP9 SWAP7 SWAP5 PUSH32 0xA1CB72B2DF2B666D002EFA40F8CD8EDAF3B7AB25CA4D23C1478ACE3D54D2EF84 SWAP11 SWAP12 SWAP9 SWAP7 SWAP5 LT PUSH2 0x38DC JUMPI JUMPDEST POP POP DUP2 SHL ADD SWAP1 SSTORE PUSH2 0x384E JUMP JUMPDEST DUP8 ADD MLOAD PUSH1 0x0 NOT PUSH1 0xF8 DUP5 PUSH1 0x3 SHL AND SHR NOT AND SWAP1 SSTORE DUP10 DUP1 PUSH2 0x38D0 JUMP JUMPDEST DUP11 DUP4 ADD MLOAD DUP5 SSTORE SWAP3 DUP6 ADD SWAP3 SWAP2 DUP9 ADD SWAP2 DUP9 ADD PUSH2 0x3893 JUMP JUMPDEST POP PUSH1 0x0 DUP1 MLOAD PUSH1 0x20 PUSH2 0x5040 DUP4 CODECOPY DUP2 MLOAD SWAP2 MSTORE PUSH1 0x0 MSTORE PUSH1 0x0 DUP4 MSTORE PUSH1 0x40 PUSH1 0x0 KECCAK256 CALLER PUSH1 0x0 MSTORE DUP4 MSTORE PUSH1 0xFF PUSH1 0x40 PUSH1 0x0 KECCAK256 SLOAD AND ISZERO PUSH2 0x37CE JUMP JUMPDEST PUSH1 0x40 MLOAD PUSH4 0xACBEACF PUSH1 0xE3 SHL DUP2 MSTORE PUSH1 0x4 DUP2 ADD DUP7 SWAP1 MSTORE PUSH1 0x24 SWAP1 REVERT JUMPDEST CALLVALUE PUSH2 0x303 JUMPI PUSH1 0x0 CALLDATASIZE PUSH1 0x3 NOT ADD SLT PUSH2 0x303 JUMPI PUSH1 0x20 PUSH1 0x40 MLOAD PUSH1 0x1 DUP2 MSTORE RETURN JUMPDEST CALLVALUE PUSH2 0x303 JUMPI PUSH2 0x397E CALLDATASIZE PUSH2 0x3A18 JUMP JUMPDEST PUSH1 0x0 DUP3 DUP2 MSTORE PUSH1 0x5 PUSH1 0x20 MSTORE PUSH1 0x40 SWAP1 KECCAK256 PUSH1 0x1 ADD SLOAD SWAP1 SWAP2 SWAP1 PUSH1 0x1 PUSH1 0x1 PUSH1 0xA0 SHL SUB AND ISZERO PUSH2 0x2EB JUMPI PUSH1 0x0 MSTORE PUSH1 0xC PUSH1 0x20 MSTORE PUSH1 0x40 PUSH1 0x0 KECCAK256 SWAP1 PUSH1 0x0 MSTORE PUSH1 0x20 MSTORE PUSH1 0x20 PUSH1 0x40 PUSH1 0x0 KECCAK256 SLOAD PUSH1 0x40 MLOAD SWAP1 DUP2 MSTORE RETURN JUMPDEST CALLVALUE PUSH2 0x303 JUMPI PUSH1 0x20 CALLDATASIZE PUSH1 0x3 NOT ADD SLT PUSH2 0x303 JUMPI PUSH1 0x4 CALLDATALOAD SWAP1 PUSH4 0xFFFFFFFF PUSH1 0xE0 SHL DUP3 AND DUP1 SWAP3 SUB PUSH2 0x303 JUMPI PUSH1 0x20 SWAP2 PUSH4 0x7965DB0B PUSH1 0xE0 SHL DUP2 EQ SWAP1 DUP2 ISZERO PUSH2 0x3A07 JUMPI JUMPDEST POP ISZERO ISZERO DUP2 MSTORE RETURN JUMPDEST PUSH4 0x1FFC9A7 PUSH1 0xE0 SHL EQ SWAP1 POP DUP4 PUSH2 0x3A00 JUMP JUMPDEST PUSH1 0x40 SWAP1 PUSH1 0x3 NOT ADD SLT PUSH2 0x303 JUMPI PUSH1 0x4 CALLDATALOAD SWAP1 PUSH1 0x24 CALLDATALOAD SWAP1 JUMP JUMPDEST PUSH2 0x120 DUP2 ADD SWAP1 DUP2 LT PUSH1 0x1 PUSH1 0x1 PUSH1 0x40 SHL SUB DUP3 GT OR PUSH2 0x11E4 JUMPI PUSH1 0x40 MSTORE JUMP JUMPDEST PUSH1 0xE0 DUP2 ADD SWAP1 DUP2 LT PUSH1 0x1 PUSH1 0x1 PUSH1 0x40 SHL SUB DUP3 GT OR PUSH2 0x11E4 JUMPI PUSH1 0x40 MSTORE JUMP JUMPDEST PUSH2 0x100 DUP2 ADD SWAP1 DUP2 LT PUSH1 0x1 PUSH1 0x1 PUSH1 0x40 SHL SUB DUP3 GT OR PUSH2 0x11E4 JUMPI PUSH1 0x40 MSTORE JUMP JUMPDEST PUSH1 0xC0 DUP2 ADD SWAP1 DUP2 LT PUSH1 0x1 PUSH1 0x1 PUSH1 0x40 SHL SUB DUP3 GT OR PUSH2 0x11E4 JUMPI PUSH1 0x40 MSTORE JUMP JUMPDEST PUSH1 0xA0 DUP2 ADD SWAP1 DUP2 LT PUSH1 0x1 PUSH1 0x1 PUSH1 0x40 SHL SUB DUP3 GT OR PUSH2 0x11E4 JUMPI PUSH1 0x40 MSTORE JUMP JUMPDEST PUSH1 0x20 DUP2 ADD SWAP1 DUP2 LT PUSH1 0x1 PUSH1 0x1 PUSH1 0x40 SHL SUB DUP3 GT OR PUSH2 0x11E4 JUMPI PUSH1 0x40 MSTORE JUMP JUMPDEST PUSH1 0x80 DUP2 ADD SWAP1 DUP2 LT PUSH1 0x1 PUSH1 0x1 PUSH1 0x40 SHL SUB DUP3 GT OR PUSH2 0x11E4 JUMPI PUSH1 0x40 MSTORE JUMP JUMPDEST SWAP1 PUSH1 0x1F DUP1 NOT SWAP2 ADD AND DUP2 ADD SWAP1 DUP2 LT PUSH1 0x1 PUSH1 0x1 PUSH1 0x40 SHL SUB DUP3 GT OR PUSH2 0x11E4 JUMPI PUSH1 0x40 MSTORE JUMP JUMPDEST DUP2 PUSH1 0x1F DUP3 ADD SLT ISZERO PUSH2 0x303 JUMPI DUP1 CALLDATALOAD SWAP1 PUSH1 0x1 PUSH1 0x1 PUSH1 0x40 SHL SUB DUP3 GT PUSH2 0x11E4 JUMPI PUSH1 0x40 MLOAD SWAP3 PUSH2 0x3B42 PUSH1 0x1F DUP5 ADD PUSH1 0x1F NOT AND PUSH1 0x20 ADD DUP6 PUSH2 0x3AED JUMP JUMPDEST DUP3 DUP5 MSTORE PUSH1 0x20 DUP4 DUP4 ADD ADD GT PUSH2 0x303 JUMPI DUP2 PUSH1 0x0 SWAP3 PUSH1 0x20 DUP1 SWAP4 ADD DUP4 DUP7 ADD CALLDATACOPY DUP4 ADD ADD MSTORE SWAP1 JUMP JUMPDEST SWAP1 PUSH1 0x40 PUSH1 0x3 NOT DUP4 ADD SLT PUSH2 0x303 JUMPI PUSH1 0x4 CALLDATALOAD SWAP2 PUSH1 0x24 CALLDATALOAD SWAP1 PUSH1 0x1 PUSH1 0x1 PUSH1 0x40 SHL SUB DUP3 GT PUSH2 0x303 JUMPI PUSH2 0x3B93 SWAP2 PUSH1 0x4 ADD PUSH2 0x3B0E JUMP JUMPDEST SWAP1 JUMP JUMPDEST PUSH1 0x0 JUMPDEST DUP4 DUP2 LT PUSH2 0x3BA9 JUMPI POP POP PUSH1 0x0 SWAP2 ADD MSTORE JUMP JUMPDEST DUP2 DUP2 ADD MLOAD DUP4 DUP3 ADD MSTORE PUSH1 0x20 ADD PUSH2 0x3B99 JUMP JUMPDEST SWAP1 PUSH1 0x20 SWAP2 PUSH2 0x3BD2 DUP2 MLOAD DUP1 SWAP3 DUP2 DUP6 MSTORE DUP6 DUP1 DUP7 ADD SWAP2 ADD PUSH2 0x3B96 JUMP JUMPDEST PUSH1 0x1F ADD PUSH1 0x1F NOT AND ADD ADD SWAP1 JUMP JUMPDEST SWAP1 DUP1 DUP3 MLOAD SWAP1 DUP2 DUP2 MSTORE PUSH1 0x20 DUP1 SWAP2 ADD SWAP3 DUP2 DUP1 DUP5 PUSH1 0x5 SHL DUP4 ADD ADD SWAP6 ADD SWAP4 PUSH1 0x0 SWAP2 JUMPDEST DUP5 DUP4 LT PUSH2 0x3C0C JUMPI POP POP POP POP POP POP SWAP1 JUMP JUMPDEST SWAP1 SWAP2 SWAP3 SWAP4 SWAP5 SWAP6 DUP5 DUP1 PUSH1 0x1 SWAP3 PUSH1 0x1F NOT DUP6 DUP3 SUB ADD DUP7 MSTORE DUP10 MLOAD SWAP1 DUP2 MLOAD DUP2 MSTORE DUP3 DUP3 ADD MLOAD DUP4 DUP3 ADD MSTORE PUSH2 0x3C8B PUSH2 0x3C78 PUSH2 0x3C65 PUSH2 0x3C52 PUSH1 0x40 DUP1 DUP8 ADD MLOAD SWAP1 PUSH2 0x120 DUP1 SWAP2 DUP9 ADD MSTORE DUP7 ADD SWAP1 PUSH2 0x3BB9 JUMP JUMPDEST PUSH1 0x60 DUP1 DUP8 ADD MLOAD SWAP1 DUP7 DUP4 SUB SWAP1 DUP8 ADD MSTORE PUSH2 0x3BB9 JUMP JUMPDEST PUSH1 0x80 DUP1 DUP7 ADD MLOAD SWAP1 DUP6 DUP4 SUB SWAP1 DUP7 ADD MSTORE PUSH2 0x3BB9 JUMP JUMPDEST PUSH1 0xA0 DUP1 DUP6 ADD MLOAD SWAP1 DUP5 DUP4 SUB SWAP1 DUP6 ADD MSTORE PUSH2 0x3BB9 JUMP JUMPDEST SWAP2 PUSH1 0xC0 DUP1 DUP3 ADD MLOAD SWAP1 DUP4 ADD MSTORE PUSH1 0xE0 DUP7 DUP1 PUSH1 0xA0 SHL SUB DUP2 DUP4 ADD MLOAD AND SWAP1 DUP4 ADD MSTORE PUSH2 0x100 DUP1 SWAP2 ADD MLOAD SWAP2 ADD MSTORE SWAP9 ADD SWAP4 ADD SWAP4 ADD SWAP2 SWAP5 SWAP4 SWAP3 SWAP1 PUSH2 0x3BFC JUMP JUMPDEST PUSH1 0x24 CALLDATALOAD SWAP1 PUSH1 0x1 PUSH1 0x1 PUSH1 0xA0 SHL SUB DUP3 AND DUP3 SUB PUSH2 0x303 JUMPI JUMP JUMPDEST PUSH1 0x4 CALLDATALOAD SWAP1 PUSH1 0x1 PUSH1 0x1 PUSH1 0xA0 SHL SUB DUP3 AND DUP3 SUB PUSH2 0x303 JUMPI JUMP JUMPDEST CALLDATALOAD SWAP1 PUSH1 0x1 PUSH1 0x1 PUSH1 0xA0 SHL SUB DUP3 AND DUP3 SUB PUSH2 0x303 JUMPI JUMP JUMPDEST CALLVALUE PUSH2 0x303 JUMPI PUSH1 0x0 CALLDATASIZE PUSH1 0x3 NOT ADD SLT PUSH2 0x303 JUMPI PUSH1 0x20 PUSH1 0x40 MLOAD PUSH2 0x2710 DUP2 MSTORE RETURN JUMPDEST PUSH1 0x4 GT ISZERO PUSH2 0x3D28 JUMPI JUMP JUMPDEST PUSH4 0x4E487B71 PUSH1 0xE0 SHL PUSH1 0x0 MSTORE PUSH1 0x21 PUSH1 0x4 MSTORE PUSH1 0x24 PUSH1 0x0 REVERT JUMPDEST PUSH1 0x20 DUP2 MSTORE DUP2 MLOAD PUSH1 0x20 DUP3 ADD MSTORE PUSH1 0x1 DUP1 PUSH1 0xA0 SHL SUB PUSH1 0x20 DUP4 ADD MLOAD AND PUSH1 0x40 DUP3 ADD MSTORE PUSH1 0x40 DUP3 ADD MLOAD PUSH1 0x60 DUP3 ADD MSTORE PUSH1 0x60 DUP3 ADD MLOAD PUSH1 0xE0 PUSH2 0x3D84 PUSH2 0x100 SWAP3 DUP4 PUSH1 0x80 DUP7 ADD MSTORE PUSH2 0x120 DUP6 ADD SWAP1 PUSH2 0x3BB9 JUMP JUMPDEST SWAP4 PUSH1 0x80 DUP2 ADD MLOAD PUSH1 0xA0 DUP6 ADD MSTORE PUSH1 0xA0 DUP2 ADD MLOAD PUSH1 0xC0 DUP6 ADD MSTORE PUSH1 0xC0 DUP2 ADD MLOAD ISZERO ISZERO DUP3 DUP6 ADD MSTORE ADD MLOAD ISZERO ISZERO SWAP2 ADD MSTORE SWAP1 JUMP JUMPDEST SWAP2 SWAP1 DUP3 PUSH1 0xC0 SWAP2 SUB SLT PUSH2 0x303 JUMPI PUSH1 0x40 MLOAD PUSH2 0x3DC6 DUP2 PUSH2 0x3A81 JUMP JUMPDEST PUSH1 0xA0 DUP1 DUP3 SWAP5 DUP1 CALLDATALOAD DUP5 MSTORE PUSH1 0x20 DUP2 ADD CALLDATALOAD PUSH1 0x20 DUP6 ADD MSTORE PUSH1 0x40 DUP2 ADD CALLDATALOAD PUSH1 0x40 DUP6 ADD MSTORE PUSH1 0x60 DUP2 ADD CALLDATALOAD PUSH1 0x60 DUP6 ADD MSTORE PUSH1 0x80 DUP2 ADD CALLDATALOAD PUSH1 0x80 DUP6 ADD MSTORE ADD CALLDATALOAD SWAP2 ADD MSTORE JUMP JUMPDEST PUSH1 0x1 PUSH1 0x1 PUSH1 0x40 SHL SUB DUP2 GT PUSH2 0x11E4 JUMPI PUSH1 0x5 SHL PUSH1 0x20 ADD SWAP1 JUMP JUMPDEST PUSH1 0x20 SWAP1 DUP2 PUSH1 0x40 DUP2 DUP4 ADD SWAP3 DUP3 DUP2 MSTORE DUP6 MLOAD DUP1 SWAP5 MSTORE ADD SWAP4 ADD SWAP2 PUSH1 0x0 JUMPDEST DUP3 DUP2 LT PUSH2 0x3E3C JUMPI POP POP POP POP SWAP1 JUMP JUMPDEST DUP4 MLOAD DUP6 MSTORE SWAP4 DUP2 ADD SWAP4 SWAP3 DUP2 ADD SWAP3 PUSH1 0x1 ADD PUSH2 0x3E2E JUMP JUMPDEST PUSH1 0xA0 DUP1 SWAP2 DUP1 MLOAD DUP5 MSTORE PUSH1 0x20 DUP2 ADD MLOAD PUSH1 0x20 DUP6 ADD MSTORE PUSH1 0x40 DUP2 ADD MLOAD PUSH1 0x40 DUP6 ADD MSTORE PUSH1 0x60 DUP2 ADD MLOAD PUSH1 0x60 DUP6 ADD MSTORE PUSH1 0x80 DUP2 ADD MLOAD PUSH1 0x80 DUP6 ADD MSTORE ADD MLOAD SWAP2 ADD MSTORE JUMP JUMPDEST CALLER PUSH1 0x0 SWAP1 DUP2 MSTORE PUSH32 0xB470F2A4BCDB3397BB37CD2AED079057563C5C8C028F1ABEDB6D2E5F62946CE5 PUSH1 0x20 SWAP1 DUP2 MSTORE PUSH1 0x40 DUP1 DUP4 KECCAK256 SLOAD SWAP1 SWAP3 PUSH32 0xA5DF84D05F94C8E589750A34F9631C6DF369AABC0811CCBBD233872FF60AEC66 SWAP2 PUSH1 0xFF AND ISZERO PUSH2 0x3EEB JUMPI POP POP POP POP JUMP JUMPDEST PUSH2 0x3EF4 CALLER PUSH2 0x4369 JUMP JUMPDEST SWAP2 DUP5 MLOAD SWAP1 PUSH2 0x3F01 DUP3 PUSH2 0x3AD2 JUMP JUMPDEST PUSH1 0x42 DUP3 MSTORE DUP5 DUP3 ADD SWAP3 PUSH1 0x60 CALLDATASIZE DUP6 CALLDATACOPY DUP3 MLOAD ISZERO PUSH2 0x4061 JUMPI PUSH1 0x30 DUP5 MSTORE8 DUP3 MLOAD SWAP1 PUSH1 0x1 SWAP2 DUP3 LT ISZERO PUSH2 0x4061 JUMPI SWAP1 PUSH1 0x78 PUSH1 0x21 DUP6 ADD MSTORE8 PUSH1 0x41 SWAP2 JUMPDEST DUP2 DUP4 GT PUSH2 0x3FF3 JUMPI POP POP POP PUSH2 0x3FB1 JUMPI PUSH1 0x48 PUSH2 0x14C2 SWAP4 DUP7 SWAP4 PUSH2 0x3F95 SWAP4 PUSH2 0x3F86 SWAP9 MLOAD SWAP9 DUP10 SWAP4 PUSH23 0x20B1B1B2B9B9A1B7B73A3937B61D1030B1B1B7BAB73A1 PUSH1 0x4D SHL DUP11 DUP7 ADD MSTORE PUSH2 0x1FFD DUP2 MLOAD DUP1 SWAP3 DUP13 PUSH1 0x37 DUP10 ADD SWAP2 ADD PUSH2 0x3B96 JUMP JUMPDEST ADD SUB PUSH1 0x28 DUP2 ADD DUP8 MSTORE ADD DUP6 PUSH2 0x3AED JUMP JUMPDEST MLOAD SWAP3 DUP4 SWAP3 PUSH3 0x461BCD PUSH1 0xE5 SHL DUP5 MSTORE PUSH1 0x4 DUP5 ADD MSTORE PUSH1 0x24 DUP4 ADD SWAP1 PUSH2 0x3BB9 JUMP JUMPDEST PUSH1 0x64 DUP5 DUP7 MLOAD SWAP1 PUSH3 0x461BCD PUSH1 0xE5 SHL DUP3 MSTORE DUP1 PUSH1 0x4 DUP4 ADD MSTORE PUSH1 0x24 DUP3 ADD MSTORE PUSH32 0x537472696E67733A20686578206C656E67746820696E73756666696369656E74 PUSH1 0x44 DUP3 ADD MSTORE REVERT JUMPDEST SWAP1 SWAP2 SWAP3 PUSH1 0xF DUP2 AND PUSH1 0x10 DUP2 LT ISZERO PUSH2 0x404D JUMPI PUSH16 0x181899199A1A9B1B9C1CB0B131B232B3 PUSH1 0x81 SHL SWAP1 BYTE PUSH2 0x4023 DUP6 DUP8 PUSH2 0x4358 JUMP JUMPDEST MSTORE8 PUSH1 0x4 SHR SWAP3 DUP1 ISZERO PUSH2 0x4039 JUMPI PUSH1 0x0 NOT ADD SWAP2 SWAP1 PUSH2 0x3F32 JUMP JUMPDEST PUSH4 0x4E487B71 PUSH1 0xE0 SHL DUP3 MSTORE PUSH1 0x11 PUSH1 0x4 MSTORE PUSH1 0x24 DUP3 REVERT JUMPDEST PUSH4 0x4E487B71 PUSH1 0xE0 SHL DUP4 MSTORE PUSH1 0x32 PUSH1 0x4 MSTORE PUSH1 0x24 DUP4 REVERT JUMPDEST PUSH4 0x4E487B71 PUSH1 0xE0 SHL DUP2 MSTORE PUSH1 0x32 PUSH1 0x4 MSTORE PUSH1 0x24 SWAP1 REVERT JUMPDEST CALLER PUSH1 0x0 SWAP1 DUP2 MSTORE PUSH32 0x7D7FFB7A348E1C6A02869081A26547B49160DD3DF72D1D75A570EB9B698292EC PUSH1 0x20 SWAP1 DUP2 MSTORE PUSH1 0x40 DUP1 DUP4 KECCAK256 SLOAD SWAP1 SWAP3 PUSH32 0xA49807205CE4D355092EF5A8A18F56E8913CF4A201FBE287825B095693C21775 SWAP2 PUSH1 0xFF AND ISZERO PUSH2 0x40D9 JUMPI POP POP POP POP JUMP JUMPDEST PUSH2 0x40E2 CALLER PUSH2 0x4369 JUMP JUMPDEST SWAP2 DUP5 MLOAD SWAP1 PUSH2 0x40EF DUP3 PUSH2 0x3AD2 JUMP JUMPDEST PUSH1 0x42 DUP3 MSTORE DUP5 DUP3 ADD SWAP3 PUSH1 0x60 CALLDATASIZE DUP6 CALLDATACOPY DUP3 MLOAD ISZERO PUSH2 0x4061 JUMPI PUSH1 0x30 DUP5 MSTORE8 DUP3 MLOAD SWAP1 PUSH1 0x1 SWAP2 DUP3 LT ISZERO PUSH2 0x4061 JUMPI SWAP1 PUSH1 0x78 PUSH1 0x21 DUP6 ADD MSTORE8 PUSH1 0x41 SWAP2 JUMPDEST DUP2 DUP4 GT PUSH2 0x4174 JUMPI POP POP POP PUSH2 0x3FB1 JUMPI PUSH1 0x48 PUSH2 0x14C2 SWAP4 DUP7 SWAP4 PUSH2 0x3F95 SWAP4 PUSH2 0x3F86 SWAP9 MLOAD SWAP9 DUP10 SWAP4 PUSH23 0x20B1B1B2B9B9A1B7B73A3937B61D1030B1B1B7BAB73A1 PUSH1 0x4D SHL DUP11 DUP7 ADD MSTORE PUSH2 0x1FFD DUP2 MLOAD DUP1 SWAP3 DUP13 PUSH1 0x37 DUP10 ADD SWAP2 ADD PUSH2 0x3B96 JUMP JUMPDEST SWAP1 SWAP2 SWAP3 PUSH1 0xF DUP2 AND PUSH1 0x10 DUP2 LT ISZERO PUSH2 0x404D JUMPI PUSH16 0x181899199A1A9B1B9C1CB0B131B232B3 PUSH1 0x81 SHL SWAP1 BYTE PUSH2 0x41A4 DUP6 DUP8 PUSH2 0x4358 JUMP JUMPDEST MSTORE8 PUSH1 0x4 SHR SWAP3 DUP1 ISZERO PUSH2 0x4039 JUMPI PUSH1 0x0 NOT ADD SWAP2 SWAP1 PUSH2 0x4120 JUMP JUMPDEST PUSH1 0x0 SWAP1 DUP1 DUP3 MSTORE PUSH1 0x20 SWAP1 DUP3 DUP3 MSTORE PUSH1 0x40 SWAP3 DUP4 DUP2 KECCAK256 CALLER DUP3 MSTORE DUP4 MSTORE PUSH1 0xFF DUP5 DUP3 KECCAK256 SLOAD AND ISZERO PUSH2 0x41E3 JUMPI POP POP POP POP JUMP JUMPDEST PUSH2 0x41EC CALLER PUSH2 0x4369 JUMP JUMPDEST SWAP2 DUP5 MLOAD SWAP1 PUSH2 0x41F9 DUP3 PUSH2 0x3AD2 JUMP JUMPDEST PUSH1 0x42 DUP3 MSTORE DUP5 DUP3 ADD SWAP3 PUSH1 0x60 CALLDATASIZE DUP6 CALLDATACOPY DUP3 MLOAD ISZERO PUSH2 0x4061 JUMPI PUSH1 0x30 DUP5 MSTORE8 DUP3 MLOAD SWAP1 PUSH1 0x1 SWAP2 DUP3 LT ISZERO PUSH2 0x4061 JUMPI SWAP1 PUSH1 0x78 PUSH1 0x21 DUP6 ADD MSTORE8 PUSH1 0x41 SWAP2 JUMPDEST DUP2 DUP4 GT PUSH2 0x427E JUMPI POP POP POP PUSH2 0x3FB1 JUMPI PUSH1 0x48 PUSH2 0x14C2 SWAP4 DUP7 SWAP4 PUSH2 0x3F95 SWAP4 PUSH2 0x3F86 SWAP9 MLOAD SWAP9 DUP10 SWAP4 PUSH23 0x20B1B1B2B9B9A1B7B73A3937B61D1030B1B1B7BAB73A1 PUSH1 0x4D SHL DUP11 DUP7 ADD MSTORE PUSH2 0x1FFD DUP2 MLOAD DUP1 SWAP3 DUP13 PUSH1 0x37 DUP10 ADD SWAP2 ADD PUSH2 0x3B96 JUMP JUMPDEST SWAP1 SWAP2 SWAP3 PUSH1 0xF DUP2 AND PUSH1 0x10 DUP2 LT ISZERO PUSH2 0x404D JUMPI PUSH16 0x181899199A1A9B1B9C1CB0B131B232B3 PUSH1 0x81 SHL SWAP1 BYTE PUSH2 0x42AE DUP6 DUP8 PUSH2 0x4358 JUMP JUMPDEST MSTORE8 PUSH1 0x4 SHR SWAP3 DUP1 ISZERO PUSH2 0x4039 JUMPI PUSH1 0x0 NOT ADD SWAP2 SWAP1 PUSH2 0x422A JUMP JUMPDEST SWAP1 PUSH1 0x0 SWAP2 DUP1 DUP4 MSTORE DUP3 PUSH1 0x20 MSTORE PUSH1 0x40 DUP4 KECCAK256 SWAP2 PUSH1 0x1 DUP1 PUSH1 0xA0 SHL SUB AND SWAP2 DUP3 DUP5 MSTORE PUSH1 0x20 MSTORE PUSH1 0xFF PUSH1 0x40 DUP5 KECCAK256 SLOAD AND PUSH2 0x42F4 JUMPI POP POP POP JUMP JUMPDEST DUP1 DUP4 MSTORE DUP3 PUSH1 0x20 MSTORE PUSH1 0x40 DUP4 KECCAK256 DUP3 DUP5 MSTORE PUSH1 0x20 MSTORE PUSH1 0x40 DUP4 KECCAK256 PUSH1 0xFF NOT DUP2 SLOAD AND SWAP1 SSTORE PUSH32 0xF6391F5C32D9C69D2A47EA670B442974B53935D1EDC7FD64EB21E047A839171B CALLER SWAP4 DUP1 LOG4 JUMP JUMPDEST DUP2 DUP2 MUL SWAP3 SWAP2 DUP2 ISZERO SWAP2 DUP5 DIV EQ OR ISZERO PUSH2 0x1075 JUMPI JUMP JUMPDEST SWAP2 SWAP1 DUP3 ADD DUP1 SWAP3 GT PUSH2 0x1075 JUMPI JUMP JUMPDEST SWAP1 DUP2 MLOAD DUP2 LT ISZERO PUSH2 0x20DD JUMPI ADD PUSH1 0x20 ADD SWAP1 JUMP JUMPDEST PUSH1 0x40 MLOAD SWAP1 PUSH1 0x60 DUP3 ADD DUP3 DUP2 LT PUSH1 0x1 PUSH1 0x1 PUSH1 0x40 SHL SUB DUP3 GT OR PUSH2 0x11E4 JUMPI PUSH1 0x40 MSTORE PUSH1 0x2A DUP3 MSTORE PUSH1 0x20 DUP3 ADD PUSH1 0x40 CALLDATASIZE DUP3 CALLDATACOPY DUP3 MLOAD ISZERO PUSH2 0x20DD JUMPI PUSH1 0x30 SWAP1 MSTORE8 DUP2 MLOAD PUSH1 0x1 SWAP1 DUP2 LT ISZERO PUSH2 0x20DD JUMPI PUSH1 0x78 PUSH1 0x21 DUP5 ADD MSTORE8 PUSH1 0x29 SWAP1 JUMPDEST DUP1 DUP3 GT PUSH2 0x43C5 JUMPI POP POP PUSH2 0x2055 JUMPI SWAP1 JUMP JUMPDEST SWAP1 SWAP2 PUSH1 0xF DUP2 AND PUSH1 0x10 DUP2 LT ISZERO PUSH2 0x441E JUMPI PUSH16 0x181899199A1A9B1B9C1CB0B131B232B3 PUSH1 0x81 SHL SWAP1 BYTE PUSH2 0x43F4 DUP5 DUP7 PUSH2 0x4358 JUMP JUMPDEST MSTORE8 PUSH1 0x4 SHR SWAP2 DUP1 ISZERO PUSH2 0x4409 JUMPI PUSH1 0x0 NOT ADD SWAP1 PUSH2 0x43B5 JUMP JUMPDEST PUSH1 0x24 PUSH1 0x0 PUSH4 0x4E487B71 PUSH1 0xE0 SHL DUP2 MSTORE PUSH1 0x11 PUSH1 0x4 MSTORE REVERT JUMPDEST PUSH1 0x24 PUSH1 0x0 PUSH4 0x4E487B71 PUSH1 0xE0 SHL DUP2 MSTORE PUSH1 0x32 PUSH1 0x4 MSTORE REVERT JUMPDEST SWAP1 PUSH1 0x1 DUP3 DUP2 SHR SWAP3 AND DUP1 ISZERO PUSH2 0x4463 JUMPI JUMPDEST PUSH1 0x20 DUP4 LT EQ PUSH2 0x444D JUMPI JUMP JUMPDEST PUSH4 0x4E487B71 PUSH1 0xE0 SHL PUSH1 0x0 MSTORE PUSH1 0x22 PUSH1 0x4 MSTORE PUSH1 0x24 PUSH1 0x0 REVERT JUMPDEST SWAP2 PUSH1 0x7F AND SWAP2 PUSH2 0x4442 JUMP JUMPDEST SWAP1 PUSH1 0x0 SWAP3 SWAP2 DUP1 SLOAD SWAP2 PUSH2 0x447E DUP4 PUSH2 0x4433 JUMP JUMPDEST SWAP2 DUP3 DUP3 MSTORE PUSH1 0x1 SWAP4 DUP5 DUP2 AND SWAP1 DUP2 PUSH1 0x0 EQ PUSH2 0x44E0 JUMPI POP PUSH1 0x1 EQ PUSH2 0x44A0 JUMPI JUMPDEST POP POP POP POP JUMP JUMPDEST SWAP1 SWAP2 SWAP4 SWAP5 POP PUSH1 0x0 MSTORE PUSH1 0x20 SWAP3 DUP4 PUSH1 0x0 KECCAK256 SWAP3 DUP5 PUSH1 0x0 SWAP5 JUMPDEST DUP4 DUP7 LT PUSH2 0x44CC JUMPI POP POP POP POP ADD ADD SWAP1 CODESIZE DUP1 DUP1 DUP1 PUSH2 0x449A JUMP JUMPDEST DUP1 SLOAD DUP6 DUP8 ADD DUP4 ADD MSTORE SWAP5 ADD SWAP4 DUP6 SWAP1 DUP3 ADD PUSH2 0x44B5 JUMP JUMPDEST SWAP3 SWAP5 POP POP POP PUSH1 0x20 SWAP4 SWAP5 POP PUSH1 0xFF NOT AND DUP4 DUP4 ADD MSTORE ISZERO ISZERO PUSH1 0x5 SHL ADD ADD SWAP1 CODESIZE DUP1 DUP1 DUP1 PUSH2 0x449A JUMP JUMPDEST PUSH1 0xFF PUSH1 0x1 SLOAD AND PUSH2 0x450F JUMPI JUMP JUMPDEST PUSH1 0x40 MLOAD PUSH3 0x461BCD PUSH1 0xE5 SHL DUP2 MSTORE PUSH1 0x20 PUSH1 0x4 DUP3 ADD MSTORE PUSH1 0x10 PUSH1 0x24 DUP3 ADD MSTORE PUSH16 0x14185D5CD8589B194E881C185D5CD959 PUSH1 0x82 SHL PUSH1 0x44 DUP3 ADD MSTORE PUSH1 0x64 SWAP1 REVERT JUMPDEST SWAP1 DUP2 PUSH1 0x20 SWAP2 SUB SLT PUSH2 0x303 JUMPI MLOAD PUSH1 0x1 PUSH1 0x1 PUSH1 0xA0 SHL SUB DUP2 AND DUP2 SUB PUSH2 0x303 JUMPI SWAP1 JUMP JUMPDEST PUSH1 0x0 NOT DUP2 EQ PUSH2 0x1075 JUMPI PUSH1 0x1 ADD SWAP1 JUMP JUMPDEST SWAP1 PUSH1 0x1F DUP2 GT PUSH2 0x4583 JUMPI POP POP POP JUMP JUMPDEST PUSH1 0x0 SWAP2 DUP3 MSTORE PUSH1 0x20 DUP3 KECCAK256 SWAP1 PUSH1 0x20 PUSH1 0x1F DUP6 ADD PUSH1 0x5 SHR DUP4 ADD SWAP5 LT PUSH2 0x45BF JUMPI JUMPDEST PUSH1 0x1F ADD PUSH1 0x5 SHR ADD SWAP2 JUMPDEST DUP3 DUP2 LT PUSH2 0x45B4 JUMPI POP POP POP JUMP JUMPDEST DUP2 DUP2 SSTORE PUSH1 0x1 ADD PUSH2 0x45A8 JUMP JUMPDEST SWAP1 SWAP3 POP DUP3 SWAP1 PUSH2 0x459F JUMP JUMPDEST PUSH1 0x0 DUP2 DUP2 MSTORE PUSH1 0x8 PUSH1 0x20 MSTORE PUSH1 0x40 DUP2 KECCAK256 SLOAD PUSH2 0x465C JUMPI PUSH1 0x7 SLOAD PUSH1 0x1 PUSH1 0x40 SHL DUP2 LT ISZERO PUSH2 0x4648 JUMPI PUSH1 0x1 DUP2 ADD DUP1 PUSH1 0x7 SSTORE DUP2 LT ISZERO PUSH2 0x4634 JUMPI SWAP1 DUP3 PUSH1 0x40 SWAP3 PUSH32 0xA66CC928B5EDB82AF9BD49922954155AB7B0942694BEA4CE44661D9A8736C688 ADD SSTORE PUSH1 0x7 SLOAD SWAP3 DUP2 MSTORE PUSH1 0x8 PUSH1 0x20 MSTORE KECCAK256 SSTORE PUSH1 0x1 SWAP1 JUMP JUMPDEST PUSH4 0x4E487B71 PUSH1 0xE0 SHL DUP3 MSTORE PUSH1 0x32 PUSH1 0x4 MSTORE PUSH1 0x24 DUP3 REVERT JUMPDEST PUSH4 0x4E487B71 PUSH1 0xE0 SHL DUP3 MSTORE PUSH1 0x41 PUSH1 0x4 MSTORE PUSH1 0x24 DUP3 REVERT JUMPDEST SWAP1 POP SWAP1 JUMP JUMPDEST SWAP2 SWAP1 PUSH1 0x1 DUP4 ADD PUSH1 0x0 SWAP1 DUP3 DUP3 MSTORE DUP1 PUSH1 0x20 MSTORE PUSH1 0x40 DUP3 KECCAK256 SLOAD ISZERO PUSH1 0x0 EQ PUSH2 0x46CC JUMPI DUP5 SLOAD SWAP5 PUSH1 0x1 PUSH1 0x40 SHL DUP7 LT ISZERO PUSH2 0x46B8 JUMPI PUSH1 0x1 DUP7 ADD DUP1 DUP3 SSTORE DUP7 LT ISZERO PUSH2 0x404D JUMPI DUP4 PUSH1 0x40 SWAP5 SWAP6 SWAP7 DUP3 DUP6 MSTORE PUSH1 0x20 DUP6 KECCAK256 ADD SSTORE SLOAD SWAP4 DUP3 MSTORE PUSH1 0x20 MSTORE KECCAK256 SSTORE PUSH1 0x1 SWAP1 JUMP JUMPDEST PUSH4 0x4E487B71 PUSH1 0xE0 SHL DUP4 MSTORE PUSH1 0x41 PUSH1 0x4 MSTORE PUSH1 0x24 DUP4 REVERT JUMPDEST POP SWAP3 POP POP JUMP JUMPDEST PUSH1 0x40 MLOAD SWAP1 PUSH2 0x46DF DUP3 PUSH2 0x3A65 JUMP JUMPDEST DUP2 PUSH1 0xE0 PUSH1 0x0 SWAP2 DUP3 DUP2 MSTORE DUP3 PUSH1 0x20 DUP3 ADD MSTORE DUP3 PUSH1 0x40 DUP3 ADD MSTORE PUSH1 0x60 DUP1 DUP3 ADD MSTORE DUP3 PUSH1 0x80 DUP3 ADD MSTORE DUP3 PUSH1 0xA0 DUP3 ADD MSTORE DUP3 PUSH1 0xC0 DUP3 ADD MSTORE ADD MSTORE JUMP JUMPDEST PUSH1 0x1 PUSH1 0xFF SHL DUP2 EQ PUSH2 0x1075 JUMPI PUSH1 0x0 SUB SWAP1 JUMP JUMPDEST SWAP2 SWAP1 SWAP2 PUSH1 0x0 DUP4 DUP3 ADD SWAP4 DUP5 SLT SWAP2 SLT SWAP1 DUP1 ISZERO DUP3 AND SWAP2 ISZERO AND OR PUSH2 0x1075 JUMPI JUMP JUMPDEST DUP1 SLOAD SWAP1 PUSH1 0x1 PUSH1 0x40 SHL DUP3 LT ISZERO PUSH2 0x11E4 JUMPI PUSH1 0x1 DUP3 ADD DUP1 DUP3 SSTORE DUP3 LT ISZERO PUSH2 0x20DD JUMPI PUSH1 0x6 SWAP2 PUSH1 0xC0 SWAP2 PUSH1 0x0 MSTORE PUSH1 0x7 PUSH1 0x20 PUSH1 0x0 KECCAK256 SWAP2 MUL ADD SWAP3 DUP1 MLOAD DUP5 SSTORE PUSH1 0x1 DUP5 ADD PUSH1 0x20 DUP3 ADD MLOAD PUSH2 0x4784 DUP2 PUSH2 0x3D1E JUMP JUMPDEST PUSH2 0x478D DUP2 PUSH2 0x3D1E JUMP JUMPDEST PUSH1 0xFF DUP1 NOT DUP4 SLOAD AND SWAP2 AND OR SWAP1 SSTORE PUSH1 0x40 DUP2 ADD MLOAD PUSH1 0x2 DUP6 ADD SSTORE PUSH1 0x60 DUP2 ADD MLOAD PUSH1 0x3 DUP6 ADD SSTORE PUSH1 0x4 DUP5 ADD PUSH1 0x1 DUP1 PUSH1 0xA0 SHL SUB PUSH1 0x80 DUP4 ADD MLOAD AND PUSH1 0x1 PUSH1 0x1 PUSH1 0x60 SHL SUB PUSH1 0xA0 SHL DUP3 SLOAD AND OR SWAP1 SSTORE PUSH1 0xA0 DUP2 ADD MLOAD PUSH1 0x5 DUP6 ADD SSTORE ADD MLOAD SWAP2 ADD SSTORE JUMP JUMPDEST PUSH1 0x40 MLOAD SWAP1 PUSH2 0x47ED DUP3 PUSH2 0x3A81 JUMP JUMPDEST DUP2 PUSH1 0xA0 PUSH1 0x0 SWAP2 DUP3 DUP2 MSTORE DUP3 PUSH1 0x20 DUP3 ADD MSTORE DUP3 PUSH1 0x40 DUP3 ADD MSTORE DUP3 PUSH1 0x60 DUP3 ADD MSTORE DUP3 PUSH1 0x80 DUP3 ADD MSTORE ADD MSTORE JUMP JUMPDEST DUP1 SLOAD DUP3 LT ISZERO PUSH2 0x20DD JUMPI PUSH1 0x0 MSTORE PUSH1 0x9 PUSH1 0x20 PUSH1 0x0 KECCAK256 SWAP2 MUL ADD SWAP1 PUSH1 0x0 SWAP1 JUMP JUMPDEST SWAP1 PUSH1 0x40 SWAP2 PUSH2 0x100 PUSH1 0x8 DUP5 MLOAD SWAP3 PUSH2 0x4843 DUP5 PUSH2 0x3A2E JUMP JUMPDEST DUP4 SWAP6 DUP2 SLOAD DUP6 MSTORE PUSH1 0x1 DUP3 ADD SLOAD PUSH1 0x20 DUP7 ADD MSTORE DUP1 MLOAD PUSH2 0x4866 DUP2 PUSH2 0xCB5 DUP2 PUSH1 0x2 DUP8 ADD PUSH2 0x446D JUMP JUMPDEST DUP2 DUP7 ADD MSTORE DUP1 MLOAD PUSH2 0x487D DUP2 PUSH2 0xCB5 DUP2 PUSH1 0x3 DUP8 ADD PUSH2 0x446D JUMP JUMPDEST PUSH1 0x60 DUP7 ADD MSTORE DUP1 MLOAD PUSH2 0x4895 DUP2 PUSH2 0xCB5 DUP2 PUSH1 0x4 DUP8 ADD PUSH2 0x446D JUMP JUMPDEST PUSH1 0x80 DUP7 ADD MSTORE MLOAD PUSH2 0x48AC DUP2 PUSH2 0xCB5 DUP2 PUSH1 0x5 DUP7 ADD PUSH2 0x446D JUMP JUMPDEST PUSH1 0xA0 DUP6 ADD MSTORE PUSH1 0x6 DUP2 ADD SLOAD PUSH1 0xC0 DUP6 ADD MSTORE PUSH1 0x7 DUP2 ADD SLOAD PUSH1 0x1 PUSH1 0x1 PUSH1 0xA0 SHL SUB AND PUSH1 0xE0 DUP6 ADD MSTORE ADD SLOAD SWAP2 ADD MSTORE JUMP JUMPDEST SWAP1 DUP2 SLOAD PUSH2 0x48E1 DUP2 PUSH2 0x3DFE JUMP JUMPDEST SWAP3 PUSH2 0x48EF PUSH1 0x40 MLOAD SWAP5 DUP6 PUSH2 0x3AED JUMP JUMPDEST DUP2 DUP5 MSTORE PUSH1 0x0 SWAP1 DUP2 MSTORE PUSH1 0x20 DUP1 DUP3 KECCAK256 DUP2 DUP7 ADD JUMPDEST DUP5 DUP5 LT PUSH2 0x490E JUMPI POP POP POP POP POP JUMP JUMPDEST PUSH1 0x9 DUP4 PUSH1 0x1 SWAP3 PUSH2 0x491D DUP6 PUSH2 0x482E JUMP JUMPDEST DUP2 MSTORE ADD SWAP3 ADD SWAP4 ADD SWAP3 SWAP1 PUSH2 0x4900 JUMP JUMPDEST DUP1 MLOAD DUP3 LT ISZERO PUSH2 0x20DD JUMPI PUSH1 0x20 SWAP2 PUSH1 0x5 SHL ADD ADD SWAP1 JUMP JUMPDEST DUP1 SLOAD DUP3 LT ISZERO PUSH2 0x20DD JUMPI PUSH1 0x0 MSTORE PUSH1 0x6 PUSH1 0x20 PUSH1 0x0 KECCAK256 SWAP2 MUL ADD SWAP1 PUSH1 0x0 SWAP1 JUMP JUMPDEST SWAP1 PUSH2 0x4965 DUP2 PUSH2 0x3D1E JUMP JUMPDEST DUP2 SLOAD PUSH1 0xFF PUSH1 0xA0 SHL NOT AND PUSH1 0xA0 SWAP2 SWAP1 SWAP2 SHL PUSH1 0xFF PUSH1 0xA0 SHL AND OR SWAP1 SSTORE JUMP JUMPDEST SWAP1 PUSH1 0x40 MLOAD PUSH2 0x498C DUP2 PUSH2 0x3A81 JUMP JUMPDEST PUSH1 0xA0 PUSH1 0x5 DUP3 SWAP5 DUP1 SLOAD DUP5 MSTORE PUSH1 0x1 DUP2 ADD SLOAD PUSH1 0x20 DUP6 ADD MSTORE PUSH1 0x2 DUP2 ADD SLOAD PUSH1 0x40 DUP6 ADD MSTORE PUSH1 0x3 DUP2 ADD SLOAD PUSH1 0x60 DUP6 ADD MSTORE PUSH1 0x4 DUP2 ADD SLOAD PUSH1 0x80 DUP6 ADD MSTORE ADD SLOAD SWAP2 ADD MSTORE JUMP JUMPDEST SWAP2 SWAP1 DUP3 SUB SWAP2 DUP3 GT PUSH2 0x1075 JUMPI JUMP JUMPDEST SWAP1 SWAP3 SWAP2 PUSH1 0x0 SWAP2 DUP1 DUP4 MSTORE PUSH1 0x5 SWAP5 PUSH1 0x20 SWAP2 DUP7 DUP4 MSTORE PUSH1 0x1 DUP1 PUSH1 0xA0 SHL SUB SWAP7 PUSH1 0x1 SWAP3 PUSH1 0x40 SWAP3 DUP10 DUP6 DUP6 DUP11 KECCAK256 ADD SLOAD AND ISZERO PUSH2 0x4BD0 JUMPI DUP8 MSTORE PUSH1 0x10 DUP6 MSTORE DUP3 DUP8 KECCAK256 SWAP9 DUP10 SLOAD DUP1 DUP4 LT ISZERO PUSH2 0x4BB5 JUMPI PUSH2 0x4A1D DUP9 DUP5 PUSH2 0x434B JUMP JUMPDEST SWAP8 DUP2 DUP10 GT PUSH2 0x4BAB JUMPI JUMPDEST PUSH1 0x64 LT PUSH2 0x4B7A JUMPI JUMPDEST POP PUSH2 0x4A39 DUP3 DUP9 PUSH2 0x49C5 JUMP JUMPDEST SWAP8 PUSH2 0x4A43 DUP10 PUSH2 0x3DFE JUMP JUMPDEST SWAP9 PUSH2 0x4A50 DUP7 MLOAD SWAP11 DUP12 PUSH2 0x3AED JUMP JUMPDEST DUP1 DUP11 MSTORE PUSH2 0x4A5F PUSH1 0x1F NOT SWAP2 PUSH2 0x3DFE JUMP JUMPDEST ADD SWAP1 DUP8 DUP2 JUMPDEST DUP4 DUP2 LT PUSH2 0x4B36 JUMPI POP POP POP POP DUP2 JUMPDEST DUP8 DUP2 LT PUSH2 0x4A85 JUMPI POP SWAP7 SWAP9 POP POP POP POP POP POP POP POP JUMP JUMPDEST DUP1 PUSH2 0x33D0 DUP11 DUP9 PUSH2 0x4B2A DUP16 PUSH2 0x4A9D PUSH2 0x4B31 SWAP8 DUP15 SWAP3 PUSH2 0x493F JUMP JUMPDEST POP SWAP4 DUP12 DUP12 PUSH2 0x4AAB DUP13 DUP11 PUSH2 0x49C5 JUMP JUMPDEST SWAP7 DUP8 SWAP5 DUP4 MLOAD SWAP8 PUSH2 0x4ABA DUP10 PUSH2 0x3A65 JUMP JUMPDEST DUP3 SLOAD DUP10 MSTORE DUP3 ADD SLOAD SWAP1 DUP9 ADD MSTORE PUSH1 0x2 DUP2 ADD SLOAD DUP13 DUP2 AND DUP5 DUP10 ADD MSTORE PUSH1 0xFF SWAP4 DUP5 PUSH1 0xA0 SWAP3 DUP2 DUP2 DUP6 SHR AND PUSH2 0x4AE6 DUP2 PUSH2 0x3D1E JUMP JUMPDEST PUSH1 0x60 DUP13 ADD MSTORE PUSH1 0xA8 SHR AND PUSH1 0x80 DUP11 ADD MSTORE MLOAD SWAP1 PUSH2 0x4B0E DUP3 PUSH2 0x4B07 DUP2 PUSH1 0x3 DUP8 ADD PUSH2 0x446D JUMP JUMPDEST SUB DUP4 PUSH2 0x3AED JUMP JUMPDEST DUP9 ADD MSTORE PUSH1 0x4 DUP2 ADD SLOAD PUSH1 0xC0 DUP9 ADD MSTORE ADD SLOAD AND ISZERO ISZERO PUSH1 0xE0 DUP6 ADD MSTORE PUSH2 0x492B JUMP JUMPDEST MSTORE DUP12 PUSH2 0x492B JUMP JUMPDEST PUSH2 0x4A71 JUMP JUMPDEST DUP8 MLOAD DUP3 DUP3 DUP15 PUSH2 0x4B44 DUP5 PUSH2 0x3A65 JUMP JUMPDEST DUP7 DUP5 MSTORE DUP7 DUP4 DUP6 ADD MSTORE DUP7 DUP13 DUP6 ADD MSTORE PUSH1 0x60 DUP8 DUP2 DUP7 ADD MSTORE DUP8 PUSH1 0x80 DUP7 ADD MSTORE PUSH1 0xA0 DUP6 ADD MSTORE DUP7 PUSH1 0xC0 DUP6 ADD MSTORE DUP7 PUSH1 0xE0 DUP6 ADD MSTORE ADD ADD MSTORE ADD DUP9 SWAP1 PUSH2 0x4A64 JUMP JUMPDEST PUSH1 0x64 DUP4 ADD SWAP8 POP DUP8 DUP4 GT PUSH2 0x4B97 JUMPI DUP1 DUP9 GT ISZERO PUSH2 0x4A2E JUMPI SWAP7 POP CODESIZE PUSH2 0x4A2E JUMP JUMPDEST PUSH4 0x4E487B71 PUSH1 0xE0 SHL DUP10 MSTORE PUSH1 0x11 PUSH1 0x4 MSTORE PUSH1 0x24 DUP10 REVERT JUMPDEST SWAP1 SWAP8 POP DUP8 SWAP1 PUSH2 0x4A26 JUMP JUMPDEST POP POP POP POP SWAP4 SWAP5 SWAP6 POP POP POP POP MLOAD SWAP1 PUSH2 0x4BCB DUP3 PUSH2 0x3AB7 JUMP JUMPDEST DUP2 MSTORE SWAP1 JUMP JUMPDEST PUSH1 0x24 SWAP1 DUP5 MLOAD SWAP1 PUSH4 0xACBEACF PUSH1 0xE3 SHL DUP3 MSTORE PUSH1 0x4 DUP3 ADD MSTORE REVERT JUMPDEST DUP2 ISZERO PUSH2 0x4BF1 JUMPI DIV SWAP1 JUMP JUMPDEST PUSH4 0x4E487B71 PUSH1 0xE0 SHL PUSH1 0x0 MSTORE PUSH1 0x12 PUSH1 0x4 MSTORE PUSH1 0x24 PUSH1 0x0 REVERT JUMPDEST SWAP1 PUSH2 0x4C11 DUP3 PUSH2 0x3DFE JUMP JUMPDEST PUSH2 0x4C1E PUSH1 0x40 MLOAD SWAP2 DUP3 PUSH2 0x3AED JUMP JUMPDEST DUP3 DUP2 MSTORE DUP1 SWAP3 PUSH2 0x4C2F PUSH1 0x1F NOT SWAP2 PUSH2 0x3DFE JUMP JUMPDEST ADD SWAP1 PUSH1 0x20 CALLDATASIZE SWAP2 ADD CALLDATACOPY JUMP JUMPDEST SWAP1 SWAP2 SWAP1 PUSH1 0x0 SWAP1 DUP1 PUSH2 0x4E3C JUMPI POP POP PUSH1 0x40 MLOAD DUP1 DUP2 PUSH1 0x7 SLOAD DUP1 DUP4 MSTORE PUSH1 0x20 DUP1 SWAP4 ADD SWAP1 PUSH1 0x7 PUSH1 0x0 MSTORE PUSH32 0xA66CC928B5EDB82AF9BD49922954155AB7B0942694BEA4CE44661D9A8736C688 SWAP4 PUSH1 0x0 SWAP1 JUMPDEST DUP3 DUP3 LT PUSH2 0x4E22 JUMPI POP POP POP PUSH2 0x4C98 SWAP3 POP SUB DUP3 PUSH2 0x3AED JUMP JUMPDEST DUP1 MLOAD ISZERO PUSH2 0x4E07 JUMPI PUSH2 0x4CA9 DUP2 MLOAD PUSH2 0x4C07 JUMP JUMPDEST SWAP3 PUSH1 0x0 JUMPDEST DUP3 MLOAD DUP2 LT ISZERO PUSH2 0x4CDA JUMPI DUP1 PUSH2 0x4CC4 PUSH2 0x4CD5 SWAP3 DUP6 PUSH2 0x492B JUMP JUMPDEST MLOAD PUSH2 0x4CCF DUP3 DUP9 PUSH2 0x492B JUMP JUMPDEST MSTORE PUSH2 0x4566 JUMP JUMPDEST PUSH2 0x4CAD JUMP JUMPDEST POP SWAP2 PUSH1 0x0 SWAP2 POP JUMPDEST DUP4 MLOAD PUSH1 0x0 NOT SWAP4 SWAP1 DUP5 DUP2 ADD SWAP1 DUP2 GT PUSH2 0x1075 JUMPI DUP4 LT ISZERO PUSH2 0x4DB4 JUMPI PUSH1 0x0 JUMPDEST PUSH2 0x4D07 DUP5 DUP8 MLOAD PUSH2 0x49C5 JUMP JUMPDEST DUP6 DUP2 ADD SWAP1 DUP2 GT PUSH2 0x1075 JUMPI DUP2 LT ISZERO PUSH2 0x4DA1 JUMPI PUSH2 0x4D22 DUP2 DUP8 PUSH2 0x492B JUMP JUMPDEST MLOAD PUSH1 0x0 MSTORE PUSH1 0xA SWAP1 PUSH1 0x20 SWAP2 DUP1 DUP4 MSTORE PUSH1 0x1 PUSH1 0x40 SWAP1 DUP1 DUP3 PUSH1 0x0 KECCAK256 ADD SLOAD SWAP2 DUP2 DUP6 ADD SWAP4 DUP5 DUP7 GT PUSH2 0x1075 JUMPI PUSH2 0x4D6A SWAP7 PUSH2 0x4D55 DUP7 DUP15 PUSH2 0x492B JUMP JUMPDEST MLOAD PUSH1 0x0 MSTORE MSTORE PUSH1 0x0 KECCAK256 ADD SLOAD GT PUSH2 0x4D6F JUMPI POP PUSH2 0x4566 JUMP JUMPDEST PUSH2 0x4CFC JUMP JUMPDEST PUSH2 0x4D9A PUSH2 0x4D7C DUP4 DUP11 PUSH2 0x492B JUMP JUMPDEST MLOAD SWAP2 PUSH2 0x4D88 DUP2 DUP12 PUSH2 0x492B JUMP JUMPDEST MLOAD PUSH2 0x4D93 DUP6 DUP13 PUSH2 0x492B JUMP JUMPDEST MSTORE DUP10 PUSH2 0x492B JUMP JUMPDEST MSTORE CODESIZE PUSH2 0x33D0 JUMP JUMPDEST POP SWAP3 POP SWAP1 PUSH2 0x4DAE SWAP1 PUSH2 0x4566 JUMP JUMPDEST SWAP1 PUSH2 0x4CE1 JUMP JUMPDEST SWAP2 POP SWAP2 POP DUP3 MLOAD SWAP1 DUP2 DUP2 GT PUSH1 0x0 EQ PUSH2 0x4E00 JUMPI POP JUMPDEST PUSH2 0x4DD0 DUP2 PUSH2 0x4C07 JUMP JUMPDEST SWAP1 PUSH1 0x0 JUMPDEST DUP2 DUP2 LT PUSH2 0x4DE2 JUMPI POP SWAP1 SWAP3 POP POP JUMP JUMPDEST DUP1 PUSH2 0x4DF0 PUSH2 0x4DFB SWAP3 DUP8 PUSH2 0x492B JUMP JUMPDEST MLOAD PUSH2 0x4CCF DUP3 DUP7 PUSH2 0x492B JUMP JUMPDEST PUSH2 0x4DD4 JUMP JUMPDEST SWAP1 POP PUSH2 0x4DC7 JUMP JUMPDEST POP SWAP1 POP PUSH1 0x40 MLOAD PUSH2 0x4E16 DUP2 PUSH2 0x3AB7 JUMP JUMPDEST PUSH1 0x0 DUP2 MSTORE PUSH1 0x0 CALLDATASIZE DUP2 CALLDATACOPY SWAP1 JUMP JUMPDEST DUP6 SLOAD DUP5 MSTORE PUSH1 0x1 SWAP6 DUP7 ADD SWAP6 DUP8 SWAP6 POP SWAP4 DUP2 ADD SWAP4 SWAP1 SWAP2 ADD SWAP1 PUSH2 0x4C82 JUMP JUMPDEST DUP2 MSTORE PUSH1 0x20 SWAP1 PUSH1 0x9 DUP3 MSTORE PUSH1 0x40 DUP2 KECCAK256 SWAP2 PUSH1 0x40 MLOAD SWAP3 DUP4 DUP3 DUP6 SWAP4 DUP4 SLOAD SWAP3 DUP4 DUP2 MSTORE ADD SWAP3 DUP6 MSTORE DUP1 DUP6 KECCAK256 SWAP5 SWAP1 JUMPDEST DUP3 DUP3 LT PUSH2 0x4E7D JUMPI POP POP POP PUSH2 0x4E78 SWAP3 POP SUB DUP3 PUSH2 0x3AED JUMP JUMPDEST PUSH2 0x4C98 JUMP JUMPDEST DUP6 SLOAD DUP5 MSTORE PUSH1 0x1 SWAP6 DUP7 ADD SWAP6 DUP8 SWAP6 POP SWAP4 DUP2 ADD SWAP4 SWAP1 SWAP2 ADD SWAP1 PUSH2 0x4E62 JUMP JUMPDEST PUSH1 0x0 SWAP1 DUP2 MSTORE PUSH1 0x5 PUSH1 0x20 MSTORE PUSH1 0x40 SWAP1 KECCAK256 PUSH1 0x1 ADD SLOAD PUSH1 0x1 PUSH1 0x1 PUSH1 0xA0 SHL SUB AND ISZERO PUSH2 0x3B93 JUMPI PUSH2 0x4EEA PUSH2 0x3E8 SWAP2 PUSH1 0xA PUSH1 0x20 MSTORE PUSH1 0x1 PUSH1 0x40 PUSH1 0x0 KECCAK256 ADD SLOAD SWAP1 PUSH2 0xBB8 DUP1 DUP4 GT PUSH2 0x4EF6 JUMPI JUMPDEST POP PUSH2 0x1F4 DUP1 DUP4 LT PUSH2 0x4EEE JUMPI JUMPDEST POP PUSH2 0x4338 JUMP JUMPDEST DIV SWAP1 JUMP JUMPDEST SWAP2 POP CODESIZE PUSH2 0x4EE4 JUMP JUMPDEST SWAP2 POP CODESIZE PUSH2 0x4ED8 JUMP JUMPDEST PUSH1 0x0 DUP2 DUP2 MSTORE PUSH1 0x5 PUSH1 0x20 MSTORE PUSH1 0x40 DUP2 KECCAK256 PUSH1 0x1 ADD SLOAD SWAP2 SWAP3 SWAP2 PUSH1 0x1 PUSH1 0x1 PUSH1 0xA0 SHL SUB AND ISZERO PUSH2 0x501B JUMPI PUSH1 0xA PUSH1 0x20 MSTORE PUSH1 0x40 DUP2 KECCAK256 SWAP3 PUSH1 0x11 PUSH1 0x20 MSTORE PUSH1 0x40 DUP3 KECCAK256 SWAP2 PUSH1 0x2 DUP6 ADD SLOAD SWAP3 DUP2 SWAP1 DUP1 SLOAD PUSH2 0x4FF5 JUMPI JUMPDEST POP PUSH1 0x64 PUSH2 0x4F90 SWAP6 SWAP7 SLOAD DIV SWAP2 PUSH2 0x7D0 DUP1 DUP5 GT PUSH2 0x4FEC JUMPI JUMPDEST POP SWAP3 DUP4 MSTORE PUSH1 0x13 PUSH1 0x20 MSTORE PUSH1 0x40 DUP4 KECCAK256 SLOAD PUSH1 0xFF AND PUSH2 0x4F74 DUP2 PUSH2 0x3D1E JUMP JUMPDEST PUSH1 0x1 DUP2 SUB PUSH2 0x4F9E JUMPI POP PUSH2 0x4F8B SWAP3 POP PUSH2 0x4F8B SWAP1 PUSH2 0x1F4 SWAP5 JUMPDEST PUSH2 0x434B JUMP JUMPDEST PUSH2 0x2710 DUP1 DUP3 GT PUSH2 0x465C JUMPI POP SWAP1 JUMP JUMPDEST PUSH2 0x4FA7 DUP2 PUSH2 0x3D1E JUMP JUMPDEST PUSH1 0x2 DUP2 SUB PUSH2 0x4FC2 JUMPI POP PUSH2 0x4F8B SWAP3 POP PUSH2 0x4F8B SWAP1 PUSH2 0x3E8 SWAP5 PUSH2 0x434B JUMP JUMPDEST DUP1 PUSH2 0x4FCE PUSH1 0x3 SWAP3 PUSH2 0x3D1E JUMP JUMPDEST EQ PUSH2 0x4FE2 JUMPI JUMPDEST PUSH2 0x4F8B SWAP1 PUSH2 0x4F8B SWAP4 SWAP5 PUSH2 0x434B JUMP JUMPDEST PUSH2 0x5DC SWAP3 POP PUSH2 0x4FD4 JUMP JUMPDEST SWAP3 POP PUSH1 0x40 PUSH2 0x4F5A JUMP JUMPDEST PUSH1 0x4 ADD SLOAD PUSH2 0x7D0 DUP1 DUP3 MUL SWAP8 SWAP3 POP DUP2 ISZERO SWAP2 DUP9 DIV EQ OR ISZERO PUSH2 0x4039 JUMPI SWAP5 PUSH2 0x1F4 SWAP1 DIV PUSH1 0x64 PUSH2 0x4F44 JUMP JUMPDEST SWAP2 POP JUMP INVALID 0x2F DUP8 DUP9 GT PUSH31 0x7EFF1D82E926EC794901D17C78024A50270940304540A733656F0D1D0F12D0 DUP3 0xB3 0xE5 CALLER DUP16 DUP14 0xAB BALANCE EXP CODESIZE 0xDB CALLDATASIZE GASLIMIT CALL SWAP5 JUMP 0xD3 0xE5 SWAP2 PUSH2 0x8FB6 0xAC 0xE8 CALLDATACOPY 0xC5 0xDA CODECOPY LOG2 PUSH5 0x6970667358 0x22 SLT KECCAK256 0x4A BASEFEE XOR DUP16 PUSH30 0x10888651DB77E4E9A45EAFEB881C6F5C3671EBA496DEE5CB10856164736F PUSH13 0x634300081400332F8788117E7E SELFDESTRUCT SAR DUP3 0xE9 0x26 0xEC PUSH26 0x4901D17C78024A50270940304540A733656F0D00000000000000 "},"methodIdentifiers":{"ACHIEVEMENT_GRANTER_ROLE()":"2d934ea4","ADMIN_ROLE()":"75b238fc","DEFAULT_ADMIN_ROLE()":"a217fddf","MAX_FEEDBACKS_PER_QUERY()":"627db022","MAX_FEEDBACK_RATING()":"ab50a468","MAX_REPUTATION_DELTA()":"56e521c2","MIN_FEEDBACK_RATING()":"02b9c2b2","OPERATOR_ROLE()":"f5b541a6","REPUTATION_MANAGER_ROLE()":"eb0fd86a","REPUTATION_SCALE()":"be152b61","SENSE_ADMIN_ROLE()":"8b158f98","TRUST_SCORE_SCALE()":"823ced41","VERIFIER_ROLE()":"e7705db6","calculateTrustScore(bytes32)":"15943f86","calculateVotingWeight(bytes32,uint256)":"9aec449f","createProfile(bytes32,string)":"5e8c6876","emergencyPause()":"51858e27","emergencyUnpause()":"4a4e3bd5","exportReputation(bytes32)":"90ba8f04","getAchievements(bytes32)":"fb7b5697","getAchievementsByCategory(bytes32,string)":"182241bb","getCategoryReputation(bytes32,bytes32)":"02940a82","getFeedbackSummary(bytes32)":"a01a5f7f","getFeedbacks(bytes32,uint256,uint256)":"59a43a50","getProfile(bytes32)":"b50991b4","getProfileByOwner(address,bytes32)":"5fbcc316","getProfileCount()":"3697611a","getProfilesByOrganization(bytes32)":"73290672","getReputation(bytes32)":"d14519d2","getReputationHistory(bytes32)":"f2dac3c6","getRoleAdmin(bytes32)":"248a9ca3","getTopProfiles(bytes32,uint256)":"f7f032df","grantAchievement(bytes32,bytes32,string,string,string,uint256,bytes)":"8dfcd170","grantRole(bytes32,address)":"2f2ff15d","hasAchievement(bytes32,bytes32)":"a3cdb785","hasRole(bytes32,address)":"91d14854","importReputation(bytes32,(bytes32,address,bytes32,(uint256,uint256,uint256,uint256,uint256,uint256),(bytes32,bytes32,string,string,string,bytes,uint256,address,uint256)[],(uint256,uint256,uint256,uint256,uint256,uint256),uint256,bytes32),bytes)":"6e1a514c","initialize(address)":"c4d66de8","isInitialized()":"392e53cd","moduleId()":"a1308f27","onModuleDisabled()":"aa7318aa","onModuleEnabled()":"ebf8a3e6","pause()":"8456cb59","paused()":"5c975abb","profileExists(bytes32)":"93e9701b","registry()":"7b103999","renounceRole(bytes32,address)":"36568abe","revokeRole(bytes32,address)":"d547741f","submitFeedback(bytes32,uint8,uint8,string)":"a8453e37","supportsInterface(bytes4)":"01ffc9a7","unpause()":"3f4ba83a","updateCategoryReputation(bytes32,bytes32,int256,bytes32)":"e3117249","updateProfile(bytes32,string)":"09bd356f","updateReputation(bytes32,uint8,int256,bytes32)":"337efca5","verifyProfile(bytes32,uint8)":"173e5660","version()":"54fd4d50"}}}}}