{"contracts/modules/Signal/Signal.sol":{"Signal":{"abi":[{"inputs":[],"stateMutability":"nonpayable","type":"constructor"},{"inputs":[{"internalType":"bytes32","name":"proposalId","type":"bytes32"},{"internalType":"address","name":"voter","type":"address"}],"name":"AlreadyVoted","type":"error"},{"inputs":[{"internalType":"address","name":"delegator","type":"address"},{"internalType":"address","name":"delegatee","type":"address"}],"name":"DelegationNotFound","type":"error"},{"inputs":[{"internalType":"bytes32","name":"proposalId","type":"bytes32"}],"name":"ExecutionFailed","type":"error"},{"inputs":[{"internalType":"address","name":"proposer","type":"address"},{"internalType":"uint256","name":"required","type":"uint256"},{"internalType":"uint256","name":"available","type":"uint256"}],"name":"InsufficientProposalThreshold","type":"error"},{"inputs":[{"internalType":"address","name":"voter","type":"address"},{"internalType":"uint256","name":"required","type":"uint256"},{"internalType":"uint256","name":"available","type":"uint256"}],"name":"InsufficientVotingPower","type":"error"},{"inputs":[{"internalType":"uint256","name":"convictionTime","type":"uint256"}],"name":"InvalidConvictionTime","type":"error"},{"inputs":[{"internalType":"address","name":"delegator","type":"address"},{"internalType":"address","name":"delegatee","type":"address"}],"name":"InvalidDelegation","type":"error"},{"inputs":[],"name":"InvalidProposalParameters","type":"error"},{"inputs":[],"name":"InvalidRegistryAddress","type":"error"},{"inputs":[{"internalType":"uint256","name":"period","type":"uint256"}],"name":"InvalidVotingPeriod","type":"error"},{"inputs":[],"name":"ModuleAlreadyInitialized","type":"error"},{"inputs":[],"name":"ModuleNotInitialized","type":"error"},{"inputs":[],"name":"OnlyRegistry","type":"error"},{"inputs":[{"internalType":"bytes32","name":"organizationId","type":"bytes32"}],"name":"OrganizationNotFound","type":"error"},{"inputs":[{"internalType":"bytes32","name":"proposalId","type":"bytes32"}],"name":"ProposalAlreadyExecuted","type":"error"},{"inputs":[{"internalType":"bytes32","name":"proposalId","type":"bytes32"}],"name":"ProposalNotActive","type":"error"},{"inputs":[{"internalType":"bytes32","name":"proposalId","type":"bytes32"}],"name":"ProposalNotFound","type":"error"},{"inputs":[{"internalType":"bytes32","name":"proposalId","type":"bytes32"}],"name":"ProposalNotPassed","type":"error"},{"inputs":[{"internalType":"bytes32","name":"proposalId","type":"bytes32"}],"name":"QuorumNotReached","type":"error"},{"inputs":[{"internalType":"bytes32","name":"proposalId","type":"bytes32"},{"internalType":"address","name":"caller","type":"address"}],"name":"UnauthorizedProposalAccess","type":"error"},{"inputs":[{"internalType":"bytes32","name":"proposalId","type":"bytes32"}],"name":"VotingNotActive","type":"error"},{"anonymous":false,"inputs":[{"indexed":true,"internalType":"bytes32","name":"proposalId","type":"bytes32"},{"indexed":true,"internalType":"address","name":"voter","type":"address"},{"indexed":false,"internalType":"uint256","name":"oldPower","type":"uint256"},{"indexed":false,"internalType":"uint256","name":"newPower","type":"uint256"},{"indexed":false,"internalType":"uint256","name":"timestamp","type":"uint256"}],"name":"ConvictionDecayApplied","type":"event"},{"anonymous":false,"inputs":[],"name":"ModuleDisabled","type":"event"},{"anonymous":false,"inputs":[],"name":"ModuleEnabled","type":"event"},{"anonymous":false,"inputs":[{"indexed":true,"internalType":"address","name":"registry","type":"address"}],"name":"ModuleInitialized","type":"event"},{"anonymous":false,"inputs":[{"indexed":false,"internalType":"address","name":"account","type":"address"}],"name":"Paused","type":"event"},{"anonymous":false,"inputs":[{"indexed":true,"internalType":"bytes32","name":"proposalId","type":"bytes32"},{"indexed":true,"internalType":"address","name":"canceller","type":"address"},{"indexed":false,"internalType":"uint256","name":"timestamp","type":"uint256"}],"name":"ProposalCancelled","type":"event"},{"anonymous":false,"inputs":[{"indexed":true,"internalType":"bytes32","name":"proposalId","type":"bytes32"},{"indexed":true,"internalType":"bytes32","name":"organizationId","type":"bytes32"},{"indexed":true,"internalType":"address","name":"proposer","type":"address"},{"indexed":false,"internalType":"string","name":"title","type":"string"},{"indexed":false,"internalType":"enum ISignal.ProposalType","name":"proposalType","type":"uint8"},{"indexed":false,"internalType":"enum ISignal.VotingType","name":"votingType","type":"uint8"},{"indexed":false,"internalType":"enum ISignal.VotingPower","name":"votingPower","type":"uint8"},{"indexed":false,"internalType":"uint256","name":"startTime","type":"uint256"},{"indexed":false,"internalType":"uint256","name":"endTime","type":"uint256"},{"indexed":false,"internalType":"uint256","name":"timestamp","type":"uint256"}],"name":"ProposalCreated","type":"event"},{"anonymous":false,"inputs":[{"indexed":true,"internalType":"bytes32","name":"proposalId","type":"bytes32"},{"indexed":false,"internalType":"bool","name":"success","type":"bool"},{"indexed":false,"internalType":"bytes","name":"returnData","type":"bytes"},{"indexed":false,"internalType":"uint256","name":"timestamp","type":"uint256"}],"name":"ProposalExecuted","type":"event"},{"anonymous":false,"inputs":[{"indexed":true,"internalType":"bytes32","name":"proposalId","type":"bytes32"},{"indexed":false,"internalType":"uint256","name":"executionTime","type":"uint256"},{"indexed":false,"internalType":"uint256","name":"timestamp","type":"uint256"}],"name":"ProposalQueued","type":"event"},{"anonymous":false,"inputs":[{"indexed":true,"internalType":"bytes32","name":"proposalId","type":"bytes32"},{"indexed":false,"internalType":"enum ISignal.ProposalState","name":"oldState","type":"uint8"},{"indexed":false,"internalType":"enum ISignal.ProposalState","name":"newState","type":"uint8"},{"indexed":false,"internalType":"uint256","name":"timestamp","type":"uint256"}],"name":"ProposalStateChanged","type":"event"},{"anonymous":false,"inputs":[{"indexed":true,"internalType":"bytes32","name":"proposalId","type":"bytes32"},{"indexed":false,"internalType":"string","name":"title","type":"string"},{"indexed":false,"internalType":"string","name":"description","type":"string"},{"indexed":false,"internalType":"uint256","name":"endTime","type":"uint256"},{"indexed":false,"internalType":"uint256","name":"timestamp","type":"uint256"}],"name":"ProposalUpdated","type":"event"},{"anonymous":false,"inputs":[{"indexed":true,"internalType":"bytes32","name":"role","type":"bytes32"},{"indexed":true,"internalType":"bytes32","name":"previousAdminRole","type":"bytes32"},{"indexed":true,"internalType":"bytes32","name":"newAdminRole","type":"bytes32"}],"name":"RoleAdminChanged","type":"event"},{"anonymous":false,"inputs":[{"indexed":true,"internalType":"bytes32","name":"role","type":"bytes32"},{"indexed":true,"internalType":"address","name":"account","type":"address"},{"indexed":true,"internalType":"address","name":"sender","type":"address"}],"name":"RoleGranted","type":"event"},{"anonymous":false,"inputs":[{"indexed":true,"internalType":"bytes32","name":"role","type":"bytes32"},{"indexed":true,"internalType":"address","name":"account","type":"address"},{"indexed":true,"internalType":"address","name":"sender","type":"address"}],"name":"RoleRevoked","type":"event"},{"anonymous":false,"inputs":[{"indexed":false,"internalType":"address","name":"account","type":"address"}],"name":"Unpaused","type":"event"},{"anonymous":false,"inputs":[{"indexed":true,"internalType":"bytes32","name":"proposalId","type":"bytes32"},{"indexed":true,"internalType":"address","name":"voter","type":"address"},{"indexed":false,"internalType":"enum ISignal.VoteChoice","name":"choice","type":"uint8"},{"indexed":false,"internalType":"uint256","name":"votingPower","type":"uint256"},{"indexed":false,"internalType":"string","name":"reason","type":"string"},{"indexed":false,"internalType":"uint256","name":"timestamp","type":"uint256"}],"name":"VoteCast","type":"event"},{"anonymous":false,"inputs":[{"indexed":true,"internalType":"bytes32","name":"organizationId","type":"bytes32"},{"indexed":false,"internalType":"uint256","name":"votingDelay","type":"uint256"},{"indexed":false,"internalType":"uint256","name":"votingPeriod","type":"uint256"},{"indexed":false,"internalType":"uint256","name":"executionDelay","type":"uint256"},{"indexed":false,"internalType":"uint256","name":"quorumThreshold","type":"uint256"},{"indexed":false,"internalType":"uint256","name":"proposalThreshold","type":"uint256"},{"indexed":false,"internalType":"uint256","name":"timestamp","type":"uint256"}],"name":"VotingParametersUpdated","type":"event"},{"anonymous":false,"inputs":[{"indexed":true,"internalType":"address","name":"delegator","type":"address"},{"indexed":true,"internalType":"address","name":"delegatee","type":"address"},{"indexed":false,"internalType":"uint256","name":"amount","type":"uint256"},{"indexed":false,"internalType":"uint256","name":"timestamp","type":"uint256"}],"name":"VotingPowerDelegated","type":"event"},{"anonymous":false,"inputs":[{"indexed":true,"internalType":"address","name":"delegator","type":"address"},{"indexed":true,"internalType":"address","name":"delegatee","type":"address"},{"indexed":false,"internalType":"uint256","name":"amount","type":"uint256"},{"indexed":false,"internalType":"uint256","name":"timestamp","type":"uint256"}],"name":"VotingPowerUndelegated","type":"event"},{"inputs":[],"name":"ADMIN_ROLE","outputs":[{"internalType":"bytes32","name":"","type":"bytes32"}],"stateMutability":"view","type":"function"},{"inputs":[],"name":"BASIS_POINTS","outputs":[{"internalType":"uint256","name":"","type":"uint256"}],"stateMutability":"view","type":"function"},{"inputs":[],"name":"CONVICTION_MULTIPLIER_BASE","outputs":[{"internalType":"uint256","name":"","type":"uint256"}],"stateMutability":"view","type":"function"},{"inputs":[],"name":"DEFAULT_ADMIN_ROLE","outputs":[{"internalType":"bytes32","name":"","type":"bytes32"}],"stateMutability":"view","type":"function"},{"inputs":[],"name":"EXECUTOR_ROLE","outputs":[{"internalType":"bytes32","name":"","type":"bytes32"}],"stateMutability":"view","type":"function"},{"inputs":[],"name":"MAX_EXECUTION_DELAY","outputs":[{"internalType":"uint256","name":"","type":"uint256"}],"stateMutability":"view","type":"function"},{"inputs":[],"name":"MAX_QUORUM_THRESHOLD","outputs":[{"internalType":"uint256","name":"","type":"uint256"}],"stateMutability":"view","type":"function"},{"inputs":[],"name":"MAX_VOTING_PERIOD","outputs":[{"internalType":"uint256","name":"","type":"uint256"}],"stateMutability":"view","type":"function"},{"inputs":[],"name":"MIN_VOTING_PERIOD","outputs":[{"internalType":"uint256","name":"","type":"uint256"}],"stateMutability":"view","type":"function"},{"inputs":[],"name":"OPERATOR_ROLE","outputs":[{"internalType":"bytes32","name":"","type":"bytes32"}],"stateMutability":"view","type":"function"},{"inputs":[],"name":"PROPOSAL_CREATOR_ROLE","outputs":[{"internalType":"bytes32","name":"","type":"bytes32"}],"stateMutability":"view","type":"function"},{"inputs":[],"name":"SIGNAL_ADMIN_ROLE","outputs":[{"internalType":"bytes32","name":"","type":"bytes32"}],"stateMutability":"view","type":"function"},{"inputs":[{"internalType":"bytes32","name":"proposalId","type":"bytes32"},{"internalType":"address","name":"voter","type":"address"}],"name":"applyConvictionDecay","outputs":[],"stateMutability":"nonpayable","type":"function"},{"inputs":[{"internalType":"uint256","name":"convictionTime","type":"uint256"}],"name":"calculateConvictionMultiplier","outputs":[{"internalType":"uint256","name":"","type":"uint256"}],"stateMutability":"pure","type":"function"},{"inputs":[{"internalType":"bytes32","name":"proposalId","type":"bytes32"},{"internalType":"address","name":"voter","type":"address"},{"internalType":"enum ISignal.VotingPower","name":"powerType","type":"uint8"}],"name":"calculateVotingPower","outputs":[{"internalType":"uint256","name":"","type":"uint256"}],"stateMutability":"view","type":"function"},{"inputs":[{"internalType":"bytes32","name":"proposalId","type":"bytes32"}],"name":"canExecute","outputs":[{"internalType":"bool","name":"","type":"bool"}],"stateMutability":"view","type":"function"},{"inputs":[{"internalType":"bytes32","name":"proposalId","type":"bytes32"},{"internalType":"address","name":"voter","type":"address"}],"name":"canVote","outputs":[{"internalType":"bool","name":"","type":"bool"}],"stateMutability":"view","type":"function"},{"inputs":[{"internalType":"bytes32","name":"proposalId","type":"bytes32"}],"name":"cancelProposal","outputs":[],"stateMutability":"nonpayable","type":"function"},{"inputs":[{"internalType":"bytes32","name":"proposalId","type":"bytes32"},{"internalType":"enum ISignal.VoteChoice","name":"choice","type":"uint8"},{"internalType":"string","name":"reason","type":"string"}],"name":"castVote","outputs":[],"stateMutability":"nonpayable","type":"function"},{"inputs":[{"internalType":"bytes32","name":"proposalId","type":"bytes32"},{"internalType":"enum ISignal.VoteChoice","name":"choice","type":"uint8"},{"internalType":"uint256","name":"convictionTime","type":"uint256"},{"internalType":"string","name":"reason","type":"string"}],"name":"castVoteWithConviction","outputs":[],"stateMutability":"nonpayable","type":"function"},{"inputs":[{"internalType":"bytes32","name":"organizationId","type":"bytes32"},{"internalType":"string","name":"title","type":"string"},{"internalType":"string","name":"description","type":"string"},{"internalType":"string","name":"metadataURI","type":"string"},{"internalType":"enum ISignal.ProposalType","name":"proposalType","type":"uint8"},{"internalType":"enum ISignal.VotingType","name":"votingType","type":"uint8"},{"internalType":"enum ISignal.VotingPower","name":"votingPower","type":"uint8"},{"internalType":"uint256","name":"votingPeriod","type":"uint256"},{"internalType":"bytes","name":"executionData","type":"bytes"},{"internalType":"address","name":"targetContract","type":"address"}],"name":"createProposal","outputs":[{"internalType":"bytes32","name":"proposalId","type":"bytes32"}],"stateMutability":"nonpayable","type":"function"},{"inputs":[{"internalType":"address","name":"delegatee","type":"address"},{"internalType":"uint256","name":"amount","type":"uint256"}],"name":"delegateVotingPower","outputs":[],"stateMutability":"nonpayable","type":"function"},{"inputs":[{"internalType":"bytes32","name":"proposalId","type":"bytes32"}],"name":"emergencyCancel","outputs":[],"stateMutability":"nonpayable","type":"function"},{"inputs":[],"name":"emergencyPause","outputs":[],"stateMutability":"nonpayable","type":"function"},{"inputs":[],"name":"emergencyUnpause","outputs":[],"stateMutability":"nonpayable","type":"function"},{"inputs":[{"internalType":"bytes32","name":"proposalId","type":"bytes32"}],"name":"estimateGasForExecution","outputs":[{"internalType":"uint256","name":"","type":"uint256"}],"stateMutability":"view","type":"function"},{"inputs":[{"internalType":"bytes32","name":"proposalId","type":"bytes32"}],"name":"executeProposal","outputs":[],"stateMutability":"nonpayable","type":"function"},{"inputs":[],"name":"getActiveProposals","outputs":[{"internalType":"bytes32[]","name":"","type":"bytes32[]"}],"stateMutability":"view","type":"function"},{"inputs":[],"name":"getDefaultVotingParameters","outputs":[{"components":[{"internalType":"uint256","name":"votingDelay","type":"uint256"},{"internalType":"uint256","name":"votingPeriod","type":"uint256"},{"internalType":"uint256","name":"executionDelay","type":"uint256"},{"internalType":"uint256","name":"quorumThreshold","type":"uint256"},{"internalType":"uint256","name":"proposalThreshold","type":"uint256"},{"internalType":"bool","name":"requireMembership","type":"bool"}],"internalType":"struct ISignal.VotingParameters","name":"","type":"tuple"}],"stateMutability":"view","type":"function"},{"inputs":[{"internalType":"address","name":"delegator","type":"address"}],"name":"getDelegatedVotingPower","outputs":[{"internalType":"uint256","name":"","type":"uint256"}],"stateMutability":"view","type":"function"},{"inputs":[{"internalType":"address","name":"delegator","type":"address"}],"name":"getDelegations","outputs":[{"components":[{"internalType":"address","name":"delegator","type":"address"},{"internalType":"address","name":"delegatee","type":"address"},{"internalType":"uint256","name":"amount","type":"uint256"},{"internalType":"uint256","name":"timestamp","type":"uint256"},{"internalType":"bool","name":"active","type":"bool"}],"internalType":"struct ISignal.Delegation[]","name":"","type":"tuple[]"}],"stateMutability":"view","type":"function"},{"inputs":[{"internalType":"bytes32","name":"proposalId","type":"bytes32"}],"name":"getExecutionETA","outputs":[{"internalType":"uint256","name":"","type":"uint256"}],"stateMutability":"view","type":"function"},{"inputs":[{"internalType":"bytes32","name":"proposalId","type":"bytes32"}],"name":"getProposal","outputs":[{"components":[{"internalType":"uint256","name":"index","type":"uint256"},{"internalType":"bytes32","name":"proposalId","type":"bytes32"},{"internalType":"bytes32","name":"organizationId","type":"bytes32"},{"internalType":"address","name":"proposer","type":"address"},{"internalType":"string","name":"title","type":"string"},{"internalType":"string","name":"description","type":"string"},{"internalType":"string","name":"metadataURI","type":"string"},{"internalType":"enum ISignal.ProposalType","name":"proposalType","type":"uint8"},{"internalType":"enum ISignal.VotingType","name":"votingType","type":"uint8"},{"internalType":"enum ISignal.VotingPower","name":"votingPower","type":"uint8"},{"internalType":"enum ISignal.ProposalState","name":"state","type":"uint8"},{"internalType":"uint256","name":"startTime","type":"uint256"},{"internalType":"uint256","name":"endTime","type":"uint256"},{"internalType":"uint256","name":"executionTime","type":"uint256"},{"internalType":"uint256","name":"createdAt","type":"uint256"},{"internalType":"uint256","name":"updatedAt","type":"uint256"},{"internalType":"bytes","name":"executionData","type":"bytes"},{"internalType":"address","name":"targetContract","type":"address"},{"internalType":"uint256","name":"requiredQuorum","type":"uint256"},{"internalType":"uint256","name":"votesFor","type":"uint256"},{"internalType":"uint256","name":"votesAgainst","type":"uint256"},{"internalType":"uint256","name":"votesAbstain","type":"uint256"},{"internalType":"uint256","name":"totalVotingPower","type":"uint256"},{"internalType":"bool","name":"executed","type":"bool"},{"internalType":"bool","name":"cancelled","type":"bool"}],"internalType":"struct ISignal.Proposal","name":"","type":"tuple"}],"stateMutability":"view","type":"function"},{"inputs":[],"name":"getProposalCount","outputs":[{"internalType":"uint256","name":"","type":"uint256"}],"stateMutability":"view","type":"function"},{"inputs":[{"internalType":"bytes32","name":"proposalId","type":"bytes32"}],"name":"getProposalResult","outputs":[{"internalType":"bool","name":"passed","type":"bool"},{"internalType":"uint256","name":"forVotes","type":"uint256"},{"internalType":"uint256","name":"againstVotes","type":"uint256"},{"internalType":"uint256","name":"abstainVotes","type":"uint256"},{"internalType":"uint256","name":"quorum","type":"uint256"}],"stateMutability":"view","type":"function"},{"inputs":[{"internalType":"bytes32","name":"proposalId","type":"bytes32"}],"name":"getProposalVotes","outputs":[{"internalType":"address[]","name":"voters","type":"address[]"},{"components":[{"internalType":"address","name":"voter","type":"address"},{"internalType":"enum ISignal.VoteChoice","name":"choice","type":"uint8"},{"internalType":"uint256","name":"votingPower","type":"uint256"},{"internalType":"uint256","name":"timestamp","type":"uint256"},{"internalType":"string","name":"reason","type":"string"},{"internalType":"uint256","name":"convictionTime","type":"uint256"}],"internalType":"struct ISignal.Vote[]","name":"votes","type":"tuple[]"}],"stateMutability":"view","type":"function"},{"inputs":[{"internalType":"bytes32","name":"organizationId","type":"bytes32"}],"name":"getProposalsByOrganization","outputs":[{"internalType":"bytes32[]","name":"","type":"bytes32[]"}],"stateMutability":"view","type":"function"},{"inputs":[{"internalType":"enum ISignal.ProposalState","name":"state","type":"uint8"}],"name":"getProposalsByState","outputs":[{"internalType":"bytes32[]","name":"","type":"bytes32[]"}],"stateMutability":"view","type":"function"},{"inputs":[{"internalType":"bytes32","name":"proposalId","type":"bytes32"}],"name":"getQuorumReached","outputs":[{"internalType":"bool","name":"","type":"bool"}],"stateMutability":"view","type":"function"},{"inputs":[{"internalType":"bytes32","name":"role","type":"bytes32"}],"name":"getRoleAdmin","outputs":[{"internalType":"bytes32","name":"","type":"bytes32"}],"stateMutability":"view","type":"function"},{"inputs":[{"internalType":"bytes32","name":"proposalId","type":"bytes32"}],"name":"getTimeRemaining","outputs":[{"internalType":"uint256","name":"","type":"uint256"}],"stateMutability":"view","type":"function"},{"inputs":[{"internalType":"bytes32","name":"proposalId","type":"bytes32"},{"internalType":"address","name":"voter","type":"address"}],"name":"getVote","outputs":[{"components":[{"internalType":"address","name":"voter","type":"address"},{"internalType":"enum ISignal.VoteChoice","name":"choice","type":"uint8"},{"internalType":"uint256","name":"votingPower","type":"uint256"},{"internalType":"uint256","name":"timestamp","type":"uint256"},{"internalType":"string","name":"reason","type":"string"},{"internalType":"uint256","name":"convictionTime","type":"uint256"}],"internalType":"struct ISignal.Vote","name":"","type":"tuple"}],"stateMutability":"view","type":"function"},{"inputs":[{"internalType":"bytes32","name":"organizationId","type":"bytes32"}],"name":"getVotingParameters","outputs":[{"components":[{"internalType":"uint256","name":"votingDelay","type":"uint256"},{"internalType":"uint256","name":"votingPeriod","type":"uint256"},{"internalType":"uint256","name":"executionDelay","type":"uint256"},{"internalType":"uint256","name":"quorumThreshold","type":"uint256"},{"internalType":"uint256","name":"proposalThreshold","type":"uint256"},{"internalType":"bool","name":"requireMembership","type":"bool"}],"internalType":"struct ISignal.VotingParameters","name":"","type":"tuple"}],"stateMutability":"view","type":"function"},{"inputs":[{"internalType":"bytes32","name":"proposalId","type":"bytes32"},{"internalType":"address","name":"voter","type":"address"}],"name":"getVotingPower","outputs":[{"internalType":"uint256","name":"","type":"uint256"}],"stateMutability":"view","type":"function"},{"inputs":[{"internalType":"bytes32","name":"role","type":"bytes32"},{"internalType":"address","name":"account","type":"address"}],"name":"grantRole","outputs":[],"stateMutability":"nonpayable","type":"function"},{"inputs":[{"internalType":"bytes32","name":"role","type":"bytes32"},{"internalType":"address","name":"account","type":"address"}],"name":"hasRole","outputs":[{"internalType":"bool","name":"","type":"bool"}],"stateMutability":"view","type":"function"},{"inputs":[{"internalType":"bytes32","name":"proposalId","type":"bytes32"},{"internalType":"address","name":"voter","type":"address"}],"name":"hasVoted","outputs":[{"internalType":"bool","name":"","type":"bool"}],"stateMutability":"view","type":"function"},{"inputs":[{"internalType":"address","name":"registryAddress","type":"address"}],"name":"initialize","outputs":[],"stateMutability":"nonpayable","type":"function"},{"inputs":[],"name":"isInitialized","outputs":[{"internalType":"bool","name":"","type":"bool"}],"stateMutability":"view","type":"function"},{"inputs":[{"internalType":"bytes32","name":"proposalId","type":"bytes32"}],"name":"isProposalActive","outputs":[{"internalType":"bool","name":"","type":"bool"}],"stateMutability":"view","type":"function"},{"inputs":[],"name":"moduleId","outputs":[{"internalType":"bytes32","name":"","type":"bytes32"}],"stateMutability":"pure","type":"function"},{"inputs":[],"name":"onModuleDisabled","outputs":[],"stateMutability":"nonpayable","type":"function"},{"inputs":[],"name":"onModuleEnabled","outputs":[],"stateMutability":"nonpayable","type":"function"},{"inputs":[],"name":"pause","outputs":[],"stateMutability":"nonpayable","type":"function"},{"inputs":[],"name":"paused","outputs":[{"internalType":"bool","name":"","type":"bool"}],"stateMutability":"view","type":"function"},{"inputs":[{"internalType":"bytes32","name":"proposalId","type":"bytes32"}],"name":"previewProposalExecution","outputs":[{"internalType":"bool","name":"success","type":"bool"},{"internalType":"bytes","name":"returnData","type":"bytes"}],"stateMutability":"view","type":"function"},{"inputs":[{"internalType":"bytes32","name":"proposalId","type":"bytes32"}],"name":"queueProposal","outputs":[],"stateMutability":"nonpayable","type":"function"},{"inputs":[],"name":"registry","outputs":[{"internalType":"address","name":"","type":"address"}],"stateMutability":"view","type":"function"},{"inputs":[{"internalType":"bytes32","name":"role","type":"bytes32"},{"internalType":"address","name":"account","type":"address"}],"name":"renounceRole","outputs":[],"stateMutability":"nonpayable","type":"function"},{"inputs":[{"internalType":"bytes32","name":"role","type":"bytes32"},{"internalType":"address","name":"account","type":"address"}],"name":"revokeRole","outputs":[],"stateMutability":"nonpayable","type":"function"},{"inputs":[{"components":[{"internalType":"uint256","name":"votingDelay","type":"uint256"},{"internalType":"uint256","name":"votingPeriod","type":"uint256"},{"internalType":"uint256","name":"executionDelay","type":"uint256"},{"internalType":"uint256","name":"quorumThreshold","type":"uint256"},{"internalType":"uint256","name":"proposalThreshold","type":"uint256"},{"internalType":"bool","name":"requireMembership","type":"bool"}],"internalType":"struct ISignal.VotingParameters","name":"params","type":"tuple"}],"name":"setDefaultVotingParameters","outputs":[],"stateMutability":"nonpayable","type":"function"},{"inputs":[{"internalType":"bytes32","name":"proposalId","type":"bytes32"},{"internalType":"enum ISignal.ProposalState","name":"newState","type":"uint8"}],"name":"setProposalState","outputs":[],"stateMutability":"nonpayable","type":"function"},{"inputs":[{"internalType":"bytes32","name":"organizationId","type":"bytes32"},{"components":[{"internalType":"uint256","name":"votingDelay","type":"uint256"},{"internalType":"uint256","name":"votingPeriod","type":"uint256"},{"internalType":"uint256","name":"executionDelay","type":"uint256"},{"internalType":"uint256","name":"quorumThreshold","type":"uint256"},{"internalType":"uint256","name":"proposalThreshold","type":"uint256"},{"internalType":"bool","name":"requireMembership","type":"bool"}],"internalType":"struct ISignal.VotingParameters","name":"params","type":"tuple"}],"name":"setVotingParameters","outputs":[],"stateMutability":"nonpayable","type":"function"},{"inputs":[{"internalType":"bytes4","name":"interfaceId","type":"bytes4"}],"name":"supportsInterface","outputs":[{"internalType":"bool","name":"","type":"bool"}],"stateMutability":"view","type":"function"},{"inputs":[{"internalType":"address","name":"delegatee","type":"address"},{"internalType":"uint256","name":"amount","type":"uint256"}],"name":"undelegateVotingPower","outputs":[],"stateMutability":"nonpayable","type":"function"},{"inputs":[],"name":"unpause","outputs":[],"stateMutability":"nonpayable","type":"function"},{"inputs":[{"internalType":"bytes32","name":"proposalId","type":"bytes32"},{"internalType":"string","name":"title","type":"string"},{"internalType":"string","name":"description","type":"string"},{"internalType":"uint256","name":"endTime","type":"uint256"}],"name":"updateProposal","outputs":[],"stateMutability":"nonpayable","type":"function"},{"inputs":[{"internalType":"bytes32","name":"organizationId","type":"bytes32"},{"internalType":"enum ISignal.ProposalType","name":"","type":"uint8"},{"internalType":"enum ISignal.VotingType","name":"","type":"uint8"},{"internalType":"enum ISignal.VotingPower","name":"","type":"uint8"},{"internalType":"uint256","name":"votingPeriod","type":"uint256"}],"name":"validateProposalParameters","outputs":[{"internalType":"bool","name":"","type":"bool"}],"stateMutability":"view","type":"function"},{"inputs":[],"name":"version","outputs":[{"internalType":"string","name":"","type":"string"}],"stateMutability":"view","type":"function"}],"evm":{"bytecode":{"linkReferences":{},"object":"608034620003b1576040906001600160401b0381830181811183821017620002d0578352600582526020809201640312e302e360dc1b815260ff1991600191838354168355826002556004548381811c91168015620003a6575b868210146200039057601f81116200035e575b50516001600160d81b031916600a17600455600080805280855285812033825285528590205460ff161562000323575b7fa49807205ce4d355092ef5a8a18f56e8913cf4a201fbe287825b095693c2177580600052600085528560002033600052855260ff86600020541615620002e6575b5084519060c0820190811182821017620002d05785526201518080825262093a8080868401526202a3009182888501528460a06103e8958660608201526064608082015201526011556012556013556014556064601555808260165416176016557f14684b861e7ed8196bfd1e75a427098261dc7f825334a81d48ec74d12ef80dfe80600052600084528460002033600052845260ff8560002054161562000293575b507f8a21e8fdae6c23863f7de5307e2e7162c88dab602a41610addb5f1505d25939880600052600084528460002033600052845260ff8560002054161562000256575b507fd8aa0f3194971a2a116679f7c2090f6939c8d4e01a2a8d7e41d55e5351469e639283600052600081528460002033600052815260ff8560002054161562000217575b84516158749081620003b78239f35b83600052600081528460002090336000525283600020918254161790553390339060008051602062005c2b833981519152600080a43880808062000208565b8060005260008452846000203360005284528460002082848254161790553390339060008051602062005c2b833981519152600080a438620001c4565b8060005260008452846000203360005284528460002082848254161790553390339060008051602062005c2b833981519152600080a43862000181565b634e487b7160e01b600052604160045260246000fd5b8060005260008552856000203360005285528560002083858254161790553390339060008051602062005c2b833981519152600080a438620000de565b6000805260008452846000203360005284528460002082848254161790553333600060008051602062005c2b8339815191528180a46200009c565b600460005283601f87600020920160051c8201915b828110620003835750506200006c565b6000815501849062000373565b634e487b7160e01b600052602260045260246000fd5b90607f169062000059565b600080fdfe608080604052600436101561001357600080fd5b60003560e01c90816301ffc9a7146137815750806307bd0265146137465780630b6cd0d81461370157806310864640146136d9578063127ec2831461043857806315b3958e1461369e57806319fa95ab14612eaa5780631a57e9fb14612d2a5780631d0824e114612cef578063215809ca14612cd2578063248a9ca314612ca35780632e46aacc14612c5c5780632f2ff15d14612bbb578063311578c514612b8f57806331cc13ba146129e557806332be9ebc146129c757806336568abe1461293557806337376ca814612844578063392e53cd1461281e5780633b3808b0146125245780633f4ba83a146124be5780633ffa57eb1461248f578063430694cf146120825780634456251b1461206457806345ef118f14611fc857806348b51e9014611c2d5780634a4e3bd514611b8357806350acf2dd1461043857806351858e2714611b4c57806354fd4d5014611a6a5780635584c4f914611a235780635c975abb14611a005780636da25a54146119c6578063743716431461198457806374428d9b1461187557806375251dd51461173357806375b238fc146116f857806375ea877e1461166a5780637b103999146116415780637bc8450f146116235780638456cb59146115bc57806385df716e1461158157806391d1485414611534578063980ff6c61461134a578063a1308f271461130f578063a18e9dde146112cb578063a217fddf146112af578063a22b647714610e5c578063a296718414610deb578063a64e024a14610abf578063aa7318aa14610d95578063aadc3b7214610d4b578063ac86499d14610d25578063b072453114610cf5578063b3e7c2bd14610c36578063b502f55414610b01578063bacc132314610ac4578063bc03d28014610abf578063bff28ea8146108c4578063c08cc02d146108a6578063c3586d0414610866578063c4d66de8146104ee578063d547741f146104ad578063d560fbc61461043d578063e1f1c4a714610438578063ebf8a3e6146103be578063ef761e801461037f578063f2bd42be146103565763f5b541a61461031657600080fd5b346103515760003660031901126103515760206040517f97667070c54ef182b0f5858b034beac1b6f3089aa2d3188bb1e8929f4fa9b9298152f35b600080fd5b3461035157600036600319011261035157602060405160008051602061581f8339815191528152f35b3461035157602036600319011261035157602060043561039e816151a2565b94935050505060005260058252600f604060002001541115604051908152f35b34610351576000366003190112610351576003546001600160a01b03811633036104265760a01c60ff1615610414577fa866f3901ec84758a10f30e8953c3818eef73da93dfa46cb6aa5b726fb65813f600080a1005b604051633165f6e960e21b8152600490fd5b6040516310f5403960e31b8152600490fd5b613800565b3461035157600036600319011261035157610456614cd3565b506104a9610462614d05565b6040519182918291909160a08060c0830194805184526020810151602085015260408101516040850152606081015160608501526080810151608085015201511515910152565b0390f35b34610351576040366003190112610351576104ec6004356104cc6137d4565b908060005260006020526104e7600160406000200154613d92565b613e9c565b005b3461035157602080600319360112610351576105086137ea565b906003549160ff91828460a01c16610854576001600160a01b03918216938415610842576001600160a81b0319168417600160a01b176003557fa49807205ce4d355092ef5a8a18f56e8913cf4a201fbe287825b095693c21775600081815280835260408082208783528452902054841615610803575b507f97667070c54ef182b0f5858b034beac1b6f3089aa2d3188bb1e8929f4fa9b929806000526000825260406000208560005282528360406000205416156107c4575b50604051637b10399960e01b8152918183600481305afa9283156107b857600093610789575b5060008051602061581f833981519152908160005260008352604060002093169283600052825283604060002054161561074a575b507f8a21e8fdae6c23863f7de5307e2e7162c88dab602a41610addb5f1505d2593988060005260008252604060002083600052825283604060002054161561070b575b507fd8aa0f3194971a2a116679f7c2090f6939c8d4e01a2a8d7e41d55e5351469e63928360005260008252604060002083600052825260406000205416156106cb575b837f27b541a16df0902e262f34789782092ab25125513b8ed73608e802951771b928600080a2005b826000526000815260406000209082600052526040600020600160ff1982541617905533916000805160206157df833981519152600080a48180806106a3565b806000526000825260406000208360005282526040600020600160ff198254161790558233916000805160206157df833981519152600080a484610660565b806000526000825260406000208360005282526040600020600160ff198254161790558233916000805160206157df833981519152600080a48461061d565b6107aa919350823d84116107b1575b6107a2818361388a565b810190614179565b91856105e8565b503d610798565b6040513d6000823e3d90fd5b806000526000825260406000208560005282526040600020600160ff198254161790558433916000805160206157df833981519152600080a4846105c2565b806000526000825260406000208560005282526040600020600160ff198254161790558433916000805160206157df833981519152600080a48461057f565b604051637bfd2e8360e01b8152600490fd5b604051637396742f60e11b8152600490fd5b346103515760203660031901126103515760a06108846004356151a2565b9260409291925194151585526020850152604084015260608301526080820152f35b34610351576000366003190112610351576020600e54604051908152f35b34610351576020806003193601126103515761091b9060043580600052600782526108f2604060002061549a565b918251926108ff8461546f565b9361090d604051958661388a565b808552601f1995869161546f565b018260005b828110610aa95750505060005b8151811015610a0757600084815260068452604090206001600160a01b039190826109588386615486565b511660005284526040600020916040519061097282613854565b8354908116825260ff60a091821c16600394858210156109f1576109bf6109c66109ec976004948b880152600184015460408801526002840154606088015260405192838092860161409f565b038261388a565b60808501520154908201526109db8288615486565b526109e68187615486565b50614198565b61092d565b634e487b7160e01b600052602160045260246000fd5b818386886040519260408401604085528551809152816060860196019060005b818110610a8c575050508385038185015282519081865280860181808460051b8901019501936000975b848910610a5e5787870388f35b9091929394958480610a7a838686600196030188528a516139ed565b98019401980197919094939294610a51565b82516001600160a01b031688529683019691830191600101610a27565b610ab161543d565b828289010152018390610920565b6139c2565b3461035157602036600319011261035157600435600781101561035157610af5610af06104a9926141fb565b61549a565b6040519182918261391b565b3461035157604036600319011261035157610b1a6137ea565b60243560ff60035460a01c161561041457610b33614135565b33600052600b60205260406000209160018060a01b03811692836000526020526040600020600481019160ff835416158015610c29575b610bfc5750600201610b7d83825461446f565b815533600052600d6020526040600020610b9884825461446f565b90555415610bd6575b506040519081524260208201527fa4a5a3554ccf1a9531c27b469cd495bd2d61b6da23637fe39c7ed3d90c9a013260403392a3005b60ff19815416905533600052600c602052610bf582604060002061447c565b5082610ba1565b6040516309078cff60e21b81523360048201526001600160a01b03919091166024820152604490fd5b0390fd5b5083600283015410610b6a565b3461035157604036600319011261035157610c4f6137d4565b610c5761543d565b506004356000526006602052604060002060018060a01b0380921660005260205260406000209060ff60405191610c8d83613854565b8354908116835260a01c1660038110156109f1576104a99260049160208401526001810154604084015260028101546060840152604051610cd5816109bf816003860161409f565b6080840152015460a08201526040519182916020835260208301906139ed565b34610351576040366003190112610351576020610d1b610d136137d4565b6004356154e9565b6040519015158152f35b34610351576020366003190112610351576020610d436004356156cf565b604051908152f35b34610351576040366003190112610351576020610d666137d4565b60043560005260068252604060002060018060a01b038092166000528252604060002054161515604051908152f35b34610351576000366003190112610351576003546001600160a01b03811633036104265760a01c60ff1615610414577f6dff2fe8fbb5b23bf0583bf5b2157ff62ca7e27f2fb4f404914cd0c205ced5cc600080a1005b34610351576020366003190112610351576004356000526005602052604060002060ff600782015460181c169060078210156109f1576001602092149081610e4d575b81610e3f575b506040519015158152f35b600991500154421082610e34565b60088101544210159150610e2e565b346103515760603660031901126103515760036024351015610351576044356001600160401b03811161035157610e979036906004016138fd565b60ff60035460a01c161561041457610ead614135565b610eb5614214565b600435600052600560205260406000209060018060a01b0360038301541615611296576008820154421080159081611288575b61126f5760ff600784015460181c166007811015806109f157600182141580611263575b61124a576109f157159081611242575b50611232575b600435600052600660205260406000203360005260205260018060a01b0360406000205416611212576002820154916003610f6a60ff600784015460101c1680953390614db6565b93610f74816139ab565b148061120a575b6111d7575b82156111b15760043560005260066020526040600020336000526020526040600020805460ff60a01b60243560a01b169060ff60a01b193316906affffffffffffffffffffff60a81b161717815583600182015542600282015582516001600160401b03811161119b5761100481610ffb6003850154614065565b600385016141a7565b6020601f8211600114611123576004601393836110a99796946000948591611118575b508160011b9185199060031b1c19161760038201555b01556004356000526007602052611058336040600020614318565b506024356001036110ec5760108101611072868254613f23565b90555b01611081848254613f23565b905560405192611093846024356139e0565b6020840152608060408401526080830190613979565b4260608301527f4cb49d347b97c61478ad5973530706e433c68c743c1a3050df41d1f0201cc08e339280600435930390a36110e5600435614a87565b6001600255005b6024356111095760118101611102868254613f23565b9055611075565b60128101611102868254613f23565b90508701518a611027565b6003830160005260206000209060005b601f198416811061118357506013936001846000946004946110a99a9997601f1981161061116b575b5050811b01600382015561103d565b890151861960f88460031b161c191690558a8061115c565b9091602060018192858a015181550193019101611133565b634e487b7160e01b600052604160045260246000fd5b6040516309e915af60e01b81523360048201526001602482015260006044820152606490fd5b9161271090818102908082048314901517156111f4570491610f80565b634e487b7160e01b600052601160045260246000fd5b506000610f7b565b604051630bcf2ea360e01b81526004803590820152336024820152604490fd5b61123d600435614941565b610f22565b905083610f1c565b602460405163673b9f7960e01b81526004356004820152fd5b50506000811515610f0c565b60246040516301ff4f4d60e51b81526004356004820152fd5b506009830154421015610ee8565b602460405163e2acee5b60e01b81526004356004820152fd5b3461035157600036600319011261035157602060405160008152f35b34610351576040366003190112610351576020610d436112e96137d4565b6004356000526005835260406000209060ff6007600284015493015460101c1691614db6565b346103515760003660031901126103515760206040517f60b4c21d70ead12825359faa918a75b0f6aec1173d8f83736a228003bb90f01c8152f35b346103515760203660031901126103515760043560ff60035460a01c161561041457611374614135565b61137c614214565b600081815260056020526040902060038101546001600160a01b03919082161561151b5760ff600782015460181c1660078110156109f15760020361150257600a81015442106114e95760148101600160ff19825416179055606090600d8101916113e78354614065565b1515806114da575b156114aa57509061141160008094600e829501541692604051928380926143bd565b03925af1817f081e17797ff342d155472363c2116c9940b0297d64bbe5ca4b85e529ee514dc661147061144261443f565b935b801561149c57611453846148a7565b604051918291159586158352606060208401526060830190613979565b4260408301520390a2611484576001600255005b602490604051906355feb88f60e11b82526004820152fd5b6114a58461480d565b611453565b92505050817f081e17797ff342d155472363c2116c9940b0297d64bbe5ca4b85e529ee514dc66114706001611444565b5083600e8301541615156113ef565b6040516301ff4f4d60e51b815260048101849052602490fd5b60405163673b9f7960e01b815260048101849052602490fd5b60405163e2acee5b60e01b815260048101849052602490fd5b346103515760403660031901126103515761154d6137d4565b600435600052600060205260406000209060018060a01b0316600052602052602060ff604060002054166040519015158152f35b346103515760203660031901126103515761159d600435615747565b906104a960405192839215158352604060208401526040830190613979565b34610351576000366003190112610351576115d5613c4d565b60ff60035460a01c1615610414576115eb614135565b600160ff19815416176001557f62e78cea01bee320cd4e420270b5ea74000d11b0c9f74754ebdbfc544b05a2586020604051338152a1005b34610351576020366003190112610351576020610d4360043561516b565b34610351576000366003190112610351576003546040516001600160a01b039091168152602090f35b346103515760c03660031901126103515760405161168781613854565b6004358152602081016024358152604082016044358152606083019060643582526080840192608435845260a4359485151586036103515760a081019586526116ce613a48565b516011555160125551601355516014555160155551151560ff801960165416911617601655600080f35b346103515760003660031901126103515760206040517fa49807205ce4d355092ef5a8a18f56e8913cf4a201fbe287825b095693c217758152f35b346103515760403660031901126103515761174c6137ea565b60243560ff60035460a01c161561041457611765614135565b6001600160a01b038216918215801561186c575b611843575033600052600b602052604060002082600052602052600460406000206001600160601b0360a01b3381835416178255846001830191825416179055600281016117c8848254613f23565b905542600382015501600160ff1982541617905533600052600c6020526117f3826040600020614318565b5033600052600d602052604060002061180d828254613f23565b90556040519081524260208201527f0e93f38017caec651d0ce6b361a18a797c3c92915af8727bc361e8b5528e01cd60403392a3005b60405163ef8342b560e01b81523360048201526001600160a01b03919091166024820152604490fd5b50338314611779565b346103515760203660031901126103515760043560ff60035460a01c16156104145761189f614135565b600081815260056020526040902060038101546001600160a01b03161561196b576118c9826151a2565b5050505015611952576009810154421061193957604081600a61191c8361191460027fa41177828e45756af65c61fece09dddf5390f789cfd1c43577aec3b6b390534f970154614d46565b015142613f23565b910190815561192a84614773565b548151908152426020820152a2005b6040516301ff4f4d60e51b815260048101839052602490fd5b604051635401d37960e01b815260048101839052602490fd5b60405163e2acee5b60e01b815260048101839052602490fd5b346103515760a0366003190112610351576005602435101561035157600460443510156103515760046064351015610351576020610d1b608435600435615649565b34610351576020366003190112610351576001600160a01b036119e76137ea565b16600052600d6020526020604060002054604051908152f35b3461035157600036600319011261035157602060ff600154166040519015158152f35b34610351576000366003190112610351576001600052600a6020526104a9610af57fbbc70db1b6c7afd11e79c0fb0051300458f1a3acb8ee9789d9b6b26c61ad9bc761549a565b34610351576000366003190112610351576040516000600454611a8c81614065565b80845290600190818116908115611b255750600114611aca575b6104a984611ab68186038261388a565b604051918291602083526020830190613979565b6004600090815292507f8a35acfbc15ff81a39ae7d344fd709f28e8600b4aa8c65c6b64bfe7fe36bd19b5b828410611b0d575050508101602001611ab682611aa6565b80546020858701810191909152909301928101611af5565b60ff191660208087019190915292151560051b85019092019250611ab69150839050611aa6565b34610351576000366003190112610351576003546001600160a01b03811633036104265760a01c60ff1615610414576115eb614135565b34610351576000366003190112610351576003546001600160a01b03811633036104265760a01c60ff16156104145760015460ff811615611bf15760ff19166001557f5db9ee0a495bf2e6ff9c91a7834c1ba4fdd244a5e8aa4e537bd38aeae4b073aa6020604051338152a1005b60405162461bcd60e51b815260206004820152601460248201527314185d5cd8589b194e881b9bdd081c185d5cd95960621b6044820152606490fd5b34610351576080366003190112610351576004356001600160401b0360243581811161035157611c619036906004016138fd565b9060443581811161035157611c7a9036906004016138fd565b906064359060039260ff845460a01c161561041457611c97614135565b856000526020936005855260406000209560018060a01b0382880154168015611faf5733141580611f7e575b611f5f5760ff600788015460181c1660078110156109f157611f5f57805180611ea4575b505081519182611d8b575b50505050916005917f30a54a01732713d47dac5743edf632f63b8cea51255001b0f05de7a75c21e396936008830154811180611d82575b611d77575b5042600c830155611d6660098301549160405194859460808652611d58608087016004830161409f565b92868403908701520161409f565b9060408301524260608301520390a2005b600983015585611d2e565b50428111611d29565b6005870193831161119b57611daa83611da48654614065565b866141a7565b8590601f8411600114611e135792600596949281927f30a54a01732713d47dac5743edf632f63b8cea51255001b0f05de7a75c21e396999795600093611e08575b50508260011b92600019911b1c19161790555b9193819387611cf2565b015191508a80611deb565b9190601f1984169285600052876000209360005b818110611e8d57509285926005999795927f30a54a01732713d47dac5743edf632f63b8cea51255001b0f05de7a75c21e3969b999760019610611e73575b50505050811b019055611dfe565b01519060f884600019921b161c1916905589808080611e65565b929489600181928886015181550196019301611e27565b600488019185821161119b578190611ec082611da48654614065565b8890601f8311600114611efb57600092611ef0575b50508160011b9160001990851b1c19161790555b8780611ce7565b015190508a80611ed5565b60008581528a81209350601f198516905b8b828210611f49575050908460019594939210611f31575b505050811b019055611ee9565b015160001983871b60f8161c191690558a8080611f24565b6001859682939686015181550195019301611f0c565b60405163be66117160e01b815260048101899052336024820152604490fd5b5060008051602061581f83398151915260005260008652604060002033600052865260ff6040600020541615611cc3565b60405163e2acee5b60e01b8152600481018a9052602490fd5b3461035157602036600319011261035157600435611fe4613a48565b60ff60035460a01c161561041457611ffa614135565b600081815260056020526040902060038101546001600160a01b03161561196b57601490612027836146d4565b0161010061ff0019825416179055604051904282527f24168b3b8da257b2978fc0f2bd47398c317dcffe6c7aac125c8bcc2f4ef0616160203393a3005b34610351576020366003190112610351576020610d1b6004356155c5565b346103515760203660031901126103515760006103006040516120a481613838565b82815282602082015282604082015282606082015260606080820152606060a0820152606060c08201528260e08201528261010082015282610120820152826101408201528261016082015282610180820152826101a0820152826101c0820152826101e0820152606061020082015282610220820152826102408201528261026082015282610280820152826102a0820152826102c0820152826102e08201520152600435600052600560205260406000206040519061216482613838565b8054825260018101546020830152600281015460408084019190915260038201546001600160a01b03166060840152516121a5816109bf816004860161409f565b60808301526040516121be816109bf816005860161409f565b60a08301526040516121d7816109bf816006860161409f565b60c08301526007810154600560ff821610156109f15760ff811660e084015260ff8160081c16612206816139ab565b61010084015260ff8160101c1661221c816139ab565b610120840152600760ff8260181c1610156109f15760ff918260149260181c1661014085015260088101546101608501526009810154610180850152600a8101546101a0850152600b8101546101c0850152600c8101546101e085015260405161228d816109bf81600d860161409f565b61020085015260018060a01b03600e82015416610220850152600f8101546102408501526010810154610260850152601181015461028085015260128101546102a085015260138101546102c0850152015481811615156102e084015260081c16151561030082015260405180916020825280516020830152602081015160408301526040810151606083015260018060a01b03606082015116608083015261030061242461237f612369612353608086015161032060a0890152610340880190613979565b60a0860151878203601f190160c0890152613979565b60c0850151868203601f190160e0880152613979565b61239260e085015161010087019061399e565b6101008401516123a1816139ab565b6101208601526101208401516123b6816139ab565b6101408601526123d06101408501516101608701906139b5565b6101608401516101808601526101808401516101a08601526101a08401516101c08601526101c08401516101e08601526101e0840151610200860152610200840151601f1986830301610220870152613979565b9160018060a01b03610220820151166102408501526102408101516102608501526102608101516102808501526102808101516102a08501526102a08101516102c08501526102c08101516102e08501526102e0810151151582850152015115156103208301520390f35b346103515760203660031901126103515760043560005260056020526020600a60406000200154604051908152f35b34610351576000366003190112610351576124d7613c4d565b60ff60035460a01c16156104145760015460ff811615611bf15760ff19166001557f5db9ee0a495bf2e6ff9c91a7834c1ba4fdd244a5e8aa4e537bd38aeae4b073aa6020604051338152a1005b346103515760803660031901126103515760036024351015610351576064356001600160401b0381116103515761255f9036906004016138fd565b60ff60035460a01c161561041457612575614135565b61257d614214565b62278d006044351161280457600435600052600560205260406000209060018060a01b03600383015416156112965760088201544210801590816127f6575b61126f5760ff600784015460181c166007811015806109f1576001821415806127ea575b61124a576109f1571590816127e2575b506127d2575b600435600052600660205260406000203360005260205260018060a01b036040600020541661121257600282015491600361263e60ff600784015460101c1680953390614db6565b93612648816139ab565b14806127c7575b6127a7575b82156111b15760043560005260066020526040600020336000526020526040600020805460ff60a01b60243560a01b169060ff60a01b193316906affffffffffffffffffffff60a81b161717815583600182015542600282015582516001600160401b03811161119b576126cf81610ffb6003850154614065565b6020601f82116001146127325791816110a9959492601394600091612727575b508160011b916000199060031b1c19161760038201555b60046044359101556004356000526007602052611058336040600020614318565b9050850151886126ef565b6003830160005260206000209060005b601f198416811061278f575082601394926001926110a9989795601f19811610612776575b5050811b016003820155612706565b87015160001960f88460031b161c191690558880612767565b9091602060018192858a015181550193019101612742565b916127c0612710916127ba60443561516b565b90613f10565b0491612654565b50604435151561264f565b6127dd600435614941565b6125f6565b9050836125f0565b505060008115156125e0565b5060098301544210156125bc565b604051631d8c48ad60e11b81526044356004820152602490fd5b3461035157600036600319011261035157602060ff60035460a01c166040519015158152f35b346103515760203660031901126103515760043560ff60035460a01c16156104145761286e614135565b600081815260056020526040902060038101546001600160a01b0316801561151b57331415806128fc575b6128dd5760ff600782015460181c1660078110156109f1576003146128c457601490612027836146d4565b60405163134c704360e11b815260048101839052602490fd5b60405163be66117160e01b815260048101839052336024820152604490fd5b503360009081527f6d33eec2c9abd62a2d387b6cfd66073fa7602819b8c7c8b5b52a059a88d074c5602052604090205460ff1615612899565b346103515760403660031901126103515761294e6137d4565b336001600160a01b0382160361296a576104ec90600435613e9c565b60405162461bcd60e51b815260206004820152602f60248201527f416363657373436f6e74726f6c3a2063616e206f6e6c792072656e6f756e636560448201526e103937b632b9903337b91039b2b63360891b6064820152608490fd5b34610351576020366003190112610351576020610d43600435615625565b3461035157602080600319360112610351576001600160a01b039081612a096137ea565b169081600052600c8152612a20604060002061549a565b90815191612a2d8361546f565b92612a3b604051948561388a565b808452612a4a601f199161546f565b018260005b828110612b565750505060005b8151811015612ae757612ae29085600052600b8452604060002087612a818386615486565b51166000528452604060002060ff600460405192612a9e8461381d565b8a81541684528a60018201541688850152600281015460408501526003810154606085015201541615156080820152612ad78287615486565b526109e68186615486565b612a5c565b50509150604051918083018184528251809152816040850193019160005b828110612b125785850386f35b835180518816865280830151881686840152604080820151908701526060808201519087015260809081015115159086015260a09094019392810192600101612b05565b604051612b628161381d565b60008152600083820152600060408201526000606082015260006080820152828288010152018390612a4f565b346103515760203660031901126103515760043560005260096020526104a9610af5604060002061549a565b3461035157604036600319011261035157600435612bd76137d4565b816000526000602052612bf1600160406000200154613d92565b81600052600060205260406000209060018060a01b0316908160005260205260ff6040600020541615612c2057005b8160005260006020526040600020816000526020526040600020600160ff1982541617905533916000805160206157df833981519152600080a4005b3461035157604036600319011261035157602435600781101561035157612c81613a48565b60ff60035460a01c1615610414576104ec90612c9b614135565b6004356149db565b346103515760203660031901126103515760043560005260006020526020600160406000200154604051908152f35b34610351576000366003190112610351576020604051610e108152f35b3461035157604036600319011261035157612d086137d4565b60ff60035460a01c1615610414576104ec90612d22614135565b60043561456c565b346103515760e03660031901126103515760043560c036602319011261035157604051612d5681613854565b60243581526020810190604435825260408101916064358352606082019160843583526080810160a435815260c4359384151585036103515760a08301948552612d9e613a48565b60ff60035460a01c161561041457612db4614135565b612dbd87614b4b565b8351610e1081108015612e9e575b612e86575062278d00865111612e7457612710815111612e74577f719481cc109e01b8091f161a93b2ec47aeb36f9d1022d18f4f437680e21f9f659560c095886000526008602052600560406000209551968787555192836001880155519384600288015551948560038801555195866004820155019051151560ff8019835416911617905560405194855260208501526040840152606083015260808201524260a0820152a2005b60405163f39a942760e01b8152600490fd5b60249060405190630779207f60e11b82526004820152fd5b5062278d008111612dcb565b3461035157610140366003190112610351576024356001600160401b03811161035157612edb9036906004016138fd565b6044356001600160401b03811161035157612efa9036906004016138fd565b6064356001600160401b03811161035157612f199036906004016138fd565b916005608435101561035157600460a435101561035157600460c435101561035157610104356001600160401b038111610351573660238201121561035157612f6c9036906024816004013591016138c6565b9261012435926001600160a01b03841684036103515760ff60035460a01c161561041457612f98614135565b612fa0614214565b612fab600435614b4b565b825115612e7457610e1060e435108015613690575b61367657612fcf600435614d46565b60a08101516135b6575b612fe860c43533600435614db6565b612ff860808301516004356150da565b908181106135925750506010549061300f82614198565b9182601055604051613060609482602081019460043586523360601b60408301528a51613044818d6020605487019101613956565b820190426054830152607482015203607481018452018261388a565b5190209561306f825142613f23565b9461307c60e43587613f23565b948860005260056020526040600020948555886001860155600435600286015560038501336001600160601b0360a01b82541617905587516001600160401b03811161119b576130dc816130d36004890154614065565b600489016141a7565b806020601f821160011461352457600091613519575b508160011b916000199060031b1c19161760048601555b8051906001600160401b03821161119b5781906131368261312d60058a0154614065565b60058a016141a7565b602090601f83116001146134a75760009261349c575b50508160011b916000199060031b1c19161760058501555b8051906001600160401b03821161119b578190613191826131886006890154614065565b600689016141a7565b602090601f831160011461342a5760009261341f575b50508160011b916000199060031b1c19161760068401555b6007830180546131d060a4356139ab565b6131db60c4356139ab565b60ff608435169063ffffffff19161761ff0060a43560081b161762ff000060c43560101b161790558460088401558360098401556000600a84015542600b84015542600c84015587516001600160401b03811161119b5760209861324f82613246600d880154614065565b600d88016141a7565b8990601f83116001146133aa57918060609492601497969460009261339f575b50508160011b916000199060031b1c191617600d8501555b600e84019060018060a01b03166001600160601b0360a01b8254161790550151600f820155600060108201556000601182015560006012820155600060138201550161ffff1981541690556132db84614280565b50600435600052600985526132f4846040600020614318565b5060008052600a855261330b846040600020614318565b506133216040519360e0855260e0850190613979565b9161333086850160843561399e565b61333b60a4356139ab565b60a435604085015261334e60c4356139ab565b60c4356060850152608084015260a08301524260c0830152827f84e0ab0fc389409b4eda56a9a55b3236225f5fe3a191e9e03ed3b329d3ef9666339380600435940390a46001600255604051908152f35b015190508c8061326f565b90600d86016000528a6000209160005b601f198516811061340857509260609492600192601498979583601f198116106133ef575b505050811b01600d850155613287565b015160001960f88460031b161c191690558c80806133df565b91928c6001819286850151815501940192016133ba565b015190508a806131a7565b9250600686016000526020600020906000935b601f1984168510613481576001945083601f19811610613468575b505050811b0160068401556131bf565b015160001960f88460031b161c191690558a8080613458565b8181015183556020948501946001909301929091019061343d565b015190508b8061314c565b9250600587016000526020600020906000935b601f19841685106134fe576001945083601f198116106134e5575b505050811b016005850155613164565b015160001960f88460031b161c191690558b80806134d5565b818101518355602094850194600190930192909101906134ba565b90508901518c6130f2565b91506004870160005260206000206000925b8b601f198416851061357b57506001935082601f19811610613562575b5050811b016004860155613109565b8b015160001960f88460031b161c191690558c80613553565b810151825560209384019360019092019101613536565b6064925060405191638aed8dc760e01b835233600484015260248301526044820152fd5b6001600160a01b036135c6614be7565b16801561365d5760405163f385bfc960e01b8152600480359082015233602482015290602090829060449082905afa9081156107b85760009161362f575b50612fd9576040516309e915af60e01b81523360048201526001602482015260006044820152606490fd5b613650915060203d8111613656575b613648818361388a565b810190614b33565b87613604565b503d61363e565b602460405163f708dfa760e01b81526004356004820152fd5b604051630779207f60e11b815260e4356004820152602490fd5b5062278d0060e43511612fc0565b346103515760003660031901126103515760206040517f8a21e8fdae6c23863f7de5307e2e7162c88dab602a41610addb5f1505d2593988152f35b34610351576020366003190112610351576136f2614cd3565b506104a9610462600435614d46565b346103515760603660031901126103515761371a6137d4565b60443590600482101561035157602091610d439160043560005260058452600260406000200154614db6565b346103515760003660031901126103515760206040517fd8aa0f3194971a2a116679f7c2090f6939c8d4e01a2a8d7e41d55e5351469e638152f35b34610351576020366003190112610351576004359063ffffffff60e01b821680920361035157602091637965db0b60e01b81149081156137c3575b5015158152f35b6301ffc9a760e01b149050836137bc565b602435906001600160a01b038216820361035157565b600435906001600160a01b038216820361035157565b346103515760003660031901126103515760206040516127108152f35b60a081019081106001600160401b0382111761119b57604052565b61032081019081106001600160401b0382111761119b57604052565b60c081019081106001600160401b0382111761119b57604052565b608081019081106001600160401b0382111761119b57604052565b90601f801991011681019081106001600160401b0382111761119b57604052565b6001600160401b03811161119b57601f01601f191660200190565b9291926138d2826138ab565b916138e0604051938461388a565b829481845281830111610351578281602093846000960137010152565b9080601f8301121561035157816020613918933591016138c6565b90565b6020908160408183019282815285518094520193019160005b828110613942575050505090565b835185529381019392810192600101613934565b60005b8381106139695750506000910152565b8181015183820152602001613959565b9060209161399281518092818552858086019101613956565b601f01601f1916010190565b9060058210156109f15752565b600411156109f157565b9060078210156109f15752565b3461035157600036600319011261035157602060405162278d008152f35b9060038210156109f15752565b80516001600160a01b03168252602080820151919291613a0f918301906139e0565b604082015160408201526060820151606082015260a080613a3f608085015160c0608086015260c0850190613979565b93015191015290565b3360009081527f6d33eec2c9abd62a2d387b6cfd66073fa7602819b8c7c8b5b52a059a88d074c56020908152604080832054909260008051602061581f8339815191529160ff1615613a9a5750505050565b613aa333613f57565b91845190613ab08261386f565b60428252848201926060368537825115613c395760308453825190600191821015613c395790607860218501536041915b818311613bcb57505050613b89576048610c25938693613b6d93613b5e985198899376020b1b1b2b9b9a1b7b73a3937b61d1030b1b1b7bab73a1604d1b8a860152613b35815180928c603789019101613956565b8401917001034b99036b4b9b9b4b733903937b6329607d1b603784015251809386840190613956565b0103602881018752018561388a565b5192839262461bcd60e51b845260048401526024830190613979565b60648486519062461bcd60e51b825280600483015260248201527f537472696e67733a20686578206c656e67746820696e73756666696369656e746044820152fd5b909192600f81166010811015613c25576f181899199a1a9b1b9c1cb0b131b232b360811b901a613bfb8587613f30565b5360041c928015613c1157600019019190613ae1565b634e487b7160e01b82526011600452602482fd5b634e487b7160e01b83526032600452602483fd5b634e487b7160e01b81526032600452602490fd5b3360009081527f7d7ffb7a348e1c6a02869081a26547b49160dd3df72d1d75a570eb9b698292ec602090815260408083205490927fa49807205ce4d355092ef5a8a18f56e8913cf4a201fbe287825b095693c217759160ff1615613cb15750505050565b613cba33613f57565b91845190613cc78261386f565b60428252848201926060368537825115613c395760308453825190600191821015613c395790607860218501536041915b818311613d4c57505050613b89576048610c25938693613b6d93613b5e985198899376020b1b1b2b9b9a1b7b73a3937b61d1030b1b1b7bab73a1604d1b8a860152613b35815180928c603789019101613956565b909192600f81166010811015613c25576f181899199a1a9b1b9c1cb0b131b232b360811b901a613d7c8587613f30565b5360041c928015613c1157600019019190613cf8565b600090808252602090828252604092838120338252835260ff848220541615613dbb5750505050565b613dc433613f57565b91845190613dd18261386f565b60428252848201926060368537825115613c395760308453825190600191821015613c395790607860218501536041915b818311613e5657505050613b89576048610c25938693613b6d93613b5e985198899376020b1b1b2b9b9a1b7b73a3937b61d1030b1b1b7bab73a1604d1b8a860152613b35815180928c603789019101613956565b909192600f81166010811015613c25576f181899199a1a9b1b9c1cb0b131b232b360811b901a613e868587613f30565b5360041c928015613c1157600019019190613e02565b9060009180835282602052604083209160018060a01b03169182845260205260ff604084205416613ecc57505050565b80835282602052604083208284526020526040832060ff1981541690557ff6391f5c32d9c69d2a47ea670b442974b53935d1edc7fd64eb21e047a839171b339380a4565b818102929181159184041417156111f457565b919082018092116111f457565b908151811015613f41570160200190565b634e487b7160e01b600052603260045260246000fd5b60405190606082018281106001600160401b0382111761119b57604052602a8252602082016040368237825115613f4157603090538151600190811015613f4157607860218401536029905b808211613ff7575050613fb35790565b606460405162461bcd60e51b815260206004820152602060248201527f537472696e67733a20686578206c656e67746820696e73756666696369656e746044820152fd5b9091600f81166010811015614050576f181899199a1a9b1b9c1cb0b131b232b360811b901a6140268486613f30565b5360041c91801561403b576000190190613fa3565b60246000634e487b7160e01b81526011600452fd5b60246000634e487b7160e01b81526032600452fd5b90600182811c92168015614095575b602083101461407f57565b634e487b7160e01b600052602260045260246000fd5b91607f1691614074565b90600092918054916140b083614065565b91828252600193848116908160001461411257506001146140d2575b50505050565b90919394506000526020928360002092846000945b8386106140fe5750505050010190388080806140cc565b8054858701830152940193859082016140e7565b9294505050602093945060ff191683830152151560051b010190388080806140cc565b60ff6001541661414157565b60405162461bcd60e51b815260206004820152601060248201526f14185d5cd8589b194e881c185d5cd95960821b6044820152606490fd5b9081602091031261035157516001600160a01b03811681036103515790565b60001981146111f45760010190565b90601f81116141b557505050565b600091825260208220906020601f850160051c830194106141f1575b601f0160051c01915b8281106141e657505050565b8181556001016141da565b90925082906141d1565b60078110156109f157600052600a602052604060002090565b60028054146142235760028055565b60405162461bcd60e51b815260206004820152601f60248201527f5265656e7472616e637947756172643a207265656e7472616e742063616c6c006044820152606490fd5b8054821015613f415760005260206000200190600090565b6000818152600f602052604081205461431357600e54600160401b8110156142ff576001810180600e558110156142eb5790826040927fbb7b4a454dc3493923482f07822329ed19e8244eff582cc204f8554c3620c3fd0155600e54928152600f6020522055600190565b634e487b7160e01b82526032600452602482fd5b634e487b7160e01b82526041600452602482fd5b905090565b9190600183016000908282528060205260408220541560001461439757845494600160401b861015614383578361437361435c886001604098999a01855584614268565b819391549060031b91821b91600019901b19161790565b9055549382526020522055600190565b634e487b7160e01b83526041600452602483fd5b50925050565b81156143a7570490565b634e487b7160e01b600052601260045260246000fd5b6000929181546143cc81614065565b9260019180831690811561442457506001146143e85750505050565b90919293945060005260209081600020906000915b85831061441357505050500190388080806140cc565b8054858401529183019181016143fd565b60ff19168452505050811515909102019150388080806140cc565b3d1561446a573d90614450826138ab565b9161445e604051938461388a565b82523d6000602084013e565b606090565b919082039182116111f457565b9060018201906000928184528260205260408420549081151560001461456557600019918083018181116145515782549084820191821161453d57808203614508575b505050805480156144f4578201916144d78383614268565b909182549160031b1b191690555582526020526040812055600190565b634e487b7160e01b86526031600452602486fd5b61452861451861435c9386614268565b90549060031b1c92839286614268565b905586528460205260408620553880806144bf565b634e487b7160e01b88526011600452602488fd5b634e487b7160e01b87526011600452602487fd5b5050505090565b60008181526006602090815260408083206001600160a01b03958616808552925282208054919490919081161580156146c8575b6146c1576145b260028301544261446f565b926004830154928385106146b85760016145d091019384549561439d565b60010180600111613c11576145e5908561439d565b8093558481526005602052604081209060ff614601858761446f565b9360a01c169060038210156146a45750916146656013606095938560017fdbfcd461ddc91a7d2735a6e935a779b9ab3ed0eb91c54c209e83580e1971f62099971460001461467b57506010810161465985825461446f565b90555b0191825461446f565b90556040519182526020820152426040820152a3565b614695576011810161468e85825461446f565b905561465c565b6012810161468e85825461446f565b634e487b7160e01b81526021600452602490fd5b50505050505050565b5050505050565b506004820154156145a0565b600081815260056020526040812090600782019060ff825460181c169060078210156146a457600582146146c157846040614755926000805160206157ff8339815191529660609661472e85614729896141fb565b61447c565b50630500000063ff00000019825416179055600c4291015560058152600a60205220614318565b5061476360405180926139b5565b60056020820152426040820152a2565b600081815260056020526040812090600782019060ff825460181c169060078210156146a457600282146146c1578460406147ef926000805160206157ff833981519152966060966147c885614729896141fb565b50630200000063ff00000019825416179055600c4291015560028152600a60205220614318565b506147fd60405180926139b5565b60026020820152426040820152a2565b600081815260056020526040812090600782019060ff825460181c169060078210156146a457600482146146c157846040614889926000805160206157ff8339815191529660609661486285614729896141fb565b50630400000063ff00000019825416179055600c4291015560048152600a60205220614318565b5061489760405180926139b5565b60046020820152426040820152a2565b600081815260056020526040812090600782019060ff825460181c169060078210156146a457600382146146c157846040614923926000805160206157ff833981519152966060966148fc85614729896141fb565b50630300000063ff00000019825416179055600c4291015560038152600a60205220614318565b5061493160405180926139b5565b60036020820152426040820152a2565b600081815260056020526040812090600782019060ff825460181c169060078210156146a457600182146146c1578460406149bd926000805160206157ff8339815191529660609661499685614729896141fb565b50630100000063ff00000019825416179055600c4291015560018152600a60205220614318565b506149cb60405180926139b5565b60016020820152426040820152a2565b906000828152600560205260408120906007820160ff815460181c169160078510156146a45760078310156146a457508382146146c1576000805160206157ff83398151915293606093614a7e92614a3688614729876141fb565b50805463ff0000008460181b169063ff0000001916179055600c42910155614a6686614a61836141fb565b614318565b50614a7460405180946139b5565b60208301906139b5565b426040820152a2565b806000526005602052604060002060098101544210614b2f5760ff600782015460181c1660078110156109f157600103614b2f57614ac4826151a2565b50505050600014614b2357604081600a614b068361191460027fa41177828e45756af65c61fece09dddf5390f789cfd1c43577aec3b6b390534f970154614d46565b9101908155614b1484614773565b548151908152426020820152a2565b50614b2d9061480d565b565b5050565b90816020910312610351575180151581036103515790565b6001600160a01b03614b5b614be7565b168015614bce57602060249160405192838092633bf0dc0160e21b82528660048301525afa9081156107b857600091614bb0575b5015614b985750565b6024906040519063f708dfa760e01b82526004820152fd5b614bc8915060203d811161365657613648818361388a565b38614b8f565b60405163f708dfa760e01b815260048101839052602490fd5b60035460ff8160a01c1615610414576040516385acd64160e01b81527fbdded29a54e6a5d6169bedea55373b06f57e35d7b0f67ac187565b435e2cc943600482015290602090829060249082906001600160a01b03165afa9081156107b857600091614c51575090565b613918915060203d81116107b1576107a2818361388a565b60035460ff8160a01c1615610414576040516385acd64160e01b81527f22d7411a7f580429bdbda078568d1a64350dea337296e4fd855167b7e412b946600482015290602090829060249082906001600160a01b03165afa9081156107b857600091614c51575090565b60405190614ce082613854565b8160a06000918281528260208201528260408201528260608201528260808201520152565b60405190614d1282613854565b6011548252601254602083015260135460408301526014546060830152601554608083015260165460ff16151560a0830152565b614d4e614cd3565b506000526008602052604060002060405190614d6982613854565b8054825260ff6005600183015492836020860152600281015460408601526003810154606086015260048101546080860152015416151560a083015215614dad5790565b50613918614d05565b9091614dc1816139ab565b80614e5957506001600160a01b03614dd7614be7565b16918215614e515760405163f385bfc960e01b815260048101929092526001600160a01b0316602482015290602090829060449082905afa9081156107b857600091614e33575b5060009015614e2d5750600190565b60ff1690565b614e4b915060203d811161365657613648818361388a565b38614e1e565b505050600090565b614e62816139ab565b60018103614ee957506001600160a01b0391905081614e7f614c69565b16918215614e51576024602092604051948593849263dd2a8b1160e01b84521660048301525afa9081156107b857600091614eb8575090565b906020823d8211614ee1575b81614ed16020938361388a565b81010312614ede57505190565b80fd5b3d9150614ec4565b80614ef56002926139ab565b03614f8c57506001600160a01b039081614f0d614c69565b16918215614e51576024602092604051948593849263dd2a8b1160e01b84521660048301525afa9081156107b857600091614f5b575b506000908015614f57576139189150614f9c565b5090565b906020823d8211614f84575b81614f746020938361388a565b81010312614ede57505138614f43565b3d9150614f67565b6001600160a01b03614dd7614be7565b80156150d457615067816000908360801c806150c8575b508060401c806150bb575b508060201c806150ae575b508060101c806150a1575b508060081c80615094575b508060041c80615087575b508060021c8061507a575b50600191828092811c615073575b1c1b61500f818561439d565b01811c61501c818561439d565b01811c615029818561439d565b01811c615036818561439d565b01811c615043818561439d565b01811c615050818561439d565b01811c61505d818561439d565b01901c809261439d565b80821015614313575090565b0181615003565b6002915091019038614ff5565b6004915091019038614fea565b6008915091019038614fdf565b6010915091019038614fd4565b6020915091019038614fc9565b6040915091019038614fbe565b91505060809038614fb3565b50600090565b6001600160a01b036150ea614be7565b169081156151635760209060246040518094819363127e6d7b60e31b835260048301525afa9081156107b857600091615130575b506127109161512c91613f10565b0490565b906020823d821161515b575b816151496020938361388a565b81010312614ede57505161271061511e565b3d915061513c565b505050600190565b801561519b576201518090046103e8908181029181830414901517156111f4576127109081018091116111f45790565b5061271090565b6000906000809181526020916005835260408220916010830154946011840154946012850154946151dc866151d7898b613f23565b613f23565b6001600160a01b0390816151ee614be7565b169081615384575b5050600f82015486101561520b575050505094565b60ff60078394959693015460081c16615223816139ab565b806152345750505050505082841194565b615240819b969b6139ab565b600181036152e35750615251614be7565b16918261525e5750505050565b8394995060029093919293015460246040518095819363127e6d7b60e31b835260048301525afa9283156152d65781936152a5575b50505060011c841194388080806140cc565b9091809350813d83116152cf575b6152bd818361388a565b81010312614ede575051388080615293565b503d6152b3565b50604051903d90823e3d90fd5b925050929791506152f3816139ab565b6002810361535d5750506153078486613f23565b801580159283615318575b50505094565b90919250600387029187830460031488151715613c11578360011b9384046002141715615349575011388080615312565b634e487b7160e01b81526011600452602490fd5b60039197925061536c816139ab565b03614b2d57945082158061537d5794565b5083151594565b9091965083600284015460246040518095819363127e6d7b60e31b835260048301525afa9182156154325786926153ff575b5081156153f757612710908181029181830414901517156153e357906153db9161439d565b9438806151f6565b634e487b7160e01b86526011600452602486fd5b5050836153db565b9091508381813d831161542b575b615417818361388a565b81010312615427575190386153b6565b8580fd5b503d61540d565b6040513d88823e3d90fd5b6040519061544a82613854565b600060a083828152826020820152826040820152826060820152606060808201520152565b6001600160401b03811161119b5760051b60200190565b8051821015613f415760209160051b010190565b9060405191828154918282526020928383019160005283600020936000905b8282106154cf57505050614b2d9250038361388a565b8554845260019586019588955093810193909101906154b9565b60008181526005602052604081206003810154909391906001600160a01b03908116156155bd5760078501549360ff8560181c1660078110156155a9576001811415908161559f575b5061558857600886015442108015615591575b6155885782526006602052604082208184168352602052604082205416615581575060ff600261557c9401549260101c1691614db6565b151590565b9250505090565b50509250505090565b506009860154421015615545565b9050151538615532565b634e487b7160e01b84526021600452602484fd5b509250505090565b600090815260056020526040812060038101546001600160a01b031615614f575760ff600782015460181c16600781101561561157600203614f5757600a015442106139185750600190565b634e487b7160e01b83526021600452602483fd5b6000526005602052600960406000200154804210156150d45761391890429061446f565b90610e1081109081156156c2575b506150d4576001600160a01b0361566c614be7565b169081156156bb57602090602460405180948193633bf0dc0160e21b835260048301525afa9081156107b8576000916156a3575090565b613918915060203d811161365657613648818361388a565b5050600090565b62278d0091501138615657565b6000908152600560205260408120600d810154906156ec82614065565b15908115615731575b506157295761570390614065565b9060448202918083046044149015171561534957620186a0918201809211615349575090565b505061520890565b600e01546001600160a01b0316159050386156f5565b6000908152600560205260408120600d8101906157648254614065565b1580156157c9575b6157a257600e015460405183926001600160a01b039092169181906157929082906143bd565b03915afa61579e61443f565b9091565b505060405160019291602082016001600160401b038111838210176142ff57604052815290565b50600e8101546001600160a01b03161561576c56fe2f8788117e7eff1d82e926ec794901d17c78024a50270940304540a733656f0d92996e23db3df1f01be913f8953552165b3e065dc488bb30bd40e2176055381014684b861e7ed8196bfd1e75a427098261dc7f825334a81d48ec74d12ef80dfea2646970667358221220db7e113bc6a5c7ba0fc9f185d271b188582c93d770d16353cb101abecfc5d3ed64736f6c634300081400332f8788117e7eff1d82e926ec794901d17c78024a50270940304540a733656f0d","opcodes":"PUSH1 0x80 CALLVALUE PUSH3 0x3B1 JUMPI PUSH1 0x40 SWAP1 PUSH1 0x1 PUSH1 0x1 PUSH1 0x40 SHL SUB DUP2 DUP4 ADD DUP2 DUP2 GT DUP4 DUP3 LT OR PUSH3 0x2D0 JUMPI DUP4 MSTORE PUSH1 0x5 DUP3 MSTORE PUSH1 0x20 DUP1 SWAP3 ADD PUSH5 0x312E302E3 PUSH1 0xDC SHL DUP2 MSTORE PUSH1 0xFF NOT SWAP2 PUSH1 0x1 SWAP2 DUP4 DUP4 SLOAD AND DUP4 SSTORE DUP3 PUSH1 0x2 SSTORE PUSH1 0x4 SLOAD DUP4 DUP2 DUP2 SHR SWAP2 AND DUP1 ISZERO PUSH3 0x3A6 JUMPI JUMPDEST DUP7 DUP3 LT EQ PUSH3 0x390 JUMPI PUSH1 0x1F DUP2 GT PUSH3 0x35E JUMPI JUMPDEST POP MLOAD PUSH1 0x1 PUSH1 0x1 PUSH1 0xD8 SHL SUB NOT AND PUSH1 0xA OR PUSH1 0x4 SSTORE PUSH1 0x0 DUP1 DUP1 MSTORE DUP1 DUP6 MSTORE DUP6 DUP2 KECCAK256 CALLER DUP3 MSTORE DUP6 MSTORE DUP6 SWAP1 KECCAK256 SLOAD PUSH1 0xFF AND ISZERO PUSH3 0x323 JUMPI JUMPDEST PUSH32 0xA49807205CE4D355092EF5A8A18F56E8913CF4A201FBE287825B095693C21775 DUP1 PUSH1 0x0 MSTORE PUSH1 0x0 DUP6 MSTORE DUP6 PUSH1 0x0 KECCAK256 CALLER PUSH1 0x0 MSTORE DUP6 MSTORE PUSH1 0xFF DUP7 PUSH1 0x0 KECCAK256 SLOAD AND ISZERO PUSH3 0x2E6 JUMPI JUMPDEST POP DUP5 MLOAD SWAP1 PUSH1 0xC0 DUP3 ADD SWAP1 DUP2 GT DUP3 DUP3 LT OR PUSH3 0x2D0 JUMPI DUP6 MSTORE PUSH3 0x15180 DUP1 DUP3 MSTORE PUSH3 0x93A80 DUP1 DUP7 DUP5 ADD MSTORE PUSH3 0x2A300 SWAP2 DUP3 DUP9 DUP6 ADD MSTORE DUP5 PUSH1 0xA0 PUSH2 0x3E8 SWAP6 DUP7 PUSH1 0x60 DUP3 ADD MSTORE PUSH1 0x64 PUSH1 0x80 DUP3 ADD MSTORE ADD MSTORE PUSH1 0x11 SSTORE PUSH1 0x12 SSTORE PUSH1 0x13 SSTORE PUSH1 0x14 SSTORE PUSH1 0x64 PUSH1 0x15 SSTORE DUP1 DUP3 PUSH1 0x16 SLOAD AND OR PUSH1 0x16 SSTORE PUSH32 0x14684B861E7ED8196BFD1E75A427098261DC7F825334A81D48EC74D12EF80DFE DUP1 PUSH1 0x0 MSTORE PUSH1 0x0 DUP5 MSTORE DUP5 PUSH1 0x0 KECCAK256 CALLER PUSH1 0x0 MSTORE DUP5 MSTORE PUSH1 0xFF DUP6 PUSH1 0x0 KECCAK256 SLOAD AND ISZERO PUSH3 0x293 JUMPI JUMPDEST POP PUSH32 0x8A21E8FDAE6C23863F7DE5307E2E7162C88DAB602A41610ADDB5F1505D259398 DUP1 PUSH1 0x0 MSTORE PUSH1 0x0 DUP5 MSTORE DUP5 PUSH1 0x0 KECCAK256 CALLER PUSH1 0x0 MSTORE DUP5 MSTORE PUSH1 0xFF DUP6 PUSH1 0x0 KECCAK256 SLOAD AND ISZERO PUSH3 0x256 JUMPI JUMPDEST POP PUSH32 0xD8AA0F3194971A2A116679F7C2090F6939C8D4E01A2A8D7E41D55E5351469E63 SWAP3 DUP4 PUSH1 0x0 MSTORE PUSH1 0x0 DUP2 MSTORE DUP5 PUSH1 0x0 KECCAK256 CALLER PUSH1 0x0 MSTORE DUP2 MSTORE PUSH1 0xFF DUP6 PUSH1 0x0 KECCAK256 SLOAD AND ISZERO PUSH3 0x217 JUMPI JUMPDEST DUP5 MLOAD PUSH2 0x5874 SWAP1 DUP2 PUSH3 0x3B7 DUP3 CODECOPY RETURN JUMPDEST DUP4 PUSH1 0x0 MSTORE PUSH1 0x0 DUP2 MSTORE DUP5 PUSH1 0x0 KECCAK256 SWAP1 CALLER PUSH1 0x0 MSTORE MSTORE DUP4 PUSH1 0x0 KECCAK256 SWAP2 DUP3 SLOAD AND OR SWAP1 SSTORE CALLER SWAP1 CALLER SWAP1 PUSH1 0x0 DUP1 MLOAD PUSH1 0x20 PUSH3 0x5C2B DUP4 CODECOPY DUP2 MLOAD SWAP2 MSTORE PUSH1 0x0 DUP1 LOG4 CODESIZE DUP1 DUP1 DUP1 PUSH3 0x208 JUMP JUMPDEST DUP1 PUSH1 0x0 MSTORE PUSH1 0x0 DUP5 MSTORE DUP5 PUSH1 0x0 KECCAK256 CALLER PUSH1 0x0 MSTORE DUP5 MSTORE DUP5 PUSH1 0x0 KECCAK256 DUP3 DUP5 DUP3 SLOAD AND OR SWAP1 SSTORE CALLER SWAP1 CALLER SWAP1 PUSH1 0x0 DUP1 MLOAD PUSH1 0x20 PUSH3 0x5C2B DUP4 CODECOPY DUP2 MLOAD SWAP2 MSTORE PUSH1 0x0 DUP1 LOG4 CODESIZE PUSH3 0x1C4 JUMP JUMPDEST DUP1 PUSH1 0x0 MSTORE PUSH1 0x0 DUP5 MSTORE DUP5 PUSH1 0x0 KECCAK256 CALLER PUSH1 0x0 MSTORE DUP5 MSTORE DUP5 PUSH1 0x0 KECCAK256 DUP3 DUP5 DUP3 SLOAD AND OR SWAP1 SSTORE CALLER SWAP1 CALLER SWAP1 PUSH1 0x0 DUP1 MLOAD PUSH1 0x20 PUSH3 0x5C2B DUP4 CODECOPY DUP2 MLOAD SWAP2 MSTORE PUSH1 0x0 DUP1 LOG4 CODESIZE PUSH3 0x181 JUMP JUMPDEST PUSH4 0x4E487B71 PUSH1 0xE0 SHL PUSH1 0x0 MSTORE PUSH1 0x41 PUSH1 0x4 MSTORE PUSH1 0x24 PUSH1 0x0 REVERT JUMPDEST DUP1 PUSH1 0x0 MSTORE PUSH1 0x0 DUP6 MSTORE DUP6 PUSH1 0x0 KECCAK256 CALLER PUSH1 0x0 MSTORE DUP6 MSTORE DUP6 PUSH1 0x0 KECCAK256 DUP4 DUP6 DUP3 SLOAD AND OR SWAP1 SSTORE CALLER SWAP1 CALLER SWAP1 PUSH1 0x0 DUP1 MLOAD PUSH1 0x20 PUSH3 0x5C2B DUP4 CODECOPY DUP2 MLOAD SWAP2 MSTORE PUSH1 0x0 DUP1 LOG4 CODESIZE PUSH3 0xDE JUMP JUMPDEST PUSH1 0x0 DUP1 MSTORE PUSH1 0x0 DUP5 MSTORE DUP5 PUSH1 0x0 KECCAK256 CALLER PUSH1 0x0 MSTORE DUP5 MSTORE DUP5 PUSH1 0x0 KECCAK256 DUP3 DUP5 DUP3 SLOAD AND OR SWAP1 SSTORE CALLER CALLER PUSH1 0x0 PUSH1 0x0 DUP1 MLOAD PUSH1 0x20 PUSH3 0x5C2B DUP4 CODECOPY DUP2 MLOAD SWAP2 MSTORE DUP2 DUP1 LOG4 PUSH3 0x9C JUMP JUMPDEST PUSH1 0x4 PUSH1 0x0 MSTORE DUP4 PUSH1 0x1F DUP8 PUSH1 0x0 KECCAK256 SWAP3 ADD PUSH1 0x5 SHR DUP3 ADD SWAP2 JUMPDEST DUP3 DUP2 LT PUSH3 0x383 JUMPI POP POP PUSH3 0x6C JUMP JUMPDEST PUSH1 0x0 DUP2 SSTORE ADD DUP5 SWAP1 PUSH3 0x373 JUMP JUMPDEST PUSH4 0x4E487B71 PUSH1 0xE0 SHL PUSH1 0x0 MSTORE PUSH1 0x22 PUSH1 0x4 MSTORE PUSH1 0x24 PUSH1 0x0 REVERT JUMPDEST SWAP1 PUSH1 0x7F AND SWAP1 PUSH3 0x59 JUMP JUMPDEST PUSH1 0x0 DUP1 REVERT INVALID PUSH1 0x80 DUP1 PUSH1 0x40 MSTORE PUSH1 0x4 CALLDATASIZE LT ISZERO PUSH2 0x13 JUMPI PUSH1 0x0 DUP1 REVERT JUMPDEST PUSH1 0x0 CALLDATALOAD PUSH1 0xE0 SHR SWAP1 DUP2 PUSH4 0x1FFC9A7 EQ PUSH2 0x3781 JUMPI POP DUP1 PUSH4 0x7BD0265 EQ PUSH2 0x3746 JUMPI DUP1 PUSH4 0xB6CD0D8 EQ PUSH2 0x3701 JUMPI DUP1 PUSH4 0x10864640 EQ PUSH2 0x36D9 JUMPI DUP1 PUSH4 0x127EC283 EQ PUSH2 0x438 JUMPI DUP1 PUSH4 0x15B3958E EQ PUSH2 0x369E JUMPI DUP1 PUSH4 0x19FA95AB EQ PUSH2 0x2EAA JUMPI DUP1 PUSH4 0x1A57E9FB EQ PUSH2 0x2D2A JUMPI DUP1 PUSH4 0x1D0824E1 EQ PUSH2 0x2CEF JUMPI DUP1 PUSH4 0x215809CA EQ PUSH2 0x2CD2 JUMPI DUP1 PUSH4 0x248A9CA3 EQ PUSH2 0x2CA3 JUMPI DUP1 PUSH4 0x2E46AACC EQ PUSH2 0x2C5C JUMPI DUP1 PUSH4 0x2F2FF15D EQ PUSH2 0x2BBB JUMPI DUP1 PUSH4 0x311578C5 EQ PUSH2 0x2B8F JUMPI DUP1 PUSH4 0x31CC13BA EQ PUSH2 0x29E5 JUMPI DUP1 PUSH4 0x32BE9EBC EQ PUSH2 0x29C7 JUMPI DUP1 PUSH4 0x36568ABE EQ PUSH2 0x2935 JUMPI DUP1 PUSH4 0x37376CA8 EQ PUSH2 0x2844 JUMPI DUP1 PUSH4 0x392E53CD EQ PUSH2 0x281E JUMPI DUP1 PUSH4 0x3B3808B0 EQ PUSH2 0x2524 JUMPI DUP1 PUSH4 0x3F4BA83A EQ PUSH2 0x24BE JUMPI DUP1 PUSH4 0x3FFA57EB EQ PUSH2 0x248F JUMPI DUP1 PUSH4 0x430694CF EQ PUSH2 0x2082 JUMPI DUP1 PUSH4 0x4456251B EQ PUSH2 0x2064 JUMPI DUP1 PUSH4 0x45EF118F EQ PUSH2 0x1FC8 JUMPI DUP1 PUSH4 0x48B51E90 EQ PUSH2 0x1C2D JUMPI DUP1 PUSH4 0x4A4E3BD5 EQ PUSH2 0x1B83 JUMPI DUP1 PUSH4 0x50ACF2DD EQ PUSH2 0x438 JUMPI DUP1 PUSH4 0x51858E27 EQ PUSH2 0x1B4C JUMPI DUP1 PUSH4 0x54FD4D50 EQ PUSH2 0x1A6A JUMPI DUP1 PUSH4 0x5584C4F9 EQ PUSH2 0x1A23 JUMPI DUP1 PUSH4 0x5C975ABB EQ PUSH2 0x1A00 JUMPI DUP1 PUSH4 0x6DA25A54 EQ PUSH2 0x19C6 JUMPI DUP1 PUSH4 0x74371643 EQ PUSH2 0x1984 JUMPI DUP1 PUSH4 0x74428D9B EQ PUSH2 0x1875 JUMPI DUP1 PUSH4 0x75251DD5 EQ PUSH2 0x1733 JUMPI DUP1 PUSH4 0x75B238FC EQ PUSH2 0x16F8 JUMPI DUP1 PUSH4 0x75EA877E EQ PUSH2 0x166A JUMPI DUP1 PUSH4 0x7B103999 EQ PUSH2 0x1641 JUMPI DUP1 PUSH4 0x7BC8450F EQ PUSH2 0x1623 JUMPI DUP1 PUSH4 0x8456CB59 EQ PUSH2 0x15BC JUMPI DUP1 PUSH4 0x85DF716E EQ PUSH2 0x1581 JUMPI DUP1 PUSH4 0x91D14854 EQ PUSH2 0x1534 JUMPI DUP1 PUSH4 0x980FF6C6 EQ PUSH2 0x134A JUMPI DUP1 PUSH4 0xA1308F27 EQ PUSH2 0x130F JUMPI DUP1 PUSH4 0xA18E9DDE EQ PUSH2 0x12CB JUMPI DUP1 PUSH4 0xA217FDDF EQ PUSH2 0x12AF JUMPI DUP1 PUSH4 0xA22B6477 EQ PUSH2 0xE5C JUMPI DUP1 PUSH4 0xA2967184 EQ PUSH2 0xDEB JUMPI DUP1 PUSH4 0xA64E024A EQ PUSH2 0xABF JUMPI DUP1 PUSH4 0xAA7318AA EQ PUSH2 0xD95 JUMPI DUP1 PUSH4 0xAADC3B72 EQ PUSH2 0xD4B JUMPI DUP1 PUSH4 0xAC86499D EQ PUSH2 0xD25 JUMPI DUP1 PUSH4 0xB0724531 EQ PUSH2 0xCF5 JUMPI DUP1 PUSH4 0xB3E7C2BD EQ PUSH2 0xC36 JUMPI DUP1 PUSH4 0xB502F554 EQ PUSH2 0xB01 JUMPI DUP1 PUSH4 0xBACC1323 EQ PUSH2 0xAC4 JUMPI DUP1 PUSH4 0xBC03D280 EQ PUSH2 0xABF JUMPI DUP1 PUSH4 0xBFF28EA8 EQ PUSH2 0x8C4 JUMPI DUP1 PUSH4 0xC08CC02D EQ PUSH2 0x8A6 JUMPI DUP1 PUSH4 0xC3586D04 EQ PUSH2 0x866 JUMPI DUP1 PUSH4 0xC4D66DE8 EQ PUSH2 0x4EE JUMPI DUP1 PUSH4 0xD547741F EQ PUSH2 0x4AD JUMPI DUP1 PUSH4 0xD560FBC6 EQ PUSH2 0x43D JUMPI DUP1 PUSH4 0xE1F1C4A7 EQ PUSH2 0x438 JUMPI DUP1 PUSH4 0xEBF8A3E6 EQ PUSH2 0x3BE JUMPI DUP1 PUSH4 0xEF761E80 EQ PUSH2 0x37F JUMPI DUP1 PUSH4 0xF2BD42BE EQ PUSH2 0x356 JUMPI PUSH4 0xF5B541A6 EQ PUSH2 0x316 JUMPI PUSH1 0x0 DUP1 REVERT JUMPDEST CALLVALUE PUSH2 0x351 JUMPI PUSH1 0x0 CALLDATASIZE PUSH1 0x3 NOT ADD SLT PUSH2 0x351 JUMPI PUSH1 0x20 PUSH1 0x40 MLOAD PUSH32 0x97667070C54EF182B0F5858B034BEAC1B6F3089AA2D3188BB1E8929F4FA9B929 DUP2 MSTORE RETURN JUMPDEST PUSH1 0x0 DUP1 REVERT JUMPDEST CALLVALUE PUSH2 0x351 JUMPI PUSH1 0x0 CALLDATASIZE PUSH1 0x3 NOT ADD SLT PUSH2 0x351 JUMPI PUSH1 0x20 PUSH1 0x40 MLOAD PUSH1 0x0 DUP1 MLOAD PUSH1 0x20 PUSH2 0x581F DUP4 CODECOPY DUP2 MLOAD SWAP2 MSTORE DUP2 MSTORE RETURN JUMPDEST CALLVALUE PUSH2 0x351 JUMPI PUSH1 0x20 CALLDATASIZE PUSH1 0x3 NOT ADD SLT PUSH2 0x351 JUMPI PUSH1 0x20 PUSH1 0x4 CALLDATALOAD PUSH2 0x39E DUP2 PUSH2 0x51A2 JUMP JUMPDEST SWAP5 SWAP4 POP POP POP POP PUSH1 0x0 MSTORE PUSH1 0x5 DUP3 MSTORE PUSH1 0xF PUSH1 0x40 PUSH1 0x0 KECCAK256 ADD SLOAD GT ISZERO PUSH1 0x40 MLOAD SWAP1 DUP2 MSTORE RETURN JUMPDEST CALLVALUE PUSH2 0x351 JUMPI PUSH1 0x0 CALLDATASIZE PUSH1 0x3 NOT ADD SLT PUSH2 0x351 JUMPI PUSH1 0x3 SLOAD PUSH1 0x1 PUSH1 0x1 PUSH1 0xA0 SHL SUB DUP2 AND CALLER SUB PUSH2 0x426 JUMPI PUSH1 0xA0 SHR PUSH1 0xFF AND ISZERO PUSH2 0x414 JUMPI PUSH32 0xA866F3901EC84758A10F30E8953C3818EEF73DA93DFA46CB6AA5B726FB65813F PUSH1 0x0 DUP1 LOG1 STOP JUMPDEST PUSH1 0x40 MLOAD PUSH4 0x3165F6E9 PUSH1 0xE2 SHL DUP2 MSTORE PUSH1 0x4 SWAP1 REVERT JUMPDEST PUSH1 0x40 MLOAD PUSH4 0x10F54039 PUSH1 0xE3 SHL DUP2 MSTORE PUSH1 0x4 SWAP1 REVERT JUMPDEST PUSH2 0x3800 JUMP JUMPDEST CALLVALUE PUSH2 0x351 JUMPI PUSH1 0x0 CALLDATASIZE PUSH1 0x3 NOT ADD SLT PUSH2 0x351 JUMPI PUSH2 0x456 PUSH2 0x4CD3 JUMP JUMPDEST POP PUSH2 0x4A9 PUSH2 0x462 PUSH2 0x4D05 JUMP JUMPDEST PUSH1 0x40 MLOAD SWAP2 DUP3 SWAP2 DUP3 SWAP2 SWAP1 SWAP2 PUSH1 0xA0 DUP1 PUSH1 0xC0 DUP4 ADD SWAP5 DUP1 MLOAD DUP5 MSTORE PUSH1 0x20 DUP2 ADD MLOAD PUSH1 0x20 DUP6 ADD MSTORE PUSH1 0x40 DUP2 ADD MLOAD PUSH1 0x40 DUP6 ADD MSTORE PUSH1 0x60 DUP2 ADD MLOAD PUSH1 0x60 DUP6 ADD MSTORE PUSH1 0x80 DUP2 ADD MLOAD PUSH1 0x80 DUP6 ADD MSTORE ADD MLOAD ISZERO ISZERO SWAP2 ADD MSTORE JUMP JUMPDEST SUB SWAP1 RETURN JUMPDEST CALLVALUE PUSH2 0x351 JUMPI PUSH1 0x40 CALLDATASIZE PUSH1 0x3 NOT ADD SLT PUSH2 0x351 JUMPI PUSH2 0x4EC PUSH1 0x4 CALLDATALOAD PUSH2 0x4CC PUSH2 0x37D4 JUMP JUMPDEST SWAP1 DUP1 PUSH1 0x0 MSTORE PUSH1 0x0 PUSH1 0x20 MSTORE PUSH2 0x4E7 PUSH1 0x1 PUSH1 0x40 PUSH1 0x0 KECCAK256 ADD SLOAD PUSH2 0x3D92 JUMP JUMPDEST PUSH2 0x3E9C JUMP JUMPDEST STOP JUMPDEST CALLVALUE PUSH2 0x351 JUMPI PUSH1 0x20 DUP1 PUSH1 0x3 NOT CALLDATASIZE ADD SLT PUSH2 0x351 JUMPI PUSH2 0x508 PUSH2 0x37EA JUMP JUMPDEST SWAP1 PUSH1 0x3 SLOAD SWAP2 PUSH1 0xFF SWAP2 DUP3 DUP5 PUSH1 0xA0 SHR AND PUSH2 0x854 JUMPI PUSH1 0x1 PUSH1 0x1 PUSH1 0xA0 SHL SUB SWAP2 DUP3 AND SWAP4 DUP5 ISZERO PUSH2 0x842 JUMPI PUSH1 0x1 PUSH1 0x1 PUSH1 0xA8 SHL SUB NOT AND DUP5 OR PUSH1 0x1 PUSH1 0xA0 SHL OR PUSH1 0x3 SSTORE PUSH32 0xA49807205CE4D355092EF5A8A18F56E8913CF4A201FBE287825B095693C21775 PUSH1 0x0 DUP2 DUP2 MSTORE DUP1 DUP4 MSTORE PUSH1 0x40 DUP1 DUP3 KECCAK256 DUP8 DUP4 MSTORE DUP5 MSTORE SWAP1 KECCAK256 SLOAD DUP5 AND ISZERO PUSH2 0x803 JUMPI JUMPDEST POP PUSH32 0x97667070C54EF182B0F5858B034BEAC1B6F3089AA2D3188BB1E8929F4FA9B929 DUP1 PUSH1 0x0 MSTORE PUSH1 0x0 DUP3 MSTORE PUSH1 0x40 PUSH1 0x0 KECCAK256 DUP6 PUSH1 0x0 MSTORE DUP3 MSTORE DUP4 PUSH1 0x40 PUSH1 0x0 KECCAK256 SLOAD AND ISZERO PUSH2 0x7C4 JUMPI JUMPDEST POP PUSH1 0x40 MLOAD PUSH4 0x7B103999 PUSH1 0xE0 SHL DUP2 MSTORE SWAP2 DUP2 DUP4 PUSH1 0x4 DUP2 ADDRESS GAS STATICCALL SWAP3 DUP4 ISZERO PUSH2 0x7B8 JUMPI PUSH1 0x0 SWAP4 PUSH2 0x789 JUMPI JUMPDEST POP PUSH1 0x0 DUP1 MLOAD PUSH1 0x20 PUSH2 0x581F DUP4 CODECOPY DUP2 MLOAD SWAP2 MSTORE SWAP1 DUP2 PUSH1 0x0 MSTORE PUSH1 0x0 DUP4 MSTORE PUSH1 0x40 PUSH1 0x0 KECCAK256 SWAP4 AND SWAP3 DUP4 PUSH1 0x0 MSTORE DUP3 MSTORE DUP4 PUSH1 0x40 PUSH1 0x0 KECCAK256 SLOAD AND ISZERO PUSH2 0x74A JUMPI JUMPDEST POP PUSH32 0x8A21E8FDAE6C23863F7DE5307E2E7162C88DAB602A41610ADDB5F1505D259398 DUP1 PUSH1 0x0 MSTORE PUSH1 0x0 DUP3 MSTORE PUSH1 0x40 PUSH1 0x0 KECCAK256 DUP4 PUSH1 0x0 MSTORE DUP3 MSTORE DUP4 PUSH1 0x40 PUSH1 0x0 KECCAK256 SLOAD AND ISZERO PUSH2 0x70B JUMPI JUMPDEST POP PUSH32 0xD8AA0F3194971A2A116679F7C2090F6939C8D4E01A2A8D7E41D55E5351469E63 SWAP3 DUP4 PUSH1 0x0 MSTORE PUSH1 0x0 DUP3 MSTORE PUSH1 0x40 PUSH1 0x0 KECCAK256 DUP4 PUSH1 0x0 MSTORE DUP3 MSTORE PUSH1 0x40 PUSH1 0x0 KECCAK256 SLOAD AND ISZERO PUSH2 0x6CB JUMPI JUMPDEST DUP4 PUSH32 0x27B541A16DF0902E262F34789782092AB25125513B8ED73608E802951771B928 PUSH1 0x0 DUP1 LOG2 STOP JUMPDEST DUP3 PUSH1 0x0 MSTORE PUSH1 0x0 DUP2 MSTORE PUSH1 0x40 PUSH1 0x0 KECCAK256 SWAP1 DUP3 PUSH1 0x0 MSTORE MSTORE PUSH1 0x40 PUSH1 0x0 KECCAK256 PUSH1 0x1 PUSH1 0xFF NOT DUP3 SLOAD AND OR SWAP1 SSTORE CALLER SWAP2 PUSH1 0x0 DUP1 MLOAD PUSH1 0x20 PUSH2 0x57DF DUP4 CODECOPY DUP2 MLOAD SWAP2 MSTORE PUSH1 0x0 DUP1 LOG4 DUP2 DUP1 DUP1 PUSH2 0x6A3 JUMP JUMPDEST DUP1 PUSH1 0x0 MSTORE PUSH1 0x0 DUP3 MSTORE PUSH1 0x40 PUSH1 0x0 KECCAK256 DUP4 PUSH1 0x0 MSTORE DUP3 MSTORE PUSH1 0x40 PUSH1 0x0 KECCAK256 PUSH1 0x1 PUSH1 0xFF NOT DUP3 SLOAD AND OR SWAP1 SSTORE DUP3 CALLER SWAP2 PUSH1 0x0 DUP1 MLOAD PUSH1 0x20 PUSH2 0x57DF DUP4 CODECOPY DUP2 MLOAD SWAP2 MSTORE PUSH1 0x0 DUP1 LOG4 DUP5 PUSH2 0x660 JUMP JUMPDEST DUP1 PUSH1 0x0 MSTORE PUSH1 0x0 DUP3 MSTORE PUSH1 0x40 PUSH1 0x0 KECCAK256 DUP4 PUSH1 0x0 MSTORE DUP3 MSTORE PUSH1 0x40 PUSH1 0x0 KECCAK256 PUSH1 0x1 PUSH1 0xFF NOT DUP3 SLOAD AND OR SWAP1 SSTORE DUP3 CALLER SWAP2 PUSH1 0x0 DUP1 MLOAD PUSH1 0x20 PUSH2 0x57DF DUP4 CODECOPY DUP2 MLOAD SWAP2 MSTORE PUSH1 0x0 DUP1 LOG4 DUP5 PUSH2 0x61D JUMP JUMPDEST PUSH2 0x7AA SWAP2 SWAP4 POP DUP3 RETURNDATASIZE DUP5 GT PUSH2 0x7B1 JUMPI JUMPDEST PUSH2 0x7A2 DUP2 DUP4 PUSH2 0x388A JUMP JUMPDEST DUP2 ADD SWAP1 PUSH2 0x4179 JUMP JUMPDEST SWAP2 DUP6 PUSH2 0x5E8 JUMP JUMPDEST POP RETURNDATASIZE PUSH2 0x798 JUMP JUMPDEST PUSH1 0x40 MLOAD RETURNDATASIZE PUSH1 0x0 DUP3 RETURNDATACOPY RETURNDATASIZE SWAP1 REVERT JUMPDEST DUP1 PUSH1 0x0 MSTORE PUSH1 0x0 DUP3 MSTORE PUSH1 0x40 PUSH1 0x0 KECCAK256 DUP6 PUSH1 0x0 MSTORE DUP3 MSTORE PUSH1 0x40 PUSH1 0x0 KECCAK256 PUSH1 0x1 PUSH1 0xFF NOT DUP3 SLOAD AND OR SWAP1 SSTORE DUP5 CALLER SWAP2 PUSH1 0x0 DUP1 MLOAD PUSH1 0x20 PUSH2 0x57DF DUP4 CODECOPY DUP2 MLOAD SWAP2 MSTORE PUSH1 0x0 DUP1 LOG4 DUP5 PUSH2 0x5C2 JUMP JUMPDEST DUP1 PUSH1 0x0 MSTORE PUSH1 0x0 DUP3 MSTORE PUSH1 0x40 PUSH1 0x0 KECCAK256 DUP6 PUSH1 0x0 MSTORE DUP3 MSTORE PUSH1 0x40 PUSH1 0x0 KECCAK256 PUSH1 0x1 PUSH1 0xFF NOT DUP3 SLOAD AND OR SWAP1 SSTORE DUP5 CALLER SWAP2 PUSH1 0x0 DUP1 MLOAD PUSH1 0x20 PUSH2 0x57DF DUP4 CODECOPY DUP2 MLOAD SWAP2 MSTORE PUSH1 0x0 DUP1 LOG4 DUP5 PUSH2 0x57F JUMP JUMPDEST PUSH1 0x40 MLOAD PUSH4 0x7BFD2E83 PUSH1 0xE0 SHL DUP2 MSTORE PUSH1 0x4 SWAP1 REVERT JUMPDEST PUSH1 0x40 MLOAD PUSH4 0x7396742F PUSH1 0xE1 SHL DUP2 MSTORE PUSH1 0x4 SWAP1 REVERT JUMPDEST CALLVALUE PUSH2 0x351 JUMPI PUSH1 0x20 CALLDATASIZE PUSH1 0x3 NOT ADD SLT PUSH2 0x351 JUMPI PUSH1 0xA0 PUSH2 0x884 PUSH1 0x4 CALLDATALOAD PUSH2 0x51A2 JUMP JUMPDEST SWAP3 PUSH1 0x40 SWAP3 SWAP2 SWAP3 MLOAD SWAP5 ISZERO ISZERO DUP6 MSTORE PUSH1 0x20 DUP6 ADD MSTORE PUSH1 0x40 DUP5 ADD MSTORE PUSH1 0x60 DUP4 ADD MSTORE PUSH1 0x80 DUP3 ADD MSTORE RETURN JUMPDEST CALLVALUE PUSH2 0x351 JUMPI PUSH1 0x0 CALLDATASIZE PUSH1 0x3 NOT ADD SLT PUSH2 0x351 JUMPI PUSH1 0x20 PUSH1 0xE SLOAD PUSH1 0x40 MLOAD SWAP1 DUP2 MSTORE RETURN JUMPDEST CALLVALUE PUSH2 0x351 JUMPI PUSH1 0x20 DUP1 PUSH1 0x3 NOT CALLDATASIZE ADD SLT PUSH2 0x351 JUMPI PUSH2 0x91B SWAP1 PUSH1 0x4 CALLDATALOAD DUP1 PUSH1 0x0 MSTORE PUSH1 0x7 DUP3 MSTORE PUSH2 0x8F2 PUSH1 0x40 PUSH1 0x0 KECCAK256 PUSH2 0x549A JUMP JUMPDEST SWAP2 DUP3 MLOAD SWAP3 PUSH2 0x8FF DUP5 PUSH2 0x546F JUMP JUMPDEST SWAP4 PUSH2 0x90D PUSH1 0x40 MLOAD SWAP6 DUP7 PUSH2 0x388A JUMP JUMPDEST DUP1 DUP6 MSTORE PUSH1 0x1F NOT SWAP6 DUP7 SWAP2 PUSH2 0x546F JUMP JUMPDEST ADD DUP3 PUSH1 0x0 JUMPDEST DUP3 DUP2 LT PUSH2 0xAA9 JUMPI POP POP POP PUSH1 0x0 JUMPDEST DUP2 MLOAD DUP2 LT ISZERO PUSH2 0xA07 JUMPI PUSH1 0x0 DUP5 DUP2 MSTORE PUSH1 0x6 DUP5 MSTORE PUSH1 0x40 SWAP1 KECCAK256 PUSH1 0x1 PUSH1 0x1 PUSH1 0xA0 SHL SUB SWAP2 SWAP1 DUP3 PUSH2 0x958 DUP4 DUP7 PUSH2 0x5486 JUMP JUMPDEST MLOAD AND PUSH1 0x0 MSTORE DUP5 MSTORE PUSH1 0x40 PUSH1 0x0 KECCAK256 SWAP2 PUSH1 0x40 MLOAD SWAP1 PUSH2 0x972 DUP3 PUSH2 0x3854 JUMP JUMPDEST DUP4 SLOAD SWAP1 DUP2 AND DUP3 MSTORE PUSH1 0xFF PUSH1 0xA0 SWAP2 DUP3 SHR AND PUSH1 0x3 SWAP5 DUP6 DUP3 LT ISZERO PUSH2 0x9F1 JUMPI PUSH2 0x9BF PUSH2 0x9C6 PUSH2 0x9EC SWAP8 PUSH1 0x4 SWAP5 DUP12 DUP9 ADD MSTORE PUSH1 0x1 DUP5 ADD SLOAD PUSH1 0x40 DUP9 ADD MSTORE PUSH1 0x2 DUP5 ADD SLOAD PUSH1 0x60 DUP9 ADD MSTORE PUSH1 0x40 MLOAD SWAP3 DUP4 DUP1 SWAP3 DUP7 ADD PUSH2 0x409F JUMP JUMPDEST SUB DUP3 PUSH2 0x388A JUMP JUMPDEST PUSH1 0x80 DUP6 ADD MSTORE ADD SLOAD SWAP1 DUP3 ADD MSTORE PUSH2 0x9DB DUP3 DUP9 PUSH2 0x5486 JUMP JUMPDEST MSTORE PUSH2 0x9E6 DUP2 DUP8 PUSH2 0x5486 JUMP JUMPDEST POP PUSH2 0x4198 JUMP JUMPDEST PUSH2 0x92D JUMP JUMPDEST PUSH4 0x4E487B71 PUSH1 0xE0 SHL PUSH1 0x0 MSTORE PUSH1 0x21 PUSH1 0x4 MSTORE PUSH1 0x24 PUSH1 0x0 REVERT JUMPDEST DUP2 DUP4 DUP7 DUP9 PUSH1 0x40 MLOAD SWAP3 PUSH1 0x40 DUP5 ADD PUSH1 0x40 DUP6 MSTORE DUP6 MLOAD DUP1 SWAP2 MSTORE DUP2 PUSH1 0x60 DUP7 ADD SWAP7 ADD SWAP1 PUSH1 0x0 JUMPDEST DUP2 DUP2 LT PUSH2 0xA8C JUMPI POP POP POP DUP4 DUP6 SUB DUP2 DUP6 ADD MSTORE DUP3 MLOAD SWAP1 DUP2 DUP7 MSTORE DUP1 DUP7 ADD DUP2 DUP1 DUP5 PUSH1 0x5 SHL DUP10 ADD ADD SWAP6 ADD SWAP4 PUSH1 0x0 SWAP8 JUMPDEST DUP5 DUP10 LT PUSH2 0xA5E JUMPI DUP8 DUP8 SUB DUP9 RETURN JUMPDEST SWAP1 SWAP2 SWAP3 SWAP4 SWAP5 SWAP6 DUP5 DUP1 PUSH2 0xA7A DUP4 DUP7 DUP7 PUSH1 0x1 SWAP7 SUB ADD DUP9 MSTORE DUP11 MLOAD PUSH2 0x39ED JUMP JUMPDEST SWAP9 ADD SWAP5 ADD SWAP9 ADD SWAP8 SWAP2 SWAP1 SWAP5 SWAP4 SWAP3 SWAP5 PUSH2 0xA51 JUMP JUMPDEST DUP3 MLOAD PUSH1 0x1 PUSH1 0x1 PUSH1 0xA0 SHL SUB AND DUP9 MSTORE SWAP7 DUP4 ADD SWAP7 SWAP2 DUP4 ADD SWAP2 PUSH1 0x1 ADD PUSH2 0xA27 JUMP JUMPDEST PUSH2 0xAB1 PUSH2 0x543D JUMP JUMPDEST DUP3 DUP3 DUP10 ADD ADD MSTORE ADD DUP4 SWAP1 PUSH2 0x920 JUMP JUMPDEST PUSH2 0x39C2 JUMP JUMPDEST CALLVALUE PUSH2 0x351 JUMPI PUSH1 0x20 CALLDATASIZE PUSH1 0x3 NOT ADD SLT PUSH2 0x351 JUMPI PUSH1 0x4 CALLDATALOAD PUSH1 0x7 DUP2 LT ISZERO PUSH2 0x351 JUMPI PUSH2 0xAF5 PUSH2 0xAF0 PUSH2 0x4A9 SWAP3 PUSH2 0x41FB JUMP JUMPDEST PUSH2 0x549A JUMP JUMPDEST PUSH1 0x40 MLOAD SWAP2 DUP3 SWAP2 DUP3 PUSH2 0x391B JUMP JUMPDEST CALLVALUE PUSH2 0x351 JUMPI PUSH1 0x40 CALLDATASIZE PUSH1 0x3 NOT ADD SLT PUSH2 0x351 JUMPI PUSH2 0xB1A PUSH2 0x37EA JUMP JUMPDEST PUSH1 0x24 CALLDATALOAD PUSH1 0xFF PUSH1 0x3 SLOAD PUSH1 0xA0 SHR AND ISZERO PUSH2 0x414 JUMPI PUSH2 0xB33 PUSH2 0x4135 JUMP JUMPDEST CALLER PUSH1 0x0 MSTORE PUSH1 0xB PUSH1 0x20 MSTORE PUSH1 0x40 PUSH1 0x0 KECCAK256 SWAP2 PUSH1 0x1 DUP1 PUSH1 0xA0 SHL SUB DUP2 AND SWAP3 DUP4 PUSH1 0x0 MSTORE PUSH1 0x20 MSTORE PUSH1 0x40 PUSH1 0x0 KECCAK256 PUSH1 0x4 DUP2 ADD SWAP2 PUSH1 0xFF DUP4 SLOAD AND ISZERO DUP1 ISZERO PUSH2 0xC29 JUMPI JUMPDEST PUSH2 0xBFC JUMPI POP PUSH1 0x2 ADD PUSH2 0xB7D DUP4 DUP3 SLOAD PUSH2 0x446F JUMP JUMPDEST DUP2 SSTORE CALLER PUSH1 0x0 MSTORE PUSH1 0xD PUSH1 0x20 MSTORE PUSH1 0x40 PUSH1 0x0 KECCAK256 PUSH2 0xB98 DUP5 DUP3 SLOAD PUSH2 0x446F JUMP JUMPDEST SWAP1 SSTORE SLOAD ISZERO PUSH2 0xBD6 JUMPI JUMPDEST POP PUSH1 0x40 MLOAD SWAP1 DUP2 MSTORE TIMESTAMP PUSH1 0x20 DUP3 ADD MSTORE PUSH32 0xA4A5A3554CCF1A9531C27B469CD495BD2D61B6DA23637FE39C7ED3D90C9A0132 PUSH1 0x40 CALLER SWAP3 LOG3 STOP JUMPDEST PUSH1 0xFF NOT DUP2 SLOAD AND SWAP1 SSTORE CALLER PUSH1 0x0 MSTORE PUSH1 0xC PUSH1 0x20 MSTORE PUSH2 0xBF5 DUP3 PUSH1 0x40 PUSH1 0x0 KECCAK256 PUSH2 0x447C JUMP JUMPDEST POP DUP3 PUSH2 0xBA1 JUMP JUMPDEST PUSH1 0x40 MLOAD PUSH4 0x9078CFF PUSH1 0xE2 SHL DUP2 MSTORE CALLER PUSH1 0x4 DUP3 ADD MSTORE PUSH1 0x1 PUSH1 0x1 PUSH1 0xA0 SHL SUB SWAP2 SWAP1 SWAP2 AND PUSH1 0x24 DUP3 ADD MSTORE PUSH1 0x44 SWAP1 REVERT JUMPDEST SUB SWAP1 REVERT JUMPDEST POP DUP4 PUSH1 0x2 DUP4 ADD SLOAD LT PUSH2 0xB6A JUMP JUMPDEST CALLVALUE PUSH2 0x351 JUMPI PUSH1 0x40 CALLDATASIZE PUSH1 0x3 NOT ADD SLT PUSH2 0x351 JUMPI PUSH2 0xC4F PUSH2 0x37D4 JUMP JUMPDEST PUSH2 0xC57 PUSH2 0x543D JUMP JUMPDEST POP PUSH1 0x4 CALLDATALOAD PUSH1 0x0 MSTORE PUSH1 0x6 PUSH1 0x20 MSTORE PUSH1 0x40 PUSH1 0x0 KECCAK256 PUSH1 0x1 DUP1 PUSH1 0xA0 SHL SUB DUP1 SWAP3 AND PUSH1 0x0 MSTORE PUSH1 0x20 MSTORE PUSH1 0x40 PUSH1 0x0 KECCAK256 SWAP1 PUSH1 0xFF PUSH1 0x40 MLOAD SWAP2 PUSH2 0xC8D DUP4 PUSH2 0x3854 JUMP JUMPDEST DUP4 SLOAD SWAP1 DUP2 AND DUP4 MSTORE PUSH1 0xA0 SHR AND PUSH1 0x3 DUP2 LT ISZERO PUSH2 0x9F1 JUMPI PUSH2 0x4A9 SWAP3 PUSH1 0x4 SWAP2 PUSH1 0x20 DUP5 ADD MSTORE PUSH1 0x1 DUP2 ADD SLOAD PUSH1 0x40 DUP5 ADD MSTORE PUSH1 0x2 DUP2 ADD SLOAD PUSH1 0x60 DUP5 ADD MSTORE PUSH1 0x40 MLOAD PUSH2 0xCD5 DUP2 PUSH2 0x9BF DUP2 PUSH1 0x3 DUP7 ADD PUSH2 0x409F JUMP JUMPDEST PUSH1 0x80 DUP5 ADD MSTORE ADD SLOAD PUSH1 0xA0 DUP3 ADD MSTORE PUSH1 0x40 MLOAD SWAP2 DUP3 SWAP2 PUSH1 0x20 DUP4 MSTORE PUSH1 0x20 DUP4 ADD SWAP1 PUSH2 0x39ED JUMP JUMPDEST CALLVALUE PUSH2 0x351 JUMPI PUSH1 0x40 CALLDATASIZE PUSH1 0x3 NOT ADD SLT PUSH2 0x351 JUMPI PUSH1 0x20 PUSH2 0xD1B PUSH2 0xD13 PUSH2 0x37D4 JUMP JUMPDEST PUSH1 0x4 CALLDATALOAD PUSH2 0x54E9 JUMP JUMPDEST PUSH1 0x40 MLOAD SWAP1 ISZERO ISZERO DUP2 MSTORE RETURN JUMPDEST CALLVALUE PUSH2 0x351 JUMPI PUSH1 0x20 CALLDATASIZE PUSH1 0x3 NOT ADD SLT PUSH2 0x351 JUMPI PUSH1 0x20 PUSH2 0xD43 PUSH1 0x4 CALLDATALOAD PUSH2 0x56CF JUMP JUMPDEST PUSH1 0x40 MLOAD SWAP1 DUP2 MSTORE RETURN JUMPDEST CALLVALUE PUSH2 0x351 JUMPI PUSH1 0x40 CALLDATASIZE PUSH1 0x3 NOT ADD SLT PUSH2 0x351 JUMPI PUSH1 0x20 PUSH2 0xD66 PUSH2 0x37D4 JUMP JUMPDEST PUSH1 0x4 CALLDATALOAD PUSH1 0x0 MSTORE PUSH1 0x6 DUP3 MSTORE PUSH1 0x40 PUSH1 0x0 KECCAK256 PUSH1 0x1 DUP1 PUSH1 0xA0 SHL SUB DUP1 SWAP3 AND PUSH1 0x0 MSTORE DUP3 MSTORE PUSH1 0x40 PUSH1 0x0 KECCAK256 SLOAD AND ISZERO ISZERO PUSH1 0x40 MLOAD SWAP1 DUP2 MSTORE RETURN JUMPDEST CALLVALUE PUSH2 0x351 JUMPI PUSH1 0x0 CALLDATASIZE PUSH1 0x3 NOT ADD SLT PUSH2 0x351 JUMPI PUSH1 0x3 SLOAD PUSH1 0x1 PUSH1 0x1 PUSH1 0xA0 SHL SUB DUP2 AND CALLER SUB PUSH2 0x426 JUMPI PUSH1 0xA0 SHR PUSH1 0xFF AND ISZERO PUSH2 0x414 JUMPI PUSH32 0x6DFF2FE8FBB5B23BF0583BF5B2157FF62CA7E27F2FB4F404914CD0C205CED5CC PUSH1 0x0 DUP1 LOG1 STOP JUMPDEST CALLVALUE PUSH2 0x351 JUMPI PUSH1 0x20 CALLDATASIZE PUSH1 0x3 NOT ADD SLT PUSH2 0x351 JUMPI PUSH1 0x4 CALLDATALOAD PUSH1 0x0 MSTORE PUSH1 0x5 PUSH1 0x20 MSTORE PUSH1 0x40 PUSH1 0x0 KECCAK256 PUSH1 0xFF PUSH1 0x7 DUP3 ADD SLOAD PUSH1 0x18 SHR AND SWAP1 PUSH1 0x7 DUP3 LT ISZERO PUSH2 0x9F1 JUMPI PUSH1 0x1 PUSH1 0x20 SWAP3 EQ SWAP1 DUP2 PUSH2 0xE4D JUMPI JUMPDEST DUP2 PUSH2 0xE3F JUMPI JUMPDEST POP PUSH1 0x40 MLOAD SWAP1 ISZERO ISZERO DUP2 MSTORE RETURN JUMPDEST PUSH1 0x9 SWAP2 POP ADD SLOAD TIMESTAMP LT DUP3 PUSH2 0xE34 JUMP JUMPDEST PUSH1 0x8 DUP2 ADD SLOAD TIMESTAMP LT ISZERO SWAP2 POP PUSH2 0xE2E JUMP JUMPDEST CALLVALUE PUSH2 0x351 JUMPI PUSH1 0x60 CALLDATASIZE PUSH1 0x3 NOT ADD SLT PUSH2 0x351 JUMPI PUSH1 0x3 PUSH1 0x24 CALLDATALOAD LT ISZERO PUSH2 0x351 JUMPI PUSH1 0x44 CALLDATALOAD PUSH1 0x1 PUSH1 0x1 PUSH1 0x40 SHL SUB DUP2 GT PUSH2 0x351 JUMPI PUSH2 0xE97 SWAP1 CALLDATASIZE SWAP1 PUSH1 0x4 ADD PUSH2 0x38FD JUMP JUMPDEST PUSH1 0xFF PUSH1 0x3 SLOAD PUSH1 0xA0 SHR AND ISZERO PUSH2 0x414 JUMPI PUSH2 0xEAD PUSH2 0x4135 JUMP JUMPDEST PUSH2 0xEB5 PUSH2 0x4214 JUMP JUMPDEST PUSH1 0x4 CALLDATALOAD PUSH1 0x0 MSTORE PUSH1 0x5 PUSH1 0x20 MSTORE PUSH1 0x40 PUSH1 0x0 KECCAK256 SWAP1 PUSH1 0x1 DUP1 PUSH1 0xA0 SHL SUB PUSH1 0x3 DUP4 ADD SLOAD AND ISZERO PUSH2 0x1296 JUMPI PUSH1 0x8 DUP3 ADD SLOAD TIMESTAMP LT DUP1 ISZERO SWAP1 DUP2 PUSH2 0x1288 JUMPI JUMPDEST PUSH2 0x126F JUMPI PUSH1 0xFF PUSH1 0x7 DUP5 ADD SLOAD PUSH1 0x18 SHR AND PUSH1 0x7 DUP2 LT ISZERO DUP1 PUSH2 0x9F1 JUMPI PUSH1 0x1 DUP3 EQ ISZERO DUP1 PUSH2 0x1263 JUMPI JUMPDEST PUSH2 0x124A JUMPI PUSH2 0x9F1 JUMPI ISZERO SWAP1 DUP2 PUSH2 0x1242 JUMPI JUMPDEST POP PUSH2 0x1232 JUMPI JUMPDEST PUSH1 0x4 CALLDATALOAD PUSH1 0x0 MSTORE PUSH1 0x6 PUSH1 0x20 MSTORE PUSH1 0x40 PUSH1 0x0 KECCAK256 CALLER PUSH1 0x0 MSTORE PUSH1 0x20 MSTORE PUSH1 0x1 DUP1 PUSH1 0xA0 SHL SUB PUSH1 0x40 PUSH1 0x0 KECCAK256 SLOAD AND PUSH2 0x1212 JUMPI PUSH1 0x2 DUP3 ADD SLOAD SWAP2 PUSH1 0x3 PUSH2 0xF6A PUSH1 0xFF PUSH1 0x7 DUP5 ADD SLOAD PUSH1 0x10 SHR AND DUP1 SWAP6 CALLER SWAP1 PUSH2 0x4DB6 JUMP JUMPDEST SWAP4 PUSH2 0xF74 DUP2 PUSH2 0x39AB JUMP JUMPDEST EQ DUP1 PUSH2 0x120A JUMPI JUMPDEST PUSH2 0x11D7 JUMPI JUMPDEST DUP3 ISZERO PUSH2 0x11B1 JUMPI PUSH1 0x4 CALLDATALOAD PUSH1 0x0 MSTORE PUSH1 0x6 PUSH1 0x20 MSTORE PUSH1 0x40 PUSH1 0x0 KECCAK256 CALLER PUSH1 0x0 MSTORE PUSH1 0x20 MSTORE PUSH1 0x40 PUSH1 0x0 KECCAK256 DUP1 SLOAD PUSH1 0xFF PUSH1 0xA0 SHL PUSH1 0x24 CALLDATALOAD PUSH1 0xA0 SHL AND SWAP1 PUSH1 0xFF PUSH1 0xA0 SHL NOT CALLER AND SWAP1 PUSH11 0xFFFFFFFFFFFFFFFFFFFFFF PUSH1 0xA8 SHL AND OR OR DUP2 SSTORE DUP4 PUSH1 0x1 DUP3 ADD SSTORE TIMESTAMP PUSH1 0x2 DUP3 ADD SSTORE DUP3 MLOAD PUSH1 0x1 PUSH1 0x1 PUSH1 0x40 SHL SUB DUP2 GT PUSH2 0x119B JUMPI PUSH2 0x1004 DUP2 PUSH2 0xFFB PUSH1 0x3 DUP6 ADD SLOAD PUSH2 0x4065 JUMP JUMPDEST PUSH1 0x3 DUP6 ADD PUSH2 0x41A7 JUMP JUMPDEST PUSH1 0x20 PUSH1 0x1F DUP3 GT PUSH1 0x1 EQ PUSH2 0x1123 JUMPI PUSH1 0x4 PUSH1 0x13 SWAP4 DUP4 PUSH2 0x10A9 SWAP8 SWAP7 SWAP5 PUSH1 0x0 SWAP5 DUP6 SWAP2 PUSH2 0x1118 JUMPI JUMPDEST POP DUP2 PUSH1 0x1 SHL SWAP2 DUP6 NOT SWAP1 PUSH1 0x3 SHL SHR NOT AND OR PUSH1 0x3 DUP3 ADD SSTORE JUMPDEST ADD SSTORE PUSH1 0x4 CALLDATALOAD PUSH1 0x0 MSTORE PUSH1 0x7 PUSH1 0x20 MSTORE PUSH2 0x1058 CALLER PUSH1 0x40 PUSH1 0x0 KECCAK256 PUSH2 0x4318 JUMP JUMPDEST POP PUSH1 0x24 CALLDATALOAD PUSH1 0x1 SUB PUSH2 0x10EC JUMPI PUSH1 0x10 DUP2 ADD PUSH2 0x1072 DUP7 DUP3 SLOAD PUSH2 0x3F23 JUMP JUMPDEST SWAP1 SSTORE JUMPDEST ADD PUSH2 0x1081 DUP5 DUP3 SLOAD PUSH2 0x3F23 JUMP JUMPDEST SWAP1 SSTORE PUSH1 0x40 MLOAD SWAP3 PUSH2 0x1093 DUP5 PUSH1 0x24 CALLDATALOAD PUSH2 0x39E0 JUMP JUMPDEST PUSH1 0x20 DUP5 ADD MSTORE PUSH1 0x80 PUSH1 0x40 DUP5 ADD MSTORE PUSH1 0x80 DUP4 ADD SWAP1 PUSH2 0x3979 JUMP JUMPDEST TIMESTAMP PUSH1 0x60 DUP4 ADD MSTORE PUSH32 0x4CB49D347B97C61478AD5973530706E433C68C743C1A3050DF41D1F0201CC08E CALLER SWAP3 DUP1 PUSH1 0x4 CALLDATALOAD SWAP4 SUB SWAP1 LOG3 PUSH2 0x10E5 PUSH1 0x4 CALLDATALOAD PUSH2 0x4A87 JUMP JUMPDEST PUSH1 0x1 PUSH1 0x2 SSTORE STOP JUMPDEST PUSH1 0x24 CALLDATALOAD PUSH2 0x1109 JUMPI PUSH1 0x11 DUP2 ADD PUSH2 0x1102 DUP7 DUP3 SLOAD PUSH2 0x3F23 JUMP JUMPDEST SWAP1 SSTORE PUSH2 0x1075 JUMP JUMPDEST PUSH1 0x12 DUP2 ADD PUSH2 0x1102 DUP7 DUP3 SLOAD PUSH2 0x3F23 JUMP JUMPDEST SWAP1 POP DUP8 ADD MLOAD DUP11 PUSH2 0x1027 JUMP JUMPDEST PUSH1 0x3 DUP4 ADD PUSH1 0x0 MSTORE PUSH1 0x20 PUSH1 0x0 KECCAK256 SWAP1 PUSH1 0x0 JUMPDEST PUSH1 0x1F NOT DUP5 AND DUP2 LT PUSH2 0x1183 JUMPI POP PUSH1 0x13 SWAP4 PUSH1 0x1 DUP5 PUSH1 0x0 SWAP5 PUSH1 0x4 SWAP5 PUSH2 0x10A9 SWAP11 SWAP10 SWAP8 PUSH1 0x1F NOT DUP2 AND LT PUSH2 0x116B JUMPI JUMPDEST POP POP DUP2 SHL ADD PUSH1 0x3 DUP3 ADD SSTORE PUSH2 0x103D JUMP JUMPDEST DUP10 ADD MLOAD DUP7 NOT PUSH1 0xF8 DUP5 PUSH1 0x3 SHL AND SHR NOT AND SWAP1 SSTORE DUP11 DUP1 PUSH2 0x115C JUMP JUMPDEST SWAP1 SWAP2 PUSH1 0x20 PUSH1 0x1 DUP2 SWAP3 DUP6 DUP11 ADD MLOAD DUP2 SSTORE ADD SWAP4 ADD SWAP2 ADD PUSH2 0x1133 JUMP JUMPDEST PUSH4 0x4E487B71 PUSH1 0xE0 SHL PUSH1 0x0 MSTORE PUSH1 0x41 PUSH1 0x4 MSTORE PUSH1 0x24 PUSH1 0x0 REVERT JUMPDEST PUSH1 0x40 MLOAD PUSH4 0x9E915AF PUSH1 0xE0 SHL DUP2 MSTORE CALLER PUSH1 0x4 DUP3 ADD MSTORE PUSH1 0x1 PUSH1 0x24 DUP3 ADD MSTORE PUSH1 0x0 PUSH1 0x44 DUP3 ADD MSTORE PUSH1 0x64 SWAP1 REVERT JUMPDEST SWAP2 PUSH2 0x2710 SWAP1 DUP2 DUP2 MUL SWAP1 DUP1 DUP3 DIV DUP4 EQ SWAP1 ISZERO OR ISZERO PUSH2 0x11F4 JUMPI DIV SWAP2 PUSH2 0xF80 JUMP JUMPDEST PUSH4 0x4E487B71 PUSH1 0xE0 SHL PUSH1 0x0 MSTORE PUSH1 0x11 PUSH1 0x4 MSTORE PUSH1 0x24 PUSH1 0x0 REVERT JUMPDEST POP PUSH1 0x0 PUSH2 0xF7B JUMP JUMPDEST PUSH1 0x40 MLOAD PUSH4 0xBCF2EA3 PUSH1 0xE0 SHL DUP2 MSTORE PUSH1 0x4 DUP1 CALLDATALOAD SWAP1 DUP3 ADD MSTORE CALLER PUSH1 0x24 DUP3 ADD MSTORE PUSH1 0x44 SWAP1 REVERT JUMPDEST PUSH2 0x123D PUSH1 0x4 CALLDATALOAD PUSH2 0x4941 JUMP JUMPDEST PUSH2 0xF22 JUMP JUMPDEST SWAP1 POP DUP4 PUSH2 0xF1C JUMP JUMPDEST PUSH1 0x24 PUSH1 0x40 MLOAD PUSH4 0x673B9F79 PUSH1 0xE0 SHL DUP2 MSTORE PUSH1 0x4 CALLDATALOAD PUSH1 0x4 DUP3 ADD MSTORE REVERT JUMPDEST POP POP PUSH1 0x0 DUP2 ISZERO ISZERO PUSH2 0xF0C JUMP JUMPDEST PUSH1 0x24 PUSH1 0x40 MLOAD PUSH4 0x1FF4F4D PUSH1 0xE5 SHL DUP2 MSTORE PUSH1 0x4 CALLDATALOAD PUSH1 0x4 DUP3 ADD MSTORE REVERT JUMPDEST POP PUSH1 0x9 DUP4 ADD SLOAD TIMESTAMP LT ISZERO PUSH2 0xEE8 JUMP JUMPDEST PUSH1 0x24 PUSH1 0x40 MLOAD PUSH4 0xE2ACEE5B PUSH1 0xE0 SHL DUP2 MSTORE PUSH1 0x4 CALLDATALOAD PUSH1 0x4 DUP3 ADD MSTORE REVERT JUMPDEST CALLVALUE PUSH2 0x351 JUMPI PUSH1 0x0 CALLDATASIZE PUSH1 0x3 NOT ADD SLT PUSH2 0x351 JUMPI PUSH1 0x20 PUSH1 0x40 MLOAD PUSH1 0x0 DUP2 MSTORE RETURN JUMPDEST CALLVALUE PUSH2 0x351 JUMPI PUSH1 0x40 CALLDATASIZE PUSH1 0x3 NOT ADD SLT PUSH2 0x351 JUMPI PUSH1 0x20 PUSH2 0xD43 PUSH2 0x12E9 PUSH2 0x37D4 JUMP JUMPDEST PUSH1 0x4 CALLDATALOAD PUSH1 0x0 MSTORE PUSH1 0x5 DUP4 MSTORE PUSH1 0x40 PUSH1 0x0 KECCAK256 SWAP1 PUSH1 0xFF PUSH1 0x7 PUSH1 0x2 DUP5 ADD SLOAD SWAP4 ADD SLOAD PUSH1 0x10 SHR AND SWAP2 PUSH2 0x4DB6 JUMP JUMPDEST CALLVALUE PUSH2 0x351 JUMPI PUSH1 0x0 CALLDATASIZE PUSH1 0x3 NOT ADD SLT PUSH2 0x351 JUMPI PUSH1 0x20 PUSH1 0x40 MLOAD PUSH32 0x60B4C21D70EAD12825359FAA918A75B0F6AEC1173D8F83736A228003BB90F01C DUP2 MSTORE RETURN JUMPDEST CALLVALUE PUSH2 0x351 JUMPI PUSH1 0x20 CALLDATASIZE PUSH1 0x3 NOT ADD SLT PUSH2 0x351 JUMPI PUSH1 0x4 CALLDATALOAD PUSH1 0xFF PUSH1 0x3 SLOAD PUSH1 0xA0 SHR AND ISZERO PUSH2 0x414 JUMPI PUSH2 0x1374 PUSH2 0x4135 JUMP JUMPDEST PUSH2 0x137C PUSH2 0x4214 JUMP JUMPDEST PUSH1 0x0 DUP2 DUP2 MSTORE PUSH1 0x5 PUSH1 0x20 MSTORE PUSH1 0x40 SWAP1 KECCAK256 PUSH1 0x3 DUP2 ADD SLOAD PUSH1 0x1 PUSH1 0x1 PUSH1 0xA0 SHL SUB SWAP2 SWAP1 DUP3 AND ISZERO PUSH2 0x151B JUMPI PUSH1 0xFF PUSH1 0x7 DUP3 ADD SLOAD PUSH1 0x18 SHR AND PUSH1 0x7 DUP2 LT ISZERO PUSH2 0x9F1 JUMPI PUSH1 0x2 SUB PUSH2 0x1502 JUMPI PUSH1 0xA DUP2 ADD SLOAD TIMESTAMP LT PUSH2 0x14E9 JUMPI PUSH1 0x14 DUP2 ADD PUSH1 0x1 PUSH1 0xFF NOT DUP3 SLOAD AND OR SWAP1 SSTORE PUSH1 0x60 SWAP1 PUSH1 0xD DUP2 ADD SWAP2 PUSH2 0x13E7 DUP4 SLOAD PUSH2 0x4065 JUMP JUMPDEST ISZERO ISZERO DUP1 PUSH2 0x14DA JUMPI JUMPDEST ISZERO PUSH2 0x14AA JUMPI POP SWAP1 PUSH2 0x1411 PUSH1 0x0 DUP1 SWAP5 PUSH1 0xE DUP3 SWAP6 ADD SLOAD AND SWAP3 PUSH1 0x40 MLOAD SWAP3 DUP4 DUP1 SWAP3 PUSH2 0x43BD JUMP JUMPDEST SUB SWAP3 GAS CALL DUP2 PUSH32 0x81E17797FF342D155472363C2116C9940B0297D64BBE5CA4B85E529EE514DC6 PUSH2 0x1470 PUSH2 0x1442 PUSH2 0x443F JUMP JUMPDEST SWAP4 JUMPDEST DUP1 ISZERO PUSH2 0x149C JUMPI PUSH2 0x1453 DUP5 PUSH2 0x48A7 JUMP JUMPDEST PUSH1 0x40 MLOAD SWAP2 DUP3 SWAP2 ISZERO SWAP6 DUP7 ISZERO DUP4 MSTORE PUSH1 0x60 PUSH1 0x20 DUP5 ADD MSTORE PUSH1 0x60 DUP4 ADD SWAP1 PUSH2 0x3979 JUMP JUMPDEST TIMESTAMP PUSH1 0x40 DUP4 ADD MSTORE SUB SWAP1 LOG2 PUSH2 0x1484 JUMPI PUSH1 0x1 PUSH1 0x2 SSTORE STOP JUMPDEST PUSH1 0x24 SWAP1 PUSH1 0x40 MLOAD SWAP1 PUSH4 0x55FEB88F PUSH1 0xE1 SHL DUP3 MSTORE PUSH1 0x4 DUP3 ADD MSTORE REVERT JUMPDEST PUSH2 0x14A5 DUP5 PUSH2 0x480D JUMP JUMPDEST PUSH2 0x1453 JUMP JUMPDEST SWAP3 POP POP POP DUP2 PUSH32 0x81E17797FF342D155472363C2116C9940B0297D64BBE5CA4B85E529EE514DC6 PUSH2 0x1470 PUSH1 0x1 PUSH2 0x1444 JUMP JUMPDEST POP DUP4 PUSH1 0xE DUP4 ADD SLOAD AND ISZERO ISZERO PUSH2 0x13EF JUMP JUMPDEST PUSH1 0x40 MLOAD PUSH4 0x1FF4F4D PUSH1 0xE5 SHL DUP2 MSTORE PUSH1 0x4 DUP2 ADD DUP5 SWAP1 MSTORE PUSH1 0x24 SWAP1 REVERT JUMPDEST PUSH1 0x40 MLOAD PUSH4 0x673B9F79 PUSH1 0xE0 SHL DUP2 MSTORE PUSH1 0x4 DUP2 ADD DUP5 SWAP1 MSTORE PUSH1 0x24 SWAP1 REVERT JUMPDEST PUSH1 0x40 MLOAD PUSH4 0xE2ACEE5B PUSH1 0xE0 SHL DUP2 MSTORE PUSH1 0x4 DUP2 ADD DUP5 SWAP1 MSTORE PUSH1 0x24 SWAP1 REVERT JUMPDEST CALLVALUE PUSH2 0x351 JUMPI PUSH1 0x40 CALLDATASIZE PUSH1 0x3 NOT ADD SLT PUSH2 0x351 JUMPI PUSH2 0x154D PUSH2 0x37D4 JUMP JUMPDEST PUSH1 0x4 CALLDATALOAD PUSH1 0x0 MSTORE PUSH1 0x0 PUSH1 0x20 MSTORE PUSH1 0x40 PUSH1 0x0 KECCAK256 SWAP1 PUSH1 0x1 DUP1 PUSH1 0xA0 SHL SUB AND PUSH1 0x0 MSTORE PUSH1 0x20 MSTORE PUSH1 0x20 PUSH1 0xFF PUSH1 0x40 PUSH1 0x0 KECCAK256 SLOAD AND PUSH1 0x40 MLOAD SWAP1 ISZERO ISZERO DUP2 MSTORE RETURN JUMPDEST CALLVALUE PUSH2 0x351 JUMPI PUSH1 0x20 CALLDATASIZE PUSH1 0x3 NOT ADD SLT PUSH2 0x351 JUMPI PUSH2 0x159D PUSH1 0x4 CALLDATALOAD PUSH2 0x5747 JUMP JUMPDEST SWAP1 PUSH2 0x4A9 PUSH1 0x40 MLOAD SWAP3 DUP4 SWAP3 ISZERO ISZERO DUP4 MSTORE PUSH1 0x40 PUSH1 0x20 DUP5 ADD MSTORE PUSH1 0x40 DUP4 ADD SWAP1 PUSH2 0x3979 JUMP JUMPDEST CALLVALUE PUSH2 0x351 JUMPI PUSH1 0x0 CALLDATASIZE PUSH1 0x3 NOT ADD SLT PUSH2 0x351 JUMPI PUSH2 0x15D5 PUSH2 0x3C4D JUMP JUMPDEST PUSH1 0xFF PUSH1 0x3 SLOAD PUSH1 0xA0 SHR AND ISZERO PUSH2 0x414 JUMPI PUSH2 0x15EB PUSH2 0x4135 JUMP JUMPDEST PUSH1 0x1 PUSH1 0xFF NOT DUP2 SLOAD AND OR PUSH1 0x1 SSTORE PUSH32 0x62E78CEA01BEE320CD4E420270B5EA74000D11B0C9F74754EBDBFC544B05A258 PUSH1 0x20 PUSH1 0x40 MLOAD CALLER DUP2 MSTORE LOG1 STOP JUMPDEST CALLVALUE PUSH2 0x351 JUMPI PUSH1 0x20 CALLDATASIZE PUSH1 0x3 NOT ADD SLT PUSH2 0x351 JUMPI PUSH1 0x20 PUSH2 0xD43 PUSH1 0x4 CALLDATALOAD PUSH2 0x516B JUMP JUMPDEST CALLVALUE PUSH2 0x351 JUMPI PUSH1 0x0 CALLDATASIZE PUSH1 0x3 NOT ADD SLT PUSH2 0x351 JUMPI PUSH1 0x3 SLOAD PUSH1 0x40 MLOAD PUSH1 0x1 PUSH1 0x1 PUSH1 0xA0 SHL SUB SWAP1 SWAP2 AND DUP2 MSTORE PUSH1 0x20 SWAP1 RETURN JUMPDEST CALLVALUE PUSH2 0x351 JUMPI PUSH1 0xC0 CALLDATASIZE PUSH1 0x3 NOT ADD SLT PUSH2 0x351 JUMPI PUSH1 0x40 MLOAD PUSH2 0x1687 DUP2 PUSH2 0x3854 JUMP JUMPDEST PUSH1 0x4 CALLDATALOAD DUP2 MSTORE PUSH1 0x20 DUP2 ADD PUSH1 0x24 CALLDATALOAD DUP2 MSTORE PUSH1 0x40 DUP3 ADD PUSH1 0x44 CALLDATALOAD DUP2 MSTORE PUSH1 0x60 DUP4 ADD SWAP1 PUSH1 0x64 CALLDATALOAD DUP3 MSTORE PUSH1 0x80 DUP5 ADD SWAP3 PUSH1 0x84 CALLDATALOAD DUP5 MSTORE PUSH1 0xA4 CALLDATALOAD SWAP5 DUP6 ISZERO ISZERO DUP7 SUB PUSH2 0x351 JUMPI PUSH1 0xA0 DUP2 ADD SWAP6 DUP7 MSTORE PUSH2 0x16CE PUSH2 0x3A48 JUMP JUMPDEST MLOAD PUSH1 0x11 SSTORE MLOAD PUSH1 0x12 SSTORE MLOAD PUSH1 0x13 SSTORE MLOAD PUSH1 0x14 SSTORE MLOAD PUSH1 0x15 SSTORE MLOAD ISZERO ISZERO PUSH1 0xFF DUP1 NOT PUSH1 0x16 SLOAD AND SWAP2 AND OR PUSH1 0x16 SSTORE PUSH1 0x0 DUP1 RETURN JUMPDEST CALLVALUE PUSH2 0x351 JUMPI PUSH1 0x0 CALLDATASIZE PUSH1 0x3 NOT ADD SLT PUSH2 0x351 JUMPI PUSH1 0x20 PUSH1 0x40 MLOAD PUSH32 0xA49807205CE4D355092EF5A8A18F56E8913CF4A201FBE287825B095693C21775 DUP2 MSTORE RETURN JUMPDEST CALLVALUE PUSH2 0x351 JUMPI PUSH1 0x40 CALLDATASIZE PUSH1 0x3 NOT ADD SLT PUSH2 0x351 JUMPI PUSH2 0x174C PUSH2 0x37EA JUMP JUMPDEST PUSH1 0x24 CALLDATALOAD PUSH1 0xFF PUSH1 0x3 SLOAD PUSH1 0xA0 SHR AND ISZERO PUSH2 0x414 JUMPI PUSH2 0x1765 PUSH2 0x4135 JUMP JUMPDEST PUSH1 0x1 PUSH1 0x1 PUSH1 0xA0 SHL SUB DUP3 AND SWAP2 DUP3 ISZERO DUP1 ISZERO PUSH2 0x186C JUMPI JUMPDEST PUSH2 0x1843 JUMPI POP CALLER PUSH1 0x0 MSTORE PUSH1 0xB PUSH1 0x20 MSTORE PUSH1 0x40 PUSH1 0x0 KECCAK256 DUP3 PUSH1 0x0 MSTORE PUSH1 0x20 MSTORE PUSH1 0x4 PUSH1 0x40 PUSH1 0x0 KECCAK256 PUSH1 0x1 PUSH1 0x1 PUSH1 0x60 SHL SUB PUSH1 0xA0 SHL CALLER DUP2 DUP4 SLOAD AND OR DUP3 SSTORE DUP5 PUSH1 0x1 DUP4 ADD SWAP2 DUP3 SLOAD AND OR SWAP1 SSTORE PUSH1 0x2 DUP2 ADD PUSH2 0x17C8 DUP5 DUP3 SLOAD PUSH2 0x3F23 JUMP JUMPDEST SWAP1 SSTORE TIMESTAMP PUSH1 0x3 DUP3 ADD SSTORE ADD PUSH1 0x1 PUSH1 0xFF NOT DUP3 SLOAD AND OR SWAP1 SSTORE CALLER PUSH1 0x0 MSTORE PUSH1 0xC PUSH1 0x20 MSTORE PUSH2 0x17F3 DUP3 PUSH1 0x40 PUSH1 0x0 KECCAK256 PUSH2 0x4318 JUMP JUMPDEST POP CALLER PUSH1 0x0 MSTORE PUSH1 0xD PUSH1 0x20 MSTORE PUSH1 0x40 PUSH1 0x0 KECCAK256 PUSH2 0x180D DUP3 DUP3 SLOAD PUSH2 0x3F23 JUMP JUMPDEST SWAP1 SSTORE PUSH1 0x40 MLOAD SWAP1 DUP2 MSTORE TIMESTAMP PUSH1 0x20 DUP3 ADD MSTORE PUSH32 0xE93F38017CAEC651D0CE6B361A18A797C3C92915AF8727BC361E8B5528E01CD PUSH1 0x40 CALLER SWAP3 LOG3 STOP JUMPDEST PUSH1 0x40 MLOAD PUSH4 0xEF8342B5 PUSH1 0xE0 SHL DUP2 MSTORE CALLER PUSH1 0x4 DUP3 ADD MSTORE PUSH1 0x1 PUSH1 0x1 PUSH1 0xA0 SHL SUB SWAP2 SWAP1 SWAP2 AND PUSH1 0x24 DUP3 ADD MSTORE PUSH1 0x44 SWAP1 REVERT JUMPDEST POP CALLER DUP4 EQ PUSH2 0x1779 JUMP JUMPDEST CALLVALUE PUSH2 0x351 JUMPI PUSH1 0x20 CALLDATASIZE PUSH1 0x3 NOT ADD SLT PUSH2 0x351 JUMPI PUSH1 0x4 CALLDATALOAD PUSH1 0xFF PUSH1 0x3 SLOAD PUSH1 0xA0 SHR AND ISZERO PUSH2 0x414 JUMPI PUSH2 0x189F PUSH2 0x4135 JUMP JUMPDEST PUSH1 0x0 DUP2 DUP2 MSTORE PUSH1 0x5 PUSH1 0x20 MSTORE PUSH1 0x40 SWAP1 KECCAK256 PUSH1 0x3 DUP2 ADD SLOAD PUSH1 0x1 PUSH1 0x1 PUSH1 0xA0 SHL SUB AND ISZERO PUSH2 0x196B JUMPI PUSH2 0x18C9 DUP3 PUSH2 0x51A2 JUMP JUMPDEST POP POP POP POP ISZERO PUSH2 0x1952 JUMPI PUSH1 0x9 DUP2 ADD SLOAD TIMESTAMP LT PUSH2 0x1939 JUMPI PUSH1 0x40 DUP2 PUSH1 0xA PUSH2 0x191C DUP4 PUSH2 0x1914 PUSH1 0x2 PUSH32 0xA41177828E45756AF65C61FECE09DDDF5390F789CFD1C43577AEC3B6B390534F SWAP8 ADD SLOAD PUSH2 0x4D46 JUMP JUMPDEST ADD MLOAD TIMESTAMP PUSH2 0x3F23 JUMP JUMPDEST SWAP2 ADD SWAP1 DUP2 SSTORE PUSH2 0x192A DUP5 PUSH2 0x4773 JUMP JUMPDEST SLOAD DUP2 MLOAD SWAP1 DUP2 MSTORE TIMESTAMP PUSH1 0x20 DUP3 ADD MSTORE LOG2 STOP JUMPDEST PUSH1 0x40 MLOAD PUSH4 0x1FF4F4D PUSH1 0xE5 SHL DUP2 MSTORE PUSH1 0x4 DUP2 ADD DUP4 SWAP1 MSTORE PUSH1 0x24 SWAP1 REVERT JUMPDEST PUSH1 0x40 MLOAD PUSH4 0x5401D379 PUSH1 0xE0 SHL DUP2 MSTORE PUSH1 0x4 DUP2 ADD DUP4 SWAP1 MSTORE PUSH1 0x24 SWAP1 REVERT JUMPDEST PUSH1 0x40 MLOAD PUSH4 0xE2ACEE5B PUSH1 0xE0 SHL DUP2 MSTORE PUSH1 0x4 DUP2 ADD DUP4 SWAP1 MSTORE PUSH1 0x24 SWAP1 REVERT JUMPDEST CALLVALUE PUSH2 0x351 JUMPI PUSH1 0xA0 CALLDATASIZE PUSH1 0x3 NOT ADD SLT PUSH2 0x351 JUMPI PUSH1 0x5 PUSH1 0x24 CALLDATALOAD LT ISZERO PUSH2 0x351 JUMPI PUSH1 0x4 PUSH1 0x44 CALLDATALOAD LT ISZERO PUSH2 0x351 JUMPI PUSH1 0x4 PUSH1 0x64 CALLDATALOAD LT ISZERO PUSH2 0x351 JUMPI PUSH1 0x20 PUSH2 0xD1B PUSH1 0x84 CALLDATALOAD PUSH1 0x4 CALLDATALOAD PUSH2 0x5649 JUMP JUMPDEST CALLVALUE PUSH2 0x351 JUMPI PUSH1 0x20 CALLDATASIZE PUSH1 0x3 NOT ADD SLT PUSH2 0x351 JUMPI PUSH1 0x1 PUSH1 0x1 PUSH1 0xA0 SHL SUB PUSH2 0x19E7 PUSH2 0x37EA JUMP JUMPDEST AND PUSH1 0x0 MSTORE PUSH1 0xD PUSH1 0x20 MSTORE PUSH1 0x20 PUSH1 0x40 PUSH1 0x0 KECCAK256 SLOAD PUSH1 0x40 MLOAD SWAP1 DUP2 MSTORE RETURN JUMPDEST CALLVALUE PUSH2 0x351 JUMPI PUSH1 0x0 CALLDATASIZE PUSH1 0x3 NOT ADD SLT PUSH2 0x351 JUMPI PUSH1 0x20 PUSH1 0xFF PUSH1 0x1 SLOAD AND PUSH1 0x40 MLOAD SWAP1 ISZERO ISZERO DUP2 MSTORE RETURN JUMPDEST CALLVALUE PUSH2 0x351 JUMPI PUSH1 0x0 CALLDATASIZE PUSH1 0x3 NOT ADD SLT PUSH2 0x351 JUMPI PUSH1 0x1 PUSH1 0x0 MSTORE PUSH1 0xA PUSH1 0x20 MSTORE PUSH2 0x4A9 PUSH2 0xAF5 PUSH32 0xBBC70DB1B6C7AFD11E79C0FB0051300458F1A3ACB8EE9789D9B6B26C61AD9BC7 PUSH2 0x549A JUMP JUMPDEST CALLVALUE PUSH2 0x351 JUMPI PUSH1 0x0 CALLDATASIZE PUSH1 0x3 NOT ADD SLT PUSH2 0x351 JUMPI PUSH1 0x40 MLOAD PUSH1 0x0 PUSH1 0x4 SLOAD PUSH2 0x1A8C DUP2 PUSH2 0x4065 JUMP JUMPDEST DUP1 DUP5 MSTORE SWAP1 PUSH1 0x1 SWAP1 DUP2 DUP2 AND SWAP1 DUP2 ISZERO PUSH2 0x1B25 JUMPI POP PUSH1 0x1 EQ PUSH2 0x1ACA JUMPI JUMPDEST PUSH2 0x4A9 DUP5 PUSH2 0x1AB6 DUP2 DUP7 SUB DUP3 PUSH2 0x388A JUMP JUMPDEST PUSH1 0x40 MLOAD SWAP2 DUP3 SWAP2 PUSH1 0x20 DUP4 MSTORE PUSH1 0x20 DUP4 ADD SWAP1 PUSH2 0x3979 JUMP JUMPDEST PUSH1 0x4 PUSH1 0x0 SWAP1 DUP2 MSTORE SWAP3 POP PUSH32 0x8A35ACFBC15FF81A39AE7D344FD709F28E8600B4AA8C65C6B64BFE7FE36BD19B JUMPDEST DUP3 DUP5 LT PUSH2 0x1B0D JUMPI POP POP POP DUP2 ADD PUSH1 0x20 ADD PUSH2 0x1AB6 DUP3 PUSH2 0x1AA6 JUMP JUMPDEST DUP1 SLOAD PUSH1 0x20 DUP6 DUP8 ADD DUP2 ADD SWAP2 SWAP1 SWAP2 MSTORE SWAP1 SWAP4 ADD SWAP3 DUP2 ADD PUSH2 0x1AF5 JUMP JUMPDEST PUSH1 0xFF NOT AND PUSH1 0x20 DUP1 DUP8 ADD SWAP2 SWAP1 SWAP2 MSTORE SWAP3 ISZERO ISZERO PUSH1 0x5 SHL DUP6 ADD SWAP1 SWAP3 ADD SWAP3 POP PUSH2 0x1AB6 SWAP2 POP DUP4 SWAP1 POP PUSH2 0x1AA6 JUMP JUMPDEST CALLVALUE PUSH2 0x351 JUMPI PUSH1 0x0 CALLDATASIZE PUSH1 0x3 NOT ADD SLT PUSH2 0x351 JUMPI PUSH1 0x3 SLOAD PUSH1 0x1 PUSH1 0x1 PUSH1 0xA0 SHL SUB DUP2 AND CALLER SUB PUSH2 0x426 JUMPI PUSH1 0xA0 SHR PUSH1 0xFF AND ISZERO PUSH2 0x414 JUMPI PUSH2 0x15EB PUSH2 0x4135 JUMP JUMPDEST CALLVALUE PUSH2 0x351 JUMPI PUSH1 0x0 CALLDATASIZE PUSH1 0x3 NOT ADD SLT PUSH2 0x351 JUMPI PUSH1 0x3 SLOAD PUSH1 0x1 PUSH1 0x1 PUSH1 0xA0 SHL SUB DUP2 AND CALLER SUB PUSH2 0x426 JUMPI PUSH1 0xA0 SHR PUSH1 0xFF AND ISZERO PUSH2 0x414 JUMPI PUSH1 0x1 SLOAD PUSH1 0xFF DUP2 AND ISZERO PUSH2 0x1BF1 JUMPI PUSH1 0xFF NOT AND PUSH1 0x1 SSTORE PUSH32 0x5DB9EE0A495BF2E6FF9C91A7834C1BA4FDD244A5E8AA4E537BD38AEAE4B073AA PUSH1 0x20 PUSH1 0x40 MLOAD CALLER DUP2 MSTORE LOG1 STOP JUMPDEST PUSH1 0x40 MLOAD PUSH3 0x461BCD PUSH1 0xE5 SHL DUP2 MSTORE PUSH1 0x20 PUSH1 0x4 DUP3 ADD MSTORE PUSH1 0x14 PUSH1 0x24 DUP3 ADD MSTORE PUSH20 0x14185D5CD8589B194E881B9BDD081C185D5CD959 PUSH1 0x62 SHL PUSH1 0x44 DUP3 ADD MSTORE PUSH1 0x64 SWAP1 REVERT JUMPDEST CALLVALUE PUSH2 0x351 JUMPI PUSH1 0x80 CALLDATASIZE PUSH1 0x3 NOT ADD SLT PUSH2 0x351 JUMPI PUSH1 0x4 CALLDATALOAD PUSH1 0x1 PUSH1 0x1 PUSH1 0x40 SHL SUB PUSH1 0x24 CALLDATALOAD DUP2 DUP2 GT PUSH2 0x351 JUMPI PUSH2 0x1C61 SWAP1 CALLDATASIZE SWAP1 PUSH1 0x4 ADD PUSH2 0x38FD JUMP JUMPDEST SWAP1 PUSH1 0x44 CALLDATALOAD DUP2 DUP2 GT PUSH2 0x351 JUMPI PUSH2 0x1C7A SWAP1 CALLDATASIZE SWAP1 PUSH1 0x4 ADD PUSH2 0x38FD JUMP JUMPDEST SWAP1 PUSH1 0x64 CALLDATALOAD SWAP1 PUSH1 0x3 SWAP3 PUSH1 0xFF DUP5 SLOAD PUSH1 0xA0 SHR AND ISZERO PUSH2 0x414 JUMPI PUSH2 0x1C97 PUSH2 0x4135 JUMP JUMPDEST DUP6 PUSH1 0x0 MSTORE PUSH1 0x20 SWAP4 PUSH1 0x5 DUP6 MSTORE PUSH1 0x40 PUSH1 0x0 KECCAK256 SWAP6 PUSH1 0x1 DUP1 PUSH1 0xA0 SHL SUB DUP3 DUP9 ADD SLOAD AND DUP1 ISZERO PUSH2 0x1FAF JUMPI CALLER EQ ISZERO DUP1 PUSH2 0x1F7E JUMPI JUMPDEST PUSH2 0x1F5F JUMPI PUSH1 0xFF PUSH1 0x7 DUP9 ADD SLOAD PUSH1 0x18 SHR AND PUSH1 0x7 DUP2 LT ISZERO PUSH2 0x9F1 JUMPI PUSH2 0x1F5F JUMPI DUP1 MLOAD DUP1 PUSH2 0x1EA4 JUMPI JUMPDEST POP POP DUP2 MLOAD SWAP2 DUP3 PUSH2 0x1D8B JUMPI JUMPDEST POP POP POP POP SWAP2 PUSH1 0x5 SWAP2 PUSH32 0x30A54A01732713D47DAC5743EDF632F63B8CEA51255001B0F05DE7A75C21E396 SWAP4 PUSH1 0x8 DUP4 ADD SLOAD DUP2 GT DUP1 PUSH2 0x1D82 JUMPI JUMPDEST PUSH2 0x1D77 JUMPI JUMPDEST POP TIMESTAMP PUSH1 0xC DUP4 ADD SSTORE PUSH2 0x1D66 PUSH1 0x9 DUP4 ADD SLOAD SWAP2 PUSH1 0x40 MLOAD SWAP5 DUP6 SWAP5 PUSH1 0x80 DUP7 MSTORE PUSH2 0x1D58 PUSH1 0x80 DUP8 ADD PUSH1 0x4 DUP4 ADD PUSH2 0x409F JUMP JUMPDEST SWAP3 DUP7 DUP5 SUB SWAP1 DUP8 ADD MSTORE ADD PUSH2 0x409F JUMP JUMPDEST SWAP1 PUSH1 0x40 DUP4 ADD MSTORE TIMESTAMP PUSH1 0x60 DUP4 ADD MSTORE SUB SWAP1 LOG2 STOP JUMPDEST PUSH1 0x9 DUP4 ADD SSTORE DUP6 PUSH2 0x1D2E JUMP JUMPDEST POP TIMESTAMP DUP2 GT PUSH2 0x1D29 JUMP JUMPDEST PUSH1 0x5 DUP8 ADD SWAP4 DUP4 GT PUSH2 0x119B JUMPI PUSH2 0x1DAA DUP4 PUSH2 0x1DA4 DUP7 SLOAD PUSH2 0x4065 JUMP JUMPDEST DUP7 PUSH2 0x41A7 JUMP JUMPDEST DUP6 SWAP1 PUSH1 0x1F DUP5 GT PUSH1 0x1 EQ PUSH2 0x1E13 JUMPI SWAP3 PUSH1 0x5 SWAP7 SWAP5 SWAP3 DUP2 SWAP3 PUSH32 0x30A54A01732713D47DAC5743EDF632F63B8CEA51255001B0F05DE7A75C21E396 SWAP10 SWAP8 SWAP6 PUSH1 0x0 SWAP4 PUSH2 0x1E08 JUMPI JUMPDEST POP POP DUP3 PUSH1 0x1 SHL SWAP3 PUSH1 0x0 NOT SWAP2 SHL SHR NOT AND OR SWAP1 SSTORE JUMPDEST SWAP2 SWAP4 DUP2 SWAP4 DUP8 PUSH2 0x1CF2 JUMP JUMPDEST ADD MLOAD SWAP2 POP DUP11 DUP1 PUSH2 0x1DEB JUMP JUMPDEST SWAP2 SWAP1 PUSH1 0x1F NOT DUP5 AND SWAP3 DUP6 PUSH1 0x0 MSTORE DUP8 PUSH1 0x0 KECCAK256 SWAP4 PUSH1 0x0 JUMPDEST DUP2 DUP2 LT PUSH2 0x1E8D JUMPI POP SWAP3 DUP6 SWAP3 PUSH1 0x5 SWAP10 SWAP8 SWAP6 SWAP3 PUSH32 0x30A54A01732713D47DAC5743EDF632F63B8CEA51255001B0F05DE7A75C21E396 SWAP12 SWAP10 SWAP8 PUSH1 0x1 SWAP7 LT PUSH2 0x1E73 JUMPI JUMPDEST POP POP POP POP DUP2 SHL ADD SWAP1 SSTORE PUSH2 0x1DFE JUMP JUMPDEST ADD MLOAD SWAP1 PUSH1 0xF8 DUP5 PUSH1 0x0 NOT SWAP3 SHL AND SHR NOT AND SWAP1 SSTORE DUP10 DUP1 DUP1 DUP1 PUSH2 0x1E65 JUMP JUMPDEST SWAP3 SWAP5 DUP10 PUSH1 0x1 DUP2 SWAP3 DUP9 DUP7 ADD MLOAD DUP2 SSTORE ADD SWAP7 ADD SWAP4 ADD PUSH2 0x1E27 JUMP JUMPDEST PUSH1 0x4 DUP9 ADD SWAP2 DUP6 DUP3 GT PUSH2 0x119B JUMPI DUP2 SWAP1 PUSH2 0x1EC0 DUP3 PUSH2 0x1DA4 DUP7 SLOAD PUSH2 0x4065 JUMP JUMPDEST DUP9 SWAP1 PUSH1 0x1F DUP4 GT PUSH1 0x1 EQ PUSH2 0x1EFB JUMPI PUSH1 0x0 SWAP3 PUSH2 0x1EF0 JUMPI JUMPDEST POP POP DUP2 PUSH1 0x1 SHL SWAP2 PUSH1 0x0 NOT SWAP1 DUP6 SHL SHR NOT AND OR SWAP1 SSTORE JUMPDEST DUP8 DUP1 PUSH2 0x1CE7 JUMP JUMPDEST ADD MLOAD SWAP1 POP DUP11 DUP1 PUSH2 0x1ED5 JUMP JUMPDEST PUSH1 0x0 DUP6 DUP2 MSTORE DUP11 DUP2 KECCAK256 SWAP4 POP PUSH1 0x1F NOT DUP6 AND SWAP1 JUMPDEST DUP12 DUP3 DUP3 LT PUSH2 0x1F49 JUMPI POP POP SWAP1 DUP5 PUSH1 0x1 SWAP6 SWAP5 SWAP4 SWAP3 LT PUSH2 0x1F31 JUMPI JUMPDEST POP POP POP DUP2 SHL ADD SWAP1 SSTORE PUSH2 0x1EE9 JUMP JUMPDEST ADD MLOAD PUSH1 0x0 NOT DUP4 DUP8 SHL PUSH1 0xF8 AND SHR NOT AND SWAP1 SSTORE DUP11 DUP1 DUP1 PUSH2 0x1F24 JUMP JUMPDEST PUSH1 0x1 DUP6 SWAP7 DUP3 SWAP4 SWAP7 DUP7 ADD MLOAD DUP2 SSTORE ADD SWAP6 ADD SWAP4 ADD PUSH2 0x1F0C JUMP JUMPDEST PUSH1 0x40 MLOAD PUSH4 0xBE661171 PUSH1 0xE0 SHL DUP2 MSTORE PUSH1 0x4 DUP2 ADD DUP10 SWAP1 MSTORE CALLER PUSH1 0x24 DUP3 ADD MSTORE PUSH1 0x44 SWAP1 REVERT JUMPDEST POP PUSH1 0x0 DUP1 MLOAD PUSH1 0x20 PUSH2 0x581F DUP4 CODECOPY DUP2 MLOAD SWAP2 MSTORE PUSH1 0x0 MSTORE PUSH1 0x0 DUP7 MSTORE PUSH1 0x40 PUSH1 0x0 KECCAK256 CALLER PUSH1 0x0 MSTORE DUP7 MSTORE PUSH1 0xFF PUSH1 0x40 PUSH1 0x0 KECCAK256 SLOAD AND ISZERO PUSH2 0x1CC3 JUMP JUMPDEST PUSH1 0x40 MLOAD PUSH4 0xE2ACEE5B PUSH1 0xE0 SHL DUP2 MSTORE PUSH1 0x4 DUP2 ADD DUP11 SWAP1 MSTORE PUSH1 0x24 SWAP1 REVERT JUMPDEST CALLVALUE PUSH2 0x351 JUMPI PUSH1 0x20 CALLDATASIZE PUSH1 0x3 NOT ADD SLT PUSH2 0x351 JUMPI PUSH1 0x4 CALLDATALOAD PUSH2 0x1FE4 PUSH2 0x3A48 JUMP JUMPDEST PUSH1 0xFF PUSH1 0x3 SLOAD PUSH1 0xA0 SHR AND ISZERO PUSH2 0x414 JUMPI PUSH2 0x1FFA PUSH2 0x4135 JUMP JUMPDEST PUSH1 0x0 DUP2 DUP2 MSTORE PUSH1 0x5 PUSH1 0x20 MSTORE PUSH1 0x40 SWAP1 KECCAK256 PUSH1 0x3 DUP2 ADD SLOAD PUSH1 0x1 PUSH1 0x1 PUSH1 0xA0 SHL SUB AND ISZERO PUSH2 0x196B JUMPI PUSH1 0x14 SWAP1 PUSH2 0x2027 DUP4 PUSH2 0x46D4 JUMP JUMPDEST ADD PUSH2 0x100 PUSH2 0xFF00 NOT DUP3 SLOAD AND OR SWAP1 SSTORE PUSH1 0x40 MLOAD SWAP1 TIMESTAMP DUP3 MSTORE PUSH32 0x24168B3B8DA257B2978FC0F2BD47398C317DCFFE6C7AAC125C8BCC2F4EF06161 PUSH1 0x20 CALLER SWAP4 LOG3 STOP JUMPDEST CALLVALUE PUSH2 0x351 JUMPI PUSH1 0x20 CALLDATASIZE PUSH1 0x3 NOT ADD SLT PUSH2 0x351 JUMPI PUSH1 0x20 PUSH2 0xD1B PUSH1 0x4 CALLDATALOAD PUSH2 0x55C5 JUMP JUMPDEST CALLVALUE PUSH2 0x351 JUMPI PUSH1 0x20 CALLDATASIZE PUSH1 0x3 NOT ADD SLT PUSH2 0x351 JUMPI PUSH1 0x0 PUSH2 0x300 PUSH1 0x40 MLOAD PUSH2 0x20A4 DUP2 PUSH2 0x3838 JUMP JUMPDEST DUP3 DUP2 MSTORE DUP3 PUSH1 0x20 DUP3 ADD MSTORE DUP3 PUSH1 0x40 DUP3 ADD MSTORE DUP3 PUSH1 0x60 DUP3 ADD MSTORE PUSH1 0x60 PUSH1 0x80 DUP3 ADD MSTORE PUSH1 0x60 PUSH1 0xA0 DUP3 ADD MSTORE PUSH1 0x60 PUSH1 0xC0 DUP3 ADD MSTORE DUP3 PUSH1 0xE0 DUP3 ADD MSTORE DUP3 PUSH2 0x100 DUP3 ADD MSTORE DUP3 PUSH2 0x120 DUP3 ADD MSTORE DUP3 PUSH2 0x140 DUP3 ADD MSTORE DUP3 PUSH2 0x160 DUP3 ADD MSTORE DUP3 PUSH2 0x180 DUP3 ADD MSTORE DUP3 PUSH2 0x1A0 DUP3 ADD MSTORE DUP3 PUSH2 0x1C0 DUP3 ADD MSTORE DUP3 PUSH2 0x1E0 DUP3 ADD MSTORE PUSH1 0x60 PUSH2 0x200 DUP3 ADD MSTORE DUP3 PUSH2 0x220 DUP3 ADD MSTORE DUP3 PUSH2 0x240 DUP3 ADD MSTORE DUP3 PUSH2 0x260 DUP3 ADD MSTORE DUP3 PUSH2 0x280 DUP3 ADD MSTORE DUP3 PUSH2 0x2A0 DUP3 ADD MSTORE DUP3 PUSH2 0x2C0 DUP3 ADD MSTORE DUP3 PUSH2 0x2E0 DUP3 ADD MSTORE ADD MSTORE PUSH1 0x4 CALLDATALOAD PUSH1 0x0 MSTORE PUSH1 0x5 PUSH1 0x20 MSTORE PUSH1 0x40 PUSH1 0x0 KECCAK256 PUSH1 0x40 MLOAD SWAP1 PUSH2 0x2164 DUP3 PUSH2 0x3838 JUMP JUMPDEST DUP1 SLOAD DUP3 MSTORE PUSH1 0x1 DUP2 ADD SLOAD PUSH1 0x20 DUP4 ADD MSTORE PUSH1 0x2 DUP2 ADD SLOAD PUSH1 0x40 DUP1 DUP5 ADD SWAP2 SWAP1 SWAP2 MSTORE PUSH1 0x3 DUP3 ADD SLOAD PUSH1 0x1 PUSH1 0x1 PUSH1 0xA0 SHL SUB AND PUSH1 0x60 DUP5 ADD MSTORE MLOAD PUSH2 0x21A5 DUP2 PUSH2 0x9BF DUP2 PUSH1 0x4 DUP7 ADD PUSH2 0x409F JUMP JUMPDEST PUSH1 0x80 DUP4 ADD MSTORE PUSH1 0x40 MLOAD PUSH2 0x21BE DUP2 PUSH2 0x9BF DUP2 PUSH1 0x5 DUP7 ADD PUSH2 0x409F JUMP JUMPDEST PUSH1 0xA0 DUP4 ADD MSTORE PUSH1 0x40 MLOAD PUSH2 0x21D7 DUP2 PUSH2 0x9BF DUP2 PUSH1 0x6 DUP7 ADD PUSH2 0x409F JUMP JUMPDEST PUSH1 0xC0 DUP4 ADD MSTORE PUSH1 0x7 DUP2 ADD SLOAD PUSH1 0x5 PUSH1 0xFF DUP3 AND LT ISZERO PUSH2 0x9F1 JUMPI PUSH1 0xFF DUP2 AND PUSH1 0xE0 DUP5 ADD MSTORE PUSH1 0xFF DUP2 PUSH1 0x8 SHR AND PUSH2 0x2206 DUP2 PUSH2 0x39AB JUMP JUMPDEST PUSH2 0x100 DUP5 ADD MSTORE PUSH1 0xFF DUP2 PUSH1 0x10 SHR AND PUSH2 0x221C DUP2 PUSH2 0x39AB JUMP JUMPDEST PUSH2 0x120 DUP5 ADD MSTORE PUSH1 0x7 PUSH1 0xFF DUP3 PUSH1 0x18 SHR AND LT ISZERO PUSH2 0x9F1 JUMPI PUSH1 0xFF SWAP2 DUP3 PUSH1 0x14 SWAP3 PUSH1 0x18 SHR AND PUSH2 0x140 DUP6 ADD MSTORE PUSH1 0x8 DUP2 ADD SLOAD PUSH2 0x160 DUP6 ADD MSTORE PUSH1 0x9 DUP2 ADD SLOAD PUSH2 0x180 DUP6 ADD MSTORE PUSH1 0xA DUP2 ADD SLOAD PUSH2 0x1A0 DUP6 ADD MSTORE PUSH1 0xB DUP2 ADD SLOAD PUSH2 0x1C0 DUP6 ADD MSTORE PUSH1 0xC DUP2 ADD SLOAD PUSH2 0x1E0 DUP6 ADD MSTORE PUSH1 0x40 MLOAD PUSH2 0x228D DUP2 PUSH2 0x9BF DUP2 PUSH1 0xD DUP7 ADD PUSH2 0x409F JUMP JUMPDEST PUSH2 0x200 DUP6 ADD MSTORE PUSH1 0x1 DUP1 PUSH1 0xA0 SHL SUB PUSH1 0xE DUP3 ADD SLOAD AND PUSH2 0x220 DUP6 ADD MSTORE PUSH1 0xF DUP2 ADD SLOAD PUSH2 0x240 DUP6 ADD MSTORE PUSH1 0x10 DUP2 ADD SLOAD PUSH2 0x260 DUP6 ADD MSTORE PUSH1 0x11 DUP2 ADD SLOAD PUSH2 0x280 DUP6 ADD MSTORE PUSH1 0x12 DUP2 ADD SLOAD PUSH2 0x2A0 DUP6 ADD MSTORE PUSH1 0x13 DUP2 ADD SLOAD PUSH2 0x2C0 DUP6 ADD MSTORE ADD SLOAD DUP2 DUP2 AND ISZERO ISZERO PUSH2 0x2E0 DUP5 ADD MSTORE PUSH1 0x8 SHR AND ISZERO ISZERO PUSH2 0x300 DUP3 ADD MSTORE PUSH1 0x40 MLOAD DUP1 SWAP2 PUSH1 0x20 DUP3 MSTORE DUP1 MLOAD PUSH1 0x20 DUP4 ADD MSTORE PUSH1 0x20 DUP2 ADD MLOAD PUSH1 0x40 DUP4 ADD MSTORE PUSH1 0x40 DUP2 ADD MLOAD PUSH1 0x60 DUP4 ADD MSTORE PUSH1 0x1 DUP1 PUSH1 0xA0 SHL SUB PUSH1 0x60 DUP3 ADD MLOAD AND PUSH1 0x80 DUP4 ADD MSTORE PUSH2 0x300 PUSH2 0x2424 PUSH2 0x237F PUSH2 0x2369 PUSH2 0x2353 PUSH1 0x80 DUP7 ADD MLOAD PUSH2 0x320 PUSH1 0xA0 DUP10 ADD MSTORE PUSH2 0x340 DUP9 ADD SWAP1 PUSH2 0x3979 JUMP JUMPDEST PUSH1 0xA0 DUP7 ADD MLOAD DUP8 DUP3 SUB PUSH1 0x1F NOT ADD PUSH1 0xC0 DUP10 ADD MSTORE PUSH2 0x3979 JUMP JUMPDEST PUSH1 0xC0 DUP6 ADD MLOAD DUP7 DUP3 SUB PUSH1 0x1F NOT ADD PUSH1 0xE0 DUP9 ADD MSTORE PUSH2 0x3979 JUMP JUMPDEST PUSH2 0x2392 PUSH1 0xE0 DUP6 ADD MLOAD PUSH2 0x100 DUP8 ADD SWAP1 PUSH2 0x399E JUMP JUMPDEST PUSH2 0x100 DUP5 ADD MLOAD PUSH2 0x23A1 DUP2 PUSH2 0x39AB JUMP JUMPDEST PUSH2 0x120 DUP7 ADD MSTORE PUSH2 0x120 DUP5 ADD MLOAD PUSH2 0x23B6 DUP2 PUSH2 0x39AB JUMP JUMPDEST PUSH2 0x140 DUP7 ADD MSTORE PUSH2 0x23D0 PUSH2 0x140 DUP6 ADD MLOAD PUSH2 0x160 DUP8 ADD SWAP1 PUSH2 0x39B5 JUMP JUMPDEST PUSH2 0x160 DUP5 ADD MLOAD PUSH2 0x180 DUP7 ADD MSTORE PUSH2 0x180 DUP5 ADD MLOAD PUSH2 0x1A0 DUP7 ADD MSTORE PUSH2 0x1A0 DUP5 ADD MLOAD PUSH2 0x1C0 DUP7 ADD MSTORE PUSH2 0x1C0 DUP5 ADD MLOAD PUSH2 0x1E0 DUP7 ADD MSTORE PUSH2 0x1E0 DUP5 ADD MLOAD PUSH2 0x200 DUP7 ADD MSTORE PUSH2 0x200 DUP5 ADD MLOAD PUSH1 0x1F NOT DUP7 DUP4 SUB ADD PUSH2 0x220 DUP8 ADD MSTORE PUSH2 0x3979 JUMP JUMPDEST SWAP2 PUSH1 0x1 DUP1 PUSH1 0xA0 SHL SUB PUSH2 0x220 DUP3 ADD MLOAD AND PUSH2 0x240 DUP6 ADD MSTORE PUSH2 0x240 DUP2 ADD MLOAD PUSH2 0x260 DUP6 ADD MSTORE PUSH2 0x260 DUP2 ADD MLOAD PUSH2 0x280 DUP6 ADD MSTORE PUSH2 0x280 DUP2 ADD MLOAD PUSH2 0x2A0 DUP6 ADD MSTORE PUSH2 0x2A0 DUP2 ADD MLOAD PUSH2 0x2C0 DUP6 ADD MSTORE PUSH2 0x2C0 DUP2 ADD MLOAD PUSH2 0x2E0 DUP6 ADD MSTORE PUSH2 0x2E0 DUP2 ADD MLOAD ISZERO ISZERO DUP3 DUP6 ADD MSTORE ADD MLOAD ISZERO ISZERO PUSH2 0x320 DUP4 ADD MSTORE SUB SWAP1 RETURN JUMPDEST CALLVALUE PUSH2 0x351 JUMPI PUSH1 0x20 CALLDATASIZE PUSH1 0x3 NOT ADD SLT PUSH2 0x351 JUMPI PUSH1 0x4 CALLDATALOAD PUSH1 0x0 MSTORE PUSH1 0x5 PUSH1 0x20 MSTORE PUSH1 0x20 PUSH1 0xA PUSH1 0x40 PUSH1 0x0 KECCAK256 ADD SLOAD PUSH1 0x40 MLOAD SWAP1 DUP2 MSTORE RETURN JUMPDEST CALLVALUE PUSH2 0x351 JUMPI PUSH1 0x0 CALLDATASIZE PUSH1 0x3 NOT ADD SLT PUSH2 0x351 JUMPI PUSH2 0x24D7 PUSH2 0x3C4D JUMP JUMPDEST PUSH1 0xFF PUSH1 0x3 SLOAD PUSH1 0xA0 SHR AND ISZERO PUSH2 0x414 JUMPI PUSH1 0x1 SLOAD PUSH1 0xFF DUP2 AND ISZERO PUSH2 0x1BF1 JUMPI PUSH1 0xFF NOT AND PUSH1 0x1 SSTORE PUSH32 0x5DB9EE0A495BF2E6FF9C91A7834C1BA4FDD244A5E8AA4E537BD38AEAE4B073AA PUSH1 0x20 PUSH1 0x40 MLOAD CALLER DUP2 MSTORE LOG1 STOP JUMPDEST CALLVALUE PUSH2 0x351 JUMPI PUSH1 0x80 CALLDATASIZE PUSH1 0x3 NOT ADD SLT PUSH2 0x351 JUMPI PUSH1 0x3 PUSH1 0x24 CALLDATALOAD LT ISZERO PUSH2 0x351 JUMPI PUSH1 0x64 CALLDATALOAD PUSH1 0x1 PUSH1 0x1 PUSH1 0x40 SHL SUB DUP2 GT PUSH2 0x351 JUMPI PUSH2 0x255F SWAP1 CALLDATASIZE SWAP1 PUSH1 0x4 ADD PUSH2 0x38FD JUMP JUMPDEST PUSH1 0xFF PUSH1 0x3 SLOAD PUSH1 0xA0 SHR AND ISZERO PUSH2 0x414 JUMPI PUSH2 0x2575 PUSH2 0x4135 JUMP JUMPDEST PUSH2 0x257D PUSH2 0x4214 JUMP JUMPDEST PUSH3 0x278D00 PUSH1 0x44 CALLDATALOAD GT PUSH2 0x2804 JUMPI PUSH1 0x4 CALLDATALOAD PUSH1 0x0 MSTORE PUSH1 0x5 PUSH1 0x20 MSTORE PUSH1 0x40 PUSH1 0x0 KECCAK256 SWAP1 PUSH1 0x1 DUP1 PUSH1 0xA0 SHL SUB PUSH1 0x3 DUP4 ADD SLOAD AND ISZERO PUSH2 0x1296 JUMPI PUSH1 0x8 DUP3 ADD SLOAD TIMESTAMP LT DUP1 ISZERO SWAP1 DUP2 PUSH2 0x27F6 JUMPI JUMPDEST PUSH2 0x126F JUMPI PUSH1 0xFF PUSH1 0x7 DUP5 ADD SLOAD PUSH1 0x18 SHR AND PUSH1 0x7 DUP2 LT ISZERO DUP1 PUSH2 0x9F1 JUMPI PUSH1 0x1 DUP3 EQ ISZERO DUP1 PUSH2 0x27EA JUMPI JUMPDEST PUSH2 0x124A JUMPI PUSH2 0x9F1 JUMPI ISZERO SWAP1 DUP2 PUSH2 0x27E2 JUMPI JUMPDEST POP PUSH2 0x27D2 JUMPI JUMPDEST PUSH1 0x4 CALLDATALOAD PUSH1 0x0 MSTORE PUSH1 0x6 PUSH1 0x20 MSTORE PUSH1 0x40 PUSH1 0x0 KECCAK256 CALLER PUSH1 0x0 MSTORE PUSH1 0x20 MSTORE PUSH1 0x1 DUP1 PUSH1 0xA0 SHL SUB PUSH1 0x40 PUSH1 0x0 KECCAK256 SLOAD AND PUSH2 0x1212 JUMPI PUSH1 0x2 DUP3 ADD SLOAD SWAP2 PUSH1 0x3 PUSH2 0x263E PUSH1 0xFF PUSH1 0x7 DUP5 ADD SLOAD PUSH1 0x10 SHR AND DUP1 SWAP6 CALLER SWAP1 PUSH2 0x4DB6 JUMP JUMPDEST SWAP4 PUSH2 0x2648 DUP2 PUSH2 0x39AB JUMP JUMPDEST EQ DUP1 PUSH2 0x27C7 JUMPI JUMPDEST PUSH2 0x27A7 JUMPI JUMPDEST DUP3 ISZERO PUSH2 0x11B1 JUMPI PUSH1 0x4 CALLDATALOAD PUSH1 0x0 MSTORE PUSH1 0x6 PUSH1 0x20 MSTORE PUSH1 0x40 PUSH1 0x0 KECCAK256 CALLER PUSH1 0x0 MSTORE PUSH1 0x20 MSTORE PUSH1 0x40 PUSH1 0x0 KECCAK256 DUP1 SLOAD PUSH1 0xFF PUSH1 0xA0 SHL PUSH1 0x24 CALLDATALOAD PUSH1 0xA0 SHL AND SWAP1 PUSH1 0xFF PUSH1 0xA0 SHL NOT CALLER AND SWAP1 PUSH11 0xFFFFFFFFFFFFFFFFFFFFFF PUSH1 0xA8 SHL AND OR OR DUP2 SSTORE DUP4 PUSH1 0x1 DUP3 ADD SSTORE TIMESTAMP PUSH1 0x2 DUP3 ADD SSTORE DUP3 MLOAD PUSH1 0x1 PUSH1 0x1 PUSH1 0x40 SHL SUB DUP2 GT PUSH2 0x119B JUMPI PUSH2 0x26CF DUP2 PUSH2 0xFFB PUSH1 0x3 DUP6 ADD SLOAD PUSH2 0x4065 JUMP JUMPDEST PUSH1 0x20 PUSH1 0x1F DUP3 GT PUSH1 0x1 EQ PUSH2 0x2732 JUMPI SWAP2 DUP2 PUSH2 0x10A9 SWAP6 SWAP5 SWAP3 PUSH1 0x13 SWAP5 PUSH1 0x0 SWAP2 PUSH2 0x2727 JUMPI JUMPDEST POP DUP2 PUSH1 0x1 SHL SWAP2 PUSH1 0x0 NOT SWAP1 PUSH1 0x3 SHL SHR NOT AND OR PUSH1 0x3 DUP3 ADD SSTORE JUMPDEST PUSH1 0x4 PUSH1 0x44 CALLDATALOAD SWAP2 ADD SSTORE PUSH1 0x4 CALLDATALOAD PUSH1 0x0 MSTORE PUSH1 0x7 PUSH1 0x20 MSTORE PUSH2 0x1058 CALLER PUSH1 0x40 PUSH1 0x0 KECCAK256 PUSH2 0x4318 JUMP JUMPDEST SWAP1 POP DUP6 ADD MLOAD DUP9 PUSH2 0x26EF JUMP JUMPDEST PUSH1 0x3 DUP4 ADD PUSH1 0x0 MSTORE PUSH1 0x20 PUSH1 0x0 KECCAK256 SWAP1 PUSH1 0x0 JUMPDEST PUSH1 0x1F NOT DUP5 AND DUP2 LT PUSH2 0x278F JUMPI POP DUP3 PUSH1 0x13 SWAP5 SWAP3 PUSH1 0x1 SWAP3 PUSH2 0x10A9 SWAP9 SWAP8 SWAP6 PUSH1 0x1F NOT DUP2 AND LT PUSH2 0x2776 JUMPI JUMPDEST POP POP DUP2 SHL ADD PUSH1 0x3 DUP3 ADD SSTORE PUSH2 0x2706 JUMP JUMPDEST DUP8 ADD MLOAD PUSH1 0x0 NOT PUSH1 0xF8 DUP5 PUSH1 0x3 SHL AND SHR NOT AND SWAP1 SSTORE DUP9 DUP1 PUSH2 0x2767 JUMP JUMPDEST SWAP1 SWAP2 PUSH1 0x20 PUSH1 0x1 DUP2 SWAP3 DUP6 DUP11 ADD MLOAD DUP2 SSTORE ADD SWAP4 ADD SWAP2 ADD PUSH2 0x2742 JUMP JUMPDEST SWAP2 PUSH2 0x27C0 PUSH2 0x2710 SWAP2 PUSH2 0x27BA PUSH1 0x44 CALLDATALOAD PUSH2 0x516B JUMP JUMPDEST SWAP1 PUSH2 0x3F10 JUMP JUMPDEST DIV SWAP2 PUSH2 0x2654 JUMP JUMPDEST POP PUSH1 0x44 CALLDATALOAD ISZERO ISZERO PUSH2 0x264F JUMP JUMPDEST PUSH2 0x27DD PUSH1 0x4 CALLDATALOAD PUSH2 0x4941 JUMP JUMPDEST PUSH2 0x25F6 JUMP JUMPDEST SWAP1 POP DUP4 PUSH2 0x25F0 JUMP JUMPDEST POP POP PUSH1 0x0 DUP2 ISZERO ISZERO PUSH2 0x25E0 JUMP JUMPDEST POP PUSH1 0x9 DUP4 ADD SLOAD TIMESTAMP LT ISZERO PUSH2 0x25BC JUMP JUMPDEST PUSH1 0x40 MLOAD PUSH4 0x1D8C48AD PUSH1 0xE1 SHL DUP2 MSTORE PUSH1 0x44 CALLDATALOAD PUSH1 0x4 DUP3 ADD MSTORE PUSH1 0x24 SWAP1 REVERT JUMPDEST CALLVALUE PUSH2 0x351 JUMPI PUSH1 0x0 CALLDATASIZE PUSH1 0x3 NOT ADD SLT PUSH2 0x351 JUMPI PUSH1 0x20 PUSH1 0xFF PUSH1 0x3 SLOAD PUSH1 0xA0 SHR AND PUSH1 0x40 MLOAD SWAP1 ISZERO ISZERO DUP2 MSTORE RETURN JUMPDEST CALLVALUE PUSH2 0x351 JUMPI PUSH1 0x20 CALLDATASIZE PUSH1 0x3 NOT ADD SLT PUSH2 0x351 JUMPI PUSH1 0x4 CALLDATALOAD PUSH1 0xFF PUSH1 0x3 SLOAD PUSH1 0xA0 SHR AND ISZERO PUSH2 0x414 JUMPI PUSH2 0x286E PUSH2 0x4135 JUMP JUMPDEST PUSH1 0x0 DUP2 DUP2 MSTORE PUSH1 0x5 PUSH1 0x20 MSTORE PUSH1 0x40 SWAP1 KECCAK256 PUSH1 0x3 DUP2 ADD SLOAD PUSH1 0x1 PUSH1 0x1 PUSH1 0xA0 SHL SUB AND DUP1 ISZERO PUSH2 0x151B JUMPI CALLER EQ ISZERO DUP1 PUSH2 0x28FC JUMPI JUMPDEST PUSH2 0x28DD JUMPI PUSH1 0xFF PUSH1 0x7 DUP3 ADD SLOAD PUSH1 0x18 SHR AND PUSH1 0x7 DUP2 LT ISZERO PUSH2 0x9F1 JUMPI PUSH1 0x3 EQ PUSH2 0x28C4 JUMPI PUSH1 0x14 SWAP1 PUSH2 0x2027 DUP4 PUSH2 0x46D4 JUMP JUMPDEST PUSH1 0x40 MLOAD PUSH4 0x134C7043 PUSH1 0xE1 SHL DUP2 MSTORE PUSH1 0x4 DUP2 ADD DUP4 SWAP1 MSTORE PUSH1 0x24 SWAP1 REVERT JUMPDEST PUSH1 0x40 MLOAD PUSH4 0xBE661171 PUSH1 0xE0 SHL DUP2 MSTORE PUSH1 0x4 DUP2 ADD DUP4 SWAP1 MSTORE CALLER PUSH1 0x24 DUP3 ADD MSTORE PUSH1 0x44 SWAP1 REVERT JUMPDEST POP CALLER PUSH1 0x0 SWAP1 DUP2 MSTORE PUSH32 0x6D33EEC2C9ABD62A2D387B6CFD66073FA7602819B8C7C8B5B52A059A88D074C5 PUSH1 0x20 MSTORE PUSH1 0x40 SWAP1 KECCAK256 SLOAD PUSH1 0xFF AND ISZERO PUSH2 0x2899 JUMP JUMPDEST CALLVALUE PUSH2 0x351 JUMPI PUSH1 0x40 CALLDATASIZE PUSH1 0x3 NOT ADD SLT PUSH2 0x351 JUMPI PUSH2 0x294E PUSH2 0x37D4 JUMP JUMPDEST CALLER PUSH1 0x1 PUSH1 0x1 PUSH1 0xA0 SHL SUB DUP3 AND SUB PUSH2 0x296A JUMPI PUSH2 0x4EC SWAP1 PUSH1 0x4 CALLDATALOAD PUSH2 0x3E9C JUMP JUMPDEST PUSH1 0x40 MLOAD PUSH3 0x461BCD PUSH1 0xE5 SHL DUP2 MSTORE PUSH1 0x20 PUSH1 0x4 DUP3 ADD MSTORE PUSH1 0x2F PUSH1 0x24 DUP3 ADD MSTORE PUSH32 0x416363657373436F6E74726F6C3A2063616E206F6E6C792072656E6F756E6365 PUSH1 0x44 DUP3 ADD MSTORE PUSH15 0x103937B632B9903337B91039B2B633 PUSH1 0x89 SHL PUSH1 0x64 DUP3 ADD MSTORE PUSH1 0x84 SWAP1 REVERT JUMPDEST CALLVALUE PUSH2 0x351 JUMPI PUSH1 0x20 CALLDATASIZE PUSH1 0x3 NOT ADD SLT PUSH2 0x351 JUMPI PUSH1 0x20 PUSH2 0xD43 PUSH1 0x4 CALLDATALOAD PUSH2 0x5625 JUMP JUMPDEST CALLVALUE PUSH2 0x351 JUMPI PUSH1 0x20 DUP1 PUSH1 0x3 NOT CALLDATASIZE ADD SLT PUSH2 0x351 JUMPI PUSH1 0x1 PUSH1 0x1 PUSH1 0xA0 SHL SUB SWAP1 DUP2 PUSH2 0x2A09 PUSH2 0x37EA JUMP JUMPDEST AND SWAP1 DUP2 PUSH1 0x0 MSTORE PUSH1 0xC DUP2 MSTORE PUSH2 0x2A20 PUSH1 0x40 PUSH1 0x0 KECCAK256 PUSH2 0x549A JUMP JUMPDEST SWAP1 DUP2 MLOAD SWAP2 PUSH2 0x2A2D DUP4 PUSH2 0x546F JUMP JUMPDEST SWAP3 PUSH2 0x2A3B PUSH1 0x40 MLOAD SWAP5 DUP6 PUSH2 0x388A JUMP JUMPDEST DUP1 DUP5 MSTORE PUSH2 0x2A4A PUSH1 0x1F NOT SWAP2 PUSH2 0x546F JUMP JUMPDEST ADD DUP3 PUSH1 0x0 JUMPDEST DUP3 DUP2 LT PUSH2 0x2B56 JUMPI POP POP POP PUSH1 0x0 JUMPDEST DUP2 MLOAD DUP2 LT ISZERO PUSH2 0x2AE7 JUMPI PUSH2 0x2AE2 SWAP1 DUP6 PUSH1 0x0 MSTORE PUSH1 0xB DUP5 MSTORE PUSH1 0x40 PUSH1 0x0 KECCAK256 DUP8 PUSH2 0x2A81 DUP4 DUP7 PUSH2 0x5486 JUMP JUMPDEST MLOAD AND PUSH1 0x0 MSTORE DUP5 MSTORE PUSH1 0x40 PUSH1 0x0 KECCAK256 PUSH1 0xFF PUSH1 0x4 PUSH1 0x40 MLOAD SWAP3 PUSH2 0x2A9E DUP5 PUSH2 0x381D JUMP JUMPDEST DUP11 DUP2 SLOAD AND DUP5 MSTORE DUP11 PUSH1 0x1 DUP3 ADD SLOAD AND DUP9 DUP6 ADD MSTORE PUSH1 0x2 DUP2 ADD SLOAD PUSH1 0x40 DUP6 ADD MSTORE PUSH1 0x3 DUP2 ADD SLOAD PUSH1 0x60 DUP6 ADD MSTORE ADD SLOAD AND ISZERO ISZERO PUSH1 0x80 DUP3 ADD MSTORE PUSH2 0x2AD7 DUP3 DUP8 PUSH2 0x5486 JUMP JUMPDEST MSTORE PUSH2 0x9E6 DUP2 DUP7 PUSH2 0x5486 JUMP JUMPDEST PUSH2 0x2A5C JUMP JUMPDEST POP POP SWAP2 POP PUSH1 0x40 MLOAD SWAP2 DUP1 DUP4 ADD DUP2 DUP5 MSTORE DUP3 MLOAD DUP1 SWAP2 MSTORE DUP2 PUSH1 0x40 DUP6 ADD SWAP4 ADD SWAP2 PUSH1 0x0 JUMPDEST DUP3 DUP2 LT PUSH2 0x2B12 JUMPI DUP6 DUP6 SUB DUP7 RETURN JUMPDEST DUP4 MLOAD DUP1 MLOAD DUP9 AND DUP7 MSTORE DUP1 DUP4 ADD MLOAD DUP9 AND DUP7 DUP5 ADD MSTORE PUSH1 0x40 DUP1 DUP3 ADD MLOAD SWAP1 DUP8 ADD MSTORE PUSH1 0x60 DUP1 DUP3 ADD MLOAD SWAP1 DUP8 ADD MSTORE PUSH1 0x80 SWAP1 DUP2 ADD MLOAD ISZERO ISZERO SWAP1 DUP7 ADD MSTORE PUSH1 0xA0 SWAP1 SWAP5 ADD SWAP4 SWAP3 DUP2 ADD SWAP3 PUSH1 0x1 ADD PUSH2 0x2B05 JUMP JUMPDEST PUSH1 0x40 MLOAD PUSH2 0x2B62 DUP2 PUSH2 0x381D JUMP JUMPDEST PUSH1 0x0 DUP2 MSTORE PUSH1 0x0 DUP4 DUP3 ADD MSTORE PUSH1 0x0 PUSH1 0x40 DUP3 ADD MSTORE PUSH1 0x0 PUSH1 0x60 DUP3 ADD MSTORE PUSH1 0x0 PUSH1 0x80 DUP3 ADD MSTORE DUP3 DUP3 DUP9 ADD ADD MSTORE ADD DUP4 SWAP1 PUSH2 0x2A4F JUMP JUMPDEST CALLVALUE PUSH2 0x351 JUMPI PUSH1 0x20 CALLDATASIZE PUSH1 0x3 NOT ADD SLT PUSH2 0x351 JUMPI PUSH1 0x4 CALLDATALOAD PUSH1 0x0 MSTORE PUSH1 0x9 PUSH1 0x20 MSTORE PUSH2 0x4A9 PUSH2 0xAF5 PUSH1 0x40 PUSH1 0x0 KECCAK256 PUSH2 0x549A JUMP JUMPDEST CALLVALUE PUSH2 0x351 JUMPI PUSH1 0x40 CALLDATASIZE PUSH1 0x3 NOT ADD SLT PUSH2 0x351 JUMPI PUSH1 0x4 CALLDATALOAD PUSH2 0x2BD7 PUSH2 0x37D4 JUMP JUMPDEST DUP2 PUSH1 0x0 MSTORE PUSH1 0x0 PUSH1 0x20 MSTORE PUSH2 0x2BF1 PUSH1 0x1 PUSH1 0x40 PUSH1 0x0 KECCAK256 ADD SLOAD PUSH2 0x3D92 JUMP JUMPDEST DUP2 PUSH1 0x0 MSTORE PUSH1 0x0 PUSH1 0x20 MSTORE PUSH1 0x40 PUSH1 0x0 KECCAK256 SWAP1 PUSH1 0x1 DUP1 PUSH1 0xA0 SHL SUB AND SWAP1 DUP2 PUSH1 0x0 MSTORE PUSH1 0x20 MSTORE PUSH1 0xFF PUSH1 0x40 PUSH1 0x0 KECCAK256 SLOAD AND ISZERO PUSH2 0x2C20 JUMPI STOP JUMPDEST DUP2 PUSH1 0x0 MSTORE PUSH1 0x0 PUSH1 0x20 MSTORE PUSH1 0x40 PUSH1 0x0 KECCAK256 DUP2 PUSH1 0x0 MSTORE PUSH1 0x20 MSTORE PUSH1 0x40 PUSH1 0x0 KECCAK256 PUSH1 0x1 PUSH1 0xFF NOT DUP3 SLOAD AND OR SWAP1 SSTORE CALLER SWAP2 PUSH1 0x0 DUP1 MLOAD PUSH1 0x20 PUSH2 0x57DF DUP4 CODECOPY DUP2 MLOAD SWAP2 MSTORE PUSH1 0x0 DUP1 LOG4 STOP JUMPDEST CALLVALUE PUSH2 0x351 JUMPI PUSH1 0x40 CALLDATASIZE PUSH1 0x3 NOT ADD SLT PUSH2 0x351 JUMPI PUSH1 0x24 CALLDATALOAD PUSH1 0x7 DUP2 LT ISZERO PUSH2 0x351 JUMPI PUSH2 0x2C81 PUSH2 0x3A48 JUMP JUMPDEST PUSH1 0xFF PUSH1 0x3 SLOAD PUSH1 0xA0 SHR AND ISZERO PUSH2 0x414 JUMPI PUSH2 0x4EC SWAP1 PUSH2 0x2C9B PUSH2 0x4135 JUMP JUMPDEST PUSH1 0x4 CALLDATALOAD PUSH2 0x49DB JUMP JUMPDEST CALLVALUE PUSH2 0x351 JUMPI PUSH1 0x20 CALLDATASIZE PUSH1 0x3 NOT ADD SLT PUSH2 0x351 JUMPI PUSH1 0x4 CALLDATALOAD PUSH1 0x0 MSTORE PUSH1 0x0 PUSH1 0x20 MSTORE PUSH1 0x20 PUSH1 0x1 PUSH1 0x40 PUSH1 0x0 KECCAK256 ADD SLOAD PUSH1 0x40 MLOAD SWAP1 DUP2 MSTORE RETURN JUMPDEST CALLVALUE PUSH2 0x351 JUMPI PUSH1 0x0 CALLDATASIZE PUSH1 0x3 NOT ADD SLT PUSH2 0x351 JUMPI PUSH1 0x20 PUSH1 0x40 MLOAD PUSH2 0xE10 DUP2 MSTORE RETURN JUMPDEST CALLVALUE PUSH2 0x351 JUMPI PUSH1 0x40 CALLDATASIZE PUSH1 0x3 NOT ADD SLT PUSH2 0x351 JUMPI PUSH2 0x2D08 PUSH2 0x37D4 JUMP JUMPDEST PUSH1 0xFF PUSH1 0x3 SLOAD PUSH1 0xA0 SHR AND ISZERO PUSH2 0x414 JUMPI PUSH2 0x4EC SWAP1 PUSH2 0x2D22 PUSH2 0x4135 JUMP JUMPDEST PUSH1 0x4 CALLDATALOAD PUSH2 0x456C JUMP JUMPDEST CALLVALUE PUSH2 0x351 JUMPI PUSH1 0xE0 CALLDATASIZE PUSH1 0x3 NOT ADD SLT PUSH2 0x351 JUMPI PUSH1 0x4 CALLDATALOAD PUSH1 0xC0 CALLDATASIZE PUSH1 0x23 NOT ADD SLT PUSH2 0x351 JUMPI PUSH1 0x40 MLOAD PUSH2 0x2D56 DUP2 PUSH2 0x3854 JUMP JUMPDEST PUSH1 0x24 CALLDATALOAD DUP2 MSTORE PUSH1 0x20 DUP2 ADD SWAP1 PUSH1 0x44 CALLDATALOAD DUP3 MSTORE PUSH1 0x40 DUP2 ADD SWAP2 PUSH1 0x64 CALLDATALOAD DUP4 MSTORE PUSH1 0x60 DUP3 ADD SWAP2 PUSH1 0x84 CALLDATALOAD DUP4 MSTORE PUSH1 0x80 DUP2 ADD PUSH1 0xA4 CALLDATALOAD DUP2 MSTORE PUSH1 0xC4 CALLDATALOAD SWAP4 DUP5 ISZERO ISZERO DUP6 SUB PUSH2 0x351 JUMPI PUSH1 0xA0 DUP4 ADD SWAP5 DUP6 MSTORE PUSH2 0x2D9E PUSH2 0x3A48 JUMP JUMPDEST PUSH1 0xFF PUSH1 0x3 SLOAD PUSH1 0xA0 SHR AND ISZERO PUSH2 0x414 JUMPI PUSH2 0x2DB4 PUSH2 0x4135 JUMP JUMPDEST PUSH2 0x2DBD DUP8 PUSH2 0x4B4B JUMP JUMPDEST DUP4 MLOAD PUSH2 0xE10 DUP2 LT DUP1 ISZERO PUSH2 0x2E9E JUMPI JUMPDEST PUSH2 0x2E86 JUMPI POP PUSH3 0x278D00 DUP7 MLOAD GT PUSH2 0x2E74 JUMPI PUSH2 0x2710 DUP2 MLOAD GT PUSH2 0x2E74 JUMPI PUSH32 0x719481CC109E01B8091F161A93B2EC47AEB36F9D1022D18F4F437680E21F9F65 SWAP6 PUSH1 0xC0 SWAP6 DUP9 PUSH1 0x0 MSTORE PUSH1 0x8 PUSH1 0x20 MSTORE PUSH1 0x5 PUSH1 0x40 PUSH1 0x0 KECCAK256 SWAP6 MLOAD SWAP7 DUP8 DUP8 SSTORE MLOAD SWAP3 DUP4 PUSH1 0x1 DUP9 ADD SSTORE MLOAD SWAP4 DUP5 PUSH1 0x2 DUP9 ADD SSTORE MLOAD SWAP5 DUP6 PUSH1 0x3 DUP9 ADD SSTORE MLOAD SWAP6 DUP7 PUSH1 0x4 DUP3 ADD SSTORE ADD SWAP1 MLOAD ISZERO ISZERO PUSH1 0xFF DUP1 NOT DUP4 SLOAD AND SWAP2 AND OR SWAP1 SSTORE PUSH1 0x40 MLOAD SWAP5 DUP6 MSTORE PUSH1 0x20 DUP6 ADD MSTORE PUSH1 0x40 DUP5 ADD MSTORE PUSH1 0x60 DUP4 ADD MSTORE PUSH1 0x80 DUP3 ADD MSTORE TIMESTAMP PUSH1 0xA0 DUP3 ADD MSTORE LOG2 STOP JUMPDEST PUSH1 0x40 MLOAD PUSH4 0xF39A9427 PUSH1 0xE0 SHL DUP2 MSTORE PUSH1 0x4 SWAP1 REVERT JUMPDEST PUSH1 0x24 SWAP1 PUSH1 0x40 MLOAD SWAP1 PUSH4 0x779207F PUSH1 0xE1 SHL DUP3 MSTORE PUSH1 0x4 DUP3 ADD MSTORE REVERT JUMPDEST POP PUSH3 0x278D00 DUP2 GT PUSH2 0x2DCB JUMP JUMPDEST CALLVALUE PUSH2 0x351 JUMPI PUSH2 0x140 CALLDATASIZE PUSH1 0x3 NOT ADD SLT PUSH2 0x351 JUMPI PUSH1 0x24 CALLDATALOAD PUSH1 0x1 PUSH1 0x1 PUSH1 0x40 SHL SUB DUP2 GT PUSH2 0x351 JUMPI PUSH2 0x2EDB SWAP1 CALLDATASIZE SWAP1 PUSH1 0x4 ADD PUSH2 0x38FD JUMP JUMPDEST PUSH1 0x44 CALLDATALOAD PUSH1 0x1 PUSH1 0x1 PUSH1 0x40 SHL SUB DUP2 GT PUSH2 0x351 JUMPI PUSH2 0x2EFA SWAP1 CALLDATASIZE SWAP1 PUSH1 0x4 ADD PUSH2 0x38FD JUMP JUMPDEST PUSH1 0x64 CALLDATALOAD PUSH1 0x1 PUSH1 0x1 PUSH1 0x40 SHL SUB DUP2 GT PUSH2 0x351 JUMPI PUSH2 0x2F19 SWAP1 CALLDATASIZE SWAP1 PUSH1 0x4 ADD PUSH2 0x38FD JUMP JUMPDEST SWAP2 PUSH1 0x5 PUSH1 0x84 CALLDATALOAD LT ISZERO PUSH2 0x351 JUMPI PUSH1 0x4 PUSH1 0xA4 CALLDATALOAD LT ISZERO PUSH2 0x351 JUMPI PUSH1 0x4 PUSH1 0xC4 CALLDATALOAD LT ISZERO PUSH2 0x351 JUMPI PUSH2 0x104 CALLDATALOAD PUSH1 0x1 PUSH1 0x1 PUSH1 0x40 SHL SUB DUP2 GT PUSH2 0x351 JUMPI CALLDATASIZE PUSH1 0x23 DUP3 ADD SLT ISZERO PUSH2 0x351 JUMPI PUSH2 0x2F6C SWAP1 CALLDATASIZE SWAP1 PUSH1 0x24 DUP2 PUSH1 0x4 ADD CALLDATALOAD SWAP2 ADD PUSH2 0x38C6 JUMP JUMPDEST SWAP3 PUSH2 0x124 CALLDATALOAD SWAP3 PUSH1 0x1 PUSH1 0x1 PUSH1 0xA0 SHL SUB DUP5 AND DUP5 SUB PUSH2 0x351 JUMPI PUSH1 0xFF PUSH1 0x3 SLOAD PUSH1 0xA0 SHR AND ISZERO PUSH2 0x414 JUMPI PUSH2 0x2F98 PUSH2 0x4135 JUMP JUMPDEST PUSH2 0x2FA0 PUSH2 0x4214 JUMP JUMPDEST PUSH2 0x2FAB PUSH1 0x4 CALLDATALOAD PUSH2 0x4B4B JUMP JUMPDEST DUP3 MLOAD ISZERO PUSH2 0x2E74 JUMPI PUSH2 0xE10 PUSH1 0xE4 CALLDATALOAD LT DUP1 ISZERO PUSH2 0x3690 JUMPI JUMPDEST PUSH2 0x3676 JUMPI PUSH2 0x2FCF PUSH1 0x4 CALLDATALOAD PUSH2 0x4D46 JUMP JUMPDEST PUSH1 0xA0 DUP2 ADD MLOAD PUSH2 0x35B6 JUMPI JUMPDEST PUSH2 0x2FE8 PUSH1 0xC4 CALLDATALOAD CALLER PUSH1 0x4 CALLDATALOAD PUSH2 0x4DB6 JUMP JUMPDEST PUSH2 0x2FF8 PUSH1 0x80 DUP4 ADD MLOAD PUSH1 0x4 CALLDATALOAD PUSH2 0x50DA JUMP JUMPDEST SWAP1 DUP2 DUP2 LT PUSH2 0x3592 JUMPI POP POP PUSH1 0x10 SLOAD SWAP1 PUSH2 0x300F DUP3 PUSH2 0x4198 JUMP JUMPDEST SWAP2 DUP3 PUSH1 0x10 SSTORE PUSH1 0x40 MLOAD PUSH2 0x3060 PUSH1 0x94 DUP3 PUSH1 0x20 DUP2 ADD SWAP5 PUSH1 0x4 CALLDATALOAD DUP7 MSTORE CALLER PUSH1 0x60 SHL PUSH1 0x40 DUP4 ADD MSTORE DUP11 MLOAD PUSH2 0x3044 DUP2 DUP14 PUSH1 0x20 PUSH1 0x54 DUP8 ADD SWAP2 ADD PUSH2 0x3956 JUMP JUMPDEST DUP3 ADD SWAP1 TIMESTAMP PUSH1 0x54 DUP4 ADD MSTORE PUSH1 0x74 DUP3 ADD MSTORE SUB PUSH1 0x74 DUP2 ADD DUP5 MSTORE ADD DUP3 PUSH2 0x388A JUMP JUMPDEST MLOAD SWAP1 KECCAK256 SWAP6 PUSH2 0x306F DUP3 MLOAD TIMESTAMP PUSH2 0x3F23 JUMP JUMPDEST SWAP5 PUSH2 0x307C PUSH1 0xE4 CALLDATALOAD DUP8 PUSH2 0x3F23 JUMP JUMPDEST SWAP5 DUP9 PUSH1 0x0 MSTORE PUSH1 0x5 PUSH1 0x20 MSTORE PUSH1 0x40 PUSH1 0x0 KECCAK256 SWAP5 DUP6 SSTORE DUP9 PUSH1 0x1 DUP7 ADD SSTORE PUSH1 0x4 CALLDATALOAD PUSH1 0x2 DUP7 ADD SSTORE PUSH1 0x3 DUP6 ADD CALLER PUSH1 0x1 PUSH1 0x1 PUSH1 0x60 SHL SUB PUSH1 0xA0 SHL DUP3 SLOAD AND OR SWAP1 SSTORE DUP8 MLOAD PUSH1 0x1 PUSH1 0x1 PUSH1 0x40 SHL SUB DUP2 GT PUSH2 0x119B JUMPI PUSH2 0x30DC DUP2 PUSH2 0x30D3 PUSH1 0x4 DUP10 ADD SLOAD PUSH2 0x4065 JUMP JUMPDEST PUSH1 0x4 DUP10 ADD PUSH2 0x41A7 JUMP JUMPDEST DUP1 PUSH1 0x20 PUSH1 0x1F DUP3 GT PUSH1 0x1 EQ PUSH2 0x3524 JUMPI PUSH1 0x0 SWAP2 PUSH2 0x3519 JUMPI JUMPDEST POP DUP2 PUSH1 0x1 SHL SWAP2 PUSH1 0x0 NOT SWAP1 PUSH1 0x3 SHL SHR NOT AND OR PUSH1 0x4 DUP7 ADD SSTORE JUMPDEST DUP1 MLOAD SWAP1 PUSH1 0x1 PUSH1 0x1 PUSH1 0x40 SHL SUB DUP3 GT PUSH2 0x119B JUMPI DUP2 SWAP1 PUSH2 0x3136 DUP3 PUSH2 0x312D PUSH1 0x5 DUP11 ADD SLOAD PUSH2 0x4065 JUMP JUMPDEST PUSH1 0x5 DUP11 ADD PUSH2 0x41A7 JUMP JUMPDEST PUSH1 0x20 SWAP1 PUSH1 0x1F DUP4 GT PUSH1 0x1 EQ PUSH2 0x34A7 JUMPI PUSH1 0x0 SWAP3 PUSH2 0x349C JUMPI JUMPDEST POP POP DUP2 PUSH1 0x1 SHL SWAP2 PUSH1 0x0 NOT SWAP1 PUSH1 0x3 SHL SHR NOT AND OR PUSH1 0x5 DUP6 ADD SSTORE JUMPDEST DUP1 MLOAD SWAP1 PUSH1 0x1 PUSH1 0x1 PUSH1 0x40 SHL SUB DUP3 GT PUSH2 0x119B JUMPI DUP2 SWAP1 PUSH2 0x3191 DUP3 PUSH2 0x3188 PUSH1 0x6 DUP10 ADD SLOAD PUSH2 0x4065 JUMP JUMPDEST PUSH1 0x6 DUP10 ADD PUSH2 0x41A7 JUMP JUMPDEST PUSH1 0x20 SWAP1 PUSH1 0x1F DUP4 GT PUSH1 0x1 EQ PUSH2 0x342A JUMPI PUSH1 0x0 SWAP3 PUSH2 0x341F JUMPI JUMPDEST POP POP DUP2 PUSH1 0x1 SHL SWAP2 PUSH1 0x0 NOT SWAP1 PUSH1 0x3 SHL SHR NOT AND OR PUSH1 0x6 DUP5 ADD SSTORE JUMPDEST PUSH1 0x7 DUP4 ADD DUP1 SLOAD PUSH2 0x31D0 PUSH1 0xA4 CALLDATALOAD PUSH2 0x39AB JUMP JUMPDEST PUSH2 0x31DB PUSH1 0xC4 CALLDATALOAD PUSH2 0x39AB JUMP JUMPDEST PUSH1 0xFF PUSH1 0x84 CALLDATALOAD AND SWAP1 PUSH4 0xFFFFFFFF NOT AND OR PUSH2 0xFF00 PUSH1 0xA4 CALLDATALOAD PUSH1 0x8 SHL AND OR PUSH3 0xFF0000 PUSH1 0xC4 CALLDATALOAD PUSH1 0x10 SHL AND OR SWAP1 SSTORE DUP5 PUSH1 0x8 DUP5 ADD SSTORE DUP4 PUSH1 0x9 DUP5 ADD SSTORE PUSH1 0x0 PUSH1 0xA DUP5 ADD SSTORE TIMESTAMP PUSH1 0xB DUP5 ADD SSTORE TIMESTAMP PUSH1 0xC DUP5 ADD SSTORE DUP8 MLOAD PUSH1 0x1 PUSH1 0x1 PUSH1 0x40 SHL SUB DUP2 GT PUSH2 0x119B JUMPI PUSH1 0x20 SWAP9 PUSH2 0x324F DUP3 PUSH2 0x3246 PUSH1 0xD DUP9 ADD SLOAD PUSH2 0x4065 JUMP JUMPDEST PUSH1 0xD DUP9 ADD PUSH2 0x41A7 JUMP JUMPDEST DUP10 SWAP1 PUSH1 0x1F DUP4 GT PUSH1 0x1 EQ PUSH2 0x33AA JUMPI SWAP2 DUP1 PUSH1 0x60 SWAP5 SWAP3 PUSH1 0x14 SWAP8 SWAP7 SWAP5 PUSH1 0x0 SWAP3 PUSH2 0x339F JUMPI JUMPDEST POP POP DUP2 PUSH1 0x1 SHL SWAP2 PUSH1 0x0 NOT SWAP1 PUSH1 0x3 SHL SHR NOT AND OR PUSH1 0xD DUP6 ADD SSTORE JUMPDEST PUSH1 0xE DUP5 ADD SWAP1 PUSH1 0x1 DUP1 PUSH1 0xA0 SHL SUB AND PUSH1 0x1 PUSH1 0x1 PUSH1 0x60 SHL SUB PUSH1 0xA0 SHL DUP3 SLOAD AND OR SWAP1 SSTORE ADD MLOAD PUSH1 0xF DUP3 ADD SSTORE PUSH1 0x0 PUSH1 0x10 DUP3 ADD SSTORE PUSH1 0x0 PUSH1 0x11 DUP3 ADD SSTORE PUSH1 0x0 PUSH1 0x12 DUP3 ADD SSTORE PUSH1 0x0 PUSH1 0x13 DUP3 ADD SSTORE ADD PUSH2 0xFFFF NOT DUP2 SLOAD AND SWAP1 SSTORE PUSH2 0x32DB DUP5 PUSH2 0x4280 JUMP JUMPDEST POP PUSH1 0x4 CALLDATALOAD PUSH1 0x0 MSTORE PUSH1 0x9 DUP6 MSTORE PUSH2 0x32F4 DUP5 PUSH1 0x40 PUSH1 0x0 KECCAK256 PUSH2 0x4318 JUMP JUMPDEST POP PUSH1 0x0 DUP1 MSTORE PUSH1 0xA DUP6 MSTORE PUSH2 0x330B DUP5 PUSH1 0x40 PUSH1 0x0 KECCAK256 PUSH2 0x4318 JUMP JUMPDEST POP PUSH2 0x3321 PUSH1 0x40 MLOAD SWAP4 PUSH1 0xE0 DUP6 MSTORE PUSH1 0xE0 DUP6 ADD SWAP1 PUSH2 0x3979 JUMP JUMPDEST SWAP2 PUSH2 0x3330 DUP7 DUP6 ADD PUSH1 0x84 CALLDATALOAD PUSH2 0x399E JUMP JUMPDEST PUSH2 0x333B PUSH1 0xA4 CALLDATALOAD PUSH2 0x39AB JUMP JUMPDEST PUSH1 0xA4 CALLDATALOAD PUSH1 0x40 DUP6 ADD MSTORE PUSH2 0x334E PUSH1 0xC4 CALLDATALOAD PUSH2 0x39AB JUMP JUMPDEST PUSH1 0xC4 CALLDATALOAD PUSH1 0x60 DUP6 ADD MSTORE PUSH1 0x80 DUP5 ADD MSTORE PUSH1 0xA0 DUP4 ADD MSTORE TIMESTAMP PUSH1 0xC0 DUP4 ADD MSTORE DUP3 PUSH32 0x84E0AB0FC389409B4EDA56A9A55B3236225F5FE3A191E9E03ED3B329D3EF9666 CALLER SWAP4 DUP1 PUSH1 0x4 CALLDATALOAD SWAP5 SUB SWAP1 LOG4 PUSH1 0x1 PUSH1 0x2 SSTORE PUSH1 0x40 MLOAD SWAP1 DUP2 MSTORE RETURN JUMPDEST ADD MLOAD SWAP1 POP DUP13 DUP1 PUSH2 0x326F JUMP JUMPDEST SWAP1 PUSH1 0xD DUP7 ADD PUSH1 0x0 MSTORE DUP11 PUSH1 0x0 KECCAK256 SWAP2 PUSH1 0x0 JUMPDEST PUSH1 0x1F NOT DUP6 AND DUP2 LT PUSH2 0x3408 JUMPI POP SWAP3 PUSH1 0x60 SWAP5 SWAP3 PUSH1 0x1 SWAP3 PUSH1 0x14 SWAP9 SWAP8 SWAP6 DUP4 PUSH1 0x1F NOT DUP2 AND LT PUSH2 0x33EF JUMPI JUMPDEST POP POP POP DUP2 SHL ADD PUSH1 0xD DUP6 ADD SSTORE PUSH2 0x3287 JUMP JUMPDEST ADD MLOAD PUSH1 0x0 NOT PUSH1 0xF8 DUP5 PUSH1 0x3 SHL AND SHR NOT AND SWAP1 SSTORE DUP13 DUP1 DUP1 PUSH2 0x33DF JUMP JUMPDEST SWAP2 SWAP3 DUP13 PUSH1 0x1 DUP2 SWAP3 DUP7 DUP6 ADD MLOAD DUP2 SSTORE ADD SWAP5 ADD SWAP3 ADD PUSH2 0x33BA JUMP JUMPDEST ADD MLOAD SWAP1 POP DUP11 DUP1 PUSH2 0x31A7 JUMP JUMPDEST SWAP3 POP PUSH1 0x6 DUP7 ADD PUSH1 0x0 MSTORE PUSH1 0x20 PUSH1 0x0 KECCAK256 SWAP1 PUSH1 0x0 SWAP4 JUMPDEST PUSH1 0x1F NOT DUP5 AND DUP6 LT PUSH2 0x3481 JUMPI PUSH1 0x1 SWAP5 POP DUP4 PUSH1 0x1F NOT DUP2 AND LT PUSH2 0x3468 JUMPI JUMPDEST POP POP POP DUP2 SHL ADD PUSH1 0x6 DUP5 ADD SSTORE PUSH2 0x31BF JUMP JUMPDEST ADD MLOAD PUSH1 0x0 NOT PUSH1 0xF8 DUP5 PUSH1 0x3 SHL AND SHR NOT AND SWAP1 SSTORE DUP11 DUP1 DUP1 PUSH2 0x3458 JUMP JUMPDEST DUP2 DUP2 ADD MLOAD DUP4 SSTORE PUSH1 0x20 SWAP5 DUP6 ADD SWAP5 PUSH1 0x1 SWAP1 SWAP4 ADD SWAP3 SWAP1 SWAP2 ADD SWAP1 PUSH2 0x343D JUMP JUMPDEST ADD MLOAD SWAP1 POP DUP12 DUP1 PUSH2 0x314C JUMP JUMPDEST SWAP3 POP PUSH1 0x5 DUP8 ADD PUSH1 0x0 MSTORE PUSH1 0x20 PUSH1 0x0 KECCAK256 SWAP1 PUSH1 0x0 SWAP4 JUMPDEST PUSH1 0x1F NOT DUP5 AND DUP6 LT PUSH2 0x34FE JUMPI PUSH1 0x1 SWAP5 POP DUP4 PUSH1 0x1F NOT DUP2 AND LT PUSH2 0x34E5 JUMPI JUMPDEST POP POP POP DUP2 SHL ADD PUSH1 0x5 DUP6 ADD SSTORE PUSH2 0x3164 JUMP JUMPDEST ADD MLOAD PUSH1 0x0 NOT PUSH1 0xF8 DUP5 PUSH1 0x3 SHL AND SHR NOT AND SWAP1 SSTORE DUP12 DUP1 DUP1 PUSH2 0x34D5 JUMP JUMPDEST DUP2 DUP2 ADD MLOAD DUP4 SSTORE PUSH1 0x20 SWAP5 DUP6 ADD SWAP5 PUSH1 0x1 SWAP1 SWAP4 ADD SWAP3 SWAP1 SWAP2 ADD SWAP1 PUSH2 0x34BA JUMP JUMPDEST SWAP1 POP DUP10 ADD MLOAD DUP13 PUSH2 0x30F2 JUMP JUMPDEST SWAP2 POP PUSH1 0x4 DUP8 ADD PUSH1 0x0 MSTORE PUSH1 0x20 PUSH1 0x0 KECCAK256 PUSH1 0x0 SWAP3 JUMPDEST DUP12 PUSH1 0x1F NOT DUP5 AND DUP6 LT PUSH2 0x357B JUMPI POP PUSH1 0x1 SWAP4 POP DUP3 PUSH1 0x1F NOT DUP2 AND LT PUSH2 0x3562 JUMPI JUMPDEST POP POP DUP2 SHL ADD PUSH1 0x4 DUP7 ADD SSTORE PUSH2 0x3109 JUMP JUMPDEST DUP12 ADD MLOAD PUSH1 0x0 NOT PUSH1 0xF8 DUP5 PUSH1 0x3 SHL AND SHR NOT AND SWAP1 SSTORE DUP13 DUP1 PUSH2 0x3553 JUMP JUMPDEST DUP2 ADD MLOAD DUP3 SSTORE PUSH1 0x20 SWAP4 DUP5 ADD SWAP4 PUSH1 0x1 SWAP1 SWAP3 ADD SWAP2 ADD PUSH2 0x3536 JUMP JUMPDEST PUSH1 0x64 SWAP3 POP PUSH1 0x40 MLOAD SWAP2 PUSH4 0x8AED8DC7 PUSH1 0xE0 SHL DUP4 MSTORE CALLER PUSH1 0x4 DUP5 ADD MSTORE PUSH1 0x24 DUP4 ADD MSTORE PUSH1 0x44 DUP3 ADD MSTORE REVERT JUMPDEST PUSH1 0x1 PUSH1 0x1 PUSH1 0xA0 SHL SUB PUSH2 0x35C6 PUSH2 0x4BE7 JUMP JUMPDEST AND DUP1 ISZERO PUSH2 0x365D JUMPI PUSH1 0x40 MLOAD PUSH4 0xF385BFC9 PUSH1 0xE0 SHL DUP2 MSTORE PUSH1 0x4 DUP1 CALLDATALOAD SWAP1 DUP3 ADD MSTORE CALLER PUSH1 0x24 DUP3 ADD MSTORE SWAP1 PUSH1 0x20 SWAP1 DUP3 SWAP1 PUSH1 0x44 SWAP1 DUP3 SWAP1 GAS STATICCALL SWAP1 DUP2 ISZERO PUSH2 0x7B8 JUMPI PUSH1 0x0 SWAP2 PUSH2 0x362F JUMPI JUMPDEST POP PUSH2 0x2FD9 JUMPI PUSH1 0x40 MLOAD PUSH4 0x9E915AF PUSH1 0xE0 SHL DUP2 MSTORE CALLER PUSH1 0x4 DUP3 ADD MSTORE PUSH1 0x1 PUSH1 0x24 DUP3 ADD MSTORE PUSH1 0x0 PUSH1 0x44 DUP3 ADD MSTORE PUSH1 0x64 SWAP1 REVERT JUMPDEST PUSH2 0x3650 SWAP2 POP PUSH1 0x20 RETURNDATASIZE DUP2 GT PUSH2 0x3656 JUMPI JUMPDEST PUSH2 0x3648 DUP2 DUP4 PUSH2 0x388A JUMP JUMPDEST DUP2 ADD SWAP1 PUSH2 0x4B33 JUMP JUMPDEST DUP8 PUSH2 0x3604 JUMP JUMPDEST POP RETURNDATASIZE PUSH2 0x363E JUMP JUMPDEST PUSH1 0x24 PUSH1 0x40 MLOAD PUSH4 0xF708DFA7 PUSH1 0xE0 SHL DUP2 MSTORE PUSH1 0x4 CALLDATALOAD PUSH1 0x4 DUP3 ADD MSTORE REVERT JUMPDEST PUSH1 0x40 MLOAD PUSH4 0x779207F PUSH1 0xE1 SHL DUP2 MSTORE PUSH1 0xE4 CALLDATALOAD PUSH1 0x4 DUP3 ADD MSTORE PUSH1 0x24 SWAP1 REVERT JUMPDEST POP PUSH3 0x278D00 PUSH1 0xE4 CALLDATALOAD GT PUSH2 0x2FC0 JUMP JUMPDEST CALLVALUE PUSH2 0x351 JUMPI PUSH1 0x0 CALLDATASIZE PUSH1 0x3 NOT ADD SLT PUSH2 0x351 JUMPI PUSH1 0x20 PUSH1 0x40 MLOAD PUSH32 0x8A21E8FDAE6C23863F7DE5307E2E7162C88DAB602A41610ADDB5F1505D259398 DUP2 MSTORE RETURN JUMPDEST CALLVALUE PUSH2 0x351 JUMPI PUSH1 0x20 CALLDATASIZE PUSH1 0x3 NOT ADD SLT PUSH2 0x351 JUMPI PUSH2 0x36F2 PUSH2 0x4CD3 JUMP JUMPDEST POP PUSH2 0x4A9 PUSH2 0x462 PUSH1 0x4 CALLDATALOAD PUSH2 0x4D46 JUMP JUMPDEST CALLVALUE PUSH2 0x351 JUMPI PUSH1 0x60 CALLDATASIZE PUSH1 0x3 NOT ADD SLT PUSH2 0x351 JUMPI PUSH2 0x371A PUSH2 0x37D4 JUMP JUMPDEST PUSH1 0x44 CALLDATALOAD SWAP1 PUSH1 0x4 DUP3 LT ISZERO PUSH2 0x351 JUMPI PUSH1 0x20 SWAP2 PUSH2 0xD43 SWAP2 PUSH1 0x4 CALLDATALOAD PUSH1 0x0 MSTORE PUSH1 0x5 DUP5 MSTORE PUSH1 0x2 PUSH1 0x40 PUSH1 0x0 KECCAK256 ADD SLOAD PUSH2 0x4DB6 JUMP JUMPDEST CALLVALUE PUSH2 0x351 JUMPI PUSH1 0x0 CALLDATASIZE PUSH1 0x3 NOT ADD SLT PUSH2 0x351 JUMPI PUSH1 0x20 PUSH1 0x40 MLOAD PUSH32 0xD8AA0F3194971A2A116679F7C2090F6939C8D4E01A2A8D7E41D55E5351469E63 DUP2 MSTORE RETURN JUMPDEST CALLVALUE PUSH2 0x351 JUMPI PUSH1 0x20 CALLDATASIZE PUSH1 0x3 NOT ADD SLT PUSH2 0x351 JUMPI PUSH1 0x4 CALLDATALOAD SWAP1 PUSH4 0xFFFFFFFF PUSH1 0xE0 SHL DUP3 AND DUP1 SWAP3 SUB PUSH2 0x351 JUMPI PUSH1 0x20 SWAP2 PUSH4 0x7965DB0B PUSH1 0xE0 SHL DUP2 EQ SWAP1 DUP2 ISZERO PUSH2 0x37C3 JUMPI JUMPDEST POP ISZERO ISZERO DUP2 MSTORE RETURN JUMPDEST PUSH4 0x1FFC9A7 PUSH1 0xE0 SHL EQ SWAP1 POP DUP4 PUSH2 0x37BC JUMP JUMPDEST PUSH1 0x24 CALLDATALOAD SWAP1 PUSH1 0x1 PUSH1 0x1 PUSH1 0xA0 SHL SUB DUP3 AND DUP3 SUB PUSH2 0x351 JUMPI JUMP JUMPDEST PUSH1 0x4 CALLDATALOAD SWAP1 PUSH1 0x1 PUSH1 0x1 PUSH1 0xA0 SHL SUB DUP3 AND DUP3 SUB PUSH2 0x351 JUMPI JUMP JUMPDEST CALLVALUE PUSH2 0x351 JUMPI PUSH1 0x0 CALLDATASIZE PUSH1 0x3 NOT ADD SLT PUSH2 0x351 JUMPI PUSH1 0x20 PUSH1 0x40 MLOAD PUSH2 0x2710 DUP2 MSTORE RETURN JUMPDEST PUSH1 0xA0 DUP2 ADD SWAP1 DUP2 LT PUSH1 0x1 PUSH1 0x1 PUSH1 0x40 SHL SUB DUP3 GT OR PUSH2 0x119B JUMPI PUSH1 0x40 MSTORE JUMP JUMPDEST PUSH2 0x320 DUP2 ADD SWAP1 DUP2 LT PUSH1 0x1 PUSH1 0x1 PUSH1 0x40 SHL SUB DUP3 GT OR PUSH2 0x119B JUMPI PUSH1 0x40 MSTORE JUMP JUMPDEST PUSH1 0xC0 DUP2 ADD SWAP1 DUP2 LT PUSH1 0x1 PUSH1 0x1 PUSH1 0x40 SHL SUB DUP3 GT OR PUSH2 0x119B JUMPI PUSH1 0x40 MSTORE JUMP JUMPDEST PUSH1 0x80 DUP2 ADD SWAP1 DUP2 LT PUSH1 0x1 PUSH1 0x1 PUSH1 0x40 SHL SUB DUP3 GT OR PUSH2 0x119B JUMPI PUSH1 0x40 MSTORE JUMP JUMPDEST SWAP1 PUSH1 0x1F DUP1 NOT SWAP2 ADD AND DUP2 ADD SWAP1 DUP2 LT PUSH1 0x1 PUSH1 0x1 PUSH1 0x40 SHL SUB DUP3 GT OR PUSH2 0x119B JUMPI PUSH1 0x40 MSTORE JUMP JUMPDEST PUSH1 0x1 PUSH1 0x1 PUSH1 0x40 SHL SUB DUP2 GT PUSH2 0x119B JUMPI PUSH1 0x1F ADD PUSH1 0x1F NOT AND PUSH1 0x20 ADD SWAP1 JUMP JUMPDEST SWAP3 SWAP2 SWAP3 PUSH2 0x38D2 DUP3 PUSH2 0x38AB JUMP JUMPDEST SWAP2 PUSH2 0x38E0 PUSH1 0x40 MLOAD SWAP4 DUP5 PUSH2 0x388A JUMP JUMPDEST DUP3 SWAP5 DUP2 DUP5 MSTORE DUP2 DUP4 ADD GT PUSH2 0x351 JUMPI DUP3 DUP2 PUSH1 0x20 SWAP4 DUP5 PUSH1 0x0 SWAP7 ADD CALLDATACOPY ADD ADD MSTORE JUMP JUMPDEST SWAP1 DUP1 PUSH1 0x1F DUP4 ADD SLT ISZERO PUSH2 0x351 JUMPI DUP2 PUSH1 0x20 PUSH2 0x3918 SWAP4 CALLDATALOAD SWAP2 ADD PUSH2 0x38C6 JUMP JUMPDEST SWAP1 JUMP JUMPDEST PUSH1 0x20 SWAP1 DUP2 PUSH1 0x40 DUP2 DUP4 ADD SWAP3 DUP3 DUP2 MSTORE DUP6 MLOAD DUP1 SWAP5 MSTORE ADD SWAP4 ADD SWAP2 PUSH1 0x0 JUMPDEST DUP3 DUP2 LT PUSH2 0x3942 JUMPI POP POP POP POP SWAP1 JUMP JUMPDEST DUP4 MLOAD DUP6 MSTORE SWAP4 DUP2 ADD SWAP4 SWAP3 DUP2 ADD SWAP3 PUSH1 0x1 ADD PUSH2 0x3934 JUMP JUMPDEST PUSH1 0x0 JUMPDEST DUP4 DUP2 LT PUSH2 0x3969 JUMPI POP POP PUSH1 0x0 SWAP2 ADD MSTORE JUMP JUMPDEST DUP2 DUP2 ADD MLOAD DUP4 DUP3 ADD MSTORE PUSH1 0x20 ADD PUSH2 0x3959 JUMP JUMPDEST SWAP1 PUSH1 0x20 SWAP2 PUSH2 0x3992 DUP2 MLOAD DUP1 SWAP3 DUP2 DUP6 MSTORE DUP6 DUP1 DUP7 ADD SWAP2 ADD PUSH2 0x3956 JUMP JUMPDEST PUSH1 0x1F ADD PUSH1 0x1F NOT AND ADD ADD SWAP1 JUMP JUMPDEST SWAP1 PUSH1 0x5 DUP3 LT ISZERO PUSH2 0x9F1 JUMPI MSTORE JUMP JUMPDEST PUSH1 0x4 GT ISZERO PUSH2 0x9F1 JUMPI JUMP JUMPDEST SWAP1 PUSH1 0x7 DUP3 LT ISZERO PUSH2 0x9F1 JUMPI MSTORE JUMP JUMPDEST CALLVALUE PUSH2 0x351 JUMPI PUSH1 0x0 CALLDATASIZE PUSH1 0x3 NOT ADD SLT PUSH2 0x351 JUMPI PUSH1 0x20 PUSH1 0x40 MLOAD PUSH3 0x278D00 DUP2 MSTORE RETURN JUMPDEST SWAP1 PUSH1 0x3 DUP3 LT ISZERO PUSH2 0x9F1 JUMPI MSTORE JUMP JUMPDEST DUP1 MLOAD PUSH1 0x1 PUSH1 0x1 PUSH1 0xA0 SHL SUB AND DUP3 MSTORE PUSH1 0x20 DUP1 DUP3 ADD MLOAD SWAP2 SWAP3 SWAP2 PUSH2 0x3A0F SWAP2 DUP4 ADD SWAP1 PUSH2 0x39E0 JUMP JUMPDEST PUSH1 0x40 DUP3 ADD MLOAD PUSH1 0x40 DUP3 ADD MSTORE PUSH1 0x60 DUP3 ADD MLOAD PUSH1 0x60 DUP3 ADD MSTORE PUSH1 0xA0 DUP1 PUSH2 0x3A3F PUSH1 0x80 DUP6 ADD MLOAD PUSH1 0xC0 PUSH1 0x80 DUP7 ADD MSTORE PUSH1 0xC0 DUP6 ADD SWAP1 PUSH2 0x3979 JUMP JUMPDEST SWAP4 ADD MLOAD SWAP2 ADD MSTORE SWAP1 JUMP JUMPDEST CALLER PUSH1 0x0 SWAP1 DUP2 MSTORE PUSH32 0x6D33EEC2C9ABD62A2D387B6CFD66073FA7602819B8C7C8B5B52A059A88D074C5 PUSH1 0x20 SWAP1 DUP2 MSTORE PUSH1 0x40 DUP1 DUP4 KECCAK256 SLOAD SWAP1 SWAP3 PUSH1 0x0 DUP1 MLOAD PUSH1 0x20 PUSH2 0x581F DUP4 CODECOPY DUP2 MLOAD SWAP2 MSTORE SWAP2 PUSH1 0xFF AND ISZERO PUSH2 0x3A9A JUMPI POP POP POP POP JUMP JUMPDEST PUSH2 0x3AA3 CALLER PUSH2 0x3F57 JUMP JUMPDEST SWAP2 DUP5 MLOAD SWAP1 PUSH2 0x3AB0 DUP3 PUSH2 0x386F JUMP JUMPDEST PUSH1 0x42 DUP3 MSTORE DUP5 DUP3 ADD SWAP3 PUSH1 0x60 CALLDATASIZE DUP6 CALLDATACOPY DUP3 MLOAD ISZERO PUSH2 0x3C39 JUMPI PUSH1 0x30 DUP5 MSTORE8 DUP3 MLOAD SWAP1 PUSH1 0x1 SWAP2 DUP3 LT ISZERO PUSH2 0x3C39 JUMPI SWAP1 PUSH1 0x78 PUSH1 0x21 DUP6 ADD MSTORE8 PUSH1 0x41 SWAP2 JUMPDEST DUP2 DUP4 GT PUSH2 0x3BCB JUMPI POP POP POP PUSH2 0x3B89 JUMPI PUSH1 0x48 PUSH2 0xC25 SWAP4 DUP7 SWAP4 PUSH2 0x3B6D SWAP4 PUSH2 0x3B5E SWAP9 MLOAD SWAP9 DUP10 SWAP4 PUSH23 0x20B1B1B2B9B9A1B7B73A3937B61D1030B1B1B7BAB73A1 PUSH1 0x4D SHL DUP11 DUP7 ADD MSTORE PUSH2 0x3B35 DUP2 MLOAD DUP1 SWAP3 DUP13 PUSH1 0x37 DUP10 ADD SWAP2 ADD PUSH2 0x3956 JUMP JUMPDEST DUP5 ADD SWAP2 PUSH17 0x1034B99036B4B9B9B4B733903937B6329 PUSH1 0x7D SHL PUSH1 0x37 DUP5 ADD MSTORE MLOAD DUP1 SWAP4 DUP7 DUP5 ADD SWAP1 PUSH2 0x3956 JUMP JUMPDEST ADD SUB PUSH1 0x28 DUP2 ADD DUP8 MSTORE ADD DUP6 PUSH2 0x388A JUMP JUMPDEST MLOAD SWAP3 DUP4 SWAP3 PUSH3 0x461BCD PUSH1 0xE5 SHL DUP5 MSTORE PUSH1 0x4 DUP5 ADD MSTORE PUSH1 0x24 DUP4 ADD SWAP1 PUSH2 0x3979 JUMP JUMPDEST PUSH1 0x64 DUP5 DUP7 MLOAD SWAP1 PUSH3 0x461BCD PUSH1 0xE5 SHL DUP3 MSTORE DUP1 PUSH1 0x4 DUP4 ADD MSTORE PUSH1 0x24 DUP3 ADD MSTORE PUSH32 0x537472696E67733A20686578206C656E67746820696E73756666696369656E74 PUSH1 0x44 DUP3 ADD MSTORE REVERT JUMPDEST SWAP1 SWAP2 SWAP3 PUSH1 0xF DUP2 AND PUSH1 0x10 DUP2 LT ISZERO PUSH2 0x3C25 JUMPI PUSH16 0x181899199A1A9B1B9C1CB0B131B232B3 PUSH1 0x81 SHL SWAP1 BYTE PUSH2 0x3BFB DUP6 DUP8 PUSH2 0x3F30 JUMP JUMPDEST MSTORE8 PUSH1 0x4 SHR SWAP3 DUP1 ISZERO PUSH2 0x3C11 JUMPI PUSH1 0x0 NOT ADD SWAP2 SWAP1 PUSH2 0x3AE1 JUMP JUMPDEST PUSH4 0x4E487B71 PUSH1 0xE0 SHL DUP3 MSTORE PUSH1 0x11 PUSH1 0x4 MSTORE PUSH1 0x24 DUP3 REVERT JUMPDEST PUSH4 0x4E487B71 PUSH1 0xE0 SHL DUP4 MSTORE PUSH1 0x32 PUSH1 0x4 MSTORE PUSH1 0x24 DUP4 REVERT JUMPDEST PUSH4 0x4E487B71 PUSH1 0xE0 SHL DUP2 MSTORE PUSH1 0x32 PUSH1 0x4 MSTORE PUSH1 0x24 SWAP1 REVERT JUMPDEST CALLER PUSH1 0x0 SWAP1 DUP2 MSTORE PUSH32 0x7D7FFB7A348E1C6A02869081A26547B49160DD3DF72D1D75A570EB9B698292EC PUSH1 0x20 SWAP1 DUP2 MSTORE PUSH1 0x40 DUP1 DUP4 KECCAK256 SLOAD SWAP1 SWAP3 PUSH32 0xA49807205CE4D355092EF5A8A18F56E8913CF4A201FBE287825B095693C21775 SWAP2 PUSH1 0xFF AND ISZERO PUSH2 0x3CB1 JUMPI POP POP POP POP JUMP JUMPDEST PUSH2 0x3CBA CALLER PUSH2 0x3F57 JUMP JUMPDEST SWAP2 DUP5 MLOAD SWAP1 PUSH2 0x3CC7 DUP3 PUSH2 0x386F JUMP JUMPDEST PUSH1 0x42 DUP3 MSTORE DUP5 DUP3 ADD SWAP3 PUSH1 0x60 CALLDATASIZE DUP6 CALLDATACOPY DUP3 MLOAD ISZERO PUSH2 0x3C39 JUMPI PUSH1 0x30 DUP5 MSTORE8 DUP3 MLOAD SWAP1 PUSH1 0x1 SWAP2 DUP3 LT ISZERO PUSH2 0x3C39 JUMPI SWAP1 PUSH1 0x78 PUSH1 0x21 DUP6 ADD MSTORE8 PUSH1 0x41 SWAP2 JUMPDEST DUP2 DUP4 GT PUSH2 0x3D4C JUMPI POP POP POP PUSH2 0x3B89 JUMPI PUSH1 0x48 PUSH2 0xC25 SWAP4 DUP7 SWAP4 PUSH2 0x3B6D SWAP4 PUSH2 0x3B5E SWAP9 MLOAD SWAP9 DUP10 SWAP4 PUSH23 0x20B1B1B2B9B9A1B7B73A3937B61D1030B1B1B7BAB73A1 PUSH1 0x4D SHL DUP11 DUP7 ADD MSTORE PUSH2 0x3B35 DUP2 MLOAD DUP1 SWAP3 DUP13 PUSH1 0x37 DUP10 ADD SWAP2 ADD PUSH2 0x3956 JUMP JUMPDEST SWAP1 SWAP2 SWAP3 PUSH1 0xF DUP2 AND PUSH1 0x10 DUP2 LT ISZERO PUSH2 0x3C25 JUMPI PUSH16 0x181899199A1A9B1B9C1CB0B131B232B3 PUSH1 0x81 SHL SWAP1 BYTE PUSH2 0x3D7C DUP6 DUP8 PUSH2 0x3F30 JUMP JUMPDEST MSTORE8 PUSH1 0x4 SHR SWAP3 DUP1 ISZERO PUSH2 0x3C11 JUMPI PUSH1 0x0 NOT ADD SWAP2 SWAP1 PUSH2 0x3CF8 JUMP JUMPDEST PUSH1 0x0 SWAP1 DUP1 DUP3 MSTORE PUSH1 0x20 SWAP1 DUP3 DUP3 MSTORE PUSH1 0x40 SWAP3 DUP4 DUP2 KECCAK256 CALLER DUP3 MSTORE DUP4 MSTORE PUSH1 0xFF DUP5 DUP3 KECCAK256 SLOAD AND ISZERO PUSH2 0x3DBB JUMPI POP POP POP POP JUMP JUMPDEST PUSH2 0x3DC4 CALLER PUSH2 0x3F57 JUMP JUMPDEST SWAP2 DUP5 MLOAD SWAP1 PUSH2 0x3DD1 DUP3 PUSH2 0x386F JUMP JUMPDEST PUSH1 0x42 DUP3 MSTORE DUP5 DUP3 ADD SWAP3 PUSH1 0x60 CALLDATASIZE DUP6 CALLDATACOPY DUP3 MLOAD ISZERO PUSH2 0x3C39 JUMPI PUSH1 0x30 DUP5 MSTORE8 DUP3 MLOAD SWAP1 PUSH1 0x1 SWAP2 DUP3 LT ISZERO PUSH2 0x3C39 JUMPI SWAP1 PUSH1 0x78 PUSH1 0x21 DUP6 ADD MSTORE8 PUSH1 0x41 SWAP2 JUMPDEST DUP2 DUP4 GT PUSH2 0x3E56 JUMPI POP POP POP PUSH2 0x3B89 JUMPI PUSH1 0x48 PUSH2 0xC25 SWAP4 DUP7 SWAP4 PUSH2 0x3B6D SWAP4 PUSH2 0x3B5E SWAP9 MLOAD SWAP9 DUP10 SWAP4 PUSH23 0x20B1B1B2B9B9A1B7B73A3937B61D1030B1B1B7BAB73A1 PUSH1 0x4D SHL DUP11 DUP7 ADD MSTORE PUSH2 0x3B35 DUP2 MLOAD DUP1 SWAP3 DUP13 PUSH1 0x37 DUP10 ADD SWAP2 ADD PUSH2 0x3956 JUMP JUMPDEST SWAP1 SWAP2 SWAP3 PUSH1 0xF DUP2 AND PUSH1 0x10 DUP2 LT ISZERO PUSH2 0x3C25 JUMPI PUSH16 0x181899199A1A9B1B9C1CB0B131B232B3 PUSH1 0x81 SHL SWAP1 BYTE PUSH2 0x3E86 DUP6 DUP8 PUSH2 0x3F30 JUMP JUMPDEST MSTORE8 PUSH1 0x4 SHR SWAP3 DUP1 ISZERO PUSH2 0x3C11 JUMPI PUSH1 0x0 NOT ADD SWAP2 SWAP1 PUSH2 0x3E02 JUMP JUMPDEST SWAP1 PUSH1 0x0 SWAP2 DUP1 DUP4 MSTORE DUP3 PUSH1 0x20 MSTORE PUSH1 0x40 DUP4 KECCAK256 SWAP2 PUSH1 0x1 DUP1 PUSH1 0xA0 SHL SUB AND SWAP2 DUP3 DUP5 MSTORE PUSH1 0x20 MSTORE PUSH1 0xFF PUSH1 0x40 DUP5 KECCAK256 SLOAD AND PUSH2 0x3ECC JUMPI POP POP POP JUMP JUMPDEST DUP1 DUP4 MSTORE DUP3 PUSH1 0x20 MSTORE PUSH1 0x40 DUP4 KECCAK256 DUP3 DUP5 MSTORE PUSH1 0x20 MSTORE PUSH1 0x40 DUP4 KECCAK256 PUSH1 0xFF NOT DUP2 SLOAD AND SWAP1 SSTORE PUSH32 0xF6391F5C32D9C69D2A47EA670B442974B53935D1EDC7FD64EB21E047A839171B CALLER SWAP4 DUP1 LOG4 JUMP JUMPDEST DUP2 DUP2 MUL SWAP3 SWAP2 DUP2 ISZERO SWAP2 DUP5 DIV EQ OR ISZERO PUSH2 0x11F4 JUMPI JUMP JUMPDEST SWAP2 SWAP1 DUP3 ADD DUP1 SWAP3 GT PUSH2 0x11F4 JUMPI JUMP JUMPDEST SWAP1 DUP2 MLOAD DUP2 LT ISZERO PUSH2 0x3F41 JUMPI ADD PUSH1 0x20 ADD SWAP1 JUMP JUMPDEST PUSH4 0x4E487B71 PUSH1 0xE0 SHL PUSH1 0x0 MSTORE PUSH1 0x32 PUSH1 0x4 MSTORE PUSH1 0x24 PUSH1 0x0 REVERT JUMPDEST PUSH1 0x40 MLOAD SWAP1 PUSH1 0x60 DUP3 ADD DUP3 DUP2 LT PUSH1 0x1 PUSH1 0x1 PUSH1 0x40 SHL SUB DUP3 GT OR PUSH2 0x119B JUMPI PUSH1 0x40 MSTORE PUSH1 0x2A DUP3 MSTORE PUSH1 0x20 DUP3 ADD PUSH1 0x40 CALLDATASIZE DUP3 CALLDATACOPY DUP3 MLOAD ISZERO PUSH2 0x3F41 JUMPI PUSH1 0x30 SWAP1 MSTORE8 DUP2 MLOAD PUSH1 0x1 SWAP1 DUP2 LT ISZERO PUSH2 0x3F41 JUMPI PUSH1 0x78 PUSH1 0x21 DUP5 ADD MSTORE8 PUSH1 0x29 SWAP1 JUMPDEST DUP1 DUP3 GT PUSH2 0x3FF7 JUMPI POP POP PUSH2 0x3FB3 JUMPI SWAP1 JUMP JUMPDEST PUSH1 0x64 PUSH1 0x40 MLOAD PUSH3 0x461BCD PUSH1 0xE5 SHL DUP2 MSTORE PUSH1 0x20 PUSH1 0x4 DUP3 ADD MSTORE PUSH1 0x20 PUSH1 0x24 DUP3 ADD MSTORE PUSH32 0x537472696E67733A20686578206C656E67746820696E73756666696369656E74 PUSH1 0x44 DUP3 ADD MSTORE REVERT JUMPDEST SWAP1 SWAP2 PUSH1 0xF DUP2 AND PUSH1 0x10 DUP2 LT ISZERO PUSH2 0x4050 JUMPI PUSH16 0x181899199A1A9B1B9C1CB0B131B232B3 PUSH1 0x81 SHL SWAP1 BYTE PUSH2 0x4026 DUP5 DUP7 PUSH2 0x3F30 JUMP JUMPDEST MSTORE8 PUSH1 0x4 SHR SWAP2 DUP1 ISZERO PUSH2 0x403B JUMPI PUSH1 0x0 NOT ADD SWAP1 PUSH2 0x3FA3 JUMP JUMPDEST PUSH1 0x24 PUSH1 0x0 PUSH4 0x4E487B71 PUSH1 0xE0 SHL DUP2 MSTORE PUSH1 0x11 PUSH1 0x4 MSTORE REVERT JUMPDEST PUSH1 0x24 PUSH1 0x0 PUSH4 0x4E487B71 PUSH1 0xE0 SHL DUP2 MSTORE PUSH1 0x32 PUSH1 0x4 MSTORE REVERT JUMPDEST SWAP1 PUSH1 0x1 DUP3 DUP2 SHR SWAP3 AND DUP1 ISZERO PUSH2 0x4095 JUMPI JUMPDEST PUSH1 0x20 DUP4 LT EQ PUSH2 0x407F JUMPI JUMP JUMPDEST PUSH4 0x4E487B71 PUSH1 0xE0 SHL PUSH1 0x0 MSTORE PUSH1 0x22 PUSH1 0x4 MSTORE PUSH1 0x24 PUSH1 0x0 REVERT JUMPDEST SWAP2 PUSH1 0x7F AND SWAP2 PUSH2 0x4074 JUMP JUMPDEST SWAP1 PUSH1 0x0 SWAP3 SWAP2 DUP1 SLOAD SWAP2 PUSH2 0x40B0 DUP4 PUSH2 0x4065 JUMP JUMPDEST SWAP2 DUP3 DUP3 MSTORE PUSH1 0x1 SWAP4 DUP5 DUP2 AND SWAP1 DUP2 PUSH1 0x0 EQ PUSH2 0x4112 JUMPI POP PUSH1 0x1 EQ PUSH2 0x40D2 JUMPI JUMPDEST POP POP POP POP JUMP JUMPDEST SWAP1 SWAP2 SWAP4 SWAP5 POP PUSH1 0x0 MSTORE PUSH1 0x20 SWAP3 DUP4 PUSH1 0x0 KECCAK256 SWAP3 DUP5 PUSH1 0x0 SWAP5 JUMPDEST DUP4 DUP7 LT PUSH2 0x40FE JUMPI POP POP POP POP ADD ADD SWAP1 CODESIZE DUP1 DUP1 DUP1 PUSH2 0x40CC JUMP JUMPDEST DUP1 SLOAD DUP6 DUP8 ADD DUP4 ADD MSTORE SWAP5 ADD SWAP4 DUP6 SWAP1 DUP3 ADD PUSH2 0x40E7 JUMP JUMPDEST SWAP3 SWAP5 POP POP POP PUSH1 0x20 SWAP4 SWAP5 POP PUSH1 0xFF NOT AND DUP4 DUP4 ADD MSTORE ISZERO ISZERO PUSH1 0x5 SHL ADD ADD SWAP1 CODESIZE DUP1 DUP1 DUP1 PUSH2 0x40CC JUMP JUMPDEST PUSH1 0xFF PUSH1 0x1 SLOAD AND PUSH2 0x4141 JUMPI JUMP JUMPDEST PUSH1 0x40 MLOAD PUSH3 0x461BCD PUSH1 0xE5 SHL DUP2 MSTORE PUSH1 0x20 PUSH1 0x4 DUP3 ADD MSTORE PUSH1 0x10 PUSH1 0x24 DUP3 ADD MSTORE PUSH16 0x14185D5CD8589B194E881C185D5CD959 PUSH1 0x82 SHL PUSH1 0x44 DUP3 ADD MSTORE PUSH1 0x64 SWAP1 REVERT JUMPDEST SWAP1 DUP2 PUSH1 0x20 SWAP2 SUB SLT PUSH2 0x351 JUMPI MLOAD PUSH1 0x1 PUSH1 0x1 PUSH1 0xA0 SHL SUB DUP2 AND DUP2 SUB PUSH2 0x351 JUMPI SWAP1 JUMP JUMPDEST PUSH1 0x0 NOT DUP2 EQ PUSH2 0x11F4 JUMPI PUSH1 0x1 ADD SWAP1 JUMP JUMPDEST SWAP1 PUSH1 0x1F DUP2 GT PUSH2 0x41B5 JUMPI POP POP POP JUMP JUMPDEST PUSH1 0x0 SWAP2 DUP3 MSTORE PUSH1 0x20 DUP3 KECCAK256 SWAP1 PUSH1 0x20 PUSH1 0x1F DUP6 ADD PUSH1 0x5 SHR DUP4 ADD SWAP5 LT PUSH2 0x41F1 JUMPI JUMPDEST PUSH1 0x1F ADD PUSH1 0x5 SHR ADD SWAP2 JUMPDEST DUP3 DUP2 LT PUSH2 0x41E6 JUMPI POP POP POP JUMP JUMPDEST DUP2 DUP2 SSTORE PUSH1 0x1 ADD PUSH2 0x41DA JUMP JUMPDEST SWAP1 SWAP3 POP DUP3 SWAP1 PUSH2 0x41D1 JUMP JUMPDEST PUSH1 0x7 DUP2 LT ISZERO PUSH2 0x9F1 JUMPI PUSH1 0x0 MSTORE PUSH1 0xA PUSH1 0x20 MSTORE PUSH1 0x40 PUSH1 0x0 KECCAK256 SWAP1 JUMP JUMPDEST PUSH1 0x2 DUP1 SLOAD EQ PUSH2 0x4223 JUMPI PUSH1 0x2 DUP1 SSTORE JUMP JUMPDEST PUSH1 0x40 MLOAD PUSH3 0x461BCD PUSH1 0xE5 SHL DUP2 MSTORE PUSH1 0x20 PUSH1 0x4 DUP3 ADD MSTORE PUSH1 0x1F PUSH1 0x24 DUP3 ADD MSTORE PUSH32 0x5265656E7472616E637947756172643A207265656E7472616E742063616C6C00 PUSH1 0x44 DUP3 ADD MSTORE PUSH1 0x64 SWAP1 REVERT JUMPDEST DUP1 SLOAD DUP3 LT ISZERO PUSH2 0x3F41 JUMPI PUSH1 0x0 MSTORE PUSH1 0x20 PUSH1 0x0 KECCAK256 ADD SWAP1 PUSH1 0x0 SWAP1 JUMP JUMPDEST PUSH1 0x0 DUP2 DUP2 MSTORE PUSH1 0xF PUSH1 0x20 MSTORE PUSH1 0x40 DUP2 KECCAK256 SLOAD PUSH2 0x4313 JUMPI PUSH1 0xE SLOAD PUSH1 0x1 PUSH1 0x40 SHL DUP2 LT ISZERO PUSH2 0x42FF JUMPI PUSH1 0x1 DUP2 ADD DUP1 PUSH1 0xE SSTORE DUP2 LT ISZERO PUSH2 0x42EB JUMPI SWAP1 DUP3 PUSH1 0x40 SWAP3 PUSH32 0xBB7B4A454DC3493923482F07822329ED19E8244EFF582CC204F8554C3620C3FD ADD SSTORE PUSH1 0xE SLOAD SWAP3 DUP2 MSTORE PUSH1 0xF PUSH1 0x20 MSTORE KECCAK256 SSTORE PUSH1 0x1 SWAP1 JUMP JUMPDEST PUSH4 0x4E487B71 PUSH1 0xE0 SHL DUP3 MSTORE PUSH1 0x32 PUSH1 0x4 MSTORE PUSH1 0x24 DUP3 REVERT JUMPDEST PUSH4 0x4E487B71 PUSH1 0xE0 SHL DUP3 MSTORE PUSH1 0x41 PUSH1 0x4 MSTORE PUSH1 0x24 DUP3 REVERT JUMPDEST SWAP1 POP SWAP1 JUMP JUMPDEST SWAP2 SWAP1 PUSH1 0x1 DUP4 ADD PUSH1 0x0 SWAP1 DUP3 DUP3 MSTORE DUP1 PUSH1 0x20 MSTORE PUSH1 0x40 DUP3 KECCAK256 SLOAD ISZERO PUSH1 0x0 EQ PUSH2 0x4397 JUMPI DUP5 SLOAD SWAP5 PUSH1 0x1 PUSH1 0x40 SHL DUP7 LT ISZERO PUSH2 0x4383 JUMPI DUP4 PUSH2 0x4373 PUSH2 0x435C DUP9 PUSH1 0x1 PUSH1 0x40 SWAP9 SWAP10 SWAP11 ADD DUP6 SSTORE DUP5 PUSH2 0x4268 JUMP JUMPDEST DUP2 SWAP4 SWAP2 SLOAD SWAP1 PUSH1 0x3 SHL SWAP2 DUP3 SHL SWAP2 PUSH1 0x0 NOT SWAP1 SHL NOT AND OR SWAP1 JUMP JUMPDEST SWAP1 SSTORE SLOAD SWAP4 DUP3 MSTORE PUSH1 0x20 MSTORE KECCAK256 SSTORE PUSH1 0x1 SWAP1 JUMP JUMPDEST PUSH4 0x4E487B71 PUSH1 0xE0 SHL DUP4 MSTORE PUSH1 0x41 PUSH1 0x4 MSTORE PUSH1 0x24 DUP4 REVERT JUMPDEST POP SWAP3 POP POP JUMP JUMPDEST DUP2 ISZERO PUSH2 0x43A7 JUMPI DIV SWAP1 JUMP JUMPDEST PUSH4 0x4E487B71 PUSH1 0xE0 SHL PUSH1 0x0 MSTORE PUSH1 0x12 PUSH1 0x4 MSTORE PUSH1 0x24 PUSH1 0x0 REVERT JUMPDEST PUSH1 0x0 SWAP3 SWAP2 DUP2 SLOAD PUSH2 0x43CC DUP2 PUSH2 0x4065 JUMP JUMPDEST SWAP3 PUSH1 0x1 SWAP2 DUP1 DUP4 AND SWAP1 DUP2 ISZERO PUSH2 0x4424 JUMPI POP PUSH1 0x1 EQ PUSH2 0x43E8 JUMPI POP POP POP POP JUMP JUMPDEST SWAP1 SWAP2 SWAP3 SWAP4 SWAP5 POP PUSH1 0x0 MSTORE PUSH1 0x20 SWAP1 DUP2 PUSH1 0x0 KECCAK256 SWAP1 PUSH1 0x0 SWAP2 JUMPDEST DUP6 DUP4 LT PUSH2 0x4413 JUMPI POP POP POP POP ADD SWAP1 CODESIZE DUP1 DUP1 DUP1 PUSH2 0x40CC JUMP JUMPDEST DUP1 SLOAD DUP6 DUP5 ADD MSTORE SWAP2 DUP4 ADD SWAP2 DUP2 ADD PUSH2 0x43FD JUMP JUMPDEST PUSH1 0xFF NOT AND DUP5 MSTORE POP POP POP DUP2 ISZERO ISZERO SWAP1 SWAP2 MUL ADD SWAP2 POP CODESIZE DUP1 DUP1 DUP1 PUSH2 0x40CC JUMP JUMPDEST RETURNDATASIZE ISZERO PUSH2 0x446A JUMPI RETURNDATASIZE SWAP1 PUSH2 0x4450 DUP3 PUSH2 0x38AB JUMP JUMPDEST SWAP2 PUSH2 0x445E PUSH1 0x40 MLOAD SWAP4 DUP5 PUSH2 0x388A JUMP JUMPDEST DUP3 MSTORE RETURNDATASIZE PUSH1 0x0 PUSH1 0x20 DUP5 ADD RETURNDATACOPY JUMP JUMPDEST PUSH1 0x60 SWAP1 JUMP JUMPDEST SWAP2 SWAP1 DUP3 SUB SWAP2 DUP3 GT PUSH2 0x11F4 JUMPI JUMP JUMPDEST SWAP1 PUSH1 0x1 DUP3 ADD SWAP1 PUSH1 0x0 SWAP3 DUP2 DUP5 MSTORE DUP3 PUSH1 0x20 MSTORE PUSH1 0x40 DUP5 KECCAK256 SLOAD SWAP1 DUP2 ISZERO ISZERO PUSH1 0x0 EQ PUSH2 0x4565 JUMPI PUSH1 0x0 NOT SWAP2 DUP1 DUP4 ADD DUP2 DUP2 GT PUSH2 0x4551 JUMPI DUP3 SLOAD SWAP1 DUP5 DUP3 ADD SWAP2 DUP3 GT PUSH2 0x453D JUMPI DUP1 DUP3 SUB PUSH2 0x4508 JUMPI JUMPDEST POP POP POP DUP1 SLOAD DUP1 ISZERO PUSH2 0x44F4 JUMPI DUP3 ADD SWAP2 PUSH2 0x44D7 DUP4 DUP4 PUSH2 0x4268 JUMP JUMPDEST SWAP1 SWAP2 DUP3 SLOAD SWAP2 PUSH1 0x3 SHL SHL NOT AND SWAP1 SSTORE SSTORE DUP3 MSTORE PUSH1 0x20 MSTORE PUSH1 0x40 DUP2 KECCAK256 SSTORE PUSH1 0x1 SWAP1 JUMP JUMPDEST PUSH4 0x4E487B71 PUSH1 0xE0 SHL DUP7 MSTORE PUSH1 0x31 PUSH1 0x4 MSTORE PUSH1 0x24 DUP7 REVERT JUMPDEST PUSH2 0x4528 PUSH2 0x4518 PUSH2 0x435C SWAP4 DUP7 PUSH2 0x4268 JUMP JUMPDEST SWAP1 SLOAD SWAP1 PUSH1 0x3 SHL SHR SWAP3 DUP4 SWAP3 DUP7 PUSH2 0x4268 JUMP JUMPDEST SWAP1 SSTORE DUP7 MSTORE DUP5 PUSH1 0x20 MSTORE PUSH1 0x40 DUP7 KECCAK256 SSTORE CODESIZE DUP1 DUP1 PUSH2 0x44BF JUMP JUMPDEST PUSH4 0x4E487B71 PUSH1 0xE0 SHL DUP9 MSTORE PUSH1 0x11 PUSH1 0x4 MSTORE PUSH1 0x24 DUP9 REVERT JUMPDEST PUSH4 0x4E487B71 PUSH1 0xE0 SHL DUP8 MSTORE PUSH1 0x11 PUSH1 0x4 MSTORE PUSH1 0x24 DUP8 REVERT JUMPDEST POP POP POP POP SWAP1 JUMP JUMPDEST PUSH1 0x0 DUP2 DUP2 MSTORE PUSH1 0x6 PUSH1 0x20 SWAP1 DUP2 MSTORE PUSH1 0x40 DUP1 DUP4 KECCAK256 PUSH1 0x1 PUSH1 0x1 PUSH1 0xA0 SHL SUB SWAP6 DUP7 AND DUP1 DUP6 MSTORE SWAP3 MSTORE DUP3 KECCAK256 DUP1 SLOAD SWAP2 SWAP5 SWAP1 SWAP2 SWAP1 DUP2 AND ISZERO DUP1 ISZERO PUSH2 0x46C8 JUMPI JUMPDEST PUSH2 0x46C1 JUMPI PUSH2 0x45B2 PUSH1 0x2 DUP4 ADD SLOAD TIMESTAMP PUSH2 0x446F JUMP JUMPDEST SWAP3 PUSH1 0x4 DUP4 ADD SLOAD SWAP3 DUP4 DUP6 LT PUSH2 0x46B8 JUMPI PUSH1 0x1 PUSH2 0x45D0 SWAP2 ADD SWAP4 DUP5 SLOAD SWAP6 PUSH2 0x439D JUMP JUMPDEST PUSH1 0x1 ADD DUP1 PUSH1 0x1 GT PUSH2 0x3C11 JUMPI PUSH2 0x45E5 SWAP1 DUP6 PUSH2 0x439D JUMP JUMPDEST DUP1 SWAP4 SSTORE DUP5 DUP2 MSTORE PUSH1 0x5 PUSH1 0x20 MSTORE PUSH1 0x40 DUP2 KECCAK256 SWAP1 PUSH1 0xFF PUSH2 0x4601 DUP6 DUP8 PUSH2 0x446F JUMP JUMPDEST SWAP4 PUSH1 0xA0 SHR AND SWAP1 PUSH1 0x3 DUP3 LT ISZERO PUSH2 0x46A4 JUMPI POP SWAP2 PUSH2 0x4665 PUSH1 0x13 PUSH1 0x60 SWAP6 SWAP4 DUP6 PUSH1 0x1 PUSH32 0xDBFCD461DDC91A7D2735A6E935A779B9AB3ED0EB91C54C209E83580E1971F620 SWAP10 SWAP8 EQ PUSH1 0x0 EQ PUSH2 0x467B JUMPI POP PUSH1 0x10 DUP2 ADD PUSH2 0x4659 DUP6 DUP3 SLOAD PUSH2 0x446F JUMP JUMPDEST SWAP1 SSTORE JUMPDEST ADD SWAP2 DUP3 SLOAD PUSH2 0x446F JUMP JUMPDEST SWAP1 SSTORE PUSH1 0x40 MLOAD SWAP2 DUP3 MSTORE PUSH1 0x20 DUP3 ADD MSTORE TIMESTAMP PUSH1 0x40 DUP3 ADD MSTORE LOG3 JUMP JUMPDEST PUSH2 0x4695 JUMPI PUSH1 0x11 DUP2 ADD PUSH2 0x468E DUP6 DUP3 SLOAD PUSH2 0x446F JUMP JUMPDEST SWAP1 SSTORE PUSH2 0x465C JUMP JUMPDEST PUSH1 0x12 DUP2 ADD PUSH2 0x468E DUP6 DUP3 SLOAD PUSH2 0x446F JUMP JUMPDEST PUSH4 0x4E487B71 PUSH1 0xE0 SHL DUP2 MSTORE PUSH1 0x21 PUSH1 0x4 MSTORE PUSH1 0x24 SWAP1 REVERT JUMPDEST POP POP POP POP POP POP POP JUMP JUMPDEST POP POP POP POP POP JUMP JUMPDEST POP PUSH1 0x4 DUP3 ADD SLOAD ISZERO PUSH2 0x45A0 JUMP JUMPDEST PUSH1 0x0 DUP2 DUP2 MSTORE PUSH1 0x5 PUSH1 0x20 MSTORE PUSH1 0x40 DUP2 KECCAK256 SWAP1 PUSH1 0x7 DUP3 ADD SWAP1 PUSH1 0xFF DUP3 SLOAD PUSH1 0x18 SHR AND SWAP1 PUSH1 0x7 DUP3 LT ISZERO PUSH2 0x46A4 JUMPI PUSH1 0x5 DUP3 EQ PUSH2 0x46C1 JUMPI DUP5 PUSH1 0x40 PUSH2 0x4755 SWAP3 PUSH1 0x0 DUP1 MLOAD PUSH1 0x20 PUSH2 0x57FF DUP4 CODECOPY DUP2 MLOAD SWAP2 MSTORE SWAP7 PUSH1 0x60 SWAP7 PUSH2 0x472E DUP6 PUSH2 0x4729 DUP10 PUSH2 0x41FB JUMP JUMPDEST PUSH2 0x447C JUMP JUMPDEST POP PUSH4 0x5000000 PUSH4 0xFF000000 NOT DUP3 SLOAD AND OR SWAP1 SSTORE PUSH1 0xC TIMESTAMP SWAP2 ADD SSTORE PUSH1 0x5 DUP2 MSTORE PUSH1 0xA PUSH1 0x20 MSTORE KECCAK256 PUSH2 0x4318 JUMP JUMPDEST POP PUSH2 0x4763 PUSH1 0x40 MLOAD DUP1 SWAP3 PUSH2 0x39B5 JUMP JUMPDEST PUSH1 0x5 PUSH1 0x20 DUP3 ADD MSTORE TIMESTAMP PUSH1 0x40 DUP3 ADD MSTORE LOG2 JUMP JUMPDEST PUSH1 0x0 DUP2 DUP2 MSTORE PUSH1 0x5 PUSH1 0x20 MSTORE PUSH1 0x40 DUP2 KECCAK256 SWAP1 PUSH1 0x7 DUP3 ADD SWAP1 PUSH1 0xFF DUP3 SLOAD PUSH1 0x18 SHR AND SWAP1 PUSH1 0x7 DUP3 LT ISZERO PUSH2 0x46A4 JUMPI PUSH1 0x2 DUP3 EQ PUSH2 0x46C1 JUMPI DUP5 PUSH1 0x40 PUSH2 0x47EF SWAP3 PUSH1 0x0 DUP1 MLOAD PUSH1 0x20 PUSH2 0x57FF DUP4 CODECOPY DUP2 MLOAD SWAP2 MSTORE SWAP7 PUSH1 0x60 SWAP7 PUSH2 0x47C8 DUP6 PUSH2 0x4729 DUP10 PUSH2 0x41FB JUMP JUMPDEST POP PUSH4 0x2000000 PUSH4 0xFF000000 NOT DUP3 SLOAD AND OR SWAP1 SSTORE PUSH1 0xC TIMESTAMP SWAP2 ADD SSTORE PUSH1 0x2 DUP2 MSTORE PUSH1 0xA PUSH1 0x20 MSTORE KECCAK256 PUSH2 0x4318 JUMP JUMPDEST POP PUSH2 0x47FD PUSH1 0x40 MLOAD DUP1 SWAP3 PUSH2 0x39B5 JUMP JUMPDEST PUSH1 0x2 PUSH1 0x20 DUP3 ADD MSTORE TIMESTAMP PUSH1 0x40 DUP3 ADD MSTORE LOG2 JUMP JUMPDEST PUSH1 0x0 DUP2 DUP2 MSTORE PUSH1 0x5 PUSH1 0x20 MSTORE PUSH1 0x40 DUP2 KECCAK256 SWAP1 PUSH1 0x7 DUP3 ADD SWAP1 PUSH1 0xFF DUP3 SLOAD PUSH1 0x18 SHR AND SWAP1 PUSH1 0x7 DUP3 LT ISZERO PUSH2 0x46A4 JUMPI PUSH1 0x4 DUP3 EQ PUSH2 0x46C1 JUMPI DUP5 PUSH1 0x40 PUSH2 0x4889 SWAP3 PUSH1 0x0 DUP1 MLOAD PUSH1 0x20 PUSH2 0x57FF DUP4 CODECOPY DUP2 MLOAD SWAP2 MSTORE SWAP7 PUSH1 0x60 SWAP7 PUSH2 0x4862 DUP6 PUSH2 0x4729 DUP10 PUSH2 0x41FB JUMP JUMPDEST POP PUSH4 0x4000000 PUSH4 0xFF000000 NOT DUP3 SLOAD AND OR SWAP1 SSTORE PUSH1 0xC TIMESTAMP SWAP2 ADD SSTORE PUSH1 0x4 DUP2 MSTORE PUSH1 0xA PUSH1 0x20 MSTORE KECCAK256 PUSH2 0x4318 JUMP JUMPDEST POP PUSH2 0x4897 PUSH1 0x40 MLOAD DUP1 SWAP3 PUSH2 0x39B5 JUMP JUMPDEST PUSH1 0x4 PUSH1 0x20 DUP3 ADD MSTORE TIMESTAMP PUSH1 0x40 DUP3 ADD MSTORE LOG2 JUMP JUMPDEST PUSH1 0x0 DUP2 DUP2 MSTORE PUSH1 0x5 PUSH1 0x20 MSTORE PUSH1 0x40 DUP2 KECCAK256 SWAP1 PUSH1 0x7 DUP3 ADD SWAP1 PUSH1 0xFF DUP3 SLOAD PUSH1 0x18 SHR AND SWAP1 PUSH1 0x7 DUP3 LT ISZERO PUSH2 0x46A4 JUMPI PUSH1 0x3 DUP3 EQ PUSH2 0x46C1 JUMPI DUP5 PUSH1 0x40 PUSH2 0x4923 SWAP3 PUSH1 0x0 DUP1 MLOAD PUSH1 0x20 PUSH2 0x57FF DUP4 CODECOPY DUP2 MLOAD SWAP2 MSTORE SWAP7 PUSH1 0x60 SWAP7 PUSH2 0x48FC DUP6 PUSH2 0x4729 DUP10 PUSH2 0x41FB JUMP JUMPDEST POP PUSH4 0x3000000 PUSH4 0xFF000000 NOT DUP3 SLOAD AND OR SWAP1 SSTORE PUSH1 0xC TIMESTAMP SWAP2 ADD SSTORE PUSH1 0x3 DUP2 MSTORE PUSH1 0xA PUSH1 0x20 MSTORE KECCAK256 PUSH2 0x4318 JUMP JUMPDEST POP PUSH2 0x4931 PUSH1 0x40 MLOAD DUP1 SWAP3 PUSH2 0x39B5 JUMP JUMPDEST PUSH1 0x3 PUSH1 0x20 DUP3 ADD MSTORE TIMESTAMP PUSH1 0x40 DUP3 ADD MSTORE LOG2 JUMP JUMPDEST PUSH1 0x0 DUP2 DUP2 MSTORE PUSH1 0x5 PUSH1 0x20 MSTORE PUSH1 0x40 DUP2 KECCAK256 SWAP1 PUSH1 0x7 DUP3 ADD SWAP1 PUSH1 0xFF DUP3 SLOAD PUSH1 0x18 SHR AND SWAP1 PUSH1 0x7 DUP3 LT ISZERO PUSH2 0x46A4 JUMPI PUSH1 0x1 DUP3 EQ PUSH2 0x46C1 JUMPI DUP5 PUSH1 0x40 PUSH2 0x49BD SWAP3 PUSH1 0x0 DUP1 MLOAD PUSH1 0x20 PUSH2 0x57FF DUP4 CODECOPY DUP2 MLOAD SWAP2 MSTORE SWAP7 PUSH1 0x60 SWAP7 PUSH2 0x4996 DUP6 PUSH2 0x4729 DUP10 PUSH2 0x41FB JUMP JUMPDEST POP PUSH4 0x1000000 PUSH4 0xFF000000 NOT DUP3 SLOAD AND OR SWAP1 SSTORE PUSH1 0xC TIMESTAMP SWAP2 ADD SSTORE PUSH1 0x1 DUP2 MSTORE PUSH1 0xA PUSH1 0x20 MSTORE KECCAK256 PUSH2 0x4318 JUMP JUMPDEST POP PUSH2 0x49CB PUSH1 0x40 MLOAD DUP1 SWAP3 PUSH2 0x39B5 JUMP JUMPDEST PUSH1 0x1 PUSH1 0x20 DUP3 ADD MSTORE TIMESTAMP PUSH1 0x40 DUP3 ADD MSTORE LOG2 JUMP JUMPDEST SWAP1 PUSH1 0x0 DUP3 DUP2 MSTORE PUSH1 0x5 PUSH1 0x20 MSTORE PUSH1 0x40 DUP2 KECCAK256 SWAP1 PUSH1 0x7 DUP3 ADD PUSH1 0xFF DUP2 SLOAD PUSH1 0x18 SHR AND SWAP2 PUSH1 0x7 DUP6 LT ISZERO PUSH2 0x46A4 JUMPI PUSH1 0x7 DUP4 LT ISZERO PUSH2 0x46A4 JUMPI POP DUP4 DUP3 EQ PUSH2 0x46C1 JUMPI PUSH1 0x0 DUP1 MLOAD PUSH1 0x20 PUSH2 0x57FF DUP4 CODECOPY DUP2 MLOAD SWAP2 MSTORE SWAP4 PUSH1 0x60 SWAP4 PUSH2 0x4A7E SWAP3 PUSH2 0x4A36 DUP9 PUSH2 0x4729 DUP8 PUSH2 0x41FB JUMP JUMPDEST POP DUP1 SLOAD PUSH4 0xFF000000 DUP5 PUSH1 0x18 SHL AND SWAP1 PUSH4 0xFF000000 NOT AND OR SWAP1 SSTORE PUSH1 0xC TIMESTAMP SWAP2 ADD SSTORE PUSH2 0x4A66 DUP7 PUSH2 0x4A61 DUP4 PUSH2 0x41FB JUMP JUMPDEST PUSH2 0x4318 JUMP JUMPDEST POP PUSH2 0x4A74 PUSH1 0x40 MLOAD DUP1 SWAP5 PUSH2 0x39B5 JUMP JUMPDEST PUSH1 0x20 DUP4 ADD SWAP1 PUSH2 0x39B5 JUMP JUMPDEST TIMESTAMP PUSH1 0x40 DUP3 ADD MSTORE LOG2 JUMP JUMPDEST DUP1 PUSH1 0x0 MSTORE PUSH1 0x5 PUSH1 0x20 MSTORE PUSH1 0x40 PUSH1 0x0 KECCAK256 PUSH1 0x9 DUP2 ADD SLOAD TIMESTAMP LT PUSH2 0x4B2F JUMPI PUSH1 0xFF PUSH1 0x7 DUP3 ADD SLOAD PUSH1 0x18 SHR AND PUSH1 0x7 DUP2 LT ISZERO PUSH2 0x9F1 JUMPI PUSH1 0x1 SUB PUSH2 0x4B2F JUMPI PUSH2 0x4AC4 DUP3 PUSH2 0x51A2 JUMP JUMPDEST POP POP POP POP PUSH1 0x0 EQ PUSH2 0x4B23 JUMPI PUSH1 0x40 DUP2 PUSH1 0xA PUSH2 0x4B06 DUP4 PUSH2 0x1914 PUSH1 0x2 PUSH32 0xA41177828E45756AF65C61FECE09DDDF5390F789CFD1C43577AEC3B6B390534F SWAP8 ADD SLOAD PUSH2 0x4D46 JUMP JUMPDEST SWAP2 ADD SWAP1 DUP2 SSTORE PUSH2 0x4B14 DUP5 PUSH2 0x4773 JUMP JUMPDEST SLOAD DUP2 MLOAD SWAP1 DUP2 MSTORE TIMESTAMP PUSH1 0x20 DUP3 ADD MSTORE LOG2 JUMP JUMPDEST POP PUSH2 0x4B2D SWAP1 PUSH2 0x480D JUMP JUMPDEST JUMP JUMPDEST POP POP JUMP JUMPDEST SWAP1 DUP2 PUSH1 0x20 SWAP2 SUB SLT PUSH2 0x351 JUMPI MLOAD DUP1 ISZERO ISZERO DUP2 SUB PUSH2 0x351 JUMPI SWAP1 JUMP JUMPDEST PUSH1 0x1 PUSH1 0x1 PUSH1 0xA0 SHL SUB PUSH2 0x4B5B PUSH2 0x4BE7 JUMP JUMPDEST AND DUP1 ISZERO PUSH2 0x4BCE JUMPI PUSH1 0x20 PUSH1 0x24 SWAP2 PUSH1 0x40 MLOAD SWAP3 DUP4 DUP1 SWAP3 PUSH4 0x3BF0DC01 PUSH1 0xE2 SHL DUP3 MSTORE DUP7 PUSH1 0x4 DUP4 ADD MSTORE GAS STATICCALL SWAP1 DUP2 ISZERO PUSH2 0x7B8 JUMPI PUSH1 0x0 SWAP2 PUSH2 0x4BB0 JUMPI JUMPDEST POP ISZERO PUSH2 0x4B98 JUMPI POP JUMP JUMPDEST PUSH1 0x24 SWAP1 PUSH1 0x40 MLOAD SWAP1 PUSH4 0xF708DFA7 PUSH1 0xE0 SHL DUP3 MSTORE PUSH1 0x4 DUP3 ADD MSTORE REVERT JUMPDEST PUSH2 0x4BC8 SWAP2 POP PUSH1 0x20 RETURNDATASIZE DUP2 GT PUSH2 0x3656 JUMPI PUSH2 0x3648 DUP2 DUP4 PUSH2 0x388A JUMP JUMPDEST CODESIZE PUSH2 0x4B8F JUMP JUMPDEST PUSH1 0x40 MLOAD PUSH4 0xF708DFA7 PUSH1 0xE0 SHL DUP2 MSTORE PUSH1 0x4 DUP2 ADD DUP4 SWAP1 MSTORE PUSH1 0x24 SWAP1 REVERT JUMPDEST PUSH1 0x3 SLOAD PUSH1 0xFF DUP2 PUSH1 0xA0 SHR AND ISZERO PUSH2 0x414 JUMPI PUSH1 0x40 MLOAD PUSH4 0x85ACD641 PUSH1 0xE0 SHL DUP2 MSTORE PUSH32 0xBDDED29A54E6A5D6169BEDEA55373B06F57E35D7B0F67AC187565B435E2CC943 PUSH1 0x4 DUP3 ADD MSTORE SWAP1 PUSH1 0x20 SWAP1 DUP3 SWAP1 PUSH1 0x24 SWAP1 DUP3 SWAP1 PUSH1 0x1 PUSH1 0x1 PUSH1 0xA0 SHL SUB AND GAS STATICCALL SWAP1 DUP2 ISZERO PUSH2 0x7B8 JUMPI PUSH1 0x0 SWAP2 PUSH2 0x4C51 JUMPI POP SWAP1 JUMP JUMPDEST PUSH2 0x3918 SWAP2 POP PUSH1 0x20 RETURNDATASIZE DUP2 GT PUSH2 0x7B1 JUMPI PUSH2 0x7A2 DUP2 DUP4 PUSH2 0x388A JUMP JUMPDEST PUSH1 0x3 SLOAD PUSH1 0xFF DUP2 PUSH1 0xA0 SHR AND ISZERO PUSH2 0x414 JUMPI PUSH1 0x40 MLOAD PUSH4 0x85ACD641 PUSH1 0xE0 SHL DUP2 MSTORE PUSH32 0x22D7411A7F580429BDBDA078568D1A64350DEA337296E4FD855167B7E412B946 PUSH1 0x4 DUP3 ADD MSTORE SWAP1 PUSH1 0x20 SWAP1 DUP3 SWAP1 PUSH1 0x24 SWAP1 DUP3 SWAP1 PUSH1 0x1 PUSH1 0x1 PUSH1 0xA0 SHL SUB AND GAS STATICCALL SWAP1 DUP2 ISZERO PUSH2 0x7B8 JUMPI PUSH1 0x0 SWAP2 PUSH2 0x4C51 JUMPI POP SWAP1 JUMP JUMPDEST PUSH1 0x40 MLOAD SWAP1 PUSH2 0x4CE0 DUP3 PUSH2 0x3854 JUMP JUMPDEST DUP2 PUSH1 0xA0 PUSH1 0x0 SWAP2 DUP3 DUP2 MSTORE DUP3 PUSH1 0x20 DUP3 ADD MSTORE DUP3 PUSH1 0x40 DUP3 ADD MSTORE DUP3 PUSH1 0x60 DUP3 ADD MSTORE DUP3 PUSH1 0x80 DUP3 ADD MSTORE ADD MSTORE JUMP JUMPDEST PUSH1 0x40 MLOAD SWAP1 PUSH2 0x4D12 DUP3 PUSH2 0x3854 JUMP JUMPDEST PUSH1 0x11 SLOAD DUP3 MSTORE PUSH1 0x12 SLOAD PUSH1 0x20 DUP4 ADD MSTORE PUSH1 0x13 SLOAD PUSH1 0x40 DUP4 ADD MSTORE PUSH1 0x14 SLOAD PUSH1 0x60 DUP4 ADD MSTORE PUSH1 0x15 SLOAD PUSH1 0x80 DUP4 ADD MSTORE PUSH1 0x16 SLOAD PUSH1 0xFF AND ISZERO ISZERO PUSH1 0xA0 DUP4 ADD MSTORE JUMP JUMPDEST PUSH2 0x4D4E PUSH2 0x4CD3 JUMP JUMPDEST POP PUSH1 0x0 MSTORE PUSH1 0x8 PUSH1 0x20 MSTORE PUSH1 0x40 PUSH1 0x0 KECCAK256 PUSH1 0x40 MLOAD SWAP1 PUSH2 0x4D69 DUP3 PUSH2 0x3854 JUMP JUMPDEST DUP1 SLOAD DUP3 MSTORE PUSH1 0xFF PUSH1 0x5 PUSH1 0x1 DUP4 ADD SLOAD SWAP3 DUP4 PUSH1 0x20 DUP7 ADD MSTORE PUSH1 0x2 DUP2 ADD SLOAD PUSH1 0x40 DUP7 ADD MSTORE PUSH1 0x3 DUP2 ADD SLOAD PUSH1 0x60 DUP7 ADD MSTORE PUSH1 0x4 DUP2 ADD SLOAD PUSH1 0x80 DUP7 ADD MSTORE ADD SLOAD AND ISZERO ISZERO PUSH1 0xA0 DUP4 ADD MSTORE ISZERO PUSH2 0x4DAD JUMPI SWAP1 JUMP JUMPDEST POP PUSH2 0x3918 PUSH2 0x4D05 JUMP JUMPDEST SWAP1 SWAP2 PUSH2 0x4DC1 DUP2 PUSH2 0x39AB JUMP JUMPDEST DUP1 PUSH2 0x4E59 JUMPI POP PUSH1 0x1 PUSH1 0x1 PUSH1 0xA0 SHL SUB PUSH2 0x4DD7 PUSH2 0x4BE7 JUMP JUMPDEST AND SWAP2 DUP3 ISZERO PUSH2 0x4E51 JUMPI PUSH1 0x40 MLOAD PUSH4 0xF385BFC9 PUSH1 0xE0 SHL DUP2 MSTORE PUSH1 0x4 DUP2 ADD SWAP3 SWAP1 SWAP3 MSTORE PUSH1 0x1 PUSH1 0x1 PUSH1 0xA0 SHL SUB AND PUSH1 0x24 DUP3 ADD MSTORE SWAP1 PUSH1 0x20 SWAP1 DUP3 SWAP1 PUSH1 0x44 SWAP1 DUP3 SWAP1 GAS STATICCALL SWAP1 DUP2 ISZERO PUSH2 0x7B8 JUMPI PUSH1 0x0 SWAP2 PUSH2 0x4E33 JUMPI JUMPDEST POP PUSH1 0x0 SWAP1 ISZERO PUSH2 0x4E2D JUMPI POP PUSH1 0x1 SWAP1 JUMP JUMPDEST PUSH1 0xFF AND SWAP1 JUMP JUMPDEST PUSH2 0x4E4B SWAP2 POP PUSH1 0x20 RETURNDATASIZE DUP2 GT PUSH2 0x3656 JUMPI PUSH2 0x3648 DUP2 DUP4 PUSH2 0x388A JUMP JUMPDEST CODESIZE PUSH2 0x4E1E JUMP JUMPDEST POP POP POP PUSH1 0x0 SWAP1 JUMP JUMPDEST PUSH2 0x4E62 DUP2 PUSH2 0x39AB JUMP JUMPDEST PUSH1 0x1 DUP2 SUB PUSH2 0x4EE9 JUMPI POP PUSH1 0x1 PUSH1 0x1 PUSH1 0xA0 SHL SUB SWAP2 SWAP1 POP DUP2 PUSH2 0x4E7F PUSH2 0x4C69 JUMP JUMPDEST AND SWAP2 DUP3 ISZERO PUSH2 0x4E51 JUMPI PUSH1 0x24 PUSH1 0x20 SWAP3 PUSH1 0x40 MLOAD SWAP5 DUP6 SWAP4 DUP5 SWAP3 PUSH4 0xDD2A8B11 PUSH1 0xE0 SHL DUP5 MSTORE AND PUSH1 0x4 DUP4 ADD MSTORE GAS STATICCALL SWAP1 DUP2 ISZERO PUSH2 0x7B8 JUMPI PUSH1 0x0 SWAP2 PUSH2 0x4EB8 JUMPI POP SWAP1 JUMP JUMPDEST SWAP1 PUSH1 0x20 DUP3 RETURNDATASIZE DUP3 GT PUSH2 0x4EE1 JUMPI JUMPDEST DUP2 PUSH2 0x4ED1 PUSH1 0x20 SWAP4 DUP4 PUSH2 0x388A JUMP JUMPDEST DUP2 ADD SUB SLT PUSH2 0x4EDE JUMPI POP MLOAD SWAP1 JUMP JUMPDEST DUP1 REVERT JUMPDEST RETURNDATASIZE SWAP2 POP PUSH2 0x4EC4 JUMP JUMPDEST DUP1 PUSH2 0x4EF5 PUSH1 0x2 SWAP3 PUSH2 0x39AB JUMP JUMPDEST SUB PUSH2 0x4F8C JUMPI POP PUSH1 0x1 PUSH1 0x1 PUSH1 0xA0 SHL SUB SWAP1 DUP2 PUSH2 0x4F0D PUSH2 0x4C69 JUMP JUMPDEST AND SWAP2 DUP3 ISZERO PUSH2 0x4E51 JUMPI PUSH1 0x24 PUSH1 0x20 SWAP3 PUSH1 0x40 MLOAD SWAP5 DUP6 SWAP4 DUP5 SWAP3 PUSH4 0xDD2A8B11 PUSH1 0xE0 SHL DUP5 MSTORE AND PUSH1 0x4 DUP4 ADD MSTORE GAS STATICCALL SWAP1 DUP2 ISZERO PUSH2 0x7B8 JUMPI PUSH1 0x0 SWAP2 PUSH2 0x4F5B JUMPI JUMPDEST POP PUSH1 0x0 SWAP1 DUP1 ISZERO PUSH2 0x4F57 JUMPI PUSH2 0x3918 SWAP2 POP PUSH2 0x4F9C JUMP JUMPDEST POP SWAP1 JUMP JUMPDEST SWAP1 PUSH1 0x20 DUP3 RETURNDATASIZE DUP3 GT PUSH2 0x4F84 JUMPI JUMPDEST DUP2 PUSH2 0x4F74 PUSH1 0x20 SWAP4 DUP4 PUSH2 0x388A JUMP JUMPDEST DUP2 ADD SUB SLT PUSH2 0x4EDE JUMPI POP MLOAD CODESIZE PUSH2 0x4F43 JUMP JUMPDEST RETURNDATASIZE SWAP2 POP PUSH2 0x4F67 JUMP JUMPDEST PUSH1 0x1 PUSH1 0x1 PUSH1 0xA0 SHL SUB PUSH2 0x4DD7 PUSH2 0x4BE7 JUMP JUMPDEST DUP1 ISZERO PUSH2 0x50D4 JUMPI PUSH2 0x5067 DUP2 PUSH1 0x0 SWAP1 DUP4 PUSH1 0x80 SHR DUP1 PUSH2 0x50C8 JUMPI JUMPDEST POP DUP1 PUSH1 0x40 SHR DUP1 PUSH2 0x50BB JUMPI JUMPDEST POP DUP1 PUSH1 0x20 SHR DUP1 PUSH2 0x50AE JUMPI JUMPDEST POP DUP1 PUSH1 0x10 SHR DUP1 PUSH2 0x50A1 JUMPI JUMPDEST POP DUP1 PUSH1 0x8 SHR DUP1 PUSH2 0x5094 JUMPI JUMPDEST POP DUP1 PUSH1 0x4 SHR DUP1 PUSH2 0x5087 JUMPI JUMPDEST POP DUP1 PUSH1 0x2 SHR DUP1 PUSH2 0x507A JUMPI JUMPDEST POP PUSH1 0x1 SWAP2 DUP3 DUP1 SWAP3 DUP2 SHR PUSH2 0x5073 JUMPI JUMPDEST SHR SHL PUSH2 0x500F DUP2 DUP6 PUSH2 0x439D JUMP JUMPDEST ADD DUP2 SHR PUSH2 0x501C DUP2 DUP6 PUSH2 0x439D JUMP JUMPDEST ADD DUP2 SHR PUSH2 0x5029 DUP2 DUP6 PUSH2 0x439D JUMP JUMPDEST ADD DUP2 SHR PUSH2 0x5036 DUP2 DUP6 PUSH2 0x439D JUMP JUMPDEST ADD DUP2 SHR PUSH2 0x5043 DUP2 DUP6 PUSH2 0x439D JUMP JUMPDEST ADD DUP2 SHR PUSH2 0x5050 DUP2 DUP6 PUSH2 0x439D JUMP JUMPDEST ADD DUP2 SHR PUSH2 0x505D DUP2 DUP6 PUSH2 0x439D JUMP JUMPDEST ADD SWAP1 SHR DUP1 SWAP3 PUSH2 0x439D JUMP JUMPDEST DUP1 DUP3 LT ISZERO PUSH2 0x4313 JUMPI POP SWAP1 JUMP JUMPDEST ADD DUP2 PUSH2 0x5003 JUMP JUMPDEST PUSH1 0x2 SWAP2 POP SWAP2 ADD SWAP1 CODESIZE PUSH2 0x4FF5 JUMP JUMPDEST PUSH1 0x4 SWAP2 POP SWAP2 ADD SWAP1 CODESIZE PUSH2 0x4FEA JUMP JUMPDEST PUSH1 0x8 SWAP2 POP SWAP2 ADD SWAP1 CODESIZE PUSH2 0x4FDF JUMP JUMPDEST PUSH1 0x10 SWAP2 POP SWAP2 ADD SWAP1 CODESIZE PUSH2 0x4FD4 JUMP JUMPDEST PUSH1 0x20 SWAP2 POP SWAP2 ADD SWAP1 CODESIZE PUSH2 0x4FC9 JUMP JUMPDEST PUSH1 0x40 SWAP2 POP SWAP2 ADD SWAP1 CODESIZE PUSH2 0x4FBE JUMP JUMPDEST SWAP2 POP POP PUSH1 0x80 SWAP1 CODESIZE PUSH2 0x4FB3 JUMP JUMPDEST POP PUSH1 0x0 SWAP1 JUMP JUMPDEST PUSH1 0x1 PUSH1 0x1 PUSH1 0xA0 SHL SUB PUSH2 0x50EA PUSH2 0x4BE7 JUMP JUMPDEST AND SWAP1 DUP2 ISZERO PUSH2 0x5163 JUMPI PUSH1 0x20 SWAP1 PUSH1 0x24 PUSH1 0x40 MLOAD DUP1 SWAP5 DUP2 SWAP4 PUSH4 0x127E6D7B PUSH1 0xE3 SHL DUP4 MSTORE PUSH1 0x4 DUP4 ADD MSTORE GAS STATICCALL SWAP1 DUP2 ISZERO PUSH2 0x7B8 JUMPI PUSH1 0x0 SWAP2 PUSH2 0x5130 JUMPI JUMPDEST POP PUSH2 0x2710 SWAP2 PUSH2 0x512C SWAP2 PUSH2 0x3F10 JUMP JUMPDEST DIV SWAP1 JUMP JUMPDEST SWAP1 PUSH1 0x20 DUP3 RETURNDATASIZE DUP3 GT PUSH2 0x515B JUMPI JUMPDEST DUP2 PUSH2 0x5149 PUSH1 0x20 SWAP4 DUP4 PUSH2 0x388A JUMP JUMPDEST DUP2 ADD SUB SLT PUSH2 0x4EDE JUMPI POP MLOAD PUSH2 0x2710 PUSH2 0x511E JUMP JUMPDEST RETURNDATASIZE SWAP2 POP PUSH2 0x513C JUMP JUMPDEST POP POP POP PUSH1 0x1 SWAP1 JUMP JUMPDEST DUP1 ISZERO PUSH2 0x519B JUMPI PUSH3 0x15180 SWAP1 DIV PUSH2 0x3E8 SWAP1 DUP2 DUP2 MUL SWAP2 DUP2 DUP4 DIV EQ SWAP1 ISZERO OR ISZERO PUSH2 0x11F4 JUMPI PUSH2 0x2710 SWAP1 DUP2 ADD DUP1 SWAP2 GT PUSH2 0x11F4 JUMPI SWAP1 JUMP JUMPDEST POP PUSH2 0x2710 SWAP1 JUMP JUMPDEST PUSH1 0x0 SWAP1 PUSH1 0x0 DUP1 SWAP2 DUP2 MSTORE PUSH1 0x20 SWAP2 PUSH1 0x5 DUP4 MSTORE PUSH1 0x40 DUP3 KECCAK256 SWAP2 PUSH1 0x10 DUP4 ADD SLOAD SWAP5 PUSH1 0x11 DUP5 ADD SLOAD SWAP5 PUSH1 0x12 DUP6 ADD SLOAD SWAP5 PUSH2 0x51DC DUP7 PUSH2 0x51D7 DUP10 DUP12 PUSH2 0x3F23 JUMP JUMPDEST PUSH2 0x3F23 JUMP JUMPDEST PUSH1 0x1 PUSH1 0x1 PUSH1 0xA0 SHL SUB SWAP1 DUP2 PUSH2 0x51EE PUSH2 0x4BE7 JUMP JUMPDEST AND SWAP1 DUP2 PUSH2 0x5384 JUMPI JUMPDEST POP POP PUSH1 0xF DUP3 ADD SLOAD DUP7 LT ISZERO PUSH2 0x520B JUMPI POP POP POP POP SWAP5 JUMP JUMPDEST PUSH1 0xFF PUSH1 0x7 DUP4 SWAP5 SWAP6 SWAP7 SWAP4 ADD SLOAD PUSH1 0x8 SHR AND PUSH2 0x5223 DUP2 PUSH2 0x39AB JUMP JUMPDEST DUP1 PUSH2 0x5234 JUMPI POP POP POP POP POP POP DUP3 DUP5 GT SWAP5 JUMP JUMPDEST PUSH2 0x5240 DUP2 SWAP12 SWAP7 SWAP12 PUSH2 0x39AB JUMP JUMPDEST PUSH1 0x1 DUP2 SUB PUSH2 0x52E3 JUMPI POP PUSH2 0x5251 PUSH2 0x4BE7 JUMP JUMPDEST AND SWAP2 DUP3 PUSH2 0x525E JUMPI POP POP POP POP JUMP JUMPDEST DUP4 SWAP5 SWAP10 POP PUSH1 0x2 SWAP1 SWAP4 SWAP2 SWAP3 SWAP4 ADD SLOAD PUSH1 0x24 PUSH1 0x40 MLOAD DUP1 SWAP6 DUP2 SWAP4 PUSH4 0x127E6D7B PUSH1 0xE3 SHL DUP4 MSTORE PUSH1 0x4 DUP4 ADD MSTORE GAS STATICCALL SWAP3 DUP4 ISZERO PUSH2 0x52D6 JUMPI DUP2 SWAP4 PUSH2 0x52A5 JUMPI JUMPDEST POP POP POP PUSH1 0x1 SHR DUP5 GT SWAP5 CODESIZE DUP1 DUP1 DUP1 PUSH2 0x40CC JUMP JUMPDEST SWAP1 SWAP2 DUP1 SWAP4 POP DUP2 RETURNDATASIZE DUP4 GT PUSH2 0x52CF JUMPI JUMPDEST PUSH2 0x52BD DUP2 DUP4 PUSH2 0x388A JUMP JUMPDEST DUP2 ADD SUB SLT PUSH2 0x4EDE JUMPI POP MLOAD CODESIZE DUP1 DUP1 PUSH2 0x5293 JUMP JUMPDEST POP RETURNDATASIZE PUSH2 0x52B3 JUMP JUMPDEST POP PUSH1 0x40 MLOAD SWAP1 RETURNDATASIZE SWAP1 DUP3 RETURNDATACOPY RETURNDATASIZE SWAP1 REVERT JUMPDEST SWAP3 POP POP SWAP3 SWAP8 SWAP2 POP PUSH2 0x52F3 DUP2 PUSH2 0x39AB JUMP JUMPDEST PUSH1 0x2 DUP2 SUB PUSH2 0x535D JUMPI POP POP PUSH2 0x5307 DUP5 DUP7 PUSH2 0x3F23 JUMP JUMPDEST DUP1 ISZERO DUP1 ISZERO SWAP3 DUP4 PUSH2 0x5318 JUMPI JUMPDEST POP POP POP SWAP5 JUMP JUMPDEST SWAP1 SWAP2 SWAP3 POP PUSH1 0x3 DUP8 MUL SWAP2 DUP8 DUP4 DIV PUSH1 0x3 EQ DUP9 ISZERO OR ISZERO PUSH2 0x3C11 JUMPI DUP4 PUSH1 0x1 SHL SWAP4 DUP5 DIV PUSH1 0x2 EQ OR ISZERO PUSH2 0x5349 JUMPI POP GT CODESIZE DUP1 DUP1 PUSH2 0x5312 JUMP JUMPDEST PUSH4 0x4E487B71 PUSH1 0xE0 SHL DUP2 MSTORE PUSH1 0x11 PUSH1 0x4 MSTORE PUSH1 0x24 SWAP1 REVERT JUMPDEST PUSH1 0x3 SWAP2 SWAP8 SWAP3 POP PUSH2 0x536C DUP2 PUSH2 0x39AB JUMP JUMPDEST SUB PUSH2 0x4B2D JUMPI SWAP5 POP DUP3 ISZERO DUP1 PUSH2 0x537D JUMPI SWAP5 JUMP JUMPDEST POP DUP4 ISZERO ISZERO SWAP5 JUMP JUMPDEST SWAP1 SWAP2 SWAP7 POP DUP4 PUSH1 0x2 DUP5 ADD SLOAD PUSH1 0x24 PUSH1 0x40 MLOAD DUP1 SWAP6 DUP2 SWAP4 PUSH4 0x127E6D7B PUSH1 0xE3 SHL DUP4 MSTORE PUSH1 0x4 DUP4 ADD MSTORE GAS STATICCALL SWAP2 DUP3 ISZERO PUSH2 0x5432 JUMPI DUP7 SWAP3 PUSH2 0x53FF JUMPI JUMPDEST POP DUP2 ISZERO PUSH2 0x53F7 JUMPI PUSH2 0x2710 SWAP1 DUP2 DUP2 MUL SWAP2 DUP2 DUP4 DIV EQ SWAP1 ISZERO OR ISZERO PUSH2 0x53E3 JUMPI SWAP1 PUSH2 0x53DB SWAP2 PUSH2 0x439D JUMP JUMPDEST SWAP5 CODESIZE DUP1 PUSH2 0x51F6 JUMP JUMPDEST PUSH4 0x4E487B71 PUSH1 0xE0 SHL DUP7 MSTORE PUSH1 0x11 PUSH1 0x4 MSTORE PUSH1 0x24 DUP7 REVERT JUMPDEST POP POP DUP4 PUSH2 0x53DB JUMP JUMPDEST SWAP1 SWAP2 POP DUP4 DUP2 DUP2 RETURNDATASIZE DUP4 GT PUSH2 0x542B JUMPI JUMPDEST PUSH2 0x5417 DUP2 DUP4 PUSH2 0x388A JUMP JUMPDEST DUP2 ADD SUB SLT PUSH2 0x5427 JUMPI MLOAD SWAP1 CODESIZE PUSH2 0x53B6 JUMP JUMPDEST DUP6 DUP1 REVERT JUMPDEST POP RETURNDATASIZE PUSH2 0x540D JUMP JUMPDEST PUSH1 0x40 MLOAD RETURNDATASIZE DUP9 DUP3 RETURNDATACOPY RETURNDATASIZE SWAP1 REVERT JUMPDEST PUSH1 0x40 MLOAD SWAP1 PUSH2 0x544A DUP3 PUSH2 0x3854 JUMP JUMPDEST PUSH1 0x0 PUSH1 0xA0 DUP4 DUP3 DUP2 MSTORE DUP3 PUSH1 0x20 DUP3 ADD MSTORE DUP3 PUSH1 0x40 DUP3 ADD MSTORE DUP3 PUSH1 0x60 DUP3 ADD MSTORE PUSH1 0x60 PUSH1 0x80 DUP3 ADD MSTORE ADD MSTORE JUMP JUMPDEST PUSH1 0x1 PUSH1 0x1 PUSH1 0x40 SHL SUB DUP2 GT PUSH2 0x119B JUMPI PUSH1 0x5 SHL PUSH1 0x20 ADD SWAP1 JUMP JUMPDEST DUP1 MLOAD DUP3 LT ISZERO PUSH2 0x3F41 JUMPI PUSH1 0x20 SWAP2 PUSH1 0x5 SHL ADD ADD SWAP1 JUMP JUMPDEST SWAP1 PUSH1 0x40 MLOAD SWAP2 DUP3 DUP2 SLOAD SWAP2 DUP3 DUP3 MSTORE PUSH1 0x20 SWAP3 DUP4 DUP4 ADD SWAP2 PUSH1 0x0 MSTORE DUP4 PUSH1 0x0 KECCAK256 SWAP4 PUSH1 0x0 SWAP1 JUMPDEST DUP3 DUP3 LT PUSH2 0x54CF JUMPI POP POP POP PUSH2 0x4B2D SWAP3 POP SUB DUP4 PUSH2 0x388A JUMP JUMPDEST DUP6 SLOAD DUP5 MSTORE PUSH1 0x1 SWAP6 DUP7 ADD SWAP6 DUP9 SWAP6 POP SWAP4 DUP2 ADD SWAP4 SWAP1 SWAP2 ADD SWAP1 PUSH2 0x54B9 JUMP JUMPDEST PUSH1 0x0 DUP2 DUP2 MSTORE PUSH1 0x5 PUSH1 0x20 MSTORE PUSH1 0x40 DUP2 KECCAK256 PUSH1 0x3 DUP2 ADD SLOAD SWAP1 SWAP4 SWAP2 SWAP1 PUSH1 0x1 PUSH1 0x1 PUSH1 0xA0 SHL SUB SWAP1 DUP2 AND ISZERO PUSH2 0x55BD JUMPI PUSH1 0x7 DUP6 ADD SLOAD SWAP4 PUSH1 0xFF DUP6 PUSH1 0x18 SHR AND PUSH1 0x7 DUP2 LT ISZERO PUSH2 0x55A9 JUMPI PUSH1 0x1 DUP2 EQ ISZERO SWAP1 DUP2 PUSH2 0x559F JUMPI JUMPDEST POP PUSH2 0x5588 JUMPI PUSH1 0x8 DUP7 ADD SLOAD TIMESTAMP LT DUP1 ISZERO PUSH2 0x5591 JUMPI JUMPDEST PUSH2 0x5588 JUMPI DUP3 MSTORE PUSH1 0x6 PUSH1 0x20 MSTORE PUSH1 0x40 DUP3 KECCAK256 DUP2 DUP5 AND DUP4 MSTORE PUSH1 0x20 MSTORE PUSH1 0x40 DUP3 KECCAK256 SLOAD AND PUSH2 0x5581 JUMPI POP PUSH1 0xFF PUSH1 0x2 PUSH2 0x557C SWAP5 ADD SLOAD SWAP3 PUSH1 0x10 SHR AND SWAP2 PUSH2 0x4DB6 JUMP JUMPDEST ISZERO ISZERO SWAP1 JUMP JUMPDEST SWAP3 POP POP POP SWAP1 JUMP JUMPDEST POP POP SWAP3 POP POP POP SWAP1 JUMP JUMPDEST POP PUSH1 0x9 DUP7 ADD SLOAD TIMESTAMP LT ISZERO PUSH2 0x5545 JUMP JUMPDEST SWAP1 POP ISZERO ISZERO CODESIZE PUSH2 0x5532 JUMP JUMPDEST PUSH4 0x4E487B71 PUSH1 0xE0 SHL DUP5 MSTORE PUSH1 0x21 PUSH1 0x4 MSTORE PUSH1 0x24 DUP5 REVERT JUMPDEST POP SWAP3 POP POP POP SWAP1 JUMP JUMPDEST PUSH1 0x0 SWAP1 DUP2 MSTORE PUSH1 0x5 PUSH1 0x20 MSTORE PUSH1 0x40 DUP2 KECCAK256 PUSH1 0x3 DUP2 ADD SLOAD PUSH1 0x1 PUSH1 0x1 PUSH1 0xA0 SHL SUB AND ISZERO PUSH2 0x4F57 JUMPI PUSH1 0xFF PUSH1 0x7 DUP3 ADD SLOAD PUSH1 0x18 SHR AND PUSH1 0x7 DUP2 LT ISZERO PUSH2 0x5611 JUMPI PUSH1 0x2 SUB PUSH2 0x4F57 JUMPI PUSH1 0xA ADD SLOAD TIMESTAMP LT PUSH2 0x3918 JUMPI POP PUSH1 0x1 SWAP1 JUMP JUMPDEST PUSH4 0x4E487B71 PUSH1 0xE0 SHL DUP4 MSTORE PUSH1 0x21 PUSH1 0x4 MSTORE PUSH1 0x24 DUP4 REVERT JUMPDEST PUSH1 0x0 MSTORE PUSH1 0x5 PUSH1 0x20 MSTORE PUSH1 0x9 PUSH1 0x40 PUSH1 0x0 KECCAK256 ADD SLOAD DUP1 TIMESTAMP LT ISZERO PUSH2 0x50D4 JUMPI PUSH2 0x3918 SWAP1 TIMESTAMP SWAP1 PUSH2 0x446F JUMP JUMPDEST SWAP1 PUSH2 0xE10 DUP2 LT SWAP1 DUP2 ISZERO PUSH2 0x56C2 JUMPI JUMPDEST POP PUSH2 0x50D4 JUMPI PUSH1 0x1 PUSH1 0x1 PUSH1 0xA0 SHL SUB PUSH2 0x566C PUSH2 0x4BE7 JUMP JUMPDEST AND SWAP1 DUP2 ISZERO PUSH2 0x56BB JUMPI PUSH1 0x20 SWAP1 PUSH1 0x24 PUSH1 0x40 MLOAD DUP1 SWAP5 DUP2 SWAP4 PUSH4 0x3BF0DC01 PUSH1 0xE2 SHL DUP4 MSTORE PUSH1 0x4 DUP4 ADD MSTORE GAS STATICCALL SWAP1 DUP2 ISZERO PUSH2 0x7B8 JUMPI PUSH1 0x0 SWAP2 PUSH2 0x56A3 JUMPI POP SWAP1 JUMP JUMPDEST PUSH2 0x3918 SWAP2 POP PUSH1 0x20 RETURNDATASIZE DUP2 GT PUSH2 0x3656 JUMPI PUSH2 0x3648 DUP2 DUP4 PUSH2 0x388A JUMP JUMPDEST POP POP PUSH1 0x0 SWAP1 JUMP JUMPDEST PUSH3 0x278D00 SWAP2 POP GT CODESIZE PUSH2 0x5657 JUMP JUMPDEST PUSH1 0x0 SWAP1 DUP2 MSTORE PUSH1 0x5 PUSH1 0x20 MSTORE PUSH1 0x40 DUP2 KECCAK256 PUSH1 0xD DUP2 ADD SLOAD SWAP1 PUSH2 0x56EC DUP3 PUSH2 0x4065 JUMP JUMPDEST ISZERO SWAP1 DUP2 ISZERO PUSH2 0x5731 JUMPI JUMPDEST POP PUSH2 0x5729 JUMPI PUSH2 0x5703 SWAP1 PUSH2 0x4065 JUMP JUMPDEST SWAP1 PUSH1 0x44 DUP3 MUL SWAP2 DUP1 DUP4 DIV PUSH1 0x44 EQ SWAP1 ISZERO OR ISZERO PUSH2 0x5349 JUMPI PUSH3 0x186A0 SWAP2 DUP3 ADD DUP1 SWAP3 GT PUSH2 0x5349 JUMPI POP SWAP1 JUMP JUMPDEST POP POP PUSH2 0x5208 SWAP1 JUMP JUMPDEST PUSH1 0xE ADD SLOAD PUSH1 0x1 PUSH1 0x1 PUSH1 0xA0 SHL SUB AND ISZERO SWAP1 POP CODESIZE PUSH2 0x56F5 JUMP JUMPDEST PUSH1 0x0 SWAP1 DUP2 MSTORE PUSH1 0x5 PUSH1 0x20 MSTORE PUSH1 0x40 DUP2 KECCAK256 PUSH1 0xD DUP2 ADD SWAP1 PUSH2 0x5764 DUP3 SLOAD PUSH2 0x4065 JUMP JUMPDEST ISZERO DUP1 ISZERO PUSH2 0x57C9 JUMPI JUMPDEST PUSH2 0x57A2 JUMPI PUSH1 0xE ADD SLOAD PUSH1 0x40 MLOAD DUP4 SWAP3 PUSH1 0x1 PUSH1 0x1 PUSH1 0xA0 SHL SUB SWAP1 SWAP3 AND SWAP2 DUP2 SWAP1 PUSH2 0x5792 SWAP1 DUP3 SWAP1 PUSH2 0x43BD JUMP JUMPDEST SUB SWAP2 GAS STATICCALL PUSH2 0x579E PUSH2 0x443F JUMP JUMPDEST SWAP1 SWAP2 JUMP JUMPDEST POP POP PUSH1 0x40 MLOAD PUSH1 0x1 SWAP3 SWAP2 PUSH1 0x20 DUP3 ADD PUSH1 0x1 PUSH1 0x1 PUSH1 0x40 SHL SUB DUP2 GT DUP4 DUP3 LT OR PUSH2 0x42FF JUMPI PUSH1 0x40 MSTORE DUP2 MSTORE SWAP1 JUMP JUMPDEST POP PUSH1 0xE DUP2 ADD SLOAD PUSH1 0x1 PUSH1 0x1 PUSH1 0xA0 SHL SUB AND ISZERO PUSH2 0x576C JUMP INVALID 0x2F DUP8 DUP9 GT PUSH31 0x7EFF1D82E926EC794901D17C78024A50270940304540A733656F0D92996E23 0xDB RETURNDATASIZE CALL CREATE SHL 0xE9 SGT 0xF8 SWAP6 CALLDATALOAD MSTORE AND JUMPDEST RETURNDATACOPY MOD 0x5D 0xC4 DUP9 0xBB ADDRESS 0xBD BLOCKHASH 0xE2 OR PUSH1 0x55 CODESIZE LT EQ PUSH9 0x4B861E7ED8196BFD1E PUSH22 0xA427098261DC7F825334A81D48EC74D12EF80DFEA264 PUSH10 0x70667358221220DB7E11 EXTCODESIZE 0xC6 0xA5 0xC7 0xBA 0xF 0xC9 CALL DUP6 0xD2 PUSH18 0xB188582C93D770D16353CB101ABECFC5D3ED PUSH5 0x736F6C6343 STOP ADDMOD EQ STOP CALLER 0x2F DUP8 DUP9 GT PUSH31 0x7EFF1D82E926EC794901D17C78024A50270940304540A733656F0D00000000 "},"methodIdentifiers":{"ADMIN_ROLE()":"75b238fc","BASIS_POINTS()":"e1f1c4a7","CONVICTION_MULTIPLIER_BASE()":"50acf2dd","DEFAULT_ADMIN_ROLE()":"a217fddf","EXECUTOR_ROLE()":"07bd0265","MAX_EXECUTION_DELAY()":"bc03d280","MAX_QUORUM_THRESHOLD()":"127ec283","MAX_VOTING_PERIOD()":"a64e024a","MIN_VOTING_PERIOD()":"215809ca","OPERATOR_ROLE()":"f5b541a6","PROPOSAL_CREATOR_ROLE()":"15b3958e","SIGNAL_ADMIN_ROLE()":"f2bd42be","applyConvictionDecay(bytes32,address)":"1d0824e1","calculateConvictionMultiplier(uint256)":"7bc8450f","calculateVotingPower(bytes32,address,uint8)":"0b6cd0d8","canExecute(bytes32)":"4456251b","canVote(bytes32,address)":"b0724531","cancelProposal(bytes32)":"37376ca8","castVote(bytes32,uint8,string)":"a22b6477","castVoteWithConviction(bytes32,uint8,uint256,string)":"3b3808b0","createProposal(bytes32,string,string,string,uint8,uint8,uint8,uint256,bytes,address)":"19fa95ab","delegateVotingPower(address,uint256)":"75251dd5","emergencyCancel(bytes32)":"45ef118f","emergencyPause()":"51858e27","emergencyUnpause()":"4a4e3bd5","estimateGasForExecution(bytes32)":"ac86499d","executeProposal(bytes32)":"980ff6c6","getActiveProposals()":"5584c4f9","getDefaultVotingParameters()":"d560fbc6","getDelegatedVotingPower(address)":"6da25a54","getDelegations(address)":"31cc13ba","getExecutionETA(bytes32)":"3ffa57eb","getProposal(bytes32)":"430694cf","getProposalCount()":"c08cc02d","getProposalResult(bytes32)":"c3586d04","getProposalVotes(bytes32)":"bff28ea8","getProposalsByOrganization(bytes32)":"311578c5","getProposalsByState(uint8)":"bacc1323","getQuorumReached(bytes32)":"ef761e80","getRoleAdmin(bytes32)":"248a9ca3","getTimeRemaining(bytes32)":"32be9ebc","getVote(bytes32,address)":"b3e7c2bd","getVotingParameters(bytes32)":"10864640","getVotingPower(bytes32,address)":"a18e9dde","grantRole(bytes32,address)":"2f2ff15d","hasRole(bytes32,address)":"91d14854","hasVoted(bytes32,address)":"aadc3b72","initialize(address)":"c4d66de8","isInitialized()":"392e53cd","isProposalActive(bytes32)":"a2967184","moduleId()":"a1308f27","onModuleDisabled()":"aa7318aa","onModuleEnabled()":"ebf8a3e6","pause()":"8456cb59","paused()":"5c975abb","previewProposalExecution(bytes32)":"85df716e","queueProposal(bytes32)":"74428d9b","registry()":"7b103999","renounceRole(bytes32,address)":"36568abe","revokeRole(bytes32,address)":"d547741f","setDefaultVotingParameters((uint256,uint256,uint256,uint256,uint256,bool))":"75ea877e","setProposalState(bytes32,uint8)":"2e46aacc","setVotingParameters(bytes32,(uint256,uint256,uint256,uint256,uint256,bool))":"1a57e9fb","supportsInterface(bytes4)":"01ffc9a7","undelegateVotingPower(address,uint256)":"b502f554","unpause()":"3f4ba83a","updateProposal(bytes32,string,string,uint256)":"48b51e90","validateProposalParameters(bytes32,uint8,uint8,uint8,uint256)":"74371643","version()":"54fd4d50"}}}}}