{
  "_format": "hh-sol-artifact-1",
  "contractName": "Sense",
  "sourceName": "contracts/modules/Sense/Sense.sol",
  "abi": [
    {
      "inputs": [],
      "stateMutability": "nonpayable",
      "type": "constructor"
    },
    {
      "inputs": [],
      "name": "InvalidRegistryAddress",
      "type": "error"
    },
    {
      "inputs": [
        {
          "internalType": "int256",
          "name": "delta",
          "type": "int256"
        }
      ],
      "name": "InvalidReputationDelta",
      "type": "error"
    },
    {
      "inputs": [],
      "name": "ModuleAlreadyInitialized",
      "type": "error"
    },
    {
      "inputs": [],
      "name": "ModuleNotInitialized",
      "type": "error"
    },
    {
      "inputs": [],
      "name": "OnlyRegistry",
      "type": "error"
    },
    {
      "inputs": [
        {
          "internalType": "string",
          "name": "profileId",
          "type": "string"
        }
      ],
      "name": "ProfileNotFound",
      "type": "error"
    },
    {
      "inputs": [
        {
          "internalType": "address",
          "name": "caller",
          "type": "address"
        }
      ],
      "name": "UnauthorizedReputationUpdate",
      "type": "error"
    },
    {
      "anonymous": false,
      "inputs": [
        {
          "indexed": true,
          "internalType": "bytes8",
          "name": "profileId",
          "type": "bytes8"
        },
        {
          "indexed": false,
          "internalType": "uint256",
          "name": "amount",
          "type": "uint256"
        },
        {
          "indexed": false,
          "internalType": "bytes32",
          "name": "reason",
          "type": "bytes32"
        },
        {
          "indexed": true,
          "internalType": "address",
          "name": "awardedBy",
          "type": "address"
        },
        {
          "indexed": false,
          "internalType": "uint256",
          "name": "timestamp",
          "type": "uint256"
        }
      ],
      "name": "ExperienceAwarded",
      "type": "event"
    },
    {
      "anonymous": false,
      "inputs": [
        {
          "indexed": true,
          "internalType": "bytes8",
          "name": "profileId",
          "type": "bytes8"
        },
        {
          "indexed": false,
          "internalType": "bool",
          "name": "positive",
          "type": "bool"
        },
        {
          "indexed": false,
          "internalType": "bytes32",
          "name": "reason",
          "type": "bytes32"
        },
        {
          "indexed": true,
          "internalType": "address",
          "name": "recordedBy",
          "type": "address"
        },
        {
          "indexed": false,
          "internalType": "uint256",
          "name": "timestamp",
          "type": "uint256"
        }
      ],
      "name": "InteractionRecorded",
      "type": "event"
    },
    {
      "anonymous": false,
      "inputs": [],
      "name": "ModuleDisabled",
      "type": "event"
    },
    {
      "anonymous": false,
      "inputs": [],
      "name": "ModuleEnabled",
      "type": "event"
    },
    {
      "anonymous": false,
      "inputs": [
        {
          "indexed": true,
          "internalType": "address",
          "name": "registry",
          "type": "address"
        }
      ],
      "name": "ModuleInitialized",
      "type": "event"
    },
    {
      "anonymous": false,
      "inputs": [
        {
          "indexed": false,
          "internalType": "address",
          "name": "account",
          "type": "address"
        }
      ],
      "name": "Paused",
      "type": "event"
    },
    {
      "anonymous": false,
      "inputs": [
        {
          "indexed": true,
          "internalType": "bytes8",
          "name": "profileId",
          "type": "bytes8"
        },
        {
          "indexed": true,
          "internalType": "enum ISense.ReputationType",
          "name": "repType",
          "type": "uint8"
        },
        {
          "indexed": false,
          "internalType": "int256",
          "name": "delta",
          "type": "int256"
        },
        {
          "indexed": false,
          "internalType": "bytes32",
          "name": "reason",
          "type": "bytes32"
        },
        {
          "indexed": true,
          "internalType": "address",
          "name": "updatedBy",
          "type": "address"
        },
        {
          "indexed": false,
          "internalType": "uint256",
          "name": "timestamp",
          "type": "uint256"
        }
      ],
      "name": "ReputationUpdated",
      "type": "event"
    },
    {
      "anonymous": false,
      "inputs": [
        {
          "indexed": true,
          "internalType": "bytes32",
          "name": "role",
          "type": "bytes32"
        },
        {
          "indexed": true,
          "internalType": "bytes32",
          "name": "previousAdminRole",
          "type": "bytes32"
        },
        {
          "indexed": true,
          "internalType": "bytes32",
          "name": "newAdminRole",
          "type": "bytes32"
        }
      ],
      "name": "RoleAdminChanged",
      "type": "event"
    },
    {
      "anonymous": false,
      "inputs": [
        {
          "indexed": true,
          "internalType": "bytes32",
          "name": "role",
          "type": "bytes32"
        },
        {
          "indexed": true,
          "internalType": "address",
          "name": "account",
          "type": "address"
        },
        {
          "indexed": true,
          "internalType": "address",
          "name": "sender",
          "type": "address"
        }
      ],
      "name": "RoleGranted",
      "type": "event"
    },
    {
      "anonymous": false,
      "inputs": [
        {
          "indexed": true,
          "internalType": "bytes32",
          "name": "role",
          "type": "bytes32"
        },
        {
          "indexed": true,
          "internalType": "address",
          "name": "account",
          "type": "address"
        },
        {
          "indexed": true,
          "internalType": "address",
          "name": "sender",
          "type": "address"
        }
      ],
      "name": "RoleRevoked",
      "type": "event"
    },
    {
      "anonymous": false,
      "inputs": [
        {
          "indexed": false,
          "internalType": "address",
          "name": "account",
          "type": "address"
        }
      ],
      "name": "Unpaused",
      "type": "event"
    },
    {
      "inputs": [],
      "name": "ADMIN_ROLE",
      "outputs": [
        {
          "internalType": "bytes32",
          "name": "",
          "type": "bytes32"
        }
      ],
      "stateMutability": "view",
      "type": "function"
    },
    {
      "inputs": [],
      "name": "DEFAULT_ADMIN_ROLE",
      "outputs": [
        {
          "internalType": "bytes32",
          "name": "",
          "type": "bytes32"
        }
      ],
      "stateMutability": "view",
      "type": "function"
    },
    {
      "inputs": [],
      "name": "MAX_REPUTATION_DELTA",
      "outputs": [
        {
          "internalType": "uint256",
          "name": "",
          "type": "uint256"
        }
      ],
      "stateMutability": "view",
      "type": "function"
    },
    {
      "inputs": [],
      "name": "OPERATOR_ROLE",
      "outputs": [
        {
          "internalType": "bytes32",
          "name": "",
          "type": "bytes32"
        }
      ],
      "stateMutability": "view",
      "type": "function"
    },
    {
      "inputs": [],
      "name": "REPUTATION_MANAGER_ROLE",
      "outputs": [
        {
          "internalType": "bytes32",
          "name": "",
          "type": "bytes32"
        }
      ],
      "stateMutability": "view",
      "type": "function"
    },
    {
      "inputs": [],
      "name": "REPUTATION_SCALE",
      "outputs": [
        {
          "internalType": "uint256",
          "name": "",
          "type": "uint256"
        }
      ],
      "stateMutability": "view",
      "type": "function"
    },
    {
      "inputs": [],
      "name": "SENSE_ADMIN_ROLE",
      "outputs": [
        {
          "internalType": "bytes32",
          "name": "",
          "type": "bytes32"
        }
      ],
      "stateMutability": "view",
      "type": "function"
    },
    {
      "inputs": [],
      "name": "TRUST_SCORE_SCALE",
      "outputs": [
        {
          "internalType": "uint256",
          "name": "",
          "type": "uint256"
        }
      ],
      "stateMutability": "view",
      "type": "function"
    },
    {
      "inputs": [
        {
          "internalType": "bytes8",
          "name": "profileId",
          "type": "bytes8"
        },
        {
          "internalType": "uint256",
          "name": "amount",
          "type": "uint256"
        },
        {
          "internalType": "bytes32",
          "name": "reason",
          "type": "bytes32"
        }
      ],
      "name": "awardExperience",
      "outputs": [],
      "stateMutability": "nonpayable",
      "type": "function"
    },
    {
      "inputs": [
        {
          "internalType": "bytes8",
          "name": "profileId",
          "type": "bytes8"
        }
      ],
      "name": "calculateTrustScore",
      "outputs": [
        {
          "internalType": "uint256",
          "name": "trustScore",
          "type": "uint256"
        }
      ],
      "stateMutability": "view",
      "type": "function"
    },
    {
      "inputs": [
        {
          "internalType": "bytes8",
          "name": "profileId",
          "type": "bytes8"
        },
        {
          "internalType": "uint256",
          "name": "baseWeight",
          "type": "uint256"
        }
      ],
      "name": "calculateVotingWeight",
      "outputs": [
        {
          "internalType": "uint256",
          "name": "votingWeight",
          "type": "uint256"
        }
      ],
      "stateMutability": "view",
      "type": "function"
    },
    {
      "inputs": [],
      "name": "emergencyPause",
      "outputs": [],
      "stateMutability": "nonpayable",
      "type": "function"
    },
    {
      "inputs": [],
      "name": "emergencyUnpause",
      "outputs": [],
      "stateMutability": "nonpayable",
      "type": "function"
    },
    {
      "inputs": [
        {
          "internalType": "bytes8",
          "name": "profileId",
          "type": "bytes8"
        }
      ],
      "name": "getExperience",
      "outputs": [
        {
          "internalType": "uint256",
          "name": "experience",
          "type": "uint256"
        }
      ],
      "stateMutability": "view",
      "type": "function"
    },
    {
      "inputs": [
        {
          "internalType": "bytes8",
          "name": "profileId",
          "type": "bytes8"
        }
      ],
      "name": "getReputation",
      "outputs": [
        {
          "components": [
            {
              "internalType": "uint256",
              "name": "experience",
              "type": "uint256"
            },
            {
              "internalType": "uint256",
              "name": "reputation",
              "type": "uint256"
            },
            {
              "internalType": "uint256",
              "name": "trust",
              "type": "uint256"
            },
            {
              "internalType": "uint256",
              "name": "lastUpdated",
              "type": "uint256"
            },
            {
              "internalType": "uint256",
              "name": "totalInteractions",
              "type": "uint256"
            },
            {
              "internalType": "uint256",
              "name": "positiveInteractions",
              "type": "uint256"
            }
          ],
          "internalType": "struct ISense.ReputationData",
          "name": "reputation",
          "type": "tuple"
        }
      ],
      "stateMutability": "view",
      "type": "function"
    },
    {
      "inputs": [
        {
          "internalType": "bytes8[]",
          "name": "profileIds",
          "type": "bytes8[]"
        }
      ],
      "name": "getReputationBatch",
      "outputs": [
        {
          "components": [
            {
              "internalType": "uint256",
              "name": "experience",
              "type": "uint256"
            },
            {
              "internalType": "uint256",
              "name": "reputation",
              "type": "uint256"
            },
            {
              "internalType": "uint256",
              "name": "trust",
              "type": "uint256"
            },
            {
              "internalType": "uint256",
              "name": "lastUpdated",
              "type": "uint256"
            },
            {
              "internalType": "uint256",
              "name": "totalInteractions",
              "type": "uint256"
            },
            {
              "internalType": "uint256",
              "name": "positiveInteractions",
              "type": "uint256"
            }
          ],
          "internalType": "struct ISense.ReputationData[]",
          "name": "reputations",
          "type": "tuple[]"
        }
      ],
      "stateMutability": "view",
      "type": "function"
    },
    {
      "inputs": [
        {
          "internalType": "bytes8",
          "name": "profileId",
          "type": "bytes8"
        }
      ],
      "name": "getReputationHistory",
      "outputs": [
        {
          "components": [
            {
              "internalType": "bytes8",
              "name": "profileId",
              "type": "bytes8"
            },
            {
              "internalType": "enum ISense.ReputationType",
              "name": "repType",
              "type": "uint8"
            },
            {
              "internalType": "int256",
              "name": "delta",
              "type": "int256"
            },
            {
              "internalType": "bytes32",
              "name": "reason",
              "type": "bytes32"
            },
            {
              "internalType": "address",
              "name": "updatedBy",
              "type": "address"
            },
            {
              "internalType": "uint256",
              "name": "timestamp",
              "type": "uint256"
            }
          ],
          "internalType": "struct ISense.ReputationEvent[]",
          "name": "events",
          "type": "tuple[]"
        }
      ],
      "stateMutability": "view",
      "type": "function"
    },
    {
      "inputs": [
        {
          "internalType": "bytes32",
          "name": "role",
          "type": "bytes32"
        }
      ],
      "name": "getRoleAdmin",
      "outputs": [
        {
          "internalType": "bytes32",
          "name": "",
          "type": "bytes32"
        }
      ],
      "stateMutability": "view",
      "type": "function"
    },
    {
      "inputs": [
        {
          "internalType": "bytes8",
          "name": "profileId",
          "type": "bytes8"
        }
      ],
      "name": "getTrustScore",
      "outputs": [
        {
          "internalType": "uint256",
          "name": "trustScore",
          "type": "uint256"
        }
      ],
      "stateMutability": "view",
      "type": "function"
    },
    {
      "inputs": [
        {
          "internalType": "bytes32",
          "name": "role",
          "type": "bytes32"
        },
        {
          "internalType": "address",
          "name": "account",
          "type": "address"
        }
      ],
      "name": "grantRole",
      "outputs": [],
      "stateMutability": "nonpayable",
      "type": "function"
    },
    {
      "inputs": [
        {
          "internalType": "bytes32",
          "name": "role",
          "type": "bytes32"
        },
        {
          "internalType": "address",
          "name": "account",
          "type": "address"
        }
      ],
      "name": "hasRole",
      "outputs": [
        {
          "internalType": "bool",
          "name": "",
          "type": "bool"
        }
      ],
      "stateMutability": "view",
      "type": "function"
    },
    {
      "inputs": [
        {
          "internalType": "address",
          "name": "registryAddress",
          "type": "address"
        }
      ],
      "name": "initialize",
      "outputs": [],
      "stateMutability": "nonpayable",
      "type": "function"
    },
    {
      "inputs": [],
      "name": "isInitialized",
      "outputs": [
        {
          "internalType": "bool",
          "name": "",
          "type": "bool"
        }
      ],
      "stateMutability": "view",
      "type": "function"
    },
    {
      "inputs": [],
      "name": "moduleId",
      "outputs": [
        {
          "internalType": "bytes32",
          "name": "",
          "type": "bytes32"
        }
      ],
      "stateMutability": "pure",
      "type": "function"
    },
    {
      "inputs": [],
      "name": "onModuleDisabled",
      "outputs": [],
      "stateMutability": "nonpayable",
      "type": "function"
    },
    {
      "inputs": [],
      "name": "onModuleEnabled",
      "outputs": [],
      "stateMutability": "nonpayable",
      "type": "function"
    },
    {
      "inputs": [],
      "name": "pause",
      "outputs": [],
      "stateMutability": "nonpayable",
      "type": "function"
    },
    {
      "inputs": [],
      "name": "paused",
      "outputs": [
        {
          "internalType": "bool",
          "name": "",
          "type": "bool"
        }
      ],
      "stateMutability": "view",
      "type": "function"
    },
    {
      "inputs": [
        {
          "internalType": "bytes8",
          "name": "profileId",
          "type": "bytes8"
        },
        {
          "internalType": "bool",
          "name": "positive",
          "type": "bool"
        },
        {
          "internalType": "bytes32",
          "name": "reason",
          "type": "bytes32"
        }
      ],
      "name": "recordInteraction",
      "outputs": [],
      "stateMutability": "nonpayable",
      "type": "function"
    },
    {
      "inputs": [],
      "name": "registry",
      "outputs": [
        {
          "internalType": "address",
          "name": "",
          "type": "address"
        }
      ],
      "stateMutability": "view",
      "type": "function"
    },
    {
      "inputs": [
        {
          "internalType": "bytes32",
          "name": "role",
          "type": "bytes32"
        },
        {
          "internalType": "address",
          "name": "account",
          "type": "address"
        }
      ],
      "name": "renounceRole",
      "outputs": [],
      "stateMutability": "nonpayable",
      "type": "function"
    },
    {
      "inputs": [
        {
          "internalType": "bytes32",
          "name": "role",
          "type": "bytes32"
        },
        {
          "internalType": "address",
          "name": "account",
          "type": "address"
        }
      ],
      "name": "revokeRole",
      "outputs": [],
      "stateMutability": "nonpayable",
      "type": "function"
    },
    {
      "inputs": [
        {
          "internalType": "bytes4",
          "name": "interfaceId",
          "type": "bytes4"
        }
      ],
      "name": "supportsInterface",
      "outputs": [
        {
          "internalType": "bool",
          "name": "",
          "type": "bool"
        }
      ],
      "stateMutability": "view",
      "type": "function"
    },
    {
      "inputs": [],
      "name": "unpause",
      "outputs": [],
      "stateMutability": "nonpayable",
      "type": "function"
    },
    {
      "inputs": [
        {
          "internalType": "bytes8",
          "name": "profileId",
          "type": "bytes8"
        },
        {
          "internalType": "enum ISense.ReputationType",
          "name": "repType",
          "type": "uint8"
        },
        {
          "internalType": "int256",
          "name": "delta",
          "type": "int256"
        },
        {
          "internalType": "bytes32",
          "name": "reason",
          "type": "bytes32"
        }
      ],
      "name": "updateReputation",
      "outputs": [],
      "stateMutability": "nonpayable",
      "type": "function"
    },
    {
      "inputs": [],
      "name": "version",
      "outputs": [
        {
          "internalType": "string",
          "name": "",
          "type": "string"
        }
      ],
      "stateMutability": "view",
      "type": "function"
    }
  ],
  "bytecode": "0x608034620002d0576040908082016001600160401b03811182821017620002ba578252600581526020809101640312e302e360dc1b815260ff1990600190828254168255816002556004548281811c91168015620002af575b858210146200029957601f811162000267575b50516001600160d81b031916600a17600455600080805280845284812033825284528490205460ff16156200022c575b7fa49807205ce4d355092ef5a8a18f56e8913cf4a201fbe287825b095693c2177580600052600084528460002033600052845260ff85600020541615620001ef575b507f1d0f12d082b3e5338f8dab310a38db3645f19456d3e591618fb6ace837c5da3980600052600084528460002033600052845260ff85600020541615620001b2575b507fa5df84d05f94c8e589750a34f9631c6df369aabc0811ccbbd233872ff60aec669283600052600081528460002033600052815260ff8560002054161562000173575b84516124589081620002d68239f35b8360005260008152846000209033600052528360002091825416179055339033906000805160206200272e833981519152600080a43880808062000164565b806000526000845284600020336000528452846000208284825416179055339033906000805160206200272e833981519152600080a43862000120565b806000526000845284600020336000528452846000208284825416179055339033906000805160206200272e833981519152600080a438620000dd565b600080526000835283600020336000528352836000208183825416179055333360006000805160206200272e8339815191528180a46200009b565b600460005282601f86600020920160051c8201915b8281106200028c5750506200006b565b600081550183906200027c565b634e487b7160e01b600052602260045260246000fd5b90607f169062000058565b634e487b7160e01b600052604160045260246000fd5b600080fdfe608060408181526004918236101561001657600080fd5b600092833560e01c91826301ffc9a71461194657508163152e6475146117bf5781631e9fc760146116b957816321118a2d14611601578163248a9ca3146115d7578163255e57801461159f5781632f2ff15d146114f757816336568abe14611457578163392e53cd146114305781633f4ba83a146113c65781634a4e3bd5146113115781634fc2c0771461126857816351858e27146111e557816354fd4d50146110e257816356e521c2146110565781635c975abb146110be57816375b238fc146110835781637b1039991461105b578163823ced41146110565781638456cb5914610f9957816384d8e2d014610e545781638b158f9814610e1957816391d1485414610dd4578163a1308f2714610d99578163a217fddf14610d7e578163aa7318aa14610d25578163b95c0ff414610cea578163be152b6114610ccd578163bfaa09cb14610ca0578163c4d66de81461091a578163d547741f146108dc578163e69e729e14610495578163ea836c83146102a1578163eb0fd86a14610266578163ebf8a3e6146101ee575063f5b541a6146101b157600080fd5b346101ea57816003193601126101ea57602090517f97667070c54ef182b0f5858b034beac1b6f3089aa2d3188bb1e8929f4fa9b9298152f35b5080fd5b919050346102625782600319360112610262576003546001600160a01b03811633036102545760a01c60ff161561024757827fa866f3901ec84758a10f30e8953c3818eef73da93dfa46cb6aa5b726fb65813f8180a180f35b51633165f6e960e21b8152fd5b50516310f5403960e31b8152fd5b8280fd5b5050346101ea57816003193601126101ea57602090517fa5df84d05f94c8e589750a34f9631c6df369aabc0811ccbbd233872ff60aec668152f35b90503461026257602090816003193601126104915780359267ffffffffffffffff841161048d573660238501121561048d5783820135916102e183611af2565b946102ee83519687611ad0565b8386528486016024600595861b8301019136831161048957602401905b8282106104655750505084519561032187611af2565b9661032e84519889611ad0565b80885261033d601f1991611af2565b0185825b82811061044f57505050805b86518110156103d457806001600160c01b031961036d6103cf938a612269565b511683528587528483208686519161038483611a82565b8054835260018101548a84015260028101548884015260038101546060840152868101546080840152015460a08201526103be828b612269565b526103c9818a612269565b5061218f565b61034d565b8351868152885181880181905289880191908187019089865b8281106103fa5784840385f35b9091928260c0826104406001948a5160a0809180518452602081015160208501526040810151604085015260608101516060850152608081015160808501520151910152565b019601910194929190946103ed565b610457612112565b82828c010152018690610341565b81356001600160c01b03198116810361048557815290860190860161030b565b8980fd5b8880fd5b8480fd5b8380fd5b91905034610262576080366003190112610262576104b16119e4565b9160249182359260038410156108d85760443594606435917fa5df84d05f94c8e589750a34f9631c6df369aabc0811ccbbd233872ff60aec6691828952602092898452858a20338b52845260ff868b2054161561070457508061051c6001600160c01b03199261227d565b16948589526005835284892089908815600014610646578a8a126105df576105458a8254611e7d565b81555b600342910155868a5260068452610592868b2087519061056782611a82565b8982526105768b88840161202f565b8b898301528760608301523360808301524260a0830152612051565b6105ce575050825195865285015242908401527f8447f892fee5ad64a0d887d9dc5bfa7a6ab41cdf7441a4b73be5625ffe7faea260603394a480f35b60218991634e487b7160e01b835252fd5b608483602186888b519362461bcd60e51b85528401528201527f457870657269656e63652064656c7461206d75737420626520706f736974697660448201527f65000000000000000000000000000000000000000000000000000000000000006064820152fd5b8a9150600189036106bb578a8a131561068657600181016106688b8254611e7d565b9081815561271080921161067e575b5050610548565b553880610677565b8a6106908b611ff5565b6001830190808254116000146106b457816106ad92935054612022565b9055610548565b5055610548565b8a915060028903610548578a8a13156106dd57600281016106ad8b8254611e7d565b8a6106e78b611ff5565b6002830190808254116000146106b457816106ad92935054612022565b86848b85899461071333611ec7565b909186519261072184611ab4565b604284528584019460603687378451156108c657603086538451906001918210156108b45790607860218701536041915b81831161084b5750505061080a57506108069386936107f2936107e36048946107ae9a519a857f416363657373436f6e74726f6c3a206163636f756e74200000000000000000008d978801528251928391603789019101611a16565b8401917f206973206d697373696e6720726f6c6520000000000000000000000000000000603784015251809386840190611a16565b01036028810187520185611ad0565b5192839262461bcd60e51b84528301611a39565b0390fd5b9250505081606494519362461bcd60e51b85528401528201527f537472696e67733a20686578206c656e67746820696e73756666696369656e746044820152fd5b909192600f811660108110156108a2576f181899199a1a9b1b9c1cb0b131b232b360811b901a61087b8589611ea0565b53891c92801561089057600019019190610752565b848260118c634e487b7160e01b835252fd5b858360328d634e487b7160e01b835252fd5b8060328a634e487b7160e01b87945252fd5b9050603287634e487b7160e01b835252fd5b8580fd5b9190503461026257806003193601126102625761091791356109126001610901611a00565b938387528660205286200154611cf9565b611e08565b80f35b9050346102625760209081600319360112610491578035926001600160a01b038085168095036108d85760035460ff8160a01c16610c78578515610c50577fffffffffffffffffffffff00000000000000000000000000000000000000000016851774010000000000000000000000000000000000000000176003557fa49807205ce4d355092ef5a8a18f56e8913cf4a201fbe287825b095693c2177580875286855282872086885285528287205460ff1615610c07575b507f97667070c54ef182b0f5858b034beac1b6f3089aa2d3188bb1e8929f4fa9b929808752868552828720868852855260ff838820541615610bbe575b5083825180947f7b10399900000000000000000000000000000000000000000000000000000000825281305afa928315610bb4578693610b85575b507f1d0f12d082b3e5338f8dab310a38db3645f19456d3e591618fb6ace837c5da3990818752868552828720931692838752845260ff828720541615610b3c575b507fa5df84d05f94c8e589750a34f9631c6df369aabc0811ccbbd233872ff60aec6692838652858152818620838752815260ff828720541615610af2575b85857f27b541a16df0902e262f34789782092ab25125513b8ed73608e802951771b9288280a280f35b83865285815281862083875290528420805460ff1916600117905533917f2f8788117e7eff1d82e926ec794901d17c78024a50270940304540a733656f0d8580a438808080610ac9565b8086528584528186208387528452818620600160ff198254161790558233917f2f8788117e7eff1d82e926ec794901d17c78024a50270940304540a733656f0d8880a438610a8b565b610ba6919350843d8611610bad575b610b9e8183611ad0565b810190611fd6565b9138610a4a565b503d610b94565b82513d88823e3d90fd5b8087528685528287208688528552828720600160ff198254161790558533917f2f8788117e7eff1d82e926ec794901d17c78024a50270940304540a733656f0d8980a438610a0f565b8087528685528287208688528552828720600160ff198254161790558533917f2f8788117e7eff1d82e926ec794901d17c78024a50270940304540a733656f0d8980a4386109d2565b5050517f7bfd2e83000000000000000000000000000000000000000000000000000000008152fd5b5050517fe72ce85e000000000000000000000000000000000000000000000000000000008152fd5b5050346101ea5760203660031901126101ea57602090610cc6610cc16119e4565b61219e565b9051908152f35b5050346101ea57816003193601126101ea57602090516103e88152f35b5050346101ea5760203660031901126101ea576002816020936001600160c01b0319610d146119e4565b168152600585522001549051908152f35b919050346102625782600319360112610262576003546001600160a01b03811633036102545760a01c60ff161561024757827f6dff2fe8fbb5b23bf0583bf5b2157ff62ca7e27f2fb4f404914cd0c205ced5cc8180a180f35b5050346101ea57816003193601126101ea5751908152602090f35b5050346101ea57816003193601126101ea57602090517fda774a9a6475b94924a168725d00b478d90cbf28e9176d635f3dab48a3a915088152f35b9050346102625781600319360112610262578160209360ff92610df5611a00565b903582528186526001600160a01b0383832091168252855220541690519015158152f35b5050346101ea57816003193601126101ea57602090517f1d0f12d082b3e5338f8dab310a38db3645f19456d3e591618fb6ace837c5da398152f35b90503461026257606036600319011261026257610e6f6119e4565b91602435801515938482036108d8576001600160c01b0319907fa5df84d05f94c8e589750a34f9631c6df369aabc0811ccbbd233872ff60aec66875286602052838720338852602052610ec760ff8589205416612144565b610ed08161227d565b1692838652600560205282862091818301610eeb815461218f565b905515610f6b5760058201610f00815461218f565b905560028201805491600a8301809311610f585750555b6003429101558051928352604435602084015242908301527f6c723e08ef2de1ee5b9e008f0a865930373e0b01c4e14f8fae0163abd232880760603393a380f35b876011602492634e487b7160e01b835252fd5b6002820180548790600511610f9157508054600419810192908311610f58575055610f17565b915055610f17565b905034610262578260031936011261026257610fb3611b0a565b60ff60035460a01c1615611048576001549060ff821661100557507f62e78cea01bee320cd4e420270b5ea74000d11b0c9f74754ebdbfc544b05a25891600160209260ff19161760015551338152a180f35b606490602084519162461bcd60e51b8352820152601060248201527f5061757361626c653a20706175736564000000000000000000000000000000006044820152fd5b9051633165f6e960e21b8152fd5b611a65565b5050346101ea57816003193601126101ea576020906001600160a01b03600354169051908152f35b5050346101ea57816003193601126101ea57602090517fa49807205ce4d355092ef5a8a18f56e8913cf4a201fbe287825b095693c217758152f35b5050346101ea57816003193601126101ea5760209060ff6001541690519015158152f35b8383346101ea57816003193601126101ea57805191809380549160019083821c928285169485156111db575b60209586861081146111c8578589529081156111a4575060011461114c575b611148878761113e828c0383611ad0565b5191829182611a39565b0390f35b81529295507f8a35acfbc15ff81a39ae7d344fd709f28e8600b4aa8c65c6b64bfe7fe36bd19b5b82841061119157505050826111489461113e9282010194868061112d565b8054868501880152928601928101611173565b60ff19168887015250505050151560051b830101925061113e82611148868061112d565b602484602285634e487b7160e01b835252fd5b93607f169361110e565b9050346102625782600319360112610262576003546001600160a01b03811633036112595760a01c60ff1615611048576001549060ff821661100557507f62e78cea01bee320cd4e420270b5ea74000d11b0c9f74754ebdbfc544b05a25891600160209260ff19161760015551338152a180f35b5090516310f5403960e31b8152fd5b9050823461130e578260031936011261130e576112836119e4565b916001600160c01b03196024359316825260056020528382209284516112a881611a82565b8454815260a060056001870154968760208501526002810154898501526003810154606085015285810154608085015201549101528381029381850414901517156112fb576020836103e8865191048152f35b906011602492634e487b7160e01b835252fd5b80fd5b9050346102625782600319360112610262576003546001600160a01b03811633036112595760a01c60ff1615611048576001549060ff821615611383575060ff1916600155513381527f5db9ee0a495bf2e6ff9c91a7834c1ba4fdd244a5e8aa4e537bd38aeae4b073aa90602090a180f35b606490602084519162461bcd60e51b8352820152601460248201527f5061757361626c653a206e6f74207061757365640000000000000000000000006044820152fd5b9050346102625782600319360112610262576113e0611b0a565b60ff60035460a01c1615611048576001549060ff821615611383575060ff1916600155513381527f5db9ee0a495bf2e6ff9c91a7834c1ba4fdd244a5e8aa4e537bd38aeae4b073aa90602090a180f35b5050346101ea57816003193601126101ea5760209060ff60035460a01c1690519015158152f35b839150346101ea57826003193601126101ea57611472611a00565b90336001600160a01b0383160361148e57906109179135611e08565b608490602085519162461bcd60e51b8352820152602f60248201527f416363657373436f6e74726f6c3a2063616e206f6e6c792072656e6f756e636560448201527f20726f6c657320666f722073656c6600000000000000000000000000000000006064820152fd5b9050346102625781600319360112610262573590611513611a00565b908284528360205261152a60018286200154611cf9565b828452836020526001600160a01b0381852092169182855260205260ff818520541615611555578380f35b828452836020528084208285526020528320600160ff1982541617905533917f2f8788117e7eff1d82e926ec794901d17c78024a50270940304540a733656f0d8480a43880808380f35b5050346101ea5760203660031901126101ea57806020926001600160c01b03196115c76119e4565b1681526005845220549051908152f35b90503461026257602036600319011261026257816020936001923581528085522001549051908152f35b91905034610262576020366003190112610262578060056116b79260c0956001600160c01b03196116306119e4565b611638612112565b50168152826020522082519461164d86611a82565b8154865260018201546020870152600282015484870152600382015460608701528101546080860152015460a084015251809260a0809180518452602081015160208501526040810151604085015260608101516060850152608081015160808501520151910152565bf35b5050346101ea5760603660031901126101ea576116d46119e4565b602435916044357fa5df84d05f94c8e589750a34f9631c6df369aabc0811ccbbd233872ff60aec6685526001600160c01b0319602093868552838720338852855261172460ff8589205416612144565b61172d8161227d565b169283865260058152828620611744868254611e7d565b81556003429101558386526006815261178983872084519061176582611a82565b868252888483015287868301528460608301523360808301524260a0830152612051565b825194855284015242908301527fb41e8155e63d061d70010ebc289c7ee1a7092ba601591de6ae8e1c3af3f6a3db60603393a380f35b839150346101ea5760208060031936011261026257836001600160c01b031992836117e86119e4565b16855260068352818520928354906117ff82611af2565b9161180c85519384611ad0565b8083528183018096895282892089915b8383106118cc5750505050835196879682880193838952518094528588019695825b85841061184b578989038af35b9193959790929496809950518481511682528681015160038110156118b95782889260c09284600196015286810151878301526060808201519083015260806001600160a01b0381830151169083015260a0809101519082015201990194019189989795939196949661183e565b60248460218c634e487b7160e01b835252fd5b6005856001928a809e999b9d989a9c9d51906118e782611a82565b61190160ff88548c8160c01b168552831c1685840161202f565b8587015490820152600286015460608201526001600160a01b0360038701541660808201528c86015460a082015281520192019201919099969499989795939861181c565b84913461026257602036600319011261026257357fffffffff00000000000000000000000000000000000000000000000000000000811680910361026257602092507f7965db0b0000000000000000000000000000000000000000000000000000000081149081156119ba575b5015158152f35b7f01ffc9a700000000000000000000000000000000000000000000000000000000915014836119b3565b600435906001600160c01b0319821682036119fb57565b600080fd5b602435906001600160a01b03821682036119fb57565b60005b838110611a295750506000910152565b8181015183820152602001611a19565b60409160208252611a598151809281602086015260208686019101611a16565b601f01601f1916010190565b346119fb5760003660031901126119fb5760206040516127108152f35b60c0810190811067ffffffffffffffff821117611a9e57604052565b634e487b7160e01b600052604160045260246000fd5b6080810190811067ffffffffffffffff821117611a9e57604052565b90601f8019910116810190811067ffffffffffffffff821117611a9e57604052565b67ffffffffffffffff8111611a9e5760051b60200190565b3360009081527f7d7ffb7a348e1c6a02869081a26547b49160dd3df72d1d75a570eb9b698292ec60209081526040808320549092907fa49807205ce4d355092ef5a8a18f56e8913cf4a201fbe287825b095693c217759060ff1615611b6f5750505050565b611b7833611ec7565b845191611b8483611ab4565b60428352848301936060368637835115611ce55760308553835190600191821015611ce55790607860218601536041915b818311611c7757505050611c35576107ae938593611c1f93611c10604894610806995198857f416363657373436f6e74726f6c3a206163636f756e74200000000000000000008b978801528251928391603789019101611a16565b01036028810185520183611ad0565b5191829162461bcd60e51b835260048301611a39565b60648486519062461bcd60e51b825280600483015260248201527f537472696e67733a20686578206c656e67746820696e73756666696369656e746044820152fd5b909192600f81166010811015611cd1576f181899199a1a9b1b9c1cb0b131b232b360811b901a611ca78588611ea0565b5360041c928015611cbd57600019019190611bb5565b602482634e487b7160e01b81526011600452fd5b602483634e487b7160e01b81526032600452fd5b80634e487b7160e01b602492526032600452fd5b6000818152602090808252604092838220338352835260ff848320541615611d215750505050565b611d2a33611ec7565b845191611d3683611ab4565b60428352848301936060368637835115611ce55760308553835190600191821015611ce55790607860218601536041915b818311611dc257505050611c35576107ae938593611c1f93611c10604894610806995198857f416363657373436f6e74726f6c3a206163636f756e74200000000000000000008b978801528251928391603789019101611a16565b909192600f81166010811015611cd1576f181899199a1a9b1b9c1cb0b131b232b360811b901a611df28588611ea0565b5360041c928015611cbd57600019019190611d67565b90600091808352826020526001600160a01b036040842092169182845260205260ff604084205416611e3957505050565b80835282602052604083208284526020526040832060ff1981541690557ff6391f5c32d9c69d2a47ea670b442974b53935d1edc7fd64eb21e047a839171b339380a4565b91908201809211611e8a57565b634e487b7160e01b600052601160045260246000fd5b908151811015611eb1570160200190565b634e487b7160e01b600052603260045260246000fd5b604051906060820182811067ffffffffffffffff821117611a9e57604052602a8252602082016040368237825115611eb157603090538151600190811015611eb157607860218401536029905b808211611f68575050611f245790565b606460405162461bcd60e51b815260206004820152602060248201527f537472696e67733a20686578206c656e67746820696e73756666696369656e746044820152fd5b9091600f81166010811015611fc1576f181899199a1a9b1b9c1cb0b131b232b360811b901a611f978486611ea0565b5360041c918015611fac576000190190611f14565b60246000634e487b7160e01b81526011600452fd5b60246000634e487b7160e01b81526032600452fd5b908160209103126119fb57516001600160a01b03811681036119fb5790565b7f80000000000000000000000000000000000000000000000000000000000000008114611e8a5760000390565b91908203918211611e8a57565b600382101561203b5752565b634e487b7160e01b600052602160045260246000fd5b80549068010000000000000000821015611a9e5760018201808255821015611eb1576000526005602060002091020190805160c01c90825490602081015191600383101561203b5760049368ff000000000000000060a09460401b169168ffffffffffffffffff1916171784556040810151600185015560608101516002850155600384016001600160a01b036080830151167fffffffffffffffffffffffff00000000000000000000000000000000000000008254161790550151910155565b6040519061211f82611a82565b8160a06000918281528260208201528260408201528260608201528260808201520152565b1561214b57565b606460405162461bcd60e51b815260206004820152600e60248201527f4e6f7420617574686f72697a65640000000000000000000000000000000000006044820152fd5b6000198114611e8a5760010190565b906001600160c01b0319600092168252600560205260a060408320604051906121c682611a82565b8054825260018101546020830152600281015491604081019283526003820154606082015260048201549060056080820193838552015494859101521561225f576127109283810293818504149015171561224b575190811561223757612231939450519104611e7d565b60011c90565b602485634e487b7160e01b81526012600452fd5b602485634e487b7160e01b81526011600452fd5b5061138893505050565b8051821015611eb15760209160051b010190565b612286906122d1565b1561228d57565b606460405162461bcd60e51b815260206004820152601660248201527f50726f66696c6520646f6573206e6f74206578697374000000000000000000006044820152fd5b6003549060ff8260a01c161561241157604051917f85acd6410000000000000000000000000000000000000000000000000000000083527f377799b22fba826cf24c3f07e6731c67676765addcee33415a2c80d453d4ed6e600484015260209283816024816001600160a01b038096165afa9081156123e0576000916123f4575b50169081156123ec576001600160c01b03196024849260405194859384927fa86c5f640000000000000000000000000000000000000000000000000000000084521660048301525afa9182156123e0576000926123ae57505090565b81813d83116123d9575b6123c28183611ad0565b810103126101ea575190811515820361130e575090565b503d6123b8565b6040513d6000823e3d90fd5b505050600090565b61240b9150843d8611610bad57610b9e8183611ad0565b38612352565b6004604051633165f6e960e21b8152fdfea2646970667358221220f047c03ed4cc01449ecaa881c66b4f5737ebc9c1a9154ebada9238c63b7f1f0464736f6c634300081400332f8788117e7eff1d82e926ec794901d17c78024a50270940304540a733656f0d",
  "linkReferences": {},
  "deployedLinkReferences": {}
}