{
  "_format": "hh-sol-artifact-1",
  "contractName": "Flow",
  "sourceName": "contracts/modules/Flow/Flow.sol",
  "abi": [
    {
      "inputs": [],
      "stateMutability": "nonpayable",
      "type": "constructor"
    },
    {
      "inputs": [
        {
          "internalType": "uint256",
          "name": "raised",
          "type": "uint256"
        },
        {
          "internalType": "uint256",
          "name": "max",
          "type": "uint256"
        }
      ],
      "name": "CampaignCapReached",
      "type": "error"
    },
    {
      "inputs": [
        {
          "internalType": "bytes32",
          "name": "campaignId",
          "type": "bytes32"
        }
      ],
      "name": "CampaignEnded",
      "type": "error"
    },
    {
      "inputs": [
        {
          "internalType": "bytes32",
          "name": "campaignId",
          "type": "bytes32"
        }
      ],
      "name": "CampaignNotActive",
      "type": "error"
    },
    {
      "inputs": [
        {
          "internalType": "bytes32",
          "name": "campaignId",
          "type": "bytes32"
        }
      ],
      "name": "CampaignNotEnded",
      "type": "error"
    },
    {
      "inputs": [
        {
          "internalType": "bytes32",
          "name": "campaignId",
          "type": "bytes32"
        }
      ],
      "name": "CampaignNotFound",
      "type": "error"
    },
    {
      "inputs": [
        {
          "internalType": "bytes32",
          "name": "campaignId",
          "type": "bytes32"
        },
        {
          "internalType": "address",
          "name": "contributor",
          "type": "address"
        }
      ],
      "name": "ContributionAlreadyRefunded",
      "type": "error"
    },
    {
      "inputs": [
        {
          "internalType": "uint256",
          "name": "amount",
          "type": "uint256"
        },
        {
          "internalType": "uint256",
          "name": "max",
          "type": "uint256"
        }
      ],
      "name": "ContributionExceedsMax",
      "type": "error"
    },
    {
      "inputs": [
        {
          "internalType": "bytes32",
          "name": "campaignId",
          "type": "bytes32"
        },
        {
          "internalType": "address",
          "name": "token",
          "type": "address"
        }
      ],
      "name": "InsufficientRewardBalance",
      "type": "error"
    },
    {
      "inputs": [],
      "name": "InvalidCampaignParameters",
      "type": "error"
    },
    {
      "inputs": [
        {
          "internalType": "uint256",
          "name": "amount",
          "type": "uint256"
        }
      ],
      "name": "InvalidContributionAmount",
      "type": "error"
    },
    {
      "inputs": [
        {
          "internalType": "uint256",
          "name": "fee",
          "type": "uint256"
        }
      ],
      "name": "InvalidProtocolFee",
      "type": "error"
    },
    {
      "inputs": [],
      "name": "InvalidRegistryAddress",
      "type": "error"
    },
    {
      "inputs": [],
      "name": "ModuleAlreadyInitialized",
      "type": "error"
    },
    {
      "inputs": [],
      "name": "ModuleNotInitialized",
      "type": "error"
    },
    {
      "inputs": [
        {
          "internalType": "bytes32",
          "name": "campaignId",
          "type": "bytes32"
        },
        {
          "internalType": "address",
          "name": "contributor",
          "type": "address"
        }
      ],
      "name": "NoContributionFound",
      "type": "error"
    },
    {
      "inputs": [],
      "name": "OnlyRegistry",
      "type": "error"
    },
    {
      "inputs": [
        {
          "internalType": "bytes8",
          "name": "organizationId",
          "type": "bytes8"
        }
      ],
      "name": "OrganizationNotFound",
      "type": "error"
    },
    {
      "inputs": [
        {
          "internalType": "bytes32",
          "name": "campaignId",
          "type": "bytes32"
        },
        {
          "internalType": "address",
          "name": "contributor",
          "type": "address"
        },
        {
          "internalType": "address",
          "name": "token",
          "type": "address"
        }
      ],
      "name": "RewardsAlreadyClaimed",
      "type": "error"
    },
    {
      "inputs": [
        {
          "internalType": "bytes32",
          "name": "campaignId",
          "type": "bytes32"
        },
        {
          "internalType": "address",
          "name": "caller",
          "type": "address"
        }
      ],
      "name": "UnauthorizedCampaignAccess",
      "type": "error"
    },
    {
      "anonymous": false,
      "inputs": [
        {
          "indexed": true,
          "internalType": "bytes32",
          "name": "campaignId",
          "type": "bytes32"
        },
        {
          "indexed": true,
          "internalType": "bytes8",
          "name": "organizationId",
          "type": "bytes8"
        },
        {
          "indexed": true,
          "internalType": "address",
          "name": "creator",
          "type": "address"
        },
        {
          "indexed": false,
          "internalType": "string",
          "name": "title",
          "type": "string"
        },
        {
          "indexed": false,
          "internalType": "enum IFlow.FlowType",
          "name": "flowType",
          "type": "uint8"
        },
        {
          "indexed": false,
          "internalType": "uint256",
          "name": "target",
          "type": "uint256"
        },
        {
          "indexed": false,
          "internalType": "uint256",
          "name": "startTime",
          "type": "uint256"
        },
        {
          "indexed": false,
          "internalType": "uint256",
          "name": "endTime",
          "type": "uint256"
        },
        {
          "indexed": false,
          "internalType": "uint256",
          "name": "timestamp",
          "type": "uint256"
        }
      ],
      "name": "CampaignCreated",
      "type": "event"
    },
    {
      "anonymous": false,
      "inputs": [
        {
          "indexed": true,
          "internalType": "bytes32",
          "name": "campaignId",
          "type": "bytes32"
        },
        {
          "indexed": false,
          "internalType": "enum IFlow.FlowState",
          "name": "finalState",
          "type": "uint8"
        },
        {
          "indexed": false,
          "internalType": "uint256",
          "name": "totalRaised",
          "type": "uint256"
        },
        {
          "indexed": false,
          "internalType": "uint256",
          "name": "contributorCount",
          "type": "uint256"
        },
        {
          "indexed": false,
          "internalType": "uint256",
          "name": "timestamp",
          "type": "uint256"
        }
      ],
      "name": "CampaignFinalized",
      "type": "event"
    },
    {
      "anonymous": false,
      "inputs": [
        {
          "indexed": true,
          "internalType": "bytes32",
          "name": "campaignId",
          "type": "bytes32"
        },
        {
          "indexed": false,
          "internalType": "enum IFlow.FlowState",
          "name": "oldState",
          "type": "uint8"
        },
        {
          "indexed": false,
          "internalType": "enum IFlow.FlowState",
          "name": "newState",
          "type": "uint8"
        },
        {
          "indexed": false,
          "internalType": "uint256",
          "name": "timestamp",
          "type": "uint256"
        }
      ],
      "name": "CampaignStateChanged",
      "type": "event"
    },
    {
      "anonymous": false,
      "inputs": [
        {
          "indexed": true,
          "internalType": "bytes32",
          "name": "campaignId",
          "type": "bytes32"
        },
        {
          "indexed": false,
          "internalType": "string",
          "name": "title",
          "type": "string"
        },
        {
          "indexed": false,
          "internalType": "string",
          "name": "description",
          "type": "string"
        },
        {
          "indexed": false,
          "internalType": "uint256",
          "name": "target",
          "type": "uint256"
        },
        {
          "indexed": false,
          "internalType": "uint256",
          "name": "min",
          "type": "uint256"
        },
        {
          "indexed": false,
          "internalType": "uint256",
          "name": "max",
          "type": "uint256"
        },
        {
          "indexed": false,
          "internalType": "uint256",
          "name": "endTime",
          "type": "uint256"
        },
        {
          "indexed": false,
          "internalType": "uint256",
          "name": "timestamp",
          "type": "uint256"
        }
      ],
      "name": "CampaignUpdated",
      "type": "event"
    },
    {
      "anonymous": false,
      "inputs": [
        {
          "indexed": true,
          "internalType": "bytes32",
          "name": "campaignId",
          "type": "bytes32"
        },
        {
          "indexed": true,
          "internalType": "address",
          "name": "contributor",
          "type": "address"
        },
        {
          "indexed": false,
          "internalType": "uint256",
          "name": "amount",
          "type": "uint256"
        },
        {
          "indexed": false,
          "internalType": "uint256",
          "name": "totalRaised",
          "type": "uint256"
        },
        {
          "indexed": false,
          "internalType": "uint256",
          "name": "timestamp",
          "type": "uint256"
        }
      ],
      "name": "ContributionMade",
      "type": "event"
    },
    {
      "anonymous": false,
      "inputs": [
        {
          "indexed": true,
          "internalType": "bytes32",
          "name": "campaignId",
          "type": "bytes32"
        },
        {
          "indexed": true,
          "internalType": "address",
          "name": "contributor",
          "type": "address"
        },
        {
          "indexed": false,
          "internalType": "uint256",
          "name": "amount",
          "type": "uint256"
        },
        {
          "indexed": false,
          "internalType": "uint256",
          "name": "timestamp",
          "type": "uint256"
        }
      ],
      "name": "ContributionRefunded",
      "type": "event"
    },
    {
      "anonymous": false,
      "inputs": [],
      "name": "ModuleDisabled",
      "type": "event"
    },
    {
      "anonymous": false,
      "inputs": [],
      "name": "ModuleEnabled",
      "type": "event"
    },
    {
      "anonymous": false,
      "inputs": [
        {
          "indexed": true,
          "internalType": "address",
          "name": "registry",
          "type": "address"
        }
      ],
      "name": "ModuleInitialized",
      "type": "event"
    },
    {
      "anonymous": false,
      "inputs": [
        {
          "indexed": false,
          "internalType": "address",
          "name": "account",
          "type": "address"
        }
      ],
      "name": "Paused",
      "type": "event"
    },
    {
      "anonymous": false,
      "inputs": [
        {
          "indexed": true,
          "internalType": "bytes32",
          "name": "campaignId",
          "type": "bytes32"
        },
        {
          "indexed": true,
          "internalType": "address",
          "name": "token",
          "type": "address"
        },
        {
          "indexed": false,
          "internalType": "uint256",
          "name": "amount",
          "type": "uint256"
        },
        {
          "indexed": false,
          "internalType": "uint256",
          "name": "timestamp",
          "type": "uint256"
        }
      ],
      "name": "ProtocolFeeCollected",
      "type": "event"
    },
    {
      "anonymous": false,
      "inputs": [
        {
          "indexed": true,
          "internalType": "bytes32",
          "name": "campaignId",
          "type": "bytes32"
        },
        {
          "indexed": true,
          "internalType": "address",
          "name": "token",
          "type": "address"
        },
        {
          "indexed": false,
          "internalType": "uint256",
          "name": "totalAmount",
          "type": "uint256"
        },
        {
          "indexed": false,
          "internalType": "uint256",
          "name": "contributorCount",
          "type": "uint256"
        },
        {
          "indexed": false,
          "internalType": "uint256",
          "name": "timestamp",
          "type": "uint256"
        }
      ],
      "name": "RewardsDistributed",
      "type": "event"
    },
    {
      "anonymous": false,
      "inputs": [
        {
          "indexed": true,
          "internalType": "bytes32",
          "name": "role",
          "type": "bytes32"
        },
        {
          "indexed": true,
          "internalType": "bytes32",
          "name": "previousAdminRole",
          "type": "bytes32"
        },
        {
          "indexed": true,
          "internalType": "bytes32",
          "name": "newAdminRole",
          "type": "bytes32"
        }
      ],
      "name": "RoleAdminChanged",
      "type": "event"
    },
    {
      "anonymous": false,
      "inputs": [
        {
          "indexed": true,
          "internalType": "bytes32",
          "name": "role",
          "type": "bytes32"
        },
        {
          "indexed": true,
          "internalType": "address",
          "name": "account",
          "type": "address"
        },
        {
          "indexed": true,
          "internalType": "address",
          "name": "sender",
          "type": "address"
        }
      ],
      "name": "RoleGranted",
      "type": "event"
    },
    {
      "anonymous": false,
      "inputs": [
        {
          "indexed": true,
          "internalType": "bytes32",
          "name": "role",
          "type": "bytes32"
        },
        {
          "indexed": true,
          "internalType": "address",
          "name": "account",
          "type": "address"
        },
        {
          "indexed": true,
          "internalType": "address",
          "name": "sender",
          "type": "address"
        }
      ],
      "name": "RoleRevoked",
      "type": "event"
    },
    {
      "anonymous": false,
      "inputs": [
        {
          "indexed": false,
          "internalType": "address",
          "name": "account",
          "type": "address"
        }
      ],
      "name": "Unpaused",
      "type": "event"
    },
    {
      "inputs": [],
      "name": "ADMIN_ROLE",
      "outputs": [
        {
          "internalType": "bytes32",
          "name": "",
          "type": "bytes32"
        }
      ],
      "stateMutability": "view",
      "type": "function"
    },
    {
      "inputs": [],
      "name": "BASIS_POINTS",
      "outputs": [
        {
          "internalType": "uint256",
          "name": "",
          "type": "uint256"
        }
      ],
      "stateMutability": "view",
      "type": "function"
    },
    {
      "inputs": [],
      "name": "CAMPAIGN_CREATION_REPUTATION",
      "outputs": [
        {
          "internalType": "uint256",
          "name": "",
          "type": "uint256"
        }
      ],
      "stateMutability": "view",
      "type": "function"
    },
    {
      "inputs": [],
      "name": "CAMPAIGN_CREATOR_ROLE",
      "outputs": [
        {
          "internalType": "bytes32",
          "name": "",
          "type": "bytes32"
        }
      ],
      "stateMutability": "view",
      "type": "function"
    },
    {
      "inputs": [],
      "name": "CAMPAIGN_SUCCESS_REPUTATION",
      "outputs": [
        {
          "internalType": "uint256",
          "name": "",
          "type": "uint256"
        }
      ],
      "stateMutability": "view",
      "type": "function"
    },
    {
      "inputs": [],
      "name": "CONTRIBUTION_REPUTATION",
      "outputs": [
        {
          "internalType": "uint256",
          "name": "",
          "type": "uint256"
        }
      ],
      "stateMutability": "view",
      "type": "function"
    },
    {
      "inputs": [],
      "name": "DEFAULT_ADMIN_ROLE",
      "outputs": [
        {
          "internalType": "bytes32",
          "name": "",
          "type": "bytes32"
        }
      ],
      "stateMutability": "view",
      "type": "function"
    },
    {
      "inputs": [],
      "name": "FLOW_ADMIN_ROLE",
      "outputs": [
        {
          "internalType": "bytes32",
          "name": "",
          "type": "bytes32"
        }
      ],
      "stateMutability": "view",
      "type": "function"
    },
    {
      "inputs": [],
      "name": "LARGE_CONTRIBUTION_BONUS",
      "outputs": [
        {
          "internalType": "uint256",
          "name": "",
          "type": "uint256"
        }
      ],
      "stateMutability": "view",
      "type": "function"
    },
    {
      "inputs": [],
      "name": "LARGE_CONTRIBUTION_THRESHOLD",
      "outputs": [
        {
          "internalType": "uint256",
          "name": "",
          "type": "uint256"
        }
      ],
      "stateMutability": "view",
      "type": "function"
    },
    {
      "inputs": [],
      "name": "MAX_PROTOCOL_FEE",
      "outputs": [
        {
          "internalType": "uint256",
          "name": "",
          "type": "uint256"
        }
      ],
      "stateMutability": "view",
      "type": "function"
    },
    {
      "inputs": [],
      "name": "MODULE_ADMIN_ROLE",
      "outputs": [
        {
          "internalType": "bytes32",
          "name": "",
          "type": "bytes32"
        }
      ],
      "stateMutability": "view",
      "type": "function"
    },
    {
      "inputs": [],
      "name": "OPERATOR_ROLE",
      "outputs": [
        {
          "internalType": "bytes32",
          "name": "",
          "type": "bytes32"
        }
      ],
      "stateMutability": "view",
      "type": "function"
    },
    {
      "inputs": [
        {
          "internalType": "uint256",
          "name": "amount",
          "type": "uint256"
        }
      ],
      "name": "calculateProtocolFee",
      "outputs": [
        {
          "internalType": "uint256",
          "name": "",
          "type": "uint256"
        }
      ],
      "stateMutability": "view",
      "type": "function"
    },
    {
      "inputs": [
        {
          "internalType": "bytes32",
          "name": "campaignId",
          "type": "bytes32"
        },
        {
          "internalType": "address",
          "name": "",
          "type": "address"
        }
      ],
      "name": "canContribute",
      "outputs": [
        {
          "internalType": "bool",
          "name": "",
          "type": "bool"
        }
      ],
      "stateMutability": "view",
      "type": "function"
    },
    {
      "inputs": [
        {
          "internalType": "bytes32",
          "name": "campaignId",
          "type": "bytes32"
        },
        {
          "internalType": "address",
          "name": "rewardToken",
          "type": "address"
        }
      ],
      "name": "claimRewards",
      "outputs": [],
      "stateMutability": "nonpayable",
      "type": "function"
    },
    {
      "inputs": [
        {
          "internalType": "bytes32",
          "name": "campaignId",
          "type": "bytes32"
        },
        {
          "internalType": "uint256",
          "name": "amount",
          "type": "uint256"
        },
        {
          "internalType": "string",
          "name": "metadata",
          "type": "string"
        }
      ],
      "name": "contribute",
      "outputs": [],
      "stateMutability": "payable",
      "type": "function"
    },
    {
      "inputs": [
        {
          "internalType": "bytes8",
          "name": "organizationId",
          "type": "bytes8"
        },
        {
          "internalType": "string",
          "name": "title",
          "type": "string"
        },
        {
          "internalType": "string",
          "name": "description",
          "type": "string"
        },
        {
          "internalType": "string",
          "name": "metadataURI",
          "type": "string"
        },
        {
          "internalType": "enum IFlow.FlowType",
          "name": "flowType",
          "type": "uint8"
        },
        {
          "internalType": "address",
          "name": "paymentToken",
          "type": "address"
        },
        {
          "internalType": "uint256",
          "name": "target",
          "type": "uint256"
        },
        {
          "internalType": "uint256",
          "name": "min",
          "type": "uint256"
        },
        {
          "internalType": "uint256",
          "name": "max",
          "type": "uint256"
        },
        {
          "internalType": "uint256",
          "name": "duration",
          "type": "uint256"
        },
        {
          "internalType": "bool",
          "name": "autoFinalize",
          "type": "bool"
        }
      ],
      "name": "createCampaign",
      "outputs": [
        {
          "internalType": "bytes32",
          "name": "campaignId",
          "type": "bytes32"
        }
      ],
      "stateMutability": "nonpayable",
      "type": "function"
    },
    {
      "inputs": [
        {
          "internalType": "address",
          "name": "creator",
          "type": "address"
        },
        {
          "internalType": "bytes8",
          "name": "organizationId",
          "type": "bytes8"
        },
        {
          "components": [
            {
              "internalType": "string",
              "name": "title",
              "type": "string"
            },
            {
              "internalType": "string",
              "name": "description",
              "type": "string"
            },
            {
              "internalType": "string",
              "name": "metadataURI",
              "type": "string"
            },
            {
              "internalType": "enum IFlow.FlowType",
              "name": "flowType",
              "type": "uint8"
            },
            {
              "internalType": "address",
              "name": "paymentToken",
              "type": "address"
            },
            {
              "internalType": "uint256",
              "name": "target",
              "type": "uint256"
            },
            {
              "internalType": "uint256",
              "name": "min",
              "type": "uint256"
            },
            {
              "internalType": "uint256",
              "name": "max",
              "type": "uint256"
            },
            {
              "internalType": "uint256",
              "name": "duration",
              "type": "uint256"
            },
            {
              "internalType": "bool",
              "name": "autoFinalize",
              "type": "bool"
            }
          ],
          "internalType": "struct IFlow.CampaignParams",
          "name": "params",
          "type": "tuple"
        }
      ],
      "name": "createCampaignWithParams",
      "outputs": [
        {
          "internalType": "bytes32",
          "name": "campaignId",
          "type": "bytes32"
        }
      ],
      "stateMutability": "nonpayable",
      "type": "function"
    },
    {
      "inputs": [
        {
          "internalType": "bytes32",
          "name": "campaignId",
          "type": "bytes32"
        },
        {
          "internalType": "address",
          "name": "rewardToken",
          "type": "address"
        },
        {
          "internalType": "uint256",
          "name": "totalRewardAmount",
          "type": "uint256"
        }
      ],
      "name": "distributeRewards",
      "outputs": [],
      "stateMutability": "nonpayable",
      "type": "function"
    },
    {
      "inputs": [],
      "name": "emergencyPause",
      "outputs": [],
      "stateMutability": "nonpayable",
      "type": "function"
    },
    {
      "inputs": [],
      "name": "emergencyUnpause",
      "outputs": [],
      "stateMutability": "nonpayable",
      "type": "function"
    },
    {
      "inputs": [
        {
          "internalType": "address",
          "name": "token",
          "type": "address"
        },
        {
          "internalType": "address",
          "name": "to",
          "type": "address"
        },
        {
          "internalType": "uint256",
          "name": "amount",
          "type": "uint256"
        }
      ],
      "name": "emergencyWithdraw",
      "outputs": [],
      "stateMutability": "nonpayable",
      "type": "function"
    },
    {
      "inputs": [
        {
          "internalType": "bytes32",
          "name": "campaignId",
          "type": "bytes32"
        }
      ],
      "name": "finalizeCampaign",
      "outputs": [],
      "stateMutability": "nonpayable",
      "type": "function"
    },
    {
      "inputs": [
        {
          "internalType": "bytes32",
          "name": "campaignId",
          "type": "bytes32"
        }
      ],
      "name": "getCampaign",
      "outputs": [
        {
          "components": [
            {
              "internalType": "uint256",
              "name": "index",
              "type": "uint256"
            },
            {
              "internalType": "bytes8",
              "name": "organizationId",
              "type": "bytes8"
            },
            {
              "internalType": "address",
              "name": "creator",
              "type": "address"
            },
            {
              "internalType": "address",
              "name": "admin",
              "type": "address"
            },
            {
              "internalType": "string",
              "name": "title",
              "type": "string"
            },
            {
              "internalType": "string",
              "name": "description",
              "type": "string"
            },
            {
              "internalType": "string",
              "name": "metadataURI",
              "type": "string"
            },
            {
              "internalType": "enum IFlow.FlowType",
              "name": "flowType",
              "type": "uint8"
            },
            {
              "internalType": "enum IFlow.FlowState",
              "name": "state",
              "type": "uint8"
            },
            {
              "internalType": "address",
              "name": "paymentToken",
              "type": "address"
            },
            {
              "internalType": "uint256",
              "name": "target",
              "type": "uint256"
            },
            {
              "internalType": "uint256",
              "name": "min",
              "type": "uint256"
            },
            {
              "internalType": "uint256",
              "name": "max",
              "type": "uint256"
            },
            {
              "internalType": "uint256",
              "name": "raised",
              "type": "uint256"
            },
            {
              "internalType": "uint256",
              "name": "contributorCount",
              "type": "uint256"
            },
            {
              "internalType": "uint256",
              "name": "startTime",
              "type": "uint256"
            },
            {
              "internalType": "uint256",
              "name": "endTime",
              "type": "uint256"
            },
            {
              "internalType": "uint256",
              "name": "createdAt",
              "type": "uint256"
            },
            {
              "internalType": "uint256",
              "name": "updatedAt",
              "type": "uint256"
            },
            {
              "internalType": "bool",
              "name": "autoFinalize",
              "type": "bool"
            },
            {
              "internalType": "uint256",
              "name": "protocolFee",
              "type": "uint256"
            }
          ],
          "internalType": "struct IFlow.Campaign",
          "name": "",
          "type": "tuple"
        }
      ],
      "stateMutability": "view",
      "type": "function"
    },
    {
      "inputs": [
        {
          "internalType": "bytes32",
          "name": "campaignId",
          "type": "bytes32"
        }
      ],
      "name": "getCampaignContributors",
      "outputs": [
        {
          "internalType": "address[]",
          "name": "",
          "type": "address[]"
        }
      ],
      "stateMutability": "view",
      "type": "function"
    },
    {
      "inputs": [],
      "name": "getCampaignCount",
      "outputs": [
        {
          "internalType": "uint256",
          "name": "",
          "type": "uint256"
        }
      ],
      "stateMutability": "view",
      "type": "function"
    },
    {
      "inputs": [
        {
          "internalType": "bytes32",
          "name": "campaignId",
          "type": "bytes32"
        }
      ],
      "name": "getCampaignProgress",
      "outputs": [
        {
          "internalType": "uint256",
          "name": "raised",
          "type": "uint256"
        },
        {
          "internalType": "uint256",
          "name": "target",
          "type": "uint256"
        },
        {
          "internalType": "uint256",
          "name": "percentage",
          "type": "uint256"
        }
      ],
      "stateMutability": "view",
      "type": "function"
    },
    {
      "inputs": [
        {
          "internalType": "bytes8",
          "name": "organizationId",
          "type": "bytes8"
        }
      ],
      "name": "getCampaignsByOrganization",
      "outputs": [
        {
          "internalType": "bytes32[]",
          "name": "",
          "type": "bytes32[]"
        }
      ],
      "stateMutability": "view",
      "type": "function"
    },
    {
      "inputs": [
        {
          "internalType": "enum IFlow.FlowState",
          "name": "state",
          "type": "uint8"
        }
      ],
      "name": "getCampaignsByState",
      "outputs": [
        {
          "internalType": "bytes32[]",
          "name": "",
          "type": "bytes32[]"
        }
      ],
      "stateMutability": "view",
      "type": "function"
    },
    {
      "inputs": [
        {
          "internalType": "bytes32",
          "name": "campaignId",
          "type": "bytes32"
        },
        {
          "internalType": "address",
          "name": "contributor",
          "type": "address"
        }
      ],
      "name": "getContribution",
      "outputs": [
        {
          "components": [
            {
              "internalType": "address",
              "name": "contributor",
              "type": "address"
            },
            {
              "internalType": "uint256",
              "name": "amount",
              "type": "uint256"
            },
            {
              "internalType": "uint256",
              "name": "timestamp",
              "type": "uint256"
            },
            {
              "internalType": "enum IFlow.ContributorState",
              "name": "state",
              "type": "uint8"
            },
            {
              "internalType": "string",
              "name": "metadata",
              "type": "string"
            }
          ],
          "internalType": "struct IFlow.Contribution",
          "name": "",
          "type": "tuple"
        }
      ],
      "stateMutability": "view",
      "type": "function"
    },
    {
      "inputs": [],
      "name": "getProtocolFeeRate",
      "outputs": [
        {
          "internalType": "uint256",
          "name": "",
          "type": "uint256"
        }
      ],
      "stateMutability": "view",
      "type": "function"
    },
    {
      "inputs": [
        {
          "internalType": "bytes32",
          "name": "campaignId",
          "type": "bytes32"
        },
        {
          "internalType": "address",
          "name": "rewardToken",
          "type": "address"
        },
        {
          "internalType": "address",
          "name": "contributor",
          "type": "address"
        }
      ],
      "name": "getRewardDistribution",
      "outputs": [
        {
          "internalType": "uint256",
          "name": "totalReward",
          "type": "uint256"
        },
        {
          "internalType": "uint256",
          "name": "claimedAmount",
          "type": "uint256"
        },
        {
          "internalType": "uint256",
          "name": "claimableAmount",
          "type": "uint256"
        }
      ],
      "stateMutability": "view",
      "type": "function"
    },
    {
      "inputs": [
        {
          "internalType": "bytes32",
          "name": "role",
          "type": "bytes32"
        }
      ],
      "name": "getRoleAdmin",
      "outputs": [
        {
          "internalType": "bytes32",
          "name": "",
          "type": "bytes32"
        }
      ],
      "stateMutability": "view",
      "type": "function"
    },
    {
      "inputs": [
        {
          "internalType": "bytes32",
          "name": "campaignId",
          "type": "bytes32"
        }
      ],
      "name": "getTimeRemaining",
      "outputs": [
        {
          "internalType": "uint256",
          "name": "",
          "type": "uint256"
        }
      ],
      "stateMutability": "view",
      "type": "function"
    },
    {
      "inputs": [
        {
          "internalType": "bytes32",
          "name": "role",
          "type": "bytes32"
        },
        {
          "internalType": "address",
          "name": "account",
          "type": "address"
        }
      ],
      "name": "grantRole",
      "outputs": [],
      "stateMutability": "nonpayable",
      "type": "function"
    },
    {
      "inputs": [
        {
          "internalType": "bytes32",
          "name": "role",
          "type": "bytes32"
        },
        {
          "internalType": "address",
          "name": "account",
          "type": "address"
        }
      ],
      "name": "hasRole",
      "outputs": [
        {
          "internalType": "bool",
          "name": "",
          "type": "bool"
        }
      ],
      "stateMutability": "view",
      "type": "function"
    },
    {
      "inputs": [
        {
          "internalType": "address",
          "name": "registryAddress",
          "type": "address"
        }
      ],
      "name": "initialize",
      "outputs": [],
      "stateMutability": "nonpayable",
      "type": "function"
    },
    {
      "inputs": [
        {
          "internalType": "bytes32",
          "name": "campaignId",
          "type": "bytes32"
        }
      ],
      "name": "isCampaignActive",
      "outputs": [
        {
          "internalType": "bool",
          "name": "",
          "type": "bool"
        }
      ],
      "stateMutability": "view",
      "type": "function"
    },
    {
      "inputs": [],
      "name": "isInitialized",
      "outputs": [
        {
          "internalType": "bool",
          "name": "",
          "type": "bool"
        }
      ],
      "stateMutability": "view",
      "type": "function"
    },
    {
      "inputs": [],
      "name": "moduleId",
      "outputs": [
        {
          "internalType": "bytes32",
          "name": "",
          "type": "bytes32"
        }
      ],
      "stateMutability": "pure",
      "type": "function"
    },
    {
      "inputs": [],
      "name": "onModuleDisabled",
      "outputs": [],
      "stateMutability": "nonpayable",
      "type": "function"
    },
    {
      "inputs": [],
      "name": "onModuleEnabled",
      "outputs": [],
      "stateMutability": "nonpayable",
      "type": "function"
    },
    {
      "inputs": [],
      "name": "pause",
      "outputs": [],
      "stateMutability": "nonpayable",
      "type": "function"
    },
    {
      "inputs": [],
      "name": "paused",
      "outputs": [
        {
          "internalType": "bool",
          "name": "",
          "type": "bool"
        }
      ],
      "stateMutability": "view",
      "type": "function"
    },
    {
      "inputs": [
        {
          "internalType": "bytes32",
          "name": "campaignId",
          "type": "bytes32"
        },
        {
          "internalType": "address",
          "name": "contributor",
          "type": "address"
        }
      ],
      "name": "refundContribution",
      "outputs": [],
      "stateMutability": "nonpayable",
      "type": "function"
    },
    {
      "inputs": [],
      "name": "registry",
      "outputs": [
        {
          "internalType": "address",
          "name": "",
          "type": "address"
        }
      ],
      "stateMutability": "view",
      "type": "function"
    },
    {
      "inputs": [
        {
          "internalType": "bytes32",
          "name": "role",
          "type": "bytes32"
        },
        {
          "internalType": "address",
          "name": "account",
          "type": "address"
        }
      ],
      "name": "renounceRole",
      "outputs": [],
      "stateMutability": "nonpayable",
      "type": "function"
    },
    {
      "inputs": [
        {
          "internalType": "bytes32",
          "name": "role",
          "type": "bytes32"
        },
        {
          "internalType": "address",
          "name": "account",
          "type": "address"
        }
      ],
      "name": "revokeRole",
      "outputs": [],
      "stateMutability": "nonpayable",
      "type": "function"
    },
    {
      "inputs": [
        {
          "internalType": "bytes32",
          "name": "campaignId",
          "type": "bytes32"
        },
        {
          "internalType": "enum IFlow.FlowState",
          "name": "newState",
          "type": "uint8"
        }
      ],
      "name": "setCampaignState",
      "outputs": [],
      "stateMutability": "nonpayable",
      "type": "function"
    },
    {
      "inputs": [
        {
          "internalType": "uint256",
          "name": "newRate",
          "type": "uint256"
        }
      ],
      "name": "setProtocolFeeRate",
      "outputs": [],
      "stateMutability": "nonpayable",
      "type": "function"
    },
    {
      "inputs": [
        {
          "internalType": "address",
          "name": "newRecipient",
          "type": "address"
        }
      ],
      "name": "setProtocolFeeRecipient",
      "outputs": [],
      "stateMutability": "nonpayable",
      "type": "function"
    },
    {
      "inputs": [
        {
          "internalType": "bytes4",
          "name": "interfaceId",
          "type": "bytes4"
        }
      ],
      "name": "supportsInterface",
      "outputs": [
        {
          "internalType": "bool",
          "name": "",
          "type": "bool"
        }
      ],
      "stateMutability": "view",
      "type": "function"
    },
    {
      "inputs": [],
      "name": "unpause",
      "outputs": [],
      "stateMutability": "nonpayable",
      "type": "function"
    },
    {
      "inputs": [
        {
          "internalType": "bytes32",
          "name": "campaignId",
          "type": "bytes32"
        },
        {
          "internalType": "string",
          "name": "title",
          "type": "string"
        },
        {
          "internalType": "string",
          "name": "description",
          "type": "string"
        },
        {
          "internalType": "uint256",
          "name": "target",
          "type": "uint256"
        },
        {
          "internalType": "uint256",
          "name": "min",
          "type": "uint256"
        },
        {
          "internalType": "uint256",
          "name": "max",
          "type": "uint256"
        },
        {
          "internalType": "uint256",
          "name": "endTime",
          "type": "uint256"
        }
      ],
      "name": "updateCampaign",
      "outputs": [],
      "stateMutability": "nonpayable",
      "type": "function"
    },
    {
      "inputs": [],
      "name": "version",
      "outputs": [
        {
          "internalType": "string",
          "name": "",
          "type": "string"
        }
      ],
      "stateMutability": "view",
      "type": "function"
    },
    {
      "inputs": [
        {
          "internalType": "bytes32",
          "name": "campaignId",
          "type": "bytes32"
        },
        {
          "internalType": "address",
          "name": "to",
          "type": "address"
        },
        {
          "internalType": "uint256",
          "name": "amount",
          "type": "uint256"
        }
      ],
      "name": "withdrawFunds",
      "outputs": [],
      "stateMutability": "nonpayable",
      "type": "function"
    },
    {
      "stateMutability": "payable",
      "type": "receive"
    }
  ],
  "bytecode": "0x60806040523462000026576200001462000188565b604051615b2d6200059b8239615b2d90f35b600080fd5b634e487b7160e01b600052604160045260246000fd5b90601f01601f191681019081106001600160401b038211176200006357604052565b6200002b565b90620000806200007860405190565b928362000041565b565b6001600160401b0381116200006357602090601f01601f19160190565b90620000b5620000af8362000082565b62000069565b918252565b620000c660056200009f565b640312e302e360dc1b602082015290565b620000e1620000ba565b90565b620000e1620000e1620000e19290565b90600019905b9181191691161790565b9062000118620000e16200012092620000e4565b8254620000f4565b9055565b906001600160a01b0390620000fa565b620000e1906200014a906001600160a01b031682565b6001600160a01b031690565b620000e19062000134565b620000e19062000156565b9062000180620000e1620001209262000161565b825462000124565b6200019c62000196620000d7565b62000219565b620001b4620001ac60fa620000e4565b600e62000104565b6200008033620001c681600f6200016c565b620001f2817f8f882e9b3b0c043c8507802fbb9a0ed808c8f0587361ab18424493e6841512a8620004ec565b7faabecfdf6c789f9fb8a93bd3a33e66be61c9d95c3d88fbe57f4acd20b6d738f8620004ec565b620000809062000418565b634e487b7160e01b600052602260045260246000fd5b90600160028304921680156200025d575b60208310146200025757565b62000224565b91607f16916200024b565b9160001960089290920291821b911b620000fa565b919062000292620000e16200012093620000e4565b90835462000268565b62000080916000916200027d565b818110620002b5575050565b80620002c560006001936200029b565b01620002a9565b9190601f8111620002dc57505050565b620002f06200008093600052602060002090565b906020601f84018190048301931062000314575b6020601f909101040190620002a9565b909150819062000304565b9062000329815190565b906001600160401b038211620000635762000351826200034a85546200023a565b85620002cc565b602090601f831160011462000390576200012092916000918362000384575b5050600019600883021c1916906002021790565b01519050388062000370565b601f19831691620003a685600052602060002090565b9260005b818110620003e757509160029391856001969410620003cd575b50505002019055565b01516000196008601f8516021c19169055388080620003c4565b91936020600181928787015181550195019201620003aa565b9062000080916200031f565b620000e16000620000e4565b6200042f90620004276200047d565b600462000400565b620000806200043d6200040c565b6200044a338092620004ec565b7fa49807205ce4d355092ef5a8a18f56e8913cf4a201fbe287825b095693c21775620004ec565b620000e16001620000e4565b62000487620004c2565b620000806200049562000471565b600262000104565b9060ff90620000fa565b90620004ba620000e16200012092151590565b82546200049d565b6200008060006001620004a7565b905b600052602052604060002090565b90620004d29062000161565b9062000501620004fd82846200057b565b1590565b6200050a575050565b6200053060016200052a836000620005238782620004d0565b01620004e0565b620004a7565b33906200056a62000563620005637f2f8788117e7eff1d82e926ec794901d17c78024a50270940304540a733656f0d9590565b9262000161565b926200057560405190565b600090a4565b620000e19162000593916200052360009182620004d0565b5460ff169056fe6080604052600436101561001b575b361561001957600080fd5b005b60003560e01c806301ffc9a7146103a6578063132bb268146103a157806320746f611461039c578063248a9ca3146103975780632604d6bf146103925780632cb346571461038d5780632f2ff15d1461038857806332be9ebc1461038357806336568abe1461037e578063392e53cd146103795780633da6e61e146103745780633f4ba83a1461036f5780634a4e3bd51461036a57806351858e271461036557806354fd4d5014610360578063563ffcba1461035b57806357bbcd65146103565780635b5eedf1146103515780635c975abb1461034c5780635d044b7e146103475780636693643f1461034257806366e854541461033d5780636caa92181461033857806375b238fc146103335780637b1039991461032e5780637b75083c146103295780637fa63456146103245780638456cb591461031f5780638ce2f2d61461031a57806391d1485414610315578063992daefc146103105780639c7c270c1461030b578063a1308f2714610306578063a217fddf14610301578063a229f93b146102fc578063aa7318aa146102f7578063aeb37e9b146102f2578063b13aa2d6146102ed578063b8ca3b83146102e8578063ba36d56e1461029d578063baefb8f0146102e3578063c4d66de8146102de578063c7fe4e54146102d9578063cabe0452146102d4578063d547741f146102cf578063dd6f4ff2146102ca578063dfd9ff78146102c5578063e1f1c4a7146102c0578063e521cb92146102bb578063e63ea408146102b6578063e6c79452146102b1578063ebf8a3e6146102ac578063f5b541a6146102a7578063f7fab94f146102a2578063f92cdaba1461029d578063fb24973c146102985763fcec9eca0361000e57611489565b6113f8565b610f2f565b6113dd565b6113a4565b61138c565b611371565b611345565b611314565b6112f9565b6112cb565b6112a3565b611248565b611221565b611018565b611000565b610fc5565b610f02565b610ed7565b610ebb565b610ea3565b610e7b565b610d83565b610d38565b610d1d565b610d04565b610ce8565b610ccd565b610c9b565b610c83565b610c5c565b610c26565b610bed565b610bd2565b610bb7565b610b70565b610aac565b610a91565b610a78565b610a59565b6109b4565b610953565b6108d3565b6108bb565b6108a3565b610887565b61083c565b610818565b6107fd565b6107e4565b6107a5565b610532565b610507565b6104dc565b610489565b6103ed565b6001600160e01b031981165b036103be57565b600080fd5b905035906103d0826103ab565b565b906020828203126103be576103e6916103c3565b90565b9052565b346103be5761041a6104086104033660046103d2565b6114b0565b60405191829182901515815260200190565b0390f35b806103b7565b905035906103d08261041e565b6001600160a01b031690565b6001600160a01b0381166103b7565b905035906103d08261043d565b90916060828403126103be576103e66104728484610424565b93610480816020860161044c565b93604001610424565b346103be576104a261049c366004610459565b916144e4565b604051005b906020828203126103be576103e691610424565b9081526060810193926103d09290916040916104d8906020830152565b0152565b346103be5761041a6104f76104f23660046104a7565b6157e0565b6040519193915b938493846104bb565b346103be5761041a61052261051d3660046104a7565b611571565b6040519182918290815260200190565b346103be5761041a6104086105483660046104a7565b6156a5565b6001600160c01b031981166103b7565b905035906103d08261054d565b634e487b7160e01b600052604160045260246000fd5b90601f01601f1916810190811067ffffffffffffffff8211176105a257604052565b61056a565b906103d06105b460405190565b9283610580565b67ffffffffffffffff81116105a257602090601f01601f19160190565b0190565b90826000939282370152565b909291926105fd6105f8826105bb565b6105a7565b938185526020850190828401116103be576103d0926105dc565b9080601f830112156103be578160206103e6933591016105e8565b600611156103be57565b905035906103d082610632565b8015156103b7565b905035906103d082610649565b919091610140818403126103be576106776101406105a7565b92813567ffffffffffffffff81116103be5781610695918401610617565b8452602082013567ffffffffffffffff81116103be57816106b7918401610617565b602085015260408201359067ffffffffffffffff82116103be576106e08161075d938501610617565b604086015260606106f38282860161063c565b9086015260806107058282860161044c565b9086015260a061071782828601610424565b9086015260c061072982828601610424565b9086015260e061073b82828601610424565b9086015261010061074e82828601610424565b90860152610120809301610651565b90830152565b916060838303126103be57610778828461044c565b92610786836020830161055d565b92604082013567ffffffffffffffff81116103be576103e6920161065e565b346103be5761041a6105226107bb366004610763565b91612f18565b91906040838203126103be576103e6906107db8185610424565b9360200161044c565b346103be576104a26107f73660046107c1565b906115b0565b346103be5761041a6105226108133660046104a7565b615841565b346103be576104a261082b3660046107c1565b9061177f565b60009103126103be57565b346103be5761084c366004610831565b61041a610408611f20565b90916060828403126103be576103e66108708484610424565b9361087e816020860161044c565b9360400161044c565b346103be5761041a6104f761089d366004610857565b916158af565b346103be576108b3366004610831565b6104a2611fa9565b346103be576108cb366004610831565b6104a261201a565b346103be576108e3366004610831565b6104a2611ff1565b60005b8381106108fe5750506000910152565b81810151838201526020016108ee565b61092f6109386020936105d893610923815190565b80835293849260200190565b958691016108eb565b601f01601f191690565b60208082526103e69291019061090e565b346103be57610963366004610831565b61041a61096e611c59565b60405191829182610942565b600711156103be57565b905035906103d08261097a565b91906040838203126103be576103e6906109ab8185610424565b93602001610984565b346103be576104a26109c7366004610991565b9061347f565b60e0818303126103be576109e18282610424565b92602082013567ffffffffffffffff81116103be5783610a02918401610617565b92604083013567ffffffffffffffff81116103be5781610a23918501610617565b92610a318260608301610424565b926103e6610a428460808501610424565b93610a508160a08601610424565b9360c001610424565b346103be576104a2610a6c3660046109cd565b95949094939193613311565b346103be576104a2610a8b366004610459565b9161484d565b346103be57610aa1366004610831565b61041a61040861189c565b346103be576104a2610abf3660046107c1565b906146db565b634e487b7160e01b600052602160045260246000fd5b60041115610ae557565b610ac5565b906103d082610adb565b6103e690610aea565b6103e990610af4565b80516001600160a01b031682526103e69160a0810191608090610b2e60208201516020850152565b610b3d60408201516040850152565b610b4f60608201516060850190610afd565b015190608081840391015261090e565b60208082526103e692910190610b06565b346103be5761041a610b8c610b863660046107c1565b90615637565b60405191829182610b5f565b6103e66103e66103e69290565b6103e66032610b98565b6103e6610ba5565b346103be57610bc7366004610831565b61041a610522610baf565b346103be57610be2366004610831565b61041a61052261587f565b346103be57610bfd366004610831565b61041a7fa49807205ce4d355092ef5a8a18f56e8913cf4a201fbe287825b095693c21775610522565b346103be57610c36366004610831565b61041a610c41611f2a565b6040515b918291826001600160a01b03909116815260200190565b346103be57610c6c366004610831565b61041a600080516020615ad8833981519152610522565b346103be576104a2610c963660046104a7565b613df9565b346103be57610cab366004610831565b6104a2611f6c565b6103e6683635c9adc5dea00000610b98565b6103e6610cb3565b346103be57610cdd366004610831565b61041a610522610cc5565b346103be5761041a610408610cfe3660046107c1565b90611541565b346103be576104a2610d173660046107c1565b9061430c565b346103be5761041a610522610d333660046104a7565b615895565b346103be57610d48366004610831565b61041a7f84d20104310cb32261c684fea2f6a24da76255f470d709e28f6b2c9da16e9a3e610522565b6103e66000610b98565b6103e6610d71565b346103be57610d93366004610831565b61041a610522610d7b565b9190610160838203126103be57610db5818461055d565b92602081013567ffffffffffffffff81116103be5782610dd6918301610617565b92604082013567ffffffffffffffff81116103be5783610df7918401610617565b92606083013567ffffffffffffffff81116103be5781610e18918501610617565b92610e26826080830161063c565b92610e348360a0840161044c565b92610e428160c08501610424565b92610e508260e08301610424565b926103e6610e62846101008501610424565b93610e71816101208601610424565b9361014001610651565b346103be5761041a610522610e91366004610d9e565b999890989791979692969593956129b0565b346103be57610eb3366004610831565b6104a2611f18565b346103be5761041a610408610ed13660046107c1565b906156f1565b346103be576104a2610eea3660046104a7565b6159e8565b6103e66103e8610b98565b6103e6610eef565b346103be57610f12366004610831565b61041a610522610efa565b6103e66064610b98565b6103e6610f1d565b346103be57610f3f366004610831565b61041a610522610f27565b906020828203126103be576103e69161055d565b90610f7e610f77610f6d845190565b8084529260200190565b9260200190565b9060005b818110610f8f5750505090565b909192610fac610fa56001928651815260200190565b9460200190565b929101610f82565b60208082526103e692910190610f5e565b346103be5761041a610fe0610fdb366004610f4a565b615671565b60405191829182610fb4565b906020828203126103be576103e69161044c565b346103be576104a2611013366004610fec565b611cec565b346103be57611028366004610831565b61041a7faabecfdf6c789f9fb8a93bd3a33e66be61c9d95c3d88fbe57f4acd20b6d738f8610522565b60061115610ae557565b906103d082611051565b6103e69061105b565b6103e990611065565b60071115610ae557565b906103d082611077565b6103e690611081565b6103e99061108b565b805182526020808201516001600160c01b031916908301526040808201516001600160a01b031690830152906103e690610280806111286111166111046102a086016060898101516001600160a01b0316908801526080890151878203608089015261090e565b60a088015186820360a088015261090e565b60c087015185820360c087015261090e565b9461113b60e082015160e086019061106e565b61114f610100820151610100860190611094565b610120818101516001600160a01b031690850152611174610140820151610140860152565b611185610160820151610160860152565b611196610180820151610180860152565b6111a76101a08201516101a0860152565b6111b86101c08201516101c0860152565b6111c96101e08201516101e0860152565b6111da610200820151610200860152565b6111eb610220820151610220860152565b6111fc610240820151610240860152565b610260818101511515908501520151910152565b60208082526103e69291019061109d565b346103be5761041a61123c6112373660046104a7565b61554f565b60405191829182611210565b346103be576104a261125b3660046107c1565b90611703565b916060838303126103be576112768284610424565b926112848360208301610424565b92604082013567ffffffffffffffff81116103be576103e69201610617565b6104a26112b1366004611261565b9161396d565b906020828203126103be576103e691610984565b346103be5761041a610fe06112e13660046112b7565b61568b565b6103e6612710610b98565b6103e66112e6565b346103be57611309366004610831565b61041a6105226112f1565b346103be576104a2611327366004610fec565b615a89565b90916060828403126103be576103e6610472848461044c565b346103be576104a261135836600461132c565b91615acc565b6103e66101f4610b98565b6103e661135e565b346103be57611381366004610831565b61041a610522611369565b346103be5761139c366004610831565b6104a2611eae565b346103be576113b4366004610831565b61041a7f97667070c54ef182b0f5858b034beac1b6f3089aa2d3188bb1e8929f4fa9b929610522565b346103be576113ed366004610831565b61041a61052261588b565b346103be57611408366004610831565b61041a7ff83fbdecd7018694593b521db8f6c864cd19f8450388b844650c68334dac9ab5610522565b90611440610f77610f6d845190565b9060005b8181106114515750505090565b909192611470610fa560019286516001600160a01b0316815260200190565b929101611444565b60208082526103e692910190611431565b346103be5761041a6114a461149f3660046104a7565b615657565b60405191829182611478565b637965db0b60e01b6001600160e01b03198216149081156114cf575090565b6103e691506001600160e01b0319166301ffc9a760e01b1490565b905b600052602052604060002090565b6104316103e66103e6926001600160a01b031690565b6103e6906114fa565b6103e690611510565b906114ec90611519565b6103e6905b60ff1690565b6103e6905461152c565b6103e69161155b91611555600091826114ea565b01611522565b611537565b6103e69081565b6103e69054611560565b600161158a6103e692611582600090565b5060006114ea565b01611567565b906103d0916115a66115a182611571565b6115ba565b906103d0916117cf565b906103d091611590565b6103d090339061165b565b6103e690610b98565b610b98565b6105d86115eb926020926115e5815190565b94859290565b938491016108eb565b6116326103e6939261162c61162c937f416363657373436f6e74726f6c3a206163636f756e7420000000000000000000815260170190565b906115d3565b7f206973206d697373696e6720726f6c6520000000000000000000000000000000815260110190565b9061166d6116698284611541565b1590565b611675575050565b6116e4916103e661169161168b6116cb94611b34565b926115c5565b6116a66020916116a083610b98565b906119d4565b926116bf6116b360405190565b948593840192836115f4565b90810382520382610580565b6040515b62461bcd60e51b815291829160048301610942565b0390fd5b906103d0916116f96115a182611571565b906103d091611845565b906103d0916116e8565b1561171457565b60405162461bcd60e51b815260206004820152602f60248201527f416363657373436f6e74726f6c3a2063616e206f6e6c792072656e6f756e636560448201527f20726f6c657320666f722073656c6600000000000000000000000000000000006064820152608490fd5b6103d091906117a061179033610431565b6001600160a01b0384161461170d565b611845565b9060ff905b9181191691161790565b906117c46103e66117cb92151590565b82546117a5565b9055565b906117dd6116698284611541565b6117e5575050565b6117ff60016117fa83600061155587826114ea565b6117b4565b339061183561182f61182f7f2f8788117e7eff1d82e926ec794901d17c78024a50270940304540a733656f0d9590565b92611519565b9261183f60405190565b600090a4565b906118508183611541565b611858575050565b61186c60006117fa838261155587826114ea565b339061183561182f61182f7ff6391f5c32d9c69d2a47ea670b442974b53935d1edc7fd64eb21e047a839171b9590565b6103e66001611537565b634e487b7160e01b600052601160045260246000fd5b818102929181159184041417156118cf57565b6118a6565b919082018092116118cf57565b906118ee6105f8836105bb565b918252565b369037565b906103d061190e611908846118e1565b936105bb565b601f1901602084016118f3565b634e487b7160e01b600052603260045260246000fd5b9061193a825190565b811015611948570160200190565b61191b565b80156118cf576000190190565b6115316103e66103e69290565b6103e69061197f61197b6103e69460ff1690565b9190565b901c90565b1561198b57565b60405162461bcd60e51b8152806116e4600482016020808252818101527f537472696e67733a20686578206c656e67746820696e73756666696369656e74604082015260600190565b9190600292611a05611a006119f1846119ec88610b98565b6118bc565b6119fa87610b98565b906118d4565b6118f8565b916000906030611a1d611a1784610b98565b86611931565b53611a55611a4c600f60fb1b926119ec6001998a95871a611a46611a4088610b98565b8b611931565b53610b98565b6119fa83610b98565b905b611a79575b506103e693945090611a7361197b6103e693610b98565b14611984565b91611a8386610b98565b831115611afe577f3031323334353637383961626364656600000000000000000000000000000000611ab5600f610b98565b8216906010821015611948578792611ad5611af292611af8941a60f81b90565b851a611ae18789611931565b53611aec600461195a565b90611967565b9361194d565b90611a57565b91611a5c565b6103e66103e66103e6926001600160a01b031690565b6103e6601461195a565b6103e66103e66103e69260ff1690565b611b51611b4c6103e692611b46606090565b50611510565b611b04565b6116a0611b5c611b1a565b611b24565b634e487b7160e01b600052602260045260246000fd5b9060016002830492168015611b97575b6020831014611b9257565b611b61565b91607f1691611b87565b80546000939291611bbe611bb483611b77565b8085529360200190565b9160018116908115611c105750600114611bd757505050565b611bea9192939450600052602060002090565b916000925b818410611bfc5750500190565b805484840152602090930192600101611bef565b92949550505060ff1916825215156020020190565b906103e691611ba1565b906103d0611c4992611c4060405190565b93848092611c25565b0383610580565b6103e690611c2f565b6103e66004611c50565b6103e69060a01c611531565b6103e69054611c63565b6104316103e66103e69290565b6103e690611c79565b906001600160a01b03906117aa565b90611cae6103e66117cb92611519565b8254611c8f565b9074ff00000000000000000000000000000000000000009060a01b6117aa565b90611ce56103e66117cb92151590565b8254611cb5565b611cf66003611c6f565b611ddf57611d076104316000611c86565b6001600160a01b03821614611dcd57611d29611d2282611519565b6003611c9e565b611d3560016003611cd5565b611d5f817fa49807205ce4d355092ef5a8a18f56e8913cf4a201fbe287825b095693c217756117cf565b611d89817f97667070c54ef182b0f5858b034beac1b6f3089aa2d3188bb1e8929f4fa9b9296117cf565b611d916121ed565b611dbb7f27b541a16df0902e262f34789782092ab25125513b8ed73608e802951771b92891611519565b90611dc560405190565b80805b0390a2565b604051637bfd2e8360e01b8152600490fd5b604051637396742f60e11b8152600490fd5b6103e690610431565b6103e69054611df1565b33611e2a611e1d610431611e186003611dfa565b611519565b916001600160a01b031690565b03611e37576103d0611e49565b6040516310f5403960e31b8152600490fd5b611e566116696003611c6f565b611e62576103d0611e74565b604051633165f6e960e21b8152600490fd5b611e7c611fb1565b7fa866f3901ec84758a10f30e8953c3818eef73da93dfa46cb6aa5b726fb65813f611ea660405190565b80805b0390a1565b6103d0611e04565b33611eca611e1d610431611e186003611dfa565b03611e37576103d0611edf6116696003611c6f565b611e62576103d0611eee611fbf565b7f6dff2fe8fbb5b23bf0583bf5b2157ff62ca7e27f2fb4f404914cd0c205ced5cc611ea660405190565b6103d0611eb6565b6103e66003611c6f565b6103e6611e186003611dfa565b611f607fa49807205ce4d355092ef5a8a18f56e8913cf4a201fbe287825b095693c217756115ba565b6103d05b6103d061203e565b6103d0611f37565b611f9d7fa49807205ce4d355092ef5a8a18f56e8913cf4a201fbe287825b095693c217756115ba565b6103d05b6103d061210e565b6103d0611f74565b611fb961189c565b611fa157565b611fca61166961189c565b611f6457565b33611fe4611e1d610431611e186003611dfa565b03611e37576103d0611f64565b6103d0611fd0565b3361200d611e1d610431611e186003611dfa565b03611e37576103d0611fa1565b6103d0611ff9565b61202f6116696003611c6f565b611e62576103d06103d061208b565b6103d0612022565b61204e6120df565b6103d061205c6001806117b4565b33611ea97f62e78cea01bee320cd4e420270b5ea74000d11b0c9f74754ebdbfc544b05a25891610c4560405190565b6103d0612046565b1561209a57565b60405162461bcd60e51b815260206004820152601060248201527f5061757361626c653a20706175736564000000000000000000000000000000006044820152606490fd5b6103d06120ed61166961189c565b612093565b6120ff6116696003611c6f565b611e62576103d06103d061215c565b6103d06120f2565b61211e6121b0565b6103d061212d600060016117b4565b33611ea97f5db9ee0a495bf2e6ff9c91a7834c1ba4fdd244a5e8aa4e537bd38aeae4b073aa91610c4560405190565b6103d0612116565b1561216b57565b60405162461bcd60e51b815260206004820152601460248201527f5061757361626c653a206e6f74207061757365640000000000000000000000006044820152606490fd5b6103d06121bb61189c565b612164565b905051906103d08261043d565b906020828203126103be576103e6916121c0565b6040513d6000823e3d90fd5b61221360206121fb30611519565b637b1039999061220a60405190565b93849260e01b90565b825260049082905afa801561229b576103d09160009161226d575b5061224781600080516020615ad88339815191526117cf565b7faabecfdf6c789f9fb8a93bd3a33e66be61c9d95c3d88fbe57f4acd20b6d738f86117cf565b61228e915060203d8111612294575b6122868183610580565b8101906121cd565b3861222e565b503d61227c565b6121e1565b9a999897969594939291906122b86116696003611c6f565b611e62576103e69b906103e69b9a9998979695949392916122d76120df565b906122f39b9a9998979695949392916122ee612a1b565b612636565b906103d0612a4d565b905051906103d082610649565b906020828203126103be576103e6916122fc565b60001981146118cf5760010190565b90600019906117aa565b906123466103e66117cb92610b98565b825461232c565b01918252565b919082039182116118cf57565b9067ffffffffffffffff906117aa565b6001600160c01b03191690565b9061239b6123956117cb926001600160c01b03191690565b60c01c90565b8254612360565b907bffffffffffffffffffffffffffffffffffffffff00000000000000009060401b6117aa565b906123d96103e66117cb92611519565b82546123a2565b9160001960089290920291821b911b6117aa565b91906124056103e66117cb93610b98565b9083546123e0565b6103d0916000916123f4565b818110612424575050565b80612432600060019361240d565b01612419565b9190601f811161244757505050565b6124596103d093600052602060002090565b906020601f84018190048301931061247b575b6020601f909101040190612419565b909150819061246c565b9061248e815190565b9067ffffffffffffffff82116105a2576124b2826124ac8554611b77565b85612438565b602090601f83116001146124ed576117cb9291600091836124e2575b5050600019600883021c1916906002021790565b0151905038806124ce565b601f1983169161250285600052602060002090565b9260005b81811061254057509160029391856001969410612527575b50505002019055565b01516000196008601f8516021c1916905538808061251e565b91936020600181928787015181550195019201612506565b906103d091612485565b906117c46103e66117cb92611065565b9061ff009060081b6117aa565b9061258f6103e66117cb9261108b565b8254612572565b9075ffffffffffffffffffffffffffffffffffffffff00009060101b6117aa565b906125c76103e66117cb92611519565b8254612596565b906001600160c01b0319166114ec565b906114ec9061108b565b919695939461262f6103d09661262860a0966126216126166104d89760c08a01908a820360008c015261090e565b9c602089019061106e565b6040870152565b6060850152565b6080830152565b9a94959a9992989196999790975061264e6000610b98565b8a14801561299e575b8015612995575b8015612983575b612971576126b060208961267a611e186151f2565b61269863b4ae840f61268b60405190565b9586948593849360e01b90565b83526001600160c01b03191660048301526024820190565b03915afa801561229b576126ca9160009161294957501590565b612917576126d8600d611567565b6126e18161231d565b6126ec90600d612336565b604051809160208201904261271e918d846020939261234d60088361234d88956105d8976001600160c01b0319169052565b90810382520361272e9082610580565b805190602001209a6127418c60056114ea565b9461274c600d611567565b9a60019b6127598d610b98565b61276291612353565b61276c9088612336565b6127788b888e0161237d565b33809c880190612787916123c9565b6127948c60028901611c9e565b6127a18a60038901612558565b6127ae9060048801612558565b6127bb9060058701612558565b60068501906127ca8883612562565b6127d560008361257f565b6127de916125b7565b6127eb8a60078601612336565b6127f89060088501612336565b6128059060098401612336565b61281242600c8401612336565b61281c90426118d4565b91600d82019261282c9084612336565b61283942600e8401612336565b61284642600f8401612336565b61285390601083016117b4565b61285d600e611567565b61286991601101612336565b61287487600b612a58565b50866128818560096125ce565b9061288b91612a58565b50866128996000600a6125de565b906128a391612a58565b506128ae8585614ab4565b6128b790611567565b907fa3a88efe57786deda68f6c5dcc5465fee13dbf6c95e5da6149a2574d4b59d599926128e18890565b946001600160c01b031916956128f690611519565b9661290060405190565b9384934292429161291195876125e8565b0390a490565b6116e48861292460405190565b634fddb6dd60e11b8152918291600483016001600160c01b0319909116815260200190565b611669915060203d811161296a575b6129628183610580565b810190612309565b503d612958565b6040516306ac19c760e31b8152600490fd5b5061298e6000610b98565b8314612665565b5089821061265e565b506129a96000610b98565b8114612657565b6103e69a9998979695949392919060006122a0565b6103e66002610b98565b156129d657565b60405162461bcd60e51b815260206004820152601f60248201527f5265656e7472616e637947756172643a207265656e7472616e742063616c6c006044820152606490fd5b6103d0612a286002611567565b612a3c612a336129c5565b918214156129cf565b6002612336565b6103e66001610b98565b6103d0612a3c612a43565b90612a6f60006103e693612a6a600090565b500190565b612ad4565b805482101561194857612a8e600191600052602060002090565b91020190600090565b91906124056103e66117cb9390565b90815491680100000000000000008310156105a25782612ace9160016103d095018155612a74565b90612a97565b612ae16116698383612b1a565b15612b1357612b0e91612b09906001612b0284612afe8482612aa6565b5490565b93016114ea565b612336565b600190565b5050600090565b612b38916001612b3392612b2c600090565b50016114ea565b611567565b612b4561197b6000610b98565b141590565b929190612b5a6116696003611c6f565b611e62576103e693906103e6939291612b716120df565b906122f3939291612b80612a1b565b612bb1565b6103e9906001600160a01b031660601b90565b018092612b85565b01906115d3565b6103e6905161105b565b92919250612bbe83614904565b81515192600093612bd161197b86610b98565b146129715760a0830193612be3855190565b612bef61197b83610b98565b148015612efe575b8015612ec5575b6129715761010084018051612c1561197b84610b98565b1461297157818501958651924293612c2d600d611567565b612c368161231d565b612c4190600d612336565b85612c4b60405190565b9283926020840192612c86928c8c866118ee6105d8946014602098979495612ba0600886612b9861234d988e9b6001600160c01b0319169052565b908103825203612c969082610580565b805190602001209788600592612cac82856114ea565b93612cb7600d611567565b612cc390868401612336565b600185018a612cd28b8361237d565b612cdb916123c9565b612ce88a60028701611c9e565b8351612cf79060038701612558565b60208b0151612d099060048701612558565b60408b0151612d19918601612558565b60608a0193612d2785612ba7565b6006820190612d369082612562565b612d40838261257f565b60808c01516001600160a01b0316612d57916125b7565b8551612d669060078301612336565b60c08b0151612d789060088301612336565b60e08b0151612d8a9060098301612336565b612d9382610b98565b612da081600a8401612336565b612dad90600b8301612336565b600c810196612dbc8989612336565b51612dc790896118d4565b9a600d82019b612dd7908d612336565b612de489600e8401612336565b612df189600f8401612336565b61012001511515612e0590601083016117b4565b612e0f600e611567565b612e1b91601101612336565b612e2682600b612a58565b5081612e338960096125ce565b90612e3d91612a58565b50612e4990600a6125de565b90612e5391612a58565b505190612e5f90612ba7565b915192612e6b90611567565b96612e7590611567565b7fa3a88efe57786deda68f6c5dcc5465fee13dbf6c95e5da6149a2574d4b59d599949089966001600160c01b03191697612eae90611519565b98612eb860405190565b95869561291195876125e8565b5060e084018051612ed861197b84610b98565b119081612ee6575b50612bfe565b519050612ef761197b6103e6885190565b1038612ee0565b5060c0840151612f1261197b6103e6885190565b11612bf7565b6103e69291906000612b4a565b959493929190612f386116696003611c6f565b611e62576103d096906103d0969594939291612f526120df565b613066565b6103e69060401c610431565b6103e69054612f57565b9081526040810192916103d0916020905b01906001600160a01b03169052565b6103e69060081c611531565b6103e69054612f8d565b80546000939291612fb6611bb483611b77565b9160018116908115611c105750600114612fcf57505050565b612fe29192939450600052602060002090565b916000925b818410612ff45750500190565b805484840152602090930192600101612fe7565b9297969461305f9061305860c0966130516130496104d89761303b6103d09d9860e08c01908c6000818403910152612fa3565b908a820360208c0152612fa3565b9c6040890152565b6060870152565b6080850152565b60a0830152565b94919593929061307a6103e68760056114ea565b96600188019161308983612f63565b9260009361309c611e1d61043187611c86565b146132ea576130af610431335b92612f63565b6001600160a01b0382161415806132c9575b806132a8575b613285576130d760068b01612f99565b6130ea6130e46006611081565b91611081565b14613285575080516130fe61197b85610b98565b11613272575b50805161311361197b84610b98565b1161325f575b5061312381610b98565b82119081613254575b81613231575b50613203575b50505042906131448290565b8111806131ec575b6131d9575b5061315f81600f8501612336565b60038301611dc8600485019261317760078701611567565b9561318460088201611567565b9061319d600d61319660098401611567565b9201611567565b916131c67f2d861976db5536e53826be5f92e32db2e49dd12c40c783feeb5413c7f8445ef29890565b986131d060405190565b97889788613008565b6131e690600d8501612336565b38613151565b506131fc6103e6600c8601611567565b811161314c565b613229926132176132209260078901612336565b60088701612336565b60098501612336565b388080613138565b61323b9150610b98565b8214801561324a575b38613132565b5080821015613244565b82851115915061312c565b61326c9060048901612558565b38613119565b61327f9060038a01612558565b38613104565b886116e461329260405190565b63d007ec9360e01b815292839260048401612f6d565b506132c461166982600080516020615ad8833981519152611541565b6130c7565b506132d961043160028c01611dfa565b6001600160a01b03821614156130c1565b6116e4896132f760405190565b63ce1befcb60e01b81529182916004830190815260200190565b906103d0969594939291612f25565b6103d0919061333c600080516020615ad88339815191526115ba565b9061334a6116696003611c6f565b611e62576103d091906103d09161335f6120df565b61338e565b6040906104d86103d0949695939661338460608401986000850190611094565b6020830190611094565b61339c6103e68260056114ea565b916133a960018401612f63565b6133b9611e1d6104316000611c86565b1461347257600683016133cb81612f99565b906133d583611081565b6133de83611081565b1461346b57836134276103e68585613422600f9a6134188461342c996134128a61340d6103e6600a998a6125de565b613489565b5061257f565b429b8c9101612336565b6125de565b612a58565b50611dc86134587fa501447e21b5d0bd78344e62b02b2e1c935dbbc23f482a95170d08a44d63b2979490565b9461346260405190565b93849384613364565b5050505050565b6116e4826132f760405190565b906103d091613320565b9061349b60006103e693612a6a600090565b613500565b6103e6916008021c81565b906103e691546134a0565b634e487b7160e01b600052603160045260246000fd5b6103d091600091612a97565b805480156134fb5760001901906134f86134f28383612a74565b906134cc565b55565b6134b6565b90613511612b3382600185016114ea565b60009261351d84610b98565b8214613570576103e69261357694926135819261357b600197889361354a61354486610b98565b82612353565b88850191613568613559845490565b61356289610b98565b90612353565b828103613586575b50505090565b6134d8565b016114ea565b61240d565b612ace6135af6135b7946135a66135a0612b099589612a74565b906134ab565b92839188612a74565b8888016114ea565b388080613570565b91906135ce6116696003611c6f565b611e62576103d092906103d092916135e46120df565b906135f792916135f2612a1b565b61363e565b6103d0612a4d565b9081526040810192916103d09160200152565b6103e69060101c610431565b6103e69054613612565b906117c46103e66117cb92610af4565b60c01b90565b61364c6103e68260056114ea565b9161365960018401612f63565b9260009361366c611e1d61043187611c86565b14613960576006810161367e81612f99565b9160019261368e6130e485611081565b036139395742966136a46103e6600d8401611567565b881015613912576136b487610b98565b85146138eb57600a8201926136d1866136cc86611567565b6118d4565b60098401906136e561197b6103e684611567565b116138b657506136f49061361e565b6136fd90611519565b963397868961370b30611519565b90613715936139cf565b87806137228960066114ea565b9061372c91611522565b9182019061373991611c9e565b8481018661374682611567565b90613750916118d4565b61375991612336565b6137668960028301612336565b6137738560038301613628565b6004019061378091612558565b8361378a83611567565b90613794916118d4565b61379e9083612336565b6137ab87600f8301612336565b60079085858880806137bd85886114ea565b906137c791613cf5565b15976137ea946137e5926138089a61387b575b505085015460c01b90565b614c29565b6137f660108201611537565b9182613855575b505061384c57611567565b9061384761383d6138377f6a1373fa7ba1bec3888b21f58e5f2a681e0ed2e5b7db7c0a174fa8467e64af189590565b95611519565b956104fe60405190565b0390a3565b612b3384613e57565b6138729192506103e661197b9161386b86611567565b9401611567565b101538806137fd565b61388b6103e6613890938b6114ea565b613cd2565b506138af600b87016138a96138a482611567565b61231d565b90612336565b8a836137da565b6138c86138c286611567565b91611567565b906116e46138d560405190565b6328804e4b60e01b8152928392600484016135ff565b6116e4856138f860405190565b6347a1896d60e11b81529182916004830190815260200190565b6116e48661391f60405190565b6316c9bba560e31b81529182916004830190815260200190565b6116e48561394660405190565b63ef78d6ef60e01b81529182916004830190815260200190565b6116e4836132f760405190565b906103d092916135bf565b61399161398b6103e69263ffffffff1690565b60e01b90565b6001600160e01b03191690565b6001600160a01b0390911681526060810193926103d09290916040916104d8905b6001600160a01b03166020830152565b90613a1490613a056103d0956004956139eb6323b872dd613978565b936139f560405190565b978895602087019081520161399e565b60208201810382520383610580565b613ac6565b613a2360206118e1565b7f5361666545524332303a206c6f772d6c6576656c2063616c6c206661696c6564602082015290565b6103e6613a19565b15613a5b57565b60405162461bcd60e51b815260206004820152602a60248201527f5361666545524332303a204552433230206f7065726174696f6e20646964206e60448201527f6f742073756363656564000000000000000000000000000000000000000000006064820152608490fd5b6103d091613ad6613ae592611519565b90613adf613a4c565b91613b23565b8051613af461197b6000610b98565b14908115613b03575b50613a54565b613b1d91506020613b12825190565b818301019101612309565b38613afd565b6103e69291613b326000610b98565b91613bc9565b15613b3f57565b60405162461bcd60e51b815260206004820152602660248201527f416464726573733a20696e73756666696369656e742062616c616e636520666f60448201527f722063616c6c00000000000000000000000000000000000000000000000000006064820152608490fd5b3d15613bc457613bb93d6118e1565b903d6000602084013e565b606090565b9060006103e694938192613bdb606090565b50613bf2613be830611519565b8390311015613b38565b60208101905191855af1613c04613baa565b91613c56565b15613c1157565b60405162461bcd60e51b815260206004820152601d60248201527f416464726573733a2063616c6c20746f206e6f6e2d636f6e74726163740000006044820152606490fd5b91929015613c8857508151613c6e61197b6000610b98565b14613c77575090565b613c836103e691613c8e565b613c0a565b82613ca0565b3b613c9c61197b6000610b98565b1190565b90613ca9825190565b613cb661197b6000610b98565b1115613cc55750805190602001fd5b6116e4906116cf60405190565b90612a6f61197b6115ce611b4c60006103e696613ced600090565b500194611510565b90613d1061197b6115ce611b4c60006103e696613ced600090565b612b1a565b613d226116696003611c6f565b611e62576103d0906103d090613d366120df565b6135f790613d42612a1b565b613d506103e68260056114ea565b6001810190613d5e82612f63565b613d6e611e1d6104316000611c86565b1461396057613d806104313393612f63565b6001600160a01b03831614159081613dd6575b5080613db5575b613da857506103d090613e57565b906116e461329260405190565b50613dd161166982600080516020615ad8833981519152611541565b613d9a565b613de7915060026104319101611dfa565b6001600160a01b038216141538613d93565b6103d090613d15565b634e487b7160e01b600052601260045260246000fd5b8115613e22570490565b613e02565b6104d86103d094613e50606094989795613e49608086019a6000870190611094565b6020850152565b6040830152565b613e656103e68260056114ea565b90613e72600a8301611567565b613e8461197b6103e660088601611567565b1015918180828160068201613e9881612f99565b9088156140a757613eab60035b8261257f565b4298613eba8a600f8701612336565b600a96613ec88894856125de565b90613ed291613489565b5083613edd83612f99565b613ee790856125de565b90613ef191612a58565b5080600014611dc8966134276103e661400698613ff1600b9961340d6103e661386b9b613ffe9b613ff89a61408757613fcb613f61613fd492613f66858b01613f59613f4b8d613f45601161319686611567565b906118bc565b613f536112e6565b90613e18565b938491611567565b612353565b91613f8b613f76611e188461361e565b9360018d0194613f8586612f63565b906140ce565b6000613f9681610b98565b82119081614064575b50614044575b5050613fc4613fb5825460c01b90565b613fbe83612f63565b90614b9d565b5460c01b90565b60019086614d8b565b60068096019a613fe4878d61257f565b1561403c576003906125de565b508b6125de565b50612f99565b948601611567565b947fe7120a43929c8f69eb64bf66c6587ec5a44dfa34cea30f8fe0901b2e54203394949561403360405190565b94859485613e27565b6004906125de565b614053611e1861405d9361361e565b613f85600f611dfa565b3880613fa5565b905061407f611e1d610431614079600f611dfa565b93611c86565b141538613f9f565b506140a2614099600188015460c01b90565b60009086614d8b565b613fd4565b613eab6004613ea5565b6001600160a01b0390911681526040810192916103d09160200152565b613a14600492613a056103d0956140e863a9059cbb613978565b926140f260405190565b96879460208601908152016140b1565b906141106116696003611c6f565b611e62576103d091906103d0916141256120df565b906135f791614132612a1b565b906141416103e68360056114ea565b9161414e60018401612f63565b600061415981611c86565b9161416c6001600160a01b038416611e1d565b1461396057600685019461417f86612f99565b9560049661418f6130e489611081565b141590816142ed575b506142c7576006916141b66103e6876141b188876114ea565b611522565b936141d5611e1d6141c8848801611dfa565b926001600160a01b031690565b146142a45760038401936141e885611537565b976002986141fe6141f88b610aea565b91610aea565b14614281575092869261422e614234936138a96001614239999801916115ce61422684611567565b9d8e9a613628565b0161361e565b6148a4565b4261426b6142657fd9659c675462e26e5353cfc2a816f73cfe5c8e02041fbbb2fba7aa704c76567f9390565b93611519565b9361384761427860405190565b928392836135ff565b86906116e48961429060405190565b6364baa58f60e01b81529384938401612f6d565b84876116e4886142b360405190565b6305cf19fb60e51b81529384938401612f6d565b83866116e46142d560405190565b63ef78d6ef60e01b8152928392830190815260200190565b6142f79150612f99565b6143046130e46006611081565b141538614198565b906103d091614102565b91906143256116696003611c6f565b611e62576103d092906103d0929161433b6120df565b906135f79291614349612a1b565b6143576103e68260056114ea565b6001810161436481612f63565b90600091614377611e1d61043185611c86565b146144d757614388610431336130a9565b6001600160a01b0382161415806144b6575b80614495575b61448857600683016143b181612f99565b6143be6130e46003611081565b14159081614469575b5061445c579161158a600b926143f48861442c966143e48a611519565b906143ee30611519565b916139cf565b600261442561440b6103e68a6141b18b60086114ea565b926144188a828601611c9e565b6115ce8b60018601612336565b9101612336565b429361384761383d6138377fa2be304a31c5194b71cd99f0ee865ff9ca0b8b8266efeab33a5a78d3cdf9a0999590565b6116e48461394660405190565b6144739150612f99565b6144806130e46006611081565b1415386143c7565b836116e461329260405190565b506144b161166982600080516020615ad8833981519152611541565b6143a0565b506144c661043160028501611dfa565b6001600160a01b038216141561439a565b6116e4846132f760405190565b906103d09291614316565b906144fd6116696003611c6f565b611e62576103d091906103d0916145126120df565b906135f79161451f612a1b565b61453f565b9081526060810193926103d0929091604091612f7e906139bf565b9190916145506103e68260056114ea565b9061455d60018301612f63565b600061456881611c86565b9161457b6001600160a01b038416611e1d565b146139605761458b8360066114ea565b9361459a6103e6338097611522565b936145a6838601611dfa565b6145b86001600160a01b038616611e1d565b146146b7576145cf6103e6896141b18460086114ea565b936145e1611e1d6141c8868801611dfa565b1461469357600384019261460461197b6145fe612b338a88611522565b92610b98565b1161466e57508361465f6002614669956146516103d09a9b96612b09614649611e1898613f53600a8f9e61463d60016131969201611567565b613f4560018b01611567565b9b8c92611522565b016138a9886136cc83611567565b6003809101613628565b6140ce565b85906116e48961467d60405190565b633d6c53f760e21b815293849360048501614524565b87906116e46146a160405190565b63d67bb84560e01b815292839260048401612f6d565b85906116e46146c560405190565b6305cf19fb60e51b815292839260048401612f6d565b906103d0916144ef565b91906146f46116696003611c6f565b611e62576103d092906103d0929161470a6120df565b906135f79291614718612a1b565b6147266103e68260056114ea565b6001810161473381612f63565b614743611e1d6104316000611c86565b1461396057614754610431336130a9565b6001600160a01b03821614158061482c575b8061480b575b6147fe5750600681019161477f83612f99565b61478c6130e46003611081565b1415806147e0575b6147d357506103e6600a6147b29201613f616138c2610d3383611567565b83116147c657906142346103d0939261361e565b6116e4836138f860405190565b6116e49061394660405190565b506147ea83612f99565b6147f76130e46006611081565b1415614794565b826116e461329260405190565b5061482761166982600080516020615ad8833981519152611541565b61476c565b5061483c61043160028401611dfa565b6001600160a01b0382161415614766565b906103d092916146e5565b1561485f57565b60405162461bcd60e51b815260206004820152601360248201527f455448207472616e73666572206661696c6564000000000000000000000000006044820152606490fd5b91906000926148b561043185611c86565b6001600160a01b038216036148f657509180916148d7611e186103d095611519565b906148e160405190565b90818003925af16148f0613baa565b50614858565b6103d0935061466990611519565b61492d7fbdded29a54e6a5d6169bedea55373b06f57e35d7b0f67ac187565b435e2cc943614a31565b61493a6104316000611c86565b6001600160a01b038216146149ac57602061495a611e1861496993611519565b63b4ae840f9061220a60405190565b82526001600160c01b03198516600483015260249082905afa801561229b576149989160009161294957501590565b61499f5750565b6116e49061292460405190565b6116e48261292460405190565b906149c76116696003611c6f565b611e62576103e691614a0391602091506149e4611e186003611dfa565b6149f56385acd64161268b60405190565b835260048301526024820190565b03915afa90811561229b57600091614a19575090565b6103e6915060203d8111612294576122868183610580565b6103e69060006149b9565b60031115610ae557565b906103d082614a3c565b6103e690614a46565b6103e990614a50565b909594926103d094614aad6104d892614aa3608096614a9260a088019c60008901906001600160c01b0319169052565b6001600160c01b0319166020870152565b6040850190614a59565b6060830152565b614abf611e1861521e565b91600091614acf61043184611c86565b6001600160a01b03851603614ae5575b50505050565b614af481634157db8d936150f2565b93600192614b036115ce610f1d565b7f7784137e8aa224333cd627cedd1bdbd335ef438dc4e56deeb7b75cdd911c7d1691833b156103be57614b59614b4e938897938894614b4160405190565b9b8c998a98899760e01b90565b875260048701614a62565b03925af19182614b70575b50505038808080614adf565b81614b8f92903d10614b96575b614b878183610580565b810190610831565b3880614b64565b503d614b7d565b614ba8611e1861521e565b91600091614bb861043184611c86565b6001600160a01b03851603614bcd5750505050565b614bdc81634157db8d936150f2565b93600192614beb6115ce61135e565b7f856fc5590e860b76c810a7c1f61f6226276aabc450115c591580f539b062c47691833b156103be57614b59614b4e938897938894614b4160405190565b9091614c36611e1861521e565b91600092614c4661043185611c86565b6001600160a01b03821603614c5c575050505050565b614c64610ba5565b8093614c7461197b6103e6610cb3565b1015614d0a575b50614c8b82634157db8d966150f2565b94614c97600194610b98565b7f248561bd567436f08d102863b10cfeceb1c983ff88f71ce5266173d5931004fa91833b156103be57614cd5614b4e938897938894614b4160405190565b03925af19182614ced575b505050388080808061346b565b81614d0392903d10614b9657614b878183610580565b3880614ce0565b614d189193506119fa610f1d565b9138614c7b565b90614d28825190565b811015611948576020809102010190565b6123706136386103e69290565b6104d86103d094614d82606094989795614d71608086019a60008701906001600160c01b0319169052565b6001600160c01b0319166020850152565b15156040830152565b929192614d99611e1861521e565b600091614da861043184611c86565b6001600160a01b03831603614dc0575b505050509050565b614dd16103e6614dd69260076114ea565b614f0c565b614ddf83610b98565b614dea6103e6835190565b811015614efb57614e1485614e0f614e028486614d1f565b516001600160a01b031690565b6150f2565b90614e2161237086614d39565b6001600160c01b0319831603614e41575b614e3c915061231d565b614ddf565b6348bd59a6918815614ed4577f31124d73872614326a5e21427e63dfe2f9658bf865b809f98d543e248cf9b145925b853b156103be57614e988791614ea4614e3c968d614e8d60405190565b968795869560e01b90565b85528d60048601614d46565b038183895af19081614eb8575b5050614e32565b614ece90873d8911614b9657614b878183610580565b38614eb1565b7f564acfe6a4c760093cacd71f93bac13fb61f4a9a5bfb6344e29c0862b56b9d2e92614e70565b505050505090508038808080614db8565b606090614f1890614fa2565b905090565b90614f38614f2c610f6d845490565b92600052602060002090565b9060005b818110614f495750505090565b909192614f6d614f66600192614f5e87611567565b815260200190565b9460010190565b929101614f3c565b906103e691614f1d565b906103d0611c4992614f9060405190565b93848092614f75565b6103e690614f7f565b60006103e691614fb0606090565b5001614f99565b905051906103d08261054d565b90929192614fd46105f8826105bb565b938185526020850190828401116103be576103d0926108eb565b9080601f830112156103be5781516103e692602001614fc4565b905051906103d08261041e565b919091610100818403126103be5761502e6101006105a7565b92600061503b8284614fb7565b90850152602061504d828285016121c0565b90850152604061505f82828501614fb7565b9085015260608201519067ffffffffffffffff82116103be576150878161075d938501614fee565b6060860152608061509a82828601615008565b9086015260a06150ac82828601615008565b9086015260c06150be828286016122fc565b9086015260e08093016122fc565b906020828203126103be57815167ffffffffffffffff81116103be576103e69201615015565b6000929161511f7f377799b22fba826cf24c3f07e6731c67676765addcee33415a2c80d453d4ed6e614a31565b9160009261512f61043185611c86565b6001600160a01b038216146151e4579061514c611e188593611519565b61516d6336cde77b61519361516060405190565b9687958694859460e01b90565b84526001600160a01b031660048401526001600160c01b03191660248301526044820190565b03915afa600091816151c1575b506151b157506103e6919250614d39565b01516001600160c01b0319169150565b6151dd91923d8091833e6151d58183610580565b8101906150cc565b90386151a0565b5050506103e6919250614d39565b6103e6611e187fbdded29a54e6a5d6169bedea55373b06f57e35d7b0f67ac187565b435e2cc943614a31565b6152477fda774a9a6475b94924a168725d00b478d90cbf28e9176d635f3dab48a3a91508614a31565b6152516000611c86565b6001600160a01b0381166001600160a01b0383161461527457506103e690611519565b6103e69150611519565b6103e66102a06105a7565b61529161527e565b9060008252602082016000815260200160008152602001600081526020016060815260200160608152602001606081526020016000815260200160008152602001600081526020016000815260200160008152602001600081526020016000815260200160008152602001600081526020016000815260200160008152602001600081526020016000815260200160009052565b6103e6615289565b906103e99061105b565b906103e990611081565b906103d061553e601161535261527e565b9461536361535f82611567565b8752565b615385615374600183015460c01b90565b6001600160c01b0319166020880152565b6153a461539460018301612f63565b6001600160a01b03166040880152565b6153c36153b360028301611dfa565b6001600160a01b03166060880152565b6153d96153d260038301611c2f565b6080880152565b6153ef6153e860048301611c2f565b60a0880152565b6154056153fe60058301611c2f565b60c0880152565b61541d61541460068301611537565b60e0880161532d565b61543661542c60068301612f99565b6101008801615337565b6154566154456006830161361e565b6001600160a01b0316610120880152565b61546d61546560078301611567565b610140880152565b61548461547c60088301611567565b610160880152565b61549b61549360098301611567565b610180880152565b6154b26154aa600a8301611567565b6101a0880152565b6154c96154c1600b8301611567565b6101c0880152565b6154e06154d8600c8301611567565b6101e0880152565b6154f76154ef600d8301611567565b610200880152565b61550e615506600e8301611567565b610220880152565b61552561551d600f8301611567565b610240880152565b61158a61553460108301611537565b1515610260880152565b610280840152565b6103e690615341565b6155666103e69161555e615325565b5060056114ea565b615546565b6103e660a06105a7565b61557d61556b565b906000825260208080808086016000815201600081520160008152016060905250565b6103e6615575565b906103e990610aea565b906103d061562760046155c361556b565b946155dd6155d082611dfa565b6001600160a01b03168752565b6155f36155ec60018301611567565b6020880152565b61560961560260028301611567565b6040880152565b61562161561860038301611537565b606088016155a8565b01611c2f565b6080840152565b6103e6906155b2565b6103e6916141b16156529261564a6155a0565b5060066114ea565b61562e565b614dd16103e66103e692615669606090565b5060076114ea565b614dd16103e66103e692615683606090565b5060096125ce565b614dd16103e66103e69261569d606090565b50600a6125de565b6103e66156b49161555e600090565b6156c060068201612f99565b6156cd6130e46001611081565b1490816156d8575090565b90506156ed61197b6103e6600d429401611567565b1090565b61570191506103e690600061555e565b61570d60018201612f63565b90600091615720611e1d61043185611c86565b14159182615797575b8261577b575b8261573957505090565b909150600982019061575061197b6145fe84611567565b1491821561575d57505090565b6156ed9192506103e6615775600a61197b9301611567565b93611567565b91504261579061197b6103e6600d8501611567565b109161572f565b9150600681016157a681612f99565b6157b36130e46001611081565b149081156157c3575b5091615729565b6157cd9150612f99565b6157d96130e484611081565b14386157bc565b6103e66157ef9161555e600090565b906157fc600a8301611567565b9061580a6007839401611567565b9182600061581781610b98565b82111561583557506158306103e692613f456064610b98565b613e18565b90506103e69150610b98565b6103e66158509161555e600090565b600d01426158606103e683611567565b81101561587357613f616103e692611567565b50506103e66000610b98565b600b546103e690819081565b6103e6600e611567565b613f4b6103e6916158a4600090565b50613f45600e611567565b92906158e36103e66158c56103e68760056114ea565b926141b16158db6103e6886141b18b60066114ea565b9760086114ea565b936158ed81611dfa565b6000906158f982611c86565b9061590c6001600160a01b038316611e1d565b14908115615970575b5061595a5750612b336159486103e693613f53600a61319661593c60016159539801611567565b613f4560018d01611567565b946003869701611522565b8093612353565b92945050506159699150610b98565b9081908290565b9050615983611e1d6141c8848a01611dfa565b1438615915565b6103d0906159a5600080516020615ad88339815191526115ba565b6159b06103e6610eef565b81116159c1576103d090600e612336565b6116e4906159ce60405190565b63660d83e960e11b81529182916004830190815260200190565b6103d09061598a565b6103d090615a0c600080516020615ad88339815191526115ba565b615a5d565b15615a1857565b60405162461bcd60e51b815260206004820152601160248201527f496e76616c696420726563697069656e740000000000000000000000000000006044820152606490fd5b6103d090615a82615a716104316000611c86565b6001600160a01b0383161415615a11565b600f611c9e565b6103d0906159f1565b6103d0929190615ac17fa49807205ce4d355092ef5a8a18f56e8913cf4a201fbe287825b095693c217756115ba565b906103d092916148a4565b906103d09291615a9256fe8f882e9b3b0c043c8507802fbb9a0ed808c8f0587361ab18424493e6841512a8a2646970667358221220790e126c72944e783f23e236f0b1aad79f5fe85146c627ecb068577901a3b36364736f6c63430008140033",
  "linkReferences": {},
  "deployedLinkReferences": {}
}