{
  "_format": "hh-sol-artifact-1",
  "contractName": "Flow",
  "sourceName": "contracts/modules/Flow/Flow.sol",
  "abi": [
    {
      "inputs": [],
      "stateMutability": "nonpayable",
      "type": "constructor"
    },
    {
      "inputs": [
        {
          "internalType": "uint256",
          "name": "raised",
          "type": "uint256"
        },
        {
          "internalType": "uint256",
          "name": "max",
          "type": "uint256"
        }
      ],
      "name": "CampaignCapReached",
      "type": "error"
    },
    {
      "inputs": [
        {
          "internalType": "bytes32",
          "name": "campaignId",
          "type": "bytes32"
        }
      ],
      "name": "CampaignEnded",
      "type": "error"
    },
    {
      "inputs": [
        {
          "internalType": "bytes32",
          "name": "campaignId",
          "type": "bytes32"
        }
      ],
      "name": "CampaignNotActive",
      "type": "error"
    },
    {
      "inputs": [
        {
          "internalType": "bytes32",
          "name": "campaignId",
          "type": "bytes32"
        }
      ],
      "name": "CampaignNotEnded",
      "type": "error"
    },
    {
      "inputs": [
        {
          "internalType": "bytes32",
          "name": "campaignId",
          "type": "bytes32"
        }
      ],
      "name": "CampaignNotFound",
      "type": "error"
    },
    {
      "inputs": [
        {
          "internalType": "bytes32",
          "name": "campaignId",
          "type": "bytes32"
        },
        {
          "internalType": "address",
          "name": "contributor",
          "type": "address"
        }
      ],
      "name": "ContributionAlreadyRefunded",
      "type": "error"
    },
    {
      "inputs": [
        {
          "internalType": "uint256",
          "name": "amount",
          "type": "uint256"
        },
        {
          "internalType": "uint256",
          "name": "max",
          "type": "uint256"
        }
      ],
      "name": "ContributionExceedsMax",
      "type": "error"
    },
    {
      "inputs": [
        {
          "internalType": "bytes32",
          "name": "campaignId",
          "type": "bytes32"
        },
        {
          "internalType": "address",
          "name": "token",
          "type": "address"
        }
      ],
      "name": "InsufficientRewardBalance",
      "type": "error"
    },
    {
      "inputs": [],
      "name": "InvalidCampaignParameters",
      "type": "error"
    },
    {
      "inputs": [
        {
          "internalType": "uint256",
          "name": "amount",
          "type": "uint256"
        }
      ],
      "name": "InvalidContributionAmount",
      "type": "error"
    },
    {
      "inputs": [
        {
          "internalType": "uint256",
          "name": "fee",
          "type": "uint256"
        }
      ],
      "name": "InvalidProtocolFee",
      "type": "error"
    },
    {
      "inputs": [],
      "name": "InvalidRegistryAddress",
      "type": "error"
    },
    {
      "inputs": [],
      "name": "ModuleAlreadyInitialized",
      "type": "error"
    },
    {
      "inputs": [],
      "name": "ModuleNotInitialized",
      "type": "error"
    },
    {
      "inputs": [
        {
          "internalType": "bytes32",
          "name": "campaignId",
          "type": "bytes32"
        },
        {
          "internalType": "address",
          "name": "contributor",
          "type": "address"
        }
      ],
      "name": "NoContributionFound",
      "type": "error"
    },
    {
      "inputs": [],
      "name": "OnlyRegistry",
      "type": "error"
    },
    {
      "inputs": [
        {
          "internalType": "bytes8",
          "name": "organizationId",
          "type": "bytes8"
        }
      ],
      "name": "OrganizationNotFound",
      "type": "error"
    },
    {
      "inputs": [
        {
          "internalType": "bytes32",
          "name": "campaignId",
          "type": "bytes32"
        },
        {
          "internalType": "address",
          "name": "contributor",
          "type": "address"
        },
        {
          "internalType": "address",
          "name": "token",
          "type": "address"
        }
      ],
      "name": "RewardsAlreadyClaimed",
      "type": "error"
    },
    {
      "inputs": [
        {
          "internalType": "bytes32",
          "name": "campaignId",
          "type": "bytes32"
        },
        {
          "internalType": "address",
          "name": "caller",
          "type": "address"
        }
      ],
      "name": "UnauthorizedCampaignAccess",
      "type": "error"
    },
    {
      "anonymous": false,
      "inputs": [
        {
          "indexed": true,
          "internalType": "bytes32",
          "name": "campaignId",
          "type": "bytes32"
        },
        {
          "indexed": true,
          "internalType": "bytes8",
          "name": "organizationId",
          "type": "bytes8"
        },
        {
          "indexed": true,
          "internalType": "address",
          "name": "creator",
          "type": "address"
        },
        {
          "indexed": false,
          "internalType": "string",
          "name": "title",
          "type": "string"
        },
        {
          "indexed": false,
          "internalType": "enum IFlow.FlowType",
          "name": "flowType",
          "type": "uint8"
        },
        {
          "indexed": false,
          "internalType": "uint256",
          "name": "target",
          "type": "uint256"
        },
        {
          "indexed": false,
          "internalType": "uint256",
          "name": "startTime",
          "type": "uint256"
        },
        {
          "indexed": false,
          "internalType": "uint256",
          "name": "endTime",
          "type": "uint256"
        },
        {
          "indexed": false,
          "internalType": "uint256",
          "name": "timestamp",
          "type": "uint256"
        }
      ],
      "name": "CampaignCreated",
      "type": "event"
    },
    {
      "anonymous": false,
      "inputs": [
        {
          "indexed": true,
          "internalType": "bytes32",
          "name": "campaignId",
          "type": "bytes32"
        },
        {
          "indexed": false,
          "internalType": "enum IFlow.FlowState",
          "name": "finalState",
          "type": "uint8"
        },
        {
          "indexed": false,
          "internalType": "uint256",
          "name": "totalRaised",
          "type": "uint256"
        },
        {
          "indexed": false,
          "internalType": "uint256",
          "name": "contributorCount",
          "type": "uint256"
        },
        {
          "indexed": false,
          "internalType": "uint256",
          "name": "timestamp",
          "type": "uint256"
        }
      ],
      "name": "CampaignFinalized",
      "type": "event"
    },
    {
      "anonymous": false,
      "inputs": [
        {
          "indexed": true,
          "internalType": "bytes32",
          "name": "campaignId",
          "type": "bytes32"
        },
        {
          "indexed": false,
          "internalType": "enum IFlow.FlowState",
          "name": "oldState",
          "type": "uint8"
        },
        {
          "indexed": false,
          "internalType": "enum IFlow.FlowState",
          "name": "newState",
          "type": "uint8"
        },
        {
          "indexed": false,
          "internalType": "uint256",
          "name": "timestamp",
          "type": "uint256"
        }
      ],
      "name": "CampaignStateChanged",
      "type": "event"
    },
    {
      "anonymous": false,
      "inputs": [
        {
          "indexed": true,
          "internalType": "bytes32",
          "name": "campaignId",
          "type": "bytes32"
        },
        {
          "indexed": false,
          "internalType": "string",
          "name": "title",
          "type": "string"
        },
        {
          "indexed": false,
          "internalType": "string",
          "name": "description",
          "type": "string"
        },
        {
          "indexed": false,
          "internalType": "uint256",
          "name": "target",
          "type": "uint256"
        },
        {
          "indexed": false,
          "internalType": "uint256",
          "name": "min",
          "type": "uint256"
        },
        {
          "indexed": false,
          "internalType": "uint256",
          "name": "max",
          "type": "uint256"
        },
        {
          "indexed": false,
          "internalType": "uint256",
          "name": "endTime",
          "type": "uint256"
        },
        {
          "indexed": false,
          "internalType": "uint256",
          "name": "timestamp",
          "type": "uint256"
        }
      ],
      "name": "CampaignUpdated",
      "type": "event"
    },
    {
      "anonymous": false,
      "inputs": [
        {
          "indexed": true,
          "internalType": "bytes32",
          "name": "campaignId",
          "type": "bytes32"
        },
        {
          "indexed": true,
          "internalType": "address",
          "name": "contributor",
          "type": "address"
        },
        {
          "indexed": false,
          "internalType": "uint256",
          "name": "amount",
          "type": "uint256"
        },
        {
          "indexed": false,
          "internalType": "uint256",
          "name": "totalRaised",
          "type": "uint256"
        },
        {
          "indexed": false,
          "internalType": "uint256",
          "name": "timestamp",
          "type": "uint256"
        }
      ],
      "name": "ContributionMade",
      "type": "event"
    },
    {
      "anonymous": false,
      "inputs": [
        {
          "indexed": true,
          "internalType": "bytes32",
          "name": "campaignId",
          "type": "bytes32"
        },
        {
          "indexed": true,
          "internalType": "address",
          "name": "contributor",
          "type": "address"
        },
        {
          "indexed": false,
          "internalType": "uint256",
          "name": "amount",
          "type": "uint256"
        },
        {
          "indexed": false,
          "internalType": "uint256",
          "name": "timestamp",
          "type": "uint256"
        }
      ],
      "name": "ContributionRefunded",
      "type": "event"
    },
    {
      "anonymous": false,
      "inputs": [],
      "name": "ModuleDisabled",
      "type": "event"
    },
    {
      "anonymous": false,
      "inputs": [],
      "name": "ModuleEnabled",
      "type": "event"
    },
    {
      "anonymous": false,
      "inputs": [
        {
          "indexed": true,
          "internalType": "address",
          "name": "registry",
          "type": "address"
        }
      ],
      "name": "ModuleInitialized",
      "type": "event"
    },
    {
      "anonymous": false,
      "inputs": [
        {
          "indexed": false,
          "internalType": "address",
          "name": "account",
          "type": "address"
        }
      ],
      "name": "Paused",
      "type": "event"
    },
    {
      "anonymous": false,
      "inputs": [
        {
          "indexed": true,
          "internalType": "bytes32",
          "name": "campaignId",
          "type": "bytes32"
        },
        {
          "indexed": true,
          "internalType": "address",
          "name": "token",
          "type": "address"
        },
        {
          "indexed": false,
          "internalType": "uint256",
          "name": "amount",
          "type": "uint256"
        },
        {
          "indexed": false,
          "internalType": "uint256",
          "name": "timestamp",
          "type": "uint256"
        }
      ],
      "name": "ProtocolFeeCollected",
      "type": "event"
    },
    {
      "anonymous": false,
      "inputs": [
        {
          "indexed": true,
          "internalType": "bytes32",
          "name": "campaignId",
          "type": "bytes32"
        },
        {
          "indexed": true,
          "internalType": "address",
          "name": "token",
          "type": "address"
        },
        {
          "indexed": false,
          "internalType": "uint256",
          "name": "totalAmount",
          "type": "uint256"
        },
        {
          "indexed": false,
          "internalType": "uint256",
          "name": "contributorCount",
          "type": "uint256"
        },
        {
          "indexed": false,
          "internalType": "uint256",
          "name": "timestamp",
          "type": "uint256"
        }
      ],
      "name": "RewardsDistributed",
      "type": "event"
    },
    {
      "anonymous": false,
      "inputs": [
        {
          "indexed": true,
          "internalType": "bytes32",
          "name": "role",
          "type": "bytes32"
        },
        {
          "indexed": true,
          "internalType": "bytes32",
          "name": "previousAdminRole",
          "type": "bytes32"
        },
        {
          "indexed": true,
          "internalType": "bytes32",
          "name": "newAdminRole",
          "type": "bytes32"
        }
      ],
      "name": "RoleAdminChanged",
      "type": "event"
    },
    {
      "anonymous": false,
      "inputs": [
        {
          "indexed": true,
          "internalType": "bytes32",
          "name": "role",
          "type": "bytes32"
        },
        {
          "indexed": true,
          "internalType": "address",
          "name": "account",
          "type": "address"
        },
        {
          "indexed": true,
          "internalType": "address",
          "name": "sender",
          "type": "address"
        }
      ],
      "name": "RoleGranted",
      "type": "event"
    },
    {
      "anonymous": false,
      "inputs": [
        {
          "indexed": true,
          "internalType": "bytes32",
          "name": "role",
          "type": "bytes32"
        },
        {
          "indexed": true,
          "internalType": "address",
          "name": "account",
          "type": "address"
        },
        {
          "indexed": true,
          "internalType": "address",
          "name": "sender",
          "type": "address"
        }
      ],
      "name": "RoleRevoked",
      "type": "event"
    },
    {
      "anonymous": false,
      "inputs": [
        {
          "indexed": false,
          "internalType": "address",
          "name": "account",
          "type": "address"
        }
      ],
      "name": "Unpaused",
      "type": "event"
    },
    {
      "inputs": [],
      "name": "ADMIN_ROLE",
      "outputs": [
        {
          "internalType": "bytes32",
          "name": "",
          "type": "bytes32"
        }
      ],
      "stateMutability": "view",
      "type": "function"
    },
    {
      "inputs": [],
      "name": "BASIS_POINTS",
      "outputs": [
        {
          "internalType": "uint256",
          "name": "",
          "type": "uint256"
        }
      ],
      "stateMutability": "view",
      "type": "function"
    },
    {
      "inputs": [],
      "name": "CAMPAIGN_CREATOR_ROLE",
      "outputs": [
        {
          "internalType": "bytes32",
          "name": "",
          "type": "bytes32"
        }
      ],
      "stateMutability": "view",
      "type": "function"
    },
    {
      "inputs": [],
      "name": "DEFAULT_ADMIN_ROLE",
      "outputs": [
        {
          "internalType": "bytes32",
          "name": "",
          "type": "bytes32"
        }
      ],
      "stateMutability": "view",
      "type": "function"
    },
    {
      "inputs": [],
      "name": "FLOW_ADMIN_ROLE",
      "outputs": [
        {
          "internalType": "bytes32",
          "name": "",
          "type": "bytes32"
        }
      ],
      "stateMutability": "view",
      "type": "function"
    },
    {
      "inputs": [],
      "name": "MAX_PROTOCOL_FEE",
      "outputs": [
        {
          "internalType": "uint256",
          "name": "",
          "type": "uint256"
        }
      ],
      "stateMutability": "view",
      "type": "function"
    },
    {
      "inputs": [],
      "name": "OPERATOR_ROLE",
      "outputs": [
        {
          "internalType": "bytes32",
          "name": "",
          "type": "bytes32"
        }
      ],
      "stateMutability": "view",
      "type": "function"
    },
    {
      "inputs": [
        {
          "internalType": "uint256",
          "name": "amount",
          "type": "uint256"
        }
      ],
      "name": "calculateProtocolFee",
      "outputs": [
        {
          "internalType": "uint256",
          "name": "",
          "type": "uint256"
        }
      ],
      "stateMutability": "view",
      "type": "function"
    },
    {
      "inputs": [
        {
          "internalType": "bytes32",
          "name": "campaignId",
          "type": "bytes32"
        },
        {
          "internalType": "address",
          "name": "",
          "type": "address"
        }
      ],
      "name": "canContribute",
      "outputs": [
        {
          "internalType": "bool",
          "name": "",
          "type": "bool"
        }
      ],
      "stateMutability": "view",
      "type": "function"
    },
    {
      "inputs": [
        {
          "internalType": "bytes32",
          "name": "campaignId",
          "type": "bytes32"
        },
        {
          "internalType": "address",
          "name": "rewardToken",
          "type": "address"
        }
      ],
      "name": "claimRewards",
      "outputs": [],
      "stateMutability": "nonpayable",
      "type": "function"
    },
    {
      "inputs": [
        {
          "internalType": "bytes32",
          "name": "campaignId",
          "type": "bytes32"
        },
        {
          "internalType": "uint256",
          "name": "amount",
          "type": "uint256"
        },
        {
          "internalType": "string",
          "name": "metadata",
          "type": "string"
        }
      ],
      "name": "contribute",
      "outputs": [],
      "stateMutability": "payable",
      "type": "function"
    },
    {
      "inputs": [
        {
          "internalType": "bytes8",
          "name": "organizationId",
          "type": "bytes8"
        },
        {
          "internalType": "string",
          "name": "title",
          "type": "string"
        },
        {
          "internalType": "string",
          "name": "description",
          "type": "string"
        },
        {
          "internalType": "string",
          "name": "metadataURI",
          "type": "string"
        },
        {
          "internalType": "enum IFlow.FlowType",
          "name": "flowType",
          "type": "uint8"
        },
        {
          "internalType": "address",
          "name": "paymentToken",
          "type": "address"
        },
        {
          "internalType": "uint256",
          "name": "target",
          "type": "uint256"
        },
        {
          "internalType": "uint256",
          "name": "min",
          "type": "uint256"
        },
        {
          "internalType": "uint256",
          "name": "max",
          "type": "uint256"
        },
        {
          "internalType": "uint256",
          "name": "duration",
          "type": "uint256"
        },
        {
          "internalType": "bool",
          "name": "autoFinalize",
          "type": "bool"
        }
      ],
      "name": "createCampaign",
      "outputs": [
        {
          "internalType": "bytes32",
          "name": "campaignId",
          "type": "bytes32"
        }
      ],
      "stateMutability": "nonpayable",
      "type": "function"
    },
    {
      "inputs": [
        {
          "internalType": "address",
          "name": "creator",
          "type": "address"
        },
        {
          "internalType": "bytes8",
          "name": "organizationId",
          "type": "bytes8"
        },
        {
          "components": [
            {
              "internalType": "string",
              "name": "title",
              "type": "string"
            },
            {
              "internalType": "string",
              "name": "description",
              "type": "string"
            },
            {
              "internalType": "string",
              "name": "metadataURI",
              "type": "string"
            },
            {
              "internalType": "enum IFlow.FlowType",
              "name": "flowType",
              "type": "uint8"
            },
            {
              "internalType": "address",
              "name": "paymentToken",
              "type": "address"
            },
            {
              "internalType": "uint256",
              "name": "target",
              "type": "uint256"
            },
            {
              "internalType": "uint256",
              "name": "min",
              "type": "uint256"
            },
            {
              "internalType": "uint256",
              "name": "max",
              "type": "uint256"
            },
            {
              "internalType": "uint256",
              "name": "duration",
              "type": "uint256"
            },
            {
              "internalType": "bool",
              "name": "autoFinalize",
              "type": "bool"
            }
          ],
          "internalType": "struct IFlow.CampaignParams",
          "name": "params",
          "type": "tuple"
        }
      ],
      "name": "createCampaignWithParams",
      "outputs": [
        {
          "internalType": "bytes32",
          "name": "campaignId",
          "type": "bytes32"
        }
      ],
      "stateMutability": "nonpayable",
      "type": "function"
    },
    {
      "inputs": [
        {
          "internalType": "bytes32",
          "name": "campaignId",
          "type": "bytes32"
        },
        {
          "internalType": "address",
          "name": "rewardToken",
          "type": "address"
        },
        {
          "internalType": "uint256",
          "name": "totalRewardAmount",
          "type": "uint256"
        }
      ],
      "name": "distributeRewards",
      "outputs": [],
      "stateMutability": "nonpayable",
      "type": "function"
    },
    {
      "inputs": [],
      "name": "emergencyPause",
      "outputs": [],
      "stateMutability": "nonpayable",
      "type": "function"
    },
    {
      "inputs": [],
      "name": "emergencyUnpause",
      "outputs": [],
      "stateMutability": "nonpayable",
      "type": "function"
    },
    {
      "inputs": [
        {
          "internalType": "address",
          "name": "token",
          "type": "address"
        },
        {
          "internalType": "address",
          "name": "to",
          "type": "address"
        },
        {
          "internalType": "uint256",
          "name": "amount",
          "type": "uint256"
        }
      ],
      "name": "emergencyWithdraw",
      "outputs": [],
      "stateMutability": "nonpayable",
      "type": "function"
    },
    {
      "inputs": [
        {
          "internalType": "bytes32",
          "name": "campaignId",
          "type": "bytes32"
        }
      ],
      "name": "finalizeCampaign",
      "outputs": [],
      "stateMutability": "nonpayable",
      "type": "function"
    },
    {
      "inputs": [
        {
          "internalType": "bytes32",
          "name": "campaignId",
          "type": "bytes32"
        }
      ],
      "name": "getCampaign",
      "outputs": [
        {
          "components": [
            {
              "internalType": "uint256",
              "name": "index",
              "type": "uint256"
            },
            {
              "internalType": "bytes8",
              "name": "organizationId",
              "type": "bytes8"
            },
            {
              "internalType": "address",
              "name": "creator",
              "type": "address"
            },
            {
              "internalType": "address",
              "name": "admin",
              "type": "address"
            },
            {
              "internalType": "string",
              "name": "title",
              "type": "string"
            },
            {
              "internalType": "string",
              "name": "description",
              "type": "string"
            },
            {
              "internalType": "string",
              "name": "metadataURI",
              "type": "string"
            },
            {
              "internalType": "enum IFlow.FlowType",
              "name": "flowType",
              "type": "uint8"
            },
            {
              "internalType": "enum IFlow.FlowState",
              "name": "state",
              "type": "uint8"
            },
            {
              "internalType": "address",
              "name": "paymentToken",
              "type": "address"
            },
            {
              "internalType": "uint256",
              "name": "target",
              "type": "uint256"
            },
            {
              "internalType": "uint256",
              "name": "min",
              "type": "uint256"
            },
            {
              "internalType": "uint256",
              "name": "max",
              "type": "uint256"
            },
            {
              "internalType": "uint256",
              "name": "raised",
              "type": "uint256"
            },
            {
              "internalType": "uint256",
              "name": "contributorCount",
              "type": "uint256"
            },
            {
              "internalType": "uint256",
              "name": "startTime",
              "type": "uint256"
            },
            {
              "internalType": "uint256",
              "name": "endTime",
              "type": "uint256"
            },
            {
              "internalType": "uint256",
              "name": "createdAt",
              "type": "uint256"
            },
            {
              "internalType": "uint256",
              "name": "updatedAt",
              "type": "uint256"
            },
            {
              "internalType": "bool",
              "name": "autoFinalize",
              "type": "bool"
            },
            {
              "internalType": "uint256",
              "name": "protocolFee",
              "type": "uint256"
            }
          ],
          "internalType": "struct IFlow.Campaign",
          "name": "",
          "type": "tuple"
        }
      ],
      "stateMutability": "view",
      "type": "function"
    },
    {
      "inputs": [
        {
          "internalType": "bytes32",
          "name": "campaignId",
          "type": "bytes32"
        }
      ],
      "name": "getCampaignContributors",
      "outputs": [
        {
          "internalType": "address[]",
          "name": "",
          "type": "address[]"
        }
      ],
      "stateMutability": "view",
      "type": "function"
    },
    {
      "inputs": [],
      "name": "getCampaignCount",
      "outputs": [
        {
          "internalType": "uint256",
          "name": "",
          "type": "uint256"
        }
      ],
      "stateMutability": "view",
      "type": "function"
    },
    {
      "inputs": [
        {
          "internalType": "bytes32",
          "name": "campaignId",
          "type": "bytes32"
        }
      ],
      "name": "getCampaignProgress",
      "outputs": [
        {
          "internalType": "uint256",
          "name": "raised",
          "type": "uint256"
        },
        {
          "internalType": "uint256",
          "name": "target",
          "type": "uint256"
        },
        {
          "internalType": "uint256",
          "name": "percentage",
          "type": "uint256"
        }
      ],
      "stateMutability": "view",
      "type": "function"
    },
    {
      "inputs": [
        {
          "internalType": "bytes8",
          "name": "organizationId",
          "type": "bytes8"
        }
      ],
      "name": "getCampaignsByOrganization",
      "outputs": [
        {
          "internalType": "bytes32[]",
          "name": "",
          "type": "bytes32[]"
        }
      ],
      "stateMutability": "view",
      "type": "function"
    },
    {
      "inputs": [
        {
          "internalType": "enum IFlow.FlowState",
          "name": "state",
          "type": "uint8"
        }
      ],
      "name": "getCampaignsByState",
      "outputs": [
        {
          "internalType": "bytes32[]",
          "name": "",
          "type": "bytes32[]"
        }
      ],
      "stateMutability": "view",
      "type": "function"
    },
    {
      "inputs": [
        {
          "internalType": "bytes32",
          "name": "campaignId",
          "type": "bytes32"
        },
        {
          "internalType": "address",
          "name": "contributor",
          "type": "address"
        }
      ],
      "name": "getContribution",
      "outputs": [
        {
          "components": [
            {
              "internalType": "address",
              "name": "contributor",
              "type": "address"
            },
            {
              "internalType": "uint256",
              "name": "amount",
              "type": "uint256"
            },
            {
              "internalType": "uint256",
              "name": "timestamp",
              "type": "uint256"
            },
            {
              "internalType": "enum IFlow.ContributorState",
              "name": "state",
              "type": "uint8"
            },
            {
              "internalType": "string",
              "name": "metadata",
              "type": "string"
            }
          ],
          "internalType": "struct IFlow.Contribution",
          "name": "",
          "type": "tuple"
        }
      ],
      "stateMutability": "view",
      "type": "function"
    },
    {
      "inputs": [],
      "name": "getProtocolFeeRate",
      "outputs": [
        {
          "internalType": "uint256",
          "name": "",
          "type": "uint256"
        }
      ],
      "stateMutability": "view",
      "type": "function"
    },
    {
      "inputs": [
        {
          "internalType": "bytes32",
          "name": "campaignId",
          "type": "bytes32"
        },
        {
          "internalType": "address",
          "name": "rewardToken",
          "type": "address"
        },
        {
          "internalType": "address",
          "name": "contributor",
          "type": "address"
        }
      ],
      "name": "getRewardDistribution",
      "outputs": [
        {
          "internalType": "uint256",
          "name": "totalReward",
          "type": "uint256"
        },
        {
          "internalType": "uint256",
          "name": "claimedAmount",
          "type": "uint256"
        },
        {
          "internalType": "uint256",
          "name": "claimableAmount",
          "type": "uint256"
        }
      ],
      "stateMutability": "view",
      "type": "function"
    },
    {
      "inputs": [
        {
          "internalType": "bytes32",
          "name": "role",
          "type": "bytes32"
        }
      ],
      "name": "getRoleAdmin",
      "outputs": [
        {
          "internalType": "bytes32",
          "name": "",
          "type": "bytes32"
        }
      ],
      "stateMutability": "view",
      "type": "function"
    },
    {
      "inputs": [
        {
          "internalType": "bytes32",
          "name": "campaignId",
          "type": "bytes32"
        }
      ],
      "name": "getTimeRemaining",
      "outputs": [
        {
          "internalType": "uint256",
          "name": "",
          "type": "uint256"
        }
      ],
      "stateMutability": "view",
      "type": "function"
    },
    {
      "inputs": [
        {
          "internalType": "bytes32",
          "name": "role",
          "type": "bytes32"
        },
        {
          "internalType": "address",
          "name": "account",
          "type": "address"
        }
      ],
      "name": "grantRole",
      "outputs": [],
      "stateMutability": "nonpayable",
      "type": "function"
    },
    {
      "inputs": [
        {
          "internalType": "bytes32",
          "name": "role",
          "type": "bytes32"
        },
        {
          "internalType": "address",
          "name": "account",
          "type": "address"
        }
      ],
      "name": "hasRole",
      "outputs": [
        {
          "internalType": "bool",
          "name": "",
          "type": "bool"
        }
      ],
      "stateMutability": "view",
      "type": "function"
    },
    {
      "inputs": [
        {
          "internalType": "address",
          "name": "registryAddress",
          "type": "address"
        }
      ],
      "name": "initialize",
      "outputs": [],
      "stateMutability": "nonpayable",
      "type": "function"
    },
    {
      "inputs": [
        {
          "internalType": "bytes32",
          "name": "campaignId",
          "type": "bytes32"
        }
      ],
      "name": "isCampaignActive",
      "outputs": [
        {
          "internalType": "bool",
          "name": "",
          "type": "bool"
        }
      ],
      "stateMutability": "view",
      "type": "function"
    },
    {
      "inputs": [],
      "name": "isInitialized",
      "outputs": [
        {
          "internalType": "bool",
          "name": "",
          "type": "bool"
        }
      ],
      "stateMutability": "view",
      "type": "function"
    },
    {
      "inputs": [],
      "name": "moduleId",
      "outputs": [
        {
          "internalType": "bytes32",
          "name": "",
          "type": "bytes32"
        }
      ],
      "stateMutability": "pure",
      "type": "function"
    },
    {
      "inputs": [],
      "name": "onModuleDisabled",
      "outputs": [],
      "stateMutability": "nonpayable",
      "type": "function"
    },
    {
      "inputs": [],
      "name": "onModuleEnabled",
      "outputs": [],
      "stateMutability": "nonpayable",
      "type": "function"
    },
    {
      "inputs": [],
      "name": "pause",
      "outputs": [],
      "stateMutability": "nonpayable",
      "type": "function"
    },
    {
      "inputs": [],
      "name": "paused",
      "outputs": [
        {
          "internalType": "bool",
          "name": "",
          "type": "bool"
        }
      ],
      "stateMutability": "view",
      "type": "function"
    },
    {
      "inputs": [
        {
          "internalType": "bytes32",
          "name": "campaignId",
          "type": "bytes32"
        },
        {
          "internalType": "address",
          "name": "contributor",
          "type": "address"
        }
      ],
      "name": "refundContribution",
      "outputs": [],
      "stateMutability": "nonpayable",
      "type": "function"
    },
    {
      "inputs": [],
      "name": "registry",
      "outputs": [
        {
          "internalType": "address",
          "name": "",
          "type": "address"
        }
      ],
      "stateMutability": "view",
      "type": "function"
    },
    {
      "inputs": [
        {
          "internalType": "bytes32",
          "name": "role",
          "type": "bytes32"
        },
        {
          "internalType": "address",
          "name": "account",
          "type": "address"
        }
      ],
      "name": "renounceRole",
      "outputs": [],
      "stateMutability": "nonpayable",
      "type": "function"
    },
    {
      "inputs": [
        {
          "internalType": "bytes32",
          "name": "role",
          "type": "bytes32"
        },
        {
          "internalType": "address",
          "name": "account",
          "type": "address"
        }
      ],
      "name": "revokeRole",
      "outputs": [],
      "stateMutability": "nonpayable",
      "type": "function"
    },
    {
      "inputs": [
        {
          "internalType": "bytes32",
          "name": "campaignId",
          "type": "bytes32"
        },
        {
          "internalType": "enum IFlow.FlowState",
          "name": "newState",
          "type": "uint8"
        }
      ],
      "name": "setCampaignState",
      "outputs": [],
      "stateMutability": "nonpayable",
      "type": "function"
    },
    {
      "inputs": [
        {
          "internalType": "uint256",
          "name": "newRate",
          "type": "uint256"
        }
      ],
      "name": "setProtocolFeeRate",
      "outputs": [],
      "stateMutability": "nonpayable",
      "type": "function"
    },
    {
      "inputs": [
        {
          "internalType": "address",
          "name": "newRecipient",
          "type": "address"
        }
      ],
      "name": "setProtocolFeeRecipient",
      "outputs": [],
      "stateMutability": "nonpayable",
      "type": "function"
    },
    {
      "inputs": [
        {
          "internalType": "bytes4",
          "name": "interfaceId",
          "type": "bytes4"
        }
      ],
      "name": "supportsInterface",
      "outputs": [
        {
          "internalType": "bool",
          "name": "",
          "type": "bool"
        }
      ],
      "stateMutability": "view",
      "type": "function"
    },
    {
      "inputs": [],
      "name": "unpause",
      "outputs": [],
      "stateMutability": "nonpayable",
      "type": "function"
    },
    {
      "inputs": [
        {
          "internalType": "bytes32",
          "name": "campaignId",
          "type": "bytes32"
        },
        {
          "internalType": "string",
          "name": "title",
          "type": "string"
        },
        {
          "internalType": "string",
          "name": "description",
          "type": "string"
        },
        {
          "internalType": "uint256",
          "name": "target",
          "type": "uint256"
        },
        {
          "internalType": "uint256",
          "name": "min",
          "type": "uint256"
        },
        {
          "internalType": "uint256",
          "name": "max",
          "type": "uint256"
        },
        {
          "internalType": "uint256",
          "name": "endTime",
          "type": "uint256"
        }
      ],
      "name": "updateCampaign",
      "outputs": [],
      "stateMutability": "nonpayable",
      "type": "function"
    },
    {
      "inputs": [],
      "name": "version",
      "outputs": [
        {
          "internalType": "string",
          "name": "",
          "type": "string"
        }
      ],
      "stateMutability": "view",
      "type": "function"
    },
    {
      "inputs": [
        {
          "internalType": "bytes32",
          "name": "campaignId",
          "type": "bytes32"
        },
        {
          "internalType": "address",
          "name": "to",
          "type": "address"
        },
        {
          "internalType": "uint256",
          "name": "amount",
          "type": "uint256"
        }
      ],
      "name": "withdrawFunds",
      "outputs": [],
      "stateMutability": "nonpayable",
      "type": "function"
    },
    {
      "stateMutability": "payable",
      "type": "receive"
    }
  ],
  "bytecode": "0x608034620002e6576040908082016001600160401b03811182821017620002d0578252600581526020809101640312e302e360dc1b815260ff1990600190828254168255816002556004548281811c91168015620002c5575b85821014620002af57601f81116200027d575b50516001600160d81b031916600a17600455600080805280845284812033825284528490205460ff161562000242575b7fa49807205ce4d355092ef5a8a18f56e8913cf4a201fbe287825b095693c2177580600052600084528460002033600052845260ff8560002054161562000205575b5060fa600e553360018060a01b0319600f541617600f557f8f882e9b3b0c043c8507802fbb9a0ed808c8f0587361ab18424493e6841512a880600052600084528460002033600052845260ff85600020541615620001c8575b507faabecfdf6c789f9fb8a93bd3a33e66be61c9d95c3d88fbe57f4acd20b6d738f89283600052600081528460002033600052815260ff8560002054161562000189575b8451614c409081620002ec8239f35b83600052600081528460002090336000525283600020918254161790553390339060008051602062004f2c833981519152600080a4388080806200017a565b8060005260008452846000203360005284528460002082848254161790553390339060008051602062004f2c833981519152600080a43862000136565b8060005260008452846000203360005284528460002082848254161790553390339060008051602062004f2c833981519152600080a438620000dd565b6000805260008352836000203360005283528360002081838254161790553333600060008051602062004f2c8339815191528180a46200009b565b600460005282601f86600020920160051c8201915b828110620002a25750506200006b565b6000815501839062000292565b634e487b7160e01b600052602260045260246000fd5b90607f169062000058565b634e487b7160e01b600052604160045260246000fd5b600080fdfe608080604052600436101561001d575b50361561001b57600080fd5b005b60003560e01c90816301ffc9a7146136c357508063132bb268146134f757806320746f6114613465578063248a9ca3146134365780632604d6bf146133db5780632cb3465714612c0d5780632f2ff15d14612b5957806332be9ebc14612b3357806336568abe14612a93578063392e53cd14612a6d5780633da6e61e14612a135780633f4ba83a146129ad5780634a4e3bd5146128fa57806351858e27146128c357806354fd4d50146127e1578063563ffcba1461279a57806357bbcd65146122b65780635b5eedf1146121385780635c975abb146121155780635d044b7e14611f735780636693643f14611e605780636caa921814611e4257806375b238fc14611e075780637b10399914611de05780637b75083c14611da55780637fa6345614611ca35780638456cb5914611c3c57806391d1485414611bee578063992daefc14611a325780639c7c270c14611a05578063a1308f27146119ca578063a217fddf146119ae578063a229f93b146112ca578063aa7318aa14611274578063aeb37e9b146111ab578063b13aa2d614611169578063b8ca3b831461114c578063baefb8f014611111578063c4d66de814610d90578063c7fe4e5414610d55578063cabe0452146109c4578063d547741f14610985578063dd6f4ff2146104c6578063dfd9ff7814610485578063e1f1c4a714610468578063e521cb92146103dd578063e63ea408146103a8578063ebf8a3e61461032e578063f5b541a6146102f3578063f7fab94f146102d55763fcec9eca1461025b573861000f565b346102d0576020806003193601126102d057600435600052600781526102846040600020614aeb565b906040519181839283018184528251809152816040850193019160005b8281106102b057505050500390f35b83516001600160a01b0316855286955093810193928101926001016102a1565b600080fd5b346102d05760003660031901126102d0576020600e54604051908152f35b346102d05760003660031901126102d05760206040517f97667070c54ef182b0f5858b034beac1b6f3089aa2d3188bb1e8929f4fa9b9298152f35b346102d05760003660031901126102d0576003546001600160a01b03811633036103965760a01c60ff1615610384577fa866f3901ec84758a10f30e8953c3818eef73da93dfa46cb6aa5b726fb65813f600080a1005b604051633165f6e960e21b8152600490fd5b6040516310f5403960e31b8152600490fd5b346102d05760603660031901126102d05761001b6103c4613716565b6103cc61372c565b6103d46138fa565b60443591614922565b346102d05760203660031901126102d0576001600160a01b036103fe613716565b610406613b23565b168015610423576001600160a01b0319600f541617600f55600080f35b60405162461bcd60e51b815260206004820152601160248201527f496e76616c696420726563697069656e740000000000000000000000000000006044820152606490fd5b346102d05760003660031901126102d05760206040516127108152f35b346102d05760203660031901126102d05760043560078110156102d0576104b66104b16104c29261411e565b614aeb565b604051918291826138a5565b0390f35b60603660031901126102d05767ffffffffffffffff600435602480356044358481116102d0576104fa903690600401613816565b9160ff60035460a01c161561038457610511614019565b610519614173565b836000526020600581526040600020936001600160a01b0390600197828988015460401c161561096d576006870192835460ff8160081c166007811015610958578b811415908161094e575b5061093657600d89015442101561091e578715610906576009890154801515806108f0575b6108c45750879060101c8216806108ae57503403610896576004905b8960005260068652604060002033600052865260406000209081549081161561084c575b508a81016105d9898254613e06565b9055426002820155019180519182116108375781906105f88454613f49565b601f81116107e4575b508590601f831160011461078157600092610776575b5050600019600383901b1c191690891b1790555b600a85019261063b858554613e06565b845542600f87015560ff825460081c16906007821015610762575090869291156106e7575b5050505490837f6a1373fa7ba1bec3888b21f58e5f2a681e0ed2e5b7db7c0a174fa8467e64af18604051806106aa3395874291846040919493926060820195825260208201520152565b0390a360ff60108301541691826106d8575b50506106c9575b50600255005b6106d29061471b565b816106c3565b600701541115905083806106bc565b7fa501447e21b5d0bd78344e62b02b2e1c935dbbc23f482a95170d08a44d63b2979160609160008052600a82526107228560406000206143f9565b5061010061ff001982541617905588600052600a815261074684604060002061427c565b50886040519160008352820152426040820152a2838680610660565b634e487b7160e01b60009081526021600452fd5b015190508a80610617565b908b9350601f1983169185600052876000209260005b898282106107ce57505084116107b5575b505050811b01905561062b565b015160001960f88460031b161c191690558a80806107a8565b8385015186558f97909501949384019301610797565b9091508360005285600020601f840160051c81019187851061082d575b84939291601f8e920160051c01915b82811061081e575050610601565b600081558594508d9101610810565b9091508190610801565b85634e487b7160e01b60005260416004526000fd5b6001600160a01b0319339116178155600381018b60ff19825416179055896000526007865261087f33604060002061427c565b50600b890161088e8154614089565b90558b6105ca565b6040516347a1896d60e11b8152600481018890528690fd5b600492916108bf91309033906144e9565b6105a6565b88886108d7604493600a8e0154906143ec565b90604051926336f816b160e01b84526004840152820152fd5b50806109008a600a8d0154613e06565b1161058a565b6040516347a1896d60e11b8152600481018990528790fd5b6040516316c9bba560e31b8152600481018b90528790fd5b60405163ef78d6ef60e01b8152600481018b90528790fd5b905015158c610565565b87634e487b7160e01b60005260216004526000fd5b60405163ce1befcb60e01b8152600481018990528590fd5b346102d05760403660031901126102d05761001b6004356109a461372c565b908060005260006020526109bf600160406000200154613c6e565b613d7e565b346102d05760203660031901126102d05760006102806040516109e68161379f565b82815282602082015282604082015282606082015260606080820152606060a0820152606060c08201528260e08201528261010082015282610120820152826101408201528261016082015282610180820152826101a0820152826101c0820152826101e08201528261020082015282610220820152826102408201528261026082015201526004356000526005602052604060002060405190610a898261379f565b805482526001600160a01b0360018201546001600160c01b03198160c01b16602085015260401c1660408301526001600160a01b036002820154166060830152604051610ae481610add8160038601613f83565b03826137d8565b6080830152604051610afd81610add8160048601613f83565b60a0830152604051610b1681610add8160058601613f83565b60c0830152600681015490600660ff83161015610d3f5760ff821660e0840152600760ff8360081c161015610d3f576001600160a01b038260ff60119460081c1661010086015260101c16610120840152600781015461014084015260088101546101608401526009810154610180840152600a8101546101a0840152600b8101546101c0840152600c8101546101e0840152600d810154610200840152600e810154610220840152600f81015461024084015260ff60108201541615156102608401520154610280820152604051809160208252805160208301526001600160c01b031960208201511660408301526001600160a01b0360408201511660608301526001600160a01b036060820151166080830152610280610c7e610c4d60808401516102a060a08701526102c0860190613880565b610c6960a085015191601f1992838883030160c0890152613880565b9060c0850151908683030160e0870152613880565b91610c9260e08201516101008601906138e0565b610ca66101008201516101208601906138ed565b6001600160a01b03610120820151166101408501526101408101516101608501526101608101516101808501526101808101516101a08501526101a08101516101c08501526101c08101516101e08501526101e081015161020085015261020081015161022085015261022081015161024085015261024081015161026085015261026081015115158285015201516102a08301520390f35b634e487b7160e01b600052602160045260246000fd5b346102d05760003660031901126102d05760206040517faabecfdf6c789f9fb8a93bd3a33e66be61c9d95c3d88fbe57f4acd20b6d738f88152f35b346102d0576020806003193601126102d057610daa613716565b906003549160ff8360a01c166110ff576001600160a01b038091169283156110ed57837fffffffffffffffffffffff00000000000000000000000000000000000000000074010000000000000000000000000000000000000000921617176003557fa49807205ce4d355092ef5a8a18f56e8913cf4a201fbe287825b095693c217758060005260008352604060002084600052835260ff604060002054161561109c575b507f97667070c54ef182b0f5858b034beac1b6f3089aa2d3188bb1e8929f4fa9b9298060005260008352604060002084600052835260ff604060002054161561104b575b50604051637b10399960e01b8152908282600481305afa91821561103f57600092611010575b507f8f882e9b3b0c043c8507802fbb9a0ed808c8f0587361ab18424493e6841512a8908160005260008452604060002092169182600052835260ff6040600020541615610fbf575b507faabecfdf6c789f9fb8a93bd3a33e66be61c9d95c3d88fbe57f4acd20b6d738f8918260005260008152604060002082600052815260ff6040600020541615610f6d575b837f27b541a16df0902e262f34789782092ab25125513b8ed73608e802951771b928600080a2005b826000526000815260406000209082600052526040600020600160ff1982541617905533917f2f8788117e7eff1d82e926ec794901d17c78024a50270940304540a733656f0d600080a4818080610f45565b806000526000835260406000208260005283526040600020600160ff198254161790558133917f2f8788117e7eff1d82e926ec794901d17c78024a50270940304540a733656f0d600080a483610f00565b611031919250833d8511611038575b61102981836137d8565b81019061406a565b9084610eb8565b503d61101f565b6040513d6000823e3d90fd5b806000526000835260406000208460005283526040600020600160ff198254161790558333917f2f8788117e7eff1d82e926ec794901d17c78024a50270940304540a733656f0d600080a483610e92565b806000526000835260406000208460005283526040600020600160ff198254161790558333917f2f8788117e7eff1d82e926ec794901d17c78024a50270940304540a733656f0d600080a483610e4e565b604051637bfd2e8360e01b8152600490fd5b604051637396742f60e11b8152600490fd5b346102d05760203660031901126102d0576001600160c01b031961113361376c565b1660005260096020526104c26104b66040600020614aeb565b346102d05760003660031901126102d05760206040516103e88152f35b346102d05760203660031901126102d057600435611185613b23565b6103e8811161119357600e55005b6024906040519063660d83e960e11b82526004820152fd5b346102d05760403660031901126102d0576111c461372c565b50600435600052600560205260406000206001600160a01b03600182015460401c1615158061123d575b6020918161122f575b81611208575b506040519015158152f35b905060098101548015918215611221575b5050826111fd565b600a01541090508280611219565b600d810154421091506111f7565b5060ff600682015460081c16906007821015610d3f578160016020931490811561126b575b509091506111ee565b90501583611262565b346102d05760003660031901126102d0576003546001600160a01b03811633036103965760a01c60ff1615610384577f6dff2fe8fbb5b23bf0583bf5b2157ff62ca7e27f2fb4f404914cd0c205ced5cc600080a1005b346102d0576101603660031901126102d0576112e461376c565b60243567ffffffffffffffff81116102d057611304903690600401613816565b9060443567ffffffffffffffff81116102d057611325903690600401613816565b9060643567ffffffffffffffff81116102d057611346903690600401613816565b90600660843510156102d0576001600160a01b0360a4351660a435036102d05761014435151561014435036102d05760ff60035460a01c16156103845761138b614019565b611393614173565b61139c8161499f565b83511561196e5760c4351580156119a1575b8015611980575b61196e57610124351561196e57600d54916113cf83614089565b9283600d556040516113fb816113ed6020820194428b338a89614098565b03601f1981018352826137d8565b519020600081815260056020526040908190209485556001850180547fffffffff000000000000000000000000000000000000000000000000000000001660c086901c173390921b7bffffffffffffffffffffffffffffffffffffffff0000000000000000169190911790559360028401336001600160a01b0319825416179055855167ffffffffffffffff81116117c95761149a6003860154613f49565b601f8111611927575b50806020601f82116001146118ba576000916118af575b508160011b916000199060031b1c19161760038501555b80519067ffffffffffffffff82116117c95781906114f26004870154613f49565b601f811161185c575b50602090601f83116001146117ea576000926117df575b50508160011b916000199060031b1c19161760048401555b80519067ffffffffffffffff82116117c9576115496005850154613f49565b601f8111611782575b509484916020968790601f83116001146116ec577fa3a88efe57786deda68f6c5dcc5465fee13dbf6c95e5da6149a2574d4b59d599939291600091836116e1575b50508160011b916000199060031b1c19161760058601555b6115fc600686016115be608435826140e7565b805475ffffffffffffffffffffffffffffffffffffffffff00191660a43560101b75ffffffffffffffffffffffffffffffffffffffff000016179055565b60c435600786015560e43560088601556101043560098601556000600a8601556000600b8601556001600160c01b0319600c8601944286556116416101243542613e06565b96600d810197885542600e82015542600f82015561167161014435601083019060ff801983541691151516179055565b6011600e54910155611682856141df565b501693846000526009885261169b84604060002061427c565b5060008052600a88526116b284604060002061427c565b505494546116d16040519283923398429260c435906084359087614137565b0390a46001600255604051908152f35b015190508980611593565b9392919060058701600052886000209460005b601f198416811061176857509482917fa3a88efe57786deda68f6c5dcc5465fee13dbf6c95e5da6149a2574d4b59d5999596600194601f1981161061174f575b505050811b0160058601556115ab565b015160001960f88460031b161c1916905589808061173f565b828201518755600190960195899550918a01918a016116ff565b600585016000526020600020601f840160051c8101602085106117c2575b601f830160051c820181106117b6575050611552565b600081556001016117a0565b50806117a0565b634e487b7160e01b600052604160045260246000fd5b015190508780611512565b9250600486016000526020600020906000935b601f1984168510611841576001945083601f19811610611828575b505050811b01600484015561152a565b015160001960f88460031b161c19169055878080611818565b818101518355602094850194600190930192909101906117fd565b909150600486016000526020600020601f840160051c8101602085106118a8575b90849392915b601f830160051c820181106118995750506114fb565b60008155859450600101611883565b508061187d565b9050870151886114ba565b91506003860160005260206000206000925b601f198316841061190f576001935082601f198116106118f6575b5050811b0160038501556114d1565b89015160001960f88460031b161c1916905588806118e7565b898101518255602093840193600190920191016118cc565b600386016000526020600020601f830160051c810160208410611967575b601f830160051c8201811061195b5750506114a3565b60008155600101611945565b5080611945565b6040516306ac19c760e31b8152600490fd5b50610104358015159081611995575b506113b5565b905060c435118561198f565b5060c43560e435116113ae565b346102d05760003660031901126102d057602060405160008152f35b346102d05760003660031901126102d05760206040517f84d20104310cb32261c684fea2f6a24da76255f470d709e28f6b2c9da16e9a3e8152f35b346102d05760203660031901126102d0576020612710611a29600e54600435613df3565b04604051908152f35b346102d05760403660031901126102d057600435611a4e61372c565b9060ff60035460a01c161561038457611a65614019565b611a6d614173565b8060005260056020526040600020916001600160a01b039283600182015460401c1615611bd5576006019060ff825460081c166007811015610d3f5760048114159081611bc9575b50611bb05782600052600660205260406000209380821694856000526020526040600020928184541615611b88576003840180549460ff86166004811015610d3f57600214611b5c5793600293611b499360007fd9659c675462e26e5353cfc2a816f73cfe5c8e02041fbbb2fba7aa704c76567f989460016040990190815498899760ff1916179055555460101c16614922565b8151908152426020820152a36001600255005b6040516364baa58f60e01b8152600481018890526001600160a01b0386166024820152604490fd5b0390fd5b6040516305cf19fb60e51b8152600481018690526001600160a01b0384166024820152604490fd5b60405163ef78d6ef60e01b815260048101849052602490fd5b60069150141585611ab5565b60405163ce1befcb60e01b815260048101849052602490fd5b346102d05760403660031901126102d057611c0761372c565b60043560005260006020526001600160a01b0360406000209116600052602052602060ff604060002054166040519015158152f35b346102d05760003660031901126102d057611c556138fa565b60ff60035460a01c161561038457611c6b614019565b600160ff19815416176001557f62e78cea01bee320cd4e420270b5ea74000d11b0c9f74754ebdbfc544b05a2586020604051338152a1005b346102d05760203660031901126102d05760043560ff60035460a01c161561038457611ccd614019565b611cd5614173565b80600052600560205260406000206001600160a01b0380600183015460401c168015611d8c573314159182611d7a575b505080611d41575b611d2157611d1a9061471b565b6001600255005b60405163d007ec9360e01b81526004810191909152336024820152604490fd5b503360009081527f407e260c196876216b8dd20ea8619d70e7050dd5853750ed41a99b75f2b4c409602052604090205460ff1615611d0d565b60029192500154163314158280611d05565b60405163ce1befcb60e01b815260048101859052602490fd5b346102d05760003660031901126102d05760206040517f8f882e9b3b0c043c8507802fbb9a0ed808c8f0587361ab18424493e6841512a88152f35b346102d05760003660031901126102d05760206001600160a01b0360035416604051908152f35b346102d05760003660031901126102d05760206040517fa49807205ce4d355092ef5a8a18f56e8913cf4a201fbe287825b095693c217758152f35b346102d05760003660031901126102d0576020600b54604051908152f35b346102d05760403660031901126102d057611e7961372c565b60405190611e8682613783565b60008252606060806020936000858201526000604082015260008382015201526004356000526006825260406000206001600160a01b03809216600052825260406000209060405192611ed884613783565b81835416845260018301548185019081526002840154916040860192835260ff6003860154169360608701946004811015610d3f57600496611f2d918752611f266040518099819301613f83565b03876137d8565b6080870195865260405196828852511690860152516040850152516060840152516004811015610d3f5782916104c29160808401525160a08084015260c0830190613880565b346102d05760403660031901126102d057600435611f8f61372c565b60ff60035460a01c161561038457611fa5614019565b611fad614173565b81600052602090600582526040600020926001600160a01b039081600186015460401c16156120fd578060005260068452604060002033600052845260406000209482865416156120de57816000526008855260406000209383811694856000528652604060002093845416156120b4575060038301913360005282865260406000205461209057506003928692612062600293600a6120596001611d1a9c0154600187015490613df3565b910154906148b5565b963360005252856040600020550161207b858254613e06565b905501805460ff1916600317905533906148d5565b6064908560405191633d6c53f760e21b835260048301523360248301526044820152fd5b60405163d67bb84560e01b8152600481018490526001600160a01b03919091166024820152604490fd5b6040516305cf19fb60e51b815260048101839052336024820152604490fd5b6024906040519063ce1befcb60e01b82526004820152fd5b346102d05760003660031901126102d057602060ff600154166040519015158152f35b346102d05761214636613742565b9060ff60035460a01c16156103845761215d614019565b612165614173565b82600052600560205260406000206001600160a01b039081600182015460401c16801561229d573314158061228d575b80612254575b6122355760068101549460ff8660081c166007811015610d3f5760038114159081612229575b506122115750600a6121e59101546127106121de600e5483613df3565b04906143ec565b83116121f857611d1a9360101c16614922565b6040516347a1896d60e11b815260048101849052602490fd5b6024906040519063ef78d6ef60e01b82526004820152fd5b600691501415876121c1565b60405163d007ec9360e01b815260048101869052336024820152604490fd5b503360009081527f407e260c196876216b8dd20ea8619d70e7050dd5853750ed41a99b75f2b4c409602052604090205460ff161561219b565b5081600282015416331415612195565b60405163ce1befcb60e01b815260048101879052602490fd5b346102d05760e03660031901126102d05767ffffffffffffffff6024358181116102d0576122e8903690600401613816565b6044358281116102d057612300903690600401613816565b9160039160ff835460a01c161561038457612319614019565b6004359384600052602092600584526040600020926001600160a01b0390600191808387015460401c168015612781573314159081612770575b508061272d575b61270e5760ff600686015460081c166007811015610d3f5760061461270e57805180612603575b5050825191826124a7575b5050505091612419917f2d861976db5536e53826be5f92e32db2e49dd12c40c783feeb5413c7f8445ef2936064358015158061249b575b8061247a575b61245f575b5060c43542811180612452575b612447575b5042600f82015560078101549160088201546124276009840154926004600d86015495604051998a9960e08b5260e08b01908301613f83565b92898403908a015201613f83565b9360408601526060850152608084015260a08301524260c08301520390a2005b600d820155866123e0565b50600c82015481116123db565b6007820155608435600882015560a4356009820155866123ce565b5060a435818115918215612490575b50506123c9565b101590508189612489565b508060843511156123c3565b82116117c95760048401926124bc8454613f49565b601f81116125bc575b508590601f841160011461252f57928061241997959381937f2d861976db5536e53826be5f92e32db2e49dd12c40c783feeb5413c7f8445ef29a9896600094612524575b50501b9160001990871b1c19161790555b919381938761238c565b015192508b80612509565b908460009493945286600020916000601f198516905b8181106125a75750917f2d861976db5536e53826be5f92e32db2e49dd12c40c783feeb5413c7f8445ef29997959391856124199a9896941061258f575b505050811b01905561251a565b015160001983891b60f8161c19169055898080612582565b82840151855593860193928901928901612545565b8460005286600020601f850160051c81018886106125fc575b90601f8592930160051c01915b8281106125f05750506124c5565b600081550183906125e2565b50806125d5565b8381116117c95780888701926126198454613f49565b601f81116126be575b508890601f831160011461265c57600092612651575b5050600019828a1b1c191690831b1790555b8780612381565b015190508a80612638565b908593508460005289600020916000601f198516905b8c8282106126a85750508411612690575b505050811b01905561264a565b0151600019838c1b60f8161c191690558a8080612683565b8385015186558997909501949384019301612672565b9091508360005288600020601f840160051c81018a8510612707575b84939291601f8892930160051c01915b8281106126f8575050612622565b600081558594508791016126ea565b50806126da565b60405163d007ec9360e01b815260048101899052336024820152604490fd5b507f8f882e9b3b0c043c8507802fbb9a0ed808c8f0587361ab18424493e6841512a860005260008652604060002033600052865260ff604060002054161561235a565b905060028601541633141589612353565b60405163ce1befcb60e01b8152600481018b9052602490fd5b346102d05760403660031901126102d05760243560078110156102d0576127bf613b23565b60ff60035460a01c16156103845761001b906127d9614019565b600435614306565b346102d05760003660031901126102d057604051600060045461280381613f49565b8084529060019081811690811561289c5750600114612841575b6104c28461282d818603826137d8565b604051918291602083526020830190613880565b6004600090815292507f8a35acfbc15ff81a39ae7d344fd709f28e8600b4aa8c65c6b64bfe7fe36bd19b5b82841061288457505050810160200161282d8261281d565b8054602085870181019190915290930192810161286c565b60ff191660208087019190915292151560051b8501909201925061282d915083905061281d565b346102d05760003660031901126102d0576003546001600160a01b03811633036103965760a01c60ff161561038457611c6b614019565b346102d05760003660031901126102d0576003546001600160a01b03811633036103965760a01c60ff16156103845760015460ff8116156129685760ff19166001557f5db9ee0a495bf2e6ff9c91a7834c1ba4fdd244a5e8aa4e537bd38aeae4b073aa6020604051338152a1005b60405162461bcd60e51b815260206004820152601460248201527f5061757361626c653a206e6f74207061757365640000000000000000000000006044820152606490fd5b346102d05760003660031901126102d0576129c66138fa565b60ff60035460a01c16156103845760015460ff8116156129685760ff19166001557f5db9ee0a495bf2e6ff9c91a7834c1ba4fdd244a5e8aa4e537bd38aeae4b073aa6020604051338152a1005b346102d05760603660031901126102d057612a2c61372c565b604435906001600160a01b03821682036102d0576104c291612a5091600435614b67565b604080519384526020840192909252908201529081906060820190565b346102d05760003660031901126102d057602060ff60035460a01c166040519015158152f35b346102d05760403660031901126102d057612aac61372c565b336001600160a01b03821603612ac85761001b90600435613d7e565b60405162461bcd60e51b815260206004820152602f60248201527f416363657373436f6e74726f6c3a2063616e206f6e6c792072656e6f756e636560448201527f20726f6c657320666f722073656c6600000000000000000000000000000000006064820152608490fd5b346102d05760203660031901126102d0576020612b51600435614b3a565b604051908152f35b346102d05760403660031901126102d057600435612b7561372c565b816000526000602052612b8f600160406000200154613c6e565b8160005260006020526001600160a01b0360406000209116908160005260205260ff6040600020541615612bbf57005b8160005260006020526040600020816000526020526040600020600160ff1982541617905533917f2f8788117e7eff1d82e926ec794901d17c78024a50270940304540a733656f0d600080a4005b346102d0576003196060368201126102d057612c27613716565b906001600160c01b031960243516602435036102d05760443567ffffffffffffffff81116102d057610140809282360301126102d05760405191820182811067ffffffffffffffff8211176117c957604052806004013567ffffffffffffffff81116102d057612c9d9060043691840101613816565b8252602481013567ffffffffffffffff81116102d057612cc39060043691840101613816565b6020830152604481013567ffffffffffffffff81116102d057612cec9060043691840101613816565b6040830152606481013560068110156102d05760608301526084810135906001600160a01b03821682036102d05761012491608084015260a481013560a084015260c481013560c084015260e481013560e0840152610104810135610100840152013580151581036102d05761012082015260ff60035460a01c161561038457612d74614019565b612d7c614173565b612d8760243561499f565b8051511561196e5760a081015180159081156133cc575b81156133aa575b5061196e576101008101511561196e57805190600d54916113ed612de7612dcb85614089565b9485600d55604051928391602083019542908a60243589614098565b519020600081815260056020526040908190209384556001840180547fffffffff000000000000000000000000000000000000000000000000000000001660243560c01c179186901b7bffffffffffffffffffffffffffffffffffffffff00000000000000001691909117905591600281016001600160a01b0385166001600160a01b0319825416179055815180519067ffffffffffffffff82116117c9578190612e956003850154613f49565b601f8111613357575b50602090601f83116001146132e5576000926132da575b50508160011b916000199060031b1c19161760038201555b602082015180519067ffffffffffffffff82116117c9578190612ef36004850154613f49565b601f8111613287575b50602090601f83116001146132155760009261320a575b50508160011b916000199060031b1c19161760048201555b604082015180519067ffffffffffffffff82116117c9578190612f516005850154613f49565b601f81116131b7575b50602090601f83116001146131455760009261313a575b50508160011b916000199060031b1c19161760058201555b60608201516006811015610d3f57612fee90612fa96006840191826140e7565b8054608085015175ffffffffffffffffffffffffffffffffffffffffff001990911660109190911b75ffffffffffffffffffffffffffffffffffffffff000016179055565b60a0820151600782015560c0820151600882015560e082015160098201556000600a8201556000600b820155600c81019142835561303161010082015142613e06565b91600d810192835542600e82015542600f8201556130656101208301511515601083019060ff801983541691151516179055565b6011600e54910155613076846141df565b506001600160c01b031960243516600052600960205261309a84604060002061427c565b5060008052600a6020526130ce847f13da86008ba1c6922daee3e07db95305ef49ebced9f5467a0b8613fcc6b343e361427c565b5080516060820151926006841015610d3f576020966116d17fa3a88efe57786deda68f6c5dcc5465fee13dbf6c95e5da6149a2574d4b59d599936001600160a01b039360a08a970151985490549060405195869516996001600160c01b03196024351699429487614137565b015190508680612f71565b9250600584016000526020600020906000935b601f198416851061319c576001945083601f19811610613183575b505050811b016005820155612f89565b015160001960f88460031b161c19169055868080613173565b81810151835560209485019460019093019290910190613158565b909150600584016000526020600020601f840160051c810160208510613203575b90849392915b601f830160051c820181106131f4575050612f5a565b600081558594506001016131de565b50806131d8565b015190508680612f13565b9250600484016000526020600020906000935b601f198416851061326c576001945083601f19811610613253575b505050811b016004820155612f2b565b015160001960f88460031b161c19169055868080613243565b81810151835560209485019460019093019290910190613228565b909150600484016000526020600020601f840160051c8101602085106132d3575b90849392915b601f830160051c820181106132c4575050612efc565b600081558594506001016132ae565b50806132a8565b015190508680612eb5565b9250600384016000526020600020906000935b601f198416851061333c576001945083601f19811610613323575b505050811b016003820155612ecd565b015160001960f88460031b161c19169055868080613313565b818101518355602094850194600190930192909101906132f8565b909150600384016000526020600020601f840160051c8101602085106133a3575b90849392915b601f830160051c82018110613394575050612e9e565b6000815585945060010161337e565b5080613378565b60e08301518015159250826133c2575b505083612da5565b10905083806133ba565b80915060c08301511190612d9e565b346102d05760203660031901126102d0576004356000526005602052604060002060ff600682015460081c16906007821015610d3f57600160209214908161342857506040519015158152f35b600d915001544210826111fd565b346102d05760203660031901126102d05760043560005260006020526020600160406000200154604051908152f35b346102d05760203660031901126102d057600435600052600560205260406000206007600a820154910154908115156000146134ed5760648102818104606414821517156134d7576134ba836104c2926148b5565b604051938493846040919493926060820195825260208201520152565b634e487b7160e01b600052601160045260246000fd5b6104c260006134ba565b346102d05761350536613742565b60ff60039392935460a01c16156103845761351e614019565b613526614173565b8160005260056020526040600020926001600160a01b039081600186015460401c1680156136aa573314158061369a575b80613661575b6136425760ff600686015460081c166007811015610d3f5760038114159081613636575b5061361d577fa2be304a31c5194b71cd99f0ee865ff9ca0b8b8266efeab33a5a78d3cdf9a0999291600b9116946135ba833033896144e9565b8460005260086020526040600020866000526020526000600260408220886001600160a01b0319825416178155856001820155015501546136136040519283924291846040919493926060820195825260208201520152565b0390a36001600255005b60405163ef78d6ef60e01b815260048101859052602490fd5b60069150141586613581565b60405163d007ec9360e01b815260048101859052336024820152604490fd5b503360009081527f407e260c196876216b8dd20ea8619d70e7050dd5853750ed41a99b75f2b4c409602052604090205460ff161561355d565b5081600286015416331415613557565b60405163ce1befcb60e01b815260048101869052602490fd5b346102d05760203660031901126102d0576004359063ffffffff60e01b82168092036102d057602091637965db0b60e01b8114908115613705575b5015158152f35b6301ffc9a760e01b149050836136fe565b600435906001600160a01b03821682036102d057565b602435906001600160a01b03821682036102d057565b60609060031901126102d057600435906024356001600160a01b03811681036102d0579060443590565b600435906001600160c01b0319821682036102d057565b60a0810190811067ffffffffffffffff8211176117c957604052565b6102a0810190811067ffffffffffffffff8211176117c957604052565b6080810190811067ffffffffffffffff8211176117c957604052565b90601f8019910116810190811067ffffffffffffffff8211176117c957604052565b67ffffffffffffffff81116117c957601f01601f191660200190565b81601f820112156102d05780359061382d826137fa565b9261383b60405194856137d8565b828452602083830101116102d057816000926020809301838601378301015290565b60005b8381106138705750506000910152565b8181015183820152602001613860565b906020916138998151809281855285808601910161385d565b601f01601f1916010190565b6020908160408183019282815285518094520193019160005b8281106138cc575050505090565b8351855293810193928101926001016138be565b906006821015610d3f5752565b906007821015610d3f5752565b3360009081527f7d7ffb7a348e1c6a02869081a26547b49160dd3df72d1d75a570eb9b698292ec602090815260408083205490927fa49807205ce4d355092ef5a8a18f56e8913cf4a201fbe287825b095693c217759160ff161561395e5750505050565b61396733613e3a565b91845190613974826137bc565b60428252848201926060368537825115613b0f5760308453825190600191821015613b0f5790607860218501536041915b818311613aa157505050613a5f576048611b84938693613a4393613a3498519889937f416363657373436f6e74726f6c3a206163636f756e74200000000000000000008a8601526139ff815180928c60378901910161385d565b8401917f206973206d697373696e6720726f6c652000000000000000000000000000000060378401525180938684019061385d565b010360288101875201856137d8565b5192839262461bcd60e51b845260048401526024830190613880565b60648486519062461bcd60e51b825280600483015260248201527f537472696e67733a20686578206c656e67746820696e73756666696369656e746044820152fd5b909192600f81166010811015613afb576f181899199a1a9b1b9c1cb0b131b232b360811b901a613ad18587613e13565b5360041c928015613ae7576000190191906139a5565b634e487b7160e01b82526011600452602482fd5b634e487b7160e01b83526032600452602483fd5b634e487b7160e01b81526032600452602490fd5b3360009081527f407e260c196876216b8dd20ea8619d70e7050dd5853750ed41a99b75f2b4c409602090815260408083205490927f8f882e9b3b0c043c8507802fbb9a0ed808c8f0587361ab18424493e6841512a89160ff1615613b875750505050565b613b9033613e3a565b91845190613b9d826137bc565b60428252848201926060368537825115613b0f5760308453825190600191821015613b0f5790607860218501536041915b818311613c2857505050613a5f576048611b84938693613a4393613a3498519889937f416363657373436f6e74726f6c3a206163636f756e74200000000000000000008a8601526139ff815180928c60378901910161385d565b909192600f81166010811015613afb576f181899199a1a9b1b9c1cb0b131b232b360811b901a613c588587613e13565b5360041c928015613ae757600019019190613bce565b600090808252602090828252604092838120338252835260ff848220541615613c975750505050565b613ca033613e3a565b91845190613cad826137bc565b60428252848201926060368537825115613b0f5760308453825190600191821015613b0f5790607860218501536041915b818311613d3857505050613a5f576048611b84938693613a4393613a3498519889937f416363657373436f6e74726f6c3a206163636f756e74200000000000000000008a8601526139ff815180928c60378901910161385d565b909192600f81166010811015613afb576f181899199a1a9b1b9c1cb0b131b232b360811b901a613d688587613e13565b5360041c928015613ae757600019019190613cde565b90600091808352826020526001600160a01b036040842092169182845260205260ff604084205416613daf57505050565b80835282602052604083208284526020526040832060ff1981541690557ff6391f5c32d9c69d2a47ea670b442974b53935d1edc7fd64eb21e047a839171b339380a4565b818102929181159184041417156134d757565b919082018092116134d757565b908151811015613e24570160200190565b634e487b7160e01b600052603260045260246000fd5b604051906060820182811067ffffffffffffffff8211176117c957604052602a8252602082016040368237825115613e2457603090538151600190811015613e2457607860218401536029905b808211613edb575050613e975790565b606460405162461bcd60e51b815260206004820152602060248201527f537472696e67733a20686578206c656e67746820696e73756666696369656e746044820152fd5b9091600f81166010811015613f34576f181899199a1a9b1b9c1cb0b131b232b360811b901a613f0a8486613e13565b5360041c918015613f1f576000190190613e87565b60246000634e487b7160e01b81526011600452fd5b60246000634e487b7160e01b81526032600452fd5b90600182811c92168015613f79575b6020831014613f6357565b634e487b7160e01b600052602260045260246000fd5b91607f1691613f58565b9060009291805491613f9483613f49565b918282526001938481169081600014613ff65750600114613fb6575b50505050565b90919394506000526020928360002092846000945b838610613fe2575050505001019038808080613fb0565b805485870183015294019385908201613fcb565b9294505050602093945060ff191683830152151560051b01019038808080613fb0565b60ff6001541661402557565b60405162461bcd60e51b815260206004820152601060248201527f5061757361626c653a20706175736564000000000000000000000000000000006044820152606490fd5b908160209103126102d057516001600160a01b03811681036102d05790565b60001981146134d75760010190565b90916001600160c01b0319605c9694931682526bffffffffffffffffffffffff199060601b1660088201526140d7825180936020601c8501910161385d565b0191601c830152603c8201520190565b906006811015610d3f5760ff80198354169116179055565b906007811015610d3f5761ff0082549160081b169061ff001916179055565b6007811015610d3f57600052600a602052604060002090565b9261416061415560a09693999897949960c0875260c0870190613880565b9860208601906138e0565b6040840152606083015260808201520152565b60028054146141825760028055565b60405162461bcd60e51b815260206004820152601f60248201527f5265656e7472616e637947756172643a207265656e7472616e742063616c6c006044820152606490fd5b8054821015613e245760005260206000200190600090565b6000818152600c602052604081205461427757600b5468010000000000000000811015614263576001810180600b5581101561424f5790826040927f0175b7a638427703f0dbe7bb9bbf987a2551717b34e79f33b5b1008d1fa01db90155600b54928152600c6020522055600190565b634e487b7160e01b82526032600452602482fd5b634e487b7160e01b82526041600452602482fd5b905090565b9190600183016000908282528060205260408220541560001461430057845494680100000000000000008610156142ec57836142dc6142c5886001604098999a018555846141c7565b819391549060031b91821b91600019901b19161790565b9055549382526020522055600190565b634e487b7160e01b83526041600452602483fd5b50925050565b906000828152600560205260408120906001600160a01b03600183015460401c1615611d8c576006820160ff815460081c169160078510156143d85760078310156143d857508382146143d157836060936143987fa501447e21b5d0bd78344e62b02b2e1c935dbbc23f482a95170d08a44d63b297966143c8946143928a61438d8961411e565b6143f9565b506140ff565b600f429101556143b0866143ab8361411e565b61427c565b506143be60405180946138ed565b60208301906138ed565b426040820152a2565b5050505050565b634e487b7160e01b81526021600452602490fd5b919082039182116134d757565b906001820190600092818452826020526040842054908115156000146144e257600019918083018181116144ce578254908482019182116144ba57808203614485575b505050805480156144715782019161445483836141c7565b909182549160031b1b191690555582526020526040812055600190565b634e487b7160e01b86526031600452602486fd5b6144a56144956142c593866141c7565b90549060031b1c928392866141c7565b9055865284602052604086205538808061443c565b634e487b7160e01b88526011600452602488fd5b634e487b7160e01b87526011600452602487fd5b5050505090565b909261452d93604051936323b872dd60e01b60208601526001600160a01b03809216602486015216604484015260648301526064825261452882613783565b614547565b565b908160209103126102d0575180151581036102d05790565b6001600160a01b0316604051604081019181831067ffffffffffffffff8411176117c9576145b7926040526000806020958685527f5361666545524332303a206c6f772d6c6576656c2063616c6c206661696c656487860152868151910182855af16145b1614652565b91614682565b80519082821592831561463a575b505050156145d05750565b6084906040519062461bcd60e51b82526004820152602a60248201527f5361666545524332303a204552433230206f7065726174696f6e20646964206e60448201527f6f742073756363656564000000000000000000000000000000000000000000006064820152fd5b61464a935082018101910161452f565b3882816145c5565b3d1561467d573d90614663826137fa565b9161467160405193846137d8565b82523d6000602084013e565b606090565b919290156146e45750815115614696575090565b3b1561469f5790565b60405162461bcd60e51b815260206004820152601d60248201527f416464726573733a2063616c6c20746f206e6f6e2d636f6e74726163740000006044820152606490fd5b8251909150156146f75750805190602001fd5b60405162461bcd60e51b815260206004820152908190611b84906024830190613880565b600081815260056020526040808220600a8101805460088301549296959492116148ad576003955b600681019161475c8661438d60ff865460081c1661411e565b5061476788846140ff565b42600f83015561477a866143ab8a61411e565b5060078810156148995761438d88877fe7120a43929c8f69eb64bf66c6587ec5a44dfa34cea30f8fe0901b2e5420339460806147ed96600b849761480a9e9f6003148061488f575b61480d575b549101548b51916147d883886138ed565b60208301528b820152426060820152a261411e565b50805461ff00191661060017905560068152600a6020522061427c565b50565b8c868c6127106148218554600e5490613df3565b049283614832575b505050506147c7565b817f7776690236117f905ebcaa326163aab8f1f85e1ff05bcac29e6ac45b460f808e925490614874866001600160a01b03938480600f54169160101c16614922565b5460101c16938151908152426020820152a338868c8f614829565b50805415156147c2565b634e487b7160e01b84526021600452602484fd5b600495614743565b81156148bf570490565b634e487b7160e01b600052601260045260246000fd5b916001600160a01b036040519263a9059cbb60e01b6020850152166024830152604482015260448152608081019181831067ffffffffffffffff8411176117c95761452d92604052614547565b6001600160a01b03919082168061499457506000809381938293165af1614947614652565b501561494f57565b60405162461bcd60e51b815260206004820152601360248201527f455448207472616e73666572206661696c6564000000000000000000000000006044820152606490fd5b61452d9392506148d5565b60035460ff8160a01c1615610384576040908151906385acd64160e01b82527fbdded29a54e6a5d6169bedea55373b06f57e35d7b0f67ac187565b435e2cc943600483015260209182816024816001600160a01b038096165afa908115614ae057600091614ac3575b5016928315614aa157816001600160c01b031991602485518094819363b4ae840f60e01b835216978860048301525afa918215614a9657600092614a69575b505015614a52575050565b602492505190634fddb6dd60e11b82526004820152fd5b614a889250803d10614a8f575b614a8081836137d8565b81019061452f565b3880614a47565b503d614a76565b83513d6000823e3d90fd5b8251634fddb6dd60e11b81526001600160c01b03199091166004820152602490fd5b614ada9150833d85116110385761102981836137d8565b38614a08565b84513d6000823e3d90fd5b9060405191828154918282526020928383019160005283600020936000905b828210614b205750505061452d925003836137d8565b855484526001958601958895509381019390910190614b0a565b6000526005602052600d6040600020015480421015614b6157614b5e9042906143ec565b90565b50600090565b909291600090828252602090600582526040938484209060068452858520976001600160a01b038094169889875285528686209186526008855283878720911686528452858520928082541615908115614bfe575b50614bf05760039291600a6120596001614bdd940154600186015490613df3565b968452019052205490614b5e82846143ec565b505050509192505080918190565b90508354161538614bbc56fea26469706673582212203fe81348a7604a892face4f43ed6f351b9794eed0576bdcd3b166b796a7e53c564736f6c634300081400332f8788117e7eff1d82e926ec794901d17c78024a50270940304540a733656f0d",
  "linkReferences": {},
  "deployedLinkReferences": {}
}