{
  "_format": "hh-sol-artifact-1",
  "contractName": "Flow",
  "sourceName": "contracts/modules/Flow/Flow.sol",
  "abi": [
    {
      "inputs": [],
      "stateMutability": "nonpayable",
      "type": "constructor"
    },
    {
      "inputs": [
        {
          "internalType": "uint256",
          "name": "raised",
          "type": "uint256"
        },
        {
          "internalType": "uint256",
          "name": "max",
          "type": "uint256"
        }
      ],
      "name": "CampaignCapReached",
      "type": "error"
    },
    {
      "inputs": [
        {
          "internalType": "bytes32",
          "name": "campaignId",
          "type": "bytes32"
        }
      ],
      "name": "CampaignEnded",
      "type": "error"
    },
    {
      "inputs": [
        {
          "internalType": "bytes32",
          "name": "campaignId",
          "type": "bytes32"
        }
      ],
      "name": "CampaignNotActive",
      "type": "error"
    },
    {
      "inputs": [
        {
          "internalType": "bytes32",
          "name": "campaignId",
          "type": "bytes32"
        }
      ],
      "name": "CampaignNotEnded",
      "type": "error"
    },
    {
      "inputs": [
        {
          "internalType": "bytes32",
          "name": "campaignId",
          "type": "bytes32"
        }
      ],
      "name": "CampaignNotFound",
      "type": "error"
    },
    {
      "inputs": [
        {
          "internalType": "bytes32",
          "name": "campaignId",
          "type": "bytes32"
        },
        {
          "internalType": "address",
          "name": "contributor",
          "type": "address"
        }
      ],
      "name": "ContributionAlreadyRefunded",
      "type": "error"
    },
    {
      "inputs": [
        {
          "internalType": "uint256",
          "name": "amount",
          "type": "uint256"
        },
        {
          "internalType": "uint256",
          "name": "max",
          "type": "uint256"
        }
      ],
      "name": "ContributionExceedsMax",
      "type": "error"
    },
    {
      "inputs": [
        {
          "internalType": "bytes32",
          "name": "campaignId",
          "type": "bytes32"
        },
        {
          "internalType": "address",
          "name": "token",
          "type": "address"
        }
      ],
      "name": "InsufficientRewardBalance",
      "type": "error"
    },
    {
      "inputs": [],
      "name": "InvalidCampaignParameters",
      "type": "error"
    },
    {
      "inputs": [
        {
          "internalType": "uint256",
          "name": "amount",
          "type": "uint256"
        }
      ],
      "name": "InvalidContributionAmount",
      "type": "error"
    },
    {
      "inputs": [
        {
          "internalType": "uint256",
          "name": "fee",
          "type": "uint256"
        }
      ],
      "name": "InvalidProtocolFee",
      "type": "error"
    },
    {
      "inputs": [],
      "name": "InvalidRegistryAddress",
      "type": "error"
    },
    {
      "inputs": [],
      "name": "ModuleAlreadyInitialized",
      "type": "error"
    },
    {
      "inputs": [],
      "name": "ModuleNotInitialized",
      "type": "error"
    },
    {
      "inputs": [
        {
          "internalType": "bytes32",
          "name": "campaignId",
          "type": "bytes32"
        },
        {
          "internalType": "address",
          "name": "contributor",
          "type": "address"
        }
      ],
      "name": "NoContributionFound",
      "type": "error"
    },
    {
      "inputs": [],
      "name": "OnlyRegistry",
      "type": "error"
    },
    {
      "inputs": [
        {
          "internalType": "bytes32",
          "name": "organizationId",
          "type": "bytes32"
        }
      ],
      "name": "OrganizationNotFound",
      "type": "error"
    },
    {
      "inputs": [
        {
          "internalType": "bytes32",
          "name": "campaignId",
          "type": "bytes32"
        },
        {
          "internalType": "address",
          "name": "contributor",
          "type": "address"
        },
        {
          "internalType": "address",
          "name": "token",
          "type": "address"
        }
      ],
      "name": "RewardsAlreadyClaimed",
      "type": "error"
    },
    {
      "inputs": [
        {
          "internalType": "bytes32",
          "name": "campaignId",
          "type": "bytes32"
        },
        {
          "internalType": "address",
          "name": "caller",
          "type": "address"
        }
      ],
      "name": "UnauthorizedCampaignAccess",
      "type": "error"
    },
    {
      "anonymous": false,
      "inputs": [
        {
          "indexed": true,
          "internalType": "bytes32",
          "name": "campaignId",
          "type": "bytes32"
        },
        {
          "indexed": true,
          "internalType": "bytes32",
          "name": "organizationId",
          "type": "bytes32"
        },
        {
          "indexed": true,
          "internalType": "address",
          "name": "creator",
          "type": "address"
        },
        {
          "indexed": false,
          "internalType": "string",
          "name": "title",
          "type": "string"
        },
        {
          "indexed": false,
          "internalType": "enum IFlow.FlowType",
          "name": "flowType",
          "type": "uint8"
        },
        {
          "indexed": false,
          "internalType": "uint256",
          "name": "target",
          "type": "uint256"
        },
        {
          "indexed": false,
          "internalType": "uint256",
          "name": "startTime",
          "type": "uint256"
        },
        {
          "indexed": false,
          "internalType": "uint256",
          "name": "endTime",
          "type": "uint256"
        },
        {
          "indexed": false,
          "internalType": "uint256",
          "name": "timestamp",
          "type": "uint256"
        }
      ],
      "name": "CampaignCreated",
      "type": "event"
    },
    {
      "anonymous": false,
      "inputs": [
        {
          "indexed": true,
          "internalType": "bytes32",
          "name": "campaignId",
          "type": "bytes32"
        },
        {
          "indexed": false,
          "internalType": "enum IFlow.FlowState",
          "name": "finalState",
          "type": "uint8"
        },
        {
          "indexed": false,
          "internalType": "uint256",
          "name": "totalRaised",
          "type": "uint256"
        },
        {
          "indexed": false,
          "internalType": "uint256",
          "name": "contributorCount",
          "type": "uint256"
        },
        {
          "indexed": false,
          "internalType": "uint256",
          "name": "timestamp",
          "type": "uint256"
        }
      ],
      "name": "CampaignFinalized",
      "type": "event"
    },
    {
      "anonymous": false,
      "inputs": [
        {
          "indexed": true,
          "internalType": "bytes32",
          "name": "campaignId",
          "type": "bytes32"
        },
        {
          "indexed": false,
          "internalType": "enum IFlow.FlowState",
          "name": "oldState",
          "type": "uint8"
        },
        {
          "indexed": false,
          "internalType": "enum IFlow.FlowState",
          "name": "newState",
          "type": "uint8"
        },
        {
          "indexed": false,
          "internalType": "uint256",
          "name": "timestamp",
          "type": "uint256"
        }
      ],
      "name": "CampaignStateChanged",
      "type": "event"
    },
    {
      "anonymous": false,
      "inputs": [
        {
          "indexed": true,
          "internalType": "bytes32",
          "name": "campaignId",
          "type": "bytes32"
        },
        {
          "indexed": false,
          "internalType": "string",
          "name": "title",
          "type": "string"
        },
        {
          "indexed": false,
          "internalType": "string",
          "name": "description",
          "type": "string"
        },
        {
          "indexed": false,
          "internalType": "uint256",
          "name": "target",
          "type": "uint256"
        },
        {
          "indexed": false,
          "internalType": "uint256",
          "name": "min",
          "type": "uint256"
        },
        {
          "indexed": false,
          "internalType": "uint256",
          "name": "max",
          "type": "uint256"
        },
        {
          "indexed": false,
          "internalType": "uint256",
          "name": "endTime",
          "type": "uint256"
        },
        {
          "indexed": false,
          "internalType": "uint256",
          "name": "timestamp",
          "type": "uint256"
        }
      ],
      "name": "CampaignUpdated",
      "type": "event"
    },
    {
      "anonymous": false,
      "inputs": [
        {
          "indexed": true,
          "internalType": "bytes32",
          "name": "campaignId",
          "type": "bytes32"
        },
        {
          "indexed": true,
          "internalType": "address",
          "name": "contributor",
          "type": "address"
        },
        {
          "indexed": false,
          "internalType": "uint256",
          "name": "amount",
          "type": "uint256"
        },
        {
          "indexed": false,
          "internalType": "uint256",
          "name": "totalRaised",
          "type": "uint256"
        },
        {
          "indexed": false,
          "internalType": "uint256",
          "name": "timestamp",
          "type": "uint256"
        }
      ],
      "name": "ContributionMade",
      "type": "event"
    },
    {
      "anonymous": false,
      "inputs": [
        {
          "indexed": true,
          "internalType": "bytes32",
          "name": "campaignId",
          "type": "bytes32"
        },
        {
          "indexed": true,
          "internalType": "address",
          "name": "contributor",
          "type": "address"
        },
        {
          "indexed": false,
          "internalType": "uint256",
          "name": "amount",
          "type": "uint256"
        },
        {
          "indexed": false,
          "internalType": "uint256",
          "name": "timestamp",
          "type": "uint256"
        }
      ],
      "name": "ContributionRefunded",
      "type": "event"
    },
    {
      "anonymous": false,
      "inputs": [],
      "name": "ModuleDisabled",
      "type": "event"
    },
    {
      "anonymous": false,
      "inputs": [],
      "name": "ModuleEnabled",
      "type": "event"
    },
    {
      "anonymous": false,
      "inputs": [
        {
          "indexed": true,
          "internalType": "address",
          "name": "registry",
          "type": "address"
        }
      ],
      "name": "ModuleInitialized",
      "type": "event"
    },
    {
      "anonymous": false,
      "inputs": [
        {
          "indexed": false,
          "internalType": "address",
          "name": "account",
          "type": "address"
        }
      ],
      "name": "Paused",
      "type": "event"
    },
    {
      "anonymous": false,
      "inputs": [
        {
          "indexed": true,
          "internalType": "bytes32",
          "name": "campaignId",
          "type": "bytes32"
        },
        {
          "indexed": true,
          "internalType": "address",
          "name": "token",
          "type": "address"
        },
        {
          "indexed": false,
          "internalType": "uint256",
          "name": "amount",
          "type": "uint256"
        },
        {
          "indexed": false,
          "internalType": "uint256",
          "name": "timestamp",
          "type": "uint256"
        }
      ],
      "name": "ProtocolFeeCollected",
      "type": "event"
    },
    {
      "anonymous": false,
      "inputs": [
        {
          "indexed": true,
          "internalType": "bytes32",
          "name": "campaignId",
          "type": "bytes32"
        },
        {
          "indexed": true,
          "internalType": "address",
          "name": "token",
          "type": "address"
        },
        {
          "indexed": false,
          "internalType": "uint256",
          "name": "totalAmount",
          "type": "uint256"
        },
        {
          "indexed": false,
          "internalType": "uint256",
          "name": "contributorCount",
          "type": "uint256"
        },
        {
          "indexed": false,
          "internalType": "uint256",
          "name": "timestamp",
          "type": "uint256"
        }
      ],
      "name": "RewardsDistributed",
      "type": "event"
    },
    {
      "anonymous": false,
      "inputs": [
        {
          "indexed": true,
          "internalType": "bytes32",
          "name": "role",
          "type": "bytes32"
        },
        {
          "indexed": true,
          "internalType": "bytes32",
          "name": "previousAdminRole",
          "type": "bytes32"
        },
        {
          "indexed": true,
          "internalType": "bytes32",
          "name": "newAdminRole",
          "type": "bytes32"
        }
      ],
      "name": "RoleAdminChanged",
      "type": "event"
    },
    {
      "anonymous": false,
      "inputs": [
        {
          "indexed": true,
          "internalType": "bytes32",
          "name": "role",
          "type": "bytes32"
        },
        {
          "indexed": true,
          "internalType": "address",
          "name": "account",
          "type": "address"
        },
        {
          "indexed": true,
          "internalType": "address",
          "name": "sender",
          "type": "address"
        }
      ],
      "name": "RoleGranted",
      "type": "event"
    },
    {
      "anonymous": false,
      "inputs": [
        {
          "indexed": true,
          "internalType": "bytes32",
          "name": "role",
          "type": "bytes32"
        },
        {
          "indexed": true,
          "internalType": "address",
          "name": "account",
          "type": "address"
        },
        {
          "indexed": true,
          "internalType": "address",
          "name": "sender",
          "type": "address"
        }
      ],
      "name": "RoleRevoked",
      "type": "event"
    },
    {
      "anonymous": false,
      "inputs": [
        {
          "indexed": false,
          "internalType": "address",
          "name": "account",
          "type": "address"
        }
      ],
      "name": "Unpaused",
      "type": "event"
    },
    {
      "inputs": [],
      "name": "ADMIN_ROLE",
      "outputs": [
        {
          "internalType": "bytes32",
          "name": "",
          "type": "bytes32"
        }
      ],
      "stateMutability": "view",
      "type": "function"
    },
    {
      "inputs": [],
      "name": "BASIS_POINTS",
      "outputs": [
        {
          "internalType": "uint256",
          "name": "",
          "type": "uint256"
        }
      ],
      "stateMutability": "view",
      "type": "function"
    },
    {
      "inputs": [],
      "name": "CAMPAIGN_CREATOR_ROLE",
      "outputs": [
        {
          "internalType": "bytes32",
          "name": "",
          "type": "bytes32"
        }
      ],
      "stateMutability": "view",
      "type": "function"
    },
    {
      "inputs": [],
      "name": "DEFAULT_ADMIN_ROLE",
      "outputs": [
        {
          "internalType": "bytes32",
          "name": "",
          "type": "bytes32"
        }
      ],
      "stateMutability": "view",
      "type": "function"
    },
    {
      "inputs": [],
      "name": "FLOW_ADMIN_ROLE",
      "outputs": [
        {
          "internalType": "bytes32",
          "name": "",
          "type": "bytes32"
        }
      ],
      "stateMutability": "view",
      "type": "function"
    },
    {
      "inputs": [],
      "name": "MAX_PROTOCOL_FEE",
      "outputs": [
        {
          "internalType": "uint256",
          "name": "",
          "type": "uint256"
        }
      ],
      "stateMutability": "view",
      "type": "function"
    },
    {
      "inputs": [],
      "name": "OPERATOR_ROLE",
      "outputs": [
        {
          "internalType": "bytes32",
          "name": "",
          "type": "bytes32"
        }
      ],
      "stateMutability": "view",
      "type": "function"
    },
    {
      "inputs": [
        {
          "internalType": "uint256",
          "name": "amount",
          "type": "uint256"
        }
      ],
      "name": "calculateProtocolFee",
      "outputs": [
        {
          "internalType": "uint256",
          "name": "",
          "type": "uint256"
        }
      ],
      "stateMutability": "view",
      "type": "function"
    },
    {
      "inputs": [
        {
          "internalType": "bytes32",
          "name": "campaignId",
          "type": "bytes32"
        },
        {
          "internalType": "address",
          "name": "",
          "type": "address"
        }
      ],
      "name": "canContribute",
      "outputs": [
        {
          "internalType": "bool",
          "name": "",
          "type": "bool"
        }
      ],
      "stateMutability": "view",
      "type": "function"
    },
    {
      "inputs": [
        {
          "internalType": "bytes32",
          "name": "campaignId",
          "type": "bytes32"
        },
        {
          "internalType": "address",
          "name": "rewardToken",
          "type": "address"
        }
      ],
      "name": "claimRewards",
      "outputs": [],
      "stateMutability": "nonpayable",
      "type": "function"
    },
    {
      "inputs": [
        {
          "internalType": "bytes32",
          "name": "campaignId",
          "type": "bytes32"
        },
        {
          "internalType": "uint256",
          "name": "amount",
          "type": "uint256"
        },
        {
          "internalType": "string",
          "name": "metadata",
          "type": "string"
        }
      ],
      "name": "contribute",
      "outputs": [],
      "stateMutability": "payable",
      "type": "function"
    },
    {
      "inputs": [
        {
          "internalType": "bytes32",
          "name": "organizationId",
          "type": "bytes32"
        },
        {
          "internalType": "string",
          "name": "title",
          "type": "string"
        },
        {
          "internalType": "string",
          "name": "description",
          "type": "string"
        },
        {
          "internalType": "string",
          "name": "metadataURI",
          "type": "string"
        },
        {
          "internalType": "enum IFlow.FlowType",
          "name": "flowType",
          "type": "uint8"
        },
        {
          "internalType": "address",
          "name": "paymentToken",
          "type": "address"
        },
        {
          "internalType": "uint256",
          "name": "target",
          "type": "uint256"
        },
        {
          "internalType": "uint256",
          "name": "min",
          "type": "uint256"
        },
        {
          "internalType": "uint256",
          "name": "max",
          "type": "uint256"
        },
        {
          "internalType": "uint256",
          "name": "duration",
          "type": "uint256"
        },
        {
          "internalType": "bool",
          "name": "autoFinalize",
          "type": "bool"
        }
      ],
      "name": "createCampaign",
      "outputs": [
        {
          "internalType": "bytes32",
          "name": "campaignId",
          "type": "bytes32"
        }
      ],
      "stateMutability": "nonpayable",
      "type": "function"
    },
    {
      "inputs": [
        {
          "internalType": "bytes32",
          "name": "campaignId",
          "type": "bytes32"
        },
        {
          "internalType": "address",
          "name": "rewardToken",
          "type": "address"
        },
        {
          "internalType": "uint256",
          "name": "totalRewardAmount",
          "type": "uint256"
        }
      ],
      "name": "distributeRewards",
      "outputs": [],
      "stateMutability": "nonpayable",
      "type": "function"
    },
    {
      "inputs": [],
      "name": "emergencyPause",
      "outputs": [],
      "stateMutability": "nonpayable",
      "type": "function"
    },
    {
      "inputs": [],
      "name": "emergencyUnpause",
      "outputs": [],
      "stateMutability": "nonpayable",
      "type": "function"
    },
    {
      "inputs": [
        {
          "internalType": "address",
          "name": "token",
          "type": "address"
        },
        {
          "internalType": "address",
          "name": "to",
          "type": "address"
        },
        {
          "internalType": "uint256",
          "name": "amount",
          "type": "uint256"
        }
      ],
      "name": "emergencyWithdraw",
      "outputs": [],
      "stateMutability": "nonpayable",
      "type": "function"
    },
    {
      "inputs": [
        {
          "internalType": "bytes32",
          "name": "campaignId",
          "type": "bytes32"
        }
      ],
      "name": "finalizeCampaign",
      "outputs": [],
      "stateMutability": "nonpayable",
      "type": "function"
    },
    {
      "inputs": [
        {
          "internalType": "bytes32",
          "name": "campaignId",
          "type": "bytes32"
        }
      ],
      "name": "getCampaign",
      "outputs": [
        {
          "components": [
            {
              "internalType": "uint256",
              "name": "index",
              "type": "uint256"
            },
            {
              "internalType": "bytes32",
              "name": "organizationId",
              "type": "bytes32"
            },
            {
              "internalType": "address",
              "name": "creator",
              "type": "address"
            },
            {
              "internalType": "address",
              "name": "admin",
              "type": "address"
            },
            {
              "internalType": "string",
              "name": "title",
              "type": "string"
            },
            {
              "internalType": "string",
              "name": "description",
              "type": "string"
            },
            {
              "internalType": "string",
              "name": "metadataURI",
              "type": "string"
            },
            {
              "internalType": "enum IFlow.FlowType",
              "name": "flowType",
              "type": "uint8"
            },
            {
              "internalType": "enum IFlow.FlowState",
              "name": "state",
              "type": "uint8"
            },
            {
              "internalType": "address",
              "name": "paymentToken",
              "type": "address"
            },
            {
              "internalType": "uint256",
              "name": "target",
              "type": "uint256"
            },
            {
              "internalType": "uint256",
              "name": "min",
              "type": "uint256"
            },
            {
              "internalType": "uint256",
              "name": "max",
              "type": "uint256"
            },
            {
              "internalType": "uint256",
              "name": "raised",
              "type": "uint256"
            },
            {
              "internalType": "uint256",
              "name": "contributorCount",
              "type": "uint256"
            },
            {
              "internalType": "uint256",
              "name": "startTime",
              "type": "uint256"
            },
            {
              "internalType": "uint256",
              "name": "endTime",
              "type": "uint256"
            },
            {
              "internalType": "uint256",
              "name": "createdAt",
              "type": "uint256"
            },
            {
              "internalType": "uint256",
              "name": "updatedAt",
              "type": "uint256"
            },
            {
              "internalType": "bool",
              "name": "autoFinalize",
              "type": "bool"
            },
            {
              "internalType": "uint256",
              "name": "protocolFee",
              "type": "uint256"
            }
          ],
          "internalType": "struct IFlow.Campaign",
          "name": "",
          "type": "tuple"
        }
      ],
      "stateMutability": "view",
      "type": "function"
    },
    {
      "inputs": [
        {
          "internalType": "bytes32",
          "name": "campaignId",
          "type": "bytes32"
        }
      ],
      "name": "getCampaignContributors",
      "outputs": [
        {
          "internalType": "address[]",
          "name": "",
          "type": "address[]"
        }
      ],
      "stateMutability": "view",
      "type": "function"
    },
    {
      "inputs": [],
      "name": "getCampaignCount",
      "outputs": [
        {
          "internalType": "uint256",
          "name": "",
          "type": "uint256"
        }
      ],
      "stateMutability": "view",
      "type": "function"
    },
    {
      "inputs": [
        {
          "internalType": "bytes32",
          "name": "campaignId",
          "type": "bytes32"
        }
      ],
      "name": "getCampaignProgress",
      "outputs": [
        {
          "internalType": "uint256",
          "name": "raised",
          "type": "uint256"
        },
        {
          "internalType": "uint256",
          "name": "target",
          "type": "uint256"
        },
        {
          "internalType": "uint256",
          "name": "percentage",
          "type": "uint256"
        }
      ],
      "stateMutability": "view",
      "type": "function"
    },
    {
      "inputs": [
        {
          "internalType": "bytes32",
          "name": "organizationId",
          "type": "bytes32"
        }
      ],
      "name": "getCampaignsByOrganization",
      "outputs": [
        {
          "internalType": "bytes32[]",
          "name": "",
          "type": "bytes32[]"
        }
      ],
      "stateMutability": "view",
      "type": "function"
    },
    {
      "inputs": [
        {
          "internalType": "enum IFlow.FlowState",
          "name": "state",
          "type": "uint8"
        }
      ],
      "name": "getCampaignsByState",
      "outputs": [
        {
          "internalType": "bytes32[]",
          "name": "",
          "type": "bytes32[]"
        }
      ],
      "stateMutability": "view",
      "type": "function"
    },
    {
      "inputs": [
        {
          "internalType": "bytes32",
          "name": "campaignId",
          "type": "bytes32"
        },
        {
          "internalType": "address",
          "name": "contributor",
          "type": "address"
        }
      ],
      "name": "getContribution",
      "outputs": [
        {
          "components": [
            {
              "internalType": "address",
              "name": "contributor",
              "type": "address"
            },
            {
              "internalType": "uint256",
              "name": "amount",
              "type": "uint256"
            },
            {
              "internalType": "uint256",
              "name": "timestamp",
              "type": "uint256"
            },
            {
              "internalType": "enum IFlow.ContributorState",
              "name": "state",
              "type": "uint8"
            },
            {
              "internalType": "string",
              "name": "metadata",
              "type": "string"
            }
          ],
          "internalType": "struct IFlow.Contribution",
          "name": "",
          "type": "tuple"
        }
      ],
      "stateMutability": "view",
      "type": "function"
    },
    {
      "inputs": [],
      "name": "getProtocolFeeRate",
      "outputs": [
        {
          "internalType": "uint256",
          "name": "",
          "type": "uint256"
        }
      ],
      "stateMutability": "view",
      "type": "function"
    },
    {
      "inputs": [
        {
          "internalType": "bytes32",
          "name": "campaignId",
          "type": "bytes32"
        },
        {
          "internalType": "address",
          "name": "rewardToken",
          "type": "address"
        },
        {
          "internalType": "address",
          "name": "contributor",
          "type": "address"
        }
      ],
      "name": "getRewardDistribution",
      "outputs": [
        {
          "internalType": "uint256",
          "name": "totalReward",
          "type": "uint256"
        },
        {
          "internalType": "uint256",
          "name": "claimedAmount",
          "type": "uint256"
        },
        {
          "internalType": "uint256",
          "name": "claimableAmount",
          "type": "uint256"
        }
      ],
      "stateMutability": "view",
      "type": "function"
    },
    {
      "inputs": [
        {
          "internalType": "bytes32",
          "name": "role",
          "type": "bytes32"
        }
      ],
      "name": "getRoleAdmin",
      "outputs": [
        {
          "internalType": "bytes32",
          "name": "",
          "type": "bytes32"
        }
      ],
      "stateMutability": "view",
      "type": "function"
    },
    {
      "inputs": [
        {
          "internalType": "bytes32",
          "name": "campaignId",
          "type": "bytes32"
        }
      ],
      "name": "getTimeRemaining",
      "outputs": [
        {
          "internalType": "uint256",
          "name": "",
          "type": "uint256"
        }
      ],
      "stateMutability": "view",
      "type": "function"
    },
    {
      "inputs": [
        {
          "internalType": "bytes32",
          "name": "role",
          "type": "bytes32"
        },
        {
          "internalType": "address",
          "name": "account",
          "type": "address"
        }
      ],
      "name": "grantRole",
      "outputs": [],
      "stateMutability": "nonpayable",
      "type": "function"
    },
    {
      "inputs": [
        {
          "internalType": "bytes32",
          "name": "role",
          "type": "bytes32"
        },
        {
          "internalType": "address",
          "name": "account",
          "type": "address"
        }
      ],
      "name": "hasRole",
      "outputs": [
        {
          "internalType": "bool",
          "name": "",
          "type": "bool"
        }
      ],
      "stateMutability": "view",
      "type": "function"
    },
    {
      "inputs": [
        {
          "internalType": "address",
          "name": "registryAddress",
          "type": "address"
        }
      ],
      "name": "initialize",
      "outputs": [],
      "stateMutability": "nonpayable",
      "type": "function"
    },
    {
      "inputs": [
        {
          "internalType": "bytes32",
          "name": "campaignId",
          "type": "bytes32"
        }
      ],
      "name": "isCampaignActive",
      "outputs": [
        {
          "internalType": "bool",
          "name": "",
          "type": "bool"
        }
      ],
      "stateMutability": "view",
      "type": "function"
    },
    {
      "inputs": [],
      "name": "isInitialized",
      "outputs": [
        {
          "internalType": "bool",
          "name": "",
          "type": "bool"
        }
      ],
      "stateMutability": "view",
      "type": "function"
    },
    {
      "inputs": [],
      "name": "moduleId",
      "outputs": [
        {
          "internalType": "bytes32",
          "name": "",
          "type": "bytes32"
        }
      ],
      "stateMutability": "pure",
      "type": "function"
    },
    {
      "inputs": [],
      "name": "onModuleDisabled",
      "outputs": [],
      "stateMutability": "nonpayable",
      "type": "function"
    },
    {
      "inputs": [],
      "name": "onModuleEnabled",
      "outputs": [],
      "stateMutability": "nonpayable",
      "type": "function"
    },
    {
      "inputs": [],
      "name": "pause",
      "outputs": [],
      "stateMutability": "nonpayable",
      "type": "function"
    },
    {
      "inputs": [],
      "name": "paused",
      "outputs": [
        {
          "internalType": "bool",
          "name": "",
          "type": "bool"
        }
      ],
      "stateMutability": "view",
      "type": "function"
    },
    {
      "inputs": [
        {
          "internalType": "bytes32",
          "name": "campaignId",
          "type": "bytes32"
        },
        {
          "internalType": "address",
          "name": "contributor",
          "type": "address"
        }
      ],
      "name": "refundContribution",
      "outputs": [],
      "stateMutability": "nonpayable",
      "type": "function"
    },
    {
      "inputs": [],
      "name": "registry",
      "outputs": [
        {
          "internalType": "address",
          "name": "",
          "type": "address"
        }
      ],
      "stateMutability": "view",
      "type": "function"
    },
    {
      "inputs": [
        {
          "internalType": "bytes32",
          "name": "role",
          "type": "bytes32"
        },
        {
          "internalType": "address",
          "name": "account",
          "type": "address"
        }
      ],
      "name": "renounceRole",
      "outputs": [],
      "stateMutability": "nonpayable",
      "type": "function"
    },
    {
      "inputs": [
        {
          "internalType": "bytes32",
          "name": "role",
          "type": "bytes32"
        },
        {
          "internalType": "address",
          "name": "account",
          "type": "address"
        }
      ],
      "name": "revokeRole",
      "outputs": [],
      "stateMutability": "nonpayable",
      "type": "function"
    },
    {
      "inputs": [
        {
          "internalType": "bytes32",
          "name": "campaignId",
          "type": "bytes32"
        },
        {
          "internalType": "enum IFlow.FlowState",
          "name": "newState",
          "type": "uint8"
        }
      ],
      "name": "setCampaignState",
      "outputs": [],
      "stateMutability": "nonpayable",
      "type": "function"
    },
    {
      "inputs": [
        {
          "internalType": "uint256",
          "name": "newRate",
          "type": "uint256"
        }
      ],
      "name": "setProtocolFeeRate",
      "outputs": [],
      "stateMutability": "nonpayable",
      "type": "function"
    },
    {
      "inputs": [
        {
          "internalType": "address",
          "name": "newRecipient",
          "type": "address"
        }
      ],
      "name": "setProtocolFeeRecipient",
      "outputs": [],
      "stateMutability": "nonpayable",
      "type": "function"
    },
    {
      "inputs": [
        {
          "internalType": "bytes4",
          "name": "interfaceId",
          "type": "bytes4"
        }
      ],
      "name": "supportsInterface",
      "outputs": [
        {
          "internalType": "bool",
          "name": "",
          "type": "bool"
        }
      ],
      "stateMutability": "view",
      "type": "function"
    },
    {
      "inputs": [],
      "name": "unpause",
      "outputs": [],
      "stateMutability": "nonpayable",
      "type": "function"
    },
    {
      "inputs": [
        {
          "internalType": "bytes32",
          "name": "campaignId",
          "type": "bytes32"
        },
        {
          "internalType": "string",
          "name": "title",
          "type": "string"
        },
        {
          "internalType": "string",
          "name": "description",
          "type": "string"
        },
        {
          "internalType": "uint256",
          "name": "target",
          "type": "uint256"
        },
        {
          "internalType": "uint256",
          "name": "min",
          "type": "uint256"
        },
        {
          "internalType": "uint256",
          "name": "max",
          "type": "uint256"
        },
        {
          "internalType": "uint256",
          "name": "endTime",
          "type": "uint256"
        }
      ],
      "name": "updateCampaign",
      "outputs": [],
      "stateMutability": "nonpayable",
      "type": "function"
    },
    {
      "inputs": [],
      "name": "version",
      "outputs": [
        {
          "internalType": "string",
          "name": "",
          "type": "string"
        }
      ],
      "stateMutability": "view",
      "type": "function"
    },
    {
      "inputs": [
        {
          "internalType": "bytes32",
          "name": "campaignId",
          "type": "bytes32"
        },
        {
          "internalType": "address",
          "name": "to",
          "type": "address"
        },
        {
          "internalType": "uint256",
          "name": "amount",
          "type": "uint256"
        }
      ],
      "name": "withdrawFunds",
      "outputs": [],
      "stateMutability": "nonpayable",
      "type": "function"
    },
    {
      "stateMutability": "payable",
      "type": "receive"
    }
  ],
  "bytecode": "0x608034620002e6576040908082016001600160401b03811182821017620002d0578252600581526020809101640312e302e360dc1b815260ff1990600190828254168255816002556004548281811c91168015620002c5575b85821014620002af57601f81116200027d575b50516001600160d81b031916600a17600455600080805280845284812033825284528490205460ff161562000242575b7fa49807205ce4d355092ef5a8a18f56e8913cf4a201fbe287825b095693c2177580600052600084528460002033600052845260ff8560002054161562000205575b5060fa600e553360018060a01b0319600f541617600f557f8f882e9b3b0c043c8507802fbb9a0ed808c8f0587361ab18424493e6841512a880600052600084528460002033600052845260ff85600020541615620001c8575b507faabecfdf6c789f9fb8a93bd3a33e66be61c9d95c3d88fbe57f4acd20b6d738f89283600052600081528460002033600052815260ff8560002054161562000189575b84516141889081620002ec8239f35b83600052600081528460002090336000525283600020918254161790553390339060008051602062004474833981519152600080a4388080806200017a565b8060005260008452846000203360005284528460002082848254161790553390339060008051602062004474833981519152600080a43862000136565b8060005260008452846000203360005284528460002082848254161790553390339060008051602062004474833981519152600080a438620000dd565b60008052600083528360002033600052835283600020818382541617905533336000600080516020620044748339815191528180a46200009b565b600460005282601f86600020920160051c8201915b828110620002a25750506200006b565b6000815501839062000292565b634e487b7160e01b600052602260045260246000fd5b90607f169062000058565b634e487b7160e01b600052604160045260246000fd5b600080fdfe608080604052600436101561001d575b50361561001b57600080fd5b005b60003560e01c90816301ffc9a714612e3157508063132bb26814612c775780631c70a9fb146124fd57806320746f611461246b578063248a9ca31461243c5780632604d6bf146123e15780632f2ff15d1461234057806332be9ebc1461231a57806336568abe14612288578063392e53cd146122625780633da6e61e146122085780633f4ba83a146121a25780634a4e3bd5146120f857806351858e27146120c157806354fd4d5014611fdf578063563ffcba14611f9857806357bbcd6514611ac95780635b5eedf11461195f5780635c975abb1461193c5780635cf27a37146119105780635d044b7e146117725780636693643f146116605780636caa92181461164257806375b238fc146116075780637b103999146115de5780637b75083c146115b55780637fa63456146114c75780638456cb591461146057806391d1485414611413578063992daefc146112595780639c7c270c1461122c578063a1308f27146111f1578063a217fddf146111d5578063aa7318aa1461117f578063aeb37e9b146110b8578063b13aa2d614611076578063b8ca3b8314611059578063c4d66de814610d60578063c7fe4e5414610d25578063cabe0452146109af578063d547741f14610970578063dd6f4ff2146104b1578063dfd9ff7814610470578063e1f1c4a714610453578063e521cb92146103d2578063e63ea4081461039d578063ebf8a3e614610323578063f5b541a6146102e8578063f7fab94f146102ca5763fcec9eca14610250573861000f565b346102c5576020806003193601126102c557600435600052600781526102796040600020613fd4565b906040519181839283018184528251809152816040850193019160005b8281106102a557505050500390f35b83516001600160a01b031685528695509381019392810192600101610296565b600080fd5b346102c55760003660031901126102c5576020600e54604051908152f35b346102c55760003660031901126102c55760206040517f97667070c54ef182b0f5858b034beac1b6f3089aa2d3188bb1e8929f4fa9b9298152f35b346102c55760003660031901126102c5576003546001600160a01b038116330361038b5760a01c60ff1615610379577fa866f3901ec84758a10f30e8953c3818eef73da93dfa46cb6aa5b726fb65813f600080a1005b604051633165f6e960e21b8152600490fd5b6040516310f5403960e31b8152600490fd5b346102c55760603660031901126102c55761001b6103b9612e9a565b6103c1612e84565b6103c961304c565b60443591613f61565b346102c55760203660031901126102c5576103eb612e9a565b6103f3613263565b6001600160a01b0316801561041a576001600160601b0360a01b600f541617600f55600080f35b60405162461bcd60e51b8152602060048201526011602482015270125b9d985b1a59081c9958da5c1a595b9d607a1b6044820152606490fd5b346102c55760003660031901126102c55760206040516127108152f35b346102c55760203660031901126102c55760043560078110156102c5576104a161049c6104ad926137b8565b613fd4565b60405191829182612ff7565b0390f35b60603660031901126102c55760246004356001600160401b0382356044358281116102c5576104e4903690600401612f68565b9360ff60035460a01c1615610379576104fb613727565b6105036137d1565b8360005260206005815260406000209360018060a01b0396876002870154161561095857600786019182549860ff8a60081c169960078b10156109435760019a8b8114159081610939575b5061092157600e8901544210156109095787156108f157600a890154801515806108db575b6108af5750879060101c82168061089957503403610881576004905b89600052600686526040600020336000528652604060002090815490811615610835575b508a81016105c2898254613515565b9055426002820155019180519182116108205781906105e18454613657565b601f81116107cd575b508590601f831160011461076a5760009261075f575b5050600019600383901b1c191690891b1790555b600b850192610624858554613515565b845542601087015560ff825460081c1690600782101561074b575090869291156106d0575b5050505490837f6a1373fa7ba1bec3888b21f58e5f2a681e0ed2e5b7db7c0a174fa8467e64af18604051806106933395874291846040919493926060820195825260208201520152565b0390a360ff60118301541691826106c1575b50506106b2575b50600255005b6106bb90613d5a565b816106ac565b600801541115905083806106a5565b7fa501447e21b5d0bd78344e62b02b2e1c935dbbc23f482a95170d08a44d63b2979160609160008052600a825261070b856040600020613a49565b5061010061ff001982541617905588600052600a815261072f8460406000206138d5565b50886040519160008352820152426040820152a2838680610649565b634e487b7160e01b60009081526021600452fd5b015190508a80610600565b908b9350601f1983169185600052876000209260005b898282106107b7575050841161079e575b505050811b019055610614565b015160001960f88460031b161c191690558a8080610791565b8385015186558f97909501949384019301610780565b9091508360005285600020601f840160051c810191878510610816575b84939291601f8e920160051c01915b8281106108075750506105ea565b600081558594508d91016107f9565b90915081906107ea565b85634e487b7160e01b60005260416004526000fd5b33906001600160601b0360a01b16178155600381018b60ff19825416179055896000526007865261086a3360406000206138d5565b50600c8901610879815461378a565b90558b6105b3565b6040516347a1896d60e11b8152600481018890528690fd5b600492916108aa9130903390613b39565b61058f565b88886108c2604493600b8e015490613a3c565b90604051926336f816b160e01b84526004840152820152fd5b50806108eb8a600b8d0154613515565b11610573565b6040516347a1896d60e11b8152600481018990528790fd5b6040516316c9bba560e31b8152600481018b90528790fd5b60405163ef78d6ef60e01b8152600481018b90528790fd5b905015158c61054e565b86634e487b7160e01b60005260216004526000fd5b60405163ce1befcb60e01b8152600481018890528490fd5b346102c55760403660031901126102c55761001b60043561098f612e84565b908060005260006020526109aa600160406000200154613384565b61348e565b346102c55760203660031901126102c55760006102806040516109d181612ef5565b82815282602082015282604082015282606082015260606080820152606060a0820152606060c08201528260e08201528261010082015282610120820152826101408201528261016082015282610180820152826101a0820152826101c0820152826101e08201528261020082015282610220820152826102408201528261026082015201526004356000526005602052604060002060405190610a7482612ef5565b805482526001810154602083015260028101546001600160a01b039081166040808501919091526003830154909116606084015251610ac181610aba8160048601613691565b0382612f2c565b6080830152604051610ada81610aba8160058601613691565b60a0830152604051610af381610aba8160068601613691565b60c0830152600781015490600660ff83161015610d0f5760ff821660e0840152600760ff8360081c161015610d0f578160ff60129360081c1661010085015260018060a01b039060101c1661012084015260088101546101408401526009810154610160840152600a810154610180840152600b8101546101a0840152600c8101546101c0840152600d8101546101e0840152600e810154610200840152600f810154610220840152601081015461024084015260ff60118201541615156102608401520154610280820152604051809160208252805160208301526020810151604083015260018060a01b03604082015116606083015260018060a01b036060820151166080830152610280610c4f610c1e60808401516102a060a08701526102c0860190612fd2565b610c3a60a085015191601f1992838883030160c0890152612fd2565b9060c0850151908683030160e0870152612fd2565b91610c6360e0820151610100860190613032565b610c7761010082015161012086019061303f565b60018060a01b03610120820151166101408501526101408101516101608501526101608101516101808501526101808101516101a08501526101a08101516101c08501526101c08101516101e08501526101e081015161020085015261020081015161022085015261022081015161024085015261024081015161026085015261026081015115158285015201516102a08301520390f35b634e487b7160e01b600052602160045260246000fd5b346102c55760003660031901126102c55760206040517faabecfdf6c789f9fb8a93bd3a33e66be61c9d95c3d88fbe57f4acd20b6d738f88152f35b346102c5576020806003193601126102c557610d7a612e9a565b906003549160ff8360a01c16611047576001600160a01b03908116928315611035576001600160a81b0319168317600160a01b176003557fa49807205ce4d355092ef5a8a18f56e8913cf4a201fbe287825b095693c2177560008181528084526040808220868352855290205460ff1615610ff6575b507f97667070c54ef182b0f5858b034beac1b6f3089aa2d3188bb1e8929f4fa9b9298060005260008352604060002084600052835260ff6040600020541615610fb7575b50604051637b10399960e01b8152908282600481305afa918215610fab57600092610f7c575b50600080516020614133833981519152908160005260008452604060002092169182600052835260ff6040600020541615610f3d575b507faabecfdf6c789f9fb8a93bd3a33e66be61c9d95c3d88fbe57f4acd20b6d738f8918260005260008152604060002082600052815260ff6040600020541615610efd575b837f27b541a16df0902e262f34789782092ab25125513b8ed73608e802951771b928600080a2005b826000526000815260406000209082600052526040600020600160ff1982541617905533916000805160206140f3833981519152600080a4818080610ed5565b806000526000835260406000208260005283526040600020600160ff198254161790558133916000805160206140f3833981519152600080a483610e90565b610f9d919250833d8511610fa4575b610f958183612f2c565b81019061376b565b9084610e5a565b503d610f8b565b6040513d6000823e3d90fd5b806000526000835260406000208460005283526040600020600160ff198254161790558333916000805160206140f3833981519152600080a483610e34565b806000526000835260406000208460005283526040600020600160ff198254161790558333916000805160206140f3833981519152600080a483610df0565b604051637bfd2e8360e01b8152600490fd5b604051637396742f60e11b8152600490fd5b346102c55760003660031901126102c55760206040516103e88152f35b346102c55760203660031901126102c557600435611092613263565b6103e881116110a057600e55005b6024906040519063660d83e960e11b82526004820152fd5b346102c55760403660031901126102c5576110d1612e84565b50600435600090815260056020526040902060028101546001600160a01b0316151580611148575b6020918161113a575b81611113575b506040519015158152f35b9050600a810154801591821561112c575b505082611108565b600b01541090508280611124565b600e81015442109150611102565b5060ff600782015460081c16906007821015610d0f5781600160209314908115611176575b509091506110f9565b9050158361116d565b346102c55760003660031901126102c5576003546001600160a01b038116330361038b5760a01c60ff1615610379577f6dff2fe8fbb5b23bf0583bf5b2157ff62ca7e27f2fb4f404914cd0c205ced5cc600080a1005b346102c55760003660031901126102c557602060405160008152f35b346102c55760003660031901126102c55760206040517f84d20104310cb32261c684fea2f6a24da76255f470d709e28f6b2c9da16e9a3e8152f35b346102c55760203660031901126102c5576020612710611250600e54600435613502565b04604051908152f35b346102c55760403660031901126102c557600435611275612e84565b9060ff60035460a01c16156103795761128c613727565b6112946137d1565b600081815260056020526040902060028101546001600160a01b039391908416156113fa576007019060ff825460081c166007811015610d0f57600481141590816113ee575b506113d557826000526006602052604060002093808216948560005260205260406000209281845416156113ad576003840180549460ff86166004811015610d0f57600214611381579360029361136e9360007fd9659c675462e26e5353cfc2a816f73cfe5c8e02041fbbb2fba7aa704c76567f989460016040990190815498899760ff1916179055555460101c16613f61565b8151908152426020820152a36001600255005b6040516364baa58f60e01b8152600481018890526001600160a01b0386166024820152604490fd5b0390fd5b6040516305cf19fb60e51b8152600481018690526001600160a01b0384166024820152604490fd5b60405163ef78d6ef60e01b815260048101849052602490fd5b600691501415856112da565b60405163ce1befcb60e01b815260048101849052602490fd5b346102c55760403660031901126102c55761142c612e84565b600435600052600060205260406000209060018060a01b0316600052602052602060ff604060002054166040519015158152f35b346102c55760003660031901126102c55761147961304c565b60ff60035460a01c16156103795761148f613727565b600160ff19815416176001557f62e78cea01bee320cd4e420270b5ea74000d11b0c9f74754ebdbfc544b05a2586020604051338152a1005b346102c55760203660031901126102c55760043560ff60035460a01c1615610379576114f1613727565b6114f96137d1565b600081815260056020526040902060028101546001600160a01b03908116801561159c57331415918261158a575b505080611563575b6115435761153c90613d5a565b6001600255005b60405163d007ec9360e01b81526004810191909152336024820152604490fd5b50336000908152600080516020614113833981519152602052604090205460ff161561152f565b60039192500154163314158280611527565b60405163ce1befcb60e01b815260048101859052602490fd5b346102c55760003660031901126102c55760206040516000805160206141338339815191528152f35b346102c55760003660031901126102c5576003546040516001600160a01b039091168152602090f35b346102c55760003660031901126102c55760206040517fa49807205ce4d355092ef5a8a18f56e8913cf4a201fbe287825b095693c217758152f35b346102c55760003660031901126102c5576020600b54604051908152f35b346102c55760403660031901126102c557611679612e84565b6040519061168682612eda565b600082526060608060209360008582015260006040820152600083820152015260043560005260068252604060002060018060a01b038092166000528252604060002090604051926116d784612eda565b81835416845260018301548185019081526002840154916040860192835260ff6003860154169360608701946004811015610d0f5760049661172c9187526117256040518099819301613691565b0387612f2c565b6080870195865260405196828852511690860152516040850152516060840152516004811015610d0f5782916104ad9160808401525160a08084015260c0830190612fd2565b346102c55760403660031901126102c55760043561178e612e84565b60ff60035460a01c1615610379576117a4613727565b6117ac6137d1565b816000526020906005825260406000209260018060a01b039081600286015416156118f8578060005260068452604060002033600052845260406000209482865416156118d957816000526008855260406000209383811694856000528652604060002093845416156118af575060038301913360005282865260406000205461188b5750600392869261185d600293600b611854600161153c9c0154600187015490613502565b91015490613ef2565b9633600052528560406000205501611876858254613515565b905501805460ff191660031790553390613f12565b6064908560405191633d6c53f760e21b835260048301523360248301526044820152fd5b60405163d67bb84560e01b8152600481018490526001600160a01b03919091166024820152604490fd5b6040516305cf19fb60e51b815260048101839052336024820152604490fd5b6024906040519063ce1befcb60e01b82526004820152fd5b346102c55760203660031901126102c55760043560005260096020526104ad6104a16040600020613fd4565b346102c55760003660031901126102c557602060ff600154166040519015158152f35b346102c55761196d36612eb0565b9060ff60035460a01c161561037957611984613727565b61198c6137d1565b600083815260056020526040902060028101546001600160a01b03919082168015611ab05733141580611aa0575b80611a79575b611a5a5760078101549460ff8660081c166007811015610d0f5760038114159081611a4e575b50611a365750600b611a0a910154612710611a03600e5483613502565b0490613a3c565b8311611a1d5761153c9360101c16613f61565b6040516347a1896d60e11b815260048101849052602490fd5b6024906040519063ef78d6ef60e01b82526004820152fd5b600691501415876119e6565b60405163d007ec9360e01b815260048101869052336024820152604490fd5b50336000908152600080516020614113833981519152602052604090205460ff16156119c0565b50816003820154163314156119ba565b60405163ce1befcb60e01b815260048101879052602490fd5b346102c55760e03660031901126102c5576001600160401b036024358181116102c557611afa903690600401612f68565b906044358181116102c557611b13903690600401612f68565b60039260ff845460a01c161561037957611b2b613727565b600435928360005260059260209184835260406000209360018060a01b03806002870154168015611f7f573314159081611f6f575b5080611f3e575b611f1f5760ff600786015460081c166007811015610d0f57600614611f1f57805180611e15575b505081519081611cb2575b5050507f2d861976db5536e53826be5f92e32db2e49dd12c40c783feeb5413c7f8445ef293945060643580151580611ca6575b80611c85575b611c6a575b5060c43542811180611c5d575b611c52575b504260108301556008820154906009830154600a84015490611c32600e8601549360405197889760e08952611c2460e08a0160048301613691565b92898403908a015201613691565b9360408601526060850152608084015260a08301524260c08301520390a2005b600e83015585611be9565b50600d8301548111611be4565b6008830155608435600983015560a435600a83015585611bd7565b5060a435818115918215611c9b575b5050611bd2565b101590508188611c94565b50806084351115611bcc565b8111611dff5784840191611cc68354613657565b601f8111611dbd575b508390601f8311600114611d32579782917f2d861976db5536e53826be5f92e32db2e49dd12c40c783feeb5413c7f8445ef29899600093611d27575b50508260011b92600019911b1c19161790555b84938680611b99565b015191508980611d0b565b978360005284600020916000601f198516905b818110611da65750907f2d861976db5536e53826be5f92e32db2e49dd12c40c783feeb5413c7f8445ef2999a8560019695949310611d8c575b50505050811b019055611d1e565b01519060f884600019921b161c1916905588808080611d7e565b91938760018192878f015181550195019201611d45565b8360005284600020601f8401881c8101868510611df8575b601f909201881c01905b818110611dec5750611ccf565b60008155600101611ddf565b5080611dd5565b634e487b7160e01b600052604160045260246000fd5b828111611dff57806004870192611e2c8454613657565b601f8111611ed5575b508690601f8311600114611e7157600092611e66575b50508160011b91600019908b1b1c19161790555b8780611b8e565b015190508a80611e4b565b60008581528881209350601f198516905b89828210611ebf575050908460019594939210611ea7575b505050811b019055611e5f565b0151600019838d1b60f8161c191690558a8080611e9a565b6001859682939686015181550195019301611e82565b9091508360005286600020601f84018a1c8101888510611f18575b90601f859493018b1c01905b818110611f095750611e35565b60008155849350600101611efc565b5080611ef0565b60405163d007ec9360e01b815260048101889052336024820152604490fd5b5060008051602061413383398151915260005260008452604060002033600052845260ff6040600020541615611b67565b9050888601541633141589611b60565b60405163ce1befcb60e01b8152600481018a9052602490fd5b346102c55760403660031901126102c55760243560078110156102c557611fbd613263565b60ff60035460a01c16156103795761001b90611fd7613727565b60043561395a565b346102c55760003660031901126102c557604051600060045461200181613657565b8084529060019081811690811561209a575060011461203f575b6104ad8461202b81860382612f2c565b604051918291602083526020830190612fd2565b6004600090815292507f8a35acfbc15ff81a39ae7d344fd709f28e8600b4aa8c65c6b64bfe7fe36bd19b5b82841061208257505050810160200161202b8261201b565b8054602085870181019190915290930192810161206a565b60ff191660208087019190915292151560051b8501909201925061202b915083905061201b565b346102c55760003660031901126102c5576003546001600160a01b038116330361038b5760a01c60ff16156103795761148f613727565b346102c55760003660031901126102c5576003546001600160a01b038116330361038b5760a01c60ff16156103795760015460ff8116156121665760ff19166001557f5db9ee0a495bf2e6ff9c91a7834c1ba4fdd244a5e8aa4e537bd38aeae4b073aa6020604051338152a1005b60405162461bcd60e51b815260206004820152601460248201527314185d5cd8589b194e881b9bdd081c185d5cd95960621b6044820152606490fd5b346102c55760003660031901126102c5576121bb61304c565b60ff60035460a01c16156103795760015460ff8116156121665760ff19166001557f5db9ee0a495bf2e6ff9c91a7834c1ba4fdd244a5e8aa4e537bd38aeae4b073aa6020604051338152a1005b346102c55760603660031901126102c557612221612e84565b604435906001600160a01b03821682036102c5576104ad9161224591600435614050565b604080519384526020840192909252908201529081906060820190565b346102c55760003660031901126102c557602060ff60035460a01c166040519015158152f35b346102c55760403660031901126102c5576122a1612e84565b336001600160a01b038216036122bd5761001b9060043561348e565b60405162461bcd60e51b815260206004820152602f60248201527f416363657373436f6e74726f6c3a2063616e206f6e6c792072656e6f756e636560448201526e103937b632b9903337b91039b2b63360891b6064820152608490fd5b346102c55760203660031901126102c5576020612338600435614023565b604051908152f35b346102c55760403660031901126102c55760043561235c612e84565b816000526000602052612376600160406000200154613384565b81600052600060205260406000209060018060a01b0316908160005260205260ff60406000205416156123a557005b8160005260006020526040600020816000526020526040600020600160ff1982541617905533916000805160206140f3833981519152600080a4005b346102c55760203660031901126102c5576004356000526005602052604060002060ff600782015460081c16906007821015610d0f57600160209214908161242e57506040519015158152f35b600e91500154421082611108565b346102c55760203660031901126102c55760043560005260006020526020600160406000200154604051908152f35b346102c55760203660031901126102c557600435600052600560205260406000206008600b820154910154908115156000146124f35760648102818104606414821517156124dd576124c0836104ad92613ef2565b604051938493846040919493926060820195825260208201520152565b634e487b7160e01b600052601160045260246000fd5b6104ad60006124c0565b346102c5576101603660031901126102c5576024356001600160401b0381116102c55761252e903690600401612f68565b6044356001600160401b0381116102c55761254d903690600401612f68565b6064356001600160401b0381116102c55761256c903690600401612f68565b91600660843510156102c55760a4356001600160a01b03811690036102c5576101443580151581036102c55760ff60035460a01c1615610379576125ae613727565b6125b66137d1565b60035460ff8160a01c1615610379576040516385acd64160e01b81527fbdded29a54e6a5d6169bedea55373b06f57e35d7b0f67ac187565b435e2cc943600482015290602090829060249082906001600160a01b03165afa908115610fab57600091612c58575b506001600160a01b03811615612c1057604051633bf0dc0160e21b8152600480359082015290602090829060249082906001600160a01b03165afa908115610fab57600091612c29575b5015612c1057815115612bd05760c435158015612c03575b8015612be2575b612bd0576101243515612bd057600d5461269f8161378a565b9081600d556040516126ef609482602081019460043586523360601b604083015288516126d3816054850160208d01612faf565b8201904260548301526074820152036074810184520182612f2c565b5190209384600052600560205260406000209182556004356001830155600282016001600160601b0360a01b9033828254161790556003830190339082541617905583516001600160401b038111611dff5761274e6004840154613657565b601f8111612b89575b50806020601f8211600114612b1c57600091612b11575b508160011b916000199060031b1c19161760048301555b8051906001600160401b038211611dff5781906127a56005850154613657565b601f8111612abe575b50602090601f8311600114612a4c57600092612a41575b50508160011b916000199060031b1c19161760058201555b84516001600160401b038111611dff576127fa6006830154613657565b601f81116129fa575b50806020968790601f831160011461298b57600092612980575b50508160011b916000199060031b1c19161760068201555b6007810180546001600160b01b03191660843560ff161760a43560101b62010000600160b01b031617905560c435600882015560e435600982015561010435600a8201556000600b8201819055600c82015542600d8201818155919061289f906101243590613515565b92600e820193845542600f830155426010830155601182019060ff8019835416911515161790556012600e549101556128d78461383d565b50600435600052600985526128f08460406000206138d5565b5060008052600a85526129078460406000206138d5565b505490546129206040519360c0855260c0850190612fd2565b9161292f868501608435613032565b60c4356040850152606084015260808301524260a0830152827fc71ac21b2a699cddbf7f51ffe980372597f9d3e886898f08350ff9b57e4aec11339380600435940390a46001600255604051908152f35b01519050878061281d565b92506006840160005287600020906000935b601f19841685106129e1576001945083601f198116106129c8575b505050811b016006820155612835565b015160001960f88460031b161c191690558780806129b8565b818101518355938901936001909201919089019061299d565b600683016000526020600020601f830160051c810160208410612a3a575b601f830160051c82018110612a2e575050612803565b60008155600101612a18565b5080612a18565b0151905087806127c5565b9250600584016000526020600020906000935b601f1984168510612aa3576001945083601f19811610612a8a575b505050811b0160058201556127dd565b015160001960f88460031b161c19169055878080612a7a565b81810151835560209485019460019093019290910190612a5f565b909150600584016000526020600020601f840160051c810160208510612b0a575b90849392915b601f830160051c82018110612afb5750506127ae565b60008155859450600101612ae5565b5080612adf565b90508501518861276e565b91506004840160005260206000206000925b601f1983168410612b71576001935082601f19811610612b58575b5050811b016004830155612785565b87015160001960f88460031b161c191690558880612b49565b87810151825560209384019360019092019101612b2e565b600484016000526020600020601f830160051c810160208410612bc9575b601f830160051c82018110612bbd575050612757565b60008155600101612ba7565b5080612ba7565b6040516306ac19c760e31b8152600490fd5b50610104358015159081612bf7575b50612686565b905060c4351185612bf1565b5060c43560e4351161267f565b602460405163f708dfa760e01b81526004356004820152fd5b612c4b915060203d602011612c51575b612c438183612f2c565b810190613b82565b85612667565b503d612c39565b612c71915060203d602011610fa457610f958183612f2c565b8561261d565b346102c557612c8536612eb0565b60ff60039392935460a01c161561037957612c9e613727565b612ca66137d1565b6000828152600560205260409020600281015490936001600160a01b039182168015612e185733141580612e08575b80612de1575b612dc25760ff600786015460081c166007811015610d0f5760038114159081612db6575b50612d9d577fa2be304a31c5194b71cd99f0ee865ff9ca0b8b8266efeab33a5a78d3cdf9a0999291600c911694612d3883303389613b39565b8460005260086020526040600020866000526020526000600260408220886001600160601b0360a01b82541617815585600182015501550154612d936040519283924291846040919493926060820195825260208201520152565b0390a36001600255005b60405163ef78d6ef60e01b815260048101859052602490fd5b60069150141586612cff565b60405163d007ec9360e01b815260048101859052336024820152604490fd5b50336000908152600080516020614113833981519152602052604090205460ff1615612cdb565b5081600386015416331415612cd5565b60405163ce1befcb60e01b815260048101869052602490fd5b346102c55760203660031901126102c5576004359063ffffffff60e01b82168092036102c557602091637965db0b60e01b8114908115612e73575b5015158152f35b6301ffc9a760e01b14905083612e6c565b602435906001600160a01b03821682036102c557565b600435906001600160a01b03821682036102c557565b60609060031901126102c557600435906024356001600160a01b03811681036102c5579060443590565b60a081019081106001600160401b03821117611dff57604052565b6102a081019081106001600160401b03821117611dff57604052565b608081019081106001600160401b03821117611dff57604052565b90601f801991011681019081106001600160401b03821117611dff57604052565b6001600160401b038111611dff57601f01601f191660200190565b81601f820112156102c557803590612f7f82612f4d565b92612f8d6040519485612f2c565b828452602083830101116102c557816000926020809301838601378301015290565b60005b838110612fc25750506000910152565b8181015183820152602001612fb2565b90602091612feb81518092818552858086019101612faf565b601f01601f1916010190565b6020908160408183019282815285518094520193019160005b82811061301e575050505090565b835185529381019392810192600101613010565b906006821015610d0f5752565b906007821015610d0f5752565b3360009081527f7d7ffb7a348e1c6a02869081a26547b49160dd3df72d1d75a570eb9b698292ec602090815260408083205490927fa49807205ce4d355092ef5a8a18f56e8913cf4a201fbe287825b095693c217759160ff16156130b05750505050565b6130b933613549565b918451906130c682612f11565b6042825284820192606036853782511561324f576030845382519060019182101561324f5790607860218501536041915b8183116131e15750505061319f5760486113a993869361318393613174985198899376020b1b1b2b9b9a1b7b73a3937b61d1030b1b1b7bab73a1604d1b8a86015261314b815180928c603789019101612faf565b8401917001034b99036b4b9b9b4b733903937b6329607d1b603784015251809386840190612faf565b01036028810187520185612f2c565b5192839262461bcd60e51b845260048401526024830190612fd2565b60648486519062461bcd60e51b825280600483015260248201527f537472696e67733a20686578206c656e67746820696e73756666696369656e746044820152fd5b909192600f8116601081101561323b576f181899199a1a9b1b9c1cb0b131b232b360811b901a6132118587613522565b5360041c928015613227576000190191906130f7565b634e487b7160e01b82526011600452602482fd5b634e487b7160e01b83526032600452602483fd5b634e487b7160e01b81526032600452602490fd5b336000908152600080516020614113833981519152602090815260408083205490926000805160206141338339815191529160ff16156132a35750505050565b6132ac33613549565b918451906132b982612f11565b6042825284820192606036853782511561324f576030845382519060019182101561324f5790607860218501536041915b81831161333e5750505061319f5760486113a993869361318393613174985198899376020b1b1b2b9b9a1b7b73a3937b61d1030b1b1b7bab73a1604d1b8a86015261314b815180928c603789019101612faf565b909192600f8116601081101561323b576f181899199a1a9b1b9c1cb0b131b232b360811b901a61336e8587613522565b5360041c928015613227576000190191906132ea565b600090808252602090828252604092838120338252835260ff8482205416156133ad5750505050565b6133b633613549565b918451906133c382612f11565b6042825284820192606036853782511561324f576030845382519060019182101561324f5790607860218501536041915b8183116134485750505061319f5760486113a993869361318393613174985198899376020b1b1b2b9b9a1b7b73a3937b61d1030b1b1b7bab73a1604d1b8a86015261314b815180928c603789019101612faf565b909192600f8116601081101561323b576f181899199a1a9b1b9c1cb0b131b232b360811b901a6134788587613522565b5360041c928015613227576000190191906133f4565b9060009180835282602052604083209160018060a01b03169182845260205260ff6040842054166134be57505050565b80835282602052604083208284526020526040832060ff1981541690557ff6391f5c32d9c69d2a47ea670b442974b53935d1edc7fd64eb21e047a839171b339380a4565b818102929181159184041417156124dd57565b919082018092116124dd57565b908151811015613533570160200190565b634e487b7160e01b600052603260045260246000fd5b60405190606082018281106001600160401b03821117611dff57604052602a82526020820160403682378251156135335760309053815160019081101561353357607860218401536029905b8082116135e95750506135a55790565b606460405162461bcd60e51b815260206004820152602060248201527f537472696e67733a20686578206c656e67746820696e73756666696369656e746044820152fd5b9091600f81166010811015613642576f181899199a1a9b1b9c1cb0b131b232b360811b901a6136188486613522565b5360041c91801561362d576000190190613595565b60246000634e487b7160e01b81526011600452fd5b60246000634e487b7160e01b81526032600452fd5b90600182811c92168015613687575b602083101461367157565b634e487b7160e01b600052602260045260246000fd5b91607f1691613666565b90600092918054916136a283613657565b91828252600193848116908160001461370457506001146136c4575b50505050565b90919394506000526020928360002092846000945b8386106136f05750505050010190388080806136be565b8054858701830152940193859082016136d9565b9294505050602093945060ff191683830152151560051b010190388080806136be565b60ff6001541661373357565b60405162461bcd60e51b815260206004820152601060248201526f14185d5cd8589b194e881c185d5cd95960821b6044820152606490fd5b908160209103126102c557516001600160a01b03811681036102c55790565b60001981146124dd5760010190565b906007811015610d0f5761ff0082549160081b169061ff001916179055565b6007811015610d0f57600052600a602052604060002090565b60028054146137e05760028055565b60405162461bcd60e51b815260206004820152601f60248201527f5265656e7472616e637947756172643a207265656e7472616e742063616c6c006044820152606490fd5b80548210156135335760005260206000200190600090565b6000818152600c60205260408120546138d057600b54600160401b8110156138bc576001810180600b558110156138a85790826040927f0175b7a638427703f0dbe7bb9bbf987a2551717b34e79f33b5b1008d1fa01db90155600b54928152600c6020522055600190565b634e487b7160e01b82526032600452602482fd5b634e487b7160e01b82526041600452602482fd5b905090565b9190600183016000908282528060205260408220541560001461395457845494600160401b8610156139405783613930613919886001604098999a01855584613825565b819391549060031b91821b91600019901b19161790565b9055549382526020522055600190565b634e487b7160e01b83526041600452602483fd5b50925050565b9060008281526005602052604081209060018060a01b036002830154161561159c576007820160ff815460081c16916007851015613a28576007831015613a285750838214613a2157836060936139e87fa501447e21b5d0bd78344e62b02b2e1c935dbbc23f482a95170d08a44d63b29796613a18946139e28a6139dd896137b8565b613a49565b50613799565b601042910155613a00866139fb836137b8565b6138d5565b50613a0e604051809461303f565b602083019061303f565b426040820152a2565b5050505050565b634e487b7160e01b81526021600452602490fd5b919082039182116124dd57565b90600182019060009281845282602052604084205490811515600014613b325760001991808301818111613b1e57825490848201918211613b0a57808203613ad5575b50505080548015613ac157820191613aa48383613825565b909182549160031b1b191690555582526020526040812055600190565b634e487b7160e01b86526031600452602486fd5b613af5613ae56139199386613825565b90549060031b1c92839286613825565b90558652846020526040862055388080613a8c565b634e487b7160e01b88526011600452602488fd5b634e487b7160e01b87526011600452602487fd5b5050505090565b6040516323b872dd60e01b60208201526001600160a01b039283166024820152929091166044830152606480830193909352918152613b8091613b7b82612eda565b613b9a565b565b908160209103126102c5575180151581036102c55790565b60408051908101916001600160a01b03166001600160401b03831182841017611dff57613c09926040526000806020958685527f5361666545524332303a206c6f772d6c6576656c2063616c6c206661696c656487860152868151910182855af1613c03613c91565b91613cc1565b805190828215928315613c79575b50505015613c225750565b6084906040519062461bcd60e51b82526004820152602a60248201527f5361666545524332303a204552433230206f7065726174696f6e20646964206e6044820152691bdd081cdd58d8d9595960b21b6064820152fd5b613c899350820181019101613b82565b388281613c17565b3d15613cbc573d90613ca282612f4d565b91613cb06040519384612f2c565b82523d6000602084013e565b606090565b91929015613d235750815115613cd5575090565b3b15613cde5790565b60405162461bcd60e51b815260206004820152601d60248201527f416464726573733a2063616c6c20746f206e6f6e2d636f6e74726163740000006044820152606490fd5b825190915015613d365750805190602001fd5b60405162461bcd60e51b8152602060048201529081906113a9906024830190612fd2565b600081815260056020526040808220600b810180546009830154929695949211613eea576003955b6007810191613d9b866139dd60ff865460081c166137b8565b50613da68884613799565b426010830155613db9866139fb8a6137b8565b506007881015613ed6576139dd88877fe7120a43929c8f69eb64bf66c6587ec5a44dfa34cea30f8fe0901b2e542033946080613e2c96600c8497613e499e9f60031480613ecc575b613e4c575b549101548b5191613e17838861303f565b60208301528b820152426060820152a26137b8565b50805461ff00191661060017905560068152600a602052206138d5565b50565b8c868c612710613e608554600e5490613502565b049283613e71575b50505050613e06565b7f7776690236117f905ebcaa326163aab8f1f85e1ff05bcac29e6ac45b460f808e9160018060a01b0390613eb18683835460101c1684600f541690613f61565b5460101c16938151908152426020820152a338868c8f613e68565b5080541515613e01565b634e487b7160e01b84526021600452602484fd5b600495613d82565b8115613efc570490565b634e487b7160e01b600052601260045260246000fd5b60405163a9059cbb60e01b60208201526001600160a01b03909216602483015260448083019390935291815260808101916001600160401b03831182841017611dff57613b8092604052613b9a565b6001600160a01b039190821680613fc957506000809381938293165af1613f86613c91565b5015613f8e57565b60405162461bcd60e51b8152602060048201526013602482015272115512081d1c985b9cd9995c8819985a5b1959606a1b6044820152606490fd5b613b80939250613f12565b9060405191828154918282526020928383019160005283600020936000905b82821061400957505050613b8092500383612f2c565b855484526001958601958895509381019390910190613ff3565b6000526005602052600e604060002001548042101561404a57614047904290613a3c565b90565b50600090565b9092916000908282526020906005825260409384842090600684528585209760018060a01b0380941698898752855286862091865260088552838787209116865284528585209280825416159081156140e6575b506140d85760039291600b61185460016140c5940154600186015490613502565b9684520190522054906140478284613a3c565b505050509192505080918190565b905083541615386140a456fe2f8788117e7eff1d82e926ec794901d17c78024a50270940304540a733656f0d407e260c196876216b8dd20ea8619d70e7050dd5853750ed41a99b75f2b4c4098f882e9b3b0c043c8507802fbb9a0ed808c8f0587361ab18424493e6841512a8a26469706673582212201503097e242a3c8a615140ced58f76a52ad65d231f3f4afbafada00e0ccaea8664736f6c634300081400332f8788117e7eff1d82e926ec794901d17c78024a50270940304540a733656f0d",
  "linkReferences": {},
  "deployedLinkReferences": {}
}