{
  "_format": "hh-sol-artifact-1",
  "contractName": "Flow",
  "sourceName": "contracts/modules/Flow/Flow.sol",
  "abi": [
    {
      "inputs": [],
      "stateMutability": "nonpayable",
      "type": "constructor"
    },
    {
      "inputs": [
        {
          "internalType": "uint256",
          "name": "raised",
          "type": "uint256"
        },
        {
          "internalType": "uint256",
          "name": "max",
          "type": "uint256"
        }
      ],
      "name": "CampaignCapReached",
      "type": "error"
    },
    {
      "inputs": [
        {
          "internalType": "bytes32",
          "name": "campaignId",
          "type": "bytes32"
        }
      ],
      "name": "CampaignEnded",
      "type": "error"
    },
    {
      "inputs": [
        {
          "internalType": "bytes32",
          "name": "campaignId",
          "type": "bytes32"
        }
      ],
      "name": "CampaignNotActive",
      "type": "error"
    },
    {
      "inputs": [
        {
          "internalType": "bytes32",
          "name": "campaignId",
          "type": "bytes32"
        }
      ],
      "name": "CampaignNotEnded",
      "type": "error"
    },
    {
      "inputs": [
        {
          "internalType": "bytes32",
          "name": "campaignId",
          "type": "bytes32"
        }
      ],
      "name": "CampaignNotFound",
      "type": "error"
    },
    {
      "inputs": [
        {
          "internalType": "bytes32",
          "name": "campaignId",
          "type": "bytes32"
        },
        {
          "internalType": "address",
          "name": "contributor",
          "type": "address"
        }
      ],
      "name": "ContributionAlreadyRefunded",
      "type": "error"
    },
    {
      "inputs": [
        {
          "internalType": "uint256",
          "name": "amount",
          "type": "uint256"
        },
        {
          "internalType": "uint256",
          "name": "max",
          "type": "uint256"
        }
      ],
      "name": "ContributionExceedsMax",
      "type": "error"
    },
    {
      "inputs": [
        {
          "internalType": "bytes32",
          "name": "campaignId",
          "type": "bytes32"
        },
        {
          "internalType": "address",
          "name": "token",
          "type": "address"
        }
      ],
      "name": "InsufficientRewardBalance",
      "type": "error"
    },
    {
      "inputs": [],
      "name": "InvalidCampaignParameters",
      "type": "error"
    },
    {
      "inputs": [
        {
          "internalType": "uint256",
          "name": "amount",
          "type": "uint256"
        }
      ],
      "name": "InvalidContributionAmount",
      "type": "error"
    },
    {
      "inputs": [
        {
          "internalType": "uint256",
          "name": "fee",
          "type": "uint256"
        }
      ],
      "name": "InvalidProtocolFee",
      "type": "error"
    },
    {
      "inputs": [],
      "name": "InvalidRegistryAddress",
      "type": "error"
    },
    {
      "inputs": [],
      "name": "ModuleAlreadyInitialized",
      "type": "error"
    },
    {
      "inputs": [],
      "name": "ModuleNotInitialized",
      "type": "error"
    },
    {
      "inputs": [
        {
          "internalType": "bytes32",
          "name": "campaignId",
          "type": "bytes32"
        },
        {
          "internalType": "address",
          "name": "contributor",
          "type": "address"
        }
      ],
      "name": "NoContributionFound",
      "type": "error"
    },
    {
      "inputs": [],
      "name": "OnlyRegistry",
      "type": "error"
    },
    {
      "inputs": [
        {
          "internalType": "bytes32",
          "name": "organizationId",
          "type": "bytes32"
        }
      ],
      "name": "OrganizationNotFound",
      "type": "error"
    },
    {
      "inputs": [
        {
          "internalType": "bytes32",
          "name": "campaignId",
          "type": "bytes32"
        },
        {
          "internalType": "address",
          "name": "contributor",
          "type": "address"
        },
        {
          "internalType": "address",
          "name": "token",
          "type": "address"
        }
      ],
      "name": "RewardsAlreadyClaimed",
      "type": "error"
    },
    {
      "inputs": [
        {
          "internalType": "bytes32",
          "name": "campaignId",
          "type": "bytes32"
        },
        {
          "internalType": "address",
          "name": "caller",
          "type": "address"
        }
      ],
      "name": "UnauthorizedCampaignAccess",
      "type": "error"
    },
    {
      "anonymous": false,
      "inputs": [
        {
          "indexed": true,
          "internalType": "bytes32",
          "name": "campaignId",
          "type": "bytes32"
        },
        {
          "indexed": true,
          "internalType": "bytes32",
          "name": "organizationId",
          "type": "bytes32"
        },
        {
          "indexed": true,
          "internalType": "address",
          "name": "creator",
          "type": "address"
        },
        {
          "indexed": false,
          "internalType": "string",
          "name": "title",
          "type": "string"
        },
        {
          "indexed": false,
          "internalType": "enum IFlow.FlowType",
          "name": "flowType",
          "type": "uint8"
        },
        {
          "indexed": false,
          "internalType": "uint256",
          "name": "target",
          "type": "uint256"
        },
        {
          "indexed": false,
          "internalType": "uint256",
          "name": "startTime",
          "type": "uint256"
        },
        {
          "indexed": false,
          "internalType": "uint256",
          "name": "endTime",
          "type": "uint256"
        },
        {
          "indexed": false,
          "internalType": "uint256",
          "name": "timestamp",
          "type": "uint256"
        }
      ],
      "name": "CampaignCreated",
      "type": "event"
    },
    {
      "anonymous": false,
      "inputs": [
        {
          "indexed": true,
          "internalType": "bytes32",
          "name": "campaignId",
          "type": "bytes32"
        },
        {
          "indexed": false,
          "internalType": "enum IFlow.FlowState",
          "name": "finalState",
          "type": "uint8"
        },
        {
          "indexed": false,
          "internalType": "uint256",
          "name": "totalRaised",
          "type": "uint256"
        },
        {
          "indexed": false,
          "internalType": "uint256",
          "name": "contributorCount",
          "type": "uint256"
        },
        {
          "indexed": false,
          "internalType": "uint256",
          "name": "timestamp",
          "type": "uint256"
        }
      ],
      "name": "CampaignFinalized",
      "type": "event"
    },
    {
      "anonymous": false,
      "inputs": [
        {
          "indexed": true,
          "internalType": "bytes32",
          "name": "campaignId",
          "type": "bytes32"
        },
        {
          "indexed": false,
          "internalType": "enum IFlow.FlowState",
          "name": "oldState",
          "type": "uint8"
        },
        {
          "indexed": false,
          "internalType": "enum IFlow.FlowState",
          "name": "newState",
          "type": "uint8"
        },
        {
          "indexed": false,
          "internalType": "uint256",
          "name": "timestamp",
          "type": "uint256"
        }
      ],
      "name": "CampaignStateChanged",
      "type": "event"
    },
    {
      "anonymous": false,
      "inputs": [
        {
          "indexed": true,
          "internalType": "bytes32",
          "name": "campaignId",
          "type": "bytes32"
        },
        {
          "indexed": false,
          "internalType": "string",
          "name": "title",
          "type": "string"
        },
        {
          "indexed": false,
          "internalType": "string",
          "name": "description",
          "type": "string"
        },
        {
          "indexed": false,
          "internalType": "uint256",
          "name": "target",
          "type": "uint256"
        },
        {
          "indexed": false,
          "internalType": "uint256",
          "name": "min",
          "type": "uint256"
        },
        {
          "indexed": false,
          "internalType": "uint256",
          "name": "max",
          "type": "uint256"
        },
        {
          "indexed": false,
          "internalType": "uint256",
          "name": "endTime",
          "type": "uint256"
        },
        {
          "indexed": false,
          "internalType": "uint256",
          "name": "timestamp",
          "type": "uint256"
        }
      ],
      "name": "CampaignUpdated",
      "type": "event"
    },
    {
      "anonymous": false,
      "inputs": [
        {
          "indexed": true,
          "internalType": "bytes32",
          "name": "campaignId",
          "type": "bytes32"
        },
        {
          "indexed": true,
          "internalType": "address",
          "name": "contributor",
          "type": "address"
        },
        {
          "indexed": false,
          "internalType": "uint256",
          "name": "amount",
          "type": "uint256"
        },
        {
          "indexed": false,
          "internalType": "uint256",
          "name": "totalRaised",
          "type": "uint256"
        },
        {
          "indexed": false,
          "internalType": "uint256",
          "name": "timestamp",
          "type": "uint256"
        }
      ],
      "name": "ContributionMade",
      "type": "event"
    },
    {
      "anonymous": false,
      "inputs": [
        {
          "indexed": true,
          "internalType": "bytes32",
          "name": "campaignId",
          "type": "bytes32"
        },
        {
          "indexed": true,
          "internalType": "address",
          "name": "contributor",
          "type": "address"
        },
        {
          "indexed": false,
          "internalType": "uint256",
          "name": "amount",
          "type": "uint256"
        },
        {
          "indexed": false,
          "internalType": "uint256",
          "name": "timestamp",
          "type": "uint256"
        }
      ],
      "name": "ContributionRefunded",
      "type": "event"
    },
    {
      "anonymous": false,
      "inputs": [],
      "name": "ModuleDisabled",
      "type": "event"
    },
    {
      "anonymous": false,
      "inputs": [],
      "name": "ModuleEnabled",
      "type": "event"
    },
    {
      "anonymous": false,
      "inputs": [
        {
          "indexed": true,
          "internalType": "address",
          "name": "registry",
          "type": "address"
        }
      ],
      "name": "ModuleInitialized",
      "type": "event"
    },
    {
      "anonymous": false,
      "inputs": [
        {
          "indexed": false,
          "internalType": "address",
          "name": "account",
          "type": "address"
        }
      ],
      "name": "Paused",
      "type": "event"
    },
    {
      "anonymous": false,
      "inputs": [
        {
          "indexed": true,
          "internalType": "bytes32",
          "name": "campaignId",
          "type": "bytes32"
        },
        {
          "indexed": true,
          "internalType": "address",
          "name": "token",
          "type": "address"
        },
        {
          "indexed": false,
          "internalType": "uint256",
          "name": "amount",
          "type": "uint256"
        },
        {
          "indexed": false,
          "internalType": "uint256",
          "name": "timestamp",
          "type": "uint256"
        }
      ],
      "name": "ProtocolFeeCollected",
      "type": "event"
    },
    {
      "anonymous": false,
      "inputs": [
        {
          "indexed": true,
          "internalType": "bytes32",
          "name": "campaignId",
          "type": "bytes32"
        },
        {
          "indexed": true,
          "internalType": "address",
          "name": "token",
          "type": "address"
        },
        {
          "indexed": false,
          "internalType": "uint256",
          "name": "totalAmount",
          "type": "uint256"
        },
        {
          "indexed": false,
          "internalType": "uint256",
          "name": "contributorCount",
          "type": "uint256"
        },
        {
          "indexed": false,
          "internalType": "uint256",
          "name": "timestamp",
          "type": "uint256"
        }
      ],
      "name": "RewardsDistributed",
      "type": "event"
    },
    {
      "anonymous": false,
      "inputs": [
        {
          "indexed": true,
          "internalType": "bytes32",
          "name": "role",
          "type": "bytes32"
        },
        {
          "indexed": true,
          "internalType": "bytes32",
          "name": "previousAdminRole",
          "type": "bytes32"
        },
        {
          "indexed": true,
          "internalType": "bytes32",
          "name": "newAdminRole",
          "type": "bytes32"
        }
      ],
      "name": "RoleAdminChanged",
      "type": "event"
    },
    {
      "anonymous": false,
      "inputs": [
        {
          "indexed": true,
          "internalType": "bytes32",
          "name": "role",
          "type": "bytes32"
        },
        {
          "indexed": true,
          "internalType": "address",
          "name": "account",
          "type": "address"
        },
        {
          "indexed": true,
          "internalType": "address",
          "name": "sender",
          "type": "address"
        }
      ],
      "name": "RoleGranted",
      "type": "event"
    },
    {
      "anonymous": false,
      "inputs": [
        {
          "indexed": true,
          "internalType": "bytes32",
          "name": "role",
          "type": "bytes32"
        },
        {
          "indexed": true,
          "internalType": "address",
          "name": "account",
          "type": "address"
        },
        {
          "indexed": true,
          "internalType": "address",
          "name": "sender",
          "type": "address"
        }
      ],
      "name": "RoleRevoked",
      "type": "event"
    },
    {
      "anonymous": false,
      "inputs": [
        {
          "indexed": false,
          "internalType": "address",
          "name": "account",
          "type": "address"
        }
      ],
      "name": "Unpaused",
      "type": "event"
    },
    {
      "inputs": [],
      "name": "ADMIN_ROLE",
      "outputs": [
        {
          "internalType": "bytes32",
          "name": "",
          "type": "bytes32"
        }
      ],
      "stateMutability": "view",
      "type": "function"
    },
    {
      "inputs": [],
      "name": "BASIS_POINTS",
      "outputs": [
        {
          "internalType": "uint256",
          "name": "",
          "type": "uint256"
        }
      ],
      "stateMutability": "view",
      "type": "function"
    },
    {
      "inputs": [],
      "name": "CAMPAIGN_CREATOR_ROLE",
      "outputs": [
        {
          "internalType": "bytes32",
          "name": "",
          "type": "bytes32"
        }
      ],
      "stateMutability": "view",
      "type": "function"
    },
    {
      "inputs": [],
      "name": "DEFAULT_ADMIN_ROLE",
      "outputs": [
        {
          "internalType": "bytes32",
          "name": "",
          "type": "bytes32"
        }
      ],
      "stateMutability": "view",
      "type": "function"
    },
    {
      "inputs": [],
      "name": "FLOW_ADMIN_ROLE",
      "outputs": [
        {
          "internalType": "bytes32",
          "name": "",
          "type": "bytes32"
        }
      ],
      "stateMutability": "view",
      "type": "function"
    },
    {
      "inputs": [],
      "name": "MAX_PROTOCOL_FEE",
      "outputs": [
        {
          "internalType": "uint256",
          "name": "",
          "type": "uint256"
        }
      ],
      "stateMutability": "view",
      "type": "function"
    },
    {
      "inputs": [],
      "name": "OPERATOR_ROLE",
      "outputs": [
        {
          "internalType": "bytes32",
          "name": "",
          "type": "bytes32"
        }
      ],
      "stateMutability": "view",
      "type": "function"
    },
    {
      "inputs": [
        {
          "internalType": "uint256",
          "name": "amount",
          "type": "uint256"
        }
      ],
      "name": "calculateProtocolFee",
      "outputs": [
        {
          "internalType": "uint256",
          "name": "",
          "type": "uint256"
        }
      ],
      "stateMutability": "view",
      "type": "function"
    },
    {
      "inputs": [
        {
          "internalType": "bytes32",
          "name": "campaignId",
          "type": "bytes32"
        },
        {
          "internalType": "address",
          "name": "",
          "type": "address"
        }
      ],
      "name": "canContribute",
      "outputs": [
        {
          "internalType": "bool",
          "name": "",
          "type": "bool"
        }
      ],
      "stateMutability": "view",
      "type": "function"
    },
    {
      "inputs": [
        {
          "internalType": "bytes32",
          "name": "campaignId",
          "type": "bytes32"
        },
        {
          "internalType": "address",
          "name": "rewardToken",
          "type": "address"
        }
      ],
      "name": "claimRewards",
      "outputs": [],
      "stateMutability": "nonpayable",
      "type": "function"
    },
    {
      "inputs": [
        {
          "internalType": "bytes32",
          "name": "campaignId",
          "type": "bytes32"
        },
        {
          "internalType": "uint256",
          "name": "amount",
          "type": "uint256"
        },
        {
          "internalType": "string",
          "name": "metadata",
          "type": "string"
        }
      ],
      "name": "contribute",
      "outputs": [],
      "stateMutability": "payable",
      "type": "function"
    },
    {
      "inputs": [
        {
          "internalType": "bytes32",
          "name": "organizationId",
          "type": "bytes32"
        },
        {
          "internalType": "string",
          "name": "title",
          "type": "string"
        },
        {
          "internalType": "string",
          "name": "description",
          "type": "string"
        },
        {
          "internalType": "string",
          "name": "metadataURI",
          "type": "string"
        },
        {
          "internalType": "enum IFlow.FlowType",
          "name": "flowType",
          "type": "uint8"
        },
        {
          "internalType": "address",
          "name": "paymentToken",
          "type": "address"
        },
        {
          "internalType": "uint256",
          "name": "target",
          "type": "uint256"
        },
        {
          "internalType": "uint256",
          "name": "min",
          "type": "uint256"
        },
        {
          "internalType": "uint256",
          "name": "max",
          "type": "uint256"
        },
        {
          "internalType": "uint256",
          "name": "duration",
          "type": "uint256"
        },
        {
          "internalType": "bool",
          "name": "autoFinalize",
          "type": "bool"
        }
      ],
      "name": "createCampaign",
      "outputs": [
        {
          "internalType": "bytes32",
          "name": "campaignId",
          "type": "bytes32"
        }
      ],
      "stateMutability": "nonpayable",
      "type": "function"
    },
    {
      "inputs": [
        {
          "internalType": "address",
          "name": "creator",
          "type": "address"
        },
        {
          "internalType": "bytes32",
          "name": "organizationId",
          "type": "bytes32"
        },
        {
          "components": [
            {
              "internalType": "string",
              "name": "title",
              "type": "string"
            },
            {
              "internalType": "string",
              "name": "description",
              "type": "string"
            },
            {
              "internalType": "string",
              "name": "metadataURI",
              "type": "string"
            },
            {
              "internalType": "enum IFlow.FlowType",
              "name": "flowType",
              "type": "uint8"
            },
            {
              "internalType": "address",
              "name": "paymentToken",
              "type": "address"
            },
            {
              "internalType": "uint256",
              "name": "target",
              "type": "uint256"
            },
            {
              "internalType": "uint256",
              "name": "min",
              "type": "uint256"
            },
            {
              "internalType": "uint256",
              "name": "max",
              "type": "uint256"
            },
            {
              "internalType": "uint256",
              "name": "duration",
              "type": "uint256"
            },
            {
              "internalType": "bool",
              "name": "autoFinalize",
              "type": "bool"
            }
          ],
          "internalType": "struct IFlow.CampaignParams",
          "name": "params",
          "type": "tuple"
        }
      ],
      "name": "createCampaignWithParams",
      "outputs": [
        {
          "internalType": "bytes32",
          "name": "campaignId",
          "type": "bytes32"
        }
      ],
      "stateMutability": "nonpayable",
      "type": "function"
    },
    {
      "inputs": [
        {
          "internalType": "bytes32",
          "name": "campaignId",
          "type": "bytes32"
        },
        {
          "internalType": "address",
          "name": "rewardToken",
          "type": "address"
        },
        {
          "internalType": "uint256",
          "name": "totalRewardAmount",
          "type": "uint256"
        }
      ],
      "name": "distributeRewards",
      "outputs": [],
      "stateMutability": "nonpayable",
      "type": "function"
    },
    {
      "inputs": [],
      "name": "emergencyPause",
      "outputs": [],
      "stateMutability": "nonpayable",
      "type": "function"
    },
    {
      "inputs": [],
      "name": "emergencyUnpause",
      "outputs": [],
      "stateMutability": "nonpayable",
      "type": "function"
    },
    {
      "inputs": [
        {
          "internalType": "address",
          "name": "token",
          "type": "address"
        },
        {
          "internalType": "address",
          "name": "to",
          "type": "address"
        },
        {
          "internalType": "uint256",
          "name": "amount",
          "type": "uint256"
        }
      ],
      "name": "emergencyWithdraw",
      "outputs": [],
      "stateMutability": "nonpayable",
      "type": "function"
    },
    {
      "inputs": [
        {
          "internalType": "bytes32",
          "name": "campaignId",
          "type": "bytes32"
        }
      ],
      "name": "finalizeCampaign",
      "outputs": [],
      "stateMutability": "nonpayable",
      "type": "function"
    },
    {
      "inputs": [
        {
          "internalType": "bytes32",
          "name": "campaignId",
          "type": "bytes32"
        }
      ],
      "name": "getCampaign",
      "outputs": [
        {
          "components": [
            {
              "internalType": "uint256",
              "name": "index",
              "type": "uint256"
            },
            {
              "internalType": "bytes32",
              "name": "organizationId",
              "type": "bytes32"
            },
            {
              "internalType": "address",
              "name": "creator",
              "type": "address"
            },
            {
              "internalType": "address",
              "name": "admin",
              "type": "address"
            },
            {
              "internalType": "string",
              "name": "title",
              "type": "string"
            },
            {
              "internalType": "string",
              "name": "description",
              "type": "string"
            },
            {
              "internalType": "string",
              "name": "metadataURI",
              "type": "string"
            },
            {
              "internalType": "enum IFlow.FlowType",
              "name": "flowType",
              "type": "uint8"
            },
            {
              "internalType": "enum IFlow.FlowState",
              "name": "state",
              "type": "uint8"
            },
            {
              "internalType": "address",
              "name": "paymentToken",
              "type": "address"
            },
            {
              "internalType": "uint256",
              "name": "target",
              "type": "uint256"
            },
            {
              "internalType": "uint256",
              "name": "min",
              "type": "uint256"
            },
            {
              "internalType": "uint256",
              "name": "max",
              "type": "uint256"
            },
            {
              "internalType": "uint256",
              "name": "raised",
              "type": "uint256"
            },
            {
              "internalType": "uint256",
              "name": "contributorCount",
              "type": "uint256"
            },
            {
              "internalType": "uint256",
              "name": "startTime",
              "type": "uint256"
            },
            {
              "internalType": "uint256",
              "name": "endTime",
              "type": "uint256"
            },
            {
              "internalType": "uint256",
              "name": "createdAt",
              "type": "uint256"
            },
            {
              "internalType": "uint256",
              "name": "updatedAt",
              "type": "uint256"
            },
            {
              "internalType": "bool",
              "name": "autoFinalize",
              "type": "bool"
            },
            {
              "internalType": "uint256",
              "name": "protocolFee",
              "type": "uint256"
            }
          ],
          "internalType": "struct IFlow.Campaign",
          "name": "",
          "type": "tuple"
        }
      ],
      "stateMutability": "view",
      "type": "function"
    },
    {
      "inputs": [
        {
          "internalType": "bytes32",
          "name": "campaignId",
          "type": "bytes32"
        }
      ],
      "name": "getCampaignContributors",
      "outputs": [
        {
          "internalType": "address[]",
          "name": "",
          "type": "address[]"
        }
      ],
      "stateMutability": "view",
      "type": "function"
    },
    {
      "inputs": [],
      "name": "getCampaignCount",
      "outputs": [
        {
          "internalType": "uint256",
          "name": "",
          "type": "uint256"
        }
      ],
      "stateMutability": "view",
      "type": "function"
    },
    {
      "inputs": [
        {
          "internalType": "bytes32",
          "name": "campaignId",
          "type": "bytes32"
        }
      ],
      "name": "getCampaignProgress",
      "outputs": [
        {
          "internalType": "uint256",
          "name": "raised",
          "type": "uint256"
        },
        {
          "internalType": "uint256",
          "name": "target",
          "type": "uint256"
        },
        {
          "internalType": "uint256",
          "name": "percentage",
          "type": "uint256"
        }
      ],
      "stateMutability": "view",
      "type": "function"
    },
    {
      "inputs": [
        {
          "internalType": "bytes32",
          "name": "organizationId",
          "type": "bytes32"
        }
      ],
      "name": "getCampaignsByOrganization",
      "outputs": [
        {
          "internalType": "bytes32[]",
          "name": "",
          "type": "bytes32[]"
        }
      ],
      "stateMutability": "view",
      "type": "function"
    },
    {
      "inputs": [
        {
          "internalType": "enum IFlow.FlowState",
          "name": "state",
          "type": "uint8"
        }
      ],
      "name": "getCampaignsByState",
      "outputs": [
        {
          "internalType": "bytes32[]",
          "name": "",
          "type": "bytes32[]"
        }
      ],
      "stateMutability": "view",
      "type": "function"
    },
    {
      "inputs": [
        {
          "internalType": "bytes32",
          "name": "campaignId",
          "type": "bytes32"
        },
        {
          "internalType": "address",
          "name": "contributor",
          "type": "address"
        }
      ],
      "name": "getContribution",
      "outputs": [
        {
          "components": [
            {
              "internalType": "address",
              "name": "contributor",
              "type": "address"
            },
            {
              "internalType": "uint256",
              "name": "amount",
              "type": "uint256"
            },
            {
              "internalType": "uint256",
              "name": "timestamp",
              "type": "uint256"
            },
            {
              "internalType": "enum IFlow.ContributorState",
              "name": "state",
              "type": "uint8"
            },
            {
              "internalType": "string",
              "name": "metadata",
              "type": "string"
            }
          ],
          "internalType": "struct IFlow.Contribution",
          "name": "",
          "type": "tuple"
        }
      ],
      "stateMutability": "view",
      "type": "function"
    },
    {
      "inputs": [],
      "name": "getProtocolFeeRate",
      "outputs": [
        {
          "internalType": "uint256",
          "name": "",
          "type": "uint256"
        }
      ],
      "stateMutability": "view",
      "type": "function"
    },
    {
      "inputs": [
        {
          "internalType": "bytes32",
          "name": "campaignId",
          "type": "bytes32"
        },
        {
          "internalType": "address",
          "name": "rewardToken",
          "type": "address"
        },
        {
          "internalType": "address",
          "name": "contributor",
          "type": "address"
        }
      ],
      "name": "getRewardDistribution",
      "outputs": [
        {
          "internalType": "uint256",
          "name": "totalReward",
          "type": "uint256"
        },
        {
          "internalType": "uint256",
          "name": "claimedAmount",
          "type": "uint256"
        },
        {
          "internalType": "uint256",
          "name": "claimableAmount",
          "type": "uint256"
        }
      ],
      "stateMutability": "view",
      "type": "function"
    },
    {
      "inputs": [
        {
          "internalType": "bytes32",
          "name": "role",
          "type": "bytes32"
        }
      ],
      "name": "getRoleAdmin",
      "outputs": [
        {
          "internalType": "bytes32",
          "name": "",
          "type": "bytes32"
        }
      ],
      "stateMutability": "view",
      "type": "function"
    },
    {
      "inputs": [
        {
          "internalType": "bytes32",
          "name": "campaignId",
          "type": "bytes32"
        }
      ],
      "name": "getTimeRemaining",
      "outputs": [
        {
          "internalType": "uint256",
          "name": "",
          "type": "uint256"
        }
      ],
      "stateMutability": "view",
      "type": "function"
    },
    {
      "inputs": [
        {
          "internalType": "bytes32",
          "name": "role",
          "type": "bytes32"
        },
        {
          "internalType": "address",
          "name": "account",
          "type": "address"
        }
      ],
      "name": "grantRole",
      "outputs": [],
      "stateMutability": "nonpayable",
      "type": "function"
    },
    {
      "inputs": [
        {
          "internalType": "bytes32",
          "name": "role",
          "type": "bytes32"
        },
        {
          "internalType": "address",
          "name": "account",
          "type": "address"
        }
      ],
      "name": "hasRole",
      "outputs": [
        {
          "internalType": "bool",
          "name": "",
          "type": "bool"
        }
      ],
      "stateMutability": "view",
      "type": "function"
    },
    {
      "inputs": [
        {
          "internalType": "address",
          "name": "registryAddress",
          "type": "address"
        }
      ],
      "name": "initialize",
      "outputs": [],
      "stateMutability": "nonpayable",
      "type": "function"
    },
    {
      "inputs": [
        {
          "internalType": "bytes32",
          "name": "campaignId",
          "type": "bytes32"
        }
      ],
      "name": "isCampaignActive",
      "outputs": [
        {
          "internalType": "bool",
          "name": "",
          "type": "bool"
        }
      ],
      "stateMutability": "view",
      "type": "function"
    },
    {
      "inputs": [],
      "name": "isInitialized",
      "outputs": [
        {
          "internalType": "bool",
          "name": "",
          "type": "bool"
        }
      ],
      "stateMutability": "view",
      "type": "function"
    },
    {
      "inputs": [],
      "name": "moduleId",
      "outputs": [
        {
          "internalType": "bytes32",
          "name": "",
          "type": "bytes32"
        }
      ],
      "stateMutability": "pure",
      "type": "function"
    },
    {
      "inputs": [],
      "name": "onModuleDisabled",
      "outputs": [],
      "stateMutability": "nonpayable",
      "type": "function"
    },
    {
      "inputs": [],
      "name": "onModuleEnabled",
      "outputs": [],
      "stateMutability": "nonpayable",
      "type": "function"
    },
    {
      "inputs": [],
      "name": "pause",
      "outputs": [],
      "stateMutability": "nonpayable",
      "type": "function"
    },
    {
      "inputs": [],
      "name": "paused",
      "outputs": [
        {
          "internalType": "bool",
          "name": "",
          "type": "bool"
        }
      ],
      "stateMutability": "view",
      "type": "function"
    },
    {
      "inputs": [
        {
          "internalType": "bytes32",
          "name": "campaignId",
          "type": "bytes32"
        },
        {
          "internalType": "address",
          "name": "contributor",
          "type": "address"
        }
      ],
      "name": "refundContribution",
      "outputs": [],
      "stateMutability": "nonpayable",
      "type": "function"
    },
    {
      "inputs": [],
      "name": "registry",
      "outputs": [
        {
          "internalType": "address",
          "name": "",
          "type": "address"
        }
      ],
      "stateMutability": "view",
      "type": "function"
    },
    {
      "inputs": [
        {
          "internalType": "bytes32",
          "name": "role",
          "type": "bytes32"
        },
        {
          "internalType": "address",
          "name": "account",
          "type": "address"
        }
      ],
      "name": "renounceRole",
      "outputs": [],
      "stateMutability": "nonpayable",
      "type": "function"
    },
    {
      "inputs": [
        {
          "internalType": "bytes32",
          "name": "role",
          "type": "bytes32"
        },
        {
          "internalType": "address",
          "name": "account",
          "type": "address"
        }
      ],
      "name": "revokeRole",
      "outputs": [],
      "stateMutability": "nonpayable",
      "type": "function"
    },
    {
      "inputs": [
        {
          "internalType": "bytes32",
          "name": "campaignId",
          "type": "bytes32"
        },
        {
          "internalType": "enum IFlow.FlowState",
          "name": "newState",
          "type": "uint8"
        }
      ],
      "name": "setCampaignState",
      "outputs": [],
      "stateMutability": "nonpayable",
      "type": "function"
    },
    {
      "inputs": [
        {
          "internalType": "uint256",
          "name": "newRate",
          "type": "uint256"
        }
      ],
      "name": "setProtocolFeeRate",
      "outputs": [],
      "stateMutability": "nonpayable",
      "type": "function"
    },
    {
      "inputs": [
        {
          "internalType": "address",
          "name": "newRecipient",
          "type": "address"
        }
      ],
      "name": "setProtocolFeeRecipient",
      "outputs": [],
      "stateMutability": "nonpayable",
      "type": "function"
    },
    {
      "inputs": [
        {
          "internalType": "bytes4",
          "name": "interfaceId",
          "type": "bytes4"
        }
      ],
      "name": "supportsInterface",
      "outputs": [
        {
          "internalType": "bool",
          "name": "",
          "type": "bool"
        }
      ],
      "stateMutability": "view",
      "type": "function"
    },
    {
      "inputs": [],
      "name": "unpause",
      "outputs": [],
      "stateMutability": "nonpayable",
      "type": "function"
    },
    {
      "inputs": [
        {
          "internalType": "bytes32",
          "name": "campaignId",
          "type": "bytes32"
        },
        {
          "internalType": "string",
          "name": "title",
          "type": "string"
        },
        {
          "internalType": "string",
          "name": "description",
          "type": "string"
        },
        {
          "internalType": "uint256",
          "name": "target",
          "type": "uint256"
        },
        {
          "internalType": "uint256",
          "name": "min",
          "type": "uint256"
        },
        {
          "internalType": "uint256",
          "name": "max",
          "type": "uint256"
        },
        {
          "internalType": "uint256",
          "name": "endTime",
          "type": "uint256"
        }
      ],
      "name": "updateCampaign",
      "outputs": [],
      "stateMutability": "nonpayable",
      "type": "function"
    },
    {
      "inputs": [],
      "name": "version",
      "outputs": [
        {
          "internalType": "string",
          "name": "",
          "type": "string"
        }
      ],
      "stateMutability": "view",
      "type": "function"
    },
    {
      "inputs": [
        {
          "internalType": "bytes32",
          "name": "campaignId",
          "type": "bytes32"
        },
        {
          "internalType": "address",
          "name": "to",
          "type": "address"
        },
        {
          "internalType": "uint256",
          "name": "amount",
          "type": "uint256"
        }
      ],
      "name": "withdrawFunds",
      "outputs": [],
      "stateMutability": "nonpayable",
      "type": "function"
    },
    {
      "stateMutability": "payable",
      "type": "receive"
    }
  ],
  "bytecode": "0x608034620002e6576040908082016001600160401b03811182821017620002d0578252600581526020809101640312e302e360dc1b815260ff1990600190828254168255816002556004548281811c91168015620002c5575b85821014620002af57601f81116200027d575b50516001600160d81b031916600a17600455600080805280845284812033825284528490205460ff161562000242575b7fa49807205ce4d355092ef5a8a18f56e8913cf4a201fbe287825b095693c2177580600052600084528460002033600052845260ff8560002054161562000205575b5060fa600e553360018060a01b0319600f541617600f557f8f882e9b3b0c043c8507802fbb9a0ed808c8f0587361ab18424493e6841512a880600052600084528460002033600052845260ff85600020541615620001c8575b507faabecfdf6c789f9fb8a93bd3a33e66be61c9d95c3d88fbe57f4acd20b6d738f89283600052600081528460002033600052815260ff8560002054161562000189575b845161495d9081620002ec8239f35b83600052600081528460002090336000525283600020918254161790553390339060008051602062004c49833981519152600080a4388080806200017a565b8060005260008452846000203360005284528460002082848254161790553390339060008051602062004c49833981519152600080a43862000136565b8060005260008452846000203360005284528460002082848254161790553390339060008051602062004c49833981519152600080a438620000dd565b6000805260008352836000203360005283528360002081838254161790553333600060008051602062004c498339815191528180a46200009b565b600460005282601f86600020920160051c8201915b828110620002a25750506200006b565b6000815501839062000292565b634e487b7160e01b600052602260045260246000fd5b90607f169062000058565b634e487b7160e01b600052604160045260246000fd5b600080fdfe608080604052600436101561001d575b50361561001b57600080fd5b005b60003560e01c90816301ffc9a71461343857508063132bb2681461327e5780631c70a9fb14612c7a57806320746f6114612be8578063248a9ca314612bb95780632604d6bf14612b5e5780632f2ff15d14612abd57806332be9ebc14612a9757806336568abe14612a05578063392e53cd146129df5780633da6e61e146129855780633f4ba83a1461291f5780634a4e3bd51461287557806351858e271461283e57806354fd4d501461275c578063563ffcba1461271557806357bbcd651461225c5780635b5eedf1146120f25780635c975abb146120cf5780635cf27a37146120a35780635d044b7e14611f055780636693643f14611df35780636caa921814611dd557806375b238fc14611d9a5780637b10399914611d715780637b75083c14611d485780637fa6345614611c5a5780638456cb5914611bf357806391d1485414611ba6578063992daefc146119ec5780639c7c270c146119bf578063a1308f2714611984578063a217fddf14611968578063aa7318aa14611912578063aeb37e9b1461184b578063b13aa2d614611809578063b8ca3b83146117ec578063c4d66de8146114f3578063c7fe4e54146114b8578063cabe045214611158578063d547741f14611119578063dd6f4ff214610c5a578063dfd9ff7814610c19578063e1f1c4a714610bfc578063e394b48f1461045e578063e521cb92146103dd578063e63ea408146103a8578063ebf8a3e61461032e578063f5b541a6146102f3578063f7fab94f146102d55763fcec9eca1461025b573861000f565b346102d0576020806003193601126102d0576004356000526007815261028460406000206147a9565b906040519181839283018184528251809152816040850193019160005b8281106102b057505050500390f35b83516001600160a01b0316855286955093810193928101926001016102a1565b600080fd5b346102d05760003660031901126102d0576020600e54604051908152f35b346102d05760003660031901126102d05760206040517f97667070c54ef182b0f5858b034beac1b6f3089aa2d3188bb1e8929f4fa9b9298152f35b346102d05760003660031901126102d0576003546001600160a01b03811633036103965760a01c60ff1615610384577fa866f3901ec84758a10f30e8953c3818eef73da93dfa46cb6aa5b726fb65813f600080a1005b604051633165f6e960e21b8152600490fd5b6040516310f5403960e31b8152600490fd5b346102d05760603660031901126102d05761001b6103c46134a1565b6103cc61348b565b6103d4613653565b604435916145fc565b346102d05760203660031901126102d0576103f66134a1565b6103fe61386a565b6001600160a01b03168015610425576001600160601b0360a01b600f541617600f55600080f35b60405162461bcd60e51b8152602060048201526011602482015270125b9d985b1a59081c9958da5c1a595b9d607a1b6044820152606490fd5b346102d0576003196060368201126102d0576104786134a1565b906044356001600160401b0381116102d057610140809282360301126102d0576040519182018281106001600160401b03821117610a035760405280600401356001600160401b0381116102d0576104d6906004369184010161356f565b825260248101356001600160401b0381116102d0576104fb906004369184010161356f565b602083015260448101356001600160401b0381116102d057610523906004369184010161356f565b6040830152606481013560068110156102d05760608301526084810135906001600160a01b03821682036102d05761012491608084015260a481013560a084015260c481013560c084015260e481013560e0840152610104810135610100840152013580151581036102d05761012082015260ff60035460a01c1615610384576105ab613d2e565b6105b3613e6c565b6105be60243561466f565b80515115610bb95760a08101518015908115610bed575b8115610bcb575b50610bb95761010081015115610bb957805190600d549161061e61062c61060285613d91565b9485600d55604051928391602083019542908a60243589613da0565b03601f198101835282613533565b519020600081815260056020526040902092835560243560018401556002830180546001600160a01b0386166001600160a01b03199182168117909255600385018054909116909117905581518051919391906001600160401b038211610a0357819061069c6004850154613c5e565b601f8111610b66575b50602090601f8311600114610af457600092610ae9575b50508160011b916000199060031b1c19161760048201555b60208201518051906001600160401b038211610a035781906106f96005850154613c5e565b601f8111610a96575b50602090601f8311600114610a2457600092610a19575b50508160011b916000199060031b1c19161760058201555b60408201518051906001600160401b038211610a035781906107566006850154613c5e565b601f81116109b0575b50602090601f831160011461093e57600092610933575b50508160011b916000199060031b1c19161760068201555b6060820151600681101561091d576107d8906107ae600784019182613de0565b80546080850151610100600160b01b031990911660109190911b62010000600160b01b0316179055565b60a0820151600882015560c0820151600982015560e0820151600a8201556000600b8201556000600c820155600d81019142835561081b61010082015142613b1c565b91600e810192835542600f82015542601082015561084f6101208301511515601183019060ff801983541691151516179055565b6012600e5491015561086084613ed8565b50602435600052600960205261087a846040600020613f70565b5060008052600a6020526108ae847f13da86008ba1c6922daee3e07db95305ef49ebced9f5467a0b8613fcc6b343e3613f70565b508051606082015192600684101561091d5760209661090d7fc71ac21b2a699cddbf7f51ffe980372597f9d3e886898f08350ff9b57e4aec119360a0899601519754935460405194859460018060a01b03169960243599429487613e30565b0390a46001600255604051908152f35b634e487b7160e01b600052602160045260246000fd5b015190508680610776565b9250600684016000526020600020906000935b601f1984168510610995576001945083601f1981161061097c575b505050811b01600682015561078e565b015160001960f88460031b161c1916905586808061096c565b81810151835560209485019460019093019290910190610951565b909150600684016000526020600020601f840160051c8101602085106109fc575b90849392915b601f830160051c820181106109ed57505061075f565b600081558594506001016109d7565b50806109d1565b634e487b7160e01b600052604160045260246000fd5b015190508680610719565b9250600584016000526020600020906000935b601f1984168510610a7b576001945083601f19811610610a62575b505050811b016005820155610731565b015160001960f88460031b161c19169055868080610a52565b81810151835560209485019460019093019290910190610a37565b909150600584016000526020600020601f840160051c810160208510610ae2575b90849392915b601f830160051c82018110610ad3575050610702565b60008155859450600101610abd565b5080610ab7565b0151905086806106bc565b9250600484016000526020600020906000935b601f1984168510610b4b576001945083601f19811610610b32575b505050811b0160048201556106d4565b015160001960f88460031b161c19169055868080610b22565b81810151835560209485019460019093019290910190610b07565b909150600484016000526020600020601f840160051c810160208510610bb2575b90849392915b601f830160051c82018110610ba35750506106a5565b60008155859450600101610b8d565b5080610b87565b6040516306ac19c760e31b8152600490fd5b60e0830151801515925082610be3575b5050836105dc565b1090508380610bdb565b80915060c083015111906105d5565b346102d05760003660031901126102d05760206040516127108152f35b346102d05760203660031901126102d05760043560078110156102d057610c4a610c45610c5692613e17565b6147a9565b604051918291826135fe565b0390f35b60603660031901126102d05760246004356001600160401b0382356044358281116102d057610c8d90369060040161356f565b9360ff60035460a01c161561038457610ca4613d2e565b610cac613e6c565b8360005260206005815260406000209360018060a01b0396876002870154161561110157600786019182549860ff8a60081c169960078b10156110ec5760019a8b81141590816110e2575b506110ca57600e8901544210156110b257871561109a57600a89015480151580611084575b6110585750879060101c8216806110425750340361102a576004905b89600052600686526040600020336000528652604060002090815490811615610fde575b508a8101610d6b898254613b1c565b905542600282015501918051918211610fc9578190610d8a8454613c5e565b601f8111610f76575b508590601f8311600114610f1357600092610f08575b5050600019600383901b1c191690891b1790555b600b850192610dcd858554613b1c565b845542601087015560ff825460081c16906007821015610ef457509086929115610e79575b5050505490837f6a1373fa7ba1bec3888b21f58e5f2a681e0ed2e5b7db7c0a174fa8467e64af1860405180610e3c3395874291846040919493926060820195825260208201520152565b0390a360ff6011830154169182610e6a575b5050610e5b575b50600255005b610e64906143f5565b81610e55565b60080154111590508380610e4e565b7fa501447e21b5d0bd78344e62b02b2e1c935dbbc23f482a95170d08a44d63b2979160609160008052600a8252610eb48560406000206140e4565b5061010061ff001982541617905588600052600a8152610ed8846040600020613f70565b50886040519160008352820152426040820152a2838680610df2565b634e487b7160e01b60009081526021600452fd5b015190508a80610da9565b908b9350601f1983169185600052876000209260005b89828210610f605750508411610f47575b505050811b019055610dbd565b015160001960f88460031b161c191690558a8080610f3a565b8385015186558f97909501949384019301610f29565b9091508360005285600020601f840160051c810191878510610fbf575b84939291601f8e920160051c01915b828110610fb0575050610d93565b600081558594508d9101610fa2565b9091508190610f93565b85634e487b7160e01b60005260416004526000fd5b33906001600160601b0360a01b16178155600381018b60ff198254161790558960005260078652611013336040600020613f70565b50600c89016110228154613d91565b90558b610d5c565b6040516347a1896d60e11b8152600481018890528690fd5b6004929161105391309033906141d4565b610d38565b888861106b604493600b8e0154906140d7565b90604051926336f816b160e01b84526004840152820152fd5b50806110948a600b8d0154613b1c565b11610d1c565b6040516347a1896d60e11b8152600481018990528790fd5b6040516316c9bba560e31b8152600481018b90528790fd5b60405163ef78d6ef60e01b8152600481018b90528790fd5b905015158c610cf7565b86634e487b7160e01b60005260216004526000fd5b60405163ce1befcb60e01b8152600481018890528490fd5b346102d05760403660031901126102d05761001b60043561113861348b565b9080600052600060205261115360016040600020015461398b565b613a95565b346102d05760203660031901126102d057600061028060405161117a816134fc565b82815282602082015282604082015282606082015260606080820152606060a0820152606060c08201528260e08201528261010082015282610120820152826101408201528261016082015282610180820152826101a0820152826101c0820152826101e0820152826102008201528261022082015282610240820152826102608201520152600435600052600560205260406000206040519061121d826134fc565b805482526001810154602083015260028101546001600160a01b03908116604080850191909152600383015490911660608401525161126a816112638160048601613c98565b0382613533565b6080830152604051611283816112638160058601613c98565b60a083015260405161129c816112638160068601613c98565b60c0830152600781015490600660ff8316101561091d5760ff821660e0840152600760ff8360081c16101561091d578160ff60129360081c1661010085015260018060a01b039060101c1661012084015260088101546101408401526009810154610160840152600a810154610180840152600b8101546101a0840152600c8101546101c0840152600d8101546101e0840152600e810154610200840152600f810154610220840152601081015461024084015260ff60118201541615156102608401520154610280820152604051809160208252805160208301526020810151604083015260018060a01b03604082015116606083015260018060a01b0360608201511660808301526102806113f86113c760808401516102a060a08701526102c08601906135d9565b6113e360a085015191601f1992838883030160c08901526135d9565b9060c0850151908683030160e08701526135d9565b9161140c60e0820151610100860190613639565b611420610100820151610120860190613646565b60018060a01b03610120820151166101408501526101408101516101608501526101608101516101808501526101808101516101a08501526101a08101516101c08501526101c08101516101e08501526101e081015161020085015261020081015161022085015261022081015161024085015261024081015161026085015261026081015115158285015201516102a08301520390f35b346102d05760003660031901126102d05760206040517faabecfdf6c789f9fb8a93bd3a33e66be61c9d95c3d88fbe57f4acd20b6d738f88152f35b346102d0576020806003193601126102d05761150d6134a1565b906003549160ff8360a01c166117da576001600160a01b039081169283156117c8576001600160a81b0319168317600160a01b176003557fa49807205ce4d355092ef5a8a18f56e8913cf4a201fbe287825b095693c2177560008181528084526040808220868352855290205460ff1615611789575b507f97667070c54ef182b0f5858b034beac1b6f3089aa2d3188bb1e8929f4fa9b9298060005260008352604060002084600052835260ff604060002054161561174a575b50604051637b10399960e01b8152908282600481305afa91821561173e5760009261170f575b50600080516020614908833981519152908160005260008452604060002092169182600052835260ff60406000205416156116d0575b507faabecfdf6c789f9fb8a93bd3a33e66be61c9d95c3d88fbe57f4acd20b6d738f8918260005260008152604060002082600052815260ff6040600020541615611690575b837f27b541a16df0902e262f34789782092ab25125513b8ed73608e802951771b928600080a2005b826000526000815260406000209082600052526040600020600160ff1982541617905533916000805160206148c8833981519152600080a4818080611668565b806000526000835260406000208260005283526040600020600160ff198254161790558133916000805160206148c8833981519152600080a483611623565b611730919250833d8511611737575b6117288183613533565b810190613d72565b90846115ed565b503d61171e565b6040513d6000823e3d90fd5b806000526000835260406000208460005283526040600020600160ff198254161790558333916000805160206148c8833981519152600080a4836115c7565b806000526000835260406000208460005283526040600020600160ff198254161790558333916000805160206148c8833981519152600080a483611583565b604051637bfd2e8360e01b8152600490fd5b604051637396742f60e11b8152600490fd5b346102d05760003660031901126102d05760206040516103e88152f35b346102d05760203660031901126102d05760043561182561386a565b6103e8811161183357600e55005b6024906040519063660d83e960e11b82526004820152fd5b346102d05760403660031901126102d05761186461348b565b50600435600090815260056020526040902060028101546001600160a01b03161515806118db575b602091816118cd575b816118a6575b506040519015158152f35b9050600a81015480159182156118bf575b50508261189b565b600b015410905082806118b7565b600e81015442109150611895565b5060ff600782015460081c1690600782101561091d5781600160209314908115611909575b5090915061188c565b90501583611900565b346102d05760003660031901126102d0576003546001600160a01b03811633036103965760a01c60ff1615610384577f6dff2fe8fbb5b23bf0583bf5b2157ff62ca7e27f2fb4f404914cd0c205ced5cc600080a1005b346102d05760003660031901126102d057602060405160008152f35b346102d05760003660031901126102d05760206040517f84d20104310cb32261c684fea2f6a24da76255f470d709e28f6b2c9da16e9a3e8152f35b346102d05760203660031901126102d05760206127106119e3600e54600435613b09565b04604051908152f35b346102d05760403660031901126102d057600435611a0861348b565b9060ff60035460a01c161561038457611a1f613d2e565b611a27613e6c565b600081815260056020526040902060028101546001600160a01b03939190841615611b8d576007019060ff825460081c16600781101561091d5760048114159081611b81575b50611b685782600052600660205260406000209380821694856000526020526040600020928184541615611b40576003840180549460ff8616600481101561091d57600214611b145793600293611b019360007fd9659c675462e26e5353cfc2a816f73cfe5c8e02041fbbb2fba7aa704c76567f989460016040990190815498899760ff1916179055555460101c166145fc565b8151908152426020820152a36001600255005b6040516364baa58f60e01b8152600481018890526001600160a01b0386166024820152604490fd5b0390fd5b6040516305cf19fb60e51b8152600481018690526001600160a01b0384166024820152604490fd5b60405163ef78d6ef60e01b815260048101849052602490fd5b60069150141585611a6d565b60405163ce1befcb60e01b815260048101849052602490fd5b346102d05760403660031901126102d057611bbf61348b565b600435600052600060205260406000209060018060a01b0316600052602052602060ff604060002054166040519015158152f35b346102d05760003660031901126102d057611c0c613653565b60ff60035460a01c161561038457611c22613d2e565b600160ff19815416176001557f62e78cea01bee320cd4e420270b5ea74000d11b0c9f74754ebdbfc544b05a2586020604051338152a1005b346102d05760203660031901126102d05760043560ff60035460a01c161561038457611c84613d2e565b611c8c613e6c565b600081815260056020526040902060028101546001600160a01b039081168015611d2f573314159182611d1d575b505080611cf6575b611cd657611ccf906143f5565b6001600255005b60405163d007ec9360e01b81526004810191909152336024820152604490fd5b503360009081526000805160206148e8833981519152602052604090205460ff1615611cc2565b60039192500154163314158280611cba565b60405163ce1befcb60e01b815260048101859052602490fd5b346102d05760003660031901126102d05760206040516000805160206149088339815191528152f35b346102d05760003660031901126102d0576003546040516001600160a01b039091168152602090f35b346102d05760003660031901126102d05760206040517fa49807205ce4d355092ef5a8a18f56e8913cf4a201fbe287825b095693c217758152f35b346102d05760003660031901126102d0576020600b54604051908152f35b346102d05760403660031901126102d057611e0c61348b565b60405190611e19826134e1565b600082526060608060209360008582015260006040820152600083820152015260043560005260068252604060002060018060a01b03809216600052825260406000209060405192611e6a846134e1565b81835416845260018301548185019081526002840154916040860192835260ff600386015416936060870194600481101561091d57600496611ebf918752611eb86040518099819301613c98565b0387613533565b608087019586526040519682885251169086015251604085015251606084015251600481101561091d578291610c569160808401525160a08084015260c08301906135d9565b346102d05760403660031901126102d057600435611f2161348b565b60ff60035460a01c161561038457611f37613d2e565b611f3f613e6c565b816000526020906005825260406000209260018060a01b0390816002860154161561208b5780600052600684526040600020336000528452604060002094828654161561206c5781600052600885526040600020938381169485600052865260406000209384541615612042575060038301913360005282865260406000205461201e57506003928692611ff0600293600b611fe76001611ccf9c0154600187015490613b09565b9101549061458d565b9633600052528560406000205501612009858254613b1c565b905501805460ff1916600317905533906145ad565b6064908560405191633d6c53f760e21b835260048301523360248301526044820152fd5b60405163d67bb84560e01b8152600481018490526001600160a01b03919091166024820152604490fd5b6040516305cf19fb60e51b815260048101839052336024820152604490fd5b6024906040519063ce1befcb60e01b82526004820152fd5b346102d05760203660031901126102d0576004356000526009602052610c56610c4a60406000206147a9565b346102d05760003660031901126102d057602060ff600154166040519015158152f35b346102d057612100366134b7565b9060ff60035460a01c161561038457612117613d2e565b61211f613e6c565b600083815260056020526040902060028101546001600160a01b039190821680156122435733141580612233575b8061220c575b6121ed5760078101549460ff8660081c16600781101561091d57600381141590816121e1575b506121c95750600b61219d910154612710612196600e5483613b09565b04906140d7565b83116121b057611ccf9360101c166145fc565b6040516347a1896d60e11b815260048101849052602490fd5b6024906040519063ef78d6ef60e01b82526004820152fd5b60069150141587612179565b60405163d007ec9360e01b815260048101869052336024820152604490fd5b503360009081526000805160206148e8833981519152602052604090205460ff1615612153565b508160038201541633141561214d565b60405163ce1befcb60e01b815260048101879052602490fd5b346102d05760e03660031901126102d0576001600160401b036024358181116102d05761228d90369060040161356f565b906044358181116102d0576122a690369060040161356f565b60039260ff845460a01c1615610384576122be613d2e565b600435928360005260059260209184835260406000209360018060a01b038060028701541680156126fc5733141590816126ec575b50806126bb575b61269c5760ff600786015460081c16600781101561091d5760061461269c57805180612592575b505081519081612445575b5050507f2d861976db5536e53826be5f92e32db2e49dd12c40c783feeb5413c7f8445ef293945060643580151580612439575b80612418575b6123fd575b5060c435428111806123f0575b6123e5575b504260108301556008820154906009830154600a840154906123c5600e8601549360405197889760e089526123b760e08a0160048301613c98565b92898403908a015201613c98565b9360408601526060850152608084015260a08301524260c08301520390a2005b600e8301558561237c565b50600d8301548111612377565b6008830155608435600983015560a435600a8301558561236a565b5060a43581811591821561242e575b5050612365565b101590508188612427565b5080608435111561235f565b8111610a0357848401916124598354613c5e565b601f8111612550575b508390601f83116001146124c5579782917f2d861976db5536e53826be5f92e32db2e49dd12c40c783feeb5413c7f8445ef298996000936124ba575b50508260011b92600019911b1c19161790555b8493868061232c565b01519150898061249e565b978360005284600020916000601f198516905b8181106125395750907f2d861976db5536e53826be5f92e32db2e49dd12c40c783feeb5413c7f8445ef2999a856001969594931061251f575b50505050811b0190556124b1565b01519060f884600019921b161c1916905588808080612511565b91938760018192878f0151815501950192016124d8565b8360005284600020601f8401881c810186851061258b575b601f909201881c01905b81811061257f5750612462565b60008155600101612572565b5080612568565b828111610a03578060048701926125a98454613c5e565b601f8111612652575b508690601f83116001146125ee576000926125e3575b50508160011b91600019908b1b1c19161790555b8780612321565b015190508a806125c8565b60008581528881209350601f198516905b8982821061263c575050908460019594939210612624575b505050811b0190556125dc565b0151600019838d1b60f8161c191690558a8080612617565b60018596829396860151815501950193016125ff565b9091508360005286600020601f84018a1c8101888510612695575b90601f859493018b1c01905b81811061268657506125b2565b60008155849350600101612679565b508061266d565b60405163d007ec9360e01b815260048101889052336024820152604490fd5b5060008051602061490883398151915260005260008452604060002033600052845260ff60406000205416156122fa565b90508886015416331415896122f3565b60405163ce1befcb60e01b8152600481018a9052602490fd5b346102d05760403660031901126102d05760243560078110156102d05761273a61386a565b60ff60035460a01c16156103845761001b90612754613d2e565b600435613ff5565b346102d05760003660031901126102d057604051600060045461277e81613c5e565b8084529060019081811690811561281757506001146127bc575b610c56846127a881860382613533565b6040519182916020835260208301906135d9565b6004600090815292507f8a35acfbc15ff81a39ae7d344fd709f28e8600b4aa8c65c6b64bfe7fe36bd19b5b8284106127ff5750505081016020016127a882612798565b805460208587018101919091529093019281016127e7565b60ff191660208087019190915292151560051b850190920192506127a89150839050612798565b346102d05760003660031901126102d0576003546001600160a01b03811633036103965760a01c60ff161561038457611c22613d2e565b346102d05760003660031901126102d0576003546001600160a01b03811633036103965760a01c60ff16156103845760015460ff8116156128e35760ff19166001557f5db9ee0a495bf2e6ff9c91a7834c1ba4fdd244a5e8aa4e537bd38aeae4b073aa6020604051338152a1005b60405162461bcd60e51b815260206004820152601460248201527314185d5cd8589b194e881b9bdd081c185d5cd95960621b6044820152606490fd5b346102d05760003660031901126102d057612938613653565b60ff60035460a01c16156103845760015460ff8116156128e35760ff19166001557f5db9ee0a495bf2e6ff9c91a7834c1ba4fdd244a5e8aa4e537bd38aeae4b073aa6020604051338152a1005b346102d05760603660031901126102d05761299e61348b565b604435906001600160a01b03821682036102d057610c56916129c291600435614825565b604080519384526020840192909252908201529081906060820190565b346102d05760003660031901126102d057602060ff60035460a01c166040519015158152f35b346102d05760403660031901126102d057612a1e61348b565b336001600160a01b03821603612a3a5761001b90600435613a95565b60405162461bcd60e51b815260206004820152602f60248201527f416363657373436f6e74726f6c3a2063616e206f6e6c792072656e6f756e636560448201526e103937b632b9903337b91039b2b63360891b6064820152608490fd5b346102d05760203660031901126102d0576020612ab56004356147f8565b604051908152f35b346102d05760403660031901126102d057600435612ad961348b565b816000526000602052612af360016040600020015461398b565b81600052600060205260406000209060018060a01b0316908160005260205260ff6040600020541615612b2257005b8160005260006020526040600020816000526020526040600020600160ff1982541617905533916000805160206148c8833981519152600080a4005b346102d05760203660031901126102d0576004356000526005602052604060002060ff600782015460081c1690600782101561091d576001602092149081612bab57506040519015158152f35b600e9150015442108261189b565b346102d05760203660031901126102d05760043560005260006020526020600160406000200154604051908152f35b346102d05760203660031901126102d057600435600052600560205260406000206008600b82015491015490811515600014612c70576064810281810460641482151715612c5a57612c3d83610c569261458d565b604051938493846040919493926060820195825260208201520152565b634e487b7160e01b600052601160045260246000fd5b610c566000612c3d565b346102d0576101603660031901126102d0576024356001600160401b0381116102d057612cab90369060040161356f565b6044356001600160401b0381116102d057612cca90369060040161356f565b6064356001600160401b0381116102d057612ce990369060040161356f565b91600660843510156102d05760a4356001600160a01b03811690036102d05761014435151561014435036102d05760ff60035460a01c161561038457612d2d613d2e565b612d35613e6c565b612d4060043561466f565b805115610bb95760c435158015613271575b8015613250575b610bb9576101243515610bb957600d54612d7281613d91565b9081600d55604051612d928161061e602082019442883360043589613da0565b5190209283600052600560205260406000209182556004356001830155600282016001600160601b0360a01b9033828254161790556003830190339082541617905582516001600160401b038111610a0357612df16004840154613c5e565b601f8111613209575b50806020601f821160011461319c57600091613191575b508160011b916000199060031b1c19161760048301555b8051906001600160401b038211610a03578190612e486005850154613c5e565b601f811161313e575b50602090601f83116001146130cc576000926130c1575b50508160011b916000199060031b1c19161760058201555b83516001600160401b038111610a0357612e9d6006830154613c5e565b601f811161307a575b50806020958690601f831160011461300b57600092613000575b50508160011b916000199060031b1c19161760068201555b612f0e60078201612eeb60843582613de0565b8054610100600160b01b03191660a43560101b62010000600160b01b0316179055565b60c435600882015560e435600982015561010435600a8201556000600b8201556000600c820155827fc71ac21b2a699cddbf7f51ffe980372597f9d3e886898f08350ff9b57e4aec1161090d600d8401428155612f6e6101243542613b1c565b94600e810195865542600f820155426010820155612f9e61014435601183019060ff801983541691151516179055565b6012600e54910155612faf84613ed8565b5060043560005260098852612fc8846040600020613f70565b5060008052600a8852612fdf846040600020613f70565b5054935494604051918291339760043597429260c435906084359087613e30565b015190508680612ec0565b92506006840160005286600020906000935b601f1984168510613061576001945083601f19811610613048575b505050811b016006820155612ed8565b015160001960f88460031b161c19169055868080613038565b818101518355938801936001909201919088019061301d565b600683016000526020600020601f830160051c8101602084106130ba575b601f830160051c820181106130ae575050612ea6565b60008155600101613098565b5080613098565b015190508680612e68565b9250600584016000526020600020906000935b601f1984168510613123576001945083601f1981161061310a575b505050811b016005820155612e80565b015160001960f88460031b161c191690558680806130fa565b818101518355602094850194600190930192909101906130df565b909150600584016000526020600020601f840160051c81016020851061318a575b90849392915b601f830160051c8201811061317b575050612e51565b60008155859450600101613165565b508061315f565b905084015187612e11565b91506004840160005260206000206000925b601f19831684106131f1576001935082601f198116106131d8575b5050811b016004830155612e28565b86015160001960f88460031b161c1916905587806131c9565b868101518255602093840193600190920191016131ae565b600484016000526020600020601f830160051c810160208410613249575b601f830160051c8201811061323d575050612dfa565b60008155600101613227565b5080613227565b50610104358015159081613265575b50612d59565b905060c435118461325f565b5060c43560e43511612d52565b346102d05761328c366134b7565b60ff60039392935460a01c1615610384576132a5613d2e565b6132ad613e6c565b6000828152600560205260409020600281015490936001600160a01b03918216801561341f573314158061340f575b806133e8575b6133c95760ff600786015460081c16600781101561091d57600381141590816133bd575b506133a4577fa2be304a31c5194b71cd99f0ee865ff9ca0b8b8266efeab33a5a78d3cdf9a0999291600c91169461333f833033896141d4565b8460005260086020526040600020866000526020526000600260408220886001600160601b0360a01b8254161781558560018201550155015461339a6040519283924291846040919493926060820195825260208201520152565b0390a36001600255005b60405163ef78d6ef60e01b815260048101859052602490fd5b60069150141586613306565b60405163d007ec9360e01b815260048101859052336024820152604490fd5b503360009081526000805160206148e8833981519152602052604090205460ff16156132e2565b50816003860154163314156132dc565b60405163ce1befcb60e01b815260048101869052602490fd5b346102d05760203660031901126102d0576004359063ffffffff60e01b82168092036102d057602091637965db0b60e01b811490811561347a575b5015158152f35b6301ffc9a760e01b14905083613473565b602435906001600160a01b03821682036102d057565b600435906001600160a01b03821682036102d057565b60609060031901126102d057600435906024356001600160a01b03811681036102d0579060443590565b60a081019081106001600160401b03821117610a0357604052565b6102a081019081106001600160401b03821117610a0357604052565b608081019081106001600160401b03821117610a0357604052565b90601f801991011681019081106001600160401b03821117610a0357604052565b6001600160401b038111610a0357601f01601f191660200190565b81601f820112156102d05780359061358682613554565b926135946040519485613533565b828452602083830101116102d057816000926020809301838601378301015290565b60005b8381106135c95750506000910152565b81810151838201526020016135b9565b906020916135f2815180928185528580860191016135b6565b601f01601f1916010190565b6020908160408183019282815285518094520193019160005b828110613625575050505090565b835185529381019392810192600101613617565b90600682101561091d5752565b90600782101561091d5752565b3360009081527f7d7ffb7a348e1c6a02869081a26547b49160dd3df72d1d75a570eb9b698292ec602090815260408083205490927fa49807205ce4d355092ef5a8a18f56e8913cf4a201fbe287825b095693c217759160ff16156136b75750505050565b6136c033613b50565b918451906136cd82613518565b6042825284820192606036853782511561385657603084538251906001918210156138565790607860218501536041915b8183116137e8575050506137a6576048611b3c93869361378a9361377b985198899376020b1b1b2b9b9a1b7b73a3937b61d1030b1b1b7bab73a1604d1b8a860152613752815180928c6037890191016135b6565b8401917001034b99036b4b9b9b4b733903937b6329607d1b6037840152518093868401906135b6565b01036028810187520185613533565b5192839262461bcd60e51b8452600484015260248301906135d9565b60648486519062461bcd60e51b825280600483015260248201527f537472696e67733a20686578206c656e67746820696e73756666696369656e746044820152fd5b909192600f81166010811015613842576f181899199a1a9b1b9c1cb0b131b232b360811b901a6138188587613b29565b5360041c92801561382e576000190191906136fe565b634e487b7160e01b82526011600452602482fd5b634e487b7160e01b83526032600452602483fd5b634e487b7160e01b81526032600452602490fd5b3360009081526000805160206148e8833981519152602090815260408083205490926000805160206149088339815191529160ff16156138aa5750505050565b6138b333613b50565b918451906138c082613518565b6042825284820192606036853782511561385657603084538251906001918210156138565790607860218501536041915b818311613945575050506137a6576048611b3c93869361378a9361377b985198899376020b1b1b2b9b9a1b7b73a3937b61d1030b1b1b7bab73a1604d1b8a860152613752815180928c6037890191016135b6565b909192600f81166010811015613842576f181899199a1a9b1b9c1cb0b131b232b360811b901a6139758587613b29565b5360041c92801561382e576000190191906138f1565b600090808252602090828252604092838120338252835260ff8482205416156139b45750505050565b6139bd33613b50565b918451906139ca82613518565b6042825284820192606036853782511561385657603084538251906001918210156138565790607860218501536041915b818311613a4f575050506137a6576048611b3c93869361378a9361377b985198899376020b1b1b2b9b9a1b7b73a3937b61d1030b1b1b7bab73a1604d1b8a860152613752815180928c6037890191016135b6565b909192600f81166010811015613842576f181899199a1a9b1b9c1cb0b131b232b360811b901a613a7f8587613b29565b5360041c92801561382e576000190191906139fb565b9060009180835282602052604083209160018060a01b03169182845260205260ff604084205416613ac557505050565b80835282602052604083208284526020526040832060ff1981541690557ff6391f5c32d9c69d2a47ea670b442974b53935d1edc7fd64eb21e047a839171b339380a4565b81810292918115918404141715612c5a57565b91908201809211612c5a57565b908151811015613b3a570160200190565b634e487b7160e01b600052603260045260246000fd5b60405190606082018281106001600160401b03821117610a0357604052602a8252602082016040368237825115613b3a57603090538151600190811015613b3a57607860218401536029905b808211613bf0575050613bac5790565b606460405162461bcd60e51b815260206004820152602060248201527f537472696e67733a20686578206c656e67746820696e73756666696369656e746044820152fd5b9091600f81166010811015613c49576f181899199a1a9b1b9c1cb0b131b232b360811b901a613c1f8486613b29565b5360041c918015613c34576000190190613b9c565b60246000634e487b7160e01b81526011600452fd5b60246000634e487b7160e01b81526032600452fd5b90600182811c92168015613c8e575b6020831014613c7857565b634e487b7160e01b600052602260045260246000fd5b91607f1691613c6d565b9060009291805491613ca983613c5e565b918282526001938481169081600014613d0b5750600114613ccb575b50505050565b90919394506000526020928360002092846000945b838610613cf7575050505001019038808080613cc5565b805485870183015294019385908201613ce0565b9294505050602093945060ff191683830152151560051b01019038808080613cc5565b60ff60015416613d3a57565b60405162461bcd60e51b815260206004820152601060248201526f14185d5cd8589b194e881c185d5cd95960821b6044820152606490fd5b908160209103126102d057516001600160a01b03811681036102d05790565b6000198114612c5a5760010190565b9091607495939282526001600160601b03199060601b166020820152613dd08251809360206034850191016135b6565b0191603483015260548201520190565b90600681101561091d5760ff80198354169116179055565b90600781101561091d5761ff0082549160081b169061ff001916179055565b600781101561091d57600052600a602052604060002090565b92613e59613e4e60a09693999897949960c0875260c08701906135d9565b986020860190613639565b6040840152606083015260808201520152565b6002805414613e7b5760028055565b60405162461bcd60e51b815260206004820152601f60248201527f5265656e7472616e637947756172643a207265656e7472616e742063616c6c006044820152606490fd5b8054821015613b3a5760005260206000200190600090565b6000818152600c6020526040812054613f6b57600b54600160401b811015613f57576001810180600b55811015613f435790826040927f0175b7a638427703f0dbe7bb9bbf987a2551717b34e79f33b5b1008d1fa01db90155600b54928152600c6020522055600190565b634e487b7160e01b82526032600452602482fd5b634e487b7160e01b82526041600452602482fd5b905090565b91906001830160009082825280602052604082205415600014613fef57845494600160401b861015613fdb5783613fcb613fb4886001604098999a01855584613ec0565b819391549060031b91821b91600019901b19161790565b9055549382526020522055600190565b634e487b7160e01b83526041600452602483fd5b50925050565b9060008281526005602052604081209060018060a01b0360028301541615611d2f576007820160ff815460081c169160078510156140c35760078310156140c357508382146140bc57836060936140837fa501447e21b5d0bd78344e62b02b2e1c935dbbc23f482a95170d08a44d63b297966140b39461407d8a61407889613e17565b6140e4565b50613df8565b60104291015561409b8661409683613e17565b613f70565b506140a96040518094613646565b6020830190613646565b426040820152a2565b5050505050565b634e487b7160e01b81526021600452602490fd5b91908203918211612c5a57565b906001820190600092818452826020526040842054908115156000146141cd57600019918083018181116141b9578254908482019182116141a557808203614170575b5050508054801561415c5782019161413f8383613ec0565b909182549160031b1b191690555582526020526040812055600190565b634e487b7160e01b86526031600452602486fd5b614190614180613fb49386613ec0565b90549060031b1c92839286613ec0565b90558652846020526040862055388080614127565b634e487b7160e01b88526011600452602488fd5b634e487b7160e01b87526011600452602487fd5b5050505090565b6040516323b872dd60e01b60208201526001600160a01b03928316602482015292909116604483015260648083019390935291815261421b91614216826134e1565b614235565b565b908160209103126102d0575180151581036102d05790565b60408051908101916001600160a01b03166001600160401b03831182841017610a03576142a4926040526000806020958685527f5361666545524332303a206c6f772d6c6576656c2063616c6c206661696c656487860152868151910182855af161429e61432c565b9161435c565b805190828215928315614314575b505050156142bd5750565b6084906040519062461bcd60e51b82526004820152602a60248201527f5361666545524332303a204552433230206f7065726174696f6e20646964206e6044820152691bdd081cdd58d8d9595960b21b6064820152fd5b614324935082018101910161421d565b3882816142b2565b3d15614357573d9061433d82613554565b9161434b6040519384613533565b82523d6000602084013e565b606090565b919290156143be5750815115614370575090565b3b156143795790565b60405162461bcd60e51b815260206004820152601d60248201527f416464726573733a2063616c6c20746f206e6f6e2d636f6e74726163740000006044820152606490fd5b8251909150156143d15750805190602001fd5b60405162461bcd60e51b815260206004820152908190611b3c9060248301906135d9565b600081815260056020526040808220600b810180546009830154929695949211614585576003955b60078101916144368661407860ff865460081c16613e17565b506144418884613df8565b426010830155614454866140968a613e17565b5060078810156145715761407888877fe7120a43929c8f69eb64bf66c6587ec5a44dfa34cea30f8fe0901b2e5420339460806144c796600c84976144e49e9f60031480614567575b6144e7575b549101548b51916144b28388613646565b60208301528b820152426060820152a2613e17565b50805461ff00191661060017905560068152600a60205220613f70565b50565b8c868c6127106144fb8554600e5490613b09565b04928361450c575b505050506144a1565b7f7776690236117f905ebcaa326163aab8f1f85e1ff05bcac29e6ac45b460f808e9160018060a01b039061454c8683835460101c1684600f5416906145fc565b5460101c16938151908152426020820152a338868c8f614503565b508054151561449c565b634e487b7160e01b84526021600452602484fd5b60049561441d565b8115614597570490565b634e487b7160e01b600052601260045260246000fd5b60405163a9059cbb60e01b60208201526001600160a01b03909216602483015260448083019390935291815260808101916001600160401b03831182841017610a035761421b92604052614235565b6001600160a01b03919082168061466457506000809381938293165af161462161432c565b501561462957565b60405162461bcd60e51b8152602060048201526013602482015272115512081d1c985b9cd9995c8819985a5b1959606a1b6044820152606490fd5b61421b9392506145ad565b60035460ff8160a01c161561038457604080516385acd64160e01b81527fbdded29a54e6a5d6169bedea55373b06f57e35d7b0f67ac187565b435e2cc943600482015290916020916001600160a01b039183908290602490829086165afa90811561479e57600091614781575b501680156147695781602491845192838092633bf0dc0160e21b82528860048301525afa91821561475e57600092614731575b50501561471a575050565b60249250519063f708dfa760e01b82526004820152fd5b6147509250803d10614757575b6147488183613533565b81019061421d565b388061470f565b503d61473e565b83513d6000823e3d90fd5b825163f708dfa760e01b815260048101859052602490fd5b6147989150833d8511611737576117288183613533565b386146dc565b84513d6000823e3d90fd5b9060405191828154918282526020928383019160005283600020936000905b8282106147de5750505061421b92500383613533565b8554845260019586019588955093810193909101906147c8565b6000526005602052600e604060002001548042101561481f5761481c9042906140d7565b90565b50600090565b9092916000908282526020906005825260409384842090600684528585209760018060a01b0380941698898752855286862091865260088552838787209116865284528585209280825416159081156148bb575b506148ad5760039291600b611fe7600161489a940154600186015490613b09565b96845201905220549061481c82846140d7565b505050509192505080918190565b9050835416153861487956fe2f8788117e7eff1d82e926ec794901d17c78024a50270940304540a733656f0d407e260c196876216b8dd20ea8619d70e7050dd5853750ed41a99b75f2b4c4098f882e9b3b0c043c8507802fbb9a0ed808c8f0587361ab18424493e6841512a8a26469706673582212202b70a63f27b28644b5c9472d848fc5dfe142653a6ed58e3fafa3a4c301a03c1a64736f6c634300081400332f8788117e7eff1d82e926ec794901d17c78024a50270940304540a733656f0d",
  "linkReferences": {},
  "deployedLinkReferences": {}
}