{
  "_format": "hh-sol-artifact-1",
  "contractName": "Flow",
  "sourceName": "contracts/modules/Flow/Flow.sol",
  "abi": [
    {
      "inputs": [],
      "stateMutability": "nonpayable",
      "type": "constructor"
    },
    {
      "inputs": [
        {
          "internalType": "uint256",
          "name": "raised",
          "type": "uint256"
        },
        {
          "internalType": "uint256",
          "name": "max",
          "type": "uint256"
        }
      ],
      "name": "CampaignCapReached",
      "type": "error"
    },
    {
      "inputs": [
        {
          "internalType": "bytes32",
          "name": "campaignId",
          "type": "bytes32"
        }
      ],
      "name": "CampaignEnded",
      "type": "error"
    },
    {
      "inputs": [
        {
          "internalType": "bytes32",
          "name": "campaignId",
          "type": "bytes32"
        }
      ],
      "name": "CampaignNotActive",
      "type": "error"
    },
    {
      "inputs": [
        {
          "internalType": "bytes32",
          "name": "campaignId",
          "type": "bytes32"
        }
      ],
      "name": "CampaignNotEnded",
      "type": "error"
    },
    {
      "inputs": [
        {
          "internalType": "bytes32",
          "name": "campaignId",
          "type": "bytes32"
        }
      ],
      "name": "CampaignNotFound",
      "type": "error"
    },
    {
      "inputs": [
        {
          "internalType": "bytes32",
          "name": "campaignId",
          "type": "bytes32"
        },
        {
          "internalType": "address",
          "name": "contributor",
          "type": "address"
        }
      ],
      "name": "ContributionAlreadyRefunded",
      "type": "error"
    },
    {
      "inputs": [
        {
          "internalType": "uint256",
          "name": "amount",
          "type": "uint256"
        },
        {
          "internalType": "uint256",
          "name": "max",
          "type": "uint256"
        }
      ],
      "name": "ContributionExceedsMax",
      "type": "error"
    },
    {
      "inputs": [
        {
          "internalType": "bytes32",
          "name": "campaignId",
          "type": "bytes32"
        },
        {
          "internalType": "address",
          "name": "token",
          "type": "address"
        }
      ],
      "name": "InsufficientRewardBalance",
      "type": "error"
    },
    {
      "inputs": [],
      "name": "InvalidCampaignParameters",
      "type": "error"
    },
    {
      "inputs": [
        {
          "internalType": "uint256",
          "name": "amount",
          "type": "uint256"
        }
      ],
      "name": "InvalidContributionAmount",
      "type": "error"
    },
    {
      "inputs": [
        {
          "internalType": "uint256",
          "name": "fee",
          "type": "uint256"
        }
      ],
      "name": "InvalidProtocolFee",
      "type": "error"
    },
    {
      "inputs": [],
      "name": "InvalidRegistryAddress",
      "type": "error"
    },
    {
      "inputs": [],
      "name": "ModuleAlreadyInitialized",
      "type": "error"
    },
    {
      "inputs": [],
      "name": "ModuleNotInitialized",
      "type": "error"
    },
    {
      "inputs": [
        {
          "internalType": "bytes32",
          "name": "campaignId",
          "type": "bytes32"
        },
        {
          "internalType": "address",
          "name": "contributor",
          "type": "address"
        }
      ],
      "name": "NoContributionFound",
      "type": "error"
    },
    {
      "inputs": [],
      "name": "OnlyRegistry",
      "type": "error"
    },
    {
      "inputs": [
        {
          "internalType": "bytes8",
          "name": "organizationId",
          "type": "bytes8"
        }
      ],
      "name": "OrganizationNotFound",
      "type": "error"
    },
    {
      "inputs": [
        {
          "internalType": "bytes32",
          "name": "campaignId",
          "type": "bytes32"
        },
        {
          "internalType": "address",
          "name": "contributor",
          "type": "address"
        },
        {
          "internalType": "address",
          "name": "token",
          "type": "address"
        }
      ],
      "name": "RewardsAlreadyClaimed",
      "type": "error"
    },
    {
      "inputs": [
        {
          "internalType": "bytes32",
          "name": "campaignId",
          "type": "bytes32"
        },
        {
          "internalType": "address",
          "name": "caller",
          "type": "address"
        }
      ],
      "name": "UnauthorizedCampaignAccess",
      "type": "error"
    },
    {
      "anonymous": false,
      "inputs": [
        {
          "indexed": true,
          "internalType": "bytes32",
          "name": "campaignId",
          "type": "bytes32"
        },
        {
          "indexed": true,
          "internalType": "bytes8",
          "name": "organizationId",
          "type": "bytes8"
        },
        {
          "indexed": true,
          "internalType": "address",
          "name": "creator",
          "type": "address"
        },
        {
          "indexed": false,
          "internalType": "string",
          "name": "title",
          "type": "string"
        },
        {
          "indexed": false,
          "internalType": "enum IFlow.FlowType",
          "name": "flowType",
          "type": "uint8"
        },
        {
          "indexed": false,
          "internalType": "uint256",
          "name": "target",
          "type": "uint256"
        },
        {
          "indexed": false,
          "internalType": "uint256",
          "name": "startTime",
          "type": "uint256"
        },
        {
          "indexed": false,
          "internalType": "uint256",
          "name": "endTime",
          "type": "uint256"
        },
        {
          "indexed": false,
          "internalType": "uint256",
          "name": "timestamp",
          "type": "uint256"
        }
      ],
      "name": "CampaignCreated",
      "type": "event"
    },
    {
      "anonymous": false,
      "inputs": [
        {
          "indexed": true,
          "internalType": "bytes32",
          "name": "campaignId",
          "type": "bytes32"
        },
        {
          "indexed": false,
          "internalType": "enum IFlow.FlowState",
          "name": "finalState",
          "type": "uint8"
        },
        {
          "indexed": false,
          "internalType": "uint256",
          "name": "totalRaised",
          "type": "uint256"
        },
        {
          "indexed": false,
          "internalType": "uint256",
          "name": "contributorCount",
          "type": "uint256"
        },
        {
          "indexed": false,
          "internalType": "uint256",
          "name": "timestamp",
          "type": "uint256"
        }
      ],
      "name": "CampaignFinalized",
      "type": "event"
    },
    {
      "anonymous": false,
      "inputs": [
        {
          "indexed": true,
          "internalType": "bytes32",
          "name": "campaignId",
          "type": "bytes32"
        },
        {
          "indexed": false,
          "internalType": "enum IFlow.FlowState",
          "name": "oldState",
          "type": "uint8"
        },
        {
          "indexed": false,
          "internalType": "enum IFlow.FlowState",
          "name": "newState",
          "type": "uint8"
        },
        {
          "indexed": false,
          "internalType": "uint256",
          "name": "timestamp",
          "type": "uint256"
        }
      ],
      "name": "CampaignStateChanged",
      "type": "event"
    },
    {
      "anonymous": false,
      "inputs": [
        {
          "indexed": true,
          "internalType": "bytes32",
          "name": "campaignId",
          "type": "bytes32"
        },
        {
          "indexed": false,
          "internalType": "string",
          "name": "title",
          "type": "string"
        },
        {
          "indexed": false,
          "internalType": "string",
          "name": "description",
          "type": "string"
        },
        {
          "indexed": false,
          "internalType": "uint256",
          "name": "target",
          "type": "uint256"
        },
        {
          "indexed": false,
          "internalType": "uint256",
          "name": "min",
          "type": "uint256"
        },
        {
          "indexed": false,
          "internalType": "uint256",
          "name": "max",
          "type": "uint256"
        },
        {
          "indexed": false,
          "internalType": "uint256",
          "name": "endTime",
          "type": "uint256"
        },
        {
          "indexed": false,
          "internalType": "uint256",
          "name": "timestamp",
          "type": "uint256"
        }
      ],
      "name": "CampaignUpdated",
      "type": "event"
    },
    {
      "anonymous": false,
      "inputs": [
        {
          "indexed": true,
          "internalType": "bytes32",
          "name": "campaignId",
          "type": "bytes32"
        },
        {
          "indexed": true,
          "internalType": "address",
          "name": "contributor",
          "type": "address"
        },
        {
          "indexed": false,
          "internalType": "uint256",
          "name": "amount",
          "type": "uint256"
        },
        {
          "indexed": false,
          "internalType": "uint256",
          "name": "totalRaised",
          "type": "uint256"
        },
        {
          "indexed": false,
          "internalType": "uint256",
          "name": "timestamp",
          "type": "uint256"
        }
      ],
      "name": "ContributionMade",
      "type": "event"
    },
    {
      "anonymous": false,
      "inputs": [
        {
          "indexed": true,
          "internalType": "bytes32",
          "name": "campaignId",
          "type": "bytes32"
        },
        {
          "indexed": true,
          "internalType": "address",
          "name": "contributor",
          "type": "address"
        },
        {
          "indexed": false,
          "internalType": "uint256",
          "name": "amount",
          "type": "uint256"
        },
        {
          "indexed": false,
          "internalType": "uint256",
          "name": "timestamp",
          "type": "uint256"
        }
      ],
      "name": "ContributionRefunded",
      "type": "event"
    },
    {
      "anonymous": false,
      "inputs": [],
      "name": "ModuleDisabled",
      "type": "event"
    },
    {
      "anonymous": false,
      "inputs": [],
      "name": "ModuleEnabled",
      "type": "event"
    },
    {
      "anonymous": false,
      "inputs": [
        {
          "indexed": true,
          "internalType": "address",
          "name": "registry",
          "type": "address"
        }
      ],
      "name": "ModuleInitialized",
      "type": "event"
    },
    {
      "anonymous": false,
      "inputs": [
        {
          "indexed": false,
          "internalType": "address",
          "name": "account",
          "type": "address"
        }
      ],
      "name": "Paused",
      "type": "event"
    },
    {
      "anonymous": false,
      "inputs": [
        {
          "indexed": true,
          "internalType": "bytes32",
          "name": "campaignId",
          "type": "bytes32"
        },
        {
          "indexed": true,
          "internalType": "address",
          "name": "token",
          "type": "address"
        },
        {
          "indexed": false,
          "internalType": "uint256",
          "name": "amount",
          "type": "uint256"
        },
        {
          "indexed": false,
          "internalType": "uint256",
          "name": "timestamp",
          "type": "uint256"
        }
      ],
      "name": "ProtocolFeeCollected",
      "type": "event"
    },
    {
      "anonymous": false,
      "inputs": [
        {
          "indexed": true,
          "internalType": "bytes32",
          "name": "campaignId",
          "type": "bytes32"
        },
        {
          "indexed": true,
          "internalType": "address",
          "name": "token",
          "type": "address"
        },
        {
          "indexed": false,
          "internalType": "uint256",
          "name": "totalAmount",
          "type": "uint256"
        },
        {
          "indexed": false,
          "internalType": "uint256",
          "name": "contributorCount",
          "type": "uint256"
        },
        {
          "indexed": false,
          "internalType": "uint256",
          "name": "timestamp",
          "type": "uint256"
        }
      ],
      "name": "RewardsDistributed",
      "type": "event"
    },
    {
      "anonymous": false,
      "inputs": [
        {
          "indexed": true,
          "internalType": "bytes32",
          "name": "role",
          "type": "bytes32"
        },
        {
          "indexed": true,
          "internalType": "bytes32",
          "name": "previousAdminRole",
          "type": "bytes32"
        },
        {
          "indexed": true,
          "internalType": "bytes32",
          "name": "newAdminRole",
          "type": "bytes32"
        }
      ],
      "name": "RoleAdminChanged",
      "type": "event"
    },
    {
      "anonymous": false,
      "inputs": [
        {
          "indexed": true,
          "internalType": "bytes32",
          "name": "role",
          "type": "bytes32"
        },
        {
          "indexed": true,
          "internalType": "address",
          "name": "account",
          "type": "address"
        },
        {
          "indexed": true,
          "internalType": "address",
          "name": "sender",
          "type": "address"
        }
      ],
      "name": "RoleGranted",
      "type": "event"
    },
    {
      "anonymous": false,
      "inputs": [
        {
          "indexed": true,
          "internalType": "bytes32",
          "name": "role",
          "type": "bytes32"
        },
        {
          "indexed": true,
          "internalType": "address",
          "name": "account",
          "type": "address"
        },
        {
          "indexed": true,
          "internalType": "address",
          "name": "sender",
          "type": "address"
        }
      ],
      "name": "RoleRevoked",
      "type": "event"
    },
    {
      "anonymous": false,
      "inputs": [
        {
          "indexed": false,
          "internalType": "address",
          "name": "account",
          "type": "address"
        }
      ],
      "name": "Unpaused",
      "type": "event"
    },
    {
      "inputs": [],
      "name": "ADMIN_ROLE",
      "outputs": [
        {
          "internalType": "bytes32",
          "name": "",
          "type": "bytes32"
        }
      ],
      "stateMutability": "view",
      "type": "function"
    },
    {
      "inputs": [],
      "name": "BASIS_POINTS",
      "outputs": [
        {
          "internalType": "uint256",
          "name": "",
          "type": "uint256"
        }
      ],
      "stateMutability": "view",
      "type": "function"
    },
    {
      "inputs": [],
      "name": "CAMPAIGN_CREATION_REPUTATION",
      "outputs": [
        {
          "internalType": "uint256",
          "name": "",
          "type": "uint256"
        }
      ],
      "stateMutability": "view",
      "type": "function"
    },
    {
      "inputs": [],
      "name": "CAMPAIGN_CREATOR_ROLE",
      "outputs": [
        {
          "internalType": "bytes32",
          "name": "",
          "type": "bytes32"
        }
      ],
      "stateMutability": "view",
      "type": "function"
    },
    {
      "inputs": [],
      "name": "CAMPAIGN_SUCCESS_REPUTATION",
      "outputs": [
        {
          "internalType": "uint256",
          "name": "",
          "type": "uint256"
        }
      ],
      "stateMutability": "view",
      "type": "function"
    },
    {
      "inputs": [],
      "name": "CONTRIBUTION_REPUTATION",
      "outputs": [
        {
          "internalType": "uint256",
          "name": "",
          "type": "uint256"
        }
      ],
      "stateMutability": "view",
      "type": "function"
    },
    {
      "inputs": [],
      "name": "DEFAULT_ADMIN_ROLE",
      "outputs": [
        {
          "internalType": "bytes32",
          "name": "",
          "type": "bytes32"
        }
      ],
      "stateMutability": "view",
      "type": "function"
    },
    {
      "inputs": [],
      "name": "FLOW_ADMIN_ROLE",
      "outputs": [
        {
          "internalType": "bytes32",
          "name": "",
          "type": "bytes32"
        }
      ],
      "stateMutability": "view",
      "type": "function"
    },
    {
      "inputs": [],
      "name": "LARGE_CONTRIBUTION_BONUS",
      "outputs": [
        {
          "internalType": "uint256",
          "name": "",
          "type": "uint256"
        }
      ],
      "stateMutability": "view",
      "type": "function"
    },
    {
      "inputs": [],
      "name": "LARGE_CONTRIBUTION_THRESHOLD",
      "outputs": [
        {
          "internalType": "uint256",
          "name": "",
          "type": "uint256"
        }
      ],
      "stateMutability": "view",
      "type": "function"
    },
    {
      "inputs": [],
      "name": "MAX_PROTOCOL_FEE",
      "outputs": [
        {
          "internalType": "uint256",
          "name": "",
          "type": "uint256"
        }
      ],
      "stateMutability": "view",
      "type": "function"
    },
    {
      "inputs": [],
      "name": "MODULE_ADMIN_ROLE",
      "outputs": [
        {
          "internalType": "bytes32",
          "name": "",
          "type": "bytes32"
        }
      ],
      "stateMutability": "view",
      "type": "function"
    },
    {
      "inputs": [],
      "name": "OPERATOR_ROLE",
      "outputs": [
        {
          "internalType": "bytes32",
          "name": "",
          "type": "bytes32"
        }
      ],
      "stateMutability": "view",
      "type": "function"
    },
    {
      "inputs": [
        {
          "internalType": "uint256",
          "name": "amount",
          "type": "uint256"
        }
      ],
      "name": "calculateProtocolFee",
      "outputs": [
        {
          "internalType": "uint256",
          "name": "",
          "type": "uint256"
        }
      ],
      "stateMutability": "view",
      "type": "function"
    },
    {
      "inputs": [
        {
          "internalType": "bytes32",
          "name": "campaignId",
          "type": "bytes32"
        },
        {
          "internalType": "address",
          "name": "",
          "type": "address"
        }
      ],
      "name": "canContribute",
      "outputs": [
        {
          "internalType": "bool",
          "name": "",
          "type": "bool"
        }
      ],
      "stateMutability": "view",
      "type": "function"
    },
    {
      "inputs": [
        {
          "internalType": "bytes32",
          "name": "campaignId",
          "type": "bytes32"
        },
        {
          "internalType": "address",
          "name": "rewardToken",
          "type": "address"
        }
      ],
      "name": "claimRewards",
      "outputs": [],
      "stateMutability": "nonpayable",
      "type": "function"
    },
    {
      "inputs": [
        {
          "internalType": "bytes32",
          "name": "campaignId",
          "type": "bytes32"
        },
        {
          "internalType": "uint256",
          "name": "amount",
          "type": "uint256"
        },
        {
          "internalType": "string",
          "name": "metadata",
          "type": "string"
        }
      ],
      "name": "contribute",
      "outputs": [],
      "stateMutability": "payable",
      "type": "function"
    },
    {
      "inputs": [
        {
          "internalType": "bytes8",
          "name": "organizationId",
          "type": "bytes8"
        },
        {
          "internalType": "string",
          "name": "title",
          "type": "string"
        },
        {
          "internalType": "string",
          "name": "description",
          "type": "string"
        },
        {
          "internalType": "string",
          "name": "metadataURI",
          "type": "string"
        },
        {
          "internalType": "enum IFlow.FlowType",
          "name": "flowType",
          "type": "uint8"
        },
        {
          "internalType": "address",
          "name": "paymentToken",
          "type": "address"
        },
        {
          "internalType": "uint256",
          "name": "target",
          "type": "uint256"
        },
        {
          "internalType": "uint256",
          "name": "min",
          "type": "uint256"
        },
        {
          "internalType": "uint256",
          "name": "max",
          "type": "uint256"
        },
        {
          "internalType": "uint256",
          "name": "duration",
          "type": "uint256"
        },
        {
          "internalType": "bool",
          "name": "autoFinalize",
          "type": "bool"
        }
      ],
      "name": "createCampaign",
      "outputs": [
        {
          "internalType": "bytes32",
          "name": "campaignId",
          "type": "bytes32"
        }
      ],
      "stateMutability": "nonpayable",
      "type": "function"
    },
    {
      "inputs": [
        {
          "internalType": "address",
          "name": "creator",
          "type": "address"
        },
        {
          "internalType": "bytes8",
          "name": "organizationId",
          "type": "bytes8"
        },
        {
          "components": [
            {
              "internalType": "string",
              "name": "title",
              "type": "string"
            },
            {
              "internalType": "string",
              "name": "description",
              "type": "string"
            },
            {
              "internalType": "string",
              "name": "metadataURI",
              "type": "string"
            },
            {
              "internalType": "enum IFlow.FlowType",
              "name": "flowType",
              "type": "uint8"
            },
            {
              "internalType": "address",
              "name": "paymentToken",
              "type": "address"
            },
            {
              "internalType": "uint256",
              "name": "target",
              "type": "uint256"
            },
            {
              "internalType": "uint256",
              "name": "min",
              "type": "uint256"
            },
            {
              "internalType": "uint256",
              "name": "max",
              "type": "uint256"
            },
            {
              "internalType": "uint256",
              "name": "duration",
              "type": "uint256"
            },
            {
              "internalType": "bool",
              "name": "autoFinalize",
              "type": "bool"
            }
          ],
          "internalType": "struct IFlow.CampaignParams",
          "name": "params",
          "type": "tuple"
        }
      ],
      "name": "createCampaignWithParams",
      "outputs": [
        {
          "internalType": "bytes32",
          "name": "campaignId",
          "type": "bytes32"
        }
      ],
      "stateMutability": "nonpayable",
      "type": "function"
    },
    {
      "inputs": [
        {
          "internalType": "bytes32",
          "name": "campaignId",
          "type": "bytes32"
        },
        {
          "internalType": "address",
          "name": "rewardToken",
          "type": "address"
        },
        {
          "internalType": "uint256",
          "name": "totalRewardAmount",
          "type": "uint256"
        }
      ],
      "name": "distributeRewards",
      "outputs": [],
      "stateMutability": "nonpayable",
      "type": "function"
    },
    {
      "inputs": [],
      "name": "emergencyPause",
      "outputs": [],
      "stateMutability": "nonpayable",
      "type": "function"
    },
    {
      "inputs": [],
      "name": "emergencyUnpause",
      "outputs": [],
      "stateMutability": "nonpayable",
      "type": "function"
    },
    {
      "inputs": [
        {
          "internalType": "address",
          "name": "token",
          "type": "address"
        },
        {
          "internalType": "address",
          "name": "to",
          "type": "address"
        },
        {
          "internalType": "uint256",
          "name": "amount",
          "type": "uint256"
        }
      ],
      "name": "emergencyWithdraw",
      "outputs": [],
      "stateMutability": "nonpayable",
      "type": "function"
    },
    {
      "inputs": [
        {
          "internalType": "bytes32",
          "name": "campaignId",
          "type": "bytes32"
        }
      ],
      "name": "finalizeCampaign",
      "outputs": [],
      "stateMutability": "nonpayable",
      "type": "function"
    },
    {
      "inputs": [
        {
          "internalType": "bytes32",
          "name": "campaignId",
          "type": "bytes32"
        }
      ],
      "name": "getCampaign",
      "outputs": [
        {
          "components": [
            {
              "internalType": "uint256",
              "name": "index",
              "type": "uint256"
            },
            {
              "internalType": "bytes8",
              "name": "organizationId",
              "type": "bytes8"
            },
            {
              "internalType": "address",
              "name": "creator",
              "type": "address"
            },
            {
              "internalType": "address",
              "name": "admin",
              "type": "address"
            },
            {
              "internalType": "string",
              "name": "title",
              "type": "string"
            },
            {
              "internalType": "string",
              "name": "description",
              "type": "string"
            },
            {
              "internalType": "string",
              "name": "metadataURI",
              "type": "string"
            },
            {
              "internalType": "enum IFlow.FlowType",
              "name": "flowType",
              "type": "uint8"
            },
            {
              "internalType": "enum IFlow.FlowState",
              "name": "state",
              "type": "uint8"
            },
            {
              "internalType": "address",
              "name": "paymentToken",
              "type": "address"
            },
            {
              "internalType": "uint256",
              "name": "target",
              "type": "uint256"
            },
            {
              "internalType": "uint256",
              "name": "min",
              "type": "uint256"
            },
            {
              "internalType": "uint256",
              "name": "max",
              "type": "uint256"
            },
            {
              "internalType": "uint256",
              "name": "raised",
              "type": "uint256"
            },
            {
              "internalType": "uint256",
              "name": "contributorCount",
              "type": "uint256"
            },
            {
              "internalType": "uint256",
              "name": "startTime",
              "type": "uint256"
            },
            {
              "internalType": "uint256",
              "name": "endTime",
              "type": "uint256"
            },
            {
              "internalType": "uint256",
              "name": "createdAt",
              "type": "uint256"
            },
            {
              "internalType": "uint256",
              "name": "updatedAt",
              "type": "uint256"
            },
            {
              "internalType": "bool",
              "name": "autoFinalize",
              "type": "bool"
            },
            {
              "internalType": "uint256",
              "name": "protocolFee",
              "type": "uint256"
            }
          ],
          "internalType": "struct IFlow.Campaign",
          "name": "",
          "type": "tuple"
        }
      ],
      "stateMutability": "view",
      "type": "function"
    },
    {
      "inputs": [
        {
          "internalType": "bytes32",
          "name": "campaignId",
          "type": "bytes32"
        }
      ],
      "name": "getCampaignContributors",
      "outputs": [
        {
          "internalType": "address[]",
          "name": "",
          "type": "address[]"
        }
      ],
      "stateMutability": "view",
      "type": "function"
    },
    {
      "inputs": [],
      "name": "getCampaignCount",
      "outputs": [
        {
          "internalType": "uint256",
          "name": "",
          "type": "uint256"
        }
      ],
      "stateMutability": "view",
      "type": "function"
    },
    {
      "inputs": [
        {
          "internalType": "bytes32",
          "name": "campaignId",
          "type": "bytes32"
        }
      ],
      "name": "getCampaignProgress",
      "outputs": [
        {
          "internalType": "uint256",
          "name": "raised",
          "type": "uint256"
        },
        {
          "internalType": "uint256",
          "name": "target",
          "type": "uint256"
        },
        {
          "internalType": "uint256",
          "name": "percentage",
          "type": "uint256"
        }
      ],
      "stateMutability": "view",
      "type": "function"
    },
    {
      "inputs": [
        {
          "internalType": "bytes8",
          "name": "organizationId",
          "type": "bytes8"
        }
      ],
      "name": "getCampaignsByOrganization",
      "outputs": [
        {
          "internalType": "bytes32[]",
          "name": "",
          "type": "bytes32[]"
        }
      ],
      "stateMutability": "view",
      "type": "function"
    },
    {
      "inputs": [
        {
          "internalType": "enum IFlow.FlowState",
          "name": "state",
          "type": "uint8"
        }
      ],
      "name": "getCampaignsByState",
      "outputs": [
        {
          "internalType": "bytes32[]",
          "name": "",
          "type": "bytes32[]"
        }
      ],
      "stateMutability": "view",
      "type": "function"
    },
    {
      "inputs": [
        {
          "internalType": "bytes32",
          "name": "campaignId",
          "type": "bytes32"
        },
        {
          "internalType": "address",
          "name": "contributor",
          "type": "address"
        }
      ],
      "name": "getContribution",
      "outputs": [
        {
          "components": [
            {
              "internalType": "address",
              "name": "contributor",
              "type": "address"
            },
            {
              "internalType": "uint256",
              "name": "amount",
              "type": "uint256"
            },
            {
              "internalType": "uint256",
              "name": "timestamp",
              "type": "uint256"
            },
            {
              "internalType": "enum IFlow.ContributorState",
              "name": "state",
              "type": "uint8"
            },
            {
              "internalType": "string",
              "name": "metadata",
              "type": "string"
            }
          ],
          "internalType": "struct IFlow.Contribution",
          "name": "",
          "type": "tuple"
        }
      ],
      "stateMutability": "view",
      "type": "function"
    },
    {
      "inputs": [],
      "name": "getProtocolFeeRate",
      "outputs": [
        {
          "internalType": "uint256",
          "name": "",
          "type": "uint256"
        }
      ],
      "stateMutability": "view",
      "type": "function"
    },
    {
      "inputs": [
        {
          "internalType": "bytes32",
          "name": "campaignId",
          "type": "bytes32"
        },
        {
          "internalType": "address",
          "name": "rewardToken",
          "type": "address"
        },
        {
          "internalType": "address",
          "name": "contributor",
          "type": "address"
        }
      ],
      "name": "getRewardDistribution",
      "outputs": [
        {
          "internalType": "uint256",
          "name": "totalReward",
          "type": "uint256"
        },
        {
          "internalType": "uint256",
          "name": "claimedAmount",
          "type": "uint256"
        },
        {
          "internalType": "uint256",
          "name": "claimableAmount",
          "type": "uint256"
        }
      ],
      "stateMutability": "view",
      "type": "function"
    },
    {
      "inputs": [
        {
          "internalType": "bytes32",
          "name": "role",
          "type": "bytes32"
        }
      ],
      "name": "getRoleAdmin",
      "outputs": [
        {
          "internalType": "bytes32",
          "name": "",
          "type": "bytes32"
        }
      ],
      "stateMutability": "view",
      "type": "function"
    },
    {
      "inputs": [
        {
          "internalType": "bytes32",
          "name": "campaignId",
          "type": "bytes32"
        }
      ],
      "name": "getTimeRemaining",
      "outputs": [
        {
          "internalType": "uint256",
          "name": "",
          "type": "uint256"
        }
      ],
      "stateMutability": "view",
      "type": "function"
    },
    {
      "inputs": [
        {
          "internalType": "bytes32",
          "name": "role",
          "type": "bytes32"
        },
        {
          "internalType": "address",
          "name": "account",
          "type": "address"
        }
      ],
      "name": "grantRole",
      "outputs": [],
      "stateMutability": "nonpayable",
      "type": "function"
    },
    {
      "inputs": [
        {
          "internalType": "bytes32",
          "name": "role",
          "type": "bytes32"
        },
        {
          "internalType": "address",
          "name": "account",
          "type": "address"
        }
      ],
      "name": "hasRole",
      "outputs": [
        {
          "internalType": "bool",
          "name": "",
          "type": "bool"
        }
      ],
      "stateMutability": "view",
      "type": "function"
    },
    {
      "inputs": [
        {
          "internalType": "address",
          "name": "registryAddress",
          "type": "address"
        }
      ],
      "name": "initialize",
      "outputs": [],
      "stateMutability": "nonpayable",
      "type": "function"
    },
    {
      "inputs": [
        {
          "internalType": "bytes32",
          "name": "campaignId",
          "type": "bytes32"
        }
      ],
      "name": "isCampaignActive",
      "outputs": [
        {
          "internalType": "bool",
          "name": "",
          "type": "bool"
        }
      ],
      "stateMutability": "view",
      "type": "function"
    },
    {
      "inputs": [],
      "name": "isInitialized",
      "outputs": [
        {
          "internalType": "bool",
          "name": "",
          "type": "bool"
        }
      ],
      "stateMutability": "view",
      "type": "function"
    },
    {
      "inputs": [],
      "name": "moduleId",
      "outputs": [
        {
          "internalType": "bytes32",
          "name": "",
          "type": "bytes32"
        }
      ],
      "stateMutability": "pure",
      "type": "function"
    },
    {
      "inputs": [],
      "name": "onModuleDisabled",
      "outputs": [],
      "stateMutability": "nonpayable",
      "type": "function"
    },
    {
      "inputs": [],
      "name": "onModuleEnabled",
      "outputs": [],
      "stateMutability": "nonpayable",
      "type": "function"
    },
    {
      "inputs": [],
      "name": "pause",
      "outputs": [],
      "stateMutability": "nonpayable",
      "type": "function"
    },
    {
      "inputs": [],
      "name": "paused",
      "outputs": [
        {
          "internalType": "bool",
          "name": "",
          "type": "bool"
        }
      ],
      "stateMutability": "view",
      "type": "function"
    },
    {
      "inputs": [
        {
          "internalType": "bytes32",
          "name": "campaignId",
          "type": "bytes32"
        },
        {
          "internalType": "address",
          "name": "contributor",
          "type": "address"
        }
      ],
      "name": "refundContribution",
      "outputs": [],
      "stateMutability": "nonpayable",
      "type": "function"
    },
    {
      "inputs": [],
      "name": "registry",
      "outputs": [
        {
          "internalType": "address",
          "name": "",
          "type": "address"
        }
      ],
      "stateMutability": "view",
      "type": "function"
    },
    {
      "inputs": [
        {
          "internalType": "bytes32",
          "name": "role",
          "type": "bytes32"
        },
        {
          "internalType": "address",
          "name": "account",
          "type": "address"
        }
      ],
      "name": "renounceRole",
      "outputs": [],
      "stateMutability": "nonpayable",
      "type": "function"
    },
    {
      "inputs": [
        {
          "internalType": "bytes32",
          "name": "role",
          "type": "bytes32"
        },
        {
          "internalType": "address",
          "name": "account",
          "type": "address"
        }
      ],
      "name": "revokeRole",
      "outputs": [],
      "stateMutability": "nonpayable",
      "type": "function"
    },
    {
      "inputs": [
        {
          "internalType": "bytes32",
          "name": "campaignId",
          "type": "bytes32"
        },
        {
          "internalType": "enum IFlow.FlowState",
          "name": "newState",
          "type": "uint8"
        }
      ],
      "name": "setCampaignState",
      "outputs": [],
      "stateMutability": "nonpayable",
      "type": "function"
    },
    {
      "inputs": [
        {
          "internalType": "uint256",
          "name": "newRate",
          "type": "uint256"
        }
      ],
      "name": "setProtocolFeeRate",
      "outputs": [],
      "stateMutability": "nonpayable",
      "type": "function"
    },
    {
      "inputs": [
        {
          "internalType": "address",
          "name": "newRecipient",
          "type": "address"
        }
      ],
      "name": "setProtocolFeeRecipient",
      "outputs": [],
      "stateMutability": "nonpayable",
      "type": "function"
    },
    {
      "inputs": [
        {
          "internalType": "bytes4",
          "name": "interfaceId",
          "type": "bytes4"
        }
      ],
      "name": "supportsInterface",
      "outputs": [
        {
          "internalType": "bool",
          "name": "",
          "type": "bool"
        }
      ],
      "stateMutability": "view",
      "type": "function"
    },
    {
      "inputs": [],
      "name": "unpause",
      "outputs": [],
      "stateMutability": "nonpayable",
      "type": "function"
    },
    {
      "inputs": [
        {
          "internalType": "bytes32",
          "name": "campaignId",
          "type": "bytes32"
        },
        {
          "internalType": "string",
          "name": "title",
          "type": "string"
        },
        {
          "internalType": "string",
          "name": "description",
          "type": "string"
        },
        {
          "internalType": "uint256",
          "name": "target",
          "type": "uint256"
        },
        {
          "internalType": "uint256",
          "name": "min",
          "type": "uint256"
        },
        {
          "internalType": "uint256",
          "name": "max",
          "type": "uint256"
        },
        {
          "internalType": "uint256",
          "name": "endTime",
          "type": "uint256"
        }
      ],
      "name": "updateCampaign",
      "outputs": [],
      "stateMutability": "nonpayable",
      "type": "function"
    },
    {
      "inputs": [],
      "name": "version",
      "outputs": [
        {
          "internalType": "string",
          "name": "",
          "type": "string"
        }
      ],
      "stateMutability": "view",
      "type": "function"
    },
    {
      "inputs": [
        {
          "internalType": "bytes32",
          "name": "campaignId",
          "type": "bytes32"
        },
        {
          "internalType": "address",
          "name": "to",
          "type": "address"
        },
        {
          "internalType": "uint256",
          "name": "amount",
          "type": "uint256"
        }
      ],
      "name": "withdrawFunds",
      "outputs": [],
      "stateMutability": "nonpayable",
      "type": "function"
    },
    {
      "stateMutability": "payable",
      "type": "receive"
    }
  ],
  "bytecode": "0x60806040523462000026576200001462000188565b604051615afe6200059b8239615afe90f35b600080fd5b634e487b7160e01b600052604160045260246000fd5b90601f01601f191681019081106001600160401b038211176200006357604052565b6200002b565b90620000806200007860405190565b928362000041565b565b6001600160401b0381116200006357602090601f01601f19160190565b90620000b5620000af8362000082565b62000069565b918252565b620000c660056200009f565b640312e302e360dc1b602082015290565b620000e1620000ba565b90565b620000e1620000e1620000e19290565b90600019905b9181191691161790565b9062000118620000e16200012092620000e4565b8254620000f4565b9055565b906001600160a01b0390620000fa565b620000e1906200014a906001600160a01b031682565b6001600160a01b031690565b620000e19062000134565b620000e19062000156565b9062000180620000e1620001209262000161565b825462000124565b6200019c62000196620000d7565b62000219565b620001b4620001ac60fa620000e4565b600e62000104565b6200008033620001c681600f6200016c565b620001f2817f8f882e9b3b0c043c8507802fbb9a0ed808c8f0587361ab18424493e6841512a8620004ec565b7faabecfdf6c789f9fb8a93bd3a33e66be61c9d95c3d88fbe57f4acd20b6d738f8620004ec565b620000809062000418565b634e487b7160e01b600052602260045260246000fd5b90600160028304921680156200025d575b60208310146200025757565b62000224565b91607f16916200024b565b9160001960089290920291821b911b620000fa565b919062000292620000e16200012093620000e4565b90835462000268565b62000080916000916200027d565b818110620002b5575050565b80620002c560006001936200029b565b01620002a9565b9190601f8111620002dc57505050565b620002f06200008093600052602060002090565b906020601f84018190048301931062000314575b6020601f909101040190620002a9565b909150819062000304565b9062000329815190565b906001600160401b038211620000635762000351826200034a85546200023a565b85620002cc565b602090601f831160011462000390576200012092916000918362000384575b5050600019600883021c1916906002021790565b01519050388062000370565b601f19831691620003a685600052602060002090565b9260005b818110620003e757509160029391856001969410620003cd575b50505002019055565b01516000196008601f8516021c19169055388080620003c4565b91936020600181928787015181550195019201620003aa565b9062000080916200031f565b620000e16000620000e4565b6200042f90620004276200047d565b600462000400565b620000806200043d6200040c565b6200044a338092620004ec565b7fa49807205ce4d355092ef5a8a18f56e8913cf4a201fbe287825b095693c21775620004ec565b620000e16001620000e4565b62000487620004c2565b620000806200049562000471565b600262000104565b9060ff90620000fa565b90620004ba620000e16200012092151590565b82546200049d565b6200008060006001620004a7565b905b600052602052604060002090565b90620004d29062000161565b9062000501620004fd82846200057b565b1590565b6200050a575050565b6200053060016200052a836000620005238782620004d0565b01620004e0565b620004a7565b33906200056a62000563620005637f2f8788117e7eff1d82e926ec794901d17c78024a50270940304540a733656f0d9590565b9262000161565b926200057560405190565b600090a4565b620000e19162000593916200052360009182620004d0565b5460ff169056fe6080604052600436101561001b575b361561001957600080fd5b005b60003560e01c806301ffc9a7146103a6578063132bb268146103a157806320746f611461039c578063248a9ca3146103975780632604d6bf146103925780632cb346571461038d5780632f2ff15d1461038857806332be9ebc1461038357806336568abe1461037e578063392e53cd146103795780633da6e61e146103745780633f4ba83a1461036f5780634a4e3bd51461036a57806351858e271461036557806354fd4d5014610360578063563ffcba1461035b57806357bbcd65146103565780635b5eedf1146103515780635c975abb1461034c5780635d044b7e146103475780636693643f1461034257806366e854541461033d5780636caa92181461033857806375b238fc146103335780637b1039991461032e5780637b75083c146103295780637fa63456146103245780638456cb591461031f5780638ce2f2d61461031a57806391d1485414610315578063992daefc146103105780639c7c270c1461030b578063a1308f2714610306578063a217fddf14610301578063a229f93b146102fc578063aa7318aa146102f7578063aeb37e9b146102f2578063b13aa2d6146102ed578063b8ca3b83146102e8578063ba36d56e1461029d578063baefb8f0146102e3578063c4d66de8146102de578063c7fe4e54146102d9578063cabe0452146102d4578063d547741f146102cf578063dd6f4ff2146102ca578063dfd9ff78146102c5578063e1f1c4a7146102c0578063e521cb92146102bb578063e63ea408146102b6578063e6c79452146102b1578063ebf8a3e6146102ac578063f5b541a6146102a7578063f7fab94f146102a2578063f92cdaba1461029d578063fb24973c146102985763fcec9eca0361000e57611489565b6113f8565b610f2f565b6113dd565b6113a4565b61138c565b611371565b611345565b611314565b6112f9565b6112cb565b6112a3565b611248565b611221565b611018565b611000565b610fc5565b610f02565b610ed7565b610ebb565b610ea3565b610e7b565b610d83565b610d38565b610d1d565b610d04565b610ce8565b610ccd565b610c9b565b610c83565b610c5c565b610c26565b610bed565b610bd2565b610bb7565b610b70565b610aac565b610a91565b610a78565b610a59565b6109b4565b610953565b6108d3565b6108bb565b6108a3565b610887565b61083c565b610818565b6107fd565b6107e4565b6107a5565b610532565b610507565b6104dc565b610489565b6103ed565b6001600160e01b031981165b036103be57565b600080fd5b905035906103d0826103ab565b565b906020828203126103be576103e6916103c3565b90565b9052565b346103be5761041a6104086104033660046103d2565b6114b0565b60405191829182901515815260200190565b0390f35b806103b7565b905035906103d08261041e565b6001600160a01b031690565b6001600160a01b0381166103b7565b905035906103d08261043d565b90916060828403126103be576103e66104728484610424565b93610480816020860161044c565b93604001610424565b346103be576104a261049c366004610459565b916144b5565b604051005b906020828203126103be576103e691610424565b9081526060810193926103d09290916040916104d8906020830152565b0152565b346103be5761041a6104f76104f23660046104a7565b6157b1565b6040519193915b938493846104bb565b346103be5761041a61052261051d3660046104a7565b611571565b6040519182918290815260200190565b346103be5761041a6104086105483660046104a7565b615676565b6001600160c01b031981166103b7565b905035906103d08261054d565b634e487b7160e01b600052604160045260246000fd5b90601f01601f1916810190811067ffffffffffffffff8211176105a257604052565b61056a565b906103d06105b460405190565b9283610580565b67ffffffffffffffff81116105a257602090601f01601f19160190565b0190565b90826000939282370152565b909291926105fd6105f8826105bb565b6105a7565b938185526020850190828401116103be576103d0926105dc565b9080601f830112156103be578160206103e6933591016105e8565b600611156103be57565b905035906103d082610632565b8015156103b7565b905035906103d082610649565b919091610140818403126103be576106776101406105a7565b92813567ffffffffffffffff81116103be5781610695918401610617565b8452602082013567ffffffffffffffff81116103be57816106b7918401610617565b602085015260408201359067ffffffffffffffff82116103be576106e08161075d938501610617565b604086015260606106f38282860161063c565b9086015260806107058282860161044c565b9086015260a061071782828601610424565b9086015260c061072982828601610424565b9086015260e061073b82828601610424565b9086015261010061074e82828601610424565b90860152610120809301610651565b90830152565b916060838303126103be57610778828461044c565b92610786836020830161055d565b92604082013567ffffffffffffffff81116103be576103e6920161065e565b346103be5761041a6105226107bb366004610763565b91612ee9565b91906040838203126103be576103e6906107db8185610424565b9360200161044c565b346103be576104a26107f73660046107c1565b906115b0565b346103be5761041a6105226108133660046104a7565b615812565b346103be576104a261082b3660046107c1565b9061177f565b60009103126103be57565b346103be5761084c366004610831565b61041a610408611f10565b90916060828403126103be576103e66108708484610424565b9361087e816020860161044c565b9360400161044c565b346103be5761041a6104f761089d366004610857565b91615880565b346103be576108b3366004610831565b6104a2611f99565b346103be576108cb366004610831565b6104a2611feb565b346103be576108e3366004610831565b6104a2611fc2565b60005b8381106108fe5750506000910152565b81810151838201526020016108ee565b61092f6109386020936105d893610923815190565b80835293849260200190565b958691016108eb565b601f01601f191690565b60208082526103e69291019061090e565b346103be57610963366004610831565b61041a61096e611c59565b60405191829182610942565b600711156103be57565b905035906103d08261097a565b91906040838203126103be576103e6906109ab8185610424565b93602001610984565b346103be576104a26109c7366004610991565b90613450565b60e0818303126103be576109e18282610424565b92602082013567ffffffffffffffff81116103be5783610a02918401610617565b92604083013567ffffffffffffffff81116103be5781610a23918501610617565b92610a318260608301610424565b926103e6610a428460808501610424565b93610a508160a08601610424565b9360c001610424565b346103be576104a2610a6c3660046109cd565b959490949391936132e2565b346103be576104a2610a8b366004610459565b9161481e565b346103be57610aa1366004610831565b61041a61040861189c565b346103be576104a2610abf3660046107c1565b906146ac565b634e487b7160e01b600052602160045260246000fd5b60041115610ae557565b610ac5565b906103d082610adb565b6103e690610aea565b6103e990610af4565b80516001600160a01b031682526103e69160a0810191608090610b2e60208201516020850152565b610b3d60408201516040850152565b610b4f60608201516060850190610afd565b015190608081840391015261090e565b60208082526103e692910190610b06565b346103be5761041a610b8c610b863660046107c1565b90615608565b60405191829182610b5f565b6103e66103e66103e69290565b6103e66032610b98565b6103e6610ba5565b346103be57610bc7366004610831565b61041a610522610baf565b346103be57610be2366004610831565b61041a610522615850565b346103be57610bfd366004610831565b61041a7fa49807205ce4d355092ef5a8a18f56e8913cf4a201fbe287825b095693c21775610522565b346103be57610c36366004610831565b61041a610c41611f1a565b6040515b918291826001600160a01b03909116815260200190565b346103be57610c6c366004610831565b61041a600080516020615aa9833981519152610522565b346103be576104a2610c963660046104a7565b613dca565b346103be57610cab366004610831565b6104a2611f5c565b6103e6683635c9adc5dea00000610b98565b6103e6610cb3565b346103be57610cdd366004610831565b61041a610522610cc5565b346103be5761041a610408610cfe3660046107c1565b90611541565b346103be576104a2610d173660046107c1565b906142dd565b346103be5761041a610522610d333660046104a7565b615866565b346103be57610d48366004610831565b61041a7f84d20104310cb32261c684fea2f6a24da76255f470d709e28f6b2c9da16e9a3e610522565b6103e66000610b98565b6103e6610d71565b346103be57610d93366004610831565b61041a610522610d7b565b9190610160838203126103be57610db5818461055d565b92602081013567ffffffffffffffff81116103be5782610dd6918301610617565b92604082013567ffffffffffffffff81116103be5783610df7918401610617565b92606083013567ffffffffffffffff81116103be5781610e18918501610617565b92610e26826080830161063c565b92610e348360a0840161044c565b92610e428160c08501610424565b92610e508260e08301610424565b926103e6610e62846101008501610424565b93610e71816101208601610424565b9361014001610651565b346103be5761041a610522610e91366004610d9e565b99989098979197969296959395612981565b346103be57610eb3366004610831565b6104a2611f08565b346103be5761041a610408610ed13660046107c1565b906156c2565b346103be576104a2610eea3660046104a7565b6159b9565b6103e66103e8610b98565b6103e6610eef565b346103be57610f12366004610831565b61041a610522610efa565b6103e66064610b98565b6103e6610f1d565b346103be57610f3f366004610831565b61041a610522610f27565b906020828203126103be576103e69161055d565b90610f7e610f77610f6d845190565b8084529260200190565b9260200190565b9060005b818110610f8f5750505090565b909192610fac610fa56001928651815260200190565b9460200190565b929101610f82565b60208082526103e692910190610f5e565b346103be5761041a610fe0610fdb366004610f4a565b615642565b60405191829182610fb4565b906020828203126103be576103e69161044c565b346103be576104a2611013366004610fec565b611cec565b346103be57611028366004610831565b61041a7faabecfdf6c789f9fb8a93bd3a33e66be61c9d95c3d88fbe57f4acd20b6d738f8610522565b60061115610ae557565b906103d082611051565b6103e69061105b565b6103e990611065565b60071115610ae557565b906103d082611077565b6103e690611081565b6103e99061108b565b805182526020808201516001600160c01b031916908301526040808201516001600160a01b031690830152906103e690610280806111286111166111046102a086016060898101516001600160a01b0316908801526080890151878203608089015261090e565b60a088015186820360a088015261090e565b60c087015185820360c087015261090e565b9461113b60e082015160e086019061106e565b61114f610100820151610100860190611094565b610120818101516001600160a01b031690850152611174610140820151610140860152565b611185610160820151610160860152565b611196610180820151610180860152565b6111a76101a08201516101a0860152565b6111b86101c08201516101c0860152565b6111c96101e08201516101e0860152565b6111da610200820151610200860152565b6111eb610220820151610220860152565b6111fc610240820151610240860152565b610260818101511515908501520151910152565b60208082526103e69291019061109d565b346103be5761041a61123c6112373660046104a7565b615520565b60405191829182611210565b346103be576104a261125b3660046107c1565b90611703565b916060838303126103be576112768284610424565b926112848360208301610424565b92604082013567ffffffffffffffff81116103be576103e69201610617565b6104a26112b1366004611261565b9161393e565b906020828203126103be576103e691610984565b346103be5761041a610fe06112e13660046112b7565b61565c565b6103e6612710610b98565b6103e66112e6565b346103be57611309366004610831565b61041a6105226112f1565b346103be576104a2611327366004610fec565b615a5a565b90916060828403126103be576103e6610472848461044c565b346103be576104a261135836600461132c565b91615a9d565b6103e66101f4610b98565b6103e661135e565b346103be57611381366004610831565b61041a610522611369565b346103be5761139c366004610831565b6104a2611ea6565b346103be576113b4366004610831565b61041a7f97667070c54ef182b0f5858b034beac1b6f3089aa2d3188bb1e8929f4fa9b929610522565b346103be576113ed366004610831565b61041a61052261585c565b346103be57611408366004610831565b61041a7ff83fbdecd7018694593b521db8f6c864cd19f8450388b844650c68334dac9ab5610522565b90611440610f77610f6d845190565b9060005b8181106114515750505090565b909192611470610fa560019286516001600160a01b0316815260200190565b929101611444565b60208082526103e692910190611431565b346103be5761041a6114a461149f3660046104a7565b615628565b60405191829182611478565b637965db0b60e01b6001600160e01b03198216149081156114cf575090565b6103e691506001600160e01b0319166301ffc9a760e01b1490565b905b600052602052604060002090565b6104316103e66103e6926001600160a01b031690565b6103e6906114fa565b6103e690611510565b906114ec90611519565b6103e6905b60ff1690565b6103e6905461152c565b6103e69161155b91611555600091826114ea565b01611522565b611537565b6103e69081565b6103e69054611560565b600161158a6103e692611582600090565b5060006114ea565b01611567565b906103d0916115a66115a182611571565b6115ba565b906103d0916117cf565b906103d091611590565b6103d090339061165b565b6103e690610b98565b610b98565b6105d86115eb926020926115e5815190565b94859290565b938491016108eb565b6116326103e6939261162c61162c937f416363657373436f6e74726f6c3a206163636f756e7420000000000000000000815260170190565b906115d3565b7f206973206d697373696e6720726f6c6520000000000000000000000000000000815260110190565b9061166d6116698284611541565b1590565b611675575050565b6116e4916103e661169161168b6116cb94611b34565b926115c5565b6116a66020916116a083610b98565b906119d4565b926116bf6116b360405190565b948593840192836115f4565b90810382520382610580565b6040515b62461bcd60e51b815291829160048301610942565b0390fd5b906103d0916116f96115a182611571565b906103d091611845565b906103d0916116e8565b1561171457565b60405162461bcd60e51b815260206004820152602f60248201527f416363657373436f6e74726f6c3a2063616e206f6e6c792072656e6f756e636560448201527f20726f6c657320666f722073656c6600000000000000000000000000000000006064820152608490fd5b6103d091906117a061179033610431565b6001600160a01b0384161461170d565b611845565b9060ff905b9181191691161790565b906117c46103e66117cb92151590565b82546117a5565b9055565b906117dd6116698284611541565b6117e5575050565b6117ff60016117fa83600061155587826114ea565b6117b4565b339061183561182f61182f7f2f8788117e7eff1d82e926ec794901d17c78024a50270940304540a733656f0d9590565b92611519565b9261183f60405190565b600090a4565b906118508183611541565b611858575050565b61186c60006117fa838261155587826114ea565b339061183561182f61182f7ff6391f5c32d9c69d2a47ea670b442974b53935d1edc7fd64eb21e047a839171b9590565b6103e66001611537565b634e487b7160e01b600052601160045260246000fd5b818102929181159184041417156118cf57565b6118a6565b919082018092116118cf57565b906118ee6105f8836105bb565b918252565b369037565b906103d061190e611908846118e1565b936105bb565b601f1901602084016118f3565b634e487b7160e01b600052603260045260246000fd5b9061193a825190565b811015611948570160200190565b61191b565b80156118cf576000190190565b6115316103e66103e69290565b6103e69061197f61197b6103e69460ff1690565b9190565b901c90565b1561198b57565b60405162461bcd60e51b8152806116e4600482016020808252818101527f537472696e67733a20686578206c656e67746820696e73756666696369656e74604082015260600190565b9190600292611a05611a006119f1846119ec88610b98565b6118bc565b6119fa87610b98565b906118d4565b6118f8565b916000906030611a1d611a1784610b98565b86611931565b53611a55611a4c600f60fb1b926119ec6001998a95871a611a46611a4088610b98565b8b611931565b53610b98565b6119fa83610b98565b905b611a79575b506103e693945090611a7361197b6103e693610b98565b14611984565b91611a8386610b98565b831115611afe577f3031323334353637383961626364656600000000000000000000000000000000611ab5600f610b98565b8216906010821015611948578792611ad5611af292611af8941a60f81b90565b851a611ae18789611931565b53611aec600461195a565b90611967565b9361194d565b90611a57565b91611a5c565b6103e66103e66103e6926001600160a01b031690565b6103e6601461195a565b6103e66103e66103e69260ff1690565b611b51611b4c6103e692611b46606090565b50611510565b611b04565b6116a0611b5c611b1a565b611b24565b634e487b7160e01b600052602260045260246000fd5b9060016002830492168015611b97575b6020831014611b9257565b611b61565b91607f1691611b87565b80546000939291611bbe611bb483611b77565b8085529360200190565b9160018116908115611c105750600114611bd757505050565b611bea9192939450600052602060002090565b916000925b818410611bfc5750500190565b805484840152602090930192600101611bef565b92949550505060ff1916825215156020020190565b906103e691611ba1565b906103d0611c4992611c4060405190565b93848092611c25565b0383610580565b6103e690611c2f565b6103e66004611c50565b6103e69060a01c611531565b6103e69054611c63565b6104316103e66103e69290565b6103e690611c79565b906001600160a01b03906117aa565b90611cae6103e66117cb92611519565b8254611c8f565b9074ff00000000000000000000000000000000000000009060a01b6117aa565b90611ce56103e66117cb92151590565b8254611cb5565b611cf66003611c6f565b611ddf57611d076104316000611c86565b6001600160a01b03821614611dcd57611d29611d2282611519565b6003611c9e565b611d3560016003611cd5565b611d5f817fa49807205ce4d355092ef5a8a18f56e8913cf4a201fbe287825b095693c217756117cf565b611d89817f97667070c54ef182b0f5858b034beac1b6f3089aa2d3188bb1e8929f4fa9b9296117cf565b611d916121be565b611dbb7f27b541a16df0902e262f34789782092ab25125513b8ed73608e802951771b92891611519565b90611dc560405190565b80805b0390a2565b604051637bfd2e8360e01b8152600490fd5b604051637396742f60e11b8152600490fd5b6103e690610431565b6103e69054611df1565b33611e2a611e1d610431611e186003611dfa565b611519565b916001600160a01b031690565b03611e37576103d0611e49565b6040516310f5403960e31b8152600490fd5b611e566116696003611c6f565b611e62576103d0611e74565b604051633165f6e960e21b8152600490fd5b7fa866f3901ec84758a10f30e8953c3818eef73da93dfa46cb6aa5b726fb65813f611e9e60405190565b80805b0390a1565b6103d0611e04565b33611ec2611e1d610431611e186003611dfa565b03611e37576103d0611ed76116696003611c6f565b611e62576103d07f6dff2fe8fbb5b23bf0583bf5b2157ff62ca7e27f2fb4f404914cd0c205ced5cc611e9e60405190565b6103d0611eae565b6103e66003611c6f565b6103e6611e186003611dfa565b611f507fa49807205ce4d355092ef5a8a18f56e8913cf4a201fbe287825b095693c217756115ba565b6103d05b6103d061200f565b6103d0611f27565b611f8d7fa49807205ce4d355092ef5a8a18f56e8913cf4a201fbe287825b095693c217756115ba565b6103d05b6103d06120df565b6103d0611f64565b33611fb5611e1d610431611e186003611dfa565b03611e37576103d0611f54565b6103d0611fa1565b33611fde611e1d610431611e186003611dfa565b03611e37576103d0611f91565b6103d0611fca565b6120006116696003611c6f565b611e62576103d06103d061205c565b6103d0611ff3565b61201f6120b0565b6103d061202d6001806117b4565b33611ea17f62e78cea01bee320cd4e420270b5ea74000d11b0c9f74754ebdbfc544b05a25891610c4560405190565b6103d0612017565b1561206b57565b60405162461bcd60e51b815260206004820152601060248201527f5061757361626c653a20706175736564000000000000000000000000000000006044820152606490fd5b6103d06120be61166961189c565b612064565b6120d06116696003611c6f565b611e62576103d06103d061212d565b6103d06120c3565b6120ef612181565b6103d06120fe600060016117b4565b33611ea17f5db9ee0a495bf2e6ff9c91a7834c1ba4fdd244a5e8aa4e537bd38aeae4b073aa91610c4560405190565b6103d06120e7565b1561213c57565b60405162461bcd60e51b815260206004820152601460248201527f5061757361626c653a206e6f74207061757365640000000000000000000000006044820152606490fd5b6103d061218c61189c565b612135565b905051906103d08261043d565b906020828203126103be576103e691612191565b6040513d6000823e3d90fd5b6121e460206121cc30611519565b637b103999906121db60405190565b93849260e01b90565b825260049082905afa801561226c576103d09160009161223e575b5061221881600080516020615aa98339815191526117cf565b7faabecfdf6c789f9fb8a93bd3a33e66be61c9d95c3d88fbe57f4acd20b6d738f86117cf565b61225f915060203d8111612265575b6122578183610580565b81019061219e565b386121ff565b503d61224d565b6121b2565b9a999897969594939291906122896116696003611c6f565b611e62576103e69b906103e69b9a9998979695949392916122a86120b0565b906122c49b9a9998979695949392916122bf6129ec565b612607565b906103d0612a1e565b905051906103d082610649565b906020828203126103be576103e6916122cd565b60001981146118cf5760010190565b90600019906117aa565b906123176103e66117cb92610b98565b82546122fd565b01918252565b919082039182116118cf57565b9067ffffffffffffffff906117aa565b6001600160c01b03191690565b9061236c6123666117cb926001600160c01b03191690565b60c01c90565b8254612331565b907bffffffffffffffffffffffffffffffffffffffff00000000000000009060401b6117aa565b906123aa6103e66117cb92611519565b8254612373565b9160001960089290920291821b911b6117aa565b91906123d66103e66117cb93610b98565b9083546123b1565b6103d0916000916123c5565b8181106123f5575050565b8061240360006001936123de565b016123ea565b9190601f811161241857505050565b61242a6103d093600052602060002090565b906020601f84018190048301931061244c575b6020601f9091010401906123ea565b909150819061243d565b9061245f815190565b9067ffffffffffffffff82116105a2576124838261247d8554611b77565b85612409565b602090601f83116001146124be576117cb9291600091836124b3575b5050600019600883021c1916906002021790565b01519050388061249f565b601f198316916124d385600052602060002090565b9260005b818110612511575091600293918560019694106124f8575b50505002019055565b01516000196008601f8516021c191690553880806124ef565b919360206001819287870151815501950192016124d7565b906103d091612456565b906117c46103e66117cb92611065565b9061ff009060081b6117aa565b906125606103e66117cb9261108b565b8254612543565b9075ffffffffffffffffffffffffffffffffffffffff00009060101b6117aa565b906125986103e66117cb92611519565b8254612567565b906001600160c01b0319166114ec565b906114ec9061108b565b91969593946126006103d0966125f960a0966125f26125e76104d89760c08a01908a820360008c015261090e565b9c602089019061106e565b6040870152565b6060850152565b6080830152565b9a94959a9992989196999790975061261f6000610b98565b8a14801561296f575b8015612966575b8015612954575b6129425761268160208961264b611e186151c3565b61266963b4ae840f61265c60405190565b9586948593849360e01b90565b83526001600160c01b03191660048301526024820190565b03915afa801561226c5761269b9160009161291a57501590565b6128e8576126a9600d611567565b6126b2816122ee565b6126bd90600d612307565b60405180916020820190426126ef918d846020939261231e60088361231e88956105d8976001600160c01b0319169052565b9081038252036126ff9082610580565b805190602001209a6127128c60056114ea565b9461271d600d611567565b9a60019b61272a8d610b98565b61273391612324565b61273d9088612307565b6127498b888e0161234e565b33809c8801906127589161239a565b6127658c60028901611c9e565b6127728a60038901612529565b61277f9060048801612529565b61278c9060058701612529565b600685019061279b8883612533565b6127a6600083612550565b6127af91612588565b6127bc8a60078601612307565b6127c99060088501612307565b6127d69060098401612307565b6127e342600c8401612307565b6127ed90426118d4565b91600d8201926127fd9084612307565b61280a42600e8401612307565b61281742600f8401612307565b61282490601083016117b4565b61282e600e611567565b61283a91601101612307565b61284587600b612a29565b508661285285600961259f565b9061285c91612a29565b508661286a6000600a6125af565b9061287491612a29565b5061287f8585614a85565b61288890611567565b907fa3a88efe57786deda68f6c5dcc5465fee13dbf6c95e5da6149a2574d4b59d599926128b28890565b946001600160c01b031916956128c790611519565b966128d160405190565b938493429242916128e295876125b9565b0390a490565b6116e4886128f560405190565b634fddb6dd60e11b8152918291600483016001600160c01b0319909116815260200190565b611669915060203d811161293b575b6129338183610580565b8101906122da565b503d612929565b6040516306ac19c760e31b8152600490fd5b5061295f6000610b98565b8314612636565b5089821061262f565b5061297a6000610b98565b8114612628565b6103e69a999897969594939291906000612271565b6103e66002610b98565b156129a757565b60405162461bcd60e51b815260206004820152601f60248201527f5265656e7472616e637947756172643a207265656e7472616e742063616c6c006044820152606490fd5b6103d06129f96002611567565b612a0d612a04612996565b918214156129a0565b6002612307565b6103e66001610b98565b6103d0612a0d612a14565b90612a4060006103e693612a3b600090565b500190565b612aa5565b805482101561194857612a5f600191600052602060002090565b91020190600090565b91906123d66103e66117cb9390565b90815491680100000000000000008310156105a25782612a9f9160016103d095018155612a45565b90612a68565b612ab26116698383612aeb565b15612ae457612adf91612ada906001612ad384612acf8482612a77565b5490565b93016114ea565b612307565b600190565b5050600090565b612b09916001612b0492612afd600090565b50016114ea565b611567565b612b1661197b6000610b98565b141590565b929190612b2b6116696003611c6f565b611e62576103e693906103e6939291612b426120b0565b906122c4939291612b516129ec565b612b82565b6103e9906001600160a01b031660601b90565b018092612b56565b01906115d3565b6103e6905161105b565b92919250612b8f836148d5565b81515192600093612ba261197b86610b98565b146129425760a0830193612bb4855190565b612bc061197b83610b98565b148015612ecf575b8015612e96575b6129425761010084018051612be661197b84610b98565b1461294257818501958651924293612bfe600d611567565b612c07816122ee565b612c1290600d612307565b85612c1c60405190565b9283926020840192612c57928c8c866118ee6105d8946014602098979495612b71600886612b6961231e988e9b6001600160c01b0319169052565b908103825203612c679082610580565b805190602001209788600592612c7d82856114ea565b93612c88600d611567565b612c9490868401612307565b600185018a612ca38b8361234e565b612cac9161239a565b612cb98a60028701611c9e565b8351612cc89060038701612529565b60208b0151612cda9060048701612529565b60408b0151612cea918601612529565b60608a0193612cf885612b78565b6006820190612d079082612533565b612d118382612550565b60808c01516001600160a01b0316612d2891612588565b8551612d379060078301612307565b60c08b0151612d499060088301612307565b60e08b0151612d5b9060098301612307565b612d6482610b98565b612d7181600a8401612307565b612d7e90600b8301612307565b600c810196612d8d8989612307565b51612d9890896118d4565b9a600d82019b612da8908d612307565b612db589600e8401612307565b612dc289600f8401612307565b61012001511515612dd690601083016117b4565b612de0600e611567565b612dec91601101612307565b612df782600b612a29565b5081612e0489600961259f565b90612e0e91612a29565b50612e1a90600a6125af565b90612e2491612a29565b505190612e3090612b78565b915192612e3c90611567565b96612e4690611567565b7fa3a88efe57786deda68f6c5dcc5465fee13dbf6c95e5da6149a2574d4b59d599949089966001600160c01b03191697612e7f90611519565b98612e8960405190565b9586956128e295876125b9565b5060e084018051612ea961197b84610b98565b119081612eb7575b50612bcf565b519050612ec861197b6103e6885190565b1038612eb1565b5060c0840151612ee361197b6103e6885190565b11612bc8565b6103e69291906000612b1b565b959493929190612f096116696003611c6f565b611e62576103d096906103d0969594939291612f236120b0565b613037565b6103e69060401c610431565b6103e69054612f28565b9081526040810192916103d0916020905b01906001600160a01b03169052565b6103e69060081c611531565b6103e69054612f5e565b80546000939291612f87611bb483611b77565b9160018116908115611c105750600114612fa057505050565b612fb39192939450600052602060002090565b916000925b818410612fc55750500190565b805484840152602090930192600101612fb8565b929796946130309061302960c09661302261301a6104d89761300c6103d09d9860e08c01908c6000818403910152612f74565b908a820360208c0152612f74565b9c6040890152565b6060870152565b6080850152565b60a0830152565b94919593929061304b6103e68760056114ea565b96600188019161305a83612f34565b9260009361306d611e1d61043187611c86565b146132bb57613080610431335b92612f34565b6001600160a01b03821614158061329a575b80613279575b613256576130a860068b01612f6a565b6130bb6130b56006611081565b91611081565b14613256575080516130cf61197b85610b98565b11613243575b5080516130e461197b84610b98565b11613230575b506130f481610b98565b82119081613225575b81613202575b506131d4575b50505042906131158290565b8111806131bd575b6131aa575b5061313081600f8501612307565b60038301611dc8600485019261314860078701611567565b9561315560088201611567565b9061316e600d61316760098401611567565b9201611567565b916131977f2d861976db5536e53826be5f92e32db2e49dd12c40c783feeb5413c7f8445ef29890565b986131a160405190565b97889788612fd9565b6131b790600d8501612307565b38613122565b506131cd6103e6600c8601611567565b811161311d565b6131fa926131e86131f19260078901612307565b60088701612307565b60098501612307565b388080613109565b61320c9150610b98565b8214801561321b575b38613103565b5080821015613215565b8285111591506130fd565b61323d9060048901612529565b386130ea565b6132509060038a01612529565b386130d5565b886116e461326360405190565b63d007ec9360e01b815292839260048401612f3e565b5061329561166982600080516020615aa9833981519152611541565b613098565b506132aa61043160028c01611dfa565b6001600160a01b0382161415613092565b6116e4896132c860405190565b63ce1befcb60e01b81529182916004830190815260200190565b906103d0969594939291612ef6565b6103d0919061330d600080516020615aa98339815191526115ba565b9061331b6116696003611c6f565b611e62576103d091906103d0916133306120b0565b61335f565b6040906104d86103d0949695939661335560608401986000850190611094565b6020830190611094565b61336d6103e68260056114ea565b9161337a60018401612f34565b61338a611e1d6104316000611c86565b14613443576006830161339c81612f6a565b906133a683611081565b6133af83611081565b1461343c57836133f86103e685856133f3600f9a6133e9846133fd996133e38a6133de6103e6600a998a6125af565b61345a565b50612550565b429b8c9101612307565b6125af565b612a29565b50611dc86134297fa501447e21b5d0bd78344e62b02b2e1c935dbbc23f482a95170d08a44d63b2979490565b9461343360405190565b93849384613335565b5050505050565b6116e4826132c860405190565b906103d0916132f1565b9061346c60006103e693612a3b600090565b6134d1565b6103e6916008021c81565b906103e69154613471565b634e487b7160e01b600052603160045260246000fd5b6103d091600091612a68565b805480156134cc5760001901906134c96134c38383612a45565b9061349d565b55565b613487565b906134e2612b0482600185016114ea565b6000926134ee84610b98565b8214613541576103e69261354794926135529261354c600197889361351b61351586610b98565b82612324565b8885019161353961352a845490565b61353389610b98565b90612324565b828103613557575b50505090565b6134a9565b016114ea565b6123de565b612a9f61358061358894613577613571612ada9589612a45565b9061347c565b92839188612a45565b8888016114ea565b388080613541565b919061359f6116696003611c6f565b611e62576103d092906103d092916135b56120b0565b906135c892916135c36129ec565b61360f565b6103d0612a1e565b9081526040810192916103d09160200152565b6103e69060101c610431565b6103e690546135e3565b906117c46103e66117cb92610af4565b60c01b90565b61361d6103e68260056114ea565b9161362a60018401612f34565b9260009361363d611e1d61043187611c86565b14613931576006810161364f81612f6a565b9160019261365f6130b585611081565b0361390a5742966136756103e6600d8401611567565b8810156138e35761368587610b98565b85146138bc57600a8201926136a28661369d86611567565b6118d4565b60098401906136b661197b6103e684611567565b1161388757506136c5906135ef565b6136ce90611519565b96339786896136dc30611519565b906136e6936139a0565b87806136f38960066114ea565b906136fd91611522565b9182019061370a91611c9e565b8481018661371782611567565b90613721916118d4565b61372a91612307565b6137378960028301612307565b61374485600383016135f9565b6004019061375191612529565b8361375b83611567565b90613765916118d4565b61376f9083612307565b61377c87600f8301612307565b600790858588808061378e85886114ea565b9061379891613cc6565b15976137bb946137b6926137d99a61384c575b505085015460c01b90565b614bfa565b6137c760108201611537565b9182613826575b505061381d57611567565b9061381861380e6138087f6a1373fa7ba1bec3888b21f58e5f2a681e0ed2e5b7db7c0a174fa8467e64af189590565b95611519565b956104fe60405190565b0390a3565b612b0484613e28565b6138439192506103e661197b9161383c86611567565b9401611567565b101538806137ce565b61385c6103e6613861938b6114ea565b613ca3565b50613880600b870161387a61387582611567565b6122ee565b90612307565b8a836137ab565b61389961389386611567565b91611567565b906116e46138a660405190565b6328804e4b60e01b8152928392600484016135d0565b6116e4856138c960405190565b6347a1896d60e11b81529182916004830190815260200190565b6116e4866138f060405190565b6316c9bba560e31b81529182916004830190815260200190565b6116e48561391760405190565b63ef78d6ef60e01b81529182916004830190815260200190565b6116e4836132c860405190565b906103d09291613590565b61396261395c6103e69263ffffffff1690565b60e01b90565b6001600160e01b03191690565b6001600160a01b0390911681526060810193926103d09290916040916104d8905b6001600160a01b03166020830152565b906139e5906139d66103d0956004956139bc6323b872dd613949565b936139c660405190565b978895602087019081520161396f565b60208201810382520383610580565b613a97565b6139f460206118e1565b7f5361666545524332303a206c6f772d6c6576656c2063616c6c206661696c6564602082015290565b6103e66139ea565b15613a2c57565b60405162461bcd60e51b815260206004820152602a60248201527f5361666545524332303a204552433230206f7065726174696f6e20646964206e60448201527f6f742073756363656564000000000000000000000000000000000000000000006064820152608490fd5b6103d091613aa7613ab692611519565b90613ab0613a1d565b91613af4565b8051613ac561197b6000610b98565b14908115613ad4575b50613a25565b613aee91506020613ae3825190565b8183010191016122da565b38613ace565b6103e69291613b036000610b98565b91613b9a565b15613b1057565b60405162461bcd60e51b815260206004820152602660248201527f416464726573733a20696e73756666696369656e742062616c616e636520666f60448201527f722063616c6c00000000000000000000000000000000000000000000000000006064820152608490fd5b3d15613b9557613b8a3d6118e1565b903d6000602084013e565b606090565b9060006103e694938192613bac606090565b50613bc3613bb930611519565b8390311015613b09565b60208101905191855af1613bd5613b7b565b91613c27565b15613be257565b60405162461bcd60e51b815260206004820152601d60248201527f416464726573733a2063616c6c20746f206e6f6e2d636f6e74726163740000006044820152606490fd5b91929015613c5957508151613c3f61197b6000610b98565b14613c48575090565b613c546103e691613c5f565b613bdb565b82613c71565b3b613c6d61197b6000610b98565b1190565b90613c7a825190565b613c8761197b6000610b98565b1115613c965750805190602001fd5b6116e4906116cf60405190565b90612a4061197b6115ce611b4c60006103e696613cbe600090565b500194611510565b90613ce161197b6115ce611b4c60006103e696613cbe600090565b612aeb565b613cf36116696003611c6f565b611e62576103d0906103d090613d076120b0565b6135c890613d136129ec565b613d216103e68260056114ea565b6001810190613d2f82612f34565b613d3f611e1d6104316000611c86565b1461393157613d516104313393612f34565b6001600160a01b03831614159081613da7575b5080613d86575b613d7957506103d090613e28565b906116e461326360405190565b50613da261166982600080516020615aa9833981519152611541565b613d6b565b613db8915060026104319101611dfa565b6001600160a01b038216141538613d64565b6103d090613ce6565b634e487b7160e01b600052601260045260246000fd5b8115613df3570490565b613dd3565b6104d86103d094613e21606094989795613e1a608086019a6000870190611094565b6020850152565b6040830152565b613e366103e68260056114ea565b90613e43600a8301611567565b613e5561197b6103e660088601611567565b1015918180828160068201613e6981612f6a565b90881561407857613e7c60035b82612550565b4298613e8b8a600f8701612307565b600a96613e998894856125af565b90613ea39161345a565b5083613eae83612f6a565b613eb890856125af565b90613ec291612a29565b5080600014611dc8966133f86103e6613fd798613fc2600b996133de6103e661383c9b613fcf9b613fc99a61405857613f9c613f32613fa592613f37858b01613f2a613f1c8d613f16601161316786611567565b906118bc565b613f246112e6565b90613de9565b938491611567565b612324565b91613f5c613f47611e18846135ef565b9360018d0194613f5686612f34565b9061409f565b6000613f6781610b98565b82119081614035575b50614015575b5050613f95613f86825460c01b90565b613f8f83612f34565b90614b6e565b5460c01b90565b60019086614d5c565b60068096019a613fb5878d612550565b1561400d576003906125af565b508b6125af565b50612f6a565b948601611567565b947fe7120a43929c8f69eb64bf66c6587ec5a44dfa34cea30f8fe0901b2e54203394949561400460405190565b94859485613df8565b6004906125af565b614024611e1861402e936135ef565b613f56600f611dfa565b3880613f76565b9050614050611e1d61043161404a600f611dfa565b93611c86565b141538613f70565b5061407361406a600188015460c01b90565b60009086614d5c565b613fa5565b613e7c6004613e76565b6001600160a01b0390911681526040810192916103d09160200152565b6139e56004926139d66103d0956140b963a9059cbb613949565b926140c360405190565b9687946020860190815201614082565b906140e16116696003611c6f565b611e62576103d091906103d0916140f66120b0565b906135c8916141036129ec565b906141126103e68360056114ea565b9161411f60018401612f34565b600061412a81611c86565b9161413d6001600160a01b038416611e1d565b1461393157600685019461415086612f6a565b956004966141606130b589611081565b141590816142be575b50614298576006916141876103e68761418288876114ea565b611522565b936141a6611e1d614199848801611dfa565b926001600160a01b031690565b146142755760038401936141b985611537565b976002986141cf6141c98b610aea565b91610aea565b1461425257509286926141ff6142059361387a600161420a999801916115ce6141f784611567565b9d8e9a6135f9565b016135ef565b614875565b4261423c6142367fd9659c675462e26e5353cfc2a816f73cfe5c8e02041fbbb2fba7aa704c76567f9390565b93611519565b9361381861424960405190565b928392836135d0565b86906116e48961426160405190565b6364baa58f60e01b81529384938401612f3e565b84876116e48861428460405190565b6305cf19fb60e51b81529384938401612f3e565b83866116e46142a660405190565b63ef78d6ef60e01b8152928392830190815260200190565b6142c89150612f6a565b6142d56130b56006611081565b141538614169565b906103d0916140d3565b91906142f66116696003611c6f565b611e62576103d092906103d0929161430c6120b0565b906135c8929161431a6129ec565b6143286103e68260056114ea565b6001810161433581612f34565b90600091614348611e1d61043185611c86565b146144a8576143596104313361307a565b6001600160a01b038216141580614487575b80614466575b614459576006830161438281612f6a565b61438f6130b56003611081565b1415908161443a575b5061442d579161158a600b926143c5886143fd966143b58a611519565b906143bf30611519565b916139a0565b60026143f66143dc6103e68a6141828b60086114ea565b926143e98a828601611c9e565b6115ce8b60018601612307565b9101612307565b429361381861380e6138087fa2be304a31c5194b71cd99f0ee865ff9ca0b8b8266efeab33a5a78d3cdf9a0999590565b6116e48461391760405190565b6144449150612f6a565b6144516130b56006611081565b141538614398565b836116e461326360405190565b5061448261166982600080516020615aa9833981519152611541565b614371565b5061449761043160028501611dfa565b6001600160a01b038216141561436b565b6116e4846132c860405190565b906103d092916142e7565b906144ce6116696003611c6f565b611e62576103d091906103d0916144e36120b0565b906135c8916144f06129ec565b614510565b9081526060810193926103d0929091604091612f4f90613990565b9190916145216103e68260056114ea565b9061452e60018301612f34565b600061453981611c86565b9161454c6001600160a01b038416611e1d565b146139315761455c8360066114ea565b9361456b6103e6338097611522565b93614577838601611dfa565b6145896001600160a01b038616611e1d565b14614688576145a06103e6896141828460086114ea565b936145b2611e1d614199868801611dfa565b146146645760038401926145d561197b6145cf612b048a88611522565b92610b98565b1161463f575083614630600261463a956146226103d09a9b96612ada61461a611e1898613f24600a8f9e61460e60016131679201611567565b613f1660018b01611567565b9b8c92611522565b0161387a8861369d83611567565b60038091016135f9565b61409f565b85906116e48961464e60405190565b633d6c53f760e21b8152938493600485016144f5565b87906116e461467260405190565b63d67bb84560e01b815292839260048401612f3e565b85906116e461469660405190565b6305cf19fb60e51b815292839260048401612f3e565b906103d0916144c0565b91906146c56116696003611c6f565b611e62576103d092906103d092916146db6120b0565b906135c892916146e96129ec565b6146f76103e68260056114ea565b6001810161470481612f34565b614714611e1d6104316000611c86565b14613931576147256104313361307a565b6001600160a01b0382161415806147fd575b806147dc575b6147cf5750600681019161475083612f6a565b61475d6130b56003611081565b1415806147b1575b6147a457506103e6600a6147839201613f32613893610d3383611567565b831161479757906142056103d093926135ef565b6116e4836138c960405190565b6116e49061391760405190565b506147bb83612f6a565b6147c86130b56006611081565b1415614765565b826116e461326360405190565b506147f861166982600080516020615aa9833981519152611541565b61473d565b5061480d61043160028401611dfa565b6001600160a01b0382161415614737565b906103d092916146b6565b1561483057565b60405162461bcd60e51b815260206004820152601360248201527f455448207472616e73666572206661696c6564000000000000000000000000006044820152606490fd5b919060009261488661043185611c86565b6001600160a01b038216036148c757509180916148a8611e186103d095611519565b906148b260405190565b90818003925af16148c1613b7b565b50614829565b6103d0935061463a90611519565b6148fe7fbdded29a54e6a5d6169bedea55373b06f57e35d7b0f67ac187565b435e2cc943614a02565b61490b6104316000611c86565b6001600160a01b0382161461497d57602061492b611e1861493a93611519565b63b4ae840f906121db60405190565b82526001600160c01b03198516600483015260249082905afa801561226c576149699160009161291a57501590565b6149705750565b6116e4906128f560405190565b6116e4826128f560405190565b906149986116696003611c6f565b611e62576103e6916149d491602091506149b5611e186003611dfa565b6149c66385acd64161265c60405190565b835260048301526024820190565b03915afa90811561226c576000916149ea575090565b6103e6915060203d8111612265576122578183610580565b6103e690600061498a565b60031115610ae557565b906103d082614a0d565b6103e690614a17565b6103e990614a21565b909594926103d094614a7e6104d892614a74608096614a6360a088019c60008901906001600160c01b0319169052565b6001600160c01b0319166020870152565b6040850190614a2a565b6060830152565b614a90611e186151ef565b91600091614aa061043184611c86565b6001600160a01b03851603614ab6575b50505050565b614ac581634157db8d936150c3565b93600192614ad46115ce610f1d565b7f7784137e8aa224333cd627cedd1bdbd335ef438dc4e56deeb7b75cdd911c7d1691833b156103be57614b2a614b1f938897938894614b1260405190565b9b8c998a98899760e01b90565b875260048701614a33565b03925af19182614b41575b50505038808080614ab0565b81614b6092903d10614b67575b614b588183610580565b810190610831565b3880614b35565b503d614b4e565b614b79611e186151ef565b91600091614b8961043184611c86565b6001600160a01b03851603614b9e5750505050565b614bad81634157db8d936150c3565b93600192614bbc6115ce61135e565b7f856fc5590e860b76c810a7c1f61f6226276aabc450115c591580f539b062c47691833b156103be57614b2a614b1f938897938894614b1260405190565b9091614c07611e186151ef565b91600092614c1761043185611c86565b6001600160a01b03821603614c2d575050505050565b614c35610ba5565b8093614c4561197b6103e6610cb3565b1015614cdb575b50614c5c82634157db8d966150c3565b94614c68600194610b98565b7f248561bd567436f08d102863b10cfeceb1c983ff88f71ce5266173d5931004fa91833b156103be57614ca6614b1f938897938894614b1260405190565b03925af19182614cbe575b505050388080808061343c565b81614cd492903d10614b6757614b588183610580565b3880614cb1565b614ce99193506119fa610f1d565b9138614c4c565b90614cf9825190565b811015611948576020809102010190565b6123416136096103e69290565b6104d86103d094614d53606094989795614d42608086019a60008701906001600160c01b0319169052565b6001600160c01b0319166020850152565b15156040830152565b929192614d6a611e186151ef565b600091614d7961043184611c86565b6001600160a01b03831603614d91575b505050509050565b614da26103e6614da79260076114ea565b614edd565b614db083610b98565b614dbb6103e6835190565b811015614ecc57614de585614de0614dd38486614cf0565b516001600160a01b031690565b6150c3565b90614df261234186614d0a565b6001600160c01b0319831603614e12575b614e0d91506122ee565b614db0565b6348bd59a6918815614ea5577f31124d73872614326a5e21427e63dfe2f9658bf865b809f98d543e248cf9b145925b853b156103be57614e698791614e75614e0d968d614e5e60405190565b968795869560e01b90565b85528d60048601614d17565b038183895af19081614e89575b5050614e03565b614e9f90873d8911614b6757614b588183610580565b38614e82565b7f564acfe6a4c760093cacd71f93bac13fb61f4a9a5bfb6344e29c0862b56b9d2e92614e41565b505050505090508038808080614d89565b606090614ee990614f73565b905090565b90614f09614efd610f6d845490565b92600052602060002090565b9060005b818110614f1a5750505090565b909192614f3e614f37600192614f2f87611567565b815260200190565b9460010190565b929101614f0d565b906103e691614eee565b906103d0611c4992614f6160405190565b93848092614f46565b6103e690614f50565b60006103e691614f81606090565b5001614f6a565b905051906103d08261054d565b90929192614fa56105f8826105bb565b938185526020850190828401116103be576103d0926108eb565b9080601f830112156103be5781516103e692602001614f95565b905051906103d08261041e565b919091610100818403126103be57614fff6101006105a7565b92600061500c8284614f88565b90850152602061501e82828501612191565b90850152604061503082828501614f88565b9085015260608201519067ffffffffffffffff82116103be576150588161075d938501614fbf565b6060860152608061506b82828601614fd9565b9086015260a061507d82828601614fd9565b9086015260c061508f828286016122cd565b9086015260e08093016122cd565b906020828203126103be57815167ffffffffffffffff81116103be576103e69201614fe6565b600092916150f07f377799b22fba826cf24c3f07e6731c67676765addcee33415a2c80d453d4ed6e614a02565b9160009261510061043185611c86565b6001600160a01b038216146151b5579061511d611e188593611519565b61513e6336cde77b61516461513160405190565b9687958694859460e01b90565b84526001600160a01b031660048401526001600160c01b03191660248301526044820190565b03915afa60009181615192575b5061518257506103e6919250614d0a565b01516001600160c01b0319169150565b6151ae91923d8091833e6151a68183610580565b81019061509d565b9038615171565b5050506103e6919250614d0a565b6103e6611e187fbdded29a54e6a5d6169bedea55373b06f57e35d7b0f67ac187565b435e2cc943614a02565b6152187fda774a9a6475b94924a168725d00b478d90cbf28e9176d635f3dab48a3a91508614a02565b6152226000611c86565b6001600160a01b0381166001600160a01b0383161461524557506103e690611519565b6103e69150611519565b6103e66102a06105a7565b61526261524f565b9060008252602082016000815260200160008152602001600081526020016060815260200160608152602001606081526020016000815260200160008152602001600081526020016000815260200160008152602001600081526020016000815260200160008152602001600081526020016000815260200160008152602001600081526020016000815260200160009052565b6103e661525a565b906103e99061105b565b906103e990611081565b906103d061550f601161532361524f565b9461533461533082611567565b8752565b615356615345600183015460c01b90565b6001600160c01b0319166020880152565b61537561536560018301612f34565b6001600160a01b03166040880152565b61539461538460028301611dfa565b6001600160a01b03166060880152565b6153aa6153a360038301611c2f565b6080880152565b6153c06153b960048301611c2f565b60a0880152565b6153d66153cf60058301611c2f565b60c0880152565b6153ee6153e560068301611537565b60e088016152fe565b6154076153fd60068301612f6a565b6101008801615308565b615427615416600683016135ef565b6001600160a01b0316610120880152565b61543e61543660078301611567565b610140880152565b61545561544d60088301611567565b610160880152565b61546c61546460098301611567565b610180880152565b61548361547b600a8301611567565b6101a0880152565b61549a615492600b8301611567565b6101c0880152565b6154b16154a9600c8301611567565b6101e0880152565b6154c86154c0600d8301611567565b610200880152565b6154df6154d7600e8301611567565b610220880152565b6154f66154ee600f8301611567565b610240880152565b61158a61550560108301611537565b1515610260880152565b610280840152565b6103e690615312565b6155376103e69161552f6152f6565b5060056114ea565b615517565b6103e660a06105a7565b61554e61553c565b906000825260208080808086016000815201600081520160008152016060905250565b6103e6615546565b906103e990610aea565b906103d06155f8600461559461553c565b946155ae6155a182611dfa565b6001600160a01b03168752565b6155c46155bd60018301611567565b6020880152565b6155da6155d360028301611567565b6040880152565b6155f26155e960038301611537565b60608801615579565b01611c2f565b6080840152565b6103e690615583565b6103e6916141826156239261561b615571565b5060066114ea565b6155ff565b614da26103e66103e69261563a606090565b5060076114ea565b614da26103e66103e692615654606090565b50600961259f565b614da26103e66103e69261566e606090565b50600a6125af565b6103e66156859161552f600090565b61569160068201612f6a565b61569e6130b56001611081565b1490816156a9575090565b90506156be61197b6103e6600d429401611567565b1090565b6156d291506103e690600061552f565b6156de60018201612f34565b906000916156f1611e1d61043185611c86565b14159182615768575b8261574c575b8261570a57505090565b909150600982019061572161197b6145cf84611567565b1491821561572e57505090565b6156be9192506103e6615746600a61197b9301611567565b93611567565b91504261576161197b6103e6600d8501611567565b1091615700565b91506006810161577781612f6a565b6157846130b56001611081565b14908115615794575b50916156fa565b61579e9150612f6a565b6157aa6130b584611081565b143861578d565b6103e66157c09161552f600090565b906157cd600a8301611567565b906157db6007839401611567565b918260006157e881610b98565b82111561580657506158016103e692613f166064610b98565b613de9565b90506103e69150610b98565b6103e66158219161552f600090565b600d01426158316103e683611567565b81101561584457613f326103e692611567565b50506103e66000610b98565b600b546103e690819081565b6103e6600e611567565b613f1c6103e691615875600090565b50613f16600e611567565b92906158b46103e66158966103e68760056114ea565b926141826158ac6103e6886141828b60066114ea565b9760086114ea565b936158be81611dfa565b6000906158ca82611c86565b906158dd6001600160a01b038316611e1d565b14908115615941575b5061592b5750612b046159196103e693613f24600a61316761590d60016159249801611567565b613f1660018d01611567565b946003869701611522565b8093612324565b929450505061593a9150610b98565b9081908290565b9050615954611e1d614199848a01611dfa565b14386158e6565b6103d090615976600080516020615aa98339815191526115ba565b6159816103e6610eef565b8111615992576103d090600e612307565b6116e49061599f60405190565b63660d83e960e11b81529182916004830190815260200190565b6103d09061595b565b6103d0906159dd600080516020615aa98339815191526115ba565b615a2e565b156159e957565b60405162461bcd60e51b815260206004820152601160248201527f496e76616c696420726563697069656e740000000000000000000000000000006044820152606490fd5b6103d090615a53615a426104316000611c86565b6001600160a01b03831614156159e2565b600f611c9e565b6103d0906159c2565b6103d0929190615a927fa49807205ce4d355092ef5a8a18f56e8913cf4a201fbe287825b095693c217756115ba565b906103d09291614875565b906103d09291615a6356fe8f882e9b3b0c043c8507802fbb9a0ed808c8f0587361ab18424493e6841512a8a2646970667358221220b7ed8e39b67e710e7d294ee8d48f1f51b68096dd3e4e542a03ec58c91f84646a64736f6c63430008140033",
  "linkReferences": {},
  "deployedLinkReferences": {}
}