{
  "_format": "hh-sol-artifact-1",
  "contractName": "Flow",
  "sourceName": "contracts/modules/Flow/Flow.sol",
  "abi": [
    {
      "inputs": [],
      "stateMutability": "nonpayable",
      "type": "constructor"
    },
    {
      "inputs": [
        {
          "internalType": "uint256",
          "name": "raised",
          "type": "uint256"
        },
        {
          "internalType": "uint256",
          "name": "max",
          "type": "uint256"
        }
      ],
      "name": "CampaignCapReached",
      "type": "error"
    },
    {
      "inputs": [
        {
          "internalType": "bytes32",
          "name": "campaignId",
          "type": "bytes32"
        }
      ],
      "name": "CampaignEnded",
      "type": "error"
    },
    {
      "inputs": [
        {
          "internalType": "bytes32",
          "name": "campaignId",
          "type": "bytes32"
        }
      ],
      "name": "CampaignNotActive",
      "type": "error"
    },
    {
      "inputs": [
        {
          "internalType": "bytes32",
          "name": "campaignId",
          "type": "bytes32"
        }
      ],
      "name": "CampaignNotEnded",
      "type": "error"
    },
    {
      "inputs": [
        {
          "internalType": "bytes32",
          "name": "campaignId",
          "type": "bytes32"
        }
      ],
      "name": "CampaignNotFound",
      "type": "error"
    },
    {
      "inputs": [
        {
          "internalType": "bytes32",
          "name": "campaignId",
          "type": "bytes32"
        },
        {
          "internalType": "address",
          "name": "contributor",
          "type": "address"
        }
      ],
      "name": "ContributionAlreadyRefunded",
      "type": "error"
    },
    {
      "inputs": [
        {
          "internalType": "uint256",
          "name": "amount",
          "type": "uint256"
        },
        {
          "internalType": "uint256",
          "name": "max",
          "type": "uint256"
        }
      ],
      "name": "ContributionExceedsMax",
      "type": "error"
    },
    {
      "inputs": [
        {
          "internalType": "bytes32",
          "name": "campaignId",
          "type": "bytes32"
        },
        {
          "internalType": "address",
          "name": "token",
          "type": "address"
        }
      ],
      "name": "InsufficientRewardBalance",
      "type": "error"
    },
    {
      "inputs": [],
      "name": "InvalidCampaignParameters",
      "type": "error"
    },
    {
      "inputs": [
        {
          "internalType": "uint256",
          "name": "amount",
          "type": "uint256"
        }
      ],
      "name": "InvalidContributionAmount",
      "type": "error"
    },
    {
      "inputs": [
        {
          "internalType": "uint256",
          "name": "fee",
          "type": "uint256"
        }
      ],
      "name": "InvalidProtocolFee",
      "type": "error"
    },
    {
      "inputs": [],
      "name": "InvalidRegistryAddress",
      "type": "error"
    },
    {
      "inputs": [],
      "name": "ModuleAlreadyInitialized",
      "type": "error"
    },
    {
      "inputs": [],
      "name": "ModuleNotInitialized",
      "type": "error"
    },
    {
      "inputs": [
        {
          "internalType": "bytes32",
          "name": "campaignId",
          "type": "bytes32"
        },
        {
          "internalType": "address",
          "name": "contributor",
          "type": "address"
        }
      ],
      "name": "NoContributionFound",
      "type": "error"
    },
    {
      "inputs": [],
      "name": "OnlyRegistry",
      "type": "error"
    },
    {
      "inputs": [
        {
          "internalType": "bytes8",
          "name": "organizationId",
          "type": "bytes8"
        }
      ],
      "name": "OrganizationNotFound",
      "type": "error"
    },
    {
      "inputs": [
        {
          "internalType": "bytes32",
          "name": "campaignId",
          "type": "bytes32"
        },
        {
          "internalType": "address",
          "name": "contributor",
          "type": "address"
        },
        {
          "internalType": "address",
          "name": "token",
          "type": "address"
        }
      ],
      "name": "RewardsAlreadyClaimed",
      "type": "error"
    },
    {
      "inputs": [
        {
          "internalType": "bytes32",
          "name": "campaignId",
          "type": "bytes32"
        },
        {
          "internalType": "address",
          "name": "caller",
          "type": "address"
        }
      ],
      "name": "UnauthorizedCampaignAccess",
      "type": "error"
    },
    {
      "anonymous": false,
      "inputs": [
        {
          "indexed": true,
          "internalType": "bytes32",
          "name": "campaignId",
          "type": "bytes32"
        },
        {
          "indexed": true,
          "internalType": "bytes8",
          "name": "organizationId",
          "type": "bytes8"
        },
        {
          "indexed": true,
          "internalType": "address",
          "name": "creator",
          "type": "address"
        },
        {
          "indexed": false,
          "internalType": "string",
          "name": "title",
          "type": "string"
        },
        {
          "indexed": false,
          "internalType": "enum IFlow.FlowType",
          "name": "flowType",
          "type": "uint8"
        },
        {
          "indexed": false,
          "internalType": "uint256",
          "name": "target",
          "type": "uint256"
        },
        {
          "indexed": false,
          "internalType": "uint256",
          "name": "startTime",
          "type": "uint256"
        },
        {
          "indexed": false,
          "internalType": "uint256",
          "name": "endTime",
          "type": "uint256"
        },
        {
          "indexed": false,
          "internalType": "uint256",
          "name": "timestamp",
          "type": "uint256"
        }
      ],
      "name": "CampaignCreated",
      "type": "event"
    },
    {
      "anonymous": false,
      "inputs": [
        {
          "indexed": true,
          "internalType": "bytes32",
          "name": "campaignId",
          "type": "bytes32"
        },
        {
          "indexed": false,
          "internalType": "enum IFlow.FlowState",
          "name": "finalState",
          "type": "uint8"
        },
        {
          "indexed": false,
          "internalType": "uint256",
          "name": "totalRaised",
          "type": "uint256"
        },
        {
          "indexed": false,
          "internalType": "uint256",
          "name": "contributorCount",
          "type": "uint256"
        },
        {
          "indexed": false,
          "internalType": "uint256",
          "name": "timestamp",
          "type": "uint256"
        }
      ],
      "name": "CampaignFinalized",
      "type": "event"
    },
    {
      "anonymous": false,
      "inputs": [
        {
          "indexed": true,
          "internalType": "bytes32",
          "name": "campaignId",
          "type": "bytes32"
        },
        {
          "indexed": false,
          "internalType": "enum IFlow.FlowState",
          "name": "oldState",
          "type": "uint8"
        },
        {
          "indexed": false,
          "internalType": "enum IFlow.FlowState",
          "name": "newState",
          "type": "uint8"
        },
        {
          "indexed": false,
          "internalType": "uint256",
          "name": "timestamp",
          "type": "uint256"
        }
      ],
      "name": "CampaignStateChanged",
      "type": "event"
    },
    {
      "anonymous": false,
      "inputs": [
        {
          "indexed": true,
          "internalType": "bytes32",
          "name": "campaignId",
          "type": "bytes32"
        },
        {
          "indexed": false,
          "internalType": "string",
          "name": "title",
          "type": "string"
        },
        {
          "indexed": false,
          "internalType": "string",
          "name": "description",
          "type": "string"
        },
        {
          "indexed": false,
          "internalType": "uint256",
          "name": "target",
          "type": "uint256"
        },
        {
          "indexed": false,
          "internalType": "uint256",
          "name": "min",
          "type": "uint256"
        },
        {
          "indexed": false,
          "internalType": "uint256",
          "name": "max",
          "type": "uint256"
        },
        {
          "indexed": false,
          "internalType": "uint256",
          "name": "endTime",
          "type": "uint256"
        },
        {
          "indexed": false,
          "internalType": "uint256",
          "name": "timestamp",
          "type": "uint256"
        }
      ],
      "name": "CampaignUpdated",
      "type": "event"
    },
    {
      "anonymous": false,
      "inputs": [
        {
          "indexed": true,
          "internalType": "bytes32",
          "name": "campaignId",
          "type": "bytes32"
        },
        {
          "indexed": true,
          "internalType": "address",
          "name": "contributor",
          "type": "address"
        },
        {
          "indexed": false,
          "internalType": "uint256",
          "name": "amount",
          "type": "uint256"
        },
        {
          "indexed": false,
          "internalType": "uint256",
          "name": "totalRaised",
          "type": "uint256"
        },
        {
          "indexed": false,
          "internalType": "uint256",
          "name": "timestamp",
          "type": "uint256"
        }
      ],
      "name": "ContributionMade",
      "type": "event"
    },
    {
      "anonymous": false,
      "inputs": [
        {
          "indexed": true,
          "internalType": "bytes32",
          "name": "campaignId",
          "type": "bytes32"
        },
        {
          "indexed": true,
          "internalType": "address",
          "name": "contributor",
          "type": "address"
        },
        {
          "indexed": false,
          "internalType": "uint256",
          "name": "amount",
          "type": "uint256"
        },
        {
          "indexed": false,
          "internalType": "uint256",
          "name": "timestamp",
          "type": "uint256"
        }
      ],
      "name": "ContributionRefunded",
      "type": "event"
    },
    {
      "anonymous": false,
      "inputs": [],
      "name": "ModuleDisabled",
      "type": "event"
    },
    {
      "anonymous": false,
      "inputs": [],
      "name": "ModuleEnabled",
      "type": "event"
    },
    {
      "anonymous": false,
      "inputs": [
        {
          "indexed": true,
          "internalType": "address",
          "name": "registry",
          "type": "address"
        }
      ],
      "name": "ModuleInitialized",
      "type": "event"
    },
    {
      "anonymous": false,
      "inputs": [
        {
          "indexed": false,
          "internalType": "address",
          "name": "account",
          "type": "address"
        }
      ],
      "name": "Paused",
      "type": "event"
    },
    {
      "anonymous": false,
      "inputs": [
        {
          "indexed": true,
          "internalType": "bytes32",
          "name": "campaignId",
          "type": "bytes32"
        },
        {
          "indexed": true,
          "internalType": "address",
          "name": "token",
          "type": "address"
        },
        {
          "indexed": false,
          "internalType": "uint256",
          "name": "amount",
          "type": "uint256"
        },
        {
          "indexed": false,
          "internalType": "uint256",
          "name": "timestamp",
          "type": "uint256"
        }
      ],
      "name": "ProtocolFeeCollected",
      "type": "event"
    },
    {
      "anonymous": false,
      "inputs": [
        {
          "indexed": true,
          "internalType": "bytes32",
          "name": "campaignId",
          "type": "bytes32"
        },
        {
          "indexed": true,
          "internalType": "address",
          "name": "token",
          "type": "address"
        },
        {
          "indexed": false,
          "internalType": "uint256",
          "name": "totalAmount",
          "type": "uint256"
        },
        {
          "indexed": false,
          "internalType": "uint256",
          "name": "contributorCount",
          "type": "uint256"
        },
        {
          "indexed": false,
          "internalType": "uint256",
          "name": "timestamp",
          "type": "uint256"
        }
      ],
      "name": "RewardsDistributed",
      "type": "event"
    },
    {
      "anonymous": false,
      "inputs": [
        {
          "indexed": true,
          "internalType": "bytes32",
          "name": "role",
          "type": "bytes32"
        },
        {
          "indexed": true,
          "internalType": "bytes32",
          "name": "previousAdminRole",
          "type": "bytes32"
        },
        {
          "indexed": true,
          "internalType": "bytes32",
          "name": "newAdminRole",
          "type": "bytes32"
        }
      ],
      "name": "RoleAdminChanged",
      "type": "event"
    },
    {
      "anonymous": false,
      "inputs": [
        {
          "indexed": true,
          "internalType": "bytes32",
          "name": "role",
          "type": "bytes32"
        },
        {
          "indexed": true,
          "internalType": "address",
          "name": "account",
          "type": "address"
        },
        {
          "indexed": true,
          "internalType": "address",
          "name": "sender",
          "type": "address"
        }
      ],
      "name": "RoleGranted",
      "type": "event"
    },
    {
      "anonymous": false,
      "inputs": [
        {
          "indexed": true,
          "internalType": "bytes32",
          "name": "role",
          "type": "bytes32"
        },
        {
          "indexed": true,
          "internalType": "address",
          "name": "account",
          "type": "address"
        },
        {
          "indexed": true,
          "internalType": "address",
          "name": "sender",
          "type": "address"
        }
      ],
      "name": "RoleRevoked",
      "type": "event"
    },
    {
      "anonymous": false,
      "inputs": [
        {
          "indexed": false,
          "internalType": "address",
          "name": "account",
          "type": "address"
        }
      ],
      "name": "Unpaused",
      "type": "event"
    },
    {
      "inputs": [],
      "name": "ADMIN_ROLE",
      "outputs": [
        {
          "internalType": "bytes32",
          "name": "",
          "type": "bytes32"
        }
      ],
      "stateMutability": "view",
      "type": "function"
    },
    {
      "inputs": [],
      "name": "BASIS_POINTS",
      "outputs": [
        {
          "internalType": "uint256",
          "name": "",
          "type": "uint256"
        }
      ],
      "stateMutability": "view",
      "type": "function"
    },
    {
      "inputs": [],
      "name": "CAMPAIGN_CREATOR_ROLE",
      "outputs": [
        {
          "internalType": "bytes32",
          "name": "",
          "type": "bytes32"
        }
      ],
      "stateMutability": "view",
      "type": "function"
    },
    {
      "inputs": [],
      "name": "DEFAULT_ADMIN_ROLE",
      "outputs": [
        {
          "internalType": "bytes32",
          "name": "",
          "type": "bytes32"
        }
      ],
      "stateMutability": "view",
      "type": "function"
    },
    {
      "inputs": [],
      "name": "FLOW_ADMIN_ROLE",
      "outputs": [
        {
          "internalType": "bytes32",
          "name": "",
          "type": "bytes32"
        }
      ],
      "stateMutability": "view",
      "type": "function"
    },
    {
      "inputs": [],
      "name": "MAX_PROTOCOL_FEE",
      "outputs": [
        {
          "internalType": "uint256",
          "name": "",
          "type": "uint256"
        }
      ],
      "stateMutability": "view",
      "type": "function"
    },
    {
      "inputs": [],
      "name": "OPERATOR_ROLE",
      "outputs": [
        {
          "internalType": "bytes32",
          "name": "",
          "type": "bytes32"
        }
      ],
      "stateMutability": "view",
      "type": "function"
    },
    {
      "inputs": [
        {
          "internalType": "uint256",
          "name": "amount",
          "type": "uint256"
        }
      ],
      "name": "calculateProtocolFee",
      "outputs": [
        {
          "internalType": "uint256",
          "name": "",
          "type": "uint256"
        }
      ],
      "stateMutability": "view",
      "type": "function"
    },
    {
      "inputs": [
        {
          "internalType": "bytes32",
          "name": "campaignId",
          "type": "bytes32"
        },
        {
          "internalType": "address",
          "name": "",
          "type": "address"
        }
      ],
      "name": "canContribute",
      "outputs": [
        {
          "internalType": "bool",
          "name": "",
          "type": "bool"
        }
      ],
      "stateMutability": "view",
      "type": "function"
    },
    {
      "inputs": [
        {
          "internalType": "bytes32",
          "name": "campaignId",
          "type": "bytes32"
        },
        {
          "internalType": "address",
          "name": "rewardToken",
          "type": "address"
        }
      ],
      "name": "claimRewards",
      "outputs": [],
      "stateMutability": "nonpayable",
      "type": "function"
    },
    {
      "inputs": [
        {
          "internalType": "bytes32",
          "name": "campaignId",
          "type": "bytes32"
        },
        {
          "internalType": "uint256",
          "name": "amount",
          "type": "uint256"
        },
        {
          "internalType": "string",
          "name": "metadata",
          "type": "string"
        }
      ],
      "name": "contribute",
      "outputs": [],
      "stateMutability": "payable",
      "type": "function"
    },
    {
      "inputs": [
        {
          "internalType": "bytes8",
          "name": "organizationId",
          "type": "bytes8"
        },
        {
          "internalType": "string",
          "name": "title",
          "type": "string"
        },
        {
          "internalType": "string",
          "name": "description",
          "type": "string"
        },
        {
          "internalType": "string",
          "name": "metadataURI",
          "type": "string"
        },
        {
          "internalType": "enum IFlow.FlowType",
          "name": "flowType",
          "type": "uint8"
        },
        {
          "internalType": "address",
          "name": "paymentToken",
          "type": "address"
        },
        {
          "internalType": "uint256",
          "name": "target",
          "type": "uint256"
        },
        {
          "internalType": "uint256",
          "name": "min",
          "type": "uint256"
        },
        {
          "internalType": "uint256",
          "name": "max",
          "type": "uint256"
        },
        {
          "internalType": "uint256",
          "name": "duration",
          "type": "uint256"
        },
        {
          "internalType": "bool",
          "name": "autoFinalize",
          "type": "bool"
        }
      ],
      "name": "createCampaign",
      "outputs": [
        {
          "internalType": "bytes32",
          "name": "campaignId",
          "type": "bytes32"
        }
      ],
      "stateMutability": "nonpayable",
      "type": "function"
    },
    {
      "inputs": [
        {
          "internalType": "address",
          "name": "creator",
          "type": "address"
        },
        {
          "internalType": "bytes8",
          "name": "organizationId",
          "type": "bytes8"
        },
        {
          "components": [
            {
              "internalType": "string",
              "name": "title",
              "type": "string"
            },
            {
              "internalType": "string",
              "name": "description",
              "type": "string"
            },
            {
              "internalType": "string",
              "name": "metadataURI",
              "type": "string"
            },
            {
              "internalType": "enum IFlow.FlowType",
              "name": "flowType",
              "type": "uint8"
            },
            {
              "internalType": "address",
              "name": "paymentToken",
              "type": "address"
            },
            {
              "internalType": "uint256",
              "name": "target",
              "type": "uint256"
            },
            {
              "internalType": "uint256",
              "name": "min",
              "type": "uint256"
            },
            {
              "internalType": "uint256",
              "name": "max",
              "type": "uint256"
            },
            {
              "internalType": "uint256",
              "name": "duration",
              "type": "uint256"
            },
            {
              "internalType": "bool",
              "name": "autoFinalize",
              "type": "bool"
            }
          ],
          "internalType": "struct IFlow.CampaignParams",
          "name": "params",
          "type": "tuple"
        }
      ],
      "name": "createCampaignWithParams",
      "outputs": [
        {
          "internalType": "bytes32",
          "name": "campaignId",
          "type": "bytes32"
        }
      ],
      "stateMutability": "nonpayable",
      "type": "function"
    },
    {
      "inputs": [
        {
          "internalType": "bytes32",
          "name": "campaignId",
          "type": "bytes32"
        },
        {
          "internalType": "address",
          "name": "rewardToken",
          "type": "address"
        },
        {
          "internalType": "uint256",
          "name": "totalRewardAmount",
          "type": "uint256"
        }
      ],
      "name": "distributeRewards",
      "outputs": [],
      "stateMutability": "nonpayable",
      "type": "function"
    },
    {
      "inputs": [],
      "name": "emergencyPause",
      "outputs": [],
      "stateMutability": "nonpayable",
      "type": "function"
    },
    {
      "inputs": [],
      "name": "emergencyUnpause",
      "outputs": [],
      "stateMutability": "nonpayable",
      "type": "function"
    },
    {
      "inputs": [
        {
          "internalType": "address",
          "name": "token",
          "type": "address"
        },
        {
          "internalType": "address",
          "name": "to",
          "type": "address"
        },
        {
          "internalType": "uint256",
          "name": "amount",
          "type": "uint256"
        }
      ],
      "name": "emergencyWithdraw",
      "outputs": [],
      "stateMutability": "nonpayable",
      "type": "function"
    },
    {
      "inputs": [
        {
          "internalType": "bytes32",
          "name": "campaignId",
          "type": "bytes32"
        }
      ],
      "name": "finalizeCampaign",
      "outputs": [],
      "stateMutability": "nonpayable",
      "type": "function"
    },
    {
      "inputs": [
        {
          "internalType": "bytes32",
          "name": "campaignId",
          "type": "bytes32"
        }
      ],
      "name": "getCampaign",
      "outputs": [
        {
          "components": [
            {
              "internalType": "uint256",
              "name": "index",
              "type": "uint256"
            },
            {
              "internalType": "bytes8",
              "name": "organizationId",
              "type": "bytes8"
            },
            {
              "internalType": "address",
              "name": "creator",
              "type": "address"
            },
            {
              "internalType": "address",
              "name": "admin",
              "type": "address"
            },
            {
              "internalType": "string",
              "name": "title",
              "type": "string"
            },
            {
              "internalType": "string",
              "name": "description",
              "type": "string"
            },
            {
              "internalType": "string",
              "name": "metadataURI",
              "type": "string"
            },
            {
              "internalType": "enum IFlow.FlowType",
              "name": "flowType",
              "type": "uint8"
            },
            {
              "internalType": "enum IFlow.FlowState",
              "name": "state",
              "type": "uint8"
            },
            {
              "internalType": "address",
              "name": "paymentToken",
              "type": "address"
            },
            {
              "internalType": "uint256",
              "name": "target",
              "type": "uint256"
            },
            {
              "internalType": "uint256",
              "name": "min",
              "type": "uint256"
            },
            {
              "internalType": "uint256",
              "name": "max",
              "type": "uint256"
            },
            {
              "internalType": "uint256",
              "name": "raised",
              "type": "uint256"
            },
            {
              "internalType": "uint256",
              "name": "contributorCount",
              "type": "uint256"
            },
            {
              "internalType": "uint256",
              "name": "startTime",
              "type": "uint256"
            },
            {
              "internalType": "uint256",
              "name": "endTime",
              "type": "uint256"
            },
            {
              "internalType": "uint256",
              "name": "createdAt",
              "type": "uint256"
            },
            {
              "internalType": "uint256",
              "name": "updatedAt",
              "type": "uint256"
            },
            {
              "internalType": "bool",
              "name": "autoFinalize",
              "type": "bool"
            },
            {
              "internalType": "uint256",
              "name": "protocolFee",
              "type": "uint256"
            }
          ],
          "internalType": "struct IFlow.Campaign",
          "name": "",
          "type": "tuple"
        }
      ],
      "stateMutability": "view",
      "type": "function"
    },
    {
      "inputs": [
        {
          "internalType": "bytes32",
          "name": "campaignId",
          "type": "bytes32"
        }
      ],
      "name": "getCampaignContributors",
      "outputs": [
        {
          "internalType": "address[]",
          "name": "",
          "type": "address[]"
        }
      ],
      "stateMutability": "view",
      "type": "function"
    },
    {
      "inputs": [],
      "name": "getCampaignCount",
      "outputs": [
        {
          "internalType": "uint256",
          "name": "",
          "type": "uint256"
        }
      ],
      "stateMutability": "view",
      "type": "function"
    },
    {
      "inputs": [
        {
          "internalType": "bytes32",
          "name": "campaignId",
          "type": "bytes32"
        }
      ],
      "name": "getCampaignProgress",
      "outputs": [
        {
          "internalType": "uint256",
          "name": "raised",
          "type": "uint256"
        },
        {
          "internalType": "uint256",
          "name": "target",
          "type": "uint256"
        },
        {
          "internalType": "uint256",
          "name": "percentage",
          "type": "uint256"
        }
      ],
      "stateMutability": "view",
      "type": "function"
    },
    {
      "inputs": [
        {
          "internalType": "bytes8",
          "name": "organizationId",
          "type": "bytes8"
        }
      ],
      "name": "getCampaignsByOrganization",
      "outputs": [
        {
          "internalType": "bytes32[]",
          "name": "",
          "type": "bytes32[]"
        }
      ],
      "stateMutability": "view",
      "type": "function"
    },
    {
      "inputs": [
        {
          "internalType": "enum IFlow.FlowState",
          "name": "state",
          "type": "uint8"
        }
      ],
      "name": "getCampaignsByState",
      "outputs": [
        {
          "internalType": "bytes32[]",
          "name": "",
          "type": "bytes32[]"
        }
      ],
      "stateMutability": "view",
      "type": "function"
    },
    {
      "inputs": [
        {
          "internalType": "bytes32",
          "name": "campaignId",
          "type": "bytes32"
        },
        {
          "internalType": "address",
          "name": "contributor",
          "type": "address"
        }
      ],
      "name": "getContribution",
      "outputs": [
        {
          "components": [
            {
              "internalType": "address",
              "name": "contributor",
              "type": "address"
            },
            {
              "internalType": "uint256",
              "name": "amount",
              "type": "uint256"
            },
            {
              "internalType": "uint256",
              "name": "timestamp",
              "type": "uint256"
            },
            {
              "internalType": "enum IFlow.ContributorState",
              "name": "state",
              "type": "uint8"
            },
            {
              "internalType": "string",
              "name": "metadata",
              "type": "string"
            }
          ],
          "internalType": "struct IFlow.Contribution",
          "name": "",
          "type": "tuple"
        }
      ],
      "stateMutability": "view",
      "type": "function"
    },
    {
      "inputs": [],
      "name": "getProtocolFeeRate",
      "outputs": [
        {
          "internalType": "uint256",
          "name": "",
          "type": "uint256"
        }
      ],
      "stateMutability": "view",
      "type": "function"
    },
    {
      "inputs": [
        {
          "internalType": "bytes32",
          "name": "campaignId",
          "type": "bytes32"
        },
        {
          "internalType": "address",
          "name": "rewardToken",
          "type": "address"
        },
        {
          "internalType": "address",
          "name": "contributor",
          "type": "address"
        }
      ],
      "name": "getRewardDistribution",
      "outputs": [
        {
          "internalType": "uint256",
          "name": "totalReward",
          "type": "uint256"
        },
        {
          "internalType": "uint256",
          "name": "claimedAmount",
          "type": "uint256"
        },
        {
          "internalType": "uint256",
          "name": "claimableAmount",
          "type": "uint256"
        }
      ],
      "stateMutability": "view",
      "type": "function"
    },
    {
      "inputs": [
        {
          "internalType": "bytes32",
          "name": "role",
          "type": "bytes32"
        }
      ],
      "name": "getRoleAdmin",
      "outputs": [
        {
          "internalType": "bytes32",
          "name": "",
          "type": "bytes32"
        }
      ],
      "stateMutability": "view",
      "type": "function"
    },
    {
      "inputs": [
        {
          "internalType": "bytes32",
          "name": "campaignId",
          "type": "bytes32"
        }
      ],
      "name": "getTimeRemaining",
      "outputs": [
        {
          "internalType": "uint256",
          "name": "",
          "type": "uint256"
        }
      ],
      "stateMutability": "view",
      "type": "function"
    },
    {
      "inputs": [
        {
          "internalType": "bytes32",
          "name": "role",
          "type": "bytes32"
        },
        {
          "internalType": "address",
          "name": "account",
          "type": "address"
        }
      ],
      "name": "grantRole",
      "outputs": [],
      "stateMutability": "nonpayable",
      "type": "function"
    },
    {
      "inputs": [
        {
          "internalType": "bytes32",
          "name": "role",
          "type": "bytes32"
        },
        {
          "internalType": "address",
          "name": "account",
          "type": "address"
        }
      ],
      "name": "hasRole",
      "outputs": [
        {
          "internalType": "bool",
          "name": "",
          "type": "bool"
        }
      ],
      "stateMutability": "view",
      "type": "function"
    },
    {
      "inputs": [
        {
          "internalType": "address",
          "name": "registryAddress",
          "type": "address"
        }
      ],
      "name": "initialize",
      "outputs": [],
      "stateMutability": "nonpayable",
      "type": "function"
    },
    {
      "inputs": [
        {
          "internalType": "bytes32",
          "name": "campaignId",
          "type": "bytes32"
        }
      ],
      "name": "isCampaignActive",
      "outputs": [
        {
          "internalType": "bool",
          "name": "",
          "type": "bool"
        }
      ],
      "stateMutability": "view",
      "type": "function"
    },
    {
      "inputs": [],
      "name": "isInitialized",
      "outputs": [
        {
          "internalType": "bool",
          "name": "",
          "type": "bool"
        }
      ],
      "stateMutability": "view",
      "type": "function"
    },
    {
      "inputs": [],
      "name": "moduleId",
      "outputs": [
        {
          "internalType": "bytes32",
          "name": "",
          "type": "bytes32"
        }
      ],
      "stateMutability": "pure",
      "type": "function"
    },
    {
      "inputs": [],
      "name": "onModuleDisabled",
      "outputs": [],
      "stateMutability": "nonpayable",
      "type": "function"
    },
    {
      "inputs": [],
      "name": "onModuleEnabled",
      "outputs": [],
      "stateMutability": "nonpayable",
      "type": "function"
    },
    {
      "inputs": [],
      "name": "pause",
      "outputs": [],
      "stateMutability": "nonpayable",
      "type": "function"
    },
    {
      "inputs": [],
      "name": "paused",
      "outputs": [
        {
          "internalType": "bool",
          "name": "",
          "type": "bool"
        }
      ],
      "stateMutability": "view",
      "type": "function"
    },
    {
      "inputs": [
        {
          "internalType": "bytes32",
          "name": "campaignId",
          "type": "bytes32"
        },
        {
          "internalType": "address",
          "name": "contributor",
          "type": "address"
        }
      ],
      "name": "refundContribution",
      "outputs": [],
      "stateMutability": "nonpayable",
      "type": "function"
    },
    {
      "inputs": [],
      "name": "registry",
      "outputs": [
        {
          "internalType": "address",
          "name": "",
          "type": "address"
        }
      ],
      "stateMutability": "view",
      "type": "function"
    },
    {
      "inputs": [
        {
          "internalType": "bytes32",
          "name": "role",
          "type": "bytes32"
        },
        {
          "internalType": "address",
          "name": "account",
          "type": "address"
        }
      ],
      "name": "renounceRole",
      "outputs": [],
      "stateMutability": "nonpayable",
      "type": "function"
    },
    {
      "inputs": [
        {
          "internalType": "bytes32",
          "name": "role",
          "type": "bytes32"
        },
        {
          "internalType": "address",
          "name": "account",
          "type": "address"
        }
      ],
      "name": "revokeRole",
      "outputs": [],
      "stateMutability": "nonpayable",
      "type": "function"
    },
    {
      "inputs": [
        {
          "internalType": "bytes32",
          "name": "campaignId",
          "type": "bytes32"
        },
        {
          "internalType": "enum IFlow.FlowState",
          "name": "newState",
          "type": "uint8"
        }
      ],
      "name": "setCampaignState",
      "outputs": [],
      "stateMutability": "nonpayable",
      "type": "function"
    },
    {
      "inputs": [
        {
          "internalType": "uint256",
          "name": "newRate",
          "type": "uint256"
        }
      ],
      "name": "setProtocolFeeRate",
      "outputs": [],
      "stateMutability": "nonpayable",
      "type": "function"
    },
    {
      "inputs": [
        {
          "internalType": "address",
          "name": "newRecipient",
          "type": "address"
        }
      ],
      "name": "setProtocolFeeRecipient",
      "outputs": [],
      "stateMutability": "nonpayable",
      "type": "function"
    },
    {
      "inputs": [
        {
          "internalType": "bytes4",
          "name": "interfaceId",
          "type": "bytes4"
        }
      ],
      "name": "supportsInterface",
      "outputs": [
        {
          "internalType": "bool",
          "name": "",
          "type": "bool"
        }
      ],
      "stateMutability": "view",
      "type": "function"
    },
    {
      "inputs": [],
      "name": "unpause",
      "outputs": [],
      "stateMutability": "nonpayable",
      "type": "function"
    },
    {
      "inputs": [
        {
          "internalType": "bytes32",
          "name": "campaignId",
          "type": "bytes32"
        },
        {
          "internalType": "string",
          "name": "title",
          "type": "string"
        },
        {
          "internalType": "string",
          "name": "description",
          "type": "string"
        },
        {
          "internalType": "uint256",
          "name": "target",
          "type": "uint256"
        },
        {
          "internalType": "uint256",
          "name": "min",
          "type": "uint256"
        },
        {
          "internalType": "uint256",
          "name": "max",
          "type": "uint256"
        },
        {
          "internalType": "uint256",
          "name": "endTime",
          "type": "uint256"
        }
      ],
      "name": "updateCampaign",
      "outputs": [],
      "stateMutability": "nonpayable",
      "type": "function"
    },
    {
      "inputs": [],
      "name": "version",
      "outputs": [
        {
          "internalType": "string",
          "name": "",
          "type": "string"
        }
      ],
      "stateMutability": "view",
      "type": "function"
    },
    {
      "inputs": [
        {
          "internalType": "bytes32",
          "name": "campaignId",
          "type": "bytes32"
        },
        {
          "internalType": "address",
          "name": "to",
          "type": "address"
        },
        {
          "internalType": "uint256",
          "name": "amount",
          "type": "uint256"
        }
      ],
      "name": "withdrawFunds",
      "outputs": [],
      "stateMutability": "nonpayable",
      "type": "function"
    },
    {
      "stateMutability": "payable",
      "type": "receive"
    }
  ],
  "bytecode": "0x608034620002e6576040908082016001600160401b03811182821017620002d0578252600581526020809101640312e302e360dc1b815260ff1990600190828254168255816002556004548281811c91168015620002c5575b85821014620002af57601f81116200027d575b50516001600160d81b031916600a17600455600080805280845284812033825284528490205460ff161562000242575b7fa49807205ce4d355092ef5a8a18f56e8913cf4a201fbe287825b095693c2177580600052600084528460002033600052845260ff8560002054161562000205575b5060fa600e553360018060a01b0319600f541617600f557f8f882e9b3b0c043c8507802fbb9a0ed808c8f0587361ab18424493e6841512a880600052600084528460002033600052845260ff85600020541615620001c8575b507faabecfdf6c789f9fb8a93bd3a33e66be61c9d95c3d88fbe57f4acd20b6d738f89283600052600081528460002033600052815260ff8560002054161562000189575b8451614e019081620002ec8239f35b836000526000815284600020903360005252836000209182541617905533903390600080516020620050ed833981519152600080a4388080806200017a565b80600052600084528460002033600052845284600020828482541617905533903390600080516020620050ed833981519152600080a43862000136565b80600052600084528460002033600052845284600020828482541617905533903390600080516020620050ed833981519152600080a438620000dd565b60008052600083528360002033600052835283600020818382541617905533336000600080516020620050ed8339815191528180a46200009b565b600460005282601f86600020920160051c8201915b828110620002a25750506200006b565b6000815501839062000292565b634e487b7160e01b600052602260045260246000fd5b90607f169062000058565b634e487b7160e01b600052604160045260246000fd5b600080fdfe608080604052600436101561001d575b50361561001b57600080fd5b005b60003560e01c90816301ffc9a7146137da57508063132bb2681461361057806320746f611461357e578063248a9ca31461354f5780632604d6bf146134f45780632cb3465714612d265780632f2ff15d14612c7257806332be9ebc14612c4c57806336568abe14612bad578063392e53cd14612b875780633da6e61e14612b2d5780633f4ba83a14612ac75780634a4e3bd514612a1557806351858e27146129de57806354fd4d50146128fc578063563ffcba146128b557806357bbcd65146123d25780635b5eedf1146122565780635c975abb146122335780635d044b7e1461205f5780636693643f14611f4c5780636caa921814611f2e57806375b238fc14611ef35780637b10399914611ecc5780637b75083c14611e915780637fa6345614611d905780638456cb5914611d2957806391d1485414611cdb578063992daefc14611b085780639c7c270c14611adb578063a1308f2714611aa0578063a217fddf14611a84578063a229f93b14611388578063aa7318aa14611332578063aeb37e9b14611269578063b13aa2d61461120e578063b8ca3b83146111f1578063baefb8f0146111b6578063c4d66de814610dec578063c7fe4e5414610db1578063cabe045214610a20578063d547741f146109e1578063dd6f4ff2146104f5578063dfd9ff78146104b4578063e1f1c4a714610497578063e521cb921461040d578063e63ea408146103d8578063ebf8a3e61461032e578063f5b541a6146102f3578063f7fab94f146102d55763fcec9eca1461025b573861000f565b346102d0576020806003193601126102d057600435600052600781526102846040600020614cac565b906040519181839283018184528251809152816040850193019160005b8281106102b057505050500390f35b83516001600160a01b0316855286955093810193928101926001016102a1565b600080fd5b346102d05760003660031901126102d0576020600e54604051908152f35b346102d05760003660031901126102d05760206040517f97667070c54ef182b0f5858b034beac1b6f3089aa2d3188bb1e8929f4fa9b9298152f35b346102d05760003660031901126102d0576003546001600160a01b03811633036103ae5760a01c60ff1615610384577fa866f3901ec84758a10f30e8953c3818eef73da93dfa46cb6aa5b726fb65813f600080a1005b60046040517fc597dba4000000000000000000000000000000000000000000000000000000008152fd5b60046040517f87aa01c8000000000000000000000000000000000000000000000000000000008152fd5b346102d05760603660031901126102d05761001b6103f4613878565b6103fc61388e565b610404613a5c565b60443591614ab3565b346102d05760203660031901126102d0576001600160a01b0361042e613878565b610436613c85565b168015610453576001600160a01b0319600f541617600f55600080f35b606460405162461bcd60e51b815260206004820152601160248201527f496e76616c696420726563697069656e740000000000000000000000000000006044820152fd5b346102d05760003660031901126102d05760206040516127108152f35b346102d05760203660031901126102d05760043560078110156102d0576104e56104e06104f19261427f565b614cac565b60405191829182613a07565b0390f35b60603660031901126102d05767ffffffffffffffff600435602480356044358481116102d057610529903690600401613978565b9160ff60035460a01c16156103845761054061417b565b6105486142d4565b836000526020600581526040600020936001600160a01b0390600197828988015460401c16156109ca576006870192835460ff8160081c1660078110156109b5578b81141590816109ab575b5061099457600d89015442101561096457871561094d57600989015480151580610937575b6108f25750879060101c8216806108dc575034036108c5576004905b8960005260068652604060002033600052865260406000209081549081161561087b575b508a8101610608898254613f68565b90554260028201550191805191821161086657819061062784546140ab565b601f8111610813575b508590601f83116001146107b0576000926107a5575b5050600019600383901b1c191690891b1790555b600a85019261066a858554613f68565b845542600f87015560ff825460081c1690600782101561079157509086929115610716575b5050505490837f6a1373fa7ba1bec3888b21f58e5f2a681e0ed2e5b7db7c0a174fa8467e64af18604051806106d93395874291846040919493926060820195825260208201520152565b0390a360ff6010830154169182610707575b50506106f8575b50600255005b61070190614893565b816106f2565b600701541115905083806106eb565b7fa501447e21b5d0bd78344e62b02b2e1c935dbbc23f482a95170d08a44d63b2979160609160008052600a8252610751856040600020614559565b5061010061ff001982541617905588600052600a81526107758460406000206143dc565b50886040519160008352820152426040820152a283868061068f565b634e487b7160e01b60005260216004526000fd5b015190508a80610646565b908b9350601f1983169185600052876000209260005b898282106107fd57505084116107e4575b505050811b01905561065a565b015160001960f88460031b161c191690558a80806107d7565b8385015186558f979095019493840193016107c6565b9091508360005285600020601f840160051c81019187851061085c575b84939291601f8e920160051c01915b82811061084d575050610630565b600081558594508d910161083f565b9091508190610830565b85634e487b7160e01b60005260416004526000fd5b6001600160a01b0319339116178155600381018b60ff1982541617905589600052600786526108ae3360406000206143dc565b50600b89016108bd81546141ea565b90558b6105f9565b8587604051906347a1896d60e11b82526004820152fd5b600492916108ed9130903390614649565b6105d5565b8888610905604493600a8e01549061454c565b90604051927f36f816b10000000000000000000000000000000000000000000000000000000084526004840152820152fd5b50806109478a600a8d0154613f68565b116105b9565b8688604051906347a1896d60e11b82526004820152fd5b868a604051907fb64ddd280000000000000000000000000000000000000000000000000000000082526004820152fd5b868a6040519063ef78d6ef60e01b82526004820152fd5b905015158c610594565b87634e487b7160e01b60005260216004526000fd5b84886040519063ce1befcb60e01b82526004820152fd5b346102d05760403660031901126102d05761001b600435610a0061388e565b90806000526000602052610a1b600160406000200154613dd0565b613ee0565b346102d05760203660031901126102d0576000610280604051610a4281613901565b82815282602082015282604082015282606082015260606080820152606060a0820152606060c08201528260e08201528261010082015282610120820152826101408201528261016082015282610180820152826101a0820152826101c0820152826101e08201528261020082015282610220820152826102408201528261026082015201526004356000526005602052604060002060405190610ae582613901565b805482526001600160a01b0360018201546001600160c01b03198160c01b16602085015260401c1660408301526001600160a01b036002820154166060830152604051610b4081610b3981600386016140e5565b038261393a565b6080830152604051610b5981610b3981600486016140e5565b60a0830152604051610b7281610b3981600586016140e5565b60c0830152600681015490600660ff83161015610d9b5760ff821660e0840152600760ff8360081c161015610d9b576001600160a01b038260ff60119460081c1661010086015260101c16610120840152600781015461014084015260088101546101608401526009810154610180840152600a8101546101a0840152600b8101546101c0840152600c8101546101e0840152600d810154610200840152600e810154610220840152600f81015461024084015260ff60108201541615156102608401520154610280820152604051809160208252805160208301526001600160c01b031960208201511660408301526001600160a01b0360408201511660608301526001600160a01b036060820151166080830152610280610cda610ca960808401516102a060a08701526102c08601906139e2565b610cc560a085015191601f1992838883030160c08901526139e2565b9060c0850151908683030160e08701526139e2565b91610cee60e0820151610100860190613a42565b610d02610100820151610120860190613a4f565b6001600160a01b03610120820151166101408501526101408101516101608501526101608101516101808501526101808101516101a08501526101a08101516101c08501526101c08101516101e08501526101e081015161020085015261020081015161022085015261022081015161024085015261024081015161026085015261026081015115158285015201516102a08301520390f35b634e487b7160e01b600052602160045260246000fd5b346102d05760003660031901126102d05760206040517faabecfdf6c789f9fb8a93bd3a33e66be61c9d95c3d88fbe57f4acd20b6d738f88152f35b346102d0576020806003193601126102d057610e06613878565b906003549160ff8360a01c1661118c576001600160a01b0380911692831561116257837fffffffffffffffffffffff00000000000000000000000000000000000000000074010000000000000000000000000000000000000000921617176003557fa49807205ce4d355092ef5a8a18f56e8913cf4a201fbe287825b095693c217758060005260008352604060002084600052835260ff6040600020541615611111575b507f97667070c54ef182b0f5858b034beac1b6f3089aa2d3188bb1e8929f4fa9b9298060005260008352604060002084600052835260ff60406000205416156110c0575b50604051907f7b1039990000000000000000000000000000000000000000000000000000000082528282600481305afa9182156110b457600092611085575b507f8f882e9b3b0c043c8507802fbb9a0ed808c8f0587361ab18424493e6841512a8908160005260008452604060002092169182600052835260ff6040600020541615611034575b507faabecfdf6c789f9fb8a93bd3a33e66be61c9d95c3d88fbe57f4acd20b6d738f8918260005260008152604060002082600052815260ff6040600020541615610fe2575b837f27b541a16df0902e262f34789782092ab25125513b8ed73608e802951771b928600080a2005b826000526000815260406000209082600052526040600020600160ff1982541617905533917f2f8788117e7eff1d82e926ec794901d17c78024a50270940304540a733656f0d600080a4818080610fba565b806000526000835260406000208260005283526040600020600160ff198254161790558133917f2f8788117e7eff1d82e926ec794901d17c78024a50270940304540a733656f0d600080a483610f75565b6110a6919250833d85116110ad575b61109e818361393a565b8101906141cb565b9084610f2d565b503d611094565b6040513d6000823e3d90fd5b806000526000835260406000208460005283526040600020600160ff198254161790558333917f2f8788117e7eff1d82e926ec794901d17c78024a50270940304540a733656f0d600080a483610eee565b806000526000835260406000208460005283526040600020600160ff198254161790558333917f2f8788117e7eff1d82e926ec794901d17c78024a50270940304540a733656f0d600080a483610eaa565b60046040517f7bfd2e83000000000000000000000000000000000000000000000000000000008152fd5b60046040517fe72ce85e000000000000000000000000000000000000000000000000000000008152fd5b346102d05760203660031901126102d0576001600160c01b03196111d86138ce565b1660005260096020526104f16104e56040600020614cac565b346102d05760003660031901126102d05760206040516103e88152f35b346102d05760203660031901126102d05760043561122a613c85565b6103e8811161123857600e55005b602490604051907fcc1b07d20000000000000000000000000000000000000000000000000000000082526004820152fd5b346102d05760403660031901126102d05761128261388e565b50600435600052600560205260406000206001600160a01b03600182015460401c161515806112fb575b602091816112ed575b816112c6575b506040519015158152f35b9050600981015480159182156112df575b5050826112bb565b600a015410905082806112d7565b600d810154421091506112b5565b5060ff600682015460081c16906007821015610d9b5781600160209314908115611329575b509091506112ac565b90501583611320565b346102d05760003660031901126102d0576003546001600160a01b03811633036103ae5760a01c60ff1615610384577f6dff2fe8fbb5b23bf0583bf5b2157ff62ca7e27f2fb4f404914cd0c205ced5cc600080a1005b346102d0576101603660031901126102d0576113a26138ce565b60243567ffffffffffffffff81116102d0576113c2903690600401613978565b9060443567ffffffffffffffff81116102d0576113e3903690600401613978565b9060643567ffffffffffffffff81116102d057611404903690600401613978565b90600660843510156102d0576001600160a01b0360a4351660a435036102d05761014435151561014435036102d05760ff60035460a01c16156103845761144961417b565b6114516142d4565b61145a81614b2f565b835115611a2c5760c435158015611a77575b8015611a56575b611a2c576101243515611a2c57600d549161148d836141ea565b9283600d556040516114b9816114ab6020820194428b338a896141f9565b03601f19810183528261393a565b519020600081815260056020526040908190209485556001850180547fffffffff000000000000000000000000000000000000000000000000000000001660c086901c173390921b7bffffffffffffffffffffffffffffffffffffffff0000000000000000169190911790559360028401336001600160a01b0319825416179055855167ffffffffffffffff81116118875761155860038601546140ab565b601f81116119e5575b50806020601f82116001146119785760009161196d575b508160011b916000199060031b1c19161760038501555b80519067ffffffffffffffff82116118875781906115b060048701546140ab565b601f811161191a575b50602090601f83116001146118a85760009261189d575b50508160011b916000199060031b1c19161760048401555b80519067ffffffffffffffff82116118875761160760058501546140ab565b601f8111611840575b509484916020968790601f83116001146117aa577fa3a88efe57786deda68f6c5dcc5465fee13dbf6c95e5da6149a2574d4b59d5999392916000918361179f575b50508160011b916000199060031b1c19161760058601555b6116ba6006860161167c60843582614248565b805475ffffffffffffffffffffffffffffffffffffffffff00191660a43560101b75ffffffffffffffffffffffffffffffffffffffff000016179055565b60c435600786015560e43560088601556101043560098601556000600a8601556000600b8601556001600160c01b0319600c8601944286556116ff6101243542613f68565b96600d810197885542600e82015542600f82015561172f61014435601083019060ff801983541691151516179055565b6011600e549101556117408561433f565b50169384600052600988526117598460406000206143dc565b5060008052600a88526117708460406000206143dc565b5054945461178f6040519283923398429260c435906084359087614298565b0390a46001600255604051908152f35b015190508980611651565b9392919060058701600052886000209460005b601f198416811061182657509482917fa3a88efe57786deda68f6c5dcc5465fee13dbf6c95e5da6149a2574d4b59d5999596600194601f1981161061180d575b505050811b016005860155611669565b015160001960f88460031b161c191690558980806117fd565b828201518755600190960195899550918a01918a016117bd565b600585016000526020600020601f840160051c810160208510611880575b601f830160051c82018110611874575050611610565b6000815560010161185e565b508061185e565b634e487b7160e01b600052604160045260246000fd5b0151905087806115d0565b9250600486016000526020600020906000935b601f19841685106118ff576001945083601f198116106118e6575b505050811b0160048401556115e8565b015160001960f88460031b161c191690558780806118d6565b818101518355602094850194600190930192909101906118bb565b909150600486016000526020600020601f840160051c810160208510611966575b90849392915b601f830160051c820181106119575750506115b9565b60008155859450600101611941565b508061193b565b905087015188611578565b91506003860160005260206000206000925b601f19831684106119cd576001935082601f198116106119b4575b5050811b01600385015561158f565b89015160001960f88460031b161c1916905588806119a5565b8981015182556020938401936001909201910161198a565b600386016000526020600020601f830160051c810160208410611a25575b601f830160051c82018110611a19575050611561565b60008155600101611a03565b5080611a03565b60046040517f3560ce38000000000000000000000000000000000000000000000000000000008152fd5b50610104358015159081611a6b575b50611473565b905060c4351185611a65565b5060c43560e4351161146c565b346102d05760003660031901126102d057602060405160008152f35b346102d05760003660031901126102d05760206040517f84d20104310cb32261c684fea2f6a24da76255f470d709e28f6b2c9da16e9a3e8152f35b346102d05760203660031901126102d0576020612710611aff600e54600435613f55565b04604051908152f35b346102d05760403660031901126102d057600435611b2461388e565b9060ff60035460a01c161561038457611b3b61417b565b611b436142d4565b8060005260056020526040600020916001600160a01b039283600182015460401c1615611cc3576006019060ff825460081c166007811015610d9b5760048114159081611cb7575b50611c9f5782600052600660205260406000209380821694856000526020526040600020928184541615611c77576003840180549460ff86166004811015610d9b57600214611c325793600293611c1f9360007fd9659c675462e26e5353cfc2a816f73cfe5c8e02041fbbb2fba7aa704c76567f989460016040990190815498899760ff1916179055555460101c16614ab3565b8151908152426020820152a36001600255005b6040517f64baa58f000000000000000000000000000000000000000000000000000000008152600481018890526001600160a01b0386166024820152604490fd5b0390fd5b6040516305cf19fb60e51b8152600481018690526001600160a01b0384166024820152604490fd5b6024836040519063ef78d6ef60e01b82526004820152fd5b60069150141585611b8b565b6024836040519063ce1befcb60e01b82526004820152fd5b346102d05760403660031901126102d057611cf461388e565b60043560005260006020526001600160a01b0360406000209116600052602052602060ff604060002054166040519015158152f35b346102d05760003660031901126102d057611d42613a5c565b60ff60035460a01c161561038457611d5861417b565b600160ff19815416176001557f62e78cea01bee320cd4e420270b5ea74000d11b0c9f74754ebdbfc544b05a2586020604051338152a1005b346102d05760203660031901126102d05760043560ff60035460a01c161561038457611dba61417b565b611dc26142d4565b80600052600560205260406000206001600160a01b0380600183015460401c168015611e79573314159182611e67575b505080611e2e575b611e0e57611e0790614893565b6001600255005b60405163d007ec9360e01b81526004810191909152336024820152604490fd5b503360009081527f407e260c196876216b8dd20ea8619d70e7050dd5853750ed41a99b75f2b4c409602052604090205460ff1615611dfa565b60029192500154163314158280611df2565b6024846040519063ce1befcb60e01b82526004820152fd5b346102d05760003660031901126102d05760206040517f8f882e9b3b0c043c8507802fbb9a0ed808c8f0587361ab18424493e6841512a88152f35b346102d05760003660031901126102d05760206001600160a01b0360035416604051908152f35b346102d05760003660031901126102d05760206040517fa49807205ce4d355092ef5a8a18f56e8913cf4a201fbe287825b095693c217758152f35b346102d05760003660031901126102d0576020600b54604051908152f35b346102d05760403660031901126102d057611f6561388e565b60405190611f72826138e5565b60008252606060806020936000858201526000604082015260008382015201526004356000526006825260406000206001600160a01b03809216600052825260406000209060405192611fc4846138e5565b81835416845260018301548185019081526002840154916040860192835260ff6003860154169360608701946004811015610d9b5760049661201991875261201260405180998193016140e5565b038761393a565b6080870195865260405196828852511690860152516040850152516060840152516004811015610d9b5782916104f19160808401525160a08084015260c08301906139e2565b346102d05760403660031901126102d05760043561207b61388e565b60ff60035460a01c16156103845761209161417b565b6120996142d4565b81600052602090600582526040600020926001600160a01b039081600186015460401c161561221b578060005260068452604060002033600052845260406000209482865416156121fc57816000526008855260406000209383811694856000528652604060002093845416156121b9575060038301913360005282865260406000205461217c5750600392869261214e600293600a6121456001611e079c0154600187015490613f55565b91015490614a2d565b9633600052528560406000205501612167858254613f68565b905501805460ff191660031790553390614a4d565b60649085604051917ff5b14fdc00000000000000000000000000000000000000000000000000000000835260048301523360248301526044820152fd5b6040517fd67bb845000000000000000000000000000000000000000000000000000000008152600481018490526001600160a01b03919091166024820152604490fd5b6040516305cf19fb60e51b815260048101839052336024820152604490fd5b6024906040519063ce1befcb60e01b82526004820152fd5b346102d05760003660031901126102d057602060ff600154166040519015158152f35b346102d057612264366138a4565b9060ff60035460a01c16156103845761227b61417b565b6122836142d4565b82600052600560205260406000206001600160a01b039081600182015460401c1680156123ba57331415806123aa575b80612371575b6123525760068101549460ff8660081c166007811015610d9b5760038114159081612346575b5061232e5750600a6123039101546127106122fc600e5483613f55565b049061454c565b831161231657611e079360101c16614ab3565b602483604051906347a1896d60e11b82526004820152fd5b6024906040519063ef78d6ef60e01b82526004820152fd5b600691501415876122df565b60405163d007ec9360e01b815260048101869052336024820152604490fd5b503360009081527f407e260c196876216b8dd20ea8619d70e7050dd5853750ed41a99b75f2b4c409602052604090205460ff16156122b9565b50816002820154163314156122b3565b6024866040519063ce1befcb60e01b82526004820152fd5b346102d05760e03660031901126102d05767ffffffffffffffff6024358181116102d057612404903690600401613978565b6044358281116102d05761241c903690600401613978565b9160039160ff835460a01c16156103845761243561417b565b6004359384600052602092600584526040600020926001600160a01b0390600191808387015460401c16801561289d57331415908161288c575b5080612849575b61282a5760ff600686015460081c166007811015610d9b5760061461282a5780518061271f575b5050825191826125c3575b5050505091612535917f2d861976db5536e53826be5f92e32db2e49dd12c40c783feeb5413c7f8445ef293606435801515806125b7575b80612596575b61257b575b5060c4354281118061256e575b612563575b5042600f82015560078101549160088201546125436009840154926004600d86015495604051998a9960e08b5260e08b019083016140e5565b92898403908a0152016140e5565b9360408601526060850152608084015260a08301524260c08301520390a2005b600d820155866124fc565b50600c82015481116124f7565b6007820155608435600882015560a4356009820155866124ea565b5060a4358181159182156125ac575b50506124e5565b1015905081896125a5565b508060843511156124df565b82116118875760048401926125d884546140ab565b601f81116126d8575b508590601f841160011461264b57928061253597959381937f2d861976db5536e53826be5f92e32db2e49dd12c40c783feeb5413c7f8445ef29a9896600094612640575b50501b9160001990871b1c19161790555b91938193876124a8565b015192508b80612625565b908460009493945286600020916000601f198516905b8181106126c35750917f2d861976db5536e53826be5f92e32db2e49dd12c40c783feeb5413c7f8445ef29997959391856125359a989694106126ab575b505050811b019055612636565b015160001983891b60f8161c1916905589808061269e565b82840151855593860193928901928901612661565b8460005286600020601f850160051c8101888610612718575b90601f8592930160051c01915b82811061270c5750506125e1565b600081550183906126fe565b50806126f1565b83811161188757808887019261273584546140ab565b601f81116127da575b508890601f83116001146127785760009261276d575b5050600019828a1b1c191690831b1790555b878061249d565b015190508a80612754565b908593508460005289600020916000601f198516905b8c8282106127c457505084116127ac575b505050811b019055612766565b0151600019838c1b60f8161c191690558a808061279f565b838501518655899790950194938401930161278e565b9091508360005288600020601f840160051c81018a8510612823575b84939291601f8892930160051c01915b82811061281457505061273e565b60008155859450879101612806565b50806127f6565b60405163d007ec9360e01b815260048101899052336024820152604490fd5b507f8f882e9b3b0c043c8507802fbb9a0ed808c8f0587361ab18424493e6841512a860005260008652604060002033600052865260ff6040600020541615612476565b90506002860154163314158961246f565b60248a6040519063ce1befcb60e01b82526004820152fd5b346102d05760403660031901126102d05760243560078110156102d0576128da613c85565b60ff60035460a01c16156103845761001b906128f461417b565b600435614466565b346102d05760003660031901126102d057604051600060045461291e816140ab565b808452906001908181169081156129b7575060011461295c575b6104f1846129488186038261393a565b6040519182916020835260208301906139e2565b6004600090815292507f8a35acfbc15ff81a39ae7d344fd709f28e8600b4aa8c65c6b64bfe7fe36bd19b5b82841061299f57505050810160200161294882612938565b80546020858701810191909152909301928101612987565b60ff191660208087019190915292151560051b850190920192506129489150839050612938565b346102d05760003660031901126102d0576003546001600160a01b03811633036103ae5760a01c60ff161561038457611d5861417b565b346102d05760003660031901126102d0576003546001600160a01b03811633036103ae5760a01c60ff16156103845760015460ff811615612a835760ff19166001557f5db9ee0a495bf2e6ff9c91a7834c1ba4fdd244a5e8aa4e537bd38aeae4b073aa6020604051338152a1005b606460405162461bcd60e51b815260206004820152601460248201527f5061757361626c653a206e6f74207061757365640000000000000000000000006044820152fd5b346102d05760003660031901126102d057612ae0613a5c565b60ff60035460a01c16156103845760015460ff811615612a835760ff19166001557f5db9ee0a495bf2e6ff9c91a7834c1ba4fdd244a5e8aa4e537bd38aeae4b073aa6020604051338152a1005b346102d05760603660031901126102d057612b4661388e565b604435906001600160a01b03821682036102d0576104f191612b6a91600435614d28565b604080519384526020840192909252908201529081906060820190565b346102d05760003660031901126102d057602060ff60035460a01c166040519015158152f35b346102d05760403660031901126102d057612bc661388e565b336001600160a01b03821603612be25761001b90600435613ee0565b608460405162461bcd60e51b815260206004820152602f60248201527f416363657373436f6e74726f6c3a2063616e206f6e6c792072656e6f756e636560448201527f20726f6c657320666f722073656c6600000000000000000000000000000000006064820152fd5b346102d05760203660031901126102d0576020612c6a600435614cfb565b604051908152f35b346102d05760403660031901126102d057600435612c8e61388e565b816000526000602052612ca8600160406000200154613dd0565b8160005260006020526001600160a01b0360406000209116908160005260205260ff6040600020541615612cd857005b8160005260006020526040600020816000526020526040600020600160ff1982541617905533917f2f8788117e7eff1d82e926ec794901d17c78024a50270940304540a733656f0d600080a4005b346102d0576003196060368201126102d057612d40613878565b906001600160c01b031960243516602435036102d05760443567ffffffffffffffff81116102d057610140809282360301126102d05760405191820182811067ffffffffffffffff82111761188757604052806004013567ffffffffffffffff81116102d057612db69060043691840101613978565b8252602481013567ffffffffffffffff81116102d057612ddc9060043691840101613978565b6020830152604481013567ffffffffffffffff81116102d057612e059060043691840101613978565b6040830152606481013560068110156102d05760608301526084810135906001600160a01b03821682036102d05761012491608084015260a481013560a084015260c481013560c084015260e481013560e0840152610104810135610100840152013580151581036102d05761012082015260ff60035460a01c161561038457612e8d61417b565b612e956142d4565b612ea0602435614b2f565b80515115611a2c5760a081015180159081156134e5575b81156134c3575b50611a2c5761010081015115611a2c57805190600d54916114ab612f00612ee4856141ea565b9485600d55604051928391602083019542908a602435896141f9565b519020600081815260056020526040908190209384556001840180547fffffffff000000000000000000000000000000000000000000000000000000001660243560c01c179186901b7bffffffffffffffffffffffffffffffffffffffff00000000000000001691909117905591600281016001600160a01b0385166001600160a01b0319825416179055815180519067ffffffffffffffff8211611887578190612fae60038501546140ab565b601f8111613470575b50602090601f83116001146133fe576000926133f3575b50508160011b916000199060031b1c19161760038201555b602082015180519067ffffffffffffffff821161188757819061300c60048501546140ab565b601f81116133a0575b50602090601f831160011461332e57600092613323575b50508160011b916000199060031b1c19161760048201555b604082015180519067ffffffffffffffff821161188757819061306a60058501546140ab565b601f81116132d0575b50602090601f831160011461325e57600092613253575b50508160011b916000199060031b1c19161760058201555b60608201516006811015610d9b57613107906130c2600684019182614248565b8054608085015175ffffffffffffffffffffffffffffffffffffffffff001990911660109190911b75ffffffffffffffffffffffffffffffffffffffff000016179055565b60a0820151600782015560c0820151600882015560e082015160098201556000600a8201556000600b820155600c81019142835561314a61010082015142613f68565b91600d810192835542600e82015542600f82015561317e6101208301511515601083019060ff801983541691151516179055565b6011600e5491015561318f8461433f565b506001600160c01b03196024351660005260096020526131b38460406000206143dc565b5060008052600a6020526131e7847f13da86008ba1c6922daee3e07db95305ef49ebced9f5467a0b8613fcc6b343e36143dc565b5080516060820151926006841015610d9b5760209661178f7fa3a88efe57786deda68f6c5dcc5465fee13dbf6c95e5da6149a2574d4b59d599936001600160a01b039360a08a970151985490549060405195869516996001600160c01b03196024351699429487614298565b01519050868061308a565b9250600584016000526020600020906000935b601f19841685106132b5576001945083601f1981161061329c575b505050811b0160058201556130a2565b015160001960f88460031b161c1916905586808061328c565b81810151835560209485019460019093019290910190613271565b909150600584016000526020600020601f840160051c81016020851061331c575b90849392915b601f830160051c8201811061330d575050613073565b600081558594506001016132f7565b50806132f1565b01519050868061302c565b9250600484016000526020600020906000935b601f1984168510613385576001945083601f1981161061336c575b505050811b016004820155613044565b015160001960f88460031b161c1916905586808061335c565b81810151835560209485019460019093019290910190613341565b909150600484016000526020600020601f840160051c8101602085106133ec575b90849392915b601f830160051c820181106133dd575050613015565b600081558594506001016133c7565b50806133c1565b015190508680612fce565b9250600384016000526020600020906000935b601f1984168510613455576001945083601f1981161061343c575b505050811b016003820155612fe6565b015160001960f88460031b161c1916905586808061342c565b81810151835560209485019460019093019290910190613411565b909150600384016000526020600020601f840160051c8101602085106134bc575b90849392915b601f830160051c820181106134ad575050612fb7565b60008155859450600101613497565b5080613491565b60e08301518015159250826134db575b505083612ebe565b10905083806134d3565b80915060c08301511190612eb7565b346102d05760203660031901126102d0576004356000526005602052604060002060ff600682015460081c16906007821015610d9b57600160209214908161354157506040519015158152f35b600d915001544210826112bb565b346102d05760203660031901126102d05760043560005260006020526020600160406000200154604051908152f35b346102d05760203660031901126102d057600435600052600560205260406000206007600a820154910154908115156000146136065760648102818104606414821517156135f0576135d3836104f192614a2d565b604051938493846040919493926060820195825260208201520152565b634e487b7160e01b600052601160045260246000fd5b6104f160006135d3565b346102d05761361e366138a4565b60ff60039392935460a01c16156103845761363761417b565b61363f6142d4565b8160005260056020526040600020926001600160a01b039081600186015460401c1680156137c257331415806137b2575b80613779575b61375a5760ff600686015460081c166007811015610d9b576003811415908161374e575b50613736577fa2be304a31c5194b71cd99f0ee865ff9ca0b8b8266efeab33a5a78d3cdf9a0999291600b9116946136d383303389614649565b8460005260086020526040600020866000526020526000600260408220886001600160a01b03198254161781558560018201550155015461372c6040519283924291846040919493926060820195825260208201520152565b0390a36001600255005b6024846040519063ef78d6ef60e01b82526004820152fd5b6006915014158661369a565b60405163d007ec9360e01b815260048101859052336024820152604490fd5b503360009081527f407e260c196876216b8dd20ea8619d70e7050dd5853750ed41a99b75f2b4c409602052604090205460ff1615613676565b5081600286015416331415613670565b6024856040519063ce1befcb60e01b82526004820152fd5b346102d05760203660031901126102d057600435907fffffffff0000000000000000000000000000000000000000000000000000000082168092036102d057817f7965db0b000000000000000000000000000000000000000000000000000000006020931490811561384e575b5015158152f35b7f01ffc9a70000000000000000000000000000000000000000000000000000000091501483613847565b600435906001600160a01b03821682036102d057565b602435906001600160a01b03821682036102d057565b60609060031901126102d057600435906024356001600160a01b03811681036102d0579060443590565b600435906001600160c01b0319821682036102d057565b60a0810190811067ffffffffffffffff82111761188757604052565b6102a0810190811067ffffffffffffffff82111761188757604052565b6080810190811067ffffffffffffffff82111761188757604052565b90601f8019910116810190811067ffffffffffffffff82111761188757604052565b67ffffffffffffffff811161188757601f01601f191660200190565b81601f820112156102d05780359061398f8261395c565b9261399d604051948561393a565b828452602083830101116102d057816000926020809301838601378301015290565b60005b8381106139d25750506000910152565b81810151838201526020016139c2565b906020916139fb815180928185528580860191016139bf565b601f01601f1916010190565b6020908160408183019282815285518094520193019160005b828110613a2e575050505090565b835185529381019392810192600101613a20565b906006821015610d9b5752565b906007821015610d9b5752565b3360009081527f7d7ffb7a348e1c6a02869081a26547b49160dd3df72d1d75a570eb9b698292ec602090815260408083205490927fa49807205ce4d355092ef5a8a18f56e8913cf4a201fbe287825b095693c217759160ff1615613ac05750505050565b613ac933613f9c565b91845190613ad68261391e565b60428252848201926060368537825115613c715760308453825190600191821015613c715790607860218501536041915b818311613c0357505050613bc1576048611c73938693613ba593613b9698519889937f416363657373436f6e74726f6c3a206163636f756e74200000000000000000008a860152613b61815180928c6037890191016139bf565b8401917f206973206d697373696e6720726f6c65200000000000000000000000000000006037840152518093868401906139bf565b0103602881018752018561393a565b5192839262461bcd60e51b8452600484015260248301906139e2565b60648486519062461bcd60e51b825280600483015260248201527f537472696e67733a20686578206c656e67746820696e73756666696369656e746044820152fd5b909192600f81166010811015613c5d576f181899199a1a9b1b9c1cb0b131b232b360811b901a613c338587613f75565b5360041c928015613c4957600019019190613b07565b602482634e487b7160e01b81526011600452fd5b602483634e487b7160e01b81526032600452fd5b80634e487b7160e01b602492526032600452fd5b3360009081527f407e260c196876216b8dd20ea8619d70e7050dd5853750ed41a99b75f2b4c409602090815260408083205490927f8f882e9b3b0c043c8507802fbb9a0ed808c8f0587361ab18424493e6841512a89160ff1615613ce95750505050565b613cf233613f9c565b91845190613cff8261391e565b60428252848201926060368537825115613c715760308453825190600191821015613c715790607860218501536041915b818311613d8a57505050613bc1576048611c73938693613ba593613b9698519889937f416363657373436f6e74726f6c3a206163636f756e74200000000000000000008a860152613b61815180928c6037890191016139bf565b909192600f81166010811015613c5d576f181899199a1a9b1b9c1cb0b131b232b360811b901a613dba8587613f75565b5360041c928015613c4957600019019190613d30565b600090808252602090828252604092838120338252835260ff848220541615613df95750505050565b613e0233613f9c565b91845190613e0f8261391e565b60428252848201926060368537825115613c715760308453825190600191821015613c715790607860218501536041915b818311613e9a57505050613bc1576048611c73938693613ba593613b9698519889937f416363657373436f6e74726f6c3a206163636f756e74200000000000000000008a860152613b61815180928c6037890191016139bf565b909192600f81166010811015613c5d576f181899199a1a9b1b9c1cb0b131b232b360811b901a613eca8587613f75565b5360041c928015613c4957600019019190613e40565b90600091808352826020526001600160a01b036040842092169182845260205260ff604084205416613f1157505050565b80835282602052604083208284526020526040832060ff1981541690557ff6391f5c32d9c69d2a47ea670b442974b53935d1edc7fd64eb21e047a839171b339380a4565b818102929181159184041417156135f057565b919082018092116135f057565b908151811015613f86570160200190565b634e487b7160e01b600052603260045260246000fd5b604051906060820182811067ffffffffffffffff82111761188757604052602a8252602082016040368237825115613f8657603090538151600190811015613f8657607860218401536029905b80821161403d575050613ff95790565b606460405162461bcd60e51b815260206004820152602060248201527f537472696e67733a20686578206c656e67746820696e73756666696369656e746044820152fd5b9091600f81166010811015614096576f181899199a1a9b1b9c1cb0b131b232b360811b901a61406c8486613f75565b5360041c918015614081576000190190613fe9565b60246000634e487b7160e01b81526011600452fd5b60246000634e487b7160e01b81526032600452fd5b90600182811c921680156140db575b60208310146140c557565b634e487b7160e01b600052602260045260246000fd5b91607f16916140ba565b90600092918054916140f6836140ab565b9182825260019384811690816000146141585750600114614118575b50505050565b90919394506000526020928360002092846000945b838610614144575050505001019038808080614112565b80548587018301529401938590820161412d565b9294505050602093945060ff191683830152151560051b01019038808080614112565b60ff6001541661418757565b606460405162461bcd60e51b815260206004820152601060248201527f5061757361626c653a20706175736564000000000000000000000000000000006044820152fd5b908160209103126102d057516001600160a01b03811681036102d05790565b60001981146135f05760010190565b90916001600160c01b0319605c9694931682526bffffffffffffffffffffffff199060601b166008820152614238825180936020601c850191016139bf565b0191601c830152603c8201520190565b906006811015610d9b5760ff80198354169116179055565b906007811015610d9b5761ff0082549160081b169061ff001916179055565b6007811015610d9b57600052600a602052604060002090565b926142c16142b660a09693999897949960c0875260c08701906139e2565b986020860190613a42565b6040840152606083015260808201520152565b60028054146142e35760028055565b606460405162461bcd60e51b815260206004820152601f60248201527f5265656e7472616e637947756172643a207265656e7472616e742063616c6c006044820152fd5b8054821015613f865760005260206000200190600090565b6000818152600c60205260408120546143d757600b54680100000000000000008110156143c3576001810180600b558110156143af5790826040927f0175b7a638427703f0dbe7bb9bbf987a2551717b34e79f33b5b1008d1fa01db90155600b54928152600c6020522055600190565b602482634e487b7160e01b81526032600452fd5b602482634e487b7160e01b81526041600452fd5b905090565b91906001830160009082825280602052604082205415600014614460578454946801000000000000000086101561444c578361443c614425886001604098999a01855584614327565b819391549060031b91821b91600019901b19161790565b9055549382526020522055600190565b602483634e487b7160e01b81526041600452fd5b50925050565b906000828152600560205260408120906001600160a01b03600183015460401c1615611e79576006820160ff815460081c16916007851015614538576007831015614538575083821461453157836060936144f87fa501447e21b5d0bd78344e62b02b2e1c935dbbc23f482a95170d08a44d63b29796614528946144f28a6144ed8961427f565b614559565b50614260565b600f429101556145108661450b8361427f565b6143dc565b5061451e6040518094613a4f565b6020830190613a4f565b426040820152a2565b5050505050565b80634e487b7160e01b602492526021600452fd5b919082039182116135f057565b90600182019060009281845282602052604084205490811515600014614642576000199180830181811161462e5782549084820191821161461a578082036145e5575b505050805480156145d1578201916145b48383614327565b909182549160031b1b191690555582526020526040812055600190565b602486634e487b7160e01b81526031600452fd5b6146056145f56144259386614327565b90549060031b1c92839286614327565b9055865284602052604086205538808061459c565b602488634e487b7160e01b81526011600452fd5b602487634e487b7160e01b81526011600452fd5b5050505090565b90926146a693604051937f23b872dd0000000000000000000000000000000000000000000000000000000060208601526001600160a01b0380921660248601521660448401526064830152606482526146a1826138e5565b6146c0565b565b908160209103126102d0575180151581036102d05790565b6001600160a01b0316604051604081019181831067ffffffffffffffff84111761188757614730926040526000806020958685527f5361666545524332303a206c6f772d6c6576656c2063616c6c206661696c656487860152868151910182855af161472a6147cb565b916147fb565b8051908282159283156147b3575b505050156147495750565b6084906040519062461bcd60e51b82526004820152602a60248201527f5361666545524332303a204552433230206f7065726174696f6e20646964206e60448201527f6f742073756363656564000000000000000000000000000000000000000000006064820152fd5b6147c393508201810191016146a8565b38828161473e565b3d156147f6573d906147dc8261395c565b916147ea604051938461393a565b82523d6000602084013e565b606090565b9192901561485c575081511561480f575090565b3b156148185790565b606460405162461bcd60e51b815260206004820152601d60248201527f416464726573733a2063616c6c20746f206e6f6e2d636f6e74726163740000006044820152fd5b82519091501561486f5750805190602001fd5b611c739060405191829162461bcd60e51b83526020600484015260248301906139e2565b600081815260056020526040808220600a810180546008830154929695949211614a25576003955b60068101916148d4866144ed60ff865460081c1661427f565b506148df8884614260565b42600f8301556148f28661450b8a61427f565b506007881015614a11576144ed88877fe7120a43929c8f69eb64bf66c6587ec5a44dfa34cea30f8fe0901b2e54203394608061496596600b84976149829e9f60031480614a07575b614985575b549101548b51916149508388613a4f565b60208301528b820152426060820152a261427f565b50805461ff00191661060017905560068152600a602052206143dc565b50565b8c868c6127106149998554600e5490613f55565b0492836149aa575b5050505061493f565b817f7776690236117f905ebcaa326163aab8f1f85e1ff05bcac29e6ac45b460f808e9254906149ec866001600160a01b03938480600f54169160101c16614ab3565b5460101c16938151908152426020820152a338868c8f6149a1565b508054151561493a565b602484634e487b7160e01b81526021600452fd5b6004956148bb565b8115614a37570490565b634e487b7160e01b600052601260045260246000fd5b916001600160a01b03604051927fa9059cbb000000000000000000000000000000000000000000000000000000006020850152166024830152604482015260448152608081019181831067ffffffffffffffff841117611887576146a6926040526146c0565b6001600160a01b039190821680614b2457506000809381938293165af1614ad86147cb565b5015614ae057565b606460405162461bcd60e51b815260206004820152601360248201527f455448207472616e73666572206661696c6564000000000000000000000000006044820152fd5b6146a6939250614a4d565b60035460ff8160a01c1615610384576040908151907f85acd6410000000000000000000000000000000000000000000000000000000082527fbdded29a54e6a5d6169bedea55373b06f57e35d7b0f67ac187565b435e2cc943600483015260209182816024816001600160a01b038096165afa908115614ca157600091614c84575b5016928315614c6357816001600160c01b03199160248551809481937fb4ae840f00000000000000000000000000000000000000000000000000000000835216978860048301525afa918215614c5857600092614c2b575b505015614c14575050565b602492505190634fddb6dd60e11b82526004820152fd5b614c4a9250803d10614c51575b614c42818361393a565b8101906146a8565b3880614c09565b503d614c38565b83513d6000823e3d90fd5b6024906001600160c01b0319845191634fddb6dd60e11b8352166004820152fd5b614c9b9150833d85116110ad5761109e818361393a565b38614bb1565b84513d6000823e3d90fd5b9060405191828154918282526020928383019160005283600020936000905b828210614ce1575050506146a69250038361393a565b855484526001958601958895509381019390910190614ccb565b6000526005602052600d6040600020015480421015614d2257614d1f90429061454c565b90565b50600090565b909291600090828252602090600582526040938484209060068452858520976001600160a01b038094169889875285528686209186526008855283878720911686528452858520928082541615908115614dbf575b50614db15760039291600a6121456001614d9e940154600186015490613f55565b968452019052205490614d1f828461454c565b505050509192505080918190565b90508354161538614d7d56fea2646970667358221220bd281e6c5d35db380a0dc36c1469afd1914ba69921cd0d991b59a5ffea0d3f1164736f6c634300081400332f8788117e7eff1d82e926ec794901d17c78024a50270940304540a733656f0d",
  "linkReferences": {},
  "deployedLinkReferences": {}
}