{
  "_format": "hh-sol-artifact-1",
  "contractName": "Signal",
  "sourceName": "contracts/modules/Signal/Signal.sol",
  "abi": [
    {
      "inputs": [],
      "stateMutability": "nonpayable",
      "type": "constructor"
    },
    {
      "inputs": [
        {
          "internalType": "string",
          "name": "hierarchicalId",
          "type": "string"
        },
        {
          "internalType": "address",
          "name": "voter",
          "type": "address"
        }
      ],
      "name": "AlreadyVoted",
      "type": "error"
    },
    {
      "inputs": [
        {
          "internalType": "address",
          "name": "voter",
          "type": "address"
        },
        {
          "internalType": "uint256",
          "name": "required",
          "type": "uint256"
        },
        {
          "internalType": "uint256",
          "name": "available",
          "type": "uint256"
        }
      ],
      "name": "InsufficientVotingPower",
      "type": "error"
    },
    {
      "inputs": [
        {
          "internalType": "uint256",
          "name": "time",
          "type": "uint256"
        }
      ],
      "name": "InvalidConvictionTime",
      "type": "error"
    },
    {
      "inputs": [
        {
          "internalType": "uint256",
          "name": "amount",
          "type": "uint256"
        }
      ],
      "name": "InvalidDelegationAmount",
      "type": "error"
    },
    {
      "inputs": [],
      "name": "InvalidProposalParameters",
      "type": "error"
    },
    {
      "inputs": [
        {
          "internalType": "uint256",
          "name": "threshold",
          "type": "uint256"
        }
      ],
      "name": "InvalidQuorumThreshold",
      "type": "error"
    },
    {
      "inputs": [],
      "name": "InvalidRegistryAddress",
      "type": "error"
    },
    {
      "inputs": [
        {
          "internalType": "uint256",
          "name": "startTime",
          "type": "uint256"
        },
        {
          "internalType": "uint256",
          "name": "endTime",
          "type": "uint256"
        }
      ],
      "name": "InvalidVotingPeriod",
      "type": "error"
    },
    {
      "inputs": [],
      "name": "ModuleAlreadyInitialized",
      "type": "error"
    },
    {
      "inputs": [],
      "name": "ModuleNotInitialized",
      "type": "error"
    },
    {
      "inputs": [
        {
          "internalType": "address",
          "name": "voter",
          "type": "address"
        }
      ],
      "name": "NotEligibleToVote",
      "type": "error"
    },
    {
      "inputs": [],
      "name": "OnlyRegistry",
      "type": "error"
    },
    {
      "inputs": [
        {
          "internalType": "string",
          "name": "hierarchicalId",
          "type": "string"
        }
      ],
      "name": "ProposalAlreadyExecuted",
      "type": "error"
    },
    {
      "inputs": [
        {
          "internalType": "string",
          "name": "hierarchicalId",
          "type": "string"
        }
      ],
      "name": "ProposalNotActive",
      "type": "error"
    },
    {
      "inputs": [
        {
          "internalType": "string",
          "name": "hierarchicalId",
          "type": "string"
        }
      ],
      "name": "ProposalNotExecutable",
      "type": "error"
    },
    {
      "inputs": [
        {
          "internalType": "string",
          "name": "hierarchicalId",
          "type": "string"
        }
      ],
      "name": "ProposalNotFound",
      "type": "error"
    },
    {
      "inputs": [
        {
          "internalType": "string",
          "name": "hierarchicalId",
          "type": "string"
        }
      ],
      "name": "ProposalNotPending",
      "type": "error"
    },
    {
      "inputs": [
        {
          "internalType": "address",
          "name": "delegator",
          "type": "address"
        }
      ],
      "name": "SelfDelegationNotAllowed",
      "type": "error"
    },
    {
      "inputs": [
        {
          "internalType": "address",
          "name": "creator",
          "type": "address"
        }
      ],
      "name": "UnauthorizedProposalCreation",
      "type": "error"
    },
    {
      "inputs": [
        {
          "internalType": "address",
          "name": "executor",
          "type": "address"
        }
      ],
      "name": "UnauthorizedProposalExecution",
      "type": "error"
    },
    {
      "inputs": [
        {
          "internalType": "string",
          "name": "hierarchicalId",
          "type": "string"
        }
      ],
      "name": "VotingPeriodEnded",
      "type": "error"
    },
    {
      "inputs": [
        {
          "internalType": "string",
          "name": "hierarchicalId",
          "type": "string"
        }
      ],
      "name": "VotingPeriodNotEnded",
      "type": "error"
    },
    {
      "anonymous": false,
      "inputs": [
        {
          "indexed": true,
          "internalType": "string",
          "name": "hierarchicalId",
          "type": "string"
        },
        {
          "indexed": true,
          "internalType": "address",
          "name": "voter",
          "type": "address"
        },
        {
          "indexed": false,
          "internalType": "uint256",
          "name": "oldPower",
          "type": "uint256"
        },
        {
          "indexed": false,
          "internalType": "uint256",
          "name": "newPower",
          "type": "uint256"
        },
        {
          "indexed": false,
          "internalType": "uint256",
          "name": "timestamp",
          "type": "uint256"
        }
      ],
      "name": "ConvictionDecayApplied",
      "type": "event"
    },
    {
      "anonymous": false,
      "inputs": [
        {
          "indexed": true,
          "internalType": "string",
          "name": "hierarchicalId",
          "type": "string"
        },
        {
          "indexed": true,
          "internalType": "address",
          "name": "voter",
          "type": "address"
        },
        {
          "indexed": false,
          "internalType": "enum ISignal.VoteChoice",
          "name": "choice",
          "type": "uint8"
        },
        {
          "indexed": false,
          "internalType": "uint256",
          "name": "votingPower",
          "type": "uint256"
        },
        {
          "indexed": false,
          "internalType": "uint256",
          "name": "convictionMultiplier",
          "type": "uint256"
        },
        {
          "indexed": false,
          "internalType": "uint256",
          "name": "convictionTime",
          "type": "uint256"
        },
        {
          "indexed": false,
          "internalType": "string",
          "name": "reason",
          "type": "string"
        }
      ],
      "name": "ConvictionVoteCast",
      "type": "event"
    },
    {
      "anonymous": false,
      "inputs": [],
      "name": "ModuleDisabled",
      "type": "event"
    },
    {
      "anonymous": false,
      "inputs": [],
      "name": "ModuleEnabled",
      "type": "event"
    },
    {
      "anonymous": false,
      "inputs": [
        {
          "indexed": true,
          "internalType": "address",
          "name": "registry",
          "type": "address"
        }
      ],
      "name": "ModuleInitialized",
      "type": "event"
    },
    {
      "anonymous": false,
      "inputs": [
        {
          "indexed": false,
          "internalType": "address",
          "name": "account",
          "type": "address"
        }
      ],
      "name": "Paused",
      "type": "event"
    },
    {
      "anonymous": false,
      "inputs": [
        {
          "indexed": true,
          "internalType": "string",
          "name": "hierarchicalId",
          "type": "string"
        },
        {
          "indexed": true,
          "internalType": "address",
          "name": "canceler",
          "type": "address"
        },
        {
          "indexed": false,
          "internalType": "string",
          "name": "reason",
          "type": "string"
        }
      ],
      "name": "ProposalCanceled",
      "type": "event"
    },
    {
      "anonymous": false,
      "inputs": [
        {
          "indexed": false,
          "internalType": "string",
          "name": "hierarchicalId",
          "type": "string"
        },
        {
          "indexed": true,
          "internalType": "bytes8",
          "name": "organizationId",
          "type": "bytes8"
        },
        {
          "indexed": true,
          "internalType": "address",
          "name": "creator",
          "type": "address"
        },
        {
          "indexed": false,
          "internalType": "string",
          "name": "title",
          "type": "string"
        },
        {
          "indexed": false,
          "internalType": "enum ISignal.ProposalType",
          "name": "proposalType",
          "type": "uint8"
        },
        {
          "indexed": false,
          "internalType": "enum ISignal.VotingType",
          "name": "votingType",
          "type": "uint8"
        },
        {
          "indexed": false,
          "internalType": "uint256",
          "name": "votingPeriod",
          "type": "uint256"
        },
        {
          "indexed": false,
          "internalType": "uint256",
          "name": "startTime",
          "type": "uint256"
        },
        {
          "indexed": false,
          "internalType": "uint256",
          "name": "endTime",
          "type": "uint256"
        }
      ],
      "name": "ProposalCreated",
      "type": "event"
    },
    {
      "anonymous": false,
      "inputs": [
        {
          "indexed": true,
          "internalType": "string",
          "name": "hierarchicalId",
          "type": "string"
        },
        {
          "indexed": true,
          "internalType": "address",
          "name": "executor",
          "type": "address"
        },
        {
          "indexed": false,
          "internalType": "bool",
          "name": "success",
          "type": "bool"
        },
        {
          "indexed": false,
          "internalType": "bytes",
          "name": "returnData",
          "type": "bytes"
        }
      ],
      "name": "ProposalExecuted",
      "type": "event"
    },
    {
      "anonymous": false,
      "inputs": [
        {
          "indexed": true,
          "internalType": "bytes32",
          "name": "role",
          "type": "bytes32"
        },
        {
          "indexed": true,
          "internalType": "bytes32",
          "name": "previousAdminRole",
          "type": "bytes32"
        },
        {
          "indexed": true,
          "internalType": "bytes32",
          "name": "newAdminRole",
          "type": "bytes32"
        }
      ],
      "name": "RoleAdminChanged",
      "type": "event"
    },
    {
      "anonymous": false,
      "inputs": [
        {
          "indexed": true,
          "internalType": "bytes32",
          "name": "role",
          "type": "bytes32"
        },
        {
          "indexed": true,
          "internalType": "address",
          "name": "account",
          "type": "address"
        },
        {
          "indexed": true,
          "internalType": "address",
          "name": "sender",
          "type": "address"
        }
      ],
      "name": "RoleGranted",
      "type": "event"
    },
    {
      "anonymous": false,
      "inputs": [
        {
          "indexed": true,
          "internalType": "bytes32",
          "name": "role",
          "type": "bytes32"
        },
        {
          "indexed": true,
          "internalType": "address",
          "name": "account",
          "type": "address"
        },
        {
          "indexed": true,
          "internalType": "address",
          "name": "sender",
          "type": "address"
        }
      ],
      "name": "RoleRevoked",
      "type": "event"
    },
    {
      "anonymous": false,
      "inputs": [
        {
          "indexed": false,
          "internalType": "address",
          "name": "account",
          "type": "address"
        }
      ],
      "name": "Unpaused",
      "type": "event"
    },
    {
      "anonymous": false,
      "inputs": [
        {
          "indexed": false,
          "internalType": "string",
          "name": "hierarchicalId",
          "type": "string"
        },
        {
          "indexed": true,
          "internalType": "address",
          "name": "voter",
          "type": "address"
        },
        {
          "indexed": false,
          "internalType": "enum ISignal.VoteChoice",
          "name": "choice",
          "type": "uint8"
        },
        {
          "indexed": false,
          "internalType": "uint256",
          "name": "votingPower",
          "type": "uint256"
        },
        {
          "indexed": false,
          "internalType": "string",
          "name": "reason",
          "type": "string"
        }
      ],
      "name": "VoteCast",
      "type": "event"
    },
    {
      "anonymous": false,
      "inputs": [
        {
          "indexed": true,
          "internalType": "bytes8",
          "name": "organizationId",
          "type": "bytes8"
        },
        {
          "components": [
            {
              "internalType": "uint256",
              "name": "votingDelay",
              "type": "uint256"
            },
            {
              "internalType": "uint256",
              "name": "votingPeriod",
              "type": "uint256"
            },
            {
              "internalType": "uint256",
              "name": "executionDelay",
              "type": "uint256"
            },
            {
              "internalType": "uint256",
              "name": "quorumThreshold",
              "type": "uint256"
            },
            {
              "internalType": "uint256",
              "name": "proposalThreshold",
              "type": "uint256"
            },
            {
              "internalType": "bool",
              "name": "requireMembership",
              "type": "bool"
            }
          ],
          "indexed": false,
          "internalType": "struct ISignal.VotingParameters",
          "name": "parameters",
          "type": "tuple"
        }
      ],
      "name": "VotingParametersUpdated",
      "type": "event"
    },
    {
      "anonymous": false,
      "inputs": [
        {
          "indexed": true,
          "internalType": "address",
          "name": "delegator",
          "type": "address"
        },
        {
          "indexed": true,
          "internalType": "address",
          "name": "delegatee",
          "type": "address"
        },
        {
          "indexed": false,
          "internalType": "uint256",
          "name": "amount",
          "type": "uint256"
        },
        {
          "indexed": false,
          "internalType": "uint256",
          "name": "timestamp",
          "type": "uint256"
        }
      ],
      "name": "VotingPowerDelegated",
      "type": "event"
    },
    {
      "anonymous": false,
      "inputs": [
        {
          "indexed": true,
          "internalType": "address",
          "name": "delegator",
          "type": "address"
        },
        {
          "indexed": true,
          "internalType": "address",
          "name": "delegatee",
          "type": "address"
        },
        {
          "indexed": false,
          "internalType": "uint256",
          "name": "amount",
          "type": "uint256"
        },
        {
          "indexed": false,
          "internalType": "uint256",
          "name": "timestamp",
          "type": "uint256"
        }
      ],
      "name": "VotingPowerUndelegated",
      "type": "event"
    },
    {
      "inputs": [],
      "name": "ADMIN_ROLE",
      "outputs": [
        {
          "internalType": "bytes32",
          "name": "",
          "type": "bytes32"
        }
      ],
      "stateMutability": "view",
      "type": "function"
    },
    {
      "inputs": [],
      "name": "BASIS_POINTS",
      "outputs": [
        {
          "internalType": "uint256",
          "name": "",
          "type": "uint256"
        }
      ],
      "stateMutability": "view",
      "type": "function"
    },
    {
      "inputs": [],
      "name": "DEFAULT_ADMIN_ROLE",
      "outputs": [
        {
          "internalType": "bytes32",
          "name": "",
          "type": "bytes32"
        }
      ],
      "stateMutability": "view",
      "type": "function"
    },
    {
      "inputs": [],
      "name": "EXECUTOR_ROLE",
      "outputs": [
        {
          "internalType": "bytes32",
          "name": "",
          "type": "bytes32"
        }
      ],
      "stateMutability": "view",
      "type": "function"
    },
    {
      "inputs": [],
      "name": "MAX_EXECUTION_DELAY",
      "outputs": [
        {
          "internalType": "uint256",
          "name": "",
          "type": "uint256"
        }
      ],
      "stateMutability": "view",
      "type": "function"
    },
    {
      "inputs": [],
      "name": "MAX_QUORUM_THRESHOLD",
      "outputs": [
        {
          "internalType": "uint256",
          "name": "",
          "type": "uint256"
        }
      ],
      "stateMutability": "view",
      "type": "function"
    },
    {
      "inputs": [],
      "name": "MAX_VOTING_PERIOD",
      "outputs": [
        {
          "internalType": "uint256",
          "name": "",
          "type": "uint256"
        }
      ],
      "stateMutability": "view",
      "type": "function"
    },
    {
      "inputs": [],
      "name": "MIN_VOTING_PERIOD",
      "outputs": [
        {
          "internalType": "uint256",
          "name": "",
          "type": "uint256"
        }
      ],
      "stateMutability": "view",
      "type": "function"
    },
    {
      "inputs": [],
      "name": "MODULE_ADMIN_ROLE",
      "outputs": [
        {
          "internalType": "bytes32",
          "name": "",
          "type": "bytes32"
        }
      ],
      "stateMutability": "view",
      "type": "function"
    },
    {
      "inputs": [],
      "name": "OPERATOR_ROLE",
      "outputs": [
        {
          "internalType": "bytes32",
          "name": "",
          "type": "bytes32"
        }
      ],
      "stateMutability": "view",
      "type": "function"
    },
    {
      "inputs": [],
      "name": "PROPOSAL_CREATOR_ROLE",
      "outputs": [
        {
          "internalType": "bytes32",
          "name": "",
          "type": "bytes32"
        }
      ],
      "stateMutability": "view",
      "type": "function"
    },
    {
      "inputs": [],
      "name": "SIGNAL_ADMIN_ROLE",
      "outputs": [
        {
          "internalType": "bytes32",
          "name": "",
          "type": "bytes32"
        }
      ],
      "stateMutability": "view",
      "type": "function"
    },
    {
      "inputs": [
        {
          "internalType": "string",
          "name": "hierarchicalId",
          "type": "string"
        },
        {
          "internalType": "address",
          "name": "voter",
          "type": "address"
        }
      ],
      "name": "applyConvictionDecay",
      "outputs": [],
      "stateMutability": "nonpayable",
      "type": "function"
    },
    {
      "inputs": [
        {
          "internalType": "uint256",
          "name": "convictionTime",
          "type": "uint256"
        }
      ],
      "name": "calculateConvictionMultiplier",
      "outputs": [
        {
          "internalType": "uint256",
          "name": "",
          "type": "uint256"
        }
      ],
      "stateMutability": "pure",
      "type": "function"
    },
    {
      "inputs": [
        {
          "internalType": "string",
          "name": "hierarchicalId",
          "type": "string"
        },
        {
          "internalType": "address",
          "name": "voter",
          "type": "address"
        },
        {
          "internalType": "enum ISignal.VotingPower",
          "name": "powerType",
          "type": "uint8"
        }
      ],
      "name": "calculateVotingPower",
      "outputs": [
        {
          "internalType": "uint256",
          "name": "",
          "type": "uint256"
        }
      ],
      "stateMutability": "view",
      "type": "function"
    },
    {
      "inputs": [
        {
          "internalType": "string",
          "name": "hierarchicalId",
          "type": "string"
        }
      ],
      "name": "canExecute",
      "outputs": [
        {
          "internalType": "bool",
          "name": "",
          "type": "bool"
        }
      ],
      "stateMutability": "view",
      "type": "function"
    },
    {
      "inputs": [
        {
          "internalType": "string",
          "name": "hierarchicalId",
          "type": "string"
        },
        {
          "internalType": "address",
          "name": "voter",
          "type": "address"
        }
      ],
      "name": "canVote",
      "outputs": [
        {
          "internalType": "bool",
          "name": "",
          "type": "bool"
        }
      ],
      "stateMutability": "view",
      "type": "function"
    },
    {
      "inputs": [
        {
          "internalType": "string",
          "name": "hierarchicalId",
          "type": "string"
        },
        {
          "internalType": "string",
          "name": "reason",
          "type": "string"
        }
      ],
      "name": "cancelProposal",
      "outputs": [],
      "stateMutability": "nonpayable",
      "type": "function"
    },
    {
      "inputs": [
        {
          "internalType": "string",
          "name": "hierarchicalId",
          "type": "string"
        },
        {
          "internalType": "enum ISignal.VoteChoice",
          "name": "choice",
          "type": "uint8"
        },
        {
          "internalType": "string",
          "name": "reason",
          "type": "string"
        }
      ],
      "name": "castVote",
      "outputs": [],
      "stateMutability": "nonpayable",
      "type": "function"
    },
    {
      "inputs": [
        {
          "internalType": "string",
          "name": "hierarchicalId",
          "type": "string"
        },
        {
          "internalType": "enum ISignal.VoteChoice",
          "name": "choice",
          "type": "uint8"
        },
        {
          "internalType": "uint256",
          "name": "convictionTime",
          "type": "uint256"
        },
        {
          "internalType": "string",
          "name": "reason",
          "type": "string"
        }
      ],
      "name": "castVoteWithConviction",
      "outputs": [],
      "stateMutability": "nonpayable",
      "type": "function"
    },
    {
      "inputs": [
        {
          "internalType": "bytes8",
          "name": "organizationId",
          "type": "bytes8"
        },
        {
          "internalType": "string",
          "name": "title",
          "type": "string"
        },
        {
          "internalType": "string",
          "name": "description",
          "type": "string"
        },
        {
          "internalType": "string",
          "name": "metadataURI",
          "type": "string"
        },
        {
          "internalType": "enum ISignal.ProposalType",
          "name": "proposalType",
          "type": "uint8"
        },
        {
          "internalType": "enum ISignal.VotingType",
          "name": "votingType",
          "type": "uint8"
        },
        {
          "internalType": "enum ISignal.VotingPower",
          "name": "votingPower",
          "type": "uint8"
        },
        {
          "internalType": "uint256",
          "name": "votingPeriod",
          "type": "uint256"
        },
        {
          "internalType": "bytes",
          "name": "executionData",
          "type": "bytes"
        },
        {
          "internalType": "address",
          "name": "targetContract",
          "type": "address"
        }
      ],
      "name": "createProposal",
      "outputs": [
        {
          "internalType": "string",
          "name": "hierarchicalId",
          "type": "string"
        }
      ],
      "stateMutability": "nonpayable",
      "type": "function"
    },
    {
      "inputs": [
        {
          "internalType": "address",
          "name": "delegatee",
          "type": "address"
        },
        {
          "internalType": "uint256",
          "name": "amount",
          "type": "uint256"
        }
      ],
      "name": "delegateVotingPower",
      "outputs": [],
      "stateMutability": "nonpayable",
      "type": "function"
    },
    {
      "inputs": [],
      "name": "emergencyPause",
      "outputs": [],
      "stateMutability": "nonpayable",
      "type": "function"
    },
    {
      "inputs": [],
      "name": "emergencyUnpause",
      "outputs": [],
      "stateMutability": "nonpayable",
      "type": "function"
    },
    {
      "inputs": [
        {
          "internalType": "string",
          "name": "hierarchicalId",
          "type": "string"
        }
      ],
      "name": "executeProposal",
      "outputs": [
        {
          "internalType": "bool",
          "name": "success",
          "type": "bool"
        },
        {
          "internalType": "bytes",
          "name": "returnData",
          "type": "bytes"
        }
      ],
      "stateMutability": "nonpayable",
      "type": "function"
    },
    {
      "inputs": [
        {
          "internalType": "address",
          "name": "delegator",
          "type": "address"
        }
      ],
      "name": "getDelegatedVotingPower",
      "outputs": [
        {
          "internalType": "uint256",
          "name": "",
          "type": "uint256"
        }
      ],
      "stateMutability": "view",
      "type": "function"
    },
    {
      "inputs": [
        {
          "internalType": "address",
          "name": "delegator",
          "type": "address"
        }
      ],
      "name": "getDelegations",
      "outputs": [
        {
          "components": [
            {
              "internalType": "address",
              "name": "delegatee",
              "type": "address"
            },
            {
              "internalType": "uint256",
              "name": "amount",
              "type": "uint256"
            },
            {
              "internalType": "uint256",
              "name": "timestamp",
              "type": "uint256"
            },
            {
              "internalType": "bool",
              "name": "active",
              "type": "bool"
            }
          ],
          "internalType": "struct ISignal.Delegation[]",
          "name": "",
          "type": "tuple[]"
        }
      ],
      "stateMutability": "view",
      "type": "function"
    },
    {
      "inputs": [
        {
          "internalType": "bytes8",
          "name": "organizationId",
          "type": "bytes8"
        }
      ],
      "name": "getOrganizationProposals",
      "outputs": [
        {
          "internalType": "bytes32[]",
          "name": "",
          "type": "bytes32[]"
        }
      ],
      "stateMutability": "view",
      "type": "function"
    },
    {
      "inputs": [
        {
          "internalType": "string",
          "name": "hierarchicalId",
          "type": "string"
        }
      ],
      "name": "getProposal",
      "outputs": [
        {
          "components": [
            {
              "internalType": "string",
              "name": "hierarchicalId",
              "type": "string"
            },
            {
              "internalType": "bytes8",
              "name": "organizationId",
              "type": "bytes8"
            },
            {
              "internalType": "address",
              "name": "creator",
              "type": "address"
            },
            {
              "internalType": "string",
              "name": "title",
              "type": "string"
            },
            {
              "internalType": "string",
              "name": "description",
              "type": "string"
            },
            {
              "internalType": "string",
              "name": "metadataURI",
              "type": "string"
            },
            {
              "internalType": "enum ISignal.ProposalType",
              "name": "proposalType",
              "type": "uint8"
            },
            {
              "internalType": "enum ISignal.VotingType",
              "name": "votingType",
              "type": "uint8"
            },
            {
              "internalType": "enum ISignal.VotingPower",
              "name": "votingPower",
              "type": "uint8"
            },
            {
              "internalType": "enum ISignal.ProposalState",
              "name": "state",
              "type": "uint8"
            },
            {
              "internalType": "uint256",
              "name": "startTime",
              "type": "uint256"
            },
            {
              "internalType": "uint256",
              "name": "endTime",
              "type": "uint256"
            },
            {
              "internalType": "uint256",
              "name": "executionTime",
              "type": "uint256"
            },
            {
              "internalType": "uint256",
              "name": "forVotes",
              "type": "uint256"
            },
            {
              "internalType": "uint256",
              "name": "againstVotes",
              "type": "uint256"
            },
            {
              "internalType": "uint256",
              "name": "abstainVotes",
              "type": "uint256"
            },
            {
              "internalType": "bytes",
              "name": "executionData",
              "type": "bytes"
            },
            {
              "internalType": "address",
              "name": "targetContract",
              "type": "address"
            },
            {
              "internalType": "address",
              "name": "executor",
              "type": "address"
            },
            {
              "internalType": "uint256",
              "name": "createdAt",
              "type": "uint256"
            },
            {
              "internalType": "uint256",
              "name": "executedAt",
              "type": "uint256"
            }
          ],
          "internalType": "struct ISignal.Proposal",
          "name": "",
          "type": "tuple"
        }
      ],
      "stateMutability": "view",
      "type": "function"
    },
    {
      "inputs": [
        {
          "internalType": "enum ISignal.ProposalState",
          "name": "state",
          "type": "uint8"
        }
      ],
      "name": "getProposalsByState",
      "outputs": [
        {
          "internalType": "bytes32[]",
          "name": "",
          "type": "bytes32[]"
        }
      ],
      "stateMutability": "view",
      "type": "function"
    },
    {
      "inputs": [
        {
          "internalType": "bytes32",
          "name": "role",
          "type": "bytes32"
        }
      ],
      "name": "getRoleAdmin",
      "outputs": [
        {
          "internalType": "bytes32",
          "name": "",
          "type": "bytes32"
        }
      ],
      "stateMutability": "view",
      "type": "function"
    },
    {
      "inputs": [
        {
          "internalType": "string",
          "name": "hierarchicalId",
          "type": "string"
        },
        {
          "internalType": "address",
          "name": "voter",
          "type": "address"
        }
      ],
      "name": "getVote",
      "outputs": [
        {
          "components": [
            {
              "internalType": "address",
              "name": "voter",
              "type": "address"
            },
            {
              "internalType": "enum ISignal.VoteChoice",
              "name": "choice",
              "type": "uint8"
            },
            {
              "internalType": "uint256",
              "name": "votingPower",
              "type": "uint256"
            },
            {
              "internalType": "uint256",
              "name": "timestamp",
              "type": "uint256"
            },
            {
              "internalType": "string",
              "name": "reason",
              "type": "string"
            },
            {
              "internalType": "bool",
              "name": "hasVoted",
              "type": "bool"
            },
            {
              "internalType": "uint256",
              "name": "convictionTime",
              "type": "uint256"
            },
            {
              "internalType": "uint256",
              "name": "convictionMultiplier",
              "type": "uint256"
            }
          ],
          "internalType": "struct ISignal.Vote",
          "name": "",
          "type": "tuple"
        }
      ],
      "stateMutability": "view",
      "type": "function"
    },
    {
      "inputs": [
        {
          "internalType": "bytes8",
          "name": "organizationId",
          "type": "bytes8"
        }
      ],
      "name": "getVotingParameters",
      "outputs": [
        {
          "components": [
            {
              "internalType": "uint256",
              "name": "votingDelay",
              "type": "uint256"
            },
            {
              "internalType": "uint256",
              "name": "votingPeriod",
              "type": "uint256"
            },
            {
              "internalType": "uint256",
              "name": "executionDelay",
              "type": "uint256"
            },
            {
              "internalType": "uint256",
              "name": "quorumThreshold",
              "type": "uint256"
            },
            {
              "internalType": "uint256",
              "name": "proposalThreshold",
              "type": "uint256"
            },
            {
              "internalType": "bool",
              "name": "requireMembership",
              "type": "bool"
            }
          ],
          "internalType": "struct ISignal.VotingParameters",
          "name": "",
          "type": "tuple"
        }
      ],
      "stateMutability": "view",
      "type": "function"
    },
    {
      "inputs": [
        {
          "internalType": "bytes8",
          "name": "organizationId",
          "type": "bytes8"
        },
        {
          "internalType": "address",
          "name": "account",
          "type": "address"
        },
        {
          "internalType": "enum ISignal.VotingPower",
          "name": "votingPowerType",
          "type": "uint8"
        }
      ],
      "name": "getVotingPowerWithDelegation",
      "outputs": [
        {
          "internalType": "uint256",
          "name": "",
          "type": "uint256"
        }
      ],
      "stateMutability": "view",
      "type": "function"
    },
    {
      "inputs": [
        {
          "internalType": "bytes32",
          "name": "role",
          "type": "bytes32"
        },
        {
          "internalType": "address",
          "name": "account",
          "type": "address"
        }
      ],
      "name": "grantRole",
      "outputs": [],
      "stateMutability": "nonpayable",
      "type": "function"
    },
    {
      "inputs": [
        {
          "internalType": "bytes32",
          "name": "role",
          "type": "bytes32"
        },
        {
          "internalType": "address",
          "name": "account",
          "type": "address"
        }
      ],
      "name": "hasRole",
      "outputs": [
        {
          "internalType": "bool",
          "name": "",
          "type": "bool"
        }
      ],
      "stateMutability": "view",
      "type": "function"
    },
    {
      "inputs": [
        {
          "internalType": "address",
          "name": "registryAddress",
          "type": "address"
        }
      ],
      "name": "initialize",
      "outputs": [],
      "stateMutability": "nonpayable",
      "type": "function"
    },
    {
      "inputs": [],
      "name": "isInitialized",
      "outputs": [
        {
          "internalType": "bool",
          "name": "",
          "type": "bool"
        }
      ],
      "stateMutability": "view",
      "type": "function"
    },
    {
      "inputs": [],
      "name": "moduleId",
      "outputs": [
        {
          "internalType": "bytes32",
          "name": "",
          "type": "bytes32"
        }
      ],
      "stateMutability": "pure",
      "type": "function"
    },
    {
      "inputs": [],
      "name": "onModuleDisabled",
      "outputs": [],
      "stateMutability": "nonpayable",
      "type": "function"
    },
    {
      "inputs": [],
      "name": "onModuleEnabled",
      "outputs": [],
      "stateMutability": "nonpayable",
      "type": "function"
    },
    {
      "inputs": [],
      "name": "pause",
      "outputs": [],
      "stateMutability": "nonpayable",
      "type": "function"
    },
    {
      "inputs": [],
      "name": "paused",
      "outputs": [
        {
          "internalType": "bool",
          "name": "",
          "type": "bool"
        }
      ],
      "stateMutability": "view",
      "type": "function"
    },
    {
      "inputs": [],
      "name": "registry",
      "outputs": [
        {
          "internalType": "address",
          "name": "",
          "type": "address"
        }
      ],
      "stateMutability": "view",
      "type": "function"
    },
    {
      "inputs": [
        {
          "internalType": "bytes32",
          "name": "role",
          "type": "bytes32"
        },
        {
          "internalType": "address",
          "name": "account",
          "type": "address"
        }
      ],
      "name": "renounceRole",
      "outputs": [],
      "stateMutability": "nonpayable",
      "type": "function"
    },
    {
      "inputs": [
        {
          "internalType": "bytes32",
          "name": "role",
          "type": "bytes32"
        },
        {
          "internalType": "address",
          "name": "account",
          "type": "address"
        }
      ],
      "name": "revokeRole",
      "outputs": [],
      "stateMutability": "nonpayable",
      "type": "function"
    },
    {
      "inputs": [
        {
          "internalType": "bytes8",
          "name": "organizationId",
          "type": "bytes8"
        },
        {
          "components": [
            {
              "internalType": "uint256",
              "name": "votingDelay",
              "type": "uint256"
            },
            {
              "internalType": "uint256",
              "name": "votingPeriod",
              "type": "uint256"
            },
            {
              "internalType": "uint256",
              "name": "executionDelay",
              "type": "uint256"
            },
            {
              "internalType": "uint256",
              "name": "quorumThreshold",
              "type": "uint256"
            },
            {
              "internalType": "uint256",
              "name": "proposalThreshold",
              "type": "uint256"
            },
            {
              "internalType": "bool",
              "name": "requireMembership",
              "type": "bool"
            }
          ],
          "internalType": "struct ISignal.VotingParameters",
          "name": "params",
          "type": "tuple"
        }
      ],
      "name": "setVotingParameters",
      "outputs": [],
      "stateMutability": "nonpayable",
      "type": "function"
    },
    {
      "inputs": [
        {
          "internalType": "bytes4",
          "name": "interfaceId",
          "type": "bytes4"
        }
      ],
      "name": "supportsInterface",
      "outputs": [
        {
          "internalType": "bool",
          "name": "",
          "type": "bool"
        }
      ],
      "stateMutability": "view",
      "type": "function"
    },
    {
      "inputs": [
        {
          "internalType": "address",
          "name": "delegatee",
          "type": "address"
        },
        {
          "internalType": "uint256",
          "name": "amount",
          "type": "uint256"
        }
      ],
      "name": "undelegateVotingPower",
      "outputs": [],
      "stateMutability": "nonpayable",
      "type": "function"
    },
    {
      "inputs": [],
      "name": "unpause",
      "outputs": [],
      "stateMutability": "nonpayable",
      "type": "function"
    },
    {
      "inputs": [],
      "name": "version",
      "outputs": [
        {
          "internalType": "string",
          "name": "",
          "type": "string"
        }
      ],
      "stateMutability": "view",
      "type": "function"
    }
  ],
  "bytecode": "0x608060405234620000265762000014620001e7565b60405161550362000695823961550390f35b600080fd5b634e487b7160e01b600052604160045260246000fd5b90601f01601f191681019081106001600160401b038211176200006357604052565b6200002b565b90620000806200007860405190565b928362000041565b565b6001600160401b0381116200006357602090601f01601f19160190565b90620000b5620000af8362000082565b62000069565b918252565b620000c660056200009f565b640312e302e360dc1b602082015290565b620000e1620000ba565b90565b620000e160c062000069565b620000e1620000e1620000e19290565b90600019905b9181191691161790565b9062000124620000e16200012c92620000f0565b825462000100565b9055565b9060ff9062000106565b906200014d620000e16200012c92151590565b825462000130565b620000809190620001d49060a0906005906200017b8162000174875190565b9062000110565b6200018f6001820162000174602088015190565b620001a36002820162000174604088015190565b620001b76003820162000174606088015190565b620001cb6004820162000174608088015190565b01920151151590565b906200013a565b90620000809162000155565b620001f1620000d7565b620001fc9062000300565b62015180600160646103e86202a30062093a8062000219620000e4565b956200022590620000f0565b86526200023290620000f0565b60208601526200024290620000f0565b60408501526200025290620000f0565b60608401526200026290620000f0565b6080830152151560a08201526200027b906012620001db565b33620002a8817f14684b861e7ed8196bfd1e75a427098261dc7f825334a81d48ec74d12ef80dfe620005e6565b620002d4817f8a21e8fdae6c23863f7de5307e2e7162c88dab602a41610addb5f1505d259398620005e6565b62000080907fd8aa0f3194971a2a116679f7c2090f6939c8d4e01a2a8d7e41d55e5351469e63620005e6565b6200008090620004ff565b634e487b7160e01b600052602260045260246000fd5b906001600283049216801562000344575b60208310146200033e57565b6200030b565b91607f169162000332565b9160001960089290920291821b911b62000106565b919062000379620000e16200012c93620000f0565b9083546200034f565b620000809160009162000364565b8181106200039c575050565b80620003ac600060019362000382565b0162000390565b9190601f8111620003c357505050565b620003d76200008093600052602060002090565b906020601f840181900483019310620003fb575b6020601f90910104019062000390565b9091508190620003eb565b9062000410815190565b906001600160401b0382116200006357620004388262000431855462000321565b85620003b3565b602090601f831160011462000477576200012c9291600091836200046b575b5050600019600883021c1916906002021790565b01519050388062000457565b601f198316916200048d85600052602060002090565b9260005b818110620004ce57509160029391856001969410620004b4575b50505002019055565b01516000196008601f8516021c19169055388080620004ab565b9193602060018192878701518155019501920162000491565b90620000809162000406565b620000e16000620000f0565b62000516906200050e62000564565b6004620004e7565b6200008062000524620004f3565b62000531338092620005e6565b7fa49807205ce4d355092ef5a8a18f56e8913cf4a201fbe287825b095693c21775620005e6565b620000e16001620000f0565b6200056e62000584565b620000806200057c62000558565b600262000110565b62000080600060016200013a565b905b600052602052604060002090565b620000e190620005b8906001600160a01b031682565b6001600160a01b031690565b620000e190620005a2565b620000e190620005c4565b906200059490620005cf565b90620005fb620005f7828462000675565b1590565b62000604575050565b6200062a6001620006248360006200061d878262000592565b01620005da565b6200013a565b3390620006646200065d6200065d7f2f8788117e7eff1d82e926ec794901d17c78024a50270940304540a733656f0d9590565b92620005cf565b926200066f60405190565b600090a4565b620000e1916200068d916200061d6000918262000592565b5460ff169056fe6080604052600436101561001257600080fd5b60003560e01c80621221211461033757806301ffc9a71461033257806307bd02651461032d578063127ec2831461025b57806315b3958e1461032857806316495f0e14610323578063215809ca1461031e578063248a9ca31461031957806325d3a09d146103145780632cfe27f01461030f5780632d47f9f81461030a5780632f2ff15d1461030557806331cc13ba1461030057806336568abe146102fb578063389e29f2146102f6578063392e53cd146102f15780633f4ba83a146102ec5780634a4e3bd5146102e757806351858e27146102e257806354fd4d50146102dd5780635c975abb146102d85780636da25a54146102d357806375251dd5146102ce57806375b238fc146102c9578063762d9f8b146102c45780637b103999146102bf5780637bc8450f146102ba5780637c28b9be146102b55780638456cb59146102b057806391d14854146102ab578063966d3dc7146102a65780639b4326fb146102a1578063a1308f271461029c578063a217fddf14610297578063a2bcdc0f14610292578063a64e024a14610274578063a845a05b1461028d578063aa7318aa14610288578063acfa0b9414610283578063b502f5541461027e578063bacc132314610279578063bc03d28014610274578063c25ec9471461026f578063c4d66de81461026a578063d547741f14610265578063d8ec138614610260578063e1f1c4a71461025b578063ebf8a3e614610256578063f2bd42be14610251578063f5b541a61461024c5763fb24973c0361034f5761144a565b611411565b6113d8565b6113c0565b610579565b611398565b611288565b611270565b611257565b6110fc565b61123c565b6111f8565b6111d1565b61115f565b611143565b6110cf565b61105f565b611014565b610fec565b610f44565b610efb565b610ee3565b610ebc565b610e3e565b610e08565b610def565b610d6d565b610d54565b610d16565b610cfb565b610cd3565b610caa565b610c92565b610c7a565b610c5f565b610c43565b610bb0565b610b89565b610aad565b610a6e565b6109dd565b61099c565b6106c7565b610698565b61066a565b610594565b610514565b6104dc565b610485565b6001600160c01b031981165b0361034f57565b600080fd5b905035906103618261033c565b565b634e487b7160e01b600052604160045260246000fd5b90601f01601f1916810190811067ffffffffffffffff82111761039b57604052565b610363565b906103616103ad60405190565b9283610379565b80610348565b90503590610361826103b4565b801515610348565b90503590610361826103c7565b91909160c08184031261034f576104596103f660c06103a0565b93600061040382856103ba565b908601526020610415828286016103ba565b908601526040610427828286016103ba565b908601526060610439828286016103ba565b90860152608061044b828286016103ba565b9086015260a08093016103cf565b90830152565b919060e08382031261034f57610482906104798185610354565b936020016103dc565b90565b3461034f5761049e61049836600461045f565b906153da565b604051005b0390f35b6001600160e01b03198116610348565b90503590610361826104a7565b9060208282031261034f57610482916104b7565b9052565b3461034f576104a36104f76104f23660046104c4565b611483565b60405191829182901515815260200190565b600091031261034f57565b3461034f57610524366004610509565b6104a37fd8aa0f3194971a2a116679f7c2090f6939c8d4e01a2a8d7e41d55e5351469e635b6040519182918290815260200190565b6104826104826104829290565b610482612710610559565b610482610566565b3461034f57610589366004610509565b6104a3610549610571565b3461034f576105a4366004610509565b6104a37f8a21e8fdae6c23863f7de5307e2e7162c88dab602a41610addb5f1505d259398610549565b67ffffffffffffffff811161039b57602090601f01601f19160190565b0190565b90826000939282370152565b9092919261060f61060a826105cd565b6103a0565b9381855260208501908284011161034f57610361926105ee565b9080601f8301121561034f57816020610482933591016105fa565b9060208282031261034f57813567ffffffffffffffff811161034f576104829201610629565b3461034f576104a36104f7610680366004610644565b615433565b610482610e10610559565b610482610685565b3461034f576106a8366004610509565b6104a3610549610690565b9060208282031261034f57610482916103ba565b3461034f576104a36105496106dd3660046106b3565b611544565b60005b8381106106f55750506000910152565b81810151838201526020016106e5565b61072661072f6020936105ea9361071a815190565b80835293849260200190565b958691016106e2565b601f01601f191690565b6001600160a01b031690565b634e487b7160e01b600052602160045260246000fd5b6005111561076557565b610745565b906103618261075b565b6104829061076a565b6104d890610774565b6004111561076557565b9061036182610786565b61048290610790565b6104d89061079a565b6003111561076557565b90610361826107ac565b610482906107b6565b6104d8906107c0565b6006111561076557565b90610361826107d2565b610482906107dc565b6104d8906107e6565b90610482906102808061094a6108846108726108606108276102a0880160008b015189820360008b0152610705565b60208a8101516001600160c01b031916908901526040808b01516001600160a01b03169089015260608a015188820360608a0152610705565b60808901518782036080890152610705565b60a088015186820360a0880152610705565b61089660c088015160c087019061077d565b6108a860e088015160e08701906107a3565b6108bc6101008801516101008701906107c9565b6108d06101208801516101208701906107ef565b6108e1610140880151610140870152565b6108f2610160880151610160870152565b610903610180880151610180870152565b6109146101a08801516101a0870152565b6109256101c08801516101c0870152565b6109366101e08801516101e0870152565b610200870151858203610200870152610705565b610220808701516001600160a01b03169085015294610240818101516001600160a01b031690850152610984610260820151610260860152565b0151910152565b6020808252610482929101906107f8565b3461034f576104a36109b76109b2366004610644565b61512b565b6040519182918261098b565b901515815260406020820181905261048292910190610705565b3461034f576109f56109f0366004610644565b6134bf565b906104a3610a0260405190565b928392836109c3565b6001600160a01b038116610348565b9050359061036182610a0b565b6003111561034f57565b9050359061036182610a27565b909160608284031261034f57610482610a578484610354565b93610a658160208601610a1a565b93604001610a31565b3461034f576104a3610549610a84366004610a3e565b916148be565b919060408382031261034f5761048290610aa481856103ba565b93602001610a1a565b3461034f5761049e610ac0366004610a8a565b90611583565b9060208282031261034f5761048291610a1a565b80516001600160a01b0316825261036191906060908190610b0060208201516020860152565b610b0f60408201516040860152565b01511515910152565b906105ea81608093610ada565b90610b45610b3e610b34845190565b8084529260200190565b9260200190565b9060005b818110610b565750505090565b909192610b70610b696001928651610b18565b9460200190565b929101610b49565b602080825261048292910190610b25565b3461034f576104a3610ba4610b9f366004610ac6565b6148a2565b60405191829182610b78565b3461034f5761049e610bc3366004610a8a565b90611751565b6004111561034f57565b9050359061036182610bc9565b9060808282031261034f57813567ffffffffffffffff811161034f5781610c08918401610629565b92610c168260208501610bd3565b92610c2483604083016103ba565b92606082013567ffffffffffffffff811161034f576104829201610629565b3461034f5761049e610c56366004610be0565b92919091614dd4565b3461034f57610c6f366004610509565b6104a36104f7611ef2565b3461034f57610c8a366004610509565b61049e611f7b565b3461034f57610ca2366004610509565b61049e611fec565b3461034f57610cba366004610509565b61049e611fc3565b602080825261048292910190610705565b3461034f57610ce3366004610509565b6104a3610cee611c2b565b6040515b91829182610cc2565b3461034f57610d0b366004610509565b6104a36104f761186e565b3461034f576104a3610549610d2c366004610ac6565b6147ce565b919060408382031261034f5761048290610d4b8185610a1a565b936020016103ba565b3461034f5761049e610d67366004610d31565b90614599565b3461034f57610d7d366004610509565b6104a37fa49807205ce4d355092ef5a8a18f56e8913cf4a201fbe287825b095693c21775610549565b91909160408184031261034f57803567ffffffffffffffff811161034f5783610dd0918301610629565b92602082013567ffffffffffffffff811161034f576104829201610629565b3461034f5761049e610e02366004610da6565b906137b1565b3461034f57610e18366004610509565b6104a3610e23611efc565b6040515b918291826001600160a01b03909116815260200190565b3461034f576104a3610549610e543660046106b3565b614de0565b9060208282031261034f5761048291610354565b90610e7c610b3e610b34845190565b9060005b818110610e8d5750505090565b909192610ea3610b696001928651815260200190565b929101610e80565b602080825261048292910190610e6d565b3461034f576104a3610ed7610ed2366004610e59565b615276565b60405191829182610eab565b3461034f57610ef3366004610509565b61049e611f3e565b3461034f576104a36104f7610f11366004610a8a565b90611514565b919060408382031261034f5782359067ffffffffffffffff821161034f57610aa481610482938601610629565b3461034f576104a36104f7610f5a366004610f17565b906153f6565b80516001600160a01b03168252906104829060e080610fbf6101008401610f8f602088015160208701906107a3565b610f9e60408801516040870152565b610fad60608801516060870152565b60808701518582036080870152610705565b60a0808701511515908501529461098460c082015160c0860152565b602080825261048292910190610f60565b3461034f576104a3611008611002366004610f17565b90615256565b60405191829182610fdb565b3461034f57611024366004610509565b6104a37f60b4c21d70ead12825359faa918a75b0f6aec1173d8f83736a228003bb90f01c610549565b6104826000610559565b61048261104d565b3461034f5761106f366004610509565b6104a3610549611057565b9160608383031261034f57823567ffffffffffffffff811161034f57826110a2918501610629565b926110b08360208301610bd3565b92604082013567ffffffffffffffff811161034f576104829201610629565b3461034f5761049e6110e236600461107a565b91613174565b61048262278d00610559565b6104826110e8565b3461034f5761110c366004610509565b6104a36105496110f4565b909160608284031261034f57813567ffffffffffffffff811161034f57610a5784610482928501610629565b3461034f576104a3610549611159366004611117565b916154a7565b3461034f5761116f366004610509565b61049e611eea565b80518252610361919060a090819061119460208201516020860152565b6111a360408201516040860152565b6111b260608201516060860152565b610b0f60808201516080860152565b60c0810192916103619190611177565b3461034f576104a36111ec6111e7366004610e59565b6153e4565b604051918291826111c1565b3461034f5761049e61120b366004610d31565b906147a9565b6006111561034f57565b9050359061036182611211565b9060208282031261034f576104829161121b565b3461034f576104a3610ed7611252366004611228565b615290565b3461034f5761049e61126a366004610f17565b9061507d565b3461034f5761049e611283366004610ac6565b611cbe565b3461034f5761049e61129b366004610a8a565b906116d5565b6005111561034f57565b90503590610361826112a1565b6101408183031261034f576112cd8282610354565b92602082013567ffffffffffffffff811161034f57836112ee918401610629565b92604083013567ffffffffffffffff811161034f578161130f918501610629565b92606081013567ffffffffffffffff811161034f5782611330918301610629565b9261133e83608084016112ab565b9261134c8160a08501610bd3565b9261135a8260c08301610a31565b926113688360e084016103ba565b926101008301359067ffffffffffffffff821161034f5761138e81610482938601610629565b9361012001610a1a565b3461034f576104a3610cee6113ae3660046112b8565b98979097969196959295949394612a4a565b3461034f576113d0366004610509565b61049e611e80565b3461034f576113e8366004610509565b6104a37f14684b861e7ed8196bfd1e75a427098261dc7f825334a81d48ec74d12ef80dfe610549565b3461034f57611421366004610509565b6104a37f97667070c54ef182b0f5858b034beac1b6f3089aa2d3188bb1e8929f4fa9b929610549565b3461034f5761145a366004610509565b6104a37ff83fbdecd7018694593b521db8f6c864cd19f8450388b844650c68334dac9ab5610549565b637965db0b60e01b6001600160e01b03198216149081156114a2575090565b61048291506001600160e01b0319166301ffc9a760e01b1490565b905b600052602052604060002090565b610739610482610482926001600160a01b031690565b610482906114cd565b610482906114e3565b906114bf906114ec565b610482905b60ff1690565b61048290546114ff565b6104829161152e91611528600091826114bd565b016114f5565b61150a565b6104829081565b6104829054611533565b600161155d61048292611555600090565b5060006114bd565b0161153a565b906103619161157961157482611544565b61158d565b90610361916117a1565b9061036191611563565b61036190339061162e565b61048290610559565b610559565b6105ea6115be926020926115b8815190565b94859290565b938491016106e2565b61160561048293926115ff6115ff937f416363657373436f6e74726f6c3a206163636f756e7420000000000000000000815260170190565b906115a6565b7f206973206d697373696e6720726f6c6520000000000000000000000000000000815260110190565b9061164061163c8284611514565b1590565b611648575050565b6116b69161048261166461165e61169e94611b06565b92611598565b61167960209161167383610559565b906119a6565b9261169261168660405190565b948593840192836115c7565b90810382520382610379565b60405162461bcd60e51b815291829160048301610cc2565b0390fd5b90610361916116cb61157482611544565b9061036191611817565b90610361916116ba565b156116e657565b60405162461bcd60e51b815260206004820152602f60248201527f416363657373436f6e74726f6c3a2063616e206f6e6c792072656e6f756e636560448201527f20726f6c657320666f722073656c6600000000000000000000000000000000006064820152608490fd5b610361919061177261176233610739565b6001600160a01b038416146116df565b611817565b9060ff905b9181191691161790565b9061179661048261179d92151590565b8254611777565b9055565b906117af61163c8284611514565b6117b7575050565b6117d160016117cc83600061152887826114bd565b611786565b33906118076118016118017f2f8788117e7eff1d82e926ec794901d17c78024a50270940304540a733656f0d9590565b926114ec565b9261181160405190565b600090a4565b906118228183611514565b61182a575050565b61183e60006117cc838261152887826114bd565b33906118076118016118017ff6391f5c32d9c69d2a47ea670b442974b53935d1edc7fd64eb21e047a839171b9590565b610482600161150a565b634e487b7160e01b600052601160045260246000fd5b818102929181159184041417156118a157565b611878565b919082018092116118a157565b906118c061060a836105cd565b918252565b369037565b906103616118e06118da846118b3565b936105cd565b601f1901602084016118c5565b634e487b7160e01b600052603260045260246000fd5b9061190c825190565b81101561191a570160200190565b6118ed565b80156118a1576000190190565b6115046104826104829290565b6104829061195161194d6104829460ff1690565b9190565b901c90565b1561195d57565b60405162461bcd60e51b8152806116b6600482016020808252818101527f537472696e67733a20686578206c656e67746820696e73756666696369656e74604082015260600190565b91906002926119d76119d26119c3846119be88610559565b61188e565b6119cc87610559565b906118a6565b6118ca565b9160009060306119ef6119e984610559565b86611903565b53611a27611a1e600f60fb1b926119be6001998a95871a611a18611a1288610559565b8b611903565b53610559565b6119cc83610559565b905b611a4b575b5061048293945090611a4561194d61048293610559565b14611956565b91611a5586610559565b831115611ad0577f3031323334353637383961626364656600000000000000000000000000000000611a87600f610559565b821690601082101561191a578792611aa7611ac492611aca941a60f81b90565b851a611ab38789611903565b53611abe600461192c565b90611939565b9361191f565b90611a29565b91611a2e565b610482610482610482926001600160a01b031690565b610482601461192c565b6104826104826104829260ff1690565b611b23611b1e61048292611b18606090565b506114e3565b611ad6565b611673611b2e611aec565b611af6565b634e487b7160e01b600052602260045260246000fd5b9060016002830492168015611b69575b6020831014611b6457565b611b33565b91607f1691611b59565b80546000939291611b90611b8683611b49565b8085529360200190565b9160018116908115611be25750600114611ba957505050565b611bbc9192939450600052602060002090565b916000925b818410611bce5750500190565b805484840152602090930192600101611bc1565b92949550505060ff1916825215156020020190565b9061048291611b73565b90610361611c1b92611c1260405190565b93848092611bf7565b0383610379565b61048290611c01565b6104826004611c22565b6104829060a01c611504565b6104829054611c35565b6107396104826104829290565b61048290611c4b565b906001600160a01b039061177c565b90611c8061048261179d926114ec565b8254611c61565b9074ff00000000000000000000000000000000000000009060a01b61177c565b90611cb761048261179d92151590565b8254611c87565b611cc86003611c41565b611db157611cd96107396000611c58565b6001600160a01b03821614611d9f57611cfb611cf4826114ec565b6003611c70565b611d0760016003611ca7565b611d31817fa49807205ce4d355092ef5a8a18f56e8913cf4a201fbe287825b095693c217756117a1565b611d5b817f97667070c54ef182b0f5858b034beac1b6f3089aa2d3188bb1e8929f4fa9b9296117a1565b611d63612192565b611d8d7f27b541a16df0902e262f34789782092ab25125513b8ed73608e802951771b928916114ec565b90611d9760405190565b80805b0390a2565b604051637bfd2e8360e01b8152600490fd5b604051637396742f60e11b8152600490fd5b61048290610739565b6104829054611dc3565b33611dfc611def610739611dea6003611dcc565b6114ec565b916001600160a01b031690565b03611e0957610361611e1b565b6040516310f5403960e31b8152600490fd5b611e2861163c6003611c41565b611e3457610361611e46565b604051633165f6e960e21b8152600490fd5b611e4e611f83565b7fa866f3901ec84758a10f30e8953c3818eef73da93dfa46cb6aa5b726fb65813f611e7860405190565b80805b0390a1565b610361611dd6565b33611e9c611def610739611dea6003611dcc565b03611e0957610361611eb161163c6003611c41565b611e3457610361611ec0611f91565b7f6dff2fe8fbb5b23bf0583bf5b2157ff62ca7e27f2fb4f404914cd0c205ced5cc611e7860405190565b610361611e88565b6104826003611c41565b610482611dea6003611dcc565b611f327fa49807205ce4d355092ef5a8a18f56e8913cf4a201fbe287825b095693c2177561158d565b6103615b610361612010565b610361611f09565b611f6f7fa49807205ce4d355092ef5a8a18f56e8913cf4a201fbe287825b095693c2177561158d565b6103615b6103616120e0565b610361611f46565b611f8b61186e565b611f7357565b611f9c61163c61186e565b611f3657565b33611fb6611def610739611dea6003611dcc565b03611e0957610361611f36565b610361611fa2565b33611fdf611def610739611dea6003611dcc565b03611e0957610361611f73565b610361611fcb565b61200161163c6003611c41565b611e345761036161036161205d565b610361611ff4565b6120206120b1565b61036161202e600180611786565b33611e7b7f62e78cea01bee320cd4e420270b5ea74000d11b0c9f74754ebdbfc544b05a25891610e2760405190565b610361612018565b1561206c57565b60405162461bcd60e51b815260206004820152601060248201527f5061757361626c653a20706175736564000000000000000000000000000000006044820152606490fd5b6103616120bf61163c61186e565b612065565b6120d161163c6003611c41565b611e345761036161036161212e565b6103616120c4565b6120f0612182565b6103616120ff60006001611786565b33611e7b7f5db9ee0a495bf2e6ff9c91a7834c1ba4fdd244a5e8aa4e537bd38aeae4b073aa91610e2760405190565b6103616120e8565b1561213d57565b60405162461bcd60e51b815260206004820152601460248201527f5061757361626c653a206e6f74207061757365640000000000000000000000006044820152606490fd5b61036161218d61186e565b612136565b6103616121a2611dea6003611dcc565b6121cc817f14684b861e7ed8196bfd1e75a427098261dc7f825334a81d48ec74d12ef80dfe6117a1565b6121f6817f8a21e8fdae6c23863f7de5307e2e7162c88dab602a41610addb5f1505d2593986117a1565b7fd8aa0f3194971a2a116679f7c2090f6939c8d4e01a2a8d7e41d55e5351469e636117a1565b9998979695949392919061223361163c6003611c41565b611e34576104829a6126bb565b90505190610361826103c7565b9060208282031261034f5761048291612240565b6040513d6000823e3d90fd5b6104d890610559565b9160206103619294936122916040820196600083019061226d565b0152565b906001600160c01b0319166114bf565b60001981146118a15760010190565b906000199061177c565b906122ce61048261179d92610559565b82546122b4565b6118c06105ea91602094936115a6565b6122fa6122f160405190565b928392836122d5565b03902090565b610482916122e5565b634e487b7160e01b600052600060045260246000fd5b9160001960089290920291821b911b61177c565b919061234461048261179d93610559565b90835461231f565b61036191600091612333565b818110612363575050565b80612371600060019361234c565b01612358565b9190601f811161238657505050565b61239861036193600052602060002090565b906020601f8401819004830193106123ba575b6020601f909101040190612358565b90915081906123ab565b906123cd815190565b9067ffffffffffffffff821161039b576123f1826123eb8554611b49565b85612377565b602090601f831160011461242c5761179d929160009183612421575b5050600019600883021c1916906002021790565b01519050388061240d565b601f1983169161244185600052602060002090565b9260005b81811061247f57509160029391856001969410612466575b50505002019055565b01516000196008601f8516021c1916905538808061245d565b91936020600181928787015181550195019201612445565b90610361916123c4565b9067ffffffffffffffff9061177c565b906124cf6124c961179d926001600160c01b03191690565b60c01c90565b82546124a1565b907bffffffffffffffffffffffffffffffffffffffff00000000000000009060401b61177c565b9061250d61048261179d926114ec565b82546124d6565b9061179661048261179d92610774565b9061ff009060081b61177c565b9061254161048261179d9261079a565b8254612524565b9062ff00009060101b61177c565b9061256661048261179d926107c0565b8254612548565b9063ff0000009060181b61177c565b9061258c61048261179d926107e6565b825461256d565b9061259c815190565b9067ffffffffffffffff821161039b576125ba826123eb8554611b49565b602090601f83116001146125e95761179d929160009183612421575050600019600883021c1916906002021790565b601f198316916125fe85600052602060002090565b9260005b818110612622575091600293918560019694106124665750505002019055565b91936020600181928787015181550195019201612602565b9061036191612593565b610482916115a6565b906114bf906107e6565b929796946126b4906126ad60c0966126a36126986122919761268a6103619d9860e08c01908c6000818403910152610705565b908a820360208c0152610705565b9c604089019061077d565b60608701906107a3565b6080850152565b60a0830152565b5092999833989396919391906126f461163c8b7f8a21e8fdae6c23863f7de5307e2e7162c88dab602a41610addb5f1505d259398611514565b806129a7575b61297657612709610482610685565b89108015612963575b61293e57899a9b600d9a999a916127298a84612295565b6127328161153a565b61273b906122a5565b9081612746916122be565b612750908b612bab565b9c8d9261275c8c6141cc565b978c60059361276b8786612300565b966127769088612497565b600187019161278590836124b1565b61278e916124fd565b61279b8a60028701612497565b6127a89060038601612497565b6127b59060048501612497565b8201936127c28986612514565b6127cc8a86612531565b6127d69085612556565b600093846127e39161257c565b42926127ef8786015190565b6127f990856118a6565b95600684019661280990886122be565b8d6128138861153a565b9061281d916118a6565b97600785019861282d908a6122be565b6128368961153a565b604090910151612845916118a6565b61285290600886016122be565b61285f90600c850161263a565b82019061286b91611c70565b600f0190612878916122be565b604051806020810161288a8d82612644565b90810382520361289a9082610379565b8051906020012090816128ae896008612295565b906128b891612a5e565b506128c490600961264d565b906128ce91612a5e565b506128d89061153a565b906128e29061153a565b907f0b834a65e1f466a7c1af96d775e10af10230d4e28e6855597bebdc9c068affb395612916906001600160c01b03191690565b96612920906114ec565b9761292a60405190565b958695612938958c88612657565b0390a390565b8860006116b661294d60405190565b631412f1fb60e31b815292839260048401612276565b5061296f6104826110e8565b8911612712565b6116b68a61298360405190565b6302ef70e360e61b8152918291600483016001600160a01b03909116815260200190565b50896020896129b7611dea61420d565b6129d8634a01db786129fe6129cb60405190565b9687958694859460e01b90565b84526001600160c01b03191660048401526001600160a01b031660248301526044820190565b03915afa8015612a4557612a1891600091612a1d57501590565b6126fa565b61163c915060203d8111612a3e575b612a368183610379565b81019061224d565b503d612a2c565b612261565b61048299989796959493929190606061221c565b90612a75600061048293612a70600090565b500190565b612ada565b805482101561191a57612a94600191600052602060002090565b91020190600090565b919061234461048261179d9390565b908154916801000000000000000083101561039b5782612ad491600161036195018155612a7a565b90612a9d565b612ae761163c8383612b20565b15612b1957612b1491612b0f906001612b0884612b048482612aac565b5490565b93016114bd565b6122be565b600190565b5050600090565b612b3e916001612b3992612b32600090565b50016114bd565b61153a565b612b4b61194d6000610559565b141590565b612b5a60086118b3565b7f70726f706f73616c000000000000000000000000000000000000000000000000602082015290565b610482612b50565b01622d502d60e81b815260030190565b80926001600160c01b0319169052565b61048261169291612bcf61048294612bc1606090565b50612bca612b83565b612c20565b90612bd960405190565b938492602084019283612b9b600882612b8b6105ea948397966001600160c01b0319169052565b92612c1a60206105ea94612c1a6118c083999884976115a6565b01918252565b612c4d61048292612c2f600090565b50429261169244612c3f60405190565b958694602086019485612c00565b612c5f612c58825190565b9160200190565b206001600160c01b03191690565b929190612c80600661155d866005612300565b612c8d61194d6000610559565b14612c9c576103619293612cd5565b6116b684612ca960405190565b6382384e3160e01b815291829160048301610cc2565b6104829060181c611504565b6104829054612cbf565b9291906005612cf2612cea6104828784612300565b918201612ccb565b612d05612cff60016107dc565b916107dc565b03612d745742612d1a6104826006840161153a565b8110918215612d57575b5050612d34576103619293612d81565b6116b684612d4160405190565b63afeab32960e01b815291829160048301610cc2565b612d6c919250610482600761194d920161153a565b113880612d24565b6116b685612d4160405190565b9190612d9061163c6003611c41565b611e345761036192612f40565b92916020612dba6103619360408701908782036000890152610705565b9401906001600160a01b03169052565b6104829060101c611504565b6104829054612dca565b6001600160a01b039091168152606081019392610361929091604091612e0a90602083019061226d565b019061226d565b6104826101006103a0565b906104d890610790565b6104829051610790565b90611cb761048261179d9261079a565b6103619190612e919060e090600690612e7f81612e6d612e6788516001600160a01b031690565b82611c70565b612e7960208801612e26565b90612e30565b612e9760018201612e91604088015190565b906122be565b612ea960028201612e91606088015190565b612ec160038201612ebb608088015190565b90612497565b612edb60048201612ed560a0880151151590565b90611786565b612eed60058201612e9160c088015190565b0192015190565b9061036191612e40565b90610482949293612f2c612f21612f339360808601908682036000880152610705565b9560208501906107a3565b6040830152565b6060818403910152610705565b90600591612f516104828285612300565b93600690612f5f8383612300565b94612f766004612f703380996114f5565b0161150a565b61315057612f9e9086612f98612f9060018b015460c01b90565b928a01612dd6565b916138f0565b95600092612fab84610559565b881461312957864291600195612fbf612e11565b6001600160a01b0384168282015293612fdb8a60208701612e1c565b612fe68c6040870152565b60608501526080840186905286151560a085015261300390610559565b60c08401528661301287610559565b60e085015261302091612300565b9061302a916114f5565b9061303491612ef4565b61303e6002610790565b61304786610790565b611d9a9491036130c05750600961306b9101612e91886130668361153a565b6118a6565b6130828561307d610482866007612300565b61317f565b506130ad7fe57242758a93b8a807e382015be1d28c6734011c0bf1a547f7f78c652accbee0956114ec565b956130b760405190565b94859485612efe565b6130c990610790565b6130d286610790565b036130f057600a6130eb9101612e91886130668361153a565b61306b565b6130fa6003610790565b61310386610790565b1461310f575b5061306b565b600b6131239101612e91886130668361153a565b38613109565b83876116b660019261313a60405190565b6309e915af60e01b815293849360048501612de0565b85846116b661315e60405190565b639214b07560e01b815292839260048401612d9d565b906103619291612c6d565b90612a7561194d6115a1611b1e60006104829661319a600090565b5001946114e3565b91906131b161163c6003611c41565b611e34576131be9261329b565b9091565b6104829060401c610739565b61048290546131c2565b6104829054611b49565b805460009392916131f96131f583611b49565b9390565b916001811690811561324a575060011461321257505050565b6132259192939450600052602060002090565b6000905b8382106132365750500190565b600181602092548486015201910190613229565b60ff191683525050811515909102019150565b610482916131e2565b3d15613280576132753d6118b3565b903d6000602084013e565b606090565b6122fa9061329260405190565b91829182612644565b9291925060056132ae6104828583612300565b6132ba600182016131ce565b906000926132c784611c58565b926132da6001600160a01b038516611def565b146134b2576132e887613d8c565b8101936132f485612ccb565b600290613303612cff836107dc565b0361348f57426133186104826008860161153a565b8110613482579061333b61339d926133326003809a61257c565b601086016122be565b61339861048233986133508a600e8901611c70565b8b61336d61335d60405190565b8092611692602083019182612644565b613378612c58825190565b20936133928561338d6104826009948561264d565b6134cc565b5061264d565b612a5e565b50600c8201926133ac846131d8565b6133b861194d87610559565b119081613459575b501561344c5750906133ec836133d9600d829501611dcc565b926133e360405190565b9283918261325d565b03925af1926133f9613266565b93915b61342f6134297f322fdc248e7a6f153fbfebcbbe78d74473b3de9014cc6975c6abddaa492e99da93613285565b916114ec565b9161343960405190565b806134458887836109c3565b0390a39190565b95925050506001916133fc565b905061347a611def61346d600d8601611dcc565b926001600160a01b031690565b1415386133c0565b6116b689612d4160405190565b6116b68861349c60405190565b63e51acb8960e01b815291829160048301610cc2565b6116b687612ca960405190565b6131be90606060006131a2565b906134de600061048293612a70600090565b613550565b919082039182116118a157565b610482916008021c81565b9061048291546134f0565b634e487b7160e01b600052603160045260246000fd5b61036191600091612a9d565b8054801561354b5760001901906135486135428383612a7a565b9061351c565b55565b613506565b90613561612b3982600185016114bd565b60009261356d84610559565b82146135c057610482926135c694926135d1926135cb600197889361359a61359486610559565b826134e3565b888501916135b86135a9845490565b6135b289610559565b906134e3565b8281036135d6575b50505090565b613528565b016114bd565b61234c565b612ad46135ff613607946135f66135f0612b0f9589612a7a565b906134fb565b92839188612a7a565b8888016114bd565b3880806135c0565b9061361d61163c6003611c41565b611e3457610361916005906136356104828284612300565b6001810192613643846131ce565b91600092613656611def61073986611c58565b14612c9c5761366861073933966131ce565b6001600160a01b03861614158061377e575b61377157810191613696612cff61369085612ccb565b926107dc565b141580613753575b6137465790613398610482613700936136b660405190565b6136c881602081016116928a82612644565b6136d3612c58825190565b20936136fb826009926136f58861338d6104826136ef85612ccb565b8861264d565b5061257c565b61264d565b506137416137376137317fdf96c8b225b3c306215835756fece85292235dcf8458d56a54c63f3ee858141393613285565b936114ec565b93610cf260405190565b0390a3565b6116b683612d4160405190565b5061375d82612ccb565b61376a612cff60016107dc565b141561369e565b6116b68561298360405190565b506137ac61163c867f14684b861e7ed8196bfd1e75a427098261dc7f825334a81d48ec74d12ef80dfe611514565b61367a565b906103619161360f565b9050519061036182610a0b565b9050519061036182610bc9565b90505190610361826103b4565b9190916101208184031261034f576104596137fe6101206103a0565b93600061380b82856137bb565b90860152602061381d828286016137c8565b90860152604061382f828286016137c8565b908601526060613841828286016137d5565b908601526080613853828286016137d5565b9086015260a0613865828286016137d5565b9086015260c061387782828601612240565b9086015260e061388982828601612240565b90860152610100809301612240565b906101208282031261034f57610482916137e2565b9060208282031261034f57610482916137d5565b6001600160c01b03199190911681526001600160a01b0390911660208201526060810192916103619160400152565b6139186020613900611dea61420d565b634a01db789061390f60405190565b93849260e01b90565b82526001600160c01b0319851660048301526001600160a01b038616602483015260449082905afa8015612a455761395691600091612a1d57501590565b613aa75761397a61012061396b611dea61420d565b63ebb7c76b9061390f60405190565b82526001600160c01b0319851660048301526001600160a01b038616602483015260449082905afa908115612a45576139be91608091600091613a78575b50015190565b926139d26139cc60026107b6565b916107b6565b146139dc57505090565b6139e7611dea6142f2565b6139f46107396000611c58565b6001600160a01b03821603613a095750505090565b613a2f60209394613a3a634f6303ea91613a2260405190565b9788968795869560e01b90565b8552600485016138c1565b03915afa908115612a4557600091613a50575090565b610482915060203d8111613a71575b613a698183610379565b8101906138ad565b503d613a5f565b613a9a91506101203d8111613aa0575b613a928183610379565b810190613898565b386139b8565b503d613a88565b5050506104826000610559565b906104d89061076a565b6104829060081c611504565b6104829054613abe565b906104d8906107b6565b906104d8906107dc565b80546000939291613afb611b8683611b49565b9160018116908115611be25750600114613b1457505050565b613b279192939450600052602060002090565b916000925b818410613b395750500190565b805484840152602090930192600101613b2c565b9061048291613ae8565b90610361611c1b92613b6860405190565b93848092613b4d565b6104826102a06103a0565b90610361613d7b6010613b8d613b71565b94613b9e613b9a82611c01565b8752565b613bc0613baf600183015460c01b90565b6001600160c01b0319166020880152565b613bdf613bcf600183016131ce565b6001600160a01b03166040880152565b613bf5613bee60028301611c01565b6060880152565b613c0b613c0460038301611c01565b6080880152565b613c21613c1a60048301611c01565b60a0880152565b613c39613c306005830161150a565b60c08801613ab4565b613c51613c4860058301613aca565b60e08801612e1c565b613c6a613c6060058301612dd6565b6101008801613ad4565b613c83613c7960058301612ccb565b6101208801613ade565b613c9a613c926006830161153a565b610140880152565b613cb1613ca96007830161153a565b610160880152565b613cc8613cc06008830161153a565b610180880152565b613cdf613cd76009830161153a565b6101a0880152565b613cf6613cee600a830161153a565b6101c0880152565b613d0d613d05600b830161153a565b6101e0880152565b613d24613d1c600c8301613b57565b610200880152565b613d44613d33600d8301611dcc565b6001600160a01b0316610220880152565b613d64613d53600e8301611dcc565b6001600160a01b0316610240880152565b61155d613d73600f830161153a565b610260880152565b610280840152565b61048290613b7c565b600590613d9c6104828284612300565b918201613db9613db4613dae83612ccb565b94613d83565b613e35565b91613dc3836107dc565b613dcc856107dc565b03613dd8575b50505050565b613df393613398610482856136f59461336d61335d60405190565b38808080613dd2565b61048290516107dc565b61048290516107b6565b634e487b7160e01b600052601260045260246000fd5b8115613e30570490565b613e10565b6101208101613e4381613dfc565b613e50612cff60036107dc565b148015613f5e575b613f54575042613e6d61048261014084015190565b8110612b1957613e8561194d61048261016085015190565b1115613f4e576020810180516001600160c01b031916613ea4906141cc565b906101a0830191613eb3835190565b936101c0810194613ec2865190565b613ecb916118a6565b6101e0820151613eda916118a6565b92516001600160c01b0319169061010001613ef490613e06565b613efd9161403a565b606090910151613f0c9161188e565b613f14610566565b613f1d91613e26565b11613f475761194d610482613f33613f38935190565b935190565b11613f4257600490565b600290565b5050600490565b50600190565b6104829150613dfc565b50613f6881613dfc565b613f75612cff60056107dc565b14613e58565b67ffffffffffffffff811161039b5760208091020190565b90929192613fa361060a82613f7b565b938185526020808601920283019281841161034f57915b838310613fc75750505050565b60208091613fd584866137bb565b815201920191613fba565b9080601f8301121561034f57815161048292602001613f93565b9060208282031261034f57815167ffffffffffffffff811161034f576104829201613fe0565b90614029825190565b81101561191a576020809102010190565b6140649190600061404c611dea61420d565b63a8947b859061405b60405190565b95869260e01b90565b82526001600160c01b03198416600483015260249082905afa928315612a45576000936140eb575b506140976000610559565b92835b6140a5610482835190565b8510156140e3576140d76140dd916119cc866140d16140c48a88614020565b516001600160a01b031690565b876138f0565b946122a5565b9361409a565b935050505090565b61410791933d8091833e6140ff8183610379565b810190613ffa565b913861408c565b61048260c06103a0565b61412061410e565b9060008252602080808080808701600081520160005b815201600081520160008152016000905250565b610482614118565b906103616141ba600561416361410e565b94614170613b9a8261153a565b61418661417f6001830161153a565b6020880152565b61419c6141956002830161153a565b6040880152565b6141ab613bee6003830161153a565b612f70613c046004830161153a565b151560a0840152565b61048290614152565b6141e36141e8916141db61414a565b50600a612295565b6141c3565b60208101516141fa61194d6000610559565b146142025790565b5061048260126141c3565b610482611dea7f3a895dd7c72f83eeb5f75bd8d64cf0f19825ab80804745a41f58e42088602c206142e7565b9061424761163c6003611c41565b611e345761048291614268565b9060208282031261034f57610482916137bb565b6142a9916020915061427d611dea6003611dcc565b61429b6385acd64161428e60405190565b9586948593849360e01b90565b835260048301526024820190565b03915afa908115612a45576000916142bf575090565b610482915060203d81116142e0575b6142d88183610379565b810190614254565b503d6142ce565b610482906000614239565b61431b7fda774a9a6475b94924a168725d00b478d90cbf28e9176d635f3dab48a3a915086142e7565b6143256000611c58565b6001600160a01b0381166001600160a01b038316146143485750610482906114ec565b61048291506114ec565b9061436061163c6003611c41565b611e34576103619161443d565b61048260806103a0565b805482101561191a57612a94600491600052602060002090565b6103619190612ed5906060906003906143bb816143b587516001600160a01b031690565b90611c70565b6143cd60018201612e91602088015190565b6143df60028201612e91604088015190565b01920151151590565b91906143f75761036191614391565b612309565b908154916801000000000000000083101561039b578261442491600161036195018155614377565b906143e8565b9081526040810192916103619160200152565b336001600160a01b038216811461456857600061445981610559565b8414614541576144b961447061048284600e6114f5565b9142926144b460016144958861448461436d565b958601906001600160a01b03169052565b6144a0896020860152565b6144ab866040860152565b15156060840152565b6143fc565b6144dd6144d0846144cb85600b6114f5565b6114f5565b612e91866130668361153a565b6144eb6144d083600f6114f5565b6144fd8261307d61048286600c6114f5565b5061452b6137317f0e93f38017caec651d0ce6b361a18a797c3c92915af8727bc361e8b5528e01cd936114ec565b9361374161453860405190565b9283928361442a565b6116b68461454e60405190565b634e53fe2160e01b81529182916004830190815260200190565b6116b69061457560405190565b630c71b3bd60e01b8152918291600483016001600160a01b03909116815260200190565b9061036191614352565b906145b161163c6003611c41565b611e3457600b9133916103616145ce612b39846144cb87896114f5565b821161479c576145f76145e5846144cb87896114f5565b612e91846145f28361153a565b6134e3565b6146056145e585600f6114f5565b61461361048285600e6114f5565b829160009361462185610559565b61462c610482855490565b81108061478b575b15614715578061464e61464a61467d9387614377565b5090565b614659888201611dcc565b61466b6001600160a01b038b16611def565b1480614703575b614682575b506122a5565b614621565b876146c86146c26145f2600185019a61469d6104828d61153a565b8111156146f3576145f26146bc8d6146b48161153a565b94859161153a565b8d6122be565b9861153a565b6146d461194d83610559565b146146e0575b50614677565b60036146ec9201611786565b38876146da565b6145f26146bc8d8394859161153a565b506147106003820161150a565b614672565b50959392509561473a9150614734612b39866144cb8761194d956114f5565b92610559565b1461476e575b4261452b6137317fa4a5a3554ccf1a9531c27b469cd495bd2d61b6da23637fe39c7ed3d90c9a0132936114ec565b6147858161478061048285600c6114f5565b6147b3565b50614740565b5061479586610559565b8511614634565b6116b68261454e60405190565b90610361916145a3565b906134de61194d6115a1611b1e60006104829661319a600090565b612b39610482916147dd600090565b50600f6114f5565b906118c061060a83613f7b565b906103616144ab600361480361436d565b9461481d61481082611dcc565b6001600160a01b03168752565b61482c61417f6001830161153a565b612f706141956002830161153a565b610482906147f2565b9061484d825490565b614856816147e5565b9261486a6020850191600052602060002090565b6000915b83831061487b5750505050565b6004602060019261488b8561483b565b81520192019201919061486e565b61048290614844565b6148b9610482916148b1606090565b50600e6114f5565b614899565b91816148d49294936148ce600090565b506138f0565b906148df6000610559565b906148f66148f161048286600c6114f5565b61494b565b90825b614904610482845190565b84101561493d57614931614937916119cc612b39896144cb600b61492b6140c48c8c614020565b906114f5565b936122a5565b926148f9565b9250935050610482916118a6565b606090614957906149e1565b905090565b9061497761496b610b34845490565b92600052602060002090565b9060005b8181106149885750505090565b9091926149ac6149a560019261499d8761153a565b815260200190565b9460010190565b92910161497b565b906104829161495c565b90610361611c1b926149cf60405190565b938480926149b4565b610482906149be565b6000610482916149ef606090565b50016149d8565b93929190614a0a600661155d876005612300565b614a1761194d6000610559565b14614a26576103619394614a33565b6116b685612ca960405190565b939291906005614a49612cea6104828884612300565b614a56612cff60016107dc565b03614aa25742614a6b6104826006840161153a565b8110918215614a85575b5050612d74576103619394614aaf565b614a9a919250610482600761194d920161153a565b113880614a75565b6116b686612d4160405190565b929190614abf61163c6003611c41565b611e345761036193614b12565b9193614afe6104829694614af7614b059497614af060a088019960008901906107a3565b6020870152565b6040850152565b6060830152565b6080818403910152610705565b909192600592614b256104828486612300565b91614b3262015180610559565b86108015614dc0575b614d9957600690614b4c8583612300565b95614b5d6004612f7033809a6114f5565b614d8b57614b7f9087612f98614b77600189015460c01b90565b928801612dd6565b96600094614b8c86610559565b8914614d7a57614b9b82614de0565b9889614ba69161188e565b614bb06064610559565b614bb991613e26565b9542908960019681614bc9612e11565b93840190614bdf91906001600160a01b03169052565b614bec8960208501612e1c565b614bf78a6040850152565b614c02846060850152565b6080830187905287151560a0840152614c1c8660c0850152565b8a614c288e60e0860152565b614c3191612300565b90614c3b916114f5565b90614c4591612ef4565b8689614c528a6010612300565b90614c5c916114f5565b90614c66916122be565b88614c72896011612300565b90614c7c916114f5565b90614c86916122be565b614c906002610790565b614c9986610790565b613741959103614d1157506009614cb89101612e91876130668361153a565b614cca8761307d610482896007612300565b50614cfe614cf87fc0273d1ed732f2ff7f0865b547ea6da3296102edb2915a7eb2af9b1596479ce097613285565b976114ec565b97614d0860405190565b95869586614acc565b614d1a90610790565b614d2386610790565b03614d4157600a614d3c9101612e91876130668361153a565b614cb8565b614d4b6003610790565b614d5486610790565b14614d60575b50614cb8565b600b614d749101612e91876130668361153a565b38614d5a565b85886116b660019261313a60405190565b86866116b661315e60405190565b6116b686614da660405190565b631d8c48ad60e11b81529182916004830190815260200190565b50614dcd62278d00610559565b8611614b3b565b906103619392916149f6565b614dea6000610559565b8114614e5257614e09614e3591614e0362015180610559565b90613e26565b613066614e2f614e25606493614e1f60c8610559565b9061188e565b614e03601e610559565b91610559565b61012c614e4181610559565b82111561464a576104829150610559565b506104826064610559565b90614e6b61163c6003611c41565b611e345761036191614e95565b908152606081019392610361929091604091612291906020830152565b90600691614eaa610482836144cb8487612300565b614eb961163c6004830161150a565b801561505d575b613dd2574293614ee1614edb612b39866144cb876011612300565b866134e3565b614ef361194d6104826005860161153a565b1015614f01575b5050505050565b614f0f610482846005612300565b60006001840193614f53614f228661153a565b948201612e91614f3a614f348361153a565b88613e26565b6115a1614f4c606492614e1f84610559565b809a6122be565b01614f5d81611c41565b614f70614f6a6002610790565b91610790565b03614fe457506009614f8e9101612e9184613066856145f28561153a565b614fd7614fc4614fbe7fe3224d12971ec6cd1e86eac7c4c30aaa7b8ff863968e40299346f0b6d997950d95613285565b956114ec565b95614fce60405190565b93849384614e78565b0390a33880808080614efa565b614fed81611c41565b614ffa614f6a6001610790565b0361501d5750600a6150189101612e9184613066856145f28561153a565b614f8e565b61502690611c41565b615033614f6a6003610790565b1461503f575b50614f8e565b600b6150579101612e9184613066856145f28561153a565b38615039565b5061506a6005820161153a565b61507761194d6000610559565b14614ec0565b9061036191614e5d565b61508f613b71565b9060608252602082016000815260200160008152602001606081526020016060815260200160608152602001600081526020016000815260200160008152602001600081526020016000815260200160008152602001600081526020016000815260200160008152602001600081526020016060815260200160008152602001600081526020016000815260200160009052565b610482615087565b615133615123565b50615147615142826005612300565b613d83565b9061515c60408301516001600160a01b031690565b61516c611def6107396000611c58565b14615175575090565b6116b690612ca960405190565b61518a612e11565b906000825260208080808080808089016000815201600081520160008152016060614136565b610482615182565b9061036161524660066151c9612e11565b946151d661481082611dcc565b6151eb6151e282611c41565b60208801612e1c565b6151fa6141956001830161153a565b615209613bee6002830161153a565b615218613c0460038301611c01565b6152306152276004830161150a565b151560a0880152565b61155d61523f6005830161153a565b60c0880152565b60e0840152565b610482906151b8565b610482916144cb615271926152696151b0565b506006612300565b61524d565b6148f161048261048292615288606090565b506008612295565b6148f1610482610482926152a2606090565b50600961264d565b906152b861163c6003611c41565b611e345761036191615332565b6103619190612ed59060a0906005906152e081612e91875190565b6152f260018201612e91602088015190565b61530460028201612e91604088015190565b61531660038201612e91606088015190565b6143df60048201612e91608088015190565b90610361916152c5565b61533d611dea61420d565b6153526020634a01db78339361390f60405190565b82526001600160c01b0319861660048301526001600160a01b038516602483015260449082905afa8015612a455761539091600091612a1d57501590565b6153a95750906153a461036192600a612295565b615328565b6116b6906153b660405190565b639515fbc560e01b8152918291600483016001600160a01b03909116815260200190565b90610361916152aa565b610482906153f061414a565b506141cc565b61542291612f9861540c61048260059485612300565b9261541b600185015460c01b90565b9301612dd6565b61542f61194d6000610559565b1190565b61514261544a91615442600090565b506005612300565b60408101516001600160a01b031660009061546a611def61073984611c58565b146149575761547c6101208301613dfc565b615489612cff60026107dc565b0361495757506154a261194d6104826101804294015190565b101590565b906154c860016154c06104826104829695615442600090565b015460c01b90565b6138f056fea26469706673582212203dbedba1fb3a1f8bbc3e3670a574f5d42bb3dd6da4cae159b7d3ce2325b4c8bb64736f6c63430008140033",
  "linkReferences": {},
  "deployedLinkReferences": {}
}