{
  "_format": "hh-sol-artifact-1",
  "contractName": "Signal",
  "sourceName": "contracts/modules/Signal/Signal.sol",
  "abi": [
    {
      "inputs": [],
      "stateMutability": "nonpayable",
      "type": "constructor"
    },
    {
      "inputs": [
        {
          "internalType": "string",
          "name": "hierarchicalId",
          "type": "string"
        },
        {
          "internalType": "address",
          "name": "voter",
          "type": "address"
        }
      ],
      "name": "AlreadyVoted",
      "type": "error"
    },
    {
      "inputs": [
        {
          "internalType": "address",
          "name": "delegator",
          "type": "address"
        },
        {
          "internalType": "address",
          "name": "delegatee",
          "type": "address"
        }
      ],
      "name": "DelegationNotFound",
      "type": "error"
    },
    {
      "inputs": [
        {
          "internalType": "string",
          "name": "hierarchicalId",
          "type": "string"
        },
        {
          "internalType": "string",
          "name": "reason",
          "type": "string"
        }
      ],
      "name": "ExecutionFailed",
      "type": "error"
    },
    {
      "inputs": [
        {
          "internalType": "address",
          "name": "proposer",
          "type": "address"
        },
        {
          "internalType": "uint256",
          "name": "required",
          "type": "uint256"
        },
        {
          "internalType": "uint256",
          "name": "available",
          "type": "uint256"
        }
      ],
      "name": "InsufficientProposalThreshold",
      "type": "error"
    },
    {
      "inputs": [
        {
          "internalType": "address",
          "name": "voter",
          "type": "address"
        },
        {
          "internalType": "uint256",
          "name": "required",
          "type": "uint256"
        },
        {
          "internalType": "uint256",
          "name": "available",
          "type": "uint256"
        }
      ],
      "name": "InsufficientVotingPower",
      "type": "error"
    },
    {
      "inputs": [
        {
          "internalType": "address",
          "name": "delegator",
          "type": "address"
        },
        {
          "internalType": "address",
          "name": "delegatee",
          "type": "address"
        }
      ],
      "name": "InvalidDelegation",
      "type": "error"
    },
    {
      "inputs": [],
      "name": "InvalidProposalParameters",
      "type": "error"
    },
    {
      "inputs": [],
      "name": "InvalidRegistryAddress",
      "type": "error"
    },
    {
      "inputs": [
        {
          "internalType": "enum ISignal.VoteChoice",
          "name": "choice",
          "type": "uint8"
        }
      ],
      "name": "InvalidVoteChoice",
      "type": "error"
    },
    {
      "inputs": [
        {
          "internalType": "uint256",
          "name": "period",
          "type": "uint256"
        }
      ],
      "name": "InvalidVotingPeriod",
      "type": "error"
    },
    {
      "inputs": [
        {
          "internalType": "bytes8",
          "name": "organizationId",
          "type": "bytes8"
        },
        {
          "internalType": "address",
          "name": "member",
          "type": "address"
        }
      ],
      "name": "MembershipRequired",
      "type": "error"
    },
    {
      "inputs": [],
      "name": "ModuleAlreadyInitialized",
      "type": "error"
    },
    {
      "inputs": [],
      "name": "ModuleNotInitialized",
      "type": "error"
    },
    {
      "inputs": [],
      "name": "OnlyRegistry",
      "type": "error"
    },
    {
      "inputs": [
        {
          "internalType": "bytes8",
          "name": "organizationId",
          "type": "bytes8"
        }
      ],
      "name": "OrganizationNotFound",
      "type": "error"
    },
    {
      "inputs": [
        {
          "internalType": "string",
          "name": "hierarchicalId",
          "type": "string"
        }
      ],
      "name": "ProposalAlreadyExecuted",
      "type": "error"
    },
    {
      "inputs": [
        {
          "internalType": "string",
          "name": "hierarchicalId",
          "type": "string"
        }
      ],
      "name": "ProposalNotActive",
      "type": "error"
    },
    {
      "inputs": [
        {
          "internalType": "string",
          "name": "hierarchicalId",
          "type": "string"
        }
      ],
      "name": "ProposalNotFound",
      "type": "error"
    },
    {
      "inputs": [
        {
          "internalType": "string",
          "name": "hierarchicalId",
          "type": "string"
        }
      ],
      "name": "ProposalNotPassed",
      "type": "error"
    },
    {
      "inputs": [
        {
          "internalType": "string",
          "name": "hierarchicalId",
          "type": "string"
        },
        {
          "internalType": "uint256",
          "name": "required",
          "type": "uint256"
        },
        {
          "internalType": "uint256",
          "name": "actual",
          "type": "uint256"
        }
      ],
      "name": "QuorumNotReached",
      "type": "error"
    },
    {
      "inputs": [
        {
          "internalType": "string",
          "name": "hierarchicalId",
          "type": "string"
        },
        {
          "internalType": "address",
          "name": "caller",
          "type": "address"
        }
      ],
      "name": "UnauthorizedProposalAccess",
      "type": "error"
    },
    {
      "inputs": [
        {
          "internalType": "string",
          "name": "hierarchicalId",
          "type": "string"
        }
      ],
      "name": "VotingNotActive",
      "type": "error"
    },
    {
      "anonymous": false,
      "inputs": [
        {
          "indexed": true,
          "internalType": "string",
          "name": "hierarchicalId",
          "type": "string"
        },
        {
          "indexed": true,
          "internalType": "address",
          "name": "voter",
          "type": "address"
        },
        {
          "indexed": false,
          "internalType": "uint256",
          "name": "oldPower",
          "type": "uint256"
        },
        {
          "indexed": false,
          "internalType": "uint256",
          "name": "newPower",
          "type": "uint256"
        },
        {
          "indexed": false,
          "internalType": "uint256",
          "name": "timestamp",
          "type": "uint256"
        }
      ],
      "name": "ConvictionDecayApplied",
      "type": "event"
    },
    {
      "anonymous": false,
      "inputs": [
        {
          "indexed": true,
          "internalType": "string",
          "name": "hierarchicalId",
          "type": "string"
        },
        {
          "indexed": true,
          "internalType": "address",
          "name": "voter",
          "type": "address"
        },
        {
          "indexed": false,
          "internalType": "enum ISignal.VoteChoice",
          "name": "choice",
          "type": "uint8"
        },
        {
          "indexed": false,
          "internalType": "uint256",
          "name": "votingPower",
          "type": "uint256"
        },
        {
          "indexed": false,
          "internalType": "uint256",
          "name": "convictionMultiplier",
          "type": "uint256"
        },
        {
          "indexed": false,
          "internalType": "uint256",
          "name": "convictionTime",
          "type": "uint256"
        },
        {
          "indexed": false,
          "internalType": "string",
          "name": "reason",
          "type": "string"
        }
      ],
      "name": "ConvictionVoteCast",
      "type": "event"
    },
    {
      "anonymous": false,
      "inputs": [],
      "name": "ModuleDisabled",
      "type": "event"
    },
    {
      "anonymous": false,
      "inputs": [],
      "name": "ModuleEnabled",
      "type": "event"
    },
    {
      "anonymous": false,
      "inputs": [
        {
          "indexed": true,
          "internalType": "address",
          "name": "registry",
          "type": "address"
        }
      ],
      "name": "ModuleInitialized",
      "type": "event"
    },
    {
      "anonymous": false,
      "inputs": [
        {
          "indexed": false,
          "internalType": "address",
          "name": "account",
          "type": "address"
        }
      ],
      "name": "Paused",
      "type": "event"
    },
    {
      "anonymous": false,
      "inputs": [
        {
          "indexed": true,
          "internalType": "string",
          "name": "hierarchicalId",
          "type": "string"
        },
        {
          "indexed": true,
          "internalType": "address",
          "name": "canceler",
          "type": "address"
        },
        {
          "indexed": false,
          "internalType": "string",
          "name": "reason",
          "type": "string"
        }
      ],
      "name": "ProposalCanceled",
      "type": "event"
    },
    {
      "anonymous": false,
      "inputs": [
        {
          "indexed": true,
          "internalType": "string",
          "name": "hierarchicalId",
          "type": "string"
        },
        {
          "indexed": true,
          "internalType": "address",
          "name": "canceler",
          "type": "address"
        },
        {
          "indexed": false,
          "internalType": "string",
          "name": "reason",
          "type": "string"
        }
      ],
      "name": "ProposalCanceledHierarchical",
      "type": "event"
    },
    {
      "anonymous": false,
      "inputs": [
        {
          "indexed": false,
          "internalType": "string",
          "name": "hierarchicalId",
          "type": "string"
        },
        {
          "indexed": true,
          "internalType": "bytes8",
          "name": "organizationId",
          "type": "bytes8"
        },
        {
          "indexed": true,
          "internalType": "address",
          "name": "creator",
          "type": "address"
        },
        {
          "indexed": false,
          "internalType": "string",
          "name": "title",
          "type": "string"
        },
        {
          "indexed": false,
          "internalType": "enum ISignal.ProposalType",
          "name": "proposalType",
          "type": "uint8"
        },
        {
          "indexed": false,
          "internalType": "enum ISignal.VotingType",
          "name": "votingType",
          "type": "uint8"
        },
        {
          "indexed": false,
          "internalType": "uint256",
          "name": "votingPeriod",
          "type": "uint256"
        },
        {
          "indexed": false,
          "internalType": "uint256",
          "name": "startTime",
          "type": "uint256"
        },
        {
          "indexed": false,
          "internalType": "uint256",
          "name": "endTime",
          "type": "uint256"
        }
      ],
      "name": "ProposalCreated",
      "type": "event"
    },
    {
      "anonymous": false,
      "inputs": [
        {
          "indexed": true,
          "internalType": "string",
          "name": "hierarchicalId",
          "type": "string"
        },
        {
          "indexed": true,
          "internalType": "bytes8",
          "name": "organizationId",
          "type": "bytes8"
        },
        {
          "indexed": true,
          "internalType": "address",
          "name": "creator",
          "type": "address"
        },
        {
          "indexed": false,
          "internalType": "string",
          "name": "title",
          "type": "string"
        },
        {
          "indexed": false,
          "internalType": "enum ISignal.ProposalType",
          "name": "proposalType",
          "type": "uint8"
        },
        {
          "indexed": false,
          "internalType": "enum ISignal.VotingType",
          "name": "votingType",
          "type": "uint8"
        },
        {
          "indexed": false,
          "internalType": "uint256",
          "name": "votingPeriod",
          "type": "uint256"
        },
        {
          "indexed": false,
          "internalType": "uint256",
          "name": "startTime",
          "type": "uint256"
        },
        {
          "indexed": false,
          "internalType": "uint256",
          "name": "endTime",
          "type": "uint256"
        }
      ],
      "name": "ProposalCreatedHierarchical",
      "type": "event"
    },
    {
      "anonymous": false,
      "inputs": [
        {
          "indexed": true,
          "internalType": "string",
          "name": "hierarchicalId",
          "type": "string"
        },
        {
          "indexed": true,
          "internalType": "address",
          "name": "executor",
          "type": "address"
        },
        {
          "indexed": false,
          "internalType": "bool",
          "name": "success",
          "type": "bool"
        },
        {
          "indexed": false,
          "internalType": "bytes",
          "name": "returnData",
          "type": "bytes"
        }
      ],
      "name": "ProposalExecuted",
      "type": "event"
    },
    {
      "anonymous": false,
      "inputs": [
        {
          "indexed": true,
          "internalType": "string",
          "name": "hierarchicalId",
          "type": "string"
        },
        {
          "indexed": true,
          "internalType": "address",
          "name": "executor",
          "type": "address"
        },
        {
          "indexed": false,
          "internalType": "bool",
          "name": "success",
          "type": "bool"
        },
        {
          "indexed": false,
          "internalType": "bytes",
          "name": "returnData",
          "type": "bytes"
        }
      ],
      "name": "ProposalExecutedHierarchical",
      "type": "event"
    },
    {
      "anonymous": false,
      "inputs": [
        {
          "indexed": true,
          "internalType": "bytes32",
          "name": "role",
          "type": "bytes32"
        },
        {
          "indexed": true,
          "internalType": "bytes32",
          "name": "previousAdminRole",
          "type": "bytes32"
        },
        {
          "indexed": true,
          "internalType": "bytes32",
          "name": "newAdminRole",
          "type": "bytes32"
        }
      ],
      "name": "RoleAdminChanged",
      "type": "event"
    },
    {
      "anonymous": false,
      "inputs": [
        {
          "indexed": true,
          "internalType": "bytes32",
          "name": "role",
          "type": "bytes32"
        },
        {
          "indexed": true,
          "internalType": "address",
          "name": "account",
          "type": "address"
        },
        {
          "indexed": true,
          "internalType": "address",
          "name": "sender",
          "type": "address"
        }
      ],
      "name": "RoleGranted",
      "type": "event"
    },
    {
      "anonymous": false,
      "inputs": [
        {
          "indexed": true,
          "internalType": "bytes32",
          "name": "role",
          "type": "bytes32"
        },
        {
          "indexed": true,
          "internalType": "address",
          "name": "account",
          "type": "address"
        },
        {
          "indexed": true,
          "internalType": "address",
          "name": "sender",
          "type": "address"
        }
      ],
      "name": "RoleRevoked",
      "type": "event"
    },
    {
      "anonymous": false,
      "inputs": [
        {
          "indexed": false,
          "internalType": "address",
          "name": "account",
          "type": "address"
        }
      ],
      "name": "Unpaused",
      "type": "event"
    },
    {
      "anonymous": false,
      "inputs": [
        {
          "indexed": false,
          "internalType": "string",
          "name": "hierarchicalId",
          "type": "string"
        },
        {
          "indexed": true,
          "internalType": "address",
          "name": "voter",
          "type": "address"
        },
        {
          "indexed": false,
          "internalType": "enum ISignal.VoteChoice",
          "name": "choice",
          "type": "uint8"
        },
        {
          "indexed": false,
          "internalType": "uint256",
          "name": "votingPower",
          "type": "uint256"
        },
        {
          "indexed": false,
          "internalType": "string",
          "name": "reason",
          "type": "string"
        }
      ],
      "name": "VoteCast",
      "type": "event"
    },
    {
      "anonymous": false,
      "inputs": [
        {
          "indexed": true,
          "internalType": "string",
          "name": "hierarchicalId",
          "type": "string"
        },
        {
          "indexed": true,
          "internalType": "address",
          "name": "voter",
          "type": "address"
        },
        {
          "indexed": false,
          "internalType": "enum ISignal.VoteChoice",
          "name": "choice",
          "type": "uint8"
        },
        {
          "indexed": false,
          "internalType": "uint256",
          "name": "votingPower",
          "type": "uint256"
        },
        {
          "indexed": false,
          "internalType": "string",
          "name": "reason",
          "type": "string"
        }
      ],
      "name": "VoteCastHierarchical",
      "type": "event"
    },
    {
      "anonymous": false,
      "inputs": [
        {
          "indexed": true,
          "internalType": "bytes8",
          "name": "organizationId",
          "type": "bytes8"
        },
        {
          "components": [
            {
              "internalType": "uint256",
              "name": "votingDelay",
              "type": "uint256"
            },
            {
              "internalType": "uint256",
              "name": "votingPeriod",
              "type": "uint256"
            },
            {
              "internalType": "uint256",
              "name": "executionDelay",
              "type": "uint256"
            },
            {
              "internalType": "uint256",
              "name": "quorumThreshold",
              "type": "uint256"
            },
            {
              "internalType": "uint256",
              "name": "proposalThreshold",
              "type": "uint256"
            },
            {
              "internalType": "bool",
              "name": "requireMembership",
              "type": "bool"
            }
          ],
          "indexed": false,
          "internalType": "struct ISignal.VotingParameters",
          "name": "parameters",
          "type": "tuple"
        }
      ],
      "name": "VotingParametersUpdated",
      "type": "event"
    },
    {
      "anonymous": false,
      "inputs": [
        {
          "indexed": true,
          "internalType": "address",
          "name": "delegator",
          "type": "address"
        },
        {
          "indexed": true,
          "internalType": "address",
          "name": "delegatee",
          "type": "address"
        },
        {
          "indexed": false,
          "internalType": "uint256",
          "name": "amount",
          "type": "uint256"
        },
        {
          "indexed": false,
          "internalType": "uint256",
          "name": "timestamp",
          "type": "uint256"
        }
      ],
      "name": "VotingPowerDelegated",
      "type": "event"
    },
    {
      "anonymous": false,
      "inputs": [
        {
          "indexed": true,
          "internalType": "address",
          "name": "delegator",
          "type": "address"
        },
        {
          "indexed": true,
          "internalType": "address",
          "name": "delegatee",
          "type": "address"
        },
        {
          "indexed": false,
          "internalType": "uint256",
          "name": "amount",
          "type": "uint256"
        },
        {
          "indexed": false,
          "internalType": "uint256",
          "name": "timestamp",
          "type": "uint256"
        }
      ],
      "name": "VotingPowerUndelegated",
      "type": "event"
    },
    {
      "inputs": [],
      "name": "ADMIN_ROLE",
      "outputs": [
        {
          "internalType": "bytes32",
          "name": "",
          "type": "bytes32"
        }
      ],
      "stateMutability": "view",
      "type": "function"
    },
    {
      "inputs": [],
      "name": "BASIS_POINTS",
      "outputs": [
        {
          "internalType": "uint256",
          "name": "",
          "type": "uint256"
        }
      ],
      "stateMutability": "view",
      "type": "function"
    },
    {
      "inputs": [],
      "name": "DEFAULT_ADMIN_ROLE",
      "outputs": [
        {
          "internalType": "bytes32",
          "name": "",
          "type": "bytes32"
        }
      ],
      "stateMutability": "view",
      "type": "function"
    },
    {
      "inputs": [],
      "name": "EXECUTOR_ROLE",
      "outputs": [
        {
          "internalType": "bytes32",
          "name": "",
          "type": "bytes32"
        }
      ],
      "stateMutability": "view",
      "type": "function"
    },
    {
      "inputs": [],
      "name": "MAX_EXECUTION_DELAY",
      "outputs": [
        {
          "internalType": "uint256",
          "name": "",
          "type": "uint256"
        }
      ],
      "stateMutability": "view",
      "type": "function"
    },
    {
      "inputs": [],
      "name": "MAX_QUORUM_THRESHOLD",
      "outputs": [
        {
          "internalType": "uint256",
          "name": "",
          "type": "uint256"
        }
      ],
      "stateMutability": "view",
      "type": "function"
    },
    {
      "inputs": [],
      "name": "MAX_VOTING_PERIOD",
      "outputs": [
        {
          "internalType": "uint256",
          "name": "",
          "type": "uint256"
        }
      ],
      "stateMutability": "view",
      "type": "function"
    },
    {
      "inputs": [],
      "name": "MIN_VOTING_PERIOD",
      "outputs": [
        {
          "internalType": "uint256",
          "name": "",
          "type": "uint256"
        }
      ],
      "stateMutability": "view",
      "type": "function"
    },
    {
      "inputs": [],
      "name": "OPERATOR_ROLE",
      "outputs": [
        {
          "internalType": "bytes32",
          "name": "",
          "type": "bytes32"
        }
      ],
      "stateMutability": "view",
      "type": "function"
    },
    {
      "inputs": [],
      "name": "PROPOSAL_CREATOR_ROLE",
      "outputs": [
        {
          "internalType": "bytes32",
          "name": "",
          "type": "bytes32"
        }
      ],
      "stateMutability": "view",
      "type": "function"
    },
    {
      "inputs": [],
      "name": "SIGNAL_ADMIN_ROLE",
      "outputs": [
        {
          "internalType": "bytes32",
          "name": "",
          "type": "bytes32"
        }
      ],
      "stateMutability": "view",
      "type": "function"
    },
    {
      "inputs": [
        {
          "internalType": "string",
          "name": "hierarchicalId",
          "type": "string"
        },
        {
          "internalType": "address",
          "name": "voter",
          "type": "address"
        }
      ],
      "name": "applyConvictionDecay",
      "outputs": [],
      "stateMutability": "nonpayable",
      "type": "function"
    },
    {
      "inputs": [
        {
          "internalType": "uint256",
          "name": "convictionTime",
          "type": "uint256"
        }
      ],
      "name": "calculateConvictionMultiplier",
      "outputs": [
        {
          "internalType": "uint256",
          "name": "",
          "type": "uint256"
        }
      ],
      "stateMutability": "pure",
      "type": "function"
    },
    {
      "inputs": [
        {
          "internalType": "string",
          "name": "hierarchicalId",
          "type": "string"
        },
        {
          "internalType": "address",
          "name": "voter",
          "type": "address"
        },
        {
          "internalType": "enum ISignal.VotingPower",
          "name": "powerType",
          "type": "uint8"
        }
      ],
      "name": "calculateVotingPower",
      "outputs": [
        {
          "internalType": "uint256",
          "name": "",
          "type": "uint256"
        }
      ],
      "stateMutability": "view",
      "type": "function"
    },
    {
      "inputs": [
        {
          "internalType": "string",
          "name": "hierarchicalId",
          "type": "string"
        }
      ],
      "name": "canExecute",
      "outputs": [
        {
          "internalType": "bool",
          "name": "",
          "type": "bool"
        }
      ],
      "stateMutability": "view",
      "type": "function"
    },
    {
      "inputs": [
        {
          "internalType": "string",
          "name": "hierarchicalId",
          "type": "string"
        },
        {
          "internalType": "address",
          "name": "voter",
          "type": "address"
        }
      ],
      "name": "canVote",
      "outputs": [
        {
          "internalType": "bool",
          "name": "",
          "type": "bool"
        }
      ],
      "stateMutability": "view",
      "type": "function"
    },
    {
      "inputs": [
        {
          "internalType": "string",
          "name": "hierarchicalId",
          "type": "string"
        },
        {
          "internalType": "string",
          "name": "reason",
          "type": "string"
        }
      ],
      "name": "cancelProposal",
      "outputs": [],
      "stateMutability": "nonpayable",
      "type": "function"
    },
    {
      "inputs": [
        {
          "internalType": "string",
          "name": "hierarchicalId",
          "type": "string"
        },
        {
          "internalType": "enum ISignal.VoteChoice",
          "name": "choice",
          "type": "uint8"
        },
        {
          "internalType": "string",
          "name": "reason",
          "type": "string"
        }
      ],
      "name": "castVote",
      "outputs": [],
      "stateMutability": "nonpayable",
      "type": "function"
    },
    {
      "inputs": [
        {
          "internalType": "string",
          "name": "hierarchicalId",
          "type": "string"
        },
        {
          "internalType": "enum ISignal.VoteChoice",
          "name": "choice",
          "type": "uint8"
        },
        {
          "internalType": "uint256",
          "name": "convictionTime",
          "type": "uint256"
        },
        {
          "internalType": "string",
          "name": "reason",
          "type": "string"
        }
      ],
      "name": "castVoteWithConviction",
      "outputs": [],
      "stateMutability": "nonpayable",
      "type": "function"
    },
    {
      "inputs": [
        {
          "internalType": "bytes8",
          "name": "organizationId",
          "type": "bytes8"
        },
        {
          "internalType": "string",
          "name": "title",
          "type": "string"
        },
        {
          "internalType": "string",
          "name": "description",
          "type": "string"
        },
        {
          "internalType": "string",
          "name": "metadataURI",
          "type": "string"
        },
        {
          "internalType": "enum ISignal.ProposalType",
          "name": "proposalType",
          "type": "uint8"
        },
        {
          "internalType": "enum ISignal.VotingType",
          "name": "votingType",
          "type": "uint8"
        },
        {
          "internalType": "enum ISignal.VotingPower",
          "name": "votingPower",
          "type": "uint8"
        },
        {
          "internalType": "uint256",
          "name": "votingPeriod",
          "type": "uint256"
        },
        {
          "internalType": "bytes",
          "name": "executionData",
          "type": "bytes"
        },
        {
          "internalType": "address",
          "name": "targetContract",
          "type": "address"
        }
      ],
      "name": "createProposal",
      "outputs": [
        {
          "internalType": "string",
          "name": "hierarchicalId",
          "type": "string"
        }
      ],
      "stateMutability": "nonpayable",
      "type": "function"
    },
    {
      "inputs": [
        {
          "internalType": "address",
          "name": "delegatee",
          "type": "address"
        },
        {
          "internalType": "uint256",
          "name": "amount",
          "type": "uint256"
        }
      ],
      "name": "delegateVotingPower",
      "outputs": [],
      "stateMutability": "nonpayable",
      "type": "function"
    },
    {
      "inputs": [],
      "name": "emergencyPause",
      "outputs": [],
      "stateMutability": "nonpayable",
      "type": "function"
    },
    {
      "inputs": [],
      "name": "emergencyUnpause",
      "outputs": [],
      "stateMutability": "nonpayable",
      "type": "function"
    },
    {
      "inputs": [
        {
          "internalType": "string",
          "name": "hierarchicalId",
          "type": "string"
        }
      ],
      "name": "executeProposal",
      "outputs": [
        {
          "internalType": "bool",
          "name": "success",
          "type": "bool"
        },
        {
          "internalType": "bytes",
          "name": "returnData",
          "type": "bytes"
        }
      ],
      "stateMutability": "nonpayable",
      "type": "function"
    },
    {
      "inputs": [
        {
          "internalType": "address",
          "name": "delegator",
          "type": "address"
        }
      ],
      "name": "getDelegatedVotingPower",
      "outputs": [
        {
          "internalType": "uint256",
          "name": "",
          "type": "uint256"
        }
      ],
      "stateMutability": "view",
      "type": "function"
    },
    {
      "inputs": [
        {
          "internalType": "address",
          "name": "delegator",
          "type": "address"
        }
      ],
      "name": "getDelegations",
      "outputs": [
        {
          "components": [
            {
              "internalType": "address",
              "name": "delegatee",
              "type": "address"
            },
            {
              "internalType": "uint256",
              "name": "amount",
              "type": "uint256"
            },
            {
              "internalType": "uint256",
              "name": "timestamp",
              "type": "uint256"
            },
            {
              "internalType": "bool",
              "name": "active",
              "type": "bool"
            }
          ],
          "internalType": "struct ISignal.Delegation[]",
          "name": "",
          "type": "tuple[]"
        }
      ],
      "stateMutability": "view",
      "type": "function"
    },
    {
      "inputs": [
        {
          "internalType": "bytes8",
          "name": "organizationId",
          "type": "bytes8"
        }
      ],
      "name": "getOrganizationProposals",
      "outputs": [
        {
          "internalType": "bytes32[]",
          "name": "",
          "type": "bytes32[]"
        }
      ],
      "stateMutability": "view",
      "type": "function"
    },
    {
      "inputs": [
        {
          "internalType": "string",
          "name": "hierarchicalId",
          "type": "string"
        }
      ],
      "name": "getProposal",
      "outputs": [
        {
          "components": [
            {
              "internalType": "string",
              "name": "hierarchicalId",
              "type": "string"
            },
            {
              "internalType": "bytes8",
              "name": "organizationId",
              "type": "bytes8"
            },
            {
              "internalType": "address",
              "name": "creator",
              "type": "address"
            },
            {
              "internalType": "string",
              "name": "title",
              "type": "string"
            },
            {
              "internalType": "string",
              "name": "description",
              "type": "string"
            },
            {
              "internalType": "string",
              "name": "metadataURI",
              "type": "string"
            },
            {
              "internalType": "enum ISignal.ProposalType",
              "name": "proposalType",
              "type": "uint8"
            },
            {
              "internalType": "enum ISignal.VotingType",
              "name": "votingType",
              "type": "uint8"
            },
            {
              "internalType": "enum ISignal.VotingPower",
              "name": "votingPower",
              "type": "uint8"
            },
            {
              "internalType": "enum ISignal.ProposalState",
              "name": "state",
              "type": "uint8"
            },
            {
              "internalType": "uint256",
              "name": "startTime",
              "type": "uint256"
            },
            {
              "internalType": "uint256",
              "name": "endTime",
              "type": "uint256"
            },
            {
              "internalType": "uint256",
              "name": "executionTime",
              "type": "uint256"
            },
            {
              "internalType": "uint256",
              "name": "forVotes",
              "type": "uint256"
            },
            {
              "internalType": "uint256",
              "name": "againstVotes",
              "type": "uint256"
            },
            {
              "internalType": "uint256",
              "name": "abstainVotes",
              "type": "uint256"
            },
            {
              "internalType": "bytes",
              "name": "executionData",
              "type": "bytes"
            },
            {
              "internalType": "address",
              "name": "targetContract",
              "type": "address"
            },
            {
              "internalType": "address",
              "name": "executor",
              "type": "address"
            },
            {
              "internalType": "uint256",
              "name": "createdAt",
              "type": "uint256"
            },
            {
              "internalType": "uint256",
              "name": "executedAt",
              "type": "uint256"
            }
          ],
          "internalType": "struct ISignal.Proposal",
          "name": "",
          "type": "tuple"
        }
      ],
      "stateMutability": "view",
      "type": "function"
    },
    {
      "inputs": [
        {
          "internalType": "enum ISignal.ProposalState",
          "name": "state",
          "type": "uint8"
        }
      ],
      "name": "getProposalsByState",
      "outputs": [
        {
          "internalType": "bytes32[]",
          "name": "",
          "type": "bytes32[]"
        }
      ],
      "stateMutability": "view",
      "type": "function"
    },
    {
      "inputs": [
        {
          "internalType": "bytes32",
          "name": "role",
          "type": "bytes32"
        }
      ],
      "name": "getRoleAdmin",
      "outputs": [
        {
          "internalType": "bytes32",
          "name": "",
          "type": "bytes32"
        }
      ],
      "stateMutability": "view",
      "type": "function"
    },
    {
      "inputs": [
        {
          "internalType": "string",
          "name": "hierarchicalId",
          "type": "string"
        },
        {
          "internalType": "address",
          "name": "voter",
          "type": "address"
        }
      ],
      "name": "getVote",
      "outputs": [
        {
          "components": [
            {
              "internalType": "address",
              "name": "voter",
              "type": "address"
            },
            {
              "internalType": "enum ISignal.VoteChoice",
              "name": "choice",
              "type": "uint8"
            },
            {
              "internalType": "uint256",
              "name": "votingPower",
              "type": "uint256"
            },
            {
              "internalType": "uint256",
              "name": "timestamp",
              "type": "uint256"
            },
            {
              "internalType": "string",
              "name": "reason",
              "type": "string"
            },
            {
              "internalType": "bool",
              "name": "hasVoted",
              "type": "bool"
            },
            {
              "internalType": "uint256",
              "name": "convictionTime",
              "type": "uint256"
            },
            {
              "internalType": "uint256",
              "name": "convictionMultiplier",
              "type": "uint256"
            }
          ],
          "internalType": "struct ISignal.Vote",
          "name": "",
          "type": "tuple"
        }
      ],
      "stateMutability": "view",
      "type": "function"
    },
    {
      "inputs": [
        {
          "internalType": "bytes8",
          "name": "organizationId",
          "type": "bytes8"
        }
      ],
      "name": "getVotingParameters",
      "outputs": [
        {
          "components": [
            {
              "internalType": "uint256",
              "name": "votingDelay",
              "type": "uint256"
            },
            {
              "internalType": "uint256",
              "name": "votingPeriod",
              "type": "uint256"
            },
            {
              "internalType": "uint256",
              "name": "executionDelay",
              "type": "uint256"
            },
            {
              "internalType": "uint256",
              "name": "quorumThreshold",
              "type": "uint256"
            },
            {
              "internalType": "uint256",
              "name": "proposalThreshold",
              "type": "uint256"
            },
            {
              "internalType": "bool",
              "name": "requireMembership",
              "type": "bool"
            }
          ],
          "internalType": "struct ISignal.VotingParameters",
          "name": "",
          "type": "tuple"
        }
      ],
      "stateMutability": "view",
      "type": "function"
    },
    {
      "inputs": [
        {
          "internalType": "bytes8",
          "name": "organizationId",
          "type": "bytes8"
        },
        {
          "internalType": "address",
          "name": "account",
          "type": "address"
        },
        {
          "internalType": "enum ISignal.VotingPower",
          "name": "votingPowerType",
          "type": "uint8"
        }
      ],
      "name": "getVotingPowerWithDelegation",
      "outputs": [
        {
          "internalType": "uint256",
          "name": "",
          "type": "uint256"
        }
      ],
      "stateMutability": "view",
      "type": "function"
    },
    {
      "inputs": [
        {
          "internalType": "bytes32",
          "name": "role",
          "type": "bytes32"
        },
        {
          "internalType": "address",
          "name": "account",
          "type": "address"
        }
      ],
      "name": "grantRole",
      "outputs": [],
      "stateMutability": "nonpayable",
      "type": "function"
    },
    {
      "inputs": [
        {
          "internalType": "bytes32",
          "name": "role",
          "type": "bytes32"
        },
        {
          "internalType": "address",
          "name": "account",
          "type": "address"
        }
      ],
      "name": "hasRole",
      "outputs": [
        {
          "internalType": "bool",
          "name": "",
          "type": "bool"
        }
      ],
      "stateMutability": "view",
      "type": "function"
    },
    {
      "inputs": [
        {
          "internalType": "address",
          "name": "registryAddress",
          "type": "address"
        }
      ],
      "name": "initialize",
      "outputs": [],
      "stateMutability": "nonpayable",
      "type": "function"
    },
    {
      "inputs": [],
      "name": "isInitialized",
      "outputs": [
        {
          "internalType": "bool",
          "name": "",
          "type": "bool"
        }
      ],
      "stateMutability": "view",
      "type": "function"
    },
    {
      "inputs": [],
      "name": "moduleId",
      "outputs": [
        {
          "internalType": "bytes32",
          "name": "",
          "type": "bytes32"
        }
      ],
      "stateMutability": "pure",
      "type": "function"
    },
    {
      "inputs": [],
      "name": "onModuleDisabled",
      "outputs": [],
      "stateMutability": "nonpayable",
      "type": "function"
    },
    {
      "inputs": [],
      "name": "onModuleEnabled",
      "outputs": [],
      "stateMutability": "nonpayable",
      "type": "function"
    },
    {
      "inputs": [],
      "name": "pause",
      "outputs": [],
      "stateMutability": "nonpayable",
      "type": "function"
    },
    {
      "inputs": [],
      "name": "paused",
      "outputs": [
        {
          "internalType": "bool",
          "name": "",
          "type": "bool"
        }
      ],
      "stateMutability": "view",
      "type": "function"
    },
    {
      "inputs": [],
      "name": "registry",
      "outputs": [
        {
          "internalType": "address",
          "name": "",
          "type": "address"
        }
      ],
      "stateMutability": "view",
      "type": "function"
    },
    {
      "inputs": [
        {
          "internalType": "bytes32",
          "name": "role",
          "type": "bytes32"
        },
        {
          "internalType": "address",
          "name": "account",
          "type": "address"
        }
      ],
      "name": "renounceRole",
      "outputs": [],
      "stateMutability": "nonpayable",
      "type": "function"
    },
    {
      "inputs": [
        {
          "internalType": "bytes32",
          "name": "role",
          "type": "bytes32"
        },
        {
          "internalType": "address",
          "name": "account",
          "type": "address"
        }
      ],
      "name": "revokeRole",
      "outputs": [],
      "stateMutability": "nonpayable",
      "type": "function"
    },
    {
      "inputs": [
        {
          "internalType": "bytes8",
          "name": "organizationId",
          "type": "bytes8"
        },
        {
          "components": [
            {
              "internalType": "uint256",
              "name": "votingDelay",
              "type": "uint256"
            },
            {
              "internalType": "uint256",
              "name": "votingPeriod",
              "type": "uint256"
            },
            {
              "internalType": "uint256",
              "name": "executionDelay",
              "type": "uint256"
            },
            {
              "internalType": "uint256",
              "name": "quorumThreshold",
              "type": "uint256"
            },
            {
              "internalType": "uint256",
              "name": "proposalThreshold",
              "type": "uint256"
            },
            {
              "internalType": "bool",
              "name": "requireMembership",
              "type": "bool"
            }
          ],
          "internalType": "struct ISignal.VotingParameters",
          "name": "params",
          "type": "tuple"
        }
      ],
      "name": "setVotingParameters",
      "outputs": [],
      "stateMutability": "nonpayable",
      "type": "function"
    },
    {
      "inputs": [
        {
          "internalType": "bytes4",
          "name": "interfaceId",
          "type": "bytes4"
        }
      ],
      "name": "supportsInterface",
      "outputs": [
        {
          "internalType": "bool",
          "name": "",
          "type": "bool"
        }
      ],
      "stateMutability": "view",
      "type": "function"
    },
    {
      "inputs": [
        {
          "internalType": "address",
          "name": "delegatee",
          "type": "address"
        },
        {
          "internalType": "uint256",
          "name": "amount",
          "type": "uint256"
        }
      ],
      "name": "undelegateVotingPower",
      "outputs": [],
      "stateMutability": "nonpayable",
      "type": "function"
    },
    {
      "inputs": [],
      "name": "unpause",
      "outputs": [],
      "stateMutability": "nonpayable",
      "type": "function"
    },
    {
      "inputs": [],
      "name": "version",
      "outputs": [
        {
          "internalType": "string",
          "name": "",
          "type": "string"
        }
      ],
      "stateMutability": "view",
      "type": "function"
    }
  ],
  "bytecode": "0x608034620003b1576040906001600160401b0381830181811183821017620002d0578352600582526020809201640312e302e360dc1b815260ff1991600191838354168355826002556004548381811c91168015620003a6575b868210146200039057601f81116200035e575b50516001600160d81b031916600a17600455600080805280855285812033825285528590205460ff161562000323575b7fa49807205ce4d355092ef5a8a18f56e8913cf4a201fbe287825b095693c2177580600052600085528560002033600052855260ff86600020541615620002e6575b5084519060c0820190811182821017620002d05785526201518080825262093a8080868401526202a3009182888501528460a06103e8958660608201526064608082015201526014556015556016556017556064601855808260195416176019557f14684b861e7ed8196bfd1e75a427098261dc7f825334a81d48ec74d12ef80dfe80600052600084528460002033600052845260ff8560002054161562000293575b507f8a21e8fdae6c23863f7de5307e2e7162c88dab602a41610addb5f1505d25939880600052600084528460002033600052845260ff8560002054161562000256575b507fd8aa0f3194971a2a116679f7c2090f6939c8d4e01a2a8d7e41d55e5351469e639283600052600081528460002033600052815260ff8560002054161562000217575b8451614e5d9081620003b78239f35b83600052600081528460002090336000525283600020918254161790553390339060008051602062005214833981519152600080a43880808062000208565b8060005260008452846000203360005284528460002082848254161790553390339060008051602062005214833981519152600080a438620001c4565b8060005260008452846000203360005284528460002082848254161790553390339060008051602062005214833981519152600080a43862000181565b634e487b7160e01b600052604160045260246000fd5b8060005260008552856000203360005285528560002083858254161790553390339060008051602062005214833981519152600080a438620000de565b60008052600084528460002033600052845284600020828482541617905533336000600080516020620052148339815191528180a46200009c565b600460005283601f87600020920160051c8201915b828110620003835750506200006c565b6000815501849062000373565b634e487b7160e01b600052602260045260246000fd5b90607f169062000059565b600080fdfe608080604052600436101561001357600080fd5b60003560e01c908162122121146136de5750806301ffc9a71461363d57806307bd026514613602578063127ec2831461036957806315b3958e146135c757806316495f0e1461358c578063215809ca1461356f578063248a9ca31461354057806325d3a09d146132885780632cfe27f014612f355780632d47f9f814612e855780632f2ff15d14612dd157806331cc13ba14612cb357806336568abe14612c14578063389e29f2146126f6578063392e53cd146126d05780633f4ba83a1461266a5780634a4e3bd5146125b857806351858e271461258157806354fd4d501461249f5780635c975abb1461247c5780636da25a541461244257806375251dd51461226e57806375b238fc14612233578063762d9f8b1461200a5780637b10399914611fe35780637bc8450f14611fc55780637c28b9be14611f8a5780638456cb5914611f2357806391d1485414611ed5578063966d3dc714611eb25780639b4326fb14611d40578063a1308f2714611d05578063a217fddf14611ce9578063a2bcdc0f14611702578063a64e024a14611345578063a845a05b146116a9578063aa7318aa14611653578063acfa0b94146115ea578063b502f55414611387578063bacc13231461134a578063bc03d28014611345578063c25ec94714611320578063c4d66de814610edb578063d547741f14610e9a578063d8ec13861461036e578063e1f1c4a714610369578063ebf8a3e6146102bf578063f2bd42be146102845763f5b541a61461024457600080fd5b3461027f57600036600319011261027f5760206040517f97667070c54ef182b0f5858b034beac1b6f3089aa2d3188bb1e8929f4fa9b9298152f35b600080fd5b3461027f57600036600319011261027f5760206040517f14684b861e7ed8196bfd1e75a427098261dc7f825334a81d48ec74d12ef80dfe8152f35b3461027f57600036600319011261027f576003546001600160a01b038116330361033f5760a01c60ff1615610315577fa866f3901ec84758a10f30e8953c3818eef73da93dfa46cb6aa5b726fb65813f600080a1005b60046040517fc597dba4000000000000000000000000000000000000000000000000000000008152fd5b60046040517f87aa01c8000000000000000000000000000000000000000000000000000000008152fd5b613910565b3461027f5761014036600319011261027f57610388613849565b60243567ffffffffffffffff811161027f576103a8903690600401613980565b9060443567ffffffffffffffff811161027f576103c9903690600401613980565b9060643567ffffffffffffffff811161027f576103ea903690600401613980565b916005608435101561027f57600460a435101561027f57600360c435101561027f576101043567ffffffffffffffff811161027f573660238201121561027f5761043e903690602481600401359101613949565b93610124356001600160a01b038116810361027f5760ff60035460a01c1615610315576104696140c7565b6104716141ea565b602460206001600160a01b03610485614a12565b16604051928380927fb4ae840f0000000000000000000000000000000000000000000000000000000082526001600160c01b03198a1660048301525afa908115610e3457600091610e7b575b5015610e40576104e0846146a5565b60a0810151151580610dad575b610d8157610e1060e435108015610d73575b610d41576001600160c01b03198516600052600d602052604060002095610526875461414e565b80975560405196610536886138d2565b600888527f70726f706f73616c00000000000000000000000000000000000000000000000060208901526040519760005b60088110610d2c5750506028880152426048880152446068880152606887528660a081011067ffffffffffffffff60a089011117610b245760a087016040819052875160208901206001600160c01b031988811660c08b01527f2d502d000000000000000000000000000000000000000000000000000000000060c88b01521660cb890152601381526105f9906138d2565b60405160208160c06106148b8360a08201519384920161399e565b810160058152030190209460a088015167ffffffffffffffff8111610b2457610647816106418954613ff7565b8961415d565b806020601f8211600114610cbc57600091610cae575b508160011b916000199060031b1c19161786555b6001860180547fffffffff000000000000000000000000000000000000000000000000000000001660c089901c173360401b7bffffffffffffffffffffffffffffffffffffffff000000000000000016179055845167ffffffffffffffff8111610b24576106ef816106e660028a0154613ff7565b60028a0161415d565b806020601f8211600114610c4157600091610c36575b508160011b916000199060031b1c19161760028701555b80519067ffffffffffffffff8211610b2457819061074a8261074160038b0154613ff7565b60038b0161415d565b602090601f8311600114610bc457600092610bb9575b50508160011b916000199060031b1c19161760038601555b80519067ffffffffffffffff8211610b24576107a48261079b6004890154613ff7565b6004890161415d565b602090601f8311600114610b455761084093929160009183610b3a575b50508160011b916000199060031b1c19161760048601555b6005850180546107ea60a4356139f3565b60ff608435169063ffffffff19161761ff0060a43560081b161762ff000060c43560101b161790556040610831610822835142613eb4565b80600689015560e43590613eb4565b91826007880155015190613eb4565b6008840155855167ffffffffffffffff8111610b245761087081610867600c870154613ff7565b600c870161415d565b6020601f8211600114610a8f5790807f0b834a65e1f466a7c1af96d775e10af10230d4e28e6855597bebdc9c068affb3949392610a8099600092610a84575b50508160011b916000199060031b1c191617600c8501555b6001600160a01b03600d8501911673ffffffffffffffffffffffffffffffffffffffff1982541617905542600f84015561095f60a086015160c08701206001600160c01b0319861660005260086020526109258160406000206142f2565b50600080526009602052610959817fec8156718a8372b1db44bb411437d0870f3e3790d4a08526d024ce1b0b668f6b6142f2565b50614255565b506007600684015493015461097660a087016141ca565b6040519060c0825261098b60c08301856139c1565b9061099b602084016084356139e6565b6109a660a4356139f3565b60a435604084015260e43560608401528660808401528360a08401527fb291fcdfd9c269dcda94a1367b4b3e06e3b52a2314e313ee6b2329cc453766923393806001600160c01b03198b16940390a4610a1e6040519260e08452610a1060e0850160a08a016139c1565b9084820360208601526139c1565b93610a2e604084016084356139e6565b610a3960a4356139f3565b60a435606084015260e435608084015260a083015260c0820152806001600160c01b0319339516930390a360016002556040519182916020835260a06020840191016139c1565b0390f35b0151905089806108af565b600c850160005260206000209760005b601f1984168110610b0c575091610a80986001927f0b834a65e1f466a7c1af96d775e10af10230d4e28e6855597bebdc9c068affb396959483601f19811610610af3575b505050811b01600c8501556108c7565b015160001960f88460031b161c19169055898080610ae3565b828201518a5560019099019860209283019201610a9f565b634e487b7160e01b600052604160045260246000fd5b015190508a806107c1565b906004870160005260206000209160005b601f1985168110610ba157509183916001936108409695601f19811610610b88575b505050811b0160048601556107d9565b015160001960f88460031b161c191690558a8080610b78565b91926020600181928685015181550194019201610b56565b015190508a80610760565b9250600388016000526020600020906000935b601f1984168510610c1b576001945083601f19811610610c02575b505050811b016003860155610778565b015160001960f88460031b161c191690558a8080610bf2565b81810151835560209485019460019093019290910190610bd7565b90508601518b610705565b91506002880160005260206000206000925b601f1983168410610c96576001935082601f19811610610c7d575b5050811b01600287015561071c565b88015160001960f88460031b161c191690558b80610c6e565b88810151825560209384019360019092019101610c53565b60a091508a0101518b61065d565b91508760005260206000206000925b8b601f1984168510610d1157506001935082601f19811610610cf4575b5050811b018655610671565b8b0160a00151600019600384901b60f8161c191690558b80610ce8565b810160a0015182556020938401936001929092019101610ccb565b80602080928401015182828d01015201610567565b60246040517f0ef240fe00000000000000000000000000000000000000000000000000000000815260e4356004820152fd5b5062278d0060e435116104ff565b60405163770185ed60e01b81526001600160c01b031986166004820152336024820152604490fd5b0390fd5b506001600160a01b03610dbe614a12565b6040516309403b6f60e31b81526001600160c01b0319881660048201523360248201529160209183916044918391165afa908115610e3457600091610e05575b50156104ed565b610e27915060203d602011610e2d575b610e1f81836138ee565b810190614136565b88610dfe565b503d610e15565b6040513d6000823e3d90fd5b6024846001600160c01b0319604051917f9fbb6dba000000000000000000000000000000000000000000000000000000008352166004820152fd5b610e94915060203d602011610e2d57610e1f81836138ee565b876104d1565b3461027f57604036600319011261027f57610ed9600435610eb9613a16565b90806000526000602052610ed4600160406000200154613d06565b613e16565b005b3461027f5760208060031936011261027f57610ef5613a2c565b906003549160ff91828460a01c166112f6576001600160a01b038092169384156112cc578474ffffffffffffffffffffffffffffffffffffffffff1974010000000000000000000000000000000000000000921617176003557fa49807205ce4d355092ef5a8a18f56e8913cf4a201fbe287825b095693c217758060005260008252604060002085600052825283604060002054161561127b575b507f97667070c54ef182b0f5858b034beac1b6f3089aa2d3188bb1e8929f4fa9b9298060005260008252604060002085600052825283604060002054161561122a575b50604051917f7b1039990000000000000000000000000000000000000000000000000000000083528183600481305afa928315610e34576000936111fb575b507f14684b861e7ed8196bfd1e75a427098261dc7f825334a81d48ec74d12ef80dfe90816000526000835260406000209316928360005282528360406000205416156111aa575b507f8a21e8fdae6c23863f7de5307e2e7162c88dab602a41610addb5f1505d25939880600052600082526040600020836000528252836040600020541615611159575b507fd8aa0f3194971a2a116679f7c2090f6939c8d4e01a2a8d7e41d55e5351469e6392836000526000825260406000208360005282526040600020541615611107575b837f27b541a16df0902e262f34789782092ab25125513b8ed73608e802951771b928600080a2005b826000526000815260406000209082600052526040600020600160ff1982541617905533917f2f8788117e7eff1d82e926ec794901d17c78024a50270940304540a733656f0d600080a48180806110df565b806000526000825260406000208360005282526040600020600160ff198254161790558233917f2f8788117e7eff1d82e926ec794901d17c78024a50270940304540a733656f0d600080a48461109c565b806000526000825260406000208360005282526040600020600160ff198254161790558233917f2f8788117e7eff1d82e926ec794901d17c78024a50270940304540a733656f0d600080a484611059565b61121c919350823d8411611223575b61121481836138ee565b810190614117565b9185611012565b503d61120a565b806000526000825260406000208560005282526040600020600160ff198254161790558433917f2f8788117e7eff1d82e926ec794901d17c78024a50270940304540a733656f0d600080a484610fd3565b806000526000825260406000208560005282526040600020600160ff198254161790558433917f2f8788117e7eff1d82e926ec794901d17c78024a50270940304540a733656f0d600080a484610f90565b60046040517f7bfd2e83000000000000000000000000000000000000000000000000000000008152fd5b60046040517fe72ce85e000000000000000000000000000000000000000000000000000000008152fd5b3461027f5761132e36613a7d565b60ff60035460a01c161561031557610ed991614b0a565b613abf565b3461027f57602036600319011261027f57600435600681101561027f5761137b611376610a80926141b1565b614622565b60405191829182613a42565b3461027f57604036600319011261027f576113a0613a2c565b6024359060ff90600382815460a01c1615610315578333600052602092600b84526040600020956001600160a01b03918281169788600052865281604060002054106115a8575033600052600b85526040600020876000528552604060002061140a8282546143a3565b905533600052600f855261142460406000209182546143a3565b905560005b33600052600e808652876040600020805484101561159b5761144c848692614aaf565b505416148061157a575b61146a575b506114659061414e565b611429565b909233600052818652611481846040600020614aaf565b50600190810154821061154d576114cf9233600052808852866114a8876040600020614aaf565b500160ff1981541690553360005287526114c6856040600020614aaf565b500154906143a3565b915b82156114dd578761145b565b50509250505b33600052600b8152604060002083600052815260406000205415611535575b60405191825242908201527fa4a5a3554ccf1a9531c27b469cd495bd2d61b6da23637fe39c7ed3d90c9a013260403392a3005b600c81526115473360406000206143b0565b50611502565b6115709192336000528752611566856040600020614aaf565b50019182546143a3565b90556000916114d1565b50336000528086528685611592846040600020614aaf565b50015416611456565b50505050509250506114e3565b6040517f241e33fc0000000000000000000000000000000000000000000000000000000081523360048201526001600160a01b03919091166024820152604490fd5b3461027f57602036600319011261027f5760c0611616611608613849565b611610614673565b506146a5565b60a06040519180518352602081015160208401526040810151604084015260608101516060840152608081015160808401520151151560a0820152f35b3461027f57600036600319011261027f576003546001600160a01b038116330361033f5760a01c60ff1615610315577f6dff2fe8fbb5b23bf0583bf5b2157ff62ca7e27f2fb4f404914cd0c205ced5cc600080a1005b3461027f57606036600319011261027f5760043567ffffffffffffffff811161027f576116da903690600401613980565b6116e2613a16565b906003604435101561027f576020916116fa91614de0565b604051908152f35b3461027f57606036600319011261027f5760043567ffffffffffffffff811161027f57611733903690600401613980565b6004602435101561027f5760443567ffffffffffffffff811161027f5761175e903690600401613980565b9060ff60035460a01c1615610315576117756140c7565b61177d6141ea565b6040516020818351611792818385880161399e565b81016005815203019020600181016001600160a01b03815460401c1615611cc7576117bc83614759565b60ff600583015460181c166006811015611cb157600103611c765760405160208185516117ec8183858a0161399e565b810160068152030190203360005260205260ff60046040600020015416611c41576118186024356139f3565b60243515611c065761182f9054339060c01b61497d565b908115611bc857604051611842816138b5565b3381526118506024356139f3565b6024356020820152826040820152426060820152846080820152600160a0820152600060c0820152600160e082015260405160208186516118948183858b0161399e565b81016006815203019020336000526020526040600020906001600160a01b0381511682549074ffffffffffffffffffffffffffffffffffffffffff1960ff60a01b60208501516118e3816139f3565b6118ec816139f3565b60a01b169216171782556040810151600183015560608101516002830155608081015180519067ffffffffffffffff8211610b245761193b826119326003870154613ff7565b6003870161415d565b602090601f8311600114611b285760e0611a8f9794847fe57242758a93b8a807e382015be1d28c6734011c0bf1a547f7f78c652accbee09a9895611ab79895600695600092611b1d575b50508160011b916000199060031b1c19161760038501555b6119bc60a08201511515600486019060ff801983541691151516179055565b60c0810151600585015501519101556119d66024356139f3565b602435600203611ac1576009016119ee828254613eb4565b90555b611a1c6040518451611a0781836020890161399e565b810190600782526020813393030190206142f2565b50611a26836141ca565b60405190611a356024356139f3565b6024358252826020830152606060408301527fb34ff3baec8e10f5bb8e345d0d1b8546d62818721ef9c2db9980f7d669b22cb2339280611a78606082018c6139c1565b0390a36040519384936080855260808501906139c1565b90611a9b6024356139f3565b60243560208501526040840152828103606084015233956139c1565b0390a26001600255005b611acc6024356139f3565b602435600103611aeb57600a01611ae4828254613eb4565b90556119f1565b611af66024356139f3565b600360243514611b07575b506119f1565b600b01611b15828254613eb4565b905586611b01565b015190508d80611985565b906003850160005260206000209160005b601f1985168110611bb05750611a8f9794600185611ab7989560069560e0957fe57242758a93b8a807e382015be1d28c6734011c0bf1a547f7f78c652accbee09e9c99601f19811610611b97575b505050811b01600385015561199d565b015160001960f88460031b161c191690558d8080611b87565b91926020600181928685015181550194019201611b39565b60646040517f09e915af0000000000000000000000000000000000000000000000000000000081523360048201526001602482015260006044820152fd5b60246040517f63064c40000000000000000000000000000000000000000000000000000000008152611c3882356139f3565b81356004820152fd5b6040517f9214b07500000000000000000000000000000000000000000000000000000000815280610da933866004840161437c565b6040517ffa37f0730000000000000000000000000000000000000000000000000000000081526020600482015280610da960248201866139c1565b634e487b7160e01b600052602160045260246000fd5b6040516382384e3160e01b81526020600482015280610da960248201866139c1565b3461027f57600036600319011261027f57602060405160008152f35b3461027f57600036600319011261027f5760206040517f60b4c21d70ead12825359faa918a75b0f6aec1173d8f83736a228003bb90f01c8152f35b3461027f57611da660e0611d5336613a7d565b929060405190611d62826138b5565b60008252600060209483828780960152826040820152826060820152606060808201528260a08201528260c08201520152816040519382858094519384920161399e565b810160068152030190206001600160a01b03809316600052815260406000209060405191611dd3836138b5565b60ff8154858116855260a01c169180840192611dee816139f3565b835260018201546040850190815260028301546060860190815260405191611e2483611e1d8160038901614031565b03846138ee565b6080870192835260ff6004860154169560a088019615158752600660058701549660c08a0197885201549460e08901958652604051998a99828b5251169089015251611e6f816139f3565b60408801525160608701525160808601525191611e9a610100938460a08801526101208701906139c1565b9351151560c08601525160e085015251908301520390f35b3461027f576020611ecb611ec536613a7d565b90614cd0565b6040519015158152f35b3461027f57604036600319011261027f57611eee613a16565b60043560005260006020526001600160a01b0360406000209116600052602052602060ff604060002054166040519015158152f35b3461027f57600036600319011261027f57611f3c613add565b60ff60035460a01c161561031557611f526140c7565b600160ff19815416176001557f62e78cea01bee320cd4e420270b5ea74000d11b0c9f74754ebdbfc544b05a2586020604051338152a1005b3461027f57602036600319011261027f576001600160c01b0319611fac613849565b166000526008602052610a8061137b6040600020614622565b3461027f57602036600319011261027f5760206116fa600435614acb565b3461027f57600036600319011261027f5760206001600160a01b0360035416604051908152f35b3461027f57604036600319011261027f5767ffffffffffffffff60043581811161027f5761203c903690600401613980565b9060243590811161027f57612055903690600401613980565b60ff60035460a01c16156103155761206b6140c7565b6120736141ea565b60405191805160209384818185019361208d81838761399e565b810160058152030190206001600160a01b03600182015460401c16801561221157331415806121ce575b612199576005019060ff825460181c16906006821015611cb1578115158061218e575b61216c579261214861211e6121629461212361214e957f8dbd1fa6baf50d3836fc5e7f202ac3db85ba86b145e4cc3fbc787a15c913ae4c98865190209384916141b1565b6143b0565b50630500000063ff0000001982541617905560056000526009885260406000206142f2565b506141ca565b9260405191829186835233968301906139c1565b0390a36001600255005b60405163afeab32960e01b81526004810187905280610da960248201876139c1565b5060018214156120da565b6040517fb64839ed00000000000000000000000000000000000000000000000000000000815280610da933866004840161437c565b507f14684b861e7ed8196bfd1e75a427098261dc7f825334a81d48ec74d12ef80dfe60005260008552604060002033600052855260ff60406000205416156120b7565b6040516382384e3160e01b81526004810187905280610da960248201876139c1565b3461027f57600036600319011261027f5760206040517fa49807205ce4d355092ef5a8a18f56e8913cf4a201fbe287825b095693c217758152f35b3461027f57604036600319011261027f57612287613a2c565b60243560ff60035460a01c1615610315576001600160a01b038083169283158015612439575b6123f7575033600052602090600e825260406000206040516122ce81613899565b8581528381019185835260408201428152606083019160018352805468010000000000000000811015610b245761230a91600182018155614aaf565b9490946123e15761235895600394511673ffffffffffffffffffffffffffffffffffffffff1986541617855551600185015551600284015551151591019060ff801983541691151516179055565b33600052600f81526040600020612370838254613eb4565b905533600052600b815260406000208360005281526040600020612395838254613eb4565b905582600052600c81526123ad3360406000206142f2565b5060405191825242908201527f0e93f38017caec651d0ce6b361a18a797c3c92915af8727bc361e8b5528e01cd60403392a3005b634e487b7160e01b600052600060045260246000fd5b6040517fef8342b50000000000000000000000000000000000000000000000000000000081523360048201526001600160a01b03919091166024820152604490fd5b503384146122ad565b3461027f57602036600319011261027f576001600160a01b03612463613a2c565b16600052600f6020526020604060002054604051908152f35b3461027f57600036600319011261027f57602060ff600154166040519015158152f35b3461027f57600036600319011261027f5760405160006004546124c181613ff7565b8084529060019081811690811561255a57506001146124ff575b610a80846124eb818603826138ee565b6040519182916020835260208301906139c1565b6004600090815292507f8a35acfbc15ff81a39ae7d344fd709f28e8600b4aa8c65c6b64bfe7fe36bd19b5b8284106125425750505081016020016124eb826124db565b8054602085870181019190915290930192810161252a565b60ff191660208087019190915292151560051b850190920192506124eb91508390506124db565b3461027f57600036600319011261027f576003546001600160a01b038116330361033f5760a01c60ff161561031557611f526140c7565b3461027f57600036600319011261027f576003546001600160a01b038116330361033f5760a01c60ff16156103155760015460ff8116156126265760ff19166001557f5db9ee0a495bf2e6ff9c91a7834c1ba4fdd244a5e8aa4e537bd38aeae4b073aa6020604051338152a1005b606460405162461bcd60e51b815260206004820152601460248201527f5061757361626c653a206e6f74207061757365640000000000000000000000006044820152fd5b3461027f57600036600319011261027f57612683613add565b60ff60035460a01c16156103155760015460ff8116156126265760ff19166001557f5db9ee0a495bf2e6ff9c91a7834c1ba4fdd244a5e8aa4e537bd38aeae4b073aa6020604051338152a1005b3461027f57600036600319011261027f57602060ff60035460a01c166040519015158152f35b3461027f57608036600319011261027f5760043567ffffffffffffffff811161027f57612727903690600401613980565b6004602435101561027f5760643567ffffffffffffffff811161027f57612752903690600401613980565b9060ff60035460a01c1615610315576127696140c7565b6127716141ea565b6040516020818351612786818385880161399e565b81016005815203019020600181016001600160a01b03815460401c1615611cc7576127b083614759565b60ff600583015460181c166006811015611cb157600103611c765760405160208185516127e08183858a0161399e565b810160068152030190203360005260205260ff60046040600020015416611c415761280c6024356139f3565b60243515611c06576128239054339060c01b61497d565b918215611bc857604051927f7bc8450f0000000000000000000000000000000000000000000000000000000084526044356004850152602084602481305afa938415610e3457600094612bde575b508361287c91613e8b565b91604051612889816138b5565b3381526128976024356139f3565b6024356020820152836040820152426060820152856080820152600160a082015260443560c08201528460e082015260405160208185516128db8183858a0161399e565b81016006815203019020336000526020526040600020906001600160a01b0381511682549074ffffffffffffffffffffffffffffffffffffffffff1960ff60a01b602085015161292a816139f3565b612933816139f3565b60a01b169216171782556040810151600183015560608101516002830155608081015180519067ffffffffffffffff8211610b2457612979826119326003870154613ff7565b602090601f8311600114612b4157612a9c9593837fc0273d1ed732f2ff7f0865b547ea6da3296102edb2915a7eb2af9b1596479ce09998969460069460e094600092612b36575b50508160011b916000199060031b1c19161760038501555b6129f760a08201511515600486019060ff801983541691151516179055565b60c0810151600585015501519101556040516020818451612a1b818385890161399e565b8101601081520301902033600052602052836040600020556040516020818451612a48818385890161399e565b810160118152030190203360005260205242604060002055612a6b6024356139f3565b602435600203612ada57600901612a83848254613eb4565b90555b6121486040518251611a0781836020870161399e565b9260405191612aac6024356139f3565b602435835260208301526040820152604435606082015260a0608082015280612162339560a08301906139c1565b612ae56024356139f3565b602435600103612b0457600a01612afd848254613eb4565b9055612a86565b612b0f6024356139f3565b600360243514612b20575b50612a86565b600b01612b2e848254613eb4565b905586612b1a565b015190508d806129c0565b906003850160005260206000209160005b601f1985168110612bc657509360018460069460e094612a9c9a987fc0273d1ed732f2ff7f0865b547ea6da3296102edb2915a7eb2af9b1596479ce09d9c9a98601f19811610612bad575b505050811b0160038501556129d8565b015160001960f88460031b161c191690558d8080612b9d565b91926020600181928685015181550194019201612b52565b9093506020813d602011612c0c575b81612bfa602093836138ee565b8101031261027f57519261287c612871565b3d9150612bed565b3461027f57604036600319011261027f57612c2d613a16565b336001600160a01b03821603612c4957610ed990600435613e16565b608460405162461bcd60e51b815260206004820152602f60248201527f416363657373436f6e74726f6c3a2063616e206f6e6c792072656e6f756e636560448201527f20726f6c657320666f722073656c6600000000000000000000000000000000006064820152fd5b3461027f5760208060031936011261027f576001600160a01b039081612cd7613a2c565b16600052600e81526040600020805467ffffffffffffffff8111610b24579160405192612d09828260051b01856138ee565b8084528184018093600052826000206000915b838310612d84575050505060405192818401908285525180915260408401929160005b828110612d4c5785850386f35b835180518816865280830151868401526040808201519087015260609081015115159086015260809094019392810192600101612d3f565b600485600192604099979951612d9981613899565b8b865416815284860154838201526002860154604082015260ff60038701541615156060820152815201920192019190959395612d1c565b3461027f57604036600319011261027f57600435612ded613a16565b816000526000602052612e07600160406000200154613d06565b8160005260006020526001600160a01b0360406000209116908160005260205260ff6040600020541615612e3757005b8160005260006020526040600020816000526020526040600020600160ff1982541617905533917f2f8788117e7eff1d82e926ec794901d17c78024a50270940304540a733656f0d600080a4005b3461027f57606036600319011261027f57612e9e613849565b612ea6613a16565b906003604435101561027f5781612ebc9161497d565b60006001600160a01b0380931680600052602093600c8552612ee16040600020614622565b6000935b8151851015612f2a57612f1e612f249184898860051b8601015116600052600b8952604060002086600052895260406000205490613eb4565b9461414e565b93612ee5565b6116fa879187613eb4565b3461027f576020600319818136011261027f5760043567ffffffffffffffff811161027f57612f68903690600401613980565b9060ff60035460a01c161561031557612f7f6140c7565b612f876141ea565b60609160405191815192858181850195612fa281838961399e565b810160058152030190206001600160a01b0390600194828683015460401c161561326657612fcf85614759565b60058201805460ff8160181c166006811015611cb15760020361322b576008840154421061320957906303000000613062939263ff0000001916179055426010840155600e83013373ffffffffffffffffffffffffffffffffffffffff198254161790558551902060026000526009895261304e8160406000206143b0565b5060036000526009895260406000206142f2565b50600c81019182549161307483613ff7565b1515806131fa575b156131e857600d015416916040519160009161309782613ff7565b918881169081156131d05750600114613197575b505091816000809493819403925af1933d1561319057503d6130cc8161392d565b906130da60405192836138ee565b8152600081963d92013e5b84841561313f5750506130f7906141ca565b604051907f0227784e86231da3060bcbcf480d242f1e11ed1c6d0a78be86c6df5eb39ab77033928061312a8888836139fd565b0390a3600255610a80604051928392836139fd565b6131819291610da9916040519485947e3871e50000000000000000000000000000000000000000000000000000000086526040600487015260448601906139c1565b918483030160248501526139c1565b94506130e5565b9091506000528760002088876000925b8484106131be5750505090820190508160006130ab565b80548487015201910190878a916131a7565b60ff19168552505080151502820190508160006130ab565b50505050509192506130f781926141ca565b5081600d82015416151561307c565b60405163afeab32960e01b8152600481018b905280610da9602482018a6139c1565b6040517fca453b01000000000000000000000000000000000000000000000000000000008152600481018b905280610da9602482018a6139c1565b6040516382384e3160e01b81526004810189905280610da960248201886139c1565b3461027f57602036600319011261027f5760043567ffffffffffffffff811161027f576132b9903690600401613980565b60006102806040516132ca8161387c565b6060815282602082015282604082015260608082015260606080820152606060a08201528260c08201528260e08201528261010082015282610120820152826101408201528261016082015282610180820152826101a0820152826101c0820152826101e0820152606061020082015282610220820152826102408201528261026082015201526133786040516020818451613369818385890161399e565b810160058152030190206144a0565b906001600160a01b036040830151161561351b5750604051906020825261341f6134096133f36133b684516102a060208801526102c08701906139c1565b6001600160c01b031960208601511660408701526001600160a01b0360408601511660608701526060850151601f198783030160808801526139c1565b6080840151858203601f190160a08701526139c1565b60a0830151848203601f190160c08601526139c1565b9061343260c082015160e08501906139e6565b60e0810151613440816139f3565b6101008401526101008101516003811015611cb157610120840152610120810151916006831015611cb1576134da6102809185946101408601526101408401516101608601526101608401516101808601526101808401516101a08601526101a08401516101c08601526101c08401516101e08601526101e0840151610200860152610200840151601f19868303016102208701526139c1565b916001600160a01b03610220820151166102408501526001600160a01b03610240820151166102608501526102608101518285015201516102a08301520390f35b610da9906040519182916382384e3160e01b83526020600484015260248301906139c1565b3461027f57602036600319011261027f5760043560005260006020526020600160406000200154604051908152f35b3461027f57600036600319011261027f576020604051610e108152f35b3461027f57602036600319011261027f5760043567ffffffffffffffff811161027f57611ecb6135c26020923690600401613980565b614d90565b3461027f57600036600319011261027f5760206040517f8a21e8fdae6c23863f7de5307e2e7162c88dab602a41610addb5f1505d2593988152f35b3461027f57600036600319011261027f5760206040517fd8aa0f3194971a2a116679f7c2090f6939c8d4e01a2a8d7e41d55e5351469e638152f35b3461027f57602036600319011261027f576004357fffffffff00000000000000000000000000000000000000000000000000000000811680910361027f57807f7965db0b00000000000000000000000000000000000000000000000000000000602092149081156136b4575b506040519015158152f35b7f01ffc9a700000000000000000000000000000000000000000000000000000000915014826136a9565b3461027f5760e036600319011261027f576136f7613849565b9060c036602319011261027f5761370d81613860565b6024358152602081016044358152604082016064358152606083016084358152608084019160a435835260c43593841515850361027f5760a0860194855260ff60035460a01c1615610315576001600160a01b03613769614a12565b6040516309403b6f60e31b81526001600160c01b03198a1660048201523360248201529160209183916044918391165afa908115610e345760009161382b575b501561380357906005949392916001600160c01b0319610ed99816600052600a60205260406000209651875551600187015551600286015551600385015551600484015551151591019060ff801983541691151516179055565b60405163770185ed60e01b81526001600160c01b031988166004820152336024820152604490fd5b613843915060203d8111610e2d57610e1f81836138ee565b886137a9565b600435906001600160c01b03198216820361027f57565b60c0810190811067ffffffffffffffff821117610b2457604052565b6102a0810190811067ffffffffffffffff821117610b2457604052565b6080810190811067ffffffffffffffff821117610b2457604052565b610100810190811067ffffffffffffffff821117610b2457604052565b6040810190811067ffffffffffffffff821117610b2457604052565b90601f8019910116810190811067ffffffffffffffff821117610b2457604052565b3461027f57600036600319011261027f5760206040516127108152f35b67ffffffffffffffff8111610b2457601f01601f191660200190565b9291926139558261392d565b9161396360405193846138ee565b82948184528183011161027f578281602093846000960137010152565b9080601f8301121561027f5781602061399b93359101613949565b90565b60005b8381106139b15750506000910152565b81810151838201526020016139a1565b906020916139da8151809281855285808601910161399e565b601f01601f1916010190565b906005821015611cb15752565b60041115611cb157565b60409061399b93921515815281602082015201906139c1565b602435906001600160a01b038216820361027f57565b600435906001600160a01b038216820361027f57565b6020908160408183019282815285518094520193019160005b828110613a69575050505090565b835185529381019392810192600101613a5b565b604060031982011261027f576004359067ffffffffffffffff821161027f57613aa891600401613980565b906024356001600160a01b038116810361027f5790565b3461027f57600036600319011261027f57602060405162278d008152f35b3360009081527f7d7ffb7a348e1c6a02869081a26547b49160dd3df72d1d75a570eb9b698292ec602090815260408083205490927fa49807205ce4d355092ef5a8a18f56e8913cf4a201fbe287825b095693c217759160ff1615613b415750505050565b613b4a33613ee8565b91845190613b5782613899565b60428252848201926060368537825115613cf25760308453825190600191821015613cf25790607860218501536041915b818311613c8457505050613c42576048610da9938693613c2693613c1798519889937f416363657373436f6e74726f6c3a206163636f756e74200000000000000000008a860152613be2815180928c60378901910161399e565b8401917f206973206d697373696e6720726f6c652000000000000000000000000000000060378401525180938684019061399e565b010360288101875201856138ee565b5192839262461bcd60e51b8452600484015260248301906139c1565b60648486519062461bcd60e51b825280600483015260248201527f537472696e67733a20686578206c656e67746820696e73756666696369656e746044820152fd5b909192600f81166010811015613cde576f181899199a1a9b1b9c1cb0b131b232b360811b901a613cb48587613ec1565b5360041c928015613cca57600019019190613b88565b602482634e487b7160e01b81526011600452fd5b602483634e487b7160e01b81526032600452fd5b80634e487b7160e01b602492526032600452fd5b600090808252602090828252604092838120338252835260ff848220541615613d2f5750505050565b613d3833613ee8565b91845190613d4582613899565b60428252848201926060368537825115613cf25760308453825190600191821015613cf25790607860218501536041915b818311613dd057505050613c42576048610da9938693613c2693613c1798519889937f416363657373436f6e74726f6c3a206163636f756e74200000000000000000008a860152613be2815180928c60378901910161399e565b909192600f81166010811015613cde576f181899199a1a9b1b9c1cb0b131b232b360811b901a613e008587613ec1565b5360041c928015613cca57600019019190613d76565b90600091808352826020526001600160a01b036040842092169182845260205260ff604084205416613e4757505050565b80835282602052604083208284526020526040832060ff1981541690557ff6391f5c32d9c69d2a47ea670b442974b53935d1edc7fd64eb21e047a839171b339380a4565b81810292918115918404141715613e9e57565b634e487b7160e01b600052601160045260246000fd5b91908201809211613e9e57565b908151811015613ed2570160200190565b634e487b7160e01b600052603260045260246000fd5b604051906060820182811067ffffffffffffffff821117610b2457604052602a8252602082016040368237825115613ed257603090538151600190811015613ed257607860218401536029905b808211613f89575050613f455790565b606460405162461bcd60e51b815260206004820152602060248201527f537472696e67733a20686578206c656e67746820696e73756666696369656e746044820152fd5b9091600f81166010811015613fe2576f181899199a1a9b1b9c1cb0b131b232b360811b901a613fb88486613ec1565b5360041c918015613fcd576000190190613f35565b60246000634e487b7160e01b81526011600452fd5b60246000634e487b7160e01b81526032600452fd5b90600182811c92168015614027575b602083101461401157565b634e487b7160e01b600052602260045260246000fd5b91607f1691614006565b906000929180549161404283613ff7565b9182825260019384811690816000146140a45750600114614064575b50505050565b90919394506000526020928360002092846000945b83861061409057505050500101903880808061405e565b805485870183015294019385908201614079565b9294505050602093945060ff191683830152151560051b0101903880808061405e565b60ff600154166140d357565b606460405162461bcd60e51b815260206004820152601060248201527f5061757361626c653a20706175736564000000000000000000000000000000006044820152fd5b9081602091031261027f57516001600160a01b038116810361027f5790565b9081602091031261027f5751801515810361027f5790565b6000198114613e9e5760010190565b90601f811161416b57505050565b600091825260208220906020601f850160051c830194106141a7575b601f0160051c01915b82811061419c57505050565b818155600101614190565b9092508290614187565b6006811015611cb1576000526009602052604060002090565b6141e29060206040519282848094519384920161399e565b810103902090565b60028054146141f95760028055565b606460405162461bcd60e51b815260206004820152601f60248201527f5265656e7472616e637947756172643a207265656e7472616e742063616c6c006044820152fd5b8054821015613ed25760005260206000200190600090565b6000818152601360205260408120546142ed57601254680100000000000000008110156142d95760018101806012558110156142c55790826040927fbb8a6a4669ba250d26cd7a459eca9d215f8307e33aebe50379bc5a3617ec3444015560125492815260136020522055600190565b602482634e487b7160e01b81526032600452fd5b602482634e487b7160e01b81526041600452fd5b905090565b919060018301600090828252806020526040822054156000146143765784549468010000000000000000861015614362578361435261433b886001604098999a0185558461423d565b819391549060031b91821b91600019901b19161790565b9055549382526020522055600190565b602483634e487b7160e01b81526041600452fd5b50925050565b906001600160a01b0361439c6020929594956040855260408501906139c1565b9416910152565b91908203918211613e9e57565b906001820190600092818452826020526040842054908115156000146144995760001991808301818111614485578254908482019182116144715780820361443c575b505050805480156144285782019161440b838361423d565b909182549160031b1b191690555582526020526040812055600190565b602486634e487b7160e01b81526031600452fd5b61445c61444c61433b938661423d565b90549060031b1c9283928661423d565b905586528460205260408620553880806143f3565b602488634e487b7160e01b81526011600452fd5b602487634e487b7160e01b81526011600452fd5b5050505090565b9060408051906144af8261387c565b819381516144c8816144c18185614031565b03826138ee565b83526001810154906001600160c01b03198260c01b1660208501526001600160a01b038092841c16838501528251614507816144c18160028601614031565b6060850152825161451f816144c18160038601614031565b60808501528251614537816144c18160048601614031565b60a0850152600581015460ff81166005811015611cb15760c086015260ff8160081c16614563816139f3565b60e086015260ff8160101c16906003821015611cb15760ff9161010087015260181c16916006831015611cb1576102809360109361012087015260068301546101408701526007830154610160870152600883015461018087015260098301546101a0870152600a8301546101c0870152600b8301546101e0870152516145f1816144c181600c8701614031565b61020086015280600d83015416610220860152600e82015416610240850152600f8101546102608501520154910152565b9060405191828154918282526020928383019160005283600020936000905b82821061465957505050614657925003836138ee565b565b855484526001958601958895509381019390910190614641565b6040519061468082613860565b8160a06000918281528260208201528260408201528260608201528260808201520152565b6001600160c01b0319906146b7614673565b5016600052600a6020526040600020604051906146d382613860565b8054825260ff6005600183015492836020860152600281015460408601526003810154606086015260048101546080860152015416151560a0830152156147175790565b5060405161472481613860565b6014548152601554602082015260165460408201526017546060820152601854608082015260ff60195416151560a082015290565b604051908051916020818184019461477281838861399e565b81016005815203019020600581019261479a61479560ff865460181c16936144a0565b614803565b926006841015611cb1576006831015611cb1578383036147bc575b5050505050565b5190206147e1916147d290829061211e906141b1565b506147dc836141b1565b6142f2565b5063ff00000082549160181b169063ff000000191617905538808080806147b5565b610120810180516006811015611cb1576003148015614969575b61495a575061014081015142106149545761016081015142111561494e5760208101906001600160c01b031991614856838251166146a5565b6101a083019260036101008551966148846148786101c08601998a5190613eb4565b6101e086015190613eb4565b9551169201511015611cb15760206001600160a01b036148a2614a12565b16916024604051809481937f379aab3300000000000000000000000000000000000000000000000000000000835260048301525afa908115610e3457600091614918575b506148f990606061271093015190613e8b565b0411614911575190511061490c57600490565b600290565b5050600490565b906020823d8211614946575b81614931602093836138ee565b810103126149435750516127106148e6565b80fd5b3d9150614924565b50600190565b50600090565b9050516006811015611cb15790565b5080516006811015611cb15760051461481d565b6149d2916020916001600160a01b03614994614a12565b16906040518095819482936309403b6f60e31b8452600484019092916001600160a01b036020916001600160c01b0319604085019616845216910152565b03915afa908115610e34576000916149f4575b506149ef57600090565b600190565b614a0c915060203d8111610e2d57610e1f81836138ee565b386149e5565b60035460ff8160a01c1615610315576040517f85acd6410000000000000000000000000000000000000000000000000000000081527fbdded29a54e6a5d6169bedea55373b06f57e35d7b0f67ac187565b435e2cc94360048201526020816024816001600160a01b038096165afa908115610e3457600091614a9357501690565b614aab915060203d81116112235761121481836138ee565b1690565b8054821015613ed25760005260206000209060021b0190600090565b801561494e57620151809004606481029080820460641490151715613e9e57610bb8900460010180600111613e9e5761012c90818111156142ed575090565b9060409081519183516001600160a01b03602094858181890194614b2f81838861399e565b81016006815203019020931694600093868552855282842060ff600482015416158015614cc4575b614b9457835186818451614b6c81838961399e565b810160118152030190208786528652614b8884862054426143a3565b60058201541115614b9d575b50505050505050565b600181019283549560068301908154908115614cb057509260ff614c008a614c4095600160609b99968d9b997fe3224d12971ec6cd1e86eac7c4c30aaa7b8ff863968e40299346f0b6d997950d9e04809a5555885180938192885192839161399e565b81016005815203019020915460a01c16614c19816139f3565b60028103614c5b5750600901614c3984614c348884546143a3565b613eb4565b90556141ca565b9582519384528301524290820152a338808080808080614b94565b614c64816139f3565b60018103614c7f5750600a01614c3984614c348884546143a3565b80614c8b6003926139f3565b14614c9657506141ca565b600b01614ca884614c348884546143a3565b905538612148565b80634e487b7160e01b602492526012600452fd5b50600581015415614b57565b9060405191614ced8151936020818185019661336981838a61399e565b926001600160a01b03918260408601511615614d86576101208501516006811015611cb157600103614d8657614d319160209160405193849283925192839161399e565b8101600681520301902090821660005260205260ff60046040600020015416614d7f5760036101006001600160c01b03196020850151169301511015611cb157614d7a9161497d565b151590565b5050600090565b5050505050600090565b6133696020614dac92816040519382858094519384920161399e565b6001600160a01b0360408201511615614954576101208101516006811015611cb15760020361495457610180015142101590565b6133696020614dfc92816040519382858094519384920161399e565b906001600160a01b0360408301511615614d7f576001600160c01b0319602061399b9301511661497d56fea2646970667358221220365c08a0f234248c34647db88900b9b47e55276e2de563f0590d42a3cbd2425764736f6c634300081400332f8788117e7eff1d82e926ec794901d17c78024a50270940304540a733656f0d",
  "linkReferences": {},
  "deployedLinkReferences": {}
}