{
  "_format": "hh-sol-artifact-1",
  "contractName": "Signal",
  "sourceName": "contracts/modules/Signal/Signal.sol",
  "abi": [
    {
      "inputs": [],
      "stateMutability": "nonpayable",
      "type": "constructor"
    },
    {
      "inputs": [
        {
          "internalType": "bytes32",
          "name": "proposalId",
          "type": "bytes32"
        },
        {
          "internalType": "address",
          "name": "voter",
          "type": "address"
        }
      ],
      "name": "AlreadyVoted",
      "type": "error"
    },
    {
      "inputs": [
        {
          "internalType": "address",
          "name": "delegator",
          "type": "address"
        },
        {
          "internalType": "address",
          "name": "delegatee",
          "type": "address"
        }
      ],
      "name": "DelegationNotFound",
      "type": "error"
    },
    {
      "inputs": [
        {
          "internalType": "bytes32",
          "name": "proposalId",
          "type": "bytes32"
        },
        {
          "internalType": "string",
          "name": "reason",
          "type": "string"
        }
      ],
      "name": "ExecutionFailed",
      "type": "error"
    },
    {
      "inputs": [
        {
          "internalType": "address",
          "name": "proposer",
          "type": "address"
        },
        {
          "internalType": "uint256",
          "name": "required",
          "type": "uint256"
        },
        {
          "internalType": "uint256",
          "name": "available",
          "type": "uint256"
        }
      ],
      "name": "InsufficientProposalThreshold",
      "type": "error"
    },
    {
      "inputs": [
        {
          "internalType": "address",
          "name": "voter",
          "type": "address"
        },
        {
          "internalType": "uint256",
          "name": "required",
          "type": "uint256"
        },
        {
          "internalType": "uint256",
          "name": "available",
          "type": "uint256"
        }
      ],
      "name": "InsufficientVotingPower",
      "type": "error"
    },
    {
      "inputs": [
        {
          "internalType": "uint256",
          "name": "convictionTime",
          "type": "uint256"
        }
      ],
      "name": "InvalidConvictionTime",
      "type": "error"
    },
    {
      "inputs": [
        {
          "internalType": "address",
          "name": "delegator",
          "type": "address"
        },
        {
          "internalType": "address",
          "name": "delegatee",
          "type": "address"
        }
      ],
      "name": "InvalidDelegation",
      "type": "error"
    },
    {
      "inputs": [],
      "name": "InvalidProposalParameters",
      "type": "error"
    },
    {
      "inputs": [],
      "name": "InvalidRegistryAddress",
      "type": "error"
    },
    {
      "inputs": [
        {
          "internalType": "enum ISignal.VoteChoice",
          "name": "choice",
          "type": "uint8"
        }
      ],
      "name": "InvalidVoteChoice",
      "type": "error"
    },
    {
      "inputs": [
        {
          "internalType": "uint256",
          "name": "period",
          "type": "uint256"
        }
      ],
      "name": "InvalidVotingPeriod",
      "type": "error"
    },
    {
      "inputs": [
        {
          "internalType": "bytes8",
          "name": "organizationId",
          "type": "bytes8"
        },
        {
          "internalType": "address",
          "name": "member",
          "type": "address"
        }
      ],
      "name": "MembershipRequired",
      "type": "error"
    },
    {
      "inputs": [],
      "name": "ModuleAlreadyInitialized",
      "type": "error"
    },
    {
      "inputs": [],
      "name": "ModuleNotInitialized",
      "type": "error"
    },
    {
      "inputs": [],
      "name": "OnlyRegistry",
      "type": "error"
    },
    {
      "inputs": [
        {
          "internalType": "bytes8",
          "name": "organizationId",
          "type": "bytes8"
        }
      ],
      "name": "OrganizationNotFound",
      "type": "error"
    },
    {
      "inputs": [
        {
          "internalType": "bytes32",
          "name": "proposalId",
          "type": "bytes32"
        }
      ],
      "name": "ProposalAlreadyExecuted",
      "type": "error"
    },
    {
      "inputs": [
        {
          "internalType": "bytes32",
          "name": "proposalId",
          "type": "bytes32"
        }
      ],
      "name": "ProposalNotActive",
      "type": "error"
    },
    {
      "inputs": [
        {
          "internalType": "bytes32",
          "name": "proposalId",
          "type": "bytes32"
        }
      ],
      "name": "ProposalNotFound",
      "type": "error"
    },
    {
      "inputs": [
        {
          "internalType": "bytes32",
          "name": "proposalId",
          "type": "bytes32"
        }
      ],
      "name": "ProposalNotPassed",
      "type": "error"
    },
    {
      "inputs": [
        {
          "internalType": "bytes32",
          "name": "proposalId",
          "type": "bytes32"
        },
        {
          "internalType": "uint256",
          "name": "required",
          "type": "uint256"
        },
        {
          "internalType": "uint256",
          "name": "actual",
          "type": "uint256"
        }
      ],
      "name": "QuorumNotReached",
      "type": "error"
    },
    {
      "inputs": [
        {
          "internalType": "bytes32",
          "name": "proposalId",
          "type": "bytes32"
        },
        {
          "internalType": "address",
          "name": "caller",
          "type": "address"
        }
      ],
      "name": "UnauthorizedProposalAccess",
      "type": "error"
    },
    {
      "inputs": [
        {
          "internalType": "bytes32",
          "name": "proposalId",
          "type": "bytes32"
        }
      ],
      "name": "VotingNotActive",
      "type": "error"
    },
    {
      "anonymous": false,
      "inputs": [
        {
          "indexed": true,
          "internalType": "bytes32",
          "name": "proposalId",
          "type": "bytes32"
        },
        {
          "indexed": true,
          "internalType": "address",
          "name": "voter",
          "type": "address"
        },
        {
          "indexed": false,
          "internalType": "uint256",
          "name": "oldPower",
          "type": "uint256"
        },
        {
          "indexed": false,
          "internalType": "uint256",
          "name": "newPower",
          "type": "uint256"
        },
        {
          "indexed": false,
          "internalType": "uint256",
          "name": "timestamp",
          "type": "uint256"
        }
      ],
      "name": "ConvictionDecayApplied",
      "type": "event"
    },
    {
      "anonymous": false,
      "inputs": [],
      "name": "ModuleDisabled",
      "type": "event"
    },
    {
      "anonymous": false,
      "inputs": [],
      "name": "ModuleEnabled",
      "type": "event"
    },
    {
      "anonymous": false,
      "inputs": [
        {
          "indexed": true,
          "internalType": "address",
          "name": "registry",
          "type": "address"
        }
      ],
      "name": "ModuleInitialized",
      "type": "event"
    },
    {
      "anonymous": false,
      "inputs": [
        {
          "indexed": false,
          "internalType": "address",
          "name": "account",
          "type": "address"
        }
      ],
      "name": "Paused",
      "type": "event"
    },
    {
      "anonymous": false,
      "inputs": [
        {
          "indexed": true,
          "internalType": "bytes32",
          "name": "proposalId",
          "type": "bytes32"
        },
        {
          "indexed": true,
          "internalType": "address",
          "name": "canceller",
          "type": "address"
        },
        {
          "indexed": false,
          "internalType": "uint256",
          "name": "timestamp",
          "type": "uint256"
        }
      ],
      "name": "ProposalCancelled",
      "type": "event"
    },
    {
      "anonymous": false,
      "inputs": [
        {
          "indexed": true,
          "internalType": "bytes32",
          "name": "proposalId",
          "type": "bytes32"
        },
        {
          "indexed": true,
          "internalType": "bytes8",
          "name": "organizationId",
          "type": "bytes8"
        },
        {
          "indexed": true,
          "internalType": "address",
          "name": "proposer",
          "type": "address"
        },
        {
          "indexed": false,
          "internalType": "string",
          "name": "title",
          "type": "string"
        },
        {
          "indexed": false,
          "internalType": "enum ISignal.ProposalType",
          "name": "proposalType",
          "type": "uint8"
        },
        {
          "indexed": false,
          "internalType": "enum ISignal.VotingType",
          "name": "votingType",
          "type": "uint8"
        },
        {
          "indexed": false,
          "internalType": "enum ISignal.VotingPower",
          "name": "votingPower",
          "type": "uint8"
        },
        {
          "indexed": false,
          "internalType": "uint256",
          "name": "startTime",
          "type": "uint256"
        },
        {
          "indexed": false,
          "internalType": "uint256",
          "name": "endTime",
          "type": "uint256"
        },
        {
          "indexed": false,
          "internalType": "uint256",
          "name": "timestamp",
          "type": "uint256"
        }
      ],
      "name": "ProposalCreated",
      "type": "event"
    },
    {
      "anonymous": false,
      "inputs": [
        {
          "indexed": true,
          "internalType": "bytes32",
          "name": "proposalId",
          "type": "bytes32"
        },
        {
          "indexed": false,
          "internalType": "bool",
          "name": "success",
          "type": "bool"
        },
        {
          "indexed": false,
          "internalType": "bytes",
          "name": "returnData",
          "type": "bytes"
        },
        {
          "indexed": false,
          "internalType": "uint256",
          "name": "timestamp",
          "type": "uint256"
        }
      ],
      "name": "ProposalExecuted",
      "type": "event"
    },
    {
      "anonymous": false,
      "inputs": [
        {
          "indexed": true,
          "internalType": "bytes32",
          "name": "proposalId",
          "type": "bytes32"
        },
        {
          "indexed": false,
          "internalType": "uint256",
          "name": "executionTime",
          "type": "uint256"
        },
        {
          "indexed": false,
          "internalType": "uint256",
          "name": "timestamp",
          "type": "uint256"
        }
      ],
      "name": "ProposalQueued",
      "type": "event"
    },
    {
      "anonymous": false,
      "inputs": [
        {
          "indexed": true,
          "internalType": "bytes32",
          "name": "proposalId",
          "type": "bytes32"
        },
        {
          "indexed": false,
          "internalType": "enum ISignal.ProposalState",
          "name": "oldState",
          "type": "uint8"
        },
        {
          "indexed": false,
          "internalType": "enum ISignal.ProposalState",
          "name": "newState",
          "type": "uint8"
        },
        {
          "indexed": false,
          "internalType": "uint256",
          "name": "timestamp",
          "type": "uint256"
        }
      ],
      "name": "ProposalStateChanged",
      "type": "event"
    },
    {
      "anonymous": false,
      "inputs": [
        {
          "indexed": true,
          "internalType": "bytes32",
          "name": "proposalId",
          "type": "bytes32"
        },
        {
          "indexed": false,
          "internalType": "string",
          "name": "title",
          "type": "string"
        },
        {
          "indexed": false,
          "internalType": "string",
          "name": "description",
          "type": "string"
        },
        {
          "indexed": false,
          "internalType": "uint256",
          "name": "endTime",
          "type": "uint256"
        },
        {
          "indexed": false,
          "internalType": "uint256",
          "name": "timestamp",
          "type": "uint256"
        }
      ],
      "name": "ProposalUpdated",
      "type": "event"
    },
    {
      "anonymous": false,
      "inputs": [
        {
          "indexed": true,
          "internalType": "bytes32",
          "name": "role",
          "type": "bytes32"
        },
        {
          "indexed": true,
          "internalType": "bytes32",
          "name": "previousAdminRole",
          "type": "bytes32"
        },
        {
          "indexed": true,
          "internalType": "bytes32",
          "name": "newAdminRole",
          "type": "bytes32"
        }
      ],
      "name": "RoleAdminChanged",
      "type": "event"
    },
    {
      "anonymous": false,
      "inputs": [
        {
          "indexed": true,
          "internalType": "bytes32",
          "name": "role",
          "type": "bytes32"
        },
        {
          "indexed": true,
          "internalType": "address",
          "name": "account",
          "type": "address"
        },
        {
          "indexed": true,
          "internalType": "address",
          "name": "sender",
          "type": "address"
        }
      ],
      "name": "RoleGranted",
      "type": "event"
    },
    {
      "anonymous": false,
      "inputs": [
        {
          "indexed": true,
          "internalType": "bytes32",
          "name": "role",
          "type": "bytes32"
        },
        {
          "indexed": true,
          "internalType": "address",
          "name": "account",
          "type": "address"
        },
        {
          "indexed": true,
          "internalType": "address",
          "name": "sender",
          "type": "address"
        }
      ],
      "name": "RoleRevoked",
      "type": "event"
    },
    {
      "anonymous": false,
      "inputs": [
        {
          "indexed": false,
          "internalType": "address",
          "name": "account",
          "type": "address"
        }
      ],
      "name": "Unpaused",
      "type": "event"
    },
    {
      "anonymous": false,
      "inputs": [
        {
          "indexed": true,
          "internalType": "bytes32",
          "name": "proposalId",
          "type": "bytes32"
        },
        {
          "indexed": true,
          "internalType": "address",
          "name": "voter",
          "type": "address"
        },
        {
          "indexed": false,
          "internalType": "enum ISignal.VoteChoice",
          "name": "choice",
          "type": "uint8"
        },
        {
          "indexed": false,
          "internalType": "uint256",
          "name": "votingPower",
          "type": "uint256"
        },
        {
          "indexed": false,
          "internalType": "string",
          "name": "reason",
          "type": "string"
        },
        {
          "indexed": false,
          "internalType": "uint256",
          "name": "timestamp",
          "type": "uint256"
        }
      ],
      "name": "VoteCast",
      "type": "event"
    },
    {
      "anonymous": false,
      "inputs": [
        {
          "indexed": true,
          "internalType": "bytes8",
          "name": "organizationId",
          "type": "bytes8"
        },
        {
          "indexed": false,
          "internalType": "uint256",
          "name": "votingDelay",
          "type": "uint256"
        },
        {
          "indexed": false,
          "internalType": "uint256",
          "name": "votingPeriod",
          "type": "uint256"
        },
        {
          "indexed": false,
          "internalType": "uint256",
          "name": "executionDelay",
          "type": "uint256"
        },
        {
          "indexed": false,
          "internalType": "uint256",
          "name": "quorumThreshold",
          "type": "uint256"
        },
        {
          "indexed": false,
          "internalType": "uint256",
          "name": "proposalThreshold",
          "type": "uint256"
        },
        {
          "indexed": false,
          "internalType": "uint256",
          "name": "timestamp",
          "type": "uint256"
        }
      ],
      "name": "VotingParametersUpdated",
      "type": "event"
    },
    {
      "anonymous": false,
      "inputs": [
        {
          "indexed": true,
          "internalType": "address",
          "name": "delegator",
          "type": "address"
        },
        {
          "indexed": true,
          "internalType": "address",
          "name": "delegatee",
          "type": "address"
        },
        {
          "indexed": false,
          "internalType": "uint256",
          "name": "amount",
          "type": "uint256"
        },
        {
          "indexed": false,
          "internalType": "uint256",
          "name": "timestamp",
          "type": "uint256"
        }
      ],
      "name": "VotingPowerDelegated",
      "type": "event"
    },
    {
      "anonymous": false,
      "inputs": [
        {
          "indexed": true,
          "internalType": "address",
          "name": "delegator",
          "type": "address"
        },
        {
          "indexed": true,
          "internalType": "address",
          "name": "delegatee",
          "type": "address"
        },
        {
          "indexed": false,
          "internalType": "uint256",
          "name": "amount",
          "type": "uint256"
        },
        {
          "indexed": false,
          "internalType": "uint256",
          "name": "timestamp",
          "type": "uint256"
        }
      ],
      "name": "VotingPowerUndelegated",
      "type": "event"
    },
    {
      "inputs": [],
      "name": "ADMIN_ROLE",
      "outputs": [
        {
          "internalType": "bytes32",
          "name": "",
          "type": "bytes32"
        }
      ],
      "stateMutability": "view",
      "type": "function"
    },
    {
      "inputs": [],
      "name": "BASIS_POINTS",
      "outputs": [
        {
          "internalType": "uint256",
          "name": "",
          "type": "uint256"
        }
      ],
      "stateMutability": "view",
      "type": "function"
    },
    {
      "inputs": [],
      "name": "CONVICTION_MULTIPLIER_BASE",
      "outputs": [
        {
          "internalType": "uint256",
          "name": "",
          "type": "uint256"
        }
      ],
      "stateMutability": "view",
      "type": "function"
    },
    {
      "inputs": [],
      "name": "DEFAULT_ADMIN_ROLE",
      "outputs": [
        {
          "internalType": "bytes32",
          "name": "",
          "type": "bytes32"
        }
      ],
      "stateMutability": "view",
      "type": "function"
    },
    {
      "inputs": [],
      "name": "EXECUTOR_ROLE",
      "outputs": [
        {
          "internalType": "bytes32",
          "name": "",
          "type": "bytes32"
        }
      ],
      "stateMutability": "view",
      "type": "function"
    },
    {
      "inputs": [],
      "name": "MAX_EXECUTION_DELAY",
      "outputs": [
        {
          "internalType": "uint256",
          "name": "",
          "type": "uint256"
        }
      ],
      "stateMutability": "view",
      "type": "function"
    },
    {
      "inputs": [],
      "name": "MAX_QUORUM_THRESHOLD",
      "outputs": [
        {
          "internalType": "uint256",
          "name": "",
          "type": "uint256"
        }
      ],
      "stateMutability": "view",
      "type": "function"
    },
    {
      "inputs": [],
      "name": "MAX_VOTING_PERIOD",
      "outputs": [
        {
          "internalType": "uint256",
          "name": "",
          "type": "uint256"
        }
      ],
      "stateMutability": "view",
      "type": "function"
    },
    {
      "inputs": [],
      "name": "MIN_VOTING_PERIOD",
      "outputs": [
        {
          "internalType": "uint256",
          "name": "",
          "type": "uint256"
        }
      ],
      "stateMutability": "view",
      "type": "function"
    },
    {
      "inputs": [],
      "name": "OPERATOR_ROLE",
      "outputs": [
        {
          "internalType": "bytes32",
          "name": "",
          "type": "bytes32"
        }
      ],
      "stateMutability": "view",
      "type": "function"
    },
    {
      "inputs": [],
      "name": "PROPOSAL_CREATOR_ROLE",
      "outputs": [
        {
          "internalType": "bytes32",
          "name": "",
          "type": "bytes32"
        }
      ],
      "stateMutability": "view",
      "type": "function"
    },
    {
      "inputs": [],
      "name": "SIGNAL_ADMIN_ROLE",
      "outputs": [
        {
          "internalType": "bytes32",
          "name": "",
          "type": "bytes32"
        }
      ],
      "stateMutability": "view",
      "type": "function"
    },
    {
      "inputs": [
        {
          "internalType": "bytes32",
          "name": "proposalId",
          "type": "bytes32"
        },
        {
          "internalType": "address",
          "name": "voter",
          "type": "address"
        }
      ],
      "name": "applyConvictionDecay",
      "outputs": [],
      "stateMutability": "nonpayable",
      "type": "function"
    },
    {
      "inputs": [
        {
          "internalType": "uint256",
          "name": "convictionTime",
          "type": "uint256"
        }
      ],
      "name": "calculateConvictionMultiplier",
      "outputs": [
        {
          "internalType": "uint256",
          "name": "",
          "type": "uint256"
        }
      ],
      "stateMutability": "pure",
      "type": "function"
    },
    {
      "inputs": [
        {
          "internalType": "bytes32",
          "name": "proposalId",
          "type": "bytes32"
        },
        {
          "internalType": "address",
          "name": "voter",
          "type": "address"
        },
        {
          "internalType": "enum ISignal.VotingPower",
          "name": "powerType",
          "type": "uint8"
        }
      ],
      "name": "calculateVotingPower",
      "outputs": [
        {
          "internalType": "uint256",
          "name": "",
          "type": "uint256"
        }
      ],
      "stateMutability": "view",
      "type": "function"
    },
    {
      "inputs": [
        {
          "internalType": "bytes32",
          "name": "proposalId",
          "type": "bytes32"
        }
      ],
      "name": "canExecute",
      "outputs": [
        {
          "internalType": "bool",
          "name": "",
          "type": "bool"
        }
      ],
      "stateMutability": "view",
      "type": "function"
    },
    {
      "inputs": [
        {
          "internalType": "bytes32",
          "name": "proposalId",
          "type": "bytes32"
        },
        {
          "internalType": "address",
          "name": "voter",
          "type": "address"
        }
      ],
      "name": "canVote",
      "outputs": [
        {
          "internalType": "bool",
          "name": "",
          "type": "bool"
        }
      ],
      "stateMutability": "view",
      "type": "function"
    },
    {
      "inputs": [
        {
          "internalType": "bytes32",
          "name": "proposalId",
          "type": "bytes32"
        }
      ],
      "name": "cancelProposal",
      "outputs": [],
      "stateMutability": "nonpayable",
      "type": "function"
    },
    {
      "inputs": [
        {
          "internalType": "bytes32",
          "name": "proposalId",
          "type": "bytes32"
        },
        {
          "internalType": "enum ISignal.VoteChoice",
          "name": "choice",
          "type": "uint8"
        },
        {
          "internalType": "string",
          "name": "reason",
          "type": "string"
        }
      ],
      "name": "castVote",
      "outputs": [],
      "stateMutability": "nonpayable",
      "type": "function"
    },
    {
      "inputs": [
        {
          "internalType": "bytes32",
          "name": "proposalId",
          "type": "bytes32"
        },
        {
          "internalType": "enum ISignal.VoteChoice",
          "name": "choice",
          "type": "uint8"
        },
        {
          "internalType": "uint256",
          "name": "convictionTime",
          "type": "uint256"
        },
        {
          "internalType": "string",
          "name": "reason",
          "type": "string"
        }
      ],
      "name": "castVoteWithConviction",
      "outputs": [],
      "stateMutability": "nonpayable",
      "type": "function"
    },
    {
      "inputs": [
        {
          "internalType": "bytes8",
          "name": "organizationId",
          "type": "bytes8"
        },
        {
          "internalType": "string",
          "name": "title",
          "type": "string"
        },
        {
          "internalType": "string",
          "name": "description",
          "type": "string"
        },
        {
          "internalType": "string",
          "name": "metadataURI",
          "type": "string"
        },
        {
          "internalType": "enum ISignal.ProposalType",
          "name": "proposalType",
          "type": "uint8"
        },
        {
          "internalType": "enum ISignal.VotingType",
          "name": "votingType",
          "type": "uint8"
        },
        {
          "internalType": "enum ISignal.VotingPower",
          "name": "votingPower",
          "type": "uint8"
        },
        {
          "internalType": "uint256",
          "name": "votingPeriod",
          "type": "uint256"
        },
        {
          "internalType": "bytes",
          "name": "executionData",
          "type": "bytes"
        },
        {
          "internalType": "address",
          "name": "targetContract",
          "type": "address"
        }
      ],
      "name": "createProposal",
      "outputs": [
        {
          "internalType": "bytes32",
          "name": "proposalId",
          "type": "bytes32"
        }
      ],
      "stateMutability": "nonpayable",
      "type": "function"
    },
    {
      "inputs": [
        {
          "internalType": "address",
          "name": "delegatee",
          "type": "address"
        },
        {
          "internalType": "uint256",
          "name": "amount",
          "type": "uint256"
        }
      ],
      "name": "delegateVotingPower",
      "outputs": [],
      "stateMutability": "nonpayable",
      "type": "function"
    },
    {
      "inputs": [
        {
          "internalType": "bytes32",
          "name": "proposalId",
          "type": "bytes32"
        }
      ],
      "name": "emergencyCancel",
      "outputs": [],
      "stateMutability": "nonpayable",
      "type": "function"
    },
    {
      "inputs": [],
      "name": "emergencyPause",
      "outputs": [],
      "stateMutability": "nonpayable",
      "type": "function"
    },
    {
      "inputs": [],
      "name": "emergencyUnpause",
      "outputs": [],
      "stateMutability": "nonpayable",
      "type": "function"
    },
    {
      "inputs": [
        {
          "internalType": "bytes32",
          "name": "proposalId",
          "type": "bytes32"
        }
      ],
      "name": "estimateGasForExecution",
      "outputs": [
        {
          "internalType": "uint256",
          "name": "",
          "type": "uint256"
        }
      ],
      "stateMutability": "view",
      "type": "function"
    },
    {
      "inputs": [
        {
          "internalType": "bytes32",
          "name": "proposalId",
          "type": "bytes32"
        }
      ],
      "name": "executeProposal",
      "outputs": [],
      "stateMutability": "nonpayable",
      "type": "function"
    },
    {
      "inputs": [],
      "name": "getActiveProposals",
      "outputs": [
        {
          "internalType": "bytes32[]",
          "name": "",
          "type": "bytes32[]"
        }
      ],
      "stateMutability": "view",
      "type": "function"
    },
    {
      "inputs": [],
      "name": "getDefaultVotingParameters",
      "outputs": [
        {
          "components": [
            {
              "internalType": "uint256",
              "name": "votingDelay",
              "type": "uint256"
            },
            {
              "internalType": "uint256",
              "name": "votingPeriod",
              "type": "uint256"
            },
            {
              "internalType": "uint256",
              "name": "executionDelay",
              "type": "uint256"
            },
            {
              "internalType": "uint256",
              "name": "quorumThreshold",
              "type": "uint256"
            },
            {
              "internalType": "uint256",
              "name": "proposalThreshold",
              "type": "uint256"
            },
            {
              "internalType": "bool",
              "name": "requireMembership",
              "type": "bool"
            }
          ],
          "internalType": "struct ISignal.VotingParameters",
          "name": "",
          "type": "tuple"
        }
      ],
      "stateMutability": "view",
      "type": "function"
    },
    {
      "inputs": [
        {
          "internalType": "address",
          "name": "delegator",
          "type": "address"
        }
      ],
      "name": "getDelegatedVotingPower",
      "outputs": [
        {
          "internalType": "uint256",
          "name": "",
          "type": "uint256"
        }
      ],
      "stateMutability": "view",
      "type": "function"
    },
    {
      "inputs": [
        {
          "internalType": "address",
          "name": "delegator",
          "type": "address"
        }
      ],
      "name": "getDelegations",
      "outputs": [
        {
          "components": [
            {
              "internalType": "address",
              "name": "delegator",
              "type": "address"
            },
            {
              "internalType": "address",
              "name": "delegatee",
              "type": "address"
            },
            {
              "internalType": "uint256",
              "name": "amount",
              "type": "uint256"
            },
            {
              "internalType": "uint256",
              "name": "timestamp",
              "type": "uint256"
            },
            {
              "internalType": "bool",
              "name": "active",
              "type": "bool"
            }
          ],
          "internalType": "struct ISignal.Delegation[]",
          "name": "",
          "type": "tuple[]"
        }
      ],
      "stateMutability": "view",
      "type": "function"
    },
    {
      "inputs": [
        {
          "internalType": "bytes32",
          "name": "proposalId",
          "type": "bytes32"
        }
      ],
      "name": "getExecutionETA",
      "outputs": [
        {
          "internalType": "uint256",
          "name": "",
          "type": "uint256"
        }
      ],
      "stateMutability": "view",
      "type": "function"
    },
    {
      "inputs": [
        {
          "internalType": "bytes32",
          "name": "proposalId",
          "type": "bytes32"
        }
      ],
      "name": "getProposal",
      "outputs": [
        {
          "components": [
            {
              "internalType": "uint256",
              "name": "index",
              "type": "uint256"
            },
            {
              "internalType": "bytes32",
              "name": "proposalId",
              "type": "bytes32"
            },
            {
              "internalType": "bytes8",
              "name": "organizationId",
              "type": "bytes8"
            },
            {
              "internalType": "address",
              "name": "proposer",
              "type": "address"
            },
            {
              "internalType": "string",
              "name": "title",
              "type": "string"
            },
            {
              "internalType": "string",
              "name": "description",
              "type": "string"
            },
            {
              "internalType": "string",
              "name": "metadataURI",
              "type": "string"
            },
            {
              "internalType": "enum ISignal.ProposalType",
              "name": "proposalType",
              "type": "uint8"
            },
            {
              "internalType": "enum ISignal.VotingType",
              "name": "votingType",
              "type": "uint8"
            },
            {
              "internalType": "enum ISignal.VotingPower",
              "name": "votingPower",
              "type": "uint8"
            },
            {
              "internalType": "enum ISignal.ProposalState",
              "name": "state",
              "type": "uint8"
            },
            {
              "internalType": "uint256",
              "name": "startTime",
              "type": "uint256"
            },
            {
              "internalType": "uint256",
              "name": "endTime",
              "type": "uint256"
            },
            {
              "internalType": "uint256",
              "name": "executionTime",
              "type": "uint256"
            },
            {
              "internalType": "uint256",
              "name": "createdAt",
              "type": "uint256"
            },
            {
              "internalType": "uint256",
              "name": "updatedAt",
              "type": "uint256"
            },
            {
              "internalType": "bytes",
              "name": "executionData",
              "type": "bytes"
            },
            {
              "internalType": "address",
              "name": "targetContract",
              "type": "address"
            },
            {
              "internalType": "uint256",
              "name": "requiredQuorum",
              "type": "uint256"
            },
            {
              "internalType": "uint256",
              "name": "votesFor",
              "type": "uint256"
            },
            {
              "internalType": "uint256",
              "name": "votesAgainst",
              "type": "uint256"
            },
            {
              "internalType": "uint256",
              "name": "votesAbstain",
              "type": "uint256"
            },
            {
              "internalType": "uint256",
              "name": "totalVotingPower",
              "type": "uint256"
            },
            {
              "internalType": "bool",
              "name": "executed",
              "type": "bool"
            },
            {
              "internalType": "bool",
              "name": "cancelled",
              "type": "bool"
            }
          ],
          "internalType": "struct ISignal.Proposal",
          "name": "",
          "type": "tuple"
        }
      ],
      "stateMutability": "view",
      "type": "function"
    },
    {
      "inputs": [],
      "name": "getProposalCount",
      "outputs": [
        {
          "internalType": "uint256",
          "name": "",
          "type": "uint256"
        }
      ],
      "stateMutability": "view",
      "type": "function"
    },
    {
      "inputs": [
        {
          "internalType": "bytes32",
          "name": "proposalId",
          "type": "bytes32"
        }
      ],
      "name": "getProposalResult",
      "outputs": [
        {
          "internalType": "bool",
          "name": "passed",
          "type": "bool"
        },
        {
          "internalType": "uint256",
          "name": "forVotes",
          "type": "uint256"
        },
        {
          "internalType": "uint256",
          "name": "againstVotes",
          "type": "uint256"
        },
        {
          "internalType": "uint256",
          "name": "abstainVotes",
          "type": "uint256"
        },
        {
          "internalType": "uint256",
          "name": "quorum",
          "type": "uint256"
        }
      ],
      "stateMutability": "view",
      "type": "function"
    },
    {
      "inputs": [
        {
          "internalType": "bytes32",
          "name": "proposalId",
          "type": "bytes32"
        }
      ],
      "name": "getProposalVotes",
      "outputs": [
        {
          "internalType": "address[]",
          "name": "voters",
          "type": "address[]"
        },
        {
          "components": [
            {
              "internalType": "address",
              "name": "voter",
              "type": "address"
            },
            {
              "internalType": "enum ISignal.VoteChoice",
              "name": "choice",
              "type": "uint8"
            },
            {
              "internalType": "uint256",
              "name": "votingPower",
              "type": "uint256"
            },
            {
              "internalType": "uint256",
              "name": "timestamp",
              "type": "uint256"
            },
            {
              "internalType": "string",
              "name": "reason",
              "type": "string"
            },
            {
              "internalType": "uint256",
              "name": "convictionTime",
              "type": "uint256"
            }
          ],
          "internalType": "struct ISignal.Vote[]",
          "name": "votes",
          "type": "tuple[]"
        }
      ],
      "stateMutability": "view",
      "type": "function"
    },
    {
      "inputs": [
        {
          "internalType": "bytes8",
          "name": "organizationId",
          "type": "bytes8"
        }
      ],
      "name": "getProposalsByOrganization",
      "outputs": [
        {
          "internalType": "bytes32[]",
          "name": "",
          "type": "bytes32[]"
        }
      ],
      "stateMutability": "view",
      "type": "function"
    },
    {
      "inputs": [
        {
          "internalType": "enum ISignal.ProposalState",
          "name": "state",
          "type": "uint8"
        }
      ],
      "name": "getProposalsByState",
      "outputs": [
        {
          "internalType": "bytes32[]",
          "name": "",
          "type": "bytes32[]"
        }
      ],
      "stateMutability": "view",
      "type": "function"
    },
    {
      "inputs": [
        {
          "internalType": "bytes32",
          "name": "proposalId",
          "type": "bytes32"
        }
      ],
      "name": "getQuorumReached",
      "outputs": [
        {
          "internalType": "bool",
          "name": "",
          "type": "bool"
        }
      ],
      "stateMutability": "view",
      "type": "function"
    },
    {
      "inputs": [
        {
          "internalType": "bytes32",
          "name": "role",
          "type": "bytes32"
        }
      ],
      "name": "getRoleAdmin",
      "outputs": [
        {
          "internalType": "bytes32",
          "name": "",
          "type": "bytes32"
        }
      ],
      "stateMutability": "view",
      "type": "function"
    },
    {
      "inputs": [
        {
          "internalType": "bytes32",
          "name": "proposalId",
          "type": "bytes32"
        }
      ],
      "name": "getTimeRemaining",
      "outputs": [
        {
          "internalType": "uint256",
          "name": "",
          "type": "uint256"
        }
      ],
      "stateMutability": "view",
      "type": "function"
    },
    {
      "inputs": [
        {
          "internalType": "bytes32",
          "name": "proposalId",
          "type": "bytes32"
        },
        {
          "internalType": "address",
          "name": "voter",
          "type": "address"
        }
      ],
      "name": "getVote",
      "outputs": [
        {
          "components": [
            {
              "internalType": "address",
              "name": "voter",
              "type": "address"
            },
            {
              "internalType": "enum ISignal.VoteChoice",
              "name": "choice",
              "type": "uint8"
            },
            {
              "internalType": "uint256",
              "name": "votingPower",
              "type": "uint256"
            },
            {
              "internalType": "uint256",
              "name": "timestamp",
              "type": "uint256"
            },
            {
              "internalType": "string",
              "name": "reason",
              "type": "string"
            },
            {
              "internalType": "uint256",
              "name": "convictionTime",
              "type": "uint256"
            }
          ],
          "internalType": "struct ISignal.Vote",
          "name": "",
          "type": "tuple"
        }
      ],
      "stateMutability": "view",
      "type": "function"
    },
    {
      "inputs": [
        {
          "internalType": "bytes8",
          "name": "organizationId",
          "type": "bytes8"
        }
      ],
      "name": "getVotingParameters",
      "outputs": [
        {
          "components": [
            {
              "internalType": "uint256",
              "name": "votingDelay",
              "type": "uint256"
            },
            {
              "internalType": "uint256",
              "name": "votingPeriod",
              "type": "uint256"
            },
            {
              "internalType": "uint256",
              "name": "executionDelay",
              "type": "uint256"
            },
            {
              "internalType": "uint256",
              "name": "quorumThreshold",
              "type": "uint256"
            },
            {
              "internalType": "uint256",
              "name": "proposalThreshold",
              "type": "uint256"
            },
            {
              "internalType": "bool",
              "name": "requireMembership",
              "type": "bool"
            }
          ],
          "internalType": "struct ISignal.VotingParameters",
          "name": "",
          "type": "tuple"
        }
      ],
      "stateMutability": "view",
      "type": "function"
    },
    {
      "inputs": [
        {
          "internalType": "bytes32",
          "name": "proposalId",
          "type": "bytes32"
        },
        {
          "internalType": "address",
          "name": "voter",
          "type": "address"
        }
      ],
      "name": "getVotingPower",
      "outputs": [
        {
          "internalType": "uint256",
          "name": "",
          "type": "uint256"
        }
      ],
      "stateMutability": "view",
      "type": "function"
    },
    {
      "inputs": [
        {
          "internalType": "bytes32",
          "name": "role",
          "type": "bytes32"
        },
        {
          "internalType": "address",
          "name": "account",
          "type": "address"
        }
      ],
      "name": "grantRole",
      "outputs": [],
      "stateMutability": "nonpayable",
      "type": "function"
    },
    {
      "inputs": [
        {
          "internalType": "bytes32",
          "name": "role",
          "type": "bytes32"
        },
        {
          "internalType": "address",
          "name": "account",
          "type": "address"
        }
      ],
      "name": "hasRole",
      "outputs": [
        {
          "internalType": "bool",
          "name": "",
          "type": "bool"
        }
      ],
      "stateMutability": "view",
      "type": "function"
    },
    {
      "inputs": [
        {
          "internalType": "bytes32",
          "name": "proposalId",
          "type": "bytes32"
        },
        {
          "internalType": "address",
          "name": "voter",
          "type": "address"
        }
      ],
      "name": "hasVoted",
      "outputs": [
        {
          "internalType": "bool",
          "name": "",
          "type": "bool"
        }
      ],
      "stateMutability": "view",
      "type": "function"
    },
    {
      "inputs": [
        {
          "internalType": "address",
          "name": "registryAddress",
          "type": "address"
        }
      ],
      "name": "initialize",
      "outputs": [],
      "stateMutability": "nonpayable",
      "type": "function"
    },
    {
      "inputs": [],
      "name": "isInitialized",
      "outputs": [
        {
          "internalType": "bool",
          "name": "",
          "type": "bool"
        }
      ],
      "stateMutability": "view",
      "type": "function"
    },
    {
      "inputs": [
        {
          "internalType": "bytes32",
          "name": "proposalId",
          "type": "bytes32"
        }
      ],
      "name": "isProposalActive",
      "outputs": [
        {
          "internalType": "bool",
          "name": "",
          "type": "bool"
        }
      ],
      "stateMutability": "view",
      "type": "function"
    },
    {
      "inputs": [],
      "name": "moduleId",
      "outputs": [
        {
          "internalType": "bytes32",
          "name": "",
          "type": "bytes32"
        }
      ],
      "stateMutability": "pure",
      "type": "function"
    },
    {
      "inputs": [],
      "name": "onModuleDisabled",
      "outputs": [],
      "stateMutability": "nonpayable",
      "type": "function"
    },
    {
      "inputs": [],
      "name": "onModuleEnabled",
      "outputs": [],
      "stateMutability": "nonpayable",
      "type": "function"
    },
    {
      "inputs": [],
      "name": "pause",
      "outputs": [],
      "stateMutability": "nonpayable",
      "type": "function"
    },
    {
      "inputs": [],
      "name": "paused",
      "outputs": [
        {
          "internalType": "bool",
          "name": "",
          "type": "bool"
        }
      ],
      "stateMutability": "view",
      "type": "function"
    },
    {
      "inputs": [
        {
          "internalType": "bytes32",
          "name": "proposalId",
          "type": "bytes32"
        }
      ],
      "name": "previewProposalExecution",
      "outputs": [
        {
          "internalType": "bool",
          "name": "success",
          "type": "bool"
        },
        {
          "internalType": "bytes",
          "name": "returnData",
          "type": "bytes"
        }
      ],
      "stateMutability": "view",
      "type": "function"
    },
    {
      "inputs": [
        {
          "internalType": "bytes32",
          "name": "proposalId",
          "type": "bytes32"
        }
      ],
      "name": "queueProposal",
      "outputs": [],
      "stateMutability": "nonpayable",
      "type": "function"
    },
    {
      "inputs": [],
      "name": "registry",
      "outputs": [
        {
          "internalType": "address",
          "name": "",
          "type": "address"
        }
      ],
      "stateMutability": "view",
      "type": "function"
    },
    {
      "inputs": [
        {
          "internalType": "bytes32",
          "name": "role",
          "type": "bytes32"
        },
        {
          "internalType": "address",
          "name": "account",
          "type": "address"
        }
      ],
      "name": "renounceRole",
      "outputs": [],
      "stateMutability": "nonpayable",
      "type": "function"
    },
    {
      "inputs": [
        {
          "internalType": "bytes32",
          "name": "role",
          "type": "bytes32"
        },
        {
          "internalType": "address",
          "name": "account",
          "type": "address"
        }
      ],
      "name": "revokeRole",
      "outputs": [],
      "stateMutability": "nonpayable",
      "type": "function"
    },
    {
      "inputs": [
        {
          "components": [
            {
              "internalType": "uint256",
              "name": "votingDelay",
              "type": "uint256"
            },
            {
              "internalType": "uint256",
              "name": "votingPeriod",
              "type": "uint256"
            },
            {
              "internalType": "uint256",
              "name": "executionDelay",
              "type": "uint256"
            },
            {
              "internalType": "uint256",
              "name": "quorumThreshold",
              "type": "uint256"
            },
            {
              "internalType": "uint256",
              "name": "proposalThreshold",
              "type": "uint256"
            },
            {
              "internalType": "bool",
              "name": "requireMembership",
              "type": "bool"
            }
          ],
          "internalType": "struct ISignal.VotingParameters",
          "name": "params",
          "type": "tuple"
        }
      ],
      "name": "setDefaultVotingParameters",
      "outputs": [],
      "stateMutability": "nonpayable",
      "type": "function"
    },
    {
      "inputs": [
        {
          "internalType": "bytes32",
          "name": "proposalId",
          "type": "bytes32"
        },
        {
          "internalType": "enum ISignal.ProposalState",
          "name": "newState",
          "type": "uint8"
        }
      ],
      "name": "setProposalState",
      "outputs": [],
      "stateMutability": "nonpayable",
      "type": "function"
    },
    {
      "inputs": [
        {
          "internalType": "bytes8",
          "name": "organizationId",
          "type": "bytes8"
        },
        {
          "components": [
            {
              "internalType": "uint256",
              "name": "votingDelay",
              "type": "uint256"
            },
            {
              "internalType": "uint256",
              "name": "votingPeriod",
              "type": "uint256"
            },
            {
              "internalType": "uint256",
              "name": "executionDelay",
              "type": "uint256"
            },
            {
              "internalType": "uint256",
              "name": "quorumThreshold",
              "type": "uint256"
            },
            {
              "internalType": "uint256",
              "name": "proposalThreshold",
              "type": "uint256"
            },
            {
              "internalType": "bool",
              "name": "requireMembership",
              "type": "bool"
            }
          ],
          "internalType": "struct ISignal.VotingParameters",
          "name": "params",
          "type": "tuple"
        }
      ],
      "name": "setVotingParameters",
      "outputs": [],
      "stateMutability": "nonpayable",
      "type": "function"
    },
    {
      "inputs": [
        {
          "internalType": "bytes4",
          "name": "interfaceId",
          "type": "bytes4"
        }
      ],
      "name": "supportsInterface",
      "outputs": [
        {
          "internalType": "bool",
          "name": "",
          "type": "bool"
        }
      ],
      "stateMutability": "view",
      "type": "function"
    },
    {
      "inputs": [
        {
          "internalType": "address",
          "name": "delegatee",
          "type": "address"
        },
        {
          "internalType": "uint256",
          "name": "amount",
          "type": "uint256"
        }
      ],
      "name": "undelegateVotingPower",
      "outputs": [],
      "stateMutability": "nonpayable",
      "type": "function"
    },
    {
      "inputs": [],
      "name": "unpause",
      "outputs": [],
      "stateMutability": "nonpayable",
      "type": "function"
    },
    {
      "inputs": [
        {
          "internalType": "bytes32",
          "name": "proposalId",
          "type": "bytes32"
        },
        {
          "internalType": "string",
          "name": "title",
          "type": "string"
        },
        {
          "internalType": "string",
          "name": "description",
          "type": "string"
        },
        {
          "internalType": "uint256",
          "name": "endTime",
          "type": "uint256"
        }
      ],
      "name": "updateProposal",
      "outputs": [],
      "stateMutability": "nonpayable",
      "type": "function"
    },
    {
      "inputs": [
        {
          "internalType": "bytes8",
          "name": "organizationId",
          "type": "bytes8"
        },
        {
          "internalType": "enum ISignal.ProposalType",
          "name": "",
          "type": "uint8"
        },
        {
          "internalType": "enum ISignal.VotingType",
          "name": "",
          "type": "uint8"
        },
        {
          "internalType": "enum ISignal.VotingPower",
          "name": "",
          "type": "uint8"
        },
        {
          "internalType": "uint256",
          "name": "votingPeriod",
          "type": "uint256"
        }
      ],
      "name": "validateProposalParameters",
      "outputs": [
        {
          "internalType": "bool",
          "name": "",
          "type": "bool"
        }
      ],
      "stateMutability": "view",
      "type": "function"
    },
    {
      "inputs": [],
      "name": "version",
      "outputs": [
        {
          "internalType": "string",
          "name": "",
          "type": "string"
        }
      ],
      "stateMutability": "view",
      "type": "function"
    }
  ],
  "bytecode": "0x608034620003b1576040906001600160401b0381830181811183821017620002d0578352600582526020809201640312e302e360dc1b815260ff1991600191838354168355826002556004548381811c91168015620003a6575b868210146200039057601f81116200035e575b50516001600160d81b031916600a17600455600080805280855285812033825285528590205460ff161562000323575b7fa49807205ce4d355092ef5a8a18f56e8913cf4a201fbe287825b095693c2177580600052600085528560002033600052855260ff86600020541615620002e6575b5084519060c0820190811182821017620002d05785526201518080825262093a8080868401526202a3009182888501528460a06103e8958660608201526064608082015201526010556011556012556013556064601455808260155416176015557f14684b861e7ed8196bfd1e75a427098261dc7f825334a81d48ec74d12ef80dfe80600052600084528460002033600052845260ff8560002054161562000293575b507f8a21e8fdae6c23863f7de5307e2e7162c88dab602a41610addb5f1505d25939880600052600084528460002033600052845260ff8560002054161562000256575b507fd8aa0f3194971a2a116679f7c2090f6939c8d4e01a2a8d7e41d55e5351469e639283600052600081528460002033600052815260ff8560002054161562000217575b845161595a9081620003b78239f35b83600052600081528460002090336000525283600020918254161790553390339060008051602062005d11833981519152600080a43880808062000208565b8060005260008452846000203360005284528460002082848254161790553390339060008051602062005d11833981519152600080a438620001c4565b8060005260008452846000203360005284528460002082848254161790553390339060008051602062005d11833981519152600080a43862000181565b634e487b7160e01b600052604160045260246000fd5b8060005260008552856000203360005285528560002083858254161790553390339060008051602062005d11833981519152600080a438620000de565b6000805260008452846000203360005284528460002082848254161790553333600060008051602062005d118339815191528180a46200009c565b600460005283601f87600020920160051c8201915b828110620003835750506200006c565b6000815501849062000373565b634e487b7160e01b600052602260045260246000fd5b90607f169062000059565b600080fdfe608080604052600436101561001357600080fd5b60003560e01c908162122121146136b75750806301ffc9a71461366257806307bd0265146136275780630b6cd0d8146135df578063127ec2831461043757806315b3958e146135a45780631d0824e114613569578063215809ca1461354c578063248a9ca31461351d5780632e46aacc146134d65780632f2ff15d1461343557806331cc13ba1461329657806332be9ebc1461327857806336568abe146131e657806337376ca8146130f3578063392e53cd146130cd5780633b3808b014612dcd5780633f4ba83a14612d675780633ffa57eb14612d38578063430694cf146129125780634456251b146128f457806345ef118f1461283d57806348b51e90146124975780634a4e3bd5146123ed57806350acf2dd1461043757806351858e27146123b657806354fd4d50146122d45780635584c4f91461228d5780635c975abb1461226a5780636da25a541461222457806374428d9b1461214557806375251dd51461205557806375b238fc1461201a57806375ea877e14611f8c5780637b10399914611f635780637bc8450f14611f45578063815a93d314611efc5780638456cb5914611e9557806385df716e14611e5a5780638910902d14611e1f57806391d1485414611dd2578063980ff6c614611bb2578063a1308f2714611b77578063a18e9dde14611b30578063a217fddf14611b14578063a22b6477146116f7578063a296718414611686578063a64e024a14611343578063aa7318aa14611630578063aadc3b72146115e6578063ac86499d146115c0578063acfa0b9414611593578063b072453114611563578063b3e7c2bd146114a4578063b502f55414611385578063bacc132314611348578063bc03d28014611343578063bff28ea814611148578063c08cc02d1461112a578063c3586d04146110ea578063c4d66de814610d7e578063d547741f14610d3d578063d560fbc614610ccd578063d8ec13861461043c578063e1f1c4a714610437578063ebf8a3e6146103bd578063ef761e801461037e578063f2bd42be146103555763f5b541a61461031557600080fd5b346103505760003660031901126103505760206040517f97667070c54ef182b0f5858b034beac1b6f3089aa2d3188bb1e8929f4fa9b9298152f35b600080fd5b346103505760003660031901126103505760206040516000805160206159058339815191528152f35b3461035057602036600319011261035057602060043561039d81615255565b94935050505060005260058252600e604060002001541115604051908152f35b34610350576000366003190112610350576003546001600160a01b03811633036104255760a01c60ff1615610413577fa866f3901ec84758a10f30e8953c3818eef73da93dfa46cb6aa5b726fb65813f600080a1005b604051633165f6e960e21b8152600490fd5b6040516310f5403960e31b8152600490fd5b613904565b346103505761014036600319011261035057610456613833565b6024356001600160401b03811161035057610475903690600401613973565b906044356001600160401b03811161035057610495903690600401613973565b906064356001600160401b038111610350576104b5903690600401613973565b6005608435101561035057600460a435101561035057600460c435101561035057610104356001600160401b03811161035057366023820112156103505761050790369060248160040135910161393c565b6101243594906001600160a01b03861686036103505760ff60035460a01c1615610413576105336141ab565b61053b61428a565b61054484614bc4565b815115610cbb57610e1060e435108015610cad575b610c935761056684614dd7565b9160a0830151610bb5575b61057e60c4353387614e53565b61058c608085015187615181565b90818110610b91575050600f54956105a38761420e565b9687600f556040516105fd607c8260208101946001600160401b0360c01b8c1686523360601b602883015287516105e181603c850160208c01613991565b82019042603c830152605c82015203605c8101845201826138b7565b5190209661060c855142613f99565b9561061960e43588613f99565b928960005260056020526040600020928355896001840155600283018054600160401b600160e01b033360401b16908b60c01c9063ffffffff60e01b161717905584516001600160401b038111610a09576106848161067b60038701546140db565b6003870161421d565b806020601f8211600114610b2457600091610b19575b508160011b916000199060031b1c19161760038401555b8051906001600160401b038211610a095781906106de826106d560048801546140db565b6004880161421d565b602090601f8311600114610aa757600092610a9c575b50508160011b916000199060031b1c19161760048301555b8051906001600160401b038211610a095781906107398261073060058701546140db565b6005870161421d565b602090601f8311600114610a2a57600092610a1f575b50508160011b916000199060031b1c19161760058201555b60068101805461077860a4356139e6565b61078360c4356139e6565b60ff608435169063ffffffff19161761ff0060a43560081b161762ff000060c43560101b161790558560078201558160088201556000600982015542600a82015542600b8201558351986001600160401b038a11610a09578989956107fa60209c6107f1600c8701546140db565b600c870161421d565b8b90601f831160011461096c5792826060937f185fbce528d485c2e01f0bdd9655e320da78ac3e8e6162438568206dd3adb01c999a9360139796600092610961575b50508160011b916000199060031b1c191617600c8501555b600d84019060018060a01b03166bffffffffffffffffffffffff60a01b8254161790550151600e8201556000600f8201556000601082015560006011820155600060128201550161ffff1981541690556108ad846142f6565b506001600160401b0360c01b8616600052600888526108d084604060002061438e565b5060008052600988526108e784604060002061438e565b506108fd6040519260e0845260e08401906139b4565b9461090c8984016084356139d9565b61091760a4356139e6565b60a435604084015261092a60c4356139e6565b60c4356060840152608083015260a08201524260c082015233946001600160c01b0319169381900390a46001600255604051908152f35b015190508f8061083c565b97929190600c85016000528c6000209860005b601f19841681106109ef5750827f185fbce528d485c2e01f0bdd9655e320da78ac3e8e6162438568206dd3adb01c999a606095936001936013999896601f198116106109d6575b505050811b01600c850155610854565b015160001960f88460031b161c191690558f80806109c6565b828201518b556001909a01998d9950918e01918e0161097f565b634e487b7160e01b600052604160045260246000fd5b015190508b8061074f565b9250600584016000526020600020906000935b601f1984168510610a81576001945083601f19811610610a68575b505050811b016005820155610767565b015160001960f88460031b161c191690558b8080610a58565b81810151835560209485019460019093019290910190610a3d565b015190508c806106f4565b9250600485016000526020600020906000935b601f1984168510610afe576001945083601f19811610610ae5575b505050811b01600483015561070c565b015160001960f88460031b161c191690558c8080610ad5565b81810151835560209485019460019093019290910190610aba565b90508601518d61069a565b91506003850160005260206000206000925b601f1983168410610b79576001935082601f19811610610b60575b5050811b0160038401556106b1565b88015160001960f88460031b161c191690558d80610b51565b88810151825560209384019360019092019101610b36565b6064925060405191638aed8dc760e01b835233600484015260248301526044820152fd5b6001600160a01b03610bc5614c78565b168015610c7157604051631640e78d60e31b81526001600160c01b03198716600482015233602482015290602090829060449082905afa908115610c6557600091610c37575b50610571575b6040516309e915af60e01b81523360048201526001602482015260006044820152606490fd5b610c58915060203d8111610c5e575b610c5081836138b7565b810190614bac565b88610c0b565b503d610c46565b6040513d6000823e3d90fd5b604051634fddb6dd60e11b81526001600160c01b031987166004820152602490fd5b604051630779207f60e11b815260e4356004820152602490fd5b5062278d0060e43511610559565b60405163f39a942760e01b8152600490fd5b3461035057600036600319011261035057610ce6614d64565b50610d39610cf2614d96565b6040519182918291909160a08060c0830194805184526020810151602085015260408101516040850152606081015160608501526080810151608085015201511515910152565b0390f35b3461035057604036600319011261035057610d7c600435610d5c6138d8565b90806000526000602052610d77600160406000200154613e08565b613f12565b005b346103505760208060031936011261035057610d986138ee565b906003549160ff91828460a01c166110d8576001600160a01b039182169384156110c6576001600160a81b0319168417600160a01b176003557fa49807205ce4d355092ef5a8a18f56e8913cf4a201fbe287825b095693c21775600081815280835260408082208783528452902054841615611087575b507f97667070c54ef182b0f5858b034beac1b6f3089aa2d3188bb1e8929f4fa9b92980600052600082526040600020856000528252836040600020541615611048575b50604051637b10399960e01b8152918183600481305afa928315610c6557600093611019575b506000805160206159058339815191529081600052600083526040600020931692836000528252836040600020541615610fda575b507f8a21e8fdae6c23863f7de5307e2e7162c88dab602a41610addb5f1505d25939880600052600082526040600020836000528252836040600020541615610f9b575b507fd8aa0f3194971a2a116679f7c2090f6939c8d4e01a2a8d7e41d55e5351469e6392836000526000825260406000208360005282526040600020541615610f5b575b837f27b541a16df0902e262f34789782092ab25125513b8ed73608e802951771b928600080a2005b826000526000815260406000209082600052526040600020600160ff1982541617905533916000805160206158c5833981519152600080a4818080610f33565b806000526000825260406000208360005282526040600020600160ff198254161790558233916000805160206158c5833981519152600080a484610ef0565b806000526000825260406000208360005282526040600020600160ff198254161790558233916000805160206158c5833981519152600080a484610ead565b61103a919350823d8411611041575b61103281836138b7565b8101906141ef565b9185610e78565b503d611028565b806000526000825260406000208560005282526040600020600160ff198254161790558433916000805160206158c5833981519152600080a484610e52565b806000526000825260406000208560005282526040600020600160ff198254161790558433916000805160206158c5833981519152600080a484610e0f565b604051637bfd2e8360e01b8152600490fd5b604051637396742f60e11b8152600490fd5b346103505760203660031901126103505760a0611108600435615255565b9260409291925194151585526020850152604084015260608301526080820152f35b34610350576000366003190112610350576020600d54604051908152f35b34610350576020806003193601126103505761119f906004358060005260078252611176604060002061556b565b9182519261118384615540565b9361119160405195866138b7565b808552601f19958691615540565b018260005b82811061132d5750505060005b815181101561128b57600084815260068452604090206001600160a01b039190826111dc8386615557565b51166000528452604060002091604051906111f682613881565b8354908116825260ff60a091821c16600394858210156112755761124361124a611270976004948b8801526001840154604088015260028401546060880152604051928380928601614115565b03826138b7565b608085015201549082015261125f8288615557565b5261126a8187615557565b5061420e565b6111b1565b634e487b7160e01b600052602160045260246000fd5b818386886040519260408401604085528551809152816060860196019060005b818110611310575050508385038185015282519081865280860181808460051b8901019501936000975b8489106112e25787870388f35b90919293949584806112fe838686600196030188528a51613a63565b980194019801979190949392946112d5565b82516001600160a01b0316885296830196918301916001016112ab565b61133561550e565b8282890101520183906111a4565b613a38565b3461035057602036600319011261035057600435600781101561035057611379611374610d3992614271565b61556b565b604051918291826139fd565b346103505760403660031901126103505761139e6138ee565b60243560ff60035460a01c1615610413576113b76141ab565b336000526020600b815260406000209260018060a01b038116938460005282528260406000205410611477575033600052600b8152604060002083600052815260406000206114078382546144e5565b905533600052600b815260406000208360005281526040600020541561145b575b60405191825242908201527fa4a5a3554ccf1a9531c27b469cd495bd2d61b6da23637fe39c7ed3d90c9a013260403392a3005b33600052600c81526114718360406000206144f2565b50611428565b6040516309078cff60e21b81523360048201526001600160a01b03919091166024820152604490fd5b0390fd5b34610350576040366003190112610350576114bd6138d8565b6114c561550e565b506004356000526006602052604060002060018060a01b0380921660005260205260406000209060ff604051916114fb83613881565b8354908116835260a01c16600381101561127557610d399260049160208401526001810154604084015260028101546060840152604051611543816112438160038601614115565b6080840152015460a0820152604051918291602083526020830190613a63565b346103505760403660031901126103505760206115896115816138d8565b6004356155ba565b6040519015158152f35b3461035057602036600319011261035057610d39610cf26115b2613833565b6115ba614d64565b50614dd7565b346103505760203660031901126103505760206115de6004356157b5565b604051908152f35b346103505760403660031901126103505760206116016138d8565b60043560005260068252604060002060018060a01b038092166000528252604060002054161515604051908152f35b34610350576000366003190112610350576003546001600160a01b03811633036104255760a01c60ff1615610413577f6dff2fe8fbb5b23bf0583bf5b2157ff62ca7e27f2fb4f404914cd0c205ced5cc600080a1005b34610350576020366003190112610350576004356000526005602052604060002060ff600682015460181c169060078210156112755760016020921490816116e8575b816116da575b506040519015158152f35b6008915001544210826116cf565b600781015442101591506116c9565b346103505760603660031901126103505760036024351015610350576044356001600160401b03811161035057611732903690600401613973565b60ff60035460a01c1615610413576117486141ab565b61175061428a565b600435600052600560205260406000209060018060a01b03600283015460401c1615611afb576007820154421080159081611aed575b611ad45760ff600684015460181c1660078110158061127557600182141580611ac8575b611aaf5761127557159081611aa7575b50611a97575b600435600052600660205260406000203360005260205260018060a01b0360406000205416611a7757600282015460c01b91600361180b60ff600684015460101c1680953390614e53565b93611815816139e6565b1480611a6f575b611a3c575b8215610c115760043560005260066020526040600020336000526020526040600020805460ff60a01b60243560a01b169060ff60a01b193316906affffffffffffffffffffff60a81b161717815583600182015542600282015582516001600160401b038111610a09576118a58161189c60038501546140db565b6003850161421d565b6020601f82116001146119c45760046012938361194a97969460009485916119b9575b508160011b9185199060031b1c19161760038201555b015560043560005260076020526118f933604060002061438e565b5060243560010361198d57600f8101611913868254613f99565b90555b01611922848254613f99565b90556040519261193484602435613a56565b60208401526080604084015260808301906139b4565b4260608301527f4cb49d347b97c61478ad5973530706e433c68c743c1a3050df41d1f0201cc08e339280600435930390a3611986600435614afd565b6001600255005b6024356119aa57601081016119a3868254613f99565b9055611916565b601181016119a3868254613f99565b90508701518a6118c8565b6003830160005260206000209060005b601f1984168110611a24575060129360018460009460049461194a9a9997601f19811610611a0c575b5050811b0160038201556118de565b890151861960f88460031b161c191690558a806119fd565b9091602060018192858a0151815501930191016119d4565b916127109081810290808204831490151715611a59570491611821565b634e487b7160e01b600052601160045260246000fd5b50600061181c565b604051630bcf2ea360e01b81526004803590820152336024820152604490fd5b611aa26004356149b7565b6117c0565b9050836117ba565b602460405163673b9f7960e01b81526004356004820152fd5b505060008115156117aa565b60246040516301ff4f4d60e51b81526004356004820152fd5b506008830154421015611786565b602460405163e2acee5b60e01b81526004356004820152fd5b3461035057600036600319011261035057602060405160008152f35b346103505760403660031901126103505760206115de611b4e6138d8565b6004356000526005835260406000209060ff6006600284015460c01b93015460101c1691614e53565b346103505760003660031901126103505760206040517f60b4c21d70ead12825359faa918a75b0f6aec1173d8f83736a228003bb90f01c8152f35b346103505760203660031901126103505760043560ff60035460a01c161561041357611bdc6141ab565b611be461428a565b6000818152600560205260409081902060028101546001600160a01b03921c821615611db95760ff600682015460181c16600781101561127557600203611da05760098101544210611d875760138101600160ff19825416179055606090600c810191611c5183546140db565b151580611d78575b15611d48575090611c7b60008094600d82950154169260405192838092614433565b03925af1817f081e17797ff342d155472363c2116c9940b0297d64bbe5ca4b85e529ee514dc6611cda611cac6144b5565b935b8015611d3a57611cbd8461491d565b6040519182911595861583526060602084015260608301906139b4565b4260408301520390a2611cee576001600255005b608490604051906309b60bad60e01b8252600482015260406024820152601960448201527f50726f706f73616c20657865637574696f6e206661696c6564000000000000006064820152fd5b611d4384614883565b611cbd565b92505050817f081e17797ff342d155472363c2116c9940b0297d64bbe5ca4b85e529ee514dc6611cda6001611cae565b5083600d830154161515611c59565b6040516301ff4f4d60e51b815260048101849052602490fd5b60405163673b9f7960e01b815260048101849052602490fd5b60405163e2acee5b60e01b815260048101849052602490fd5b3461035057604036600319011261035057611deb6138d8565b600435600052600060205260406000209060018060a01b0316600052602052602060ff604060002054166040519015158152f35b34610350576020366003190112610350576001600160c01b0319611e41613833565b166000526008602052610d39611379604060002061556b565b3461035057602036600319011261035057611e7660043561582d565b90610d39604051928392151583526040602084015260408301906139b4565b3461035057600036600319011261035057611eae613cc3565b60ff60035460a01c161561041357611ec46141ab565b600160ff19815416176001557f62e78cea01bee320cd4e420270b5ea74000d11b0c9f74754ebdbfc544b05a2586020604051338152a1005b346103505760a036600319011261035057611f15613833565b60056024351015610350576004604435101561035057600460643510156103505761158960209160843590615723565b346103505760203660031901126103505760206115de60043561521e565b34610350576000366003190112610350576003546040516001600160a01b039091168152602090f35b346103505760c036600319011261035057604051611fa981613881565b6004358152602081016024358152604082016044358152606083019060643582526080840192608435845260a4359485151586036103505760a08101958652611ff0613abe565b516010555160115551601255516013555160145551151560ff801960155416911617601555600080f35b346103505760003660031901126103505760206040517fa49807205ce4d355092ef5a8a18f56e8913cf4a201fbe287825b095693c217758152f35b346103505760403660031901126103505761206e6138ee565b60243560ff60035460a01c1615610413576120876141ab565b6001600160a01b038216918215801561213c575b612113575033600052600b60205260406000208260005260205260406000206120c5828254613f99565b905533600052600c6020526120de82604060002061438e565b506040519081524260208201527f0e93f38017caec651d0ce6b361a18a797c3c92915af8727bc361e8b5528e01cd60403392a3005b60405163ef8342b560e01b81523360048201526001600160a01b03919091166024820152604490fd5b5033831461209b565b346103505760203660031901126103505760043560ff60035460a01c16156104135761216f6141ab565b8060005260056020526040600020600281015460018060a01b038160401c1615611db95761219c83615255565b505050501561220b5760088201544210611d87577fa41177828e45756af65c61fece09dddf5390f789cfd1c43577aec3b6b390534f9160096121ee60406121e6819560c01b614dd7565b015142613f99565b91019081556121fc846147e9565b548151908152426020820152a2005b604051635401d37960e01b815260048101849052602490fd5b34610350576020366003190112610350576001600160a01b036122456138ee565b16600052600b6020526040600020336000526020526020604060002054604051908152f35b3461035057600036600319011261035057602060ff600154166040519015158152f35b346103505760003660031901126103505760016000526009602052610d396113797f92e85d02570a8092d09a6e3a57665bc3815a2699a4074001bf1ccabf660f5a3661556b565b346103505760003660031901126103505760405160006004546122f6816140db565b8084529060019081811690811561238f5750600114612334575b610d3984612320818603826138b7565b6040519182916020835260208301906139b4565b6004600090815292507f8a35acfbc15ff81a39ae7d344fd709f28e8600b4aa8c65c6b64bfe7fe36bd19b5b82841061237757505050810160200161232082612310565b8054602085870181019190915290930192810161235f565b60ff191660208087019190915292151560051b850190920192506123209150839050612310565b34610350576000366003190112610350576003546001600160a01b03811633036104255760a01c60ff161561041357611ec46141ab565b34610350576000366003190112610350576003546001600160a01b03811633036104255760a01c60ff16156104135760015460ff81161561245b5760ff19166001557f5db9ee0a495bf2e6ff9c91a7834c1ba4fdd244a5e8aa4e537bd38aeae4b073aa6020604051338152a1005b60405162461bcd60e51b815260206004820152601460248201527314185d5cd8589b194e881b9bdd081c185d5cd95960621b6044820152606490fd5b34610350576080366003190112610350576004356001600160401b03602435818111610350576124cb903690600401613973565b604435828111610350576124e3903690600401613973565b60643560039360ff855460a01c1615610413576124fe6141ab565b856000526020926005845260406000209460018060a01b03600287015460401c16801561282457331415806127f3575b6127d45760ff600687015460181c166007811015611275576127d457805180612714575b5050805190816125f5575b505050916125d07f30a54a01732713d47dac5743edf632f63b8cea51255001b0f05de7a75c21e39694926125c29460078401548111806125ec575b6125e1575b5042600b84015560046008840154936040519687966080885260808801908301614115565b928684039087015201614115565b9060408301524260608301520390a2005b60088401558761259d565b50428111612598565b60048601928211610a09576126148261260e85546140db565b8561421d565b8490601f83116001146126835792827f30a54a01732713d47dac5743edf632f63b8cea51255001b0f05de7a75c21e3969896936125c29896936125d096600092612678575b50508160011b9160001990891b1c19161790555b92948194965061255d565b015190508b80612659565b90601f1983169184600052866000209260005b8181106126fd5750936125c29896936125d09693600193837f30a54a01732713d47dac5743edf632f63b8cea51255001b0f05de7a75c21e3969d9b98106126e5575b505050811b01905561266d565b0151600019838b1b60f8161c191690558b80806126d8565b929388600181928786015181550195019301612696565b87870191848211610a095781906127358261272f86546140db565b8661421d565b8790601f831160011461277057600092612765575b50508160011b91600019908a1b1c19161790555b8780612552565b015190508a8061274a565b60008581528981209350601f198516905b8a8282106127be5750509084600195949392106127a6575b505050811b01905561275e565b0151600019838c1b60f8161c191690558a8080612799565b6001859682939686015181550195019301612781565b60405163be66117160e01b815260048101899052336024820152604490fd5b5060008051602061590583398151915260005260008552604060002033600052855260ff604060002054161561252e565b60405163e2acee5b60e01b8152600481018a9052602490fd5b3461035057602036600319011261035057600435612859613abe565b60ff60035460a01c16156104135761286f6141ab565b806000526005602052604060002060018060a01b03600282015460401c16156128db5760139061289e8361474a565b0161010061ff0019825416179055604051904282527f24168b3b8da257b2978fc0f2bd47398c317dcffe6c7aac125c8bcc2f4ef0616160203393a3005b60405163e2acee5b60e01b815260048101839052602490fd5b3461035057602036600319011261035057602061158960043561569b565b3461035057602036600319011261035057600061030060405161293481613865565b82815282602082015282604082015282606082015260606080820152606060a0820152606060c08201528260e08201528261010082015282610120820152826101408201528261016082015282610180820152826101a0820152826101c0820152826101e0820152606061020082015282610220820152826102408201528261026082015282610280820152826102a0820152826102c0820152826102e0820152015260043560005260056020526040600020604051906129f482613865565b8054825260018101546020830152600281015460c081901b6001600160c01b03191660408085019190915290811c6001600160a01b0316606084015251612a42816112438160038601614115565b6080830152604051612a5b816112438160048601614115565b60a0830152604051612a74816112438160058601614115565b60c08301526006810154600560ff821610156112755760ff811660e084015260ff8160081c16612aa3816139e6565b61010084015260ff8160101c16612ab9816139e6565b610120840152600760ff8260181c1610156112755760ff918260139260181c166101408501526007810154610160850152600881015461018085015260098101546101a0850152600a8101546101c0850152600b8101546101e0850152604051612b2a8161124381600c8601614115565b61020085015260018060a01b03600d82015416610220850152600e810154610240850152600f810154610260850152601081015461028085015260118101546102a085015260128101546102c0850152015481811615156102e084015260081c16151561030082015260405180916020825280516020830152602081015160408301526001600160401b0360c01b604082015116606083015260018060a01b036060820151166080830152610300612ccd612c28612c12612bfc608086015161032060a08901526103408801906139b4565b60a0860151878203601f190160c08901526139b4565b60c0850151868203601f190160e08801526139b4565b612c3b60e08501516101008701906139d9565b610100840151612c4a816139e6565b610120860152610120840151612c5f816139e6565b610140860152612c796101408501516101608701906139f0565b6101608401516101808601526101808401516101a08601526101a08401516101c08601526101c08401516101e08601526101e0840151610200860152610200840151601f19868303016102208701526139b4565b9160018060a01b03610220820151166102408501526102408101516102608501526102608101516102808501526102808101516102a08501526102a08101516102c08501526102c08101516102e08501526102e0810151151582850152015115156103208301520390f35b346103505760203660031901126103505760043560005260056020526020600960406000200154604051908152f35b3461035057600036600319011261035057612d80613cc3565b60ff60035460a01c16156104135760015460ff81161561245b5760ff19166001557f5db9ee0a495bf2e6ff9c91a7834c1ba4fdd244a5e8aa4e537bd38aeae4b073aa6020604051338152a1005b346103505760803660031901126103505760036024351015610350576064356001600160401b03811161035057612e08903690600401613973565b60ff60035460a01c161561041357612e1e6141ab565b612e2661428a565b62278d00604435116130b357600435600052600560205260406000209060018060a01b03600283015460401c1615611afb5760078201544210801590816130a5575b611ad45760ff600684015460181c1660078110158061127557600182141580613099575b611aaf5761127557159081613091575b50613081575b600435600052600660205260406000203360005260205260018060a01b0360406000205416611a7757600282015460c01b916003612eed60ff600684015460101c1680953390614e53565b93612ef7816139e6565b1480613076575b613056575b8215610c115760043560005260066020526040600020336000526020526040600020805460ff60a01b60243560a01b169060ff60a01b193316906affffffffffffffffffffff60a81b161717815583600182015542600282015582516001600160401b038111610a0957612f7e8161189c60038501546140db565b6020601f8211600114612fe157918161194a959492601294600091612fd6575b508160011b916000199060031b1c19161760038201555b600460443591015560043560005260076020526118f933604060002061438e565b905085015188612f9e565b6003830160005260206000209060005b601f198416811061303e5750826012949260019261194a989795601f19811610613025575b5050811b016003820155612fb5565b87015160001960f88460031b161c191690558880613016565b9091602060018192858a015181550193019101612ff1565b9161306f6127109161306960443561521e565b90613f86565b0491612f03565b506044351515612efe565b61308c6004356149b7565b612ea2565b905083612e9c565b50506000811515612e8c565b506008830154421015612e68565b604051631d8c48ad60e11b81526044356004820152602490fd5b3461035057600036600319011261035057602060ff60035460a01c166040519015158152f35b346103505760203660031901126103505760043560ff60035460a01c16156104135761311d6141ab565b806000526005602052604060002060018060a01b03600282015460401c168015611db957331415806131ad575b61318e5760ff600682015460181c166007811015611275576003146131755760139061289e8361474a565b60405163134c704360e11b815260048101839052602490fd5b60405163be66117160e01b815260048101839052336024820152604490fd5b503360009081527f6d33eec2c9abd62a2d387b6cfd66073fa7602819b8c7c8b5b52a059a88d074c5602052604090205460ff161561314a565b34610350576040366003190112610350576131ff6138d8565b336001600160a01b0382160361321b57610d7c90600435613f12565b60405162461bcd60e51b815260206004820152602f60248201527f416363657373436f6e74726f6c3a2063616e206f6e6c792072656e6f756e636560448201526e103937b632b9903337b91039b2b63360891b6064820152608490fd5b346103505760203660031901126103505760206115de6004356156ff565b3461035057602080600319360112610350576001600160a01b0390816132ba6138ee565b169081600052600c81526132d1604060002061556b565b918251916132de83615540565b926132ec60405194856138b7565b8084526132fb601f1991615540565b018160005b8281106133fc5750505060005b845181101561338d5780866133256133889388615557565b511684600052600b845260406000208861333f848a615557565b51166000528452604060002054604051916133598361384a565b868352858301526040820152600060608201526001608082015261337d8287615557565b5261126a8186615557565b61330d565b50925050604051918083018184528251809152816040850193019160005b8281106133b85785850386f35b835180518816865280830151881686840152604080820151908701526060808201519087015260809081015115159086015260a090940193928101926001016133ab565b6040516134088161384a565b60008152600083820152600060408201526000606082015260006080820152828288010152018290613300565b34610350576040366003190112610350576004356134516138d8565b81600052600060205261346b600160406000200154613e08565b81600052600060205260406000209060018060a01b0316908160005260205260ff604060002054161561349a57005b8160005260006020526040600020816000526020526040600020600160ff1982541617905533916000805160206158c5833981519152600080a4005b34610350576040366003190112610350576024356007811015610350576134fb613abe565b60ff60035460a01c161561041357610d7c906135156141ab565b600435614a51565b346103505760203660031901126103505760043560005260006020526020600160406000200154604051908152f35b34610350576000366003190112610350576020604051610e108152f35b34610350576040366003190112610350576135826138d8565b60ff60035460a01c161561041357610d7c9061359c6141ab565b6004356145e2565b346103505760003660031901126103505760206040517f8a21e8fdae6c23863f7de5307e2e7162c88dab602a41610addb5f1505d2593988152f35b34610350576060366003190112610350576135f86138d8565b604435906004821015610350576020916115de916004356000526005845260026040600020015460c01b614e53565b346103505760003660031901126103505760206040517fd8aa0f3194971a2a116679f7c2090f6939c8d4e01a2a8d7e41d55e5351469e638152f35b346103505760203660031901126103505760043563ffffffff60e01b811680910361035057602090637965db0b60e01b81149081156136a657506040519015158152f35b6301ffc9a760e01b149050826116cf565b346103505760e0366003190112610350576136d0613833565b60c0366023190112610350576136e582613881565b60243582526020820190604435825260408301916064358352606084019360843585526080810160a435815260c4359586151587036103505760a0830196875261372d613abe565b60ff60035460a01c1615610413576137436141ab565b61374c85614bc4565b8351610e1081108015613827575b61380f575062278d00865111610cbb57612710815111610cbb577f243c6c52c823c8f42d4874a16538fb81ae34fc56186d013d65b93b19e57ebbaa9560c0956001600160401b03871b169788600052600a602052600560406000209551968787555192836001880155519384600288015551948560038801555195866004820155019051151560ff8019835416911617905560405194855260208501526040840152606083015260808201524260a0820152a2005b60249060405190630779207f60e11b82526004820152fd5b5062278d00811161375a565b600435906001600160c01b03198216820361035057565b60a081019081106001600160401b03821117610a0957604052565b61032081019081106001600160401b03821117610a0957604052565b60c081019081106001600160401b03821117610a0957604052565b608081019081106001600160401b03821117610a0957604052565b90601f801991011681019081106001600160401b03821117610a0957604052565b602435906001600160a01b038216820361035057565b600435906001600160a01b038216820361035057565b346103505760003660031901126103505760206040516127108152f35b6001600160401b038111610a0957601f01601f191660200190565b92919261394882613921565b9161395660405193846138b7565b829481845281830111610350578281602093846000960137010152565b9080601f830112156103505781602061398e9335910161393c565b90565b60005b8381106139a45750506000910152565b8181015183820152602001613994565b906020916139cd81518092818552858086019101613991565b601f01601f1916010190565b9060058210156112755752565b6004111561127557565b9060078210156112755752565b6020908160408183019282815285518094520193019160005b828110613a24575050505090565b835185529381019392810192600101613a16565b3461035057600036600319011261035057602060405162278d008152f35b9060038210156112755752565b80516001600160a01b03168252602080820151919291613a8591830190613a56565b604082015160408201526060820151606082015260a080613ab5608085015160c0608086015260c08501906139b4565b93015191015290565b3360009081527f6d33eec2c9abd62a2d387b6cfd66073fa7602819b8c7c8b5b52a059a88d074c5602090815260408083205490926000805160206159058339815191529160ff1615613b105750505050565b613b1933613fcd565b91845190613b268261389c565b60428252848201926060368537825115613caf5760308453825190600191821015613caf5790607860218501536041915b818311613c4157505050613bff5760486114a0938693613be393613bd4985198899376020b1b1b2b9b9a1b7b73a3937b61d1030b1b1b7bab73a1604d1b8a860152613bab815180928c603789019101613991565b8401917001034b99036b4b9b9b4b733903937b6329607d1b603784015251809386840190613991565b010360288101875201856138b7565b5192839262461bcd60e51b8452600484015260248301906139b4565b60648486519062461bcd60e51b825280600483015260248201527f537472696e67733a20686578206c656e67746820696e73756666696369656e746044820152fd5b909192600f81166010811015613c9b576f181899199a1a9b1b9c1cb0b131b232b360811b901a613c718587613fa6565b5360041c928015613c8757600019019190613b57565b634e487b7160e01b82526011600452602482fd5b634e487b7160e01b83526032600452602483fd5b634e487b7160e01b81526032600452602490fd5b3360009081527f7d7ffb7a348e1c6a02869081a26547b49160dd3df72d1d75a570eb9b698292ec602090815260408083205490927fa49807205ce4d355092ef5a8a18f56e8913cf4a201fbe287825b095693c217759160ff1615613d275750505050565b613d3033613fcd565b91845190613d3d8261389c565b60428252848201926060368537825115613caf5760308453825190600191821015613caf5790607860218501536041915b818311613dc257505050613bff5760486114a0938693613be393613bd4985198899376020b1b1b2b9b9a1b7b73a3937b61d1030b1b1b7bab73a1604d1b8a860152613bab815180928c603789019101613991565b909192600f81166010811015613c9b576f181899199a1a9b1b9c1cb0b131b232b360811b901a613df28587613fa6565b5360041c928015613c8757600019019190613d6e565b600090808252602090828252604092838120338252835260ff848220541615613e315750505050565b613e3a33613fcd565b91845190613e478261389c565b60428252848201926060368537825115613caf5760308453825190600191821015613caf5790607860218501536041915b818311613ecc57505050613bff5760486114a0938693613be393613bd4985198899376020b1b1b2b9b9a1b7b73a3937b61d1030b1b1b7bab73a1604d1b8a860152613bab815180928c603789019101613991565b909192600f81166010811015613c9b576f181899199a1a9b1b9c1cb0b131b232b360811b901a613efc8587613fa6565b5360041c928015613c8757600019019190613e78565b9060009180835282602052604083209160018060a01b03169182845260205260ff604084205416613f4257505050565b80835282602052604083208284526020526040832060ff1981541690557ff6391f5c32d9c69d2a47ea670b442974b53935d1edc7fd64eb21e047a839171b339380a4565b81810292918115918404141715611a5957565b91908201809211611a5957565b908151811015613fb7570160200190565b634e487b7160e01b600052603260045260246000fd5b60405190606082018281106001600160401b03821117610a0957604052602a8252602082016040368237825115613fb757603090538151600190811015613fb757607860218401536029905b80821161406d5750506140295790565b606460405162461bcd60e51b815260206004820152602060248201527f537472696e67733a20686578206c656e67746820696e73756666696369656e746044820152fd5b9091600f811660108110156140c6576f181899199a1a9b1b9c1cb0b131b232b360811b901a61409c8486613fa6565b5360041c9180156140b1576000190190614019565b60246000634e487b7160e01b81526011600452fd5b60246000634e487b7160e01b81526032600452fd5b90600182811c9216801561410b575b60208310146140f557565b634e487b7160e01b600052602260045260246000fd5b91607f16916140ea565b9060009291805491614126836140db565b9182825260019384811690816000146141885750600114614148575b50505050565b90919394506000526020928360002092846000945b838610614174575050505001019038808080614142565b80548587018301529401938590820161415d565b9294505050602093945060ff191683830152151560051b01019038808080614142565b60ff600154166141b757565b60405162461bcd60e51b815260206004820152601060248201526f14185d5cd8589b194e881c185d5cd95960821b6044820152606490fd5b9081602091031261035057516001600160a01b03811681036103505790565b6000198114611a595760010190565b90601f811161422b57505050565b600091825260208220906020601f850160051c83019410614267575b601f0160051c01915b82811061425c57505050565b818155600101614250565b9092508290614247565b6007811015611275576000526009602052604060002090565b60028054146142995760028055565b60405162461bcd60e51b815260206004820152601f60248201527f5265656e7472616e637947756172643a207265656e7472616e742063616c6c006044820152606490fd5b8054821015613fb75760005260206000200190600090565b6000818152600e602052604081205461438957600d54600160401b811015614375576001810180600d558110156143615790826040927fd7b6990105719101dabeb77144f2a3385c8033acd3af97e9423a695e81ad1eb50155600d54928152600e6020522055600190565b634e487b7160e01b82526032600452602482fd5b634e487b7160e01b82526041600452602482fd5b905090565b9190600183016000908282528060205260408220541560001461440d57845494600160401b8610156143f957836143e96143d2886001604098999a018555846142de565b819391549060031b91821b91600019901b19161790565b9055549382526020522055600190565b634e487b7160e01b83526041600452602483fd5b50925050565b811561441d570490565b634e487b7160e01b600052601260045260246000fd5b600092918154614442816140db565b9260019180831690811561449a575060011461445e5750505050565b90919293945060005260209081600020906000915b8583106144895750505050019038808080614142565b805485840152918301918101614473565b60ff1916845250505081151590910201915038808080614142565b3d156144e0573d906144c682613921565b916144d460405193846138b7565b82523d6000602084013e565b606090565b91908203918211611a5957565b906001820190600092818452826020526040842054908115156000146145db57600019918083018181116145c7578254908482019182116145b35780820361457e575b5050508054801561456a5782019161454d83836142de565b909182549160031b1b191690555582526020526040812055600190565b634e487b7160e01b86526031600452602486fd5b61459e61458e6143d293866142de565b90549060031b1c928392866142de565b90558652846020526040862055388080614535565b634e487b7160e01b88526011600452602488fd5b634e487b7160e01b87526011600452602487fd5b5050505090565b60008181526006602090815260408083206001600160a01b039586168085529252822080549194909190811615801561473e575b614737576146286002830154426144e5565b9260048301549283851061472e576001614646910193845495614413565b60010180600111613c875761465b9085614413565b8093558481526005602052604081209060ff61467785876144e5565b9360a01c1690600382101561471a5750916146db6012606095938560017fdbfcd461ddc91a7d2735a6e935a779b9ab3ed0eb91c54c209e83580e1971f6209997146000146146f15750600f81016146cf8582546144e5565b90555b019182546144e5565b90556040519182526020820152426040820152a3565b61470b57601081016147048582546144e5565b90556146d2565b601181016147048582546144e5565b634e487b7160e01b81526021600452602490fd5b50505050505050565b5050505050565b50600482015415614616565b600081815260056020526040812090600682019060ff825460181c1690600782101561471a5760058214614737578460406147cb926000805160206158e5833981519152966060966147a48561479f89614271565b6144f2565b50630500000063ff00000019825416179055600b429101556005815260096020522061438e565b506147d960405180926139f0565b60056020820152426040820152a2565b600081815260056020526040812090600682019060ff825460181c1690600782101561471a576002821461473757846040614865926000805160206158e58339815191529660609661483e8561479f89614271565b50630200000063ff00000019825416179055600b429101556002815260096020522061438e565b5061487360405180926139f0565b60026020820152426040820152a2565b600081815260056020526040812090600682019060ff825460181c1690600782101561471a5760048214614737578460406148ff926000805160206158e5833981519152966060966148d88561479f89614271565b50630400000063ff00000019825416179055600b429101556004815260096020522061438e565b5061490d60405180926139f0565b60046020820152426040820152a2565b600081815260056020526040812090600682019060ff825460181c1690600782101561471a576003821461473757846040614999926000805160206158e5833981519152966060966149728561479f89614271565b50630300000063ff00000019825416179055600b429101556003815260096020522061438e565b506149a760405180926139f0565b60036020820152426040820152a2565b600081815260056020526040812090600682019060ff825460181c1690600782101561471a576001821461473757846040614a33926000805160206158e583398151915296606096614a0c8561479f89614271565b50630100000063ff00000019825416179055600b429101556001815260096020522061438e565b50614a4160405180926139f0565b60016020820152426040820152a2565b906000828152600560205260408120906006820160ff815460181c1691600785101561471a57600783101561471a5750838214614737576000805160206158e583398151915293606093614af492614aac8861479f87614271565b50805463ff0000008460181b169063ff0000001916179055600b42910155614adc86614ad783614271565b61438e565b50614aea60405180946139f0565b60208301906139f0565b426040820152a2565b806000526005602052604060002060088101544210614ba85760ff600682015460181c16600781101561127557600103614ba857614b3a82615255565b50505050600014614b9c576040816009614b7f836121e660027fa41177828e45756af65c61fece09dddf5390f789cfd1c43577aec3b6b390534f97015460c01b614dd7565b9101908155614b8d846147e9565b548151908152426020820152a2565b50614ba690614883565b565b5050565b90816020910312610350575180151581036103505790565b6001600160a01b03614bd4614c78565b16908115614c555760206024916040519283809263b4ae840f60e01b82526001600160401b0360c01b16958660048301525afa908115610c6557600091614c37575b5015614c1f5750565b60249060405190634fddb6dd60e11b82526004820152fd5b614c4f915060203d8111610c5e57610c5081836138b7565b38614c16565b604051634fddb6dd60e11b81526001600160c01b03199091166004820152602490fd5b60035460ff8160a01c1615610413576040516385acd64160e01b81527fbdded29a54e6a5d6169bedea55373b06f57e35d7b0f67ac187565b435e2cc943600482015290602090829060249082906001600160a01b03165afa908115610c6557600091614ce2575090565b61398e915060203d81116110415761103281836138b7565b60035460ff8160a01c1615610413576040516385acd64160e01b81527f22d7411a7f580429bdbda078568d1a64350dea337296e4fd855167b7e412b946600482015290602090829060249082906001600160a01b03165afa908115610c6557600091614ce2575090565b60405190614d7182613881565b8160a06000918281528260208201528260408201528260608201528260808201520152565b60405190614da382613881565b6010548252601154602083015260125460408301526013546060830152601454608083015260155460ff16151560a0830152565b614ddf614d64565b506001600160401b0360c01b16600052600a602052604060002060405190614e0682613881565b8054825260ff6005600183015492836020860152600281015460408601526003810154606086015260048101546080860152015416151560a083015215614e4a5790565b5061398e614d96565b9091614e5e816139e6565b80614f0057506001600160a01b03614e74614c78565b16918215614ef857604051631640e78d60e31b81526001600160c01b03199290921660048301526001600160a01b0316602482015290602090829060449082905afa908115610c6557600091614eda575b5060009015614ed45750600190565b60ff1690565b614ef2915060203d8111610c5e57610c5081836138b7565b38614ec5565b505050600090565b614f09816139e6565b60018103614f9057506001600160a01b0391905081614f26614cfa565b16918215614ef8576024602092604051948593849263dd2a8b1160e01b84521660048301525afa908115610c6557600091614f5f575090565b906020823d8211614f88575b81614f78602093836138b7565b81010312614f8557505190565b80fd5b3d9150614f6b565b80614f9c6002926139e6565b0361503357506001600160a01b039081614fb4614cfa565b16918215614ef8576024602092604051948593849263dd2a8b1160e01b84521660048301525afa908115610c6557600091615002575b506000908015614ffe5761398e9150615043565b5090565b906020823d821161502b575b8161501b602093836138b7565b81010312614f8557505138614fea565b3d915061500e565b6001600160a01b03614e74614c78565b801561517b5761510e816000908360801c8061516f575b508060401c80615162575b508060201c80615155575b508060101c80615148575b508060081c8061513b575b508060041c8061512e575b508060021c80615121575b50600191828092811c61511a575b1c1b6150b68185614413565b01811c6150c38185614413565b01811c6150d08185614413565b01811c6150dd8185614413565b01811c6150ea8185614413565b01811c6150f78185614413565b01811c6151048185614413565b01901c8092614413565b80821015614389575090565b01816150aa565b600291509101903861509c565b6004915091019038615091565b6008915091019038615086565b601091509101903861507b565b6020915091019038615070565b6040915091019038615065565b9150506080903861505a565b50600090565b6001600160a01b03615191614c78565b169081156152165760209060246040518094819363379aab3360e01b83526001600160401b0360c01b1660048301525afa908115610c65576000916151e3575b50612710916151df91613f86565b0490565b906020823d821161520e575b816151fc602093836138b7565b81010312614f855750516127106151d1565b3d91506151ef565b505050600190565b801561524e576201518090046103e890818102918183041490151715611a5957612710908101809111611a595790565b5061271090565b600090600080918152602091600583526040822091600f8301549460108401549460118501549461528f8661528a898b613f99565b613f99565b6001600160a01b0390816152a1614c78565b169081615446575b5050600e8201548610156152be575050505094565b60ff60068394959693015460081c166152d6816139e6565b806152e75750505050505082841194565b6152f3819b969b6139e6565b600181036153a55750615304614c78565b1691826153115750505050565b8394995060029093919293015460c01b60246040518095819363379aab3360e01b83526001600160401b0360c01b1660048301525afa928315615398578193615367575b50505060011c84119438808080614142565b9091809350813d8311615391575b61537f81836138b7565b81010312614f85575051388080615355565b503d615375565b50604051903d90823e3d90fd5b925050929791506153b5816139e6565b6002810361541f5750506153c98486613f99565b8015801592836153da575b50505094565b90919250600387029187830460031488151715613c87578360011b938404600214171561540b5750113880806153d4565b634e487b7160e01b81526011600452602490fd5b60039197925061542e816139e6565b03614ba657945082158061543f5794565b5083151594565b9091965083600284015460c01b60246040518095819363379aab3360e01b83526001600160401b0360c01b1660048301525afa9182156155035786926154d0575b5081156154c857612710908181029181830414901517156154b457906154ac91614413565b9438806152a9565b634e487b7160e01b86526011600452602486fd5b5050836154ac565b9091508381813d83116154fc575b6154e881836138b7565b810103126154f857519038615487565b8580fd5b503d6154de565b6040513d88823e3d90fd5b6040519061551b82613881565b600060a083828152826020820152826040820152826060820152606060808201520152565b6001600160401b038111610a095760051b60200190565b8051821015613fb75760209160051b010190565b9060405191828154918282526020928383019160005283600020936000905b8282106155a057505050614ba6925003836138b7565b85548452600195860195889550938101939091019061558a565b6000918183526005602052604083209260028401549260018060a01b0390818560401c161561565b5760068601549560ff8760181c166007811015615687576001811415908161567d575b506156735760078101544210908115615664575b5061565b5782526006602052604082208184168352602052604082205416615654575060ff61564f9360101c169160c01b614e53565b151590565b9250505090565b50509250505090565b60089150015442101538615619565b5050509250505090565b9050151538615605565b634e487b7160e01b85526021600452602485fd5b600090815260056020526040808220600281015490911c6001600160a01b031615614ffe5760ff600682015460181c1660078110156156eb57600203614ffe5760090154421061398e5750600190565b634e487b7160e01b83526021600452602483fd5b60005260056020526008604060002001548042101561517b5761398e9042906144e5565b90610e1081109081156157a8575b5061517b576001600160a01b03615746614c78565b169081156157a15760209060246040518094819363b4ae840f60e01b83526001600160401b0360c01b1660048301525afa908115610c6557600091615789575090565b61398e915060203d8111610c5e57610c5081836138b7565b5050600090565b62278d0091501138615731565b6000908152600560205260408120600c810154906157d2826140db565b15908115615817575b5061580f576157e9906140db565b9060448202918083046044149015171561540b57620186a091820180921161540b575090565b505061520890565b600d01546001600160a01b0316159050386157db565b6000908152600560205260408120600c81019061584a82546140db565b1580156158af575b61588857600d015460405183926001600160a01b03909216918190615878908290614433565b03915afa6158846144b5565b9091565b505060405160019291602082016001600160401b0381118382101761437557604052815290565b50600d8101546001600160a01b03161561585256fe2f8788117e7eff1d82e926ec794901d17c78024a50270940304540a733656f0d92996e23db3df1f01be913f8953552165b3e065dc488bb30bd40e2176055381014684b861e7ed8196bfd1e75a427098261dc7f825334a81d48ec74d12ef80dfea2646970667358221220de1ffa77c7b943257cb418615585ec15c12d83a109cad9190f5a44dfbeedaa6e64736f6c634300081400332f8788117e7eff1d82e926ec794901d17c78024a50270940304540a733656f0d",
  "linkReferences": {},
  "deployedLinkReferences": {}
}