{
  "_format": "hh-sol-artifact-1",
  "contractName": "Signal",
  "sourceName": "contracts/modules/Signal/Signal.sol",
  "abi": [
    {
      "inputs": [],
      "stateMutability": "nonpayable",
      "type": "constructor"
    },
    {
      "inputs": [
        {
          "internalType": "string",
          "name": "hierarchicalId",
          "type": "string"
        },
        {
          "internalType": "address",
          "name": "voter",
          "type": "address"
        }
      ],
      "name": "AlreadyVoted",
      "type": "error"
    },
    {
      "inputs": [
        {
          "internalType": "address",
          "name": "voter",
          "type": "address"
        },
        {
          "internalType": "uint256",
          "name": "required",
          "type": "uint256"
        },
        {
          "internalType": "uint256",
          "name": "available",
          "type": "uint256"
        }
      ],
      "name": "InsufficientVotingPower",
      "type": "error"
    },
    {
      "inputs": [
        {
          "internalType": "uint256",
          "name": "time",
          "type": "uint256"
        }
      ],
      "name": "InvalidConvictionTime",
      "type": "error"
    },
    {
      "inputs": [
        {
          "internalType": "uint256",
          "name": "amount",
          "type": "uint256"
        }
      ],
      "name": "InvalidDelegationAmount",
      "type": "error"
    },
    {
      "inputs": [],
      "name": "InvalidProposalParameters",
      "type": "error"
    },
    {
      "inputs": [
        {
          "internalType": "uint256",
          "name": "threshold",
          "type": "uint256"
        }
      ],
      "name": "InvalidQuorumThreshold",
      "type": "error"
    },
    {
      "inputs": [],
      "name": "InvalidRegistryAddress",
      "type": "error"
    },
    {
      "inputs": [
        {
          "internalType": "uint256",
          "name": "startTime",
          "type": "uint256"
        },
        {
          "internalType": "uint256",
          "name": "endTime",
          "type": "uint256"
        }
      ],
      "name": "InvalidVotingPeriod",
      "type": "error"
    },
    {
      "inputs": [],
      "name": "ModuleAlreadyInitialized",
      "type": "error"
    },
    {
      "inputs": [],
      "name": "ModuleNotInitialized",
      "type": "error"
    },
    {
      "inputs": [
        {
          "internalType": "address",
          "name": "voter",
          "type": "address"
        }
      ],
      "name": "NotEligibleToVote",
      "type": "error"
    },
    {
      "inputs": [],
      "name": "OnlyRegistry",
      "type": "error"
    },
    {
      "inputs": [
        {
          "internalType": "string",
          "name": "hierarchicalId",
          "type": "string"
        }
      ],
      "name": "ProposalAlreadyExecuted",
      "type": "error"
    },
    {
      "inputs": [
        {
          "internalType": "string",
          "name": "hierarchicalId",
          "type": "string"
        }
      ],
      "name": "ProposalNotActive",
      "type": "error"
    },
    {
      "inputs": [
        {
          "internalType": "string",
          "name": "hierarchicalId",
          "type": "string"
        }
      ],
      "name": "ProposalNotExecutable",
      "type": "error"
    },
    {
      "inputs": [
        {
          "internalType": "string",
          "name": "hierarchicalId",
          "type": "string"
        }
      ],
      "name": "ProposalNotFound",
      "type": "error"
    },
    {
      "inputs": [
        {
          "internalType": "string",
          "name": "hierarchicalId",
          "type": "string"
        }
      ],
      "name": "ProposalNotPending",
      "type": "error"
    },
    {
      "inputs": [
        {
          "internalType": "address",
          "name": "delegator",
          "type": "address"
        }
      ],
      "name": "SelfDelegationNotAllowed",
      "type": "error"
    },
    {
      "inputs": [
        {
          "internalType": "address",
          "name": "creator",
          "type": "address"
        }
      ],
      "name": "UnauthorizedProposalCreation",
      "type": "error"
    },
    {
      "inputs": [
        {
          "internalType": "address",
          "name": "executor",
          "type": "address"
        }
      ],
      "name": "UnauthorizedProposalExecution",
      "type": "error"
    },
    {
      "inputs": [
        {
          "internalType": "string",
          "name": "hierarchicalId",
          "type": "string"
        }
      ],
      "name": "VotingPeriodEnded",
      "type": "error"
    },
    {
      "inputs": [
        {
          "internalType": "string",
          "name": "hierarchicalId",
          "type": "string"
        }
      ],
      "name": "VotingPeriodNotEnded",
      "type": "error"
    },
    {
      "anonymous": false,
      "inputs": [
        {
          "indexed": true,
          "internalType": "string",
          "name": "hierarchicalId",
          "type": "string"
        },
        {
          "indexed": true,
          "internalType": "address",
          "name": "voter",
          "type": "address"
        },
        {
          "indexed": false,
          "internalType": "uint256",
          "name": "oldPower",
          "type": "uint256"
        },
        {
          "indexed": false,
          "internalType": "uint256",
          "name": "newPower",
          "type": "uint256"
        },
        {
          "indexed": false,
          "internalType": "uint256",
          "name": "timestamp",
          "type": "uint256"
        }
      ],
      "name": "ConvictionDecayApplied",
      "type": "event"
    },
    {
      "anonymous": false,
      "inputs": [
        {
          "indexed": true,
          "internalType": "string",
          "name": "hierarchicalId",
          "type": "string"
        },
        {
          "indexed": true,
          "internalType": "address",
          "name": "voter",
          "type": "address"
        },
        {
          "indexed": false,
          "internalType": "enum ISignal.VoteChoice",
          "name": "choice",
          "type": "uint8"
        },
        {
          "indexed": false,
          "internalType": "uint256",
          "name": "votingPower",
          "type": "uint256"
        },
        {
          "indexed": false,
          "internalType": "uint256",
          "name": "convictionMultiplier",
          "type": "uint256"
        },
        {
          "indexed": false,
          "internalType": "uint256",
          "name": "convictionTime",
          "type": "uint256"
        },
        {
          "indexed": false,
          "internalType": "string",
          "name": "reason",
          "type": "string"
        }
      ],
      "name": "ConvictionVoteCast",
      "type": "event"
    },
    {
      "anonymous": false,
      "inputs": [],
      "name": "ModuleDisabled",
      "type": "event"
    },
    {
      "anonymous": false,
      "inputs": [],
      "name": "ModuleEnabled",
      "type": "event"
    },
    {
      "anonymous": false,
      "inputs": [
        {
          "indexed": true,
          "internalType": "address",
          "name": "registry",
          "type": "address"
        }
      ],
      "name": "ModuleInitialized",
      "type": "event"
    },
    {
      "anonymous": false,
      "inputs": [
        {
          "indexed": false,
          "internalType": "address",
          "name": "account",
          "type": "address"
        }
      ],
      "name": "Paused",
      "type": "event"
    },
    {
      "anonymous": false,
      "inputs": [
        {
          "indexed": true,
          "internalType": "string",
          "name": "hierarchicalId",
          "type": "string"
        },
        {
          "indexed": true,
          "internalType": "address",
          "name": "canceler",
          "type": "address"
        },
        {
          "indexed": false,
          "internalType": "string",
          "name": "reason",
          "type": "string"
        }
      ],
      "name": "ProposalCanceled",
      "type": "event"
    },
    {
      "anonymous": false,
      "inputs": [
        {
          "indexed": false,
          "internalType": "string",
          "name": "hierarchicalId",
          "type": "string"
        },
        {
          "indexed": true,
          "internalType": "bytes8",
          "name": "organizationId",
          "type": "bytes8"
        },
        {
          "indexed": true,
          "internalType": "address",
          "name": "creator",
          "type": "address"
        },
        {
          "indexed": false,
          "internalType": "string",
          "name": "title",
          "type": "string"
        },
        {
          "indexed": false,
          "internalType": "enum ISignal.ProposalType",
          "name": "proposalType",
          "type": "uint8"
        },
        {
          "indexed": false,
          "internalType": "enum ISignal.VotingType",
          "name": "votingType",
          "type": "uint8"
        },
        {
          "indexed": false,
          "internalType": "uint256",
          "name": "votingPeriod",
          "type": "uint256"
        },
        {
          "indexed": false,
          "internalType": "uint256",
          "name": "startTime",
          "type": "uint256"
        },
        {
          "indexed": false,
          "internalType": "uint256",
          "name": "endTime",
          "type": "uint256"
        }
      ],
      "name": "ProposalCreated",
      "type": "event"
    },
    {
      "anonymous": false,
      "inputs": [
        {
          "indexed": true,
          "internalType": "string",
          "name": "hierarchicalId",
          "type": "string"
        },
        {
          "indexed": true,
          "internalType": "address",
          "name": "executor",
          "type": "address"
        },
        {
          "indexed": false,
          "internalType": "bool",
          "name": "success",
          "type": "bool"
        },
        {
          "indexed": false,
          "internalType": "bytes",
          "name": "returnData",
          "type": "bytes"
        }
      ],
      "name": "ProposalExecuted",
      "type": "event"
    },
    {
      "anonymous": false,
      "inputs": [
        {
          "indexed": true,
          "internalType": "bytes32",
          "name": "role",
          "type": "bytes32"
        },
        {
          "indexed": true,
          "internalType": "bytes32",
          "name": "previousAdminRole",
          "type": "bytes32"
        },
        {
          "indexed": true,
          "internalType": "bytes32",
          "name": "newAdminRole",
          "type": "bytes32"
        }
      ],
      "name": "RoleAdminChanged",
      "type": "event"
    },
    {
      "anonymous": false,
      "inputs": [
        {
          "indexed": true,
          "internalType": "bytes32",
          "name": "role",
          "type": "bytes32"
        },
        {
          "indexed": true,
          "internalType": "address",
          "name": "account",
          "type": "address"
        },
        {
          "indexed": true,
          "internalType": "address",
          "name": "sender",
          "type": "address"
        }
      ],
      "name": "RoleGranted",
      "type": "event"
    },
    {
      "anonymous": false,
      "inputs": [
        {
          "indexed": true,
          "internalType": "bytes32",
          "name": "role",
          "type": "bytes32"
        },
        {
          "indexed": true,
          "internalType": "address",
          "name": "account",
          "type": "address"
        },
        {
          "indexed": true,
          "internalType": "address",
          "name": "sender",
          "type": "address"
        }
      ],
      "name": "RoleRevoked",
      "type": "event"
    },
    {
      "anonymous": false,
      "inputs": [
        {
          "indexed": false,
          "internalType": "address",
          "name": "account",
          "type": "address"
        }
      ],
      "name": "Unpaused",
      "type": "event"
    },
    {
      "anonymous": false,
      "inputs": [
        {
          "indexed": false,
          "internalType": "string",
          "name": "hierarchicalId",
          "type": "string"
        },
        {
          "indexed": true,
          "internalType": "address",
          "name": "voter",
          "type": "address"
        },
        {
          "indexed": false,
          "internalType": "enum ISignal.VoteChoice",
          "name": "choice",
          "type": "uint8"
        },
        {
          "indexed": false,
          "internalType": "uint256",
          "name": "votingPower",
          "type": "uint256"
        },
        {
          "indexed": false,
          "internalType": "string",
          "name": "reason",
          "type": "string"
        }
      ],
      "name": "VoteCast",
      "type": "event"
    },
    {
      "anonymous": false,
      "inputs": [
        {
          "indexed": true,
          "internalType": "bytes8",
          "name": "organizationId",
          "type": "bytes8"
        },
        {
          "components": [
            {
              "internalType": "uint256",
              "name": "votingDelay",
              "type": "uint256"
            },
            {
              "internalType": "uint256",
              "name": "votingPeriod",
              "type": "uint256"
            },
            {
              "internalType": "uint256",
              "name": "executionDelay",
              "type": "uint256"
            },
            {
              "internalType": "uint256",
              "name": "quorumThreshold",
              "type": "uint256"
            },
            {
              "internalType": "uint256",
              "name": "proposalThreshold",
              "type": "uint256"
            },
            {
              "internalType": "bool",
              "name": "requireMembership",
              "type": "bool"
            }
          ],
          "indexed": false,
          "internalType": "struct ISignal.VotingParameters",
          "name": "parameters",
          "type": "tuple"
        }
      ],
      "name": "VotingParametersUpdated",
      "type": "event"
    },
    {
      "anonymous": false,
      "inputs": [
        {
          "indexed": true,
          "internalType": "address",
          "name": "delegator",
          "type": "address"
        },
        {
          "indexed": true,
          "internalType": "address",
          "name": "delegatee",
          "type": "address"
        },
        {
          "indexed": false,
          "internalType": "uint256",
          "name": "amount",
          "type": "uint256"
        },
        {
          "indexed": false,
          "internalType": "uint256",
          "name": "timestamp",
          "type": "uint256"
        }
      ],
      "name": "VotingPowerDelegated",
      "type": "event"
    },
    {
      "anonymous": false,
      "inputs": [
        {
          "indexed": true,
          "internalType": "address",
          "name": "delegator",
          "type": "address"
        },
        {
          "indexed": true,
          "internalType": "address",
          "name": "delegatee",
          "type": "address"
        },
        {
          "indexed": false,
          "internalType": "uint256",
          "name": "amount",
          "type": "uint256"
        },
        {
          "indexed": false,
          "internalType": "uint256",
          "name": "timestamp",
          "type": "uint256"
        }
      ],
      "name": "VotingPowerUndelegated",
      "type": "event"
    },
    {
      "inputs": [],
      "name": "ADMIN_ROLE",
      "outputs": [
        {
          "internalType": "bytes32",
          "name": "",
          "type": "bytes32"
        }
      ],
      "stateMutability": "view",
      "type": "function"
    },
    {
      "inputs": [],
      "name": "BASIS_POINTS",
      "outputs": [
        {
          "internalType": "uint256",
          "name": "",
          "type": "uint256"
        }
      ],
      "stateMutability": "view",
      "type": "function"
    },
    {
      "inputs": [],
      "name": "DEFAULT_ADMIN_ROLE",
      "outputs": [
        {
          "internalType": "bytes32",
          "name": "",
          "type": "bytes32"
        }
      ],
      "stateMutability": "view",
      "type": "function"
    },
    {
      "inputs": [],
      "name": "EXECUTOR_ROLE",
      "outputs": [
        {
          "internalType": "bytes32",
          "name": "",
          "type": "bytes32"
        }
      ],
      "stateMutability": "view",
      "type": "function"
    },
    {
      "inputs": [],
      "name": "MAX_EXECUTION_DELAY",
      "outputs": [
        {
          "internalType": "uint256",
          "name": "",
          "type": "uint256"
        }
      ],
      "stateMutability": "view",
      "type": "function"
    },
    {
      "inputs": [],
      "name": "MAX_QUORUM_THRESHOLD",
      "outputs": [
        {
          "internalType": "uint256",
          "name": "",
          "type": "uint256"
        }
      ],
      "stateMutability": "view",
      "type": "function"
    },
    {
      "inputs": [],
      "name": "MAX_VOTING_PERIOD",
      "outputs": [
        {
          "internalType": "uint256",
          "name": "",
          "type": "uint256"
        }
      ],
      "stateMutability": "view",
      "type": "function"
    },
    {
      "inputs": [],
      "name": "MIN_VOTING_PERIOD",
      "outputs": [
        {
          "internalType": "uint256",
          "name": "",
          "type": "uint256"
        }
      ],
      "stateMutability": "view",
      "type": "function"
    },
    {
      "inputs": [],
      "name": "MODULE_ADMIN_ROLE",
      "outputs": [
        {
          "internalType": "bytes32",
          "name": "",
          "type": "bytes32"
        }
      ],
      "stateMutability": "view",
      "type": "function"
    },
    {
      "inputs": [],
      "name": "OPERATOR_ROLE",
      "outputs": [
        {
          "internalType": "bytes32",
          "name": "",
          "type": "bytes32"
        }
      ],
      "stateMutability": "view",
      "type": "function"
    },
    {
      "inputs": [],
      "name": "PROPOSAL_CREATOR_ROLE",
      "outputs": [
        {
          "internalType": "bytes32",
          "name": "",
          "type": "bytes32"
        }
      ],
      "stateMutability": "view",
      "type": "function"
    },
    {
      "inputs": [],
      "name": "SIGNAL_ADMIN_ROLE",
      "outputs": [
        {
          "internalType": "bytes32",
          "name": "",
          "type": "bytes32"
        }
      ],
      "stateMutability": "view",
      "type": "function"
    },
    {
      "inputs": [
        {
          "internalType": "string",
          "name": "hierarchicalId",
          "type": "string"
        },
        {
          "internalType": "address",
          "name": "voter",
          "type": "address"
        }
      ],
      "name": "applyConvictionDecay",
      "outputs": [],
      "stateMutability": "nonpayable",
      "type": "function"
    },
    {
      "inputs": [
        {
          "internalType": "uint256",
          "name": "convictionTime",
          "type": "uint256"
        }
      ],
      "name": "calculateConvictionMultiplier",
      "outputs": [
        {
          "internalType": "uint256",
          "name": "",
          "type": "uint256"
        }
      ],
      "stateMutability": "pure",
      "type": "function"
    },
    {
      "inputs": [
        {
          "internalType": "string",
          "name": "hierarchicalId",
          "type": "string"
        },
        {
          "internalType": "address",
          "name": "voter",
          "type": "address"
        },
        {
          "internalType": "enum ISignal.VotingPower",
          "name": "powerType",
          "type": "uint8"
        }
      ],
      "name": "calculateVotingPower",
      "outputs": [
        {
          "internalType": "uint256",
          "name": "",
          "type": "uint256"
        }
      ],
      "stateMutability": "view",
      "type": "function"
    },
    {
      "inputs": [
        {
          "internalType": "string",
          "name": "hierarchicalId",
          "type": "string"
        }
      ],
      "name": "canExecute",
      "outputs": [
        {
          "internalType": "bool",
          "name": "",
          "type": "bool"
        }
      ],
      "stateMutability": "view",
      "type": "function"
    },
    {
      "inputs": [
        {
          "internalType": "string",
          "name": "hierarchicalId",
          "type": "string"
        },
        {
          "internalType": "address",
          "name": "voter",
          "type": "address"
        }
      ],
      "name": "canVote",
      "outputs": [
        {
          "internalType": "bool",
          "name": "",
          "type": "bool"
        }
      ],
      "stateMutability": "view",
      "type": "function"
    },
    {
      "inputs": [
        {
          "internalType": "string",
          "name": "hierarchicalId",
          "type": "string"
        },
        {
          "internalType": "string",
          "name": "reason",
          "type": "string"
        }
      ],
      "name": "cancelProposal",
      "outputs": [],
      "stateMutability": "nonpayable",
      "type": "function"
    },
    {
      "inputs": [
        {
          "internalType": "string",
          "name": "hierarchicalId",
          "type": "string"
        },
        {
          "internalType": "enum ISignal.VoteChoice",
          "name": "choice",
          "type": "uint8"
        },
        {
          "internalType": "string",
          "name": "reason",
          "type": "string"
        }
      ],
      "name": "castVote",
      "outputs": [],
      "stateMutability": "nonpayable",
      "type": "function"
    },
    {
      "inputs": [
        {
          "internalType": "string",
          "name": "hierarchicalId",
          "type": "string"
        },
        {
          "internalType": "enum ISignal.VoteChoice",
          "name": "choice",
          "type": "uint8"
        },
        {
          "internalType": "uint256",
          "name": "convictionTime",
          "type": "uint256"
        },
        {
          "internalType": "string",
          "name": "reason",
          "type": "string"
        }
      ],
      "name": "castVoteWithConviction",
      "outputs": [],
      "stateMutability": "nonpayable",
      "type": "function"
    },
    {
      "inputs": [
        {
          "internalType": "bytes8",
          "name": "organizationId",
          "type": "bytes8"
        },
        {
          "internalType": "string",
          "name": "title",
          "type": "string"
        },
        {
          "internalType": "string",
          "name": "description",
          "type": "string"
        },
        {
          "internalType": "string",
          "name": "metadataURI",
          "type": "string"
        },
        {
          "internalType": "enum ISignal.ProposalType",
          "name": "proposalType",
          "type": "uint8"
        },
        {
          "internalType": "enum ISignal.VotingType",
          "name": "votingType",
          "type": "uint8"
        },
        {
          "internalType": "enum ISignal.VotingPower",
          "name": "votingPower",
          "type": "uint8"
        },
        {
          "internalType": "uint256",
          "name": "votingPeriod",
          "type": "uint256"
        },
        {
          "internalType": "bytes",
          "name": "executionData",
          "type": "bytes"
        },
        {
          "internalType": "address",
          "name": "targetContract",
          "type": "address"
        }
      ],
      "name": "createProposal",
      "outputs": [
        {
          "internalType": "string",
          "name": "hierarchicalId",
          "type": "string"
        }
      ],
      "stateMutability": "nonpayable",
      "type": "function"
    },
    {
      "inputs": [
        {
          "internalType": "address",
          "name": "delegatee",
          "type": "address"
        },
        {
          "internalType": "uint256",
          "name": "amount",
          "type": "uint256"
        }
      ],
      "name": "delegateVotingPower",
      "outputs": [],
      "stateMutability": "nonpayable",
      "type": "function"
    },
    {
      "inputs": [],
      "name": "emergencyPause",
      "outputs": [],
      "stateMutability": "nonpayable",
      "type": "function"
    },
    {
      "inputs": [],
      "name": "emergencyUnpause",
      "outputs": [],
      "stateMutability": "nonpayable",
      "type": "function"
    },
    {
      "inputs": [
        {
          "internalType": "string",
          "name": "hierarchicalId",
          "type": "string"
        }
      ],
      "name": "executeProposal",
      "outputs": [
        {
          "internalType": "bool",
          "name": "success",
          "type": "bool"
        },
        {
          "internalType": "bytes",
          "name": "returnData",
          "type": "bytes"
        }
      ],
      "stateMutability": "nonpayable",
      "type": "function"
    },
    {
      "inputs": [
        {
          "internalType": "address",
          "name": "delegator",
          "type": "address"
        }
      ],
      "name": "getDelegatedVotingPower",
      "outputs": [
        {
          "internalType": "uint256",
          "name": "",
          "type": "uint256"
        }
      ],
      "stateMutability": "view",
      "type": "function"
    },
    {
      "inputs": [
        {
          "internalType": "address",
          "name": "delegator",
          "type": "address"
        }
      ],
      "name": "getDelegations",
      "outputs": [
        {
          "components": [
            {
              "internalType": "address",
              "name": "delegatee",
              "type": "address"
            },
            {
              "internalType": "uint256",
              "name": "amount",
              "type": "uint256"
            },
            {
              "internalType": "uint256",
              "name": "timestamp",
              "type": "uint256"
            },
            {
              "internalType": "bool",
              "name": "active",
              "type": "bool"
            }
          ],
          "internalType": "struct ISignal.Delegation[]",
          "name": "",
          "type": "tuple[]"
        }
      ],
      "stateMutability": "view",
      "type": "function"
    },
    {
      "inputs": [
        {
          "internalType": "bytes8",
          "name": "organizationId",
          "type": "bytes8"
        }
      ],
      "name": "getOrganizationProposals",
      "outputs": [
        {
          "internalType": "bytes32[]",
          "name": "",
          "type": "bytes32[]"
        }
      ],
      "stateMutability": "view",
      "type": "function"
    },
    {
      "inputs": [
        {
          "internalType": "string",
          "name": "hierarchicalId",
          "type": "string"
        }
      ],
      "name": "getProposal",
      "outputs": [
        {
          "components": [
            {
              "internalType": "string",
              "name": "hierarchicalId",
              "type": "string"
            },
            {
              "internalType": "bytes8",
              "name": "organizationId",
              "type": "bytes8"
            },
            {
              "internalType": "address",
              "name": "creator",
              "type": "address"
            },
            {
              "internalType": "string",
              "name": "title",
              "type": "string"
            },
            {
              "internalType": "string",
              "name": "description",
              "type": "string"
            },
            {
              "internalType": "string",
              "name": "metadataURI",
              "type": "string"
            },
            {
              "internalType": "enum ISignal.ProposalType",
              "name": "proposalType",
              "type": "uint8"
            },
            {
              "internalType": "enum ISignal.VotingType",
              "name": "votingType",
              "type": "uint8"
            },
            {
              "internalType": "enum ISignal.VotingPower",
              "name": "votingPower",
              "type": "uint8"
            },
            {
              "internalType": "enum ISignal.ProposalState",
              "name": "state",
              "type": "uint8"
            },
            {
              "internalType": "uint256",
              "name": "startTime",
              "type": "uint256"
            },
            {
              "internalType": "uint256",
              "name": "endTime",
              "type": "uint256"
            },
            {
              "internalType": "uint256",
              "name": "executionTime",
              "type": "uint256"
            },
            {
              "internalType": "uint256",
              "name": "forVotes",
              "type": "uint256"
            },
            {
              "internalType": "uint256",
              "name": "againstVotes",
              "type": "uint256"
            },
            {
              "internalType": "uint256",
              "name": "abstainVotes",
              "type": "uint256"
            },
            {
              "internalType": "bytes",
              "name": "executionData",
              "type": "bytes"
            },
            {
              "internalType": "address",
              "name": "targetContract",
              "type": "address"
            },
            {
              "internalType": "address",
              "name": "executor",
              "type": "address"
            },
            {
              "internalType": "uint256",
              "name": "createdAt",
              "type": "uint256"
            },
            {
              "internalType": "uint256",
              "name": "executedAt",
              "type": "uint256"
            }
          ],
          "internalType": "struct ISignal.Proposal",
          "name": "",
          "type": "tuple"
        }
      ],
      "stateMutability": "view",
      "type": "function"
    },
    {
      "inputs": [
        {
          "internalType": "enum ISignal.ProposalState",
          "name": "state",
          "type": "uint8"
        }
      ],
      "name": "getProposalsByState",
      "outputs": [
        {
          "internalType": "bytes32[]",
          "name": "",
          "type": "bytes32[]"
        }
      ],
      "stateMutability": "view",
      "type": "function"
    },
    {
      "inputs": [
        {
          "internalType": "bytes32",
          "name": "role",
          "type": "bytes32"
        }
      ],
      "name": "getRoleAdmin",
      "outputs": [
        {
          "internalType": "bytes32",
          "name": "",
          "type": "bytes32"
        }
      ],
      "stateMutability": "view",
      "type": "function"
    },
    {
      "inputs": [
        {
          "internalType": "string",
          "name": "hierarchicalId",
          "type": "string"
        },
        {
          "internalType": "address",
          "name": "voter",
          "type": "address"
        }
      ],
      "name": "getVote",
      "outputs": [
        {
          "components": [
            {
              "internalType": "address",
              "name": "voter",
              "type": "address"
            },
            {
              "internalType": "enum ISignal.VoteChoice",
              "name": "choice",
              "type": "uint8"
            },
            {
              "internalType": "uint256",
              "name": "votingPower",
              "type": "uint256"
            },
            {
              "internalType": "uint256",
              "name": "timestamp",
              "type": "uint256"
            },
            {
              "internalType": "string",
              "name": "reason",
              "type": "string"
            },
            {
              "internalType": "bool",
              "name": "hasVoted",
              "type": "bool"
            },
            {
              "internalType": "uint256",
              "name": "convictionTime",
              "type": "uint256"
            },
            {
              "internalType": "uint256",
              "name": "convictionMultiplier",
              "type": "uint256"
            }
          ],
          "internalType": "struct ISignal.Vote",
          "name": "",
          "type": "tuple"
        }
      ],
      "stateMutability": "view",
      "type": "function"
    },
    {
      "inputs": [
        {
          "internalType": "bytes8",
          "name": "organizationId",
          "type": "bytes8"
        }
      ],
      "name": "getVotingParameters",
      "outputs": [
        {
          "components": [
            {
              "internalType": "uint256",
              "name": "votingDelay",
              "type": "uint256"
            },
            {
              "internalType": "uint256",
              "name": "votingPeriod",
              "type": "uint256"
            },
            {
              "internalType": "uint256",
              "name": "executionDelay",
              "type": "uint256"
            },
            {
              "internalType": "uint256",
              "name": "quorumThreshold",
              "type": "uint256"
            },
            {
              "internalType": "uint256",
              "name": "proposalThreshold",
              "type": "uint256"
            },
            {
              "internalType": "bool",
              "name": "requireMembership",
              "type": "bool"
            }
          ],
          "internalType": "struct ISignal.VotingParameters",
          "name": "",
          "type": "tuple"
        }
      ],
      "stateMutability": "view",
      "type": "function"
    },
    {
      "inputs": [
        {
          "internalType": "bytes8",
          "name": "organizationId",
          "type": "bytes8"
        },
        {
          "internalType": "address",
          "name": "account",
          "type": "address"
        },
        {
          "internalType": "enum ISignal.VotingPower",
          "name": "votingPowerType",
          "type": "uint8"
        }
      ],
      "name": "getVotingPowerWithDelegation",
      "outputs": [
        {
          "internalType": "uint256",
          "name": "",
          "type": "uint256"
        }
      ],
      "stateMutability": "view",
      "type": "function"
    },
    {
      "inputs": [
        {
          "internalType": "bytes32",
          "name": "role",
          "type": "bytes32"
        },
        {
          "internalType": "address",
          "name": "account",
          "type": "address"
        }
      ],
      "name": "grantRole",
      "outputs": [],
      "stateMutability": "nonpayable",
      "type": "function"
    },
    {
      "inputs": [
        {
          "internalType": "bytes32",
          "name": "role",
          "type": "bytes32"
        },
        {
          "internalType": "address",
          "name": "account",
          "type": "address"
        }
      ],
      "name": "hasRole",
      "outputs": [
        {
          "internalType": "bool",
          "name": "",
          "type": "bool"
        }
      ],
      "stateMutability": "view",
      "type": "function"
    },
    {
      "inputs": [
        {
          "internalType": "address",
          "name": "registryAddress",
          "type": "address"
        }
      ],
      "name": "initialize",
      "outputs": [],
      "stateMutability": "nonpayable",
      "type": "function"
    },
    {
      "inputs": [],
      "name": "isInitialized",
      "outputs": [
        {
          "internalType": "bool",
          "name": "",
          "type": "bool"
        }
      ],
      "stateMutability": "view",
      "type": "function"
    },
    {
      "inputs": [],
      "name": "moduleId",
      "outputs": [
        {
          "internalType": "bytes32",
          "name": "",
          "type": "bytes32"
        }
      ],
      "stateMutability": "pure",
      "type": "function"
    },
    {
      "inputs": [],
      "name": "onModuleDisabled",
      "outputs": [],
      "stateMutability": "nonpayable",
      "type": "function"
    },
    {
      "inputs": [],
      "name": "onModuleEnabled",
      "outputs": [],
      "stateMutability": "nonpayable",
      "type": "function"
    },
    {
      "inputs": [],
      "name": "pause",
      "outputs": [],
      "stateMutability": "nonpayable",
      "type": "function"
    },
    {
      "inputs": [],
      "name": "paused",
      "outputs": [
        {
          "internalType": "bool",
          "name": "",
          "type": "bool"
        }
      ],
      "stateMutability": "view",
      "type": "function"
    },
    {
      "inputs": [],
      "name": "registry",
      "outputs": [
        {
          "internalType": "address",
          "name": "",
          "type": "address"
        }
      ],
      "stateMutability": "view",
      "type": "function"
    },
    {
      "inputs": [
        {
          "internalType": "bytes32",
          "name": "role",
          "type": "bytes32"
        },
        {
          "internalType": "address",
          "name": "account",
          "type": "address"
        }
      ],
      "name": "renounceRole",
      "outputs": [],
      "stateMutability": "nonpayable",
      "type": "function"
    },
    {
      "inputs": [
        {
          "internalType": "bytes32",
          "name": "role",
          "type": "bytes32"
        },
        {
          "internalType": "address",
          "name": "account",
          "type": "address"
        }
      ],
      "name": "revokeRole",
      "outputs": [],
      "stateMutability": "nonpayable",
      "type": "function"
    },
    {
      "inputs": [
        {
          "internalType": "bytes8",
          "name": "organizationId",
          "type": "bytes8"
        },
        {
          "components": [
            {
              "internalType": "uint256",
              "name": "votingDelay",
              "type": "uint256"
            },
            {
              "internalType": "uint256",
              "name": "votingPeriod",
              "type": "uint256"
            },
            {
              "internalType": "uint256",
              "name": "executionDelay",
              "type": "uint256"
            },
            {
              "internalType": "uint256",
              "name": "quorumThreshold",
              "type": "uint256"
            },
            {
              "internalType": "uint256",
              "name": "proposalThreshold",
              "type": "uint256"
            },
            {
              "internalType": "bool",
              "name": "requireMembership",
              "type": "bool"
            }
          ],
          "internalType": "struct ISignal.VotingParameters",
          "name": "params",
          "type": "tuple"
        }
      ],
      "name": "setVotingParameters",
      "outputs": [],
      "stateMutability": "nonpayable",
      "type": "function"
    },
    {
      "inputs": [
        {
          "internalType": "bytes4",
          "name": "interfaceId",
          "type": "bytes4"
        }
      ],
      "name": "supportsInterface",
      "outputs": [
        {
          "internalType": "bool",
          "name": "",
          "type": "bool"
        }
      ],
      "stateMutability": "view",
      "type": "function"
    },
    {
      "inputs": [
        {
          "internalType": "address",
          "name": "delegatee",
          "type": "address"
        },
        {
          "internalType": "uint256",
          "name": "amount",
          "type": "uint256"
        }
      ],
      "name": "undelegateVotingPower",
      "outputs": [],
      "stateMutability": "nonpayable",
      "type": "function"
    },
    {
      "inputs": [],
      "name": "unpause",
      "outputs": [],
      "stateMutability": "nonpayable",
      "type": "function"
    },
    {
      "inputs": [],
      "name": "version",
      "outputs": [
        {
          "internalType": "string",
          "name": "",
          "type": "string"
        }
      ],
      "stateMutability": "view",
      "type": "function"
    }
  ],
  "bytecode": "0x608060405234620000265762000014620001e7565b6040516154d46200069582396154d490f35b600080fd5b634e487b7160e01b600052604160045260246000fd5b90601f01601f191681019081106001600160401b038211176200006357604052565b6200002b565b90620000806200007860405190565b928362000041565b565b6001600160401b0381116200006357602090601f01601f19160190565b90620000b5620000af8362000082565b62000069565b918252565b620000c660056200009f565b640312e302e360dc1b602082015290565b620000e1620000ba565b90565b620000e160c062000069565b620000e1620000e1620000e19290565b90600019905b9181191691161790565b9062000124620000e16200012c92620000f0565b825462000100565b9055565b9060ff9062000106565b906200014d620000e16200012c92151590565b825462000130565b620000809190620001d49060a0906005906200017b8162000174875190565b9062000110565b6200018f6001820162000174602088015190565b620001a36002820162000174604088015190565b620001b76003820162000174606088015190565b620001cb6004820162000174608088015190565b01920151151590565b906200013a565b90620000809162000155565b620001f1620000d7565b620001fc9062000300565b62015180600160646103e86202a30062093a8062000219620000e4565b956200022590620000f0565b86526200023290620000f0565b60208601526200024290620000f0565b60408501526200025290620000f0565b60608401526200026290620000f0565b6080830152151560a08201526200027b906012620001db565b33620002a8817f14684b861e7ed8196bfd1e75a427098261dc7f825334a81d48ec74d12ef80dfe620005e6565b620002d4817f8a21e8fdae6c23863f7de5307e2e7162c88dab602a41610addb5f1505d259398620005e6565b62000080907fd8aa0f3194971a2a116679f7c2090f6939c8d4e01a2a8d7e41d55e5351469e63620005e6565b6200008090620004ff565b634e487b7160e01b600052602260045260246000fd5b906001600283049216801562000344575b60208310146200033e57565b6200030b565b91607f169162000332565b9160001960089290920291821b911b62000106565b919062000379620000e16200012c93620000f0565b9083546200034f565b620000809160009162000364565b8181106200039c575050565b80620003ac600060019362000382565b0162000390565b9190601f8111620003c357505050565b620003d76200008093600052602060002090565b906020601f840181900483019310620003fb575b6020601f90910104019062000390565b9091508190620003eb565b9062000410815190565b906001600160401b0382116200006357620004388262000431855462000321565b85620003b3565b602090601f831160011462000477576200012c9291600091836200046b575b5050600019600883021c1916906002021790565b01519050388062000457565b601f198316916200048d85600052602060002090565b9260005b818110620004ce57509160029391856001969410620004b4575b50505002019055565b01516000196008601f8516021c19169055388080620004ab565b9193602060018192878701518155019501920162000491565b90620000809162000406565b620000e16000620000f0565b62000516906200050e62000564565b6004620004e7565b6200008062000524620004f3565b62000531338092620005e6565b7fa49807205ce4d355092ef5a8a18f56e8913cf4a201fbe287825b095693c21775620005e6565b620000e16001620000f0565b6200056e62000584565b620000806200057c62000558565b600262000110565b62000080600060016200013a565b905b600052602052604060002090565b620000e190620005b8906001600160a01b031682565b6001600160a01b031690565b620000e190620005a2565b620000e190620005c4565b906200059490620005cf565b90620005fb620005f7828462000675565b1590565b62000604575050565b6200062a6001620006248360006200061d878262000592565b01620005da565b6200013a565b3390620006646200065d6200065d7f2f8788117e7eff1d82e926ec794901d17c78024a50270940304540a733656f0d9590565b92620005cf565b926200066f60405190565b600090a4565b620000e1916200068d916200061d6000918262000592565b5460ff169056fe6080604052600436101561001257600080fd5b60003560e01c80621221211461033757806301ffc9a71461033257806307bd02651461032d578063127ec2831461025b57806315b3958e1461032857806316495f0e14610323578063215809ca1461031e578063248a9ca31461031957806325d3a09d146103145780632cfe27f01461030f5780632d47f9f81461030a5780632f2ff15d1461030557806331cc13ba1461030057806336568abe146102fb578063389e29f2146102f6578063392e53cd146102f15780633f4ba83a146102ec5780634a4e3bd5146102e757806351858e27146102e257806354fd4d50146102dd5780635c975abb146102d85780636da25a54146102d357806375251dd5146102ce57806375b238fc146102c9578063762d9f8b146102c45780637b103999146102bf5780637bc8450f146102ba5780637c28b9be146102b55780638456cb59146102b057806391d14854146102ab578063966d3dc7146102a65780639b4326fb146102a1578063a1308f271461029c578063a217fddf14610297578063a2bcdc0f14610292578063a64e024a14610274578063a845a05b1461028d578063aa7318aa14610288578063acfa0b9414610283578063b502f5541461027e578063bacc132314610279578063bc03d28014610274578063c25ec9471461026f578063c4d66de81461026a578063d547741f14610265578063d8ec138614610260578063e1f1c4a71461025b578063ebf8a3e614610256578063f2bd42be14610251578063f5b541a61461024c5763fb24973c0361034f5761144a565b611411565b6113d8565b6113c0565b610579565b611398565b611288565b611270565b611257565b6110fc565b61123c565b6111f8565b6111d1565b61115f565b611143565b6110cf565b61105f565b611014565b610fec565b610f44565b610efb565b610ee3565b610ebc565b610e3e565b610e08565b610def565b610d6d565b610d54565b610d16565b610cfb565b610cd3565b610caa565b610c92565b610c7a565b610c5f565b610c43565b610bb0565b610b89565b610aad565b610a6e565b6109dd565b61099c565b6106c7565b610698565b61066a565b610594565b610514565b6104dc565b610485565b6001600160c01b031981165b0361034f57565b600080fd5b905035906103618261033c565b565b634e487b7160e01b600052604160045260246000fd5b90601f01601f1916810190811067ffffffffffffffff82111761039b57604052565b610363565b906103616103ad60405190565b9283610379565b80610348565b90503590610361826103b4565b801515610348565b90503590610361826103c7565b91909160c08184031261034f576104596103f660c06103a0565b93600061040382856103ba565b908601526020610415828286016103ba565b908601526040610427828286016103ba565b908601526060610439828286016103ba565b90860152608061044b828286016103ba565b9086015260a08093016103cf565b90830152565b919060e08382031261034f57610482906104798185610354565b936020016103dc565b90565b3461034f5761049e61049836600461045f565b906153ab565b604051005b0390f35b6001600160e01b03198116610348565b90503590610361826104a7565b9060208282031261034f57610482916104b7565b9052565b3461034f576104a36104f76104f23660046104c4565b611483565b60405191829182901515815260200190565b600091031261034f57565b3461034f57610524366004610509565b6104a37fd8aa0f3194971a2a116679f7c2090f6939c8d4e01a2a8d7e41d55e5351469e635b6040519182918290815260200190565b6104826104826104829290565b610482612710610559565b610482610566565b3461034f57610589366004610509565b6104a3610549610571565b3461034f576105a4366004610509565b6104a37f8a21e8fdae6c23863f7de5307e2e7162c88dab602a41610addb5f1505d259398610549565b67ffffffffffffffff811161039b57602090601f01601f19160190565b0190565b90826000939282370152565b9092919261060f61060a826105cd565b6103a0565b9381855260208501908284011161034f57610361926105ee565b9080601f8301121561034f57816020610482933591016105fa565b9060208282031261034f57813567ffffffffffffffff811161034f576104829201610629565b3461034f576104a36104f7610680366004610644565b615404565b610482610e10610559565b610482610685565b3461034f576106a8366004610509565b6104a3610549610690565b9060208282031261034f57610482916103ba565b3461034f576104a36105496106dd3660046106b3565b611544565b60005b8381106106f55750506000910152565b81810151838201526020016106e5565b61072661072f6020936105ea9361071a815190565b80835293849260200190565b958691016106e2565b601f01601f191690565b6001600160a01b031690565b634e487b7160e01b600052602160045260246000fd5b6005111561076557565b610745565b906103618261075b565b6104829061076a565b6104d890610774565b6004111561076557565b9061036182610786565b61048290610790565b6104d89061079a565b6003111561076557565b90610361826107ac565b610482906107b6565b6104d8906107c0565b6006111561076557565b90610361826107d2565b610482906107dc565b6104d8906107e6565b90610482906102808061094a6108846108726108606108276102a0880160008b015189820360008b0152610705565b60208a8101516001600160c01b031916908901526040808b01516001600160a01b03169089015260608a015188820360608a0152610705565b60808901518782036080890152610705565b60a088015186820360a0880152610705565b61089660c088015160c087019061077d565b6108a860e088015160e08701906107a3565b6108bc6101008801516101008701906107c9565b6108d06101208801516101208701906107ef565b6108e1610140880151610140870152565b6108f2610160880151610160870152565b610903610180880151610180870152565b6109146101a08801516101a0870152565b6109256101c08801516101c0870152565b6109366101e08801516101e0870152565b610200870151858203610200870152610705565b610220808701516001600160a01b03169085015294610240818101516001600160a01b031690850152610984610260820151610260860152565b0151910152565b6020808252610482929101906107f8565b3461034f576104a36109b76109b2366004610644565b6150fc565b6040519182918261098b565b901515815260406020820181905261048292910190610705565b3461034f576109f56109f0366004610644565b613490565b906104a3610a0260405190565b928392836109c3565b6001600160a01b038116610348565b9050359061036182610a0b565b6003111561034f57565b9050359061036182610a27565b909160608284031261034f57610482610a578484610354565b93610a658160208601610a1a565b93604001610a31565b3461034f576104a3610549610a84366004610a3e565b9161488f565b919060408382031261034f5761048290610aa481856103ba565b93602001610a1a565b3461034f5761049e610ac0366004610a8a565b90611583565b9060208282031261034f5761048291610a1a565b80516001600160a01b0316825261036191906060908190610b0060208201516020860152565b610b0f60408201516040860152565b01511515910152565b906105ea81608093610ada565b90610b45610b3e610b34845190565b8084529260200190565b9260200190565b9060005b818110610b565750505090565b909192610b70610b696001928651610b18565b9460200190565b929101610b49565b602080825261048292910190610b25565b3461034f576104a3610ba4610b9f366004610ac6565b614873565b60405191829182610b78565b3461034f5761049e610bc3366004610a8a565b90611751565b6004111561034f57565b9050359061036182610bc9565b9060808282031261034f57813567ffffffffffffffff811161034f5781610c08918401610629565b92610c168260208501610bd3565b92610c2483604083016103ba565b92606082013567ffffffffffffffff811161034f576104829201610629565b3461034f5761049e610c56366004610be0565b92919091614da5565b3461034f57610c6f366004610509565b6104a36104f7611ee2565b3461034f57610c8a366004610509565b61049e611f6b565b3461034f57610ca2366004610509565b61049e611fbd565b3461034f57610cba366004610509565b61049e611f94565b602080825261048292910190610705565b3461034f57610ce3366004610509565b6104a3610cee611c2b565b6040515b91829182610cc2565b3461034f57610d0b366004610509565b6104a36104f761186e565b3461034f576104a3610549610d2c366004610ac6565b61479f565b919060408382031261034f5761048290610d4b8185610a1a565b936020016103ba565b3461034f5761049e610d67366004610d31565b9061456a565b3461034f57610d7d366004610509565b6104a37fa49807205ce4d355092ef5a8a18f56e8913cf4a201fbe287825b095693c21775610549565b91909160408184031261034f57803567ffffffffffffffff811161034f5783610dd0918301610629565b92602082013567ffffffffffffffff811161034f576104829201610629565b3461034f5761049e610e02366004610da6565b90613782565b3461034f57610e18366004610509565b6104a3610e23611eec565b6040515b918291826001600160a01b03909116815260200190565b3461034f576104a3610549610e543660046106b3565b614db1565b9060208282031261034f5761048291610354565b90610e7c610b3e610b34845190565b9060005b818110610e8d5750505090565b909192610ea3610b696001928651815260200190565b929101610e80565b602080825261048292910190610e6d565b3461034f576104a3610ed7610ed2366004610e59565b615247565b60405191829182610eab565b3461034f57610ef3366004610509565b61049e611f2e565b3461034f576104a36104f7610f11366004610a8a565b90611514565b919060408382031261034f5782359067ffffffffffffffff821161034f57610aa481610482938601610629565b3461034f576104a36104f7610f5a366004610f17565b906153c7565b80516001600160a01b03168252906104829060e080610fbf6101008401610f8f602088015160208701906107a3565b610f9e60408801516040870152565b610fad60608801516060870152565b60808701518582036080870152610705565b60a0808701511515908501529461098460c082015160c0860152565b602080825261048292910190610f60565b3461034f576104a3611008611002366004610f17565b90615227565b60405191829182610fdb565b3461034f57611024366004610509565b6104a37f60b4c21d70ead12825359faa918a75b0f6aec1173d8f83736a228003bb90f01c610549565b6104826000610559565b61048261104d565b3461034f5761106f366004610509565b6104a3610549611057565b9160608383031261034f57823567ffffffffffffffff811161034f57826110a2918501610629565b926110b08360208301610bd3565b92604082013567ffffffffffffffff811161034f576104829201610629565b3461034f5761049e6110e236600461107a565b91613145565b61048262278d00610559565b6104826110e8565b3461034f5761110c366004610509565b6104a36105496110f4565b909160608284031261034f57813567ffffffffffffffff811161034f57610a5784610482928501610629565b3461034f576104a3610549611159366004611117565b91615478565b3461034f5761116f366004610509565b61049e611eda565b80518252610361919060a090819061119460208201516020860152565b6111a360408201516040860152565b6111b260608201516060860152565b610b0f60808201516080860152565b60c0810192916103619190611177565b3461034f576104a36111ec6111e7366004610e59565b6153b5565b604051918291826111c1565b3461034f5761049e61120b366004610d31565b9061477a565b6006111561034f57565b9050359061036182611211565b9060208282031261034f576104829161121b565b3461034f576104a3610ed7611252366004611228565b615261565b3461034f5761049e61126a366004610f17565b9061504e565b3461034f5761049e611283366004610ac6565b611cbe565b3461034f5761049e61129b366004610a8a565b906116d5565b6005111561034f57565b90503590610361826112a1565b6101408183031261034f576112cd8282610354565b92602082013567ffffffffffffffff811161034f57836112ee918401610629565b92604083013567ffffffffffffffff811161034f578161130f918501610629565b92606081013567ffffffffffffffff811161034f5782611330918301610629565b9261133e83608084016112ab565b9261134c8160a08501610bd3565b9261135a8260c08301610a31565b926113688360e084016103ba565b926101008301359067ffffffffffffffff821161034f5761138e81610482938601610629565b9361012001610a1a565b3461034f576104a3610cee6113ae3660046112b8565b98979097969196959295949394612a1b565b3461034f576113d0366004610509565b61049e611e78565b3461034f576113e8366004610509565b6104a37f14684b861e7ed8196bfd1e75a427098261dc7f825334a81d48ec74d12ef80dfe610549565b3461034f57611421366004610509565b6104a37f97667070c54ef182b0f5858b034beac1b6f3089aa2d3188bb1e8929f4fa9b929610549565b3461034f5761145a366004610509565b6104a37ff83fbdecd7018694593b521db8f6c864cd19f8450388b844650c68334dac9ab5610549565b637965db0b60e01b6001600160e01b03198216149081156114a2575090565b61048291506001600160e01b0319166301ffc9a760e01b1490565b905b600052602052604060002090565b610739610482610482926001600160a01b031690565b610482906114cd565b610482906114e3565b906114bf906114ec565b610482905b60ff1690565b61048290546114ff565b6104829161152e91611528600091826114bd565b016114f5565b61150a565b6104829081565b6104829054611533565b600161155d61048292611555600090565b5060006114bd565b0161153a565b906103619161157961157482611544565b61158d565b90610361916117a1565b9061036191611563565b61036190339061162e565b61048290610559565b610559565b6105ea6115be926020926115b8815190565b94859290565b938491016106e2565b61160561048293926115ff6115ff937f416363657373436f6e74726f6c3a206163636f756e7420000000000000000000815260170190565b906115a6565b7f206973206d697373696e6720726f6c6520000000000000000000000000000000815260110190565b9061164061163c8284611514565b1590565b611648575050565b6116b69161048261166461165e61169e94611b06565b92611598565b61167960209161167383610559565b906119a6565b9261169261168660405190565b948593840192836115c7565b90810382520382610379565b60405162461bcd60e51b815291829160048301610cc2565b0390fd5b90610361916116cb61157482611544565b9061036191611817565b90610361916116ba565b156116e657565b60405162461bcd60e51b815260206004820152602f60248201527f416363657373436f6e74726f6c3a2063616e206f6e6c792072656e6f756e636560448201527f20726f6c657320666f722073656c6600000000000000000000000000000000006064820152608490fd5b610361919061177261176233610739565b6001600160a01b038416146116df565b611817565b9060ff905b9181191691161790565b9061179661048261179d92151590565b8254611777565b9055565b906117af61163c8284611514565b6117b7575050565b6117d160016117cc83600061152887826114bd565b611786565b33906118076118016118017f2f8788117e7eff1d82e926ec794901d17c78024a50270940304540a733656f0d9590565b926114ec565b9261181160405190565b600090a4565b906118228183611514565b61182a575050565b61183e60006117cc838261152887826114bd565b33906118076118016118017ff6391f5c32d9c69d2a47ea670b442974b53935d1edc7fd64eb21e047a839171b9590565b610482600161150a565b634e487b7160e01b600052601160045260246000fd5b818102929181159184041417156118a157565b611878565b919082018092116118a157565b906118c061060a836105cd565b918252565b369037565b906103616118e06118da846118b3565b936105cd565b601f1901602084016118c5565b634e487b7160e01b600052603260045260246000fd5b9061190c825190565b81101561191a570160200190565b6118ed565b80156118a1576000190190565b6115046104826104829290565b6104829061195161194d6104829460ff1690565b9190565b901c90565b1561195d57565b60405162461bcd60e51b8152806116b6600482016020808252818101527f537472696e67733a20686578206c656e67746820696e73756666696369656e74604082015260600190565b91906002926119d76119d26119c3846119be88610559565b61188e565b6119cc87610559565b906118a6565b6118ca565b9160009060306119ef6119e984610559565b86611903565b53611a27611a1e600f60fb1b926119be6001998a95871a611a18611a1288610559565b8b611903565b53610559565b6119cc83610559565b905b611a4b575b5061048293945090611a4561194d61048293610559565b14611956565b91611a5586610559565b831115611ad0577f3031323334353637383961626364656600000000000000000000000000000000611a87600f610559565b821690601082101561191a578792611aa7611ac492611aca941a60f81b90565b851a611ab38789611903565b53611abe600461192c565b90611939565b9361191f565b90611a29565b91611a2e565b610482610482610482926001600160a01b031690565b610482601461192c565b6104826104826104829260ff1690565b611b23611b1e61048292611b18606090565b506114e3565b611ad6565b611673611b2e611aec565b611af6565b634e487b7160e01b600052602260045260246000fd5b9060016002830492168015611b69575b6020831014611b6457565b611b33565b91607f1691611b59565b80546000939291611b90611b8683611b49565b8085529360200190565b9160018116908115611be25750600114611ba957505050565b611bbc9192939450600052602060002090565b916000925b818410611bce5750500190565b805484840152602090930192600101611bc1565b92949550505060ff1916825215156020020190565b9061048291611b73565b90610361611c1b92611c1260405190565b93848092611bf7565b0383610379565b61048290611c01565b6104826004611c22565b6104829060a01c611504565b6104829054611c35565b6107396104826104829290565b61048290611c4b565b906001600160a01b039061177c565b90611c8061048261179d926114ec565b8254611c61565b9074ff00000000000000000000000000000000000000009060a01b61177c565b90611cb761048261179d92151590565b8254611c87565b611cc86003611c41565b611db157611cd96107396000611c58565b6001600160a01b03821614611d9f57611cfb611cf4826114ec565b6003611c70565b611d0760016003611ca7565b611d31817fa49807205ce4d355092ef5a8a18f56e8913cf4a201fbe287825b095693c217756117a1565b611d5b817f97667070c54ef182b0f5858b034beac1b6f3089aa2d3188bb1e8929f4fa9b9296117a1565b611d63612163565b611d8d7f27b541a16df0902e262f34789782092ab25125513b8ed73608e802951771b928916114ec565b90611d9760405190565b80805b0390a2565b604051637bfd2e8360e01b8152600490fd5b604051637396742f60e11b8152600490fd5b61048290610739565b6104829054611dc3565b33611dfc611def610739611dea6003611dcc565b6114ec565b916001600160a01b031690565b03611e0957610361611e1b565b6040516310f5403960e31b8152600490fd5b611e2861163c6003611c41565b611e3457610361611e46565b604051633165f6e960e21b8152600490fd5b7fa866f3901ec84758a10f30e8953c3818eef73da93dfa46cb6aa5b726fb65813f611e7060405190565b80805b0390a1565b610361611dd6565b33611e94611def610739611dea6003611dcc565b03611e0957610361611ea961163c6003611c41565b611e34576103617f6dff2fe8fbb5b23bf0583bf5b2157ff62ca7e27f2fb4f404914cd0c205ced5cc611e7060405190565b610361611e80565b6104826003611c41565b610482611dea6003611dcc565b611f227fa49807205ce4d355092ef5a8a18f56e8913cf4a201fbe287825b095693c2177561158d565b6103615b610361611fe1565b610361611ef9565b611f5f7fa49807205ce4d355092ef5a8a18f56e8913cf4a201fbe287825b095693c2177561158d565b6103615b6103616120b1565b610361611f36565b33611f87611def610739611dea6003611dcc565b03611e0957610361611f26565b610361611f73565b33611fb0611def610739611dea6003611dcc565b03611e0957610361611f63565b610361611f9c565b611fd261163c6003611c41565b611e345761036161036161202e565b610361611fc5565b611ff1612082565b610361611fff600180611786565b33611e737f62e78cea01bee320cd4e420270b5ea74000d11b0c9f74754ebdbfc544b05a25891610e2760405190565b610361611fe9565b1561203d57565b60405162461bcd60e51b815260206004820152601060248201527f5061757361626c653a20706175736564000000000000000000000000000000006044820152606490fd5b61036161209061163c61186e565b612036565b6120a261163c6003611c41565b611e34576103616103616120ff565b610361612095565b6120c1612153565b6103616120d060006001611786565b33611e737f5db9ee0a495bf2e6ff9c91a7834c1ba4fdd244a5e8aa4e537bd38aeae4b073aa91610e2760405190565b6103616120b9565b1561210e57565b60405162461bcd60e51b815260206004820152601460248201527f5061757361626c653a206e6f74207061757365640000000000000000000000006044820152606490fd5b61036161215e61186e565b612107565b610361612173611dea6003611dcc565b61219d817f14684b861e7ed8196bfd1e75a427098261dc7f825334a81d48ec74d12ef80dfe6117a1565b6121c7817f8a21e8fdae6c23863f7de5307e2e7162c88dab602a41610addb5f1505d2593986117a1565b7fd8aa0f3194971a2a116679f7c2090f6939c8d4e01a2a8d7e41d55e5351469e636117a1565b9998979695949392919061220461163c6003611c41565b611e34576104829a61268c565b90505190610361826103c7565b9060208282031261034f5761048291612211565b6040513d6000823e3d90fd5b6104d890610559565b9160206103619294936122626040820196600083019061223e565b0152565b906001600160c01b0319166114bf565b60001981146118a15760010190565b906000199061177c565b9061229f61048261179d92610559565b8254612285565b6118c06105ea91602094936115a6565b6122cb6122c260405190565b928392836122a6565b03902090565b610482916122b6565b634e487b7160e01b600052600060045260246000fd5b9160001960089290920291821b911b61177c565b919061231561048261179d93610559565b9083546122f0565b61036191600091612304565b818110612334575050565b80612342600060019361231d565b01612329565b9190601f811161235757505050565b61236961036193600052602060002090565b906020601f84018190048301931061238b575b6020601f909101040190612329565b909150819061237c565b9061239e815190565b9067ffffffffffffffff821161039b576123c2826123bc8554611b49565b85612348565b602090601f83116001146123fd5761179d9291600091836123f2575b5050600019600883021c1916906002021790565b0151905038806123de565b601f1983169161241285600052602060002090565b9260005b81811061245057509160029391856001969410612437575b50505002019055565b01516000196008601f8516021c1916905538808061242e565b91936020600181928787015181550195019201612416565b9061036191612395565b9067ffffffffffffffff9061177c565b906124a061249a61179d926001600160c01b03191690565b60c01c90565b8254612472565b907bffffffffffffffffffffffffffffffffffffffff00000000000000009060401b61177c565b906124de61048261179d926114ec565b82546124a7565b9061179661048261179d92610774565b9061ff009060081b61177c565b9061251261048261179d9261079a565b82546124f5565b9062ff00009060101b61177c565b9061253761048261179d926107c0565b8254612519565b9063ff0000009060181b61177c565b9061255d61048261179d926107e6565b825461253e565b9061256d815190565b9067ffffffffffffffff821161039b5761258b826123bc8554611b49565b602090601f83116001146125ba5761179d9291600091836123f2575050600019600883021c1916906002021790565b601f198316916125cf85600052602060002090565b9260005b8181106125f3575091600293918560019694106124375750505002019055565b919360206001819287870151815501950192016125d3565b9061036191612564565b610482916115a6565b906114bf906107e6565b929796946126859061267e60c0966126746126696122629761265b6103619d9860e08c01908c6000818403910152610705565b908a820360208c0152610705565b9c604089019061077d565b60608701906107a3565b6080850152565b60a0830152565b5092999833989396919391906126c561163c8b7f8a21e8fdae6c23863f7de5307e2e7162c88dab602a41610addb5f1505d259398611514565b80612978575b612947576126da610482610685565b89108015612934575b61290f57899a9b600d9a999a916126fa8a84612266565b6127038161153a565b61270c90612276565b90816127179161228f565b612721908b612b7c565b9c8d9261272d8c61419d565b978c60059361273c87866122d1565b966127479088612468565b60018701916127569083612482565b61275f916124ce565b61276c8a60028701612468565b6127799060038601612468565b6127869060048501612468565b82019361279389866124e5565b61279d8a86612502565b6127a79085612527565b600093846127b49161254d565b42926127c08786015190565b6127ca90856118a6565b9560068401966127da908861228f565b8d6127e48861153a565b906127ee916118a6565b9760078501986127fe908a61228f565b6128078961153a565b604090910151612816916118a6565b612823906008860161228f565b61283090600c850161260b565b82019061283c91611c70565b600f01906128499161228f565b604051806020810161285b8d82612615565b90810382520361286b9082610379565b80519060200120908161287f896008612266565b9061288991612a2f565b5061289590600961261e565b9061289f91612a2f565b506128a99061153a565b906128b39061153a565b907f0b834a65e1f466a7c1af96d775e10af10230d4e28e6855597bebdc9c068affb3956128e7906001600160c01b03191690565b966128f1906114ec565b976128fb60405190565b958695612909958c88612628565b0390a390565b8860006116b661291e60405190565b631412f1fb60e31b815292839260048401612247565b506129406104826110e8565b89116126e3565b6116b68a61295460405190565b6302ef70e360e61b8152918291600483016001600160a01b03909116815260200190565b5089602089612988611dea6141de565b6129a9634a01db786129cf61299c60405190565b9687958694859460e01b90565b84526001600160c01b03191660048401526001600160a01b031660248301526044820190565b03915afa8015612a16576129e9916000916129ee57501590565b6126cb565b61163c915060203d8111612a0f575b612a078183610379565b81019061221e565b503d6129fd565b612232565b6104829998979695949392919060606121ed565b90612a46600061048293612a41600090565b500190565b612aab565b805482101561191a57612a65600191600052602060002090565b91020190600090565b919061231561048261179d9390565b908154916801000000000000000083101561039b5782612aa591600161036195018155612a4b565b90612a6e565b612ab861163c8383612af1565b15612aea57612ae591612ae0906001612ad984612ad58482612a7d565b5490565b93016114bd565b61228f565b600190565b5050600090565b612b0f916001612b0a92612b03600090565b50016114bd565b61153a565b612b1c61194d6000610559565b141590565b612b2b60086118b3565b7f70726f706f73616c000000000000000000000000000000000000000000000000602082015290565b610482612b21565b01622d502d60e81b815260030190565b80926001600160c01b0319169052565b61048261169291612ba061048294612b92606090565b50612b9b612b54565b612bf1565b90612baa60405190565b938492602084019283612b6c600882612b5c6105ea948397966001600160c01b0319169052565b92612beb60206105ea94612beb6118c083999884976115a6565b01918252565b612c1e61048292612c00600090565b50429261169244612c1060405190565b958694602086019485612bd1565b612c30612c29825190565b9160200190565b206001600160c01b03191690565b929190612c51600661155d8660056122d1565b612c5e61194d6000610559565b14612c6d576103619293612ca6565b6116b684612c7a60405190565b6382384e3160e01b815291829160048301610cc2565b6104829060181c611504565b6104829054612c90565b9291906005612cc3612cbb61048287846122d1565b918201612c9c565b612cd6612cd060016107dc565b916107dc565b03612d455742612ceb6104826006840161153a565b8110918215612d28575b5050612d05576103619293612d52565b6116b684612d1260405190565b63afeab32960e01b815291829160048301610cc2565b612d3d919250610482600761194d920161153a565b113880612cf5565b6116b685612d1260405190565b9190612d6161163c6003611c41565b611e345761036192612f11565b92916020612d8b6103619360408701908782036000890152610705565b9401906001600160a01b03169052565b6104829060101c611504565b6104829054612d9b565b6001600160a01b039091168152606081019392610361929091604091612ddb90602083019061223e565b019061223e565b6104826101006103a0565b906104d890610790565b6104829051610790565b90611cb761048261179d9261079a565b6103619190612e629060e090600690612e5081612e3e612e3888516001600160a01b031690565b82611c70565b612e4a60208801612df7565b90612e01565b612e6860018201612e62604088015190565b9061228f565b612e7a60028201612e62606088015190565b612e9260038201612e8c608088015190565b90612468565b612eac60048201612ea660a0880151151590565b90611786565b612ebe60058201612e6260c088015190565b0192015190565b9061036191612e11565b90610482949293612efd612ef2612f049360808601908682036000880152610705565b9560208501906107a3565b6040830152565b6060818403910152610705565b90600591612f2261048282856122d1565b93600690612f3083836122d1565b94612f476004612f413380996114f5565b0161150a565b61312157612f6f9086612f69612f6160018b015460c01b90565b928a01612da7565b916138c1565b95600092612f7c84610559565b88146130fa57864291600195612f90612de2565b6001600160a01b0384168282015293612fac8a60208701612ded565b612fb78c6040870152565b60608501526080840186905286151560a0850152612fd490610559565b60c084015286612fe387610559565b60e0850152612ff1916122d1565b90612ffb916114f5565b9061300591612ec5565b61300f6002610790565b61301886610790565b611d9a9491036130915750600961303c9101612e62886130378361153a565b6118a6565b6130538561304e6104828660076122d1565b613150565b5061307e7fe57242758a93b8a807e382015be1d28c6734011c0bf1a547f7f78c652accbee0956114ec565b9561308860405190565b94859485612ecf565b61309a90610790565b6130a386610790565b036130c157600a6130bc9101612e62886130378361153a565b61303c565b6130cb6003610790565b6130d486610790565b146130e0575b5061303c565b600b6130f49101612e62886130378361153a565b386130da565b83876116b660019261310b60405190565b6309e915af60e01b815293849360048501612db1565b85846116b661312f60405190565b639214b07560e01b815292839260048401612d6e565b906103619291612c3e565b90612a4661194d6115a1611b1e60006104829661316b600090565b5001946114e3565b919061318261163c6003611c41565b611e345761318f9261326c565b9091565b6104829060401c610739565b6104829054613193565b6104829054611b49565b805460009392916131ca6131c683611b49565b9390565b916001811690811561321b57506001146131e357505050565b6131f69192939450600052602060002090565b6000905b8382106132075750500190565b6001816020925484860152019101906131fa565b60ff191683525050811515909102019150565b610482916131b3565b3d15613251576132463d6118b3565b903d6000602084013e565b606090565b6122cb9061326360405190565b91829182612615565b92919250600561327f61048285836122d1565b61328b6001820161319f565b9060009261329884611c58565b926132ab6001600160a01b038516611def565b14613483576132b987613d5d565b8101936132c585612c9c565b6002906132d4612cd0836107dc565b0361346057426132e96104826008860161153a565b8110613453579061330c61336e926133036003809a61254d565b6010860161228f565b61336961048233986133218a600e8901611c70565b8b61333e61332e60405190565b8092611692602083019182612615565b613349612c29825190565b20936133638561335e6104826009948561261e565b61349d565b5061261e565b612a2f565b50600c82019261337d846131a9565b61338961194d87610559565b11908161342a575b501561341d5750906133bd836133aa600d829501611dcc565b926133b460405190565b9283918261322e565b03925af1926133ca613237565b93915b6134006133fa7f322fdc248e7a6f153fbfebcbbe78d74473b3de9014cc6975c6abddaa492e99da93613256565b916114ec565b9161340a60405190565b806134168887836109c3565b0390a39190565b95925050506001916133cd565b905061344b611def61343e600d8601611dcc565b926001600160a01b031690565b141538613391565b6116b689612d1260405190565b6116b68861346d60405190565b63e51acb8960e01b815291829160048301610cc2565b6116b687612c7a60405190565b61318f9060606000613173565b906134af600061048293612a41600090565b613521565b919082039182116118a157565b610482916008021c81565b9061048291546134c1565b634e487b7160e01b600052603160045260246000fd5b61036191600091612a6e565b8054801561351c5760001901906135196135138383612a4b565b906134ed565b55565b6134d7565b90613532612b0a82600185016114bd565b60009261353e84610559565b8214613591576104829261359794926135a29261359c600197889361356b61356586610559565b826134b4565b8885019161358961357a845490565b61358389610559565b906134b4565b8281036135a7575b50505090565b6134f9565b016114bd565b61231d565b612aa56135d06135d8946135c76135c1612ae09589612a4b565b906134cc565b92839188612a4b565b8888016114bd565b388080613591565b906135ee61163c6003611c41565b611e34576103619160059061360661048282846122d1565b60018101926136148461319f565b91600092613627611def61073986611c58565b14612c6d57613639610739339661319f565b6001600160a01b03861614158061374f575b61374257810191613667612cd061366185612c9c565b926107dc565b141580613724575b61371757906133696104826136d19361368760405190565b61369981602081016116928a82612615565b6136a4612c29825190565b20936136cc826009926136c68861335e6104826136c085612c9c565b8861261e565b5061254d565b61261e565b506137126137086137027fdf96c8b225b3c306215835756fece85292235dcf8458d56a54c63f3ee858141393613256565b936114ec565b93610cf260405190565b0390a3565b6116b683612d1260405190565b5061372e82612c9c565b61373b612cd060016107dc565b141561366f565b6116b68561295460405190565b5061377d61163c867f14684b861e7ed8196bfd1e75a427098261dc7f825334a81d48ec74d12ef80dfe611514565b61364b565b90610361916135e0565b9050519061036182610a0b565b9050519061036182610bc9565b90505190610361826103b4565b9190916101208184031261034f576104596137cf6101206103a0565b9360006137dc828561378c565b9086015260206137ee82828601613799565b90860152604061380082828601613799565b908601526060613812828286016137a6565b908601526080613824828286016137a6565b9086015260a0613836828286016137a6565b9086015260c061384882828601612211565b9086015260e061385a82828601612211565b90860152610100809301612211565b906101208282031261034f57610482916137b3565b9060208282031261034f57610482916137a6565b6001600160c01b03199190911681526001600160a01b0390911660208201526060810192916103619160400152565b6138e960206138d1611dea6141de565b634a01db78906138e060405190565b93849260e01b90565b82526001600160c01b0319851660048301526001600160a01b038616602483015260449082905afa8015612a1657613927916000916129ee57501590565b613a785761394b61012061393c611dea6141de565b63ebb7c76b906138e060405190565b82526001600160c01b0319851660048301526001600160a01b038616602483015260449082905afa908115612a165761398f91608091600091613a49575b50015190565b926139a361399d60026107b6565b916107b6565b146139ad57505090565b6139b8611dea6142c3565b6139c56107396000611c58565b6001600160a01b038216036139da5750505090565b613a0060209394613a0b634f6303ea916139f360405190565b9788968795869560e01b90565b855260048501613892565b03915afa908115612a1657600091613a21575090565b610482915060203d8111613a42575b613a3a8183610379565b81019061387e565b503d613a30565b613a6b91506101203d8111613a71575b613a638183610379565b810190613869565b38613989565b503d613a59565b5050506104826000610559565b906104d89061076a565b6104829060081c611504565b6104829054613a8f565b906104d8906107b6565b906104d8906107dc565b80546000939291613acc611b8683611b49565b9160018116908115611be25750600114613ae557505050565b613af89192939450600052602060002090565b916000925b818410613b0a5750500190565b805484840152602090930192600101613afd565b9061048291613ab9565b90610361611c1b92613b3960405190565b93848092613b1e565b6104826102a06103a0565b90610361613d4c6010613b5e613b42565b94613b6f613b6b82611c01565b8752565b613b91613b80600183015460c01b90565b6001600160c01b0319166020880152565b613bb0613ba06001830161319f565b6001600160a01b03166040880152565b613bc6613bbf60028301611c01565b6060880152565b613bdc613bd560038301611c01565b6080880152565b613bf2613beb60048301611c01565b60a0880152565b613c0a613c016005830161150a565b60c08801613a85565b613c22613c1960058301613a9b565b60e08801612ded565b613c3b613c3160058301612da7565b6101008801613aa5565b613c54613c4a60058301612c9c565b6101208801613aaf565b613c6b613c636006830161153a565b610140880152565b613c82613c7a6007830161153a565b610160880152565b613c99613c916008830161153a565b610180880152565b613cb0613ca86009830161153a565b6101a0880152565b613cc7613cbf600a830161153a565b6101c0880152565b613cde613cd6600b830161153a565b6101e0880152565b613cf5613ced600c8301613b28565b610200880152565b613d15613d04600d8301611dcc565b6001600160a01b0316610220880152565b613d35613d24600e8301611dcc565b6001600160a01b0316610240880152565b61155d613d44600f830161153a565b610260880152565b610280840152565b61048290613b4d565b600590613d6d61048282846122d1565b918201613d8a613d85613d7f83612c9c565b94613d54565b613e06565b91613d94836107dc565b613d9d856107dc565b03613da9575b50505050565b613dc493613369610482856136c69461333e61332e60405190565b38808080613da3565b61048290516107dc565b61048290516107b6565b634e487b7160e01b600052601260045260246000fd5b8115613e01570490565b613de1565b6101208101613e1481613dcd565b613e21612cd060036107dc565b148015613f2f575b613f25575042613e3e61048261014084015190565b8110612aea57613e5661194d61048261016085015190565b1115613f1f576020810180516001600160c01b031916613e759061419d565b906101a0830191613e84835190565b936101c0810194613e93865190565b613e9c916118a6565b6101e0820151613eab916118a6565b92516001600160c01b0319169061010001613ec590613dd7565b613ece9161400b565b606090910151613edd9161188e565b613ee5610566565b613eee91613df7565b11613f185761194d610482613f04613f09935190565b935190565b11613f1357600490565b600290565b5050600490565b50600190565b6104829150613dcd565b50613f3981613dcd565b613f46612cd060056107dc565b14613e29565b67ffffffffffffffff811161039b5760208091020190565b90929192613f7461060a82613f4c565b938185526020808601920283019281841161034f57915b838310613f985750505050565b60208091613fa6848661378c565b815201920191613f8b565b9080601f8301121561034f57815161048292602001613f64565b9060208282031261034f57815167ffffffffffffffff811161034f576104829201613fb1565b90613ffa825190565b81101561191a576020809102010190565b6140359190600061401d611dea6141de565b63a8947b859061402c60405190565b95869260e01b90565b82526001600160c01b03198416600483015260249082905afa928315612a16576000936140bc575b506140686000610559565b92835b614076610482835190565b8510156140b4576140a86140ae916119cc866140a26140958a88613ff1565b516001600160a01b031690565b876138c1565b94612276565b9361406b565b935050505090565b6140d891933d8091833e6140d08183610379565b810190613fcb565b913861405d565b61048260c06103a0565b6140f16140df565b9060008252602080808080808701600081520160005b815201600081520160008152016000905250565b6104826140e9565b9061036161418b60056141346140df565b94614141613b6b8261153a565b6141576141506001830161153a565b6020880152565b61416d6141666002830161153a565b6040880152565b61417c613bbf6003830161153a565b612f41613bd56004830161153a565b151560a0840152565b61048290614123565b6141b46141b9916141ac61411b565b50600a612266565b614194565b60208101516141cb61194d6000610559565b146141d35790565b506104826012614194565b610482611dea7f3a895dd7c72f83eeb5f75bd8d64cf0f19825ab80804745a41f58e42088602c206142b8565b9061421861163c6003611c41565b611e345761048291614239565b9060208282031261034f576104829161378c565b61427a916020915061424e611dea6003611dcc565b61426c6385acd64161425f60405190565b9586948593849360e01b90565b835260048301526024820190565b03915afa908115612a1657600091614290575090565b610482915060203d81116142b1575b6142a98183610379565b810190614225565b503d61429f565b61048290600061420a565b6142ec7fda774a9a6475b94924a168725d00b478d90cbf28e9176d635f3dab48a3a915086142b8565b6142f66000611c58565b6001600160a01b0381166001600160a01b038316146143195750610482906114ec565b61048291506114ec565b9061433161163c6003611c41565b611e34576103619161440e565b61048260806103a0565b805482101561191a57612a65600491600052602060002090565b6103619190612ea69060609060039061438c8161438687516001600160a01b031690565b90611c70565b61439e60018201612e62602088015190565b6143b060028201612e62604088015190565b01920151151590565b91906143c85761036191614362565b6122da565b908154916801000000000000000083101561039b57826143f591600161036195018155614348565b906143b9565b9081526040810192916103619160200152565b336001600160a01b038216811461453957600061442a81610559565b84146145125761448a61444161048284600e6114f5565b91429261448560016144668861445561433e565b958601906001600160a01b03169052565b614471896020860152565b61447c866040860152565b15156060840152565b6143cd565b6144ae6144a18461449c85600b6114f5565b6114f5565b612e62866130378361153a565b6144bc6144a183600f6114f5565b6144ce8261304e61048286600c6114f5565b506144fc6137027f0e93f38017caec651d0ce6b361a18a797c3c92915af8727bc361e8b5528e01cd936114ec565b9361371261450960405190565b928392836143fb565b6116b68461451f60405190565b634e53fe2160e01b81529182916004830190815260200190565b6116b69061454660405190565b630c71b3bd60e01b8152918291600483016001600160a01b03909116815260200190565b9061036191614323565b9061458261163c6003611c41565b611e3457600b91339161036161459f612b0a8461449c87896114f5565b821161476d576145c86145b68461449c87896114f5565b612e62846145c38361153a565b6134b4565b6145d66145b685600f6114f5565b6145e461048285600e6114f5565b82916000936145f285610559565b6145fd610482855490565b81108061475c575b156146e6578061461f61461b61464e9387614348565b5090565b61462a888201611dcc565b61463c6001600160a01b038b16611def565b14806146d4575b614653575b50612276565b6145f2565b876146996146936145c3600185019a61466e6104828d61153a565b8111156146c4576145c361468d8d6146858161153a565b94859161153a565b8d61228f565b9861153a565b6146a561194d83610559565b146146b1575b50614648565b60036146bd9201611786565b38876146ab565b6145c361468d8d8394859161153a565b506146e16003820161150a565b614643565b50959392509561470b9150614705612b0a8661449c8761194d956114f5565b92610559565b1461473f575b426144fc6137027fa4a5a3554ccf1a9531c27b469cd495bd2d61b6da23637fe39c7ed3d90c9a0132936114ec565b6147568161475161048285600c6114f5565b614784565b50614711565b5061476686610559565b8511614605565b6116b68261451f60405190565b9061036191614574565b906134af61194d6115a1611b1e60006104829661316b600090565b612b0a610482916147ae600090565b50600f6114f5565b906118c061060a83613f4c565b9061036161447c60036147d461433e565b946147ee6147e182611dcc565b6001600160a01b03168752565b6147fd6141506001830161153a565b612f416141666002830161153a565b610482906147c3565b9061481e825490565b614827816147b6565b9261483b6020850191600052602060002090565b6000915b83831061484c5750505050565b6004602060019261485c8561480c565b81520192019201919061483f565b61048290614815565b61488a61048291614882606090565b50600e6114f5565b61486a565b91816148a592949361489f600090565b506138c1565b906148b06000610559565b906148c76148c261048286600c6114f5565b61491c565b90825b6148d5610482845190565b84101561490e57614902614908916119cc612b0a8961449c600b6148fc6140958c8c613ff1565b906114f5565b93612276565b926148ca565b9250935050610482916118a6565b606090614928906149b2565b905090565b9061494861493c610b34845490565b92600052602060002090565b9060005b8181106149595750505090565b90919261497d61497660019261496e8761153a565b815260200190565b9460010190565b92910161494c565b906104829161492d565b90610361611c1b926149a060405190565b93848092614985565b6104829061498f565b6000610482916149c0606090565b50016149a9565b939291906149db600661155d8760056122d1565b6149e861194d6000610559565b146149f7576103619394614a04565b6116b685612c7a60405190565b939291906005614a1a612cbb61048288846122d1565b614a27612cd060016107dc565b03614a735742614a3c6104826006840161153a565b8110918215614a56575b5050612d45576103619394614a80565b614a6b919250610482600761194d920161153a565b113880614a46565b6116b686612d1260405190565b929190614a9061163c6003611c41565b611e345761036193614ae3565b9193614acf6104829694614ac8614ad69497614ac160a088019960008901906107a3565b6020870152565b6040850152565b6060830152565b6080818403910152610705565b909192600592614af661048284866122d1565b91614b0362015180610559565b86108015614d91575b614d6a57600690614b1d85836122d1565b95614b2e6004612f4133809a6114f5565b614d5c57614b509087612f69614b48600189015460c01b90565b928801612da7565b96600094614b5d86610559565b8914614d4b57614b6c82614db1565b9889614b779161188e565b614b816064610559565b614b8a91613df7565b9542908960019681614b9a612de2565b93840190614bb091906001600160a01b03169052565b614bbd8960208501612ded565b614bc88a6040850152565b614bd3846060850152565b6080830187905287151560a0840152614bed8660c0850152565b8a614bf98e60e0860152565b614c02916122d1565b90614c0c916114f5565b90614c1691612ec5565b8689614c238a60106122d1565b90614c2d916114f5565b90614c379161228f565b88614c438960116122d1565b90614c4d916114f5565b90614c579161228f565b614c616002610790565b614c6a86610790565b613712959103614ce257506009614c899101612e62876130378361153a565b614c9b8761304e6104828960076122d1565b50614ccf614cc97fc0273d1ed732f2ff7f0865b547ea6da3296102edb2915a7eb2af9b1596479ce097613256565b976114ec565b97614cd960405190565b95869586614a9d565b614ceb90610790565b614cf486610790565b03614d1257600a614d0d9101612e62876130378361153a565b614c89565b614d1c6003610790565b614d2586610790565b14614d31575b50614c89565b600b614d459101612e62876130378361153a565b38614d2b565b85886116b660019261310b60405190565b86866116b661312f60405190565b6116b686614d7760405190565b631d8c48ad60e11b81529182916004830190815260200190565b50614d9e62278d00610559565b8611614b0c565b906103619392916149c7565b614dbb6000610559565b8114614e2357614dda614e0691614dd462015180610559565b90613df7565b613037614e00614df6606493614df060c8610559565b9061188e565b614dd4601e610559565b91610559565b61012c614e1281610559565b82111561461b576104829150610559565b506104826064610559565b90614e3c61163c6003611c41565b611e345761036191614e66565b908152606081019392610361929091604091612262906020830152565b90600691614e7b6104828361449c84876122d1565b614e8a61163c6004830161150a565b801561502e575b613da3574293614eb2614eac612b0a8661449c8760116122d1565b866134b4565b614ec461194d6104826005860161153a565b1015614ed2575b5050505050565b614ee06104828460056122d1565b60006001840193614f24614ef38661153a565b948201612e62614f0b614f058361153a565b88613df7565b6115a1614f1d606492614df084610559565b809a61228f565b01614f2e81611c41565b614f41614f3b6002610790565b91610790565b03614fb557506009614f5f9101612e6284613037856145c38561153a565b614fa8614f95614f8f7fe3224d12971ec6cd1e86eac7c4c30aaa7b8ff863968e40299346f0b6d997950d95613256565b956114ec565b95614f9f60405190565b93849384614e49565b0390a33880808080614ecb565b614fbe81611c41565b614fcb614f3b6001610790565b03614fee5750600a614fe99101612e6284613037856145c38561153a565b614f5f565b614ff790611c41565b615004614f3b6003610790565b14615010575b50614f5f565b600b6150289101612e6284613037856145c38561153a565b3861500a565b5061503b6005820161153a565b61504861194d6000610559565b14614e91565b9061036191614e2e565b615060613b42565b9060608252602082016000815260200160008152602001606081526020016060815260200160608152602001600081526020016000815260200160008152602001600081526020016000815260200160008152602001600081526020016000815260200160008152602001600081526020016060815260200160008152602001600081526020016000815260200160009052565b610482615058565b6151046150f4565b506151186151138260056122d1565b613d54565b9061512d60408301516001600160a01b031690565b61513d611def6107396000611c58565b14615146575090565b6116b690612c7a60405190565b61515b612de2565b906000825260208080808080808089016000815201600081520160008152016060614107565b610482615153565b90610361615217600661519a612de2565b946151a76147e182611dcc565b6151bc6151b382611c41565b60208801612ded565b6151cb6141666001830161153a565b6151da613bbf6002830161153a565b6151e9613bd560038301611c01565b6152016151f86004830161150a565b151560a0880152565b61155d6152106005830161153a565b60c0880152565b60e0840152565b61048290615189565b6104829161449c6152429261523a615181565b5060066122d1565b61521e565b6148c261048261048292615259606090565b506008612266565b6148c261048261048292615273606090565b50600961261e565b9061528961163c6003611c41565b611e345761036191615303565b6103619190612ea69060a0906005906152b181612e62875190565b6152c360018201612e62602088015190565b6152d560028201612e62604088015190565b6152e760038201612e62606088015190565b6143b060048201612e62608088015190565b9061036191615296565b61530e611dea6141de565b6153236020634a01db7833936138e060405190565b82526001600160c01b0319861660048301526001600160a01b038516602483015260449082905afa8015612a1657615361916000916129ee57501590565b61537a57509061537561036192600a612266565b6152f9565b6116b69061538760405190565b639515fbc560e01b8152918291600483016001600160a01b03909116815260200190565b906103619161527b565b610482906153c161411b565b5061419d565b6153f391612f696153dd610482600594856122d1565b926153ec600185015460c01b90565b9301612da7565b61540061194d6000610559565b1190565b61511361541b91615413600090565b5060056122d1565b60408101516001600160a01b031660009061543b611def61073984611c58565b146149285761544d6101208301613dcd565b61545a612cd060026107dc565b03614928575061547361194d6104826101804294015190565b101590565b9061549960016154916104826104829695615413600090565b015460c01b90565b6138c156fea26469706673582212200215d385a8f995297de66d8d29789e7fd02158f341e8fb90551b82965d50185264736f6c63430008140033",
  "linkReferences": {},
  "deployedLinkReferences": {}
}