{
  "_format": "hh-sol-artifact-1",
  "contractName": "Signal",
  "sourceName": "contracts/modules/Signal/Signal.sol",
  "abi": [
    {
      "inputs": [],
      "stateMutability": "nonpayable",
      "type": "constructor"
    },
    {
      "inputs": [
        {
          "internalType": "string",
          "name": "hierarchicalId",
          "type": "string"
        },
        {
          "internalType": "address",
          "name": "voter",
          "type": "address"
        }
      ],
      "name": "AlreadyVoted",
      "type": "error"
    },
    {
      "inputs": [
        {
          "internalType": "address",
          "name": "delegator",
          "type": "address"
        },
        {
          "internalType": "address",
          "name": "delegatee",
          "type": "address"
        }
      ],
      "name": "DelegationNotFound",
      "type": "error"
    },
    {
      "inputs": [
        {
          "internalType": "string",
          "name": "hierarchicalId",
          "type": "string"
        },
        {
          "internalType": "string",
          "name": "reason",
          "type": "string"
        }
      ],
      "name": "ExecutionFailed",
      "type": "error"
    },
    {
      "inputs": [
        {
          "internalType": "address",
          "name": "proposer",
          "type": "address"
        },
        {
          "internalType": "uint256",
          "name": "required",
          "type": "uint256"
        },
        {
          "internalType": "uint256",
          "name": "available",
          "type": "uint256"
        }
      ],
      "name": "InsufficientProposalThreshold",
      "type": "error"
    },
    {
      "inputs": [
        {
          "internalType": "address",
          "name": "voter",
          "type": "address"
        },
        {
          "internalType": "uint256",
          "name": "required",
          "type": "uint256"
        },
        {
          "internalType": "uint256",
          "name": "available",
          "type": "uint256"
        }
      ],
      "name": "InsufficientVotingPower",
      "type": "error"
    },
    {
      "inputs": [
        {
          "internalType": "address",
          "name": "delegator",
          "type": "address"
        },
        {
          "internalType": "address",
          "name": "delegatee",
          "type": "address"
        }
      ],
      "name": "InvalidDelegation",
      "type": "error"
    },
    {
      "inputs": [],
      "name": "InvalidProposalParameters",
      "type": "error"
    },
    {
      "inputs": [],
      "name": "InvalidRegistryAddress",
      "type": "error"
    },
    {
      "inputs": [
        {
          "internalType": "enum ISignal.VoteChoice",
          "name": "choice",
          "type": "uint8"
        }
      ],
      "name": "InvalidVoteChoice",
      "type": "error"
    },
    {
      "inputs": [
        {
          "internalType": "uint256",
          "name": "period",
          "type": "uint256"
        }
      ],
      "name": "InvalidVotingPeriod",
      "type": "error"
    },
    {
      "inputs": [
        {
          "internalType": "bytes8",
          "name": "organizationId",
          "type": "bytes8"
        },
        {
          "internalType": "address",
          "name": "member",
          "type": "address"
        }
      ],
      "name": "MembershipRequired",
      "type": "error"
    },
    {
      "inputs": [],
      "name": "ModuleAlreadyInitialized",
      "type": "error"
    },
    {
      "inputs": [],
      "name": "ModuleNotInitialized",
      "type": "error"
    },
    {
      "inputs": [],
      "name": "OnlyRegistry",
      "type": "error"
    },
    {
      "inputs": [
        {
          "internalType": "bytes8",
          "name": "organizationId",
          "type": "bytes8"
        }
      ],
      "name": "OrganizationNotFound",
      "type": "error"
    },
    {
      "inputs": [
        {
          "internalType": "string",
          "name": "hierarchicalId",
          "type": "string"
        }
      ],
      "name": "ProposalAlreadyExecuted",
      "type": "error"
    },
    {
      "inputs": [
        {
          "internalType": "string",
          "name": "hierarchicalId",
          "type": "string"
        }
      ],
      "name": "ProposalNotActive",
      "type": "error"
    },
    {
      "inputs": [
        {
          "internalType": "string",
          "name": "hierarchicalId",
          "type": "string"
        }
      ],
      "name": "ProposalNotFound",
      "type": "error"
    },
    {
      "inputs": [
        {
          "internalType": "string",
          "name": "hierarchicalId",
          "type": "string"
        }
      ],
      "name": "ProposalNotPassed",
      "type": "error"
    },
    {
      "inputs": [
        {
          "internalType": "string",
          "name": "hierarchicalId",
          "type": "string"
        },
        {
          "internalType": "uint256",
          "name": "required",
          "type": "uint256"
        },
        {
          "internalType": "uint256",
          "name": "actual",
          "type": "uint256"
        }
      ],
      "name": "QuorumNotReached",
      "type": "error"
    },
    {
      "inputs": [
        {
          "internalType": "string",
          "name": "hierarchicalId",
          "type": "string"
        },
        {
          "internalType": "address",
          "name": "caller",
          "type": "address"
        }
      ],
      "name": "UnauthorizedProposalAccess",
      "type": "error"
    },
    {
      "inputs": [
        {
          "internalType": "string",
          "name": "hierarchicalId",
          "type": "string"
        }
      ],
      "name": "VotingNotActive",
      "type": "error"
    },
    {
      "anonymous": false,
      "inputs": [
        {
          "indexed": true,
          "internalType": "string",
          "name": "hierarchicalId",
          "type": "string"
        },
        {
          "indexed": true,
          "internalType": "address",
          "name": "voter",
          "type": "address"
        },
        {
          "indexed": false,
          "internalType": "uint256",
          "name": "oldPower",
          "type": "uint256"
        },
        {
          "indexed": false,
          "internalType": "uint256",
          "name": "newPower",
          "type": "uint256"
        },
        {
          "indexed": false,
          "internalType": "uint256",
          "name": "timestamp",
          "type": "uint256"
        }
      ],
      "name": "ConvictionDecayApplied",
      "type": "event"
    },
    {
      "anonymous": false,
      "inputs": [
        {
          "indexed": true,
          "internalType": "string",
          "name": "hierarchicalId",
          "type": "string"
        },
        {
          "indexed": true,
          "internalType": "address",
          "name": "voter",
          "type": "address"
        },
        {
          "indexed": false,
          "internalType": "enum ISignal.VoteChoice",
          "name": "choice",
          "type": "uint8"
        },
        {
          "indexed": false,
          "internalType": "uint256",
          "name": "votingPower",
          "type": "uint256"
        },
        {
          "indexed": false,
          "internalType": "uint256",
          "name": "convictionMultiplier",
          "type": "uint256"
        },
        {
          "indexed": false,
          "internalType": "uint256",
          "name": "convictionTime",
          "type": "uint256"
        },
        {
          "indexed": false,
          "internalType": "string",
          "name": "reason",
          "type": "string"
        }
      ],
      "name": "ConvictionVoteCast",
      "type": "event"
    },
    {
      "anonymous": false,
      "inputs": [],
      "name": "ModuleDisabled",
      "type": "event"
    },
    {
      "anonymous": false,
      "inputs": [],
      "name": "ModuleEnabled",
      "type": "event"
    },
    {
      "anonymous": false,
      "inputs": [
        {
          "indexed": true,
          "internalType": "address",
          "name": "registry",
          "type": "address"
        }
      ],
      "name": "ModuleInitialized",
      "type": "event"
    },
    {
      "anonymous": false,
      "inputs": [
        {
          "indexed": false,
          "internalType": "address",
          "name": "account",
          "type": "address"
        }
      ],
      "name": "Paused",
      "type": "event"
    },
    {
      "anonymous": false,
      "inputs": [
        {
          "indexed": true,
          "internalType": "string",
          "name": "hierarchicalId",
          "type": "string"
        },
        {
          "indexed": true,
          "internalType": "address",
          "name": "canceler",
          "type": "address"
        },
        {
          "indexed": false,
          "internalType": "string",
          "name": "reason",
          "type": "string"
        }
      ],
      "name": "ProposalCanceled",
      "type": "event"
    },
    {
      "anonymous": false,
      "inputs": [
        {
          "indexed": true,
          "internalType": "string",
          "name": "hierarchicalId",
          "type": "string"
        },
        {
          "indexed": true,
          "internalType": "address",
          "name": "canceler",
          "type": "address"
        },
        {
          "indexed": false,
          "internalType": "string",
          "name": "reason",
          "type": "string"
        }
      ],
      "name": "ProposalCanceledHierarchical",
      "type": "event"
    },
    {
      "anonymous": false,
      "inputs": [
        {
          "indexed": false,
          "internalType": "string",
          "name": "hierarchicalId",
          "type": "string"
        },
        {
          "indexed": true,
          "internalType": "bytes8",
          "name": "organizationId",
          "type": "bytes8"
        },
        {
          "indexed": true,
          "internalType": "address",
          "name": "creator",
          "type": "address"
        },
        {
          "indexed": false,
          "internalType": "string",
          "name": "title",
          "type": "string"
        },
        {
          "indexed": false,
          "internalType": "enum ISignal.ProposalType",
          "name": "proposalType",
          "type": "uint8"
        },
        {
          "indexed": false,
          "internalType": "enum ISignal.VotingType",
          "name": "votingType",
          "type": "uint8"
        },
        {
          "indexed": false,
          "internalType": "uint256",
          "name": "votingPeriod",
          "type": "uint256"
        },
        {
          "indexed": false,
          "internalType": "uint256",
          "name": "startTime",
          "type": "uint256"
        },
        {
          "indexed": false,
          "internalType": "uint256",
          "name": "endTime",
          "type": "uint256"
        }
      ],
      "name": "ProposalCreated",
      "type": "event"
    },
    {
      "anonymous": false,
      "inputs": [
        {
          "indexed": true,
          "internalType": "string",
          "name": "hierarchicalId",
          "type": "string"
        },
        {
          "indexed": true,
          "internalType": "bytes8",
          "name": "organizationId",
          "type": "bytes8"
        },
        {
          "indexed": true,
          "internalType": "address",
          "name": "creator",
          "type": "address"
        },
        {
          "indexed": false,
          "internalType": "string",
          "name": "title",
          "type": "string"
        },
        {
          "indexed": false,
          "internalType": "enum ISignal.ProposalType",
          "name": "proposalType",
          "type": "uint8"
        },
        {
          "indexed": false,
          "internalType": "enum ISignal.VotingType",
          "name": "votingType",
          "type": "uint8"
        },
        {
          "indexed": false,
          "internalType": "uint256",
          "name": "votingPeriod",
          "type": "uint256"
        },
        {
          "indexed": false,
          "internalType": "uint256",
          "name": "startTime",
          "type": "uint256"
        },
        {
          "indexed": false,
          "internalType": "uint256",
          "name": "endTime",
          "type": "uint256"
        }
      ],
      "name": "ProposalCreatedHierarchical",
      "type": "event"
    },
    {
      "anonymous": false,
      "inputs": [
        {
          "indexed": true,
          "internalType": "string",
          "name": "hierarchicalId",
          "type": "string"
        },
        {
          "indexed": true,
          "internalType": "address",
          "name": "executor",
          "type": "address"
        },
        {
          "indexed": false,
          "internalType": "bool",
          "name": "success",
          "type": "bool"
        },
        {
          "indexed": false,
          "internalType": "bytes",
          "name": "returnData",
          "type": "bytes"
        }
      ],
      "name": "ProposalExecuted",
      "type": "event"
    },
    {
      "anonymous": false,
      "inputs": [
        {
          "indexed": true,
          "internalType": "string",
          "name": "hierarchicalId",
          "type": "string"
        },
        {
          "indexed": true,
          "internalType": "address",
          "name": "executor",
          "type": "address"
        },
        {
          "indexed": false,
          "internalType": "bool",
          "name": "success",
          "type": "bool"
        },
        {
          "indexed": false,
          "internalType": "bytes",
          "name": "returnData",
          "type": "bytes"
        }
      ],
      "name": "ProposalExecutedHierarchical",
      "type": "event"
    },
    {
      "anonymous": false,
      "inputs": [
        {
          "indexed": true,
          "internalType": "bytes32",
          "name": "role",
          "type": "bytes32"
        },
        {
          "indexed": true,
          "internalType": "bytes32",
          "name": "previousAdminRole",
          "type": "bytes32"
        },
        {
          "indexed": true,
          "internalType": "bytes32",
          "name": "newAdminRole",
          "type": "bytes32"
        }
      ],
      "name": "RoleAdminChanged",
      "type": "event"
    },
    {
      "anonymous": false,
      "inputs": [
        {
          "indexed": true,
          "internalType": "bytes32",
          "name": "role",
          "type": "bytes32"
        },
        {
          "indexed": true,
          "internalType": "address",
          "name": "account",
          "type": "address"
        },
        {
          "indexed": true,
          "internalType": "address",
          "name": "sender",
          "type": "address"
        }
      ],
      "name": "RoleGranted",
      "type": "event"
    },
    {
      "anonymous": false,
      "inputs": [
        {
          "indexed": true,
          "internalType": "bytes32",
          "name": "role",
          "type": "bytes32"
        },
        {
          "indexed": true,
          "internalType": "address",
          "name": "account",
          "type": "address"
        },
        {
          "indexed": true,
          "internalType": "address",
          "name": "sender",
          "type": "address"
        }
      ],
      "name": "RoleRevoked",
      "type": "event"
    },
    {
      "anonymous": false,
      "inputs": [
        {
          "indexed": false,
          "internalType": "address",
          "name": "account",
          "type": "address"
        }
      ],
      "name": "Unpaused",
      "type": "event"
    },
    {
      "anonymous": false,
      "inputs": [
        {
          "indexed": false,
          "internalType": "string",
          "name": "hierarchicalId",
          "type": "string"
        },
        {
          "indexed": true,
          "internalType": "address",
          "name": "voter",
          "type": "address"
        },
        {
          "indexed": false,
          "internalType": "enum ISignal.VoteChoice",
          "name": "choice",
          "type": "uint8"
        },
        {
          "indexed": false,
          "internalType": "uint256",
          "name": "votingPower",
          "type": "uint256"
        },
        {
          "indexed": false,
          "internalType": "string",
          "name": "reason",
          "type": "string"
        }
      ],
      "name": "VoteCast",
      "type": "event"
    },
    {
      "anonymous": false,
      "inputs": [
        {
          "indexed": true,
          "internalType": "string",
          "name": "hierarchicalId",
          "type": "string"
        },
        {
          "indexed": true,
          "internalType": "address",
          "name": "voter",
          "type": "address"
        },
        {
          "indexed": false,
          "internalType": "enum ISignal.VoteChoice",
          "name": "choice",
          "type": "uint8"
        },
        {
          "indexed": false,
          "internalType": "uint256",
          "name": "votingPower",
          "type": "uint256"
        },
        {
          "indexed": false,
          "internalType": "string",
          "name": "reason",
          "type": "string"
        }
      ],
      "name": "VoteCastHierarchical",
      "type": "event"
    },
    {
      "anonymous": false,
      "inputs": [
        {
          "indexed": true,
          "internalType": "bytes8",
          "name": "organizationId",
          "type": "bytes8"
        },
        {
          "components": [
            {
              "internalType": "uint256",
              "name": "votingDelay",
              "type": "uint256"
            },
            {
              "internalType": "uint256",
              "name": "votingPeriod",
              "type": "uint256"
            },
            {
              "internalType": "uint256",
              "name": "executionDelay",
              "type": "uint256"
            },
            {
              "internalType": "uint256",
              "name": "quorumThreshold",
              "type": "uint256"
            },
            {
              "internalType": "uint256",
              "name": "proposalThreshold",
              "type": "uint256"
            },
            {
              "internalType": "bool",
              "name": "requireMembership",
              "type": "bool"
            }
          ],
          "indexed": false,
          "internalType": "struct ISignal.VotingParameters",
          "name": "parameters",
          "type": "tuple"
        }
      ],
      "name": "VotingParametersUpdated",
      "type": "event"
    },
    {
      "anonymous": false,
      "inputs": [
        {
          "indexed": true,
          "internalType": "address",
          "name": "delegator",
          "type": "address"
        },
        {
          "indexed": true,
          "internalType": "address",
          "name": "delegatee",
          "type": "address"
        },
        {
          "indexed": false,
          "internalType": "uint256",
          "name": "amount",
          "type": "uint256"
        },
        {
          "indexed": false,
          "internalType": "uint256",
          "name": "timestamp",
          "type": "uint256"
        }
      ],
      "name": "VotingPowerDelegated",
      "type": "event"
    },
    {
      "anonymous": false,
      "inputs": [
        {
          "indexed": true,
          "internalType": "address",
          "name": "delegator",
          "type": "address"
        },
        {
          "indexed": true,
          "internalType": "address",
          "name": "delegatee",
          "type": "address"
        },
        {
          "indexed": false,
          "internalType": "uint256",
          "name": "amount",
          "type": "uint256"
        },
        {
          "indexed": false,
          "internalType": "uint256",
          "name": "timestamp",
          "type": "uint256"
        }
      ],
      "name": "VotingPowerUndelegated",
      "type": "event"
    },
    {
      "inputs": [],
      "name": "ADMIN_ROLE",
      "outputs": [
        {
          "internalType": "bytes32",
          "name": "",
          "type": "bytes32"
        }
      ],
      "stateMutability": "view",
      "type": "function"
    },
    {
      "inputs": [],
      "name": "BASIS_POINTS",
      "outputs": [
        {
          "internalType": "uint256",
          "name": "",
          "type": "uint256"
        }
      ],
      "stateMutability": "view",
      "type": "function"
    },
    {
      "inputs": [],
      "name": "DEFAULT_ADMIN_ROLE",
      "outputs": [
        {
          "internalType": "bytes32",
          "name": "",
          "type": "bytes32"
        }
      ],
      "stateMutability": "view",
      "type": "function"
    },
    {
      "inputs": [],
      "name": "EXECUTOR_ROLE",
      "outputs": [
        {
          "internalType": "bytes32",
          "name": "",
          "type": "bytes32"
        }
      ],
      "stateMutability": "view",
      "type": "function"
    },
    {
      "inputs": [],
      "name": "MAX_EXECUTION_DELAY",
      "outputs": [
        {
          "internalType": "uint256",
          "name": "",
          "type": "uint256"
        }
      ],
      "stateMutability": "view",
      "type": "function"
    },
    {
      "inputs": [],
      "name": "MAX_QUORUM_THRESHOLD",
      "outputs": [
        {
          "internalType": "uint256",
          "name": "",
          "type": "uint256"
        }
      ],
      "stateMutability": "view",
      "type": "function"
    },
    {
      "inputs": [],
      "name": "MAX_VOTING_PERIOD",
      "outputs": [
        {
          "internalType": "uint256",
          "name": "",
          "type": "uint256"
        }
      ],
      "stateMutability": "view",
      "type": "function"
    },
    {
      "inputs": [],
      "name": "MIN_VOTING_PERIOD",
      "outputs": [
        {
          "internalType": "uint256",
          "name": "",
          "type": "uint256"
        }
      ],
      "stateMutability": "view",
      "type": "function"
    },
    {
      "inputs": [],
      "name": "OPERATOR_ROLE",
      "outputs": [
        {
          "internalType": "bytes32",
          "name": "",
          "type": "bytes32"
        }
      ],
      "stateMutability": "view",
      "type": "function"
    },
    {
      "inputs": [],
      "name": "PROPOSAL_CREATOR_ROLE",
      "outputs": [
        {
          "internalType": "bytes32",
          "name": "",
          "type": "bytes32"
        }
      ],
      "stateMutability": "view",
      "type": "function"
    },
    {
      "inputs": [],
      "name": "SIGNAL_ADMIN_ROLE",
      "outputs": [
        {
          "internalType": "bytes32",
          "name": "",
          "type": "bytes32"
        }
      ],
      "stateMutability": "view",
      "type": "function"
    },
    {
      "inputs": [
        {
          "internalType": "string",
          "name": "hierarchicalId",
          "type": "string"
        },
        {
          "internalType": "address",
          "name": "voter",
          "type": "address"
        }
      ],
      "name": "applyConvictionDecay",
      "outputs": [],
      "stateMutability": "nonpayable",
      "type": "function"
    },
    {
      "inputs": [
        {
          "internalType": "uint256",
          "name": "convictionTime",
          "type": "uint256"
        }
      ],
      "name": "calculateConvictionMultiplier",
      "outputs": [
        {
          "internalType": "uint256",
          "name": "",
          "type": "uint256"
        }
      ],
      "stateMutability": "pure",
      "type": "function"
    },
    {
      "inputs": [
        {
          "internalType": "string",
          "name": "hierarchicalId",
          "type": "string"
        },
        {
          "internalType": "address",
          "name": "voter",
          "type": "address"
        },
        {
          "internalType": "enum ISignal.VotingPower",
          "name": "powerType",
          "type": "uint8"
        }
      ],
      "name": "calculateVotingPower",
      "outputs": [
        {
          "internalType": "uint256",
          "name": "",
          "type": "uint256"
        }
      ],
      "stateMutability": "view",
      "type": "function"
    },
    {
      "inputs": [
        {
          "internalType": "string",
          "name": "hierarchicalId",
          "type": "string"
        }
      ],
      "name": "canExecute",
      "outputs": [
        {
          "internalType": "bool",
          "name": "",
          "type": "bool"
        }
      ],
      "stateMutability": "view",
      "type": "function"
    },
    {
      "inputs": [
        {
          "internalType": "string",
          "name": "hierarchicalId",
          "type": "string"
        },
        {
          "internalType": "address",
          "name": "voter",
          "type": "address"
        }
      ],
      "name": "canVote",
      "outputs": [
        {
          "internalType": "bool",
          "name": "",
          "type": "bool"
        }
      ],
      "stateMutability": "view",
      "type": "function"
    },
    {
      "inputs": [
        {
          "internalType": "string",
          "name": "hierarchicalId",
          "type": "string"
        },
        {
          "internalType": "string",
          "name": "reason",
          "type": "string"
        }
      ],
      "name": "cancelProposal",
      "outputs": [],
      "stateMutability": "nonpayable",
      "type": "function"
    },
    {
      "inputs": [
        {
          "internalType": "string",
          "name": "hierarchicalId",
          "type": "string"
        },
        {
          "internalType": "enum ISignal.VoteChoice",
          "name": "choice",
          "type": "uint8"
        },
        {
          "internalType": "string",
          "name": "reason",
          "type": "string"
        }
      ],
      "name": "castVote",
      "outputs": [],
      "stateMutability": "nonpayable",
      "type": "function"
    },
    {
      "inputs": [
        {
          "internalType": "string",
          "name": "hierarchicalId",
          "type": "string"
        },
        {
          "internalType": "enum ISignal.VoteChoice",
          "name": "choice",
          "type": "uint8"
        },
        {
          "internalType": "uint256",
          "name": "convictionTime",
          "type": "uint256"
        },
        {
          "internalType": "string",
          "name": "reason",
          "type": "string"
        }
      ],
      "name": "castVoteWithConviction",
      "outputs": [],
      "stateMutability": "nonpayable",
      "type": "function"
    },
    {
      "inputs": [
        {
          "internalType": "bytes8",
          "name": "organizationId",
          "type": "bytes8"
        },
        {
          "internalType": "string",
          "name": "title",
          "type": "string"
        },
        {
          "internalType": "string",
          "name": "description",
          "type": "string"
        },
        {
          "internalType": "string",
          "name": "metadataURI",
          "type": "string"
        },
        {
          "internalType": "enum ISignal.ProposalType",
          "name": "proposalType",
          "type": "uint8"
        },
        {
          "internalType": "enum ISignal.VotingType",
          "name": "votingType",
          "type": "uint8"
        },
        {
          "internalType": "enum ISignal.VotingPower",
          "name": "votingPower",
          "type": "uint8"
        },
        {
          "internalType": "uint256",
          "name": "votingPeriod",
          "type": "uint256"
        },
        {
          "internalType": "bytes",
          "name": "executionData",
          "type": "bytes"
        },
        {
          "internalType": "address",
          "name": "targetContract",
          "type": "address"
        }
      ],
      "name": "createProposal",
      "outputs": [
        {
          "internalType": "string",
          "name": "hierarchicalId",
          "type": "string"
        }
      ],
      "stateMutability": "nonpayable",
      "type": "function"
    },
    {
      "inputs": [
        {
          "internalType": "address",
          "name": "delegatee",
          "type": "address"
        },
        {
          "internalType": "uint256",
          "name": "amount",
          "type": "uint256"
        }
      ],
      "name": "delegateVotingPower",
      "outputs": [],
      "stateMutability": "nonpayable",
      "type": "function"
    },
    {
      "inputs": [],
      "name": "emergencyPause",
      "outputs": [],
      "stateMutability": "nonpayable",
      "type": "function"
    },
    {
      "inputs": [],
      "name": "emergencyUnpause",
      "outputs": [],
      "stateMutability": "nonpayable",
      "type": "function"
    },
    {
      "inputs": [
        {
          "internalType": "string",
          "name": "hierarchicalId",
          "type": "string"
        }
      ],
      "name": "executeProposal",
      "outputs": [
        {
          "internalType": "bool",
          "name": "success",
          "type": "bool"
        },
        {
          "internalType": "bytes",
          "name": "returnData",
          "type": "bytes"
        }
      ],
      "stateMutability": "nonpayable",
      "type": "function"
    },
    {
      "inputs": [
        {
          "internalType": "address",
          "name": "delegator",
          "type": "address"
        }
      ],
      "name": "getDelegatedVotingPower",
      "outputs": [
        {
          "internalType": "uint256",
          "name": "",
          "type": "uint256"
        }
      ],
      "stateMutability": "view",
      "type": "function"
    },
    {
      "inputs": [
        {
          "internalType": "address",
          "name": "delegator",
          "type": "address"
        }
      ],
      "name": "getDelegations",
      "outputs": [
        {
          "components": [
            {
              "internalType": "address",
              "name": "delegatee",
              "type": "address"
            },
            {
              "internalType": "uint256",
              "name": "amount",
              "type": "uint256"
            },
            {
              "internalType": "uint256",
              "name": "timestamp",
              "type": "uint256"
            },
            {
              "internalType": "bool",
              "name": "active",
              "type": "bool"
            }
          ],
          "internalType": "struct ISignal.Delegation[]",
          "name": "",
          "type": "tuple[]"
        }
      ],
      "stateMutability": "view",
      "type": "function"
    },
    {
      "inputs": [
        {
          "internalType": "bytes8",
          "name": "organizationId",
          "type": "bytes8"
        }
      ],
      "name": "getOrganizationProposals",
      "outputs": [
        {
          "internalType": "bytes32[]",
          "name": "",
          "type": "bytes32[]"
        }
      ],
      "stateMutability": "view",
      "type": "function"
    },
    {
      "inputs": [
        {
          "internalType": "string",
          "name": "hierarchicalId",
          "type": "string"
        }
      ],
      "name": "getProposal",
      "outputs": [
        {
          "components": [
            {
              "internalType": "string",
              "name": "hierarchicalId",
              "type": "string"
            },
            {
              "internalType": "bytes8",
              "name": "organizationId",
              "type": "bytes8"
            },
            {
              "internalType": "address",
              "name": "creator",
              "type": "address"
            },
            {
              "internalType": "string",
              "name": "title",
              "type": "string"
            },
            {
              "internalType": "string",
              "name": "description",
              "type": "string"
            },
            {
              "internalType": "string",
              "name": "metadataURI",
              "type": "string"
            },
            {
              "internalType": "enum ISignal.ProposalType",
              "name": "proposalType",
              "type": "uint8"
            },
            {
              "internalType": "enum ISignal.VotingType",
              "name": "votingType",
              "type": "uint8"
            },
            {
              "internalType": "enum ISignal.VotingPower",
              "name": "votingPower",
              "type": "uint8"
            },
            {
              "internalType": "enum ISignal.ProposalState",
              "name": "state",
              "type": "uint8"
            },
            {
              "internalType": "uint256",
              "name": "startTime",
              "type": "uint256"
            },
            {
              "internalType": "uint256",
              "name": "endTime",
              "type": "uint256"
            },
            {
              "internalType": "uint256",
              "name": "executionTime",
              "type": "uint256"
            },
            {
              "internalType": "uint256",
              "name": "forVotes",
              "type": "uint256"
            },
            {
              "internalType": "uint256",
              "name": "againstVotes",
              "type": "uint256"
            },
            {
              "internalType": "uint256",
              "name": "abstainVotes",
              "type": "uint256"
            },
            {
              "internalType": "bytes",
              "name": "executionData",
              "type": "bytes"
            },
            {
              "internalType": "address",
              "name": "targetContract",
              "type": "address"
            },
            {
              "internalType": "address",
              "name": "executor",
              "type": "address"
            },
            {
              "internalType": "uint256",
              "name": "createdAt",
              "type": "uint256"
            },
            {
              "internalType": "uint256",
              "name": "executedAt",
              "type": "uint256"
            }
          ],
          "internalType": "struct ISignal.Proposal",
          "name": "",
          "type": "tuple"
        }
      ],
      "stateMutability": "view",
      "type": "function"
    },
    {
      "inputs": [
        {
          "internalType": "enum ISignal.ProposalState",
          "name": "state",
          "type": "uint8"
        }
      ],
      "name": "getProposalsByState",
      "outputs": [
        {
          "internalType": "bytes32[]",
          "name": "",
          "type": "bytes32[]"
        }
      ],
      "stateMutability": "view",
      "type": "function"
    },
    {
      "inputs": [
        {
          "internalType": "bytes32",
          "name": "role",
          "type": "bytes32"
        }
      ],
      "name": "getRoleAdmin",
      "outputs": [
        {
          "internalType": "bytes32",
          "name": "",
          "type": "bytes32"
        }
      ],
      "stateMutability": "view",
      "type": "function"
    },
    {
      "inputs": [
        {
          "internalType": "string",
          "name": "hierarchicalId",
          "type": "string"
        },
        {
          "internalType": "address",
          "name": "voter",
          "type": "address"
        }
      ],
      "name": "getVote",
      "outputs": [
        {
          "components": [
            {
              "internalType": "address",
              "name": "voter",
              "type": "address"
            },
            {
              "internalType": "enum ISignal.VoteChoice",
              "name": "choice",
              "type": "uint8"
            },
            {
              "internalType": "uint256",
              "name": "votingPower",
              "type": "uint256"
            },
            {
              "internalType": "uint256",
              "name": "timestamp",
              "type": "uint256"
            },
            {
              "internalType": "string",
              "name": "reason",
              "type": "string"
            },
            {
              "internalType": "bool",
              "name": "hasVoted",
              "type": "bool"
            },
            {
              "internalType": "uint256",
              "name": "convictionTime",
              "type": "uint256"
            },
            {
              "internalType": "uint256",
              "name": "convictionMultiplier",
              "type": "uint256"
            }
          ],
          "internalType": "struct ISignal.Vote",
          "name": "",
          "type": "tuple"
        }
      ],
      "stateMutability": "view",
      "type": "function"
    },
    {
      "inputs": [
        {
          "internalType": "bytes8",
          "name": "organizationId",
          "type": "bytes8"
        }
      ],
      "name": "getVotingParameters",
      "outputs": [
        {
          "components": [
            {
              "internalType": "uint256",
              "name": "votingDelay",
              "type": "uint256"
            },
            {
              "internalType": "uint256",
              "name": "votingPeriod",
              "type": "uint256"
            },
            {
              "internalType": "uint256",
              "name": "executionDelay",
              "type": "uint256"
            },
            {
              "internalType": "uint256",
              "name": "quorumThreshold",
              "type": "uint256"
            },
            {
              "internalType": "uint256",
              "name": "proposalThreshold",
              "type": "uint256"
            },
            {
              "internalType": "bool",
              "name": "requireMembership",
              "type": "bool"
            }
          ],
          "internalType": "struct ISignal.VotingParameters",
          "name": "",
          "type": "tuple"
        }
      ],
      "stateMutability": "view",
      "type": "function"
    },
    {
      "inputs": [
        {
          "internalType": "bytes8",
          "name": "organizationId",
          "type": "bytes8"
        },
        {
          "internalType": "address",
          "name": "account",
          "type": "address"
        },
        {
          "internalType": "enum ISignal.VotingPower",
          "name": "votingPowerType",
          "type": "uint8"
        }
      ],
      "name": "getVotingPowerWithDelegation",
      "outputs": [
        {
          "internalType": "uint256",
          "name": "",
          "type": "uint256"
        }
      ],
      "stateMutability": "view",
      "type": "function"
    },
    {
      "inputs": [
        {
          "internalType": "bytes32",
          "name": "role",
          "type": "bytes32"
        },
        {
          "internalType": "address",
          "name": "account",
          "type": "address"
        }
      ],
      "name": "grantRole",
      "outputs": [],
      "stateMutability": "nonpayable",
      "type": "function"
    },
    {
      "inputs": [
        {
          "internalType": "bytes32",
          "name": "role",
          "type": "bytes32"
        },
        {
          "internalType": "address",
          "name": "account",
          "type": "address"
        }
      ],
      "name": "hasRole",
      "outputs": [
        {
          "internalType": "bool",
          "name": "",
          "type": "bool"
        }
      ],
      "stateMutability": "view",
      "type": "function"
    },
    {
      "inputs": [
        {
          "internalType": "address",
          "name": "registryAddress",
          "type": "address"
        }
      ],
      "name": "initialize",
      "outputs": [],
      "stateMutability": "nonpayable",
      "type": "function"
    },
    {
      "inputs": [],
      "name": "isInitialized",
      "outputs": [
        {
          "internalType": "bool",
          "name": "",
          "type": "bool"
        }
      ],
      "stateMutability": "view",
      "type": "function"
    },
    {
      "inputs": [],
      "name": "moduleId",
      "outputs": [
        {
          "internalType": "bytes32",
          "name": "",
          "type": "bytes32"
        }
      ],
      "stateMutability": "pure",
      "type": "function"
    },
    {
      "inputs": [],
      "name": "onModuleDisabled",
      "outputs": [],
      "stateMutability": "nonpayable",
      "type": "function"
    },
    {
      "inputs": [],
      "name": "onModuleEnabled",
      "outputs": [],
      "stateMutability": "nonpayable",
      "type": "function"
    },
    {
      "inputs": [],
      "name": "pause",
      "outputs": [],
      "stateMutability": "nonpayable",
      "type": "function"
    },
    {
      "inputs": [],
      "name": "paused",
      "outputs": [
        {
          "internalType": "bool",
          "name": "",
          "type": "bool"
        }
      ],
      "stateMutability": "view",
      "type": "function"
    },
    {
      "inputs": [],
      "name": "registry",
      "outputs": [
        {
          "internalType": "address",
          "name": "",
          "type": "address"
        }
      ],
      "stateMutability": "view",
      "type": "function"
    },
    {
      "inputs": [
        {
          "internalType": "bytes32",
          "name": "role",
          "type": "bytes32"
        },
        {
          "internalType": "address",
          "name": "account",
          "type": "address"
        }
      ],
      "name": "renounceRole",
      "outputs": [],
      "stateMutability": "nonpayable",
      "type": "function"
    },
    {
      "inputs": [
        {
          "internalType": "bytes32",
          "name": "role",
          "type": "bytes32"
        },
        {
          "internalType": "address",
          "name": "account",
          "type": "address"
        }
      ],
      "name": "revokeRole",
      "outputs": [],
      "stateMutability": "nonpayable",
      "type": "function"
    },
    {
      "inputs": [
        {
          "internalType": "bytes8",
          "name": "organizationId",
          "type": "bytes8"
        },
        {
          "components": [
            {
              "internalType": "uint256",
              "name": "votingDelay",
              "type": "uint256"
            },
            {
              "internalType": "uint256",
              "name": "votingPeriod",
              "type": "uint256"
            },
            {
              "internalType": "uint256",
              "name": "executionDelay",
              "type": "uint256"
            },
            {
              "internalType": "uint256",
              "name": "quorumThreshold",
              "type": "uint256"
            },
            {
              "internalType": "uint256",
              "name": "proposalThreshold",
              "type": "uint256"
            },
            {
              "internalType": "bool",
              "name": "requireMembership",
              "type": "bool"
            }
          ],
          "internalType": "struct ISignal.VotingParameters",
          "name": "params",
          "type": "tuple"
        }
      ],
      "name": "setVotingParameters",
      "outputs": [],
      "stateMutability": "nonpayable",
      "type": "function"
    },
    {
      "inputs": [
        {
          "internalType": "bytes4",
          "name": "interfaceId",
          "type": "bytes4"
        }
      ],
      "name": "supportsInterface",
      "outputs": [
        {
          "internalType": "bool",
          "name": "",
          "type": "bool"
        }
      ],
      "stateMutability": "view",
      "type": "function"
    },
    {
      "inputs": [
        {
          "internalType": "address",
          "name": "delegatee",
          "type": "address"
        },
        {
          "internalType": "uint256",
          "name": "amount",
          "type": "uint256"
        }
      ],
      "name": "undelegateVotingPower",
      "outputs": [],
      "stateMutability": "nonpayable",
      "type": "function"
    },
    {
      "inputs": [],
      "name": "unpause",
      "outputs": [],
      "stateMutability": "nonpayable",
      "type": "function"
    },
    {
      "inputs": [],
      "name": "version",
      "outputs": [
        {
          "internalType": "string",
          "name": "",
          "type": "string"
        }
      ],
      "stateMutability": "view",
      "type": "function"
    }
  ],
  "bytecode": "0x608034620003b1576040906001600160401b0381830181811183821017620002d0578352600582526020809201640312e302e360dc1b815260ff1991600191838354168355826002556004548381811c91168015620003a6575b868210146200039057601f81116200035e575b50516001600160d81b031916600a17600455600080805280855285812033825285528590205460ff161562000323575b7fa49807205ce4d355092ef5a8a18f56e8913cf4a201fbe287825b095693c2177580600052600085528560002033600052855260ff86600020541615620002e6575b5084519060c0820190811182821017620002d05785526201518080825262093a8080868401526202a3009182888501528460a06103e8958660608201526064608082015201526014556015556016556017556064601855808260195416176019557f14684b861e7ed8196bfd1e75a427098261dc7f825334a81d48ec74d12ef80dfe80600052600084528460002033600052845260ff8560002054161562000293575b507f8a21e8fdae6c23863f7de5307e2e7162c88dab602a41610addb5f1505d25939880600052600084528460002033600052845260ff8560002054161562000256575b507fd8aa0f3194971a2a116679f7c2090f6939c8d4e01a2a8d7e41d55e5351469e639283600052600081528460002033600052815260ff8560002054161562000217575b8451614aea9081620003b78239f35b83600052600081528460002090336000525283600020918254161790553390339060008051602062004ea1833981519152600080a43880808062000208565b8060005260008452846000203360005284528460002082848254161790553390339060008051602062004ea1833981519152600080a438620001c4565b8060005260008452846000203360005284528460002082848254161790553390339060008051602062004ea1833981519152600080a43862000181565b634e487b7160e01b600052604160045260246000fd5b8060005260008552856000203360005285528560002083858254161790553390339060008051602062004ea1833981519152600080a438620000de565b6000805260008452846000203360005284528460002082848254161790553333600060008051602062004ea18339815191528180a46200009c565b600460005283601f87600020920160051c8201915b828110620003835750506200006c565b6000815501849062000373565b634e487b7160e01b600052602260045260246000fd5b90607f169062000059565b600080fdfe608080604052600436101561001357600080fd5b60003560e01c9081621221211461339a5750806301ffc9a71461334457806307bd026514613309578063127ec2831461033957806315b3958e146132ce57806316495f0e14613294578063215809ca14613277578063248a9ca31461324857806325d3a09d14612f8f5780632cfe27f014612c7b5780632d47f9f814612bcc5780632f2ff15d14612b2b57806331cc13ba14612a0e57806336568abe1461297c578063389e29f214612483578063392e53cd1461245d5780633f4ba83a146123f75780634a4e3bd51461234d57806351858e271461231657806354fd4d50146122345780635c975abb146122115780636da25a54146121d757806375251dd51461202c57806375b238fc14611ff1578063762d9f8b14611de05780637b10399914611db75780637bc8450f14611d995780637c28b9be14611d5e5780638456cb5914611cf757806391d1485414611caa578063966d3dc714611c875780639b4326fb14611b16578063a1308f2714611adb578063a217fddf14611abf578063a2bcdc0f14611546578063a64e024a146111a4578063a845a05b146114ee578063aa7318aa14611498578063acfa0b941461142f578063b502f554146111e6578063bacc1323146111a9578063bc03d280146111a4578063c25ec9471461117f578063c4d66de814610e01578063d547741f14610dc0578063d8ec13861461033e578063e1f1c4a714610339578063ebf8a3e6146102bf578063f2bd42be146102845763f5b541a61461024457600080fd5b3461027f57600036600319011261027f5760206040517f97667070c54ef182b0f5858b034beac1b6f3089aa2d3188bb1e8929f4fa9b9298152f35b600080fd5b3461027f57600036600319011261027f5760206040517f14684b861e7ed8196bfd1e75a427098261dc7f825334a81d48ec74d12ef80dfe8152f35b3461027f57600036600319011261027f576003546001600160a01b03811633036103275760a01c60ff1615610315577fa866f3901ec84758a10f30e8953c3818eef73da93dfa46cb6aa5b726fb65813f600080a1005b604051633165f6e960e21b8152600490fd5b6040516310f5403960e31b8152600490fd5b6135c8565b3461027f5761014036600319011261027f57610358613507565b6024356001600160401b03811161027f57610377903690600401613637565b906044356001600160401b03811161027f57610397903690600401613637565b906064356001600160401b03811161027f576103b7903690600401613637565b916005608435101561027f57600460a435101561027f57600360c435101561027f57610104356001600160401b03811161027f573660238201121561027f5761040a903690602481600401359101613600565b93610124356001600160a01b038116810361027f5760ff60035460a01c161561031557610435613d63565b61043d613e7a565b602460206001600160a01b0361045161468b565b60405163b4ae840f60e01b81526001600160c01b03198916600482015293849290918391165afa908115610d7357600091610da1575b5015610d7f5761049684614330565b60a0810151151580610cec575b610cc057610e1060e435108015610cb2575b610c98576001600160401b0360c01b8516600052600d6020526040600020956104de8754613dde565b809755604051966104ee8861358c565b60088852671c1c9bdc1bdcd85b60c21b60208901526040519760005b60088110610c835750506028880152426048880152446068880152606887528660a08101106001600160401b0360a089011117610a7b5760a087016040819052875160208901206001600160c01b031988811660c08b0152622d502d60e81b60c88b01521660cb890152601381526105819061358c565b60405160208160c061059c8b8360a082015193849201613655565b810160058152030190209460a08801516001600160401b038111610a7b576105ce816105c88954613c93565b89613ded565b806020601f8211600114610c1357600091610c05575b508160011b916000199060031b1c19161786555b6001860180546001600160e01b03191660c089901c173360401b68010000000000000000600160e01b031617905584516001600160401b038111610a7b576106508161064760028a0154613c93565b60028a01613ded565b806020601f8211600114610b9857600091610b8d575b508160011b916000199060031b1c19161760028701555b8051906001600160401b038211610a7b5781906106aa826106a160038b0154613c93565b60038b01613ded565b602090601f8311600114610b1b57600092610b10575b50508160011b916000199060031b1c19161760038601555b8051906001600160401b038211610a7b57610703826106fa6004890154613c93565b60048901613ded565b602090601f8311600114610a9c5761079f93929160009183610a91575b50508160011b916000199060031b1c19161760048601555b60058501805461074960a4356136aa565b60ff608435169063ffffffff19161761ff0060a43560081b161762ff000060c43560101b161790556040610790610781835142613b51565b80600689015560e43590613b51565b91826007880155015190613b51565b600884015585516001600160401b038111610a7b576107ce816107c5600c870154613c93565b600c8701613ded565b6020601f82116001146109e65790807f0b834a65e1f466a7c1af96d775e10af10230d4e28e6855597bebdc9c068affb39493926109d7996000926109db575b50508160011b916000199060031b1c191617600c8501555b600d84019060018060a01b03166001600160601b0360a01b82541617905542600f8401556108b360a086015160c08701206001600160401b0360c01b86166000526008602052610879816040600020613f7e565b506000805260096020526108ad817fec8156718a8372b1db44bb411437d0870f3e3790d4a08526d024ce1b0b668f6b613f7e565b50613ee6565b50600760068401549301546108ca60a08701613e5a565b6040519060c082526108df60c0830185613678565b906108ef6020840160843561369d565b6108fa60a4356136aa565b60a435604084015260e43560608401528660808401528360a08401527fb291fcdfd9c269dcda94a1367b4b3e06e3b52a2314e313ee6b2329cc453766923393806001600160401b0360c01b8b16940390a46109746040519260e0845261096660e0850160a08a01613678565b908482036020860152613678565b936109846040840160843561369d565b61098f60a4356136aa565b60a435606084015260e435608084015260a083015260c082015233936001600160c01b0319169281900390a360016002556040519182916020835260a0602084019101613678565b0390f35b01519050898061080d565b600c850160005260206000209760005b601f1984168110610a635750916109d7986001927f0b834a65e1f466a7c1af96d775e10af10230d4e28e6855597bebdc9c068affb396959483601f19811610610a4a575b505050811b01600c850155610825565b015160001960f88460031b161c19169055898080610a3a565b828201518a55600190990198602092830192016109f6565b634e487b7160e01b600052604160045260246000fd5b015190508a80610720565b906004870160005260206000209160005b601f1985168110610af8575091839160019361079f9695601f19811610610adf575b505050811b016004860155610738565b015160001960f88460031b161c191690558a8080610acf565b91926020600181928685015181550194019201610aad565b015190508a806106c0565b9250600388016000526020600020906000935b601f1984168510610b72576001945083601f19811610610b59575b505050811b0160038601556106d8565b015160001960f88460031b161c191690558a8080610b49565b81810151835560209485019460019093019290910190610b2e565b90508601518b610666565b91506002880160005260206000206000925b601f1983168410610bed576001935082601f19811610610bd4575b5050811b01600287015561067d565b88015160001960f88460031b161c191690558b80610bc5565b88810151825560209384019360019092019101610baa565b60a091508a0101518b6105e4565b91508760005260206000206000925b8b601f1984168510610c6857506001935082601f19811610610c4b575b5050811b0186556105f8565b8b0160a00151600019600384901b60f8161c191690558b80610c3f565b810160a0015182556020938401936001929092019101610c22565b80602080928401015182828d0101520161050a565b604051630779207f60e11b815260e4356004820152602490fd5b5062278d0060e435116104b5565b60405163770185ed60e01b81526001600160c01b031986166004820152336024820152604490fd5b0390fd5b506001600160a01b03610cfd61468b565b6040516309403b6f60e31b81526001600160c01b0319881660048201523360248201529160209183916044918391165afa908115610d7357600091610d44575b50156104a3565b610d66915060203d602011610d6c575b610d5e81836135a7565b810190613dc6565b88610d3d565b503d610d54565b6040513d6000823e3d90fd5b604051634fddb6dd60e11b81526001600160c01b031985166004820152602490fd5b610dba915060203d602011610d6c57610d5e81836135a7565b87610487565b3461027f57604036600319011261027f57610dff600435610ddf6136cd565b90806000526000602052610dfa6001604060002001546139aa565b613ab4565b005b3461027f5760208060031936011261027f57610e1b6136e3565b906003549160ff91828460a01c1661116d576001600160a01b0391821693841561115b576001600160a81b0319168417600160a01b176003557fa49807205ce4d355092ef5a8a18f56e8913cf4a201fbe287825b095693c2177560008181528083526040808220878352845290205484161561111c575b507f97667070c54ef182b0f5858b034beac1b6f3089aa2d3188bb1e8929f4fa9b929806000526000825260406000208560005282528360406000205416156110dd575b50604051637b10399960e01b8152918183600481305afa928315610d73576000936110ae575b507f14684b861e7ed8196bfd1e75a427098261dc7f825334a81d48ec74d12ef80dfe908160005260008352604060002093169283600052825283604060002054161561106f575b507f8a21e8fdae6c23863f7de5307e2e7162c88dab602a41610addb5f1505d25939880600052600082526040600020836000528252836040600020541615611030575b507fd8aa0f3194971a2a116679f7c2090f6939c8d4e01a2a8d7e41d55e5351469e6392836000526000825260406000208360005282526040600020541615610ff0575b837f27b541a16df0902e262f34789782092ab25125513b8ed73608e802951771b928600080a2005b826000526000815260406000209082600052526040600020600160ff198254161790553391600080516020614a95833981519152600080a4818080610fc8565b806000526000825260406000208360005282526040600020600160ff19825416179055823391600080516020614a95833981519152600080a484610f85565b806000526000825260406000208360005282526040600020600160ff19825416179055823391600080516020614a95833981519152600080a484610f42565b6110cf919350823d84116110d6575b6110c781836135a7565b810190613da7565b9185610efb565b503d6110bd565b806000526000825260406000208560005282526040600020600160ff19825416179055843391600080516020614a95833981519152600080a484610ed5565b806000526000825260406000208560005282526040600020600160ff19825416179055843391600080516020614a95833981519152600080a484610e92565b604051637bfd2e8360e01b8152600490fd5b604051637396742f60e11b8152600490fd5b3461027f5761118d36613734565b60ff60035460a01c161561031557610dff9161476e565b613775565b3461027f57602036600319011261027f57600435600681101561027f576111da6111d56109d792613e41565b6142ad565b604051918291826136f9565b3461027f57604036600319011261027f576111ff6136e3565b6024359060ff90600382815460a01c1615610315578333600052602092600b845260406000209560018060a01b0391828116978860005286528160406000205410611406575033600052600b85526040600020876000528552604060002061126882825461402b565b905533600052600f8552611282604060002091825461402b565b905560005b33600052600e80865287604060002080548410156113f9576112aa848692614713565b50541614806113d8575b6112c8575b506112c390613dde565b611287565b9092336000528186526112df846040600020614713565b5060019081015482106113ab5761132d923360005280885286611306876040600020614713565b500160ff198154169055336000528752611324856040600020614713565b5001549061402b565b915b821561133b57876112b9565b50509250505b33600052600b8152604060002083600052815260406000205415611393575b60405191825242908201527fa4a5a3554ccf1a9531c27b469cd495bd2d61b6da23637fe39c7ed3d90c9a013260403392a3005b600c81526113a5336040600020614038565b50611360565b6113ce91923360005287526113c4856040600020614713565b500191825461402b565b905560009161132f565b503360005280865286856113f0846040600020614713565b500154166112b4565b5050505050925050611341565b6040516309078cff60e21b81523360048201526001600160a01b03919091166024820152604490fd5b3461027f57602036600319011261027f5760c061145b61144d613507565b6114556142fe565b50614330565b60a06040519180518352602081015160208401526040810151604084015260608101516060840152608081015160808401520151151560a0820152f35b3461027f57600036600319011261027f576003546001600160a01b03811633036103275760a01c60ff1615610315577f6dff2fe8fbb5b23bf0583bf5b2157ff62ca7e27f2fb4f404914cd0c205ced5cc600080a1005b3461027f57606036600319011261027f576004356001600160401b03811161027f5761151e903690600401613637565b6115266136cd565b906003604435101561027f5760209161153e91614a48565b604051908152f35b3461027f57606036600319011261027f576004356001600160401b03811161027f57611576903690600401613637565b6004602435101561027f576044356001600160401b03811161027f576115a0903690600401613637565b9060ff60035460a01c1615610315576115b7613d63565b6115bf613e7a565b60405160208183516115d48183858801613655565b60059082019081520301902060018101805460401c6001600160a01b031615611a9d57611600836143e5565b60ff600583015460181c166006811015611a8757600103611a655760405160208185516116308183858a01613655565b810160068152030190203360005260205260ff60046040600020015416611a495761165c6024356136aa565b60243515611a26576116739054339060c01b6145f2565b908115611a005760405161168681613570565b3381526116946024356136aa565b6024356020820152826040820152426060820152846080820152600160a0820152600060c0820152600160e082015260405160208186516116d88183858b01613655565b810160068152030190203360005260205260406000209060018060a01b03815116825490602083015161170a816136aa565b611713816136aa565b6001600160a81b03199092161760a09190911b60ff60a01b16178255604081015160018301556060810151600283015560808101518051906001600160401b038211610a7b576117738261176a6003870154613c93565b60038701613ded565b602090601f83116001146119605760e06118c79794847fe57242758a93b8a807e382015be1d28c6734011c0bf1a547f7f78c652accbee09a98956118ef9895600695600092611955575b50508160011b916000199060031b1c19161760038501555b6117f460a08201511515600486019060ff801983541691151516179055565b60c08101516005850155015191015561180e6024356136aa565b6024356002036118f957600901611826828254613b51565b90555b611854604051845161183f818360208901613655565b81019060078252602081339303019020613f7e565b5061185e83613e5a565b6040519061186d6024356136aa565b6024358252826020830152606060408301527fb34ff3baec8e10f5bb8e345d0d1b8546d62818721ef9c2db9980f7d669b22cb23392806118b0606082018c613678565b0390a3604051938493608085526080850190613678565b906118d36024356136aa565b6024356020850152604084015282810360608401523395613678565b0390a26001600255005b6119046024356136aa565b60243560010361192357600a0161191c828254613b51565b9055611829565b61192e6024356136aa565b60036024351461193f575b50611829565b600b0161194d828254613b51565b905586611939565b015190508d806117bd565b906003850160005260206000209160005b601f19851681106119e857506118c797946001856118ef989560069560e0957fe57242758a93b8a807e382015be1d28c6734011c0bf1a547f7f78c652accbee09e9c99601f198116106119cf575b505050811b0160038501556117d5565b015160001960f88460031b161c191690558d80806119bf565b91926020600181928685015181550194019201611971565b6040516309e915af60e01b81523360048201526001602482015260006044820152606490fd5b60405163018c193160e61b8152602490611a4082356136aa565b81356004820152fd5b604051639214b07560e01b815280610ce8338660048401614003565b60405163fa37f07360e01b81526020600482015280610ce86024820186613678565b634e487b7160e01b600052602160045260246000fd5b6040516382384e3160e01b81526020600482015280610ce86024820186613678565b3461027f57600036600319011261027f57602060405160008152f35b3461027f57600036600319011261027f5760206040517f60b4c21d70ead12825359faa918a75b0f6aec1173d8f83736a228003bb90f01c8152f35b3461027f57611b7c60e0611b2936613734565b929060405190611b3882613570565b60008252600060209483828780960152826040820152826060820152606060808201528260a08201528260c082015201528160405193828580945193849201613655565b8101600681520301902060018060a01b03809316600052815260406000209060405191611ba883613570565b60ff8154858116855260a01c169180840192611bc3816136aa565b835260018201546040850190815260028301546060860190815260405191611bf983611bf28160038901613ccd565b03846135a7565b6080870192835260ff6004860154169560a088019615158752600660058701549660c08a0197885201549460e08901958652604051998a99828b5251169089015251611c44816136aa565b60408801525160608701525160808601525191611c6f610100938460a0880152610120870190613678565b9351151560c08601525160e085015251908301520390f35b3461027f576020611ca0611c9a36613734565b90614933565b6040519015158152f35b3461027f57604036600319011261027f57611cc36136cd565b600435600052600060205260406000209060018060a01b0316600052602052602060ff604060002054166040519015158152f35b3461027f57600036600319011261027f57611d10613793565b60ff60035460a01c161561031557611d26613d63565b600160ff19815416176001557f62e78cea01bee320cd4e420270b5ea74000d11b0c9f74754ebdbfc544b05a2586020604051338152a1005b3461027f57602036600319011261027f576001600160c01b0319611d80613507565b1660005260086020526109d76111da60406000206142ad565b3461027f57602036600319011261027f57602061153e60043561472f565b3461027f57600036600319011261027f576003546040516001600160a01b039091168152602090f35b3461027f57604036600319011261027f576001600160401b0360043581811161027f57611e11903690600401613637565b9060243590811161027f57611e2a903690600401613637565b60ff60035460a01c161561031557611e40613d63565b611e48613e7a565b604051918051602093848181850193611e62818387613655565b600590820190815203019020600181015460401c6001600160a01b03168015611fcf5733141580611f8c575b611f70576005019060ff825460181c16906006821015611a875781151580611f65575b611f435792611f1f611ef5611f3994611efa611f25957f8dbd1fa6baf50d3836fc5e7f202ac3db85ba86b145e4cc3fbc787a15c913ae4c9886519020938491613e41565b614038565b50630500000063ff000000198254161790556005600052600988526040600020613f7e565b50613e5a565b926040519182918683523396830190613678565b0390a36001600255005b60405163afeab32960e01b81526004810187905280610ce86024820187613678565b506001821415611eb1565b60405163b64839ed60e01b815280610ce8338660048401614003565b507f14684b861e7ed8196bfd1e75a427098261dc7f825334a81d48ec74d12ef80dfe60005260008552604060002033600052855260ff6040600020541615611e8e565b6040516382384e3160e01b81526004810187905280610ce86024820187613678565b3461027f57600036600319011261027f5760206040517fa49807205ce4d355092ef5a8a18f56e8913cf4a201fbe287825b095693c217758152f35b3461027f57604036600319011261027f576120456136e3565b60243560ff60035460a01c1615610315576001600160a01b0382811692831580156121ce575b6121a5575033600052602090600e8252604060002060405161208c81613555565b85815283810191858352604082014281526060830191600183528054600160401b811015610a7b576120c391600182018155614713565b94909461218f576121069560039451166001600160601b0360a01b86541617855551600185015551600284015551151591019060ff801983541691151516179055565b33600052600f8152604060002061211e838254613b51565b905533600052600b815260406000208360005281526040600020612143838254613b51565b905582600052600c815261215b336040600020613f7e565b5060405191825242908201527f0e93f38017caec651d0ce6b361a18a797c3c92915af8727bc361e8b5528e01cd60403392a3005b634e487b7160e01b600052600060045260246000fd5b60405163ef8342b560e01b81523360048201526001600160a01b03919091166024820152604490fd5b5033841461206b565b3461027f57602036600319011261027f576001600160a01b036121f86136e3565b16600052600f6020526020604060002054604051908152f35b3461027f57600036600319011261027f57602060ff600154166040519015158152f35b3461027f57600036600319011261027f57604051600060045461225681613c93565b808452906001908181169081156122ef5750600114612294575b6109d784612280818603826135a7565b604051918291602083526020830190613678565b6004600090815292507f8a35acfbc15ff81a39ae7d344fd709f28e8600b4aa8c65c6b64bfe7fe36bd19b5b8284106122d757505050810160200161228082612270565b805460208587018101919091529093019281016122bf565b60ff191660208087019190915292151560051b850190920192506122809150839050612270565b3461027f57600036600319011261027f576003546001600160a01b03811633036103275760a01c60ff161561031557611d26613d63565b3461027f57600036600319011261027f576003546001600160a01b03811633036103275760a01c60ff16156103155760015460ff8116156123bb5760ff19166001557f5db9ee0a495bf2e6ff9c91a7834c1ba4fdd244a5e8aa4e537bd38aeae4b073aa6020604051338152a1005b60405162461bcd60e51b815260206004820152601460248201527314185d5cd8589b194e881b9bdd081c185d5cd95960621b6044820152606490fd5b3461027f57600036600319011261027f57612410613793565b60ff60035460a01c16156103155760015460ff8116156123bb5760ff19166001557f5db9ee0a495bf2e6ff9c91a7834c1ba4fdd244a5e8aa4e537bd38aeae4b073aa6020604051338152a1005b3461027f57600036600319011261027f57602060ff60035460a01c166040519015158152f35b3461027f57608036600319011261027f576004356001600160401b03811161027f576124b3903690600401613637565b6004602435101561027f576064356001600160401b03811161027f576124dd903690600401613637565b9060ff60035460a01c1615610315576124f4613d63565b6124fc613e7a565b60405160208183516125118183858801613655565b60059082019081520301902060018101805460401c6001600160a01b031615611a9d5761253d836143e5565b60ff600583015460181c166006811015611a8757600103611a6557604051602081855161256d8183858a01613655565b810160068152030190203360005260205260ff60046040600020015416611a49576125996024356136aa565b60243515611a26576125b09054339060c01b6145f2565b918215611a0057604051637bc8450f60e01b8152604435600482015292602084602481305afa938415610d7357600094612946575b50836125f091613b28565b916040516125fd81613570565b33815261260b6024356136aa565b6024356020820152836040820152426060820152856080820152600160a082015260443560c08201528460e0820152604051602081855161264f8183858a01613655565b810160068152030190203360005260205260406000209060018060a01b038151168254906020830151612681816136aa565b61268a816136aa565b6001600160a81b03199092161760a09190911b60ff60a01b16178255604081015160018301556060810151600283015560808101518051906001600160401b038211610a7b576126e18261176a6003870154613c93565b602090601f83116001146128a9576128049593837fc0273d1ed732f2ff7f0865b547ea6da3296102edb2915a7eb2af9b1596479ce09998969460069460e09460009261289e575b50508160011b916000199060031b1c19161760038501555b61275f60a08201511515600486019060ff801983541691151516179055565b60c08101516005850155015191015560405160208184516127838183858901613655565b81016010815203019020336000526020528360406000205560405160208184516127b08183858901613655565b8101601181520301902033600052602052426040600020556127d36024356136aa565b602435600203612842576009016127eb848254613b51565b90555b611f1f604051825161183f818360208701613655565b92604051916128146024356136aa565b602435835260208301526040820152604435606082015260a0608082015280611f39339560a0830190613678565b61284d6024356136aa565b60243560010361286c57600a01612865848254613b51565b90556127ee565b6128776024356136aa565b600360243514612888575b506127ee565b600b01612896848254613b51565b905586612882565b015190508d80612728565b906003850160005260206000209160005b601f198516811061292e57509360018460069460e0946128049a987fc0273d1ed732f2ff7f0865b547ea6da3296102edb2915a7eb2af9b1596479ce09d9c9a98601f19811610612915575b505050811b016003850155612740565b015160001960f88460031b161c191690558d8080612905565b919260206001819286850151815501940192016128ba565b9093506020813d602011612974575b81612962602093836135a7565b8101031261027f5751926125f06125e5565b3d9150612955565b3461027f57604036600319011261027f576129956136cd565b336001600160a01b038216036129b157610dff90600435613ab4565b60405162461bcd60e51b815260206004820152602f60248201527f416363657373436f6e74726f6c3a2063616e206f6e6c792072656e6f756e636560448201526e103937b632b9903337b91039b2b63360891b6064820152608490fd5b3461027f5760208060031936011261027f576001600160a01b039081612a326136e3565b16600052600e8152604060002080546001600160401b038111610a7b579160405192612a63828260051b01856135a7565b8084528184018093600052826000206000915b838310612ade575050505060405192818401908285525180915260408401929160005b828110612aa65785850386f35b835180518816865280830151868401526040808201519087015260609081015115159086015260809094019392810192600101612a99565b600485600192604099979951612af381613555565b8b865416815284860154838201526002860154604082015260ff60038701541615156060820152815201920192019190959395612a76565b3461027f57604036600319011261027f57600435612b476136cd565b816000526000602052612b616001604060002001546139aa565b81600052600060205260406000209060018060a01b0316908160005260205260ff6040600020541615612b9057005b8160005260006020526040600020816000526020526040600020600160ff198254161790553391600080516020614a95833981519152600080a4005b3461027f57606036600319011261027f57612be5613507565b612bed6136cd565b906003604435101561027f5781612c03916145f2565b600060018060a01b0380931680600052602093600c8552612c2760406000206142ad565b6000935b8151851015612c7057612c64612c6a9184898860051b8601015116600052600b8952604060002086600052895260406000205490613b51565b94613dde565b93612c2b565b61153e879187613b51565b3461027f576020600319818136011261027f576004356001600160401b03811161027f57612cad903690600401613637565b9060ff60035460a01c161561031557612cc4613d63565b612ccc613e7a565b60609160405191815192858181850195612ce7818389613655565b8101600581520301902060018060a01b0390600194828683015460401c1615612f6d57612d13856143e5565b60058201805460ff8160181c166006811015611a8757600203612f4b5760088401544210612f2957906303000000612d9b939263ff0000001916179055426010840155600e8301336001600160601b0360a01b82541617905585519020600260005260098952612d87816040600020614038565b506003600052600989526040600020613f7e565b50600c810191825491612dad83613c93565b151580612f1a575b15612f0857600d0154169160405191600091612dd082613c93565b91888116908115612ef05750600114612eb7575b505091816000809493819403925af1933d15612eb057503d612e05816135e5565b90612e1360405192836135a7565b8152600081963d92013e5b848415612e78575050612e3090613e5a565b604051907f0227784e86231da3060bcbcf480d242f1e11ed1c6d0a78be86c6df5eb39ab770339280612e638888836136b4565b0390a36002556109d7604051928392836136b4565b612ea19291610ce891604051948594623871e560e01b8652604060048701526044860190613678565b91848303016024850152613678565b9450612e1e565b9091506000528760002088876000925b848410612ede575050509082019050816000612de4565b80548487015201910190878a91612ec7565b60ff1916855250508015150282019050816000612de4565b5050505050919250612e308192613e5a565b5081600d820154161515612db5565b60405163afeab32960e01b8152600481018b905280610ce8602482018a613678565b60405163ca453b0160e01b8152600481018b905280610ce8602482018a613678565b6040516382384e3160e01b81526004810189905280610ce86024820188613678565b3461027f57602036600319011261027f576004356001600160401b03811161027f57612fbf903690600401613637565b6000610280604051612fd081613539565b6060815282602082015282604082015260608082015260606080820152606060a08201528260c08201528260e08201528261010082015282610120820152826101408201528261016082015282610180820152826101a0820152826101c0820152826101e08201526060610200820152826102208201528261024082015282610260820152015261307e604051602081845161306f8183858901613655565b81016005815203019020614128565b60408101519091906001600160a01b0316156132235750604051906020825261312b6131156130ff6130be84516102a060208801526102c0870190613678565b60208501516001600160c01b0319166040878101919091528501516001600160a01b0316606080880191909152850151868203601f19016080880152613678565b6080840151858203601f190160a0870152613678565b60a0830151848203601f190160c0860152613678565b9061313e60c082015160e085019061369d565b60e081015161314c816136aa565b6101008401526101008101516003811015611a8757610120840152610120810151916006831015611a87576131e66102809185946101408601526101408401516101608601526101608401516101808601526101808401516101a08601526101a08401516101c08601526101c08401516101e08601526101e0840151610200860152610200840151601f1986830301610220870152613678565b6102208301516001600160a01b03908116610240868101919091528401511661026080860191909152830151828501529101516102a08301520390f35b6040516382384e3160e01b815260206004820152908190610ce8906024830190613678565b3461027f57602036600319011261027f5760043560005260006020526020600160406000200154604051908152f35b3461027f57600036600319011261027f576020604051610e108152f35b3461027f57602036600319011261027f576004356001600160401b03811161027f57611ca06132c96020923690600401613637565b6149f8565b3461027f57600036600319011261027f5760206040517f8a21e8fdae6c23863f7de5307e2e7162c88dab602a41610addb5f1505d2593988152f35b3461027f57600036600319011261027f5760206040517fd8aa0f3194971a2a116679f7c2090f6939c8d4e01a2a8d7e41d55e5351469e638152f35b3461027f57602036600319011261027f5760043563ffffffff60e01b811680910361027f57602090637965db0b60e01b8114908115613389575b506040519015158152f35b6301ffc9a760e01b1490508261337e565b3461027f5760e036600319011261027f576133b3613507565b9060c036602319011261027f576133c98161351e565b6024358152602081016044358152604082016064358152606083016084358152608084019160a435835260c43593841515850361027f5760a0860194855260ff60035460a01c1615610315576001600160a01b0361342561468b565b6040516309403b6f60e31b81526001600160c01b03198a1660048201523360248201529160209183916044918391165afa908115610d73576000916134e9575b50156134c15790600594939291610dff976001600160401b0360c01b16600052600a60205260406000209651875551600187015551600286015551600385015551600484015551151591019060ff801983541691151516179055565b60405163770185ed60e01b81526001600160c01b031988166004820152336024820152604490fd5b613501915060203d8111610d6c57610d5e81836135a7565b88613465565b600435906001600160c01b03198216820361027f57565b60c081019081106001600160401b03821117610a7b57604052565b6102a081019081106001600160401b03821117610a7b57604052565b608081019081106001600160401b03821117610a7b57604052565b61010081019081106001600160401b03821117610a7b57604052565b604081019081106001600160401b03821117610a7b57604052565b90601f801991011681019081106001600160401b03821117610a7b57604052565b3461027f57600036600319011261027f5760206040516127108152f35b6001600160401b038111610a7b57601f01601f191660200190565b92919261360c826135e5565b9161361a60405193846135a7565b82948184528183011161027f578281602093846000960137010152565b9080601f8301121561027f5781602061365293359101613600565b90565b60005b8381106136685750506000910152565b8181015183820152602001613658565b9060209161369181518092818552858086019101613655565b601f01601f1916010190565b906005821015611a875752565b60041115611a8757565b6040906136529392151581528160208201520190613678565b602435906001600160a01b038216820361027f57565b600435906001600160a01b038216820361027f57565b6020908160408183019282815285518094520193019160005b828110613720575050505090565b835185529381019392810192600101613712565b604060031982011261027f57600435906001600160401b03821161027f5761375e91600401613637565b906024356001600160a01b038116810361027f5790565b3461027f57600036600319011261027f57602060405162278d008152f35b3360009081527f7d7ffb7a348e1c6a02869081a26547b49160dd3df72d1d75a570eb9b698292ec602090815260408083205490927fa49807205ce4d355092ef5a8a18f56e8913cf4a201fbe287825b095693c217759160ff16156137f75750505050565b61380033613b85565b9184519061380d82613555565b6042825284820192606036853782511561399657603084538251906001918210156139965790607860218501536041915b818311613928575050506138e6576048610ce89386936138ca936138bb985198899376020b1b1b2b9b9a1b7b73a3937b61d1030b1b1b7bab73a1604d1b8a860152613892815180928c603789019101613655565b8401917001034b99036b4b9b9b4b733903937b6329607d1b603784015251809386840190613655565b010360288101875201856135a7565b5192839262461bcd60e51b845260048401526024830190613678565b60648486519062461bcd60e51b825280600483015260248201527f537472696e67733a20686578206c656e67746820696e73756666696369656e746044820152fd5b909192600f81166010811015613982576f181899199a1a9b1b9c1cb0b131b232b360811b901a6139588587613b5e565b5360041c92801561396e5760001901919061383e565b634e487b7160e01b82526011600452602482fd5b634e487b7160e01b83526032600452602483fd5b634e487b7160e01b81526032600452602490fd5b600090808252602090828252604092838120338252835260ff8482205416156139d35750505050565b6139dc33613b85565b918451906139e982613555565b6042825284820192606036853782511561399657603084538251906001918210156139965790607860218501536041915b818311613a6e575050506138e6576048610ce89386936138ca936138bb985198899376020b1b1b2b9b9a1b7b73a3937b61d1030b1b1b7bab73a1604d1b8a860152613892815180928c603789019101613655565b909192600f81166010811015613982576f181899199a1a9b1b9c1cb0b131b232b360811b901a613a9e8587613b5e565b5360041c92801561396e57600019019190613a1a565b9060009180835282602052604083209160018060a01b03169182845260205260ff604084205416613ae457505050565b80835282602052604083208284526020526040832060ff1981541690557ff6391f5c32d9c69d2a47ea670b442974b53935d1edc7fd64eb21e047a839171b339380a4565b81810292918115918404141715613b3b57565b634e487b7160e01b600052601160045260246000fd5b91908201809211613b3b57565b908151811015613b6f570160200190565b634e487b7160e01b600052603260045260246000fd5b60405190606082018281106001600160401b03821117610a7b57604052602a8252602082016040368237825115613b6f57603090538151600190811015613b6f57607860218401536029905b808211613c25575050613be15790565b606460405162461bcd60e51b815260206004820152602060248201527f537472696e67733a20686578206c656e67746820696e73756666696369656e746044820152fd5b9091600f81166010811015613c7e576f181899199a1a9b1b9c1cb0b131b232b360811b901a613c548486613b5e565b5360041c918015613c69576000190190613bd1565b60246000634e487b7160e01b81526011600452fd5b60246000634e487b7160e01b81526032600452fd5b90600182811c92168015613cc3575b6020831014613cad57565b634e487b7160e01b600052602260045260246000fd5b91607f1691613ca2565b9060009291805491613cde83613c93565b918282526001938481169081600014613d405750600114613d00575b50505050565b90919394506000526020928360002092846000945b838610613d2c575050505001019038808080613cfa565b805485870183015294019385908201613d15565b9294505050602093945060ff191683830152151560051b01019038808080613cfa565b60ff60015416613d6f57565b60405162461bcd60e51b815260206004820152601060248201526f14185d5cd8589b194e881c185d5cd95960821b6044820152606490fd5b9081602091031261027f57516001600160a01b038116810361027f5790565b9081602091031261027f5751801515810361027f5790565b6000198114613b3b5760010190565b90601f8111613dfb57505050565b600091825260208220906020601f850160051c83019410613e37575b601f0160051c01915b828110613e2c57505050565b818155600101613e20565b9092508290613e17565b6006811015611a87576000526009602052604060002090565b613e7290602060405192828480945193849201613655565b810103902090565b6002805414613e895760028055565b60405162461bcd60e51b815260206004820152601f60248201527f5265656e7472616e637947756172643a207265656e7472616e742063616c6c006044820152606490fd5b8054821015613b6f5760005260206000200190600090565b600081815260136020526040812054613f7957601254600160401b811015613f65576001810180601255811015613f515790826040927fbb8a6a4669ba250d26cd7a459eca9d215f8307e33aebe50379bc5a3617ec3444015560125492815260136020522055600190565b634e487b7160e01b82526032600452602482fd5b634e487b7160e01b82526041600452602482fd5b905090565b91906001830160009082825280602052604082205415600014613ffd57845494600160401b861015613fe95783613fd9613fc2886001604098999a01855584613ece565b819391549060031b91821b91600019901b19161790565b9055549382526020522055600190565b634e487b7160e01b83526041600452602483fd5b50925050565b9061401b602091949394604084526040840190613678565b6001600160a01b03909416910152565b91908203918211613b3b57565b90600182019060009281845282602052604084205490811515600014614121576000199180830181811161410d578254908482019182116140f9578082036140c4575b505050805480156140b0578201916140938383613ece565b909182549160031b1b191690555582526020526040812055600190565b634e487b7160e01b86526031600452602486fd5b6140e46140d4613fc29386613ece565b90549060031b1c92839286613ece565b9055865284602052604086205538808061407b565b634e487b7160e01b88526011600452602488fd5b634e487b7160e01b87526011600452602487fd5b5050505090565b90604080519061413782613539565b81938151614150816141498185613ccd565b03826135a7565b8352600181015460c081901b6001600160c01b0319166020850152821c6001600160a01b03908116838501528251909190614192816141498160028601613ccd565b606085015282516141aa816141498160038601613ccd565b608085015282516141c2816141498160048601613ccd565b60a0850152600581015460ff81166005811015611a875760c086015260ff8160081c166141ee816136aa565b60e086015260ff8160101c16906003821015611a875760ff9161010087015260181c16916006831015611a87576102809360109361012087015260068301546101408701526007830154610160870152600883015461018087015260098301546101a0870152600a8301546101c0870152600b8301546101e08701525161427c8161414981600c8701613ccd565b61020086015280600d83015416610220860152600e82015416610240850152600f8101546102608501520154910152565b9060405191828154918282526020928383019160005283600020936000905b8282106142e4575050506142e2925003836135a7565b565b8554845260019586019588955093810193909101906142cc565b6040519061430b8261351e565b8160a06000918281528260208201528260408201528260608201528260808201520152565b6143386142fe565b506001600160401b0360c01b16600052600a60205260406000206040519061435f8261351e565b8054825260ff6005600183015492836020860152600281015460408601526003810154606086015260048101546080860152015416151560a0830152156143a35790565b506040516143b08161351e565b6014548152601554602082015260165460408201526017546060820152601854608082015260ff60195416151560a082015290565b60405190805191602081818401946143fe818388613655565b81016005815203019020600581019261442661442160ff865460181c1693614128565b61448f565b926006841015611a87576006831015611a8757838303614448575b5050505050565b51902061446d9161445e908290611ef590613e41565b5061446883613e41565b613f7e565b5063ff00000082549160181b169063ff00000019161790553880808080614441565b610120810180516006811015611a875760031480156145de575b6145cf575061014081015142106145c9576101608101514211156145c35760208101906001600160401b0360c01b916144e483825116614330565b6101a083019260036101008551966145126145066101c08601998a5190613b51565b6101e086015190613b51565b9551169201511015611a875760206001600160a01b0361453061468b565b169160246040518094819363379aab3360e01b835260048301525afa908115610d735760009161458d575b5061456e90606061271093015190613b28565b0411614586575190511061458157600490565b600290565b5050600490565b906020823d82116145bb575b816145a6602093836135a7565b810103126145b857505161271061455b565b80fd5b3d9150614599565b50600190565b50600090565b9050516006811015611a875790565b5080516006811015611a87576005146144a9565b61464b916020916001600160a01b0361460961468b565b6040516309403b6f60e31b81526001600160c01b031990931660048401526001600160a01b039093166024830152909384929190911690829081906044820190565b03915afa908115610d735760009161466d575b5061466857600090565b600190565b614685915060203d8111610d6c57610d5e81836135a7565b3861465e565b60035460ff8160a01c1615610315576040516385acd64160e01b81527fbdded29a54e6a5d6169bedea55373b06f57e35d7b0f67ac187565b435e2cc94360048201526001600160a01b03916020908290602490829086165afa908115610d73576000916146f757501690565b61470f915060203d81116110d6576110c781836135a7565b1690565b8054821015613b6f5760005260206000209060021b0190600090565b80156145c357620151809004606481029080820460641490151715613b3b57610bb8900460010180600111613b3b5761012c9081811115613f79575090565b90604090815191835160209384818188019361478b818387613655565b810160068152030190209260018060a01b031694600093868552855282842060ff600482015416158015614927575b6147f7578351868184516147cf818389613655565b8101601181520301902087865286526147eb848620544261402b565b60058201541115614800575b50505050505050565b60018101928354956006830190815490811561491357509260ff6148638a6148a395600160609b99968d9b997fe3224d12971ec6cd1e86eac7c4c30aaa7b8ff863968e40299346f0b6d997950d9e04809a55558851809381928851928391613655565b81016005815203019020915460a01c1661487c816136aa565b600281036148be575060090161489c8461489788845461402b565b613b51565b9055613e5a565b9582519384528301524290820152a3388080808080806147f7565b6148c7816136aa565b600181036148e25750600a0161489c8461489788845461402b565b806148ee6003926136aa565b146148f95750613e5a565b600b0161490b8461489788845461402b565b905538611f1f565b634e487b7160e01b81526012600452602490fd5b506005810154156147ba565b90604051916149508151936020818185019661306f81838a613655565b604081015190936001600160a01b039290918316156149ee576101208501516006811015611a87576001036149ee5761499791602091604051938492839251928391613655565b8101600681520301902090821660005260205260ff600460406000200154166149e75760036101006001600160401b0360c01b6020850151169301511015611a87576149e2916145f2565b151590565b5050600090565b5050505050600090565b61306f6020614a14928160405193828580945193849201613655565b60408101516001600160a01b0316156145c9576101208101516006811015611a87576002036145c957610180015142101590565b61306f6020614a64928160405193828580945193849201613655565b60408101519091906001600160a01b0316156149e7576136529160206001600160401b0360c01b910151166145f256fe2f8788117e7eff1d82e926ec794901d17c78024a50270940304540a733656f0da2646970667358221220aca7236905676611adc23cd20641ff8a20c53410b39dea69841044e3f91ecf6364736f6c634300081400332f8788117e7eff1d82e926ec794901d17c78024a50270940304540a733656f0d",
  "linkReferences": {},
  "deployedLinkReferences": {}
}